{
  "contractName": "AppealableArbitrator",
  "abi": [
    {
      "constant": true,
      "inputs": [
        {
          "name": "",
          "type": "uint256"
        }
      ],
      "name": "appealDisputeIDsToDisputeIDs",
      "outputs": [
        {
          "name": "",
          "type": "uint256"
        }
      ],
      "payable": false,
      "stateMutability": "view",
      "type": "function"
    },
    {
      "constant": true,
      "inputs": [],
      "name": "arbitratorExtraData",
      "outputs": [
        {
          "name": "",
          "type": "bytes"
        }
      ],
      "payable": false,
      "stateMutability": "view",
      "type": "function"
    },
    {
      "constant": true,
      "inputs": [
        {
          "name": "_disputeID",
          "type": "uint256"
        }
      ],
      "name": "currentRuling",
      "outputs": [
        {
          "name": "ruling",
          "type": "uint256"
        }
      ],
      "payable": false,
      "stateMutability": "view",
      "type": "function"
    },
    {
      "constant": false,
      "inputs": [
        {
          "name": "_disputeID",
          "type": "uint256"
        },
        {
          "name": "_ruling",
          "type": "uint256"
        }
      ],
      "name": "rule",
      "outputs": [],
      "payable": false,
      "stateMutability": "nonpayable",
      "type": "function"
    },
    {
      "constant": true,
      "inputs": [
        {
          "name": "",
          "type": "uint256"
        }
      ],
      "name": "appealDisputes",
      "outputs": [
        {
          "name": "rulingTime",
          "type": "uint256"
        },
        {
          "name": "arbitrator",
          "type": "address"
        },
        {
          "name": "appealDisputeID",
          "type": "uint256"
        }
      ],
      "payable": false,
      "stateMutability": "view",
      "type": "function"
    },
    {
      "constant": true,
      "inputs": [
        {
          "name": "",
          "type": "uint256"
        }
      ],
      "name": "disputes",
      "outputs": [
        {
          "name": "arbitrated",
          "type": "address"
        },
        {
          "name": "choices",
          "type": "uint256"
        },
        {
          "name": "fee",
          "type": "uint256"
        },
        {
          "name": "ruling",
          "type": "uint256"
        },
        {
          "name": "status",
          "type": "uint8"
        }
      ],
      "payable": false,
      "stateMutability": "view",
      "type": "function"
    },
    {
      "constant": true,
      "inputs": [],
      "name": "timeOut",
      "outputs": [
        {
          "name": "",
          "type": "uint256"
        }
      ],
      "payable": false,
      "stateMutability": "view",
      "type": "function"
    },
    {
      "constant": true,
      "inputs": [],
      "name": "arbitrator",
      "outputs": [
        {
          "name": "",
          "type": "address"
        }
      ],
      "payable": false,
      "stateMutability": "view",
      "type": "function"
    },
    {
      "constant": true,
      "inputs": [],
      "name": "owner",
      "outputs": [
        {
          "name": "",
          "type": "address"
        }
      ],
      "payable": false,
      "stateMutability": "view",
      "type": "function"
    },
    {
      "constant": true,
      "inputs": [
        {
          "name": "_disputeID",
          "type": "uint256"
        }
      ],
      "name": "appealPeriod",
      "outputs": [
        {
          "name": "start",
          "type": "uint256"
        },
        {
          "name": "end",
          "type": "uint256"
        }
      ],
      "payable": false,
      "stateMutability": "view",
      "type": "function"
    },
    {
      "constant": false,
      "inputs": [
        {
          "name": "_choices",
          "type": "uint256"
        },
        {
          "name": "_extraData",
          "type": "bytes"
        }
      ],
      "name": "createDispute",
      "outputs": [
        {
          "name": "disputeID",
          "type": "uint256"
        }
      ],
      "payable": true,
      "stateMutability": "payable",
      "type": "function"
    },
    {
      "constant": true,
      "inputs": [
        {
          "name": "_extraData",
          "type": "bytes"
        }
      ],
      "name": "arbitrationCost",
      "outputs": [
        {
          "name": "fee",
          "type": "uint256"
        }
      ],
      "payable": false,
      "stateMutability": "view",
      "type": "function"
    },
    {
      "constant": false,
      "inputs": [
        {
          "name": "_arbitrationPrice",
          "type": "uint256"
        }
      ],
      "name": "setArbitrationPrice",
      "outputs": [],
      "payable": false,
      "stateMutability": "nonpayable",
      "type": "function"
    },
    {
      "inputs": [
        {
          "name": "_arbitrationPrice",
          "type": "uint256"
        },
        {
          "name": "_arbitrator",
          "type": "address"
        },
        {
          "name": "_arbitratorExtraData",
          "type": "bytes"
        },
        {
          "name": "_timeOut",
          "type": "uint256"
        }
      ],
      "payable": false,
      "stateMutability": "nonpayable",
      "type": "constructor"
    },
    {
      "anonymous": false,
      "inputs": [
        {
          "indexed": true,
          "name": "_metaEvidenceID",
          "type": "uint256"
        },
        {
          "indexed": false,
          "name": "_evidence",
          "type": "string"
        }
      ],
      "name": "MetaEvidence",
      "type": "event"
    },
    {
      "anonymous": false,
      "inputs": [
        {
          "indexed": true,
          "name": "_arbitrator",
          "type": "address"
        },
        {
          "indexed": true,
          "name": "_disputeID",
          "type": "uint256"
        },
        {
          "indexed": false,
          "name": "_metaEvidenceID",
          "type": "uint256"
        }
      ],
      "name": "Dispute",
      "type": "event"
    },
    {
      "anonymous": false,
      "inputs": [
        {
          "indexed": true,
          "name": "_arbitrator",
          "type": "address"
        },
        {
          "indexed": true,
          "name": "_disputeID",
          "type": "uint256"
        },
        {
          "indexed": true,
          "name": "_party",
          "type": "address"
        },
        {
          "indexed": false,
          "name": "_evidence",
          "type": "string"
        }
      ],
      "name": "Evidence",
      "type": "event"
    },
    {
      "anonymous": false,
      "inputs": [
        {
          "indexed": true,
          "name": "_arbitrator",
          "type": "address"
        },
        {
          "indexed": true,
          "name": "_disputeID",
          "type": "uint256"
        },
        {
          "indexed": false,
          "name": "_ruling",
          "type": "uint256"
        }
      ],
      "name": "Ruling",
      "type": "event"
    },
    {
      "anonymous": false,
      "inputs": [
        {
          "indexed": true,
          "name": "_disputeID",
          "type": "uint256"
        },
        {
          "indexed": true,
          "name": "_arbitrable",
          "type": "address"
        }
      ],
      "name": "DisputeCreation",
      "type": "event"
    },
    {
      "anonymous": false,
      "inputs": [
        {
          "indexed": true,
          "name": "_disputeID",
          "type": "uint256"
        },
        {
          "indexed": true,
          "name": "_arbitrable",
          "type": "address"
        }
      ],
      "name": "AppealPossible",
      "type": "event"
    },
    {
      "anonymous": false,
      "inputs": [
        {
          "indexed": true,
          "name": "_disputeID",
          "type": "uint256"
        },
        {
          "indexed": true,
          "name": "_arbitrable",
          "type": "address"
        }
      ],
      "name": "AppealDecision",
      "type": "event"
    },
    {
      "constant": false,
      "inputs": [
        {
          "name": "_arbitrator",
          "type": "address"
        }
      ],
      "name": "changeArbitrator",
      "outputs": [],
      "payable": false,
      "stateMutability": "nonpayable",
      "type": "function"
    },
    {
      "constant": false,
      "inputs": [
        {
          "name": "_timeOut",
          "type": "uint256"
        }
      ],
      "name": "changeTimeOut",
      "outputs": [],
      "payable": false,
      "stateMutability": "nonpayable",
      "type": "function"
    },
    {
      "constant": true,
      "inputs": [
        {
          "name": "_disputeID",
          "type": "uint256"
        }
      ],
      "name": "getAppealDisputeID",
      "outputs": [
        {
          "name": "disputeID",
          "type": "uint256"
        }
      ],
      "payable": false,
      "stateMutability": "view",
      "type": "function"
    },
    {
      "constant": false,
      "inputs": [
        {
          "name": "_disputeID",
          "type": "uint256"
        },
        {
          "name": "_extraData",
          "type": "bytes"
        }
      ],
      "name": "appeal",
      "outputs": [],
      "payable": true,
      "stateMutability": "payable",
      "type": "function"
    },
    {
      "constant": false,
      "inputs": [
        {
          "name": "_disputeID",
          "type": "uint256"
        },
        {
          "name": "_ruling",
          "type": "uint256"
        }
      ],
      "name": "giveRuling",
      "outputs": [],
      "payable": false,
      "stateMutability": "nonpayable",
      "type": "function"
    },
    {
      "constant": true,
      "inputs": [
        {
          "name": "_disputeID",
          "type": "uint256"
        },
        {
          "name": "_extraData",
          "type": "bytes"
        }
      ],
      "name": "appealCost",
      "outputs": [
        {
          "name": "cost",
          "type": "uint256"
        }
      ],
      "payable": false,
      "stateMutability": "view",
      "type": "function"
    },
    {
      "constant": true,
      "inputs": [
        {
          "name": "_disputeID",
          "type": "uint256"
        }
      ],
      "name": "disputeStatus",
      "outputs": [
        {
          "name": "status",
          "type": "uint8"
        }
      ],
      "payable": false,
      "stateMutability": "view",
      "type": "function"
    }
  ],
  "bytecode": "0x6080604052336000806101000a81548173ffffffffffffffffffffffffffffffffffffffff021916908373ffffffffffffffffffffffffffffffffffffffff1602179055503480156200005157600080fd5b50604051620027a2380380620027a2833981018060405260808110156200007757600080fd5b8101908080519060200190929190805190602001909291908051640100000000811115620000a457600080fd5b82810190506020810184811115620000bb57600080fd5b8151856001820283011164010000000082111715620000d957600080fd5b505092919060200180519060200190929190505050828285806001819055505081600360006101000a81548173ffffffffffffffffffffffffffffffffffffffff021916908373ffffffffffffffffffffffffffffffffffffffff16021790555080600490805190602001906200015292919062000166565b505050806005819055505050505062000215565b828054600181600116156101000203166002900490600052602060002090601f016020900481019282601f10620001a957805160ff1916838001178555620001da565b82800160010185558215620001da579182015b82811115620001d9578251825591602001919060010190620001bc565b5b509050620001e99190620001ed565b5090565b6200021291905b808211156200020e576000816000905550600101620001f4565b5090565b90565b61257d80620002256000396000f3fe60806040526004361061013b576000357c0100000000000000000000000000000000000000000000000000000000900480636cc6cde1116100bd578063c97c4d5c11610081578063c97c4d5c14610795578063f23f16e6146107da578063f7434ea9146108c0578063fc548f081461099c578063ffb43c48146109ed5761013b565b80636cc6cde11461057d5780638da5cb5b146105d457806394e9cb961461062b578063afe15cfb14610666578063c13517e1146106bc5761013b565b8063311a6c5611610104578063311a6c561461031a57806337025d211461035f57806349912f88146103e8578063564a565d146104ad578063614d85e1146105525761013b565b8062b58205146101405780630c7ac7b61461018f57806310f169e81461021f578063198106191461027c5780631c3db16d146102cb575b600080fd5b34801561014c57600080fd5b506101796004803603602081101561016357600080fd5b8101908080359060200190929190505050610a28565b6040518082815260200191505060405180910390f35b34801561019b57600080fd5b506101a4610a40565b6040518080602001828103825283818151815260200191508051906020019080838360005b838110156101e45780820151818401526020810190506101c9565b50505050905090810190601f1680156102115780820380516001836020036101000a031916815260200191505b509250505060405180910390f35b34801561022b57600080fd5b506102586004803603602081101561024257600080fd5b8101908080359060200190929190505050610ade565b6040518082600281111561026857fe5b60ff16815260200191505060405180910390f35b34801561028857600080fd5b506102b56004803603602081101561029f57600080fd5b8101908080359060200190929190505050610c7c565b6040518082815260200191505060405180910390f35b3480156102d757600080fd5b50610304600480360360208110156102ee57600080fd5b8101908080359060200190929190505050610ded565b6040518082815260200191505060405180910390f35b34801561032657600080fd5b5061035d6004803603604081101561033d57600080fd5b810190808035906020019092919080359060200190929190505050610e17565b005b34801561036b57600080fd5b506103986004803603602081101561038257600080fd5b8101908080359060200190929190505050610f1c565b604051808481526020018373ffffffffffffffffffffffffffffffffffffffff1673ffffffffffffffffffffffffffffffffffffffff168152602001828152602001935050505060405180910390f35b6104ab600480360360408110156103fe57600080fd5b81019080803590602001909291908035906020019064010000000081111561042557600080fd5b82018360208201111561043757600080fd5b8035906020019184600183028401116401000000008311171561045957600080fd5b91908080601f016020809104026020016040519081016040528093929190818152602001838380828437600081840152601f19601f820116905080830192505050505050509192919290505050610f66565b005b3480156104b957600080fd5b506104e6600480360360208110156104d057600080fd5b81019080803590602001909291905050506113a8565b604051808673ffffffffffffffffffffffffffffffffffffffff1673ffffffffffffffffffffffffffffffffffffffff16815260200185815260200184815260200183815260200182600281111561053a57fe5b60ff1681526020019550505050505060405180910390f35b34801561055e57600080fd5b5061056761141a565b6040518082815260200191505060405180910390f35b34801561058957600080fd5b50610592611420565b604051808273ffffffffffffffffffffffffffffffffffffffff1673ffffffffffffffffffffffffffffffffffffffff16815260200191505060405180910390f35b3480156105e057600080fd5b506105e9611446565b604051808273ffffffffffffffffffffffffffffffffffffffff1673ffffffffffffffffffffffffffffffffffffffff16815260200191505060405180910390f35b34801561063757600080fd5b506106646004803603602081101561064e57600080fd5b810190808035906020019092919050505061146b565b005b34801561067257600080fd5b5061069f6004803603602081101561068957600080fd5b8101908080359060200190929190505050611539565b604051808381526020018281526020019250505060405180910390f35b61077f600480360360408110156106d257600080fd5b8101908080359060200190929190803590602001906401000000008111156106f957600080fd5b82018360208201111561070b57600080fd5b8035906020019184600183028401116401000000008311171561072d57600080fd5b91908080601f016020809104026020016040519081016040528093929190818152602001838380828437600081840152601f19601f820116905080830192505050505050509192919290505050611541565b6040518082815260200191505060405180910390f35b3480156107a157600080fd5b506107d8600480360360408110156107b857600080fd5b8101908080359060200190929190803590602001909291905050506116a4565b005b3480156107e657600080fd5b506108aa600480360360408110156107fd57600080fd5b81019080803590602001909291908035906020019064010000000081111561082457600080fd5b82018360208201111561083657600080fd5b8035906020019184600183028401116401000000008311171561085857600080fd5b91908080601f016020809104026020016040519081016040528093929190818152602001838380828437600081840152601f19601f820116905080830192505050505050509192919290505050611a63565b6040518082815260200191505060405180910390f35b3480156108cc57600080fd5b50610986600480360360208110156108e357600080fd5b810190808035906020019064010000000081111561090057600080fd5b82018360208201111561091257600080fd5b8035906020019184600183028401116401000000008311171561093457600080fd5b91908080601f016020809104026020016040519081016040528093929190818152602001838380828437600081840152601f19601f820116905080830192505050505050509192919290505050611de5565b6040518082815260200191505060405180910390f35b3480156109a857600080fd5b506109eb600480360360208110156109bf57600080fd5b81019080803573ffffffffffffffffffffffffffffffffffffffff169060200190929190505050611df1565b005b3480156109f957600080fd5b50610a2660048036036020811015610a1057600080fd5b8101908080359060200190929190505050611ef9565b005b60076020528060005260406000206000915090505481565b60048054600181600116156101000203166002900480601f016020809104026020016040519081016040528092919081815260200182805460018160011615610100020316600290048015610ad65780601f10610aab57610100808354040283529160200191610ad6565b820191906000526020600020905b815481529060010190602001808311610ab957829003601f168201915b505050505081565b60008073ffffffffffffffffffffffffffffffffffffffff166006600084815260200190815260200160002060010160009054906101000a900473ffffffffffffffffffffffffffffffffffffffff1673ffffffffffffffffffffffffffffffffffffffff16141515610c46576006600083815260200190815260200160002060010160009054906101000a900473ffffffffffffffffffffffffffffffffffffffff1673ffffffffffffffffffffffffffffffffffffffff166310f169e860066000858152602001908152602001600020600201546040518263ffffffff167c01000000000000000000000000000000000000000000000000000000000281526004018082815260200191505060206040518083038186803b158015610c0457600080fd5b505afa158015610c18573d6000803e3d6000fd5b505050506040513d6020811015610c2e57600080fd5b81019080805190602001909291905050509050610c77565b600282815481101515610c5557fe5b906000526020600020906005020160040160009054906101000a900460ff1690505b919050565b60008073ffffffffffffffffffffffffffffffffffffffff166006600084815260200190815260200160002060010160009054906101000a900473ffffffffffffffffffffffffffffffffffffffff1673ffffffffffffffffffffffffffffffffffffffff16141515610de4576006600083815260200190815260200160002060010160009054906101000a900473ffffffffffffffffffffffffffffffffffffffff1673ffffffffffffffffffffffffffffffffffffffff16631981061960066000858152602001908152602001600020600201546040518263ffffffff167c01000000000000000000000000000000000000000000000000000000000281526004018082815260200191505060206040518083038186803b158015610da257600080fd5b505afa158015610db6573d6000803e3d6000fd5b505050506040513d6020811015610dcc57600080fd5b81019080805190602001909291905050509050610de8565b8190505b919050565b6000600282815481101515610dfe57fe5b9060005260206000209060050201600301549050919050565b600360009054906101000a900473ffffffffffffffffffffffffffffffffffffffff1673ffffffffffffffffffffffffffffffffffffffff163373ffffffffffffffffffffffffffffffffffffffff16141515610ebf576040517f08c379a00000000000000000000000000000000000000000000000000000000081526004018080602001828103825260258152602001806124be6025913960400191505060405180910390fd5b813373ffffffffffffffffffffffffffffffffffffffff167f394027a5fa6e098a1191094d1719d6929b9abc535fcc0c8f448d6a4e75622276836040518082815260200191505060405180910390a3610f188282611fc7565b5050565b60066020528060005260406000206000915090508060000154908060010160009054906101000a900473ffffffffffffffffffffffffffffffffffffffff16908060020154905083565b8181610f728282611a63565b3410151515610fcc576040517f08c379a000000000000000000000000000000000000000000000000000000000815260040180806020018281038252602581526020018061243e6025913960400191505060405180910390fd5b610fd684846120b9565b600073ffffffffffffffffffffffffffffffffffffffff166006600086815260200190815260200160002060010160009054906101000a900473ffffffffffffffffffffffffffffffffffffffff1673ffffffffffffffffffffffffffffffffffffffff16141515611188576006600085815260200190815260200160002060010160009054906101000a900473ffffffffffffffffffffffffffffffffffffffff1673ffffffffffffffffffffffffffffffffffffffff166349912f88346006600088815260200190815260200160002060020154866040518463ffffffff167c01000000000000000000000000000000000000000000000000000000000281526004018083815260200180602001828103825283818151815260200191508051906020019080838360005b8381101561111e578082015181840152602081019050611103565b50505050905090810190601f16801561114b5780820380516001836020036101000a031916815260200191505b5093505050506000604051808303818588803b15801561116a57600080fd5b505af115801561117e573d6000803e3d6000fd5b50505050506113a2565b600360009054906101000a900473ffffffffffffffffffffffffffffffffffffffff166006600086815260200190815260200160002060010160006101000a81548173ffffffffffffffffffffffffffffffffffffffff021916908373ffffffffffffffffffffffffffffffffffffffff160217905550600360009054906101000a900473ffffffffffffffffffffffffffffffffffffffff1673ffffffffffffffffffffffffffffffffffffffff1663c13517e13460028781548110151561124d57fe5b906000526020600020906005020160010154866040518463ffffffff167c01000000000000000000000000000000000000000000000000000000000281526004018083815260200180602001828103825283818151815260200191508051906020019080838360005b838110156112d15780820151818401526020810190506112b6565b50505050905090810190601f1680156112fe5780820380516001836020036101000a031916815260200191505b5093505050506020604051808303818588803b15801561131d57600080fd5b505af1158015611331573d6000803e3d6000fd5b50505050506040513d602081101561134857600080fd5b81019080805190602001909291905050506006600086815260200190815260200160002060020181905550836007600060066000888152602001908152602001600020600201548152602001908152602001600020819055505b50505050565b6002818154811015156113b757fe5b90600052602060002090600502016000915090508060000160009054906101000a900473ffffffffffffffffffffffffffffffffffffffff16908060010154908060020154908060030154908060040160009054906101000a900460ff16905085565b60055481565b600360009054906101000a900473ffffffffffffffffffffffffffffffffffffffff1681565b6000809054906101000a900473ffffffffffffffffffffffffffffffffffffffff1681565b6000809054906101000a900473ffffffffffffffffffffffffffffffffffffffff1673ffffffffffffffffffffffffffffffffffffffff163373ffffffffffffffffffffffffffffffffffffffff1614151561152f576040517f08c379a00000000000000000000000000000000000000000000000000000000081526004018080602001828103825260208152602001807f43616e206f6e6c792062652063616c6c656420627920746865206f776e65722e81525060200191505060405180910390fd5b8060058190555050565b600080915091565b600061154d8383612169565b50600160026040518060a001604052803373ffffffffffffffffffffffffffffffffffffffff168152602001868152602001348152602001600081526020016000600281111561159957fe5b8152509080600181540180825580915050906001820390600052602060002090600502016000909192909190915060008201518160000160006101000a81548173ffffffffffffffffffffffffffffffffffffffff021916908373ffffffffffffffffffffffffffffffffffffffff16021790555060208201518160010155604082015181600201556060820151816003015560808201518160040160006101000a81548160ff0219169083600281111561165057fe5b021790555050500390503373ffffffffffffffffffffffffffffffffffffffff16817f141dfc18aa6a56fc816f44f0e9e2f1ebc92b15ab167770e17db5b084c10ed99560405160405180910390a392915050565b6002808111156116b057fe5b6002838154811015156116bf57fe5b906000526020600020906005020160040160009054906101000a900460ff1660028111156116e957fe5b14151515611742576040517f08c379a000000000000000000000000000000000000000000000000000000000815260040180806020018281038252602a815260200180612463602a913960400191505060405180910390fd5b600073ffffffffffffffffffffffffffffffffffffffff166006600084815260200190815260200160002060010160009054906101000a900473ffffffffffffffffffffffffffffffffffffffff1673ffffffffffffffffffffffffffffffffffffffff161415156117bd576117b882826121d6565b611a5f565b6000809054906101000a900473ffffffffffffffffffffffffffffffffffffffff1673ffffffffffffffffffffffffffffffffffffffff163373ffffffffffffffffffffffffffffffffffffffff16141515611864576040517f08c379a000000000000000000000000000000000000000000000000000000000815260040180806020018281038252603181526020018061248d6031913960400191505060405180910390fd5b6001600281111561187157fe5b60028381548110151561188057fe5b906000526020600020906005020160040160009054906101000a900460ff1660028111156118aa57fe5b141561195757600554600660008481526020019081526020016000206000015442031115611901576118fc826002848154811015156118e557fe5b9060005260206000209060050201600301546121d6565b611952565b6040517f08c379a000000000000000000000000000000000000000000000000000000000815260040180806020018281038252602181526020018061250d6021913960400191505060405180910390fd5b611a5e565b8060028381548110151561196757fe5b906000526020600020906005020160030181905550600160028381548110151561198d57fe5b906000526020600020906005020160040160006101000a81548160ff021916908360028111156119b957fe5b02179055504260066000848152602001908152602001600020600001819055506002828154811015156119e857fe5b906000526020600020906005020160000160009054906101000a900473ffffffffffffffffffffffffffffffffffffffff1673ffffffffffffffffffffffffffffffffffffffff16827fa5d41b970d849372be1da1481ffd78d162bfe57a7aa2fe4e5fb73481fa5ac24f60405160405180910390a35b5b5050565b60008073ffffffffffffffffffffffffffffffffffffffff166006600085815260200190815260200160002060010160009054906101000a900473ffffffffffffffffffffffffffffffffffffffff1673ffffffffffffffffffffffffffffffffffffffff16141515611c38576006600084815260200190815260200160002060010160009054906101000a900473ffffffffffffffffffffffffffffffffffffffff1673ffffffffffffffffffffffffffffffffffffffff1663f23f16e66006600086815260200190815260200160002060020154846040518363ffffffff167c01000000000000000000000000000000000000000000000000000000000281526004018083815260200180602001828103825283818151815260200191508051906020019080838360005b83811015611bab578082015181840152602081019050611b90565b50505050905090810190601f168015611bd85780820380516001836020036101000a031916815260200191505b50935050505060206040518083038186803b158015611bf657600080fd5b505afa158015611c0a573d6000803e3d6000fd5b505050506040513d6020811015611c2057600080fd5b81019080805190602001909291905050509050611ddf565b60016002811115611c4557fe5b600284815481101515611c5457fe5b906000526020600020906005020160040160009054906101000a900460ff166002811115611c7e57fe5b1415611dba57600360009054906101000a900473ffffffffffffffffffffffffffffffffffffffff1673ffffffffffffffffffffffffffffffffffffffff1663f7434ea9836040518263ffffffff167c01000000000000000000000000000000000000000000000000000000000281526004018080602001828103825283818151815260200191508051906020019080838360005b83811015611d2e578082015181840152602081019050611d13565b50505050905090810190601f168015611d5b5780820380516001836020036101000a031916815260200191505b509250505060206040518083038186803b158015611d7857600080fd5b505afa158015611d8c573d6000803e3d6000fd5b505050506040513d6020811015611da257600080fd5b81019080805190602001909291905050509050611dde565b7f7fffffffffffffffffffffffffffffffffffffffffffffffffffffffffffffff90505b5b92915050565b60006001549050919050565b6000809054906101000a900473ffffffffffffffffffffffffffffffffffffffff1673ffffffffffffffffffffffffffffffffffffffff163373ffffffffffffffffffffffffffffffffffffffff16141515611eb5576040517f08c379a00000000000000000000000000000000000000000000000000000000081526004018080602001828103825260208152602001807f43616e206f6e6c792062652063616c6c656420627920746865206f776e65722e81525060200191505060405180910390fd5b80600360006101000a81548173ffffffffffffffffffffffffffffffffffffffff021916908373ffffffffffffffffffffffffffffffffffffffff16021790555050565b6000809054906101000a900473ffffffffffffffffffffffffffffffffffffffff1673ffffffffffffffffffffffffffffffffffffffff163373ffffffffffffffffffffffffffffffffffffffff16141515611fbd576040517f08c379a00000000000000000000000000000000000000000000000000000000081526004018080602001828103825260208152602001807f43616e206f6e6c792062652063616c6c656420627920746865206f776e65722e81525060200191505060405180910390fd5b8060018190555050565b600073ffffffffffffffffffffffffffffffffffffffff16600660006007600086815260200190815260200160002054815260200190815260200160002060010160009054906101000a900473ffffffffffffffffffffffffffffffffffffffff1673ffffffffffffffffffffffffffffffffffffffff1614151515612098576040517f08c379a000000000000000000000000000000000000000000000000000000000815260040180806020018281038252602481526020018061252e6024913960400191505060405180910390fd5b6120b56007600084815260200190815260200160002054826116a4565b5050565b81816120c58282611a63565b341015151561211f576040517f08c379a000000000000000000000000000000000000000000000000000000000815260040180806020018281038252602581526020018061243e6025913960400191505060405180910390fd5b3373ffffffffffffffffffffffffffffffffffffffff16847f9c9b64db9e130f48381bf697abf638e73117dbfbfd7a4484f2da3ba188f4187d60405160405180910390a350505050565b60008161217581611de5565b34101515156121cf576040517f08c379a000000000000000000000000000000000000000000000000000000000815260040180806020018281038252602a8152602001806124e3602a913960400191505060405180910390fd5b5092915050565b60006002838154811015156121e757fe5b9060005260206000209060050201905080600101548211151515612273576040517f08c379a000000000000000000000000000000000000000000000000000000000815260040180806020018281038252600f8152602001807f496e76616c69642072756c696e672e000000000000000000000000000000000081525060200191505060405180910390fd5b60028081111561227f57fe5b8160040160009054906101000a900460ff16600281111561229c57fe5b141515156122f5576040517f08c379a00000000000000000000000000000000000000000000000000000000081526004018080602001828103825260278152602001806124176027913960400191505060405180910390fd5b81816003018190555060028160040160006101000a81548160ff0219169083600281111561231f57fe5b02179055503373ffffffffffffffffffffffffffffffffffffffff166108fc82600201549081150290604051600060405180830381858888f19350505050508060000160009054906101000a900473ffffffffffffffffffffffffffffffffffffffff1673ffffffffffffffffffffffffffffffffffffffff1663311a6c5684846040518363ffffffff167c01000000000000000000000000000000000000000000000000000000000281526004018083815260200182815260200192505050600060405180830381600087803b1580156123f957600080fd5b505af115801561240d573d6000803e3d6000fd5b5050505050505056fe5468652064697370757465206d757374206e6f7420626520736f6c76656420616c72656164792e4e6f7420656e6f7567682045544820746f20636f7665722061707065616c20636f7374732e54686520737065636966696564206469737075746520697320616c7265616479207265736f6c7665642e4e6f742061707065616c6564206469737075746573206d7573742062652072756c656420627920746865206f776e65722e43616e206f6e6c792062652063616c6c6564206279207468652061726269747261746f722e4e6f7420656e6f7567682045544820746f20636f766572206172626974726174696f6e20636f7374732e54696d65206f75742074696d6520686173206e6f7420706173736564207965742e5468652064697370757465206d7573742068617665206265656e2061707065616c65642ea165627a7a723058207a3fb81ad8ce0ebe1221fe318a4abe38450db9a142f11cff035b638e022ce26f0029",
  "source": "pragma solidity ^0.5.3;\n\nimport \"./CentralizedArbitrator.sol\";\n\n/**\n *  @title AppealableArbitrator\n *  @author Enrique Piqueras - <epiquerass@gmail.com>\n *  @dev A centralized arbitrator that can be appealed.\n */\ncontract AppealableArbitrator is CentralizedArbitrator, Arbitrable {\n    /* Structs */\n\n    struct AppealDispute {\n        uint rulingTime;\n        Arbitrator arbitrator;\n        uint appealDisputeID;\n    }\n\n    /* Storage */\n\n    uint public timeOut;\n    mapping(uint => AppealDispute) public appealDisputes;\n    mapping(uint => uint) public appealDisputeIDsToDisputeIDs;\n\n    /* Constructor */\n\n    /** @dev Constructs the `AppealableArbitrator` contract.\n     *  @param _arbitrationPrice The amount to be paid for arbitration.\n     *  @param _arbitrator The back up arbitrator.\n     *  @param _arbitratorExtraData Not used by this contract.\n     *  @param _timeOut The time out for the appeal period.\n     */\n    constructor(\n        uint _arbitrationPrice,\n        Arbitrator _arbitrator,\n        bytes memory _arbitratorExtraData,\n        uint _timeOut\n    ) public CentralizedArbitrator(_arbitrationPrice) Arbitrable(_arbitrator, _arbitratorExtraData) {\n        timeOut = _timeOut;\n    }\n\n    /* External */\n\n    /** @dev Changes the back up arbitrator.\n     *  @param _arbitrator The new back up arbitrator.\n     */\n    function changeArbitrator(Arbitrator _arbitrator) external onlyOwner {\n        arbitrator = _arbitrator;\n    }\n\n    /** @dev Changes the time out.\n     *  @param _timeOut The new time out.\n     */\n    function changeTimeOut(uint _timeOut) external onlyOwner {\n        timeOut = _timeOut;\n    }\n\n    /* External Views */\n\n    /** @dev Gets the specified dispute's latest appeal ID.\n     *  @param _disputeID The ID of the dispute.\n     */\n    function getAppealDisputeID(uint _disputeID) external view returns(uint disputeID) {\n        if (appealDisputes[_disputeID].arbitrator != Arbitrator(address(0)))\n            disputeID = AppealableArbitrator(address(appealDisputes[_disputeID].arbitrator)).getAppealDisputeID(appealDisputes[_disputeID].appealDisputeID);\n        else disputeID = _disputeID;\n    }\n\n    /* Public */\n\n    /** @dev Appeals a ruling.\n     *  @param _disputeID The ID of the dispute.\n     *  @param _extraData Additional info about the appeal.\n     */\n    function appeal(uint _disputeID, bytes memory _extraData) public payable requireAppealFee(_disputeID, _extraData) {\n        super.appeal(_disputeID, _extraData);\n        if (appealDisputes[_disputeID].arbitrator != Arbitrator(address(0))) {\n            appealDisputes[_disputeID].arbitrator.appeal.value(msg.value)(appealDisputes[_disputeID].appealDisputeID, _extraData);\n        } else {\n            // ----->\n            appealDisputes[_disputeID].arbitrator = arbitrator;\n            appealDisputes[_disputeID].appealDisputeID = arbitrator.createDispute.value(msg.value)(disputes[_disputeID].choices, _extraData);\n            appealDisputeIDsToDisputeIDs[ appealDisputes[_disputeID].appealDisputeID] = _disputeID;\n        }\n    }\n\n    /** @dev Gives a ruling.\n     *  @param _disputeID The ID of the dispute.\n     *  @param _ruling The ruling.\n     */\n    function giveRuling(uint _disputeID, uint _ruling) public {\n        require(disputes[_disputeID].status != DisputeStatus.Solved, \"The specified dispute is already resolved.\");\n        if (appealDisputes[_disputeID].arbitrator != Arbitrator(address(0))) {\n            // NOTE: to ease testing, in production this will be called by kleros\n            // require(Arbitrator(msg.sender) == appealDisputes[_disputeID].arbitrator, \"Appealed disputes must be ruled by their back up arbitrator.\");\n            super._giveRuling(_disputeID, _ruling);\n        } else {\n            require(msg.sender == owner, \"Not appealed disputes must be ruled by the owner.\");\n            if (disputes[_disputeID].status == DisputeStatus.Appealable) {\n                if (now - appealDisputes[_disputeID].rulingTime > timeOut)\n                    super._giveRuling(_disputeID, disputes[_disputeID].ruling);\n                else revert(\"Time out time has not passed yet.\");\n            } else {\n                disputes[_disputeID].ruling = _ruling;\n                disputes[_disputeID].status = DisputeStatus.Appealable;\n                appealDisputes[_disputeID].rulingTime = now;\n                emit AppealPossible(_disputeID, disputes[_disputeID].arbitrated);\n            }\n        }\n    }\n\n    /* Public Views */\n\n    /** @dev Gets the cost of appeal for the specified dispute.\n     *  @param _disputeID The ID of the dispute.\n     *  @param _extraData Additional info about the appeal.\n     *  @return The cost of the appeal.\n     */\n    function appealCost(uint _disputeID, bytes memory _extraData) public view returns(uint cost) {\n        if (appealDisputes[_disputeID].arbitrator != Arbitrator(address(0)))\n            cost = appealDisputes[_disputeID].arbitrator.appealCost(appealDisputes[_disputeID].appealDisputeID, _extraData);\n        else if (disputes[_disputeID].status == DisputeStatus.Appealable) cost = arbitrator.arbitrationCost(_extraData);\n        else cost = NOT_PAYABLE_VALUE;\n    }\n\n    /** @dev Gets the status of the specified dispute.\n     *  @param _disputeID The ID of the dispute.\n     *  @return The status.\n     */\n    function disputeStatus(uint _disputeID) public view returns(DisputeStatus status) {\n        if (appealDisputes[_disputeID].arbitrator != Arbitrator(address(0)))\n            status = appealDisputes[_disputeID].arbitrator.disputeStatus(appealDisputes[_disputeID].appealDisputeID);\n        else status = disputes[_disputeID].status;\n    }\n\n    /* Internal */\n\n    /** @dev Executes the ruling of the specified dispute.\n     *  @param _disputeID The ID of the dispute.\n     *  @param _ruling The ruling.\n     */\n    function executeRuling(uint _disputeID, uint _ruling) internal {\n        require(\n            appealDisputes[appealDisputeIDsToDisputeIDs[_disputeID]].arbitrator != Arbitrator(address(0)),\n            \"The dispute must have been appealed.\"\n        );\n        giveRuling(appealDisputeIDsToDisputeIDs[_disputeID], _ruling);\n    }\n}\n",
  "sourcePath": "/Users/mehdi/code/dether/contractV2/contracts/kleros/AppealableArbitrator.sol",
  "compiler": {
    "name": "solc",
    "version": "0.5.5+commit.47a71e8f.Emscripten.clang"
  },
  "schemaVersion": "3.0.3",
  "updatedAt": "2019-03-26T16:58:54.051Z",
  "devdoc": {
    "author": "Enrique Piqueras - <epiquerass@gmail.com>",
    "details": "A centralized arbitrator that can be appealed.",
    "methods": {
      "appeal(uint256,bytes)": {
        "details": "Appeals a ruling.",
        "params": {
          "_disputeID": "The ID of the dispute.",
          "_extraData": "Additional info about the appeal."
        }
      },
      "appealCost(uint256,bytes)": {
        "details": "Gets the cost of appeal for the specified dispute.",
        "params": {
          "_disputeID": "The ID of the dispute.",
          "_extraData": "Additional info about the appeal."
        },
        "return": "The cost of the appeal."
      },
      "appealPeriod(uint256)": {
        "details": "Compute the start and end of the dispute's current or next appeal period, if possible.",
        "params": {
          "_disputeID": "ID of the dispute."
        },
        "return": "The start and end of the period."
      },
      "arbitrationCost(bytes)": {
        "details": "Cost of arbitration. Accessor to arbitrationPrice.",
        "params": {
          "_extraData": "Not used by this contract."
        },
        "return": "fee Amount to be paid."
      },
      "changeArbitrator(address)": {
        "details": "Changes the back up arbitrator.",
        "params": {
          "_arbitrator": "The new back up arbitrator."
        }
      },
      "changeTimeOut(uint256)": {
        "details": "Changes the time out.",
        "params": {
          "_timeOut": "The new time out."
        }
      },
      "constructor": {
        "details": "Constructs the `AppealableArbitrator` contract.",
        "params": {
          "_arbitrationPrice": "The amount to be paid for arbitration.",
          "_arbitrator": "The back up arbitrator.",
          "_arbitratorExtraData": "Not used by this contract.",
          "_timeOut": "The time out for the appeal period."
        }
      },
      "createDispute(uint256,bytes)": {
        "details": "Create a dispute. Must be called by the arbitrable contract. Must be paid at least arbitrationCost().",
        "params": {
          "_choices": "Amount of choices the arbitrator can make in this dispute. When ruling ruling<=choices.",
          "_extraData": "Can be used to give additional info on the dispute to be created."
        },
        "return": "disputeID ID of the dispute created."
      },
      "currentRuling(uint256)": {
        "details": "Return the ruling of a dispute.",
        "params": {
          "_disputeID": "ID of the dispute to rule."
        },
        "return": "ruling The ruling which would or has been given."
      },
      "disputeStatus(uint256)": {
        "details": "Gets the status of the specified dispute.",
        "params": {
          "_disputeID": "The ID of the dispute."
        },
        "return": "The status."
      },
      "getAppealDisputeID(uint256)": {
        "details": "Gets the specified dispute's latest appeal ID.",
        "params": {
          "_disputeID": "The ID of the dispute."
        }
      },
      "giveRuling(uint256,uint256)": {
        "details": "Gives a ruling.",
        "params": {
          "_disputeID": "The ID of the dispute.",
          "_ruling": "The ruling."
        }
      },
      "rule(uint256,uint256)": {
        "details": "Give a ruling for a dispute. Must be called by the arbitrator. The purpose of this function is to ensure that the address calling it has the right to rule on the contract.",
        "params": {
          "_disputeID": "ID of the dispute in the Arbitrator contract.",
          "_ruling": "Ruling given by the arbitrator. Note that 0 is reserved for \"Not able/wanting to make a decision\"."
        }
      },
      "setArbitrationPrice(uint256)": {
        "details": "Set the arbitration price. Only callable by the owner.",
        "params": {
          "_arbitrationPrice": "Amount to be paid for arbitration."
        }
      }
    },
    "title": "AppealableArbitrator"
  },
  "userdoc": {
    "methods": {}
  }
}