{
  "contractName": "CentralizedArbitrator",
  "abi": [
    {
      "constant": false,
      "inputs": [
        {
          "name": "_disputeID",
          "type": "uint256"
        },
        {
          "name": "_extraData",
          "type": "bytes"
        }
      ],
      "name": "appeal",
      "outputs": [],
      "payable": true,
      "stateMutability": "payable",
      "type": "function"
    },
    {
      "constant": true,
      "inputs": [
        {
          "name": "",
          "type": "uint256"
        }
      ],
      "name": "disputes",
      "outputs": [
        {
          "name": "arbitrated",
          "type": "address"
        },
        {
          "name": "choices",
          "type": "uint256"
        },
        {
          "name": "fee",
          "type": "uint256"
        },
        {
          "name": "ruling",
          "type": "uint256"
        },
        {
          "name": "status",
          "type": "uint8"
        }
      ],
      "payable": false,
      "stateMutability": "view",
      "type": "function"
    },
    {
      "constant": true,
      "inputs": [],
      "name": "owner",
      "outputs": [
        {
          "name": "",
          "type": "address"
        }
      ],
      "payable": false,
      "stateMutability": "view",
      "type": "function"
    },
    {
      "constant": true,
      "inputs": [
        {
          "name": "_disputeID",
          "type": "uint256"
        }
      ],
      "name": "appealPeriod",
      "outputs": [
        {
          "name": "start",
          "type": "uint256"
        },
        {
          "name": "end",
          "type": "uint256"
        }
      ],
      "payable": false,
      "stateMutability": "view",
      "type": "function"
    },
    {
      "inputs": [
        {
          "name": "_arbitrationPrice",
          "type": "uint256"
        }
      ],
      "payable": false,
      "stateMutability": "nonpayable",
      "type": "constructor"
    },
    {
      "anonymous": false,
      "inputs": [
        {
          "indexed": true,
          "name": "_disputeID",
          "type": "uint256"
        },
        {
          "indexed": true,
          "name": "_arbitrable",
          "type": "address"
        }
      ],
      "name": "DisputeCreation",
      "type": "event"
    },
    {
      "anonymous": false,
      "inputs": [
        {
          "indexed": true,
          "name": "_disputeID",
          "type": "uint256"
        },
        {
          "indexed": true,
          "name": "_arbitrable",
          "type": "address"
        }
      ],
      "name": "AppealPossible",
      "type": "event"
    },
    {
      "anonymous": false,
      "inputs": [
        {
          "indexed": true,
          "name": "_disputeID",
          "type": "uint256"
        },
        {
          "indexed": true,
          "name": "_arbitrable",
          "type": "address"
        }
      ],
      "name": "AppealDecision",
      "type": "event"
    },
    {
      "constant": false,
      "inputs": [
        {
          "name": "_arbitrationPrice",
          "type": "uint256"
        }
      ],
      "name": "setArbitrationPrice",
      "outputs": [],
      "payable": false,
      "stateMutability": "nonpayable",
      "type": "function"
    },
    {
      "constant": true,
      "inputs": [
        {
          "name": "_extraData",
          "type": "bytes"
        }
      ],
      "name": "arbitrationCost",
      "outputs": [
        {
          "name": "fee",
          "type": "uint256"
        }
      ],
      "payable": false,
      "stateMutability": "view",
      "type": "function"
    },
    {
      "constant": true,
      "inputs": [
        {
          "name": "_disputeID",
          "type": "uint256"
        },
        {
          "name": "_extraData",
          "type": "bytes"
        }
      ],
      "name": "appealCost",
      "outputs": [
        {
          "name": "fee",
          "type": "uint256"
        }
      ],
      "payable": false,
      "stateMutability": "view",
      "type": "function"
    },
    {
      "constant": false,
      "inputs": [
        {
          "name": "_choices",
          "type": "uint256"
        },
        {
          "name": "_extraData",
          "type": "bytes"
        }
      ],
      "name": "createDispute",
      "outputs": [
        {
          "name": "disputeID",
          "type": "uint256"
        }
      ],
      "payable": true,
      "stateMutability": "payable",
      "type": "function"
    },
    {
      "constant": false,
      "inputs": [
        {
          "name": "_disputeID",
          "type": "uint256"
        },
        {
          "name": "_ruling",
          "type": "uint256"
        }
      ],
      "name": "giveRuling",
      "outputs": [],
      "payable": false,
      "stateMutability": "nonpayable",
      "type": "function"
    },
    {
      "constant": true,
      "inputs": [
        {
          "name": "_disputeID",
          "type": "uint256"
        }
      ],
      "name": "disputeStatus",
      "outputs": [
        {
          "name": "status",
          "type": "uint8"
        }
      ],
      "payable": false,
      "stateMutability": "view",
      "type": "function"
    },
    {
      "constant": true,
      "inputs": [
        {
          "name": "_disputeID",
          "type": "uint256"
        }
      ],
      "name": "currentRuling",
      "outputs": [
        {
          "name": "ruling",
          "type": "uint256"
        }
      ],
      "payable": false,
      "stateMutability": "view",
      "type": "function"
    }
  ],
  "bytecode": "0x608060405260008054600160a060020a0319163317905534801561002257600080fd5b506040516020806109db8339810160405251600155610995806100466000396000f3006080604052600436106100ae5763ffffffff7c010000000000000000000000000000000000000000000000000000000060003504166310f169e881146100b35780631c3db16d146100ef57806349912f8814610119578063564a565d1461016c5780638da5cb5b146101d6578063afe15cfb14610207578063c13517e114610238578063c97c4d5c14610289578063f23f16e6146102a4578063f7434ea914610302578063ffb43c481461035b575b600080fd5b3480156100bf57600080fd5b506100cb600435610373565b604051808260028111156100db57fe5b60ff16815260200191505060405180910390f35b3480156100fb57600080fd5b506101076004356103a1565b60408051918252519081900360200190f35b60408051602060046024803582810135601f810185900485028601850190965285855261016a9583359536956044949193909101919081908401838280828437509497506103cb9650505050505050565b005b34801561017857600080fd5b50610184600435610487565b6040518086600160a060020a0316600160a060020a031681526020018581526020018481526020018381526020018260028111156101be57fe5b60ff1681526020019550505050505060405180910390f35b3480156101e257600080fd5b506101eb6104d3565b60408051600160a060020a039092168252519081900360200190f35b34801561021357600080fd5b5061021f6004356104e2565b6040805192835260208301919091528051918290030190f35b60408051602060046024803582810135601f81018590048502860185019096528585526101079583359536956044949193909101919081908401838280828437509497506104ea9650505050505050565b34801561029557600080fd5b5061016a600435602435610607565b3480156102b057600080fd5b5060408051602060046024803582810135601f81018590048502860185019096528585526101079583359536956044949193909101919081908401838280828437509497506106779650505050505050565b34801561030e57600080fd5b506040805160206004803580820135601f810184900484028501840190955284845261010794369492936024939284019190819084018382808284375094975061069e9650505050505050565b34801561036757600080fd5b5061016a6004356106a5565b600060028281548110151561038457fe5b600091825260209091206005909102016004015460ff1692915050565b60006002828154811015156103b257fe5b9060005260206000209060050201600301549050919050565b81816103d78282610677565b341015610454576040805160e560020a62461bcd02815260206004820152602560248201527f4e6f7420656e6f7567682045544820746f20636f7665722061707065616c206360448201527f6f7374732e000000000000000000000000000000000000000000000000000000606482015290519081900360840190fd5b604051339085907f9c9b64db9e130f48381bf697abf638e73117dbfbfd7a4484f2da3ba188f4187d90600090a350505050565b600280548290811061049557fe5b600091825260209091206005909102018054600182015460028301546003840154600490940154600160a060020a0390931694509092909160ff1685565b600054600160a060020a031681565b600080915091565b60006104f6838361070c565b506001600260a06040519081016040528033600160a060020a03168152602001868152602001348152602001600081526020016000600281111561053657fe5b90528154600180820180855560009485526020948590208451600590940201805473ffffffffffffffffffffffffffffffffffffffff1916600160a060020a03909416939093178355938301518282015560408301516002808401919091556060840151600384015560808401516004840180549193909260ff199092169184908111156105c057fe5b0217905550505003905033600160a060020a0316817f141dfc18aa6a56fc816f44f0e9e2f1ebc92b15ab167770e17db5b084c10ed99560405160405180910390a392915050565b600054600160a060020a03163314610669576040805160e560020a62461bcd02815260206004820181905260248201527f43616e206f6e6c792062652063616c6c656420627920746865206f776e65722e604482015290519081900360640190fd5b610673828261079c565b5050565b7f7fffffffffffffffffffffffffffffffffffffffffffffffffffffffffffffff92915050565b5060015490565b600054600160a060020a03163314610707576040805160e560020a62461bcd02815260206004820181905260248201527f43616e206f6e6c792062652063616c6c656420627920746865206f776e65722e604482015290519081900360640190fd5b600155565b6000816107188161069e565b341015610795576040805160e560020a62461bcd02815260206004820152602a60248201527f4e6f7420656e6f7567682045544820746f20636f76657220617262697472617460448201527f696f6e20636f7374732e00000000000000000000000000000000000000000000606482015290519081900360840190fd5b5092915050565b60006002838154811015156107ad57fe5b906000526020600020906005020190508060010154821115151561081b576040805160e560020a62461bcd02815260206004820152600f60248201527f496e76616c69642072756c696e672e0000000000000000000000000000000000604482015290519081900360640190fd5b6002600482015460ff16600281111561083057fe5b14156108ac576040805160e560020a62461bcd02815260206004820152602760248201527f5468652064697370757465206d757374206e6f7420626520736f6c766564206160448201527f6c72656164792e00000000000000000000000000000000000000000000000000606482015290519081900360840190fd5b6003810182905560048101805460ff1916600290811790915581015460405133916108fc811502916000818181858888f150508354604080517f311a6c5600000000000000000000000000000000000000000000000000000000815260048101899052602481018890529051600160a060020a03909216945063311a6c569350604480820193506000929182900301818387803b15801561094c57600080fd5b505af1158015610960573d6000803e3d6000fd5b505050505050505600a165627a7a723058205345a726f78c30539e5074df328a80d74a55558b349a6a36e03af94cceffedff0029",
  "source": "/**\n *  @authors: [@clesaege, @n1c01a5, @epiqueras, @ferittuncer]\n *  @reviewers: [@clesaege*]\n *  @auditors: []\n *  @bounties: []\n *  @deployments: []\n */\n\npragma solidity ^0.4.15;\n\nimport \"./Arbitrator.sol\";\n\n/** @title Centralized Arbitrator\n *  @dev This is a centralized arbitrator deciding alone on the result of disputes. No appeals are possible.\n */\ncontract CentralizedArbitrator is Arbitrator {\n\n    address public owner = msg.sender;\n    uint arbitrationPrice; // Not public because arbitrationCost already acts as an accessor.\n    uint constant NOT_PAYABLE_VALUE = (2**256-2)/2; // High value to be sure that the appeal is too expensive.\n\n    struct DisputeStruct {\n        Arbitrable arbitrated;\n        uint choices;\n        uint fee;\n        uint ruling;\n        DisputeStatus status;\n    }\n\n    modifier onlyOwner {require(msg.sender==owner, \"Can only be called by the owner.\"); _;}\n\n    DisputeStruct[] public disputes;\n\n    /** @dev Constructor. Set the initial arbitration price.\n     *  @param _arbitrationPrice Amount to be paid for arbitration.\n     */\n    constructor(uint _arbitrationPrice) public {\n        arbitrationPrice = _arbitrationPrice;\n    }\n\n    /** @dev Set the arbitration price. Only callable by the owner.\n     *  @param _arbitrationPrice Amount to be paid for arbitration.\n     */\n    function setArbitrationPrice(uint _arbitrationPrice) public onlyOwner {\n        arbitrationPrice = _arbitrationPrice;\n    }\n\n    /** @dev Cost of arbitration. Accessor to arbitrationPrice.\n     *  @param _extraData Not used by this contract.\n     *  @return fee Amount to be paid.\n     */\n    function arbitrationCost(bytes _extraData) public view returns(uint fee) {\n        return arbitrationPrice;\n    }\n\n    /** @dev Cost of appeal. Since it is not possible, it's a high value which can never be paid.\n     *  @param _disputeID ID of the dispute to be appealed. Not used by this contract.\n     *  @param _extraData Not used by this contract.\n     *  @return fee Amount to be paid.\n     */\n    function appealCost(uint _disputeID, bytes _extraData) public view returns(uint fee) {\n        return NOT_PAYABLE_VALUE;\n    }\n\n    /** @dev Create a dispute. Must be called by the arbitrable contract.\n     *  Must be paid at least arbitrationCost().\n     *  @param _choices Amount of choices the arbitrator can make in this dispute. When ruling ruling<=choices.\n     *  @param _extraData Can be used to give additional info on the dispute to be created.\n     *  @return disputeID ID of the dispute created.\n     */\n    function createDispute(uint _choices, bytes _extraData) public payable returns(uint disputeID)  {\n        super.createDispute(_choices, _extraData);\n        disputeID = disputes.push(DisputeStruct({\n            arbitrated: Arbitrable(msg.sender),\n            choices: _choices,\n            fee: msg.value,\n            ruling: 0,\n            status: DisputeStatus.Waiting\n            })) - 1; // Create the dispute and return its number.\n        emit DisputeCreation(disputeID, Arbitrable(msg.sender));\n    }\n\n    /** @dev Give a ruling. UNTRUSTED.\n     *  @param _disputeID ID of the dispute to rule.\n     *  @param _ruling Ruling given by the arbitrator. Note that 0 means \"Not able/wanting to make a decision\".\n     */\n    function _giveRuling(uint _disputeID, uint _ruling) internal {\n        DisputeStruct storage dispute = disputes[_disputeID];\n        require(_ruling <= dispute.choices, \"Invalid ruling.\");\n        require(dispute.status != DisputeStatus.Solved, \"The dispute must not be solved already.\");\n\n        dispute.ruling = _ruling;\n        dispute.status = DisputeStatus.Solved;\n\n        msg.sender.send(dispute.fee); // Avoid blocking.\n        dispute.arbitrated.rule(_disputeID,_ruling);\n    }\n\n    /** @dev Give a ruling. UNTRUSTED.\n     *  @param _disputeID ID of the dispute to rule.\n     *  @param _ruling Ruling given by the arbitrator. Note that 0 means \"Not able/wanting to make a decision\".\n     */\n    function giveRuling(uint _disputeID, uint _ruling) public onlyOwner {\n        return _giveRuling(_disputeID, _ruling);\n    }\n\n    /** @dev Return the status of a dispute.\n     *  @param _disputeID ID of the dispute to rule.\n     *  @return status The status of the dispute.\n     */\n    function disputeStatus(uint _disputeID) public view returns(DisputeStatus status) {\n        return disputes[_disputeID].status;\n    }\n\n    /** @dev Return the ruling of a dispute.\n     *  @param _disputeID ID of the dispute to rule.\n     *  @return ruling The ruling which would or has been given.\n     */\n    function currentRuling(uint _disputeID) public view returns(uint ruling) {\n        return disputes[_disputeID].ruling;\n    }\n}\n",
  "sourcePath": "/Users/trip/Projects/detherContracts/contracts/kleros/CentralizedArbitrator.sol",
  "compiler": {
    "name": "solc",
    "version": "0.4.24+commit.e67f0147.Emscripten.clang"
  },
  "schemaVersion": "2.0.1",
  "updatedAt": "2019-01-29T09:58:57.193Z"
}