{
  "contractName": "CentralizedArbitrator",
  "abi": [
    {
      "constant": false,
      "inputs": [
        {
          "name": "_disputeID",
          "type": "uint256"
        },
        {
          "name": "_extraData",
          "type": "bytes"
        }
      ],
      "name": "appeal",
      "outputs": [],
      "payable": true,
      "stateMutability": "payable",
      "type": "function"
    },
    {
      "constant": true,
      "inputs": [
        {
          "name": "",
          "type": "uint256"
        }
      ],
      "name": "disputes",
      "outputs": [
        {
          "name": "arbitrated",
          "type": "address"
        },
        {
          "name": "choices",
          "type": "uint256"
        },
        {
          "name": "fee",
          "type": "uint256"
        },
        {
          "name": "ruling",
          "type": "uint256"
        },
        {
          "name": "status",
          "type": "uint8"
        }
      ],
      "payable": false,
      "stateMutability": "view",
      "type": "function"
    },
    {
      "constant": true,
      "inputs": [],
      "name": "owner",
      "outputs": [
        {
          "name": "",
          "type": "address"
        }
      ],
      "payable": false,
      "stateMutability": "view",
      "type": "function"
    },
    {
      "constant": true,
      "inputs": [
        {
          "name": "_disputeID",
          "type": "uint256"
        }
      ],
      "name": "appealPeriod",
      "outputs": [
        {
          "name": "start",
          "type": "uint256"
        },
        {
          "name": "end",
          "type": "uint256"
        }
      ],
      "payable": false,
      "stateMutability": "view",
      "type": "function"
    },
    {
      "inputs": [
        {
          "name": "_arbitrationPrice",
          "type": "uint256"
        }
      ],
      "payable": false,
      "stateMutability": "nonpayable",
      "type": "constructor"
    },
    {
      "anonymous": false,
      "inputs": [
        {
          "indexed": true,
          "name": "_disputeID",
          "type": "uint256"
        },
        {
          "indexed": true,
          "name": "_arbitrable",
          "type": "address"
        }
      ],
      "name": "DisputeCreation",
      "type": "event"
    },
    {
      "anonymous": false,
      "inputs": [
        {
          "indexed": true,
          "name": "_disputeID",
          "type": "uint256"
        },
        {
          "indexed": true,
          "name": "_arbitrable",
          "type": "address"
        }
      ],
      "name": "AppealPossible",
      "type": "event"
    },
    {
      "anonymous": false,
      "inputs": [
        {
          "indexed": true,
          "name": "_disputeID",
          "type": "uint256"
        },
        {
          "indexed": true,
          "name": "_arbitrable",
          "type": "address"
        }
      ],
      "name": "AppealDecision",
      "type": "event"
    },
    {
      "constant": false,
      "inputs": [
        {
          "name": "_arbitrationPrice",
          "type": "uint256"
        }
      ],
      "name": "setArbitrationPrice",
      "outputs": [],
      "payable": false,
      "stateMutability": "nonpayable",
      "type": "function"
    },
    {
      "constant": true,
      "inputs": [
        {
          "name": "_extraData",
          "type": "bytes"
        }
      ],
      "name": "arbitrationCost",
      "outputs": [
        {
          "name": "fee",
          "type": "uint256"
        }
      ],
      "payable": false,
      "stateMutability": "view",
      "type": "function"
    },
    {
      "constant": true,
      "inputs": [
        {
          "name": "_disputeID",
          "type": "uint256"
        },
        {
          "name": "_extraData",
          "type": "bytes"
        }
      ],
      "name": "appealCost",
      "outputs": [
        {
          "name": "fee",
          "type": "uint256"
        }
      ],
      "payable": false,
      "stateMutability": "view",
      "type": "function"
    },
    {
      "constant": false,
      "inputs": [
        {
          "name": "_choices",
          "type": "uint256"
        },
        {
          "name": "_extraData",
          "type": "bytes"
        }
      ],
      "name": "createDispute",
      "outputs": [
        {
          "name": "disputeID",
          "type": "uint256"
        }
      ],
      "payable": true,
      "stateMutability": "payable",
      "type": "function"
    },
    {
      "constant": false,
      "inputs": [
        {
          "name": "_disputeID",
          "type": "uint256"
        },
        {
          "name": "_ruling",
          "type": "uint256"
        }
      ],
      "name": "giveRuling",
      "outputs": [],
      "payable": false,
      "stateMutability": "nonpayable",
      "type": "function"
    },
    {
      "constant": true,
      "inputs": [
        {
          "name": "_disputeID",
          "type": "uint256"
        }
      ],
      "name": "disputeStatus",
      "outputs": [
        {
          "name": "status",
          "type": "uint8"
        }
      ],
      "payable": false,
      "stateMutability": "view",
      "type": "function"
    },
    {
      "constant": true,
      "inputs": [
        {
          "name": "_disputeID",
          "type": "uint256"
        }
      ],
      "name": "currentRuling",
      "outputs": [
        {
          "name": "ruling",
          "type": "uint256"
        }
      ],
      "payable": false,
      "stateMutability": "view",
      "type": "function"
    }
  ],
  "bytecode": "0x6080604052336000806101000a81548173ffffffffffffffffffffffffffffffffffffffff021916908373ffffffffffffffffffffffffffffffffffffffff16021790555034801561005057600080fd5b50604051602080610f6d8339810180604052602081101561007057600080fd5b81019080805190602001909291905050508060018190555050610ed5806100986000396000f3fe6080604052600436106100b9576000357c010000000000000000000000000000000000000000000000000000000090048063afe15cfb11610081578063afe15cfb1461032b578063c13517e114610381578063c97c4d5c1461045a578063f23f16e61461049f578063f7434ea914610585578063ffb43c4814610661576100b9565b806310f169e8146100be5780631c3db16d1461011b57806349912f881461016a578063564a565d1461022f5780638da5cb5b146102d4575b600080fd5b3480156100ca57600080fd5b506100f7600480360360208110156100e157600080fd5b810190808035906020019092919050505061069c565b6040518082600281111561010757fe5b60ff16815260200191505060405180910390f35b34801561012757600080fd5b506101546004803603602081101561013e57600080fd5b81019080803590602001909291905050506106d3565b6040518082815260200191505060405180910390f35b61022d6004803603604081101561018057600080fd5b8101908080359060200190929190803590602001906401000000008111156101a757600080fd5b8201836020820111156101b957600080fd5b803590602001918460018302840111640100000000831117156101db57600080fd5b91908080601f016020809104026020016040519081016040528093929190818152602001838380828437600081840152601f19601f8201169050808301925050505050505091929192905050506106fd565b005b34801561023b57600080fd5b506102686004803603602081101561025257600080fd5b81019080803590602001909291905050506107ad565b604051808673ffffffffffffffffffffffffffffffffffffffff1673ffffffffffffffffffffffffffffffffffffffff1681526020018581526020018481526020018381526020018260028111156102bc57fe5b60ff1681526020019550505050505060405180910390f35b3480156102e057600080fd5b506102e961081f565b604051808273ffffffffffffffffffffffffffffffffffffffff1673ffffffffffffffffffffffffffffffffffffffff16815260200191505060405180910390f35b34801561033757600080fd5b506103646004803603602081101561034e57600080fd5b8101908080359060200190929190505050610844565b604051808381526020018281526020019250505060405180910390f35b6104446004803603604081101561039757600080fd5b8101908080359060200190929190803590602001906401000000008111156103be57600080fd5b8201836020820111156103d057600080fd5b803590602001918460018302840111640100000000831117156103f257600080fd5b91908080601f016020809104026020016040519081016040528093929190818152602001838380828437600081840152601f19601f82011690508083019250505050505050919291929050505061084c565b6040518082815260200191505060405180910390f35b34801561046657600080fd5b5061049d6004803603604081101561047d57600080fd5b8101908080359060200190929190803590602001909291905050506109af565b005b3480156104ab57600080fd5b5061056f600480360360408110156104c257600080fd5b8101908080359060200190929190803590602001906401000000008111156104e957600080fd5b8201836020820111156104fb57600080fd5b8035906020019184600183028401116401000000008311171561051d57600080fd5b91908080601f016020809104026020016040519081016040528093929190818152602001838380828437600081840152601f19601f820116905080830192505050505050509192919290505050610a81565b6040518082815260200191505060405180910390f35b34801561059157600080fd5b5061064b600480360360208110156105a857600080fd5b81019080803590602001906401000000008111156105c557600080fd5b8201836020820111156105d757600080fd5b803590602001918460018302840111640100000000831117156105f957600080fd5b91908080601f016020809104026020016040519081016040528093929190818152602001838380828437600081840152601f19601f820116905080830192505050505050509192919290505050610aac565b6040518082815260200191505060405180910390f35b34801561066d57600080fd5b5061069a6004803603602081101561068457600080fd5b8101908080359060200190929190505050610ab8565b005b60006002828154811015156106ad57fe5b906000526020600020906005020160040160009054906101000a900460ff169050919050565b60006002828154811015156106e457fe5b9060005260206000209060050201600301549050919050565b81816107098282610a81565b3410151515610763576040517f08c379a0000000000000000000000000000000000000000000000000000000008152600401808060200182810382526025815260200180610e5b6025913960400191505060405180910390fd5b3373ffffffffffffffffffffffffffffffffffffffff16847f9c9b64db9e130f48381bf697abf638e73117dbfbfd7a4484f2da3ba188f4187d60405160405180910390a350505050565b6002818154811015156107bc57fe5b90600052602060002090600502016000915090508060000160009054906101000a900473ffffffffffffffffffffffffffffffffffffffff16908060010154908060020154908060030154908060040160009054906101000a900460ff16905085565b6000809054906101000a900473ffffffffffffffffffffffffffffffffffffffff1681565b600080915091565b60006108588383610b86565b50600160026040518060a001604052803373ffffffffffffffffffffffffffffffffffffffff16815260200186815260200134815260200160008152602001600060028111156108a457fe5b8152509080600181540180825580915050906001820390600052602060002090600502016000909192909190915060008201518160000160006101000a81548173ffffffffffffffffffffffffffffffffffffffff021916908373ffffffffffffffffffffffffffffffffffffffff16021790555060208201518160010155604082015181600201556060820151816003015560808201518160040160006101000a81548160ff0219169083600281111561095b57fe5b021790555050500390503373ffffffffffffffffffffffffffffffffffffffff16817f141dfc18aa6a56fc816f44f0e9e2f1ebc92b15ab167770e17db5b084c10ed99560405160405180910390a392915050565b6000809054906101000a900473ffffffffffffffffffffffffffffffffffffffff1673ffffffffffffffffffffffffffffffffffffffff163373ffffffffffffffffffffffffffffffffffffffff16141515610a73576040517f08c379a00000000000000000000000000000000000000000000000000000000081526004018080602001828103825260208152602001807f43616e206f6e6c792062652063616c6c656420627920746865206f776e65722e81525060200191505060405180910390fd5b610a7d8282610bf3565b5050565b60007f7fffffffffffffffffffffffffffffffffffffffffffffffffffffffffffffff905092915050565b60006001549050919050565b6000809054906101000a900473ffffffffffffffffffffffffffffffffffffffff1673ffffffffffffffffffffffffffffffffffffffff163373ffffffffffffffffffffffffffffffffffffffff16141515610b7c576040517f08c379a00000000000000000000000000000000000000000000000000000000081526004018080602001828103825260208152602001807f43616e206f6e6c792062652063616c6c656420627920746865206f776e65722e81525060200191505060405180910390fd5b8060018190555050565b600081610b9281610aac565b3410151515610bec576040517f08c379a000000000000000000000000000000000000000000000000000000000815260040180806020018281038252602a815260200180610e80602a913960400191505060405180910390fd5b5092915050565b6000600283815481101515610c0457fe5b9060005260206000209060050201905080600101548211151515610c90576040517f08c379a000000000000000000000000000000000000000000000000000000000815260040180806020018281038252600f8152602001807f496e76616c69642072756c696e672e000000000000000000000000000000000081525060200191505060405180910390fd5b600280811115610c9c57fe5b8160040160009054906101000a900460ff166002811115610cb957fe5b14151515610d12576040517f08c379a0000000000000000000000000000000000000000000000000000000008152600401808060200182810382526027815260200180610e346027913960400191505060405180910390fd5b81816003018190555060028160040160006101000a81548160ff02191690836002811115610d3c57fe5b02179055503373ffffffffffffffffffffffffffffffffffffffff166108fc82600201549081150290604051600060405180830381858888f19350505050508060000160009054906101000a900473ffffffffffffffffffffffffffffffffffffffff1673ffffffffffffffffffffffffffffffffffffffff1663311a6c5684846040518363ffffffff167c01000000000000000000000000000000000000000000000000000000000281526004018083815260200182815260200192505050600060405180830381600087803b158015610e1657600080fd5b505af1158015610e2a573d6000803e3d6000fd5b5050505050505056fe5468652064697370757465206d757374206e6f7420626520736f6c76656420616c72656164792e4e6f7420656e6f7567682045544820746f20636f7665722061707065616c20636f7374732e4e6f7420656e6f7567682045544820746f20636f766572206172626974726174696f6e20636f7374732ea165627a7a72305820d95381bd170ec31ab2e5ef3a02e6341d102056e3934a628af8c5e7a55670ed180029",
  "source": "/**\n *  @authors: [@clesaege, @n1c01a5, @epiqueras, @ferittuncer]\n *  @reviewers: [@clesaege*]\n *  @auditors: []\n *  @bounties: []\n *  @deployments: []\n */\n\npragma solidity ^0.5.3;\n\nimport \"./Arbitrator.sol\";\n\n/** @title Centralized Arbitrator\n *  @dev This is a centralized arbitrator deciding alone on the result of disputes. No appeals are possible.\n */\ncontract CentralizedArbitrator is Arbitrator {\n\n    address public owner = msg.sender;\n    uint arbitrationPrice; // Not public because arbitrationCost already acts as an accessor.\n    uint constant NOT_PAYABLE_VALUE = (2**256-2)/2; // High value to be sure that the appeal is too expensive.\n\n    struct DisputeStruct {\n        Arbitrable arbitrated;\n        uint choices;\n        uint fee;\n        uint ruling;\n        DisputeStatus status;\n    }\n\n    modifier onlyOwner {require(msg.sender==owner, \"Can only be called by the owner.\"); _;}\n\n    DisputeStruct[] public disputes;\n\n    /** @dev Constructor. Set the initial arbitration price.\n     *  @param _arbitrationPrice Amount to be paid for arbitration.\n     */\n    constructor(uint _arbitrationPrice) public {\n        arbitrationPrice = _arbitrationPrice;\n    }\n\n    /** @dev Set the arbitration price. Only callable by the owner.\n     *  @param _arbitrationPrice Amount to be paid for arbitration.\n     */\n    function setArbitrationPrice(uint _arbitrationPrice) public onlyOwner {\n        arbitrationPrice = _arbitrationPrice;\n    }\n\n    /** @dev Cost of arbitration. Accessor to arbitrationPrice.\n     *  @param _extraData Not used by this contract.\n     *  @return fee Amount to be paid.\n     */\n    function arbitrationCost(bytes memory _extraData) public view returns(uint fee) {\n        return arbitrationPrice;\n    }\n\n    /** @dev Cost of appeal. Since it is not possible, it's a high value which can never be paid.\n     *  @param _disputeID ID of the dispute to be appealed. Not used by this contract.\n     *  @param _extraData Not used by this contract.\n     *  @return fee Amount to be paid.\n     */\n    function appealCost(uint _disputeID, bytes memory _extraData) public view returns(uint fee) {\n        return NOT_PAYABLE_VALUE;\n    }\n\n    /** @dev Create a dispute. Must be called by the arbitrable contract.\n     *  Must be paid at least arbitrationCost().\n     *  @param _choices Amount of choices the arbitrator can make in this dispute. When ruling ruling<=choices.\n     *  @param _extraData Can be used to give additional info on the dispute to be created.\n     *  @return disputeID ID of the dispute created.\n     */\n    function createDispute(uint _choices, bytes memory _extraData) public payable returns(uint disputeID)  {\n        super.createDispute(_choices, _extraData);\n        disputeID = disputes.push(DisputeStruct({\n            arbitrated: Arbitrable(msg.sender),\n            choices: _choices,\n            fee: msg.value,\n            ruling: 0,\n            status: DisputeStatus.Waiting\n            })) - 1; // Create the dispute and return its number.\n        emit DisputeCreation(disputeID, Arbitrable(msg.sender));\n    }\n\n    /** @dev Give a ruling. UNTRUSTED.\n     *  @param _disputeID ID of the dispute to rule.\n     *  @param _ruling Ruling given by the arbitrator. Note that 0 means \"Not able/wanting to make a decision\".\n     */\n    function _giveRuling(uint _disputeID, uint _ruling) internal {\n        DisputeStruct storage dispute = disputes[_disputeID];\n        require(_ruling <= dispute.choices, \"Invalid ruling.\");\n        require(dispute.status != DisputeStatus.Solved, \"The dispute must not be solved already.\");\n\n        dispute.ruling = _ruling;\n        dispute.status = DisputeStatus.Solved;\n\n        msg.sender.send(dispute.fee); // Avoid blocking.\n        dispute.arbitrated.rule(_disputeID,_ruling);\n    }\n\n    /** @dev Give a ruling. UNTRUSTED.\n     *  @param _disputeID ID of the dispute to rule.\n     *  @param _ruling Ruling given by the arbitrator. Note that 0 means \"Not able/wanting to make a decision\".\n     */\n    function giveRuling(uint _disputeID, uint _ruling) public onlyOwner {\n        return _giveRuling(_disputeID, _ruling);\n    }\n\n    /** @dev Return the status of a dispute.\n     *  @param _disputeID ID of the dispute to rule.\n     *  @return status The status of the dispute.\n     */\n    function disputeStatus(uint _disputeID) public view returns(DisputeStatus status) {\n        return disputes[_disputeID].status;\n    }\n\n    /** @dev Return the ruling of a dispute.\n     *  @param _disputeID ID of the dispute to rule.\n     *  @return ruling The ruling which would or has been given.\n     */\n    function currentRuling(uint _disputeID) public view returns(uint ruling) {\n        return disputes[_disputeID].ruling;\n    }\n}\n",
  "sourcePath": "/Users/mehdi/code/dether/contractV2/contracts/kleros/CentralizedArbitrator.sol",
  "compiler": {
    "name": "solc",
    "version": "0.5.5+commit.47a71e8f.Emscripten.clang"
  },
  "schemaVersion": "3.0.3",
  "updatedAt": "2019-03-26T16:58:54.060Z",
  "devdoc": {
    "details": "This is a centralized arbitrator deciding alone on the result of disputes. No appeals are possible.",
    "methods": {
      "appeal(uint256,bytes)": {
        "details": "Appeal a ruling. Note that it has to be called before the arbitrator contract calls rule.",
        "params": {
          "_disputeID": "ID of the dispute to be appealed.",
          "_extraData": "Can be used to give extra info on the appeal."
        }
      },
      "appealCost(uint256,bytes)": {
        "details": "Cost of appeal. Since it is not possible, it's a high value which can never be paid.",
        "params": {
          "_disputeID": "ID of the dispute to be appealed. Not used by this contract.",
          "_extraData": "Not used by this contract."
        },
        "return": "fee Amount to be paid."
      },
      "appealPeriod(uint256)": {
        "details": "Compute the start and end of the dispute's current or next appeal period, if possible.",
        "params": {
          "_disputeID": "ID of the dispute."
        },
        "return": "The start and end of the period."
      },
      "arbitrationCost(bytes)": {
        "details": "Cost of arbitration. Accessor to arbitrationPrice.",
        "params": {
          "_extraData": "Not used by this contract."
        },
        "return": "fee Amount to be paid."
      },
      "constructor": {
        "details": "Constructor. Set the initial arbitration price.",
        "params": {
          "_arbitrationPrice": "Amount to be paid for arbitration."
        }
      },
      "createDispute(uint256,bytes)": {
        "details": "Create a dispute. Must be called by the arbitrable contract. Must be paid at least arbitrationCost().",
        "params": {
          "_choices": "Amount of choices the arbitrator can make in this dispute. When ruling ruling<=choices.",
          "_extraData": "Can be used to give additional info on the dispute to be created."
        },
        "return": "disputeID ID of the dispute created."
      },
      "currentRuling(uint256)": {
        "details": "Return the ruling of a dispute.",
        "params": {
          "_disputeID": "ID of the dispute to rule."
        },
        "return": "ruling The ruling which would or has been given."
      },
      "disputeStatus(uint256)": {
        "details": "Return the status of a dispute.",
        "params": {
          "_disputeID": "ID of the dispute to rule."
        },
        "return": "status The status of the dispute."
      },
      "giveRuling(uint256,uint256)": {
        "details": "Give a ruling. UNTRUSTED.",
        "params": {
          "_disputeID": "ID of the dispute to rule.",
          "_ruling": "Ruling given by the arbitrator. Note that 0 means \"Not able/wanting to make a decision\"."
        }
      },
      "setArbitrationPrice(uint256)": {
        "details": "Set the arbitration price. Only callable by the owner.",
        "params": {
          "_arbitrationPrice": "Amount to be paid for arbitration."
        }
      }
    },
    "title": "Centralized Arbitrator"
  },
  "userdoc": {
    "methods": {}
  }
}