{
  "contractName": "CertifierRegistry",
  "abi": [
    {
      "constant": true,
      "inputs": [
        {
          "name": "",
          "type": "address"
        }
      ],
      "name": "certifier",
      "outputs": [
        {
          "name": "owner",
          "type": "address"
        },
        {
          "name": "url",
          "type": "string"
        }
      ],
      "payable": false,
      "stateMutability": "view",
      "type": "function",
      "signature": "0xcc5a4ef1"
    },
    {
      "constant": true,
      "inputs": [
        {
          "name": "",
          "type": "address"
        },
        {
          "name": "",
          "type": "uint256"
        }
      ],
      "name": "certs",
      "outputs": [
        {
          "name": "certifier",
          "type": "address"
        },
        {
          "name": "ref",
          "type": "int8"
        },
        {
          "name": "timestamp",
          "type": "uint256"
        }
      ],
      "payable": false,
      "stateMutability": "view",
      "type": "function",
      "signature": "0xd7d0b15d"
    },
    {
      "anonymous": false,
      "inputs": [
        {
          "indexed": true,
          "name": "who",
          "type": "address"
        }
      ],
      "name": "CertifierConfirmed",
      "type": "event",
      "signature": "0xcd21f5cc0441a21c66e8cbee583588c66c2e34ab3766a08e3a7a5e4422f8d17b"
    },
    {
      "anonymous": false,
      "inputs": [
        {
          "indexed": true,
          "name": "who",
          "type": "address"
        }
      ],
      "name": "CertifierRevoked",
      "type": "event",
      "signature": "0xacb594097a8aa89d56ff24dffeb0a4669090559f677cc6842ff41d20a1426219"
    },
    {
      "constant": false,
      "inputs": [
        {
          "name": "_url",
          "type": "string"
        }
      ],
      "name": "createCertifier",
      "outputs": [
        {
          "name": "certifiedId",
          "type": "address"
        }
      ],
      "payable": false,
      "stateMutability": "nonpayable",
      "type": "function",
      "signature": "0xeaef1c46"
    },
    {
      "constant": false,
      "inputs": [
        {
          "name": "_certifierId",
          "type": "address"
        },
        {
          "name": "_newUrl",
          "type": "string"
        }
      ],
      "name": "modifyUrl",
      "outputs": [],
      "payable": false,
      "stateMutability": "nonpayable",
      "type": "function",
      "signature": "0xb7295a41"
    },
    {
      "constant": false,
      "inputs": [
        {
          "name": "_certifierId",
          "type": "address"
        },
        {
          "name": "ref",
          "type": "int8"
        },
        {
          "name": "description",
          "type": "string"
        }
      ],
      "name": "addCertificationType",
      "outputs": [],
      "payable": false,
      "stateMutability": "nonpayable",
      "type": "function",
      "signature": "0xf20fb717"
    },
    {
      "constant": false,
      "inputs": [
        {
          "name": "_certifierId",
          "type": "address"
        },
        {
          "name": "_delegate",
          "type": "address"
        }
      ],
      "name": "addDelegate",
      "outputs": [],
      "payable": false,
      "stateMutability": "nonpayable",
      "type": "function",
      "signature": "0xe909ebfa"
    },
    {
      "constant": false,
      "inputs": [
        {
          "name": "_certifierId",
          "type": "address"
        },
        {
          "name": "_delegate",
          "type": "address"
        }
      ],
      "name": "removeDelegate",
      "outputs": [],
      "payable": false,
      "stateMutability": "nonpayable",
      "type": "function",
      "signature": "0x020d308d"
    },
    {
      "constant": false,
      "inputs": [
        {
          "name": "_certifierId",
          "type": "address"
        },
        {
          "name": "_who",
          "type": "address"
        },
        {
          "name": "_type",
          "type": "int8"
        }
      ],
      "name": "certify",
      "outputs": [],
      "payable": false,
      "stateMutability": "nonpayable",
      "type": "function",
      "signature": "0x187bf91e"
    },
    {
      "constant": false,
      "inputs": [
        {
          "name": "_certifierId",
          "type": "address"
        },
        {
          "name": "_who",
          "type": "address"
        }
      ],
      "name": "revoke",
      "outputs": [],
      "payable": false,
      "stateMutability": "nonpayable",
      "type": "function",
      "signature": "0xdcf3fb2a"
    },
    {
      "constant": true,
      "inputs": [
        {
          "name": "_certifierId",
          "type": "address"
        },
        {
          "name": "_who",
          "type": "address"
        }
      ],
      "name": "isDelegate",
      "outputs": [
        {
          "name": "",
          "type": "bool"
        }
      ],
      "payable": false,
      "stateMutability": "view",
      "type": "function",
      "signature": "0x5fec5d0b"
    },
    {
      "constant": true,
      "inputs": [
        {
          "name": "_certifierId",
          "type": "address"
        },
        {
          "name": "_number",
          "type": "int8"
        }
      ],
      "name": "getCertificationType",
      "outputs": [
        {
          "name": "",
          "type": "string"
        }
      ],
      "payable": false,
      "stateMutability": "view",
      "type": "function",
      "signature": "0x5cbe3cfe"
    },
    {
      "constant": true,
      "inputs": [
        {
          "name": "_who",
          "type": "address"
        }
      ],
      "name": "getCerts",
      "outputs": [
        {
          "components": [
            {
              "name": "certifier",
              "type": "address"
            },
            {
              "name": "ref",
              "type": "int8"
            },
            {
              "name": "timestamp",
              "type": "uint256"
            }
          ],
          "name": "",
          "type": "tuple[]"
        }
      ],
      "payable": false,
      "stateMutability": "view",
      "type": "function",
      "signature": "0xd1a7a8fb"
    }
  ],
  "bytecode": "0x608060405234801561001057600080fd5b5061164d806100206000396000f3fe608060405234801561001057600080fd5b50600436106100d1576000357c010000000000000000000000000000000000000000000000000000000090048063d1a7a8fb1161008e578063d1a7a8fb146101bb578063d7d0b15d146101eb578063dcf3fb2a1461021d578063e909ebfa14610239578063eaef1c4614610255578063f20fb71714610285576100d1565b8063020d308d146100d6578063187bf91e146100f25780635cbe3cfe1461010e5780635fec5d0b1461013e578063b7295a411461016e578063cc5a4ef11461018a575b600080fd5b6100f060048036036100eb9190810190610ffd565b6102a1565b005b61010c60048036036101079190810190611039565b6103dd565b005b61012860048036036101239190810190611088565b610593565b604051610135919061144a565b60405180910390f35b61015860048036036101539190810190610ffd565b61068f565b604051610165919061142f565b60405180910390f35b6101886004803603610183919081019061112b565b610726565b005b6101a4600480360361019f9190810190610fd4565b610821565b6040516101b29291906113dd565b60405180910390f35b6101d560048036036101d09190810190610fd4565b6108fd565b6040516101e2919061140d565b60405180910390f35b6102056004803603610200919081019061117f565b610a17565b604051610214939291906113a6565b60405180910390f35b61023760048036036102329190810190610ffd565b610a8a565b005b610253600480360361024e9190810190610ffd565b610b6d565b005b61026f600480360361026a91908101906111bb565b610ca8565b60405161027c919061138b565b60405180910390f35b61029f600480360361029a91908101906110c4565b610d8a565b005b81338073ffffffffffffffffffffffffffffffffffffffff16600160008473ffffffffffffffffffffffffffffffffffffffff1673ffffffffffffffffffffffffffffffffffffffff16815260200190815260200160002060000160009054906101000a900473ffffffffffffffffffffffffffffffffffffffff1673ffffffffffffffffffffffffffffffffffffffff1614151561033f57600080fd5b6000600160008673ffffffffffffffffffffffffffffffffffffffff1673ffffffffffffffffffffffffffffffffffffffff16815260200190815260200160002060020160008573ffffffffffffffffffffffffffffffffffffffff1673ffffffffffffffffffffffffffffffffffffffff16815260200190815260200160002060006101000a81548160ff02191690831515021790555050505050565b8233600160008373ffffffffffffffffffffffffffffffffffffffff1673ffffffffffffffffffffffffffffffffffffffff16815260200190815260200160002060020160008273ffffffffffffffffffffffffffffffffffffffff1673ffffffffffffffffffffffffffffffffffffffff16815260200190815260200160002060009054906101000a900460ff16151561047757600080fd5b6000808573ffffffffffffffffffffffffffffffffffffffff1673ffffffffffffffffffffffffffffffffffffffff16815260200190815260200160002060405180606001604052808773ffffffffffffffffffffffffffffffffffffffff1681526020018560000b8152602001428152509080600181540180825580915050906001820390600052602060002090600202016000909192909190915060008201518160000160006101000a81548173ffffffffffffffffffffffffffffffffffffffff021916908373ffffffffffffffffffffffffffffffffffffffff16021790555060208201518160000160146101000a81548160ff021916908360000b60ff160217905550604082015181600101555050505050505050565b6060600160008473ffffffffffffffffffffffffffffffffffffffff1673ffffffffffffffffffffffffffffffffffffffff16815260200190815260200160002060030160008360000b60000b81526020019081526020016000208054600181600116156101000203166002900480601f0160208091040260200160405190810160405280929190818152602001828054600181600116156101000203166002900480156106825780601f1061065757610100808354040283529160200191610682565b820191906000526020600020905b81548152906001019060200180831161066557829003601f168201915b5050505050905092915050565b6000600160008473ffffffffffffffffffffffffffffffffffffffff1673ffffffffffffffffffffffffffffffffffffffff16815260200190815260200160002060020160008373ffffffffffffffffffffffffffffffffffffffff1673ffffffffffffffffffffffffffffffffffffffff16815260200190815260200160002060009054906101000a900460ff16905092915050565b81338073ffffffffffffffffffffffffffffffffffffffff16600160008473ffffffffffffffffffffffffffffffffffffffff1673ffffffffffffffffffffffffffffffffffffffff16815260200190815260200160002060000160009054906101000a900473ffffffffffffffffffffffffffffffffffffffff1673ffffffffffffffffffffffffffffffffffffffff161415156107c457600080fd5b82600160003373ffffffffffffffffffffffffffffffffffffffff1673ffffffffffffffffffffffffffffffffffffffff168152602001908152602001600020600101908051906020019061081a929190610e9d565b5050505050565b60016020528060005260406000206000915090508060000160009054906101000a900473ffffffffffffffffffffffffffffffffffffffff1690806001018054600181600116156101000203166002900480601f0160208091040260200160405190810160405280929190818152602001828054600181600116156101000203166002900480156108f35780601f106108c8576101008083540402835291602001916108f3565b820191906000526020600020905b8154815290600101906020018083116108d657829003601f168201915b5050505050905082565b60606000808373ffffffffffffffffffffffffffffffffffffffff1673ffffffffffffffffffffffffffffffffffffffff168152602001908152602001600020805480602002602001604051908101604052809291908181526020016000905b82821015610a0c57838290600052602060002090600202016040518060600160405290816000820160009054906101000a900473ffffffffffffffffffffffffffffffffffffffff1673ffffffffffffffffffffffffffffffffffffffff1673ffffffffffffffffffffffffffffffffffffffff1681526020016000820160149054906101000a900460000b60000b60000b81526020016001820154815250508152602001906001019061095d565b505050509050919050565b600060205281600052604060002081815481101515610a3257fe5b9060005260206000209060020201600091509150508060000160009054906101000a900473ffffffffffffffffffffffffffffffffffffffff16908060000160149054906101000a900460000b908060010154905083565b8133600160008373ffffffffffffffffffffffffffffffffffffffff1673ffffffffffffffffffffffffffffffffffffffff16815260200190815260200160002060020160008273ffffffffffffffffffffffffffffffffffffffff1673ffffffffffffffffffffffffffffffffffffffff16815260200190815260200160002060009054906101000a900460ff161515610b2457600080fd5b8273ffffffffffffffffffffffffffffffffffffffff167facb594097a8aa89d56ff24dffeb0a4669090559f677cc6842ff41d20a142621960405160405180910390a250505050565b81338073ffffffffffffffffffffffffffffffffffffffff16600160008473ffffffffffffffffffffffffffffffffffffffff1673ffffffffffffffffffffffffffffffffffffffff16815260200190815260200160002060000160009054906101000a900473ffffffffffffffffffffffffffffffffffffffff1673ffffffffffffffffffffffffffffffffffffffff16141515610c0b57600080fd5b60018060008673ffffffffffffffffffffffffffffffffffffffff1673ffffffffffffffffffffffffffffffffffffffff16815260200190815260200160002060020160008573ffffffffffffffffffffffffffffffffffffffff1673ffffffffffffffffffffffffffffffffffffffff16815260200190815260200160002060006101000a81548160ff02191690831515021790555050505050565b600033905033600160008373ffffffffffffffffffffffffffffffffffffffff1673ffffffffffffffffffffffffffffffffffffffff16815260200190815260200160002060000160006101000a81548173ffffffffffffffffffffffffffffffffffffffff021916908373ffffffffffffffffffffffffffffffffffffffff16021790555081600160008373ffffffffffffffffffffffffffffffffffffffff1673ffffffffffffffffffffffffffffffffffffffff1681526020019081526020016000206001019080519060200190610d84929190610e9d565b50919050565b82338073ffffffffffffffffffffffffffffffffffffffff16600160008473ffffffffffffffffffffffffffffffffffffffff1673ffffffffffffffffffffffffffffffffffffffff16815260200190815260200160002060000160009054906101000a900473ffffffffffffffffffffffffffffffffffffffff1673ffffffffffffffffffffffffffffffffffffffff16141515610e2857600080fd5b82600160003373ffffffffffffffffffffffffffffffffffffffff1673ffffffffffffffffffffffffffffffffffffffff16815260200190815260200160002060030160008660000b60000b81526020019081526020016000209080519060200190610e95929190610e9d565b505050505050565b828054600181600116156101000203166002900490600052602060002090601f016020900481019282601f10610ede57805160ff1916838001178555610f0c565b82800160010185558215610f0c579182015b82811115610f0b578251825591602001919060010190610ef0565b5b509050610f199190610f1d565b5090565b610f3f91905b80821115610f3b576000816000905550600101610f23565b5090565b90565b6000610f4e8235611577565b905092915050565b6000610f628235611589565b905092915050565b600082601f8301121515610f7d57600080fd5b8135610f90610f8b82611499565b61146c565b91508082526020830160208301858383011115610fac57600080fd5b610fb78382846115c0565b50505092915050565b6000610fcc82356115b6565b905092915050565b600060208284031215610fe657600080fd5b6000610ff484828501610f42565b91505092915050565b6000806040838503121561101057600080fd5b600061101e85828601610f42565b925050602061102f85828601610f42565b9150509250929050565b60008060006060848603121561104e57600080fd5b600061105c86828701610f42565b935050602061106d86828701610f42565b925050604061107e86828701610f56565b9150509250925092565b6000806040838503121561109b57600080fd5b60006110a985828601610f42565b92505060206110ba85828601610f56565b9150509250929050565b6000806000606084860312156110d957600080fd5b60006110e786828701610f42565b93505060206110f886828701610f56565b925050604084013567ffffffffffffffff81111561111557600080fd5b61112186828701610f6a565b9150509250925092565b6000806040838503121561113e57600080fd5b600061114c85828601610f42565b925050602083013567ffffffffffffffff81111561116957600080fd5b61117585828601610f6a565b9150509250929050565b6000806040838503121561119257600080fd5b60006111a085828601610f42565b92505060206111b185828601610fc0565b9150509250929050565b6000602082840312156111cd57600080fd5b600082013567ffffffffffffffff8111156111e757600080fd5b6111f384828501610f6a565b91505092915050565b6000611208838361132b565b60608301905092915050565b61121d81611522565b82525050565b61122c81611522565b82525050565b600061123d826114d2565b6112478185611500565b9350611252836114c5565b60005b82811015611280576112688683516111fc565b9550611273826114f3565b9150600181019050611255565b50849250505092915050565b61129581611534565b82525050565b6112a481611540565b82525050565b6112b381611540565b82525050565b60006112c4826114e8565b6112ce8185611511565b93506112de8185602086016115cf565b6112e781611602565b840191505092915050565b60006112fd826114dd565b6113078185611511565b93506113178185602086016115cf565b61132081611602565b840191505092915050565b6060820160008201516113416000850182611214565b506020820151611354602085018261129b565b506040820151611367604085018261136d565b50505050565b6113768161156d565b82525050565b6113858161156d565b82525050565b60006020820190506113a06000830184611223565b92915050565b60006060820190506113bb6000830186611223565b6113c860208301856112aa565b6113d5604083018461137c565b949350505050565b60006040820190506113f26000830185611223565b818103602083015261140481846112f2565b90509392505050565b600060208201905081810360008301526114278184611232565b905092915050565b6000602082019050611444600083018461128c565b92915050565b6000602082019050818103600083015261146481846112b9565b905092915050565b6000604051905081810181811067ffffffffffffffff8211171561148f57600080fd5b8060405250919050565b600067ffffffffffffffff8211156114b057600080fd5b601f19601f8301169050602081019050919050565b6000602082019050919050565b600081519050919050565b600081519050919050565b600081519050919050565b6000602082019050919050565b600082825260208201905092915050565b600082825260208201905092915050565b600061152d8261154d565b9050919050565b60008115159050919050565b60008160000b9050919050565b600073ffffffffffffffffffffffffffffffffffffffff82169050919050565b6000819050919050565b600061158282611596565b9050919050565b60008160000b9050919050565b600073ffffffffffffffffffffffffffffffffffffffff82169050919050565b6000819050919050565b82818337600083830152505050565b60005b838110156115ed5780820151818401526020810190506115d2565b838111156115fc576000848401525b50505050565b6000601f19601f830116905091905056fea265627a7a72305820fc12b2aedef29093e8c2a6f9cde5fe78f5b8fc474138f3704f1b50af2eb515f76c6578706572696d656e74616cf50037",
  "source": "\npragma solidity ^0.5.5;\npragma experimental ABIEncoderV2;\n\n// TO DO\n// add gas cost\n// add remove certs\n// add transferOwnership of certifier\n// get specific certs (is dether certs?)\n\ncontract CertifierRegistry {\n\t// ------------------------------------------------\n\t//\n\t// Structs\n\t//\n\t// ------------------------------------------------\n\n\tstruct Certification {\n\t\taddress certifier;\n\t\tint8 ref;\n    uint timestamp;\n\t}\n\n\tstruct Certifier {\n\t\taddress owner;\n\t\tstring url; \t// need a website url to prove the certifier ID\n\t\tmapping (address => bool) delegate;\n\t\tmapping (int8 => string) certificationType;\n\t}\n\n\t// ------------------------------------------------\n  //\n  // Variables Public\n  //\n  // ------------------------------------------------\n\n\tmapping (address => Certification[]) public certs;\n\t// mapping (address => mapping(address => int8)) public certs;\n\n\tmapping (address => Certifier) public certifier;\n\t\n\t// ------------------------------------------------\n  //\n  // Events\n  //\n  // ------------------------------------------------\n\n\tevent CertifierConfirmed(address indexed who);\n\tevent CertifierRevoked(address indexed who);\n\n\t// ------------------------------------------------\n  //\n  // Modifiers\n  //\n  // ------------------------------------------------\n\tmodifier only_certification_owner(address _certifierId, address _who) { require(certifier[_certifierId].owner == _who); _; }\n\t// modifier only_certified(address _who) { require(certs[_who].active); _; }\n\tmodifier only_delegate(address _certifierId, address _who) { require(certifier[_certifierId].delegate[_who]); _; }\n\n\t// ------------------------------------------------\n  //\n  // Constructor\n  //\n  // ------------------------------------------------\n\n\n\t// ------------------------------------------------\n\t//\n\t// Functions Certifier management\n\t//\n\t// ------------------------------------------------\n\n    function createCertifier(string memory _url) public returns (address certifiedId) {\n\t\t\t// create new certifier and register it\n\t\t\tcertifiedId = msg.sender;\n\t\t\tcertifier[certifiedId].owner = msg.sender;\n      certifier[certifiedId].url = _url;\n    }\n    function modifyUrl(address _certifierId, string memory _newUrl) public only_certification_owner(_certifierId, msg.sender) {\n        certifier[msg.sender].url = _newUrl;\n    }\n    function addCertificationType(address _certifierId, int8 ref, string memory description) public only_certification_owner(_certifierId, msg.sender) {\n        certifier[msg.sender].certificationType[ref] = description;\n    }\n\n\tfunction addDelegate(address _certifierId, address _delegate) public only_certification_owner(_certifierId, msg.sender)\n\t{\n\t\t// require(control.isCEO(msg.sender), \"caller needs to be CEO\");\n\t\tcertifier[_certifierId].delegate[_delegate] = true;\n\t}\n\n\tfunction removeDelegate(address _certifierId, address _delegate) public only_certification_owner(_certifierId, msg.sender)\n\t{\n\t\t// require(control.isCEO(msg.sender), \"caller needs to be CEO\");\n\t\tcertifier[_certifierId].delegate[_delegate] = false;\n  }\n\n    // ------------------------------------------------\n\t//\n\t// Functions Certifier \n\t//\n\t// ------------------------------------------------\n\n\tfunction certify(address _certifierId, address _who, int8 _type)\n\t\tpublic\n\t\tonly_delegate(_certifierId, msg.sender)\n\t{\n\t\t// certs[_who].active = true; // add certification\n\t\tcerts[_who].push(Certification({certifier: _certifierId, ref: _type, timestamp: now}));\n\n\t}\n\n\tfunction revoke(address _certifierId, address _who)\n\t\tpublic\n\t\tonly_delegate(_certifierId, msg.sender)\n\t\t// only_certified(_who)\n\t{\n\t\t// certs[_who].active = false;\n\t\temit CertifierRevoked(_who);\n\t}\n\n\t// ------------------------------------------------\n\t//\n\t// Functions Getters Public\n\t//\n\t// ------------------------------------------------\n\nfunction isDelegate(address _certifierId, address _who) public view returns(bool) { return certifier[_certifierId].delegate[_who]; }\nfunction getCertificationType(address _certifierId, int8 _number) public view returns( string memory) {\n\treturn certifier[_certifierId].certificationType[_number];\n}\n\n\tfunction getCerts( address _who) public view returns(Certification[] memory) {\n\t\treturn certs[_who];\n\t}\n\n\t// function isCert(address _certifierId, address _who) public view returns(bool) {\n\n\t// }\n}\n",
  "sourcePath": "/Users/mehdi/code/dether/contractV2/contracts/certifier/CertifierRegistry.sol",
  "compiler": {
    "name": "solc",
    "version": "0.5.5+commit.47a71e8f.Emscripten.clang"
  },
  "schemaVersion": "3.0.3",
  "updatedAt": "2019-04-08T19:27:33.002Z",
  "devdoc": {
    "methods": {}
  },
  "userdoc": {
    "methods": {}
  }
}