{
  "contractName": "CertifierRegistry",
  "abi": [
    {
      "constant": true,
      "inputs": [
        {
          "name": "",
          "type": "address"
        }
      ],
      "name": "certifier",
      "outputs": [
        {
          "name": "owner",
          "type": "address"
        },
        {
          "name": "url",
          "type": "string"
        }
      ],
      "payable": false,
      "stateMutability": "view",
      "type": "function"
    },
    {
      "constant": true,
      "inputs": [
        {
          "name": "",
          "type": "address"
        },
        {
          "name": "",
          "type": "uint256"
        }
      ],
      "name": "certs",
      "outputs": [
        {
          "name": "certifier",
          "type": "address"
        },
        {
          "name": "ref",
          "type": "int8"
        },
        {
          "name": "timestamp",
          "type": "uint256"
        }
      ],
      "payable": false,
      "stateMutability": "view",
      "type": "function"
    },
    {
      "anonymous": false,
      "inputs": [
        {
          "indexed": true,
          "name": "certifier",
          "type": "address"
        },
        {
          "indexed": false,
          "name": "certified",
          "type": "address"
        },
        {
          "indexed": false,
          "name": "certification",
          "type": "int8"
        }
      ],
      "name": "Certified",
      "type": "event"
    },
    {
      "anonymous": false,
      "inputs": [
        {
          "indexed": true,
          "name": "certifierID",
          "type": "address"
        },
        {
          "indexed": false,
          "name": "_delegate",
          "type": "address"
        }
      ],
      "name": "AddDelegate",
      "type": "event"
    },
    {
      "anonymous": false,
      "inputs": [
        {
          "indexed": true,
          "name": "certifierID",
          "type": "address"
        },
        {
          "indexed": false,
          "name": "_delegate",
          "type": "address"
        }
      ],
      "name": "RemoveDelegate",
      "type": "event"
    },
    {
      "constant": false,
      "inputs": [
        {
          "name": "_url",
          "type": "string"
        }
      ],
      "name": "createCertifier",
      "outputs": [
        {
          "name": "certifiedId",
          "type": "address"
        }
      ],
      "payable": false,
      "stateMutability": "nonpayable",
      "type": "function"
    },
    {
      "constant": false,
      "inputs": [
        {
          "name": "_certifierId",
          "type": "address"
        },
        {
          "name": "_newUrl",
          "type": "string"
        }
      ],
      "name": "modifyUrl",
      "outputs": [],
      "payable": false,
      "stateMutability": "nonpayable",
      "type": "function"
    },
    {
      "constant": false,
      "inputs": [
        {
          "name": "_certifierId",
          "type": "address"
        },
        {
          "name": "ref",
          "type": "int8"
        },
        {
          "name": "description",
          "type": "string"
        }
      ],
      "name": "addCertificationType",
      "outputs": [],
      "payable": false,
      "stateMutability": "nonpayable",
      "type": "function"
    },
    {
      "constant": false,
      "inputs": [
        {
          "name": "_certifierId",
          "type": "address"
        },
        {
          "name": "_delegate",
          "type": "address"
        }
      ],
      "name": "addDelegate",
      "outputs": [],
      "payable": false,
      "stateMutability": "nonpayable",
      "type": "function"
    },
    {
      "constant": false,
      "inputs": [
        {
          "name": "_certifierId",
          "type": "address"
        },
        {
          "name": "_delegate",
          "type": "address"
        }
      ],
      "name": "removeDelegate",
      "outputs": [],
      "payable": false,
      "stateMutability": "nonpayable",
      "type": "function"
    },
    {
      "constant": false,
      "inputs": [
        {
          "name": "_certifierId",
          "type": "address"
        },
        {
          "name": "_who",
          "type": "address"
        },
        {
          "name": "_type",
          "type": "int8"
        }
      ],
      "name": "certify",
      "outputs": [],
      "payable": false,
      "stateMutability": "nonpayable",
      "type": "function"
    },
    {
      "constant": true,
      "inputs": [
        {
          "name": "_certifierId",
          "type": "address"
        },
        {
          "name": "_who",
          "type": "address"
        }
      ],
      "name": "isDelegate",
      "outputs": [
        {
          "name": "",
          "type": "bool"
        }
      ],
      "payable": false,
      "stateMutability": "view",
      "type": "function"
    },
    {
      "constant": true,
      "inputs": [
        {
          "name": "_certifierId",
          "type": "address"
        },
        {
          "name": "_number",
          "type": "int8"
        }
      ],
      "name": "getCertificationType",
      "outputs": [
        {
          "name": "",
          "type": "string"
        }
      ],
      "payable": false,
      "stateMutability": "view",
      "type": "function"
    },
    {
      "constant": true,
      "inputs": [
        {
          "name": "_who",
          "type": "address"
        }
      ],
      "name": "getCerts",
      "outputs": [
        {
          "components": [
            {
              "name": "certifier",
              "type": "address"
            },
            {
              "name": "ref",
              "type": "int8"
            },
            {
              "name": "timestamp",
              "type": "uint256"
            }
          ],
          "name": "",
          "type": "tuple[]"
        }
      ],
      "payable": false,
      "stateMutability": "view",
      "type": "function"
    }
  ],
  "bytecode": "0x608060405234801561001057600080fd5b50611830806100206000396000f3fe608060405234801561001057600080fd5b50600436106100a95760003560e01c8063cc5a4ef111610071578063cc5a4ef114610162578063d1a7a8fb14610193578063d7d0b15d146101c3578063e909ebfa146101f5578063eaef1c4614610211578063f20fb71714610241576100a9565b8063020d308d146100ae578063187bf91e146100ca5780635cbe3cfe146100e65780635fec5d0b14610116578063b7295a4114610146575b600080fd5b6100c860048036036100c391908101906110c5565b61025d565b005b6100e460048036036100df9190810190611101565b61041b565b005b61010060048036036100fb9190810190611150565b610655565b60405161010d91906115e5565b60405180910390f35b610130600480360361012b91908101906110c5565b610751565b60405161013d91906115ca565b60405180910390f35b610160600480360361015b91908101906111f3565b6107e8565b005b61017c6004803603610177919081019061109c565b610917565b60405161018a929190611578565b60405180910390f35b6101ad60048036036101a8919081019061109c565b6109f3565b6040516101ba91906115a8565b60405180910390f35b6101dd60048036036101d89190810190611247565b610b0d565b6040516101ec93929190611541565b60405180910390f35b61020f600480360361020a91908101906110c5565b610b7e565b005b61022b60048036036102269190810190611283565b610d3b565b60405161023891906114fd565b60405180910390f35b61025b6004803603610256919081019061118c565b610e1d565b005b81338073ffffffffffffffffffffffffffffffffffffffff16600160008473ffffffffffffffffffffffffffffffffffffffff1673ffffffffffffffffffffffffffffffffffffffff16815260200190815260200160002060000160009054906101000a900473ffffffffffffffffffffffffffffffffffffffff1673ffffffffffffffffffffffffffffffffffffffff161461032f576040517f08c379a000000000000000000000000000000000000000000000000000000000815260040161032690611627565b60405180910390fd5b6000600160008673ffffffffffffffffffffffffffffffffffffffff1673ffffffffffffffffffffffffffffffffffffffff16815260200190815260200160002060020160008573ffffffffffffffffffffffffffffffffffffffff1673ffffffffffffffffffffffffffffffffffffffff16815260200190815260200160002060006101000a81548160ff0219169083151502179055508373ffffffffffffffffffffffffffffffffffffffff167fdccc2d936ded24d2153d2760581a7f0dcb23ec71190c9726b3584cdd700214d48460405161040d91906114fd565b60405180910390a250505050565b8233600160008373ffffffffffffffffffffffffffffffffffffffff1673ffffffffffffffffffffffffffffffffffffffff16815260200190815260200160002060020160008273ffffffffffffffffffffffffffffffffffffffff1673ffffffffffffffffffffffffffffffffffffffff16815260200190815260200160002060009054906101000a900460ff166104e9576040517f08c379a00000000000000000000000000000000000000000000000000000000081526004016104e090611607565b60405180910390fd5b6000808573ffffffffffffffffffffffffffffffffffffffff1673ffffffffffffffffffffffffffffffffffffffff16815260200190815260200160002060405180606001604052808773ffffffffffffffffffffffffffffffffffffffff1681526020018560000b8152602001428152509080600181540180825580915050906001820390600052602060002090600202016000909192909190915060008201518160000160006101000a81548173ffffffffffffffffffffffffffffffffffffffff021916908373ffffffffffffffffffffffffffffffffffffffff16021790555060208201518160000160146101000a81548160ff021916908360000b60ff160217905550604082015181600101555050508473ffffffffffffffffffffffffffffffffffffffff167f8b2e166693650502b9e0b123e9b3b6ccc64b5dea476c65fd917cedab4aebb6098585604051610646929190611518565b60405180910390a25050505050565b6060600160008473ffffffffffffffffffffffffffffffffffffffff1673ffffffffffffffffffffffffffffffffffffffff16815260200190815260200160002060030160008360000b60000b81526020019081526020016000208054600181600116156101000203166002900480601f0160208091040260200160405190810160405280929190818152602001828054600181600116156101000203166002900480156107445780601f1061071957610100808354040283529160200191610744565b820191906000526020600020905b81548152906001019060200180831161072757829003601f168201915b5050505050905092915050565b6000600160008473ffffffffffffffffffffffffffffffffffffffff1673ffffffffffffffffffffffffffffffffffffffff16815260200190815260200160002060020160008373ffffffffffffffffffffffffffffffffffffffff1673ffffffffffffffffffffffffffffffffffffffff16815260200190815260200160002060009054906101000a900460ff16905092915050565b81338073ffffffffffffffffffffffffffffffffffffffff16600160008473ffffffffffffffffffffffffffffffffffffffff1673ffffffffffffffffffffffffffffffffffffffff16815260200190815260200160002060000160009054906101000a900473ffffffffffffffffffffffffffffffffffffffff1673ffffffffffffffffffffffffffffffffffffffff16146108ba576040517f08c379a00000000000000000000000000000000000000000000000000000000081526004016108b190611627565b60405180910390fd5b82600160003373ffffffffffffffffffffffffffffffffffffffff1673ffffffffffffffffffffffffffffffffffffffff1681526020019081526020016000206001019080519060200190610910929190610f64565b5050505050565b60016020528060005260406000206000915090508060000160009054906101000a900473ffffffffffffffffffffffffffffffffffffffff1690806001018054600181600116156101000203166002900480601f0160208091040260200160405190810160405280929190818152602001828054600181600116156101000203166002900480156109e95780601f106109be576101008083540402835291602001916109e9565b820191906000526020600020905b8154815290600101906020018083116109cc57829003601f168201915b5050505050905082565b60606000808373ffffffffffffffffffffffffffffffffffffffff1673ffffffffffffffffffffffffffffffffffffffff168152602001908152602001600020805480602002602001604051908101604052809291908181526020016000905b82821015610b0257838290600052602060002090600202016040518060600160405290816000820160009054906101000a900473ffffffffffffffffffffffffffffffffffffffff1673ffffffffffffffffffffffffffffffffffffffff1673ffffffffffffffffffffffffffffffffffffffff1681526020016000820160149054906101000a900460000b60000b60000b815260200160018201548152505081526020019060010190610a53565b505050509050919050565b60006020528160005260406000208181548110610b2657fe5b9060005260206000209060020201600091509150508060000160009054906101000a900473ffffffffffffffffffffffffffffffffffffffff16908060000160149054906101000a900460000b908060010154905083565b81338073ffffffffffffffffffffffffffffffffffffffff16600160008473ffffffffffffffffffffffffffffffffffffffff1673ffffffffffffffffffffffffffffffffffffffff16815260200190815260200160002060000160009054906101000a900473ffffffffffffffffffffffffffffffffffffffff1673ffffffffffffffffffffffffffffffffffffffff1614610c50576040517f08c379a0000000000000000000000000000000000000000000000000000000008152600401610c4790611627565b60405180910390fd5b60018060008673ffffffffffffffffffffffffffffffffffffffff1673ffffffffffffffffffffffffffffffffffffffff16815260200190815260200160002060020160008573ffffffffffffffffffffffffffffffffffffffff1673ffffffffffffffffffffffffffffffffffffffff16815260200190815260200160002060006101000a81548160ff0219169083151502179055508373ffffffffffffffffffffffffffffffffffffffff167f2fd5b26f00131bd8ca0fc556207292b85a6bec241341df82724333227458e63084604051610d2d91906114fd565b60405180910390a250505050565b600033905033600160008373ffffffffffffffffffffffffffffffffffffffff1673ffffffffffffffffffffffffffffffffffffffff16815260200190815260200160002060000160006101000a81548173ffffffffffffffffffffffffffffffffffffffff021916908373ffffffffffffffffffffffffffffffffffffffff16021790555081600160008373ffffffffffffffffffffffffffffffffffffffff1673ffffffffffffffffffffffffffffffffffffffff1681526020019081526020016000206001019080519060200190610e17929190610f64565b50919050565b82338073ffffffffffffffffffffffffffffffffffffffff16600160008473ffffffffffffffffffffffffffffffffffffffff1673ffffffffffffffffffffffffffffffffffffffff16815260200190815260200160002060000160009054906101000a900473ffffffffffffffffffffffffffffffffffffffff1673ffffffffffffffffffffffffffffffffffffffff1614610eef576040517f08c379a0000000000000000000000000000000000000000000000000000000008152600401610ee690611627565b60405180910390fd5b82600160003373ffffffffffffffffffffffffffffffffffffffff1673ffffffffffffffffffffffffffffffffffffffff16815260200190815260200160002060030160008660000b60000b81526020019081526020016000209080519060200190610f5c929190610f64565b505050505050565b828054600181600116156101000203166002900490600052602060002090601f016020900481019282601f10610fa557805160ff1916838001178555610fd3565b82800160010185558215610fd3579182015b82811115610fd2578251825591602001919060010190610fb7565b5b509050610fe09190610fe4565b5090565b61100691905b80821115611002576000816000905550600101610fea565b5090565b90565b600081359050611018816117a8565b92915050565b60008135905061102d816117bf565b92915050565b600082601f83011261104457600080fd5b813561105761105282611674565b611647565b9150808252602083016020830185838301111561107357600080fd5b61107e838284611755565b50505092915050565b600081359050611096816117d6565b92915050565b6000602082840312156110ae57600080fd5b60006110bc84828501611009565b91505092915050565b600080604083850312156110d857600080fd5b60006110e685828601611009565b92505060206110f785828601611009565b9150509250929050565b60008060006060848603121561111657600080fd5b600061112486828701611009565b935050602061113586828701611009565b92505060406111468682870161101e565b9150509250925092565b6000806040838503121561116357600080fd5b600061117185828601611009565b92505060206111828582860161101e565b9150509250929050565b6000806000606084860312156111a157600080fd5b60006111af86828701611009565b93505060206111c08682870161101e565b925050604084013567ffffffffffffffff8111156111dd57600080fd5b6111e986828701611033565b9150509250925092565b6000806040838503121561120657600080fd5b600061121485828601611009565b925050602083013567ffffffffffffffff81111561123157600080fd5b61123d85828601611033565b9150509250929050565b6000806040838503121561125a57600080fd5b600061126885828601611009565b925050602061127985828601611087565b9150509250929050565b60006020828403121561129557600080fd5b600082013567ffffffffffffffff8111156112af57600080fd5b6112bb84828501611033565b91505092915050565b60006112d0838361149d565b60608301905092915050565b6112e581611700565b82525050565b6112f481611700565b82525050565b6000611305826116b0565b61130f81856116de565b935061131a836116a0565b8060005b8381101561134b57815161133288826112c4565b975061133d836116d1565b92505060018101905061131e565b5085935050505092915050565b61136181611712565b82525050565b6113708161171e565b82525050565b61137f8161171e565b82525050565b6000611390826116c6565b61139a81856116ef565b93506113aa818560208601611764565b6113b381611797565b840191505092915050565b60006113c9826116bb565b6113d381856116ef565b93506113e3818560208601611764565b6113ec81611797565b840191505092915050565b60006114046017836116ef565b91507f63616c6c6572206d7573742062652064656c65676174650000000000000000006000830152602082019050919050565b60006114446022836116ef565b91507f63616c6c6572206d7573742062652063657274696669636174696f6e206f776e60008301527f65720000000000000000000000000000000000000000000000000000000000006020830152604082019050919050565b6060820160008201516114b360008501826112dc565b5060208201516114c66020850182611367565b5060408201516114d960408501826114df565b50505050565b6114e88161174b565b82525050565b6114f78161174b565b82525050565b600060208201905061151260008301846112eb565b92915050565b600060408201905061152d60008301856112eb565b61153a6020830184611376565b9392505050565b600060608201905061155660008301866112eb565b6115636020830185611376565b61157060408301846114ee565b949350505050565b600060408201905061158d60008301856112eb565b818103602083015261159f81846113be565b90509392505050565b600060208201905081810360008301526115c281846112fa565b905092915050565b60006020820190506115df6000830184611358565b92915050565b600060208201905081810360008301526115ff8184611385565b905092915050565b60006020820190508181036000830152611620816113f7565b9050919050565b6000602082019050818103600083015261164081611437565b9050919050565b6000604051905081810181811067ffffffffffffffff8211171561166a57600080fd5b8060405250919050565b600067ffffffffffffffff82111561168b57600080fd5b601f19601f8301169050602081019050919050565b6000819050602082019050919050565b600081519050919050565b600081519050919050565b600081519050919050565b6000602082019050919050565b600082825260208201905092915050565b600082825260208201905092915050565b600061170b8261172b565b9050919050565b60008115159050919050565b60008160000b9050919050565b600073ffffffffffffffffffffffffffffffffffffffff82169050919050565b6000819050919050565b82818337600083830152505050565b60005b83811015611782578082015181840152602081019050611767565b83811115611791576000848401525b50505050565b6000601f19601f8301169050919050565b6117b181611700565b81146117bc57600080fd5b50565b6117c88161171e565b81146117d357600080fd5b50565b6117df8161174b565b81146117ea57600080fd5b5056fea365627a7a723058200e0439af3f9c831e92d1ccf52bd69ff73fa9914f98bcc6d015e13afdd2d4a6916c6578706572696d656e74616cf564736f6c634300050a0040",
  "source": "pragma solidity ^0.5.10;\npragma experimental ABIEncoderV2;\n\n// TO DO\n// add gas cost\n\ncontract CertifierRegistry {\n\t// ------------------------------------------------\n\t//\n\t// Structs\n\t//\n\t// ------------------------------------------------\n\n\tstruct Certification {\n\t\taddress certifier;\n\t\tint8 ref;\n    \tuint timestamp;\n\t}\n\n\tstruct Certifier {\n\t\taddress owner;\n\t\tstring url; \t// need a website url to prove the certifier ID\n\t\tmapping (address => bool) delegate;\n\t\tmapping (int8 => string) certificationType;\n\t}\n\n\t// ------------------------------------------------\n\t//\n\t// Variables Public\n\t//\n\t// ------------------------------------------------\n\n\tmapping (address => Certification[]) public certs;\n\tmapping (address => Certifier) public certifier;\n\t\n\t// ------------------------------------------------\n\t//\n\t// Events\n\t//\n\t// ------------------------------------------------\n\n\tevent Certified(address indexed certifier, address certified, int8 certification);\n\tevent AddDelegate(address indexed certifierID, address _delegate);\n\tevent RemoveDelegate(address indexed certifierID, address _delegate);\n\n\t// ------------------------------------------------\n\t//\n\t// Modifiers\n\t//\n\t// ------------------------------------------------\n\tmodifier only_certification_owner(address _certifierId, address _who) {\n\t\trequire(certifier[_certifierId].owner == _who, \"caller must be certification owner\");\n\t\t_;\n\t}\n\tmodifier only_delegate(address _certifierId, address _who) {\n\t\trequire(certifier[_certifierId].delegate[_who], \"caller must be delegate\"); \n\t\t_;\n\t}\n\n\n\t// ------------------------------------------------\n\t//\n\t// Functions Certifier management\n\t//\n\t// ------------------------------------------------\n\n\tfunction createCertifier(string memory _url) public returns (address certifiedId) {\n\t\tcertifiedId = msg.sender;\n\t\tcertifier[certifiedId].owner = msg.sender;\n\t\tcertifier[certifiedId].url = _url;\n\t}\n\tfunction modifyUrl(address _certifierId, string memory _newUrl) public only_certification_owner(_certifierId, msg.sender) {\n\t\t\tcertifier[msg.sender].url = _newUrl;\n\t}\n\tfunction addCertificationType(address _certifierId, int8 ref, string memory description) public only_certification_owner(_certifierId, msg.sender) {\n\t\t\tcertifier[msg.sender].certificationType[ref] = description;\n\t}\n\tfunction addDelegate(address _certifierId, address _delegate) public only_certification_owner(_certifierId, msg.sender)\n\t{\n\t\tcertifier[_certifierId].delegate[_delegate] = true;\n\t\temit AddDelegate(_certifierId, _delegate);\n\t}\n\tfunction removeDelegate(address _certifierId, address _delegate) public only_certification_owner(_certifierId, msg.sender)\n\t{\n\t\tcertifier[_certifierId].delegate[_delegate] = false;\n\t\temit RemoveDelegate(_certifierId, _delegate);\n  \t}\n\n    // ------------------------------------------------\n\t//\n\t// Functions Certifier\n\t//\n\t// ------------------------------------------------\n\n\tfunction certify(address _certifierId, address _who, int8 _type)\n\t\tpublic\n\t\tonly_delegate(_certifierId, msg.sender)\n\t{\n\t\tcerts[_who].push(Certification({certifier: _certifierId, ref: _type, timestamp: now}));\n\t\temit Certified(_certifierId, _who, _type);\n\t}\n\n\t// ------------------------------------------------\n\t//\n\t// Functions Getters Public\n\t//\n\t// ------------------------------------------------\n\n\tfunction isDelegate(address _certifierId, address _who) public view returns(bool) { return certifier[_certifierId].delegate[_who]; }\n\n\tfunction getCertificationType(address _certifierId, int8 _number) public view returns( string memory) {\n\t\treturn certifier[_certifierId].certificationType[_number];\n\t}\n\n\tfunction getCerts( address _who) public view returns(Certification[] memory) {\n\t\treturn certs[_who];\n\t}\n}\n",
  "sourcePath": "/Users/mehdi/code/dether/contractV2/contracts/certifier/CertifierRegistry.sol",
  "compiler": {
    "name": "solc",
    "version": "0.5.10+commit.5a6ea5b1.Emscripten.clang"
  },
  "schemaVersion": "3.0.11",
  "updatedAt": "2019-08-28T10:41:09.100Z",
  "devdoc": {
    "methods": {}
  },
  "userdoc": {
    "methods": {}
  }
}