{
  "contractName": "CertifierRegistry",
  "abi": [
    {
      "constant": true,
      "inputs": [
        {
          "name": "",
          "type": "address"
        }
      ],
      "name": "certifier",
      "outputs": [
        {
          "name": "owner",
          "type": "address"
        },
        {
          "name": "url",
          "type": "string"
        }
      ],
      "payable": false,
      "stateMutability": "view",
      "type": "function"
    },
    {
      "constant": true,
      "inputs": [
        {
          "name": "",
          "type": "address"
        },
        {
          "name": "",
          "type": "uint256"
        }
      ],
      "name": "certs",
      "outputs": [
        {
          "name": "certifier",
          "type": "address"
        },
        {
          "name": "ref",
          "type": "int8"
        },
        {
          "name": "timestamp",
          "type": "uint256"
        }
      ],
      "payable": false,
      "stateMutability": "view",
      "type": "function"
    },
    {
      "anonymous": false,
      "inputs": [
        {
          "indexed": true,
          "name": "certifier",
          "type": "address"
        },
        {
          "indexed": false,
          "name": "certified",
          "type": "address"
        },
        {
          "indexed": false,
          "name": "certification",
          "type": "int8"
        }
      ],
      "name": "Certified",
      "type": "event"
    },
    {
      "anonymous": false,
      "inputs": [
        {
          "indexed": true,
          "name": "certifierID",
          "type": "address"
        },
        {
          "indexed": false,
          "name": "_delegate",
          "type": "address"
        }
      ],
      "name": "AddDelegate",
      "type": "event"
    },
    {
      "anonymous": false,
      "inputs": [
        {
          "indexed": true,
          "name": "certifierID",
          "type": "address"
        },
        {
          "indexed": false,
          "name": "_delegate",
          "type": "address"
        }
      ],
      "name": "RemoveDelegate",
      "type": "event"
    },
    {
      "constant": false,
      "inputs": [
        {
          "name": "_url",
          "type": "string"
        }
      ],
      "name": "createCertifier",
      "outputs": [
        {
          "name": "certifiedId",
          "type": "address"
        }
      ],
      "payable": false,
      "stateMutability": "nonpayable",
      "type": "function"
    },
    {
      "constant": false,
      "inputs": [
        {
          "name": "_certifierId",
          "type": "address"
        },
        {
          "name": "_newUrl",
          "type": "string"
        }
      ],
      "name": "modifyUrl",
      "outputs": [],
      "payable": false,
      "stateMutability": "nonpayable",
      "type": "function"
    },
    {
      "constant": false,
      "inputs": [
        {
          "name": "_certifierId",
          "type": "address"
        },
        {
          "name": "ref",
          "type": "int8"
        },
        {
          "name": "description",
          "type": "string"
        }
      ],
      "name": "addCertificationType",
      "outputs": [],
      "payable": false,
      "stateMutability": "nonpayable",
      "type": "function"
    },
    {
      "constant": false,
      "inputs": [
        {
          "name": "_certifierId",
          "type": "address"
        },
        {
          "name": "_delegate",
          "type": "address"
        }
      ],
      "name": "addDelegate",
      "outputs": [],
      "payable": false,
      "stateMutability": "nonpayable",
      "type": "function"
    },
    {
      "constant": false,
      "inputs": [
        {
          "name": "_certifierId",
          "type": "address"
        },
        {
          "name": "_delegate",
          "type": "address"
        }
      ],
      "name": "removeDelegate",
      "outputs": [],
      "payable": false,
      "stateMutability": "nonpayable",
      "type": "function"
    },
    {
      "constant": false,
      "inputs": [
        {
          "name": "_certifierId",
          "type": "address"
        },
        {
          "name": "_who",
          "type": "address"
        },
        {
          "name": "_type",
          "type": "int8"
        }
      ],
      "name": "certify",
      "outputs": [],
      "payable": false,
      "stateMutability": "nonpayable",
      "type": "function"
    },
    {
      "constant": true,
      "inputs": [
        {
          "name": "_certifierId",
          "type": "address"
        },
        {
          "name": "_who",
          "type": "address"
        }
      ],
      "name": "isDelegate",
      "outputs": [
        {
          "name": "",
          "type": "bool"
        }
      ],
      "payable": false,
      "stateMutability": "view",
      "type": "function"
    },
    {
      "constant": true,
      "inputs": [
        {
          "name": "_certifierId",
          "type": "address"
        },
        {
          "name": "_number",
          "type": "int8"
        }
      ],
      "name": "getCertificationType",
      "outputs": [
        {
          "name": "",
          "type": "string"
        }
      ],
      "payable": false,
      "stateMutability": "view",
      "type": "function"
    },
    {
      "constant": true,
      "inputs": [
        {
          "name": "_who",
          "type": "address"
        }
      ],
      "name": "getCerts",
      "outputs": [
        {
          "components": [
            {
              "name": "certifier",
              "type": "address"
            },
            {
              "name": "ref",
              "type": "int8"
            },
            {
              "name": "timestamp",
              "type": "uint256"
            }
          ],
          "name": "",
          "type": "tuple[]"
        }
      ],
      "payable": false,
      "stateMutability": "view",
      "type": "function"
    }
  ],
  "bytecode": "0x608060405234801561001057600080fd5b50611630806100206000396000f3fe608060405234801561001057600080fd5b50600436106100a95760003560e01c8063cc5a4ef111610071578063cc5a4ef114610162578063d1a7a8fb14610193578063d7d0b15d146101c3578063e909ebfa146101f5578063eaef1c4614610211578063f20fb71714610241576100a9565b8063020d308d146100ae578063187bf91e146100ca5780635cbe3cfe146100e65780635fec5d0b14610116578063b7295a4114610146575b600080fd5b6100c860048036036100c39190810190610fb7565b61025d565b005b6100e460048036036100df9190810190610ff3565b6103e5565b005b61010060048036036100fb9190810190611042565b6105e9565b60405161010d9190611431565b60405180910390f35b610130600480360361012b9190810190610fb7565b6106e5565b60405161013d9190611416565b60405180910390f35b610160600480360361015b91908101906110e5565b61077c565b005b61017c60048036036101779190810190610f8e565b610875565b60405161018a9291906113c4565b60405180910390f35b6101ad60048036036101a89190810190610f8e565b610951565b6040516101ba91906113f4565b60405180910390f35b6101dd60048036036101d89190810190611139565b610a6b565b6040516101ec9392919061138d565b60405180910390f35b61020f600480360361020a9190810190610fb7565b610adc565b005b61022b60048036036102269190810190611175565b610c63565b6040516102389190611349565b60405180910390f35b61025b6004803603610256919081019061107e565b610d45565b005b81338073ffffffffffffffffffffffffffffffffffffffff16600160008473ffffffffffffffffffffffffffffffffffffffff1673ffffffffffffffffffffffffffffffffffffffff16815260200190815260200160002060000160009054906101000a900473ffffffffffffffffffffffffffffffffffffffff1673ffffffffffffffffffffffffffffffffffffffff16146102f957600080fd5b6000600160008673ffffffffffffffffffffffffffffffffffffffff1673ffffffffffffffffffffffffffffffffffffffff16815260200190815260200160002060020160008573ffffffffffffffffffffffffffffffffffffffff1673ffffffffffffffffffffffffffffffffffffffff16815260200190815260200160002060006101000a81548160ff0219169083151502179055508373ffffffffffffffffffffffffffffffffffffffff167fdccc2d936ded24d2153d2760581a7f0dcb23ec71190c9726b3584cdd700214d4846040516103d79190611349565b60405180910390a250505050565b8233600160008373ffffffffffffffffffffffffffffffffffffffff1673ffffffffffffffffffffffffffffffffffffffff16815260200190815260200160002060020160008273ffffffffffffffffffffffffffffffffffffffff1673ffffffffffffffffffffffffffffffffffffffff16815260200190815260200160002060009054906101000a900460ff1661047d57600080fd5b6000808573ffffffffffffffffffffffffffffffffffffffff1673ffffffffffffffffffffffffffffffffffffffff16815260200190815260200160002060405180606001604052808773ffffffffffffffffffffffffffffffffffffffff1681526020018560000b8152602001428152509080600181540180825580915050906001820390600052602060002090600202016000909192909190915060008201518160000160006101000a81548173ffffffffffffffffffffffffffffffffffffffff021916908373ffffffffffffffffffffffffffffffffffffffff16021790555060208201518160000160146101000a81548160ff021916908360000b60ff160217905550604082015181600101555050508473ffffffffffffffffffffffffffffffffffffffff167f8b2e166693650502b9e0b123e9b3b6ccc64b5dea476c65fd917cedab4aebb60985856040516105da929190611364565b60405180910390a25050505050565b6060600160008473ffffffffffffffffffffffffffffffffffffffff1673ffffffffffffffffffffffffffffffffffffffff16815260200190815260200160002060030160008360000b60000b81526020019081526020016000208054600181600116156101000203166002900480601f0160208091040260200160405190810160405280929190818152602001828054600181600116156101000203166002900480156106d85780601f106106ad576101008083540402835291602001916106d8565b820191906000526020600020905b8154815290600101906020018083116106bb57829003601f168201915b5050505050905092915050565b6000600160008473ffffffffffffffffffffffffffffffffffffffff1673ffffffffffffffffffffffffffffffffffffffff16815260200190815260200160002060020160008373ffffffffffffffffffffffffffffffffffffffff1673ffffffffffffffffffffffffffffffffffffffff16815260200190815260200160002060009054906101000a900460ff16905092915050565b81338073ffffffffffffffffffffffffffffffffffffffff16600160008473ffffffffffffffffffffffffffffffffffffffff1673ffffffffffffffffffffffffffffffffffffffff16815260200190815260200160002060000160009054906101000a900473ffffffffffffffffffffffffffffffffffffffff1673ffffffffffffffffffffffffffffffffffffffff161461081857600080fd5b82600160003373ffffffffffffffffffffffffffffffffffffffff1673ffffffffffffffffffffffffffffffffffffffff168152602001908152602001600020600101908051906020019061086e929190610e56565b5050505050565b60016020528060005260406000206000915090508060000160009054906101000a900473ffffffffffffffffffffffffffffffffffffffff1690806001018054600181600116156101000203166002900480601f0160208091040260200160405190810160405280929190818152602001828054600181600116156101000203166002900480156109475780601f1061091c57610100808354040283529160200191610947565b820191906000526020600020905b81548152906001019060200180831161092a57829003601f168201915b5050505050905082565b60606000808373ffffffffffffffffffffffffffffffffffffffff1673ffffffffffffffffffffffffffffffffffffffff168152602001908152602001600020805480602002602001604051908101604052809291908181526020016000905b82821015610a6057838290600052602060002090600202016040518060600160405290816000820160009054906101000a900473ffffffffffffffffffffffffffffffffffffffff1673ffffffffffffffffffffffffffffffffffffffff1673ffffffffffffffffffffffffffffffffffffffff1681526020016000820160149054906101000a900460000b60000b60000b8152602001600182015481525050815260200190600101906109b1565b505050509050919050565b60006020528160005260406000208181548110610a8457fe5b9060005260206000209060020201600091509150508060000160009054906101000a900473ffffffffffffffffffffffffffffffffffffffff16908060000160149054906101000a900460000b908060010154905083565b81338073ffffffffffffffffffffffffffffffffffffffff16600160008473ffffffffffffffffffffffffffffffffffffffff1673ffffffffffffffffffffffffffffffffffffffff16815260200190815260200160002060000160009054906101000a900473ffffffffffffffffffffffffffffffffffffffff1673ffffffffffffffffffffffffffffffffffffffff1614610b7857600080fd5b60018060008673ffffffffffffffffffffffffffffffffffffffff1673ffffffffffffffffffffffffffffffffffffffff16815260200190815260200160002060020160008573ffffffffffffffffffffffffffffffffffffffff1673ffffffffffffffffffffffffffffffffffffffff16815260200190815260200160002060006101000a81548160ff0219169083151502179055508373ffffffffffffffffffffffffffffffffffffffff167f2fd5b26f00131bd8ca0fc556207292b85a6bec241341df82724333227458e63084604051610c559190611349565b60405180910390a250505050565b600033905033600160008373ffffffffffffffffffffffffffffffffffffffff1673ffffffffffffffffffffffffffffffffffffffff16815260200190815260200160002060000160006101000a81548173ffffffffffffffffffffffffffffffffffffffff021916908373ffffffffffffffffffffffffffffffffffffffff16021790555081600160008373ffffffffffffffffffffffffffffffffffffffff1673ffffffffffffffffffffffffffffffffffffffff1681526020019081526020016000206001019080519060200190610d3f929190610e56565b50919050565b82338073ffffffffffffffffffffffffffffffffffffffff16600160008473ffffffffffffffffffffffffffffffffffffffff1673ffffffffffffffffffffffffffffffffffffffff16815260200190815260200160002060000160009054906101000a900473ffffffffffffffffffffffffffffffffffffffff1673ffffffffffffffffffffffffffffffffffffffff1614610de157600080fd5b82600160003373ffffffffffffffffffffffffffffffffffffffff1673ffffffffffffffffffffffffffffffffffffffff16815260200190815260200160002060030160008660000b60000b81526020019081526020016000209080519060200190610e4e929190610e56565b505050505050565b828054600181600116156101000203166002900490600052602060002090601f016020900481019282601f10610e9757805160ff1916838001178555610ec5565b82800160010185558215610ec5579182015b82811115610ec4578251825591602001919060010190610ea9565b5b509050610ed29190610ed6565b5090565b610ef891905b80821115610ef4576000816000905550600101610edc565b5090565b90565b600081359050610f0a816115b1565b92915050565b600081359050610f1f816115c8565b92915050565b600082601f830112610f3657600080fd5b8135610f49610f4482611480565b611453565b91508082526020830160208301858383011115610f6557600080fd5b610f7083828461155e565b50505092915050565b600081359050610f88816115df565b92915050565b600060208284031215610fa057600080fd5b6000610fae84828501610efb565b91505092915050565b60008060408385031215610fca57600080fd5b6000610fd885828601610efb565b9250506020610fe985828601610efb565b9150509250929050565b60008060006060848603121561100857600080fd5b600061101686828701610efb565b935050602061102786828701610efb565b925050604061103886828701610f10565b9150509250925092565b6000806040838503121561105557600080fd5b600061106385828601610efb565b925050602061107485828601610f10565b9150509250929050565b60008060006060848603121561109357600080fd5b60006110a186828701610efb565b93505060206110b286828701610f10565b925050604084013567ffffffffffffffff8111156110cf57600080fd5b6110db86828701610f25565b9150509250925092565b600080604083850312156110f857600080fd5b600061110685828601610efb565b925050602083013567ffffffffffffffff81111561112357600080fd5b61112f85828601610f25565b9150509250929050565b6000806040838503121561114c57600080fd5b600061115a85828601610efb565b925050602061116b85828601610f79565b9150509250929050565b60006020828403121561118757600080fd5b600082013567ffffffffffffffff8111156111a157600080fd5b6111ad84828501610f25565b91505092915050565b60006111c283836112e9565b60608301905092915050565b6111d781611509565b82525050565b6111e681611509565b82525050565b60006111f7826114b9565b61120181856114e7565b935061120c836114ac565b8060005b8381101561123d57815161122488826111b6565b975061122f836114da565b925050600181019050611210565b5085935050505092915050565b6112538161151b565b82525050565b61126281611527565b82525050565b61127181611527565b82525050565b6000611282826114cf565b61128c81856114f8565b935061129c81856020860161156d565b6112a5816115a0565b840191505092915050565b60006112bb826114c4565b6112c581856114f8565b93506112d581856020860161156d565b6112de816115a0565b840191505092915050565b6060820160008201516112ff60008501826111ce565b5060208201516113126020850182611259565b506040820151611325604085018261132b565b50505050565b61133481611554565b82525050565b61134381611554565b82525050565b600060208201905061135e60008301846111dd565b92915050565b600060408201905061137960008301856111dd565b6113866020830184611268565b9392505050565b60006060820190506113a260008301866111dd565b6113af6020830185611268565b6113bc604083018461133a565b949350505050565b60006040820190506113d960008301856111dd565b81810360208301526113eb81846112b0565b90509392505050565b6000602082019050818103600083015261140e81846111ec565b905092915050565b600060208201905061142b600083018461124a565b92915050565b6000602082019050818103600083015261144b8184611277565b905092915050565b6000604051905081810181811067ffffffffffffffff8211171561147657600080fd5b8060405250919050565b600067ffffffffffffffff82111561149757600080fd5b601f19601f8301169050602081019050919050565b6000602082019050919050565b600081519050919050565b600081519050919050565b600081519050919050565b6000602082019050919050565b600082825260208201905092915050565b600082825260208201905092915050565b600061151482611534565b9050919050565b60008115159050919050565b60008160000b9050919050565b600073ffffffffffffffffffffffffffffffffffffffff82169050919050565b6000819050919050565b82818337600083830152505050565b60005b8381101561158b578082015181840152602081019050611570565b8381111561159a576000848401525b50505050565b6000601f19601f8301169050919050565b6115ba81611509565b81146115c557600080fd5b50565b6115d181611527565b81146115dc57600080fd5b50565b6115e881611554565b81146115f357600080fd5b5056fea265627a7a7230582001d9957b6ca8b3e94327fcdb7708fb88c4bfdad591cad50eae052f3a67269b556c6578706572696d656e74616cf50037",
  "source": "\npragma solidity ^0.5.8;\npragma experimental ABIEncoderV2;\n\n// TO DO\n// add gas cost\n\ncontract CertifierRegistry {\n\t// ------------------------------------------------\n\t//\n\t// Structs\n\t//\n\t// ------------------------------------------------\n\n\tstruct Certification {\n\t\taddress certifier;\n\t\tint8 ref;\n    \tuint timestamp;\n\t}\n\n\tstruct Certifier {\n\t\taddress owner;\n\t\tstring url; \t// need a website url to prove the certifier ID\n\t\tmapping (address => bool) delegate;\n\t\tmapping (int8 => string) certificationType;\n\t}\n\n\t// ------------------------------------------------\n\t//\n\t// Variables Public\n\t//\n\t// ------------------------------------------------\n\n\tmapping (address => Certification[]) public certs;\n\tmapping (address => Certifier) public certifier;\n\t\n\t// ------------------------------------------------\n\t//\n\t// Events\n\t//\n\t// ------------------------------------------------\n\n\tevent Certified(address indexed certifier, address certified, int8 certification);\n\tevent AddDelegate(address indexed certifierID, address _delegate);\n\tevent RemoveDelegate(address indexed certifierID, address _delegate);\n\n\t// ------------------------------------------------\n\t//\n\t// Modifiers\n\t//\n\t// ------------------------------------------------\n\tmodifier only_certification_owner(address _certifierId, address _who) { require(certifier[_certifierId].owner == _who); _; }\n\tmodifier only_delegate(address _certifierId, address _who) { require(certifier[_certifierId].delegate[_who]); _; }\n\n\n\t// ------------------------------------------------\n\t//\n\t// Functions Certifier management\n\t//\n\t// ------------------------------------------------\n\n\tfunction createCertifier(string memory _url) public returns (address certifiedId) {\n\t\tcertifiedId = msg.sender;\n\t\tcertifier[certifiedId].owner = msg.sender;\n\t\tcertifier[certifiedId].url = _url;\n\t}\n\tfunction modifyUrl(address _certifierId, string memory _newUrl) public only_certification_owner(_certifierId, msg.sender) {\n\t\t\tcertifier[msg.sender].url = _newUrl;\n\t}\n\tfunction addCertificationType(address _certifierId, int8 ref, string memory description) public only_certification_owner(_certifierId, msg.sender) {\n\t\t\tcertifier[msg.sender].certificationType[ref] = description;\n\t}\n\tfunction addDelegate(address _certifierId, address _delegate) public only_certification_owner(_certifierId, msg.sender)\n\t{\n\t\tcertifier[_certifierId].delegate[_delegate] = true;\n\t\temit AddDelegate(_certifierId, _delegate);\n\t}\n\tfunction removeDelegate(address _certifierId, address _delegate) public only_certification_owner(_certifierId, msg.sender)\n\t{\n\t\tcertifier[_certifierId].delegate[_delegate] = false;\n\t\temit RemoveDelegate(_certifierId, _delegate);\n  \t}\n\n    // ------------------------------------------------\n\t//\n\t// Functions Certifier\n\t//\n\t// ------------------------------------------------\n\n\tfunction certify(address _certifierId, address _who, int8 _type)\n\t\tpublic\n\t\tonly_delegate(_certifierId, msg.sender)\n\t{\n\t\tcerts[_who].push(Certification({certifier: _certifierId, ref: _type, timestamp: now}));\n\t\temit Certified(_certifierId, _who, _type);\n\t}\n\n\t// ------------------------------------------------\n\t//\n\t// Functions Getters Public\n\t//\n\t// ------------------------------------------------\n\n\tfunction isDelegate(address _certifierId, address _who) public view returns(bool) { return certifier[_certifierId].delegate[_who]; }\n\n\tfunction getCertificationType(address _certifierId, int8 _number) public view returns( string memory) {\n\t\treturn certifier[_certifierId].certificationType[_number];\n\t}\n\n\tfunction getCerts( address _who) public view returns(Certification[] memory) {\n\t\treturn certs[_who];\n\t}\n}\n",
  "sourcePath": "/Users/mehdi/code/dether/contractV2/contracts/certifier/CertifierRegistry.sol",
  "compiler": {
    "name": "solc",
    "version": "0.5.8+commit.23d335f2.Emscripten.clang"
  },
  "schemaVersion": "3.0.11",
  "updatedAt": "2019-07-03T15:46:09.381Z",
  "devdoc": {
    "methods": {}
  },
  "userdoc": {
    "methods": {}
  }
}