{
  "contractName": "CertifierRegistry",
  "abi": [
    {
      "constant": true,
      "inputs": [
        {
          "name": "",
          "type": "address"
        }
      ],
      "name": "certifier",
      "outputs": [
        {
          "name": "owner",
          "type": "address"
        },
        {
          "name": "url",
          "type": "string"
        }
      ],
      "payable": false,
      "stateMutability": "view",
      "type": "function"
    },
    {
      "constant": true,
      "inputs": [
        {
          "name": "",
          "type": "address"
        },
        {
          "name": "",
          "type": "uint256"
        }
      ],
      "name": "certs",
      "outputs": [
        {
          "name": "certifier",
          "type": "address"
        },
        {
          "name": "ref",
          "type": "int8"
        },
        {
          "name": "timestamp",
          "type": "uint256"
        }
      ],
      "payable": false,
      "stateMutability": "view",
      "type": "function"
    },
    {
      "anonymous": false,
      "inputs": [
        {
          "indexed": true,
          "name": "who",
          "type": "address"
        }
      ],
      "name": "CertifierConfirmed",
      "type": "event"
    },
    {
      "anonymous": false,
      "inputs": [
        {
          "indexed": true,
          "name": "who",
          "type": "address"
        }
      ],
      "name": "CertifierRevoked",
      "type": "event"
    },
    {
      "constant": false,
      "inputs": [
        {
          "name": "_url",
          "type": "string"
        }
      ],
      "name": "createCertifier",
      "outputs": [
        {
          "name": "certifiedId",
          "type": "address"
        }
      ],
      "payable": false,
      "stateMutability": "nonpayable",
      "type": "function"
    },
    {
      "constant": false,
      "inputs": [
        {
          "name": "_certifierId",
          "type": "address"
        },
        {
          "name": "_newUrl",
          "type": "string"
        }
      ],
      "name": "modifyUrl",
      "outputs": [],
      "payable": false,
      "stateMutability": "nonpayable",
      "type": "function"
    },
    {
      "constant": false,
      "inputs": [
        {
          "name": "_certifierId",
          "type": "address"
        },
        {
          "name": "ref",
          "type": "int8"
        },
        {
          "name": "description",
          "type": "string"
        }
      ],
      "name": "addCertificationType",
      "outputs": [],
      "payable": false,
      "stateMutability": "nonpayable",
      "type": "function"
    },
    {
      "constant": false,
      "inputs": [
        {
          "name": "_certifierId",
          "type": "address"
        },
        {
          "name": "_delegate",
          "type": "address"
        }
      ],
      "name": "addDelegate",
      "outputs": [],
      "payable": false,
      "stateMutability": "nonpayable",
      "type": "function"
    },
    {
      "constant": false,
      "inputs": [
        {
          "name": "_certifierId",
          "type": "address"
        },
        {
          "name": "_delegate",
          "type": "address"
        }
      ],
      "name": "removeDelegate",
      "outputs": [],
      "payable": false,
      "stateMutability": "nonpayable",
      "type": "function"
    },
    {
      "constant": false,
      "inputs": [
        {
          "name": "_certifierId",
          "type": "address"
        },
        {
          "name": "_who",
          "type": "address"
        },
        {
          "name": "_type",
          "type": "int8"
        }
      ],
      "name": "certify",
      "outputs": [],
      "payable": false,
      "stateMutability": "nonpayable",
      "type": "function"
    },
    {
      "constant": false,
      "inputs": [
        {
          "name": "_certifierId",
          "type": "address"
        },
        {
          "name": "_who",
          "type": "address"
        }
      ],
      "name": "revoke",
      "outputs": [],
      "payable": false,
      "stateMutability": "nonpayable",
      "type": "function"
    },
    {
      "constant": true,
      "inputs": [
        {
          "name": "_certifierId",
          "type": "address"
        },
        {
          "name": "_who",
          "type": "address"
        }
      ],
      "name": "isDelegate",
      "outputs": [
        {
          "name": "",
          "type": "bool"
        }
      ],
      "payable": false,
      "stateMutability": "view",
      "type": "function"
    },
    {
      "constant": true,
      "inputs": [
        {
          "name": "_certifierId",
          "type": "address"
        },
        {
          "name": "_number",
          "type": "int8"
        }
      ],
      "name": "getCertificationType",
      "outputs": [
        {
          "name": "",
          "type": "string"
        }
      ],
      "payable": false,
      "stateMutability": "view",
      "type": "function"
    },
    {
      "constant": true,
      "inputs": [
        {
          "name": "_who",
          "type": "address"
        }
      ],
      "name": "getCerts",
      "outputs": [
        {
          "components": [
            {
              "name": "certifier",
              "type": "address"
            },
            {
              "name": "ref",
              "type": "int8"
            },
            {
              "name": "timestamp",
              "type": "uint256"
            }
          ],
          "name": "",
          "type": "tuple[]"
        }
      ],
      "payable": false,
      "stateMutability": "view",
      "type": "function"
    }
  ],
  "bytecode": "0x608060405234801561001057600080fd5b50611640806100206000396000f3fe608060405234801561001057600080fd5b50600436106100d1576000357c010000000000000000000000000000000000000000000000000000000090048063d1a7a8fb1161008e578063d1a7a8fb146101bb578063d7d0b15d146101eb578063dcf3fb2a1461021d578063e909ebfa14610239578063eaef1c4614610255578063f20fb71714610285576100d1565b8063020d308d146100d6578063187bf91e146100f25780635cbe3cfe1461010e5780635fec5d0b1461013e578063b7295a411461016e578063cc5a4ef11461018a575b600080fd5b6100f060048036036100eb9190810190610ff0565b6102a1565b005b61010c6004803603610107919081019061102c565b6103db565b005b6101286004803603610123919081019061107b565b61058f565b6040516101359190611441565b60405180910390f35b61015860048036036101539190810190610ff0565b61068b565b6040516101659190611426565b60405180910390f35b6101886004803603610183919081019061111e565b610722565b005b6101a4600480360361019f9190810190610fc7565b61081b565b6040516101b29291906113d4565b60405180910390f35b6101d560048036036101d09190810190610fc7565b6108f7565b6040516101e29190611404565b60405180910390f35b61020560048036036102009190810190611172565b610a11565b6040516102149392919061139d565b60405180910390f35b61023760048036036102329190810190610ff0565b610a82565b005b610253600480360361024e9190810190610ff0565b610b63565b005b61026f600480360361026a91908101906111ae565b610c9c565b60405161027c9190611382565b60405180910390f35b61029f600480360361029a91908101906110b7565b610d7e565b005b81338073ffffffffffffffffffffffffffffffffffffffff16600160008473ffffffffffffffffffffffffffffffffffffffff1673ffffffffffffffffffffffffffffffffffffffff16815260200190815260200160002060000160009054906101000a900473ffffffffffffffffffffffffffffffffffffffff1673ffffffffffffffffffffffffffffffffffffffff161461033d57600080fd5b6000600160008673ffffffffffffffffffffffffffffffffffffffff1673ffffffffffffffffffffffffffffffffffffffff16815260200190815260200160002060020160008573ffffffffffffffffffffffffffffffffffffffff1673ffffffffffffffffffffffffffffffffffffffff16815260200190815260200160002060006101000a81548160ff02191690831515021790555050505050565b8233600160008373ffffffffffffffffffffffffffffffffffffffff1673ffffffffffffffffffffffffffffffffffffffff16815260200190815260200160002060020160008273ffffffffffffffffffffffffffffffffffffffff1673ffffffffffffffffffffffffffffffffffffffff16815260200190815260200160002060009054906101000a900460ff1661047357600080fd5b6000808573ffffffffffffffffffffffffffffffffffffffff1673ffffffffffffffffffffffffffffffffffffffff16815260200190815260200160002060405180606001604052808773ffffffffffffffffffffffffffffffffffffffff1681526020018560000b8152602001428152509080600181540180825580915050906001820390600052602060002090600202016000909192909190915060008201518160000160006101000a81548173ffffffffffffffffffffffffffffffffffffffff021916908373ffffffffffffffffffffffffffffffffffffffff16021790555060208201518160000160146101000a81548160ff021916908360000b60ff160217905550604082015181600101555050505050505050565b6060600160008473ffffffffffffffffffffffffffffffffffffffff1673ffffffffffffffffffffffffffffffffffffffff16815260200190815260200160002060030160008360000b60000b81526020019081526020016000208054600181600116156101000203166002900480601f01602080910402602001604051908101604052809291908181526020018280546001816001161561010002031660029004801561067e5780601f106106535761010080835404028352916020019161067e565b820191906000526020600020905b81548152906001019060200180831161066157829003601f168201915b5050505050905092915050565b6000600160008473ffffffffffffffffffffffffffffffffffffffff1673ffffffffffffffffffffffffffffffffffffffff16815260200190815260200160002060020160008373ffffffffffffffffffffffffffffffffffffffff1673ffffffffffffffffffffffffffffffffffffffff16815260200190815260200160002060009054906101000a900460ff16905092915050565b81338073ffffffffffffffffffffffffffffffffffffffff16600160008473ffffffffffffffffffffffffffffffffffffffff1673ffffffffffffffffffffffffffffffffffffffff16815260200190815260200160002060000160009054906101000a900473ffffffffffffffffffffffffffffffffffffffff1673ffffffffffffffffffffffffffffffffffffffff16146107be57600080fd5b82600160003373ffffffffffffffffffffffffffffffffffffffff1673ffffffffffffffffffffffffffffffffffffffff1681526020019081526020016000206001019080519060200190610814929190610e8f565b5050505050565b60016020528060005260406000206000915090508060000160009054906101000a900473ffffffffffffffffffffffffffffffffffffffff1690806001018054600181600116156101000203166002900480601f0160208091040260200160405190810160405280929190818152602001828054600181600116156101000203166002900480156108ed5780601f106108c2576101008083540402835291602001916108ed565b820191906000526020600020905b8154815290600101906020018083116108d057829003601f168201915b5050505050905082565b60606000808373ffffffffffffffffffffffffffffffffffffffff1673ffffffffffffffffffffffffffffffffffffffff168152602001908152602001600020805480602002602001604051908101604052809291908181526020016000905b82821015610a0657838290600052602060002090600202016040518060600160405290816000820160009054906101000a900473ffffffffffffffffffffffffffffffffffffffff1673ffffffffffffffffffffffffffffffffffffffff1673ffffffffffffffffffffffffffffffffffffffff1681526020016000820160149054906101000a900460000b60000b60000b815260200160018201548152505081526020019060010190610957565b505050509050919050565b60006020528160005260406000208181548110610a2a57fe5b9060005260206000209060020201600091509150508060000160009054906101000a900473ffffffffffffffffffffffffffffffffffffffff16908060000160149054906101000a900460000b908060010154905083565b8133600160008373ffffffffffffffffffffffffffffffffffffffff1673ffffffffffffffffffffffffffffffffffffffff16815260200190815260200160002060020160008273ffffffffffffffffffffffffffffffffffffffff1673ffffffffffffffffffffffffffffffffffffffff16815260200190815260200160002060009054906101000a900460ff16610b1a57600080fd5b8273ffffffffffffffffffffffffffffffffffffffff167facb594097a8aa89d56ff24dffeb0a4669090559f677cc6842ff41d20a142621960405160405180910390a250505050565b81338073ffffffffffffffffffffffffffffffffffffffff16600160008473ffffffffffffffffffffffffffffffffffffffff1673ffffffffffffffffffffffffffffffffffffffff16815260200190815260200160002060000160009054906101000a900473ffffffffffffffffffffffffffffffffffffffff1673ffffffffffffffffffffffffffffffffffffffff1614610bff57600080fd5b60018060008673ffffffffffffffffffffffffffffffffffffffff1673ffffffffffffffffffffffffffffffffffffffff16815260200190815260200160002060020160008573ffffffffffffffffffffffffffffffffffffffff1673ffffffffffffffffffffffffffffffffffffffff16815260200190815260200160002060006101000a81548160ff02191690831515021790555050505050565b600033905033600160008373ffffffffffffffffffffffffffffffffffffffff1673ffffffffffffffffffffffffffffffffffffffff16815260200190815260200160002060000160006101000a81548173ffffffffffffffffffffffffffffffffffffffff021916908373ffffffffffffffffffffffffffffffffffffffff16021790555081600160008373ffffffffffffffffffffffffffffffffffffffff1673ffffffffffffffffffffffffffffffffffffffff1681526020019081526020016000206001019080519060200190610d78929190610e8f565b50919050565b82338073ffffffffffffffffffffffffffffffffffffffff16600160008473ffffffffffffffffffffffffffffffffffffffff1673ffffffffffffffffffffffffffffffffffffffff16815260200190815260200160002060000160009054906101000a900473ffffffffffffffffffffffffffffffffffffffff1673ffffffffffffffffffffffffffffffffffffffff1614610e1a57600080fd5b82600160003373ffffffffffffffffffffffffffffffffffffffff1673ffffffffffffffffffffffffffffffffffffffff16815260200190815260200160002060030160008660000b60000b81526020019081526020016000209080519060200190610e87929190610e8f565b505050505050565b828054600181600116156101000203166002900490600052602060002090601f016020900481019282601f10610ed057805160ff1916838001178555610efe565b82800160010185558215610efe579182015b82811115610efd578251825591602001919060010190610ee2565b5b509050610f0b9190610f0f565b5090565b610f3191905b80821115610f2d576000816000905550600101610f15565b5090565b90565b600081359050610f43816115c1565b92915050565b600081359050610f58816115d8565b92915050565b600082601f830112610f6f57600080fd5b8135610f82610f7d82611490565b611463565b91508082526020830160208301858383011115610f9e57600080fd5b610fa983828461156e565b50505092915050565b600081359050610fc1816115ef565b92915050565b600060208284031215610fd957600080fd5b6000610fe784828501610f34565b91505092915050565b6000806040838503121561100357600080fd5b600061101185828601610f34565b925050602061102285828601610f34565b9150509250929050565b60008060006060848603121561104157600080fd5b600061104f86828701610f34565b935050602061106086828701610f34565b925050604061107186828701610f49565b9150509250925092565b6000806040838503121561108e57600080fd5b600061109c85828601610f34565b92505060206110ad85828601610f49565b9150509250929050565b6000806000606084860312156110cc57600080fd5b60006110da86828701610f34565b93505060206110eb86828701610f49565b925050604084013567ffffffffffffffff81111561110857600080fd5b61111486828701610f5e565b9150509250925092565b6000806040838503121561113157600080fd5b600061113f85828601610f34565b925050602083013567ffffffffffffffff81111561115c57600080fd5b61116885828601610f5e565b9150509250929050565b6000806040838503121561118557600080fd5b600061119385828601610f34565b92505060206111a485828601610fb2565b9150509250929050565b6000602082840312156111c057600080fd5b600082013567ffffffffffffffff8111156111da57600080fd5b6111e684828501610f5e565b91505092915050565b60006111fb8383611322565b60608301905092915050565b61121081611519565b82525050565b61121f81611519565b82525050565b6000611230826114c9565b61123a81856114f7565b9350611245836114bc565b8060005b8381101561127657815161125d88826111ef565b9750611268836114ea565b925050600181019050611249565b5085935050505092915050565b61128c8161152b565b82525050565b61129b81611537565b82525050565b6112aa81611537565b82525050565b60006112bb826114df565b6112c58185611508565b93506112d581856020860161157d565b6112de816115b0565b840191505092915050565b60006112f4826114d4565b6112fe8185611508565b935061130e81856020860161157d565b611317816115b0565b840191505092915050565b6060820160008201516113386000850182611207565b50602082015161134b6020850182611292565b50604082015161135e6040850182611364565b50505050565b61136d81611564565b82525050565b61137c81611564565b82525050565b60006020820190506113976000830184611216565b92915050565b60006060820190506113b26000830186611216565b6113bf60208301856112a1565b6113cc6040830184611373565b949350505050565b60006040820190506113e96000830185611216565b81810360208301526113fb81846112e9565b90509392505050565b6000602082019050818103600083015261141e8184611225565b905092915050565b600060208201905061143b6000830184611283565b92915050565b6000602082019050818103600083015261145b81846112b0565b905092915050565b6000604051905081810181811067ffffffffffffffff8211171561148657600080fd5b8060405250919050565b600067ffffffffffffffff8211156114a757600080fd5b601f19601f8301169050602081019050919050565b6000602082019050919050565b600081519050919050565b600081519050919050565b600081519050919050565b6000602082019050919050565b600082825260208201905092915050565b600082825260208201905092915050565b600061152482611544565b9050919050565b60008115159050919050565b60008160000b9050919050565b600073ffffffffffffffffffffffffffffffffffffffff82169050919050565b6000819050919050565b82818337600083830152505050565b60005b8381101561159b578082015181840152602081019050611580565b838111156115aa576000848401525b50505050565b6000601f19601f8301169050919050565b6115ca81611519565b81146115d557600080fd5b50565b6115e181611537565b81146115ec57600080fd5b50565b6115f881611564565b811461160357600080fd5b5056fea265627a7a723058200d8f8b5bf05bc19ab7a1d5d69db1f76056434dd6177b16e32b71a28acb1e19c86c6578706572696d656e74616cf50037",
  "source": "\npragma solidity ^0.5.8;\npragma experimental ABIEncoderV2;\n\n// TO DO\n// add gas cost\n// add remove certs\n// add transferOwnership of certifier\n// get specific certs (is dether certs?)\n\ncontract CertifierRegistry {\n\t// ------------------------------------------------\n\t//\n\t// Structs\n\t//\n\t// ------------------------------------------------\n\n\tstruct Certification {\n\t\taddress certifier;\n\t\tint8 ref;\n    uint timestamp;\n\t}\n\n\tstruct Certifier {\n\t\taddress owner;\n\t\tstring url; \t// need a website url to prove the certifier ID\n\t\tmapping (address => bool) delegate;\n\t\tmapping (int8 => string) certificationType;\n\t}\n\n\t// ------------------------------------------------\n  //\n  // Variables Public\n  //\n  // ------------------------------------------------\n\n\tmapping (address => Certification[]) public certs;\n\t// mapping (address => mapping(address => int8)) public certs;\n\n\tmapping (address => Certifier) public certifier;\n\t\n\t// ------------------------------------------------\n  //\n  // Events\n  //\n  // ------------------------------------------------\n\n\tevent CertifierConfirmed(address indexed who);\n\tevent CertifierRevoked(address indexed who);\n\n\t// ------------------------------------------------\n  //\n  // Modifiers\n  //\n  // ------------------------------------------------\n\tmodifier only_certification_owner(address _certifierId, address _who) { require(certifier[_certifierId].owner == _who); _; }\n\t// modifier only_certified(address _who) { require(certs[_who].active); _; }\n\tmodifier only_delegate(address _certifierId, address _who) { require(certifier[_certifierId].delegate[_who]); _; }\n\n\t// ------------------------------------------------\n  //\n  // Constructor\n  //\n  // ------------------------------------------------\n\n\n\t// ------------------------------------------------\n\t//\n\t// Functions Certifier management\n\t//\n\t// ------------------------------------------------\n\n\tfunction createCertifier(string memory _url) public returns (address certifiedId) {\n\t\t// create new certifier and register it\n\t\tcertifiedId = msg.sender;\n\t\tcertifier[certifiedId].owner = msg.sender;\n\t\tcertifier[certifiedId].url = _url;\n\t}\n\tfunction modifyUrl(address _certifierId, string memory _newUrl) public only_certification_owner(_certifierId, msg.sender) {\n\t\t\tcertifier[msg.sender].url = _newUrl;\n\t}\n\tfunction addCertificationType(address _certifierId, int8 ref, string memory description) public only_certification_owner(_certifierId, msg.sender) {\n\t\t\tcertifier[msg.sender].certificationType[ref] = description;\n\t}\n\n\tfunction addDelegate(address _certifierId, address _delegate) public only_certification_owner(_certifierId, msg.sender)\n\t{\n\t\t// require(control.isCEO(msg.sender), \"caller needs to be CEO\");\n\t\tcertifier[_certifierId].delegate[_delegate] = true;\n\t}\n\n\tfunction removeDelegate(address _certifierId, address _delegate) public only_certification_owner(_certifierId, msg.sender)\n\t{\n\t\t// require(control.isCEO(msg.sender), \"caller needs to be CEO\");\n\t\tcertifier[_certifierId].delegate[_delegate] = false;\n  }\n\n    // ------------------------------------------------\n\t//\n\t// Functions Certifier \n\t//\n\t// ------------------------------------------------\n\n\tfunction certify(address _certifierId, address _who, int8 _type)\n\t\tpublic\n\t\tonly_delegate(_certifierId, msg.sender)\n\t{\n\t\t// certs[_who].active = true; // add certification\n\t\tcerts[_who].push(Certification({certifier: _certifierId, ref: _type, timestamp: now}));\n\n\t}\n\n\tfunction revoke(address _certifierId, address _who)\n\t\tpublic\n\t\tonly_delegate(_certifierId, msg.sender)\n\t\t// only_certified(_who)\n\t{\n\t\t// certs[_who].active = false;\n\t\temit CertifierRevoked(_who);\n\t}\n\n\t// ------------------------------------------------\n\t//\n\t// Functions Getters Public\n\t//\n\t// ------------------------------------------------\n\nfunction isDelegate(address _certifierId, address _who) public view returns(bool) { return certifier[_certifierId].delegate[_who]; }\nfunction getCertificationType(address _certifierId, int8 _number) public view returns( string memory) {\n\treturn certifier[_certifierId].certificationType[_number];\n}\n\n\tfunction getCerts( address _who) public view returns(Certification[] memory) {\n\t\treturn certs[_who];\n\t}\n\n\t// function isCert(address _certifierId, address _who) public view returns(bool) {\n\n\t// }\n}\n",
  "sourcePath": "/Users/mehdi/code/dether/contractV2/contracts/certifier/CertifierRegistry.sol",
  "compiler": {
    "name": "solc",
    "version": "0.5.8+commit.23d335f2.Emscripten.clang"
  },
  "schemaVersion": "3.0.11",
  "updatedAt": "2019-07-02T13:21:08.611Z",
  "devdoc": {
    "methods": {}
  },
  "userdoc": {
    "methods": {}
  }
}