{
  "contractName": "Control",
  "abi": [
    {
      "constant": true,
      "inputs": [],
      "name": "cmo",
      "outputs": [
        {
          "name": "",
          "type": "address"
        }
      ],
      "payable": false,
      "stateMutability": "view",
      "type": "function"
    },
    {
      "constant": true,
      "inputs": [],
      "name": "cfo",
      "outputs": [
        {
          "name": "",
          "type": "address"
        }
      ],
      "payable": false,
      "stateMutability": "view",
      "type": "function"
    },
    {
      "constant": true,
      "inputs": [],
      "name": "paused",
      "outputs": [
        {
          "name": "",
          "type": "bool"
        }
      ],
      "payable": false,
      "stateMutability": "view",
      "type": "function"
    },
    {
      "constant": true,
      "inputs": [
        {
          "name": "",
          "type": "address"
        }
      ],
      "name": "shopModerators",
      "outputs": [
        {
          "name": "",
          "type": "bool"
        }
      ],
      "payable": false,
      "stateMutability": "view",
      "type": "function"
    },
    {
      "constant": true,
      "inputs": [],
      "name": "cso",
      "outputs": [
        {
          "name": "",
          "type": "address"
        }
      ],
      "payable": false,
      "stateMutability": "view",
      "type": "function"
    },
    {
      "constant": true,
      "inputs": [],
      "name": "ceo",
      "outputs": [
        {
          "name": "",
          "type": "address"
        }
      ],
      "payable": false,
      "stateMutability": "view",
      "type": "function"
    },
    {
      "constant": true,
      "inputs": [
        {
          "name": "",
          "type": "address"
        }
      ],
      "name": "tellerModerators",
      "outputs": [
        {
          "name": "",
          "type": "bool"
        }
      ],
      "payable": false,
      "stateMutability": "view",
      "type": "function"
    },
    {
      "inputs": [],
      "payable": false,
      "stateMutability": "nonpayable",
      "type": "constructor"
    },
    {
      "constant": false,
      "inputs": [
        {
          "name": "_who",
          "type": "address"
        }
      ],
      "name": "setCEO",
      "outputs": [],
      "payable": false,
      "stateMutability": "nonpayable",
      "type": "function"
    },
    {
      "constant": false,
      "inputs": [
        {
          "name": "_who",
          "type": "address"
        }
      ],
      "name": "setCSO",
      "outputs": [],
      "payable": false,
      "stateMutability": "nonpayable",
      "type": "function"
    },
    {
      "constant": false,
      "inputs": [
        {
          "name": "_who",
          "type": "address"
        }
      ],
      "name": "setCMO",
      "outputs": [],
      "payable": false,
      "stateMutability": "nonpayable",
      "type": "function"
    },
    {
      "constant": false,
      "inputs": [
        {
          "name": "_who",
          "type": "address"
        }
      ],
      "name": "setCFO",
      "outputs": [],
      "payable": false,
      "stateMutability": "nonpayable",
      "type": "function"
    },
    {
      "constant": false,
      "inputs": [
        {
          "name": "_who",
          "type": "address"
        }
      ],
      "name": "setShopModerator",
      "outputs": [],
      "payable": false,
      "stateMutability": "nonpayable",
      "type": "function"
    },
    {
      "constant": false,
      "inputs": [
        {
          "name": "_who",
          "type": "address"
        }
      ],
      "name": "removeShopModerator",
      "outputs": [],
      "payable": false,
      "stateMutability": "nonpayable",
      "type": "function"
    },
    {
      "constant": false,
      "inputs": [
        {
          "name": "_who",
          "type": "address"
        }
      ],
      "name": "setTellerModerator",
      "outputs": [],
      "payable": false,
      "stateMutability": "nonpayable",
      "type": "function"
    },
    {
      "constant": false,
      "inputs": [
        {
          "name": "_who",
          "type": "address"
        }
      ],
      "name": "removeTellerModerator",
      "outputs": [],
      "payable": false,
      "stateMutability": "nonpayable",
      "type": "function"
    },
    {
      "constant": false,
      "inputs": [],
      "name": "pause",
      "outputs": [],
      "payable": false,
      "stateMutability": "nonpayable",
      "type": "function"
    },
    {
      "constant": false,
      "inputs": [],
      "name": "unpause",
      "outputs": [],
      "payable": false,
      "stateMutability": "nonpayable",
      "type": "function"
    },
    {
      "constant": true,
      "inputs": [
        {
          "name": "_who",
          "type": "address"
        }
      ],
      "name": "isCEO",
      "outputs": [
        {
          "name": "",
          "type": "bool"
        }
      ],
      "payable": false,
      "stateMutability": "view",
      "type": "function"
    },
    {
      "constant": true,
      "inputs": [
        {
          "name": "_who",
          "type": "address"
        }
      ],
      "name": "isCSO",
      "outputs": [
        {
          "name": "",
          "type": "bool"
        }
      ],
      "payable": false,
      "stateMutability": "view",
      "type": "function"
    },
    {
      "constant": true,
      "inputs": [
        {
          "name": "_who",
          "type": "address"
        }
      ],
      "name": "isCMO",
      "outputs": [
        {
          "name": "",
          "type": "bool"
        }
      ],
      "payable": false,
      "stateMutability": "view",
      "type": "function"
    },
    {
      "constant": true,
      "inputs": [
        {
          "name": "_who",
          "type": "address"
        }
      ],
      "name": "isCFO",
      "outputs": [
        {
          "name": "",
          "type": "bool"
        }
      ],
      "payable": false,
      "stateMutability": "view",
      "type": "function"
    },
    {
      "constant": true,
      "inputs": [
        {
          "name": "_who",
          "type": "address"
        }
      ],
      "name": "isTellerModerator",
      "outputs": [
        {
          "name": "",
          "type": "bool"
        }
      ],
      "payable": false,
      "stateMutability": "view",
      "type": "function"
    },
    {
      "constant": true,
      "inputs": [
        {
          "name": "_who",
          "type": "address"
        }
      ],
      "name": "isShopModerator",
      "outputs": [
        {
          "name": "",
          "type": "bool"
        }
      ],
      "payable": false,
      "stateMutability": "view",
      "type": "function"
    }
  ],
  "bytecode": "0x608060405234801561001057600080fd5b5060008060006101000a81548160ff02191690831515021790555033600060016101000a81548173ffffffffffffffffffffffffffffffffffffffff021916908373ffffffffffffffffffffffffffffffffffffffff16021790555033600160006101000a81548173ffffffffffffffffffffffffffffffffffffffff021916908373ffffffffffffffffffffffffffffffffffffffff16021790555033600260006101000a81548173ffffffffffffffffffffffffffffffffffffffff021916908373ffffffffffffffffffffffffffffffffffffffff16021790555033600360006101000a81548173ffffffffffffffffffffffffffffffffffffffff021916908373ffffffffffffffffffffffffffffffffffffffff160217905550611bbc8061013e6000396000f3fe608060405234801561001057600080fd5b506004361061016a576000357c01000000000000000000000000000000000000000000000000000000009004806367bb15ad116100e0578063908921fc11610099578063908921fc146105e757806398cbc89214610631578063aa5a11c51461068d578063b4ff232e146106d1578063c640ee3d1461072d578063d0a4a81b146107895761016a565b806367bb15ad1461043b5780637587e4c7146104975780637fc126bd146104e1578063809ffb201461053d5780638456cb59146105815780638900bd221461058b5761016a565b80632105c049116101325780632105c049146102ff57806327d7874c146103435780633f4ba83a146103875780634e0a337914610391578063529e65e1146103d55780635c975abb146104195761016a565b8063032d6ddd1461016f57806306911400146101b95780630c9f980f146102155780631ed20347146102715780632072863b146102bb575b600080fd5b6101776107cd565b604051808273ffffffffffffffffffffffffffffffffffffffff1673ffffffffffffffffffffffffffffffffffffffff16815260200191505060405180910390f35b6101fb600480360360208110156101cf57600080fd5b81019080803573ffffffffffffffffffffffffffffffffffffffff1690602001909291905050506107f3565b604051808215151515815260200191505060405180910390f35b6102576004803603602081101561022b57600080fd5b81019080803573ffffffffffffffffffffffffffffffffffffffff16906020019092919050505061084d565b604051808215151515815260200191505060405180910390f35b6102796108a7565b604051808273ffffffffffffffffffffffffffffffffffffffff1673ffffffffffffffffffffffffffffffffffffffff16815260200191505060405180910390f35b6102fd600480360360208110156102d157600080fd5b81019080803573ffffffffffffffffffffffffffffffffffffffff1690602001909291905050506108cd565b005b6103416004803603602081101561031557600080fd5b81019080803573ffffffffffffffffffffffffffffffffffffffff169060200190929190505050610a7d565b005b6103856004803603602081101561035957600080fd5b81019080803573ffffffffffffffffffffffffffffffffffffffff169060200190929190505050610c2d565b005b61038f610ddd565b005b6103d3600480360360208110156103a757600080fd5b81019080803573ffffffffffffffffffffffffffffffffffffffff169060200190929190505050610f48565b005b610417600480360360208110156103eb57600080fd5b81019080803573ffffffffffffffffffffffffffffffffffffffff1690602001909291905050506110f8565b005b6104216112bf565b604051808215151515815260200191505060405180910390f35b61047d6004803603602081101561045157600080fd5b81019080803573ffffffffffffffffffffffffffffffffffffffff1690602001909291905050506112d1565b604051808215151515815260200191505060405180910390f35b61049f6112f1565b604051808273ffffffffffffffffffffffffffffffffffffffff1673ffffffffffffffffffffffffffffffffffffffff16815260200191505060405180910390f35b610523600480360360208110156104f757600080fd5b81019080803573ffffffffffffffffffffffffffffffffffffffff169060200190929190505050611317565b604051808215151515815260200191505060405180910390f35b61057f6004803603602081101561055357600080fd5b81019080803573ffffffffffffffffffffffffffffffffffffffff169060200190929190505050611374565b005b61058961153b565b005b6105cd600480360360208110156105a157600080fd5b81019080803573ffffffffffffffffffffffffffffffffffffffff169060200190929190505050611689565b604051808215151515815260200191505060405180910390f35b6105ef6116e3565b604051808273ffffffffffffffffffffffffffffffffffffffff1673ffffffffffffffffffffffffffffffffffffffff16815260200191505060405180910390f35b6106736004803603602081101561064757600080fd5b81019080803573ffffffffffffffffffffffffffffffffffffffff169060200190929190505050611709565b604051808215151515815260200191505060405180910390f35b6106cf600480360360208110156106a357600080fd5b81019080803573ffffffffffffffffffffffffffffffffffffffff169060200190929190505050611766565b005b610713600480360360208110156106e757600080fd5b81019080803573ffffffffffffffffffffffffffffffffffffffff16906020019092919050505061192d565b604051808215151515815260200191505060405180910390f35b61076f6004803603602081101561074357600080fd5b81019080803573ffffffffffffffffffffffffffffffffffffffff169060200190929190505050611987565b604051808215151515815260200191505060405180910390f35b6107cb6004803603602081101561079f57600080fd5b81019080803573ffffffffffffffffffffffffffffffffffffffff1690602001909291905050506119a7565b005b600260009054906101000a900473ffffffffffffffffffffffffffffffffffffffff1681565b60008173ffffffffffffffffffffffffffffffffffffffff16600260009054906101000a900473ffffffffffffffffffffffffffffffffffffffff1673ffffffffffffffffffffffffffffffffffffffff16149050919050565b60008173ffffffffffffffffffffffffffffffffffffffff16600160009054906101000a900473ffffffffffffffffffffffffffffffffffffffff1673ffffffffffffffffffffffffffffffffffffffff16149050919050565b600360009054906101000a900473ffffffffffffffffffffffffffffffffffffffff1681565b600060019054906101000a900473ffffffffffffffffffffffffffffffffffffffff1673ffffffffffffffffffffffffffffffffffffffff163373ffffffffffffffffffffffffffffffffffffffff16141515610992576040517f08c379a00000000000000000000000000000000000000000000000000000000081526004018080602001828103825260168152602001807f63616c6c6572206e6565647320746f2062652063656f0000000000000000000081525060200191505060405180910390fd5b80600073ffffffffffffffffffffffffffffffffffffffff168173ffffffffffffffffffffffffffffffffffffffff1614151515610a38576040517f08c379a00000000000000000000000000000000000000000000000000000000081526004018080602001828103825260158152602001807f616464726573732063616e6e6f7420626520307830000000000000000000000081525060200191505060405180910390fd5b81600260006101000a81548173ffffffffffffffffffffffffffffffffffffffff021916908373ffffffffffffffffffffffffffffffffffffffff1602179055505050565b600060019054906101000a900473ffffffffffffffffffffffffffffffffffffffff1673ffffffffffffffffffffffffffffffffffffffff163373ffffffffffffffffffffffffffffffffffffffff16141515610b42576040517f08c379a00000000000000000000000000000000000000000000000000000000081526004018080602001828103825260168152602001807f63616c6c6572206e6565647320746f2062652063656f0000000000000000000081525060200191505060405180910390fd5b80600073ffffffffffffffffffffffffffffffffffffffff168173ffffffffffffffffffffffffffffffffffffffff1614151515610be8576040517f08c379a00000000000000000000000000000000000000000000000000000000081526004018080602001828103825260158152602001807f616464726573732063616e6e6f7420626520307830000000000000000000000081525060200191505060405180910390fd5b81600160006101000a81548173ffffffffffffffffffffffffffffffffffffffff021916908373ffffffffffffffffffffffffffffffffffffffff1602179055505050565b600060019054906101000a900473ffffffffffffffffffffffffffffffffffffffff1673ffffffffffffffffffffffffffffffffffffffff163373ffffffffffffffffffffffffffffffffffffffff16141515610cf2576040517f08c379a00000000000000000000000000000000000000000000000000000000081526004018080602001828103825260168152602001807f63616c6c6572206e6565647320746f2062652063656f0000000000000000000081525060200191505060405180910390fd5b80600073ffffffffffffffffffffffffffffffffffffffff168173ffffffffffffffffffffffffffffffffffffffff1614151515610d98576040517f08c379a00000000000000000000000000000000000000000000000000000000081526004018080602001828103825260158152602001807f616464726573732063616e6e6f7420626520307830000000000000000000000081525060200191505060405180910390fd5b81600060016101000a81548173ffffffffffffffffffffffffffffffffffffffff021916908373ffffffffffffffffffffffffffffffffffffffff1602179055505050565b600060019054906101000a900473ffffffffffffffffffffffffffffffffffffffff1673ffffffffffffffffffffffffffffffffffffffff163373ffffffffffffffffffffffffffffffffffffffff16141515610ea2576040517f08c379a00000000000000000000000000000000000000000000000000000000081526004018080602001828103825260168152602001807f63616c6c6572206e6565647320746f2062652063656f0000000000000000000081525060200191505060405180910390fd5b600115156000809054906101000a900460ff161515141515610f2c576040517f08c379a000000000000000000000000000000000000000000000000000000000815260040180806020018281038252601e8152602001807f63616e206f6e6c792062652063616c6c6564207768656e20706175736564000081525060200191505060405180910390fd5b60008060006101000a81548160ff021916908315150217905550565b600060019054906101000a900473ffffffffffffffffffffffffffffffffffffffff1673ffffffffffffffffffffffffffffffffffffffff163373ffffffffffffffffffffffffffffffffffffffff1614151561100d576040517f08c379a00000000000000000000000000000000000000000000000000000000081526004018080602001828103825260168152602001807f63616c6c6572206e6565647320746f2062652063656f0000000000000000000081525060200191505060405180910390fd5b80600073ffffffffffffffffffffffffffffffffffffffff168173ffffffffffffffffffffffffffffffffffffffff16141515156110b3576040517f08c379a00000000000000000000000000000000000000000000000000000000081526004018080602001828103825260158152602001807f616464726573732063616e6e6f7420626520307830000000000000000000000081525060200191505060405180910390fd5b81600360006101000a81548173ffffffffffffffffffffffffffffffffffffffff021916908373ffffffffffffffffffffffffffffffffffffffff1602179055505050565b600060019054906101000a900473ffffffffffffffffffffffffffffffffffffffff1673ffffffffffffffffffffffffffffffffffffffff163373ffffffffffffffffffffffffffffffffffffffff161415156111bd576040517f08c379a00000000000000000000000000000000000000000000000000000000081526004018080602001828103825260168152602001807f63616c6c6572206e6565647320746f2062652063656f0000000000000000000081525060200191505060405180910390fd5b80600073ffffffffffffffffffffffffffffffffffffffff168173ffffffffffffffffffffffffffffffffffffffff1614151515611263576040517f08c379a00000000000000000000000000000000000000000000000000000000081526004018080602001828103825260158152602001807f616464726573732063616e6e6f7420626520307830000000000000000000000081525060200191505060405180910390fd5b6000600460008473ffffffffffffffffffffffffffffffffffffffff1673ffffffffffffffffffffffffffffffffffffffff16815260200190815260200160002060006101000a81548160ff0219169083151502179055505050565b6000809054906101000a900460ff1681565b60046020528060005260406000206000915054906101000a900460ff1681565b600160009054906101000a900473ffffffffffffffffffffffffffffffffffffffff1681565b600060011515600460008473ffffffffffffffffffffffffffffffffffffffff1673ffffffffffffffffffffffffffffffffffffffff16815260200190815260200160002060009054906101000a900460ff161515149050919050565b600060019054906101000a900473ffffffffffffffffffffffffffffffffffffffff1673ffffffffffffffffffffffffffffffffffffffff163373ffffffffffffffffffffffffffffffffffffffff16141515611439576040517f08c379a00000000000000000000000000000000000000000000000000000000081526004018080602001828103825260168152602001807f63616c6c6572206e6565647320746f2062652063656f0000000000000000000081525060200191505060405180910390fd5b80600073ffffffffffffffffffffffffffffffffffffffff168173ffffffffffffffffffffffffffffffffffffffff16141515156114df576040517f08c379a00000000000000000000000000000000000000000000000000000000081526004018080602001828103825260158152602001807f616464726573732063616e6e6f7420626520307830000000000000000000000081525060200191505060405180910390fd5b6001600460008473ffffffffffffffffffffffffffffffffffffffff1673ffffffffffffffffffffffffffffffffffffffff16815260200190815260200160002060006101000a81548160ff0219169083151502179055505050565b600060019054906101000a900473ffffffffffffffffffffffffffffffffffffffff1673ffffffffffffffffffffffffffffffffffffffff163373ffffffffffffffffffffffffffffffffffffffff16141515611600576040517f08c379a00000000000000000000000000000000000000000000000000000000081526004018080602001828103825260168152602001807f63616c6c6572206e6565647320746f2062652063656f0000000000000000000081525060200191505060405180910390fd5b600015156000809054906101000a900460ff16151514151561166d576040517f08c379a0000000000000000000000000000000000000000000000000000000008152600401808060200182810382526022815260200180611b6f6022913960400191505060405180910390fd5b60016000806101000a81548160ff021916908315150217905550565b60008173ffffffffffffffffffffffffffffffffffffffff16600060019054906101000a900473ffffffffffffffffffffffffffffffffffffffff1673ffffffffffffffffffffffffffffffffffffffff16149050919050565b600060019054906101000a900473ffffffffffffffffffffffffffffffffffffffff1681565b600060011515600560008473ffffffffffffffffffffffffffffffffffffffff1673ffffffffffffffffffffffffffffffffffffffff16815260200190815260200160002060009054906101000a900460ff161515149050919050565b600060019054906101000a900473ffffffffffffffffffffffffffffffffffffffff1673ffffffffffffffffffffffffffffffffffffffff163373ffffffffffffffffffffffffffffffffffffffff1614151561182b576040517f08c379a00000000000000000000000000000000000000000000000000000000081526004018080602001828103825260168152602001807f63616c6c6572206e6565647320746f2062652063656f0000000000000000000081525060200191505060405180910390fd5b80600073ffffffffffffffffffffffffffffffffffffffff168173ffffffffffffffffffffffffffffffffffffffff16141515156118d1576040517f08c379a00000000000000000000000000000000000000000000000000000000081526004018080602001828103825260158152602001807f616464726573732063616e6e6f7420626520307830000000000000000000000081525060200191505060405180910390fd5b6000600560008473ffffffffffffffffffffffffffffffffffffffff1673ffffffffffffffffffffffffffffffffffffffff16815260200190815260200160002060006101000a81548160ff0219169083151502179055505050565b60008173ffffffffffffffffffffffffffffffffffffffff16600360009054906101000a900473ffffffffffffffffffffffffffffffffffffffff1673ffffffffffffffffffffffffffffffffffffffff16149050919050565b60056020528060005260406000206000915054906101000a900460ff1681565b600060019054906101000a900473ffffffffffffffffffffffffffffffffffffffff1673ffffffffffffffffffffffffffffffffffffffff163373ffffffffffffffffffffffffffffffffffffffff16141515611a6c576040517f08c379a00000000000000000000000000000000000000000000000000000000081526004018080602001828103825260168152602001807f63616c6c6572206e6565647320746f2062652063656f0000000000000000000081525060200191505060405180910390fd5b80600073ffffffffffffffffffffffffffffffffffffffff168173ffffffffffffffffffffffffffffffffffffffff1614151515611b12576040517f08c379a00000000000000000000000000000000000000000000000000000000081526004018080602001828103825260158152602001807f616464726573732063616e6e6f7420626520307830000000000000000000000081525060200191505060405180910390fd5b6001600560008473ffffffffffffffffffffffffffffffffffffffff1673ffffffffffffffffffffffffffffffffffffffff16815260200190815260200160002060006101000a81548160ff021916908315150217905550505056fe63616e206f6e6c792062652063616c6c6564207768656e206e6f7420706175736564a165627a7a72305820825b38638a9d25cac560bd52913ec38b4bcd3170f00dde771699f3dc47cd5d8d0029",
  "source": "pragma solidity ^0.5.3;\n\ncontract Control {\n  // ------------------------------------------------\n  //\n  // Variables Public\n  //\n  // ------------------------------------------------\n\n  bool public paused;\n\n  address public ceo;\n  address public cso;\n  address public cmo;\n  address public cfo;\n\n  // TODO: centralised moderator, would become decentralised\n  mapping (address => bool) public shopModerators;\n  mapping (address => bool) public tellerModerators;\n\n  // ------------------------------------------------\n  //\n  // Modifiers\n  //\n  // ------------------------------------------------\n\n\n  /// @dev Access modifier for CEO-only functionality\n  modifier onlyCEO() {\n      require(msg.sender == ceo, \"caller needs to be ceo\");\n      _;\n  }\n\n  /// @dev Access modifier for CMO-only functionality\n  modifier onlyCMO() {\n      require(msg.sender == cmo, \"caller needs to be cmo\");\n      _;\n  }\n\n  modifier onlyCSO() {\n      require(msg.sender == cso, \"caller needs to be cso\");\n      _;\n  }\n\n  modifier onlyCFO() {\n      require(msg.sender == cfo, \"caller needs to be cfo\");\n      _;\n  }\n\n  modifier isValidAddress(address _addr) {\n    require(_addr != address(0), \"address cannot be 0x0\");\n    _;\n  }\n\n  modifier whenPaused() {\n    require(paused == true, \"can only be called when paused\");\n    _;\n  }\n\n  modifier whenNotPaused() {\n    require(paused == false, \"can only be called when not paused\");\n    _;\n  }\n\n  // ------------------------------------------------\n  //\n  // Constructor\n  //\n  // ------------------------------------------------\n\n  constructor()\n    public\n  {\n    paused = false;\n    ceo = msg.sender;\n    cso = msg.sender;\n    cmo = msg.sender;\n    cfo = msg.sender;\n  }\n\n  // ------------------------------------------------\n  //\n  // Functions Setters Public\n  //\n  // ------------------------------------------------\n\n  function setCEO(address _who) external onlyCEO isValidAddress(_who) { ceo = _who; }\n  function setCSO(address _who) external onlyCEO isValidAddress(_who) { cso = _who; }\n  function setCMO(address _who) external onlyCEO isValidAddress(_who) { cmo = _who; }\n  function setCFO(address _who) external onlyCEO isValidAddress(_who) { cfo = _who; }\n  function setShopModerator(address _who) external onlyCEO isValidAddress(_who) { shopModerators[_who] = true; }\n  function removeShopModerator(address _who) external onlyCEO isValidAddress(_who) { shopModerators[_who] = false; }\n  function setTellerModerator(address _who) external onlyCEO isValidAddress(_who) { tellerModerators[_who] = true; }\n  function removeTellerModerator(address _who) external onlyCEO isValidAddress(_who) { tellerModerators[_who] = false; }\n  function pause() external onlyCEO whenNotPaused { paused = true; }\n  function unpause() external onlyCEO whenPaused { paused = false; }\n\n  // ------------------------------------------------\n  //\n  // Functions Getters\n  //\n  // ------------------------------------------------\n\n  function isCEO(address _who) external view returns (bool) { return ceo == _who; }\n  function isCSO(address _who) external view returns (bool) { return cso == _who; }\n  function isCMO(address _who) external view returns (bool) { return cmo == _who; }\n  function isCFO(address _who) external view returns (bool) { return cfo == _who; }\n  function isTellerModerator(address _who) external view returns (bool) { return tellerModerators[_who] == true; }\n  function isShopModerator(address _who) external view returns (bool) { return shopModerators[_who] == true; }\n}",
  "sourcePath": "/Users/mehdi/code/dether/contractV2/contracts/core/Control.sol",
  "compiler": {
    "name": "solc",
    "version": "0.5.5+commit.47a71e8f.Emscripten.clang"
  },
  "schemaVersion": "3.0.3",
  "updatedAt": "2019-03-28T10:26:15.658Z",
  "devdoc": {
    "methods": {}
  },
  "userdoc": {
    "methods": {}
  }
}