{
  "contractName": "Countries",
  "abi": [
    {
      "constant": true,
      "inputs": [
        {
          "name": "",
          "type": "bytes2"
        },
        {
          "name": "",
          "type": "uint256"
        },
        {
          "name": "",
          "type": "uint256"
        },
        {
          "name": "",
          "type": "uint256"
        }
      ],
      "name": "countries",
      "outputs": [
        {
          "name": "",
          "type": "uint256"
        }
      ],
      "payable": false,
      "stateMutability": "view",
      "type": "function"
    },
    {
      "constant": true,
      "inputs": [],
      "name": "owner",
      "outputs": [
        {
          "name": "",
          "type": "address"
        }
      ],
      "payable": false,
      "stateMutability": "view",
      "type": "function"
    },
    {
      "constant": false,
      "inputs": [
        {
          "name": "newOwner",
          "type": "address"
        }
      ],
      "name": "transferOwnership",
      "outputs": [],
      "payable": false,
      "stateMutability": "nonpayable",
      "type": "function"
    },
    {
      "anonymous": false,
      "inputs": [
        {
          "indexed": true,
          "name": "previousOwner",
          "type": "address"
        },
        {
          "indexed": true,
          "name": "newOwner",
          "type": "address"
        }
      ],
      "name": "OwnershipTransferred",
      "type": "event"
    },
    {
      "constant": false,
      "inputs": [
        {
          "name": "country",
          "type": "bytes2"
        },
        {
          "name": "xIndex_",
          "type": "uint256"
        },
        {
          "name": "value",
          "type": "uint256[2][]"
        }
      ],
      "name": "updateCountry",
      "outputs": [],
      "payable": false,
      "stateMutability": "nonpayable",
      "type": "function"
    },
    {
      "constant": true,
      "inputs": [
        {
          "name": "yArrays",
          "type": "uint256[2][]"
        }
      ],
      "name": "getYArraysLength",
      "outputs": [
        {
          "name": "yCount_",
          "type": "uint256"
        }
      ],
      "payable": false,
      "stateMutability": "pure",
      "type": "function"
    },
    {
      "constant": true,
      "inputs": [
        {
          "name": "xIndex_",
          "type": "uint256"
        },
        {
          "name": "country",
          "type": "bytes2"
        }
      ],
      "name": "getCountryColumn",
      "outputs": [
        {
          "name": "column_",
          "type": "uint256[2][]"
        }
      ],
      "payable": false,
      "stateMutability": "view",
      "type": "function"
    },
    {
      "constant": true,
      "inputs": [
        {
          "name": "x18",
          "type": "uint256"
        },
        {
          "name": "y18",
          "type": "uint256"
        }
      ],
      "name": "getParentTile18to12",
      "outputs": [
        {
          "name": "x12_",
          "type": "uint256"
        },
        {
          "name": "y12_",
          "type": "uint256"
        }
      ],
      "payable": false,
      "stateMutability": "pure",
      "type": "function"
    },
    {
      "constant": true,
      "inputs": [
        {
          "name": "x18",
          "type": "uint256"
        },
        {
          "name": "y18",
          "type": "uint256"
        },
        {
          "name": "country",
          "type": "bytes2"
        }
      ],
      "name": "isInsideCountry",
      "outputs": [
        {
          "name": "insideCountry_",
          "type": "bool"
        }
      ],
      "payable": false,
      "stateMutability": "view",
      "type": "function"
    }
  ],
  "bytecode": "0x608060405260008054600160a060020a033316600160a060020a031990911617905561076d806100306000396000f30060806040526004361061008d5763ffffffff7c0100000000000000000000000000000000000000000000000000000000600035041663187f56fc811461009257806335e501eb146100cf5780638da5cb5b1461010b578063ac2eee7f1461013c578063f2fde38b146101c4578063f573f7e3146101e7578063fb860b1e14610281578063fd88dfe5146102b5575b600080fd5b34801561009e57600080fd5b506100bd600160f060020a03196004351660243560443560643561034b565b60408051918252519081900360200190f35b3480156100db57600080fd5b506100f7600435602435600160f060020a031960443516610398565b604080519115158252519081900360200190f35b34801561011757600080fd5b50610120610462565b60408051600160a060020a039092168252519081900360200190f35b34801561014857600080fd5b506040805160048035808201356020818102850181019095528084526100bd943694602493909290840191819060009085015b828210156101b457604080518082018252908084028701906002908390839080828437505050918352505060019091019060200161017b565b5093965061047195505050505050565b3480156101d057600080fd5b506101e5600160a060020a0360043516610475565b005b3480156101f357600080fd5b50604080516020600460443581810135838102850184019095528484526101e5948235600160f060020a03191694602480359536959460649492019190819060009085015b82821015610271576040805180820182529080840287019060029083908390808284375050509183525050600190910190602001610238565b5093965061050d95505050505050565b34801561028d57600080fd5b5061029c600435602435610560565b6040805192835260208301919091528051918290030190f35b3480156102c157600080fd5b506102da600435600160f060020a031960243516610590565b60405180806020018281038252838181518152602001915080516000925b8184101561033a57602080850284010151604080838360005b83811015610329578181015183820152602001610311565b5050505090500192600101926102f8565b925050509250505060405180910390f35b60016020528360005260406000206020528260005260406000208281548110151561037257fe5b90600052602060002090600202018160028110151561038d57fe5b015493508492505050565b6000806000606060006103a9610644565b6000806103b68b8b610560565b90975095506103c5878a610590565b94506103d085610471565b15156103df5760009750610454565b600093505b6103ed85610471565b84101561044557848481518110151561040257fe5b602090810291909101810151805191810151909450909250905081861080159061042c5750808611155b1561043a5760019750610445565b6001909301926103e4565b60018815151461045457600097505b505050505050509392505050565b600054600160a060020a031681565b5190565b60005433600160a060020a0390811691161461049057600080fd5b600160a060020a03811615156104a557600080fd5b60008054604051600160a060020a03808516939216917f8be0079c531659141344cd1fd0a4f28419497f9722a3daafe3b4186f6b6457e091a36000805473ffffffffffffffffffffffffffffffffffffffff1916600160a060020a0392909216919091179055565b60005433600160a060020a0390811691161461052857600080fd5b600160f060020a0319831660009081526001602090815260408083208584528252909120825161055a9284019061065f565b50505050565b60008061057484604063ffffffff61062d16565b915061058783604063ffffffff61062d16565b90509250929050565b600160f060020a0319811660009081526001602090815260408083208584528252808320805482518185028101850190935280835260609492939192909184015b828210156106215760008481526020902060408051808201918290529160028581029091019182845b8154815260200190600101908083116105fa575050505050815260200190600101906105d1565b50505050905092915050565b600080828481151561063b57fe5b04949350505050565b60408051808201825290600290829080388339509192915050565b8280548282559060005260206000209060020281019282156106a9579160200282015b828111156106a957825161069990839060026106b9565b5091602001919060020190610682565b506106b59291506106f3565b5090565b82600281019282156106e7579160200282015b828111156106e75782518255916020019190600101906106cc565b506106b5929150610719565b61071691905b808211156106b557600061070d8282610733565b506002016106f9565b90565b61071691905b808211156106b5576000815560010161071f565b5060008155600101600090555600a165627a7a72305820247d1cafaef445677b7bd9c19bdd7ba69bec9c245fdac2c4e56f7ffc9f28158e0029",
  "source": "pragma solidity 0.4.23;\n\nimport 'zeppelin-solidity/contracts/ownership/Ownable.sol';\nimport 'zeppelin-solidity/contracts/math/SafeMath.sol';\n\ncontract Countries is Ownable {\n  using SafeMath for uint256;\n\n  // Matrix of countries (zoom level 12)\n  mapping (bytes2 => mapping(uint => uint[2][])) public countries;\n\n  function updateCountry(bytes2 country, uint xIndex_, uint[2][] value)\n    public\n    onlyOwner\n  {\n    // TODO: require zoom level check\n    countries[country][xIndex_] = value;\n  }\n\n  function getYArraysLength(uint[2][] yArrays)\n    public\n    pure\n    returns (uint yCount_)\n  {\n    yCount_ = yArrays.length;\n  }\n\n  function getCountryColumn(uint xIndex_, bytes2 country)\n    public\n    view\n    returns (uint[2][] column_)\n  {\n    column_ = countries[country][xIndex_];\n  }\n\n  function getParentTile18to12(uint x18, uint y18)\n    public\n    pure\n    returns (uint x12_, uint y12_)\n  {\n    x12_ = x18.div(2**6);\n    y12_ = y18.div(2**6);\n  }\n\n  function isInsideCountry(uint x18, uint y18, bytes2 country)\n    public\n    view\n    returns (bool insideCountry_)\n  {\n    uint x;\n    uint y;\n    (x, y) = getParentTile18to12(x18, y18);\n\n    uint[2][] memory yArrays = getCountryColumn(x, country);\n\n    if (getYArraysLength(yArrays) ==  0) {\n      insideCountry_ = false;\n    } else {\n      for (uint i = 0; i < getYArraysLength(yArrays) ; i++){\n        uint[2] memory yArray = yArrays[i];\n        uint yLeft = yArray[0];\n        uint yRight = yArray[1];\n\n        if (y >= yLeft && y <= yRight) {\n          insideCountry_ = true;\n          break;\n        }\n      }\n\n      if (insideCountry_ != true) {\n        insideCountry_ = false;\n      }\n    }\n  }\n}\n",
  "sourcePath": "/Users/mehdi/code/dether/detherContracts/contracts/map/Countries.sol",
  "compiler": {
    "name": "solc",
    "version": "0.4.23+commit.124ca40d.Emscripten.clang"
  },
  "schemaVersion": "2.0.0",
  "updatedAt": "2018-05-22T14:53:59.301Z"
}