{
  "contractName": "CSCShop",
  "abi": [
    {
      "constant": true,
      "inputs": [],
      "name": "shopOwner",
      "outputs": [
        {
          "name": "",
          "type": "address"
        }
      ],
      "payable": false,
      "stateMutability": "view",
      "type": "function"
    },
    {
      "constant": true,
      "inputs": [],
      "name": "geohash",
      "outputs": [
        {
          "name": "",
          "type": "bytes10"
        }
      ],
      "payable": false,
      "stateMutability": "view",
      "type": "function"
    },
    {
      "constant": true,
      "inputs": [],
      "name": "cscShopContractOwner",
      "outputs": [
        {
          "name": "",
          "type": "address"
        }
      ],
      "payable": false,
      "stateMutability": "view",
      "type": "function"
    },
    {
      "constant": true,
      "inputs": [],
      "name": "delegated",
      "outputs": [
        {
          "name": "",
          "type": "bool"
        }
      ],
      "payable": false,
      "stateMutability": "view",
      "type": "function"
    },
    {
      "constant": true,
      "inputs": [],
      "name": "csc",
      "outputs": [
        {
          "name": "",
          "type": "bytes12"
        }
      ],
      "payable": false,
      "stateMutability": "view",
      "type": "function"
    },
    {
      "inputs": [
        {
          "name": "_geohash",
          "type": "bytes10"
        },
        {
          "name": "_shopOwner",
          "type": "address"
        },
        {
          "name": "_cscShopContractOwner",
          "type": "address"
        }
      ],
      "payable": false,
      "stateMutability": "nonpayable",
      "type": "constructor"
    },
    {
      "payable": true,
      "stateMutability": "payable",
      "type": "fallback"
    },
    {
      "anonymous": false,
      "inputs": [
        {
          "indexed": false,
          "name": "cscId",
          "type": "bytes12"
        },
        {
          "indexed": false,
          "name": "cscAddress",
          "type": "address"
        },
        {
          "indexed": false,
          "name": "shopOwner",
          "type": "address"
        },
        {
          "indexed": false,
          "name": "geohash",
          "type": "bytes10"
        }
      ],
      "name": "CscCreated",
      "type": "event"
    },
    {
      "anonymous": false,
      "inputs": [
        {
          "indexed": false,
          "name": "weis",
          "type": "uint256"
        },
        {
          "indexed": false,
          "name": "totalBalance",
          "type": "uint256"
        }
      ],
      "name": "amountReceived",
      "type": "event"
    },
    {
      "anonymous": false,
      "inputs": [
        {
          "indexed": false,
          "name": "balance",
          "type": "uint256"
        }
      ],
      "name": "withdrawFromShop",
      "type": "event"
    },
    {
      "constant": true,
      "inputs": [
        {
          "name": "_geohashArg",
          "type": "bytes10"
        },
        {
          "name": "_addr",
          "type": "address"
        }
      ],
      "name": "computeCSC",
      "outputs": [
        {
          "name": "",
          "type": "bytes12"
        }
      ],
      "payable": false,
      "stateMutability": "pure",
      "type": "function"
    },
    {
      "constant": true,
      "inputs": [],
      "name": "getGeohash",
      "outputs": [
        {
          "name": "",
          "type": "bytes10"
        }
      ],
      "payable": false,
      "stateMutability": "view",
      "type": "function"
    },
    {
      "constant": true,
      "inputs": [],
      "name": "getcscShopContractOwner",
      "outputs": [
        {
          "name": "",
          "type": "address"
        }
      ],
      "payable": false,
      "stateMutability": "view",
      "type": "function"
    },
    {
      "constant": false,
      "inputs": [],
      "name": "withdraw",
      "outputs": [],
      "payable": false,
      "stateMutability": "nonpayable",
      "type": "function"
    }
  ],
  "bytecode": "0x608060405234801561001057600080fd5b5060405160608061068e833981016040908152815160208301519190920151600080546001605060020a031916760100000000000000000000000000000000000000000000808604919091179182905561007491023064010000000061016a810204565b6000805460018054600160a060020a0319908116600160a060020a038881169190911792839055600280548316888316179055605060020a60b060020a03199093166a0100000000000000000000740100000000000000000000000000000000000000009687900481029190911760b060020a60ff02191694859055604080519186049096029091168152306020820152911681840152760100000000000000000000000000000000000000000000909102600160b060020a031916606082015290517f52dc57a0288842bc3966d55482ecd20a8c75855204fbd1d052ffc44d80616176916080908290030190a1505050610215565b60408051600160b060020a031984166020808301919091526c01000000000000000000000000600160a060020a03851602602a8301528251601e818403018152603e909201928390528151600093918291908401908083835b602083106101e25780518252601f1990920191602091820191016101c3565b5181516020939093036101000a600019018019909116921691909117905260405192018290039091209695505050505050565b61046a806102246000396000f3006080604052600436106100985763ffffffff7c0100000000000000000000000000000000000000000000000000000000600035041663052cbab681146100d557806308e44f88146101065780630b8df0ba146101475780630ec9036b1461015c5780633ccfd60b146101c35780638078a445146101da578063cb38eff2146101ef578063cf8db86214610204578063d55c3ca31461022d575b604080513481523031602082015281517f2442c81ae98aeae2d917bff776f34df9d2e7fd2befded667c8bf7452ce022c82929181900390910190a1005b3480156100e157600080fd5b506100ea610242565b60408051600160a060020a039092168252519081900360200190f35b34801561011257600080fd5b5061011b610251565b6040805175ffffffffffffffffffffffffffffffffffffffffffff199092168252519081900360200190f35b34801561015357600080fd5b5061011b610270565b34801561016857600080fd5b5061019975ffffffffffffffffffffffffffffffffffffffffffff1960043516600160a060020a036024351661028f565b6040805173ffffffffffffffffffffffffffffffffffffffff199092168252519081900360200190f35b3480156101cf57600080fd5b506101d8610349565b005b3480156101e657600080fd5b506100ea6103d2565b3480156101fb57600080fd5b506100ea6103e1565b34801561021057600080fd5b506102196103f0565b604080519115158252519081900360200190f35b34801561023957600080fd5b50610199610413565b600154600160a060020a031681565b6000547601000000000000000000000000000000000000000000000281565b6000547601000000000000000000000000000000000000000000000290565b6040805175ffffffffffffffffffffffffffffffffffffffffffff1984166020808301919091526c01000000000000000000000000600160a060020a03851602602a8301528251601e818403018152603e909201928390528151600093918291908401908083835b602083106103165780518252601f1990920191602091820191016102f7565b5181516020939093036101000a600019018019909116921691909117905260405192018290039091209695505050505050565b600154600160a060020a0316331461036057600080fd5b600030311161036e57600080fd5b6040513390303180156108fc02916000818181858888f1935050505015801561039b573d6000803e3d6000fd5b50604080513031815290517fcd7daabbc224ad1a71c2e63bea0ed1354d6a307e7f97ae8b9722a1307c070da49181900360200190a1565b600254600160a060020a031681565b600254600160a060020a031690565b600054760100000000000000000000000000000000000000000000900460ff1681565b6000546a010000000000000000000090047401000000000000000000000000000000000000000002815600a165627a7a7230582046cd749b15c7234be10aba288d3a3298c6588511f8a49cf584eafd37a0c4528d0029",
  "source": "pragma solidity ^0.4.22;\n\ncontract CSCShop {\n\n    bytes10 public geohash;\n    bytes12 public csc;\n    bool public delegated;\n    address public shopOwner;\n    address public cscShopContractOwner; // loyalty point auction contract for example\n\n    event CscCreated(bytes12 cscId, address cscAddress, address shopOwner, bytes10 geohash);\n    event amountReceived(uint weis, uint totalBalance);\n    event withdrawFromShop(uint balance);\n\n    modifier onlyshopOwner() {\n      require(msg.sender == shopOwner);\n      _;\n    }\n\n    constructor(bytes10 _geohash, address _shopOwner, address _cscShopContractOwner) public {\n      geohash = _geohash;\n      csc = computeCSC(geohash, address(this));\n      shopOwner = _shopOwner;\n      cscShopContractOwner = _cscShopContractOwner;\n      delegated = false;\n      emit CscCreated(csc, address(this), shopOwner, geohash);\n    }\n\n    function()\n      payable\n      public\n    {\n      emit amountReceived(msg.value, address(this).balance);\n    }\n\n    function computeCSC(bytes10 _geohashArg, address _addr)\n      public\n      pure\n      returns(bytes12)\n    {\n      return bytes12(keccak256(abi.encodePacked(_geohashArg, _addr)));\n    }\n\n    function getGeohash()\n      public\n      view\n      returns(bytes10)\n    {\n      return geohash;\n    }\n\n    function getcscShopContractOwner()\n      public\n      view\n      returns(address)\n    {\n      return cscShopContractOwner;\n    }\n\n    function withdraw()\n      onlyshopOwner\n    {\n      require(address(this).balance > 0);\n      msg.sender.transfer(address(this).balance);\n      emit withdrawFromShop(address(this).balance);\n    }\n}\n",
  "sourcePath": "/Users/trip/Projects/detherContracts/contracts/map/CSCShop.sol",
  "compiler": {
    "name": "solc",
    "version": "0.4.24+commit.e67f0147.Emscripten.clang"
  },
  "schemaVersion": "2.0.1",
  "updatedAt": "2018-10-10T13:33:45.718Z"
}