{
  "contractName": "CSCZone",
  "abi": [
    {
      "constant": true,
      "inputs": [],
      "name": "geohash",
      "outputs": [
        {
          "name": "",
          "type": "bytes7"
        }
      ],
      "payable": false,
      "stateMutability": "view",
      "type": "function"
    },
    {
      "constant": true,
      "inputs": [],
      "name": "cscZoneContractOwner",
      "outputs": [
        {
          "name": "",
          "type": "address"
        }
      ],
      "payable": false,
      "stateMutability": "view",
      "type": "function"
    },
    {
      "constant": true,
      "inputs": [],
      "name": "zoneOwner",
      "outputs": [
        {
          "name": "",
          "type": "address"
        }
      ],
      "payable": false,
      "stateMutability": "view",
      "type": "function"
    },
    {
      "constant": true,
      "inputs": [],
      "name": "delegated",
      "outputs": [
        {
          "name": "",
          "type": "bool"
        }
      ],
      "payable": false,
      "stateMutability": "view",
      "type": "function"
    },
    {
      "constant": true,
      "inputs": [],
      "name": "csc",
      "outputs": [
        {
          "name": "",
          "type": "bytes12"
        }
      ],
      "payable": false,
      "stateMutability": "view",
      "type": "function"
    },
    {
      "inputs": [
        {
          "name": "_geohash",
          "type": "bytes7"
        },
        {
          "name": "_zoneOwner",
          "type": "address"
        },
        {
          "name": "_cscZoneContractOwner",
          "type": "address"
        }
      ],
      "payable": false,
      "stateMutability": "nonpayable",
      "type": "constructor"
    },
    {
      "payable": true,
      "stateMutability": "payable",
      "type": "fallback"
    },
    {
      "anonymous": false,
      "inputs": [
        {
          "indexed": false,
          "name": "cscId",
          "type": "bytes12"
        },
        {
          "indexed": false,
          "name": "cscAddress",
          "type": "address"
        },
        {
          "indexed": false,
          "name": "zoneOwner",
          "type": "address"
        },
        {
          "indexed": false,
          "name": "geohash",
          "type": "bytes7"
        }
      ],
      "name": "CscCreated",
      "type": "event"
    },
    {
      "anonymous": false,
      "inputs": [
        {
          "indexed": false,
          "name": "weis",
          "type": "uint256"
        },
        {
          "indexed": false,
          "name": "totalBalance",
          "type": "uint256"
        }
      ],
      "name": "AmountReceived",
      "type": "event"
    },
    {
      "anonymous": false,
      "inputs": [
        {
          "indexed": false,
          "name": "balance",
          "type": "uint256"
        }
      ],
      "name": "WithdrawFromZone",
      "type": "event"
    },
    {
      "constant": true,
      "inputs": [
        {
          "name": "_geohashArg",
          "type": "bytes7"
        },
        {
          "name": "_addr",
          "type": "address"
        }
      ],
      "name": "computeCSC",
      "outputs": [
        {
          "name": "",
          "type": "bytes12"
        }
      ],
      "payable": false,
      "stateMutability": "pure",
      "type": "function"
    },
    {
      "constant": false,
      "inputs": [],
      "name": "withdraw",
      "outputs": [],
      "payable": false,
      "stateMutability": "nonpayable",
      "type": "function"
    }
  ],
  "bytecode": "0x608060405234801561001057600080fd5b506040516060806106a78339810160409081528151602083015191909201516000805466ffffffffffffff19167901000000000000000000000000000000000000000000000000008086049190911791829055610077910230640100000000610185810204565b6000805460018054600160a060020a03808816600160a060020a0319928316179283905560028054888316908416179055609860020a60ff02197401000000000000000000000000000000000000000096879004670100000000000000908102603860020a609860020a031990961695909517169485905560408051948604909602909116835230602084015216818401527fffffffffffffff0000000000000000000000000000000000000000000000000079010000000000000000000000000000000000000000000000000090920291909116606082015290517f861e89dc6d777375f715344e5f8cbb8339e8a4ab9dbf564ad5e1affeda44ff849181900360800190a1505050610248565b604080517fffffffffffffff0000000000000000000000000000000000000000000000000084166020808301919091526c01000000000000000000000000600160a060020a0385160260278301528251601b818403018152603b909201928390528151600093918291908401908083835b602083106102155780518252601f1990920191602091820191016101f6565b5181516020939093036101000a600019018019909116921691909117905260405192018290039091209695505050505050565b610450806102576000396000f3006080604052600436106100825763ffffffff7c010000000000000000000000000000000000000000000000000000000060003504166308e44f8881146100bf5780633ccfd60b1461010357806356b71acd1461011a5780639ffdb1f014610158578063ab5b8f1b1461016d578063cf8db862146101e4578063d55c3ca31461020d575b604080513481523031602082015281517f82d5b6112d777cb945445fa4e2801a8627703c4a1e188a684bed2eec13e05d38929181900390910190a1005b3480156100cb57600080fd5b506100d4610222565b6040805178ffffffffffffffffffffffffffffffffffffffffffffffffff199092168252519081900360200190f35b34801561010f57600080fd5b50610118610244565b005b34801561012657600080fd5b5061012f6102da565b6040805173ffffffffffffffffffffffffffffffffffffffff9092168252519081900360200190f35b34801561016457600080fd5b5061012f6102f6565b34801561017957600080fd5b506101ba78ffffffffffffffffffffffffffffffffffffffffffffffffff196004351673ffffffffffffffffffffffffffffffffffffffff60243516610312565b6040805173ffffffffffffffffffffffffffffffffffffffff199092168252519081900360200190f35b3480156101f057600080fd5b506101f96103dc565b604080519115158252519081900360200190f35b34801561021957600080fd5b506101ba6103fc565b6000547901000000000000000000000000000000000000000000000000000281565b60015473ffffffffffffffffffffffffffffffffffffffff16331461026857600080fd5b600030311161027657600080fd5b6040513390303180156108fc02916000818181858888f193505050501580156102a3573d6000803e3d6000fd5b50604080513031815290517fbe78769b7bb8662ad19dd2addcbfbb9c111d7fb7ab03d101b6d98d01027803a89181900360200190a1565b60025473ffffffffffffffffffffffffffffffffffffffff1681565b60015473ffffffffffffffffffffffffffffffffffffffff1681565b6040805178ffffffffffffffffffffffffffffffffffffffffffffffffff1984166020808301919091526c0100000000000000000000000073ffffffffffffffffffffffffffffffffffffffff85160260278301528251601b818403018152603b909201928390528151600093918291908401908083835b602083106103a95780518252601f19909201916020918201910161038a565b5181516020939093036101000a600019018019909116921691909117905260405192018290039091209695505050505050565b600054730100000000000000000000000000000000000000900460ff1681565b60005467010000000000000090047401000000000000000000000000000000000000000002815600a165627a7a723058200577c83c88b9406963c736dd279331b197819bf92f1dfe67a4f845c41fae94690029",
  "source": "pragma solidity ^0.4.22;\n\ncontract CSCZone {\n\n    bytes7 public geohash;\n    bytes12 public csc;\n    bool public delegated;\n    address public zoneOwner;\n    address public cscZoneContractOwner; // loyalty point auction contract for example\n\n    event CscCreated(bytes12 cscId, address cscAddress, address zoneOwner, bytes7 geohash);\n    event AmountReceived(uint weis, uint totalBalance);\n    event WithdrawFromZone(uint balance);\n\n    modifier onlyZoneOwner() {\n      require(msg.sender == zoneOwner);\n      _;\n    }\n\n    constructor(bytes7 _geohash, address _zoneOwner, address _cscZoneContractOwner)\n      public\n    {\n      geohash = _geohash;\n      csc = computeCSC(geohash, address(this));\n      zoneOwner = _zoneOwner;\n      cscZoneContractOwner = _cscZoneContractOwner;\n      delegated = false;\n      emit CscCreated(csc, address(this), zoneOwner, geohash);\n    }\n\n    function()\n      payable\n      public\n    {\n      emit AmountReceived(msg.value, address(this).balance);\n    }\n\n    function computeCSC(bytes7 _geohashArg, address _addr)\n      public\n      pure\n      returns(bytes12)\n    {\n      return bytes12(keccak256(abi.encodePacked(_geohashArg, _addr)));\n    }\n\n    function withdraw()\n      external\n      onlyZoneOwner\n    {\n      require(address(this).balance > 0);\n      msg.sender.transfer(address(this).balance);\n      emit WithdrawFromZone(address(this).balance);\n    }\n}\n",
  "sourcePath": "/Users/trip/Projects/detherContracts/contracts/map/CSCZone.sol",
  "compiler": {
    "name": "solc",
    "version": "0.4.24+commit.e67f0147.Emscripten.clang"
  },
  "schemaVersion": "2.0.1",
  "updatedAt": "2018-10-10T13:33:45.718Z"
}