{
  "contractName": "DateTime",
  "abi": [
    {
      "constant": true,
      "inputs": [
        {
          "name": "year",
          "type": "uint16"
        }
      ],
      "name": "isLeapYear",
      "outputs": [
        {
          "name": "",
          "type": "bool"
        }
      ],
      "payable": false,
      "stateMutability": "pure",
      "type": "function"
    },
    {
      "constant": true,
      "inputs": [
        {
          "name": "year",
          "type": "uint256"
        }
      ],
      "name": "leapYearsBefore",
      "outputs": [
        {
          "name": "",
          "type": "uint256"
        }
      ],
      "payable": false,
      "stateMutability": "pure",
      "type": "function"
    },
    {
      "constant": true,
      "inputs": [
        {
          "name": "month",
          "type": "uint8"
        },
        {
          "name": "year",
          "type": "uint16"
        }
      ],
      "name": "getDaysInMonth",
      "outputs": [
        {
          "name": "",
          "type": "uint8"
        }
      ],
      "payable": false,
      "stateMutability": "pure",
      "type": "function"
    },
    {
      "constant": true,
      "inputs": [
        {
          "name": "timestamp",
          "type": "uint256"
        }
      ],
      "name": "getYear",
      "outputs": [
        {
          "name": "",
          "type": "uint16"
        }
      ],
      "payable": false,
      "stateMutability": "pure",
      "type": "function"
    },
    {
      "constant": true,
      "inputs": [
        {
          "name": "timestamp",
          "type": "uint256"
        }
      ],
      "name": "getMonth",
      "outputs": [
        {
          "name": "",
          "type": "uint8"
        }
      ],
      "payable": false,
      "stateMutability": "pure",
      "type": "function"
    },
    {
      "constant": true,
      "inputs": [
        {
          "name": "timestamp",
          "type": "uint256"
        }
      ],
      "name": "getDay",
      "outputs": [
        {
          "name": "",
          "type": "uint8"
        }
      ],
      "payable": false,
      "stateMutability": "pure",
      "type": "function"
    },
    {
      "constant": true,
      "inputs": [
        {
          "name": "timestamp",
          "type": "uint256"
        }
      ],
      "name": "getHour",
      "outputs": [
        {
          "name": "",
          "type": "uint8"
        }
      ],
      "payable": false,
      "stateMutability": "pure",
      "type": "function"
    },
    {
      "constant": true,
      "inputs": [
        {
          "name": "timestamp",
          "type": "uint256"
        }
      ],
      "name": "getMinute",
      "outputs": [
        {
          "name": "",
          "type": "uint8"
        }
      ],
      "payable": false,
      "stateMutability": "pure",
      "type": "function"
    },
    {
      "constant": true,
      "inputs": [
        {
          "name": "timestamp",
          "type": "uint256"
        }
      ],
      "name": "getSecond",
      "outputs": [
        {
          "name": "",
          "type": "uint8"
        }
      ],
      "payable": false,
      "stateMutability": "pure",
      "type": "function"
    },
    {
      "constant": true,
      "inputs": [
        {
          "name": "timestamp",
          "type": "uint256"
        }
      ],
      "name": "getWeekday",
      "outputs": [
        {
          "name": "",
          "type": "uint8"
        }
      ],
      "payable": false,
      "stateMutability": "pure",
      "type": "function"
    },
    {
      "constant": true,
      "inputs": [
        {
          "name": "year",
          "type": "uint16"
        },
        {
          "name": "month",
          "type": "uint8"
        },
        {
          "name": "day",
          "type": "uint8"
        },
        {
          "name": "hour",
          "type": "uint8"
        },
        {
          "name": "minute",
          "type": "uint8"
        }
      ],
      "name": "toTimestamp",
      "outputs": [
        {
          "name": "timestamp",
          "type": "uint256"
        }
      ],
      "payable": false,
      "stateMutability": "pure",
      "type": "function"
    },
    {
      "constant": true,
      "inputs": [
        {
          "name": "year",
          "type": "uint16"
        },
        {
          "name": "month",
          "type": "uint8"
        },
        {
          "name": "day",
          "type": "uint8"
        },
        {
          "name": "hour",
          "type": "uint8"
        }
      ],
      "name": "toTimestamp",
      "outputs": [
        {
          "name": "timestamp",
          "type": "uint256"
        }
      ],
      "payable": false,
      "stateMutability": "pure",
      "type": "function"
    },
    {
      "constant": true,
      "inputs": [
        {
          "name": "year",
          "type": "uint16"
        },
        {
          "name": "month",
          "type": "uint8"
        },
        {
          "name": "day",
          "type": "uint8"
        }
      ],
      "name": "toTimestamp",
      "outputs": [
        {
          "name": "timestamp",
          "type": "uint256"
        }
      ],
      "payable": false,
      "stateMutability": "pure",
      "type": "function"
    },
    {
      "constant": true,
      "inputs": [
        {
          "name": "year",
          "type": "uint16"
        },
        {
          "name": "month",
          "type": "uint8"
        },
        {
          "name": "day",
          "type": "uint8"
        },
        {
          "name": "hour",
          "type": "uint8"
        },
        {
          "name": "minute",
          "type": "uint8"
        },
        {
          "name": "second",
          "type": "uint8"
        }
      ],
      "name": "toTimestamp",
      "outputs": [
        {
          "name": "timestamp",
          "type": "uint256"
        }
      ],
      "payable": false,
      "stateMutability": "pure",
      "type": "function"
    }
  ],
  "bytecode": "0x608060405234801561001057600080fd5b50610ddd806100206000396000f3fe608060405234801561001057600080fd5b5060043610610107576000357c0100000000000000000000000000000000000000000000000000000000900480639054bdec116100a9578063a6f0e57711610083578063a6f0e5771461048c578063b1999937146104d6578063b238ad0e14610518578063fa93f8831461057157610107565b80639054bdec1461037357806392d66313146103fa578063a324ad241461044457610107565b806365c72840116100e557806365c72840146102165780637f7918331461025e5780638aa001fc146102cb5780638c8d98a01461031357610107565b80633e239e1a1461010c5780634ac1ad781461015457806362ba96871461019c575b600080fd5b6101386004803603602081101561012257600080fd5b81019080803590602001909291905050506105b9565b604051808260ff1660ff16815260200191505060405180910390f35b6101806004803603602081101561016a57600080fd5b81019080803590602001909291905050506105e6565b604051808260ff1660ff16815260200191505060405180910390f35b610200600480360360a08110156101b257600080fd5b81019080803561ffff169060200190929190803560ff169060200190929190803560ff169060200190929190803560ff169060200190929190803560ff16906020019092919050505061060d565b6040518082815260200191505060405180910390f35b6102426004803603602081101561022c57600080fd5b8101908080359060200190929190505050610629565b604051808260ff1660ff16815260200191505060405180910390f35b6102b56004803603608081101561027457600080fd5b81019080803561ffff169060200190929190803560ff169060200190929190803560ff169060200190929190803560ff16906020019092919050505061063f565b6040518082815260200191505060405180910390f35b6102f7600480360360208110156102e157600080fd5b810190808035906020019092919050505061065a565b604051808260ff1660ff16815260200191505060405180910390f35b61035d6004803603606081101561032957600080fd5b81019080803561ffff169060200190929190803560ff169060200190929190803560ff169060200190929190505050610670565b6040518082815260200191505060405180910390f35b6103e4600480360360c081101561038957600080fd5b81019080803561ffff169060200190929190803560ff169060200190929190803560ff169060200190929190803560ff169060200190929190803560ff169060200190929190803560ff16906020019092919050505061068b565b6040518082815260200191505060405180910390f35b6104266004803603602081101561041057600080fd5b8101908080359060200190929190505050610932565b604051808261ffff1661ffff16815260200191505060405180910390f35b6104706004803603602081101561045a57600080fd5b81019080803590602001909291905050506109dd565b604051808260ff1660ff16815260200191505060405180910390f35b6104bc600480360360208110156104a257600080fd5b81019080803561ffff1690602001909291905050506109f3565b604051808215151515815260200191505060405180910390f35b610502600480360360208110156104ec57600080fd5b8101908080359060200190929190505050610a74565b6040518082815260200191505060405180910390f35b6105556004803603604081101561052e57600080fd5b81019080803560ff169060200190929190803561ffff169060200190929190505050610aad565b604051808260ff1660ff16815260200191505060405180910390f35b61059d6004803603602081101561058757600080fd5b8101908080359060200190929190505050610b79565b604051808260ff1660ff16815260200191505060405180910390f35b60006018603c80848115156105ca57fe5b048115156105d457fe5b048115156105de57fe5b069050919050565b60006007600462015180848115156105fa57fe5b040181151561060557fe5b069050919050565b600061061e8686868686600061068b565b905095945050505050565b600061063482610b9a565b604001519050919050565b60006106508585858560008061068b565b9050949350505050565b6000603c8281151561066857fe5b069050919050565b6000610682848484600080600061068b565b90509392505050565b6000806107b290505b8761ffff168161ffff1610156106d7576106ad816109f3565b156106c0576301e28500820191506106ca565b6301e13380820191505b8080600101915050610694565b6106df610d3b565b601f816000600c811015156106f057fe5b602002019060ff16908160ff168152505061070a896109f3565b1561073657601d816001600c8110151561072057fe5b602002019060ff16908160ff1681525050610759565b601c816001600c8110151561074757fe5b602002019060ff16908160ff16815250505b601f816002600c8110151561076a57fe5b602002019060ff16908160ff1681525050601e816003600c8110151561078c57fe5b602002019060ff16908160ff1681525050601f816004600c811015156107ae57fe5b602002019060ff16908160ff1681525050601e816005600c811015156107d057fe5b602002019060ff16908160ff1681525050601f816006600c811015156107f257fe5b602002019060ff16908160ff1681525050601f816007600c8110151561081457fe5b602002019060ff16908160ff1681525050601e816008600c8110151561083657fe5b602002019060ff16908160ff1681525050601f816009600c8110151561085857fe5b602002019060ff16908160ff1681525050601e81600a600c8110151561087a57fe5b602002019060ff16908160ff1681525050601f81600b600c8110151561089c57fe5b602002019060ff16908160ff1681525050600191505b8760ff168261ffff1610156108f457806001830361ffff16600c811015156108d657fe5b602002015160ff1662015180028301925081806001019250506108b2565b6001870360ff166201518002830192508560ff16610e1002830192508460ff16603c02830192508360ff168301925082925050509695505050505050565b600080600090506000806301e133808581151561094b57fe5b046107b261ffff160191506109656107b261ffff16610a74565b6109728361ffff16610a74565b039050806301e285000283019250806107b2830361ffff16036301e1338002830192505b848311156109d2576109aa600183036109f3565b156109bd576301e28500830392506109c7565b6301e13380830392505b600182039150610996565b819350505050919050565b60006109e882610b9a565b602001519050919050565b60008060048361ffff16811515610a0657fe5b0661ffff16141515610a1b5760009050610a6f565b600060648361ffff16811515610a2d57fe5b0661ffff16141515610a425760019050610a6f565b60006101908361ffff16811515610a5557fe5b0661ffff16141515610a6a5760009050610a6f565b600190505b919050565b600060018203915061019082811515610a8957fe5b04606483811515610a9657fe5b04600484811515610aa357fe5b0403019050919050565b600060018360ff161480610ac4575060038360ff16145b80610ad2575060058360ff16145b80610ae0575060078360ff16145b80610aee575060088360ff16145b80610afc5750600a8360ff16145b80610b0a5750600c8360ff16145b15610b1857601f9050610b73565b60048360ff161480610b2d575060068360ff16145b80610b3b575060098360ff16145b80610b495750600b8360ff16145b15610b5757601e9050610b73565b610b60826109f3565b15610b6e57601d9050610b73565b601c90505b92915050565b6000603c8083811515610b8857fe5b04811515610b9257fe5b069050919050565b610ba2610d5e565b6000809050600080610bb385610932565b846000019061ffff16908161ffff1681525050610bd56107b261ffff16610a74565b610be6856000015161ffff16610a74565b039150816301e285000283019250816107b285600001510361ffff16036301e1338002830192506000600191505b600c8260ff16111515610c6c57610c2f828660000151610aad565b60ff1662015180029050858482011115610c5a5781856020019060ff16908160ff1681525050610c6c565b80840193508180600101925050610c14565b600191505b610c8385602001518660000151610aad565b60ff168260ff16111515610cca57858462015180011115610cb55781856040019060ff16908160ff1681525050610cca565b62015180840193508180600101925050610c71565b610cd3866105b9565b856060019060ff16908160ff1681525050610ced86610b79565b856080019060ff16908160ff1681525050610d078661065a565b8560a0019060ff16908160ff1681525050610d21866105e6565b8560c0019060ff16908160ff168152505050505050919050565b604051806101800160405280600c90602082028038833980820191505090505090565b6040518060e00160405280600061ffff168152602001600060ff168152602001600060ff168152602001600060ff168152602001600060ff168152602001600060ff168152602001600060ff168152509056fea165627a7a723058201888405a5faf01e9df5148acf13edb79d67a9425cd0cdefa07239cb964f7b7900029",
  "source": "pragma solidity ^0.5.3;\n\ncontract DateTime {\n        /*\n         *  Date and Time utilities for ethereum contracts\n         *\n         */\n        struct _DateTime {\n                uint16 year;\n                uint8 month;\n                uint8 day;\n                uint8 hour;\n                uint8 minute;\n                uint8 second;\n                uint8 weekday;\n        }\n\n        uint constant DAY_IN_SECONDS = 86400;\n        uint constant YEAR_IN_SECONDS = 31536000;\n        uint constant LEAP_YEAR_IN_SECONDS = 31622400;\n\n        uint constant HOUR_IN_SECONDS = 3600;\n        uint constant MINUTE_IN_SECONDS = 60;\n\n        uint16 constant ORIGIN_YEAR = 1970;\n\n        function isLeapYear(uint16 year) public pure returns (bool) {\n                if (year % 4 != 0) {\n                        return false;\n                }\n                if (year % 100 != 0) {\n                        return true;\n                }\n                if (year % 400 != 0) {\n                        return false;\n                }\n                return true;\n        }\n\n        function leapYearsBefore(uint year) public pure returns (uint) {\n                year -= 1;\n                return year / 4 - year / 100 + year / 400;\n        }\n\n        function getDaysInMonth(uint8 month, uint16 year) public pure returns (uint8) {\n                if (month == 1 || month == 3 || month == 5 || month == 7 || month == 8 || month == 10 || month == 12) {\n                        return 31;\n                }\n                else if (month == 4 || month == 6 || month == 9 || month == 11) {\n                        return 30;\n                }\n                else if (isLeapYear(year)) {\n                        return 29;\n                }\n                else {\n                        return 28;\n                }\n        }\n\n        function parseTimestamp(uint timestamp) internal pure returns (_DateTime memory dt) {\n                uint secondsAccountedFor = 0;\n                uint buf;\n                uint8 i;\n\n                // Year\n                dt.year = getYear(timestamp);\n                buf = leapYearsBefore(dt.year) - leapYearsBefore(ORIGIN_YEAR);\n\n                secondsAccountedFor += LEAP_YEAR_IN_SECONDS * buf;\n                secondsAccountedFor += YEAR_IN_SECONDS * (dt.year - ORIGIN_YEAR - buf);\n\n                // Month\n                uint secondsInMonth;\n                for (i = 1; i <= 12; i++) {\n                        secondsInMonth = DAY_IN_SECONDS * getDaysInMonth(i, dt.year);\n                        if (secondsInMonth + secondsAccountedFor > timestamp) {\n                                dt.month = i;\n                                break;\n                        }\n                        secondsAccountedFor += secondsInMonth;\n                }\n\n                // Day\n                for (i = 1; i <= getDaysInMonth(dt.month, dt.year); i++) {\n                        if (DAY_IN_SECONDS + secondsAccountedFor > timestamp) {\n                                dt.day = i;\n                                break;\n                        }\n                        secondsAccountedFor += DAY_IN_SECONDS;\n                }\n\n                // Hour\n                dt.hour = getHour(timestamp);\n\n                // Minute\n                dt.minute = getMinute(timestamp);\n\n                // Second\n                dt.second = getSecond(timestamp);\n\n                // Day of week.\n                dt.weekday = getWeekday(timestamp);\n        }\n\n        function getYear(uint timestamp) public pure returns (uint16) {\n                uint secondsAccountedFor = 0;\n                uint16 year;\n                uint numLeapYears;\n\n                // Year\n                year = uint16(ORIGIN_YEAR + timestamp / YEAR_IN_SECONDS);\n                numLeapYears = leapYearsBefore(year) - leapYearsBefore(ORIGIN_YEAR);\n\n                secondsAccountedFor += LEAP_YEAR_IN_SECONDS * numLeapYears;\n                secondsAccountedFor += YEAR_IN_SECONDS * (year - ORIGIN_YEAR - numLeapYears);\n\n                while (secondsAccountedFor > timestamp) {\n                        if (isLeapYear(uint16(year - 1))) {\n                                secondsAccountedFor -= LEAP_YEAR_IN_SECONDS;\n                        }\n                        else {\n                                secondsAccountedFor -= YEAR_IN_SECONDS;\n                        }\n                        year -= 1;\n                }\n                return year;\n        }\n\n        function getMonth(uint timestamp) public pure returns (uint8) {\n                return parseTimestamp(timestamp).month;\n        }\n\n        function getDay(uint timestamp) public pure returns (uint8) {\n                return parseTimestamp(timestamp).day;\n        }\n\n        function getHour(uint timestamp) public pure returns (uint8) {\n                return uint8((timestamp / 60 / 60) % 24);\n        }\n\n        function getMinute(uint timestamp) public pure returns (uint8) {\n                return uint8((timestamp / 60) % 60);\n        }\n\n        function getSecond(uint timestamp) public pure returns (uint8) {\n                return uint8(timestamp % 60);\n        }\n\n        function getWeekday(uint timestamp) public pure returns (uint8) {\n                return uint8((timestamp / DAY_IN_SECONDS + 4) % 7);\n        }\n\n        function toTimestamp(uint16 year, uint8 month, uint8 day) public pure returns (uint timestamp) {\n                return toTimestamp(year, month, day, 0, 0, 0);\n        }\n\n        function toTimestamp(uint16 year, uint8 month, uint8 day, uint8 hour) public pure returns (uint timestamp) {\n                return toTimestamp(year, month, day, hour, 0, 0);\n        }\n\n        function toTimestamp(uint16 year, uint8 month, uint8 day, uint8 hour, uint8 minute) public pure returns (uint timestamp) {\n                return toTimestamp(year, month, day, hour, minute, 0);\n        }\n\n        function toTimestamp(uint16 year, uint8 month, uint8 day, uint8 hour, uint8 minute, uint8 second) public pure returns (uint timestamp) {\n                uint16 i;\n\n                // Year\n                for (i = ORIGIN_YEAR; i < year; i++) {\n                        if (isLeapYear(i)) {\n                                timestamp += LEAP_YEAR_IN_SECONDS;\n                        }\n                        else {\n                                timestamp += YEAR_IN_SECONDS;\n                        }\n                }\n\n                // Month\n                uint8[12] memory monthDayCounts;\n                monthDayCounts[0] = 31;\n                if (isLeapYear(year)) {\n                        monthDayCounts[1] = 29;\n                }\n                else {\n                        monthDayCounts[1] = 28;\n                }\n                monthDayCounts[2] = 31;\n                monthDayCounts[3] = 30;\n                monthDayCounts[4] = 31;\n                monthDayCounts[5] = 30;\n                monthDayCounts[6] = 31;\n                monthDayCounts[7] = 31;\n                monthDayCounts[8] = 30;\n                monthDayCounts[9] = 31;\n                monthDayCounts[10] = 30;\n                monthDayCounts[11] = 31;\n\n                for (i = 1; i < month; i++) {\n                        timestamp += DAY_IN_SECONDS * monthDayCounts[i - 1];\n                }\n\n                // Day\n                timestamp += DAY_IN_SECONDS * (day - 1);\n\n                // Hour\n                timestamp += HOUR_IN_SECONDS * (hour);\n\n                // Minute\n                timestamp += MINUTE_IN_SECONDS * (minute);\n\n                // Second\n                timestamp += second;\n\n                return timestamp;\n        }\n}\n",
  "sourcePath": "/Users/mehdi/code/dether/contractV2/contracts/datetime/DateTime.sol",
  "compiler": {
    "name": "solc",
    "version": "0.5.5+commit.47a71e8f.Emscripten.clang"
  },
  "schemaVersion": "3.0.3",
  "updatedAt": "2019-03-26T16:58:54.008Z",
  "devdoc": {
    "methods": {}
  },
  "userdoc": {
    "methods": {}
  }
}