{
  "contractName": "DetherInterface",
  "abi": [
    {
      "constant": true,
      "inputs": [],
      "name": "initialised",
      "outputs": [
        {
          "name": "",
          "type": "bool"
        }
      ],
      "payable": false,
      "stateMutability": "view",
      "type": "function"
    },
    {
      "constant": false,
      "inputs": [
        {
          "name": "_avatarId",
          "type": "int8"
        },
        {
          "name": "_currencyId",
          "type": "int8"
        },
        {
          "name": "_messagingAddr",
          "type": "bytes32"
        },
        {
          "name": "_messagingAddr2",
          "type": "bytes32"
        },
        {
          "name": "_rates",
          "type": "int16"
        }
      ],
      "name": "updateProfilePayable",
      "outputs": [],
      "payable": true,
      "stateMutability": "payable",
      "type": "function"
    },
    {
      "constant": true,
      "inputs": [
        {
          "name": "_teller",
          "type": "address"
        }
      ],
      "name": "getTellerStatus",
      "outputs": [
        {
          "name": "balance",
          "type": "uint256"
        },
        {
          "name": "status",
          "type": "bool"
        }
      ],
      "payable": false,
      "stateMutability": "view",
      "type": "function"
    },
    {
      "constant": false,
      "inputs": [],
      "name": "switchTellerOffline",
      "outputs": [],
      "payable": false,
      "stateMutability": "nonpayable",
      "type": "function"
    },
    {
      "constant": true,
      "inputs": [],
      "name": "tellerStorage",
      "outputs": [
        {
          "name": "",
          "type": "address"
        }
      ],
      "payable": false,
      "stateMutability": "view",
      "type": "function"
    },
    {
      "constant": false,
      "inputs": [],
      "name": "deleteMyProfile",
      "outputs": [],
      "payable": false,
      "stateMutability": "nonpayable",
      "type": "function"
    },
    {
      "constant": true,
      "inputs": [
        {
          "name": "_teller",
          "type": "address"
        }
      ],
      "name": "getTellerProfile",
      "outputs": [
        {
          "name": "avatarId",
          "type": "int8"
        },
        {
          "name": "currencyId",
          "type": "int8"
        },
        {
          "name": "messagingAddr",
          "type": "bytes32"
        },
        {
          "name": "messagingAddr2",
          "type": "bytes32"
        },
        {
          "name": "rate",
          "type": "int16"
        },
        {
          "name": "volumeSell",
          "type": "uint256"
        },
        {
          "name": "volumeBuy",
          "type": "uint256"
        },
        {
          "name": "nbTrade",
          "type": "uint256"
        },
        {
          "name": "balance",
          "type": "uint256"
        }
      ],
      "payable": false,
      "stateMutability": "view",
      "type": "function"
    },
    {
      "constant": false,
      "inputs": [
        {
          "name": "_lat",
          "type": "uint256"
        },
        {
          "name": "_lng",
          "type": "uint256"
        },
        {
          "name": "_countryCode",
          "type": "bytes32"
        },
        {
          "name": "_postalcode",
          "type": "int32"
        },
        {
          "name": "_avatarId",
          "type": "int8"
        },
        {
          "name": "_currencyId",
          "type": "int8"
        },
        {
          "name": "_messagingAddress",
          "type": "bytes32"
        },
        {
          "name": "_messagingAddress2",
          "type": "bytes32"
        },
        {
          "name": "_rates",
          "type": "int16"
        }
      ],
      "name": "registerTeller",
      "outputs": [],
      "payable": true,
      "stateMutability": "payable",
      "type": "function"
    },
    {
      "constant": true,
      "inputs": [],
      "name": "owner",
      "outputs": [
        {
          "name": "",
          "type": "address"
        }
      ],
      "payable": false,
      "stateMutability": "view",
      "type": "function"
    },
    {
      "constant": true,
      "inputs": [
        {
          "name": "_teller",
          "type": "address"
        }
      ],
      "name": "isTellerOnline",
      "outputs": [
        {
          "name": "",
          "type": "bool"
        }
      ],
      "payable": false,
      "stateMutability": "view",
      "type": "function"
    },
    {
      "constant": true,
      "inputs": [],
      "name": "limit",
      "outputs": [
        {
          "name": "",
          "type": "uint256"
        }
      ],
      "payable": false,
      "stateMutability": "view",
      "type": "function"
    },
    {
      "constant": false,
      "inputs": [],
      "name": "addBalance",
      "outputs": [],
      "payable": true,
      "stateMutability": "payable",
      "type": "function"
    },
    {
      "constant": false,
      "inputs": [
        {
          "name": "_lat",
          "type": "uint256"
        },
        {
          "name": "_lng",
          "type": "uint256"
        },
        {
          "name": "_countryCode",
          "type": "bytes32"
        },
        {
          "name": "_postalcode",
          "type": "int32"
        }
      ],
      "name": "updatePosition",
      "outputs": [],
      "payable": false,
      "stateMutability": "nonpayable",
      "type": "function"
    },
    {
      "constant": true,
      "inputs": [
        {
          "name": "_teller",
          "type": "address"
        }
      ],
      "name": "isRegistered",
      "outputs": [
        {
          "name": "status",
          "type": "bool"
        }
      ],
      "payable": false,
      "stateMutability": "view",
      "type": "function"
    },
    {
      "constant": true,
      "inputs": [
        {
          "name": "_address",
          "type": "address"
        }
      ],
      "name": "getTellerBalances",
      "outputs": [
        {
          "name": "",
          "type": "uint256"
        }
      ],
      "payable": false,
      "stateMutability": "view",
      "type": "function"
    },
    {
      "constant": false,
      "inputs": [],
      "name": "setInit",
      "outputs": [],
      "payable": false,
      "stateMutability": "nonpayable",
      "type": "function"
    },
    {
      "constant": false,
      "inputs": [
        {
          "name": "_lat",
          "type": "uint256"
        },
        {
          "name": "_lng",
          "type": "uint256"
        },
        {
          "name": "_countryCode",
          "type": "bytes32"
        },
        {
          "name": "_postalcode",
          "type": "int32"
        }
      ],
      "name": "updatePositionPayable",
      "outputs": [],
      "payable": true,
      "stateMutability": "payable",
      "type": "function"
    },
    {
      "constant": true,
      "inputs": [
        {
          "name": "_teller",
          "type": "address"
        }
      ],
      "name": "getTellerPos",
      "outputs": [
        {
          "name": "_lat",
          "type": "uint256"
        },
        {
          "name": "_lng",
          "type": "uint256"
        },
        {
          "name": "_countryId",
          "type": "bytes32"
        },
        {
          "name": "postalCode",
          "type": "int32"
        }
      ],
      "payable": false,
      "stateMutability": "view",
      "type": "function"
    },
    {
      "constant": false,
      "inputs": [
        {
          "name": "newOwner",
          "type": "address"
        }
      ],
      "name": "transferOwnership",
      "outputs": [],
      "payable": false,
      "stateMutability": "nonpayable",
      "type": "function"
    },
    {
      "constant": false,
      "inputs": [
        {
          "name": "_avatarId",
          "type": "int8"
        },
        {
          "name": "_currencyId",
          "type": "int8"
        },
        {
          "name": "_messagingAddr",
          "type": "bytes32"
        },
        {
          "name": "_messagingAddr2",
          "type": "bytes32"
        },
        {
          "name": "_rates",
          "type": "int16"
        }
      ],
      "name": "updateProfile",
      "outputs": [],
      "payable": false,
      "stateMutability": "nonpayable",
      "type": "function"
    },
    {
      "constant": false,
      "inputs": [
        {
          "name": "newLimit",
          "type": "uint256"
        }
      ],
      "name": "updateLimit",
      "outputs": [],
      "payable": false,
      "stateMutability": "nonpayable",
      "type": "function"
    },
    {
      "constant": false,
      "inputs": [
        {
          "name": "newOwner",
          "type": "address"
        }
      ],
      "name": "changeStorageOwnership",
      "outputs": [],
      "payable": false,
      "stateMutability": "nonpayable",
      "type": "function"
    },
    {
      "inputs": [
        {
          "name": "_tellerStorageAddress",
          "type": "address"
        }
      ],
      "payable": false,
      "stateMutability": "nonpayable",
      "type": "constructor"
    },
    {
      "anonymous": false,
      "inputs": [
        {
          "indexed": true,
          "name": "tellerAddress",
          "type": "address"
        }
      ],
      "name": "RegisterTeller",
      "type": "event"
    },
    {
      "anonymous": false,
      "inputs": [
        {
          "indexed": true,
          "name": "tellerAddress",
          "type": "address"
        }
      ],
      "name": "DeleteTeller",
      "type": "event"
    },
    {
      "anonymous": false,
      "inputs": [
        {
          "indexed": true,
          "name": "tellerAddress",
          "type": "address"
        }
      ],
      "name": "UpdateTeller",
      "type": "event"
    },
    {
      "anonymous": false,
      "inputs": [
        {
          "indexed": true,
          "name": "_from",
          "type": "address"
        },
        {
          "indexed": true,
          "name": "_to",
          "type": "address"
        },
        {
          "indexed": false,
          "name": "amount",
          "type": "uint256"
        }
      ],
      "name": "Send",
      "type": "event"
    },
    {
      "anonymous": false,
      "inputs": [
        {
          "indexed": true,
          "name": "previousOwner",
          "type": "address"
        },
        {
          "indexed": true,
          "name": "newOwner",
          "type": "address"
        }
      ],
      "name": "OwnershipTransferred",
      "type": "event"
    }
  ],
  "bytecode": "0x6060604052671bc16d674ec80000600255341561001b57600080fd5b60405160208061240783398101604052808051906020019091905050336000806101000a81548173ffffffffffffffffffffffffffffffffffffffff021916908373ffffffffffffffffffffffffffffffffffffffff16021790555080600160006101000a81548173ffffffffffffffffffffffffffffffffffffffff021916908373ffffffffffffffffffffffffffffffffffffffff1602179055506001600060146101000a81548160ff02191690831515021790555050612324806100e36000396000f300606060405260043610610128576000357c0100000000000000000000000000000000000000000000000000000000900463ffffffff16806307003bb41461012d578063146c2044146101565780632452b472146101a3578063418596da146101f157806343cb265e1461020657806343f3db451461022f5780634d9054d414610244578063699eaa3b146102995780638da5cb5b146103115780639d94558a1461033a578063a4d66daf14610387578063b163cc38146103b0578063b384aa4c146103ba578063c3c5a547146103ff578063cb9fc26b1461044c578063d94b9b3714610499578063ef8b6176146104ae578063f07afb9e146104e8578063f2fde38b14610538578063fa6ac10f14610571578063fae0959a146105c9578063fe10fa31146105ec575b600080fd5b341561013857600080fd5b610140610625565b60405161014d9190612125565b60405180910390f35b6101a1600480803560000b90602001909190803560000b906020019091908035600019169060200190919080356000191690602001909190803560010b906020019091905050610638565b005b34156101ae57600080fd5b6101da600480803573ffffffffffffffffffffffffffffffffffffffff1690602001909190505061089c565b6040516101e8929190612203565b60405180910390f35b34156101fc57600080fd5b610204610961565b005b341561021157600080fd5b610219610a5b565b6040516102269190612140565b60405180910390f35b341561023a57600080fd5b610242610a81565b005b341561024f57600080fd5b61027b600480803573ffffffffffffffffffffffffffffffffffffffff16906020019091905050610b6a565b6040516102909998979695949392919061215b565b60405180910390f35b61030f60048080359060200190919080359060200190919080356000191690602001909190803560030b90602001909190803560000b90602001909190803560000b906020019091908035600019169060200190919080356000191690602001909190803560010b906020019091905050610e02565b005b341561031c57600080fd5b6103246111f3565b604051610331919061202d565b60405180910390f35b341561034557600080fd5b610371600480803573ffffffffffffffffffffffffffffffffffffffff16906020019091905050611218565b60405161037e9190612125565b60405180910390f35b341561039257600080fd5b61039a6112d5565b6040516103a791906121e8565b60405180910390f35b6103b86112db565b005b34156103c557600080fd5b6103fd60048080359060200190919080359060200190919080356000191690602001909190803560030b90602001909190505061148c565b005b341561040a57600080fd5b610436600480803573ffffffffffffffffffffffffffffffffffffffff16906020019091905050611647565b6040516104439190612125565b60405180910390f35b341561045757600080fd5b610483600480803573ffffffffffffffffffffffffffffffffffffffff16906020019091905050611707565b60405161049091906121e8565b60405180910390f35b34156104a457600080fd5b6104ac6117c4565b005b6104e660048080359060200190919080359060200190919080356000191690602001909190803560030b9060200190919050506117e1565b005b34156104f357600080fd5b61051f600480803573ffffffffffffffffffffffffffffffffffffffff16906020019091905050611a42565b60405161052f949392919061222c565b60405180910390f35b341561054357600080fd5b61056f600480803573ffffffffffffffffffffffffffffffffffffffff16906020019091905050611b1d565b005b341561057c57600080fd5b6105c7600480803560000b90602001909190803560000b906020019091908035600019169060200190919080356000191690602001909190803560010b906020019091905050611c72565b005b34156105d457600080fd5b6105ea6004808035906020019091905050611e30565b005b34156105f757600080fd5b610623600480803573ffffffffffffffffffffffffffffffffffffffff16906020019091905050611e95565b005b600060149054906101000a900460ff1681565b60011515600160009054906101000a900473ffffffffffffffffffffffffffffffffffffffff1673ffffffffffffffffffffffffffffffffffffffff166303e69146336000604051602001526040518263ffffffff167c01000000000000000000000000000000000000000000000000000000000281526004016106bc919061202d565b602060405180830381600087803b15156106d557600080fd5b6102c65a03f115156106e657600080fd5b5050506040518051905015151415156106fe57600080fd5b600160009054906101000a900473ffffffffffffffffffffffffffffffffffffffff1673ffffffffffffffffffffffffffffffffffffffff1663403bfbad3387878787876040518763ffffffff167c010000000000000000000000000000000000000000000000000000000002815260040161077f96959493929190612048565b600060405180830381600087803b151561079857600080fd5b6102c65a03f115156107a957600080fd5b505050600160009054906101000a900473ffffffffffffffffffffffffffffffffffffffff1673ffffffffffffffffffffffffffffffffffffffff166321e5383a33346040518363ffffffff167c01000000000000000000000000000000000000000000000000000000000281526004016108259291906120a9565b600060405180830381600087803b151561083e57600080fd5b6102c65a03f1151561084f57600080fd5b5050503373ffffffffffffffffffffffffffffffffffffffff167fe3df84c3ca6a90f0e6485beae08e7bd034695356bec32910a3d62559ff33fbc860405160405180910390a25050505050565b600080600160009054906101000a900473ffffffffffffffffffffffffffffffffffffffff1673ffffffffffffffffffffffffffffffffffffffff16632452b472846000604051604001526040518263ffffffff167c010000000000000000000000000000000000000000000000000000000002815260040161091f919061202d565b6040805180830381600087803b151561093757600080fd5b6102c65a03f1151561094857600080fd5b5050506040518051906020018051905091509150915091565b61096a33611218565b151561097257fe5b600160009054906101000a900473ffffffffffffffffffffffffffffffffffffffff1673ffffffffffffffffffffffffffffffffffffffff16631d26a99b336040518263ffffffff167c01000000000000000000000000000000000000000000000000000000000281526004016109e9919061202d565b600060405180830381600087803b1515610a0257600080fd5b6102c65a03f11515610a1357600080fd5b5050503373ffffffffffffffffffffffffffffffffffffffff167fb1e40dcb43d26b3a6cb20da12c333af5a0de0bcd6264eddca5fbacf3e31d4f9460405160405180910390a2565b600160009054906101000a900473ffffffffffffffffffffffffffffffffffffffff1681565b600160009054906101000a900473ffffffffffffffffffffffffffffffffffffffff1673ffffffffffffffffffffffffffffffffffffffff1663a1cbad7e336040518263ffffffff167c0100000000000000000000000000000000000000000000000000000000028152600401610af8919061202d565b600060405180830381600087803b1515610b1157600080fd5b6102c65a03f11515610b2257600080fd5b5050503373ffffffffffffffffffffffffffffffffffffffff167fb1e40dcb43d26b3a6cb20da12c333af5a0de0bcd6264eddca5fbacf3e31d4f9460405160405180910390a2565b6000806000806000806000806000600160009054906101000a900473ffffffffffffffffffffffffffffffffffffffff1673ffffffffffffffffffffffffffffffffffffffff166391976dcc8b600060405160a001526040518263ffffffff167c0100000000000000000000000000000000000000000000000000000000028152600401610bf8919061202d565b60a060405180830381600087803b1515610c1157600080fd5b6102c65a03f11515610c2257600080fd5b50505060405180519060200180519060200180519060200180519060200180519050809950819a50829b50839c50849d505050505050600160009054906101000a900473ffffffffffffffffffffffffffffffffffffffff1673ffffffffffffffffffffffffffffffffffffffff166345cab4eb8b6000604051606001526040518263ffffffff167c0100000000000000000000000000000000000000000000000000000000028152600401610cd8919061202d565b606060405180830381600087803b1515610cf157600080fd5b6102c65a03f11515610d0257600080fd5b50505060405180519060200180519060200180519050809450819550829650505050600160009054906101000a900473ffffffffffffffffffffffffffffffffffffffff1673ffffffffffffffffffffffffffffffffffffffff166359b17b438b6000604051602001526040518263ffffffff167c0100000000000000000000000000000000000000000000000000000000028152600401610da4919061202d565b602060405180830381600087803b1515610dbd57600080fd5b6102c65a03f11515610dce57600080fd5b5050506040518051905090508888888888888888889850985098509850985098509850985098509193959799909294969850565b600060011515600160009054906101000a900473ffffffffffffffffffffffffffffffffffffffff1673ffffffffffffffffffffffffffffffffffffffff166303e69146336000604051602001526040518263ffffffff167c0100000000000000000000000000000000000000000000000000000000028152600401610e88919061202d565b602060405180830381600087803b1515610ea157600080fd5b6102c65a03f11515610eb257600080fd5b50505060405180519050151514151515610ecb57600080fd5b600160009054906101000a900473ffffffffffffffffffffffffffffffffffffffff1673ffffffffffffffffffffffffffffffffffffffff166359b17b43336000604051602001526040518263ffffffff167c0100000000000000000000000000000000000000000000000000000000028152600401610f4b919061202d565b602060405180830381600087803b1515610f6457600080fd5b6102c65a03f11515610f7557600080fd5b505050604051805190509050600254610f973483611f9790919063ffffffff16565b11151515610fa457600080fd5b600160009054906101000a900473ffffffffffffffffffffffffffffffffffffffff1673ffffffffffffffffffffffffffffffffffffffff1663236cc4d7338c8c8c8c6040518663ffffffff167c01000000000000000000000000000000000000000000000000000000000281526004016110239594939291906120d2565b600060405180830381600087803b151561103c57600080fd5b6102c65a03f1151561104d57600080fd5b505050600160009054906101000a900473ffffffffffffffffffffffffffffffffffffffff1673ffffffffffffffffffffffffffffffffffffffff1663403bfbad3388888888886040518763ffffffff167c01000000000000000000000000000000000000000000000000000000000281526004016110d196959493929190612048565b600060405180830381600087803b15156110ea57600080fd5b6102c65a03f115156110fb57600080fd5b505050600160009054906101000a900473ffffffffffffffffffffffffffffffffffffffff1673ffffffffffffffffffffffffffffffffffffffff166321e5383a33346040518363ffffffff167c01000000000000000000000000000000000000000000000000000000000281526004016111779291906120a9565b600060405180830381600087803b151561119057600080fd5b6102c65a03f115156111a157600080fd5b5050503373ffffffffffffffffffffffffffffffffffffffff167fdc94eebf39359cb097be68bd4890a58fce65c66d2d284d4349f666013dc8a43d60405160405180910390a250505050505050505050565b6000809054906101000a900473ffffffffffffffffffffffffffffffffffffffff1681565b6000600160009054906101000a900473ffffffffffffffffffffffffffffffffffffffff1673ffffffffffffffffffffffffffffffffffffffff166303e69146836000604051602001526040518263ffffffff167c010000000000000000000000000000000000000000000000000000000002815260040161129a919061202d565b602060405180830381600087803b15156112b357600080fd5b6102c65a03f115156112c457600080fd5b505050604051805190509050919050565b60025481565b60011515600160009054906101000a900473ffffffffffffffffffffffffffffffffffffffff1673ffffffffffffffffffffffffffffffffffffffff166303e69146336000604051602001526040518263ffffffff167c010000000000000000000000000000000000000000000000000000000002815260040161135f919061202d565b602060405180830381600087803b151561137857600080fd5b6102c65a03f1151561138957600080fd5b5050506040518051905015151415156113a157600080fd5b600160009054906101000a900473ffffffffffffffffffffffffffffffffffffffff1673ffffffffffffffffffffffffffffffffffffffff166321e5383a33346040518363ffffffff167c010000000000000000000000000000000000000000000000000000000002815260040161141a9291906120a9565b600060405180830381600087803b151561143357600080fd5b6102c65a03f1151561144457600080fd5b5050503373ffffffffffffffffffffffffffffffffffffffff167fe3df84c3ca6a90f0e6485beae08e7bd034695356bec32910a3d62559ff33fbc860405160405180910390a2565b60011515600160009054906101000a900473ffffffffffffffffffffffffffffffffffffffff1673ffffffffffffffffffffffffffffffffffffffff166303e69146336000604051602001526040518263ffffffff167c0100000000000000000000000000000000000000000000000000000000028152600401611510919061202d565b602060405180830381600087803b151561152957600080fd5b6102c65a03f1151561153a57600080fd5b50505060405180519050151514151561155257600080fd5b600160009054906101000a900473ffffffffffffffffffffffffffffffffffffffff1673ffffffffffffffffffffffffffffffffffffffff1663236cc4d733868686866040518663ffffffff167c01000000000000000000000000000000000000000000000000000000000281526004016115d19594939291906120d2565b600060405180830381600087803b15156115ea57600080fd5b6102c65a03f115156115fb57600080fd5b5050503373ffffffffffffffffffffffffffffffffffffffff167fe3df84c3ca6a90f0e6485beae08e7bd034695356bec32910a3d62559ff33fbc860405160405180910390a250505050565b6000600160009054906101000a900473ffffffffffffffffffffffffffffffffffffffff1673ffffffffffffffffffffffffffffffffffffffff1663fac8a800836000604051602001526040518263ffffffff167c01000000000000000000000000000000000000000000000000000000000281526004016116c9919061202d565b602060405180830381600087803b15156116e257600080fd5b6102c65a03f115156116f357600080fd5b505050604051805190509050809050919050565b6000600160009054906101000a900473ffffffffffffffffffffffffffffffffffffffff1673ffffffffffffffffffffffffffffffffffffffff166359b17b43836000604051602001526040518263ffffffff167c0100000000000000000000000000000000000000000000000000000000028152600401611789919061202d565b602060405180830381600087803b15156117a257600080fd5b6102c65a03f115156117b357600080fd5b505050604051805190509050919050565b6001600060146101000a81548160ff021916908315150217905550565b60011515600160009054906101000a900473ffffffffffffffffffffffffffffffffffffffff1673ffffffffffffffffffffffffffffffffffffffff166303e69146336000604051602001526040518263ffffffff167c0100000000000000000000000000000000000000000000000000000000028152600401611865919061202d565b602060405180830381600087803b151561187e57600080fd5b6102c65a03f1151561188f57600080fd5b5050506040518051905015151415156118a757600080fd5b600160009054906101000a900473ffffffffffffffffffffffffffffffffffffffff1673ffffffffffffffffffffffffffffffffffffffff1663236cc4d733868686866040518663ffffffff167c01000000000000000000000000000000000000000000000000000000000281526004016119269594939291906120d2565b600060405180830381600087803b151561193f57600080fd5b6102c65a03f1151561195057600080fd5b505050600160009054906101000a900473ffffffffffffffffffffffffffffffffffffffff1673ffffffffffffffffffffffffffffffffffffffff166321e5383a33346040518363ffffffff167c01000000000000000000000000000000000000000000000000000000000281526004016119cc9291906120a9565b600060405180830381600087803b15156119e557600080fd5b6102c65a03f115156119f657600080fd5b5050503373ffffffffffffffffffffffffffffffffffffffff167fe3df84c3ca6a90f0e6485beae08e7bd034695356bec32910a3d62559ff33fbc860405160405180910390a250505050565b600080600080600160009054906101000a900473ffffffffffffffffffffffffffffffffffffffff1673ffffffffffffffffffffffffffffffffffffffff1663375160bf866000604051608001526040518263ffffffff167c0100000000000000000000000000000000000000000000000000000000028152600401611ac8919061202d565b608060405180830381600087803b1515611ae157600080fd5b6102c65a03f11515611af257600080fd5b5050506040518051906020018051906020018051906020018051905093509350935093509193509193565b6000809054906101000a900473ffffffffffffffffffffffffffffffffffffffff1673ffffffffffffffffffffffffffffffffffffffff163373ffffffffffffffffffffffffffffffffffffffff16141515611b7857600080fd5b600073ffffffffffffffffffffffffffffffffffffffff168173ffffffffffffffffffffffffffffffffffffffff1614151515611bb457600080fd5b8073ffffffffffffffffffffffffffffffffffffffff166000809054906101000a900473ffffffffffffffffffffffffffffffffffffffff1673ffffffffffffffffffffffffffffffffffffffff167f8be0079c531659141344cd1fd0a4f28419497f9722a3daafe3b4186f6b6457e060405160405180910390a3806000806101000a81548173ffffffffffffffffffffffffffffffffffffffff021916908373ffffffffffffffffffffffffffffffffffffffff16021790555050565b60011515600160009054906101000a900473ffffffffffffffffffffffffffffffffffffffff1673ffffffffffffffffffffffffffffffffffffffff166303e69146336000604051602001526040518263ffffffff167c0100000000000000000000000000000000000000000000000000000000028152600401611cf6919061202d565b602060405180830381600087803b1515611d0f57600080fd5b6102c65a03f11515611d2057600080fd5b505050604051805190501515141515611d3857600080fd5b600160009054906101000a900473ffffffffffffffffffffffffffffffffffffffff1673ffffffffffffffffffffffffffffffffffffffff1663403bfbad3387878787876040518763ffffffff167c0100000000000000000000000000000000000000000000000000000000028152600401611db996959493929190612048565b600060405180830381600087803b1515611dd257600080fd5b6102c65a03f11515611de357600080fd5b5050503373ffffffffffffffffffffffffffffffffffffffff167fe3df84c3ca6a90f0e6485beae08e7bd034695356bec32910a3d62559ff33fbc860405160405180910390a25050505050565b6000809054906101000a900473ffffffffffffffffffffffffffffffffffffffff1673ffffffffffffffffffffffffffffffffffffffff163373ffffffffffffffffffffffffffffffffffffffff16141515611e8b57600080fd5b8060028190555050565b6000809054906101000a900473ffffffffffffffffffffffffffffffffffffffff1673ffffffffffffffffffffffffffffffffffffffff163373ffffffffffffffffffffffffffffffffffffffff16141515611ef057600080fd5b600160009054906101000a900473ffffffffffffffffffffffffffffffffffffffff1673ffffffffffffffffffffffffffffffffffffffff1663f2fde38b826040518263ffffffff167c0100000000000000000000000000000000000000000000000000000000028152600401611f67919061202d565b600060405180830381600087803b1515611f8057600080fd5b6102c65a03f11515611f9157600080fd5b50505050565b6000808284019050838110151515611fab57fe5b8091505092915050565b611fbe81612271565b82525050565b611fcd81612291565b82525050565b611fdc8161229d565b82525050565b611feb816122d8565b82525050565b611ffa816122a7565b82525050565b612009816122b4565b82525050565b612018816122c1565b82525050565b612027816122ce565b82525050565b60006020820190506120426000830184611fb5565b92915050565b600060c08201905061205d6000830189611fb5565b61206a602083018861200f565b612077604083018761200f565b6120846060830186611fd3565b6120916080830185611fd3565b61209e60a0830184611ff1565b979650505050505050565b60006040820190506120be6000830185611fb5565b6120cb602083018461201e565b9392505050565b600060a0820190506120e76000830188611fb5565b6120f4602083018761201e565b612101604083018661201e565b61210e6060830185611fd3565b61211b6080830184612000565b9695505050505050565b600060208201905061213a6000830184611fc4565b92915050565b60006020820190506121556000830184611fe2565b92915050565b600061012082019050612171600083018c61200f565b61217e602083018b61200f565b61218b604083018a611fd3565b6121986060830189611fd3565b6121a56080830188611ff1565b6121b260a083018761201e565b6121bf60c083018661201e565b6121cc60e083018561201e565b6121da61010083018461201e565b9a9950505050505050505050565b60006020820190506121fd600083018461201e565b92915050565b6000604082019050612218600083018561201e565b6122256020830184611fc4565b9392505050565b6000608082019050612241600083018761201e565b61224e602083018661201e565b61225b6040830185611fd3565b6122686060830184612000565b95945050505050565b600073ffffffffffffffffffffffffffffffffffffffff82169050919050565b60008115159050919050565b6000819050919050565b60008160010b9050919050565b60008160030b9050919050565b60008160000b9050919050565b6000819050919050565b60006122e382612271565b90509190505600a265627a7a72305820df414ef28a4dd1ea7164bc19e2dd283486f2370062f1e6f7ad33f5b170920f566c6578706572696d656e74616cf50037",
  "source": "pragma solidity ^0.4.18;\npragma experimental ABIEncoderV2;\n\nimport 'zeppelin-solidity/contracts/ownership/Ownable.sol';\nimport 'zeppelin-solidity/contracts/math/SafeMath.sol';\nimport './DetherTellerStorage.sol';\n\n// TODO\n// NEED DTH TO DEPOSIT AND TRADE\n// MINT LOYALTY WHEN TRADE\n\ncontract DetherInterface is Ownable {\n  using SafeMath for uint256;\n  bool public initialised;\n  DetherTellerStorage public tellerStorage;\n  uint public limit = 2 ether;\n\n  event RegisterTeller(address indexed tellerAddress);\n  event DeleteTeller(address indexed tellerAddress);\n  event UpdateTeller(address indexed tellerAddress);\n  event Send(address indexed _from, address indexed _to, uint amount);\n\n// modifier\n  modifier isLockedForInitialMigration() {\n    require(!initialised);\n    _;\n  }\n\n  modifier isNotLockedForInitialMigration() {\n    require(initialised);\n    _;\n  }\n\n  function setInit() public  {\n    initialised = true;\n  }\n\n  function DetherInterface(address _tellerStorageAddress) public {\n    tellerStorage = DetherTellerStorage(_tellerStorageAddress);\n    initialised = true;\n    // initialised = false;\n  }\n  function updateLimit(uint newLimit)  public onlyOwner {\n    limit = newLimit;\n  }\n\n  /// @notice Register a teller\n  /// @dev gasUsed: 299600\n  function registerTeller(\n    uint _lat,\n    uint _lng,\n    bytes32 _countryCode,\n    int32 _postalcode,\n    int8 _avatarId,\n    int8 _currencyId,\n    bytes32 _messagingAddress,\n    bytes32 _messagingAddress2,\n    int16 _rates\n    ) public payable  {\n      // Conditions\n      require(tellerStorage.isOnline(msg.sender) != true);\n      uint bal = tellerStorage.getTellerBalance(msg.sender);\n      require(bal.add(msg.value) <= limit);\n      tellerStorage.setTellerPosition(msg.sender, _lat, _lng, _countryCode, _postalcode);\n      tellerStorage.setTellerProfile(msg.sender, _avatarId, _currencyId, _messagingAddress,_messagingAddress2, _rates);\n      tellerStorage.addBalance(msg.sender, msg.value); // send money\n\n      RegisterTeller(msg.sender);\n  }\n\n  function switchTellerOffline() public {\n    // delete point on map and messagery\n    assert(isTellerOnline(msg.sender));\n    tellerStorage.turnOffline(msg.sender);\n    // withdraw fund\n    // unstack token\n    DeleteTeller(msg.sender);\n  }\n\n  function updateProfile(\n    int8 _avatarId,\n    int8 _currencyId,\n    bytes32 _messagingAddr,\n    bytes32 _messagingAddr2,\n    int16 _rates\n    ) public {\n      require(tellerStorage.isOnline(msg.sender) == true);\n      tellerStorage.setTellerProfile(msg.sender, _avatarId, _currencyId, _messagingAddr,_messagingAddr2, _rates);\n      UpdateTeller(msg.sender);\n    }\n\n    function updateProfilePayable(\n      int8 _avatarId,\n      int8 _currencyId,\n      bytes32 _messagingAddr,\n      bytes32 _messagingAddr2,\n      int16 _rates\n      ) public payable{\n        require(tellerStorage.isOnline(msg.sender) == true);\n        tellerStorage.setTellerProfile(msg.sender, _avatarId, _currencyId, _messagingAddr,_messagingAddr2, _rates);\n        tellerStorage.addBalance(msg.sender, msg.value); // send money\n        UpdateTeller(msg.sender);\n      }\n\n    function updatePosition(\n      uint _lat,\n      uint _lng,\n      bytes32 _countryCode,\n      int32 _postalcode\n      ) public {\n        require(tellerStorage.isOnline(msg.sender) == true);\n        tellerStorage.setTellerPosition(msg.sender, _lat, _lng, _countryCode, _postalcode);\n        UpdateTeller(msg.sender);\n      }\n\n    function updatePositionPayable(\n      uint _lat,\n      uint _lng,\n      bytes32 _countryCode,\n      int32 _postalcode\n      ) public payable{\n        require(tellerStorage.isOnline(msg.sender) == true);\n        tellerStorage.setTellerPosition(msg.sender, _lat, _lng, _countryCode, _postalcode);\n        tellerStorage.addBalance(msg.sender, msg.value); // send money\n        UpdateTeller(msg.sender);\n      }\n\n    function addBalance() public payable {\n      require(tellerStorage.isOnline(msg.sender) == true);\n      tellerStorage.addBalance(msg.sender, msg.value); // send money\n      UpdateTeller(msg.sender);\n    }\n\n  function isRegistered(address _teller) public view returns (bool status){\n    status = tellerStorage.isTeller(_teller);\n    return status;\n  }\n\n  function deleteMyProfile() {\n    // delete all info\n    // keep loyalty\n    tellerStorage.deleteTeller(msg.sender);\n    DeleteTeller(msg.sender);\n    // withdraw\n  }\n\n\n  /*function importTellers(\n    int256 _lat,\n    int256 _lng,\n    uint _zoneId,\n    int16 _rate,\n    int8 _avatarId,\n    int8 _currencyId,\n    bytes32 _messagingAddress,\n    bytes32 _name,\n    uint _balance\n    ) public onlyOwner isLockedForInitialMigration {\n    tellerStorage.setTellerIndex(msg.sender);\n    tellerStorage.setTellerZone(msg.sender, _zoneId);\n    tellerStorage.setTellerPosition(msg.sender, _lat, _lng, _zoneId);\n    tellerStorage.setTellerProfile(msg.sender, _avatarId, _currencyId, _messagingAddress, _name, _rate);\n    tellerStorage.setTellerBalance(msg.sender, _balance);\n  }*/\n\n  function changeStorageOwnership(address newOwner) public onlyOwner {\n    tellerStorage.transferOwnership(newOwner);\n  }\n\n  function getTellerPos(address _teller) public view returns (uint _lat, uint _lng, bytes32 _countryId, int32 postalCode) {\n    return tellerStorage.getTellerPositionRaw(_teller);\n}\n\n  /*function getTeller(address _teller) public view returns (Teller) {\n    return tellerStorage.getTeller(_teller);\n  }*/\n\n  function getTellerProfile(address _teller) public view returns (\n    int8 avatarId,\n    int8 currencyId,\n    bytes32 messagingAddr,\n    bytes32 messagingAddr2,\n    int16 rate,\n    uint volumeSell,\n    uint volumeBuy,\n    uint nbTrade,\n    uint balance\n    ) {\n      (avatarId, currencyId, messagingAddr, messagingAddr2, rate) = tellerStorage.getTellerProfileRaw(_teller);\n      (volumeSell,volumeBuy,nbTrade) = tellerStorage.getTellerReputationRaw(_teller);\n      balance = tellerStorage.getTellerBalance(_teller);\n      return (avatarId, currencyId, messagingAddr, messagingAddr2, rate, volumeSell,volumeBuy,nbTrade, balance);\n  }\n\n  function getTellerStatus(address _teller) public view returns (uint balance, bool status) {\n    return tellerStorage.getTellerStatus(_teller);\n  }\n\n  function isTellerOnline(address _teller) public view returns (bool) {\n    return tellerStorage.isOnline(_teller);\n  }\n  /// @notice Sendcoin allow seller to send ether they put in escrow in the smart contract\n  /// @dev gasUsed: 96681\n  /*function sendCoin (address _receiver, uint _amount) public isNotLockedForInitialMigration returns (bool) {\n    require(_receiver != msg.sender);\n    uint tellerBalance = tellerStorage.getTellerBalance(msg.sender);\n    require(tellerBalance >= _amount);\n    tellerStorage.setTellerBalance(msg.sender, tellerBalance.sub(_amount));\n\n    var (nbTrade, volumeTrade) = tellerStorage.getTellerReputation(msg.sender);\n    tellerStorage.setTellerReputation(msg.sender, ++nbTrade, volumeTrade.add(_amount));\n\n    tellerStorage.releaseEth(_receiver, _amount);\n    var (lat, lng,) = tellerStorage.getTellerPosition(msg.sender);\n    Send(msg.sender, _receiver, _amount, lat, lng);\n    return true;\n  }*/\n\n\n\n  /// @notice Getter to retrieve balance\n  function getTellerBalances(address _address) public view returns (uint) {\n    return tellerStorage.getTellerBalance(_address);\n  }\n}\n",
  "sourcePath": "/Users/mehdi/code/dether/dethercontracts/contracts/DetherInterface.sol",
  "compiler": {
    "name": "solc",
    "version": "0.4.18+commit.9cf6e910.Emscripten.clang"
  },
  "schemaVersion": "1.0.1",
  "updatedAt": "2018-01-15T18:03:41.407Z"
}