{
  "contractName": "DetherZoning",
  "abi": [
    {
      "constant": true,
      "inputs": [
        {
          "name": "",
          "type": "bytes2"
        },
        {
          "name": "",
          "type": "uint256"
        },
        {
          "name": "",
          "type": "uint256"
        },
        {
          "name": "",
          "type": "uint256"
        }
      ],
      "name": "countries",
      "outputs": [
        {
          "name": "",
          "type": "uint256"
        }
      ],
      "payable": false,
      "stateMutability": "view",
      "type": "function"
    },
    {
      "constant": true,
      "inputs": [
        {
          "name": "x18",
          "type": "uint256"
        },
        {
          "name": "y18",
          "type": "uint256"
        },
        {
          "name": "country",
          "type": "bytes2"
        }
      ],
      "name": "isInsideCountry",
      "outputs": [
        {
          "name": "insideCountry_",
          "type": "bool"
        }
      ],
      "payable": false,
      "stateMutability": "view",
      "type": "function"
    },
    {
      "constant": true,
      "inputs": [
        {
          "name": "",
          "type": "uint256"
        }
      ],
      "name": "zoneList",
      "outputs": [
        {
          "name": "zoneOwner",
          "type": "address"
        },
        {
          "name": "x",
          "type": "uint256"
        },
        {
          "name": "y",
          "type": "uint256"
        },
        {
          "name": "country",
          "type": "bytes2"
        },
        {
          "name": "exists",
          "type": "bool"
        }
      ],
      "payable": false,
      "stateMutability": "view",
      "type": "function"
    },
    {
      "constant": true,
      "inputs": [],
      "name": "owner",
      "outputs": [
        {
          "name": "",
          "type": "address"
        }
      ],
      "payable": false,
      "stateMutability": "view",
      "type": "function"
    },
    {
      "constant": true,
      "inputs": [
        {
          "name": "yArrays",
          "type": "uint256[2][]"
        }
      ],
      "name": "getYArraysLength",
      "outputs": [
        {
          "name": "yCount_",
          "type": "uint256"
        }
      ],
      "payable": false,
      "stateMutability": "pure",
      "type": "function"
    },
    {
      "constant": false,
      "inputs": [
        {
          "name": "newOwner",
          "type": "address"
        }
      ],
      "name": "transferOwnership",
      "outputs": [],
      "payable": false,
      "stateMutability": "nonpayable",
      "type": "function"
    },
    {
      "constant": false,
      "inputs": [
        {
          "name": "country",
          "type": "bytes2"
        },
        {
          "name": "xIndex_",
          "type": "uint256"
        },
        {
          "name": "value",
          "type": "uint256[2][]"
        }
      ],
      "name": "updateCountry",
      "outputs": [],
      "payable": false,
      "stateMutability": "nonpayable",
      "type": "function"
    },
    {
      "constant": true,
      "inputs": [
        {
          "name": "x18",
          "type": "uint256"
        },
        {
          "name": "y18",
          "type": "uint256"
        }
      ],
      "name": "getParentTile18to12",
      "outputs": [
        {
          "name": "x12_",
          "type": "uint256"
        },
        {
          "name": "y12_",
          "type": "uint256"
        }
      ],
      "payable": false,
      "stateMutability": "pure",
      "type": "function"
    },
    {
      "constant": true,
      "inputs": [
        {
          "name": "xIndex_",
          "type": "uint256"
        },
        {
          "name": "country",
          "type": "bytes2"
        }
      ],
      "name": "getCountryColumn",
      "outputs": [
        {
          "name": "column_",
          "type": "uint256[2][]"
        }
      ],
      "payable": false,
      "stateMutability": "view",
      "type": "function"
    },
    {
      "anonymous": false,
      "inputs": [
        {
          "indexed": true,
          "name": "previousOwner",
          "type": "address"
        },
        {
          "indexed": true,
          "name": "newOwner",
          "type": "address"
        }
      ],
      "name": "OwnershipTransferred",
      "type": "event"
    },
    {
      "constant": true,
      "inputs": [],
      "name": "getZoneCount",
      "outputs": [
        {
          "name": "zoneCount_",
          "type": "uint256"
        }
      ],
      "payable": false,
      "stateMutability": "view",
      "type": "function"
    },
    {
      "constant": true,
      "inputs": [
        {
          "name": "x18",
          "type": "uint256"
        },
        {
          "name": "y18",
          "type": "uint256"
        }
      ],
      "name": "doesZoneExist",
      "outputs": [
        {
          "name": "zoneExists_",
          "type": "bool"
        }
      ],
      "payable": false,
      "stateMutability": "view",
      "type": "function"
    },
    {
      "constant": false,
      "inputs": [
        {
          "name": "x18",
          "type": "uint256"
        },
        {
          "name": "y18",
          "type": "uint256"
        },
        {
          "name": "country",
          "type": "bytes2"
        }
      ],
      "name": "createZone",
      "outputs": [],
      "payable": false,
      "stateMutability": "nonpayable",
      "type": "function"
    },
    {
      "constant": true,
      "inputs": [
        {
          "name": "x18",
          "type": "uint256"
        },
        {
          "name": "y18",
          "type": "uint256"
        }
      ],
      "name": "getZoneOwner",
      "outputs": [
        {
          "name": "zoneOwner_",
          "type": "address"
        }
      ],
      "payable": false,
      "stateMutability": "view",
      "type": "function"
    }
  ],
  "bytecode": "0x608060405260008054600160a060020a033316600160a060020a0319909116179055610c73806100306000396000f3006080604052600436106100c45763ffffffff7c0100000000000000000000000000000000000000000000000000000000600035041663187f56fc81146100c957806328d606501461010657806335e501eb146101305780633b260aa21461016c57806354888fbb146101815780638da5cb5b146101da57806390b2bf431461020b578063a4fd4f4714610226578063ac2eee7f14610241578063f2fde38b146102c9578063f573f7e3146102ea578063fb860b1e14610384578063fd88dfe5146103b8575b600080fd5b3480156100d557600080fd5b506100f4600160f060020a03196004351660243560443560643561044e565b60408051918252519081900360200190f35b34801561011257600080fd5b5061012e600435602435600160f060020a03196044351661049b565b005b34801561013c57600080fd5b50610158600435602435600160f060020a03196044351661070d565b604080519115158252519081900360200190f35b34801561017857600080fd5b506100f46107d7565b34801561018d57600080fd5b506101996004356107dd565b60408051600160a060020a039096168652602086019490945284840192909252600160f060020a031916606084015215156080830152519081900360a00190f35b3480156101e657600080fd5b506101ef610830565b60408051600160a060020a039092168252519081900360200190f35b34801561021757600080fd5b506101ef60043560243561083f565b34801561023257600080fd5b506101586004356024356108e0565b34801561024d57600080fd5b506040805160048035808201356020818102850181019095528084526100f4943694602493909290840191819060009085015b828210156102b9576040805180820182529080840287019060029083908390808284375050509183525050600190910190602001610280565b5093965061094995505050505050565b3480156102d557600080fd5b5061012e600160a060020a036004351661094d565b3480156102f657600080fd5b506040805160206004604435818101358381028501840190955284845261012e948235600160f060020a03191694602480359536959460649492019190819060009085015b8282101561037457604080518082018252908084028701906002908390839080828437505050918352505060019091019060200161033b565b509396506109e595505050505050565b34801561039057600080fd5b5061039f600435602435610a38565b6040805192835260208301919091528051918290030190f35b3480156103c457600080fd5b506103dd600435600160f060020a031960243516610a68565b60405180806020018281038252838181518152602001915080516000925b8184101561043d57602080850284010151604080838360005b8381101561042c578181015183820152602001610414565b5050505090500192600101926103fb565b925050509250505060405180910390f35b60016020528360005260406000206020528260005260406000208281548110151561047557fe5b90600052602060002090600202018160028110151561049057fe5b015493508492505050565b6104a3610b1c565b60005433600160a060020a039081169116146104be57600080fd5b8360008110156104cd57600080fd5b620400008111156104dd57600080fd5b8360008110156104ec57600080fd5b620400008111156104fc57600080fd5b600086815260036020818152604080842089855290915290912001548690869062010000900460ff161561052f57600080fd5b61053a88888861070d565b151561054557600080fd5b60a06040519081016040528033600160a060020a03168152602001898152602001888152602001877dffffffffffffffffffffffffffffffffffffffffffffffffffffffffffff191681526020016001151581525094506002859080600181540180825580915050906001820390600052602060002090600402016000909192909190915060008201518160000160006101000a815481600160a060020a030219169083600160a060020a03160217905550602082015181600101556040820151816002015560608201518160030160006101000a81548161ffff021916908360f060020a9004021790555060808201518160030160026101000a81548160ff02191690831515021790555050505084600360008a8152602001908152602001600020600089815260200190815260200160002060008201518160000160006101000a815481600160a060020a030219169083600160a060020a03160217905550602082015181600101556040820151816002015560608201518160030160006101000a81548161ffff021916908360f060020a9004021790555060808201518160030160026101000a81548160ff0219169083151502179055509050505050505050505050565b60008060006060600061071e610b4a565b60008061072b8b8b610a38565b909750955061073a878a610a68565b945061074585610949565b151561075457600097506107c9565b600093505b61076285610949565b8410156107ba57848481518110151561077757fe5b60209081029190910181015180519181015190945090925090508186108015906107a15750808611155b156107af57600197506107ba565b600190930192610759565b6001881515146107c957600097505b505050505050509392505050565b60025490565b60028054829081106107eb57fe5b60009182526020909120600490910201805460018201546002830154600390930154600160a060020a039092169350919060f060020a81029062010000900460ff1685565b600054600160a060020a031681565b6000828181101561084f57600080fd5b6204000081111561085f57600080fd5b82600081101561086e57600080fd5b6204000081111561087e57600080fd5b600085815260036020818152604080842088855290915290912001548590859062010000900460ff1615156001146108b557600080fd5b50505060009384525050600360209081526040808420928452919052902054600160a060020a031690565b600082818110156108f057600080fd5b6204000081111561090057600080fd5b82600081101561090f57600080fd5b6204000081111561091f57600080fd5b50505060009182526003602081815260408085209385529290529120015462010000900460ff1690565b5190565b60005433600160a060020a0390811691161461096857600080fd5b600160a060020a038116151561097d57600080fd5b60008054604051600160a060020a03808516939216917f8be0079c531659141344cd1fd0a4f28419497f9722a3daafe3b4186f6b6457e091a36000805473ffffffffffffffffffffffffffffffffffffffff1916600160a060020a0392909216919091179055565b60005433600160a060020a03908116911614610a0057600080fd5b600160f060020a03198316600090815260016020908152604080832085845282529091208251610a3292840190610b65565b50505050565b600080610a4c84604063ffffffff610b0516565b9150610a5f83604063ffffffff610b0516565b90509250929050565b600160f060020a0319811660009081526001602090815260408083208584528252808320805482518185028101850190935280835260609492939192909184015b82821015610af95760008481526020902060408051808201918290529160028581029091019182845b815481526020019060010190808311610ad257505050505081526020019060010190610aa9565b50505050905092915050565b6000808284811515610b1357fe5b04949350505050565b6040805160a08101825260008082526020820181905291810182905260608101829052608081019190915290565b60408051808201825290600290829080388339509192915050565b828054828255906000526020600020906002028101928215610baf579160200282015b82811115610baf578251610b9f9083906002610bbf565b5091602001919060020190610b88565b50610bbb929150610bf9565b5090565b8260028101928215610bed579160200282015b82811115610bed578251825591602001919060010190610bd2565b50610bbb929150610c1f565b610c1c91905b80821115610bbb576000610c138282610c39565b50600201610bff565b90565b610c1c91905b80821115610bbb5760008155600101610c25565b5060008155600101600090555600a165627a7a723058202d5cdeba40e5da97d83c049146a5399e3637b2c5852d46cb9cb4961dadc63a510029",
  "source": "pragma solidity 0.4.23;\n\n// contract\nimport 'zeppelin-solidity/contracts/ownership/Ownable.sol';\nimport './Countries.sol';\n\ncontract DetherZoning is Ownable, Countries  {\n    struct Zone {\n      address zoneOwner;\n      uint x;\n      uint y;\n      bytes2 country;\n      bool exists;\n    }\n\n    Zone[] public zoneList;\n\n    //      x18             y18     the zone\n    mapping(uint => mapping(uint => Zone)) internal zoneMapping;\n\n    modifier validX18(uint x18) {\n      require(x18 >= 0);\n      require(x18 <= 262144); // 68,719,476,736 tiles at zoom level 18, square root\n      _;\n    }\n\n    modifier validY18(uint y18) {\n      require(y18 >= 0);\n      require(y18 <= 262144); // 68,719,476,736 tiles at zoom level 18, square root\n      _;\n    }\n\n    modifier zoneExists(uint x18, uint y18) {\n      require(zoneMapping[x18][y18].exists == true);\n      _;\n    }\n\n    modifier zoneDoesNotExist(uint x18, uint y18) {\n      require(zoneMapping[x18][y18].exists == false);\n      _;\n    }\n\n    function getZoneCount()\n      public\n      view\n      returns (uint zoneCount_)\n    {\n      zoneCount_ = zoneList.length;\n    }\n\n    function doesZoneExist(uint x18, uint y18)\n      public\n      validX18(x18)\n      validY18(y18)\n      view\n      returns (bool zoneExists_)\n    {\n      zoneExists_ = zoneMapping[x18][y18].exists;\n    }\n\n    function createZone(uint x18, uint y18, bytes2 country)\n      public\n      onlyOwner\n      validX18(x18)\n      validY18(y18)\n      zoneDoesNotExist(x18, y18)\n    {\n      require(isInsideCountry(x18, y18, country));\n\n      Zone memory zone = Zone(msg.sender, x18, y18, country, true);\n      zoneList.push(zone);\n      zoneMapping[x18][y18] = zone;\n    }\n\n    function getZoneOwner(uint x18, uint y18)\n      public\n      view\n      validX18(x18)\n      validY18(y18)\n      zoneExists(x18, y18)\n      returns (address zoneOwner_)\n    {\n      zoneOwner_ = zoneMapping[x18][y18].zoneOwner;\n    }\n\n    /* function claimZone(uint x18, uint y18, uint loyaltyPointsClaimer, uint loyaltyPointsOwner)\n      public\n      validX18(x18)\n      validY18(y18)\n      zoneExists(x18, y18)\n      onlyOwner\n      returns (bool claimedZone_)\n    {\n      Zone memory zone = zoneMapping[x18][y18];\n\n      require(claimerloyaltyPoints > ownerLoyaltyPoint);\n      zoneMapping[zoneId].zoneOwner = msg.sender;\n\n      claimedZone_ = true;\n    } */\n}\n",
  "sourcePath": "/Users/mehdi/code/dether/detherContracts/contracts/map/DetherZoning.sol",
  "compiler": {
    "name": "solc",
    "version": "0.4.23+commit.124ca40d.Emscripten.clang"
  },
  "schemaVersion": "2.0.0",
  "updatedAt": "2018-05-30T13:02:15.519Z"
}