{
  "contractName": "DetherCoreV2",
  "abi": [
    {
      "constant": true,
      "inputs": [],
      "name": "cfoAddress",
      "outputs": [
        {
          "name": "",
          "type": "address"
        }
      ],
      "payable": false,
      "stateMutability": "view",
      "type": "function"
    },
    {
      "constant": true,
      "inputs": [
        {
          "name": "",
          "type": "bytes12"
        }
      ],
      "name": "zoneToOwner",
      "outputs": [
        {
          "name": "",
          "type": "address"
        }
      ],
      "payable": false,
      "stateMutability": "view",
      "type": "function"
    },
    {
      "constant": true,
      "inputs": [],
      "name": "ceoAddress",
      "outputs": [
        {
          "name": "",
          "type": "address"
        }
      ],
      "payable": false,
      "stateMutability": "view",
      "type": "function"
    },
    {
      "constant": true,
      "inputs": [],
      "name": "kycCertifier",
      "outputs": [
        {
          "name": "",
          "type": "address"
        }
      ],
      "payable": false,
      "stateMutability": "view",
      "type": "function"
    },
    {
      "constant": true,
      "inputs": [
        {
          "name": "",
          "type": "bytes2"
        }
      ],
      "name": "licenceShop",
      "outputs": [
        {
          "name": "",
          "type": "uint256"
        }
      ],
      "payable": false,
      "stateMutability": "view",
      "type": "function"
    },
    {
      "constant": true,
      "inputs": [
        {
          "name": "",
          "type": "bytes2"
        }
      ],
      "name": "countryIsEnabled",
      "outputs": [
        {
          "name": "",
          "type": "bool"
        }
      ],
      "payable": false,
      "stateMutability": "view",
      "type": "function"
    },
    {
      "constant": true,
      "inputs": [],
      "name": "geoRegistry",
      "outputs": [
        {
          "name": "",
          "type": "address"
        }
      ],
      "payable": false,
      "stateMutability": "view",
      "type": "function"
    },
    {
      "constant": false,
      "inputs": [
        {
          "name": "_country",
          "type": "bytes2"
        }
      ],
      "name": "openZoneTeller",
      "outputs": [],
      "payable": false,
      "stateMutability": "nonpayable",
      "type": "function"
    },
    {
      "constant": false,
      "inputs": [
        {
          "name": "_newCMO",
          "type": "address"
        }
      ],
      "name": "setCMO",
      "outputs": [],
      "payable": false,
      "stateMutability": "nonpayable",
      "type": "function"
    },
    {
      "constant": false,
      "inputs": [
        {
          "name": "_newCSO",
          "type": "address"
        }
      ],
      "name": "setCSO",
      "outputs": [],
      "payable": false,
      "stateMutability": "nonpayable",
      "type": "function"
    },
    {
      "constant": true,
      "inputs": [],
      "name": "csoAddress",
      "outputs": [
        {
          "name": "",
          "type": "address"
        }
      ],
      "payable": false,
      "stateMutability": "view",
      "type": "function"
    },
    {
      "constant": false,
      "inputs": [
        {
          "name": "_newCEO",
          "type": "address"
        }
      ],
      "name": "setCEO",
      "outputs": [],
      "payable": false,
      "stateMutability": "nonpayable",
      "type": "function"
    },
    {
      "constant": true,
      "inputs": [
        {
          "name": "_user",
          "type": "address"
        }
      ],
      "name": "isTier2",
      "outputs": [
        {
          "name": "",
          "type": "bool"
        }
      ],
      "payable": false,
      "stateMutability": "view",
      "type": "function"
    },
    {
      "constant": true,
      "inputs": [],
      "name": "smsCertifier",
      "outputs": [
        {
          "name": "",
          "type": "address"
        }
      ],
      "payable": false,
      "stateMutability": "view",
      "type": "function"
    },
    {
      "constant": false,
      "inputs": [],
      "name": "unpause",
      "outputs": [],
      "payable": false,
      "stateMutability": "nonpayable",
      "type": "function"
    },
    {
      "constant": false,
      "inputs": [
        {
          "name": "_newCFO",
          "type": "address"
        }
      ],
      "name": "setCFO",
      "outputs": [],
      "payable": false,
      "stateMutability": "nonpayable",
      "type": "function"
    },
    {
      "constant": false,
      "inputs": [
        {
          "name": "_moderator",
          "type": "address"
        }
      ],
      "name": "removeShopModerator",
      "outputs": [],
      "payable": false,
      "stateMutability": "nonpayable",
      "type": "function"
    },
    {
      "constant": true,
      "inputs": [
        {
          "name": "",
          "type": "uint256"
        }
      ],
      "name": "enabledCountries",
      "outputs": [
        {
          "name": "",
          "type": "bytes2"
        }
      ],
      "payable": false,
      "stateMutability": "view",
      "type": "function"
    },
    {
      "constant": true,
      "inputs": [],
      "name": "paused",
      "outputs": [
        {
          "name": "",
          "type": "bool"
        }
      ],
      "payable": false,
      "stateMutability": "view",
      "type": "function"
    },
    {
      "constant": false,
      "inputs": [
        {
          "name": "_country",
          "type": "bytes2"
        }
      ],
      "name": "openZoneShop",
      "outputs": [],
      "payable": false,
      "stateMutability": "nonpayable",
      "type": "function"
    },
    {
      "constant": true,
      "inputs": [
        {
          "name": "",
          "type": "address"
        }
      ],
      "name": "shopModerators",
      "outputs": [
        {
          "name": "",
          "type": "bool"
        }
      ],
      "payable": false,
      "stateMutability": "view",
      "type": "function"
    },
    {
      "constant": true,
      "inputs": [
        {
          "name": "",
          "type": "bytes2"
        }
      ],
      "name": "openedCountryShop",
      "outputs": [
        {
          "name": "",
          "type": "bool"
        }
      ],
      "payable": false,
      "stateMutability": "view",
      "type": "function"
    },
    {
      "constant": true,
      "inputs": [
        {
          "name": "_user",
          "type": "address"
        }
      ],
      "name": "isTier1",
      "outputs": [
        {
          "name": "",
          "type": "bool"
        }
      ],
      "payable": false,
      "stateMutability": "view",
      "type": "function"
    },
    {
      "constant": false,
      "inputs": [
        {
          "name": "_moderator",
          "type": "address"
        }
      ],
      "name": "setShopModerator",
      "outputs": [],
      "payable": false,
      "stateMutability": "nonpayable",
      "type": "function"
    },
    {
      "constant": false,
      "inputs": [],
      "name": "pause",
      "outputs": [],
      "payable": false,
      "stateMutability": "nonpayable",
      "type": "function"
    },
    {
      "constant": true,
      "inputs": [
        {
          "name": "",
          "type": "uint256"
        }
      ],
      "name": "cscs",
      "outputs": [
        {
          "name": "",
          "type": "bytes12"
        }
      ],
      "payable": false,
      "stateMutability": "view",
      "type": "function"
    },
    {
      "constant": true,
      "inputs": [],
      "name": "cmoAddress",
      "outputs": [
        {
          "name": "",
          "type": "address"
        }
      ],
      "payable": false,
      "stateMutability": "view",
      "type": "function"
    },
    {
      "constant": false,
      "inputs": [
        {
          "name": "country",
          "type": "bytes2"
        },
        {
          "name": "price",
          "type": "uint256"
        }
      ],
      "name": "setLicenceShopPrice",
      "outputs": [],
      "payable": false,
      "stateMutability": "nonpayable",
      "type": "function"
    },
    {
      "constant": false,
      "inputs": [
        {
          "name": "_country",
          "type": "bytes2"
        }
      ],
      "name": "closeZoneTeller",
      "outputs": [],
      "payable": false,
      "stateMutability": "nonpayable",
      "type": "function"
    },
    {
      "constant": false,
      "inputs": [
        {
          "name": "_moderator",
          "type": "address"
        }
      ],
      "name": "removeTellerModerator",
      "outputs": [],
      "payable": false,
      "stateMutability": "nonpayable",
      "type": "function"
    },
    {
      "constant": false,
      "inputs": [
        {
          "name": "_country",
          "type": "bytes2"
        }
      ],
      "name": "closeZoneShop",
      "outputs": [],
      "payable": false,
      "stateMutability": "nonpayable",
      "type": "function"
    },
    {
      "constant": true,
      "inputs": [
        {
          "name": "",
          "type": "address"
        }
      ],
      "name": "tellerModerators",
      "outputs": [
        {
          "name": "",
          "type": "bool"
        }
      ],
      "payable": false,
      "stateMutability": "view",
      "type": "function"
    },
    {
      "constant": true,
      "inputs": [
        {
          "name": "",
          "type": "bytes2"
        }
      ],
      "name": "openedCountryTeller",
      "outputs": [
        {
          "name": "",
          "type": "bool"
        }
      ],
      "payable": false,
      "stateMutability": "view",
      "type": "function"
    },
    {
      "constant": false,
      "inputs": [
        {
          "name": "_moderator",
          "type": "address"
        }
      ],
      "name": "setTellerModerator",
      "outputs": [],
      "payable": false,
      "stateMutability": "nonpayable",
      "type": "function"
    },
    {
      "constant": true,
      "inputs": [],
      "name": "run2",
      "outputs": [
        {
          "name": "",
          "type": "bool"
        }
      ],
      "payable": false,
      "stateMutability": "view",
      "type": "function"
    },
    {
      "constant": false,
      "inputs": [
        {
          "name": "_kycCertifier",
          "type": "address"
        }
      ],
      "name": "setKycCertifier",
      "outputs": [],
      "payable": false,
      "stateMutability": "nonpayable",
      "type": "function"
    },
    {
      "constant": false,
      "inputs": [
        {
          "name": "country",
          "type": "bytes2"
        },
        {
          "name": "price",
          "type": "uint256"
        }
      ],
      "name": "setLicenceTellerPrice",
      "outputs": [],
      "payable": false,
      "stateMutability": "nonpayable",
      "type": "function"
    },
    {
      "constant": true,
      "inputs": [
        {
          "name": "",
          "type": "bytes2"
        }
      ],
      "name": "licenceTeller",
      "outputs": [
        {
          "name": "",
          "type": "uint256"
        }
      ],
      "payable": false,
      "stateMutability": "view",
      "type": "function"
    },
    {
      "constant": true,
      "inputs": [],
      "name": "run1",
      "outputs": [
        {
          "name": "",
          "type": "bool"
        }
      ],
      "payable": false,
      "stateMutability": "view",
      "type": "function"
    },
    {
      "constant": false,
      "inputs": [
        {
          "name": "_smsCertifier",
          "type": "address"
        }
      ],
      "name": "setSmsCertifier",
      "outputs": [],
      "payable": false,
      "stateMutability": "nonpayable",
      "type": "function"
    },
    {
      "inputs": [
        {
          "name": "_geoRegistry",
          "type": "address"
        }
      ],
      "payable": false,
      "stateMutability": "nonpayable",
      "type": "constructor"
    },
    {
      "anonymous": false,
      "inputs": [
        {
          "indexed": false,
          "name": "cscAddress",
          "type": "address"
        },
        {
          "indexed": false,
          "name": "csc",
          "type": "bytes12"
        },
        {
          "indexed": false,
          "name": "geohash",
          "type": "bytes7"
        },
        {
          "indexed": false,
          "name": "zoneOwner",
          "type": "address"
        },
        {
          "indexed": false,
          "name": "cscContractOwner",
          "type": "address"
        }
      ],
      "name": "ZoneAdded",
      "type": "event"
    },
    {
      "anonymous": false,
      "inputs": [
        {
          "indexed": false,
          "name": "newContract",
          "type": "address"
        }
      ],
      "name": "ContractUpgrade",
      "type": "event"
    },
    {
      "constant": false,
      "inputs": [
        {
          "name": "_country",
          "type": "bytes2"
        },
        {
          "name": "_geohash",
          "type": "bytes7"
        }
      ],
      "name": "addCountryZone",
      "outputs": [],
      "payable": false,
      "stateMutability": "nonpayable",
      "type": "function"
    },
    {
      "constant": false,
      "inputs": [
        {
          "name": "_country",
          "type": "bytes2"
        }
      ],
      "name": "enableCountry",
      "outputs": [],
      "payable": false,
      "stateMutability": "nonpayable",
      "type": "function"
    },
    {
      "constant": true,
      "inputs": [],
      "name": "getCscArray",
      "outputs": [
        {
          "name": "",
          "type": "bytes12[]"
        }
      ],
      "payable": false,
      "stateMutability": "view",
      "type": "function"
    }
  ],
  "bytecode": "0x60806040526006805462ffffff1916905534801561001c57600080fd5b50604051602080611ea3833981016040525160108054600160a060020a031916600160a060020a03909216919091179055611e478061005c6000396000f3006080604052600436106200023a5763ffffffff7c01000000000000000000000000000000000000000000000000000000006000350416630519ce7981146200023f578063079c81e2146200027357806307d9b4fe14620002dd5780630a0f816814620003025780630d46f91a146200031a5780630d926f7a14620003325780630dc210aa1462000369578063178f183f14620003a25780631d32f10614620003ba5780632072863b14620003e15780632105c04914620004055780632272b0af146200042957806327d7874c14620004415780632e3a4def146200046557806330a5531614620004895780633f4ba83a14620004a15780634a99d27414620004b95780634e0a337914620004de578063529e65e11462000502578063580fa60814620005265780635c975abb146200055e57806366d5eb9b146200057657806367bb15ad146200059b578063744955a914620005bf57806378843a9514620005e4578063809ffb2014620006085780638456cb59146200062c5780638480361714620006445780638c267b97146200067c5780639a8061e814620006945780639ae120dd14620006bc578063a674e2a514620006e1578063aa5a11c51462000725578063ba2a98f21462000749578063c640ee3d146200076e578063ca34333b1462000792578063d0a4a81b14620007b7578063d4f639ea14620007db578063e019ac2914620007f3578063f2d15c481462000817578063f3943ca9146200083f578063f983c0fa1462000864578063fcf3438c146200087c575b600080fd5b3480156200024c57600080fd5b5062000257620008a0565b60408051600160a060020a039092168252519081900360200190f35b3480156200028057600080fd5b506200028b620008af565b60408051602080825283518183015283519192839290830191858101910280838360005b83811015620002c9578181015183820152602001620002af565b505050509050019250505060405180910390f35b348015620002ea57600080fd5b5062000257600160a060020a0319600435166200094a565b3480156200030f57600080fd5b506200025762000965565b3480156200032757600080fd5b506200025762000974565b3480156200033f57600080fd5b5062000357600160f060020a03196004351662000983565b60408051918252519081900360200190f35b3480156200037657600080fd5b506200038e600160f060020a03196004351662000995565b604080519115158252519081900360200190f35b348015620003af57600080fd5b5062000257620009aa565b348015620003c757600080fd5b50620003df600160f060020a031960043516620009b9565b005b348015620003ee57600080fd5b50620003df600160a060020a0360043516620009f6565b3480156200041257600080fd5b50620003df600160a060020a036004351662000a46565b3480156200043657600080fd5b506200025762000a96565b3480156200044e57600080fd5b50620003df600160a060020a036004351662000aa5565b3480156200047257600080fd5b506200038e600160a060020a036004351662000af5565b3480156200049657600080fd5b506200025762000b95565b348015620004ae57600080fd5b50620003df62000bab565b348015620004c657600080fd5b50620003df600160f060020a03196004351662000be1565b348015620004eb57600080fd5b50620003df600160a060020a036004351662000c97565b3480156200050f57600080fd5b50620003df600160a060020a036004351662000ce7565b3480156200053357600080fd5b506200054160043562000d20565b60408051600160f060020a03199092168252519081900360200190f35b3480156200056b57600080fd5b506200038e62000d74565b3480156200058357600080fd5b50620003df600160f060020a03196004351662000d7d565b348015620005a857600080fd5b506200038e600160a060020a036004351662000dba565b348015620005cc57600080fd5b506200038e600160f060020a03196004351662000dcf565b348015620005f157600080fd5b506200038e600160a060020a036004351662000de4565b3480156200061557600080fd5b50620003df600160a060020a036004351662000e56565b3480156200063957600080fd5b50620003df62000ea8565b3480156200065157600080fd5b506200065f60043562000ee0565b60408051600160a060020a03199092168252519081900360200190f35b3480156200068957600080fd5b506200025762000f2a565b348015620006a157600080fd5b50620003df600160f060020a03196004351660243562000f39565b348015620006c957600080fd5b50620003df600160f060020a03196004351662000f6e565b348015620006ee57600080fd5b50620003df600160f060020a03196004351678ffffffffffffffffffffffffffffffffffffffffffffffffff196024351662000fa8565b3480156200073257600080fd5b50620003df600160a060020a03600435166200153d565b3480156200075657600080fd5b50620003df600160f060020a03196004351662001576565b3480156200077b57600080fd5b506200038e600160a060020a0360043516620015b0565b3480156200079f57600080fd5b506200038e600160f060020a031960043516620015c5565b348015620007c457600080fd5b50620003df600160a060020a0360043516620015da565b348015620007e857600080fd5b506200038e6200162c565b3480156200080057600080fd5b50620003df600160a060020a03600435166200163b565b3480156200082457600080fd5b50620003df600160f060020a0319600435166024356200169e565b3480156200084c57600080fd5b5062000357600160f060020a031960043516620016d3565b3480156200087157600080fd5b506200038e620016e5565b3480156200088957600080fd5b50620003df600160a060020a0360043516620016f3565b600354600160a060020a031681565b6060600d8054806020026020016040519081016040528092919081815260200182805480156200094057602002820191906000526020600020906000905b82829054906101000a90047401000000000000000000000000000000000000000002600160a060020a031916815260200190600c0190602082600b01049283019260010382029150808411620008ed5790505b5050505050905090565b600c60205260009081526040902054600160a060020a031681565b600054600160a060020a031681565b600754600160a060020a031681565b600a6020526000908152604090205481565b600e6020526000908152604090205460ff1681565b601054600160a060020a031681565b600154600160a060020a03163314620009d157600080fd5b600160f060020a0319166000908152600960205260409020805460ff19166001179055565b600054600160a060020a0316331462000a0e57600080fd5b600160a060020a038116151562000a2457600080fd5b60018054600160a060020a031916600160a060020a0392909216919091179055565b600054600160a060020a0316331462000a5e57600080fd5b600160a060020a038116151562000a7457600080fd5b60028054600160a060020a031916600160a060020a0392909216919091179055565b600254600160a060020a031681565b600054600160a060020a0316331462000abd57600080fd5b600160a060020a038116151562000ad357600080fd5b60008054600160a060020a031916600160a060020a0392909216919091179055565b600754604080517fcc1d4c02000000000000000000000000000000000000000000000000000000008152600160a060020a0384811660048301529151600093929092169163cc1d4c029160248082019260209290919082900301818787803b15801562000b6157600080fd5b505af115801562000b76573d6000803e3d6000fd5b505050506040513d602081101562000b8d57600080fd5b505192915050565b60065463010000009004600160a060020a031681565b600054600160a060020a0316331462000bc357600080fd5b60065460ff16151562000bd557600080fd5b6006805460ff19169055565b600054600160a060020a0316331462000bf957600080fd5b600160f060020a031981166000908152600e602052604081208054600160ff199091168117909155600f80549182018155918290527f8d1108e10bcb7c27dddfc02ed9d693a074039d026cf4ea4240b40f7d581ac8026010820401805461ffff929093166002026101000a918202199092167e0100000000000000000000000000000000000000000000000000000000000090930402919091179055565b600054600160a060020a0316331462000caf57600080fd5b600160a060020a038116151562000cc557600080fd5b60038054600160a060020a031916600160a060020a0392909216919091179055565b600054600160a060020a0316331462000cff57600080fd5b600160a060020a03166000908152600460205260409020805460ff19169055565b600f80548290811062000d2f57fe5b9060005260206000209060109182820401919006600202915054906101000a90047e010000000000000000000000000000000000000000000000000000000000000281565b60065460ff1681565b600154600160a060020a0316331462000d9557600080fd5b600160f060020a0319166000908152600860205260409020805460ff19166001179055565b60046020526000908152604090205460ff1681565b60086020526000908152604090205460ff1681565b600654604080517fcc1d4c02000000000000000000000000000000000000000000000000000000008152600160a060020a0384811660048301529151600093630100000090049092169163cc1d4c029160248082019260209290919082900301818787803b15801562000b6157600080fd5b600054600160a060020a0316331462000e6e57600080fd5b600160a060020a038116151562000e8457600080fd5b600160a060020a03166000908152600460205260409020805460ff19166001179055565b600054600160a060020a0316331462000ec057600080fd5b60065460ff161562000ed157600080fd5b6006805460ff19166001179055565b600d80548290811062000eef57fe5b9060005260206000209060029182820401919006600c02915054906101000a9004740100000000000000000000000000000000000000000281565b600154600160a060020a031681565b600154600160a060020a0316331462000f5157600080fd5b600160f060020a03199091166000908152600a6020526040902055565b600154600160a060020a0316331462000f8657600080fd5b600160f060020a0319166000908152600960205260409020805460ff19169055565b600080548190819081908190600160a060020a0316331462000fc957600080fd5b600160f060020a031987166000908152600e602052604090205460ff1615156200105457604080517f08c379a000000000000000000000000000000000000000000000000000000000815260206004820152601660248201527f636f756e747279206973206e6f7420656e61626c656400000000000000000000604482015290519081900360640190fd5b601054604080517f0232cd9f000000000000000000000000000000000000000000000000000000008152600160f060020a03198a16600482015278ffffffffffffffffffffffffffffffffffffffffffffffffff19891660248201529051600160a060020a0390921691630232cd9f916044808201926020929091908290030181600087803b158015620010e757600080fd5b505af1158015620010fc573d6000803e3d6000fd5b505050506040513d60208110156200111357600080fd5b505115156200118357604080517f08c379a000000000000000000000000000000000000000000000000000000000815260206004820152601a60248201527f7a6f6e65206973206e6f7420696e7369646520636f756e747279000000000000604482015290519081900360640190fd5b8533306200119062001763565b78ffffffffffffffffffffffffffffffffffffffffffffffffff199093168352600160a060020a039182166020840152166040808301919091525190819003606001906000f080158015620011e9573d6000803e3d6000fd5b50945084600160a060020a031663d55c3ca36040518163ffffffff167c0100000000000000000000000000000000000000000000000000000000028152600401602060405180830381600087803b1580156200124457600080fd5b505af115801562001259573d6000803e3d6000fd5b505050506040513d60208110156200127057600080fd5b5051604080517f08e44f880000000000000000000000000000000000000000000000000000000081529051919550600160a060020a038716916308e44f88916004808201926020929091908290030181600087803b158015620012d257600080fd5b505af1158015620012e7573d6000803e3d6000fd5b505050506040513d6020811015620012fe57600080fd5b5051604080517f56b71acd0000000000000000000000000000000000000000000000000000000081529051919450600160a060020a038716916356b71acd916004808201926020929091908290030181600087803b1580156200136057600080fd5b505af115801562001375573d6000803e3d6000fd5b505050506040513d60208110156200138c57600080fd5b5051604080517f9ffdb1f00000000000000000000000000000000000000000000000000000000081529051919350600160a060020a03871691639ffdb1f0916004808201926020929091908290030181600087803b158015620013ee57600080fd5b505af115801562001403573d6000803e3d6000fd5b505050506040513d60208110156200141a57600080fd5b5051600160a060020a03198086166000818152600c602081815260408084208054600160a060020a03808a16919098168117909155600d80546001818101835591909652600286047fd7b6990105719101dabeb77144f2a3385c8033acd3af97e9423a695e81ad1eb5018054740100000000000000000000000000000000000000008f04979092169095026101000a9586026bffffffffffffffffffffffff90960219169490941790925581518b861681529081019390935278ffffffffffffffffffffffffffffffffffffffffffffffffff198816838201526060830191909152918516608082015290519192507f343ab1ba89cf34f8bf9042ef12361da22399760b0426c81919bc0fd2a46181dd919081900360a00190a150505050505050565b600054600160a060020a031633146200155557600080fd5b600160a060020a03166000908152600560205260409020805460ff19169055565b600154600160a060020a031633146200158e57600080fd5b600160f060020a0319166000908152600860205260409020805460ff19169055565b60056020526000908152604090205460ff1681565b60096020526000908152604090205460ff1681565b600054600160a060020a03163314620015f257600080fd5b600160a060020a03811615156200160857600080fd5b600160a060020a03166000908152600560205260409020805460ff19166001179055565b60065462010000900460ff1681565b600054600160a060020a031633146200165357600080fd5b60065462010000900460ff16156200166a57600080fd5b60078054600160a060020a03909216600160a060020a03199092169190911790556006805462ff0000191662010000179055565b600154600160a060020a03163314620016b657600080fd5b600160f060020a03199091166000908152600b6020526040902055565b600b6020526000908152604090205481565b600654610100900460ff1681565b600054600160a060020a031633146200170b57600080fd5b600654610100900460ff16156200172157600080fd5b6006805461ff0019600160a060020a0390931663010000000276ffffffffffffffffffffffffffffffffffffffff000000199091161791909116610100179055565b6040516106a78062001775833901905600608060405234801561001057600080fd5b506040516060806106a78339810160409081528151602083015191909201516000805466ffffffffffffff19167901000000000000000000000000000000000000000000000000008086049190911791829055610077910230640100000000610185810204565b6000805460018054600160a060020a03808816600160a060020a0319928316179283905560028054888316908416179055609860020a60ff02197401000000000000000000000000000000000000000096879004670100000000000000908102603860020a609860020a031990961695909517169485905560408051948604909602909116835230602084015216818401527fffffffffffffff0000000000000000000000000000000000000000000000000079010000000000000000000000000000000000000000000000000090920291909116606082015290517f861e89dc6d777375f715344e5f8cbb8339e8a4ab9dbf564ad5e1affeda44ff849181900360800190a1505050610248565b604080517fffffffffffffff0000000000000000000000000000000000000000000000000084166020808301919091526c01000000000000000000000000600160a060020a0385160260278301528251601b818403018152603b909201928390528151600093918291908401908083835b602083106102155780518252601f1990920191602091820191016101f6565b5181516020939093036101000a600019018019909116921691909117905260405192018290039091209695505050505050565b610450806102576000396000f3006080604052600436106100825763ffffffff7c010000000000000000000000000000000000000000000000000000000060003504166308e44f8881146100bf5780633ccfd60b1461010357806356b71acd1461011a5780639ffdb1f014610158578063ab5b8f1b1461016d578063cf8db862146101e4578063d55c3ca31461020d575b604080513481523031602082015281517f82d5b6112d777cb945445fa4e2801a8627703c4a1e188a684bed2eec13e05d38929181900390910190a1005b3480156100cb57600080fd5b506100d4610222565b6040805178ffffffffffffffffffffffffffffffffffffffffffffffffff199092168252519081900360200190f35b34801561010f57600080fd5b50610118610244565b005b34801561012657600080fd5b5061012f6102da565b6040805173ffffffffffffffffffffffffffffffffffffffff9092168252519081900360200190f35b34801561016457600080fd5b5061012f6102f6565b34801561017957600080fd5b506101ba78ffffffffffffffffffffffffffffffffffffffffffffffffff196004351673ffffffffffffffffffffffffffffffffffffffff60243516610312565b6040805173ffffffffffffffffffffffffffffffffffffffff199092168252519081900360200190f35b3480156101f057600080fd5b506101f96103dc565b604080519115158252519081900360200190f35b34801561021957600080fd5b506101ba6103fc565b6000547901000000000000000000000000000000000000000000000000000281565b60015473ffffffffffffffffffffffffffffffffffffffff16331461026857600080fd5b600030311161027657600080fd5b6040513390303180156108fc02916000818181858888f193505050501580156102a3573d6000803e3d6000fd5b50604080513031815290517fbe78769b7bb8662ad19dd2addcbfbb9c111d7fb7ab03d101b6d98d01027803a89181900360200190a1565b60025473ffffffffffffffffffffffffffffffffffffffff1681565b60015473ffffffffffffffffffffffffffffffffffffffff1681565b6040805178ffffffffffffffffffffffffffffffffffffffffffffffffff1984166020808301919091526c0100000000000000000000000073ffffffffffffffffffffffffffffffffffffffff85160260278301528251601b818403018152603b909201928390528151600093918291908401908083835b602083106103a95780518252601f19909201916020918201910161038a565b5181516020939093036101000a600019018019909116921691909117905260405192018290039091209695505050505050565b600054730100000000000000000000000000000000000000900460ff1681565b60005467010000000000000090047401000000000000000000000000000000000000000002815600a165627a7a723058200577c83c88b9406963c736dd279331b197819bf92f1dfe67a4f845c41fae94690029a165627a7a72305820bf581af428432a245010172985a82bf2cb4ca8a5b8030e6e6f83162db447f6180029",
  "source": "pragma solidity ^0.4.22;\n\nimport \"./DetherSetup.sol\";\nimport \"./map/CSCZone.sol\";\n\ncontract GeoRegistry {\n  function zoneInsideCountry(bytes2 _countryCode, bytes7 _zone) public view returns (bool);\n}\n\ncontract DetherCoreV2 is DetherSetup {\n  //      cscId      zoneOwnerAddress\n  mapping(bytes12 => address) public zoneToOwner;\n  bytes12[] public cscs;\n\n  //      countryCode isEnabled\n  mapping(bytes2 => bool) public countryIsEnabled;\n  bytes2[] public enabledCountries;\n\n  GeoRegistry public geoRegistry;\n\n  event ZoneAdded(address cscAddress, bytes12 csc, bytes7 geohash, address zoneOwner, address cscContractOwner);\n\n  constructor(address _geoRegistry)\n    public\n  {\n    geoRegistry = GeoRegistry(_geoRegistry);\n  }\n\n  function addCountryZone(bytes2 _country, bytes7 _geohash)\n    public\n    onlyCEO\n  {\n    require(countryIsEnabled[_country], \"country is not enabled\");\n    require(geoRegistry.zoneInsideCountry(_country, _geohash), \"zone is not inside country\");\n\n    CSCZone zone = new CSCZone(_geohash, msg.sender, address(this));\n\n    bytes12 csc = zone.csc();\n    bytes7 geohash = zone.geohash();\n    address cscZoneContractOwner = zone.cscZoneContractOwner();\n    address zoneOwner = zone.zoneOwner();\n\n    zoneToOwner[csc] = zoneOwner;\n    cscs.push(csc);\n\n    emit ZoneAdded(address(zone), csc, geohash, zoneOwner, cscZoneContractOwner);\n  }\n\n  function enableCountry(bytes2 _country)\n    public\n    onlyCEO\n  {\n    countryIsEnabled[_country] = true ;\n    enabledCountries.push(_country);\n  }\n\n  function getCscArray()\n    public\n    view\n    returns (bytes12[])\n  {\n    return cscs;\n  }\n}\n",
  "sourcePath": "/Users/trip/Projects/detherContracts/contracts/DetherCoreV2.sol",
  "compiler": {
    "name": "solc",
    "version": "0.4.24+commit.e67f0147.Emscripten.clang"
  },
  "schemaVersion": "2.0.1",
  "updatedAt": "2018-10-10T13:33:45.715Z"
}