{
  "contractName": "DetherAccessControl",
  "abi": [
    {
      "constant": true,
      "inputs": [],
      "name": "cfoAddress",
      "outputs": [
        {
          "name": "",
          "type": "address"
        }
      ],
      "payable": false,
      "stateMutability": "view",
      "type": "function"
    },
    {
      "constant": true,
      "inputs": [],
      "name": "ceoAddress",
      "outputs": [
        {
          "name": "",
          "type": "address"
        }
      ],
      "payable": false,
      "stateMutability": "view",
      "type": "function"
    },
    {
      "constant": true,
      "inputs": [],
      "name": "csoAddress",
      "outputs": [
        {
          "name": "",
          "type": "address"
        }
      ],
      "payable": false,
      "stateMutability": "view",
      "type": "function"
    },
    {
      "constant": true,
      "inputs": [],
      "name": "paused",
      "outputs": [
        {
          "name": "",
          "type": "bool"
        }
      ],
      "payable": false,
      "stateMutability": "view",
      "type": "function"
    },
    {
      "constant": true,
      "inputs": [
        {
          "name": "",
          "type": "address"
        }
      ],
      "name": "shopModerators",
      "outputs": [
        {
          "name": "",
          "type": "bool"
        }
      ],
      "payable": false,
      "stateMutability": "view",
      "type": "function"
    },
    {
      "constant": true,
      "inputs": [],
      "name": "cmoAddress",
      "outputs": [
        {
          "name": "",
          "type": "address"
        }
      ],
      "payable": false,
      "stateMutability": "view",
      "type": "function"
    },
    {
      "constant": true,
      "inputs": [
        {
          "name": "",
          "type": "address"
        }
      ],
      "name": "tellerModerators",
      "outputs": [
        {
          "name": "",
          "type": "bool"
        }
      ],
      "payable": false,
      "stateMutability": "view",
      "type": "function"
    },
    {
      "anonymous": false,
      "inputs": [
        {
          "indexed": false,
          "name": "newContract",
          "type": "address"
        }
      ],
      "name": "ContractUpgrade",
      "type": "event"
    },
    {
      "constant": false,
      "inputs": [
        {
          "name": "_newCEO",
          "type": "address"
        }
      ],
      "name": "setCEO",
      "outputs": [],
      "payable": false,
      "stateMutability": "nonpayable",
      "type": "function"
    },
    {
      "constant": false,
      "inputs": [
        {
          "name": "_newCMO",
          "type": "address"
        }
      ],
      "name": "setCMO",
      "outputs": [],
      "payable": false,
      "stateMutability": "nonpayable",
      "type": "function"
    },
    {
      "constant": false,
      "inputs": [
        {
          "name": "_newCSO",
          "type": "address"
        }
      ],
      "name": "setCSO",
      "outputs": [],
      "payable": false,
      "stateMutability": "nonpayable",
      "type": "function"
    },
    {
      "constant": false,
      "inputs": [
        {
          "name": "_newCFO",
          "type": "address"
        }
      ],
      "name": "setCFO",
      "outputs": [],
      "payable": false,
      "stateMutability": "nonpayable",
      "type": "function"
    },
    {
      "constant": false,
      "inputs": [
        {
          "name": "_moderator",
          "type": "address"
        }
      ],
      "name": "setShopModerator",
      "outputs": [],
      "payable": false,
      "stateMutability": "nonpayable",
      "type": "function"
    },
    {
      "constant": false,
      "inputs": [
        {
          "name": "_moderator",
          "type": "address"
        }
      ],
      "name": "removeShopModerator",
      "outputs": [],
      "payable": false,
      "stateMutability": "nonpayable",
      "type": "function"
    },
    {
      "constant": false,
      "inputs": [
        {
          "name": "_moderator",
          "type": "address"
        }
      ],
      "name": "setTellerModerator",
      "outputs": [],
      "payable": false,
      "stateMutability": "nonpayable",
      "type": "function"
    },
    {
      "constant": false,
      "inputs": [
        {
          "name": "_moderator",
          "type": "address"
        }
      ],
      "name": "removeTellerModerator",
      "outputs": [],
      "payable": false,
      "stateMutability": "nonpayable",
      "type": "function"
    },
    {
      "constant": false,
      "inputs": [],
      "name": "pause",
      "outputs": [],
      "payable": false,
      "stateMutability": "nonpayable",
      "type": "function"
    },
    {
      "constant": false,
      "inputs": [],
      "name": "unpause",
      "outputs": [],
      "payable": false,
      "stateMutability": "nonpayable",
      "type": "function"
    }
  ],
  "bytecode": "0x60806040526006805460ff1916905534801561001a57600080fd5b506106ad8061002a6000396000f3006080604052600436106100f05763ffffffff7c01000000000000000000000000000000000000000000000000000000006000350416630519ce7981146100f55780630a0f8168146101265780632072863b1461013b5780632105c0491461015e5780632272b0af1461017f57806327d7874c146101945780633f4ba83a146101b55780634e0a3379146101ca578063529e65e1146101eb5780635c975abb1461020c57806367bb15ad14610235578063809ffb20146102565780638456cb59146102775780638c267b971461028c578063aa5a11c5146102a1578063c640ee3d146102c2578063d0a4a81b146102e3575b600080fd5b34801561010157600080fd5b5061010a610304565b60408051600160a060020a039092168252519081900360200190f35b34801561013257600080fd5b5061010a610313565b34801561014757600080fd5b5061015c600160a060020a0360043516610322565b005b34801561016a57600080fd5b5061015c600160a060020a0360043516610381565b34801561018b57600080fd5b5061010a6103e0565b3480156101a057600080fd5b5061015c600160a060020a03600435166103ef565b3480156101c157600080fd5b5061015c61044e565b3480156101d657600080fd5b5061015c600160a060020a0360043516610486565b3480156101f757600080fd5b5061015c600160a060020a03600435166104e5565b34801561021857600080fd5b50610221610521565b604080519115158252519081900360200190f35b34801561024157600080fd5b50610221600160a060020a036004351661052a565b34801561026257600080fd5b5061015c600160a060020a036004351661053f565b34801561028357600080fd5b5061015c610593565b34801561029857600080fd5b5061010a6105cd565b3480156102ad57600080fd5b5061015c600160a060020a03600435166105dc565b3480156102ce57600080fd5b50610221600160a060020a0360043516610618565b3480156102ef57600080fd5b5061015c600160a060020a036004351661062d565b600354600160a060020a031681565b600054600160a060020a031681565b60005433600160a060020a0390811691161461033d57600080fd5b600160a060020a038116151561035257600080fd5b6001805473ffffffffffffffffffffffffffffffffffffffff1916600160a060020a0392909216919091179055565b60005433600160a060020a0390811691161461039c57600080fd5b600160a060020a03811615156103b157600080fd5b6002805473ffffffffffffffffffffffffffffffffffffffff1916600160a060020a0392909216919091179055565b600254600160a060020a031681565b60005433600160a060020a0390811691161461040a57600080fd5b600160a060020a038116151561041f57600080fd5b6000805473ffffffffffffffffffffffffffffffffffffffff1916600160a060020a0392909216919091179055565b60005433600160a060020a0390811691161461046957600080fd5b60065460ff16151561047a57600080fd5b6006805460ff19169055565b60005433600160a060020a039081169116146104a157600080fd5b600160a060020a03811615156104b657600080fd5b6003805473ffffffffffffffffffffffffffffffffffffffff1916600160a060020a0392909216919091179055565b60005433600160a060020a0390811691161461050057600080fd5b600160a060020a03166000908152600460205260409020805460ff19169055565b60065460ff1681565b60046020526000908152604090205460ff1681565b60005433600160a060020a0390811691161461055a57600080fd5b600160a060020a038116151561056f57600080fd5b600160a060020a03166000908152600460205260409020805460ff19166001179055565b60005433600160a060020a039081169116146105ae57600080fd5b60065460ff16156105be57600080fd5b6006805460ff19166001179055565b600154600160a060020a031681565b60005433600160a060020a039081169116146105f757600080fd5b600160a060020a03166000908152600560205260409020805460ff19169055565b60056020526000908152604090205460ff1681565b60005433600160a060020a0390811691161461064857600080fd5b600160a060020a038116151561065d57600080fd5b600160a060020a03166000908152600560205260409020805460ff191660011790555600a165627a7a72305820fb94219ac05091c96573a02b38f211ff203b49115344117be96a17cbf9072a900029",
  "source": "pragma solidity ^0.4.21;\n\n/// @title A facet of Dether that manages special access privileges.\n/// @author Axiom Zen (https://www.axiomzen.co) && dether.io\n/// Thanks to the Cryptokitties\n\ncontract DetherAccessControl {\n    // This facet controls access control for Dether. There are four roles managed here:\n    //\n    //     - The CEO: The CEO can reassign other roles and change the addresses of our dependent smart\n    //         contracts. It is also the only role that can unpause the smart contract.\n    //\n    //     - The CMO: The CMO is in charge to open or close activity in zone\n    //\n    // It should be noted that these roles are distinct without overlap in their access abilities, the\n    // abilities listed for each role above are exhaustive. In particular, while the CEO can assign any\n    // address to any role, the CEO address itself doesn't have the ability to act in those roles. This\n    // restriction is intentional so that we aren't tempted to use the CEO address frequently out of\n    // convenience. The less we use an address, the less likely it is that we somehow compromise the\n    // account.\n\n    /// @dev Emited when contract is upgraded\n    event ContractUpgrade(address newContract);\n\n    // The addresses of the accounts (or contracts) that can execute actions within each roles.\n    address public ceoAddress;\n    address public cmoAddress;\n    address public csoAddress; // CHIEF SHOP OFFICER\n    address public cfoAddress; // CHIEF FINANCIAL OFFICER\n\t  mapping (address => bool) public shopModerators;   // centralised moderator, would become decentralised\n    mapping (address => bool) public tellerModerators;   // centralised moderator, would become decentralised\n\n    // @dev Keeps track whether the contract is paused. When that is true, most actions are blocked\n    bool public paused = false;\n\n    /// @dev Access modifier for CEO-only functionality\n    modifier onlyCEO() {\n        require(msg.sender == ceoAddress);\n        _;\n    }\n\n    /// @dev Access modifier for CMO-only functionality\n    modifier onlyCMO() {\n        require(msg.sender == cmoAddress);\n        _;\n    }\n\n    modifier onlyCSO() {\n        require(msg.sender == csoAddress);\n        _;\n    }\n\n    modifier onlyCFO() {\n        require(msg.sender == cfoAddress);\n        _;\n    }\n\n    modifier isShopModerator(address _user) {\n      require(shopModerators[_user]);\n      _;\n    }\n    modifier isTellerModerator(address _user) {\n      require(tellerModerators[_user]);\n      _;\n    }\n\n    /// @dev Assigns a new address to act as the CEO. Only available to the current CEO.\n    /// @param _newCEO The address of the new CEO\n    function setCEO(address _newCEO) external onlyCEO {\n        require(_newCEO != address(0));\n        ceoAddress = _newCEO;\n    }\n\n    /// @dev Assigns a new address to act as the CMO. Only available to the current CEO.\n    /// @param _newCMO The address of the new CMO\n    function setCMO(address _newCMO) external onlyCEO {\n        require(_newCMO != address(0));\n        cmoAddress = _newCMO;\n    }\n\n    function setCSO(address _newCSO) external onlyCEO {\n        require(_newCSO != address(0));\n        csoAddress = _newCSO;\n    }\n\n    function setCFO(address _newCFO) external onlyCEO {\n        require(_newCFO != address(0));\n        cfoAddress = _newCFO;\n    }\n\n    function setShopModerator(address _moderator) external onlyCEO {\n      require(_moderator != address(0));\n      shopModerators[_moderator] = true;\n    }\n\n    function removeShopModerator(address _moderator) external onlyCEO {\n      shopModerators[_moderator] = false;\n    }\n\n    function setTellerModerator(address _moderator) external onlyCEO {\n      require(_moderator != address(0));\n      tellerModerators[_moderator] = true;\n    }\n\n    function removeTellerModerator(address _moderator) external onlyCEO {\n      tellerModerators[_moderator] = false;\n    }\n    /*** Pausable functionality adapted from OpenZeppelin ***/\n\n    /// @dev Modifier to allow actions only when the contract IS NOT paused\n    modifier whenNotPaused() {\n        require(!paused);\n        _;\n    }\n\n    /// @dev Modifier to allow actions only when the contract IS paused\n    modifier whenPaused {\n        require(paused);\n        _;\n    }\n\n    /// @dev Called by any \"C-level\" role to pause the contract. Used only when\n    ///  a bug or exploit is detected and we need to limit damage.\n    function pause() external onlyCEO whenNotPaused {\n        paused = true;\n    }\n\n    /// @dev Unpauses the smart contract. Can only be called by the CEO, since\n    ///  one reason we may pause the contract is when CMO account are\n    ///  compromised.\n    /// @notice This is public rather than external so it can be called by\n    ///  derived contracts.\n    function unpause() public onlyCEO whenPaused {\n        // can't unpause if contract was upgraded\n        paused = false;\n    }\n}\n",
  "sourcePath": "/Users/mehdi/code/dether/detherContracts/contracts/DetherAccessControl.sol",
  "compiler": {
    "name": "solc",
    "version": "0.4.23+commit.124ca40d.Emscripten.clang"
  },
  "schemaVersion": "2.0.0",
  "updatedAt": "2018-06-17T10:28:41.891Z"
}