{
  "contractName": "DetherInterface",
  "abi": [
    {
      "constant": true,
      "inputs": [],
      "name": "initialised",
      "outputs": [
        {
          "name": "",
          "type": "bool"
        }
      ],
      "payable": false,
      "stateMutability": "view",
      "type": "function"
    },
    {
      "constant": false,
      "inputs": [
        {
          "name": "_avatarId",
          "type": "int8"
        },
        {
          "name": "_currencyId",
          "type": "int8"
        },
        {
          "name": "_messagingAddr",
          "type": "bytes32"
        },
        {
          "name": "_messagingAddr2",
          "type": "bytes32"
        },
        {
          "name": "_rates",
          "type": "int16"
        }
      ],
      "name": "updateProfilePayable",
      "outputs": [],
      "payable": true,
      "stateMutability": "payable",
      "type": "function"
    },
    {
      "constant": true,
      "inputs": [
        {
          "name": "_teller",
          "type": "address"
        }
      ],
      "name": "getTellerStatus",
      "outputs": [
        {
          "name": "balance",
          "type": "uint256"
        },
        {
          "name": "status",
          "type": "bool"
        }
      ],
      "payable": false,
      "stateMutability": "view",
      "type": "function"
    },
    {
      "constant": false,
      "inputs": [],
      "name": "switchTellerOffline",
      "outputs": [],
      "payable": false,
      "stateMutability": "nonpayable",
      "type": "function"
    },
    {
      "constant": true,
      "inputs": [],
      "name": "tellerStorage",
      "outputs": [
        {
          "name": "",
          "type": "address"
        }
      ],
      "payable": false,
      "stateMutability": "view",
      "type": "function"
    },
    {
      "constant": false,
      "inputs": [],
      "name": "deleteMyProfile",
      "outputs": [],
      "payable": false,
      "stateMutability": "nonpayable",
      "type": "function"
    },
    {
      "constant": true,
      "inputs": [
        {
          "name": "_teller",
          "type": "address"
        }
      ],
      "name": "getTellerProfile",
      "outputs": [
        {
          "name": "avatarId",
          "type": "int8"
        },
        {
          "name": "currencyId",
          "type": "int8"
        },
        {
          "name": "messagingAddr",
          "type": "bytes32"
        },
        {
          "name": "messagingAddr2",
          "type": "bytes32"
        },
        {
          "name": "rate",
          "type": "int16"
        },
        {
          "name": "volumeSell",
          "type": "uint256"
        },
        {
          "name": "volumeBuy",
          "type": "uint256"
        },
        {
          "name": "nbTrade",
          "type": "uint256"
        },
        {
          "name": "balance",
          "type": "uint256"
        }
      ],
      "payable": false,
      "stateMutability": "view",
      "type": "function"
    },
    {
      "constant": false,
      "inputs": [
        {
          "name": "_lat",
          "type": "uint256"
        },
        {
          "name": "_lng",
          "type": "uint256"
        },
        {
          "name": "_countryCode",
          "type": "bytes32"
        },
        {
          "name": "_postalcode",
          "type": "int32"
        },
        {
          "name": "_avatarId",
          "type": "int8"
        },
        {
          "name": "_currencyId",
          "type": "int8"
        },
        {
          "name": "_messagingAddress",
          "type": "bytes32"
        },
        {
          "name": "_messagingAddress2",
          "type": "bytes32"
        },
        {
          "name": "_rates",
          "type": "int16"
        }
      ],
      "name": "registerTeller",
      "outputs": [],
      "payable": true,
      "stateMutability": "payable",
      "type": "function"
    },
    {
      "constant": true,
      "inputs": [],
      "name": "owner",
      "outputs": [
        {
          "name": "",
          "type": "address"
        }
      ],
      "payable": false,
      "stateMutability": "view",
      "type": "function"
    },
    {
      "constant": true,
      "inputs": [
        {
          "name": "_teller",
          "type": "address"
        }
      ],
      "name": "isTellerOnline",
      "outputs": [
        {
          "name": "",
          "type": "bool"
        }
      ],
      "payable": false,
      "stateMutability": "view",
      "type": "function"
    },
    {
      "constant": true,
      "inputs": [],
      "name": "limit",
      "outputs": [
        {
          "name": "",
          "type": "uint256"
        }
      ],
      "payable": false,
      "stateMutability": "view",
      "type": "function"
    },
    {
      "constant": false,
      "inputs": [],
      "name": "addBalance",
      "outputs": [],
      "payable": true,
      "stateMutability": "payable",
      "type": "function"
    },
    {
      "constant": false,
      "inputs": [
        {
          "name": "_lat",
          "type": "uint256"
        },
        {
          "name": "_lng",
          "type": "uint256"
        },
        {
          "name": "_countryCode",
          "type": "bytes32"
        },
        {
          "name": "_postalcode",
          "type": "int32"
        }
      ],
      "name": "updatePosition",
      "outputs": [],
      "payable": false,
      "stateMutability": "nonpayable",
      "type": "function"
    },
    {
      "constant": true,
      "inputs": [
        {
          "name": "_teller",
          "type": "address"
        }
      ],
      "name": "isRegistered",
      "outputs": [
        {
          "name": "status",
          "type": "bool"
        }
      ],
      "payable": false,
      "stateMutability": "view",
      "type": "function"
    },
    {
      "constant": true,
      "inputs": [
        {
          "name": "_address",
          "type": "address"
        }
      ],
      "name": "getTellerBalances",
      "outputs": [
        {
          "name": "",
          "type": "uint256"
        }
      ],
      "payable": false,
      "stateMutability": "view",
      "type": "function"
    },
    {
      "constant": false,
      "inputs": [],
      "name": "setInit",
      "outputs": [],
      "payable": false,
      "stateMutability": "nonpayable",
      "type": "function"
    },
    {
      "constant": false,
      "inputs": [
        {
          "name": "_lat",
          "type": "uint256"
        },
        {
          "name": "_lng",
          "type": "uint256"
        },
        {
          "name": "_countryCode",
          "type": "bytes32"
        },
        {
          "name": "_postalcode",
          "type": "int32"
        }
      ],
      "name": "updatePositionPayable",
      "outputs": [],
      "payable": true,
      "stateMutability": "payable",
      "type": "function"
    },
    {
      "constant": true,
      "inputs": [
        {
          "name": "_teller",
          "type": "address"
        }
      ],
      "name": "getTellerPos",
      "outputs": [
        {
          "name": "_lat",
          "type": "uint256"
        },
        {
          "name": "_lng",
          "type": "uint256"
        },
        {
          "name": "_countryId",
          "type": "bytes32"
        },
        {
          "name": "postalCode",
          "type": "int32"
        }
      ],
      "payable": false,
      "stateMutability": "view",
      "type": "function"
    },
    {
      "constant": false,
      "inputs": [
        {
          "name": "newOwner",
          "type": "address"
        }
      ],
      "name": "transferOwnership",
      "outputs": [],
      "payable": false,
      "stateMutability": "nonpayable",
      "type": "function"
    },
    {
      "constant": false,
      "inputs": [
        {
          "name": "_avatarId",
          "type": "int8"
        },
        {
          "name": "_currencyId",
          "type": "int8"
        },
        {
          "name": "_messagingAddr",
          "type": "bytes32"
        },
        {
          "name": "_messagingAddr2",
          "type": "bytes32"
        },
        {
          "name": "_rates",
          "type": "int16"
        }
      ],
      "name": "updateProfile",
      "outputs": [],
      "payable": false,
      "stateMutability": "nonpayable",
      "type": "function"
    },
    {
      "constant": false,
      "inputs": [
        {
          "name": "newLimit",
          "type": "uint256"
        }
      ],
      "name": "updateLimit",
      "outputs": [],
      "payable": false,
      "stateMutability": "nonpayable",
      "type": "function"
    },
    {
      "constant": false,
      "inputs": [
        {
          "name": "newOwner",
          "type": "address"
        }
      ],
      "name": "changeStorageOwnership",
      "outputs": [],
      "payable": false,
      "stateMutability": "nonpayable",
      "type": "function"
    },
    {
      "inputs": [
        {
          "name": "_tellerStorageAddress",
          "type": "address"
        }
      ],
      "payable": false,
      "stateMutability": "nonpayable",
      "type": "constructor"
    },
    {
      "anonymous": false,
      "inputs": [
        {
          "indexed": true,
          "name": "tellerAddress",
          "type": "address"
        }
      ],
      "name": "RegisterTeller",
      "type": "event"
    },
    {
      "anonymous": false,
      "inputs": [
        {
          "indexed": true,
          "name": "tellerAddress",
          "type": "address"
        }
      ],
      "name": "DeleteTeller",
      "type": "event"
    },
    {
      "anonymous": false,
      "inputs": [
        {
          "indexed": true,
          "name": "tellerAddress",
          "type": "address"
        }
      ],
      "name": "UpdateTeller",
      "type": "event"
    },
    {
      "anonymous": false,
      "inputs": [
        {
          "indexed": true,
          "name": "_from",
          "type": "address"
        },
        {
          "indexed": true,
          "name": "_to",
          "type": "address"
        },
        {
          "indexed": false,
          "name": "amount",
          "type": "uint256"
        }
      ],
      "name": "Send",
      "type": "event"
    },
    {
      "anonymous": false,
      "inputs": [
        {
          "indexed": true,
          "name": "previousOwner",
          "type": "address"
        },
        {
          "indexed": true,
          "name": "newOwner",
          "type": "address"
        }
      ],
      "name": "OwnershipTransferred",
      "type": "event"
    }
  ],
  "bytecode": "0x6060604052671bc16d674ec8000060025534156200001c57600080fd5b604051602080620025ab83398101604052620000429067800000000000000090620000fb565b336000806101000a81548173ffffffffffffffffffffffffffffffffffffffff021916908373ffffffffffffffffffffffffffffffffffffffff16021790555080600160006101000a81548173ffffffffffffffffffffffffffffffffffffffff021916908373ffffffffffffffffffffffffffffffffffffffff1602179055506001600060146101000a81548160ff0219169083151502179055505062000151565b6000620000f3825162000131565b905092915050565b600060208284031260018114620001125762000117565b600080fd5b5060006200012884828501620000e5565b91505092915050565b600073ffffffffffffffffffffffffffffffffffffffff82169050919050565b61244a80620001616000396000f300606060405260043610610128576000357c0100000000000000000000000000000000000000000000000000000000900463ffffffff16806307003bb41461012d578063146c2044146101565780632452b4721461016d578063418596da146101a457806343cb265e146101b957806343f3db45146101e25780634d9054d4146101f7578063699eaa3b146102355780638da5cb5b1461024c5780639d94558a14610275578063a4d66daf146102ab578063b163cc38146102d4578063b384aa4c146102de578063c3c5a54714610300578063cb9fc26b14610336578063d94b9b371461036c578063ef8b617614610381578063f07afb9e14610398578063f2fde38b146103d1578063fa6ac10f146103f3578063fae0959a14610415578063fe10fa3114610437575b600080fd5b341561013857600080fd5b610140610459565b60405161014d91906121f0565b60405180910390f35b61016b6004610166903690611e93565b61046c565b005b341561017857600080fd5b61018d6004610188903690611e61565b6106d0565b60405161019b9291906122ce565b60405180910390f35b34156101af57600080fd5b6101b7610795565b005b34156101c457600080fd5b6101cc61088f565b6040516101d9919061220b565b60405180910390f35b34156101ed57600080fd5b6101f56108b5565b005b341561020257600080fd5b6102176004610212903690611e61565b61099e565b60405161022c99989796959493929190612226565b60405180910390f35b61024a6004610245903690611fb1565b610c36565b005b341561025757600080fd5b61025f611027565b60405161026c91906120f8565b60405180910390f35b341561028057600080fd5b6102956004610290903690611e61565b61104c565b6040516102a291906121f0565b60405180910390f35b34156102b657600080fd5b6102be611109565b6040516102cb91906122b3565b60405180910390f35b6102dc61110f565b005b34156102e957600080fd5b6102fe60046102f9903690611f45565b6112c0565b005b341561030b57600080fd5b610320600461031b903690611e61565b61147b565b60405161032d91906121f0565b60405180910390f35b341561034157600080fd5b6103566004610351903690611e61565b61153b565b60405161036391906122b3565b60405180910390f35b341561037757600080fd5b61037f6115f8565b005b6103966004610391903690611f45565b611615565b005b34156103a357600080fd5b6103b860046103b3903690611e61565b611876565b6040516103c894939291906122f7565b60405180910390f35b34156103dc57600080fd5b6103f160046103ec903690611e61565b611951565b005b34156103fe57600080fd5b610413600461040e903690611e93565b611aa6565b005b341561042057600080fd5b6104356004610430903690611f13565b611c64565b005b341561044257600080fd5b6104576004610452903690611e61565b611cc9565b005b600060149054906101000a900460ff1681565b60011515600160009054906101000a900473ffffffffffffffffffffffffffffffffffffffff1673ffffffffffffffffffffffffffffffffffffffff166303e69146336000604051602001526040518263ffffffff167c01000000000000000000000000000000000000000000000000000000000281526004016104f091906120f8565b602060405180830381600087803b151561050957600080fd5b6102c65a03f1151561051a57600080fd5b50505060405180519050151514151561053257600080fd5b600160009054906101000a900473ffffffffffffffffffffffffffffffffffffffff1673ffffffffffffffffffffffffffffffffffffffff1663403bfbad3387878787876040518763ffffffff167c01000000000000000000000000000000000000000000000000000000000281526004016105b396959493929190612113565b600060405180830381600087803b15156105cc57600080fd5b6102c65a03f115156105dd57600080fd5b505050600160009054906101000a900473ffffffffffffffffffffffffffffffffffffffff1673ffffffffffffffffffffffffffffffffffffffff166321e5383a33346040518363ffffffff167c0100000000000000000000000000000000000000000000000000000000028152600401610659929190612174565b600060405180830381600087803b151561067257600080fd5b6102c65a03f1151561068357600080fd5b5050503373ffffffffffffffffffffffffffffffffffffffff167fe3df84c3ca6a90f0e6485beae08e7bd034695356bec32910a3d62559ff33fbc860405160405180910390a25050505050565b600080600160009054906101000a900473ffffffffffffffffffffffffffffffffffffffff1673ffffffffffffffffffffffffffffffffffffffff16632452b472846000604051604001526040518263ffffffff167c010000000000000000000000000000000000000000000000000000000002815260040161075391906120f8565b6040805180830381600087803b151561076b57600080fd5b6102c65a03f1151561077c57600080fd5b5050506040518051906020018051905091509150915091565b61079e3361104c565b15156107a657fe5b600160009054906101000a900473ffffffffffffffffffffffffffffffffffffffff1673ffffffffffffffffffffffffffffffffffffffff16631d26a99b336040518263ffffffff167c010000000000000000000000000000000000000000000000000000000002815260040161081d91906120f8565b600060405180830381600087803b151561083657600080fd5b6102c65a03f1151561084757600080fd5b5050503373ffffffffffffffffffffffffffffffffffffffff167fb1e40dcb43d26b3a6cb20da12c333af5a0de0bcd6264eddca5fbacf3e31d4f9460405160405180910390a2565b600160009054906101000a900473ffffffffffffffffffffffffffffffffffffffff1681565b600160009054906101000a900473ffffffffffffffffffffffffffffffffffffffff1673ffffffffffffffffffffffffffffffffffffffff1663a1cbad7e336040518263ffffffff167c010000000000000000000000000000000000000000000000000000000002815260040161092c91906120f8565b600060405180830381600087803b151561094557600080fd5b6102c65a03f1151561095657600080fd5b5050503373ffffffffffffffffffffffffffffffffffffffff167fb1e40dcb43d26b3a6cb20da12c333af5a0de0bcd6264eddca5fbacf3e31d4f9460405160405180910390a2565b6000806000806000806000806000600160009054906101000a900473ffffffffffffffffffffffffffffffffffffffff1673ffffffffffffffffffffffffffffffffffffffff166391976dcc8b600060405160a001526040518263ffffffff167c0100000000000000000000000000000000000000000000000000000000028152600401610a2c91906120f8565b60a060405180830381600087803b1515610a4557600080fd5b6102c65a03f11515610a5657600080fd5b50505060405180519060200180519060200180519060200180519060200180519050809950819a50829b50839c50849d505050505050600160009054906101000a900473ffffffffffffffffffffffffffffffffffffffff1673ffffffffffffffffffffffffffffffffffffffff166345cab4eb8b6000604051606001526040518263ffffffff167c0100000000000000000000000000000000000000000000000000000000028152600401610b0c91906120f8565b606060405180830381600087803b1515610b2557600080fd5b6102c65a03f11515610b3657600080fd5b50505060405180519060200180519060200180519050809450819550829650505050600160009054906101000a900473ffffffffffffffffffffffffffffffffffffffff1673ffffffffffffffffffffffffffffffffffffffff166359b17b438b6000604051602001526040518263ffffffff167c0100000000000000000000000000000000000000000000000000000000028152600401610bd891906120f8565b602060405180830381600087803b1515610bf157600080fd5b6102c65a03f11515610c0257600080fd5b5050506040518051905090508888888888888888889850985098509850985098509850985098509193959799909294969850565b600060011515600160009054906101000a900473ffffffffffffffffffffffffffffffffffffffff1673ffffffffffffffffffffffffffffffffffffffff166303e69146336000604051602001526040518263ffffffff167c0100000000000000000000000000000000000000000000000000000000028152600401610cbc91906120f8565b602060405180830381600087803b1515610cd557600080fd5b6102c65a03f11515610ce657600080fd5b50505060405180519050151514151515610cff57600080fd5b600160009054906101000a900473ffffffffffffffffffffffffffffffffffffffff1673ffffffffffffffffffffffffffffffffffffffff166359b17b43336000604051602001526040518263ffffffff167c0100000000000000000000000000000000000000000000000000000000028152600401610d7f91906120f8565b602060405180830381600087803b1515610d9857600080fd5b6102c65a03f11515610da957600080fd5b505050604051805190509050600254610dcb3483611dcb90919063ffffffff16565b11151515610dd857600080fd5b600160009054906101000a900473ffffffffffffffffffffffffffffffffffffffff1673ffffffffffffffffffffffffffffffffffffffff1663236cc4d7338c8c8c8c6040518663ffffffff167c0100000000000000000000000000000000000000000000000000000000028152600401610e5795949392919061219d565b600060405180830381600087803b1515610e7057600080fd5b6102c65a03f11515610e8157600080fd5b505050600160009054906101000a900473ffffffffffffffffffffffffffffffffffffffff1673ffffffffffffffffffffffffffffffffffffffff1663403bfbad3388888888886040518763ffffffff167c0100000000000000000000000000000000000000000000000000000000028152600401610f0596959493929190612113565b600060405180830381600087803b1515610f1e57600080fd5b6102c65a03f11515610f2f57600080fd5b505050600160009054906101000a900473ffffffffffffffffffffffffffffffffffffffff1673ffffffffffffffffffffffffffffffffffffffff166321e5383a33346040518363ffffffff167c0100000000000000000000000000000000000000000000000000000000028152600401610fab929190612174565b600060405180830381600087803b1515610fc457600080fd5b6102c65a03f11515610fd557600080fd5b5050503373ffffffffffffffffffffffffffffffffffffffff167fdc94eebf39359cb097be68bd4890a58fce65c66d2d284d4349f666013dc8a43d60405160405180910390a250505050505050505050565b6000809054906101000a900473ffffffffffffffffffffffffffffffffffffffff1681565b6000600160009054906101000a900473ffffffffffffffffffffffffffffffffffffffff1673ffffffffffffffffffffffffffffffffffffffff166303e69146836000604051602001526040518263ffffffff167c01000000000000000000000000000000000000000000000000000000000281526004016110ce91906120f8565b602060405180830381600087803b15156110e757600080fd5b6102c65a03f115156110f857600080fd5b505050604051805190509050919050565b60025481565b60011515600160009054906101000a900473ffffffffffffffffffffffffffffffffffffffff1673ffffffffffffffffffffffffffffffffffffffff166303e69146336000604051602001526040518263ffffffff167c010000000000000000000000000000000000000000000000000000000002815260040161119391906120f8565b602060405180830381600087803b15156111ac57600080fd5b6102c65a03f115156111bd57600080fd5b5050506040518051905015151415156111d557600080fd5b600160009054906101000a900473ffffffffffffffffffffffffffffffffffffffff1673ffffffffffffffffffffffffffffffffffffffff166321e5383a33346040518363ffffffff167c010000000000000000000000000000000000000000000000000000000002815260040161124e929190612174565b600060405180830381600087803b151561126757600080fd5b6102c65a03f1151561127857600080fd5b5050503373ffffffffffffffffffffffffffffffffffffffff167fe3df84c3ca6a90f0e6485beae08e7bd034695356bec32910a3d62559ff33fbc860405160405180910390a2565b60011515600160009054906101000a900473ffffffffffffffffffffffffffffffffffffffff1673ffffffffffffffffffffffffffffffffffffffff166303e69146336000604051602001526040518263ffffffff167c010000000000000000000000000000000000000000000000000000000002815260040161134491906120f8565b602060405180830381600087803b151561135d57600080fd5b6102c65a03f1151561136e57600080fd5b50505060405180519050151514151561138657600080fd5b600160009054906101000a900473ffffffffffffffffffffffffffffffffffffffff1673ffffffffffffffffffffffffffffffffffffffff1663236cc4d733868686866040518663ffffffff167c010000000000000000000000000000000000000000000000000000000002815260040161140595949392919061219d565b600060405180830381600087803b151561141e57600080fd5b6102c65a03f1151561142f57600080fd5b5050503373ffffffffffffffffffffffffffffffffffffffff167fe3df84c3ca6a90f0e6485beae08e7bd034695356bec32910a3d62559ff33fbc860405160405180910390a250505050565b6000600160009054906101000a900473ffffffffffffffffffffffffffffffffffffffff1673ffffffffffffffffffffffffffffffffffffffff1663fac8a800836000604051602001526040518263ffffffff167c01000000000000000000000000000000000000000000000000000000000281526004016114fd91906120f8565b602060405180830381600087803b151561151657600080fd5b6102c65a03f1151561152757600080fd5b505050604051805190509050809050919050565b6000600160009054906101000a900473ffffffffffffffffffffffffffffffffffffffff1673ffffffffffffffffffffffffffffffffffffffff166359b17b43836000604051602001526040518263ffffffff167c01000000000000000000000000000000000000000000000000000000000281526004016115bd91906120f8565b602060405180830381600087803b15156115d657600080fd5b6102c65a03f115156115e757600080fd5b505050604051805190509050919050565b6001600060146101000a81548160ff021916908315150217905550565b60011515600160009054906101000a900473ffffffffffffffffffffffffffffffffffffffff1673ffffffffffffffffffffffffffffffffffffffff166303e69146336000604051602001526040518263ffffffff167c010000000000000000000000000000000000000000000000000000000002815260040161169991906120f8565b602060405180830381600087803b15156116b257600080fd5b6102c65a03f115156116c357600080fd5b5050506040518051905015151415156116db57600080fd5b600160009054906101000a900473ffffffffffffffffffffffffffffffffffffffff1673ffffffffffffffffffffffffffffffffffffffff1663236cc4d733868686866040518663ffffffff167c010000000000000000000000000000000000000000000000000000000002815260040161175a95949392919061219d565b600060405180830381600087803b151561177357600080fd5b6102c65a03f1151561178457600080fd5b505050600160009054906101000a900473ffffffffffffffffffffffffffffffffffffffff1673ffffffffffffffffffffffffffffffffffffffff166321e5383a33346040518363ffffffff167c0100000000000000000000000000000000000000000000000000000000028152600401611800929190612174565b600060405180830381600087803b151561181957600080fd5b6102c65a03f1151561182a57600080fd5b5050503373ffffffffffffffffffffffffffffffffffffffff167fe3df84c3ca6a90f0e6485beae08e7bd034695356bec32910a3d62559ff33fbc860405160405180910390a250505050565b600080600080600160009054906101000a900473ffffffffffffffffffffffffffffffffffffffff1673ffffffffffffffffffffffffffffffffffffffff1663375160bf866000604051608001526040518263ffffffff167c01000000000000000000000000000000000000000000000000000000000281526004016118fc91906120f8565b608060405180830381600087803b151561191557600080fd5b6102c65a03f1151561192657600080fd5b5050506040518051906020018051906020018051906020018051905093509350935093509193509193565b6000809054906101000a900473ffffffffffffffffffffffffffffffffffffffff1673ffffffffffffffffffffffffffffffffffffffff163373ffffffffffffffffffffffffffffffffffffffff161415156119ac57600080fd5b600073ffffffffffffffffffffffffffffffffffffffff168173ffffffffffffffffffffffffffffffffffffffff16141515156119e857600080fd5b8073ffffffffffffffffffffffffffffffffffffffff166000809054906101000a900473ffffffffffffffffffffffffffffffffffffffff1673ffffffffffffffffffffffffffffffffffffffff167f8be0079c531659141344cd1fd0a4f28419497f9722a3daafe3b4186f6b6457e060405160405180910390a3806000806101000a81548173ffffffffffffffffffffffffffffffffffffffff021916908373ffffffffffffffffffffffffffffffffffffffff16021790555050565b60011515600160009054906101000a900473ffffffffffffffffffffffffffffffffffffffff1673ffffffffffffffffffffffffffffffffffffffff166303e69146336000604051602001526040518263ffffffff167c0100000000000000000000000000000000000000000000000000000000028152600401611b2a91906120f8565b602060405180830381600087803b1515611b4357600080fd5b6102c65a03f11515611b5457600080fd5b505050604051805190501515141515611b6c57600080fd5b600160009054906101000a900473ffffffffffffffffffffffffffffffffffffffff1673ffffffffffffffffffffffffffffffffffffffff1663403bfbad3387878787876040518763ffffffff167c0100000000000000000000000000000000000000000000000000000000028152600401611bed96959493929190612113565b600060405180830381600087803b1515611c0657600080fd5b6102c65a03f11515611c1757600080fd5b5050503373ffffffffffffffffffffffffffffffffffffffff167fe3df84c3ca6a90f0e6485beae08e7bd034695356bec32910a3d62559ff33fbc860405160405180910390a25050505050565b6000809054906101000a900473ffffffffffffffffffffffffffffffffffffffff1673ffffffffffffffffffffffffffffffffffffffff163373ffffffffffffffffffffffffffffffffffffffff16141515611cbf57600080fd5b8060028190555050565b6000809054906101000a900473ffffffffffffffffffffffffffffffffffffffff1673ffffffffffffffffffffffffffffffffffffffff163373ffffffffffffffffffffffffffffffffffffffff16141515611d2457600080fd5b600160009054906101000a900473ffffffffffffffffffffffffffffffffffffffff1673ffffffffffffffffffffffffffffffffffffffff1663f2fde38b826040518263ffffffff167c0100000000000000000000000000000000000000000000000000000000028152600401611d9b91906120f8565b600060405180830381600087803b1515611db457600080fd5b6102c65a03f11515611dc557600080fd5b50505050565b6000808284019050838110151515611ddf57fe5b8091505092915050565b6000611df582356123a3565b905092915050565b6000611e0982356123c3565b905092915050565b6000611e1d82356123cd565b905092915050565b6000611e3182356123da565b905092915050565b6000611e4582356123e7565b905092915050565b6000611e5982356123f4565b905092915050565b600060208284031260018114611e7657611e7b565b600080fd5b506000611e8a84828501611de9565b91505092915050565b600080600080600060a08688031260018114611eae57611eb3565b600080fd5b506000611ec288828901611e39565b9550506020611ed388828901611e39565b9450506040611ee488828901611dfd565b9350506060611ef588828901611dfd565b9250506080611f0688828901611e11565b9150509295509295909350565b600060208284031260018114611f2857611f2d565b600080fd5b506000611f3c84828501611e4d565b91505092915050565b60008060008060808587031260018114611f5e57611f63565b600080fd5b506000611f7287828801611e4d565b9450506020611f8387828801611e4d565b9350506040611f9487828801611dfd565b9250506060611fa587828801611e25565b91505092959194509250565b60008060008060008060008060006101208a8c031260018114611fd357611fd8565b600080fd5b506000611fe78c828d01611e4d565b9950506020611ff88c828d01611e4d565b98505060406120098c828d01611dfd565b975050606061201a8c828d01611e25565b965050608061202b8c828d01611e39565b95505060a061203c8c828d01611e39565b94505060c061204d8c828d01611dfd565b93505060e061205e8c828d01611dfd565b9250506101006120708c828d01611e11565b9150509295985092959850929598565b6120898161233c565b82525050565b6120988161235c565b82525050565b6120a781612368565b82525050565b6120b6816123fe565b82525050565b6120c581612372565b82525050565b6120d48161237f565b82525050565b6120e38161238c565b82525050565b6120f281612399565b82525050565b600060208201905061210d6000830184612080565b92915050565b600060c0820190506121286000830189612080565b61213560208301886120da565b61214260408301876120da565b61214f606083018661209e565b61215c608083018561209e565b61216960a08301846120bc565b979650505050505050565b60006040820190506121896000830185612080565b61219660208301846120e9565b9392505050565b600060a0820190506121b26000830188612080565b6121bf60208301876120e9565b6121cc60408301866120e9565b6121d9606083018561209e565b6121e660808301846120cb565b9695505050505050565b6000602082019050612205600083018461208f565b92915050565b600060208201905061222060008301846120ad565b92915050565b60006101208201905061223c600083018c6120da565b612249602083018b6120da565b612256604083018a61209e565b612263606083018961209e565b61227060808301886120bc565b61227d60a08301876120e9565b61228a60c08301866120e9565b61229760e08301856120e9565b6122a56101008301846120e9565b9a9950505050505050505050565b60006020820190506122c860008301846120e9565b92915050565b60006040820190506122e360008301856120e9565b6122f0602083018461208f565b9392505050565b600060808201905061230c60008301876120e9565b61231960208301866120e9565b612326604083018561209e565b61233360608301846120cb565b95945050505050565b600073ffffffffffffffffffffffffffffffffffffffff82169050919050565b60008115159050919050565b6000819050919050565b60008160010b9050919050565b60008160030b9050919050565b60008160000b9050919050565b6000819050919050565b600073ffffffffffffffffffffffffffffffffffffffff82169050919050565b6000819050919050565b60008160010b9050919050565b60008160030b9050919050565b60008160000b9050919050565b6000819050919050565b60006124098261233c565b90509190505600a265627a7a723058207cbacbe044d474482e7b5c3cc47bffda10a51e95861d9cd939c354dac43002036c6578706572696d656e74616cf50037",
  "source": "pragma solidity ^0.4.19;\npragma experimental ABIEncoderV2;\n\nimport 'zeppelin-solidity/contracts/ownership/Ownable.sol';\nimport 'zeppelin-solidity/contracts/math/SafeMath.sol';\nimport './DetherTellerStorage.sol';\n\n// TODO\n// NEED DTH TO DEPOSIT AND TRADE\n// MINT LOYALTY WHEN TRADE\n\ncontract DetherInterface is Ownable {\n  using SafeMath for uint256;\n  bool public initialised;\n  DetherTellerStorage public tellerStorage;\n  uint public limit = 2 ether;\n\n  event RegisterTeller(address indexed tellerAddress);\n  event DeleteTeller(address indexed tellerAddress);\n  event UpdateTeller(address indexed tellerAddress);\n  event Send(address indexed _from, address indexed _to, uint amount);\n\n// modifier\n  modifier isLockedForInitialMigration() {\n    require(!initialised);\n    _;\n  }\n\n  modifier isNotLockedForInitialMigration() {\n    require(initialised);\n    _;\n  }\n\n  function setInit() public  {\n    initialised = true;\n  }\n\n  function DetherInterface(address _tellerStorageAddress) public {\n    tellerStorage = DetherTellerStorage(_tellerStorageAddress);\n    initialised = true;\n    // initialised = false;\n  }\n  function updateLimit(uint newLimit)  public onlyOwner {\n    limit = newLimit;\n  }\n\n  /// @notice Register a teller\n  /// @dev gasUsed: 299600\n  function registerTeller(\n    uint _lat,\n    uint _lng,\n    bytes32 _countryCode,\n    int32 _postalcode,\n    int8 _avatarId,\n    int8 _currencyId,\n    bytes32 _messagingAddress,\n    bytes32 _messagingAddress2,\n    int16 _rates\n    ) public payable  {\n      // Conditions\n      require(tellerStorage.isOnline(msg.sender) != true);\n      uint bal = tellerStorage.getTellerBalance(msg.sender);\n      require(bal.add(msg.value) <= limit);\n      tellerStorage.setTellerPosition(msg.sender, _lat, _lng, _countryCode, _postalcode);\n      tellerStorage.setTellerProfile(msg.sender, _avatarId, _currencyId, _messagingAddress,_messagingAddress2, _rates);\n      tellerStorage.addBalance(msg.sender, msg.value); // send money\n\n      RegisterTeller(msg.sender);\n  }\n\n  function switchTellerOffline() public {\n    // delete point on map and messagery\n    assert(isTellerOnline(msg.sender));\n    tellerStorage.turnOffline(msg.sender);\n    // withdraw fund\n    // unstack token\n    DeleteTeller(msg.sender);\n  }\n\n  function updateProfile(\n    int8 _avatarId,\n    int8 _currencyId,\n    bytes32 _messagingAddr,\n    bytes32 _messagingAddr2,\n    int16 _rates\n    ) public {\n      require(tellerStorage.isOnline(msg.sender) == true);\n      tellerStorage.setTellerProfile(msg.sender, _avatarId, _currencyId, _messagingAddr,_messagingAddr2, _rates);\n      UpdateTeller(msg.sender);\n    }\n\n    function updateProfilePayable(\n      int8 _avatarId,\n      int8 _currencyId,\n      bytes32 _messagingAddr,\n      bytes32 _messagingAddr2,\n      int16 _rates\n      ) public payable{\n        require(tellerStorage.isOnline(msg.sender) == true);\n        tellerStorage.setTellerProfile(msg.sender, _avatarId, _currencyId, _messagingAddr,_messagingAddr2, _rates);\n        tellerStorage.addBalance(msg.sender, msg.value); // send money\n        UpdateTeller(msg.sender);\n      }\n\n    function updatePosition(\n      uint _lat,\n      uint _lng,\n      bytes32 _countryCode,\n      int32 _postalcode\n      ) public {\n        require(tellerStorage.isOnline(msg.sender) == true);\n        tellerStorage.setTellerPosition(msg.sender, _lat, _lng, _countryCode, _postalcode);\n        UpdateTeller(msg.sender);\n      }\n\n    function updatePositionPayable(\n      uint _lat,\n      uint _lng,\n      bytes32 _countryCode,\n      int32 _postalcode\n      ) public payable{\n        require(tellerStorage.isOnline(msg.sender) == true);\n        tellerStorage.setTellerPosition(msg.sender, _lat, _lng, _countryCode, _postalcode);\n        tellerStorage.addBalance(msg.sender, msg.value); // send money\n        UpdateTeller(msg.sender);\n      }\n\n    function addBalance() public payable {\n      require(tellerStorage.isOnline(msg.sender) == true);\n      tellerStorage.addBalance(msg.sender, msg.value); // send money\n      UpdateTeller(msg.sender);\n    }\n\n  function isRegistered(address _teller) public view returns (bool status){\n    status = tellerStorage.isTeller(_teller);\n    return status;\n  }\n\n  function deleteMyProfile() {\n    // delete all info\n    // keep loyalty\n    tellerStorage.deleteTeller(msg.sender);\n    DeleteTeller(msg.sender);\n    // withdraw\n  }\n\n\n  /*function importTellers(\n    int256 _lat,\n    int256 _lng,\n    uint _zoneId,\n    int16 _rate,\n    int8 _avatarId,\n    int8 _currencyId,\n    bytes32 _messagingAddress,\n    bytes32 _name,\n    uint _balance\n    ) public onlyOwner isLockedForInitialMigration {\n    tellerStorage.setTellerIndex(msg.sender);\n    tellerStorage.setTellerZone(msg.sender, _zoneId);\n    tellerStorage.setTellerPosition(msg.sender, _lat, _lng, _zoneId);\n    tellerStorage.setTellerProfile(msg.sender, _avatarId, _currencyId, _messagingAddress, _name, _rate);\n    tellerStorage.setTellerBalance(msg.sender, _balance);\n  }*/\n\n  function changeStorageOwnership(address newOwner) public onlyOwner {\n    tellerStorage.transferOwnership(newOwner);\n  }\n\n  function getTellerPos(address _teller) public view returns (uint _lat, uint _lng, bytes32 _countryId, int32 postalCode) {\n    return tellerStorage.getTellerPositionRaw(_teller);\n}\n\n  /*function getTeller(address _teller) public view returns (Teller) {\n    return tellerStorage.getTeller(_teller);\n  }*/\n\n  function getTellerProfile(address _teller) public view returns (\n    int8 avatarId,\n    int8 currencyId,\n    bytes32 messagingAddr,\n    bytes32 messagingAddr2,\n    int16 rate,\n    uint volumeSell,\n    uint volumeBuy,\n    uint nbTrade,\n    uint balance\n    ) {\n      (avatarId, currencyId, messagingAddr, messagingAddr2, rate) = tellerStorage.getTellerProfileRaw(_teller);\n      (volumeSell,volumeBuy,nbTrade) = tellerStorage.getTellerReputationRaw(_teller);\n      balance = tellerStorage.getTellerBalance(_teller);\n      return (avatarId, currencyId, messagingAddr, messagingAddr2, rate, volumeSell,volumeBuy,nbTrade, balance);\n  }\n\n  function getTellerStatus(address _teller) public view returns (uint balance, bool status) {\n    return tellerStorage.getTellerStatus(_teller);\n  }\n\n  function isTellerOnline(address _teller) public view returns (bool) {\n    return tellerStorage.isOnline(_teller);\n  }\n  /// @notice Sendcoin allow seller to send ether they put in escrow in the smart contract\n  /// @dev gasUsed: 96681\n  /*function sendCoin (address _receiver, uint _amount) public isNotLockedForInitialMigration returns (bool) {\n    require(_receiver != msg.sender);\n    uint tellerBalance = tellerStorage.getTellerBalance(msg.sender);\n    require(tellerBalance >= _amount);\n    tellerStorage.setTellerBalance(msg.sender, tellerBalance.sub(_amount));\n\n    var (nbTrade, volumeTrade) = tellerStorage.getTellerReputation(msg.sender);\n    tellerStorage.setTellerReputation(msg.sender, ++nbTrade, volumeTrade.add(_amount));\n\n    tellerStorage.releaseEth(_receiver, _amount);\n    var (lat, lng,) = tellerStorage.getTellerPosition(msg.sender);\n    Send(msg.sender, _receiver, _amount, lat, lng);\n    return true;\n  }*/\n\n\n\n  /// @notice Getter to retrieve balance\n  function getTellerBalances(address _address) public view returns (uint) {\n    return tellerStorage.getTellerBalance(_address);\n  }\n}\n",
  "sourcePath": "/Users/mehdi/code/dether/dethercontracts/contracts/DetherInterface.sol",
  "compiler": {
    "name": "solc",
    "version": "0.4.19+commit.c4cbbb05.Emscripten.clang"
  },
  "schemaVersion": "1.0.1",
  "updatedAt": "2018-01-04T18:27:20.865Z"
}