{
  "contractName": "DetherTellerStorage",
  "abi": [
    {
      "constant": true,
      "inputs": [
        {
          "name": "_teller",
          "type": "address"
        }
      ],
      "name": "isOnline",
      "outputs": [
        {
          "name": "",
          "type": "bool"
        }
      ],
      "payable": false,
      "stateMutability": "view",
      "type": "function"
    },
    {
      "constant": false,
      "inputs": [
        {
          "name": "amount",
          "type": "uint256"
        },
        {
          "name": "_sender",
          "type": "address"
        },
        {
          "name": "_receiver",
          "type": "address"
        }
      ],
      "name": "setReput",
      "outputs": [],
      "payable": false,
      "stateMutability": "nonpayable",
      "type": "function"
    },
    {
      "constant": false,
      "inputs": [
        {
          "name": "_address",
          "type": "address"
        }
      ],
      "name": "turnOffline",
      "outputs": [],
      "payable": false,
      "stateMutability": "nonpayable",
      "type": "function"
    },
    {
      "constant": false,
      "inputs": [
        {
          "name": "_address",
          "type": "address"
        },
        {
          "name": "_amount",
          "type": "uint256"
        }
      ],
      "name": "addBalance",
      "outputs": [],
      "payable": false,
      "stateMutability": "nonpayable",
      "type": "function"
    },
    {
      "constant": false,
      "inputs": [
        {
          "name": "_address",
          "type": "address"
        },
        {
          "name": "lat",
          "type": "uint256"
        },
        {
          "name": "lng",
          "type": "uint256"
        },
        {
          "name": "countryId",
          "type": "bytes32"
        },
        {
          "name": "postalCode",
          "type": "int32"
        }
      ],
      "name": "setTellerPosition",
      "outputs": [],
      "payable": false,
      "stateMutability": "nonpayable",
      "type": "function"
    },
    {
      "constant": true,
      "inputs": [
        {
          "name": "_teller",
          "type": "address"
        }
      ],
      "name": "getTellerStatus",
      "outputs": [
        {
          "name": "balance",
          "type": "uint256"
        },
        {
          "name": "status",
          "type": "bool"
        }
      ],
      "payable": false,
      "stateMutability": "view",
      "type": "function"
    },
    {
      "constant": false,
      "inputs": [
        {
          "name": "_receiver",
          "type": "address"
        },
        {
          "name": "_amount",
          "type": "uint256"
        }
      ],
      "name": "releaseEth",
      "outputs": [
        {
          "name": "",
          "type": "bool"
        }
      ],
      "payable": false,
      "stateMutability": "nonpayable",
      "type": "function"
    },
    {
      "constant": true,
      "inputs": [
        {
          "name": "_teller",
          "type": "address"
        }
      ],
      "name": "getTellerPositionRaw",
      "outputs": [
        {
          "name": "lat",
          "type": "uint256"
        },
        {
          "name": "lng",
          "type": "uint256"
        },
        {
          "name": "countryId",
          "type": "bytes32"
        },
        {
          "name": "postalCode",
          "type": "int32"
        }
      ],
      "payable": false,
      "stateMutability": "view",
      "type": "function"
    },
    {
      "constant": false,
      "inputs": [
        {
          "name": "_address",
          "type": "address"
        },
        {
          "name": "_avatarId",
          "type": "int8"
        },
        {
          "name": "_currencyId",
          "type": "int8"
        },
        {
          "name": "_messagingAddr",
          "type": "bytes32"
        },
        {
          "name": "_messagingAddr2",
          "type": "bytes32"
        },
        {
          "name": "_rates",
          "type": "int16"
        }
      ],
      "name": "setTellerProfile",
      "outputs": [],
      "payable": false,
      "stateMutability": "nonpayable",
      "type": "function"
    },
    {
      "constant": true,
      "inputs": [
        {
          "name": "_teller",
          "type": "address"
        }
      ],
      "name": "getTellerReputationRaw",
      "outputs": [
        {
          "name": "volumeSell",
          "type": "uint256"
        },
        {
          "name": "volumeBuy",
          "type": "uint256"
        },
        {
          "name": "nbTrade",
          "type": "uint256"
        }
      ],
      "payable": false,
      "stateMutability": "view",
      "type": "function"
    },
    {
      "constant": true,
      "inputs": [],
      "name": "getTellerCount",
      "outputs": [
        {
          "name": "",
          "type": "uint256"
        }
      ],
      "payable": false,
      "stateMutability": "view",
      "type": "function"
    },
    {
      "constant": true,
      "inputs": [],
      "name": "getAllTellers",
      "outputs": [
        {
          "name": "",
          "type": "address[]"
        }
      ],
      "payable": false,
      "stateMutability": "view",
      "type": "function"
    },
    {
      "constant": true,
      "inputs": [
        {
          "name": "_index",
          "type": "uint256"
        }
      ],
      "name": "getTellerAtIndex",
      "outputs": [
        {
          "name": "",
          "type": "address"
        }
      ],
      "payable": false,
      "stateMutability": "view",
      "type": "function"
    },
    {
      "constant": true,
      "inputs": [
        {
          "name": "_country",
          "type": "bytes32"
        },
        {
          "name": "_postalcode",
          "type": "int32"
        }
      ],
      "name": "getZone",
      "outputs": [
        {
          "name": "",
          "type": "address[]"
        }
      ],
      "payable": false,
      "stateMutability": "view",
      "type": "function"
    },
    {
      "constant": true,
      "inputs": [
        {
          "name": "_address",
          "type": "address"
        }
      ],
      "name": "getTellerBalance",
      "outputs": [
        {
          "name": "",
          "type": "uint256"
        }
      ],
      "payable": false,
      "stateMutability": "view",
      "type": "function"
    },
    {
      "constant": true,
      "inputs": [
        {
          "name": "_teller",
          "type": "address"
        }
      ],
      "name": "getGeneralIndex",
      "outputs": [
        {
          "name": "rank",
          "type": "uint256"
        }
      ],
      "payable": false,
      "stateMutability": "view",
      "type": "function"
    },
    {
      "constant": false,
      "inputs": [
        {
          "name": "commentHash",
          "type": "bytes"
        },
        {
          "name": "from",
          "type": "address"
        },
        {
          "name": "to",
          "type": "address"
        }
      ],
      "name": "addComment",
      "outputs": [],
      "payable": false,
      "stateMutability": "nonpayable",
      "type": "function"
    },
    {
      "constant": true,
      "inputs": [
        {
          "name": "",
          "type": "uint256"
        }
      ],
      "name": "tellers",
      "outputs": [
        {
          "name": "",
          "type": "address"
        }
      ],
      "payable": false,
      "stateMutability": "view",
      "type": "function"
    },
    {
      "constant": true,
      "inputs": [],
      "name": "owner",
      "outputs": [
        {
          "name": "",
          "type": "address"
        }
      ],
      "payable": false,
      "stateMutability": "view",
      "type": "function"
    },
    {
      "constant": true,
      "inputs": [
        {
          "name": "_teller",
          "type": "address"
        }
      ],
      "name": "getTellerComment",
      "outputs": [
        {
          "name": "",
          "type": "bytes[]"
        }
      ],
      "payable": false,
      "stateMutability": "view",
      "type": "function"
    },
    {
      "constant": true,
      "inputs": [
        {
          "name": "_teller",
          "type": "address"
        }
      ],
      "name": "getTellerProfileRaw",
      "outputs": [
        {
          "name": "avatarId",
          "type": "int8"
        },
        {
          "name": "currencyId",
          "type": "int8"
        },
        {
          "name": "messagingAddr",
          "type": "bytes32"
        },
        {
          "name": "messagingAddr2",
          "type": "bytes32"
        },
        {
          "name": "rate",
          "type": "int16"
        }
      ],
      "payable": false,
      "stateMutability": "view",
      "type": "function"
    },
    {
      "constant": true,
      "inputs": [
        {
          "name": "",
          "type": "uint256"
        }
      ],
      "name": "tellerIndex",
      "outputs": [
        {
          "name": "",
          "type": "address"
        }
      ],
      "payable": false,
      "stateMutability": "view",
      "type": "function"
    },
    {
      "constant": false,
      "inputs": [
        {
          "name": "_address",
          "type": "address"
        }
      ],
      "name": "deleteTeller",
      "outputs": [],
      "payable": false,
      "stateMutability": "nonpayable",
      "type": "function"
    },
    {
      "constant": false,
      "inputs": [
        {
          "name": "newOwner",
          "type": "address"
        }
      ],
      "name": "transferOwnership",
      "outputs": [],
      "payable": false,
      "stateMutability": "nonpayable",
      "type": "function"
    },
    {
      "constant": true,
      "inputs": [
        {
          "name": "_teller",
          "type": "address"
        }
      ],
      "name": "getCommentRight",
      "outputs": [
        {
          "name": "",
          "type": "bool"
        }
      ],
      "payable": false,
      "stateMutability": "view",
      "type": "function"
    },
    {
      "constant": true,
      "inputs": [
        {
          "name": "_teller",
          "type": "address"
        }
      ],
      "name": "isTeller",
      "outputs": [
        {
          "name": "isIndeed",
          "type": "bool"
        }
      ],
      "payable": false,
      "stateMutability": "view",
      "type": "function"
    },
    {
      "anonymous": false,
      "inputs": [
        {
          "indexed": false,
          "name": "_log",
          "type": "string"
        }
      ],
      "name": "TempLog",
      "type": "event"
    },
    {
      "anonymous": false,
      "inputs": [
        {
          "indexed": false,
          "name": "_log",
          "type": "uint256"
        }
      ],
      "name": "TempLogInt",
      "type": "event"
    },
    {
      "anonymous": false,
      "inputs": [
        {
          "indexed": true,
          "name": "previousOwner",
          "type": "address"
        },
        {
          "indexed": true,
          "name": "newOwner",
          "type": "address"
        }
      ],
      "name": "OwnershipTransferred",
      "type": "event"
    }
  ],
  "bytecode": "0x6060604052336000806101000a81548173ffffffffffffffffffffffffffffffffffffffff021916908373ffffffffffffffffffffffffffffffffffffffff160217905550612da9806100536000396000f300606060405260043610610154576000357c0100000000000000000000000000000000000000000000000000000000900463ffffffff16806303e69146146101595780630c681544146101a65780631d26a99b1461020757806321e5383a14610240578063236cc4d7146102825780632452b472146102e657806334c696b114610334578063375160bf1461038a578063403bfbad146103da57806345cab4eb146104515780634e910d1a146104a05780634f4cd650146104c9578063571702f4146104f257806359304fef1461052957806359b17b431461057057806360906c3f146105bd578063667f748f1461060a57806371682c56146106a55780638da5cb5b146106dc5780638fb53ad81461070557806391976dcc1461075257806395d43eea146107a3578063a1cbad7e146107da578063f2fde38b14610813578063fa3e6b721461084c578063fac8a80014610899575b600080fd5b341561016457600080fd5b610190600480803573ffffffffffffffffffffffffffffffffffffffff169060200190919050506108e6565b60405161019d9190612b38565b60405180910390f35b34156101b157600080fd5b610205600480803590602001909190803573ffffffffffffffffffffffffffffffffffffffff1690602001909190803573ffffffffffffffffffffffffffffffffffffffff1690602001909190505061093f565b005b341561021257600080fd5b61023e600480803573ffffffffffffffffffffffffffffffffffffffff16906020019091905050610bce565b005b341561024b57600080fd5b610280600480803573ffffffffffffffffffffffffffffffffffffffff16906020019091908035906020019091905050610c99565b005b341561028d57600080fd5b6102e4600480803573ffffffffffffffffffffffffffffffffffffffff169060200190919080359060200190919080359060200190919080356000191690602001909190803560030b906020019091905050610d48565b005b34156102f157600080fd5b61031d600480803573ffffffffffffffffffffffffffffffffffffffff16906020019091905050611015565b60405161032b929190612bc1565b60405180910390f35b341561033f57600080fd5b610374600480803573ffffffffffffffffffffffffffffffffffffffff169060200190919080359060200190919050506110b4565b6040516103819190612b38565b60405180910390f35b341561039557600080fd5b6103c1600480803573ffffffffffffffffffffffffffffffffffffffff16906020019091905050611157565b6040516103d19493929190612bea565b60405180910390f35b34156103e557600080fd5b61044f600480803573ffffffffffffffffffffffffffffffffffffffff1690602001909190803560000b90602001909190803560000b906020019091908035600019169060200190919080356000191690602001909190803560010b906020019091905050611291565b005b341561045c57600080fd5b610488600480803573ffffffffffffffffffffffffffffffffffffffff16906020019091905050611515565b60405161049793929190612c2f565b60405180910390f35b34156104ab57600080fd5b6104b36115f9565b6040516104c09190612ba6565b60405180910390f35b34156104d457600080fd5b6104dc611606565b6040516104e99190612af4565b60405180910390f35b34156104fd57600080fd5b610513600480803590602001909190505061169a565b6040516105209190612ad9565b60405180910390f35b341561053457600080fd5b61055a60048080356000191690602001909190803560030b9060200190919050506116de565b6040516105679190612af4565b60405180910390f35b341561057b57600080fd5b6105a7600480803573ffffffffffffffffffffffffffffffffffffffff169060200190919050506117a5565b6040516105b49190612ba6565b60405180910390f35b34156105c857600080fd5b6105f4600480803573ffffffffffffffffffffffffffffffffffffffff169060200190919050506117f1565b6040516106019190612ba6565b60405180910390f35b341561061557600080fd5b6106a3600480803590602001908201803590602001908080601f0160208091040260200160405190810160405280939291908181526020018383808284378201915050505050509190803573ffffffffffffffffffffffffffffffffffffffff1690602001909190803573ffffffffffffffffffffffffffffffffffffffff1690602001909190505061183d565b005b34156106b057600080fd5b6106c660048080359060200190919050506119be565b6040516106d39190612ad9565b60405180910390f35b34156106e757600080fd5b6106ef6119fd565b6040516106fc9190612ad9565b60405180910390f35b341561071057600080fd5b61073c600480803573ffffffffffffffffffffffffffffffffffffffff16906020019091905050611a22565b6040516107499190612b16565b60405180910390f35b341561075d57600080fd5b610789600480803573ffffffffffffffffffffffffffffffffffffffff16906020019091905050611b57565b60405161079a959493929190612b53565b60405180910390f35b34156107ae57600080fd5b6107c46004808035906020019091905050611cf7565b6040516107d19190612ad9565b60405180910390f35b34156107e557600080fd5b610811600480803573ffffffffffffffffffffffffffffffffffffffff16906020019091905050611d36565b005b341561081e57600080fd5b61084a600480803573ffffffffffffffffffffffffffffffffffffffff16906020019091905050611f38565b005b341561085757600080fd5b610883600480803573ffffffffffffffffffffffffffffffffffffffff1690602001909190505061208d565b6040516108909190612b38565b60405180910390f35b34156108a457600080fd5b6108d0600480803573ffffffffffffffffffffffffffffffffffffffff16906020019091905050612126565b6040516108dd9190612b38565b60405180910390f35b6000600160008373ffffffffffffffffffffffffffffffffffffffff1673ffffffffffffffffffffffffffffffffffffffff168152602001908152602001600020600d0160009054906101000a900460ff169050919050565b6000809054906101000a900473ffffffffffffffffffffffffffffffffffffffff1673ffffffffffffffffffffffffffffffffffffffff163373ffffffffffffffffffffffffffffffffffffffff1614151561099a57600080fd5b82600160008473ffffffffffffffffffffffffffffffffffffffff1673ffffffffffffffffffffffffffffffffffffffff1681526020019081526020016000206008016000016000828254019250508190555082600160008373ffffffffffffffffffffffffffffffffffffffff1673ffffffffffffffffffffffffffffffffffffffff16815260200190815260200160002060080160010160008282540192505081905550600160008373ffffffffffffffffffffffffffffffffffffffff1673ffffffffffffffffffffffffffffffffffffffff1681526020019081526020016000206008016002016000815480929190600101919050555060018060008473ffffffffffffffffffffffffffffffffffffffff1673ffffffffffffffffffffffffffffffffffffffff16815260200190815260200160002060080160040160008373ffffffffffffffffffffffffffffffffffffffff1673ffffffffffffffffffffffffffffffffffffffff16815260200190815260200160002060006101000a81548160ff02191690831515021790555060018060008373ffffffffffffffffffffffffffffffffffffffff1673ffffffffffffffffffffffffffffffffffffffff16815260200190815260200160002060080160040160008473ffffffffffffffffffffffffffffffffffffffff1673ffffffffffffffffffffffffffffffffffffffff16815260200190815260200160002060006101000a81548160ff021916908315150217905550505050565b6000809054906101000a900473ffffffffffffffffffffffffffffffffffffffff1673ffffffffffffffffffffffffffffffffffffffff163373ffffffffffffffffffffffffffffffffffffffff16141515610c2957600080fd5b6000600160008373ffffffffffffffffffffffffffffffffffffffff1673ffffffffffffffffffffffffffffffffffffffff168152602001908152602001600020600d0160006101000a81548160ff021916908315150217905550610c8d816121f1565b610c96816126b0565b50565b6000809054906101000a900473ffffffffffffffffffffffffffffffffffffffff1673ffffffffffffffffffffffffffffffffffffffff163373ffffffffffffffffffffffffffffffffffffffff16141515610cf457600080fd5b80600160008473ffffffffffffffffffffffffffffffffffffffff1673ffffffffffffffffffffffffffffffffffffffff168152602001908152602001600020600e01600082825401925050819055505050565b6000809054906101000a900473ffffffffffffffffffffffffffffffffffffffff1673ffffffffffffffffffffffffffffffffffffffff163373ffffffffffffffffffffffffffffffffffffffff16141515610da357600080fd5b600160008673ffffffffffffffffffffffffffffffffffffffff1673ffffffffffffffffffffffffffffffffffffffff16815260200190815260200160002060000160020154600019168260001916141580610e575750600160008673ffffffffffffffffffffffffffffffffffffffff1673ffffffffffffffffffffffffffffffffffffffff16815260200190815260200160002060000160030160009054906101000a900460030b60030b8160030b14155b8015610e685750610e6785612126565b5b15610e7757610e76856121f1565b5b608060405190810160405280858152602001848152602001836000191681526020018260030b815250600160008773ffffffffffffffffffffffffffffffffffffffff1673ffffffffffffffffffffffffffffffffffffffff16815260200190815260200160002060000160008201518160000155602082015181600101556040820151816002019060001916905560608201518160030160006101000a81548163ffffffff021916908360030b63ffffffff160217905550905050600160026000846000191660001916815260200190815260200160002060008360030b60030b81526020019081526020016000208054806001018281610f7991906127ac565b9160005260206000209001600088909190916101000a81548173ffffffffffffffffffffffffffffffffffffffff021916908373ffffffffffffffffffffffffffffffffffffffff16021790555003600160008773ffffffffffffffffffffffffffffffffffffffff1673ffffffffffffffffffffffffffffffffffffffff168152602001908152602001600020600f01819055505050505050565b600080600160008473ffffffffffffffffffffffffffffffffffffffff1673ffffffffffffffffffffffffffffffffffffffff168152602001908152602001600020600e0154600160008573ffffffffffffffffffffffffffffffffffffffff1673ffffffffffffffffffffffffffffffffffffffff168152602001908152602001600020600d0160009054906101000a900460ff1691509150915091565b60008060009054906101000a900473ffffffffffffffffffffffffffffffffffffffff1673ffffffffffffffffffffffffffffffffffffffff163373ffffffffffffffffffffffffffffffffffffffff1614151561111157600080fd5b8273ffffffffffffffffffffffffffffffffffffffff166108fc839081150290604051600060405180830381858888f19350505050151561115157600080fd5b92915050565b600080600080600160008673ffffffffffffffffffffffffffffffffffffffff1673ffffffffffffffffffffffffffffffffffffffff16815260200190815260200160002060000160000154600160008773ffffffffffffffffffffffffffffffffffffffff1673ffffffffffffffffffffffffffffffffffffffff16815260200190815260200160002060000160010154600160008873ffffffffffffffffffffffffffffffffffffffff1673ffffffffffffffffffffffffffffffffffffffff16815260200190815260200160002060000160020154600160008973ffffffffffffffffffffffffffffffffffffffff1673ffffffffffffffffffffffffffffffffffffffff16815260200190815260200160002060000160030160009054906101000a900460030b93509350935093509193509193565b6000809054906101000a900473ffffffffffffffffffffffffffffffffffffffff1673ffffffffffffffffffffffffffffffffffffffff163373ffffffffffffffffffffffffffffffffffffffff161415156112ec57600080fd5b6112f586612126565b15156113a75760016003805480600101828161131191906127ac565b9160005260206000209001600089909190916101000a81548173ffffffffffffffffffffffffffffffffffffffff021916908373ffffffffffffffffffffffffffffffffffffffff16021790555003600160008873ffffffffffffffffffffffffffffffffffffffff1673ffffffffffffffffffffffffffffffffffffffff168152602001908152602001600020601001819055505b60a0604051908101604052808660000b81526020018560000b815260200184600019168152602001836000191681526020018260010b815250600160008873ffffffffffffffffffffffffffffffffffffffff1673ffffffffffffffffffffffffffffffffffffffff16815260200190815260200160002060040160008201518160000160006101000a81548160ff021916908360000b60ff16021790555060208201518160000160016101000a81548160ff021916908360000b60ff160217905550604082015181600101906000191690556060820151816002019060001916905560808201518160030160006101000a81548161ffff021916908360010b61ffff16021790555090505060018060008873ffffffffffffffffffffffffffffffffffffffff1673ffffffffffffffffffffffffffffffffffffffff168152602001908152602001600020600d0160006101000a81548160ff021916908315150217905550505050505050565b6000806000600160008573ffffffffffffffffffffffffffffffffffffffff1673ffffffffffffffffffffffffffffffffffffffff16815260200190815260200160002060080160000154600160008673ffffffffffffffffffffffffffffffffffffffff1673ffffffffffffffffffffffffffffffffffffffff16815260200190815260200160002060080160010154600160008773ffffffffffffffffffffffffffffffffffffffff1673ffffffffffffffffffffffffffffffffffffffff168152602001908152602001600020600801600201549250925092509193909250565b6000600380549050905090565b61160e6127d8565b600380548060200260200160405190810160405280929190818152602001828054801561169057602002820191906000526020600020905b8160009054906101000a900473ffffffffffffffffffffffffffffffffffffffff1673ffffffffffffffffffffffffffffffffffffffff1681526020019060010190808311611646575b5050505050905090565b60006003828154811015156116ab57fe5b906000526020600020900160009054906101000a900473ffffffffffffffffffffffffffffffffffffffff169050919050565b6116e66127d8565b60026000846000191660001916815260200190815260200160002060008360030b60030b815260200190815260200160002080548060200260200160405190810160405280929190818152602001828054801561179857602002820191906000526020600020905b8160009054906101000a900473ffffffffffffffffffffffffffffffffffffffff1673ffffffffffffffffffffffffffffffffffffffff168152602001906001019080831161174e575b5050505050905092915050565b6000600160008373ffffffffffffffffffffffffffffffffffffffff1673ffffffffffffffffffffffffffffffffffffffff168152602001908152602001600020600e01549050919050565b6000600160008373ffffffffffffffffffffffffffffffffffffffff1673ffffffffffffffffffffffffffffffffffffffff168152602001908152602001600020601001549050919050565b6000809054906101000a900473ffffffffffffffffffffffffffffffffffffffff1673ffffffffffffffffffffffffffffffffffffffff163373ffffffffffffffffffffffffffffffffffffffff1614151561189857600080fd5b60011515600160008473ffffffffffffffffffffffffffffffffffffffff1673ffffffffffffffffffffffffffffffffffffffff16815260200190815260200160002060080160040160008373ffffffffffffffffffffffffffffffffffffffff1673ffffffffffffffffffffffffffffffffffffffff16815260200190815260200160002060009054906101000a900460ff16151514151561193a57600080fd5b600160008273ffffffffffffffffffffffffffffffffffffffff1673ffffffffffffffffffffffffffffffffffffffff168152602001908152602001600020600801600301805480600101828161199191906127ec565b9160005260206000209001600085909190915090805190602001906119b7929190612818565b5050505050565b6004818154811015156119cd57fe5b90600052602060002090016000915054906101000a900473ffffffffffffffffffffffffffffffffffffffff1681565b6000809054906101000a900473ffffffffffffffffffffffffffffffffffffffff1681565b611a2a612898565b600160008373ffffffffffffffffffffffffffffffffffffffff1673ffffffffffffffffffffffffffffffffffffffff168152602001908152602001600020600801600301805480602002602001604051908101604052809291908181526020016000905b82821015611b4c57838290600052602060002090018054600181600116156101000203166002900480601f016020809104026020016040519081016040528092919081815260200182805460018160011615610100020316600290048015611b385780601f10611b0d57610100808354040283529160200191611b38565b820191906000526020600020905b815481529060010190602001808311611b1b57829003601f168201915b505050505081526020019060010190611a8f565b505050509050919050565b6000806000806000600160008773ffffffffffffffffffffffffffffffffffffffff1673ffffffffffffffffffffffffffffffffffffffff16815260200190815260200160002060040160000160009054906101000a900460000b600160008873ffffffffffffffffffffffffffffffffffffffff1673ffffffffffffffffffffffffffffffffffffffff16815260200190815260200160002060040160000160019054906101000a900460000b600160008973ffffffffffffffffffffffffffffffffffffffff1673ffffffffffffffffffffffffffffffffffffffff16815260200190815260200160002060040160010154600160008a73ffffffffffffffffffffffffffffffffffffffff1673ffffffffffffffffffffffffffffffffffffffff16815260200190815260200160002060040160020154600160008b73ffffffffffffffffffffffffffffffffffffffff1673ffffffffffffffffffffffffffffffffffffffff16815260200190815260200160002060040160030160009054906101000a900460010b9450945094509450945091939590929450565b600381815481101515611d0657fe5b90600052602060002090016000915054906101000a900473ffffffffffffffffffffffffffffffffffffffff1681565b6000806000809054906101000a900473ffffffffffffffffffffffffffffffffffffffff1673ffffffffffffffffffffffffffffffffffffffff163373ffffffffffffffffffffffffffffffffffffffff16141515611d9457600080fd5b600160008473ffffffffffffffffffffffffffffffffffffffff1673ffffffffffffffffffffffffffffffffffffffff168152602001908152602001600020600d0160009054906101000a900460ff1615611df357611df283610bce565b5b600160008473ffffffffffffffffffffffffffffffffffffffff1673ffffffffffffffffffffffffffffffffffffffff1681526020019081526020016000206010015491506003600160038054905003815481101515611e4f57fe5b906000526020600020900160009054906101000a900473ffffffffffffffffffffffffffffffffffffffff16905080600383815481101515611e8d57fe5b906000526020600020900160006101000a81548173ffffffffffffffffffffffffffffffffffffffff021916908373ffffffffffffffffffffffffffffffffffffffff16021790555081600160008373ffffffffffffffffffffffffffffffffffffffff1673ffffffffffffffffffffffffffffffffffffffff168152602001908152602001600020601001819055506003805480919060019003611f3291906128ac565b50505050565b6000809054906101000a900473ffffffffffffffffffffffffffffffffffffffff1673ffffffffffffffffffffffffffffffffffffffff163373ffffffffffffffffffffffffffffffffffffffff16141515611f9357600080fd5b600073ffffffffffffffffffffffffffffffffffffffff168173ffffffffffffffffffffffffffffffffffffffff1614151515611fcf57600080fd5b8073ffffffffffffffffffffffffffffffffffffffff166000809054906101000a900473ffffffffffffffffffffffffffffffffffffffff1673ffffffffffffffffffffffffffffffffffffffff167f8be0079c531659141344cd1fd0a4f28419497f9722a3daafe3b4186f6b6457e060405160405180910390a3806000806101000a81548173ffffffffffffffffffffffffffffffffffffffff021916908373ffffffffffffffffffffffffffffffffffffffff16021790555050565b6000600160008373ffffffffffffffffffffffffffffffffffffffff1673ffffffffffffffffffffffffffffffffffffffff16815260200190815260200160002060080160040160003373ffffffffffffffffffffffffffffffffffffffff1673ffffffffffffffffffffffffffffffffffffffff16815260200190815260200160002060009054906101000a900460ff169050919050565b600080600380549050141561213e57600090506121ec565b8173ffffffffffffffffffffffffffffffffffffffff166003600160008573ffffffffffffffffffffffffffffffffffffffff1673ffffffffffffffffffffffffffffffffffffffff168152602001908152602001600020601001548154811015156121a657fe5b906000526020600020900160009054906101000a900473ffffffffffffffffffffffffffffffffffffffff1673ffffffffffffffffffffffffffffffffffffffff161490505b919050565b6000806000809054906101000a900473ffffffffffffffffffffffffffffffffffffffff1673ffffffffffffffffffffffffffffffffffffffff163373ffffffffffffffffffffffffffffffffffffffff1614151561224f57600080fd5b600160008473ffffffffffffffffffffffffffffffffffffffff1673ffffffffffffffffffffffffffffffffffffffff168152602001908152602001600020600f0154915060026000600160008673ffffffffffffffffffffffffffffffffffffffff1673ffffffffffffffffffffffffffffffffffffffff16815260200190815260200160002060000160020154600019166000191681526020019081526020016000206000600160008673ffffffffffffffffffffffffffffffffffffffff1673ffffffffffffffffffffffffffffffffffffffff16815260200190815260200160002060000160030160009054906101000a900460030b60030b60030b8152602001908152602001600020600160026000600160008873ffffffffffffffffffffffffffffffffffffffff1673ffffffffffffffffffffffffffffffffffffffff16815260200190815260200160002060000160020154600019166000191681526020019081526020016000206000600160008873ffffffffffffffffffffffffffffffffffffffff1673ffffffffffffffffffffffffffffffffffffffff16815260200190815260200160002060000160030160009054906101000a900460030b60030b60030b8152602001908152602001600020805490500381548110151561243957fe5b906000526020600020900160009054906101000a900473ffffffffffffffffffffffffffffffffffffffff1690508060026000600160008773ffffffffffffffffffffffffffffffffffffffff1673ffffffffffffffffffffffffffffffffffffffff16815260200190815260200160002060000160020154600019166000191681526020019081526020016000206000600160008773ffffffffffffffffffffffffffffffffffffffff1673ffffffffffffffffffffffffffffffffffffffff16815260200190815260200160002060000160030160009054906101000a900460030b60030b60030b81526020019081526020016000208381548110151561253e57fe5b906000526020600020900160006101000a81548173ffffffffffffffffffffffffffffffffffffffff021916908373ffffffffffffffffffffffffffffffffffffffff16021790555081600160008373ffffffffffffffffffffffffffffffffffffffff1673ffffffffffffffffffffffffffffffffffffffff168152602001908152602001600020600f018190555060026000600160008673ffffffffffffffffffffffffffffffffffffffff1673ffffffffffffffffffffffffffffffffffffffff16815260200190815260200160002060000160020154600019166000191681526020019081526020016000206000600160008673ffffffffffffffffffffffffffffffffffffffff1673ffffffffffffffffffffffffffffffffffffffff16815260200190815260200160002060000160030160009054906101000a900460030b60030b60030b81526020019081526020016000208054809190600190036126aa91906128ac565b50505050565b6000809054906101000a900473ffffffffffffffffffffffffffffffffffffffff1673ffffffffffffffffffffffffffffffffffffffff163373ffffffffffffffffffffffffffffffffffffffff1614151561270b57600080fd5b6000600160008373ffffffffffffffffffffffffffffffffffffffff1673ffffffffffffffffffffffffffffffffffffffff16815260200190815260200160002060040160010181600019169055506000600160008373ffffffffffffffffffffffffffffffffffffffff1673ffffffffffffffffffffffffffffffffffffffff168152602001908152602001600020600401600201816000191690555050565b8154818355818115116127d3578183600052602060002091820191016127d291906128d8565b5b505050565b602060405190810160405280600081525090565b8154818355818115116128135781836000526020600020918201910161281291906128fd565b5b505050565b828054600181600116156101000203166002900490600052602060002090601f016020900481019282601f1061285957805160ff1916838001178555612887565b82800160010185558215612887579182015b8281111561288657825182559160200191906001019061286b565b5b50905061289491906128d8565b5090565b602060405190810160405280600081525090565b8154818355818115116128d3578183600052602060002091820191016128d291906128d8565b5b505050565b6128fa91905b808211156128f65760008160009055506001016128de565b5090565b90565b61292691905b8082111561292257600081816129199190612929565b50600101612903565b5090565b90565b50805460018160011615610100020316600290046000825580601f1061294f575061296e565b601f01602090049060005260206000209081019061296d91906128d8565b5b50565b61297a81612cbb565b82525050565b600061298b82612c80565b80845260208401935061299d83612c66565b60005b828110156129cf576129b3868351612971565b6129bc82612ca1565b91506020860195506001810190506129a0565b50849250505092915050565b60006129e682612c8b565b808452602084019350836020820285016129ff85612c73565b60005b84811015612a38578383038852612a1a838351612a67565b9250612a2582612cae565b9150602088019750600181019050612a02565b508196508694505050505092915050565b612a5281612cdb565b82525050565b612a6181612ce7565b82525050565b6000612a7282612c96565b808452612a86816020860160208601612d22565b612a8f81612d5e565b602085010191505092915050565b612aa681612cf1565b82525050565b612ab581612cfe565b82525050565b612ac481612d0b565b82525050565b612ad381612d18565b82525050565b6000602082019050612aee6000830184612971565b92915050565b60006020820190508181036000830152612b0e8184612980565b905092915050565b60006020820190508181036000830152612b3081846129db565b905092915050565b6000602082019050612b4d6000830184612a49565b92915050565b600060a082019050612b686000830188612abb565b612b756020830187612abb565b612b826040830186612a58565b612b8f6060830185612a58565b612b9c6080830184612a9d565b9695505050505050565b6000602082019050612bbb6000830184612aca565b92915050565b6000604082019050612bd66000830185612aca565b612be36020830184612a49565b9392505050565b6000608082019050612bff6000830187612aca565b612c0c6020830186612aca565b612c196040830185612a58565b612c266060830184612aac565b95945050505050565b6000606082019050612c446000830186612aca565b612c516020830185612aca565b612c5e6040830184612aca565b949350505050565b6000602082019050919050565b6000602082019050919050565b600081519050919050565b600081519050919050565b600081519050919050565b6000602082019050919050565b6000602082019050919050565b600073ffffffffffffffffffffffffffffffffffffffff82169050919050565b60008115159050919050565b6000819050919050565b60008160010b9050919050565b60008160030b9050919050565b60008160000b9050919050565b6000819050919050565b60005b83811015612d40578082015181840152602081019050612d25565b83811460008114612d5057612d57565b6000858501525b5050505050565b6000601f19601f83011690509190505600a265627a7a72305820bc377577db1c108111edf7c3eb9297081ce657d2ba2d9ee49eab2adaf91acbde6c6578706572696d656e74616cf50037",
  "source": "pragma solidity ^0.4.18;\npragma experimental ABIEncoderV2;\n\nimport 'zeppelin-solidity/contracts/ownership/Ownable.sol';\nimport 'zeppelin-solidity/contracts/math/SafeMath.sol';\n\ncontract DetherTellerStorage is Ownable {\n  using SafeMath for uint;\n  event TempLog(string _log);\n  event TempLogInt(uint _log);\n  struct TellerPosition {\n    uint lat;\n    uint lng;\n    bytes32 countryId;\n    int32 postalCode;\n  }\n\n  struct TellerReputation {\n    uint volumeSell;\n    uint volumeBuy;\n    uint nbTrade;\n    bytes[] comment;\n    mapping (address => bool) rightsTo;\n  }\n\n  struct TellerProfile {\n    int8 avatarId;\n    int8 currencyId;\n    bytes32 messagingAddr;\n    bytes32 messagingAddr2;\n    int16 rate;\n  }\n\n  struct Teller {\n    TellerPosition pos;\n    TellerProfile profile;\n    TellerReputation rep;\n    bool online;\n    uint balance;\n    uint index;         // the corresponding index in th zone storage\n    uint generalIndex;\n  }\n\n  mapping(address => Teller) teller;\n  mapping(bytes32 => mapping(int32 => address[])) tellerInZone;\n  address[] public tellerIndex; // unordered list of teller register on it\n  address[] public tellers;\n  /*\n   * Position\n   */\n  function setTellerPosition(\n    address _address,\n    uint lat,\n    uint lng,\n    bytes32 countryId,\n    int32 postalCode) public onlyOwner {\n    if ((countryId != teller[_address].pos.countryId || postalCode != teller[_address].pos.postalCode) && isTeller(_address)) {\n      _removeFromZone(_address);\n    }\n    // if already in zone\n    teller[_address].pos = TellerPosition(lat, lng, countryId, postalCode);\n    teller[_address].index = tellerInZone[countryId][postalCode].push(_address) - 1;\n  }\n\n  function isTeller(address _teller) public view returns (bool isIndeed){\n    if(tellerIndex.length == 0) return false;\n    return (tellerIndex[teller[_teller].generalIndex] == _teller);\n  }\n\n  function getGeneralIndex(address _teller) public view returns (uint rank){\n    return teller[_teller].generalIndex;\n  }\n\n  function getTellerPositionRaw(address _teller) public view returns (uint lat, uint lng, bytes32 countryId, int32 postalCode) {\n    return (teller[_teller].pos.lat, teller[_teller].pos.lng, teller[_teller].pos.countryId, teller[_teller].pos.postalCode);\n  }\n\n  /*function getTellerPosition(address _teller) public view returns (TellerPosition) {\n    return teller[_teller].pos;\n  }*/\n\n  /*\n   * Profile\n   */\n  function setTellerProfile(\n    address _address,\n    int8 _avatarId,\n    int8 _currencyId,\n    bytes32 _messagingAddr,\n    bytes32 _messagingAddr2,\n    int16 _rates) public onlyOwner {\n      if (!isTeller(_address)){\n        teller[_address].generalIndex = tellerIndex.push(_address) - 1;\n      }\n      teller[_address].profile = TellerProfile(_avatarId, _currencyId, _messagingAddr, _messagingAddr2, _rates);\n      teller[_address].online = true;\n  }\n\n  function getTellerProfileRaw(address _teller) public view returns (\n    int8 avatarId,\n    int8 currencyId,\n    bytes32 messagingAddr,\n    bytes32 messagingAddr2,\n    int16 rate\n    ) {\n    return (teller[_teller].profile.avatarId, teller[_teller].profile.currencyId, teller[_teller].profile.messagingAddr, teller[_teller].profile.messagingAddr2, teller[_teller].profile.rate);\n  }\n\n  /*function getTellerProfile(address _teller) public view returns (TellerProfile) {\n    return teller[_teller].profile;\n  }*/\n\n  /*\n   * Reput\n   */\n  function setReput(uint amount, address _sender, address _receiver) public onlyOwner {\n    teller[_sender].rep.volumeSell += amount;\n    teller[_receiver].rep.volumeBuy += amount;\n    teller[_sender].rep.nbTrade++;\n    teller[_sender].rep.rightsTo[_receiver] = true;\n    teller[_receiver].rep.rightsTo[_sender] = true;\n  }\n\n  function addComment(bytes commentHash, address from, address to) public onlyOwner {\n    require(teller[from].rep.rightsTo[to] == true);\n    teller[to].rep.comment.push(commentHash);\n    // add event\n  }\n\n  /*function getTellerReputation(address _teller) internal view returns (TellerReputation) {\n      return teller[_teller].rep;\n  }*/\n\n  function getTellerReputationRaw(address _teller) public view returns (\n    uint volumeSell,\n    uint volumeBuy,\n    uint nbTrade\n    ) {\n      return (teller[_teller].rep.volumeSell, teller[_teller].rep.volumeBuy, teller[_teller].rep.nbTrade);\n  }\n\n  function getTellerComment(address _teller) public view returns (bytes[]) {\n    return teller[_teller].rep.comment;\n  }\n\n  function getCommentRight(address _teller) public view returns (bool) {\n    return teller[_teller].rep.rightsTo[msg.sender];\n  }\n\n  /*\n   * Zone\n   */\n  function getZone(bytes32 _country, int32 _postalcode) public view returns (address[]) {\n      return tellerInZone[_country][_postalcode];\n  }\n\n  // Misc\n  function addBalance(address _address, uint _amount) public onlyOwner {\n    teller[_address].balance += _amount;\n  }\n\n  function getTellerBalance(address _address) public view returns (uint) {\n    return teller[_address].balance;\n  }\n\n  /*function getTeller(address _teller) internal view returns (Teller) {\n    return teller[_teller];\n  }*/\n\n  function getTellerStatus(address _teller) public view returns (uint balance, bool status) {\n    return (teller[_teller].balance, teller[_teller].online);\n  }\n\n  function isOnline(address _teller) public view returns (bool) {\n    return teller[_teller].online;\n  }\n\n  function getTellerCount() public view returns (uint) {\n    return tellerIndex.length;\n  }\n\n  function getTellerAtIndex(uint _index) public view returns (address ) {\n    return tellerIndex[_index];\n  }\n\n  function getAllTellers() public view returns (address[]) {\n    return tellerIndex;\n  }\n\n  function releaseEth(address _receiver, uint _amount) public onlyOwner returns (bool) {\n    _receiver.transfer(_amount);\n  }\n\n  // Delete teller\n  function turnOffline(address _address) public onlyOwner {\n    teller[_address].online = false;\n    _removeFromZone(_address);\n    _clearMessaging(_address);\n  }\n\n\n\n  function _clearMessaging(address _address) private onlyOwner {\n    teller[_address].profile.messagingAddr = '';\n    teller[_address].profile.messagingAddr2 = '';\n  }\n\n  function _removeFromZone(address _address) private onlyOwner {\n    uint rowToDelete = teller[_address].index;\n    address keyToMove = tellerInZone[teller[_address].pos.countryId][teller[_address].pos.postalCode][tellerInZone[teller[_address].pos.countryId][teller[_address].pos.postalCode].length - 1];\n    tellerInZone[teller[_address].pos.countryId][teller[_address].pos.postalCode][rowToDelete] = keyToMove;\n    teller[keyToMove].index = rowToDelete;\n    tellerInZone[teller[_address].pos.countryId][teller[_address].pos.postalCode].length--;\n  }\n\n  function deleteTeller(address _address) public onlyOwner {\n    // Conditions\n    if (teller[_address].online){\n      turnOffline(_address);\n    }\n    uint rowToDelete = teller[_address].generalIndex;\n    address keyToMove = tellerIndex[tellerIndex.length - 1];\n    tellerIndex[rowToDelete] = keyToMove;\n    teller[keyToMove].generalIndex = rowToDelete;\n    tellerIndex.length--;\n  }\n}\n",
  "sourcePath": "/Users/mehdi/code/dether/dethercontracts/contracts/DetherTellerStorage.sol",
  "compiler": {
    "name": "solc",
    "version": "0.4.18+commit.9cf6e910.Emscripten.clang"
  },
  "schemaVersion": "1.0.1",
  "updatedAt": "2018-01-20T20:44:37.977Z"
}