{
  "contractName": "DetherBank",
  "abi": [
    {
      "constant": true,
      "inputs": [],
      "name": "dth",
      "outputs": [
        {
          "name": "",
          "type": "address"
        }
      ],
      "payable": false,
      "stateMutability": "view",
      "type": "function"
    },
    {
      "constant": true,
      "inputs": [
        {
          "name": "timestamp",
          "type": "uint256"
        }
      ],
      "name": "getHour",
      "outputs": [
        {
          "name": "",
          "type": "uint8"
        }
      ],
      "payable": false,
      "stateMutability": "pure",
      "type": "function"
    },
    {
      "constant": true,
      "inputs": [
        {
          "name": "timestamp",
          "type": "uint256"
        }
      ],
      "name": "getWeekday",
      "outputs": [
        {
          "name": "",
          "type": "uint8"
        }
      ],
      "payable": false,
      "stateMutability": "pure",
      "type": "function"
    },
    {
      "constant": true,
      "inputs": [
        {
          "name": "year",
          "type": "uint16"
        },
        {
          "name": "month",
          "type": "uint8"
        },
        {
          "name": "day",
          "type": "uint8"
        },
        {
          "name": "hour",
          "type": "uint8"
        },
        {
          "name": "minute",
          "type": "uint8"
        }
      ],
      "name": "toTimestamp",
      "outputs": [
        {
          "name": "timestamp",
          "type": "uint256"
        }
      ],
      "payable": false,
      "stateMutability": "pure",
      "type": "function"
    },
    {
      "constant": true,
      "inputs": [
        {
          "name": "timestamp",
          "type": "uint256"
        }
      ],
      "name": "getDay",
      "outputs": [
        {
          "name": "",
          "type": "uint8"
        }
      ],
      "payable": false,
      "stateMutability": "pure",
      "type": "function"
    },
    {
      "constant": true,
      "inputs": [
        {
          "name": "",
          "type": "address"
        }
      ],
      "name": "dthTellerBalance",
      "outputs": [
        {
          "name": "",
          "type": "uint256"
        }
      ],
      "payable": false,
      "stateMutability": "view",
      "type": "function"
    },
    {
      "constant": true,
      "inputs": [
        {
          "name": "",
          "type": "address"
        }
      ],
      "name": "ethShopBalance",
      "outputs": [
        {
          "name": "",
          "type": "uint256"
        }
      ],
      "payable": false,
      "stateMutability": "view",
      "type": "function"
    },
    {
      "constant": true,
      "inputs": [
        {
          "name": "year",
          "type": "uint16"
        },
        {
          "name": "month",
          "type": "uint8"
        },
        {
          "name": "day",
          "type": "uint8"
        },
        {
          "name": "hour",
          "type": "uint8"
        }
      ],
      "name": "toTimestamp",
      "outputs": [
        {
          "name": "timestamp",
          "type": "uint256"
        }
      ],
      "payable": false,
      "stateMutability": "pure",
      "type": "function"
    },
    {
      "constant": true,
      "inputs": [
        {
          "name": "timestamp",
          "type": "uint256"
        }
      ],
      "name": "getSecond",
      "outputs": [
        {
          "name": "",
          "type": "uint8"
        }
      ],
      "payable": false,
      "stateMutability": "pure",
      "type": "function"
    },
    {
      "constant": true,
      "inputs": [
        {
          "name": "year",
          "type": "uint16"
        },
        {
          "name": "month",
          "type": "uint8"
        },
        {
          "name": "day",
          "type": "uint8"
        }
      ],
      "name": "toTimestamp",
      "outputs": [
        {
          "name": "timestamp",
          "type": "uint256"
        }
      ],
      "payable": false,
      "stateMutability": "pure",
      "type": "function"
    },
    {
      "constant": true,
      "inputs": [],
      "name": "owner",
      "outputs": [
        {
          "name": "",
          "type": "address"
        }
      ],
      "payable": false,
      "stateMutability": "view",
      "type": "function"
    },
    {
      "constant": true,
      "inputs": [
        {
          "name": "year",
          "type": "uint16"
        },
        {
          "name": "month",
          "type": "uint8"
        },
        {
          "name": "day",
          "type": "uint8"
        },
        {
          "name": "hour",
          "type": "uint8"
        },
        {
          "name": "minute",
          "type": "uint8"
        },
        {
          "name": "second",
          "type": "uint8"
        }
      ],
      "name": "toTimestamp",
      "outputs": [
        {
          "name": "timestamp",
          "type": "uint256"
        }
      ],
      "payable": false,
      "stateMutability": "pure",
      "type": "function"
    },
    {
      "constant": true,
      "inputs": [
        {
          "name": "timestamp",
          "type": "uint256"
        }
      ],
      "name": "getYear",
      "outputs": [
        {
          "name": "",
          "type": "uint16"
        }
      ],
      "payable": false,
      "stateMutability": "pure",
      "type": "function"
    },
    {
      "constant": true,
      "inputs": [
        {
          "name": "",
          "type": "address"
        }
      ],
      "name": "dthShopBalance",
      "outputs": [
        {
          "name": "",
          "type": "uint256"
        }
      ],
      "payable": false,
      "stateMutability": "view",
      "type": "function"
    },
    {
      "constant": true,
      "inputs": [
        {
          "name": "timestamp",
          "type": "uint256"
        }
      ],
      "name": "getMonth",
      "outputs": [
        {
          "name": "",
          "type": "uint8"
        }
      ],
      "payable": false,
      "stateMutability": "pure",
      "type": "function"
    },
    {
      "constant": true,
      "inputs": [
        {
          "name": "year",
          "type": "uint16"
        }
      ],
      "name": "isLeapYear",
      "outputs": [
        {
          "name": "",
          "type": "bool"
        }
      ],
      "payable": false,
      "stateMutability": "pure",
      "type": "function"
    },
    {
      "constant": true,
      "inputs": [],
      "name": "isInit",
      "outputs": [
        {
          "name": "",
          "type": "bool"
        }
      ],
      "payable": false,
      "stateMutability": "view",
      "type": "function"
    },
    {
      "constant": true,
      "inputs": [
        {
          "name": "year",
          "type": "uint256"
        }
      ],
      "name": "leapYearsBefore",
      "outputs": [
        {
          "name": "",
          "type": "uint256"
        }
      ],
      "payable": false,
      "stateMutability": "pure",
      "type": "function"
    },
    {
      "constant": true,
      "inputs": [
        {
          "name": "month",
          "type": "uint8"
        },
        {
          "name": "year",
          "type": "uint16"
        }
      ],
      "name": "getDaysInMonth",
      "outputs": [
        {
          "name": "",
          "type": "uint8"
        }
      ],
      "payable": false,
      "stateMutability": "pure",
      "type": "function"
    },
    {
      "constant": true,
      "inputs": [
        {
          "name": "",
          "type": "address"
        }
      ],
      "name": "ethTellerBalance",
      "outputs": [
        {
          "name": "",
          "type": "uint256"
        }
      ],
      "payable": false,
      "stateMutability": "view",
      "type": "function"
    },
    {
      "constant": false,
      "inputs": [
        {
          "name": "newOwner",
          "type": "address"
        }
      ],
      "name": "transferOwnership",
      "outputs": [],
      "payable": false,
      "stateMutability": "nonpayable",
      "type": "function"
    },
    {
      "constant": true,
      "inputs": [
        {
          "name": "timestamp",
          "type": "uint256"
        }
      ],
      "name": "getMinute",
      "outputs": [
        {
          "name": "",
          "type": "uint8"
        }
      ],
      "payable": false,
      "stateMutability": "pure",
      "type": "function"
    },
    {
      "anonymous": false,
      "inputs": [
        {
          "indexed": false,
          "name": "_from",
          "type": "address"
        },
        {
          "indexed": false,
          "name": "amount",
          "type": "uint256"
        }
      ],
      "name": "receiveDth",
      "type": "event"
    },
    {
      "anonymous": false,
      "inputs": [
        {
          "indexed": false,
          "name": "_from",
          "type": "address"
        },
        {
          "indexed": false,
          "name": "amount",
          "type": "uint256"
        }
      ],
      "name": "receiveEth",
      "type": "event"
    },
    {
      "anonymous": false,
      "inputs": [
        {
          "indexed": false,
          "name": "_from",
          "type": "address"
        },
        {
          "indexed": false,
          "name": "amount",
          "type": "uint256"
        }
      ],
      "name": "sendDth",
      "type": "event"
    },
    {
      "anonymous": false,
      "inputs": [
        {
          "indexed": false,
          "name": "_from",
          "type": "address"
        },
        {
          "indexed": false,
          "name": "amount",
          "type": "uint256"
        }
      ],
      "name": "sendEth",
      "type": "event"
    },
    {
      "anonymous": false,
      "inputs": [
        {
          "indexed": true,
          "name": "previousOwner",
          "type": "address"
        },
        {
          "indexed": true,
          "name": "newOwner",
          "type": "address"
        }
      ],
      "name": "OwnershipTransferred",
      "type": "event"
    },
    {
      "constant": false,
      "inputs": [
        {
          "name": "_dth",
          "type": "address"
        }
      ],
      "name": "setDth",
      "outputs": [],
      "payable": false,
      "stateMutability": "nonpayable",
      "type": "function"
    },
    {
      "constant": false,
      "inputs": [
        {
          "name": "_receiver",
          "type": "address"
        }
      ],
      "name": "withdrawDthTeller",
      "outputs": [],
      "payable": false,
      "stateMutability": "nonpayable",
      "type": "function"
    },
    {
      "constant": false,
      "inputs": [
        {
          "name": "_receiver",
          "type": "address"
        }
      ],
      "name": "withdrawDthShop",
      "outputs": [],
      "payable": false,
      "stateMutability": "nonpayable",
      "type": "function"
    },
    {
      "constant": false,
      "inputs": [
        {
          "name": "_from",
          "type": "address"
        },
        {
          "name": "_receiver",
          "type": "address"
        }
      ],
      "name": "withdrawDthShopAdmin",
      "outputs": [],
      "payable": false,
      "stateMutability": "nonpayable",
      "type": "function"
    },
    {
      "constant": false,
      "inputs": [
        {
          "name": "_from",
          "type": "address"
        },
        {
          "name": "_value",
          "type": "uint256"
        }
      ],
      "name": "addTokenShop",
      "outputs": [],
      "payable": false,
      "stateMutability": "nonpayable",
      "type": "function"
    },
    {
      "constant": false,
      "inputs": [
        {
          "name": "_from",
          "type": "address"
        },
        {
          "name": "_value",
          "type": "uint256"
        }
      ],
      "name": "addTokenTeller",
      "outputs": [],
      "payable": false,
      "stateMutability": "nonpayable",
      "type": "function"
    },
    {
      "constant": false,
      "inputs": [
        {
          "name": "_from",
          "type": "address"
        },
        {
          "name": "_value",
          "type": "uint256"
        }
      ],
      "name": "addEthTeller",
      "outputs": [
        {
          "name": "",
          "type": "bool"
        }
      ],
      "payable": true,
      "stateMutability": "payable",
      "type": "function"
    },
    {
      "constant": false,
      "inputs": [
        {
          "name": "_from",
          "type": "address"
        },
        {
          "name": "_to",
          "type": "address"
        },
        {
          "name": "_amount",
          "type": "uint256"
        }
      ],
      "name": "withdrawEth",
      "outputs": [],
      "payable": false,
      "stateMutability": "nonpayable",
      "type": "function"
    },
    {
      "constant": false,
      "inputs": [
        {
          "name": "_from",
          "type": "address"
        }
      ],
      "name": "refundEth",
      "outputs": [],
      "payable": false,
      "stateMutability": "nonpayable",
      "type": "function"
    },
    {
      "constant": true,
      "inputs": [
        {
          "name": "_user",
          "type": "address"
        }
      ],
      "name": "getDthTeller",
      "outputs": [
        {
          "name": "",
          "type": "uint256"
        }
      ],
      "payable": false,
      "stateMutability": "view",
      "type": "function"
    },
    {
      "constant": true,
      "inputs": [
        {
          "name": "_user",
          "type": "address"
        }
      ],
      "name": "getDthShop",
      "outputs": [
        {
          "name": "",
          "type": "uint256"
        }
      ],
      "payable": false,
      "stateMutability": "view",
      "type": "function"
    },
    {
      "constant": true,
      "inputs": [
        {
          "name": "_user",
          "type": "address"
        }
      ],
      "name": "getEthBalTeller",
      "outputs": [
        {
          "name": "",
          "type": "uint256"
        }
      ],
      "payable": false,
      "stateMutability": "view",
      "type": "function"
    },
    {
      "constant": true,
      "inputs": [
        {
          "name": "_user",
          "type": "address"
        }
      ],
      "name": "getWeiSoldToday",
      "outputs": [
        {
          "name": "weiSoldToday",
          "type": "uint256"
        }
      ],
      "payable": false,
      "stateMutability": "view",
      "type": "function"
    },
    {
      "constant": false,
      "inputs": [
        {
          "name": "_from",
          "type": "address"
        },
        {
          "name": "_value",
          "type": "uint256"
        },
        {
          "name": "_data",
          "type": "bytes"
        }
      ],
      "name": "tokenFallback",
      "outputs": [],
      "payable": false,
      "stateMutability": "nonpayable",
      "type": "function"
    }
  ],
  "bytecode": "0x60806040526006805460a060020a60ff021916905560008054600160a060020a033316600160a060020a03199091161790556114f8806100406000396000f3006080604052600436106101c15763ffffffff7c010000000000000000000000000000000000000000000000000000000060003504166301e57a3781146101c657806318a6d58b146101f75780633716f65d1461021d5780633e239e1a1461023e5780634ac1ad781461026c5780635f7e71381461028457806362ba9687146102a557806365c72840146102eb5780636b905fb1146103035780637139b5951461032457806378d0a4151461034b5780637bee648d1461036c5780637f7918331461038d5780638aa001fc146103bb5780638c8d98a0146103d35780638d837f38146103fb5780638da5cb5b1461041c5780639054bdec1461043157806392d663131461046b57806395dc00021461049a578063a324ad24146104bb578063a6f0e577146104d3578063a96b3ab814610503578063ad71766e14610524578063b145a5b814610545578063b19999371461055a578063b238ad0e14610572578063b71738f114610594578063c0ee0b8a146105b5578063d4d84da51461061e578063d83edd7014610642578063e465146514610663578063f08ddc031461067a578063f2fde38b1461069b578063f5923a6e146106bc578063fa93f883146106e6575b600080fd5b3480156101d257600080fd5b506101db6106fe565b60408051600160a060020a039092168252519081900360200190f35b34801561020357600080fd5b5061021b600160a060020a036004351660243561070d565b005b34801561022957600080fd5b5061021b600160a060020a036004351661076b565b34801561024a57600080fd5b5061025660043561086c565b6040805160ff9092168252519081900360200190f35b34801561027857600080fd5b50610256600435610889565b34801561029057600080fd5b5061021b600160a060020a036004351661089b565b3480156102b157600080fd5b506102d961ffff6004351660ff6024358116906044358116906064358116906084351661093d565b60408051918252519081900360200190f35b3480156102f757600080fd5b50610256600435610958565b34801561030f57600080fd5b506102d9600160a060020a036004351661096d565b34801561033057600080fd5b5061021b600160a060020a036004358116906024351661097f565b34801561035757600080fd5b506102d9600160a060020a0360043516610a80565b34801561037857600080fd5b506102d9600160a060020a0360043516610a9b565b34801561039957600080fd5b506102d961ffff6004351660ff60243581169060443581169060643516610aad565b3480156103c757600080fd5b50610256600435610ac7565b3480156103df57600080fd5b506102d961ffff6004351660ff60243581169060443516610ad1565b34801561040757600080fd5b506102d9600160a060020a0360043516610aeb565b34801561042857600080fd5b506101db610b06565b34801561043d57600080fd5b506102d961ffff6004351660ff60243581169060443581169060643581169060843581169060a43516610b15565b34801561047757600080fd5b50610483600435610c5b565b6040805161ffff9092168252519081900360200190f35b3480156104a657600080fd5b506102d9600160a060020a0360043516610ceb565b3480156104c757600080fd5b50610256600435610cfd565b3480156104df57600080fd5b506104ef61ffff60043516610d12565b604080519115158252519081900360200190f35b34801561050f57600080fd5b506102d9600160a060020a0360043516610d60565b34801561053057600080fd5b506102d9600160a060020a0360043516610d7b565b34801561055157600080fd5b506104ef610ddf565b34801561056657600080fd5b506102d9600435610e00565b34801561057e57600080fd5b5061025660ff6004351661ffff60243516610e1b565b3480156105a057600080fd5b5061021b600160a060020a0360043516610ee3565b3480156105c157600080fd5b50604080516020600460443581810135601f810184900484028501840190955284845261021b948235600160a060020a0316946024803595369594606494920191908190840183828082843750949750610fa99650505050505050565b34801561062a57600080fd5b5061021b600160a060020a0360043516602435610fc4565b34801561064e57600080fd5b5061021b600160a060020a0360043516611022565b6104ef600160a060020a03600435166024356110a4565b34801561068657600080fd5b506102d9600160a060020a0360043516611105565b3480156106a757600080fd5b5061021b600160a060020a0360043516611117565b3480156106c857600080fd5b5061021b600160a060020a03600435811690602435166044356111af565b3480156106f257600080fd5b506102566004356112d6565b600654600160a060020a031681565b60005433600160a060020a0390811691161461072857600080fd5b600160a060020a03821660009081526002602052604090205461074b90826112e1565b600160a060020a0390921660009081526002602052604090209190915550565b6000805433600160a060020a0390811691161461078757600080fd5b600160a060020a038216600090815260016020526040812054116107aa57600080fd5b50600160a060020a03808216600081815260016020908152604080832080549084905560065482517fa9059cbb00000000000000000000000000000000000000000000000000000000815260048101969096526024860182905291519095919091169363a9059cbb9360448083019493928390030190829087803b15801561083157600080fd5b505af1158015610845573d6000803e3d6000fd5b505050506040513d602081101561085b57600080fd5b5051151561086857600080fd5b5050565b60006018603c8084045b0481151561088057fe5b0690505b919050565b60006007600462015180840401610880565b60005433600160a060020a039081169116146108b657600080fd5b60065474010000000000000000000000000000000000000000900460ff16156108de57600080fd5b6006805474ff000000000000000000000000000000000000000019600160a060020a0390931673ffffffffffffffffffffffffffffffffffffffff19909116179190911674010000000000000000000000000000000000000000179055565b600061094e86868686866000610b15565b9695505050505050565b6000610963826112f7565b6040015192915050565b60026020526000908152604090205481565b6000805433600160a060020a0390811691161461099b57600080fd5b600160a060020a038316600090815260016020526040812054116109be57600080fd5b50600160a060020a03808316600090815260016020908152604080832080549084905560065482517fa9059cbb00000000000000000000000000000000000000000000000000000000815287871660048201526024810183905292519195169363a9059cbb93604480850194919392918390030190829087803b158015610a4457600080fd5b505af1158015610a58573d6000803e3d6000fd5b505050506040513d6020811015610a6e57600080fd5b50511515610a7b57600080fd5b505050565b600160a060020a031660009081526002602052604090205490565b60036020526000908152604090205481565b6000610abe85858585600080610b15565b95945050505050565b6000603c82610880565b6000610ae38484846000806000610b15565b949350505050565b600160a060020a031660009081526004602052604090205490565b600054600160a060020a031681565b600080610b20611470565b6107b291505b8861ffff168261ffff161015610b6757610b3f82610d12565b15610b52576301e2850083019250610b5c565b6301e13380830192505b600190910190610b26565b601f8152610b7489610d12565b15610b8557601d6020820152610b8d565b601c60208201525b601f60408201819052601e606083018190526080830182905260a0830181905260c0830182905260e0830182905261010083018190526101208301829052610140830152610160820152600191505b8760ff168261ffff161015610c1d578061ffff600019840116600c8110610bff57fe5b602002015160ff166201518002830192508180600101925050610bdc565b6001870360ff166201518002830192508560ff16610e1002830192508460ff16603c02830192508360ff168301925082925050509695505050505050565b6000806107b26301e1338084048101908290610c7690610e00565b610c838361ffff16610e00565b039050806301e285000283019250806107b2830361ffff16036301e1338002830192505b84831115610ce357610cbb60018303610d12565b15610cce576301e2850083039250610cd8565b6301e13380830392505b600182039150610ca7565b509392505050565b60016020526000908152604090205481565b6000610d08826112f7565b6020015192915050565b60006003821615610d2557506000610884565b606461ffff83160661ffff1615610d3e57506001610884565b61019061ffff83160661ffff1615610d5857506000610884565b506001919050565b600160a060020a031660009081526001602052604090205490565b6000610d85611490565b610d8e42611445565b600160a060020a0390931660009081526005602090815260408083208187015160ff90811685529083528184208388015190911684528252808320955161ffff168352949052929092205492915050565b60065474010000000000000000000000000000000000000000900460ff1681565b60001901600061019082046064830460048404030192915050565b60008260ff1660011480610e3257508260ff166003145b80610e4057508260ff166005145b80610e4e57508260ff166007145b80610e5c57508260ff166008145b80610e6a57508260ff16600a145b80610e7857508260ff16600c145b15610e855750601f610edd565b8260ff1660041480610e9a57508260ff166006145b80610ea857508260ff166009145b80610eb657508260ff16600b145b15610ec35750601e610edd565b610ecc82610d12565b15610ed95750601d610edd565b50601c5b92915050565b6000805433600160a060020a03908116911614610eff57600080fd5b600160a060020a03821660009081526002602052604081205411610f2257600080fd5b50600160a060020a03808216600081815260026020908152604080832080549084905560065482517fa9059cbb00000000000000000000000000000000000000000000000000000000815260048101969096526024860182905291519095919091169363a9059cbb9360448083019493928390030190829087803b15801561083157600080fd5b60065433600160a060020a03908116911614610a7b57600080fd5b60005433600160a060020a03908116911614610fdf57600080fd5b600160a060020a03821660009081526001602052604090205461100290826112e1565b600160a060020a0390921660009081526001602052604090209190915550565b6000805433600160a060020a0390811691161461103e57600080fd5b50600160a060020a0381166000908152600460205260408120549081111561086857600160a060020a0382166000818152600460205260408082208290555183156108fc0291849190818181858888f19350505050158015610a7b573d6000803e3d6000fd5b6000805433600160a060020a039081169116146110c057600080fd5b600160a060020a0383166000908152600460205260409020546110e390836112e1565b600160a060020a03841660009081526004602052604090205550600192915050565b60046020526000908152604090205481565b60005433600160a060020a0390811691161461113257600080fd5b600160a060020a038116151561114757600080fd5b60008054604051600160a060020a03808516939216917f8be0079c531659141344cd1fd0a4f28419497f9722a3daafe3b4186f6b6457e091a36000805473ffffffffffffffffffffffffffffffffffffffff1916600160a060020a0392909216919091179055565b60006111b9611490565b60005433600160a060020a039081169116146111d457600080fd5b600160a060020a0385166000908152600460205260409020548311156111f957600080fd5b600160a060020a03851660009081526004602052604090205461121c908461145e565b600160a060020a03861660009081526004602052604090205561123e85610d7b565b915061124942611445565b905061125582846112e1565b600160a060020a0380871660009081526005602090815260408083208682015160ff90811685529083528184208784015190911684528252808320865161ffff1684529091528082209390935591519086169185156108fc02918691818181858888f193505050501580156112ce573d6000803e3d6000fd5b505050505050565b6000603c8083610876565b6000828201838110156112f057fe5b9392505050565b6112ff611490565b600080808061130d86610c5b565b61ffff16855261131e6107b2610e00565b855161132d9061ffff16610e00565b039250826301e285000284019350826107b286600001510361ffff16036301e133800284019350600191505b600c60ff8316116113a357611372828660000151610e1b565b60ff16620151800290508584820111156113945760ff821660208601526113a3565b92830192600190910190611359565b600191505b6113ba85602001518660000151610e1b565b60ff168260ff161115156113f7578584620151800111156113e35760ff821660408601526113f7565b6201518093909301926001909101906113a8565b6114008661086c565b60ff166060860152611411866112d6565b60ff16608086015261142286610ac7565b60ff1660a086015261143386610889565b60ff1660c08601525092949350505050565b61144d611490565b611455611490565b6112f0836112f7565b60008282111561146a57fe5b50900390565b61018060405190810160405280600c906020820280388339509192915050565b6040805160e081018252600080825260208201819052918101829052606081018290526080810182905260a0810182905260c0810191909152905600a165627a7a72305820acf1f8a9685163bab45634d65d260f525cb898c4455280466e4a0d8b1e55332d0029",
  "source": "pragma solidity ^0.4.21;\n\nimport 'zeppelin-solidity/contracts/ownership/Ownable.sol';\nimport './zepellin/SafeMath.sol';\nimport './dth/tokenfoundry/ERC223ReceivingContract.sol';\nimport './dth/tokenfoundry/ERC223Basic.sol';\nimport 'bytes/BytesLib.sol';\nimport 'ethereum-datetime/contracts/DateTime.sol';\n\n/// @title Contract that will store the Dth from user\ncontract DetherBank is ERC223ReceivingContract, Ownable, SafeMath, DateTime {\n  using BytesLib for bytes;\n\n  /*\n   * Event\n   */\n  event receiveDth(address _from, uint amount);\n  event receiveEth(address _from, uint amount);\n  event sendDth(address _from, uint amount);\n  event sendEth(address _from, uint amount);\n\n  mapping(address => uint) public dthShopBalance;\n  mapping(address => uint) public dthTellerBalance;\n  mapping(address => uint) public ethShopBalance;\n  mapping(address => uint) public ethTellerBalance;\n\n\n  // store a mapping with per day/month/year a uint256 containing the wei sold amount on that date\n  //\n  //      user               day               month             year      weiSold\n  mapping(address => mapping(uint16 => mapping(uint16 => mapping(uint16 => uint256)))) ethSellsUserToday;\n\n  ERC223Basic public dth;\n  bool public isInit = false;\n\n  /**\n   * INIT\n   */\n  function setDth (address _dth) external onlyOwner {\n    require(!isInit);\n    dth = ERC223Basic(_dth);\n    isInit = true;\n  }\n\n  /**\n   * Core fonction\n   */\n  // withdraw DTH when teller delete\n  function withdrawDthTeller(address _receiver) external onlyOwner {\n    require(dthTellerBalance[_receiver] > 0);\n    uint tosend = dthTellerBalance[_receiver];\n    dthTellerBalance[_receiver] = 0;\n    require(dth.transfer(_receiver, tosend));\n  }\n  // withdraw DTH when shop delete\n  function withdrawDthShop(address _receiver) external onlyOwner  {\n    require(dthShopBalance[_receiver] > 0);\n    uint tosend = dthShopBalance[_receiver];\n    dthShopBalance[_receiver] = 0;\n    require(dth.transfer(_receiver, tosend));\n  }\n  // withdraw DTH when a shop add by admin is delete\n  function withdrawDthShopAdmin(address _from, address _receiver) external onlyOwner  {\n    require(dthShopBalance[_from]  > 0);\n    uint tosend = dthShopBalance[_from];\n    dthShopBalance[_from] = 0;\n    require(dth.transfer(_receiver, tosend));\n  }\n\n  // add DTH when shop register\n  function addTokenShop(address _from, uint _value) external onlyOwner {\n    dthShopBalance[_from] = SafeMath.add(dthShopBalance[_from], _value);\n  }\n  // add DTH when token register\n  function addTokenTeller(address _from, uint _value) external onlyOwner{\n    dthTellerBalance[_from] = SafeMath.add(dthTellerBalance[_from], _value);\n  }\n  // add ETH for escrow teller\n  function addEthTeller(address _from, uint _value) external payable onlyOwner returns (bool) {\n    ethTellerBalance[_from] = SafeMath.add(ethTellerBalance[_from] ,_value);\n    return true;\n  }\n  // helper function to extra date info from block.timestamp\n  function getDateInfo(uint timestamp) internal view returns(_DateTime) {\n    // use DateTime.sol to extract date info from the timestamp\n    _DateTime memory date = parseTimestamp(timestamp);\n    return date;\n  }\n  // withdraw ETH for teller escrow + save amount sold today for the _from user\n  function withdrawEth(address _from, address _to, uint _amount) external onlyOwner {\n    require(ethTellerBalance[_from] >= _amount);\n    ethTellerBalance[_from] = SafeMath.sub(ethTellerBalance[_from], _amount);\n\n    uint256 weiSoldToday = getWeiSoldToday(_from);\n\n    _DateTime memory date = getDateInfo(block.timestamp);\n\n    // add the sold amount, should not exceed daily limit (checked in DetherCore)\n    ethSellsUserToday[_from][date.day][date.month][date.year] = SafeMath.add(weiSoldToday, _amount);\n\n    _to.transfer(_amount);\n  }\n  // refund all ETH from teller contract\n  function refundEth(address _from) external onlyOwner {\n    uint toSend = ethTellerBalance[_from];\n    if (toSend > 0) {\n      ethTellerBalance[_from] = 0;\n      _from.transfer(toSend);\n    }\n  }\n\n  /**\n   * GETTER\n   */\n  function getDthTeller(address _user) public view returns (uint) {\n    return dthTellerBalance[_user];\n  }\n  function getDthShop(address _user) public view returns (uint) {\n    return dthShopBalance[_user];\n  }\n\n  function getEthBalTeller(address _user) public view returns (uint) {\n    return ethTellerBalance[_user];\n  }\n\n  // get amount wei sold today for this user\n  function getWeiSoldToday(address _user) public view returns (uint256 weiSoldToday) {\n    // use DateTime.sol to extract date info from the timestamp\n    _DateTime memory date = getDateInfo(block.timestamp);\n    weiSoldToday = ethSellsUserToday[_user][date.day][date.month][date.year];\n  }\n\n  /// @dev Standard ERC223 function that will handle incoming token transfers.\n  // DO NOTHING but allow to receive token when addToken* function are called\n  // by the dethercore contract\n  function tokenFallback(address _from, uint _value, bytes _data) {\n    require(msg.sender == address(dth));\n  }\n\n}\n",
  "sourcePath": "/Users/mehdi/code/dether/detherContracts/contracts/DetherBank.sol",
  "compiler": {
    "name": "solc",
    "version": "0.4.23+commit.124ca40d.Emscripten.clang"
  },
  "schemaVersion": "2.0.0",
  "updatedAt": "2018-06-27T16:32:21.578Z"
}