{
  "contractName": "DSMathWdiv",
  "abi": [
    {
      "constant": true,
      "inputs": [],
      "name": "WAD",
      "outputs": [
        {
          "name": "",
          "type": "uint256"
        }
      ],
      "payable": false,
      "stateMutability": "view",
      "type": "function"
    }
  ],
  "bytecode": "0x6080604052348015600f57600080fd5b50609e8061001e6000396000f3fe6080604052348015600f57600080fd5b50600436106045576000357c0100000000000000000000000000000000000000000000000000000000900480636a14602414604a575b600080fd5b60506066565b6040518082815260200191505060405180910390f35b670de0b6b3a76400008156fea165627a7a72305820a2768b7d21693544fe87675e9a5d230c80535b73105a76f0062b13ebe418dca80029",
  "source": "pragma solidity ^0.5.3;\n\ncontract DSMathWdiv {\n  function add(uint x, uint y) internal pure returns (uint z) {\n    require((z = x + y) >= x);\n  }\n  function mul(uint x, uint y) internal pure returns (uint z) {\n    require(y == 0 || (z = x * y) / y == x);\n  }\n\n  uint public constant WAD = 10 ** 18;\n\n  function wdiv(uint x, uint y) internal pure returns (uint z) {\n    z = add(mul(x, WAD), y / 2) / y;\n  }\n}",
  "sourcePath": "/Users/trip/Projects/detherContracts/contracts/dappsys/DSMathWdiv.sol",
  "compiler": {
    "name": "solc",
    "version": "0.5.3+commit.10d17f24.Emscripten.clang"
  },
  "schemaVersion": "3.0.2",
  "updatedAt": "2019-03-03T15:33:40.661Z",
  "devdoc": {
    "methods": {}
  },
  "userdoc": {
    "methods": {}
  }
}