{
  "contractName": "DSMathWdiv",
  "abi": [
    {
      "constant": true,
      "inputs": [],
      "name": "WAD",
      "outputs": [
        {
          "name": "",
          "type": "uint256"
        }
      ],
      "payable": false,
      "stateMutability": "view",
      "type": "function"
    }
  ],
  "bytecode": "0x6080604052348015600f57600080fd5b50608a8061001e6000396000f3fe6080604052348015600f57600080fd5b506004361060285760003560e01c80636a14602414602d575b600080fd5b60336049565b6040518082815260200191505060405180910390f35b670de0b6b3a76400008156fea265627a7a72305820103125f19d3c7305b13feface2c9e906fc70adefb596ea80ab2d3e4a835362cf64736f6c634300050a0032",
  "source": "pragma solidity ^0.5.10;\n\ncontract DSMathWdiv {\n  function add(uint x, uint y) internal pure returns (uint z) {\n    require((z = x + y) >= x);\n  }\n  function mul(uint x, uint y) internal pure returns (uint z) {\n    require(y == 0 || (z = x * y) / y == x);\n  }\n\n  uint public constant WAD = 10 ** 18;\n\n  function wdiv(uint x, uint y) internal pure returns (uint z) {\n    z = add(mul(x, WAD), y / 2) / y;\n  }\n}",
  "sourcePath": "/Users/mehdi/code/dether/contractV2/contracts/dappsys/DSMathWdiv.sol",
  "compiler": {
    "name": "solc",
    "version": "0.5.10+commit.5a6ea5b1.Emscripten.clang"
  },
  "schemaVersion": "3.0.11",
  "updatedAt": "2019-07-05T13:10:43.858Z",
  "devdoc": {
    "methods": {}
  },
  "userdoc": {
    "methods": {}
  }
}