{
  "contractName": "ExchangeRateOracle",
  "abi": [
    {
      "constant": true,
      "inputs": [],
      "name": "WAD",
      "outputs": [
        {
          "name": "",
          "type": "uint256"
        }
      ],
      "payable": false,
      "stateMutability": "view",
      "type": "function",
      "signature": "0x6a146024"
    },
    {
      "constant": true,
      "inputs": [],
      "name": "mkrPriceFeed",
      "outputs": [
        {
          "name": "",
          "type": "address"
        }
      ],
      "payable": false,
      "stateMutability": "view",
      "type": "function",
      "signature": "0xa60c5899"
    },
    {
      "inputs": [
        {
          "name": "mkrPriceFeed_",
          "type": "address"
        }
      ],
      "payable": false,
      "stateMutability": "nonpayable",
      "type": "constructor",
      "signature": "constructor"
    },
    {
      "constant": true,
      "inputs": [],
      "name": "getWeiPriceOneUsd",
      "outputs": [
        {
          "name": "",
          "type": "uint256"
        }
      ],
      "payable": false,
      "stateMutability": "view",
      "type": "function",
      "signature": "0x50ccf36b"
    }
  ],
  "bytecode": "0x608060405234801561001057600080fd5b506040516020806103568339810180604052602081101561003057600080fd5b8101908080519060200190929190505050806000806101000a81548173ffffffffffffffffffffffffffffffffffffffff021916908373ffffffffffffffffffffffffffffffffffffffff160217905550506102c5806100916000396000f3fe608060405234801561001057600080fd5b506004361061005e576000357c01000000000000000000000000000000000000000000000000000000009004806350ccf36b146100635780636a14602414610081578063a60c58991461009f575b600080fd5b61006b6100e9565b6040518082815260200191505060405180910390f35b6100896101e0565b6040518082815260200191505060405180910390f35b6100a76101ec565b604051808273ffffffffffffffffffffffffffffffffffffffff1673ffffffffffffffffffffffffffffffffffffffff16815260200191505060405180910390f35b60008060008060009054906101000a900473ffffffffffffffffffffffffffffffffffffffff1673ffffffffffffffffffffffffffffffffffffffff166359e02dd76040518163ffffffff167c0100000000000000000000000000000000000000000000000000000000028152600401604080518083038186803b15801561017057600080fd5b505afa158015610184573d6000803e3d6000fd5b505050506040513d604081101561019a57600080fd5b810190808051906020019092919080519060200190929190505050809250819350505060006101d5670de0b6b3a76400008460019004610211565b905080935050505090565b670de0b6b3a764000081565b6000809054906101000a900473ffffffffffffffffffffffffffffffffffffffff1681565b60008161023b61022985670de0b6b3a764000061024d565b60028581151561023557fe5b0461027d565b81151561024457fe5b04905092915050565b60008082148061026c5750828283850292508281151561026957fe5b04145b151561027757600080fd5b92915050565b6000828284019150811015151561029357600080fd5b9291505056fea165627a7a723058206967c8ac8c09b41212e5a2f5ecee1f2be5e6692702b210b4b69a9f0a531462f30029",
  "source": "pragma solidity ^0.5.5;\n\nimport \"../dappsys/DSMathWdiv.sol\";\n\nimport \"../interfaces/IMedianizer.sol\";\n\ncontract ExchangeRateOracle is DSMathWdiv {\n\n  IMedianizer public mkrPriceFeed;\n\n  constructor(address mkrPriceFeed_)\n    public\n  {\n    mkrPriceFeed = IMedianizer(mkrPriceFeed_);\n  }\n\n  /**\n   * @dev Return wei price of 1 USD\n   */\n  function getWeiPriceOneUsd() public view returns(uint) {\n    // get usd price of 1 eth from maker contract\n    bytes32 priceRaw;\n    bool success;\n    (priceRaw, success) = mkrPriceFeed.peek();\n\n    // convert \"1 eth = X usd\" to \"X eth = 1 usd\"\n    uint256 weiPriceOneUsd = wdiv(WAD, uint(priceRaw));\n\n    return weiPriceOneUsd;\n  }\n}\n",
  "sourcePath": "/Users/mehdi/code/dether/contractV2/contracts/oracle/ExchangeRateOracle.sol",
  "compiler": {
    "name": "solc",
    "version": "0.5.5+commit.47a71e8f.Emscripten.clang"
  },
  "schemaVersion": "3.0.3",
  "updatedAt": "2019-04-08T19:27:32.946Z",
  "devdoc": {
    "methods": {
      "getWeiPriceOneUsd()": {
        "details": "Return wei price of 1 USD"
      }
    }
  },
  "userdoc": {
    "methods": {}
  }
}