{
  "contractName": "FakeExchangeRateOracle",
  "abi": [
    {
      "constant": true,
      "inputs": [],
      "name": "WAD",
      "outputs": [
        {
          "name": "",
          "type": "uint256"
        }
      ],
      "payable": false,
      "stateMutability": "view",
      "type": "function"
    },
    {
      "constant": true,
      "inputs": [],
      "name": "getWeiPriceOneUsd",
      "outputs": [
        {
          "name": "",
          "type": "uint256"
        }
      ],
      "payable": false,
      "stateMutability": "view",
      "type": "function"
    }
  ],
  "bytecode": "0x608060405234801561001057600080fd5b50610152806100206000396000f30060806040526004361061004b5763ffffffff7c010000000000000000000000000000000000000000000000000000000060003504166350ccf36b81146100505780636a14602414610077575b600080fd5b34801561005c57600080fd5b5061006561008c565b60408051918252519081900360200190f35b34801561008357600080fd5b506100656100b0565b6000806100aa670de0b6b3a7640000681bd635979fa725c0006100bc565b92915050565b670de0b6b3a764000081565b6000816100dd6100d485670de0b6b3a76400006100ee565b60028504610116565b8115156100e657fe5b049392505050565b600081158061010b57505080820282828281151561010857fe5b04145b15156100aa57600080fd5b808201828110156100aa57600080fd00a165627a7a723058204c16bfa84da671c7e8d37e52e3ba3b0e5e9aecc9d2b2ee70c2eeb5f556bdd3510029",
  "source": "pragma solidity ^0.4.24;\n\nimport \"../dappsys/DSMathWdiv.sol\";\nimport \"./IExchangeRateOracle.sol\";\nimport \"./IMedianizer.sol\";\n\ncontract FakeExchangeRateOracle is DSMathWdiv, IExchangeRateOracle {\n  /**\n   * @dev Return wei price of 1 USD\n   */\n  function getWeiPriceOneUsd() public view returns(uint) {\n    // we fake it here so we can test it, the value represents:\n    // 513 dollar and 4975 cents\n    uint256 weiPriceOneUsd = wdiv(WAD, 513497500000000000000);\n\n    return weiPriceOneUsd;\n  }\n}\n",
  "sourcePath": "/Users/trip/Projects/detherContracts/contracts/oracle/FakeExchangeRateOracle.sol",
  "compiler": {
    "name": "solc",
    "version": "0.4.24+commit.e67f0147.Emscripten.clang"
  },
  "schemaVersion": "2.0.1",
  "updatedAt": "2018-11-28T16:15:51.939Z"
}