{
  "contractName": "FakeExchangeRateOracle",
  "abi": [
    {
      "constant": true,
      "inputs": [],
      "name": "getWeiPriceOneUsd",
      "outputs": [
        {
          "name": "",
          "type": "uint256"
        }
      ],
      "payable": false,
      "stateMutability": "view",
      "type": "function"
    }
  ],
  "bytecode": "0x608060405234801561001057600080fd5b50610116806100206000396000f300608060405260043610603e5763ffffffff7c010000000000000000000000000000000000000000000000000000000060003504166350ccf36b81146043575b600080fd5b348015604e57600080fd5b5060556067565b60408051918252519081900360200190f35b6000806083670de0b6b3a7640000681bd635979fa725c0006089565b92915050565b60008160a6609e85670de0b6b3a764000060b6565b6002850460db565b81151560ae57fe5b049392505050565b600081158060d157505080820282828281151560ce57fe5b04145b1515608357600080fd5b80820182811015608357600080fd00a165627a7a7230582015d904ff23cd9ecd116e1b7c526a2f454b18270ac0710a5b71f0ac8ae0258e2a0029",
  "source": "pragma solidity ^0.4.21;\n\ncontract DSMath {\n  function add(uint x, uint y) internal pure returns (uint z) {\n    require((z = x + y) >= x);\n  }\n  function mul(uint x, uint y) internal pure returns (uint z) {\n    require(y == 0 || (z = x * y) / y == x);\n  }\n\n  uint constant WAD = 10 ** 18;\n\n  function wdiv(uint x, uint y) internal pure returns (uint z) {\n    z = add(mul(x, WAD), y / 2) / y;\n  }\n}\n\ncontract Medianizer {\n  function peek() constant public returns (bytes32, bool);\n}\n\ncontract FakeExchangeRateOracle is DSMath {\n  /**\n   * @dev Return wei price of 1 USD\n   */\n  function getWeiPriceOneUsd() public view returns(uint) {\n    // we fake it here so we can test it, the value represents:\n    // 513 dollar and 4975 cents\n    uint256 weiPriceOneUsd = DSMath.wdiv(WAD, 513497500000000000000);\n\n    return weiPriceOneUsd;\n  }\n}\n",
  "sourcePath": "/Users/mehdi/code/dether/detherContracts/contracts/FakeExchangeRateOracle.sol",
  "compiler": {
    "name": "solc",
    "version": "0.4.23+commit.124ca40d.Emscripten.clang"
  },
  "schemaVersion": "2.0.0",
  "updatedAt": "2018-08-07T13:18:48.743Z"
}