{
  "contractName": "FakeExchangeRateOracle",
  "abi": [
    {
      "constant": true,
      "inputs": [],
      "name": "WAD",
      "outputs": [
        {
          "name": "",
          "type": "uint256"
        }
      ],
      "payable": false,
      "stateMutability": "view",
      "type": "function"
    },
    {
      "constant": true,
      "inputs": [],
      "name": "getWeiPriceOneUsd",
      "outputs": [
        {
          "name": "",
          "type": "uint256"
        }
      ],
      "payable": false,
      "stateMutability": "view",
      "type": "function"
    }
  ],
  "bytecode": "0x608060405234801561001057600080fd5b50610171806100206000396000f3fe608060405234801561001057600080fd5b5060043610610053576000357c01000000000000000000000000000000000000000000000000000000009004806350ccf36b146100585780636a14602414610076575b600080fd5b610060610094565b6040518082815260200191505060405180910390f35b61007e6100bb565b6040518082815260200191505060405180910390f35b6000806100b2670de0b6b3a76400006808289286e14c59c0006100c7565b90508091505090565b670de0b6b3a764000081565b6000816100ef6100df85670de0b6b3a76400006100ff565b600285816100e957fe5b0461012b565b816100f657fe5b04905092915050565b60008082148061011c575082828385029250828161011957fe5b04145b61012557600080fd5b92915050565b600082828401915081101561013f57600080fd5b9291505056fea165627a7a72305820d1210a0551221afa6e997a0954c7396de3b92bc974d5bbcb348498344f4b38b30029",
  "source": "pragma solidity ^0.5.8;\n\nimport \"../dappsys/DSMathWdiv.sol\";\n\nimport \"../interfaces/IMedianizer.sol\";\n\ncontract FakeExchangeRateOracle is DSMathWdiv {\n  /**\n   * @dev Return wei price of 1 USD\n   */\n  function getWeiPriceOneUsd() public view returns(uint) {\n    // we fake it here so we can test it, the value represents:\n    // 150 dollar and 4975 cents\n    uint256 weiPriceOneUsd = wdiv(WAD, 150497500000000000000);\n\n    return weiPriceOneUsd;\n  }\n}\n",
  "sourcePath": "/Users/mehdi/code/dether/contractV2/contracts/oracle/FakeExchangeRateOracle.sol",
  "compiler": {
    "name": "solc",
    "version": "0.5.8+commit.23d335f2.Emscripten.clang"
  },
  "schemaVersion": "3.0.11",
  "updatedAt": "2019-07-03T15:46:09.369Z",
  "devdoc": {
    "methods": {
      "getWeiPriceOneUsd()": {
        "details": "Return wei price of 1 USD"
      }
    }
  },
  "userdoc": {
    "methods": {}
  }
}