{
  "contractName": "GeoRegistry",
  "abi": [
    {
      "constant": true,
      "inputs": [
        {
          "name": "",
          "type": "bytes2"
        }
      ],
      "name": "countryIsEnabled",
      "outputs": [
        {
          "name": "",
          "type": "bool"
        }
      ],
      "payable": false,
      "stateMutability": "view",
      "type": "function"
    },
    {
      "constant": true,
      "inputs": [
        {
          "name": "",
          "type": "bytes2"
        }
      ],
      "name": "countryIsFilled",
      "outputs": [
        {
          "name": "",
          "type": "bool"
        }
      ],
      "payable": false,
      "stateMutability": "view",
      "type": "function"
    },
    {
      "constant": true,
      "inputs": [
        {
          "name": "",
          "type": "uint256"
        }
      ],
      "name": "enabledCountries",
      "outputs": [
        {
          "name": "",
          "type": "bytes2"
        }
      ],
      "payable": false,
      "stateMutability": "view",
      "type": "function"
    },
    {
      "constant": true,
      "inputs": [
        {
          "name": "",
          "type": "bytes2"
        },
        {
          "name": "",
          "type": "bytes3"
        }
      ],
      "name": "level_2",
      "outputs": [
        {
          "name": "",
          "type": "bytes4"
        }
      ],
      "payable": false,
      "stateMutability": "view",
      "type": "function"
    },
    {
      "constant": true,
      "inputs": [
        {
          "name": "",
          "type": "bytes2"
        }
      ],
      "name": "shopLicensePrice",
      "outputs": [
        {
          "name": "",
          "type": "uint256"
        }
      ],
      "payable": false,
      "stateMutability": "view",
      "type": "function"
    },
    {
      "constant": true,
      "inputs": [],
      "name": "control",
      "outputs": [
        {
          "name": "",
          "type": "address"
        }
      ],
      "payable": false,
      "stateMutability": "view",
      "type": "function"
    },
    {
      "inputs": [
        {
          "name": "_control",
          "type": "address"
        }
      ],
      "payable": false,
      "stateMutability": "nonpayable",
      "type": "constructor"
    },
    {
      "anonymous": false,
      "inputs": [
        {
          "indexed": true,
          "name": "country",
          "type": "bytes2"
        }
      ],
      "name": "GeoRegistryCountryEnabled",
      "type": "event"
    },
    {
      "anonymous": false,
      "inputs": [
        {
          "indexed": true,
          "name": "country",
          "type": "bytes2"
        }
      ],
      "name": "GeoRegistryCountryDisabled",
      "type": "event"
    },
    {
      "constant": true,
      "inputs": [
        {
          "name": "_bytes",
          "type": "bytes"
        }
      ],
      "name": "validGeohashChars",
      "outputs": [
        {
          "name": "",
          "type": "bool"
        }
      ],
      "payable": false,
      "stateMutability": "view",
      "type": "function"
    },
    {
      "constant": true,
      "inputs": [
        {
          "name": "_bytes",
          "type": "bytes12"
        }
      ],
      "name": "validGeohashChars12",
      "outputs": [
        {
          "name": "",
          "type": "bool"
        }
      ],
      "payable": false,
      "stateMutability": "view",
      "type": "function"
    },
    {
      "constant": true,
      "inputs": [
        {
          "name": "_countryCode",
          "type": "bytes2"
        },
        {
          "name": "_zone",
          "type": "bytes4"
        }
      ],
      "name": "zoneInsideCountry",
      "outputs": [
        {
          "name": "",
          "type": "bool"
        }
      ],
      "payable": false,
      "stateMutability": "view",
      "type": "function"
    },
    {
      "constant": false,
      "inputs": [
        {
          "name": "_countryCode",
          "type": "bytes2"
        },
        {
          "name": "_letter",
          "type": "bytes3"
        },
        {
          "name": "_subLetters",
          "type": "bytes4"
        }
      ],
      "name": "updateLevel2",
      "outputs": [],
      "payable": false,
      "stateMutability": "nonpayable",
      "type": "function"
    },
    {
      "constant": false,
      "inputs": [
        {
          "name": "_countryCode",
          "type": "bytes2"
        },
        {
          "name": "_letters",
          "type": "bytes3[]"
        },
        {
          "name": "_subLetters",
          "type": "bytes4[]"
        }
      ],
      "name": "updateLevel2batch",
      "outputs": [],
      "payable": false,
      "stateMutability": "nonpayable",
      "type": "function"
    },
    {
      "constant": false,
      "inputs": [
        {
          "name": "_countryCode",
          "type": "bytes2"
        }
      ],
      "name": "endInit",
      "outputs": [],
      "payable": false,
      "stateMutability": "nonpayable",
      "type": "function"
    },
    {
      "constant": false,
      "inputs": [
        {
          "name": "_country",
          "type": "bytes2"
        }
      ],
      "name": "enableCountry",
      "outputs": [],
      "payable": false,
      "stateMutability": "nonpayable",
      "type": "function"
    },
    {
      "constant": false,
      "inputs": [
        {
          "name": "_country",
          "type": "bytes2"
        }
      ],
      "name": "disableCountry",
      "outputs": [],
      "payable": false,
      "stateMutability": "nonpayable",
      "type": "function"
    }
  ],
  "bytecode": "0x608060405234801561001057600080fd5b5060405160208061361f8339810180604052602081101561003057600080fd5b810190808051906020019092919050505080600160006101000a81548173ffffffffffffffffffffffffffffffffffffffff021916908373ffffffffffffffffffffffffffffffffffffffff1602179055507f80000000000000000000000000000000000000000000000000000000000000006000807f76000000000000000000000000000000000000000000000000000000000000007effffffffffffffffffffffffffffffffffffffffffffffffffffffffffffff19167effffffffffffffffffffffffffffffffffffffffffffffffffffffffffffff1916815260200190815260200160002060006101000a81548163ffffffff02191690837c0100000000000000000000000000000000000000000000000000000000900402179055507f40000000000000000000000000000000000000000000000000000000000000006000807f79000000000000000000000000000000000000000000000000000000000000007effffffffffffffffffffffffffffffffffffffffffffffffffffffffffffff19167effffffffffffffffffffffffffffffffffffffffffffffffffffffffffffff1916815260200190815260200160002060006101000a81548163ffffffff02191690837c0100000000000000000000000000000000000000000000000000000000900402179055507f20000000000000000000000000000000000000000000000000000000000000006000807f7a000000000000000000000000000000000000000000000000000000000000007effffffffffffffffffffffffffffffffffffffffffffffffffffffffffffff19167effffffffffffffffffffffffffffffffffffffffffffffffffffffffffffff1916815260200190815260200160002060006101000a81548163ffffffff02191690837c0100000000000000000000000000000000000000000000000000000000900402179055507f10000000000000000000000000000000000000000000000000000000000000006000807f62000000000000000000000000000000000000000000000000000000000000007effffffffffffffffffffffffffffffffffffffffffffffffffffffffffffff19167effffffffffffffffffffffffffffffffffffffffffffffffffffffffffffff1916815260200190815260200160002060006101000a81548163ffffffff02191690837c0100000000000000000000000000000000000000000000000000000000900402179055507f08000000000000000000000000000000000000000000000000000000000000006000807f63000000000000000000000000000000000000000000000000000000000000007effffffffffffffffffffffffffffffffffffffffffffffffffffffffffffff19167effffffffffffffffffffffffffffffffffffffffffffffffffffffffffffff1916815260200190815260200160002060006101000a81548163ffffffff02191690837c0100000000000000000000000000000000000000000000000000000000900402179055507f04000000000000000000000000000000000000000000000000000000000000006000807f66000000000000000000000000000000000000000000000000000000000000007effffffffffffffffffffffffffffffffffffffffffffffffffffffffffffff19167effffffffffffffffffffffffffffffffffffffffffffffffffffffffffffff1916815260200190815260200160002060006101000a81548163ffffffff02191690837c0100000000000000000000000000000000000000000000000000000000900402179055507f02000000000000000000000000000000000000000000000000000000000000006000807f67000000000000000000000000000000000000000000000000000000000000007effffffffffffffffffffffffffffffffffffffffffffffffffffffffffffff19167effffffffffffffffffffffffffffffffffffffffffffffffffffffffffffff1916815260200190815260200160002060006101000a81548163ffffffff02191690837c0100000000000000000000000000000000000000000000000000000000900402179055507f01000000000000000000000000000000000000000000000000000000000000006000807f75000000000000000000000000000000000000000000000000000000000000007effffffffffffffffffffffffffffffffffffffffffffffffffffffffffffff19167effffffffffffffffffffffffffffffffffffffffffffffffffffffffffffff1916815260200190815260200160002060006101000a81548163ffffffff02191690837c0100000000000000000000000000000000000000000000000000000000900402179055507e800000000000000000000000000000000000000000000000000000000000006000807f74000000000000000000000000000000000000000000000000000000000000007effffffffffffffffffffffffffffffffffffffffffffffffffffffffffffff19167effffffffffffffffffffffffffffffffffffffffffffffffffffffffffffff1916815260200190815260200160002060006101000a81548163ffffffff02191690837c0100000000000000000000000000000000000000000000000000000000900402179055507e400000000000000000000000000000000000000000000000000000000000006000807f77000000000000000000000000000000000000000000000000000000000000007effffffffffffffffffffffffffffffffffffffffffffffffffffffffffffff19167effffffffffffffffffffffffffffffffffffffffffffffffffffffffffffff1916815260200190815260200160002060006101000a81548163ffffffff02191690837c0100000000000000000000000000000000000000000000000000000000900402179055507e200000000000000000000000000000000000000000000000000000000000006000807f78000000000000000000000000000000000000000000000000000000000000007effffffffffffffffffffffffffffffffffffffffffffffffffffffffffffff19167effffffffffffffffffffffffffffffffffffffffffffffffffffffffffffff1916815260200190815260200160002060006101000a81548163ffffffff02191690837c0100000000000000000000000000000000000000000000000000000000900402179055507e100000000000000000000000000000000000000000000000000000000000006000807f38000000000000000000000000000000000000000000000000000000000000007effffffffffffffffffffffffffffffffffffffffffffffffffffffffffffff19167effffffffffffffffffffffffffffffffffffffffffffffffffffffffffffff1916815260200190815260200160002060006101000a81548163ffffffff02191690837c0100000000000000000000000000000000000000000000000000000000900402179055507e080000000000000000000000000000000000000000000000000000000000006000807f39000000000000000000000000000000000000000000000000000000000000007effffffffffffffffffffffffffffffffffffffffffffffffffffffffffffff19167effffffffffffffffffffffffffffffffffffffffffffffffffffffffffffff1916815260200190815260200160002060006101000a81548163ffffffff02191690837c0100000000000000000000000000000000000000000000000000000000900402179055507e040000000000000000000000000000000000000000000000000000000000006000807f64000000000000000000000000000000000000000000000000000000000000007effffffffffffffffffffffffffffffffffffffffffffffffffffffffffffff19167effffffffffffffffffffffffffffffffffffffffffffffffffffffffffffff1916815260200190815260200160002060006101000a81548163ffffffff02191690837c0100000000000000000000000000000000000000000000000000000000900402179055507e020000000000000000000000000000000000000000000000000000000000006000807f65000000000000000000000000000000000000000000000000000000000000007effffffffffffffffffffffffffffffffffffffffffffffffffffffffffffff19167effffffffffffffffffffffffffffffffffffffffffffffffffffffffffffff1916815260200190815260200160002060006101000a81548163ffffffff02191690837c0100000000000000000000000000000000000000000000000000000000900402179055507e010000000000000000000000000000000000000000000000000000000000006000807f73000000000000000000000000000000000000000000000000000000000000007effffffffffffffffffffffffffffffffffffffffffffffffffffffffffffff19167effffffffffffffffffffffffffffffffffffffffffffffffffffffffffffff1916815260200190815260200160002060006101000a81548163ffffffff02191690837c0100000000000000000000000000000000000000000000000000000000900402179055507d8000000000000000000000000000000000000000000000000000000000006000807f6d000000000000000000000000000000000000000000000000000000000000007effffffffffffffffffffffffffffffffffffffffffffffffffffffffffffff19167effffffffffffffffffffffffffffffffffffffffffffffffffffffffffffff1916815260200190815260200160002060006101000a81548163ffffffff02191690837c0100000000000000000000000000000000000000000000000000000000900402179055507d4000000000000000000000000000000000000000000000000000000000006000807f71000000000000000000000000000000000000000000000000000000000000007effffffffffffffffffffffffffffffffffffffffffffffffffffffffffffff19167effffffffffffffffffffffffffffffffffffffffffffffffffffffffffffff1916815260200190815260200160002060006101000a81548163ffffffff02191690837c0100000000000000000000000000000000000000000000000000000000900402179055507d2000000000000000000000000000000000000000000000000000000000006000807f72000000000000000000000000000000000000000000000000000000000000007effffffffffffffffffffffffffffffffffffffffffffffffffffffffffffff19167effffffffffffffffffffffffffffffffffffffffffffffffffffffffffffff1916815260200190815260200160002060006101000a81548163ffffffff02191690837c0100000000000000000000000000000000000000000000000000000000900402179055507d1000000000000000000000000000000000000000000000000000000000006000807f32000000000000000000000000000000000000000000000000000000000000007effffffffffffffffffffffffffffffffffffffffffffffffffffffffffffff19167effffffffffffffffffffffffffffffffffffffffffffffffffffffffffffff1916815260200190815260200160002060006101000a81548163ffffffff02191690837c0100000000000000000000000000000000000000000000000000000000900402179055507d0800000000000000000000000000000000000000000000000000000000006000807f33000000000000000000000000000000000000000000000000000000000000007effffffffffffffffffffffffffffffffffffffffffffffffffffffffffffff19167effffffffffffffffffffffffffffffffffffffffffffffffffffffffffffff1916815260200190815260200160002060006101000a81548163ffffffff02191690837c0100000000000000000000000000000000000000000000000000000000900402179055507d0400000000000000000000000000000000000000000000000000000000006000807f36000000000000000000000000000000000000000000000000000000000000007effffffffffffffffffffffffffffffffffffffffffffffffffffffffffffff19167effffffffffffffffffffffffffffffffffffffffffffffffffffffffffffff1916815260200190815260200160002060006101000a81548163ffffffff02191690837c0100000000000000000000000000000000000000000000000000000000900402179055507d0200000000000000000000000000000000000000000000000000000000006000807f37000000000000000000000000000000000000000000000000000000000000007effffffffffffffffffffffffffffffffffffffffffffffffffffffffffffff19167effffffffffffffffffffffffffffffffffffffffffffffffffffffffffffff1916815260200190815260200160002060006101000a81548163ffffffff02191690837c0100000000000000000000000000000000000000000000000000000000900402179055507d0100000000000000000000000000000000000000000000000000000000006000807f6b000000000000000000000000000000000000000000000000000000000000007effffffffffffffffffffffffffffffffffffffffffffffffffffffffffffff19167effffffffffffffffffffffffffffffffffffffffffffffffffffffffffffff1916815260200190815260200160002060006101000a81548163ffffffff02191690837c0100000000000000000000000000000000000000000000000000000000900402179055507c80000000000000000000000000000000000000000000000000000000006000807f6a000000000000000000000000000000000000000000000000000000000000007effffffffffffffffffffffffffffffffffffffffffffffffffffffffffffff19167effffffffffffffffffffffffffffffffffffffffffffffffffffffffffffff1916815260200190815260200160002060006101000a81548163ffffffff02191690837c0100000000000000000000000000000000000000000000000000000000900402179055507c40000000000000000000000000000000000000000000000000000000006000807f6e000000000000000000000000000000000000000000000000000000000000007effffffffffffffffffffffffffffffffffffffffffffffffffffffffffffff19167effffffffffffffffffffffffffffffffffffffffffffffffffffffffffffff1916815260200190815260200160002060006101000a81548163ffffffff02191690837c0100000000000000000000000000000000000000000000000000000000900402179055507c20000000000000000000000000000000000000000000000000000000006000807f70000000000000000000000000000000000000000000000000000000000000007effffffffffffffffffffffffffffffffffffffffffffffffffffffffffffff19167effffffffffffffffffffffffffffffffffffffffffffffffffffffffffffff1916815260200190815260200160002060006101000a81548163ffffffff02191690837c0100000000000000000000000000000000000000000000000000000000900402179055507c10000000000000000000000000000000000000000000000000000000006000807f30000000000000000000000000000000000000000000000000000000000000007effffffffffffffffffffffffffffffffffffffffffffffffffffffffffffff19167effffffffffffffffffffffffffffffffffffffffffffffffffffffffffffff1916815260200190815260200160002060006101000a81548163ffffffff02191690837c0100000000000000000000000000000000000000000000000000000000900402179055507c08000000000000000000000000000000000000000000000000000000006000807f31000000000000000000000000000000000000000000000000000000000000007effffffffffffffffffffffffffffffffffffffffffffffffffffffffffffff19167effffffffffffffffffffffffffffffffffffffffffffffffffffffffffffff1916815260200190815260200160002060006101000a81548163ffffffff02191690837c0100000000000000000000000000000000000000000000000000000000900402179055507c04000000000000000000000000000000000000000000000000000000006000807f34000000000000000000000000000000000000000000000000000000000000007effffffffffffffffffffffffffffffffffffffffffffffffffffffffffffff19167effffffffffffffffffffffffffffffffffffffffffffffffffffffffffffff1916815260200190815260200160002060006101000a81548163ffffffff02191690837c0100000000000000000000000000000000000000000000000000000000900402179055507c02000000000000000000000000000000000000000000000000000000006000807f35000000000000000000000000000000000000000000000000000000000000007effffffffffffffffffffffffffffffffffffffffffffffffffffffffffffff19167effffffffffffffffffffffffffffffffffffffffffffffffffffffffffffff1916815260200190815260200160002060006101000a81548163ffffffff02191690837c0100000000000000000000000000000000000000000000000000000000900402179055507c01000000000000000000000000000000000000000000000000000000006000807f68000000000000000000000000000000000000000000000000000000000000007effffffffffffffffffffffffffffffffffffffffffffffffffffffffffffff19167effffffffffffffffffffffffffffffffffffffffffffffffffffffffffffff1916815260200190815260200160002060006101000a81548163ffffffff02191690837c01000000000000000000000000000000000000000000000000000000009004021790555050611bdd80611a426000396000f3fe608060405234801561001057600080fd5b5060043610610107576000357c0100000000000000000000000000000000000000000000000000000000900480638355d49e116100a9578063cd05115c11610083578063cd05115c146105fc578063d8de658714610773578063df6b2c2c146107bd578063fb83dbab1461084d57610107565b80638355d49e146104ed578063a9879ecf14610550578063bf922fe21461059f57610107565b80634bcf29a8116100e55780634bcf29a814610295578063580fa608146102fc578063694a53d71461038057806381b0bb9c1461044b57610107565b80630dc210aa1461010c5780631d0a4831146101735780634a99d27414610246575b600080fd5b6101596004803603602081101561012257600080fd5b8101908080357dffffffffffffffffffffffffffffffffffffffffffffffffffffffffffff1916906020019092919050505061089c565b604051808215151515815260200191505060405180910390f35b61022c6004803603602081101561018957600080fd5b81019080803590602001906401000000008111156101a657600080fd5b8201836020820111156101b857600080fd5b803590602001918460018302840111640100000000831117156101da57600080fd5b91908080601f016020809104026020016040519081016040528093929190818152602001838380828437600081840152601f19601f8201169050808301925050505050505091929192905050506108bc565b604051808215151515815260200191505060405180910390f35b6102936004803603602081101561025c57600080fd5b8101908080357dffffffffffffffffffffffffffffffffffffffffffffffffffffffffffff19169060200190929190505050610a36565b005b6102e2600480360360208110156102ab57600080fd5b8101908080357dffffffffffffffffffffffffffffffffffffffffffffffffffffffffffff19169060200190929190505050610da2565b604051808215151515815260200191505060405180910390f35b6103286004803603602081101561031257600080fd5b8101908080359060200190929190505050610dc2565b60405180827dffffffffffffffffffffffffffffffffffffffffffffffffffffffffffff19167dffffffffffffffffffffffffffffffffffffffffffffffffffffffffffff1916815260200191505060405180910390f35b6103f76004803603604081101561039657600080fd5b8101908080357dffffffffffffffffffffffffffffffffffffffffffffffffffffffffffff1916906020019092919080357cffffffffffffffffffffffffffffffffffffffffffffffffffffffffff19169060200190929190505050610e16565b60405180827bffffffffffffffffffffffffffffffffffffffffffffffffffffffff19167bffffffffffffffffffffffffffffffffffffffffffffffffffffffff1916815260200191505060405180910390f35b6104eb6004803603606081101561046157600080fd5b8101908080357dffffffffffffffffffffffffffffffffffffffffffffffffffffffffffff1916906020019092919080357cffffffffffffffffffffffffffffffffffffffffffffffffffffffffff1916906020019092919080357bffffffffffffffffffffffffffffffffffffffffffffffffffffffff19169060200190929190505050610e61565b005b61053a6004803603602081101561050357600080fd5b8101908080357dffffffffffffffffffffffffffffffffffffffffffffffffffffffffffff1916906020019092919050505061101d565b6040518082815260200191505060405180910390f35b61059d6004803603602081101561056657600080fd5b8101908080357dffffffffffffffffffffffffffffffffffffffffffffffffffffffffffff19169060200190929190505050611035565b005b6105e2600480360360208110156105b557600080fd5b81019080803573ffffffffffffffffffffffffffffffffffffffff191690602001909291905050506110a6565b604051808215151515815260200191505060405180910390f35b6107716004803603606081101561061257600080fd5b8101908080357dffffffffffffffffffffffffffffffffffffffffffffffffffffffffffff191690602001909291908035906020019064010000000081111561065a57600080fd5b82018360208201111561066c57600080fd5b8035906020019184602083028401116401000000008311171561068e57600080fd5b919080806020026020016040519081016040528093929190818152602001838360200280828437600081840152601f19601f820116905080830192505050505050509192919290803590602001906401000000008111156106ee57600080fd5b82018360208201111561070057600080fd5b8035906020019184602083028401116401000000008311171561072257600080fd5b919080806020026020016040519081016040528093929190818152602001838360200280828437600081840152601f19601f8201169050808301925050505050505091929192905050506111ec565b005b61077b6113f3565b604051808273ffffffffffffffffffffffffffffffffffffffff1673ffffffffffffffffffffffffffffffffffffffff16815260200191505060405180910390f35b610833600480360360408110156107d357600080fd5b8101908080357dffffffffffffffffffffffffffffffffffffffffffffffffffffffffffff1916906020019092919080357bffffffffffffffffffffffffffffffffffffffffffffffffffffffff19169060200190929190505050611419565b604051808215151515815260200191505060405180910390f35b61089a6004803603602081101561086357600080fd5b8101908080357dffffffffffffffffffffffffffffffffffffffffffffffffffffffffffff19169060200190929190505050611613565b005b60036020528060005260406000206000915054906101000a900460ff1681565b6000808251111515610919576040517f08c379a0000000000000000000000000000000000000000000000000000000008152600401808060200182810382526023815260200180611b8f6023913960400191505060405180910390fd5b60008090505b8251811015610a2b5760007c0100000000000000000000000000000000000000000000000000000000027bffffffffffffffffffffffffffffffffffffffffffffffffffffffff19166000806109758685611a9c565b7effffffffffffffffffffffffffffffffffffffffffffffffffffffffffffff19167effffffffffffffffffffffffffffffffffffffffffffffffffffffffffffff1916815260200190815260200160002060009054906101000a90047c0100000000000000000000000000000000000000000000000000000000027bffffffffffffffffffffffffffffffffffffffffffffffffffffffff19161415610a20576000915050610a31565b60018101905061091f565b50600190505b919050565b600160009054906101000a900473ffffffffffffffffffffffffffffffffffffffff1673ffffffffffffffffffffffffffffffffffffffff16638900bd22336040518263ffffffff167c0100000000000000000000000000000000000000000000000000000000028152600401808273ffffffffffffffffffffffffffffffffffffffff1673ffffffffffffffffffffffffffffffffffffffff16815260200191505060206040518083038186803b158015610af157600080fd5b505afa158015610b05573d6000803e3d6000fd5b505050506040513d6020811015610b1b57600080fd5b81019080805190602001909291905050501515610ba0576040517f08c379a00000000000000000000000000000000000000000000000000000000081526004018080602001828103825260168152602001807f63616c6c6572206e6565647320746f2062652043454f0000000000000000000081525060200191505060405180910390fd5b60036000827dffffffffffffffffffffffffffffffffffffffffffffffffffffffffffff19167dffffffffffffffffffffffffffffffffffffffffffffffffffffffffffff1916815260200190815260200160002060009054906101000a900460ff16151515610c78576040517f08c379a00000000000000000000000000000000000000000000000000000000081526004018080602001828103825260178152602001807f636f756e74727920616c726561647920656e61626c656400000000000000000081525060200191505060405180910390fd5b600160036000837dffffffffffffffffffffffffffffffffffffffffffffffffffffffffffff19167dffffffffffffffffffffffffffffffffffffffffffffffffffffffffffff1916815260200190815260200160002060006101000a81548160ff021916908315150217905550600581908060018154018082558091505090600182039060005260206000209060109182820401919006600202909192909190916101000a81548161ffff02191690837e010000000000000000000000000000000000000000000000000000000000009004021790555050807dffffffffffffffffffffffffffffffffffffffffffffffffffffffffffff19167f8e0967533cd3a78b3f8cbe41a8355c9a41846dfcb571b787fb7380459905e5ba60405160405180910390a250565b60046020528060005260406000206000915054906101000a900460ff1681565b600581815481101515610dd157fe5b9060005260206000209060109182820401919006600202915054906101000a90047e010000000000000000000000000000000000000000000000000000000000000281565b60066020528160005260406000206020528060005260406000206000915091509054906101000a90047c01000000000000000000000000000000000000000000000000000000000281565b60046000847dffffffffffffffffffffffffffffffffffffffffffffffffffffffffffff19167dffffffffffffffffffffffffffffffffffffffffffffffffffffffffffff1916815260200190815260200160002060009054906101000a900460ff16151515610f39576040517f08c379a000000000000000000000000000000000000000000000000000000000815260040180806020018281038252601a8152602001807f636f756e747279206d757374206e6f742062652066696c6c656400000000000081525060200191505060405180910390fd5b8060066000857dffffffffffffffffffffffffffffffffffffffffffffffffffffffffffff19167dffffffffffffffffffffffffffffffffffffffffffffffffffffffffffff191681526020019081526020016000206000847cffffffffffffffffffffffffffffffffffffffffffffffffffffffffff19167cffffffffffffffffffffffffffffffffffffffffffffffffffffffffff1916815260200190815260200160002060006101000a81548163ffffffff02191690837c010000000000000000000000000000000000000000000000000000000090040217905550505050565b60026020528060005260406000206000915090505481565b600160046000837dffffffffffffffffffffffffffffffffffffffffffffffffffffffffffff19167dffffffffffffffffffffffffffffffffffffffffffffffffffffffffffff1916815260200190815260200160002060006101000a81548160ff02191690831515021790555050565b600080600090505b600c8110156111e15760007c0100000000000000000000000000000000000000000000000000000000027bffffffffffffffffffffffffffffffffffffffffffffffffffffffff19166000808584600c8110151561110857fe5b1a7f0100000000000000000000000000000000000000000000000000000000000000027effffffffffffffffffffffffffffffffffffffffffffffffffffffffffffff19167effffffffffffffffffffffffffffffffffffffffffffffffffffffffffffff1916815260200190815260200160002060009054906101000a90047c0100000000000000000000000000000000000000000000000000000000027bffffffffffffffffffffffffffffffffffffffffffffffffffffffff191614156111d65760009150506111e7565b6001810190506110ae565b50600190505b919050565b60046000847dffffffffffffffffffffffffffffffffffffffffffffffffffffffffffff19167dffffffffffffffffffffffffffffffffffffffffffffffffffffffffffff1916815260200190815260200160002060009054906101000a900460ff161515156112c4576040517f08c379a000000000000000000000000000000000000000000000000000000000815260040180806020018281038252601a8152602001807f636f756e747279206d757374206e6f742062652066696c6c656400000000000081525060200191505060405180910390fd5b60008090505b82518110156113ed5781818151811015156112e157fe5b9060200190602002015160066000867dffffffffffffffffffffffffffffffffffffffffffffffffffffffffffff19167dffffffffffffffffffffffffffffffffffffffffffffffffffffffffffff191681526020019081526020016000206000858481518110151561135057fe5b906020019060200201517cffffffffffffffffffffffffffffffffffffffffffffffffffffffffff19167cffffffffffffffffffffffffffffffffffffffffffffffffffffffffff1916815260200190815260200160002060006101000a81548163ffffffff02191690837c01000000000000000000000000000000000000000000000000000000009004021790555080806001019150506112ca565b50505050565b600160009054906101000a900473ffffffffffffffffffffffffffffffffffffffff1681565b600080829050600060066000867dffffffffffffffffffffffffffffffffffffffffffffffffffffffffffff19167dffffffffffffffffffffffffffffffffffffffffffffffffffffffffffff191681526020019081526020016000206000837cffffffffffffffffffffffffffffffffffffffffffffffffffffffffff19167cffffffffffffffffffffffffffffffffffffffffffffffffffffffffff1916815260200190815260200160002060009054906101000a90047c0100000000000000000000000000000000000000000000000000000000029050600084600360048110151561150457fe5b1a7f01000000000000000000000000000000000000000000000000000000000000000290506000806000837effffffffffffffffffffffffffffffffffffffffffffffffffffffffffffff19167effffffffffffffffffffffffffffffffffffffffffffffffffffffffffffff1916815260200190815260200160002060009054906101000a90047c010000000000000000000000000000000000000000000000000000000002905060007c0100000000000000000000000000000000000000000000000000000000028184167bffffffffffffffffffffffffffffffffffffffffffffffffffffffff191614151561160457600194505050505061160d565b60009450505050505b92915050565b600160009054906101000a900473ffffffffffffffffffffffffffffffffffffffff1673ffffffffffffffffffffffffffffffffffffffff16638900bd22336040518263ffffffff167c0100000000000000000000000000000000000000000000000000000000028152600401808273ffffffffffffffffffffffffffffffffffffffff1673ffffffffffffffffffffffffffffffffffffffff16815260200191505060206040518083038186803b1580156116ce57600080fd5b505afa1580156116e2573d6000803e3d6000fd5b505050506040513d60208110156116f857600080fd5b8101908080519060200190929190505050151561177d576040517f08c379a00000000000000000000000000000000000000000000000000000000081526004018080602001828103825260168152602001807f63616c6c6572206e6565647320746f2062652043454f0000000000000000000081525060200191505060405180910390fd5b60036000827dffffffffffffffffffffffffffffffffffffffffffffffffffffffffffff19167dffffffffffffffffffffffffffffffffffffffffffffffffffffffffffff1916815260200190815260200160002060009054906101000a900460ff161515611854576040517f08c379a00000000000000000000000000000000000000000000000000000000081526004018080602001828103825260188152602001807f636f756e74727920616c72656164792064697361626c6564000000000000000081525060200191505060405180910390fd5b600060036000837dffffffffffffffffffffffffffffffffffffffffffffffffffffffffffff19167dffffffffffffffffffffffffffffffffffffffffffffffffffffffffffff1916815260200190815260200160002060006101000a81548160ff02191690831515021790555060008090505b600580549050811015611a4a57817dffffffffffffffffffffffffffffffffffffffffffffffffffffffffffff191660058281548110151561190657fe5b90600052602060002090601091828204019190066002029054906101000a90047e01000000000000000000000000000000000000000000000000000000000000027dffffffffffffffffffffffffffffffffffffffffffffffffffffffffffff19161415611a3d57600560016005805490500381548110151561198557fe5b90600052602060002090601091828204019190066002029054906101000a90047e01000000000000000000000000000000000000000000000000000000000000026005828154811015156119d557fe5b90600052602060002090601091828204019190066002026101000a81548161ffff02191690837e01000000000000000000000000000000000000000000000000000000000000900402179055506005805480919060019003611a379190611b2f565b50611a4a565b80806001019150506118c8565b50807dffffffffffffffffffffffffffffffffffffffffffffffffffffffffffff19167fc2cca0a5f1c2e809f2ff6aab657dd9c7ee136c937ff229ce11ced8720862761e60405160405180910390a250565b600060018201835110151515611b1a576040517f08c379a00000000000000000000000000000000000000000000000000000000081526004018080602001828103825260108152602001807f206e6f74206c6f6e6720656e6f7567680000000000000000000000000000000081525060200191505060405180910390fd5b60008260208501015190508091505092915050565b815481835581811115611b6457600f016010900481600f01601090048360005260206000209182019101611b639190611b69565b5b505050565b611b8b91905b80821115611b87576000816000905550600101611b6f565b5090565b9056fe5f62797465732067656f6861736820636861727320697320656d707479206172726179a165627a7a72305820de7a06341bb08d9e0aa876568aad8e7a017a9e7f00ea88c9739abf98c5f02bd00029",
  "source": "pragma solidity ^0.5.5;\n\nimport \"../interfaces/IControl.sol\";\n\ncontract GeoRegistry {\n\n  // ------------------------------------------------\n  //\n  // Variables Private\n  //\n  // ------------------------------------------------\n\n  // set once in constructor()\n  //      geohashChar bitmask\n  mapping(bytes1 => bytes4) private charToBitmask;\n  //\n  // mapping(bytes2 => bool) private validGeohashChars;\n\n  // ------------------------------------------------\n  //\n  // Variables Public\n  //\n  // ------------------------------------------------\n\n  IControl public control;\n\n  // mapping for limiting the sell amount for tellers, per tier\n  //      countryCode        tier    usdDailyLimit\n  // mapping(bytes2 => mapping (uint => uint)) public countryTierDailyLimit;\n\n  //      countryCode licensePriceUSD\n  mapping(bytes2 => uint) public shopLicensePrice;\n\n  //      countryCode isEnabled\n  mapping(bytes2 => bool) public countryIsEnabled;\n  mapping(bytes2 => bool) public countryIsFilled;\n\n  bytes2[] public enabledCountries;\n\n  //      countryCode       geohashFirst3 bitmaskLevel4\n  mapping(bytes2 => mapping(bytes3 => bytes4)) public level_2;\n\n  // ------------------------------------------------\n  //\n  // Events\n  //\n  // ------------------------------------------------\n\n  event GeoRegistryCountryEnabled(bytes2 indexed country);\n  event GeoRegistryCountryDisabled(bytes2 indexed country);\n\n  // ------------------------------------------------\n  //\n  // Constructor\n  //\n  // ------------------------------------------------\n\n  constructor(address _control)\n    public\n  {\n    control = IControl(_control);\n\n    // TODO: improve below code? https://medium.com/@imolfar/bitwise-operations-and-bit-manipulation-in-solidity-ethereum-1751f3d2e216\n    charToBitmask[bytes1(\"v\")] = hex\"80000000\"; // 2147483648\n    charToBitmask[bytes1(\"y\")] = hex\"40000000\"; // 1073741824\n    charToBitmask[bytes1(\"z\")] = hex\"20000000\"; // 536870912\n    charToBitmask[bytes1(\"b\")] = hex\"10000000\"; // 268435456\n    charToBitmask[bytes1(\"c\")] = hex\"08000000\"; // 134217728\n    charToBitmask[bytes1(\"f\")] = hex\"04000000\"; // 67108864\n    charToBitmask[bytes1(\"g\")] = hex\"02000000\"; // 33554432\n    charToBitmask[bytes1(\"u\")] = hex\"01000000\"; // 16777216\n    charToBitmask[bytes1(\"t\")] = hex\"00800000\"; // 8388608\n    charToBitmask[bytes1(\"w\")] = hex\"00400000\"; // 4194304\n    charToBitmask[bytes1(\"x\")] = hex\"00200000\"; // 2097152\n    charToBitmask[bytes1(\"8\")] = hex\"00100000\"; // 1048576\n    charToBitmask[bytes1(\"9\")] = hex\"00080000\"; // 524288\n    charToBitmask[bytes1(\"d\")] = hex\"00040000\"; // 262144\n    charToBitmask[bytes1(\"e\")] = hex\"00020000\"; // 131072\n    charToBitmask[bytes1(\"s\")] = hex\"00010000\"; // 65536\n    charToBitmask[bytes1(\"m\")] = hex\"00008000\"; // 32768\n    charToBitmask[bytes1(\"q\")] = hex\"00004000\"; // 16384\n    charToBitmask[bytes1(\"r\")] = hex\"00002000\"; // 8192\n    charToBitmask[bytes1(\"2\")] = hex\"00001000\"; // 4096\n    charToBitmask[bytes1(\"3\")] = hex\"00000800\"; // 2048\n    charToBitmask[bytes1(\"6\")] = hex\"00000400\"; // 1024\n    charToBitmask[bytes1(\"7\")] = hex\"00000200\"; // 512\n    charToBitmask[bytes1(\"k\")] = hex\"00000100\"; // 256\n    charToBitmask[bytes1(\"j\")] = hex\"00000080\"; // 128\n    charToBitmask[bytes1(\"n\")] = hex\"00000040\"; // 64\n    charToBitmask[bytes1(\"p\")] = hex\"00000020\"; // 32\n    charToBitmask[bytes1(\"0\")] = hex\"00000010\"; // 16\n    charToBitmask[bytes1(\"1\")] = hex\"00000008\"; // 8\n    charToBitmask[bytes1(\"4\")] = hex\"00000004\"; // 4\n    charToBitmask[bytes1(\"5\")] = hex\"00000002\"; // 2\n    charToBitmask[bytes1(\"h\")] = hex\"00000001\"; // 1\n  }\n\n  // ------------------------------------------------\n  //\n  // Functions Private Getters\n  //\n  // ------------------------------------------------\n\n  function toBytes1(bytes memory _bytes, uint _start)\n    private\n    pure\n    returns (bytes1)\n  {\n    require(_bytes.length >= (_start + 1), \" not long enough\");\n    bytes1 tempBytes1;\n\n    assembly {\n        tempBytes1 := mload(add(add(_bytes, 0x20), _start))\n    }\n\n    return tempBytes1;\n  }\n\n  function toBytes3(bytes memory _bytes, uint _start)\n    private\n    pure\n    returns (bytes3)\n  {\n    require(_bytes.length >= (_start + 3), \" not long enough\");\n    bytes3 tempBytes3;\n\n    assembly {\n        tempBytes3 := mload(add(add(_bytes, 0x20), _start))\n    }\n\n    return tempBytes3;\n  }\n\n  // ------------------------------------------------\n  //\n  // Functions Public Getters\n  //\n  // ------------------------------------------------\n\n  function validGeohashChars(bytes memory _bytes)\n    public\n    view\n    returns (bool)\n  {\n    require(_bytes.length > 0, \"_bytes geohash chars is empty array\");\n\n    for (uint i = 0; i < _bytes.length; i += 1) {\n      // find the first occurence of a byte which is not valid geohash character\n      if (charToBitmask[toBytes1(_bytes, i)] == bytes4(0)) {\n        return false;\n      }\n    }\n    return true;\n  }\n  function validGeohashChars12(bytes12 _bytes)\n    public\n    view\n    returns (bool)\n  {\n    for (uint i = 0; i < 12; i += 1) {\n      // find the first occurence of a byte which is not valid geohash character\n      if (charToBitmask[bytes1(_bytes[i])] == bytes4(0)) {\n        return false;\n      }\n    }\n    return true;\n  }\n\n  // @NOTE: _zone can be any length of bytes\n  function zoneInsideCountry(bytes2 _countryCode, bytes4 _zone)\n    public\n    view\n    returns (bool)\n  {\n    bytes3 level2key = bytes3(_zone);\n    bytes4 level3bits = level_2[_countryCode][level2key];\n\n    bytes1 fourthByte = bytes1(_zone[3]);\n    bytes4 fourthByteBitPosMask = charToBitmask[fourthByte];\n\n    if (level3bits & fourthByteBitPosMask != 0) {\n      return true;\n    } else {\n      return false;\n    }\n  }\n\n  // ------------------------------------------------\n  //\n  // Functions Setters Public\n  //\n  // ------------------------------------------------\n\n  // function setCountryTierDailyLimit(bytes2 _countryCode, uint _tier, uint _limitUsd)\n  //   public\n  // {\n  //   // can exec while paused\n  //   require(control.isCEO(msg.sender), \"caller needs to be CEO\");\n  //   countryTierDailyLimit[_countryCode][_tier] = _limitUsd;\n  // }\n\n  function updateLevel2(bytes2 _countryCode, bytes3 _letter, bytes4 _subLetters)\n    public\n  {\n    // can exec while paused\n    // require(control.isCEO(msg.sender), \"caller needs to be CEO\");\n    require(!countryIsFilled[_countryCode], \"country must not be filled\");\n    level_2[_countryCode][_letter] = _subLetters;\n  }\n  function updateLevel2batch(bytes2 _countryCode, bytes3[] memory _letters, bytes4[] memory _subLetters)\n    public\n  {\n    // can exec while paused\n    // require(control.isCEO(msg.sender), \"caller needs to be CEO\");\n    require(!countryIsFilled[_countryCode], \"country must not be filled\");\n    for (uint i = 0; i < _letters.length; i++) {\n      level_2[_countryCode][_letters[i]] = _subLetters[i];\n    }\n  }\n  function endInit(bytes2 _countryCode) public\n  {\n    countryIsFilled[_countryCode] = true;\n  }\n  function enableCountry(bytes2 _country)\n    external\n  {\n    // can exec while paused\n    require(control.isCEO(msg.sender), \"caller needs to be CEO\");\n    require(!countryIsEnabled[_country], \"country already enabled\");\n\n    countryIsEnabled[_country] = true;\n    enabledCountries.push(_country);\n\n    emit GeoRegistryCountryEnabled(_country);\n  }\n\n  function disableCountry(bytes2 _country)\n    external\n  {\n    // can exec while paused\n    require(control.isCEO(msg.sender), \"caller needs to be CEO\");\n    require(countryIsEnabled[_country], \"country already disabled\");\n\n    countryIsEnabled[_country] = false;\n\n    for (uint i = 0; i < enabledCountries.length; i++) {\n      if (enabledCountries[i] == _country) {\n        // replace the to-be-deleted country with the last country in the list\n        enabledCountries[i] = enabledCountries[enabledCountries.length - 1];\n        enabledCountries.length--;\n        break;\n      }\n    }\n\n    emit GeoRegistryCountryDisabled(_country);\n  }\n}\n",
  "sourcePath": "/Users/mehdi/code/dether/contractV2/contracts/map/GeoRegistry.sol",
  "compiler": {
    "name": "solc",
    "version": "0.5.5+commit.47a71e8f.Emscripten.clang"
  },
  "schemaVersion": "3.0.3",
  "updatedAt": "2019-04-01T10:14:45.249Z",
  "devdoc": {
    "methods": {}
  },
  "userdoc": {
    "methods": {}
  }
}