{
  "contractName": "GeoRegistry",
  "abi": [
    {
      "constant": true,
      "inputs": [
        {
          "name": "",
          "type": "bytes2"
        },
        {
          "name": "",
          "type": "bytes3"
        }
      ],
      "name": "level_2",
      "outputs": [
        {
          "name": "",
          "type": "bytes4"
        }
      ],
      "payable": false,
      "stateMutability": "view",
      "type": "function"
    },
    {
      "constant": true,
      "inputs": [],
      "name": "owner",
      "outputs": [
        {
          "name": "",
          "type": "address"
        }
      ],
      "payable": false,
      "stateMutability": "view",
      "type": "function"
    },
    {
      "constant": false,
      "inputs": [
        {
          "name": "newOwner",
          "type": "address"
        }
      ],
      "name": "transferOwnership",
      "outputs": [],
      "payable": false,
      "stateMutability": "nonpayable",
      "type": "function"
    },
    {
      "inputs": [],
      "payable": false,
      "stateMutability": "nonpayable",
      "type": "constructor"
    },
    {
      "anonymous": false,
      "inputs": [
        {
          "indexed": true,
          "name": "previousOwner",
          "type": "address"
        },
        {
          "indexed": true,
          "name": "newOwner",
          "type": "address"
        }
      ],
      "name": "OwnershipTransferred",
      "type": "event"
    },
    {
      "constant": false,
      "inputs": [
        {
          "name": "_countryCode",
          "type": "bytes2"
        },
        {
          "name": "_letter",
          "type": "bytes3"
        },
        {
          "name": "_subLetters",
          "type": "bytes4"
        }
      ],
      "name": "updateLevel2",
      "outputs": [],
      "payable": false,
      "stateMutability": "nonpayable",
      "type": "function"
    },
    {
      "constant": false,
      "inputs": [
        {
          "name": "_countryCode",
          "type": "bytes2"
        },
        {
          "name": "_letters",
          "type": "bytes3[]"
        },
        {
          "name": "_subLetters",
          "type": "bytes4[]"
        }
      ],
      "name": "updateLevel2batch",
      "outputs": [],
      "payable": false,
      "stateMutability": "nonpayable",
      "type": "function"
    },
    {
      "constant": true,
      "inputs": [
        {
          "name": "_countryCode",
          "type": "bytes2"
        },
        {
          "name": "_zone",
          "type": "bytes7"
        }
      ],
      "name": "zoneInsideCountry",
      "outputs": [
        {
          "name": "",
          "type": "bool"
        }
      ],
      "payable": false,
      "stateMutability": "view",
      "type": "function"
    }
  ],
  "bytecode": "0x608060405234801561001057600080fd5b506000805433600160a060020a0319909116178155600160208181527faf43b21dec6c5e92bbacab106efab0edd44cbeaf12c161a337a26fabcb136ba4805463ffffffff199081166380000000179091557f7a50d2ac2571ad60a5bb4d443100e3b7eccf8c7e43d8534095b2babbf10e300c8054821663400000001790557f53816da9291544b5fdf35e2aa13e7cb6323c2be616026c7dac095bff42a562a78054821663200000001790557ffd3738c7b8e9ead0a5c95af3152dbbd757b77caac124ccb080918ef008468f808054821663100000001790557f9bd4944e0e760631179b91c01dbaddb87150521534f0aaf20e2711b01d0b78ab8054821663080000001790557f9b12f8054ab19d7a56e2f5990ca5d4073623b8f0660579ad807b93d138295cf58054821663040000001790557faf0e125ddd0c8d8e31b9fc2a8714beb9c85a30842be2abeed410d488effd72708054821663020000001790557f3b4dc3d30762c5ccfcc8106c4e5f262e78cac6a2d44f69fcc3f7a6d4ea4f8aa78054821663010000001790557f0b3862e4a4d5aa9df31cd5e30cb15e5ac3dfdd54339c22202d0e7612455d22e780548216628000001790557f97408bcf7f7a9885dadfdf8f7bd1e87452459a17fad42c95362f3442b7bc48ff80548216624000001790557f670ee69fc689176c08fc7365ffc9ecea9853caba52ce9dc367f44803b7612a6880548216622000001790557f2e787efa82d1eb441ee73707ffc21ba057264f73c89484bd27aa13f13891b5a080548216621000001790557f554399743da175d29b90e9b1d32ccc8cc52387eb3c24e1153a11511e7d25060580548216620800001790557fe7e241752162ebeb9a5d84e9424bde7d1dffc550f746bf6de23b4b1953fec4a480548216620400001790557fda9fe3a1a427440e52fd61bba4d6036c80fd50240e6a6747e243b9cf84fb718280548216620200001790557ff3e080547ff23151897bbf058b2113a027467010d841208dad89da6c8f83a95080548216620100001790557f1176c02eb6c4d8ae6c584505651509f360a266aea34e3c00e097a1df0f6bb133805482166180001790557fd2c2386872561225f15389d0698352fdd95cd8a4c84daf2dd3932b38d1579a2b805482166140001790557f45373e27cfa5f4ad2c203bc4e5e8224799661051b748144ebc80b59d72067110805482166120001790557fbce345a58e8df63a93de9b61e675faa7b463bfa21e087074be73ddc31b3ea201805482166110001790557f42acb201a1bacbd57a76a2b4e5e6a5e306a2cf3cd2833e705d3e4dab50401231805482166108001790557f55519c609569eae64667ae22d8be54665881fc4623a7ef69adeb8f0bed31b2af805482166104001790557fb8b50e6942be486a43bf1473f7a0b5d9a059a5e758e35475f7ef0540277d3eff805482166102001790557ff0d26e390d8c5c0ddbaf97e515c5950a40175832831cbd2d6fb2cf530924839b80546101009083161790557fbb7425e9e9952e2819f8592c380f6efa054105ffe307f0aa441f9b77c9d637608054821660801790557f4f49eb26fd33a145b769ded91fb42e41276f964073f31fd0a012eb2fb2c04c7e805460409083161790557f4a42fe47be8f512b5b60a02802fa9246df962e4111b6c0abcc5100c1c5618ff6805482169092179091557fb82636e4a13a289899ee2ba906c11ee53bdaa94b5dec1e3f231447b72ce01f2b8054821660101790557f891d0936da4627f445ef193aad63afb173409af9e775e292e4e35aff790a45e28054821660081790557f398b1a24a2903e99e5b91eb05f3e5ac7be93ef18d0df20a0f5d4b00ee3593b868054821660041790557f496661fc8570edcaddc1658ca056d64cc74f0e8bc4d7ec6ecad58560678550748054821660021790557f680000000000000000000000000000000000000000000000000000000000000083527ff89388c647e3f33bd45a12e1e3afd514f0836debf71b3a0010aee748a946acb5805490911690911790556105319081906105db90396000f30060806040526004361061005e5763ffffffff60e060020a6000350416630232cd9f8114610063578063694a53d7146100b857806381b0bb9c146101195780638da5cb5b1461016c578063cd05115c1461019d578063f2fde38b1461023a575b600080fd5b34801561006f57600080fd5b506100a4600160f060020a03196004351678ffffffffffffffffffffffffffffffffffffffffffffffffff196024351661025b565b604080519115158252519081900360200190f35b3480156100c457600080fd5b506100e7600160f060020a031960043516600160e860020a03196024351661032c565b604080517bffffffffffffffffffffffffffffffffffffffffffffffffffffffff199092168252519081900360200190f35b34801561012557600080fd5b5061016a600160f060020a031960043516600160e860020a0319602435167bffffffffffffffffffffffffffffffffffffffffffffffffffffffff196044351661034f565b005b34801561017857600080fd5b506101816103b0565b60408051600160a060020a039092168252519081900360200190f35b3480156101a957600080fd5b5060408051602060046024803582810135848102808701860190975280865261016a968435600160f060020a03191696369660449591949091019291829185019084908082843750506040805187358901803560208181028481018201909552818452989b9a9989019892975090820195509350839250850190849080828437509497506103bf9650505050505050565b34801561024657600080fd5b5061016a600160a060020a0360043516610471565b600160f060020a031982166000908152600260209081526040808320600160e860020a031985168452825280832054600385901a7f0100000000000000000000000000000000000000000000000000000000000000027fff0000000000000000000000000000000000000000000000000000000000000081168552600190935290832054849260e060020a928302929091028083167bffffffffffffffffffffffffffffffffffffffffffffffffffffffff19161561031d5760019450610322565b600094505b5050505092915050565b600260209081526000928352604080842090915290825290205460e060020a0281565b600054600160a060020a0316331461036657600080fd5b600160f060020a03199092166000908152600260209081526040808320600160e860020a0319909416835292905220805460e060020a90920463ffffffff19909216919091179055565b600054600160a060020a031681565b60008054600160a060020a031633146103d757600080fd5b5060005b825181101561046b5781818151811015156103f257fe5b6020908102909101810151600160f060020a03198616600090815260029092526040822085519192909186908590811061042857fe5b602090810291909101810151600160e860020a0319168252810191909152604001600020805463ffffffff191660e060020a9092049190911790556001016103db565b50505050565b600054600160a060020a0316331461048857600080fd5b600160a060020a038116151561049d57600080fd5b60008054604051600160a060020a03808516939216917f8be0079c531659141344cd1fd0a4f28419497f9722a3daafe3b4186f6b6457e091a36000805473ffffffffffffffffffffffffffffffffffffffff1916600160a060020a03929092169190911790555600a165627a7a7230582085b6df7a476cb539359000342c1000184af2e2ebcd762b5e93fbf48dc7b871140029",
  "source": "pragma solidity ^0.4.22;\n\nimport 'zeppelin-solidity/contracts/ownership/Ownable.sol';\n\ncontract GeoRegistry is Ownable {\n  mapping(bytes1 => bytes4) internal charToBitmask;\n\n  constructor() {\n    charToBitmask[bytes1(\"v\")] = hex\"80000000\"; // 2147483648\n    charToBitmask[bytes1(\"y\")] = hex\"40000000\"; // 1073741824\n    charToBitmask[bytes1(\"z\")] = hex\"20000000\"; // 536870912\n    charToBitmask[bytes1(\"b\")] = hex\"10000000\"; // 268435456\n    charToBitmask[bytes1(\"c\")] = hex\"08000000\"; // 134217728\n    charToBitmask[bytes1(\"f\")] = hex\"04000000\"; // 67108864\n    charToBitmask[bytes1(\"g\")] = hex\"02000000\"; // 33554432\n    charToBitmask[bytes1(\"u\")] = hex\"01000000\"; // 16777216\n    charToBitmask[bytes1(\"t\")] = hex\"00800000\"; // 8388608\n    charToBitmask[bytes1(\"w\")] = hex\"00400000\"; // 4194304\n    charToBitmask[bytes1(\"x\")] = hex\"00200000\"; // 2097152\n    charToBitmask[bytes1(\"8\")] = hex\"00100000\"; // 1048576\n    charToBitmask[bytes1(\"9\")] = hex\"00080000\"; // 524288\n    charToBitmask[bytes1(\"d\")] = hex\"00040000\"; // 262144\n    charToBitmask[bytes1(\"e\")] = hex\"00020000\"; // 131072\n    charToBitmask[bytes1(\"s\")] = hex\"00010000\"; // 65536\n    charToBitmask[bytes1(\"m\")] = hex\"00008000\"; // 32768\n    charToBitmask[bytes1(\"q\")] = hex\"00004000\"; // 16384\n    charToBitmask[bytes1(\"r\")] = hex\"00002000\"; // 8192\n    charToBitmask[bytes1(\"2\")] = hex\"00001000\"; // 4096\n    charToBitmask[bytes1(\"3\")] = hex\"00000800\"; // 2048\n    charToBitmask[bytes1(\"6\")] = hex\"00000400\"; // 1024\n    charToBitmask[bytes1(\"7\")] = hex\"00000200\"; // 512\n    charToBitmask[bytes1(\"k\")] = hex\"00000100\"; // 256\n    charToBitmask[bytes1(\"j\")] = hex\"00000080\"; // 128\n    charToBitmask[bytes1(\"n\")] = hex\"00000040\"; // 64\n    charToBitmask[bytes1(\"p\")] = hex\"00000020\"; // 32\n    charToBitmask[bytes1(\"0\")] = hex\"00000010\"; // 16\n    charToBitmask[bytes1(\"1\")] = hex\"00000008\"; // 8\n    charToBitmask[bytes1(\"4\")] = hex\"00000004\"; // 4\n    charToBitmask[bytes1(\"5\")] = hex\"00000002\"; // 2\n    charToBitmask[bytes1(\"h\")] = hex\"00000001\"; // 1\n  }\n\n  mapping(bytes2 => mapping(bytes3 => bytes4)) public level_2;\n\n  function updateLevel2(bytes2 _countryCode, bytes3 _letter, bytes4 _subLetters)\n    public\n    onlyOwner\n  {\n    level_2[_countryCode][_letter] = _subLetters;\n  }\n  function updateLevel2batch(bytes2 _countryCode, bytes3[] _letters, bytes4[] _subLetters)\n    public\n    onlyOwner\n  {\n    for (uint i = 0; i < _letters.length; i++) {\n      level_2[_countryCode][_letters[i]] = _subLetters[i];\n    }\n  }\n\n  function zoneInsideCountry(bytes2 _countryCode, bytes7 _zone)\n    public\n    view\n    returns (bool)\n  {\n    bytes3 level2key = bytes3(_zone);\n    bytes4 level3bits = level_2[_countryCode][level2key];\n\n    bytes1 fourthByte = bytes1(_zone[3]);\n    bytes4 bitPosMask = charToBitmask[fourthByte];\n\n    if (level3bits & bitPosMask != 0) {\n      return true;\n    } else {\n      return false;\n    }\n  }\n}\n",
  "sourcePath": "/Users/trip/Projects/detherContracts/contracts/map/GeoRegistry.sol",
  "compiler": {
    "name": "solc",
    "version": "0.4.24+commit.e67f0147.Emscripten.clang"
  },
  "schemaVersion": "2.0.1",
  "updatedAt": "2018-10-10T13:33:45.716Z"
}