{
  "contractName": "GeoRegistry",
  "abi": [
    {
      "constant": true,
      "inputs": [
        {
          "name": "",
          "type": "bytes2"
        }
      ],
      "name": "countryIsEnabled",
      "outputs": [
        {
          "name": "",
          "type": "bool"
        }
      ],
      "payable": false,
      "stateMutability": "view",
      "type": "function"
    },
    {
      "constant": true,
      "inputs": [
        {
          "name": "",
          "type": "bytes2"
        }
      ],
      "name": "countryIsFilled",
      "outputs": [
        {
          "name": "",
          "type": "bool"
        }
      ],
      "payable": false,
      "stateMutability": "view",
      "type": "function"
    },
    {
      "constant": true,
      "inputs": [
        {
          "name": "",
          "type": "uint256"
        }
      ],
      "name": "enabledCountries",
      "outputs": [
        {
          "name": "",
          "type": "bytes2"
        }
      ],
      "payable": false,
      "stateMutability": "view",
      "type": "function"
    },
    {
      "constant": true,
      "inputs": [
        {
          "name": "",
          "type": "bytes2"
        },
        {
          "name": "",
          "type": "bytes3"
        }
      ],
      "name": "level_2",
      "outputs": [
        {
          "name": "",
          "type": "bytes4"
        }
      ],
      "payable": false,
      "stateMutability": "view",
      "type": "function"
    },
    {
      "constant": true,
      "inputs": [
        {
          "name": "",
          "type": "bytes2"
        }
      ],
      "name": "shopLicensePrice",
      "outputs": [
        {
          "name": "",
          "type": "uint256"
        }
      ],
      "payable": false,
      "stateMutability": "view",
      "type": "function"
    },
    {
      "inputs": [],
      "payable": false,
      "stateMutability": "nonpayable",
      "type": "constructor"
    },
    {
      "anonymous": false,
      "inputs": [
        {
          "indexed": true,
          "name": "country",
          "type": "bytes2"
        }
      ],
      "name": "GeoRegistryCountryEnabled",
      "type": "event"
    },
    {
      "anonymous": false,
      "inputs": [
        {
          "indexed": true,
          "name": "country",
          "type": "bytes2"
        }
      ],
      "name": "GeoRegistryCountryDisabled",
      "type": "event"
    },
    {
      "constant": true,
      "inputs": [
        {
          "name": "_bytes",
          "type": "bytes"
        }
      ],
      "name": "validGeohashChars",
      "outputs": [
        {
          "name": "",
          "type": "bool"
        }
      ],
      "payable": false,
      "stateMutability": "view",
      "type": "function"
    },
    {
      "constant": true,
      "inputs": [
        {
          "name": "_bytes",
          "type": "bytes12"
        }
      ],
      "name": "validGeohashChars12",
      "outputs": [
        {
          "name": "",
          "type": "bool"
        }
      ],
      "payable": false,
      "stateMutability": "view",
      "type": "function"
    },
    {
      "constant": true,
      "inputs": [
        {
          "name": "_countryCode",
          "type": "bytes2"
        },
        {
          "name": "_zone",
          "type": "bytes4"
        }
      ],
      "name": "zoneInsideCountry",
      "outputs": [
        {
          "name": "",
          "type": "bool"
        }
      ],
      "payable": false,
      "stateMutability": "view",
      "type": "function"
    },
    {
      "constant": false,
      "inputs": [
        {
          "name": "_countryCode",
          "type": "bytes2"
        },
        {
          "name": "_letter",
          "type": "bytes3"
        },
        {
          "name": "_subLetters",
          "type": "bytes4"
        }
      ],
      "name": "updateLevel2",
      "outputs": [],
      "payable": false,
      "stateMutability": "nonpayable",
      "type": "function"
    },
    {
      "constant": false,
      "inputs": [
        {
          "name": "_countryCode",
          "type": "bytes2"
        },
        {
          "name": "_letters",
          "type": "bytes3[]"
        },
        {
          "name": "_subLetters",
          "type": "bytes4[]"
        }
      ],
      "name": "updateLevel2batch",
      "outputs": [],
      "payable": false,
      "stateMutability": "nonpayable",
      "type": "function"
    },
    {
      "constant": false,
      "inputs": [
        {
          "name": "_countryCode",
          "type": "bytes2"
        }
      ],
      "name": "endInit",
      "outputs": [],
      "payable": false,
      "stateMutability": "nonpayable",
      "type": "function"
    },
    {
      "constant": false,
      "inputs": [
        {
          "name": "_country",
          "type": "bytes2"
        }
      ],
      "name": "enableCountry",
      "outputs": [],
      "payable": false,
      "stateMutability": "nonpayable",
      "type": "function"
    },
    {
      "constant": false,
      "inputs": [
        {
          "name": "_country",
          "type": "bytes2"
        }
      ],
      "name": "disableCountry",
      "outputs": [],
      "payable": false,
      "stateMutability": "nonpayable",
      "type": "function"
    }
  ],
  "bytecode": "0x608060405234801561001057600080fd5b507f80000000000000000000000000000000000000000000000000000000000000006000807f76000000000000000000000000000000000000000000000000000000000000007effffffffffffffffffffffffffffffffffffffffffffffffffffffffffffff19167effffffffffffffffffffffffffffffffffffffffffffffffffffffffffffff1916815260200190815260200160002060006101000a81548163ffffffff02191690837c0100000000000000000000000000000000000000000000000000000000900402179055507f40000000000000000000000000000000000000000000000000000000000000006000807f79000000000000000000000000000000000000000000000000000000000000007effffffffffffffffffffffffffffffffffffffffffffffffffffffffffffff19167effffffffffffffffffffffffffffffffffffffffffffffffffffffffffffff1916815260200190815260200160002060006101000a81548163ffffffff02191690837c0100000000000000000000000000000000000000000000000000000000900402179055507f20000000000000000000000000000000000000000000000000000000000000006000807f7a000000000000000000000000000000000000000000000000000000000000007effffffffffffffffffffffffffffffffffffffffffffffffffffffffffffff19167effffffffffffffffffffffffffffffffffffffffffffffffffffffffffffff1916815260200190815260200160002060006101000a81548163ffffffff02191690837c0100000000000000000000000000000000000000000000000000000000900402179055507f10000000000000000000000000000000000000000000000000000000000000006000807f62000000000000000000000000000000000000000000000000000000000000007effffffffffffffffffffffffffffffffffffffffffffffffffffffffffffff19167effffffffffffffffffffffffffffffffffffffffffffffffffffffffffffff1916815260200190815260200160002060006101000a81548163ffffffff02191690837c0100000000000000000000000000000000000000000000000000000000900402179055507f08000000000000000000000000000000000000000000000000000000000000006000807f63000000000000000000000000000000000000000000000000000000000000007effffffffffffffffffffffffffffffffffffffffffffffffffffffffffffff19167effffffffffffffffffffffffffffffffffffffffffffffffffffffffffffff1916815260200190815260200160002060006101000a81548163ffffffff02191690837c0100000000000000000000000000000000000000000000000000000000900402179055507f04000000000000000000000000000000000000000000000000000000000000006000807f66000000000000000000000000000000000000000000000000000000000000007effffffffffffffffffffffffffffffffffffffffffffffffffffffffffffff19167effffffffffffffffffffffffffffffffffffffffffffffffffffffffffffff1916815260200190815260200160002060006101000a81548163ffffffff02191690837c0100000000000000000000000000000000000000000000000000000000900402179055507f02000000000000000000000000000000000000000000000000000000000000006000807f67000000000000000000000000000000000000000000000000000000000000007effffffffffffffffffffffffffffffffffffffffffffffffffffffffffffff19167effffffffffffffffffffffffffffffffffffffffffffffffffffffffffffff1916815260200190815260200160002060006101000a81548163ffffffff02191690837c0100000000000000000000000000000000000000000000000000000000900402179055507f01000000000000000000000000000000000000000000000000000000000000006000807f75000000000000000000000000000000000000000000000000000000000000007effffffffffffffffffffffffffffffffffffffffffffffffffffffffffffff19167effffffffffffffffffffffffffffffffffffffffffffffffffffffffffffff1916815260200190815260200160002060006101000a81548163ffffffff02191690837c0100000000000000000000000000000000000000000000000000000000900402179055507e800000000000000000000000000000000000000000000000000000000000006000807f74000000000000000000000000000000000000000000000000000000000000007effffffffffffffffffffffffffffffffffffffffffffffffffffffffffffff19167effffffffffffffffffffffffffffffffffffffffffffffffffffffffffffff1916815260200190815260200160002060006101000a81548163ffffffff02191690837c0100000000000000000000000000000000000000000000000000000000900402179055507e400000000000000000000000000000000000000000000000000000000000006000807f77000000000000000000000000000000000000000000000000000000000000007effffffffffffffffffffffffffffffffffffffffffffffffffffffffffffff19167effffffffffffffffffffffffffffffffffffffffffffffffffffffffffffff1916815260200190815260200160002060006101000a81548163ffffffff02191690837c0100000000000000000000000000000000000000000000000000000000900402179055507e200000000000000000000000000000000000000000000000000000000000006000807f78000000000000000000000000000000000000000000000000000000000000007effffffffffffffffffffffffffffffffffffffffffffffffffffffffffffff19167effffffffffffffffffffffffffffffffffffffffffffffffffffffffffffff1916815260200190815260200160002060006101000a81548163ffffffff02191690837c0100000000000000000000000000000000000000000000000000000000900402179055507e100000000000000000000000000000000000000000000000000000000000006000807f38000000000000000000000000000000000000000000000000000000000000007effffffffffffffffffffffffffffffffffffffffffffffffffffffffffffff19167effffffffffffffffffffffffffffffffffffffffffffffffffffffffffffff1916815260200190815260200160002060006101000a81548163ffffffff02191690837c0100000000000000000000000000000000000000000000000000000000900402179055507e080000000000000000000000000000000000000000000000000000000000006000807f39000000000000000000000000000000000000000000000000000000000000007effffffffffffffffffffffffffffffffffffffffffffffffffffffffffffff19167effffffffffffffffffffffffffffffffffffffffffffffffffffffffffffff1916815260200190815260200160002060006101000a81548163ffffffff02191690837c0100000000000000000000000000000000000000000000000000000000900402179055507e040000000000000000000000000000000000000000000000000000000000006000807f64000000000000000000000000000000000000000000000000000000000000007effffffffffffffffffffffffffffffffffffffffffffffffffffffffffffff19167effffffffffffffffffffffffffffffffffffffffffffffffffffffffffffff1916815260200190815260200160002060006101000a81548163ffffffff02191690837c0100000000000000000000000000000000000000000000000000000000900402179055507e020000000000000000000000000000000000000000000000000000000000006000807f65000000000000000000000000000000000000000000000000000000000000007effffffffffffffffffffffffffffffffffffffffffffffffffffffffffffff19167effffffffffffffffffffffffffffffffffffffffffffffffffffffffffffff1916815260200190815260200160002060006101000a81548163ffffffff02191690837c0100000000000000000000000000000000000000000000000000000000900402179055507e010000000000000000000000000000000000000000000000000000000000006000807f73000000000000000000000000000000000000000000000000000000000000007effffffffffffffffffffffffffffffffffffffffffffffffffffffffffffff19167effffffffffffffffffffffffffffffffffffffffffffffffffffffffffffff1916815260200190815260200160002060006101000a81548163ffffffff02191690837c0100000000000000000000000000000000000000000000000000000000900402179055507d8000000000000000000000000000000000000000000000000000000000006000807f6d000000000000000000000000000000000000000000000000000000000000007effffffffffffffffffffffffffffffffffffffffffffffffffffffffffffff19167effffffffffffffffffffffffffffffffffffffffffffffffffffffffffffff1916815260200190815260200160002060006101000a81548163ffffffff02191690837c0100000000000000000000000000000000000000000000000000000000900402179055507d4000000000000000000000000000000000000000000000000000000000006000807f71000000000000000000000000000000000000000000000000000000000000007effffffffffffffffffffffffffffffffffffffffffffffffffffffffffffff19167effffffffffffffffffffffffffffffffffffffffffffffffffffffffffffff1916815260200190815260200160002060006101000a81548163ffffffff02191690837c0100000000000000000000000000000000000000000000000000000000900402179055507d2000000000000000000000000000000000000000000000000000000000006000807f72000000000000000000000000000000000000000000000000000000000000007effffffffffffffffffffffffffffffffffffffffffffffffffffffffffffff19167effffffffffffffffffffffffffffffffffffffffffffffffffffffffffffff1916815260200190815260200160002060006101000a81548163ffffffff02191690837c0100000000000000000000000000000000000000000000000000000000900402179055507d1000000000000000000000000000000000000000000000000000000000006000807f32000000000000000000000000000000000000000000000000000000000000007effffffffffffffffffffffffffffffffffffffffffffffffffffffffffffff19167effffffffffffffffffffffffffffffffffffffffffffffffffffffffffffff1916815260200190815260200160002060006101000a81548163ffffffff02191690837c0100000000000000000000000000000000000000000000000000000000900402179055507d0800000000000000000000000000000000000000000000000000000000006000807f33000000000000000000000000000000000000000000000000000000000000007effffffffffffffffffffffffffffffffffffffffffffffffffffffffffffff19167effffffffffffffffffffffffffffffffffffffffffffffffffffffffffffff1916815260200190815260200160002060006101000a81548163ffffffff02191690837c0100000000000000000000000000000000000000000000000000000000900402179055507d0400000000000000000000000000000000000000000000000000000000006000807f36000000000000000000000000000000000000000000000000000000000000007effffffffffffffffffffffffffffffffffffffffffffffffffffffffffffff19167effffffffffffffffffffffffffffffffffffffffffffffffffffffffffffff1916815260200190815260200160002060006101000a81548163ffffffff02191690837c0100000000000000000000000000000000000000000000000000000000900402179055507d0200000000000000000000000000000000000000000000000000000000006000807f37000000000000000000000000000000000000000000000000000000000000007effffffffffffffffffffffffffffffffffffffffffffffffffffffffffffff19167effffffffffffffffffffffffffffffffffffffffffffffffffffffffffffff1916815260200190815260200160002060006101000a81548163ffffffff02191690837c0100000000000000000000000000000000000000000000000000000000900402179055507d0100000000000000000000000000000000000000000000000000000000006000807f6b000000000000000000000000000000000000000000000000000000000000007effffffffffffffffffffffffffffffffffffffffffffffffffffffffffffff19167effffffffffffffffffffffffffffffffffffffffffffffffffffffffffffff1916815260200190815260200160002060006101000a81548163ffffffff02191690837c0100000000000000000000000000000000000000000000000000000000900402179055507c80000000000000000000000000000000000000000000000000000000006000807f6a000000000000000000000000000000000000000000000000000000000000007effffffffffffffffffffffffffffffffffffffffffffffffffffffffffffff19167effffffffffffffffffffffffffffffffffffffffffffffffffffffffffffff1916815260200190815260200160002060006101000a81548163ffffffff02191690837c0100000000000000000000000000000000000000000000000000000000900402179055507c40000000000000000000000000000000000000000000000000000000006000807f6e000000000000000000000000000000000000000000000000000000000000007effffffffffffffffffffffffffffffffffffffffffffffffffffffffffffff19167effffffffffffffffffffffffffffffffffffffffffffffffffffffffffffff1916815260200190815260200160002060006101000a81548163ffffffff02191690837c0100000000000000000000000000000000000000000000000000000000900402179055507c20000000000000000000000000000000000000000000000000000000006000807f70000000000000000000000000000000000000000000000000000000000000007effffffffffffffffffffffffffffffffffffffffffffffffffffffffffffff19167effffffffffffffffffffffffffffffffffffffffffffffffffffffffffffff1916815260200190815260200160002060006101000a81548163ffffffff02191690837c0100000000000000000000000000000000000000000000000000000000900402179055507c10000000000000000000000000000000000000000000000000000000006000807f30000000000000000000000000000000000000000000000000000000000000007effffffffffffffffffffffffffffffffffffffffffffffffffffffffffffff19167effffffffffffffffffffffffffffffffffffffffffffffffffffffffffffff1916815260200190815260200160002060006101000a81548163ffffffff02191690837c0100000000000000000000000000000000000000000000000000000000900402179055507c08000000000000000000000000000000000000000000000000000000006000807f31000000000000000000000000000000000000000000000000000000000000007effffffffffffffffffffffffffffffffffffffffffffffffffffffffffffff19167effffffffffffffffffffffffffffffffffffffffffffffffffffffffffffff1916815260200190815260200160002060006101000a81548163ffffffff02191690837c0100000000000000000000000000000000000000000000000000000000900402179055507c04000000000000000000000000000000000000000000000000000000006000807f34000000000000000000000000000000000000000000000000000000000000007effffffffffffffffffffffffffffffffffffffffffffffffffffffffffffff19167effffffffffffffffffffffffffffffffffffffffffffffffffffffffffffff1916815260200190815260200160002060006101000a81548163ffffffff02191690837c0100000000000000000000000000000000000000000000000000000000900402179055507c02000000000000000000000000000000000000000000000000000000006000807f35000000000000000000000000000000000000000000000000000000000000007effffffffffffffffffffffffffffffffffffffffffffffffffffffffffffff19167effffffffffffffffffffffffffffffffffffffffffffffffffffffffffffff1916815260200190815260200160002060006101000a81548163ffffffff02191690837c0100000000000000000000000000000000000000000000000000000000900402179055507c01000000000000000000000000000000000000000000000000000000006000807f68000000000000000000000000000000000000000000000000000000000000007effffffffffffffffffffffffffffffffffffffffffffffffffffffffffffff19167effffffffffffffffffffffffffffffffffffffffffffffffffffffffffffff1916815260200190815260200160002060006101000a81548163ffffffff02191690837c01000000000000000000000000000000000000000000000000000000009004021790555061185c806119d06000396000f3fe608060405234801561001057600080fd5b50600436106100ec576000357c01000000000000000000000000000000000000000000000000000000009004806381b0bb9c116100a9578063bf922fe211610083578063bf922fe214610584578063cd05115c146105e1578063df6b2c2c14610758578063fb83dbab146107e8576100ec565b806381b0bb9c146104305780638355d49e146104d2578063a9879ecf14610535576100ec565b80630dc210aa146100f15780631d0a4831146101585780634a99d2741461022b5780634bcf29a81461027a578063580fa608146102e1578063694a53d714610365575b600080fd5b61013e6004803603602081101561010757600080fd5b8101908080357dffffffffffffffffffffffffffffffffffffffffffffffffffffffffffff19169060200190929190505050610837565b604051808215151515815260200191505060405180910390f35b6102116004803603602081101561016e57600080fd5b810190808035906020019064010000000081111561018b57600080fd5b82018360208201111561019d57600080fd5b803590602001918460018302840111640100000000831117156101bf57600080fd5b91908080601f016020809104026020016040519081016040528093929190818152602001838380828437600081840152601f19601f820116905080830192505050505050509192919290505050610857565b604051808215151515815260200191505060405180910390f35b6102786004803603602081101561024157600080fd5b8101908080357dffffffffffffffffffffffffffffffffffffffffffffffffffffffffffff191690602001909291905050506109cf565b005b6102c76004803603602081101561029057600080fd5b8101908080357dffffffffffffffffffffffffffffffffffffffffffffffffffffffffffff19169060200190929190505050610bcf565b604051808215151515815260200191505060405180910390f35b61030d600480360360208110156102f757600080fd5b8101908080359060200190929190505050610bef565b60405180827dffffffffffffffffffffffffffffffffffffffffffffffffffffffffffff19167dffffffffffffffffffffffffffffffffffffffffffffffffffffffffffff1916815260200191505060405180910390f35b6103dc6004803603604081101561037b57600080fd5b8101908080357dffffffffffffffffffffffffffffffffffffffffffffffffffffffffffff1916906020019092919080357cffffffffffffffffffffffffffffffffffffffffffffffffffffffffff19169060200190929190505050610c41565b60405180827bffffffffffffffffffffffffffffffffffffffffffffffffffffffff19167bffffffffffffffffffffffffffffffffffffffffffffffffffffffff1916815260200191505060405180910390f35b6104d06004803603606081101561044657600080fd5b8101908080357dffffffffffffffffffffffffffffffffffffffffffffffffffffffffffff1916906020019092919080357cffffffffffffffffffffffffffffffffffffffffffffffffffffffffff1916906020019092919080357bffffffffffffffffffffffffffffffffffffffffffffffffffffffff19169060200190929190505050610c8c565b005b61051f600480360360208110156104e857600080fd5b8101908080357dffffffffffffffffffffffffffffffffffffffffffffffffffffffffffff19169060200190929190505050610e46565b6040518082815260200191505060405180910390f35b6105826004803603602081101561054b57600080fd5b8101908080357dffffffffffffffffffffffffffffffffffffffffffffffffffffffffffff19169060200190929190505050610e5e565b005b6105c76004803603602081101561059a57600080fd5b81019080803573ffffffffffffffffffffffffffffffffffffffff19169060200190929190505050610ecf565b604051808215151515815260200191505060405180910390f35b610756600480360360608110156105f757600080fd5b8101908080357dffffffffffffffffffffffffffffffffffffffffffffffffffffffffffff191690602001909291908035906020019064010000000081111561063f57600080fd5b82018360208201111561065157600080fd5b8035906020019184602083028401116401000000008311171561067357600080fd5b919080806020026020016040519081016040528093929190818152602001838360200280828437600081840152601f19601f820116905080830192505050505050509192919290803590602001906401000000008111156106d357600080fd5b8201836020820111156106e557600080fd5b8035906020019184602083028401116401000000008311171561070757600080fd5b919080806020026020016040519081016040528093929190818152602001838360200280828437600081840152601f19601f820116905080830192505050505050509192919290505050611013565b005b6107ce6004803603604081101561076e57600080fd5b8101908080357dffffffffffffffffffffffffffffffffffffffffffffffffffffffffffff1916906020019092919080357bffffffffffffffffffffffffffffffffffffffffffffffffffffffff19169060200190929190505050611210565b604051808215151515815260200191505060405180910390f35b610835600480360360208110156107fe57600080fd5b8101908080357dffffffffffffffffffffffffffffffffffffffffffffffffffffffffffff19169060200190929190505050611406565b005b60026020528060005260406000206000915054906101000a900460ff1681565b6000808251116108b2576040517f08c379a000000000000000000000000000000000000000000000000000000000815260040180806020018281038252602381526020018061180e6023913960400191505060405180910390fd5b60008090505b82518110156109c45760007c0100000000000000000000000000000000000000000000000000000000027bffffffffffffffffffffffffffffffffffffffffffffffffffffffff191660008061090e868561171d565b7effffffffffffffffffffffffffffffffffffffffffffffffffffffffffffff19167effffffffffffffffffffffffffffffffffffffffffffffffffffffffffffff1916815260200190815260200160002060009054906101000a90047c0100000000000000000000000000000000000000000000000000000000027bffffffffffffffffffffffffffffffffffffffffffffffffffffffff191614156109b95760009150506109ca565b6001810190506108b8565b50600190505b919050565b60026000827dffffffffffffffffffffffffffffffffffffffffffffffffffffffffffff19167dffffffffffffffffffffffffffffffffffffffffffffffffffffffffffff1916815260200190815260200160002060009054906101000a900460ff1615610aa5576040517f08c379a00000000000000000000000000000000000000000000000000000000081526004018080602001828103825260178152602001807f636f756e74727920616c726561647920656e61626c656400000000000000000081525060200191505060405180910390fd5b600160026000837dffffffffffffffffffffffffffffffffffffffffffffffffffffffffffff19167dffffffffffffffffffffffffffffffffffffffffffffffffffffffffffff1916815260200190815260200160002060006101000a81548160ff021916908315150217905550600481908060018154018082558091505090600182039060005260206000209060109182820401919006600202909192909190916101000a81548161ffff02191690837e010000000000000000000000000000000000000000000000000000000000009004021790555050807dffffffffffffffffffffffffffffffffffffffffffffffffffffffffffff19167f8e0967533cd3a78b3f8cbe41a8355c9a41846dfcb571b787fb7380459905e5ba60405160405180910390a250565b60036020528060005260406000206000915054906101000a900460ff1681565b60048181548110610bfc57fe5b9060005260206000209060109182820401919006600202915054906101000a90047e010000000000000000000000000000000000000000000000000000000000000281565b60056020528160005260406000206020528060005260406000206000915091509054906101000a90047c01000000000000000000000000000000000000000000000000000000000281565b60036000847dffffffffffffffffffffffffffffffffffffffffffffffffffffffffffff19167dffffffffffffffffffffffffffffffffffffffffffffffffffffffffffff1916815260200190815260200160002060009054906101000a900460ff1615610d62576040517f08c379a000000000000000000000000000000000000000000000000000000000815260040180806020018281038252601a8152602001807f636f756e747279206d757374206e6f742062652066696c6c656400000000000081525060200191505060405180910390fd5b8060056000857dffffffffffffffffffffffffffffffffffffffffffffffffffffffffffff19167dffffffffffffffffffffffffffffffffffffffffffffffffffffffffffff191681526020019081526020016000206000847cffffffffffffffffffffffffffffffffffffffffffffffffffffffffff19167cffffffffffffffffffffffffffffffffffffffffffffffffffffffffff1916815260200190815260200160002060006101000a81548163ffffffff02191690837c010000000000000000000000000000000000000000000000000000000090040217905550505050565b60016020528060005260406000206000915090505481565b600160036000837dffffffffffffffffffffffffffffffffffffffffffffffffffffffffffff19167dffffffffffffffffffffffffffffffffffffffffffffffffffffffffffff1916815260200190815260200160002060006101000a81548160ff02191690831515021790555050565b600080600090505b600c8110156110085760007c0100000000000000000000000000000000000000000000000000000000027bffffffffffffffffffffffffffffffffffffffffffffffffffffffff19166000808584600c8110610f2f57fe5b1a7f0100000000000000000000000000000000000000000000000000000000000000027effffffffffffffffffffffffffffffffffffffffffffffffffffffffffffff19167effffffffffffffffffffffffffffffffffffffffffffffffffffffffffffff1916815260200190815260200160002060009054906101000a90047c0100000000000000000000000000000000000000000000000000000000027bffffffffffffffffffffffffffffffffffffffffffffffffffffffff19161415610ffd57600091505061100e565b600181019050610ed7565b50600190505b919050565b60036000847dffffffffffffffffffffffffffffffffffffffffffffffffffffffffffff19167dffffffffffffffffffffffffffffffffffffffffffffffffffffffffffff1916815260200190815260200160002060009054906101000a900460ff16156110e9576040517f08c379a000000000000000000000000000000000000000000000000000000000815260040180806020018281038252601a8152602001807f636f756e747279206d757374206e6f742062652066696c6c656400000000000081525060200191505060405180910390fd5b60008090505b825181101561120a5781818151811061110457fe5b602002602001015160056000867dffffffffffffffffffffffffffffffffffffffffffffffffffffffffffff19167dffffffffffffffffffffffffffffffffffffffffffffffffffffffffffff19168152602001908152602001600020600085848151811061116f57fe5b60200260200101517cffffffffffffffffffffffffffffffffffffffffffffffffffffffffff19167cffffffffffffffffffffffffffffffffffffffffffffffffffffffffff1916815260200190815260200160002060006101000a81548163ffffffff02191690837c01000000000000000000000000000000000000000000000000000000009004021790555080806001019150506110ef565b50505050565b600080829050600060056000867dffffffffffffffffffffffffffffffffffffffffffffffffffffffffffff19167dffffffffffffffffffffffffffffffffffffffffffffffffffffffffffff191681526020019081526020016000206000837cffffffffffffffffffffffffffffffffffffffffffffffffffffffffff19167cffffffffffffffffffffffffffffffffffffffffffffffffffffffffff1916815260200190815260200160002060009054906101000a90047c01000000000000000000000000000000000000000000000000000000000290506000846003600481106112f957fe5b1a7f01000000000000000000000000000000000000000000000000000000000000000290506000806000837effffffffffffffffffffffffffffffffffffffffffffffffffffffffffffff19167effffffffffffffffffffffffffffffffffffffffffffffffffffffffffffff1916815260200190815260200160002060009054906101000a90047c010000000000000000000000000000000000000000000000000000000002905060007c0100000000000000000000000000000000000000000000000000000000028184167bffffffffffffffffffffffffffffffffffffffffffffffffffffffff1916146113f7576001945050505050611400565b60009450505050505b92915050565b60026000827dffffffffffffffffffffffffffffffffffffffffffffffffffffffffffff19167dffffffffffffffffffffffffffffffffffffffffffffffffffffffffffff1916815260200190815260200160002060009054906101000a900460ff166114db576040517f08c379a00000000000000000000000000000000000000000000000000000000081526004018080602001828103825260188152602001807f636f756e74727920616c72656164792064697361626c6564000000000000000081525060200191505060405180910390fd5b600060026000837dffffffffffffffffffffffffffffffffffffffffffffffffffffffffffff19167dffffffffffffffffffffffffffffffffffffffffffffffffffffffffffff1916815260200190815260200160002060006101000a81548160ff02191690831515021790555060008090505b6004805490508110156116cb57817dffffffffffffffffffffffffffffffffffffffffffffffffffffffffffff19166004828154811061158b57fe5b90600052602060002090601091828204019190066002029054906101000a90047e01000000000000000000000000000000000000000000000000000000000000027dffffffffffffffffffffffffffffffffffffffffffffffffffffffffffff191614156116be5760046001600480549050038154811061160857fe5b90600052602060002090601091828204019190066002029054906101000a90047e01000000000000000000000000000000000000000000000000000000000000026004828154811061165657fe5b90600052602060002090601091828204019190066002026101000a81548161ffff02191690837e010000000000000000000000000000000000000000000000000000000000009004021790555060048054809190600190036116b891906117ae565b506116cb565b808060010191505061154f565b50807dffffffffffffffffffffffffffffffffffffffffffffffffffffffffffff19167fc2cca0a5f1c2e809f2ff6aab657dd9c7ee136c937ff229ce11ced8720862761e60405160405180910390a250565b60006001820183511015611799576040517f08c379a00000000000000000000000000000000000000000000000000000000081526004018080602001828103825260108152602001807f206e6f74206c6f6e6720656e6f7567680000000000000000000000000000000081525060200191505060405180910390fd5b60008260208501015190508091505092915050565b8154818355818111156117e357600f016010900481600f016010900483600052602060002091820191016117e291906117e8565b5b505050565b61180a91905b808211156118065760008160009055506001016117ee565b5090565b9056fe5f62797465732067656f6861736820636861727320697320656d707479206172726179a165627a7a72305820e8a0782fe98e591de6293ae6848d3fad3012f718837d06e16fa9c5d026bfb6940029",
  "source": "pragma solidity ^0.5.8;\n\ncontract GeoRegistry {\n\n  // ------------------------------------------------\n  //\n  // Variables Private\n  //\n  // ------------------------------------------------\n\n  // set once in constructor()\n  //      geohashChar bitmask\n  mapping(bytes1 => bytes4) private charToBitmask;\n  //\n  // mapping(bytes2 => bool) private validGeohashChars;\n\n  // ------------------------------------------------\n  //\n  // Variables Public\n  //\n  // ------------------------------------------------\n\n\n  //      countryCode licensePriceUSD\n  mapping(bytes2 => uint) public shopLicensePrice;\n\n  //      countryCode isEnabled\n  mapping(bytes2 => bool) public countryIsEnabled;\n  mapping(bytes2 => bool) public countryIsFilled;\n\n  bytes2[] public enabledCountries;\n\n  //      countryCode       geohashFirst3 bitmaskLevel4\n  mapping(bytes2 => mapping(bytes3 => bytes4)) public level_2;\n\n  // ------------------------------------------------\n  //\n  // Events\n  //\n  // ------------------------------------------------\n\n  event GeoRegistryCountryEnabled(bytes2 indexed country);\n  event GeoRegistryCountryDisabled(bytes2 indexed country);\n\n  // ------------------------------------------------\n  //\n  // Constructor\n  //\n  // ------------------------------------------------\n\n  constructor()\n    public\n  {\n\n    // TODO: improve below code? https://medium.com/@imolfar/bitwise-operations-and-bit-manipulation-in-solidity-ethereum-1751f3d2e216\n    charToBitmask[bytes1(\"v\")] = hex\"80000000\"; // 2147483648\n    charToBitmask[bytes1(\"y\")] = hex\"40000000\"; // 1073741824\n    charToBitmask[bytes1(\"z\")] = hex\"20000000\"; // 536870912\n    charToBitmask[bytes1(\"b\")] = hex\"10000000\"; // 268435456\n    charToBitmask[bytes1(\"c\")] = hex\"08000000\"; // 134217728\n    charToBitmask[bytes1(\"f\")] = hex\"04000000\"; // 67108864\n    charToBitmask[bytes1(\"g\")] = hex\"02000000\"; // 33554432\n    charToBitmask[bytes1(\"u\")] = hex\"01000000\"; // 16777216\n    charToBitmask[bytes1(\"t\")] = hex\"00800000\"; // 8388608\n    charToBitmask[bytes1(\"w\")] = hex\"00400000\"; // 4194304\n    charToBitmask[bytes1(\"x\")] = hex\"00200000\"; // 2097152\n    charToBitmask[bytes1(\"8\")] = hex\"00100000\"; // 1048576\n    charToBitmask[bytes1(\"9\")] = hex\"00080000\"; // 524288\n    charToBitmask[bytes1(\"d\")] = hex\"00040000\"; // 262144\n    charToBitmask[bytes1(\"e\")] = hex\"00020000\"; // 131072\n    charToBitmask[bytes1(\"s\")] = hex\"00010000\"; // 65536\n    charToBitmask[bytes1(\"m\")] = hex\"00008000\"; // 32768\n    charToBitmask[bytes1(\"q\")] = hex\"00004000\"; // 16384\n    charToBitmask[bytes1(\"r\")] = hex\"00002000\"; // 8192\n    charToBitmask[bytes1(\"2\")] = hex\"00001000\"; // 4096\n    charToBitmask[bytes1(\"3\")] = hex\"00000800\"; // 2048\n    charToBitmask[bytes1(\"6\")] = hex\"00000400\"; // 1024\n    charToBitmask[bytes1(\"7\")] = hex\"00000200\"; // 512\n    charToBitmask[bytes1(\"k\")] = hex\"00000100\"; // 256\n    charToBitmask[bytes1(\"j\")] = hex\"00000080\"; // 128\n    charToBitmask[bytes1(\"n\")] = hex\"00000040\"; // 64\n    charToBitmask[bytes1(\"p\")] = hex\"00000020\"; // 32\n    charToBitmask[bytes1(\"0\")] = hex\"00000010\"; // 16\n    charToBitmask[bytes1(\"1\")] = hex\"00000008\"; // 8\n    charToBitmask[bytes1(\"4\")] = hex\"00000004\"; // 4\n    charToBitmask[bytes1(\"5\")] = hex\"00000002\"; // 2\n    charToBitmask[bytes1(\"h\")] = hex\"00000001\"; // 1\n  }\n\n  // ------------------------------------------------\n  //\n  // Functions Private Getters\n  //\n  // ------------------------------------------------\n\n  function toBytes1(bytes memory _bytes, uint _start)\n    private\n    pure\n    returns (bytes1)\n  {\n    require(_bytes.length >= (_start + 1), \" not long enough\");\n    bytes1 tempBytes1;\n\n    assembly {\n        tempBytes1 := mload(add(add(_bytes, 0x20), _start))\n    }\n\n    return tempBytes1;\n  }\n\n  function toBytes3(bytes memory _bytes, uint _start)\n    private\n    pure\n    returns (bytes3)\n  {\n    require(_bytes.length >= (_start + 3), \" not long enough\");\n    bytes3 tempBytes3;\n\n    assembly {\n        tempBytes3 := mload(add(add(_bytes, 0x20), _start))\n    }\n\n    return tempBytes3;\n  }\n\n  // ------------------------------------------------\n  //\n  // Functions Public Getters\n  //\n  // ------------------------------------------------\n\n  function validGeohashChars(bytes memory _bytes)\n    public\n    view\n    returns (bool)\n  {\n    require(_bytes.length > 0, \"_bytes geohash chars is empty array\");\n\n    for (uint i = 0; i < _bytes.length; i += 1) {\n      // find the first occurence of a byte which is not valid geohash character\n      if (charToBitmask[toBytes1(_bytes, i)] == bytes4(0)) {\n        return false;\n      }\n    }\n    return true;\n  }\n  function validGeohashChars12(bytes12 _bytes)\n    public\n    view\n    returns (bool)\n  {\n    for (uint i = 0; i < 12; i += 1) {\n      // find the first occurence of a byte which is not valid geohash character\n      if (charToBitmask[bytes1(_bytes[i])] == bytes4(0)) {\n        return false;\n      }\n    }\n    return true;\n  }\n\n  // @NOTE: _zone can be any length of bytes\n  function zoneInsideCountry(bytes2 _countryCode, bytes4 _zone)\n    public\n    view\n    returns (bool)\n  {\n    bytes3 level2key = bytes3(_zone);\n    bytes4 level3bits = level_2[_countryCode][level2key];\n\n    bytes1 fourthByte = bytes1(_zone[3]);\n    bytes4 fourthByteBitPosMask = charToBitmask[fourthByte];\n\n    if (level3bits & fourthByteBitPosMask != 0) {\n      return true;\n    } else {\n      return false;\n    }\n  }\n\n  // ------------------------------------------------\n  //\n  // Functions Setters Public\n  //\n  // ------------------------------------------------\n  function updateLevel2(bytes2 _countryCode, bytes3 _letter, bytes4 _subLetters)\n    public\n  {\n    require(!countryIsFilled[_countryCode], \"country must not be filled\");\n    level_2[_countryCode][_letter] = _subLetters;\n  }\n  function updateLevel2batch(bytes2 _countryCode, bytes3[] memory _letters, bytes4[] memory _subLetters)\n    public\n  {\n    require(!countryIsFilled[_countryCode], \"country must not be filled\");\n    for (uint i = 0; i < _letters.length; i++) {\n      level_2[_countryCode][_letters[i]] = _subLetters[i];\n    }\n  }\n  function endInit(bytes2 _countryCode)\n    external\n  {\n    countryIsFilled[_countryCode] = true;\n  }\n  function enableCountry(bytes2 _country)\n    external\n  {\n    require(!countryIsEnabled[_country], \"country already enabled\");\n\n    countryIsEnabled[_country] = true;\n    enabledCountries.push(_country);\n\n    emit GeoRegistryCountryEnabled(_country);\n  }\n\n  function disableCountry(bytes2 _country)\n    external\n  {\n    require(countryIsEnabled[_country], \"country already disabled\");\n\n    countryIsEnabled[_country] = false;\n\n    for (uint i = 0; i < enabledCountries.length; i++) {\n      if (enabledCountries[i] == _country) {\n        // replace the to-be-deleted country with the last country in the list\n        enabledCountries[i] = enabledCountries[enabledCountries.length - 1];\n        enabledCountries.length--;\n        break;\n      }\n    }\n\n    emit GeoRegistryCountryDisabled(_country);\n  }\n}\n",
  "sourcePath": "/Users/mehdi/code/dether/contractV2/contracts/map/GeoRegistry.sol",
  "compiler": {
    "name": "solc",
    "version": "0.5.8+commit.23d335f2.Emscripten.clang"
  },
  "schemaVersion": "3.0.11",
  "updatedAt": "2019-07-03T15:46:09.411Z",
  "devdoc": {
    "methods": {}
  },
  "userdoc": {
    "methods": {}
  }
}