{
  "contractName": "GeoRegistry",
  "abi": [
    {
      "constant": true,
      "inputs": [
        {
          "name": "",
          "type": "bytes2"
        }
      ],
      "name": "countryIsEnabled",
      "outputs": [
        {
          "name": "",
          "type": "bool"
        }
      ],
      "payable": false,
      "stateMutability": "view",
      "type": "function"
    },
    {
      "constant": true,
      "inputs": [
        {
          "name": "",
          "type": "bytes2"
        }
      ],
      "name": "countryIsFilled",
      "outputs": [
        {
          "name": "",
          "type": "bool"
        }
      ],
      "payable": false,
      "stateMutability": "view",
      "type": "function"
    },
    {
      "constant": true,
      "inputs": [
        {
          "name": "",
          "type": "uint256"
        }
      ],
      "name": "enabledCountries",
      "outputs": [
        {
          "name": "",
          "type": "bytes2"
        }
      ],
      "payable": false,
      "stateMutability": "view",
      "type": "function"
    },
    {
      "constant": true,
      "inputs": [
        {
          "name": "",
          "type": "bytes2"
        },
        {
          "name": "",
          "type": "bytes3"
        }
      ],
      "name": "level_2",
      "outputs": [
        {
          "name": "",
          "type": "bytes4"
        }
      ],
      "payable": false,
      "stateMutability": "view",
      "type": "function"
    },
    {
      "constant": true,
      "inputs": [
        {
          "name": "",
          "type": "bytes2"
        }
      ],
      "name": "shopLicensePrice",
      "outputs": [
        {
          "name": "",
          "type": "uint256"
        }
      ],
      "payable": false,
      "stateMutability": "view",
      "type": "function"
    },
    {
      "inputs": [],
      "payable": false,
      "stateMutability": "nonpayable",
      "type": "constructor"
    },
    {
      "anonymous": false,
      "inputs": [
        {
          "indexed": true,
          "name": "country",
          "type": "bytes2"
        }
      ],
      "name": "GeoRegistryCountryEnabled",
      "type": "event"
    },
    {
      "anonymous": false,
      "inputs": [
        {
          "indexed": true,
          "name": "country",
          "type": "bytes2"
        }
      ],
      "name": "GeoRegistryCountryDisabled",
      "type": "event"
    },
    {
      "constant": true,
      "inputs": [
        {
          "name": "_bytes",
          "type": "bytes"
        }
      ],
      "name": "validGeohashChars",
      "outputs": [
        {
          "name": "",
          "type": "bool"
        }
      ],
      "payable": false,
      "stateMutability": "view",
      "type": "function"
    },
    {
      "constant": true,
      "inputs": [
        {
          "name": "_bytes",
          "type": "bytes12"
        }
      ],
      "name": "validGeohashChars12",
      "outputs": [
        {
          "name": "",
          "type": "bool"
        }
      ],
      "payable": false,
      "stateMutability": "view",
      "type": "function"
    },
    {
      "constant": true,
      "inputs": [
        {
          "name": "_countryCode",
          "type": "bytes2"
        },
        {
          "name": "_zone",
          "type": "bytes4"
        }
      ],
      "name": "zoneInsideCountry",
      "outputs": [
        {
          "name": "",
          "type": "bool"
        }
      ],
      "payable": false,
      "stateMutability": "view",
      "type": "function"
    },
    {
      "constant": false,
      "inputs": [
        {
          "name": "_countryCode",
          "type": "bytes2"
        },
        {
          "name": "_letter",
          "type": "bytes3"
        },
        {
          "name": "_subLetters",
          "type": "bytes4"
        }
      ],
      "name": "updateLevel2",
      "outputs": [],
      "payable": false,
      "stateMutability": "nonpayable",
      "type": "function"
    },
    {
      "constant": false,
      "inputs": [
        {
          "name": "_countryCode",
          "type": "bytes2"
        },
        {
          "name": "_letters",
          "type": "bytes3[]"
        },
        {
          "name": "_subLetters",
          "type": "bytes4[]"
        }
      ],
      "name": "updateLevel2batch",
      "outputs": [],
      "payable": false,
      "stateMutability": "nonpayable",
      "type": "function"
    },
    {
      "constant": false,
      "inputs": [
        {
          "name": "_countryCode",
          "type": "bytes2"
        }
      ],
      "name": "endInit",
      "outputs": [],
      "payable": false,
      "stateMutability": "nonpayable",
      "type": "function"
    },
    {
      "constant": false,
      "inputs": [
        {
          "name": "_country",
          "type": "bytes2"
        }
      ],
      "name": "enableCountry",
      "outputs": [],
      "payable": false,
      "stateMutability": "nonpayable",
      "type": "function"
    },
    {
      "constant": false,
      "inputs": [
        {
          "name": "_country",
          "type": "bytes2"
        }
      ],
      "name": "disableCountry",
      "outputs": [],
      "payable": false,
      "stateMutability": "nonpayable",
      "type": "function"
    }
  ],
  "bytecode": "0x608060405234801561001057600080fd5b507f80000000000000000000000000000000000000000000000000000000000000006000807f76000000000000000000000000000000000000000000000000000000000000007effffffffffffffffffffffffffffffffffffffffffffffffffffffffffffff19167effffffffffffffffffffffffffffffffffffffffffffffffffffffffffffff1916815260200190815260200160002060006101000a81548163ffffffff021916908360e01c02179055507f40000000000000000000000000000000000000000000000000000000000000006000807f79000000000000000000000000000000000000000000000000000000000000007effffffffffffffffffffffffffffffffffffffffffffffffffffffffffffff19167effffffffffffffffffffffffffffffffffffffffffffffffffffffffffffff1916815260200190815260200160002060006101000a81548163ffffffff021916908360e01c02179055507f20000000000000000000000000000000000000000000000000000000000000006000807f7a000000000000000000000000000000000000000000000000000000000000007effffffffffffffffffffffffffffffffffffffffffffffffffffffffffffff19167effffffffffffffffffffffffffffffffffffffffffffffffffffffffffffff1916815260200190815260200160002060006101000a81548163ffffffff021916908360e01c02179055507f10000000000000000000000000000000000000000000000000000000000000006000807f62000000000000000000000000000000000000000000000000000000000000007effffffffffffffffffffffffffffffffffffffffffffffffffffffffffffff19167effffffffffffffffffffffffffffffffffffffffffffffffffffffffffffff1916815260200190815260200160002060006101000a81548163ffffffff021916908360e01c02179055507f08000000000000000000000000000000000000000000000000000000000000006000807f63000000000000000000000000000000000000000000000000000000000000007effffffffffffffffffffffffffffffffffffffffffffffffffffffffffffff19167effffffffffffffffffffffffffffffffffffffffffffffffffffffffffffff1916815260200190815260200160002060006101000a81548163ffffffff021916908360e01c02179055507f04000000000000000000000000000000000000000000000000000000000000006000807f66000000000000000000000000000000000000000000000000000000000000007effffffffffffffffffffffffffffffffffffffffffffffffffffffffffffff19167effffffffffffffffffffffffffffffffffffffffffffffffffffffffffffff1916815260200190815260200160002060006101000a81548163ffffffff021916908360e01c02179055507f02000000000000000000000000000000000000000000000000000000000000006000807f67000000000000000000000000000000000000000000000000000000000000007effffffffffffffffffffffffffffffffffffffffffffffffffffffffffffff19167effffffffffffffffffffffffffffffffffffffffffffffffffffffffffffff1916815260200190815260200160002060006101000a81548163ffffffff021916908360e01c02179055507f01000000000000000000000000000000000000000000000000000000000000006000807f75000000000000000000000000000000000000000000000000000000000000007effffffffffffffffffffffffffffffffffffffffffffffffffffffffffffff19167effffffffffffffffffffffffffffffffffffffffffffffffffffffffffffff1916815260200190815260200160002060006101000a81548163ffffffff021916908360e01c02179055507e800000000000000000000000000000000000000000000000000000000000006000807f74000000000000000000000000000000000000000000000000000000000000007effffffffffffffffffffffffffffffffffffffffffffffffffffffffffffff19167effffffffffffffffffffffffffffffffffffffffffffffffffffffffffffff1916815260200190815260200160002060006101000a81548163ffffffff021916908360e01c02179055507e400000000000000000000000000000000000000000000000000000000000006000807f77000000000000000000000000000000000000000000000000000000000000007effffffffffffffffffffffffffffffffffffffffffffffffffffffffffffff19167effffffffffffffffffffffffffffffffffffffffffffffffffffffffffffff1916815260200190815260200160002060006101000a81548163ffffffff021916908360e01c02179055507e200000000000000000000000000000000000000000000000000000000000006000807f78000000000000000000000000000000000000000000000000000000000000007effffffffffffffffffffffffffffffffffffffffffffffffffffffffffffff19167effffffffffffffffffffffffffffffffffffffffffffffffffffffffffffff1916815260200190815260200160002060006101000a81548163ffffffff021916908360e01c02179055507e100000000000000000000000000000000000000000000000000000000000006000807f38000000000000000000000000000000000000000000000000000000000000007effffffffffffffffffffffffffffffffffffffffffffffffffffffffffffff19167effffffffffffffffffffffffffffffffffffffffffffffffffffffffffffff1916815260200190815260200160002060006101000a81548163ffffffff021916908360e01c02179055507e080000000000000000000000000000000000000000000000000000000000006000807f39000000000000000000000000000000000000000000000000000000000000007effffffffffffffffffffffffffffffffffffffffffffffffffffffffffffff19167effffffffffffffffffffffffffffffffffffffffffffffffffffffffffffff1916815260200190815260200160002060006101000a81548163ffffffff021916908360e01c02179055507e040000000000000000000000000000000000000000000000000000000000006000807f64000000000000000000000000000000000000000000000000000000000000007effffffffffffffffffffffffffffffffffffffffffffffffffffffffffffff19167effffffffffffffffffffffffffffffffffffffffffffffffffffffffffffff1916815260200190815260200160002060006101000a81548163ffffffff021916908360e01c02179055507e020000000000000000000000000000000000000000000000000000000000006000807f65000000000000000000000000000000000000000000000000000000000000007effffffffffffffffffffffffffffffffffffffffffffffffffffffffffffff19167effffffffffffffffffffffffffffffffffffffffffffffffffffffffffffff1916815260200190815260200160002060006101000a81548163ffffffff021916908360e01c02179055507e010000000000000000000000000000000000000000000000000000000000006000807f73000000000000000000000000000000000000000000000000000000000000007effffffffffffffffffffffffffffffffffffffffffffffffffffffffffffff19167effffffffffffffffffffffffffffffffffffffffffffffffffffffffffffff1916815260200190815260200160002060006101000a81548163ffffffff021916908360e01c02179055507d8000000000000000000000000000000000000000000000000000000000006000807f6d000000000000000000000000000000000000000000000000000000000000007effffffffffffffffffffffffffffffffffffffffffffffffffffffffffffff19167effffffffffffffffffffffffffffffffffffffffffffffffffffffffffffff1916815260200190815260200160002060006101000a81548163ffffffff021916908360e01c02179055507d4000000000000000000000000000000000000000000000000000000000006000807f71000000000000000000000000000000000000000000000000000000000000007effffffffffffffffffffffffffffffffffffffffffffffffffffffffffffff19167effffffffffffffffffffffffffffffffffffffffffffffffffffffffffffff1916815260200190815260200160002060006101000a81548163ffffffff021916908360e01c02179055507d2000000000000000000000000000000000000000000000000000000000006000807f72000000000000000000000000000000000000000000000000000000000000007effffffffffffffffffffffffffffffffffffffffffffffffffffffffffffff19167effffffffffffffffffffffffffffffffffffffffffffffffffffffffffffff1916815260200190815260200160002060006101000a81548163ffffffff021916908360e01c02179055507d1000000000000000000000000000000000000000000000000000000000006000807f32000000000000000000000000000000000000000000000000000000000000007effffffffffffffffffffffffffffffffffffffffffffffffffffffffffffff19167effffffffffffffffffffffffffffffffffffffffffffffffffffffffffffff1916815260200190815260200160002060006101000a81548163ffffffff021916908360e01c02179055507d0800000000000000000000000000000000000000000000000000000000006000807f33000000000000000000000000000000000000000000000000000000000000007effffffffffffffffffffffffffffffffffffffffffffffffffffffffffffff19167effffffffffffffffffffffffffffffffffffffffffffffffffffffffffffff1916815260200190815260200160002060006101000a81548163ffffffff021916908360e01c02179055507d0400000000000000000000000000000000000000000000000000000000006000807f36000000000000000000000000000000000000000000000000000000000000007effffffffffffffffffffffffffffffffffffffffffffffffffffffffffffff19167effffffffffffffffffffffffffffffffffffffffffffffffffffffffffffff1916815260200190815260200160002060006101000a81548163ffffffff021916908360e01c02179055507d0200000000000000000000000000000000000000000000000000000000006000807f37000000000000000000000000000000000000000000000000000000000000007effffffffffffffffffffffffffffffffffffffffffffffffffffffffffffff19167effffffffffffffffffffffffffffffffffffffffffffffffffffffffffffff1916815260200190815260200160002060006101000a81548163ffffffff021916908360e01c02179055507d0100000000000000000000000000000000000000000000000000000000006000807f6b000000000000000000000000000000000000000000000000000000000000007effffffffffffffffffffffffffffffffffffffffffffffffffffffffffffff19167effffffffffffffffffffffffffffffffffffffffffffffffffffffffffffff1916815260200190815260200160002060006101000a81548163ffffffff021916908360e01c02179055507c80000000000000000000000000000000000000000000000000000000006000807f6a000000000000000000000000000000000000000000000000000000000000007effffffffffffffffffffffffffffffffffffffffffffffffffffffffffffff19167effffffffffffffffffffffffffffffffffffffffffffffffffffffffffffff1916815260200190815260200160002060006101000a81548163ffffffff021916908360e01c02179055507c40000000000000000000000000000000000000000000000000000000006000807f6e000000000000000000000000000000000000000000000000000000000000007effffffffffffffffffffffffffffffffffffffffffffffffffffffffffffff19167effffffffffffffffffffffffffffffffffffffffffffffffffffffffffffff1916815260200190815260200160002060006101000a81548163ffffffff021916908360e01c02179055507c20000000000000000000000000000000000000000000000000000000006000807f70000000000000000000000000000000000000000000000000000000000000007effffffffffffffffffffffffffffffffffffffffffffffffffffffffffffff19167effffffffffffffffffffffffffffffffffffffffffffffffffffffffffffff1916815260200190815260200160002060006101000a81548163ffffffff021916908360e01c02179055507c10000000000000000000000000000000000000000000000000000000006000807f30000000000000000000000000000000000000000000000000000000000000007effffffffffffffffffffffffffffffffffffffffffffffffffffffffffffff19167effffffffffffffffffffffffffffffffffffffffffffffffffffffffffffff1916815260200190815260200160002060006101000a81548163ffffffff021916908360e01c02179055507c08000000000000000000000000000000000000000000000000000000006000807f31000000000000000000000000000000000000000000000000000000000000007effffffffffffffffffffffffffffffffffffffffffffffffffffffffffffff19167effffffffffffffffffffffffffffffffffffffffffffffffffffffffffffff1916815260200190815260200160002060006101000a81548163ffffffff021916908360e01c02179055507c04000000000000000000000000000000000000000000000000000000006000807f34000000000000000000000000000000000000000000000000000000000000007effffffffffffffffffffffffffffffffffffffffffffffffffffffffffffff19167effffffffffffffffffffffffffffffffffffffffffffffffffffffffffffff1916815260200190815260200160002060006101000a81548163ffffffff021916908360e01c02179055507c02000000000000000000000000000000000000000000000000000000006000807f35000000000000000000000000000000000000000000000000000000000000007effffffffffffffffffffffffffffffffffffffffffffffffffffffffffffff19167effffffffffffffffffffffffffffffffffffffffffffffffffffffffffffff1916815260200190815260200160002060006101000a81548163ffffffff021916908360e01c02179055507c01000000000000000000000000000000000000000000000000000000006000807f68000000000000000000000000000000000000000000000000000000000000007effffffffffffffffffffffffffffffffffffffffffffffffffffffffffffff19167effffffffffffffffffffffffffffffffffffffffffffffffffffffffffffff1916815260200190815260200160002060006101000a81548163ffffffff021916908360e01c0217905550611658806116306000396000f3fe608060405234801561001057600080fd5b50600436106100cf5760003560e01c806381b0bb9c1161008c578063bf922fe211610066578063bf922fe214610567578063cd05115c146105c4578063df6b2c2c1461073b578063fb83dbab146107cb576100cf565b806381b0bb9c146104135780638355d49e146104b5578063a9879ecf14610518576100cf565b80630dc210aa146100d45780631d0a48311461013b5780634a99d2741461020e5780634bcf29a81461025d578063580fa608146102c4578063694a53d714610348575b600080fd5b610121600480360360208110156100ea57600080fd5b8101908080357dffffffffffffffffffffffffffffffffffffffffffffffffffffffffffff1916906020019092919050505061081a565b604051808215151515815260200191505060405180910390f35b6101f46004803603602081101561015157600080fd5b810190808035906020019064010000000081111561016e57600080fd5b82018360208201111561018057600080fd5b803590602001918460018302840111640100000000831117156101a257600080fd5b91908080601f016020809104026020016040519081016040528093929190818152602001838380828437600081840152601f19601f82011690508083019250505050505050919291929050505061083a565b604051808215151515815260200191505060405180910390f35b61025b6004803603602081101561022457600080fd5b8101908080357dffffffffffffffffffffffffffffffffffffffffffffffffffffffffffff1916906020019092919050505061097a565b005b6102aa6004803603602081101561027357600080fd5b8101908080357dffffffffffffffffffffffffffffffffffffffffffffffffffffffffffff19169060200190929190505050610b5b565b604051808215151515815260200191505060405180910390f35b6102f0600480360360208110156102da57600080fd5b8101908080359060200190929190505050610b7b565b60405180827dffffffffffffffffffffffffffffffffffffffffffffffffffffffffffff19167dffffffffffffffffffffffffffffffffffffffffffffffffffffffffffff1916815260200191505060405180910390f35b6103bf6004803603604081101561035e57600080fd5b8101908080357dffffffffffffffffffffffffffffffffffffffffffffffffffffffffffff1916906020019092919080357cffffffffffffffffffffffffffffffffffffffffffffffffffffffffff19169060200190929190505050610baf565b60405180827bffffffffffffffffffffffffffffffffffffffffffffffffffffffff19167bffffffffffffffffffffffffffffffffffffffffffffffffffffffff1916815260200191505060405180910390f35b6104b36004803603606081101561042957600080fd5b8101908080357dffffffffffffffffffffffffffffffffffffffffffffffffffffffffffff1916906020019092919080357cffffffffffffffffffffffffffffffffffffffffffffffffffffffffff1916906020019092919080357bffffffffffffffffffffffffffffffffffffffffffffffffffffffff19169060200190929190505050610bde565b005b610502600480360360208110156104cb57600080fd5b8101908080357dffffffffffffffffffffffffffffffffffffffffffffffffffffffffffff19169060200190929190505050610d7b565b6040518082815260200191505060405180910390f35b6105656004803603602081101561052e57600080fd5b8101908080357dffffffffffffffffffffffffffffffffffffffffffffffffffffffffffff19169060200190929190505050610d93565b005b6105aa6004803603602081101561057d57600080fd5b81019080803573ffffffffffffffffffffffffffffffffffffffff19169060200190929190505050610e04565b604051808215151515815260200191505060405180910390f35b610739600480360360608110156105da57600080fd5b8101908080357dffffffffffffffffffffffffffffffffffffffffffffffffffffffffffff191690602001909291908035906020019064010000000081111561062257600080fd5b82018360208201111561063457600080fd5b8035906020019184602083028401116401000000008311171561065657600080fd5b919080806020026020016040519081016040528093929190818152602001838360200280828437600081840152601f19601f820116905080830192505050505050509192919290803590602001906401000000008111156106b657600080fd5b8201836020820111156106c857600080fd5b803590602001918460208302840111640100000000831117156106ea57600080fd5b919080806020026020016040519081016040528093929190818152602001838360200280828437600081840152601f19601f820116905080830192505050505050509192919290505050610ef1565b005b6107b16004803603604081101561075157600080fd5b8101908080357dffffffffffffffffffffffffffffffffffffffffffffffffffffffffffff1916906020019092919080357bffffffffffffffffffffffffffffffffffffffffffffffffffffffff191690602001909291905050506110d1565b604051808215151515815260200191505060405180910390f35b610818600480360360208110156107e157600080fd5b8101908080357dffffffffffffffffffffffffffffffffffffffffffffffffffffffffffff19169060200190929190505050611254565b005b60026020528060005260406000206000915054906101000a900460ff1681565b600080825111610895576040517f08c379a00000000000000000000000000000000000000000000000000000000081526004018080602001828103825260238152602001806116016023913960400191505060405180910390fd5b60008090505b825181101561096f57600060e01b7bffffffffffffffffffffffffffffffffffffffffffffffffffffffff19166000806108d58685611510565b7effffffffffffffffffffffffffffffffffffffffffffffffffffffffffffff19167effffffffffffffffffffffffffffffffffffffffffffffffffffffffffffff1916815260200190815260200160002060009054906101000a900460e01b7bffffffffffffffffffffffffffffffffffffffffffffffffffffffff19161415610964576000915050610975565b60018101905061089b565b50600190505b919050565b60026000827dffffffffffffffffffffffffffffffffffffffffffffffffffffffffffff19167dffffffffffffffffffffffffffffffffffffffffffffffffffffffffffff1916815260200190815260200160002060009054906101000a900460ff1615610a50576040517f08c379a00000000000000000000000000000000000000000000000000000000081526004018080602001828103825260178152602001807f636f756e74727920616c726561647920656e61626c656400000000000000000081525060200191505060405180910390fd5b600160026000837dffffffffffffffffffffffffffffffffffffffffffffffffffffffffffff19167dffffffffffffffffffffffffffffffffffffffffffffffffffffffffffff1916815260200190815260200160002060006101000a81548160ff021916908315150217905550600481908060018154018082558091505090600182039060005260206000209060109182820401919006600202909192909190916101000a81548161ffff021916908360f01c021790555050807dffffffffffffffffffffffffffffffffffffffffffffffffffffffffffff19167f8e0967533cd3a78b3f8cbe41a8355c9a41846dfcb571b787fb7380459905e5ba60405160405180910390a250565b60036020528060005260406000206000915054906101000a900460ff1681565b60048181548110610b8857fe5b9060005260206000209060109182820401919006600202915054906101000a900460f01b81565b60056020528160005260406000206020528060005260406000206000915091509054906101000a900460e01b81565b60036000847dffffffffffffffffffffffffffffffffffffffffffffffffffffffffffff19167dffffffffffffffffffffffffffffffffffffffffffffffffffffffffffff1916815260200190815260200160002060009054906101000a900460ff1615610cb4576040517f08c379a000000000000000000000000000000000000000000000000000000000815260040180806020018281038252601a8152602001807f636f756e747279206d757374206e6f742062652066696c6c656400000000000081525060200191505060405180910390fd5b8060056000857dffffffffffffffffffffffffffffffffffffffffffffffffffffffffffff19167dffffffffffffffffffffffffffffffffffffffffffffffffffffffffffff191681526020019081526020016000206000847cffffffffffffffffffffffffffffffffffffffffffffffffffffffffff19167cffffffffffffffffffffffffffffffffffffffffffffffffffffffffff1916815260200190815260200160002060006101000a81548163ffffffff021916908360e01c0217905550505050565b60016020528060005260406000206000915090505481565b600160036000837dffffffffffffffffffffffffffffffffffffffffffffffffffffffffffff19167dffffffffffffffffffffffffffffffffffffffffffffffffffffffffffff1916815260200190815260200160002060006101000a81548160ff02191690831515021790555050565b600080600090505b600c811015610ee657600060e01b7bffffffffffffffffffffffffffffffffffffffffffffffffffffffff19166000808584600c8110610e4857fe5b1a60f81b7effffffffffffffffffffffffffffffffffffffffffffffffffffffffffffff19167effffffffffffffffffffffffffffffffffffffffffffffffffffffffffffff1916815260200190815260200160002060009054906101000a900460e01b7bffffffffffffffffffffffffffffffffffffffffffffffffffffffff19161415610edb576000915050610eec565b600181019050610e0c565b50600190505b919050565b60036000847dffffffffffffffffffffffffffffffffffffffffffffffffffffffffffff19167dffffffffffffffffffffffffffffffffffffffffffffffffffffffffffff1916815260200190815260200160002060009054906101000a900460ff1615610fc7576040517f08c379a000000000000000000000000000000000000000000000000000000000815260040180806020018281038252601a8152602001807f636f756e747279206d757374206e6f742062652066696c6c656400000000000081525060200191505060405180910390fd5b60008090505b82518110156110cb57818181518110610fe257fe5b602002602001015160056000867dffffffffffffffffffffffffffffffffffffffffffffffffffffffffffff19167dffffffffffffffffffffffffffffffffffffffffffffffffffffffffffff19168152602001908152602001600020600085848151811061104d57fe5b60200260200101517cffffffffffffffffffffffffffffffffffffffffffffffffffffffffff19167cffffffffffffffffffffffffffffffffffffffffffffffffffffffffff1916815260200190815260200160002060006101000a81548163ffffffff021916908360e01c02179055508080600101915050610fcd565b50505050565b600080829050600060056000867dffffffffffffffffffffffffffffffffffffffffffffffffffffffffffff19167dffffffffffffffffffffffffffffffffffffffffffffffffffffffffffff191681526020019081526020016000206000837cffffffffffffffffffffffffffffffffffffffffffffffffffffffffff19167cffffffffffffffffffffffffffffffffffffffffffffffffffffffffff1916815260200190815260200160002060009054906101000a900460e01b905060008460036004811061119e57fe5b1a60f81b90506000806000837effffffffffffffffffffffffffffffffffffffffffffffffffffffffffffff19167effffffffffffffffffffffffffffffffffffffffffffffffffffffffffffff1916815260200190815260200160002060009054906101000a900460e01b9050600060e01b8184167bffffffffffffffffffffffffffffffffffffffffffffffffffffffff19161461124557600194505050505061124e565b60009450505050505b92915050565b60026000827dffffffffffffffffffffffffffffffffffffffffffffffffffffffffffff19167dffffffffffffffffffffffffffffffffffffffffffffffffffffffffffff1916815260200190815260200160002060009054906101000a900460ff16611329576040517f08c379a00000000000000000000000000000000000000000000000000000000081526004018080602001828103825260188152602001807f636f756e74727920616c72656164792064697361626c6564000000000000000081525060200191505060405180910390fd5b600060026000837dffffffffffffffffffffffffffffffffffffffffffffffffffffffffffff19167dffffffffffffffffffffffffffffffffffffffffffffffffffffffffffff1916815260200190815260200160002060006101000a81548160ff02191690831515021790555060008090505b6004805490508110156114be57817dffffffffffffffffffffffffffffffffffffffffffffffffffffffffffff1916600482815481106113d957fe5b90600052602060002090601091828204019190066002029054906101000a900460f01b7dffffffffffffffffffffffffffffffffffffffffffffffffffffffffffff191614156114b15760046001600480549050038154811061143857fe5b90600052602060002090601091828204019190066002029054906101000a900460f01b6004828154811061146857fe5b90600052602060002090601091828204019190066002026101000a81548161ffff021916908360f01c021790555060048054809190600190036114ab91906115a1565b506114be565b808060010191505061139d565b50807dffffffffffffffffffffffffffffffffffffffffffffffffffffffffffff19167fc2cca0a5f1c2e809f2ff6aab657dd9c7ee136c937ff229ce11ced8720862761e60405160405180910390a250565b6000600182018351101561158c576040517f08c379a00000000000000000000000000000000000000000000000000000000081526004018080602001828103825260108152602001807f206e6f74206c6f6e6720656e6f7567680000000000000000000000000000000081525060200191505060405180910390fd5b60008260208501015190508091505092915050565b8154818355818111156115d657600f016010900481600f016010900483600052602060002091820191016115d591906115db565b5b505050565b6115fd91905b808211156115f95760008160009055506001016115e1565b5090565b9056fe5f62797465732067656f6861736820636861727320697320656d707479206172726179a265627a7a72305820080975b127fc76a9b0fbb4e1e4d1aaace6dd4c49be498fc87fd65f1cc074976364736f6c634300050a0032",
  "source": "pragma solidity ^0.5.10;\n\ncontract GeoRegistry {\n\n  // ------------------------------------------------\n  //\n  // Variables Private\n  //\n  // ------------------------------------------------\n\n  // set once in constructor()\n  //      geohashChar bitmask\n  mapping(bytes1 => bytes4) private charToBitmask;\n  //\n  // mapping(bytes2 => bool) private validGeohashChars;\n\n  // ------------------------------------------------\n  //\n  // Variables Public\n  //\n  // ------------------------------------------------\n\n\n  //      countryCode licensePriceUSD\n  mapping(bytes2 => uint) public shopLicensePrice;\n\n  //      countryCode isEnabled\n  mapping(bytes2 => bool) public countryIsEnabled;\n  mapping(bytes2 => bool) public countryIsFilled;\n\n  bytes2[] public enabledCountries;\n\n  //      countryCode       geohashFirst3 bitmaskLevel4\n  mapping(bytes2 => mapping(bytes3 => bytes4)) public level_2;\n\n  // ------------------------------------------------\n  //\n  // Events\n  //\n  // ------------------------------------------------\n\n  event GeoRegistryCountryEnabled(bytes2 indexed country);\n  event GeoRegistryCountryDisabled(bytes2 indexed country);\n\n  // ------------------------------------------------\n  //\n  // Constructor\n  //\n  // ------------------------------------------------\n\n  constructor()\n    public\n  {\n\n    // TODO: improve below code? https://medium.com/@imolfar/bitwise-operations-and-bit-manipulation-in-solidity-ethereum-1751f3d2e216\n    charToBitmask[bytes1(\"v\")] = hex\"80000000\"; // 2147483648\n    charToBitmask[bytes1(\"y\")] = hex\"40000000\"; // 1073741824\n    charToBitmask[bytes1(\"z\")] = hex\"20000000\"; // 536870912\n    charToBitmask[bytes1(\"b\")] = hex\"10000000\"; // 268435456\n    charToBitmask[bytes1(\"c\")] = hex\"08000000\"; // 134217728\n    charToBitmask[bytes1(\"f\")] = hex\"04000000\"; // 67108864\n    charToBitmask[bytes1(\"g\")] = hex\"02000000\"; // 33554432\n    charToBitmask[bytes1(\"u\")] = hex\"01000000\"; // 16777216\n    charToBitmask[bytes1(\"t\")] = hex\"00800000\"; // 8388608\n    charToBitmask[bytes1(\"w\")] = hex\"00400000\"; // 4194304\n    charToBitmask[bytes1(\"x\")] = hex\"00200000\"; // 2097152\n    charToBitmask[bytes1(\"8\")] = hex\"00100000\"; // 1048576\n    charToBitmask[bytes1(\"9\")] = hex\"00080000\"; // 524288\n    charToBitmask[bytes1(\"d\")] = hex\"00040000\"; // 262144\n    charToBitmask[bytes1(\"e\")] = hex\"00020000\"; // 131072\n    charToBitmask[bytes1(\"s\")] = hex\"00010000\"; // 65536\n    charToBitmask[bytes1(\"m\")] = hex\"00008000\"; // 32768\n    charToBitmask[bytes1(\"q\")] = hex\"00004000\"; // 16384\n    charToBitmask[bytes1(\"r\")] = hex\"00002000\"; // 8192\n    charToBitmask[bytes1(\"2\")] = hex\"00001000\"; // 4096\n    charToBitmask[bytes1(\"3\")] = hex\"00000800\"; // 2048\n    charToBitmask[bytes1(\"6\")] = hex\"00000400\"; // 1024\n    charToBitmask[bytes1(\"7\")] = hex\"00000200\"; // 512\n    charToBitmask[bytes1(\"k\")] = hex\"00000100\"; // 256\n    charToBitmask[bytes1(\"j\")] = hex\"00000080\"; // 128\n    charToBitmask[bytes1(\"n\")] = hex\"00000040\"; // 64\n    charToBitmask[bytes1(\"p\")] = hex\"00000020\"; // 32\n    charToBitmask[bytes1(\"0\")] = hex\"00000010\"; // 16\n    charToBitmask[bytes1(\"1\")] = hex\"00000008\"; // 8\n    charToBitmask[bytes1(\"4\")] = hex\"00000004\"; // 4\n    charToBitmask[bytes1(\"5\")] = hex\"00000002\"; // 2\n    charToBitmask[bytes1(\"h\")] = hex\"00000001\"; // 1\n  }\n\n  // ------------------------------------------------\n  //\n  // Functions Private Getters\n  //\n  // ------------------------------------------------\n\n  function toBytes1(bytes memory _bytes, uint _start)\n    private\n    pure\n    returns (bytes1)\n  {\n    require(_bytes.length >= (_start + 1), \" not long enough\");\n    bytes1 tempBytes1;\n\n    assembly {\n        tempBytes1 := mload(add(add(_bytes, 0x20), _start))\n    }\n\n    return tempBytes1;\n  }\n\n  function toBytes3(bytes memory _bytes, uint _start)\n    private\n    pure\n    returns (bytes3)\n  {\n    require(_bytes.length >= (_start + 3), \" not long enough\");\n    bytes3 tempBytes3;\n\n    assembly {\n        tempBytes3 := mload(add(add(_bytes, 0x20), _start))\n    }\n\n    return tempBytes3;\n  }\n\n  // ------------------------------------------------\n  //\n  // Functions Public Getters\n  //\n  // ------------------------------------------------\n\n  function validGeohashChars(bytes memory _bytes)\n    public\n    view\n    returns (bool)\n  {\n    require(_bytes.length > 0, \"_bytes geohash chars is empty array\");\n\n    for (uint i = 0; i < _bytes.length; i += 1) {\n      // find the first occurence of a byte which is not valid geohash character\n      if (charToBitmask[toBytes1(_bytes, i)] == bytes4(0)) {\n        return false;\n      }\n    }\n    return true;\n  }\n  function validGeohashChars12(bytes12 _bytes)\n    public\n    view\n    returns (bool)\n  {\n    for (uint i = 0; i < 12; i += 1) {\n      // find the first occurence of a byte which is not valid geohash character\n      if (charToBitmask[bytes1(_bytes[i])] == bytes4(0)) {\n        return false;\n      }\n    }\n    return true;\n  }\n\n  // @NOTE: _zone can be any length of bytes\n  function zoneInsideCountry(bytes2 _countryCode, bytes4 _zone)\n    public\n    view\n    returns (bool)\n  {\n    bytes3 level2key = bytes3(_zone);\n    bytes4 level3bits = level_2[_countryCode][level2key];\n\n    bytes1 fourthByte = bytes1(_zone[3]);\n    bytes4 fourthByteBitPosMask = charToBitmask[fourthByte];\n\n    if (level3bits & fourthByteBitPosMask != 0) {\n      return true;\n    } else {\n      return false;\n    }\n  }\n\n  // ------------------------------------------------\n  //\n  // Functions Setters Public\n  //\n  // ------------------------------------------------\n  function updateLevel2(bytes2 _countryCode, bytes3 _letter, bytes4 _subLetters)\n    public\n  {\n    require(!countryIsFilled[_countryCode], \"country must not be filled\");\n    level_2[_countryCode][_letter] = _subLetters;\n  }\n  function updateLevel2batch(bytes2 _countryCode, bytes3[] memory _letters, bytes4[] memory _subLetters)\n    public\n  {\n    require(!countryIsFilled[_countryCode], \"country must not be filled\");\n    for (uint i = 0; i < _letters.length; i++) {\n      level_2[_countryCode][_letters[i]] = _subLetters[i];\n    }\n  }\n  function endInit(bytes2 _countryCode)\n    external\n  {\n    countryIsFilled[_countryCode] = true;\n  }\n  function enableCountry(bytes2 _country)\n    external\n  {\n    require(!countryIsEnabled[_country], \"country already enabled\");\n\n    countryIsEnabled[_country] = true;\n    enabledCountries.push(_country);\n\n    emit GeoRegistryCountryEnabled(_country);\n  }\n\n  function disableCountry(bytes2 _country)\n    external\n  {\n    require(countryIsEnabled[_country], \"country already disabled\");\n\n    countryIsEnabled[_country] = false;\n\n    for (uint i = 0; i < enabledCountries.length; i++) {\n      if (enabledCountries[i] == _country) {\n        // replace the to-be-deleted country with the last country in the list\n        enabledCountries[i] = enabledCountries[enabledCountries.length - 1];\n        enabledCountries.length--;\n        break;\n      }\n    }\n\n    emit GeoRegistryCountryDisabled(_country);\n  }\n}\n",
  "sourcePath": "/Users/mehdi/code/dether/contractV2/contracts/map/GeoRegistry.sol",
  "compiler": {
    "name": "solc",
    "version": "0.5.10+commit.5a6ea5b1.Emscripten.clang"
  },
  "schemaVersion": "3.0.11",
  "updatedAt": "2019-07-05T13:10:44.107Z",
  "devdoc": {
    "methods": {}
  },
  "userdoc": {
    "methods": {}
  }
}