{
  "contractName": "GeoRegistry",
  "abi": [
    {
      "constant": true,
      "inputs": [
        {
          "name": "",
          "type": "bytes2"
        }
      ],
      "name": "zoneIsFilled",
      "outputs": [
        {
          "name": "",
          "type": "bool"
        }
      ],
      "payable": false,
      "stateMutability": "view",
      "type": "function"
    },
    {
      "constant": true,
      "inputs": [
        {
          "name": "",
          "type": "bytes2"
        },
        {
          "name": "",
          "type": "bytes3"
        }
      ],
      "name": "level_2",
      "outputs": [
        {
          "name": "",
          "type": "bytes4"
        }
      ],
      "payable": false,
      "stateMutability": "view",
      "type": "function"
    },
    {
      "constant": true,
      "inputs": [
        {
          "name": "",
          "type": "bytes2"
        }
      ],
      "name": "zoneIsEnabled",
      "outputs": [
        {
          "name": "",
          "type": "bool"
        }
      ],
      "payable": false,
      "stateMutability": "view",
      "type": "function"
    },
    {
      "constant": true,
      "inputs": [
        {
          "name": "",
          "type": "uint256"
        }
      ],
      "name": "enabledZone",
      "outputs": [
        {
          "name": "",
          "type": "bytes2"
        }
      ],
      "payable": false,
      "stateMutability": "view",
      "type": "function"
    },
    {
      "inputs": [],
      "payable": false,
      "stateMutability": "nonpayable",
      "type": "constructor"
    },
    {
      "constant": true,
      "inputs": [
        {
          "name": "_bytes",
          "type": "bytes"
        }
      ],
      "name": "validGeohashChars",
      "outputs": [
        {
          "name": "",
          "type": "bool"
        }
      ],
      "payable": false,
      "stateMutability": "view",
      "type": "function"
    },
    {
      "constant": true,
      "inputs": [
        {
          "name": "_bytes",
          "type": "bytes12"
        }
      ],
      "name": "validGeohashChars12",
      "outputs": [
        {
          "name": "",
          "type": "bool"
        }
      ],
      "payable": false,
      "stateMutability": "view",
      "type": "function"
    },
    {
      "constant": true,
      "inputs": [
        {
          "name": "_zoneCode",
          "type": "bytes2"
        },
        {
          "name": "_zone",
          "type": "bytes4"
        }
      ],
      "name": "zoneInsideBiggerZone",
      "outputs": [
        {
          "name": "",
          "type": "bool"
        }
      ],
      "payable": false,
      "stateMutability": "view",
      "type": "function"
    },
    {
      "constant": false,
      "inputs": [
        {
          "name": "_zoneCode",
          "type": "bytes2"
        },
        {
          "name": "_letter",
          "type": "bytes3"
        },
        {
          "name": "_subLetters",
          "type": "bytes4"
        }
      ],
      "name": "updateLevel2",
      "outputs": [],
      "payable": false,
      "stateMutability": "nonpayable",
      "type": "function"
    },
    {
      "constant": false,
      "inputs": [
        {
          "name": "_zoneCode",
          "type": "bytes2"
        },
        {
          "name": "_letters",
          "type": "bytes3[]"
        },
        {
          "name": "_subLetters",
          "type": "bytes4[]"
        }
      ],
      "name": "updateLevel2batch",
      "outputs": [],
      "payable": false,
      "stateMutability": "nonpayable",
      "type": "function"
    },
    {
      "constant": false,
      "inputs": [
        {
          "name": "_zoneCode",
          "type": "bytes2"
        }
      ],
      "name": "endInit",
      "outputs": [],
      "payable": false,
      "stateMutability": "nonpayable",
      "type": "function"
    }
  ],
  "bytecode": "0x608060405234801561001057600080fd5b507f80000000000000000000000000000000000000000000000000000000000000006000807f76000000000000000000000000000000000000000000000000000000000000007effffffffffffffffffffffffffffffffffffffffffffffffffffffffffffff19167effffffffffffffffffffffffffffffffffffffffffffffffffffffffffffff1916815260200190815260200160002060006101000a81548163ffffffff021916908360e01c02179055507f40000000000000000000000000000000000000000000000000000000000000006000807f79000000000000000000000000000000000000000000000000000000000000007effffffffffffffffffffffffffffffffffffffffffffffffffffffffffffff19167effffffffffffffffffffffffffffffffffffffffffffffffffffffffffffff1916815260200190815260200160002060006101000a81548163ffffffff021916908360e01c02179055507f20000000000000000000000000000000000000000000000000000000000000006000807f7a000000000000000000000000000000000000000000000000000000000000007effffffffffffffffffffffffffffffffffffffffffffffffffffffffffffff19167effffffffffffffffffffffffffffffffffffffffffffffffffffffffffffff1916815260200190815260200160002060006101000a81548163ffffffff021916908360e01c02179055507f10000000000000000000000000000000000000000000000000000000000000006000807f62000000000000000000000000000000000000000000000000000000000000007effffffffffffffffffffffffffffffffffffffffffffffffffffffffffffff19167effffffffffffffffffffffffffffffffffffffffffffffffffffffffffffff1916815260200190815260200160002060006101000a81548163ffffffff021916908360e01c02179055507f08000000000000000000000000000000000000000000000000000000000000006000807f63000000000000000000000000000000000000000000000000000000000000007effffffffffffffffffffffffffffffffffffffffffffffffffffffffffffff19167effffffffffffffffffffffffffffffffffffffffffffffffffffffffffffff1916815260200190815260200160002060006101000a81548163ffffffff021916908360e01c02179055507f04000000000000000000000000000000000000000000000000000000000000006000807f66000000000000000000000000000000000000000000000000000000000000007effffffffffffffffffffffffffffffffffffffffffffffffffffffffffffff19167effffffffffffffffffffffffffffffffffffffffffffffffffffffffffffff1916815260200190815260200160002060006101000a81548163ffffffff021916908360e01c02179055507f02000000000000000000000000000000000000000000000000000000000000006000807f67000000000000000000000000000000000000000000000000000000000000007effffffffffffffffffffffffffffffffffffffffffffffffffffffffffffff19167effffffffffffffffffffffffffffffffffffffffffffffffffffffffffffff1916815260200190815260200160002060006101000a81548163ffffffff021916908360e01c02179055507f01000000000000000000000000000000000000000000000000000000000000006000807f75000000000000000000000000000000000000000000000000000000000000007effffffffffffffffffffffffffffffffffffffffffffffffffffffffffffff19167effffffffffffffffffffffffffffffffffffffffffffffffffffffffffffff1916815260200190815260200160002060006101000a81548163ffffffff021916908360e01c02179055507e800000000000000000000000000000000000000000000000000000000000006000807f74000000000000000000000000000000000000000000000000000000000000007effffffffffffffffffffffffffffffffffffffffffffffffffffffffffffff19167effffffffffffffffffffffffffffffffffffffffffffffffffffffffffffff1916815260200190815260200160002060006101000a81548163ffffffff021916908360e01c02179055507e400000000000000000000000000000000000000000000000000000000000006000807f77000000000000000000000000000000000000000000000000000000000000007effffffffffffffffffffffffffffffffffffffffffffffffffffffffffffff19167effffffffffffffffffffffffffffffffffffffffffffffffffffffffffffff1916815260200190815260200160002060006101000a81548163ffffffff021916908360e01c02179055507e200000000000000000000000000000000000000000000000000000000000006000807f78000000000000000000000000000000000000000000000000000000000000007effffffffffffffffffffffffffffffffffffffffffffffffffffffffffffff19167effffffffffffffffffffffffffffffffffffffffffffffffffffffffffffff1916815260200190815260200160002060006101000a81548163ffffffff021916908360e01c02179055507e100000000000000000000000000000000000000000000000000000000000006000807f38000000000000000000000000000000000000000000000000000000000000007effffffffffffffffffffffffffffffffffffffffffffffffffffffffffffff19167effffffffffffffffffffffffffffffffffffffffffffffffffffffffffffff1916815260200190815260200160002060006101000a81548163ffffffff021916908360e01c02179055507e080000000000000000000000000000000000000000000000000000000000006000807f39000000000000000000000000000000000000000000000000000000000000007effffffffffffffffffffffffffffffffffffffffffffffffffffffffffffff19167effffffffffffffffffffffffffffffffffffffffffffffffffffffffffffff1916815260200190815260200160002060006101000a81548163ffffffff021916908360e01c02179055507e040000000000000000000000000000000000000000000000000000000000006000807f64000000000000000000000000000000000000000000000000000000000000007effffffffffffffffffffffffffffffffffffffffffffffffffffffffffffff19167effffffffffffffffffffffffffffffffffffffffffffffffffffffffffffff1916815260200190815260200160002060006101000a81548163ffffffff021916908360e01c02179055507e020000000000000000000000000000000000000000000000000000000000006000807f65000000000000000000000000000000000000000000000000000000000000007effffffffffffffffffffffffffffffffffffffffffffffffffffffffffffff19167effffffffffffffffffffffffffffffffffffffffffffffffffffffffffffff1916815260200190815260200160002060006101000a81548163ffffffff021916908360e01c02179055507e010000000000000000000000000000000000000000000000000000000000006000807f73000000000000000000000000000000000000000000000000000000000000007effffffffffffffffffffffffffffffffffffffffffffffffffffffffffffff19167effffffffffffffffffffffffffffffffffffffffffffffffffffffffffffff1916815260200190815260200160002060006101000a81548163ffffffff021916908360e01c02179055507d8000000000000000000000000000000000000000000000000000000000006000807f6d000000000000000000000000000000000000000000000000000000000000007effffffffffffffffffffffffffffffffffffffffffffffffffffffffffffff19167effffffffffffffffffffffffffffffffffffffffffffffffffffffffffffff1916815260200190815260200160002060006101000a81548163ffffffff021916908360e01c02179055507d4000000000000000000000000000000000000000000000000000000000006000807f71000000000000000000000000000000000000000000000000000000000000007effffffffffffffffffffffffffffffffffffffffffffffffffffffffffffff19167effffffffffffffffffffffffffffffffffffffffffffffffffffffffffffff1916815260200190815260200160002060006101000a81548163ffffffff021916908360e01c02179055507d2000000000000000000000000000000000000000000000000000000000006000807f72000000000000000000000000000000000000000000000000000000000000007effffffffffffffffffffffffffffffffffffffffffffffffffffffffffffff19167effffffffffffffffffffffffffffffffffffffffffffffffffffffffffffff1916815260200190815260200160002060006101000a81548163ffffffff021916908360e01c02179055507d1000000000000000000000000000000000000000000000000000000000006000807f32000000000000000000000000000000000000000000000000000000000000007effffffffffffffffffffffffffffffffffffffffffffffffffffffffffffff19167effffffffffffffffffffffffffffffffffffffffffffffffffffffffffffff1916815260200190815260200160002060006101000a81548163ffffffff021916908360e01c02179055507d0800000000000000000000000000000000000000000000000000000000006000807f33000000000000000000000000000000000000000000000000000000000000007effffffffffffffffffffffffffffffffffffffffffffffffffffffffffffff19167effffffffffffffffffffffffffffffffffffffffffffffffffffffffffffff1916815260200190815260200160002060006101000a81548163ffffffff021916908360e01c02179055507d0400000000000000000000000000000000000000000000000000000000006000807f36000000000000000000000000000000000000000000000000000000000000007effffffffffffffffffffffffffffffffffffffffffffffffffffffffffffff19167effffffffffffffffffffffffffffffffffffffffffffffffffffffffffffff1916815260200190815260200160002060006101000a81548163ffffffff021916908360e01c02179055507d0200000000000000000000000000000000000000000000000000000000006000807f37000000000000000000000000000000000000000000000000000000000000007effffffffffffffffffffffffffffffffffffffffffffffffffffffffffffff19167effffffffffffffffffffffffffffffffffffffffffffffffffffffffffffff1916815260200190815260200160002060006101000a81548163ffffffff021916908360e01c02179055507d0100000000000000000000000000000000000000000000000000000000006000807f6b000000000000000000000000000000000000000000000000000000000000007effffffffffffffffffffffffffffffffffffffffffffffffffffffffffffff19167effffffffffffffffffffffffffffffffffffffffffffffffffffffffffffff1916815260200190815260200160002060006101000a81548163ffffffff021916908360e01c02179055507c80000000000000000000000000000000000000000000000000000000006000807f6a000000000000000000000000000000000000000000000000000000000000007effffffffffffffffffffffffffffffffffffffffffffffffffffffffffffff19167effffffffffffffffffffffffffffffffffffffffffffffffffffffffffffff1916815260200190815260200160002060006101000a81548163ffffffff021916908360e01c02179055507c40000000000000000000000000000000000000000000000000000000006000807f6e000000000000000000000000000000000000000000000000000000000000007effffffffffffffffffffffffffffffffffffffffffffffffffffffffffffff19167effffffffffffffffffffffffffffffffffffffffffffffffffffffffffffff1916815260200190815260200160002060006101000a81548163ffffffff021916908360e01c02179055507c20000000000000000000000000000000000000000000000000000000006000807f70000000000000000000000000000000000000000000000000000000000000007effffffffffffffffffffffffffffffffffffffffffffffffffffffffffffff19167effffffffffffffffffffffffffffffffffffffffffffffffffffffffffffff1916815260200190815260200160002060006101000a81548163ffffffff021916908360e01c02179055507c10000000000000000000000000000000000000000000000000000000006000807f30000000000000000000000000000000000000000000000000000000000000007effffffffffffffffffffffffffffffffffffffffffffffffffffffffffffff19167effffffffffffffffffffffffffffffffffffffffffffffffffffffffffffff1916815260200190815260200160002060006101000a81548163ffffffff021916908360e01c02179055507c08000000000000000000000000000000000000000000000000000000006000807f31000000000000000000000000000000000000000000000000000000000000007effffffffffffffffffffffffffffffffffffffffffffffffffffffffffffff19167effffffffffffffffffffffffffffffffffffffffffffffffffffffffffffff1916815260200190815260200160002060006101000a81548163ffffffff021916908360e01c02179055507c04000000000000000000000000000000000000000000000000000000006000807f34000000000000000000000000000000000000000000000000000000000000007effffffffffffffffffffffffffffffffffffffffffffffffffffffffffffff19167effffffffffffffffffffffffffffffffffffffffffffffffffffffffffffff1916815260200190815260200160002060006101000a81548163ffffffff021916908360e01c02179055507c02000000000000000000000000000000000000000000000000000000006000807f35000000000000000000000000000000000000000000000000000000000000007effffffffffffffffffffffffffffffffffffffffffffffffffffffffffffff19167effffffffffffffffffffffffffffffffffffffffffffffffffffffffffffff1916815260200190815260200160002060006101000a81548163ffffffff021916908360e01c02179055507c01000000000000000000000000000000000000000000000000000000006000807f68000000000000000000000000000000000000000000000000000000000000007effffffffffffffffffffffffffffffffffffffffffffffffffffffffffffff19167effffffffffffffffffffffffffffffffffffffffffffffffffffffffffffff1916815260200190815260200160002060006101000a81548163ffffffff021916908360e01c02179055506111a1806116306000396000f3fe608060405234801561001057600080fd5b506004361061009e5760003560e01c8063923ae12b11610066578063923ae12b146103da578063a9879ecf14610441578063bf922fe214610490578063cd05115c146104ed578063f9e89dda146106645761009e565b80631d0a4831146100a35780632aaec37b1461017657806357fe0cd914610206578063694a53d71461026d57806381b0bb9c14610338575b600080fd5b61015c600480360360208110156100b957600080fd5b81019080803590602001906401000000008111156100d657600080fd5b8201836020820111156100e857600080fd5b8035906020019184600183028401116401000000008311171561010a57600080fd5b91908080601f016020809104026020016040519081016040528093929190818152602001838380828437600081840152601f19601f8201169050808301925050505050505091929192905050506106e8565b604051808215151515815260200191505060405180910390f35b6101ec6004803603604081101561018c57600080fd5b8101908080357dffffffffffffffffffffffffffffffffffffffffffffffffffffffffffff1916906020019092919080357bffffffffffffffffffffffffffffffffffffffffffffffffffffffff19169060200190929190505050610828565b604051808215151515815260200191505060405180910390f35b6102536004803603602081101561021c57600080fd5b8101908080357dffffffffffffffffffffffffffffffffffffffffffffffffffffffffffff191690602001909291905050506109ab565b604051808215151515815260200191505060405180910390f35b6102e46004803603604081101561028357600080fd5b8101908080357dffffffffffffffffffffffffffffffffffffffffffffffffffffffffffff1916906020019092919080357cffffffffffffffffffffffffffffffffffffffffffffffffffffffffff191690602001909291905050506109cb565b60405180827bffffffffffffffffffffffffffffffffffffffffffffffffffffffff19167bffffffffffffffffffffffffffffffffffffffffffffffffffffffff1916815260200191505060405180910390f35b6103d86004803603606081101561034e57600080fd5b8101908080357dffffffffffffffffffffffffffffffffffffffffffffffffffffffffffff1916906020019092919080357cffffffffffffffffffffffffffffffffffffffffffffffffffffffffff1916906020019092919080357bffffffffffffffffffffffffffffffffffffffffffffffffffffffff191690602001909291905050506109fa565b005b610427600480360360208110156103f057600080fd5b8101908080357dffffffffffffffffffffffffffffffffffffffffffffffffffffffffffff19169060200190929190505050610b97565b604051808215151515815260200191505060405180910390f35b61048e6004803603602081101561045757600080fd5b8101908080357dffffffffffffffffffffffffffffffffffffffffffffffffffffffffffff19169060200190929190505050610bb7565b005b6104d3600480360360208110156104a657600080fd5b81019080803573ffffffffffffffffffffffffffffffffffffffff19169060200190929190505050610db7565b604051808215151515815260200191505060405180910390f35b6106626004803603606081101561050357600080fd5b8101908080357dffffffffffffffffffffffffffffffffffffffffffffffffffffffffffff191690602001909291908035906020019064010000000081111561054b57600080fd5b82018360208201111561055d57600080fd5b8035906020019184602083028401116401000000008311171561057f57600080fd5b919080806020026020016040519081016040528093929190818152602001838360200280828437600081840152601f19601f820116905080830192505050505050509192919290803590602001906401000000008111156105df57600080fd5b8201836020820111156105f157600080fd5b8035906020019184602083028401116401000000008311171561061357600080fd5b919080806020026020016040519081016040528093929190818152602001838360200280828437600081840152601f19601f820116905080830192505050505050509192919290505050610ea4565b005b6106906004803603602081101561067a57600080fd5b8101908080359060200190929190505050611084565b60405180827dffffffffffffffffffffffffffffffffffffffffffffffffffffffffffff19167dffffffffffffffffffffffffffffffffffffffffffffffffffffffffffff1916815260200191505060405180910390f35b600080825111610743576040517f08c379a000000000000000000000000000000000000000000000000000000000815260040180806020018281038252602381526020018061114a6023913960400191505060405180910390fd5b60008090505b825181101561081d57600060e01b7bffffffffffffffffffffffffffffffffffffffffffffffffffffffff191660008061078386856110b8565b7effffffffffffffffffffffffffffffffffffffffffffffffffffffffffffff19167effffffffffffffffffffffffffffffffffffffffffffffffffffffffffffff1916815260200190815260200160002060009054906101000a900460e01b7bffffffffffffffffffffffffffffffffffffffffffffffffffffffff19161415610812576000915050610823565b600181019050610749565b50600190505b919050565b600080829050600060046000867dffffffffffffffffffffffffffffffffffffffffffffffffffffffffffff19167dffffffffffffffffffffffffffffffffffffffffffffffffffffffffffff191681526020019081526020016000206000837cffffffffffffffffffffffffffffffffffffffffffffffffffffffffff19167cffffffffffffffffffffffffffffffffffffffffffffffffffffffffff1916815260200190815260200160002060009054906101000a900460e01b90506000846003600481106108f557fe5b1a60f81b90506000806000837effffffffffffffffffffffffffffffffffffffffffffffffffffffffffffff19167effffffffffffffffffffffffffffffffffffffffffffffffffffffffffffff1916815260200190815260200160002060009054906101000a900460e01b9050600060e01b8184167bffffffffffffffffffffffffffffffffffffffffffffffffffffffff19161461099c5760019450505050506109a5565b60009450505050505b92915050565b60026020528060005260406000206000915054906101000a900460ff1681565b60046020528160005260406000206020528060005260406000206000915091509054906101000a900460e01b81565b60026000847dffffffffffffffffffffffffffffffffffffffffffffffffffffffffffff19167dffffffffffffffffffffffffffffffffffffffffffffffffffffffffffff1916815260200190815260200160002060009054906101000a900460ff1615610ad0576040517f08c379a00000000000000000000000000000000000000000000000000000000081526004018080602001828103825260178152602001807f7a6f6e65206d757374206e6f742062652066696c6c656400000000000000000081525060200191505060405180910390fd5b8060046000857dffffffffffffffffffffffffffffffffffffffffffffffffffffffffffff19167dffffffffffffffffffffffffffffffffffffffffffffffffffffffffffff191681526020019081526020016000206000847cffffffffffffffffffffffffffffffffffffffffffffffffffffffffff19167cffffffffffffffffffffffffffffffffffffffffffffffffffffffffff1916815260200190815260200160002060006101000a81548163ffffffff021916908360e01c0217905550505050565b60016020528060005260406000206000915054906101000a900460ff1681565b60016000827dffffffffffffffffffffffffffffffffffffffffffffffffffffffffffff19167dffffffffffffffffffffffffffffffffffffffffffffffffffffffffffff1916815260200190815260200160002060009054906101000a900460ff1615610c8d576040517f08c379a00000000000000000000000000000000000000000000000000000000081526004018080602001828103825260148152602001807f7a6f6e6520616c726561647920656e61626c656400000000000000000000000081525060200191505060405180910390fd5b600160026000837dffffffffffffffffffffffffffffffffffffffffffffffffffffffffffff19167dffffffffffffffffffffffffffffffffffffffffffffffffffffffffffff1916815260200190815260200160002060006101000a81548160ff0219169083151502179055506001806000837dffffffffffffffffffffffffffffffffffffffffffffffffffffffffffff19167dffffffffffffffffffffffffffffffffffffffffffffffffffffffffffff1916815260200190815260200160002060006101000a81548160ff021916908315150217905550600381908060018154018082558091505090600182039060005260206000209060109182820401919006600202909192909190916101000a81548161ffff021916908360f01c02179055505050565b600080600090505b600c811015610e9957600060e01b7bffffffffffffffffffffffffffffffffffffffffffffffffffffffff19166000808584600c8110610dfb57fe5b1a60f81b7effffffffffffffffffffffffffffffffffffffffffffffffffffffffffffff19167effffffffffffffffffffffffffffffffffffffffffffffffffffffffffffff1916815260200190815260200160002060009054906101000a900460e01b7bffffffffffffffffffffffffffffffffffffffffffffffffffffffff19161415610e8e576000915050610e9f565b600181019050610dbf565b50600190505b919050565b60026000847dffffffffffffffffffffffffffffffffffffffffffffffffffffffffffff19167dffffffffffffffffffffffffffffffffffffffffffffffffffffffffffff1916815260200190815260200160002060009054906101000a900460ff1615610f7a576040517f08c379a00000000000000000000000000000000000000000000000000000000081526004018080602001828103825260178152602001807f7a6f6e65206d757374206e6f742062652066696c6c656400000000000000000081525060200191505060405180910390fd5b60008090505b825181101561107e57818181518110610f9557fe5b602002602001015160046000867dffffffffffffffffffffffffffffffffffffffffffffffffffffffffffff19167dffffffffffffffffffffffffffffffffffffffffffffffffffffffffffff19168152602001908152602001600020600085848151811061100057fe5b60200260200101517cffffffffffffffffffffffffffffffffffffffffffffffffffffffffff19167cffffffffffffffffffffffffffffffffffffffffffffffffffffffffff1916815260200190815260200160002060006101000a81548163ffffffff021916908360e01c02179055508080600101915050610f80565b50505050565b6003818154811061109157fe5b9060005260206000209060109182820401919006600202915054906101000a900460f01b81565b60006001820183511015611134576040517f08c379a00000000000000000000000000000000000000000000000000000000081526004018080602001828103825260108152602001807f206e6f74206c6f6e6720656e6f7567680000000000000000000000000000000081525060200191505060405180910390fd5b6000826020850101519050809150509291505056fe5f62797465732067656f6861736820636861727320697320656d707479206172726179a265627a7a7230582018fd752fd10cc0f28a8179bd5a89d80657132a7012b53d698cbb73236bdfe1bc64736f6c634300050a0032",
  "source": "pragma solidity ^0.5.10;\n\ncontract GeoRegistry {\n\n  // ------------------------------------------------\n  //\n  // Variables Private\n  //\n  // ------------------------------------------------\n\n  // set once in constructor()\n  //      geohashChar bitmask\n  mapping(bytes1 => bytes4) private charToBitmask;\n  //\n  // mapping(bytes2 => bool) private validGeohashChars;\n\n  // ------------------------------------------------\n  //\n  // Variables Public\n  //\n  // ------------------------------------------------\n\n  //      zoneCode isEnabled\n  mapping(bytes2 => bool) public zoneIsEnabled;\n  mapping(bytes2 => bool) public zoneIsFilled;\n\n  bytes2[] public enabledZone;\n\n  //      zoneCode       geohashFirst3 bitmaskLevel4\n  mapping(bytes2 => mapping(bytes3 => bytes4)) public level_2;\n\n  // ------------------------------------------------\n  //\n  // Events\n  //\n  // ------------------------------------------------\n\n\n  // ------------------------------------------------\n  //\n  // Constructor\n  //\n  // ------------------------------------------------\n\n  constructor()\n    public\n  {\n\n    // TODO: improve below code? https://medium.com/@imolfar/bitwise-operations-and-bit-manipulation-in-solidity-ethereum-1751f3d2e216\n    charToBitmask[bytes1(\"v\")] = hex\"80000000\"; // 2147483648\n    charToBitmask[bytes1(\"y\")] = hex\"40000000\"; // 1073741824\n    charToBitmask[bytes1(\"z\")] = hex\"20000000\"; // 536870912\n    charToBitmask[bytes1(\"b\")] = hex\"10000000\"; // 268435456\n    charToBitmask[bytes1(\"c\")] = hex\"08000000\"; // 134217728\n    charToBitmask[bytes1(\"f\")] = hex\"04000000\"; // 67108864\n    charToBitmask[bytes1(\"g\")] = hex\"02000000\"; // 33554432\n    charToBitmask[bytes1(\"u\")] = hex\"01000000\"; // 16777216\n    charToBitmask[bytes1(\"t\")] = hex\"00800000\"; // 8388608\n    charToBitmask[bytes1(\"w\")] = hex\"00400000\"; // 4194304\n    charToBitmask[bytes1(\"x\")] = hex\"00200000\"; // 2097152\n    charToBitmask[bytes1(\"8\")] = hex\"00100000\"; // 1048576\n    charToBitmask[bytes1(\"9\")] = hex\"00080000\"; // 524288\n    charToBitmask[bytes1(\"d\")] = hex\"00040000\"; // 262144\n    charToBitmask[bytes1(\"e\")] = hex\"00020000\"; // 131072\n    charToBitmask[bytes1(\"s\")] = hex\"00010000\"; // 65536\n    charToBitmask[bytes1(\"m\")] = hex\"00008000\"; // 32768\n    charToBitmask[bytes1(\"q\")] = hex\"00004000\"; // 16384\n    charToBitmask[bytes1(\"r\")] = hex\"00002000\"; // 8192\n    charToBitmask[bytes1(\"2\")] = hex\"00001000\"; // 4096\n    charToBitmask[bytes1(\"3\")] = hex\"00000800\"; // 2048\n    charToBitmask[bytes1(\"6\")] = hex\"00000400\"; // 1024\n    charToBitmask[bytes1(\"7\")] = hex\"00000200\"; // 512\n    charToBitmask[bytes1(\"k\")] = hex\"00000100\"; // 256\n    charToBitmask[bytes1(\"j\")] = hex\"00000080\"; // 128\n    charToBitmask[bytes1(\"n\")] = hex\"00000040\"; // 64\n    charToBitmask[bytes1(\"p\")] = hex\"00000020\"; // 32\n    charToBitmask[bytes1(\"0\")] = hex\"00000010\"; // 16\n    charToBitmask[bytes1(\"1\")] = hex\"00000008\"; // 8\n    charToBitmask[bytes1(\"4\")] = hex\"00000004\"; // 4\n    charToBitmask[bytes1(\"5\")] = hex\"00000002\"; // 2\n    charToBitmask[bytes1(\"h\")] = hex\"00000001\"; // 1\n  }\n\n  // ------------------------------------------------\n  //\n  // Functions Private Getters\n  //\n  // ------------------------------------------------\n\n  function toBytes1(bytes memory _bytes, uint _start)\n    private\n    pure\n    returns (bytes1)\n  {\n    require(_bytes.length >= (_start + 1), \" not long enough\");\n    bytes1 tempBytes1;\n\n    assembly {\n        tempBytes1 := mload(add(add(_bytes, 0x20), _start))\n    }\n\n    return tempBytes1;\n  }\n\n  function toBytes3(bytes memory _bytes, uint _start)\n    private\n    pure\n    returns (bytes3)\n  {\n    require(_bytes.length >= (_start + 3), \" not long enough\");\n    bytes3 tempBytes3;\n\n    assembly {\n        tempBytes3 := mload(add(add(_bytes, 0x20), _start))\n    }\n\n    return tempBytes3;\n  }\n\n  // ------------------------------------------------\n  //\n  // Functions Public Getters\n  //\n  // ------------------------------------------------\n\n  function validGeohashChars(bytes memory _bytes)\n    public\n    view\n    returns (bool)\n  {\n    require(_bytes.length > 0, \"_bytes geohash chars is empty array\");\n\n    for (uint i = 0; i < _bytes.length; i += 1) {\n      // find the first occurence of a byte which is not valid geohash character\n      if (charToBitmask[toBytes1(_bytes, i)] == bytes4(0)) {\n        return false;\n      }\n    }\n    return true;\n  }\n  function validGeohashChars12(bytes12 _bytes)\n    public\n    view\n    returns (bool)\n  {\n    for (uint i = 0; i < 12; i += 1) {\n      // find the first occurence of a byte which is not valid geohash character\n      if (charToBitmask[bytes1(_bytes[i])] == bytes4(0)) {\n        return false;\n      }\n    }\n    return true;\n  }\n\n  // @NOTE: _zone can be any length of bytes\n  function zoneInsideBiggerZone(bytes2 _zoneCode, bytes4 _zone)\n    public\n    view\n    returns (bool)\n  {\n    bytes3 level2key = bytes3(_zone);\n    bytes4 level3bits = level_2[_zoneCode][level2key];\n\n    bytes1 fourthByte = bytes1(_zone[3]);\n    bytes4 fourthByteBitPosMask = charToBitmask[fourthByte];\n\n    if (level3bits & fourthByteBitPosMask != 0) {\n      return true;\n    } else {\n      return false;\n    }\n  }\n\n  // ------------------------------------------------\n  //\n  // Functions Setters Public\n  //\n  // ------------------------------------------------\n  function updateLevel2(bytes2 _zoneCode, bytes3 _letter, bytes4 _subLetters)\n    public\n  {\n    require(!zoneIsFilled[_zoneCode], \"zone must not be filled\");\n    level_2[_zoneCode][_letter] = _subLetters;\n  }\n  function updateLevel2batch(bytes2 _zoneCode, bytes3[] memory _letters, bytes4[] memory _subLetters)\n    public\n  {\n    require(!zoneIsFilled[_zoneCode], \"zone must not be filled\");\n    for (uint i = 0; i < _letters.length; i++) {\n      level_2[_zoneCode][_letters[i]] = _subLetters[i];\n    }\n  }\n  function endInit(bytes2 _zoneCode)\n    external\n  {\n    require(!zoneIsEnabled[_zoneCode], \"zone already enabled\");\n    zoneIsFilled[_zoneCode] = true;\n    zoneIsEnabled[_zoneCode] = true;\n    enabledZone.push(_zoneCode);\n  }\n  // function enableCountry(bytes2 _country)\n  //   external\n  // {\n  //   require(!zoneIsEnabled[_country], \"country already enabled\");\n\n  //   zoneIsEnabled[_country] = true;\n  //   enabledCountries.push(_country);\n\n  //   emit GeoRegistryCountryEnabled(_country);\n  // }\n\n  // function disableCountry(bytes2 _country)\n  //   external\n  // {\n  //   require(zoneIsEnabled[_country], \"country already disabled\");\n\n  //   zoneIsEnabled[_country] = false;\n\n  //   for (uint i = 0; i < enabledCountries.length; i++) {\n  //     if (enabledCountries[i] == _country) {\n  //       // replace the to-be-deleted country with the last country in the list\n  //       enabledCountries[i] = enabledCountries[enabledCountries.length - 1];\n  //       enabledCountries.length--;\n  //       break;\n  //     }\n  //   }\n\n  //   emit GeoRegistryCountryDisabled(_country);\n  // }\n}\n",
  "sourcePath": "/Users/mehdi/code/dether/contractV2/contracts/core/GeoRegistry.sol",
  "compiler": {
    "name": "solc",
    "version": "0.5.10+commit.5a6ea5b1.Emscripten.clang"
  },
  "schemaVersion": "3.0.11",
  "updatedAt": "2019-07-14T00:32:09.062Z",
  "devdoc": {
    "methods": {}
  },
  "userdoc": {
    "methods": {}
  }
}