{
  "contractName": "Shops",
  "abi": [
    {
      "constant": true,
      "inputs": [],
      "name": "dth",
      "outputs": [
        {
          "name": "",
          "type": "address"
        }
      ],
      "payable": false,
      "stateMutability": "view",
      "type": "function"
    },
    {
      "constant": true,
      "inputs": [
        {
          "name": "",
          "type": "bytes6"
        }
      ],
      "name": "zoneLicencePrice",
      "outputs": [
        {
          "name": "",
          "type": "uint256"
        }
      ],
      "payable": false,
      "stateMutability": "view",
      "type": "function"
    },
    {
      "constant": true,
      "inputs": [
        {
          "name": "",
          "type": "address"
        }
      ],
      "name": "withdrawableDth",
      "outputs": [
        {
          "name": "",
          "type": "uint256"
        }
      ],
      "payable": false,
      "stateMutability": "view",
      "type": "function"
    },
    {
      "constant": true,
      "inputs": [],
      "name": "DAILY_TAX",
      "outputs": [
        {
          "name": "",
          "type": "uint256"
        }
      ],
      "payable": false,
      "stateMutability": "view",
      "type": "function"
    },
    {
      "constant": true,
      "inputs": [
        {
          "name": "",
          "type": "bytes12"
        }
      ],
      "name": "positionToShopAddress",
      "outputs": [
        {
          "name": "",
          "type": "address"
        }
      ],
      "payable": false,
      "stateMutability": "view",
      "type": "function"
    },
    {
      "constant": true,
      "inputs": [
        {
          "name": "",
          "type": "bytes6"
        },
        {
          "name": "",
          "type": "uint256"
        }
      ],
      "name": "zoneToShopAddresses",
      "outputs": [
        {
          "name": "",
          "type": "address"
        }
      ],
      "payable": false,
      "stateMutability": "view",
      "type": "function"
    },
    {
      "constant": true,
      "inputs": [],
      "name": "zoneFactory",
      "outputs": [
        {
          "name": "",
          "type": "address"
        }
      ],
      "payable": false,
      "stateMutability": "view",
      "type": "function"
    },
    {
      "constant": true,
      "inputs": [],
      "name": "disputeStarter",
      "outputs": [
        {
          "name": "",
          "type": "address"
        }
      ],
      "payable": false,
      "stateMutability": "view",
      "type": "function"
    },
    {
      "constant": true,
      "inputs": [],
      "name": "shopsDispute",
      "outputs": [
        {
          "name": "",
          "type": "address"
        }
      ],
      "payable": false,
      "stateMutability": "view",
      "type": "function"
    },
    {
      "constant": true,
      "inputs": [],
      "name": "geo",
      "outputs": [
        {
          "name": "",
          "type": "address"
        }
      ],
      "payable": false,
      "stateMutability": "view",
      "type": "function"
    },
    {
      "constant": true,
      "inputs": [],
      "name": "users",
      "outputs": [
        {
          "name": "",
          "type": "address"
        }
      ],
      "payable": false,
      "stateMutability": "view",
      "type": "function"
    },
    {
      "constant": true,
      "inputs": [],
      "name": "floorLicencePrice",
      "outputs": [
        {
          "name": "",
          "type": "uint256"
        }
      ],
      "payable": false,
      "stateMutability": "view",
      "type": "function"
    },
    {
      "inputs": [
        {
          "name": "_dth",
          "type": "address"
        },
        {
          "name": "_geo",
          "type": "address"
        },
        {
          "name": "_users",
          "type": "address"
        },
        {
          "name": "_zoneFactory",
          "type": "address"
        }
      ],
      "payable": false,
      "stateMutability": "nonpayable",
      "type": "constructor"
    },
    {
      "anonymous": false,
      "inputs": [
        {
          "indexed": false,
          "name": "_name",
          "type": "bytes16"
        },
        {
          "indexed": false,
          "name": "_staked",
          "type": "uint256"
        },
        {
          "indexed": false,
          "name": "_licencePrice",
          "type": "uint256"
        },
        {
          "indexed": false,
          "name": "_lastTaxTime",
          "type": "uint256"
        }
      ],
      "name": "logShopData",
      "type": "event"
    },
    {
      "anonymous": false,
      "inputs": [
        {
          "indexed": false,
          "name": "_uint",
          "type": "uint256"
        },
        {
          "indexed": false,
          "name": "_log",
          "type": "string"
        }
      ],
      "name": "logUint",
      "type": "event"
    },
    {
      "anonymous": false,
      "inputs": [
        {
          "indexed": false,
          "name": "_string",
          "type": "string"
        }
      ],
      "name": "logString",
      "type": "event"
    },
    {
      "anonymous": false,
      "inputs": [
        {
          "indexed": false,
          "name": "amount",
          "type": "uint256"
        },
        {
          "indexed": false,
          "name": "to",
          "type": "address"
        },
        {
          "indexed": false,
          "name": "by",
          "type": "address"
        }
      ],
      "name": "TaxPayedToBy",
      "type": "event"
    },
    {
      "anonymous": false,
      "inputs": [
        {
          "indexed": false,
          "name": "amount",
          "type": "uint256"
        },
        {
          "indexed": false,
          "name": "to",
          "type": "address"
        }
      ],
      "name": "TaxTotalPaidTo",
      "type": "event"
    },
    {
      "constant": false,
      "inputs": [
        {
          "name": "_shopsDispute",
          "type": "address"
        }
      ],
      "name": "setShopsDisputeContract",
      "outputs": [],
      "payable": false,
      "stateMutability": "nonpayable",
      "type": "function"
    },
    {
      "constant": false,
      "inputs": [],
      "name": "enableDispute",
      "outputs": [],
      "payable": false,
      "stateMutability": "nonpayable",
      "type": "function"
    },
    {
      "constant": true,
      "inputs": [
        {
          "name": "_addr",
          "type": "address"
        }
      ],
      "name": "getShopByAddr",
      "outputs": [
        {
          "name": "",
          "type": "bytes12"
        },
        {
          "name": "",
          "type": "bytes16"
        },
        {
          "name": "",
          "type": "bytes16"
        },
        {
          "name": "",
          "type": "bytes32"
        },
        {
          "name": "",
          "type": "bytes16"
        },
        {
          "name": "",
          "type": "uint256"
        },
        {
          "name": "",
          "type": "bool"
        },
        {
          "name": "",
          "type": "uint256"
        },
        {
          "name": "",
          "type": "uint256"
        },
        {
          "name": "",
          "type": "uint256"
        }
      ],
      "payable": false,
      "stateMutability": "view",
      "type": "function"
    },
    {
      "constant": true,
      "inputs": [
        {
          "name": "_position",
          "type": "bytes12"
        }
      ],
      "name": "getShopByPos",
      "outputs": [
        {
          "name": "",
          "type": "bytes12"
        },
        {
          "name": "",
          "type": "bytes16"
        },
        {
          "name": "",
          "type": "bytes16"
        },
        {
          "name": "",
          "type": "bytes32"
        },
        {
          "name": "",
          "type": "bytes16"
        },
        {
          "name": "",
          "type": "uint256"
        },
        {
          "name": "",
          "type": "bool"
        },
        {
          "name": "",
          "type": "uint256"
        },
        {
          "name": "",
          "type": "uint256"
        },
        {
          "name": "",
          "type": "uint256"
        }
      ],
      "payable": false,
      "stateMutability": "view",
      "type": "function"
    },
    {
      "constant": true,
      "inputs": [
        {
          "name": "_zoneGeohash",
          "type": "bytes6"
        }
      ],
      "name": "getShopAddressesInZone",
      "outputs": [
        {
          "name": "",
          "type": "address[]"
        }
      ],
      "payable": false,
      "stateMutability": "view",
      "type": "function"
    },
    {
      "constant": true,
      "inputs": [
        {
          "name": "_shopAddress",
          "type": "address"
        }
      ],
      "name": "shopByAddrExists",
      "outputs": [
        {
          "name": "",
          "type": "bool"
        }
      ],
      "payable": false,
      "stateMutability": "view",
      "type": "function"
    },
    {
      "constant": true,
      "inputs": [
        {
          "name": "_shopAddress",
          "type": "address"
        }
      ],
      "name": "getShopDisputeID",
      "outputs": [
        {
          "name": "",
          "type": "uint256"
        }
      ],
      "payable": false,
      "stateMutability": "view",
      "type": "function"
    },
    {
      "constant": true,
      "inputs": [
        {
          "name": "_shopAddress",
          "type": "address"
        }
      ],
      "name": "hasDispute",
      "outputs": [
        {
          "name": "",
          "type": "bool"
        }
      ],
      "payable": false,
      "stateMutability": "view",
      "type": "function"
    },
    {
      "constant": true,
      "inputs": [
        {
          "name": "_shopAddress",
          "type": "address"
        }
      ],
      "name": "getShopStaked",
      "outputs": [
        {
          "name": "",
          "type": "uint256"
        }
      ],
      "payable": false,
      "stateMutability": "view",
      "type": "function"
    },
    {
      "constant": false,
      "inputs": [
        {
          "name": "_zoneGeohash",
          "type": "bytes6"
        },
        {
          "name": "_priceDTH",
          "type": "uint256"
        }
      ],
      "name": "setZoneLicensePrice",
      "outputs": [],
      "payable": false,
      "stateMutability": "nonpayable",
      "type": "function"
    },
    {
      "constant": true,
      "inputs": [
        {
          "name": "_startTime",
          "type": "uint256"
        },
        {
          "name": "_endTime",
          "type": "uint256"
        },
        {
          "name": "_licencePrice",
          "type": "uint256"
        }
      ],
      "name": "calcShopTax",
      "outputs": [
        {
          "name": "taxAmount",
          "type": "uint256"
        }
      ],
      "payable": false,
      "stateMutability": "view",
      "type": "function"
    },
    {
      "constant": false,
      "inputs": [
        {
          "name": "_zoneGeohash",
          "type": "bytes6"
        },
        {
          "name": "_start",
          "type": "uint256"
        },
        {
          "name": "_end",
          "type": "uint256"
        }
      ],
      "name": "collectTax",
      "outputs": [],
      "payable": false,
      "stateMutability": "nonpayable",
      "type": "function"
    },
    {
      "constant": false,
      "inputs": [
        {
          "name": "_from",
          "type": "address"
        },
        {
          "name": "_value",
          "type": "uint256"
        },
        {
          "name": "_data",
          "type": "bytes"
        }
      ],
      "name": "tokenFallback",
      "outputs": [],
      "payable": false,
      "stateMutability": "nonpayable",
      "type": "function"
    },
    {
      "constant": false,
      "inputs": [],
      "name": "removeShop",
      "outputs": [],
      "payable": false,
      "stateMutability": "nonpayable",
      "type": "function"
    },
    {
      "constant": false,
      "inputs": [
        {
          "name": "_shopAddress",
          "type": "address"
        },
        {
          "name": "_zoneGeohash",
          "type": "bytes6"
        }
      ],
      "name": "removeShopFromZoneOwner",
      "outputs": [],
      "payable": false,
      "stateMutability": "nonpayable",
      "type": "function"
    },
    {
      "constant": false,
      "inputs": [],
      "name": "withdrawDth",
      "outputs": [],
      "payable": false,
      "stateMutability": "nonpayable",
      "type": "function"
    },
    {
      "constant": false,
      "inputs": [
        {
          "name": "_shopAddress",
          "type": "address"
        },
        {
          "name": "_disputeID",
          "type": "uint256"
        }
      ],
      "name": "setDispute",
      "outputs": [],
      "payable": false,
      "stateMutability": "nonpayable",
      "type": "function"
    },
    {
      "constant": false,
      "inputs": [
        {
          "name": "_shopAddress",
          "type": "address"
        }
      ],
      "name": "unsetDispute",
      "outputs": [],
      "payable": false,
      "stateMutability": "nonpayable",
      "type": "function"
    },
    {
      "constant": false,
      "inputs": [
        {
          "name": "_shopAddress",
          "type": "address"
        },
        {
          "name": "_challenger",
          "type": "address"
        }
      ],
      "name": "removeDisputedShop",
      "outputs": [],
      "payable": false,
      "stateMutability": "nonpayable",
      "type": "function"
    }
  ],
  "bytecode": "0x60806040526000600660146101000a81548160ff021916908315150217905550680246ddf979766800006007553480156200003957600080fd5b5060405162005eb238038062005eb283398181016040526200005f919081019062000391565b600073ffffffffffffffffffffffffffffffffffffffff168473ffffffffffffffffffffffffffffffffffffffff161415620000d2576040517f08c379a0000000000000000000000000000000000000000000000000000000008152600401620000c9906200052b565b60405180910390fd5b600073ffffffffffffffffffffffffffffffffffffffff168373ffffffffffffffffffffffffffffffffffffffff16141562000145576040517f08c379a00000000000000000000000000000000000000000000000000000000081526004016200013c906200056f565b60405180910390fd5b600073ffffffffffffffffffffffffffffffffffffffff168273ffffffffffffffffffffffffffffffffffffffff161415620001b8576040517f08c379a0000000000000000000000000000000000000000000000000000000008152600401620001af906200054d565b60405180910390fd5b600073ffffffffffffffffffffffffffffffffffffffff168173ffffffffffffffffffffffffffffffffffffffff1614156200022b576040517f08c379a0000000000000000000000000000000000000000000000000000000008152600401620002229062000591565b60405180910390fd5b83600160006101000a81548173ffffffffffffffffffffffffffffffffffffffff021916908373ffffffffffffffffffffffffffffffffffffffff16021790555082600260006101000a81548173ffffffffffffffffffffffffffffffffffffffff021916908373ffffffffffffffffffffffffffffffffffffffff16021790555081600360006101000a81548173ffffffffffffffffffffffffffffffffffffffff021916908373ffffffffffffffffffffffffffffffffffffffff16021790555080600460006101000a81548173ffffffffffffffffffffffffffffffffffffffff021916908373ffffffffffffffffffffffffffffffffffffffff16021790555033600660006101000a81548173ffffffffffffffffffffffffffffffffffffffff021916908373ffffffffffffffffffffffffffffffffffffffff1602179055505050505062000612565b6000815190506200038b81620005f8565b92915050565b60008060008060808587031215620003a857600080fd5b6000620003b8878288016200037a565b9450506020620003cb878288016200037a565b9350506040620003de878288016200037a565b9250506060620003f1878288016200037a565b91505092959194509250565b60006200040c601983620005b3565b91507f64746820616464726573732063616e6e6f7420626520307830000000000000006000830152602082019050919050565b60006200044e601b83620005b3565b91507f757365727320616464726573732063616e6e6f742062652030783000000000006000830152602082019050919050565b600062000490601983620005b3565b91507f67656f20616464726573732063616e6e6f7420626520307830000000000000006000830152602082019050919050565b6000620004d2602183620005b3565b91507f7a6f6e65466163746f727920616464726573732063616e6e6f7420626520307860008301527f30000000000000000000000000000000000000000000000000000000000000006020830152604082019050919050565b600060208201905081810360008301526200054681620003fd565b9050919050565b6000602082019050818103600083015262000568816200043f565b9050919050565b600060208201905081810360008301526200058a8162000481565b9050919050565b60006020820190508181036000830152620005ac81620004c3565b9050919050565b600082825260208201905092915050565b6000620005d182620005d8565b9050919050565b600073ffffffffffffffffffffffffffffffffffffffff82169050919050565b6200060381620005c4565b81146200060f57600080fd5b50565b61589080620006226000396000f3fe608060405234801561001057600080fd5b50600436106101e55760003560e01c80637dd03a6f1161010f578063c0ee0b8a116100a2578063e053e20911610071578063e053e2091461058e578063f2020275146105be578063f74354cc146105dc578063f78fdd8e1461060c576101e5565b8063c0ee0b8a1461052e578063c732ff3e1461054a578063d3d6c85814610554578063d944e6a314610570576101e5565b806390a0ed12116100de57806390a0ed12146104a85780639a469b3b146104c4578063a64db62b146104e0578063a990b505146104fe576101e5565b80637dd03a6f1461042257806386caeae81461043e5780638c57e6a11461046e5780638e9820191461048a576101e5565b80633b23d6cd1161018757806373912aac1161015657806373912aac146103ae578063771306d4146103b85780637a4f8e22146103d45780637b9a730114610404576101e5565b80633b23d6cd146102f95780635840486414610329578063658408101461036257806366e603191461037e576101e5565b80632c2f3d13116101c35780632c2f3d13146102715780632ccf449b146102a157806330be7776146102ab57806339cad148146102c9576101e5565b806301e57a37146101ea5780630ea52eae1461020857806320ad4d3714610241575b600080fd5b6101f261062a565b6040516101ff91906150f6565b60405180910390f35b610222600480360361021d91908101906143c2565b610650565b6040516102389a99989796959493929190614ffb565b60405180910390f35b61025b600480360361025691908101906143eb565b6106f0565b60405161026891906154c2565b60405180910390f35b61028b6004803603610286919081019061422c565b610708565b60405161029891906154c2565b60405180910390f35b6102a9610720565b005b6102b3610829565b6040516102c091906154c2565b60405180910390f35b6102e360048036036102de91908101906144c8565b61082e565b6040516102f091906154c2565b60405180910390f35b610313600480360361030e91908101906143c2565b610886565b6040516103209190614f36565b60405180910390f35b610343600480360361033e919081019061422c565b6108b9565b6040516103599a99989796959493929190614ffb565b60405180910390f35b61037c600480360361037791908101906142f6565b610b18565b005b6103986004803603610393919081019061422c565b610d61565b6040516103a59190614fc5565b60405180910390f35b6103b6610e7d565b005b6103d260048036036103cd919081019061427e565b611107565b005b6103ee60048036036103e9919081019061443d565b61127f565b6040516103fb9190614f36565b60405180910390f35b61040c6112ca565b6040516104199190615147565b60405180910390f35b61043c6004803603610437919081019061443d565b6112f0565b005b6104586004803603610453919081019061422c565b6115a1565b6040516104659190614fc5565b60405180910390f35b61048860048036036104839190810190614479565b61162e565b005b610492611d27565b60405161049f9190614f36565b60405180910390f35b6104c260048036036104bd919081019061422c565b611d4d565b005b6104de60048036036104d9919081019061422c565b611f96565b005b6104e86120c4565b6040516104f59190614f36565b60405180910390f35b6105186004803603610513919081019061422c565b6120ea565b60405161052591906154c2565b60405180910390f35b61054860048036036105439190810190614332565b612288565b005b610552612d64565b005b61056e600480360361056991908101906142ba565b612efe565b005b61057861336f565b6040516105859190615111565b60405180910390f35b6105a860048036036105a391908101906143eb565b613395565b6040516105b59190614fa3565b60405180910390f35b6105c6613470565b6040516105d3919061512c565b60405180910390f35b6105f660048036036105f1919081019061422c565b613496565b60405161060391906154c2565b60405180910390f35b6106146135a5565b60405161062191906154c2565b60405180910390f35b600160009054906101000a900473ffffffffffffffffffffffffffffffffffffffff1681565b6000806000806000806000806000806000600960008d73ffffffffffffffffffffffffffffffffffffffff191673ffffffffffffffffffffffffffffffffffffffff1916815260200190815260200160002060009054906101000a900473ffffffffffffffffffffffffffffffffffffffff1690506106ce816108b9565b9a509a509a509a509a509a509a509a509a509a50509193959799509193959799565b60086020528060005260406000206000915090505481565b600b6020528060005260406000206000915090505481565b600660009054906101000a900473ffffffffffffffffffffffffffffffffffffffff1673ffffffffffffffffffffffffffffffffffffffff163373ffffffffffffffffffffffffffffffffffffffff161461077a57600080fd5b600073ffffffffffffffffffffffffffffffffffffffff16600560009054906101000a900473ffffffffffffffffffffffffffffffffffffffff1673ffffffffffffffffffffffffffffffffffffffff16141561080c576040517f08c379a000000000000000000000000000000000000000000000000000000000815260040161080390615322565b60405180910390fd5b6001600660146101000a81548160ff021916908315150217905550565b602a81565b600061087d6201518061086f602a61086161085289896135ab90919063ffffffff16565b876135cb90919063ffffffff16565b61360590919063ffffffff16565b61360590919063ffffffff16565b90509392505050565b60096020528060005260406000206000915054906101000a900473ffffffffffffffffffffffffffffffffffffffff1681565b6000806000806000806000806000806108d0614021565b600c60008d73ffffffffffffffffffffffffffffffffffffffff1673ffffffffffffffffffffffffffffffffffffffff168152602001908152602001600020604051806101800160405290816000820160009054906101000a900460a01b73ffffffffffffffffffffffffffffffffffffffff191673ffffffffffffffffffffffffffffffffffffffff1916815260200160008201600c9054906101000a900460801b6fffffffffffffffffffffffffffffffff19166fffffffffffffffffffffffffffffffff191681526020016001820160009054906101000a900460801b6fffffffffffffffffffffffffffffffff19166fffffffffffffffffffffffffffffffff19168152602001600282015481526020016003820160009054906101000a900460801b6fffffffffffffffffffffffffffffffff19166fffffffffffffffffffffffffffffffff191681526020016003820160109054906101000a900460d01b79ffffffffffffffffffffffffffffffffffffffffffffffffffff191679ffffffffffffffffffffffffffffffffffffffffffffffffffff191681526020016004820154815260200160058201548152602001600682015481526020016007820160009054906101000a900460ff16151515158152602001600882015481526020016009820154815250509050806000015181602001518260400151836060015184608001518560c001518661012001518761014001518861010001518960e001519a509a509a509a509a509a509a509a509a509a50509193959799509193959799565b600560009054906101000a900473ffffffffffffffffffffffffffffffffffffffff1673ffffffffffffffffffffffffffffffffffffffff163373ffffffffffffffffffffffffffffffffffffffff1614610ba8576040517f08c379a0000000000000000000000000000000000000000000000000000000008152600401610b9f90615362565b60405180910390fd5b600660149054906101000a900460ff16610bf7576040517f08c379a0000000000000000000000000000000000000000000000000000000008152600401610bee906153a2565b60405180910390fd5b600060a01b73ffffffffffffffffffffffffffffffffffffffff1916600c60008473ffffffffffffffffffffffffffffffffffffffff1673ffffffffffffffffffffffffffffffffffffffff16815260200190815260200160002060000160009054906101000a900460a01b73ffffffffffffffffffffffffffffffffffffffff19161415610cbb576040517f08c379a0000000000000000000000000000000000000000000000000000000008152600401610cb2906153e2565b60405180910390fd5b6001600c60008473ffffffffffffffffffffffffffffffffffffffff1673ffffffffffffffffffffffffffffffffffffffff16815260200190815260200160002060070160006101000a81548160ff02191690831515021790555080600c60008473ffffffffffffffffffffffffffffffffffffffff1673ffffffffffffffffffffffffffffffffffffffff168152602001908152602001600020600801819055505050565b60008060a01b73ffffffffffffffffffffffffffffffffffffffff1916600c60008473ffffffffffffffffffffffffffffffffffffffff1673ffffffffffffffffffffffffffffffffffffffff16815260200190815260200160002060000160009054906101000a900460a01b73ffffffffffffffffffffffffffffffffffffffff19161415610e26576040517f08c379a0000000000000000000000000000000000000000000000000000000008152600401610e1d906153e2565b60405180910390fd5b600c60008373ffffffffffffffffffffffffffffffffffffffff1673ffffffffffffffffffffffffffffffffffffffff16815260200190815260200160002060070160009054906101000a900460ff169050919050565b600060a01b73ffffffffffffffffffffffffffffffffffffffff1916600c60003373ffffffffffffffffffffffffffffffffffffffff1673ffffffffffffffffffffffffffffffffffffffff16815260200190815260200160002060000160009054906101000a900460a01b73ffffffffffffffffffffffffffffffffffffffff19161415610f41576040517f08c379a0000000000000000000000000000000000000000000000000000000008152600401610f3890615242565b60405180910390fd5b33600660149054906101000a900460ff1615610fe857600c60008273ffffffffffffffffffffffffffffffffffffffff1673ffffffffffffffffffffffffffffffffffffffff16815260200190815260200160002060070160009054906101000a900460ff1615610fe7576040517f08c379a0000000000000000000000000000000000000000000000000000000008152600401610fde90615262565b60405180910390fd5b5b6000600c60003373ffffffffffffffffffffffffffffffffffffffff1673ffffffffffffffffffffffffffffffffffffffff1681526020019081526020016000206004015490506110383361362b565b600160009054906101000a900473ffffffffffffffffffffffffffffffffffffffff1673ffffffffffffffffffffffffffffffffffffffff1663a9059cbb33836040518363ffffffff1660e01b8152600401611095929190614f51565b602060405180830381600087803b1580156110af57600080fd5b505af11580156110c3573d6000803e3d6000fd5b505050506040513d601f19601f820116820180604052506110e79190810190614399565b506110fd816000546135ab90919063ffffffff16565b6000819055505050565b600660149054906101000a900460ff16611156576040517f08c379a000000000000000000000000000000000000000000000000000000000815260040161114d906153a2565b60405180910390fd5b600560009054906101000a900473ffffffffffffffffffffffffffffffffffffffff1673ffffffffffffffffffffffffffffffffffffffff163373ffffffffffffffffffffffffffffffffffffffff16146111e6576040517f08c379a00000000000000000000000000000000000000000000000000000000081526004016111dd90615362565b60405180910390fd5b6000600c60008473ffffffffffffffffffffffffffffffffffffffff1673ffffffffffffffffffffffffffffffffffffffff1681526020019081526020016000206004015490506112368361362b565b80600b60008473ffffffffffffffffffffffffffffffffffffffff1673ffffffffffffffffffffffffffffffffffffffff16815260200190815260200160002081905550505050565b600a602052816000526040600020818154811061129857fe5b906000526020600020016000915091509054906101000a900473ffffffffffffffffffffffffffffffffffffffff1681565b600460009054906101000a900473ffffffffffffffffffffffffffffffffffffffff1681565b6000600460009054906101000a900473ffffffffffffffffffffffffffffffffffffffff1673ffffffffffffffffffffffffffffffffffffffff166393d33a33846040518263ffffffff1660e01b815260040161134d91906150db565b60206040518083038186803b15801561136557600080fd5b505afa158015611379573d6000803e3d6000fd5b505050506040513d601f19601f8201168201806040525061139d9190810190614255565b9050600073ffffffffffffffffffffffffffffffffffffffff168173ffffffffffffffffffffffffffffffffffffffff16141561140f576040517f08c379a0000000000000000000000000000000000000000000000000000000008152600401611406906152c2565b60405180910390fd5b600081905060008173ffffffffffffffffffffffffffffffffffffffff16639c675eaa6040518163ffffffff1660e01b815260040160206040518083038186803b15801561145c57600080fd5b505afa158015611470573d6000803e3d6000fd5b505050506040513d601f19601f820116820180604052506114949190810190614255565b90508073ffffffffffffffffffffffffffffffffffffffff163373ffffffffffffffffffffffffffffffffffffffff1614611504576040517f08c379a00000000000000000000000000000000000000000000000000000000081526004016114fb90615482565b60405180910390fd5b6007548411611548576040517f08c379a000000000000000000000000000000000000000000000000000000000815260040161153f90615182565b60405180910390fd5b83600860008779ffffffffffffffffffffffffffffffffffffffffffffffffffff191679ffffffffffffffffffffffffffffffffffffffffffffffffffff19168152602001908152602001600020819055505050505050565b60008060a01b73ffffffffffffffffffffffffffffffffffffffff1916600c60008473ffffffffffffffffffffffffffffffffffffffff1673ffffffffffffffffffffffffffffffffffffffff16815260200190815260200160002060000160009054906101000a900460a01b73ffffffffffffffffffffffffffffffffffffffff191614159050919050565b6000600460009054906101000a900473ffffffffffffffffffffffffffffffffffffffff1673ffffffffffffffffffffffffffffffffffffffff166393d33a33856040518263ffffffff1660e01b815260040161168b91906150db565b60206040518083038186803b1580156116a357600080fd5b505afa1580156116b7573d6000803e3d6000fd5b505050506040513d601f19601f820116820180604052506116db9190810190614255565b9050600073ffffffffffffffffffffffffffffffffffffffff168173ffffffffffffffffffffffffffffffffffffffff16141561174d576040517f08c379a0000000000000000000000000000000000000000000000000000000008152600401611744906152c2565b60405180910390fd5b600081905060008173ffffffffffffffffffffffffffffffffffffffff16639c675eaa6040518163ffffffff1660e01b815260040160206040518083038186803b15801561179a57600080fd5b505afa1580156117ae573d6000803e3d6000fd5b505050506040513d601f19601f820116820180604052506117d29190810190614255565b90506060600a60008879ffffffffffffffffffffffffffffffffffffffffffffffffffff191679ffffffffffffffffffffffffffffffffffffffffffffffffffff191681526020019081526020016000208054806020026020016040519081016040528092919081815260200182805480156118a357602002820191906000526020600020905b8160009054906101000a900473ffffffffffffffffffffffffffffffffffffffff1673ffffffffffffffffffffffffffffffffffffffff1681526020019060010190808311611859575b50505050509050805186860311156118f0576040517f08c379a00000000000000000000000000000000000000000000000000000000081526004016118e790615302565b60405180910390fd5b600080905060008790505b86811015611be15760006119ba600c600086858151811061191857fe5b602002602001015173ffffffffffffffffffffffffffffffffffffffff1673ffffffffffffffffffffffffffffffffffffffff1681526020019081526020016000206006015442600c600088878151811061196f57fe5b602002602001015173ffffffffffffffffffffffffffffffffffffffff1673ffffffffffffffffffffffffffffffffffffffff1681526020019081526020016000206005015461082e565b9050600c60008584815181106119cc57fe5b602002602001015173ffffffffffffffffffffffffffffffffffffffff1673ffffffffffffffffffffffffffffffffffffffff16815260200190815260200160002060040154811115611aa457611a81600c6000868581518110611a2c57fe5b602002602001015173ffffffffffffffffffffffffffffffffffffffff1673ffffffffffffffffffffffffffffffffffffffff1681526020019081526020016000206004015484613ced90919063ffffffff16565b9250611a9f848381518110611a9257fe5b602002602001015161362b565b611bd5565b611b0c81600c6000878681518110611ab857fe5b602002602001015173ffffffffffffffffffffffffffffffffffffffff1673ffffffffffffffffffffffffffffffffffffffff168152602001908152602001600020600401546135ab90919063ffffffff16565b600c6000868581518110611b1c57fe5b602002602001015173ffffffffffffffffffffffffffffffffffffffff1673ffffffffffffffffffffffffffffffffffffffff16815260200190815260200160002060040181905550611b788184613ced90919063ffffffff16565b925042600c6000868581518110611b8b57fe5b602002602001015173ffffffffffffffffffffffffffffffffffffffff1673ffffffffffffffffffffffffffffffffffffffff168152602001908152602001600020600601819055505b506001810190506118fb565b507f2590b2b08d341f06abc5e13956e6fa6d8f51a7f41f8c823b20852e11191ffb9881604051611c119190615506565b60405180910390a1600160009054906101000a900473ffffffffffffffffffffffffffffffffffffffff1673ffffffffffffffffffffffffffffffffffffffff1663a9059cbb84836040518363ffffffff1660e01b8152600401611c76929190614f7a565b602060405180830381600087803b158015611c9057600080fd5b505af1158015611ca4573d6000803e3d6000fd5b505050506040513d601f19601f82011682018060405250611cc89190810190614399565b50611cde816000546135ab90919063ffffffff16565b6000819055507f564e4e6e9ec454ac6c80c226d068f046438c307c84a473acb6f47a30b534ad008184604051611d159291906154dd565b60405180910390a15050505050505050565b600660009054906101000a900473ffffffffffffffffffffffffffffffffffffffff1681565b600560009054906101000a900473ffffffffffffffffffffffffffffffffffffffff1673ffffffffffffffffffffffffffffffffffffffff163373ffffffffffffffffffffffffffffffffffffffff1614611ddd576040517f08c379a0000000000000000000000000000000000000000000000000000000008152600401611dd490615362565b60405180910390fd5b600660149054906101000a900460ff16611e2c576040517f08c379a0000000000000000000000000000000000000000000000000000000008152600401611e23906153a2565b60405180910390fd5b600060a01b73ffffffffffffffffffffffffffffffffffffffff1916600c60008373ffffffffffffffffffffffffffffffffffffffff1673ffffffffffffffffffffffffffffffffffffffff16815260200190815260200160002060000160009054906101000a900460a01b73ffffffffffffffffffffffffffffffffffffffff19161415611ef0576040517f08c379a0000000000000000000000000000000000000000000000000000000008152600401611ee7906153e2565b60405180910390fd5b6000600c60008373ffffffffffffffffffffffffffffffffffffffff1673ffffffffffffffffffffffffffffffffffffffff16815260200190815260200160002060070160006101000a81548160ff0219169083151502179055506000600c60008373ffffffffffffffffffffffffffffffffffffffff1673ffffffffffffffffffffffffffffffffffffffff1681526020019081526020016000206008018190555050565b600073ffffffffffffffffffffffffffffffffffffffff168173ffffffffffffffffffffffffffffffffffffffff161415612006576040517f08c379a0000000000000000000000000000000000000000000000000000000008152600401611ffd906153c2565b60405180910390fd5b600660009054906101000a900473ffffffffffffffffffffffffffffffffffffffff1673ffffffffffffffffffffffffffffffffffffffff163373ffffffffffffffffffffffffffffffffffffffff161461206057600080fd5b60001515600660149054906101000a900460ff1615151461208057600080fd5b80600560006101000a81548173ffffffffffffffffffffffffffffffffffffffff021916908373ffffffffffffffffffffffffffffffffffffffff16021790555050565b600560009054906101000a900473ffffffffffffffffffffffffffffffffffffffff1681565b60008060a01b73ffffffffffffffffffffffffffffffffffffffff1916600c60008473ffffffffffffffffffffffffffffffffffffffff1673ffffffffffffffffffffffffffffffffffffffff16815260200190815260200160002060000160009054906101000a900460a01b73ffffffffffffffffffffffffffffffffffffffff191614156121af576040517f08c379a00000000000000000000000000000000000000000000000000000000081526004016121a6906153e2565b60405180910390fd5b600c60008373ffffffffffffffffffffffffffffffffffffffff1673ffffffffffffffffffffffffffffffffffffffff16815260200190815260200160002060070160009054906101000a900460ff1661223e576040517f08c379a0000000000000000000000000000000000000000000000000000000008152600401612235906152a2565b60405180910390fd5b600c60008373ffffffffffffffffffffffffffffffffffffffff1673ffffffffffffffffffffffffffffffffffffffff168152602001908152602001600020600801549050919050565b600160009054906101000a900473ffffffffffffffffffffffffffffffffffffffff1673ffffffffffffffffffffffffffffffffffffffff163373ffffffffffffffffffffffffffffffffffffffff1614612318576040517f08c379a000000000000000000000000000000000000000000000000000000000815260040161230f906152e2565b60405180910390fd5b605f81511461235c576040517f08c379a000000000000000000000000000000000000000000000000000000000815260040161235390615422565b60405180910390fd5b600083905060008390506000612373846000613d0c565b9050603060f81b7effffffffffffffffffffffffffffffffffffffffffffffffffffffffffffff1916817effffffffffffffffffffffffffffffffffffffffffffffffffffffffffffff191614806124125750603160f81b7effffffffffffffffffffffffffffffffffffffffffffffffffffffffffffff1916817effffffffffffffffffffffffffffffffffffffffffffffffffffffffffffff1916145b612451576040517f08c379a000000000000000000000000000000000000000000000000000000000815260040161244890615342565b60405180910390fd5b603160f81b7effffffffffffffffffffffffffffffffffffffffffffffffffffffffffffff1916817effffffffffffffffffffffffffffffffffffffffffffffffffffffffffffff191614156124b0576124ab8386613d6a565b612d5c565b603060f81b7effffffffffffffffffffffffffffffffffffffffffffffffffffffffffffff1916817effffffffffffffffffffffffffffffffffffffffffffffffffffffffffffff19161415612d5b57600061250d856001613ea9565b9050600061251c866003613f07565b9050600061252b87600f613f65565b9050600061253a88601f613f65565b9050600061254989602f613fc3565b905060006125588a604f613f65565b9050600260009054906101000a900473ffffffffffffffffffffffffffffffffffffffff1673ffffffffffffffffffffffffffffffffffffffff16630dc210aa876040518263ffffffff1660e01b81526004016125b59190615097565b60206040518083038186803b1580156125cd57600080fd5b505afa1580156125e1573d6000803e3d6000fd5b505050506040513d601f19601f820116820180604052506126059190810190614399565b612644576040517f08c379a000000000000000000000000000000000000000000000000000000000815260040161263b90615162565b60405180910390fd5b600060a01b73ffffffffffffffffffffffffffffffffffffffff1916600c60008b73ffffffffffffffffffffffffffffffffffffffff1673ffffffffffffffffffffffffffffffffffffffff16815260200190815260200160002060000160009054906101000a900460a01b73ffffffffffffffffffffffffffffffffffffffff191614612707576040517f08c379a00000000000000000000000000000000000000000000000000000000081526004016126fe90615202565b60405180910390fd5b600073ffffffffffffffffffffffffffffffffffffffff16600960008773ffffffffffffffffffffffffffffffffffffffff191673ffffffffffffffffffffffffffffffffffffffff1916815260200190815260200160002060009054906101000a900473ffffffffffffffffffffffffffffffffffffffff1673ffffffffffffffffffffffffffffffffffffffff16146127d7576040517f08c379a00000000000000000000000000000000000000000000000000000000081526004016127ce90615382565b60405180910390fd5b600260009054906101000a900473ffffffffffffffffffffffffffffffffffffffff1673ffffffffffffffffffffffffffffffffffffffff1663bf922fe2866040518263ffffffff1660e01b81526004016128329190614fe0565b602060405180830381600087803b15801561284c57600080fd5b505af1158015612860573d6000803e3d6000fd5b505050506040513d601f19601f820116820180604052506128849190810190614399565b6128c3576040517f08c379a00000000000000000000000000000000000000000000000000000000081526004016128ba906151c2565b60405180910390fd5b600260009054906101000a900473ffffffffffffffffffffffffffffffffffffffff1673ffffffffffffffffffffffffffffffffffffffff1663df6b2c2c87876040518363ffffffff1660e01b81526004016129209291906150b2565b60206040518083038186803b15801561293857600080fd5b505afa15801561294c573d6000803e3d6000fd5b505050506040513d601f19601f820116820180604052506129709190810190614399565b6129af576040517f08c379a00000000000000000000000000000000000000000000000000000000081526004016129a6906151a2565b60405180910390fd5b6000600754600860008879ffffffffffffffffffffffffffffffffffffffffffffffffffff191679ffffffffffffffffffffffffffffffffffffffffffffffffffff191681526020019081526020016000205411612a0f57600754612a5e565b600860008779ffffffffffffffffffffffffffffffffffffffffffffffffffff191679ffffffffffffffffffffffffffffffffffffffffffffffffffff19168152602001908152602001600020545b905080891015612aa3576040517f08c379a0000000000000000000000000000000000000000000000000000000008152600401612a9a90615402565b60405180910390fd5b6000600c60008c73ffffffffffffffffffffffffffffffffffffffff1673ffffffffffffffffffffffffffffffffffffffff1681526020019081526020016000209050868160000160006101000a8154816bffffffffffffffffffffffff021916908360a01c02179055508581600001600c6101000a8154816fffffffffffffffffffffffffffffffff021916908360801c0217905550848160010160006101000a8154816fffffffffffffffffffffffffffffffff021916908360801c0217905550838160020181905550828160030160006101000a8154816fffffffffffffffffffffffffffffffff021916908360801c021790555089816004018190555060008160070160006101000a81548160ff02191690831515021790555060008160080181905550868160030160106101000a81548165ffffffffffff021916908360d01c0217905550818160050181905550428160060181905550612c148a600054613ced90919063ffffffff16565b6000819055508a600960008973ffffffffffffffffffffffffffffffffffffffff191673ffffffffffffffffffffffffffffffffffffffff1916815260200190815260200160002060006101000a81548173ffffffffffffffffffffffffffffffffffffffff021916908373ffffffffffffffffffffffffffffffffffffffff160217905550600a60008879ffffffffffffffffffffffffffffffffffffffffffffffffffff191679ffffffffffffffffffffffffffffffffffffffffffffffffffff191681526020019081526020016000208b90806001815401808255809150509060018203906000526020600020016000909192909190916101000a81548173ffffffffffffffffffffffffffffffffffffffff021916908373ffffffffffffffffffffffffffffffffffffffff160217905550816009018190555050505050505050505b5b505050505050565b6000600b60003373ffffffffffffffffffffffffffffffffffffffff1673ffffffffffffffffffffffffffffffffffffffff16815260200190815260200160002054905060008111612deb576040517f08c379a0000000000000000000000000000000000000000000000000000000008152600401612de290615442565b60405180910390fd5b6000600b60003373ffffffffffffffffffffffffffffffffffffffff1673ffffffffffffffffffffffffffffffffffffffff16815260200190815260200160002081905550600160009054906101000a900473ffffffffffffffffffffffffffffffffffffffff1673ffffffffffffffffffffffffffffffffffffffff1663a9059cbb33836040518363ffffffff1660e01b8152600401612e8d929190614f51565b602060405180830381600087803b158015612ea757600080fd5b505af1158015612ebb573d6000803e3d6000fd5b505050506040513d601f19601f82011682018060405250612edf9190810190614399565b50612ef5816000546135ab90919063ffffffff16565b60008190555050565b60001515600660149054906101000a900460ff16151514612f54576040517f08c379a0000000000000000000000000000000000000000000000000000000008152600401612f4b906151e2565b60405180910390fd5b6000600460009054906101000a900473ffffffffffffffffffffffffffffffffffffffff1673ffffffffffffffffffffffffffffffffffffffff166393d33a33836040518263ffffffff1660e01b8152600401612fb191906150db565b60206040518083038186803b158015612fc957600080fd5b505afa158015612fdd573d6000803e3d6000fd5b505050506040513d601f19601f820116820180604052506130019190810190614255565b9050600081905060008173ffffffffffffffffffffffffffffffffffffffff16639c675eaa6040518163ffffffff1660e01b815260040160206040518083038186803b15801561305057600080fd5b505afa158015613064573d6000803e3d6000fd5b505050506040513d601f19601f820116820180604052506130889190810190614255565b90508073ffffffffffffffffffffffffffffffffffffffff163373ffffffffffffffffffffffffffffffffffffffff16146130f8576040517f08c379a00000000000000000000000000000000000000000000000000000000081526004016130ef906154a2565b60405180910390fd5b6000600c60008773ffffffffffffffffffffffffffffffffffffffff1673ffffffffffffffffffffffffffffffffffffffff16815260200190815260200160002060000160009054906101000a900460a01b905060008373ffffffffffffffffffffffffffffffffffffffff166308e44f886040518163ffffffff1660e01b815260040160206040518083038186803b15801561319457600080fd5b505afa1580156131a8573d6000803e3d6000fd5b505050506040513d601f19601f820116820180604052506131cc9190810190614414565b90508079ffffffffffffffffffffffffffffffffffffffffffffffffffff19168279ffffffffffffffffffffffffffffffffffffffffffffffffffff19161461324a576040517f08c379a000000000000000000000000000000000000000000000000000000000815260040161324190615282565b60405180910390fd5b6000600c60008973ffffffffffffffffffffffffffffffffffffffff1673ffffffffffffffffffffffffffffffffffffffff16815260200190815260200160002060040154905061329a8861362b565b600160009054906101000a900473ffffffffffffffffffffffffffffffffffffffff1673ffffffffffffffffffffffffffffffffffffffff1663a9059cbb89836040518363ffffffff1660e01b81526004016132f7929190614f7a565b602060405180830381600087803b15801561331157600080fd5b505af1158015613325573d6000803e3d6000fd5b505050506040513d601f19601f820116820180604052506133499190810190614399565b5061335f816000546135ab90919063ffffffff16565b6000819055505050505050505050565b600260009054906101000a900473ffffffffffffffffffffffffffffffffffffffff1681565b6060600a60008379ffffffffffffffffffffffffffffffffffffffffffffffffffff191679ffffffffffffffffffffffffffffffffffffffffffffffffffff1916815260200190815260200160002080548060200260200160405190810160405280929190818152602001828054801561346457602002820191906000526020600020905b8160009054906101000a900473ffffffffffffffffffffffffffffffffffffffff1673ffffffffffffffffffffffffffffffffffffffff168152602001906001019080831161341a575b50505050509050919050565b600360009054906101000a900473ffffffffffffffffffffffffffffffffffffffff1681565b60008060a01b73ffffffffffffffffffffffffffffffffffffffff1916600c60008473ffffffffffffffffffffffffffffffffffffffff1673ffffffffffffffffffffffffffffffffffffffff16815260200190815260200160002060000160009054906101000a900460a01b73ffffffffffffffffffffffffffffffffffffffff1916141561355b576040517f08c379a0000000000000000000000000000000000000000000000000000000008152600401613552906153e2565b60405180910390fd5b600c60008373ffffffffffffffffffffffffffffffffffffffff1673ffffffffffffffffffffffffffffffffffffffff168152602001908152602001600020600401549050919050565b60075481565b6000828211156135ba57600080fd5b600082840390508091505092915050565b6000808314156135de57600090506135ff565b60008284029050828482816135ef57fe5b04146135fa57600080fd5b809150505b92915050565b600080821161361357600080fd5b600082848161361e57fe5b0490508091505092915050565b6000600c60008373ffffffffffffffffffffffffffffffffffffffff1673ffffffffffffffffffffffffffffffffffffffff16815260200190815260200160002060000160009054906101000a900460a01b9050600c60008373ffffffffffffffffffffffffffffffffffffffff1673ffffffffffffffffffffffffffffffffffffffff168152602001908152602001600020600080820160006101000a8154906bffffffffffffffffffffffff021916905560008201600c6101000a8154906fffffffffffffffffffffffffffffffff02191690556001820160006101000a8154906fffffffffffffffffffffffffffffffff021916905560028201600090556003820160006101000a8154906fffffffffffffffffffffffffffffffff02191690556003820160106101000a81549065ffffffffffff02191690556004820160009055600582016000905560068201600090556007820160006101000a81549060ff02191690556008820160009055600982016000905550506000600960008373ffffffffffffffffffffffffffffffffffffffff191673ffffffffffffffffffffffffffffffffffffffff1916815260200190815260200160002060006101000a81548173ffffffffffffffffffffffffffffffffffffffff021916908373ffffffffffffffffffffffffffffffffffffffff16021790555060096000600c60008573ffffffffffffffffffffffffffffffffffffffff1673ffffffffffffffffffffffffffffffffffffffff16815260200190815260200160002060000160009054906101000a900460a01b73ffffffffffffffffffffffffffffffffffffffff191673ffffffffffffffffffffffffffffffffffffffff1916815260200190815260200160002060006101000a81549073ffffffffffffffffffffffffffffffffffffffff02191690556000600c60008473ffffffffffffffffffffffffffffffffffffffff1673ffffffffffffffffffffffffffffffffffffffff168152602001908152602001600020600901549050600a60008379ffffffffffffffffffffffffffffffffffffffffffffffffffff191679ffffffffffffffffffffffffffffffffffffffffffffffffffff191681526020019081526020016000206001600a60008579ffffffffffffffffffffffffffffffffffffffffffffffffffff191679ffffffffffffffffffffffffffffffffffffffffffffffffffff191681526020019081526020016000208054905003815481106139cc57fe5b9060005260206000200160009054906101000a900473ffffffffffffffffffffffffffffffffffffffff16600a60008479ffffffffffffffffffffffffffffffffffffffffffffffffffff191679ffffffffffffffffffffffffffffffffffffffffffffffffffff191681526020019081526020016000208281548110613a4f57fe5b9060005260206000200160006101000a81548173ffffffffffffffffffffffffffffffffffffffff021916908373ffffffffffffffffffffffffffffffffffffffff16021790555080600c6000600a60008679ffffffffffffffffffffffffffffffffffffffffffffffffffff191679ffffffffffffffffffffffffffffffffffffffffffffffffffff191681526020019081526020016000208481548110613af457fe5b9060005260206000200160009054906101000a900473ffffffffffffffffffffffffffffffffffffffff1673ffffffffffffffffffffffffffffffffffffffff1673ffffffffffffffffffffffffffffffffffffffff16815260200190815260200160002060090181905550600a60008379ffffffffffffffffffffffffffffffffffffffffffffffffffff191679ffffffffffffffffffffffffffffffffffffffffffffffffffff19168152602001908152602001600020805480919060019003613bc091906140f4565b50600c60008473ffffffffffffffffffffffffffffffffffffffff1673ffffffffffffffffffffffffffffffffffffffff168152602001908152602001600020600080820160006101000a8154906bffffffffffffffffffffffff021916905560008201600c6101000a8154906fffffffffffffffffffffffffffffffff02191690556001820160006101000a8154906fffffffffffffffffffffffffffffffff021916905560028201600090556003820160006101000a8154906fffffffffffffffffffffffffffffffff02191690556003820160106101000a81549065ffffffffffff02191690556004820160009055600582016000905560068201600090556007820160006101000a81549060ff0219169055600882016000905560098201600090555050505050565b600080828401905083811015613d0257600080fd5b8091505092915050565b60006001820183511015613d55576040517f08c379a0000000000000000000000000000000000000000000000000000000008152600401613d4c90615462565b60405180910390fd5b60008260208501015190508091505092915050565b6000600c60008473ffffffffffffffffffffffffffffffffffffffff1673ffffffffffffffffffffffffffffffffffffffff1681526020019081526020016000206006015411613def576040517f08c379a0000000000000000000000000000000000000000000000000000000008152600401613de690615222565b60405180910390fd5b613e4481600c60008573ffffffffffffffffffffffffffffffffffffffff1673ffffffffffffffffffffffffffffffffffffffff16815260200190815260200160002060040154613ced90919063ffffffff16565b600c60008473ffffffffffffffffffffffffffffffffffffffff1673ffffffffffffffffffffffffffffffffffffffff16815260200190815260200160002060040181905550613e9f81600054613ced90919063ffffffff16565b6000819055505050565b60006002820183511015613ef2576040517f08c379a0000000000000000000000000000000000000000000000000000000008152600401613ee990615462565b60405180910390fd5b60008260208501015190508091505092915050565b6000600c820183511015613f50576040517f08c379a0000000000000000000000000000000000000000000000000000000008152600401613f4790615462565b60405180910390fd5b60008260208501015190508091505092915050565b60006010820183511015613fae576040517f08c379a0000000000000000000000000000000000000000000000000000000008152600401613fa590615462565b60405180910390fd5b60008260208501015190508091505092915050565b6000602082018351101561400c576040517f08c379a000000000000000000000000000000000000000000000000000000000815260040161400390615462565b60405180910390fd5b60008260208501015190508091505092915050565b604051806101800160405280600073ffffffffffffffffffffffffffffffffffffffff1916815260200160006fffffffffffffffffffffffffffffffff1916815260200160006fffffffffffffffffffffffffffffffff191681526020016000801916815260200160006fffffffffffffffffffffffffffffffff19168152602001600079ffffffffffffffffffffffffffffffffffffffffffffffffffff1916815260200160008152602001600081526020016000815260200160001515815260200160008152602001600081525090565b81548183558181111561411b5781836000526020600020918201910161411a9190614120565b5b505050565b61414291905b8082111561413e576000816000905550600101614126565b5090565b90565b600081359050614154816157da565b92915050565b600081519050614169816157da565b92915050565b60008151905061417e816157f1565b92915050565b60008135905061419381615808565b92915050565b6000813590506141a88161581f565b92915050565b6000815190506141bd8161581f565b92915050565b600082601f8301126141d457600080fd5b81356141e76141e282615561565b615534565b9150808252602083016020830185838301111561420357600080fd5b61420e8382846157cb565b50505092915050565b60008135905061422681615836565b92915050565b60006020828403121561423e57600080fd5b600061424c84828501614145565b91505092915050565b60006020828403121561426757600080fd5b60006142758482850161415a565b91505092915050565b6000806040838503121561429157600080fd5b600061429f85828601614145565b92505060206142b085828601614145565b9150509250929050565b600080604083850312156142cd57600080fd5b60006142db85828601614145565b92505060206142ec85828601614199565b9150509250929050565b6000806040838503121561430957600080fd5b600061431785828601614145565b925050602061432885828601614217565b9150509250929050565b60008060006060848603121561434757600080fd5b600061435586828701614145565b935050602061436686828701614217565b925050604084013567ffffffffffffffff81111561438357600080fd5b61438f868287016141c3565b9150509250925092565b6000602082840312156143ab57600080fd5b60006143b98482850161416f565b91505092915050565b6000602082840312156143d457600080fd5b60006143e284828501614184565b91505092915050565b6000602082840312156143fd57600080fd5b600061440b84828501614199565b91505092915050565b60006020828403121561442657600080fd5b6000614434848285016141ae565b91505092915050565b6000806040838503121561445057600080fd5b600061445e85828601614199565b925050602061446f85828601614217565b9150509250929050565b60008060006060848603121561448e57600080fd5b600061449c86828701614199565b93505060206144ad86828701614217565b92505060406144be86828701614217565b9150509250925092565b6000806000606084860312156144dd57600080fd5b60006144eb86828701614217565b93505060206144fc86828701614217565b925050604061450d86828701614217565b9150509250925092565b6000614523838361453e565b60208301905092915050565b61453881615705565b82525050565b614547816155d7565b82525050565b614556816155d7565b82525050565b60006145678261559d565b61457181856155b5565b935061457c8361558d565b8060005b838110156145ad5781516145948882614517565b975061459f836155a8565b925050600181019050614580565b5085935050505092915050565b6145c3816155e9565b82525050565b6145d2816155f5565b82525050565b6145e181615621565b82525050565b6145f08161564d565b82525050565b6145ff81615679565b82525050565b61460e81615683565b82525050565b61461d816156af565b82525050565b61462c81615717565b82525050565b61463b8161573b565b82525050565b61464a8161575f565b82525050565b61465981615783565b82525050565b600061466c6013836155c6565b91507f636f756e7472792069732064697361626c6564000000000000000000000000006000830152602082019050919050565b60006146ac602b836155c6565b91507f70726963652073686f756c64206265207375706572696f7220746f207468652060008301527f666c6f6f722070726963650000000000000000000000000000000000000000006020830152604082019050919050565b6000614712601a836155c6565b91507f7a6f6e65206973206e6f7420696e7369646520636f756e7472790000000000006000830152602082019050919050565b60006147526026836155c6565b91507f696e76616c69642067656f68617368206368617261637465727320696e20706f60008301527f736974696f6e00000000000000000000000000000000000000000000000000006020830152604082019050919050565b60006147b86035836155c6565b91507f4f6e6365206163746976617465642c206f6e6c79206469737075746520636f6e60008301527f74726163742063616e2072656d6f76652073686f7000000000000000000000006020830152604082019050919050565b600061481e6017836155c6565b91507f63616c6c657220616c7265616479206861732073686f700000000000000000006000830152602082019050919050565b600061485e6013836155c6565b91507f53686f7020646f6573206e6f74206578697374000000000000000000000000006000830152602082019050919050565b600061489e6012836155c6565b91507f63616c6c6572206973206e6f742073686f7000000000000000000000000000006000830152602082019050919050565b60006148de6010836155c6565b91507f73686f70206861732064697370757465000000000000000000000000000000006000830152602082019050919050565b600061491e6020836155c6565b91507f706f736974696f6e206973206e6f7420696e736964652074686973207a6f6e656000830152602082019050919050565b600061495e6013836155c6565b91507f73686f7020686173206e6f2064697370757465000000000000000000000000006000830152602082019050919050565b600061499e6019836155c6565b91507f7a6f6e65206973206e6f7420616c7265616479206f776e6564000000000000006000830152602082019050919050565b60006149de6022836155c6565b91507f63616e206f6e6c792062652063616c6c65642062792064746820636f6e74726160008301527f63740000000000000000000000000000000000000000000000000000000000006020830152604082019050919050565b6000614a44602d836155c6565b91507f737461727420616e6420656e642076616c75652061726520626967676572207460008301527f68616e20616464726573735b5d000000000000000000000000000000000000006020830152604082019050919050565b6000614aaa6026836155c6565b91507f73686f70734469737075746520636f6e747261637420686173206e6f7420626560008301527f656e2073657400000000000000000000000000000000000000000000000000006020830152604082019050919050565b6000614b106020836155c6565b91507f66697273742062797465206469646e74206d617463682066756e632073686f706000830152602082019050919050565b6000614b506016836155c6565b91507f74617820746f2073656e64207a6f6e65206f776e6572000000000000000000006000830152602082019050919050565b6000614b90602b836155c6565b91507f63616e206f6e6c792062652063616c6c65642062792073686f7073446973707560008301527f746520636f6e74726163740000000000000000000000000000000000000000006020830152604082019050919050565b6000614bf6601f836155c6565b91507f73686f7020616c72656164792065786973747320617420706f736974696f6e006000830152602082019050919050565b6000614c36602a836155c6565b91507f43616e206f6e6c792062652063616c6c6564207768656e20646973707574652060008301527f697320656e61626c6564000000000000000000000000000000000000000000006020830152604082019050919050565b6000614c9c6024836155c6565b91507f73686f7073206469737075746520636f6e74726163742063616e6e6f7420626560008301527f20307830000000000000000000000000000000000000000000000000000000006020830152604082019050919050565b6000614d026013836155c6565b91507f73686f7020646f6573206e6f74206578697374000000000000000000000000006000830152602082019050919050565b6000614d426028836155c6565b91507f73656e6420647468206973206c657373207468616e2073686f70206c6963656e60008301527f73652070726963650000000000000000000000000000000000000000000000006020830152604082019050919050565b6000614da86020836155c6565b91507f61646453686f70206578706563747320393520627974657320617320646174616000830152602082019050919050565b6000614de86013836155c6565b91507f6e6f7468696e6720746f207769746864726177000000000000000000000000006000830152602082019050919050565b6000614e286010836155c6565b91507f206e6f74206c6f6e6720656e6f756768000000000000000000000000000000006000830152602082019050919050565b6000614e68602c836155c6565b91507f6f6e6c79207a6f6e65206f776e65722063616e206d6f6469667920746865206c60008301527f6963656e636520707269636500000000000000000000000000000000000000006020830152604082019050919050565b6000614ece6027836155c6565b91507f6d73672e73656e646572206973206e6f7420746865206f776e6572206f66207460008301527f6865207a6f6e65000000000000000000000000000000000000000000000000006020830152604082019050919050565b614f30816156fb565b82525050565b6000602082019050614f4b600083018461454d565b92915050565b6000604082019050614f66600083018561452f565b614f736020830184614f27565b9392505050565b6000604082019050614f8f600083018561454d565b614f9c6020830184614f27565b9392505050565b60006020820190508181036000830152614fbd818461455c565b905092915050565b6000602082019050614fda60008301846145ba565b92915050565b6000602082019050614ff560008301846145c9565b92915050565b600061014082019050615011600083018d6145c9565b61501e602083018c6145d8565b61502b604083018b6145d8565b615038606083018a6145f6565b61504560808301896145d8565b61505260a0830188614f27565b61505f60c08301876145ba565b61506c60e0830186614f27565b61507a610100830185614f27565b615088610120830184614f27565b9b9a5050505050505050505050565b60006020820190506150ac60008301846145e7565b92915050565b60006040820190506150c760008301856145e7565b6150d46020830184614605565b9392505050565b60006020820190506150f06000830184614614565b92915050565b600060208201905061510b6000830184614623565b92915050565b60006020820190506151266000830184614632565b92915050565b60006020820190506151416000830184614641565b92915050565b600060208201905061515c6000830184614650565b92915050565b6000602082019050818103600083015261517b8161465f565b9050919050565b6000602082019050818103600083015261519b8161469f565b9050919050565b600060208201905081810360008301526151bb81614705565b9050919050565b600060208201905081810360008301526151db81614745565b9050919050565b600060208201905081810360008301526151fb816147ab565b9050919050565b6000602082019050818103600083015261521b81614811565b9050919050565b6000602082019050818103600083015261523b81614851565b9050919050565b6000602082019050818103600083015261525b81614891565b9050919050565b6000602082019050818103600083015261527b816148d1565b9050919050565b6000602082019050818103600083015261529b81614911565b9050919050565b600060208201905081810360008301526152bb81614951565b9050919050565b600060208201905081810360008301526152db81614991565b9050919050565b600060208201905081810360008301526152fb816149d1565b9050919050565b6000602082019050818103600083015261531b81614a37565b9050919050565b6000602082019050818103600083015261533b81614a9d565b9050919050565b6000602082019050818103600083015261535b81614b03565b9050919050565b6000602082019050818103600083015261537b81614b83565b9050919050565b6000602082019050818103600083015261539b81614be9565b9050919050565b600060208201905081810360008301526153bb81614c29565b9050919050565b600060208201905081810360008301526153db81614c8f565b9050919050565b600060208201905081810360008301526153fb81614cf5565b9050919050565b6000602082019050818103600083015261541b81614d35565b9050919050565b6000602082019050818103600083015261543b81614d9b565b9050919050565b6000602082019050818103600083015261545b81614ddb565b9050919050565b6000602082019050818103600083015261547b81614e1b565b9050919050565b6000602082019050818103600083015261549b81614e5b565b9050919050565b600060208201905081810360008301526154bb81614ec1565b9050919050565b60006020820190506154d76000830184614f27565b92915050565b60006040820190506154f26000830185614f27565b6154ff602083018461454d565b9392505050565b600060408201905061551b6000830184614f27565b818103602083015261552c81614b43565b905092915050565b6000604051905081810181811067ffffffffffffffff8211171561555757600080fd5b8060405250919050565b600067ffffffffffffffff82111561557857600080fd5b601f19601f8301169050602081019050919050565b6000819050602082019050919050565b600081519050919050565b6000602082019050919050565b600082825260208201905092915050565b600082825260208201905092915050565b60006155e2826156db565b9050919050565b60008115159050919050565b60007fffffffffffffffffffffffff000000000000000000000000000000000000000082169050919050565b60007fffffffffffffffffffffffffffffffff0000000000000000000000000000000082169050919050565b60007fffff00000000000000000000000000000000000000000000000000000000000082169050919050565b6000819050919050565b60007fffffffff0000000000000000000000000000000000000000000000000000000082169050919050565b60007fffffffffffff000000000000000000000000000000000000000000000000000082169050919050565b600073ffffffffffffffffffffffffffffffffffffffff82169050919050565b6000819050919050565b6000615710826157a7565b9050919050565b600061572282615729565b9050919050565b6000615734826156db565b9050919050565b60006157468261574d565b9050919050565b6000615758826156db565b9050919050565b600061576a82615771565b9050919050565b600061577c826156db565b9050919050565b600061578e82615795565b9050919050565b60006157a0826156db565b9050919050565b60006157b2826157b9565b9050919050565b60006157c4826156db565b9050919050565b82818337600083830152505050565b6157e3816155d7565b81146157ee57600080fd5b50565b6157fa816155e9565b811461580557600080fd5b50565b615811816155f5565b811461581c57600080fd5b50565b615828816156af565b811461583357600080fd5b50565b61583f816156fb565b811461584a57600080fd5b5056fea365627a7a72305820198b7b0c0707af28834685f901e611457f7bee6bcc2ed11ff5914700b36fd5d06c6578706572696d656e74616cf564736f6c634300050a0040",
  "source": "pragma solidity ^0.5.10;\npragma experimental ABIEncoderV2;\n\n\nimport \"openzeppelin-solidity/contracts/math/SafeMath.sol\";\n\nimport \"../interfaces/IDetherToken.sol\";\nimport \"../interfaces/IUsers.sol\";\nimport \"../interfaces/IGeoRegistry.sol\";\nimport \"../interfaces/IZoneFactory.sol\";\nimport \"../interfaces/IZone.sol\";\n\ncontract Shops {\n  // ------------------------------------------------\n  //\n  // Libraries\n  //\n  // ------------------------------------------------\n\n  using SafeMath for uint;\n\n  // ------------------------------------------------\n  //\n  // Enums\n  //\n  // ------------------------------------------------\n\n  enum Party {Shop, Challenger}\n  enum RulingOptions {NoRuling, ShopWins, ChallengerWins}\n  /* enum DisputeStatus {Waiting, Appealable, Solved} // copied from IArbitrable.sol */\n\n  // ------------------------------------------------\n  //\n  // Structs\n  //\n  // ------------------------------------------------\n\n  struct Shop {\n    bytes12 position; // 12 char geohash for location of teller\n    bytes16 category;\n    bytes16 name;\n    bytes32 description;\n    bytes16 opening;\n    bytes6 geohashZoneBase;\n    uint staked;\n    uint licencePrice;\n    uint lastTaxTime;\n    bool hasDispute;\n    uint disputeID;\n    uint _index;\n  }\n  \n  // ------------------------------------------------\n  //\n  // Variables Public\n  //\n  // ------------------------------------------------\n\n  uint stakedDth;\n\n  // links to other contracts\n  IDetherToken public dth;\n  IGeoRegistry public geo;\n  IUsers public users;\n  IZoneFactory public zoneFactory;\n  address public shopsDispute;\n  address public disputeStarter;\n  bool disputeEnabled = false;\n\n  // constant\n  uint public constant DAILY_TAX= 42; // 1/42 daily\n  uint public floorLicencePrice = 42000000000000000000;\n\n    //    bytes6 geohash priceDTH\n  mapping(bytes6 =>   uint) public zoneLicencePrice;\n\n  //      geohash12   shopAddress\n  mapping(bytes12 =>  address) public positionToShopAddress;\n\n  //      geohash6    shopAddresses\n  mapping(bytes6 =>   address[]) public zoneToShopAddresses;\n\n  mapping(address => uint) public withdrawableDth;\n\n  // ------------------------------------------------\n  //\n  // Variables Private\n  //\n  // ------------------------------------------------\n\n  //      shopAddress shopStruct\n  mapping(address =>  Shop) private shopAddressToShop;\n\n  // ------------------------------------------------\n  //\n  // Events\n  //\n  // ------------------------------------------------\n  event logShopData(bytes16 _name, uint _staked, uint _licencePrice, uint _lastTaxTime);\n  event logUint(uint _uint, string _log);\n  event logString(string _string);\n  event TaxPayedToBy(uint amount, address to, address by);\n  event TaxTotalPaidTo(uint amount, address to);\n  // ------------------------------------------------\n  //\n  // Modifiers\n  //\n  // ------------------------------------------------\n\n  modifier onlyWhenDisputeEnabled {\n    require(disputeEnabled, \"Can only be called when dispute is enabled\");\n    _;\n  }\n\n  modifier onlyWhenCallerIsShopsDispute {\n    require(msg.sender == shopsDispute, \"can only be called by shopsDispute contract\");\n    _;\n  }\n\n  modifier onlyWhenCallerIsDTH {\n    require(msg.sender == address(dth), \"can only be called by dth contract\");\n    _;\n  }\n\n  modifier onlyWhenNoDispute(address _shopAddress) {\n    if (disputeEnabled) {\n      require(!shopAddressToShop[_shopAddress].hasDispute, \"shop has dispute\");\n    }\n    _;\n  }\n\n  modifier onlyWhenCallerIsShop {\n    require(shopAddressToShop[msg.sender].position != bytes12(0), \"caller is not shop\");\n    _;\n  }\n\n  // ------------------------------------------------\n  //\n  // Events\n  //\n  // ------------------------------------------------\n\n  // ------------------------------------------------\n  //\n  // Constructor\n  //\n  // ------------------------------------------------\n\n  constructor(address _dth, address _geo, address _users, address _zoneFactory)\n    public\n  {\n    require(_dth != address(0), \"dth address cannot be 0x0\");\n    require(_geo != address(0), \"geo address cannot be 0x0\");\n    require(_users != address(0), \"users address cannot be 0x0\");\n    require(_zoneFactory != address(0), \"zoneFactory address cannot be 0x0\");\n\n    dth = IDetherToken(_dth);\n    geo = IGeoRegistry(_geo);\n    users = IUsers(_users);\n    zoneFactory = IZoneFactory(_zoneFactory);\n    disputeStarter = msg.sender;\n  }\n  function setShopsDisputeContract(address _shopsDispute)\n    external\n  {\n    require(_shopsDispute != address(0), \"shops dispute contract cannot be 0x0\");\n    require(msg.sender == disputeStarter);\n    require(disputeEnabled == false);\n    shopsDispute = _shopsDispute;\n  }\n  function enableDispute()\n    external \n    {\n      require(msg.sender == disputeStarter);\n      require(shopsDispute != address(0), \"shopsDispute contract has not been set\");\n      disputeEnabled = true;\n    }\n  // ------------------------------------------------\n  //\n  // Functions Getters Public\n  //\n  // ------------------------------------------------\n\n  function getShopByAddr(address _addr)\n    public\n    view\n    returns (bytes12, bytes16, bytes16, bytes32, bytes16, uint, bool, uint, uint, uint)\n  {\n    Shop memory shop = shopAddressToShop[_addr];\n\n    return (\n      shop.position,\n      shop.category,\n      shop.name,\n      shop.description,\n      shop.opening,\n      shop.staked,\n      shop.hasDispute,\n      shop.disputeID,\n      shop.lastTaxTime,\n      shop.licencePrice\n    );\n  }\n\n  function getShopByPos(bytes12 _position)\n    external\n    view\n    returns (bytes12, bytes16, bytes16, bytes32, bytes16, uint, bool, uint, uint, uint)\n  {\n    address shopAddr = positionToShopAddress[_position];\n    return getShopByAddr(shopAddr);\n  }\n\n  function getShopAddressesInZone(bytes6 _zoneGeohash)\n    external\n    view\n    returns (address[] memory)\n  {\n    return zoneToShopAddresses[_zoneGeohash];\n  }\n\n  function shopByAddrExists(address _shopAddress)\n    external\n    view\n    returns (bool)\n  {\n    return shopAddressToShop[_shopAddress].position != bytes12(0);\n  }\n\n  function getShopDisputeID(address _shopAddress)\n    external\n    view\n    returns (uint)\n  {\n    require(shopAddressToShop[_shopAddress].position != bytes12(0), \"shop does not exist\");\n    require(shopAddressToShop[_shopAddress].hasDispute, \"shop has no dispute\");\n    return shopAddressToShop[_shopAddress].disputeID;\n  }\n\n  function hasDispute(address _shopAddress)\n    external\n    view\n    returns (bool)\n  {\n    require(shopAddressToShop[_shopAddress].position != bytes12(0), \"shop does not exist\");\n    return shopAddressToShop[_shopAddress].hasDispute;\n  }\n\n  function getShopStaked(address _shopAddress)\n    external\n    view\n    returns (uint)\n  {\n    require(shopAddressToShop[_shopAddress].position != bytes12(0), \"shop does not exist\");\n    return shopAddressToShop[_shopAddress].staked;\n  }\n\n  // ------------------------------------------------\n  //\n  // Functions Getters Private\n  //\n  // ------------------------------------------------\n\n  function toBytes1(bytes memory _bytes, uint _start)\n    private\n    pure\n    returns (bytes1) {\n      require(_bytes.length >= (_start + 1), \" not long enough\");\n      bytes1 tempBytes1;\n\n      assembly {\n          tempBytes1 := mload(add(add(_bytes, 0x20), _start))\n      }\n\n      return tempBytes1;\n  }\n  function toBytes2(bytes memory _bytes, uint _start)\n    private\n    pure\n    returns (bytes2) {\n      require(_bytes.length >= (_start + 2), \" not long enough\");\n      bytes2 tempBytes2;\n\n      assembly {\n          tempBytes2 := mload(add(add(_bytes, 0x20), _start))\n      }\n\n      return tempBytes2;\n  }\n  function toBytes6(bytes memory _bytes, uint _start)\n    private\n    pure\n    returns (bytes6)\n  {\n    require(_bytes.length >= (_start + 6), \" not long enough\");\n    bytes6 tempBytes6;\n\n    assembly {\n        tempBytes6 := mload(add(add(_bytes, 0x20), _start))\n    }\n\n    return tempBytes6;\n  }\n  function toBytes12(bytes memory _bytes, uint _start)\n    private\n    pure\n    returns (bytes12) {\n      require(_bytes.length >= (_start + 12), \" not long enough\");\n      bytes12 tempBytes12;\n\n      assembly {\n          tempBytes12 := mload(add(add(_bytes, 0x20), _start))\n      }\n\n      return tempBytes12;\n  }\n  function toBytes16(bytes memory _bytes, uint _start)\n    private\n    pure\n    returns (bytes16) {\n      require(_bytes.length >= (_start + 16), \" not long enough\");\n      bytes16 tempBytes16;\n\n      assembly {\n          tempBytes16 := mload(add(add(_bytes, 0x20), _start))\n      }\n\n      return tempBytes16;\n  }\n  function toBytes32(bytes memory _bytes, uint _start)\n    private\n    pure\n    returns (bytes32) {\n      require(_bytes.length >= (_start + 32), \" not long enough\");\n      bytes32 tempBytes32;\n\n      assembly {\n          tempBytes32 := mload(add(add(_bytes, 0x20), _start))\n      }\n\n      return tempBytes32;\n  }\n\n  // ------------------------------------------------\n  //\n  // Functions Setters Public\n  //\n  // ------------------------------------------------\n  \n  function setZoneLicensePrice(bytes6 _zoneGeohash, uint _priceDTH)\n    external\n  {\n    address zoneAddress = zoneFactory.geohashToZone(_zoneGeohash);\n    require(zoneAddress != address(0), \"zone is not already owned\");\n    IZone zoneInstance = IZone(zoneAddress);\n    address zoneOwner = zoneInstance.ownerAddr();\n    require(msg.sender == zoneOwner,\"only zone owner can modify the licence price\");\n    require(_priceDTH > floorLicencePrice, \"price should be superior to the floor price\");\n    zoneLicencePrice[_zoneGeohash] = _priceDTH;\n  }\n//   event logShopData(bytes16 _name, uint _staked, uint _licencePrice, uint _startTime, _lastTaxTime);\n\n  function calcShopTax(uint _startTime, uint _endTime, uint _licencePrice)\n    public\n    view\n    returns (uint taxAmount)\n  {\n    taxAmount = _licencePrice.mul(_endTime.sub(_startTime)).div(DAILY_TAX).div(1 days);\n  }\n\n  function collectTax(bytes6 _zoneGeohash, uint _start, uint _end)\n    public\n  {\n    address zoneAddress = zoneFactory.geohashToZone(_zoneGeohash);\n    require(zoneAddress != address(0), \"zone is not already owned\");\n    IZone zoneInstance = IZone(zoneAddress);\n    address zoneOwner = zoneInstance.ownerAddr();\n    // require(msg.sender == zoneOwner, \"only zone owner can collect taxes\");\n\n    address[] memory shopsinZone = zoneToShopAddresses[_zoneGeohash];\n    require(_end - _start <= shopsinZone.length, \"start and end value are bigger than address[]\");\n    // loop on all shops present on his zone and:\n    // collect taxes if possible\n    // delete point if no more enough stake\n    uint taxToSendToZoneOwner = 0;\n    for (uint i = _start; i < _end; i+= 1) {\n\n      uint taxAmount = calcShopTax(shopAddressToShop[shopsinZone[i]].lastTaxTime, now, shopAddressToShop[shopsinZone[i]].licencePrice);\n      if (taxAmount > shopAddressToShop[shopsinZone[i]].staked) {\n        // shop pay what he can and is deleted\n        taxToSendToZoneOwner = taxToSendToZoneOwner.add(shopAddressToShop[shopsinZone[i]].staked);\n        _deleteShop(shopsinZone[i]);\n      } else {\n        shopAddressToShop[shopsinZone[i]].staked = shopAddressToShop[shopsinZone[i]].staked.sub(taxAmount);\n\n        taxToSendToZoneOwner = taxToSendToZoneOwner.add(taxAmount);\n\n        shopAddressToShop[shopsinZone[i]].lastTaxTime = now;\n      }\n    }\n    emit logUint(taxToSendToZoneOwner, 'tax to send zone owner');\n    dth.transfer(zoneOwner, taxToSendToZoneOwner);\n    stakedDth = stakedDth.sub(taxToSendToZoneOwner);\n    emit TaxTotalPaidTo(taxToSendToZoneOwner, zoneOwner);\n  }\n\n  function tokenFallback(address _from, uint _value, bytes memory _data)\n    public\n    onlyWhenCallerIsDTH\n  {\n    require(_data.length == 95, \"addShop expects 95 bytes as data\");\n\n    address sender = _from;\n    uint dthAmount = _value;\n\n    bytes1 fn = toBytes1(_data, 0);\n    require(fn == bytes1(0x30) || fn == bytes1(0x31), \"first byte didnt match func shop\");\n\n    if (fn == bytes1(0x31)) {         // shop account top up\n      _topUp(sender, _value);\n    } else if (fn == bytes1(0x30)) {  // shop creation\n      bytes2 country = toBytes2(_data, 1);\n      bytes12 position = toBytes12(_data, 3);\n      bytes16 category = toBytes16(_data, 15);\n      bytes16 name = toBytes16(_data, 31);\n      bytes32 description = toBytes32(_data, 47);\n      bytes16 opening = toBytes16(_data, 79);\n\n      require(geo.countryIsEnabled(country), \"country is disabled\");\n      require(shopAddressToShop[sender].position == bytes12(0), \"caller already has shop\");\n      require(positionToShopAddress[position] == address(0), \"shop already exists at position\");\n      require(geo.validGeohashChars12(position), \"invalid geohash characters in position\");\n      require(geo.zoneInsideCountry(country, bytes4(position)), \"zone is not inside country\");\n\n      // check the price for adding shop in this zone (geohash6)\n      uint zoneValue = zoneLicencePrice[bytes6(position)] > floorLicencePrice ? zoneLicencePrice[bytes6(position)] : floorLicencePrice;\n      require(dthAmount >= zoneValue, \"send dth is less than shop license price\");\n\n      // create new entry in storage\n      Shop storage shop = shopAddressToShop[sender];\n      shop.position = position; // a 12 character geohash\n      shop.category = category;\n      shop.name = name;\n      shop.description = description;\n      shop.opening = opening;\n      shop.staked = dthAmount;\n      shop.hasDispute = false;\n      shop.disputeID = 0; // dispute could have id 0..\n      shop.geohashZoneBase = bytes6(position);\n      shop.licencePrice = zoneValue;\n      shop.lastTaxTime = now;\n      stakedDth = stakedDth.add(dthAmount);\n\n      // so we can get a shop based on its position\n      positionToShopAddress[position] = sender;\n\n      // a zone is a 6 character geohash, we keep track of all shops in a given zone\n      shop._index = zoneToShopAddresses[bytes6(position)].push(sender);\n    }\n  }\n\n  function _topUp(address _sender, uint _dthAmount) // GAS COST +/- 104.201\n    private\n  {\n    require(shopAddressToShop[_sender].lastTaxTime > 0, 'Shop does not exist'); // TODO change the value of the check\n    shopAddressToShop[_sender].staked = shopAddressToShop[_sender].staked.add(_dthAmount);\n    stakedDth = stakedDth.add(_dthAmount);\n  }\n\n  function _deleteShop(address shopAddress)\n    private\n  {\n    bytes12 position = shopAddressToShop[shopAddress].position;\n\n    delete shopAddressToShop[shopAddress];\n\n    positionToShopAddress[position] = address(0);\n\n    delete positionToShopAddress[shopAddressToShop[shopAddress].position];\n    uint indexToRemove = shopAddressToShop[shopAddress]._index;\n    zoneToShopAddresses[bytes6(position)][indexToRemove] = zoneToShopAddresses[bytes6(position)][zoneToShopAddresses[bytes6(position)].length - 1];\n    shopAddressToShop[zoneToShopAddresses[bytes6(position)][indexToRemove]]._index = indexToRemove;\n    zoneToShopAddresses[bytes6(position)].length--;\n    delete shopAddressToShop[shopAddress];\n  }\n\n  function removeShop()\n    external\n    onlyWhenCallerIsShop\n    onlyWhenNoDispute(msg.sender)\n  {\n    uint shopStake = shopAddressToShop[msg.sender].staked;\n\n    _deleteShop(msg.sender);\n\n    dth.transfer(msg.sender, shopStake);\n    stakedDth = stakedDth.sub(shopStake);\n  }\n\n  function removeShopFromZoneOwner(address _shopAddress, bytes6 _zoneGeohash)\n    external\n  {\n    require(disputeEnabled == false, 'Once activated, only dispute contract can remove shop');\n    address zoneAddress = zoneFactory.geohashToZone(_zoneGeohash);\n    IZone zoneInstance = IZone(zoneAddress);\n    address zoneOwner = zoneInstance.ownerAddr();\n    require(msg.sender == zoneOwner, 'msg.sender is not the owner of the zone');\n    bytes12 shopPos = shopAddressToShop[_shopAddress].position;\n    bytes6 zoneGeohash = zoneInstance.geohash();\n    require(bytes6(shopPos) == zoneGeohash, \"position is not inside this zone\");\n    uint shopStake = shopAddressToShop[_shopAddress].staked;\n\n    _deleteShop(_shopAddress);\n\n    dth.transfer(_shopAddress, shopStake);\n    stakedDth = stakedDth.sub(shopStake);\n  }\n\n  function withdrawDth()\n    external\n  {\n    uint dthWithdraw = withdrawableDth[msg.sender];\n    require(dthWithdraw > 0, \"nothing to withdraw\");\n\n    withdrawableDth[msg.sender] = 0;\n    dth.transfer(msg.sender, dthWithdraw);\n    stakedDth = stakedDth.sub(dthWithdraw);\n  }\n\n  //\n  // called by shopsDispute contract\n  //\n\n  function setDispute(address _shopAddress, uint _disputeID)\n    external\n    onlyWhenCallerIsShopsDispute\n    onlyWhenDisputeEnabled\n  {\n    require(shopAddressToShop[_shopAddress].position != bytes12(0), \"shop does not exist\");\n    shopAddressToShop[_shopAddress].hasDispute = true;\n    shopAddressToShop[_shopAddress].disputeID = _disputeID;\n  }\n\n  function unsetDispute(address _shopAddress)\n    external\n    onlyWhenCallerIsShopsDispute\n    onlyWhenDisputeEnabled\n  {\n    require(shopAddressToShop[_shopAddress].position != bytes12(0), \"shop does not exist\");\n    shopAddressToShop[_shopAddress].hasDispute = false;\n    shopAddressToShop[_shopAddress].disputeID = 0;\n  }\n\n  function removeDisputedShop(address _shopAddress, address _challenger)\n    external\n    onlyWhenDisputeEnabled\n    onlyWhenCallerIsShopsDispute\n  {\n    uint shopStake = shopAddressToShop[_shopAddress].staked;\n\n    _deleteShop(_shopAddress);\n\n    withdrawableDth[_challenger] = shopStake;\n  }\n}\n",
  "sourcePath": "/Users/mehdi/code/dether/contractV2/contracts/core/Shops.sol",
  "compiler": {
    "name": "solc",
    "version": "0.5.10+commit.5a6ea5b1.Emscripten.clang"
  },
  "schemaVersion": "3.0.11",
  "updatedAt": "2019-07-13T18:40:06.477Z",
  "devdoc": {
    "methods": {}
  },
  "userdoc": {
    "methods": {}
  }
}