{
  "contractName": "Shops",
  "abi": [
    {
      "constant": true,
      "inputs": [],
      "name": "dth",
      "outputs": [
        {
          "name": "",
          "type": "address"
        }
      ],
      "payable": false,
      "stateMutability": "view",
      "type": "function"
    },
    {
      "constant": true,
      "inputs": [
        {
          "name": "",
          "type": "bytes6"
        }
      ],
      "name": "zoneLicencePrice",
      "outputs": [
        {
          "name": "",
          "type": "uint256"
        }
      ],
      "payable": false,
      "stateMutability": "view",
      "type": "function"
    },
    {
      "constant": true,
      "inputs": [
        {
          "name": "",
          "type": "address"
        }
      ],
      "name": "withdrawableDth",
      "outputs": [
        {
          "name": "",
          "type": "uint256"
        }
      ],
      "payable": false,
      "stateMutability": "view",
      "type": "function"
    },
    {
      "constant": true,
      "inputs": [
        {
          "name": "",
          "type": "bytes12"
        }
      ],
      "name": "positionToShopAddress",
      "outputs": [
        {
          "name": "",
          "type": "address"
        }
      ],
      "payable": false,
      "stateMutability": "view",
      "type": "function"
    },
    {
      "constant": true,
      "inputs": [],
      "name": "TAX",
      "outputs": [
        {
          "name": "",
          "type": "uint256"
        }
      ],
      "payable": false,
      "stateMutability": "view",
      "type": "function"
    },
    {
      "constant": true,
      "inputs": [
        {
          "name": "",
          "type": "bytes6"
        },
        {
          "name": "",
          "type": "uint256"
        }
      ],
      "name": "zoneToShopAddresses",
      "outputs": [
        {
          "name": "",
          "type": "address"
        }
      ],
      "payable": false,
      "stateMutability": "view",
      "type": "function"
    },
    {
      "constant": true,
      "inputs": [],
      "name": "zoneFactory",
      "outputs": [
        {
          "name": "",
          "type": "address"
        }
      ],
      "payable": false,
      "stateMutability": "view",
      "type": "function"
    },
    {
      "constant": true,
      "inputs": [],
      "name": "disputeStarter",
      "outputs": [
        {
          "name": "",
          "type": "address"
        }
      ],
      "payable": false,
      "stateMutability": "view",
      "type": "function"
    },
    {
      "constant": true,
      "inputs": [],
      "name": "shopsDispute",
      "outputs": [
        {
          "name": "",
          "type": "address"
        }
      ],
      "payable": false,
      "stateMutability": "view",
      "type": "function"
    },
    {
      "constant": true,
      "inputs": [],
      "name": "stakedDth",
      "outputs": [
        {
          "name": "",
          "type": "uint256"
        }
      ],
      "payable": false,
      "stateMutability": "view",
      "type": "function"
    },
    {
      "constant": true,
      "inputs": [],
      "name": "geo",
      "outputs": [
        {
          "name": "",
          "type": "address"
        }
      ],
      "payable": false,
      "stateMutability": "view",
      "type": "function"
    },
    {
      "constant": true,
      "inputs": [],
      "name": "users",
      "outputs": [
        {
          "name": "",
          "type": "address"
        }
      ],
      "payable": false,
      "stateMutability": "view",
      "type": "function"
    },
    {
      "constant": true,
      "inputs": [],
      "name": "floorLicencePrice",
      "outputs": [
        {
          "name": "",
          "type": "uint256"
        }
      ],
      "payable": false,
      "stateMutability": "view",
      "type": "function"
    },
    {
      "inputs": [
        {
          "name": "_dth",
          "type": "address"
        },
        {
          "name": "_geo",
          "type": "address"
        },
        {
          "name": "_users",
          "type": "address"
        },
        {
          "name": "_zoneFactory",
          "type": "address"
        }
      ],
      "payable": false,
      "stateMutability": "nonpayable",
      "type": "constructor"
    },
    {
      "anonymous": false,
      "inputs": [
        {
          "indexed": false,
          "name": "amount",
          "type": "uint256"
        },
        {
          "indexed": false,
          "name": "to",
          "type": "address"
        }
      ],
      "name": "TaxTotalPaidTo",
      "type": "event"
    },
    {
      "constant": false,
      "inputs": [
        {
          "name": "_shopsDispute",
          "type": "address"
        }
      ],
      "name": "setShopsDisputeContract",
      "outputs": [],
      "payable": false,
      "stateMutability": "nonpayable",
      "type": "function"
    },
    {
      "constant": false,
      "inputs": [],
      "name": "enableDispute",
      "outputs": [],
      "payable": false,
      "stateMutability": "nonpayable",
      "type": "function"
    },
    {
      "constant": true,
      "inputs": [
        {
          "name": "_addr",
          "type": "address"
        }
      ],
      "name": "getShopByAddr",
      "outputs": [
        {
          "name": "",
          "type": "bytes12"
        },
        {
          "name": "",
          "type": "bytes16"
        },
        {
          "name": "",
          "type": "bytes16"
        },
        {
          "name": "",
          "type": "bytes32"
        },
        {
          "name": "",
          "type": "bytes16"
        },
        {
          "name": "",
          "type": "uint256"
        },
        {
          "name": "",
          "type": "bool"
        },
        {
          "name": "",
          "type": "uint256"
        },
        {
          "name": "",
          "type": "uint256"
        },
        {
          "name": "",
          "type": "uint256"
        }
      ],
      "payable": false,
      "stateMutability": "view",
      "type": "function"
    },
    {
      "constant": true,
      "inputs": [
        {
          "name": "_position",
          "type": "bytes12"
        }
      ],
      "name": "getShopByPos",
      "outputs": [
        {
          "name": "",
          "type": "bytes12"
        },
        {
          "name": "",
          "type": "bytes16"
        },
        {
          "name": "",
          "type": "bytes16"
        },
        {
          "name": "",
          "type": "bytes32"
        },
        {
          "name": "",
          "type": "bytes16"
        },
        {
          "name": "",
          "type": "uint256"
        },
        {
          "name": "",
          "type": "bool"
        },
        {
          "name": "",
          "type": "uint256"
        },
        {
          "name": "",
          "type": "uint256"
        },
        {
          "name": "",
          "type": "uint256"
        }
      ],
      "payable": false,
      "stateMutability": "view",
      "type": "function"
    },
    {
      "constant": true,
      "inputs": [
        {
          "name": "_zoneGeohash",
          "type": "bytes6"
        }
      ],
      "name": "getShopAddressesInZone",
      "outputs": [
        {
          "name": "",
          "type": "address[]"
        }
      ],
      "payable": false,
      "stateMutability": "view",
      "type": "function"
    },
    {
      "constant": true,
      "inputs": [
        {
          "name": "_shopAddress",
          "type": "address"
        }
      ],
      "name": "shopByAddrExists",
      "outputs": [
        {
          "name": "",
          "type": "bool"
        }
      ],
      "payable": false,
      "stateMutability": "view",
      "type": "function"
    },
    {
      "constant": true,
      "inputs": [
        {
          "name": "_shopAddress",
          "type": "address"
        }
      ],
      "name": "getShopDisputeID",
      "outputs": [
        {
          "name": "",
          "type": "uint256"
        }
      ],
      "payable": false,
      "stateMutability": "view",
      "type": "function"
    },
    {
      "constant": true,
      "inputs": [
        {
          "name": "_shopAddress",
          "type": "address"
        }
      ],
      "name": "hasDispute",
      "outputs": [
        {
          "name": "",
          "type": "bool"
        }
      ],
      "payable": false,
      "stateMutability": "view",
      "type": "function"
    },
    {
      "constant": true,
      "inputs": [
        {
          "name": "_shopAddress",
          "type": "address"
        }
      ],
      "name": "getShopStaked",
      "outputs": [
        {
          "name": "",
          "type": "uint256"
        }
      ],
      "payable": false,
      "stateMutability": "view",
      "type": "function"
    },
    {
      "constant": false,
      "inputs": [
        {
          "name": "_zoneGeohash",
          "type": "bytes6"
        },
        {
          "name": "_priceDTH",
          "type": "uint256"
        }
      ],
      "name": "setZoneLicensePrice",
      "outputs": [],
      "payable": false,
      "stateMutability": "nonpayable",
      "type": "function"
    },
    {
      "constant": true,
      "inputs": [
        {
          "name": "_startTime",
          "type": "uint256"
        },
        {
          "name": "_endTime",
          "type": "uint256"
        },
        {
          "name": "_licencePrice",
          "type": "uint256"
        }
      ],
      "name": "calcShopTax",
      "outputs": [
        {
          "name": "taxAmount",
          "type": "uint256"
        }
      ],
      "payable": false,
      "stateMutability": "view",
      "type": "function"
    },
    {
      "constant": false,
      "inputs": [
        {
          "name": "_zoneGeohash",
          "type": "bytes6"
        },
        {
          "name": "_start",
          "type": "uint256"
        },
        {
          "name": "_end",
          "type": "uint256"
        }
      ],
      "name": "collectTax",
      "outputs": [],
      "payable": false,
      "stateMutability": "nonpayable",
      "type": "function"
    },
    {
      "constant": false,
      "inputs": [
        {
          "name": "_from",
          "type": "address"
        },
        {
          "name": "_value",
          "type": "uint256"
        },
        {
          "name": "_data",
          "type": "bytes"
        }
      ],
      "name": "tokenFallback",
      "outputs": [],
      "payable": false,
      "stateMutability": "nonpayable",
      "type": "function"
    },
    {
      "constant": false,
      "inputs": [],
      "name": "removeShop",
      "outputs": [],
      "payable": false,
      "stateMutability": "nonpayable",
      "type": "function"
    },
    {
      "constant": false,
      "inputs": [
        {
          "name": "_shopAddress",
          "type": "address"
        },
        {
          "name": "_zoneGeohash",
          "type": "bytes6"
        }
      ],
      "name": "removeShopFromZoneOwner",
      "outputs": [],
      "payable": false,
      "stateMutability": "nonpayable",
      "type": "function"
    },
    {
      "constant": false,
      "inputs": [],
      "name": "withdrawDth",
      "outputs": [],
      "payable": false,
      "stateMutability": "nonpayable",
      "type": "function"
    },
    {
      "constant": false,
      "inputs": [
        {
          "name": "_shopAddress",
          "type": "address"
        },
        {
          "name": "_disputeID",
          "type": "uint256"
        }
      ],
      "name": "setDispute",
      "outputs": [],
      "payable": false,
      "stateMutability": "nonpayable",
      "type": "function"
    },
    {
      "constant": false,
      "inputs": [
        {
          "name": "_shopAddress",
          "type": "address"
        }
      ],
      "name": "unsetDispute",
      "outputs": [],
      "payable": false,
      "stateMutability": "nonpayable",
      "type": "function"
    },
    {
      "constant": false,
      "inputs": [
        {
          "name": "_shopAddress",
          "type": "address"
        },
        {
          "name": "_challenger",
          "type": "address"
        }
      ],
      "name": "removeDisputedShop",
      "outputs": [],
      "payable": false,
      "stateMutability": "nonpayable",
      "type": "function"
    }
  ],
  "bytecode": "0x60806040526000600660146101000a81548160ff0219169083151502179055503480156200002c57600080fd5b5060405162005eca38038062005eca833981810160405262000052919081019062000384565b600073ffffffffffffffffffffffffffffffffffffffff168473ffffffffffffffffffffffffffffffffffffffff161415620000c5576040517f08c379a0000000000000000000000000000000000000000000000000000000008152600401620000bc906200051e565b60405180910390fd5b600073ffffffffffffffffffffffffffffffffffffffff168373ffffffffffffffffffffffffffffffffffffffff16141562000138576040517f08c379a00000000000000000000000000000000000000000000000000000000081526004016200012f9062000562565b60405180910390fd5b600073ffffffffffffffffffffffffffffffffffffffff168273ffffffffffffffffffffffffffffffffffffffff161415620001ab576040517f08c379a0000000000000000000000000000000000000000000000000000000008152600401620001a29062000540565b60405180910390fd5b600073ffffffffffffffffffffffffffffffffffffffff168173ffffffffffffffffffffffffffffffffffffffff1614156200021e576040517f08c379a0000000000000000000000000000000000000000000000000000000008152600401620002159062000584565b60405180910390fd5b83600160006101000a81548173ffffffffffffffffffffffffffffffffffffffff021916908373ffffffffffffffffffffffffffffffffffffffff16021790555082600260006101000a81548173ffffffffffffffffffffffffffffffffffffffff021916908373ffffffffffffffffffffffffffffffffffffffff16021790555081600360006101000a81548173ffffffffffffffffffffffffffffffffffffffff021916908373ffffffffffffffffffffffffffffffffffffffff16021790555080600460006101000a81548173ffffffffffffffffffffffffffffffffffffffff021916908373ffffffffffffffffffffffffffffffffffffffff16021790555033600660006101000a81548173ffffffffffffffffffffffffffffffffffffffff021916908373ffffffffffffffffffffffffffffffffffffffff1602179055505050505062000605565b6000815190506200037e81620005eb565b92915050565b600080600080608085870312156200039b57600080fd5b6000620003ab878288016200036d565b9450506020620003be878288016200036d565b9350506040620003d1878288016200036d565b9250506060620003e4878288016200036d565b91505092959194509250565b6000620003ff601983620005a6565b91507f64746820616464726573732063616e6e6f7420626520307830000000000000006000830152602082019050919050565b600062000441601b83620005a6565b91507f757365727320616464726573732063616e6e6f742062652030783000000000006000830152602082019050919050565b600062000483601983620005a6565b91507f67656f20616464726573732063616e6e6f7420626520307830000000000000006000830152602082019050919050565b6000620004c5602183620005a6565b91507f7a6f6e65466163746f727920616464726573732063616e6e6f7420626520307860008301527f30000000000000000000000000000000000000000000000000000000000000006020830152604082019050919050565b600060208201905081810360008301526200053981620003f0565b9050919050565b600060208201905081810360008301526200055b8162000432565b9050919050565b600060208201905081810360008301526200057d8162000474565b9050919050565b600060208201905081810360008301526200059f81620004b6565b9050919050565b600082825260208201905092915050565b6000620005c482620005cb565b9050919050565b600073ffffffffffffffffffffffffffffffffffffffff82169050919050565b620005f681620005b7565b81146200060257600080fd5b50565b6158b580620006156000396000f3fe608060405234801561001057600080fd5b50600436106101f05760003560e01c806386caeae81161010f578063c732ff3e116100a2578063e053e20911610071578063e053e209146105b7578063f2020275146105e7578063f74354cc14610605578063f78fdd8e14610635576101f0565b8063c732ff3e14610555578063cb89d8771461055f578063d3d6c8581461057d578063d944e6a314610599576101f0565b80639a469b3b116100de5780639a469b3b146104cf578063a64db62b146104eb578063a990b50514610509578063c0ee0b8a14610539576101f0565b806386caeae8146104495780638c57e6a1146104795780638e9820191461049557806390a0ed12146104b3576101f0565b80636584081011610187578063771306d411610156578063771306d4146103c35780637a4f8e22146103df5780637b9a73011461040f5780637dd03a6f1461042d576101f0565b8063658408101461034f57806366e603191461036b57806368f58b031461039b57806373912aac146103b9576101f0565b80632ccf449b116101c35780632ccf449b146102ac57806339cad148146102b65780633b23d6cd146102e65780635840486414610316576101f0565b806301e57a37146101f55780630ea52eae1461021357806320ad4d371461024c5780632c2f3d131461027c575b600080fd5b6101fd610653565b60405161020a91906150e9565b60405180910390f35b61022d60048036036102289190810190614335565b610679565b6040516102439a99989796959493929190614fee565b60405180910390f35b6102666004803603610261919081019061435e565b610719565b6040516102739190615515565b60405180910390f35b6102966004803603610291919081019061419f565b610731565b6040516102a39190615515565b60405180910390f35b6102b4610749565b005b6102d060048036036102cb919081019061443b565b610888565b6040516102dd9190615515565b60405180910390f35b61030060048036036102fb9190810190614335565b6108e0565b60405161030d9190614f29565b60405180910390f35b610330600480360361032b919081019061419f565b610913565b6040516103469a99989796959493929190614fee565b60405180910390f35b61036960048036036103649190810190614269565b610b72565b005b6103856004803603610380919081019061419f565b610dbb565b6040516103929190614fb8565b60405180910390f35b6103a3610ed7565b6040516103b09190615515565b60405180910390f35b6103c1610edc565b005b6103dd60048036036103d891908101906141f1565b61116e565b005b6103f960048036036103f491908101906143b0565b6112e6565b6040516104069190614f29565b60405180910390f35b610417611331565b604051610424919061513a565b60405180910390f35b610447600480360361044291908101906143b0565b611357565b005b610463600480360361045e919081019061419f565b61160f565b6040516104709190614fb8565b60405180910390f35b610493600480360361048e91908101906143ec565b61169c565b005b61049d611d73565b6040516104aa9190614f29565b60405180910390f35b6104cd60048036036104c8919081019061419f565b611d99565b005b6104e960048036036104e4919081019061419f565b611fe2565b005b6104f361217c565b6040516105009190614f29565b60405180910390f35b610523600480360361051e919081019061419f565b6121a2565b6040516105309190615515565b60405180910390f35b610553600480360361054e91908101906142a5565b612340565b005b61055d612e76565b005b610567613018565b6040516105749190615515565b60405180910390f35b6105976004803603610592919081019061422d565b61301e565b005b6105a1613497565b6040516105ae9190615104565b60405180910390f35b6105d160048036036105cc919081019061435e565b6134bd565b6040516105de9190614f96565b60405180910390f35b6105ef613598565b6040516105fc919061511f565b60405180910390f35b61061f600480360361061a919081019061419f565b6135be565b60405161062c9190615515565b60405180910390f35b61063d6136cd565b60405161064a9190615515565b60405180910390f35b600160009054906101000a900473ffffffffffffffffffffffffffffffffffffffff1681565b6000806000806000806000806000806000600860008d73ffffffffffffffffffffffffffffffffffffffff191673ffffffffffffffffffffffffffffffffffffffff1916815260200190815260200160002060009054906101000a900473ffffffffffffffffffffffffffffffffffffffff1690506106f781610913565b9a509a509a509a509a509a509a509a509a509a50509193959799509193959799565b60076020528060005260406000206000915090505481565b600a6020528060005260406000206000915090505481565b600660009054906101000a900473ffffffffffffffffffffffffffffffffffffffff1673ffffffffffffffffffffffffffffffffffffffff163373ffffffffffffffffffffffffffffffffffffffff16146107d9576040517f08c379a00000000000000000000000000000000000000000000000000000000081526004016107d090615375565b60405180910390fd5b600073ffffffffffffffffffffffffffffffffffffffff16600560009054906101000a900473ffffffffffffffffffffffffffffffffffffffff1673ffffffffffffffffffffffffffffffffffffffff16141561086b576040517f08c379a000000000000000000000000000000000000000000000000000000000815260040161086290615335565b60405180910390fd5b6001600660146101000a81548160ff021916908315150217905550565b60006108d7620151806108c9602a6108bb6108ac89896136da90919063ffffffff16565b876136fa90919063ffffffff16565b61373490919063ffffffff16565b61373490919063ffffffff16565b90509392505050565b60086020528060005260406000206000915054906101000a900473ffffffffffffffffffffffffffffffffffffffff1681565b60008060008060008060008060008061092a613fe5565b600b60008d73ffffffffffffffffffffffffffffffffffffffff1673ffffffffffffffffffffffffffffffffffffffff168152602001908152602001600020604051806101800160405290816000820160009054906101000a900460a01b73ffffffffffffffffffffffffffffffffffffffff191673ffffffffffffffffffffffffffffffffffffffff1916815260200160008201600c9054906101000a900460801b6fffffffffffffffffffffffffffffffff19166fffffffffffffffffffffffffffffffff191681526020016001820160009054906101000a900460801b6fffffffffffffffffffffffffffffffff19166fffffffffffffffffffffffffffffffff19168152602001600282015481526020016003820160009054906101000a900460801b6fffffffffffffffffffffffffffffffff19166fffffffffffffffffffffffffffffffff191681526020016003820160109054906101000a900460d01b79ffffffffffffffffffffffffffffffffffffffffffffffffffff191679ffffffffffffffffffffffffffffffffffffffffffffffffffff191681526020016004820154815260200160058201548152602001600682015481526020016007820160009054906101000a900460ff16151515158152602001600882015481526020016009820154815250509050806000015181602001518260400151836060015184608001518560c001518661012001518761014001518861010001518960e001519a509a509a509a509a509a509a509a509a509a50509193959799509193959799565b600560009054906101000a900473ffffffffffffffffffffffffffffffffffffffff1673ffffffffffffffffffffffffffffffffffffffff163373ffffffffffffffffffffffffffffffffffffffff1614610c02576040517f08c379a0000000000000000000000000000000000000000000000000000000008152600401610bf990615395565b60405180910390fd5b600660149054906101000a900460ff16610c51576040517f08c379a0000000000000000000000000000000000000000000000000000000008152600401610c48906153d5565b60405180910390fd5b600060a01b73ffffffffffffffffffffffffffffffffffffffff1916600b60008473ffffffffffffffffffffffffffffffffffffffff1673ffffffffffffffffffffffffffffffffffffffff16815260200190815260200160002060000160009054906101000a900460a01b73ffffffffffffffffffffffffffffffffffffffff19161415610d15576040517f08c379a0000000000000000000000000000000000000000000000000000000008152600401610d0c90615415565b60405180910390fd5b6001600b60008473ffffffffffffffffffffffffffffffffffffffff1673ffffffffffffffffffffffffffffffffffffffff16815260200190815260200160002060070160006101000a81548160ff02191690831515021790555080600b60008473ffffffffffffffffffffffffffffffffffffffff1673ffffffffffffffffffffffffffffffffffffffff168152602001908152602001600020600801819055505050565b60008060a01b73ffffffffffffffffffffffffffffffffffffffff1916600b60008473ffffffffffffffffffffffffffffffffffffffff1673ffffffffffffffffffffffffffffffffffffffff16815260200190815260200160002060000160009054906101000a900460a01b73ffffffffffffffffffffffffffffffffffffffff19161415610e80576040517f08c379a0000000000000000000000000000000000000000000000000000000008152600401610e7790615415565b60405180910390fd5b600b60008373ffffffffffffffffffffffffffffffffffffffff1673ffffffffffffffffffffffffffffffffffffffff16815260200190815260200160002060070160009054906101000a900460ff169050919050565b602a81565b600060a01b73ffffffffffffffffffffffffffffffffffffffff1916600b60003373ffffffffffffffffffffffffffffffffffffffff1673ffffffffffffffffffffffffffffffffffffffff16815260200190815260200160002060000160009054906101000a900460a01b73ffffffffffffffffffffffffffffffffffffffff19161415610fa0576040517f08c379a0000000000000000000000000000000000000000000000000000000008152600401610f9790615255565b60405180910390fd5b33600660149054906101000a900460ff161561104757600b60008273ffffffffffffffffffffffffffffffffffffffff1673ffffffffffffffffffffffffffffffffffffffff16815260200190815260200160002060070160009054906101000a900460ff1615611046576040517f08c379a000000000000000000000000000000000000000000000000000000000815260040161103d90615275565b60405180910390fd5b5b6000600b60003373ffffffffffffffffffffffffffffffffffffffff1673ffffffffffffffffffffffffffffffffffffffff1681526020019081526020016000206004015490506110973361375a565b600160009054906101000a900473ffffffffffffffffffffffffffffffffffffffff1673ffffffffffffffffffffffffffffffffffffffff1663a9059cbb33836040518363ffffffff1660e01b81526004016110f4929190614f44565b602060405180830381600087803b15801561110e57600080fd5b505af1158015611122573d6000803e3d6000fd5b505050506040513d601f19601f82011682018060405250611146919081019061430c565b61114f57600080fd5b611164816000546136da90919063ffffffff16565b6000819055505050565b600560009054906101000a900473ffffffffffffffffffffffffffffffffffffffff1673ffffffffffffffffffffffffffffffffffffffff163373ffffffffffffffffffffffffffffffffffffffff16146111fe576040517f08c379a00000000000000000000000000000000000000000000000000000000081526004016111f590615395565b60405180910390fd5b600660149054906101000a900460ff1661124d576040517f08c379a0000000000000000000000000000000000000000000000000000000008152600401611244906153d5565b60405180910390fd5b6000600b60008473ffffffffffffffffffffffffffffffffffffffff1673ffffffffffffffffffffffffffffffffffffffff16815260200190815260200160002060040154905061129d8361375a565b80600a60008473ffffffffffffffffffffffffffffffffffffffff1673ffffffffffffffffffffffffffffffffffffffff16815260200190815260200160002081905550505050565b600960205281600052604060002081815481106112ff57fe5b906000526020600020016000915091509054906101000a900473ffffffffffffffffffffffffffffffffffffffff1681565b600460009054906101000a900473ffffffffffffffffffffffffffffffffffffffff1681565b6000600460009054906101000a900473ffffffffffffffffffffffffffffffffffffffff1673ffffffffffffffffffffffffffffffffffffffff166393d33a33846040518263ffffffff1660e01b81526004016113b491906150ce565b60206040518083038186803b1580156113cc57600080fd5b505afa1580156113e0573d6000803e3d6000fd5b505050506040513d601f19601f8201168201806040525061140491908101906141c8565b9050600073ffffffffffffffffffffffffffffffffffffffff168173ffffffffffffffffffffffffffffffffffffffff161415611476576040517f08c379a000000000000000000000000000000000000000000000000000000000815260040161146d906152d5565b60405180910390fd5b600081905060008173ffffffffffffffffffffffffffffffffffffffff16639c675eaa6040518163ffffffff1660e01b815260040160206040518083038186803b1580156114c357600080fd5b505afa1580156114d7573d6000803e3d6000fd5b505050506040513d601f19601f820116820180604052506114fb91908101906141c8565b90508073ffffffffffffffffffffffffffffffffffffffff163373ffffffffffffffffffffffffffffffffffffffff161461156b576040517f08c379a0000000000000000000000000000000000000000000000000000000008152600401611562906154d5565b60405180910390fd5b680246ddf9797668000084116115b6576040517f08c379a00000000000000000000000000000000000000000000000000000000081526004016115ad90615175565b60405180910390fd5b83600760008779ffffffffffffffffffffffffffffffffffffffffffffffffffff191679ffffffffffffffffffffffffffffffffffffffffffffffffffff19168152602001908152602001600020819055505050505050565b60008060a01b73ffffffffffffffffffffffffffffffffffffffff1916600b60008473ffffffffffffffffffffffffffffffffffffffff1673ffffffffffffffffffffffffffffffffffffffff16815260200190815260200160002060000160009054906101000a900460a01b73ffffffffffffffffffffffffffffffffffffffff191614159050919050565b6000600460009054906101000a900473ffffffffffffffffffffffffffffffffffffffff1673ffffffffffffffffffffffffffffffffffffffff166393d33a33856040518263ffffffff1660e01b81526004016116f991906150ce565b60206040518083038186803b15801561171157600080fd5b505afa158015611725573d6000803e3d6000fd5b505050506040513d601f19601f8201168201806040525061174991908101906141c8565b9050600073ffffffffffffffffffffffffffffffffffffffff168173ffffffffffffffffffffffffffffffffffffffff1614156117bb576040517f08c379a00000000000000000000000000000000000000000000000000000000081526004016117b2906152d5565b60405180910390fd5b600081905060008173ffffffffffffffffffffffffffffffffffffffff16639c675eaa6040518163ffffffff1660e01b815260040160206040518083038186803b15801561180857600080fd5b505afa15801561181c573d6000803e3d6000fd5b505050506040513d601f19601f8201168201806040525061184091908101906141c8565b90506060600960008879ffffffffffffffffffffffffffffffffffffffffffffffffffff191679ffffffffffffffffffffffffffffffffffffffffffffffffffff1916815260200190815260200160002080548060200260200160405190810160405280929190818152602001828054801561191157602002820191906000526020600020905b8160009054906101000a900473ffffffffffffffffffffffffffffffffffffffff1673ffffffffffffffffffffffffffffffffffffffff16815260200190600101908083116118c7575b5050505050905080518686031115801561192c575080518511155b61196b576040517f08c379a000000000000000000000000000000000000000000000000000000000815260040161196290615315565b60405180910390fd5b600080905060008790505b86811015611c5c576000611a35600b600086858151811061199357fe5b602002602001015173ffffffffffffffffffffffffffffffffffffffff1673ffffffffffffffffffffffffffffffffffffffff1681526020019081526020016000206006015442600b60008887815181106119ea57fe5b602002602001015173ffffffffffffffffffffffffffffffffffffffff1673ffffffffffffffffffffffffffffffffffffffff16815260200190815260200160002060050154610888565b9050600b6000858481518110611a4757fe5b602002602001015173ffffffffffffffffffffffffffffffffffffffff1673ffffffffffffffffffffffffffffffffffffffff16815260200190815260200160002060040154811115611b1f57611afc600b6000868581518110611aa757fe5b602002602001015173ffffffffffffffffffffffffffffffffffffffff1673ffffffffffffffffffffffffffffffffffffffff1681526020019081526020016000206004015484613c9e90919063ffffffff16565b9250611b1a848381518110611b0d57fe5b602002602001015161375a565b611c50565b611b8781600b6000878681518110611b3357fe5b602002602001015173ffffffffffffffffffffffffffffffffffffffff1673ffffffffffffffffffffffffffffffffffffffff168152602001908152602001600020600401546136da90919063ffffffff16565b600b6000868581518110611b9757fe5b602002602001015173ffffffffffffffffffffffffffffffffffffffff1673ffffffffffffffffffffffffffffffffffffffff16815260200190815260200160002060040181905550611bf38184613c9e90919063ffffffff16565b925042600b6000868581518110611c0657fe5b602002602001015173ffffffffffffffffffffffffffffffffffffffff1673ffffffffffffffffffffffffffffffffffffffff168152602001908152602001600020600601819055505b50600181019050611976565b50600160009054906101000a900473ffffffffffffffffffffffffffffffffffffffff1673ffffffffffffffffffffffffffffffffffffffff1663a9059cbb84836040518363ffffffff1660e01b8152600401611cba929190614f6d565b602060405180830381600087803b158015611cd457600080fd5b505af1158015611ce8573d6000803e3d6000fd5b505050506040513d601f19601f82011682018060405250611d0c919081019061430c565b611d1557600080fd5b611d2a816000546136da90919063ffffffff16565b6000819055507f564e4e6e9ec454ac6c80c226d068f046438c307c84a473acb6f47a30b534ad008184604051611d61929190615530565b60405180910390a15050505050505050565b600660009054906101000a900473ffffffffffffffffffffffffffffffffffffffff1681565b600560009054906101000a900473ffffffffffffffffffffffffffffffffffffffff1673ffffffffffffffffffffffffffffffffffffffff163373ffffffffffffffffffffffffffffffffffffffff1614611e29576040517f08c379a0000000000000000000000000000000000000000000000000000000008152600401611e2090615395565b60405180910390fd5b600660149054906101000a900460ff16611e78576040517f08c379a0000000000000000000000000000000000000000000000000000000008152600401611e6f906153d5565b60405180910390fd5b600060a01b73ffffffffffffffffffffffffffffffffffffffff1916600b60008373ffffffffffffffffffffffffffffffffffffffff1673ffffffffffffffffffffffffffffffffffffffff16815260200190815260200160002060000160009054906101000a900460a01b73ffffffffffffffffffffffffffffffffffffffff19161415611f3c576040517f08c379a0000000000000000000000000000000000000000000000000000000008152600401611f3390615415565b60405180910390fd5b6000600b60008373ffffffffffffffffffffffffffffffffffffffff1673ffffffffffffffffffffffffffffffffffffffff16815260200190815260200160002060070160006101000a81548160ff0219169083151502179055506000600b60008373ffffffffffffffffffffffffffffffffffffffff1673ffffffffffffffffffffffffffffffffffffffff1681526020019081526020016000206008018190555050565b600073ffffffffffffffffffffffffffffffffffffffff168173ffffffffffffffffffffffffffffffffffffffff161415612052576040517f08c379a0000000000000000000000000000000000000000000000000000000008152600401612049906153f5565b60405180910390fd5b600660009054906101000a900473ffffffffffffffffffffffffffffffffffffffff1673ffffffffffffffffffffffffffffffffffffffff163373ffffffffffffffffffffffffffffffffffffffff16146120e2576040517f08c379a00000000000000000000000000000000000000000000000000000000081526004016120d990615375565b60405180910390fd5b60001515600660149054906101000a900460ff16151514612138576040517f08c379a000000000000000000000000000000000000000000000000000000000815260040161212f90615455565b60405180910390fd5b80600560006101000a81548173ffffffffffffffffffffffffffffffffffffffff021916908373ffffffffffffffffffffffffffffffffffffffff16021790555050565b600560009054906101000a900473ffffffffffffffffffffffffffffffffffffffff1681565b60008060a01b73ffffffffffffffffffffffffffffffffffffffff1916600b60008473ffffffffffffffffffffffffffffffffffffffff1673ffffffffffffffffffffffffffffffffffffffff16815260200190815260200160002060000160009054906101000a900460a01b73ffffffffffffffffffffffffffffffffffffffff19161415612267576040517f08c379a000000000000000000000000000000000000000000000000000000000815260040161225e90615415565b60405180910390fd5b600b60008373ffffffffffffffffffffffffffffffffffffffff1673ffffffffffffffffffffffffffffffffffffffff16815260200190815260200160002060070160009054906101000a900460ff166122f6576040517f08c379a00000000000000000000000000000000000000000000000000000000081526004016122ed906152b5565b60405180910390fd5b600b60008373ffffffffffffffffffffffffffffffffffffffff1673ffffffffffffffffffffffffffffffffffffffff168152602001908152602001600020600801549050919050565b600160009054906101000a900473ffffffffffffffffffffffffffffffffffffffff1673ffffffffffffffffffffffffffffffffffffffff163373ffffffffffffffffffffffffffffffffffffffff16146123d0576040517f08c379a00000000000000000000000000000000000000000000000000000000081526004016123c7906152f5565b60405180910390fd5b605f815114612414576040517f08c379a000000000000000000000000000000000000000000000000000000000815260040161240b90615475565b60405180910390fd5b61241d83613cbd565b1561245d576040517f08c379a000000000000000000000000000000000000000000000000000000000815260040161245490615235565b60405180910390fd5b600083905060008390506000612474846000613cd0565b9050603060f81b7effffffffffffffffffffffffffffffffffffffffffffffffffffffffffffff1916817effffffffffffffffffffffffffffffffffffffffffffffffffffffffffffff191614806125135750603160f81b7effffffffffffffffffffffffffffffffffffffffffffffffffffffffffffff1916817effffffffffffffffffffffffffffffffffffffffffffffffffffffffffffff1916145b612552576040517f08c379a000000000000000000000000000000000000000000000000000000000815260040161254990615355565b60405180910390fd5b603160f81b7effffffffffffffffffffffffffffffffffffffffffffffffffffffffffffff1916817effffffffffffffffffffffffffffffffffffffffffffffffffffffffffffff191614156125b1576125ac8386613d2e565b612e6e565b603060f81b7effffffffffffffffffffffffffffffffffffffffffffffffffffffffffffff1916817effffffffffffffffffffffffffffffffffffffffffffffffffffffffffffff19161415612e6d57600061260e856001613e6d565b9050600061261d866003613ecb565b9050600061262c87600f613f29565b9050600061263b88601f613f29565b9050600061264a89602f613f87565b905060006126598a604f613f29565b9050600260009054906101000a900473ffffffffffffffffffffffffffffffffffffffff1673ffffffffffffffffffffffffffffffffffffffff1663923ae12b876040518263ffffffff1660e01b81526004016126b6919061508a565b60206040518083038186803b1580156126ce57600080fd5b505afa1580156126e2573d6000803e3d6000fd5b505050506040513d601f19601f82011682018060405250612706919081019061430c565b612745576040517f08c379a000000000000000000000000000000000000000000000000000000000815260040161273c90615155565b60405180910390fd5b600060a01b73ffffffffffffffffffffffffffffffffffffffff1916600b60008b73ffffffffffffffffffffffffffffffffffffffff1673ffffffffffffffffffffffffffffffffffffffff16815260200190815260200160002060000160009054906101000a900460a01b73ffffffffffffffffffffffffffffffffffffffff191614612808576040517f08c379a00000000000000000000000000000000000000000000000000000000081526004016127ff906151f5565b60405180910390fd5b600073ffffffffffffffffffffffffffffffffffffffff16600860008773ffffffffffffffffffffffffffffffffffffffff191673ffffffffffffffffffffffffffffffffffffffff1916815260200190815260200160002060009054906101000a900473ffffffffffffffffffffffffffffffffffffffff1673ffffffffffffffffffffffffffffffffffffffff16146128d8576040517f08c379a00000000000000000000000000000000000000000000000000000000081526004016128cf906153b5565b60405180910390fd5b600260009054906101000a900473ffffffffffffffffffffffffffffffffffffffff1673ffffffffffffffffffffffffffffffffffffffff1663bf922fe2866040518263ffffffff1660e01b81526004016129339190614fd3565b602060405180830381600087803b15801561294d57600080fd5b505af1158015612961573d6000803e3d6000fd5b505050506040513d601f19601f82011682018060405250612985919081019061430c565b6129c4576040517f08c379a00000000000000000000000000000000000000000000000000000000081526004016129bb906151b5565b60405180910390fd5b600260009054906101000a900473ffffffffffffffffffffffffffffffffffffffff1673ffffffffffffffffffffffffffffffffffffffff16632aaec37b87876040518363ffffffff1660e01b8152600401612a219291906150a5565b60206040518083038186803b158015612a3957600080fd5b505afa158015612a4d573d6000803e3d6000fd5b505050506040513d601f19601f82011682018060405250612a71919081019061430c565b612ab0576040517f08c379a0000000000000000000000000000000000000000000000000000000008152600401612aa790615195565b60405180910390fd5b6000680246ddf97976680000600760008879ffffffffffffffffffffffffffffffffffffffffffffffffffff191679ffffffffffffffffffffffffffffffffffffffffffffffffffff191681526020019081526020016000205411612b1e57680246ddf97976680000612b6d565b600760008779ffffffffffffffffffffffffffffffffffffffffffffffffffff191679ffffffffffffffffffffffffffffffffffffffffffffffffffff19168152602001908152602001600020545b905080891015612bb2576040517f08c379a0000000000000000000000000000000000000000000000000000000008152600401612ba990615435565b60405180910390fd5b6000600b60008c73ffffffffffffffffffffffffffffffffffffffff1673ffffffffffffffffffffffffffffffffffffffff1681526020019081526020016000209050868160000160006101000a8154816bffffffffffffffffffffffff021916908360a01c02179055508581600001600c6101000a8154816fffffffffffffffffffffffffffffffff021916908360801c0217905550848160010160006101000a8154816fffffffffffffffffffffffffffffffff021916908360801c0217905550838160020181905550828160030160006101000a8154816fffffffffffffffffffffffffffffffff021916908360801c021790555089816004018190555060008160070160006101000a81548160ff02191690831515021790555060008160080181905550868160030160106101000a81548165ffffffffffff021916908360d01c0217905550818160050181905550428160060181905550612d238a600054613c9e90919063ffffffff16565b6000819055508a600860008973ffffffffffffffffffffffffffffffffffffffff191673ffffffffffffffffffffffffffffffffffffffff1916815260200190815260200160002060006101000a81548173ffffffffffffffffffffffffffffffffffffffff021916908373ffffffffffffffffffffffffffffffffffffffff1602179055506001600960008979ffffffffffffffffffffffffffffffffffffffffffffffffffff191679ffffffffffffffffffffffffffffffffffffffffffffffffffff191681526020019081526020016000208c90806001815401808255809150509060018203906000526020600020016000909192909190916101000a81548173ffffffffffffffffffffffffffffffffffffffff021916908373ffffffffffffffffffffffffffffffffffffffff16021790555003816009018190555050505050505050505b5b505050505050565b6000600a60003373ffffffffffffffffffffffffffffffffffffffff1673ffffffffffffffffffffffffffffffffffffffff16815260200190815260200160002054905060008111612efd576040517f08c379a0000000000000000000000000000000000000000000000000000000008152600401612ef490615495565b60405180910390fd5b6000600a60003373ffffffffffffffffffffffffffffffffffffffff1673ffffffffffffffffffffffffffffffffffffffff16815260200190815260200160002081905550600160009054906101000a900473ffffffffffffffffffffffffffffffffffffffff1673ffffffffffffffffffffffffffffffffffffffff1663a9059cbb33836040518363ffffffff1660e01b8152600401612f9f929190614f44565b602060405180830381600087803b158015612fb957600080fd5b505af1158015612fcd573d6000803e3d6000fd5b505050506040513d601f19601f82011682018060405250612ff1919081019061430c565b612ffa57600080fd5b61300f816000546136da90919063ffffffff16565b60008190555050565b60005481565b60001515600660149054906101000a900460ff16151514613074576040517f08c379a000000000000000000000000000000000000000000000000000000000815260040161306b906151d5565b60405180910390fd5b6000600460009054906101000a900473ffffffffffffffffffffffffffffffffffffffff1673ffffffffffffffffffffffffffffffffffffffff166393d33a33836040518263ffffffff1660e01b81526004016130d191906150ce565b60206040518083038186803b1580156130e957600080fd5b505afa1580156130fd573d6000803e3d6000fd5b505050506040513d601f19601f8201168201806040525061312191908101906141c8565b9050600081905060008173ffffffffffffffffffffffffffffffffffffffff16639c675eaa6040518163ffffffff1660e01b815260040160206040518083038186803b15801561317057600080fd5b505afa158015613184573d6000803e3d6000fd5b505050506040513d601f19601f820116820180604052506131a891908101906141c8565b90508073ffffffffffffffffffffffffffffffffffffffff163373ffffffffffffffffffffffffffffffffffffffff1614613218576040517f08c379a000000000000000000000000000000000000000000000000000000000815260040161320f906154f5565b60405180910390fd5b6000600b60008773ffffffffffffffffffffffffffffffffffffffff1673ffffffffffffffffffffffffffffffffffffffff16815260200190815260200160002060000160009054906101000a900460a01b905060008373ffffffffffffffffffffffffffffffffffffffff166308e44f886040518163ffffffff1660e01b815260040160206040518083038186803b1580156132b457600080fd5b505afa1580156132c8573d6000803e3d6000fd5b505050506040513d601f19601f820116820180604052506132ec9190810190614387565b90508079ffffffffffffffffffffffffffffffffffffffffffffffffffff19168279ffffffffffffffffffffffffffffffffffffffffffffffffffff19161461336a576040517f08c379a000000000000000000000000000000000000000000000000000000000815260040161336190615295565b60405180910390fd5b6000600b60008973ffffffffffffffffffffffffffffffffffffffff1673ffffffffffffffffffffffffffffffffffffffff1681526020019081526020016000206004015490506133ba8861375a565b600160009054906101000a900473ffffffffffffffffffffffffffffffffffffffff1673ffffffffffffffffffffffffffffffffffffffff1663a9059cbb89836040518363ffffffff1660e01b8152600401613417929190614f6d565b602060405180830381600087803b15801561343157600080fd5b505af1158015613445573d6000803e3d6000fd5b505050506040513d601f19601f82011682018060405250613469919081019061430c565b61347257600080fd5b613487816000546136da90919063ffffffff16565b6000819055505050505050505050565b600260009054906101000a900473ffffffffffffffffffffffffffffffffffffffff1681565b6060600960008379ffffffffffffffffffffffffffffffffffffffffffffffffffff191679ffffffffffffffffffffffffffffffffffffffffffffffffffff1916815260200190815260200160002080548060200260200160405190810160405280929190818152602001828054801561358c57602002820191906000526020600020905b8160009054906101000a900473ffffffffffffffffffffffffffffffffffffffff1673ffffffffffffffffffffffffffffffffffffffff1681526020019060010190808311613542575b50505050509050919050565b600360009054906101000a900473ffffffffffffffffffffffffffffffffffffffff1681565b60008060a01b73ffffffffffffffffffffffffffffffffffffffff1916600b60008473ffffffffffffffffffffffffffffffffffffffff1673ffffffffffffffffffffffffffffffffffffffff16815260200190815260200160002060000160009054906101000a900460a01b73ffffffffffffffffffffffffffffffffffffffff19161415613683576040517f08c379a000000000000000000000000000000000000000000000000000000000815260040161367a90615415565b60405180910390fd5b600b60008373ffffffffffffffffffffffffffffffffffffffff1673ffffffffffffffffffffffffffffffffffffffff168152602001908152602001600020600401549050919050565b680246ddf9797668000081565b6000828211156136e957600080fd5b600082840390508091505092915050565b60008083141561370d576000905061372e565b600082840290508284828161371e57fe5b041461372957600080fd5b809150505b92915050565b600080821161374257600080fd5b600082848161374d57fe5b0490508091505092915050565b6000600b60008373ffffffffffffffffffffffffffffffffffffffff1673ffffffffffffffffffffffffffffffffffffffff16815260200190815260200160002060000160009054906101000a900460a01b90506000600b60008473ffffffffffffffffffffffffffffffffffffffff1673ffffffffffffffffffffffffffffffffffffffff168152602001908152602001600020600901549050600960008379ffffffffffffffffffffffffffffffffffffffffffffffffffff191679ffffffffffffffffffffffffffffffffffffffffffffffffffff191681526020019081526020016000206001600960008579ffffffffffffffffffffffffffffffffffffffffffffffffffff191679ffffffffffffffffffffffffffffffffffffffffffffffffffff191681526020019081526020016000208054905003815481106138a057fe5b9060005260206000200160009054906101000a900473ffffffffffffffffffffffffffffffffffffffff16600960008479ffffffffffffffffffffffffffffffffffffffffffffffffffff191679ffffffffffffffffffffffffffffffffffffffffffffffffffff19168152602001908152602001600020828154811061392357fe5b9060005260206000200160006101000a81548173ffffffffffffffffffffffffffffffffffffffff021916908373ffffffffffffffffffffffffffffffffffffffff16021790555080600b6000600960008679ffffffffffffffffffffffffffffffffffffffffffffffffffff191679ffffffffffffffffffffffffffffffffffffffffffffffffffff1916815260200190815260200160002084815481106139c857fe5b9060005260206000200160009054906101000a900473ffffffffffffffffffffffffffffffffffffffff1673ffffffffffffffffffffffffffffffffffffffff1673ffffffffffffffffffffffffffffffffffffffff16815260200190815260200160002060090181905550600960008379ffffffffffffffffffffffffffffffffffffffffffffffffffff191679ffffffffffffffffffffffffffffffffffffffffffffffffffff19168152602001908152602001600020805480613a8a57fe5b6001900381819060005260206000200160006101000a81549073ffffffffffffffffffffffffffffffffffffffff02191690559055600b60008473ffffffffffffffffffffffffffffffffffffffff1673ffffffffffffffffffffffffffffffffffffffff168152602001908152602001600020600080820160006101000a8154906bffffffffffffffffffffffff021916905560008201600c6101000a8154906fffffffffffffffffffffffffffffffff02191690556001820160006101000a8154906fffffffffffffffffffffffffffffffff021916905560028201600090556003820160006101000a8154906fffffffffffffffffffffffffffffffff02191690556003820160106101000a81549065ffffffffffff02191690556004820160009055600582016000905560068201600090556007820160006101000a81549060ff021916905560088201600090556009820160009055505060086000600b60008673ffffffffffffffffffffffffffffffffffffffff1673ffffffffffffffffffffffffffffffffffffffff16815260200190815260200160002060000160009054906101000a900460a01b73ffffffffffffffffffffffffffffffffffffffff191673ffffffffffffffffffffffffffffffffffffffff1916815260200190815260200160002060006101000a81549073ffffffffffffffffffffffffffffffffffffffff0219169055505050565b600080828401905083811015613cb357600080fd5b8091505092915050565b600080823b905060008111915050919050565b60006001820183511015613d19576040517f08c379a0000000000000000000000000000000000000000000000000000000008152600401613d10906154b5565b60405180910390fd5b60008260208501015190508091505092915050565b6000600b60008473ffffffffffffffffffffffffffffffffffffffff1673ffffffffffffffffffffffffffffffffffffffff1681526020019081526020016000206006015411613db3576040517f08c379a0000000000000000000000000000000000000000000000000000000008152600401613daa90615215565b60405180910390fd5b613e0881600b60008573ffffffffffffffffffffffffffffffffffffffff1673ffffffffffffffffffffffffffffffffffffffff16815260200190815260200160002060040154613c9e90919063ffffffff16565b600b60008473ffffffffffffffffffffffffffffffffffffffff1673ffffffffffffffffffffffffffffffffffffffff16815260200190815260200160002060040181905550613e6381600054613c9e90919063ffffffff16565b6000819055505050565b60006002820183511015613eb6576040517f08c379a0000000000000000000000000000000000000000000000000000000008152600401613ead906154b5565b60405180910390fd5b60008260208501015190508091505092915050565b6000600c820183511015613f14576040517f08c379a0000000000000000000000000000000000000000000000000000000008152600401613f0b906154b5565b60405180910390fd5b60008260208501015190508091505092915050565b60006010820183511015613f72576040517f08c379a0000000000000000000000000000000000000000000000000000000008152600401613f69906154b5565b60405180910390fd5b60008260208501015190508091505092915050565b60006020820183511015613fd0576040517f08c379a0000000000000000000000000000000000000000000000000000000008152600401613fc7906154b5565b60405180910390fd5b60008260208501015190508091505092915050565b604051806101800160405280600073ffffffffffffffffffffffffffffffffffffffff1916815260200160006fffffffffffffffffffffffffffffffff1916815260200160006fffffffffffffffffffffffffffffffff191681526020016000801916815260200160006fffffffffffffffffffffffffffffffff19168152602001600079ffffffffffffffffffffffffffffffffffffffffffffffffffff1916815260200160008152602001600081526020016000815260200160001515815260200160008152602001600081525090565b6000813590506140c7816157ff565b92915050565b6000815190506140dc816157ff565b92915050565b6000815190506140f181615816565b92915050565b6000813590506141068161582d565b92915050565b60008135905061411b81615844565b92915050565b60008151905061413081615844565b92915050565b600082601f83011261414757600080fd5b813561415a61415582615586565b615559565b9150808252602083016020830185838301111561417657600080fd5b6141818382846157f0565b50505092915050565b6000813590506141998161585b565b92915050565b6000602082840312156141b157600080fd5b60006141bf848285016140b8565b91505092915050565b6000602082840312156141da57600080fd5b60006141e8848285016140cd565b91505092915050565b6000806040838503121561420457600080fd5b6000614212858286016140b8565b9250506020614223858286016140b8565b9150509250929050565b6000806040838503121561424057600080fd5b600061424e858286016140b8565b925050602061425f8582860161410c565b9150509250929050565b6000806040838503121561427c57600080fd5b600061428a858286016140b8565b925050602061429b8582860161418a565b9150509250929050565b6000806000606084860312156142ba57600080fd5b60006142c8868287016140b8565b93505060206142d98682870161418a565b925050604084013567ffffffffffffffff8111156142f657600080fd5b61430286828701614136565b9150509250925092565b60006020828403121561431e57600080fd5b600061432c848285016140e2565b91505092915050565b60006020828403121561434757600080fd5b6000614355848285016140f7565b91505092915050565b60006020828403121561437057600080fd5b600061437e8482850161410c565b91505092915050565b60006020828403121561439957600080fd5b60006143a784828501614121565b91505092915050565b600080604083850312156143c357600080fd5b60006143d18582860161410c565b92505060206143e28582860161418a565b9150509250929050565b60008060006060848603121561440157600080fd5b600061440f8682870161410c565b93505060206144208682870161418a565b92505060406144318682870161418a565b9150509250925092565b60008060006060848603121561445057600080fd5b600061445e8682870161418a565b935050602061446f8682870161418a565b92505060406144808682870161418a565b9150509250925092565b600061449683836144b1565b60208301905092915050565b6144ab8161572a565b82525050565b6144ba816155fc565b82525050565b6144c9816155fc565b82525050565b60006144da826155c2565b6144e481856155da565b93506144ef836155b2565b8060005b83811015614520578151614507888261448a565b9750614512836155cd565b9250506001810190506144f3565b5085935050505092915050565b6145368161560e565b82525050565b6145458161561a565b82525050565b61455481615646565b82525050565b61456381615672565b82525050565b6145728161569e565b82525050565b614581816156a8565b82525050565b614590816156d4565b82525050565b61459f8161573c565b82525050565b6145ae81615760565b82525050565b6145bd81615784565b82525050565b6145cc816157a8565b82525050565b60006145df6013836155eb565b91507f636f756e7472792069732064697361626c6564000000000000000000000000006000830152602082019050919050565b600061461f602b836155eb565b91507f70726963652073686f756c64206265207375706572696f7220746f207468652060008301527f666c6f6f722070726963650000000000000000000000000000000000000000006020830152604082019050919050565b6000614685601a836155eb565b91507f7a6f6e65206973206e6f7420696e7369646520636f756e7472790000000000006000830152602082019050919050565b60006146c56026836155eb565b91507f696e76616c69642067656f68617368206368617261637465727320696e20706f60008301527f736974696f6e00000000000000000000000000000000000000000000000000006020830152604082019050919050565b600061472b6035836155eb565b91507f4f6e6365206163746976617465642c206f6e6c79206469737075746520636f6e60008301527f74726163742063616e2072656d6f76652073686f7000000000000000000000006020830152604082019050919050565b60006147916017836155eb565b91507f63616c6c657220616c7265616479206861732073686f700000000000000000006000830152602082019050919050565b60006147d16013836155eb565b91507f53686f7020646f6573206e6f74206578697374000000000000000000000000006000830152602082019050919050565b6000614811601a836155eb565b91507f73686f70732063616e6e6f74206265206120636f6e74726163740000000000006000830152602082019050919050565b60006148516012836155eb565b91507f63616c6c6572206973206e6f742073686f7000000000000000000000000000006000830152602082019050919050565b60006148916010836155eb565b91507f73686f70206861732064697370757465000000000000000000000000000000006000830152602082019050919050565b60006148d16020836155eb565b91507f706f736974696f6e206973206e6f7420696e736964652074686973207a6f6e656000830152602082019050919050565b60006149116013836155eb565b91507f73686f7020686173206e6f2064697370757465000000000000000000000000006000830152602082019050919050565b60006149516019836155eb565b91507f7a6f6e65206973206e6f7420616c7265616479206f776e6564000000000000006000830152602082019050919050565b60006149916022836155eb565b91507f63616e206f6e6c792062652063616c6c65642062792064746820636f6e74726160008301527f63740000000000000000000000000000000000000000000000000000000000006020830152604082019050919050565b60006149f7602d836155eb565b91507f737461727420616e6420656e642076616c75652061726520626967676572207460008301527f68616e20616464726573735b5d000000000000000000000000000000000000006020830152604082019050919050565b6000614a5d6026836155eb565b91507f73686f70734469737075746520636f6e747261637420686173206e6f7420626560008301527f656e2073657400000000000000000000000000000000000000000000000000006020830152604082019050919050565b6000614ac36020836155eb565b91507f66697273742062797465206469646e74206d617463682066756e632073686f706000830152602082019050919050565b6000614b03601e836155eb565b91507f63616c6c6572206d7573742062652064697370757465207374617274657200006000830152602082019050919050565b6000614b43602b836155eb565b91507f63616e206f6e6c792062652063616c6c65642062792073686f7073446973707560008301527f746520636f6e74726163740000000000000000000000000000000000000000006020830152604082019050919050565b6000614ba9601f836155eb565b91507f73686f7020616c72656164792065786973747320617420706f736974696f6e006000830152602082019050919050565b6000614be9602a836155eb565b91507f43616e206f6e6c792062652063616c6c6564207768656e20646973707574652060008301527f697320656e61626c6564000000000000000000000000000000000000000000006020830152604082019050919050565b6000614c4f6024836155eb565b91507f73686f7073206469737075746520636f6e74726163742063616e6e6f7420626560008301527f20307830000000000000000000000000000000000000000000000000000000006020830152604082019050919050565b6000614cb56013836155eb565b91507f73686f7020646f6573206e6f74206578697374000000000000000000000000006000830152602082019050919050565b6000614cf56028836155eb565b91507f73656e6420647468206973206c657373207468616e2073686f70206c6963656e60008301527f73652070726963650000000000000000000000000000000000000000000000006020830152604082019050919050565b6000614d5b6017836155eb565b91507f64697370757465206d75737420626520656e61626c65640000000000000000006000830152602082019050919050565b6000614d9b6020836155eb565b91507f61646453686f70206578706563747320393520627974657320617320646174616000830152602082019050919050565b6000614ddb6013836155eb565b91507f6e6f7468696e6720746f207769746864726177000000000000000000000000006000830152602082019050919050565b6000614e1b6010836155eb565b91507f206e6f74206c6f6e6720656e6f756768000000000000000000000000000000006000830152602082019050919050565b6000614e5b602c836155eb565b91507f6f6e6c79207a6f6e65206f776e65722063616e206d6f6469667920746865206c60008301527f6963656e636520707269636500000000000000000000000000000000000000006020830152604082019050919050565b6000614ec16027836155eb565b91507f6d73672e73656e646572206973206e6f7420746865206f776e6572206f66207460008301527f6865207a6f6e65000000000000000000000000000000000000000000000000006020830152604082019050919050565b614f2381615720565b82525050565b6000602082019050614f3e60008301846144c0565b92915050565b6000604082019050614f5960008301856144a2565b614f666020830184614f1a565b9392505050565b6000604082019050614f8260008301856144c0565b614f8f6020830184614f1a565b9392505050565b60006020820190508181036000830152614fb081846144cf565b905092915050565b6000602082019050614fcd600083018461452d565b92915050565b6000602082019050614fe8600083018461453c565b92915050565b600061014082019050615004600083018d61453c565b615011602083018c61454b565b61501e604083018b61454b565b61502b606083018a614569565b615038608083018961454b565b61504560a0830188614f1a565b61505260c083018761452d565b61505f60e0830186614f1a565b61506d610100830185614f1a565b61507b610120830184614f1a565b9b9a5050505050505050505050565b600060208201905061509f600083018461455a565b92915050565b60006040820190506150ba600083018561455a565b6150c76020830184614578565b9392505050565b60006020820190506150e36000830184614587565b92915050565b60006020820190506150fe6000830184614596565b92915050565b600060208201905061511960008301846145a5565b92915050565b600060208201905061513460008301846145b4565b92915050565b600060208201905061514f60008301846145c3565b92915050565b6000602082019050818103600083015261516e816145d2565b9050919050565b6000602082019050818103600083015261518e81614612565b9050919050565b600060208201905081810360008301526151ae81614678565b9050919050565b600060208201905081810360008301526151ce816146b8565b9050919050565b600060208201905081810360008301526151ee8161471e565b9050919050565b6000602082019050818103600083015261520e81614784565b9050919050565b6000602082019050818103600083015261522e816147c4565b9050919050565b6000602082019050818103600083015261524e81614804565b9050919050565b6000602082019050818103600083015261526e81614844565b9050919050565b6000602082019050818103600083015261528e81614884565b9050919050565b600060208201905081810360008301526152ae816148c4565b9050919050565b600060208201905081810360008301526152ce81614904565b9050919050565b600060208201905081810360008301526152ee81614944565b9050919050565b6000602082019050818103600083015261530e81614984565b9050919050565b6000602082019050818103600083015261532e816149ea565b9050919050565b6000602082019050818103600083015261534e81614a50565b9050919050565b6000602082019050818103600083015261536e81614ab6565b9050919050565b6000602082019050818103600083015261538e81614af6565b9050919050565b600060208201905081810360008301526153ae81614b36565b9050919050565b600060208201905081810360008301526153ce81614b9c565b9050919050565b600060208201905081810360008301526153ee81614bdc565b9050919050565b6000602082019050818103600083015261540e81614c42565b9050919050565b6000602082019050818103600083015261542e81614ca8565b9050919050565b6000602082019050818103600083015261544e81614ce8565b9050919050565b6000602082019050818103600083015261546e81614d4e565b9050919050565b6000602082019050818103600083015261548e81614d8e565b9050919050565b600060208201905081810360008301526154ae81614dce565b9050919050565b600060208201905081810360008301526154ce81614e0e565b9050919050565b600060208201905081810360008301526154ee81614e4e565b9050919050565b6000602082019050818103600083015261550e81614eb4565b9050919050565b600060208201905061552a6000830184614f1a565b92915050565b60006040820190506155456000830185614f1a565b61555260208301846144c0565b9392505050565b6000604051905081810181811067ffffffffffffffff8211171561557c57600080fd5b8060405250919050565b600067ffffffffffffffff82111561559d57600080fd5b601f19601f8301169050602081019050919050565b6000819050602082019050919050565b600081519050919050565b6000602082019050919050565b600082825260208201905092915050565b600082825260208201905092915050565b600061560782615700565b9050919050565b60008115159050919050565b60007fffffffffffffffffffffffff000000000000000000000000000000000000000082169050919050565b60007fffffffffffffffffffffffffffffffff0000000000000000000000000000000082169050919050565b60007fffff00000000000000000000000000000000000000000000000000000000000082169050919050565b6000819050919050565b60007fffffffff0000000000000000000000000000000000000000000000000000000082169050919050565b60007fffffffffffff000000000000000000000000000000000000000000000000000082169050919050565b600073ffffffffffffffffffffffffffffffffffffffff82169050919050565b6000819050919050565b6000615735826157cc565b9050919050565b60006157478261574e565b9050919050565b600061575982615700565b9050919050565b600061576b82615772565b9050919050565b600061577d82615700565b9050919050565b600061578f82615796565b9050919050565b60006157a182615700565b9050919050565b60006157b3826157ba565b9050919050565b60006157c582615700565b9050919050565b60006157d7826157de565b9050919050565b60006157e982615700565b9050919050565b82818337600083830152505050565b615808816155fc565b811461581357600080fd5b50565b61581f8161560e565b811461582a57600080fd5b50565b6158368161561a565b811461584157600080fd5b50565b61584d816156d4565b811461585857600080fd5b50565b61586481615720565b811461586f57600080fd5b5056fea365627a7a72305820d909ab133375258aeda6dc03dd6f29c504276573439ab30d00c7347aa2fb8d096c6578706572696d656e74616cf564736f6c634300050a0040",
  "source": "pragma solidity ^0.5.10;\npragma experimental ABIEncoderV2;\n\n\nimport \"openzeppelin-solidity/contracts/math/SafeMath.sol\";\n\nimport \"../interfaces/IDetherToken.sol\";\nimport \"../interfaces/IUsers.sol\";\nimport \"../interfaces/IGeoRegistry.sol\";\nimport \"../interfaces/IZoneFactory.sol\";\nimport \"../interfaces/IZone.sol\";\n\ncontract Shops {\n  // ------------------------------------------------\n  //\n  // Libraries\n  //\n  // ------------------------------------------------\n\n  using SafeMath for uint;\n\n  // ------------------------------------------------\n  //\n  // Enums\n  //\n  // ------------------------------------------------\n\n  enum Party {Shop, Challenger}\n  enum RulingOptions {NoRuling, ShopWins, ChallengerWins}\n  /* enum DisputeStatus {Waiting, Appealable, Solved} // copied from IArbitrable.sol */\n\n  // ------------------------------------------------\n  //\n  // Structs\n  //\n  // ------------------------------------------------\n\n  struct Shop {\n    bytes12 position; // 12 char geohash for location of teller\n    bytes16 category;\n    bytes16 name;\n    bytes32 description;\n    bytes16 opening;\n    bytes6 geohashZoneBase;\n    uint staked;\n    uint licencePrice;\n    uint lastTaxTime;\n    bool hasDispute;\n    uint disputeID;\n    uint _index;\n  }\n  \n  // ------------------------------------------------\n  //\n  // Variables Public\n  //\n  // ------------------------------------------------\n\n  uint public stakedDth;\n\n  // links to other contracts\n  IDetherToken public dth;\n  IGeoRegistry public geo;\n  IUsers public users;\n  IZoneFactory public zoneFactory;\n  address public shopsDispute;\n  address public disputeStarter;\n  bool disputeEnabled = false;\n\n  // constant\n  uint public constant TAX= 42; // 1/42 daily\n  uint public constant floorLicencePrice = 42 ether; // 18 decimal in DTH\n\n    //    bytes6 geohash priceDTH\n  mapping(bytes6 =>   uint) public zoneLicencePrice;\n\n  //      geohash12   shopAddress\n  mapping(bytes12 =>  address) public positionToShopAddress;\n\n  //      geohash6    shopAddresses\n  mapping(bytes6 =>   address[]) public zoneToShopAddresses;\n\n  mapping(address => uint) public withdrawableDth;\n\n  // ------------------------------------------------\n  //\n  // Variables Private\n  //\n  // ------------------------------------------------\n\n  //      shopAddress shopStruct\n  mapping(address =>  Shop) private shopAddressToShop;\n\n  // ------------------------------------------------\n  //\n  // Events\n  //\n  // ------------------------------------------------\n  event TaxTotalPaidTo(uint amount, address to);\n  // ------------------------------------------------\n  //\n  // Modifiers\n  //\n  // ------------------------------------------------\n\n  // modifier onlyWhenDisputeEnabled {\n  //   require(disputeEnabled, \"Can only be called when dispute is enabled\");\n  //   _;\n  // }\n\n  // modifier onlyWhenCallerIsShopsDispute {\n  //   require(msg.sender == shopsDispute, \"can only be called by shopsDispute contract\");\n  //   _;\n  // }\n\n  modifier onlyWhenCallerIsShopsDispute {\n    require(msg.sender == shopsDispute, \"can only be called by shopsDispute contract\");\n    require(disputeEnabled, \"Can only be called when dispute is enabled\");\n    _;\n  }\n\n  modifier onlyWhenCallerIsDTH {\n    require(msg.sender == address(dth), \"can only be called by dth contract\");\n    _;\n  }\n\n  modifier onlyWhenNoDispute(address _shopAddress) {\n    if (disputeEnabled) {\n      require(!shopAddressToShop[_shopAddress].hasDispute, \"shop has dispute\");\n    }\n    _;\n  }\n\n  modifier onlyWhenCallerIsShop {\n    require(shopAddressToShop[msg.sender].position != bytes12(0), \"caller is not shop\");\n    _;\n  }\n\n  // ------------------------------------------------\n  //\n  // Events\n  //\n  // ------------------------------------------------\n\n  // ------------------------------------------------\n  //\n  // Constructor\n  //\n  // ------------------------------------------------\n\n  constructor(address _dth, address _geo, address _users, address _zoneFactory)\n    public\n  {\n    require(_dth != address(0), \"dth address cannot be 0x0\");\n    require(_geo != address(0), \"geo address cannot be 0x0\");\n    require(_users != address(0), \"users address cannot be 0x0\");\n    require(_zoneFactory != address(0), \"zoneFactory address cannot be 0x0\");\n\n    dth = IDetherToken(_dth);\n    geo = IGeoRegistry(_geo);\n    users = IUsers(_users);\n    zoneFactory = IZoneFactory(_zoneFactory);\n    disputeStarter = msg.sender;\n  }\n  function setShopsDisputeContract(address _shopsDispute)\n    external\n  {\n    require(_shopsDispute != address(0), \"shops dispute contract cannot be 0x0\");\n    require(msg.sender == disputeStarter,\"caller must be dispute starter\");\n    require(disputeEnabled == false,\"dispute must be enabled\");\n    shopsDispute = _shopsDispute;\n  }\n  function enableDispute()\n    external \n    {\n      require(msg.sender == disputeStarter,\"caller must be dispute starter\");\n      require(shopsDispute != address(0), \"shopsDispute contract has not been set\");\n      disputeEnabled = true;\n    }\n  // ------------------------------------------------\n  //\n  // Functions Getters Public\n  //\n  // ------------------------------------------------\n\n  function getShopByAddr(address _addr)\n    public\n    view\n    returns (bytes12, bytes16, bytes16, bytes32, bytes16, uint, bool, uint, uint, uint)\n  {\n    Shop memory shop = shopAddressToShop[_addr];\n\n    return (\n      shop.position,\n      shop.category,\n      shop.name,\n      shop.description,\n      shop.opening,\n      shop.staked,\n      shop.hasDispute,\n      shop.disputeID,\n      shop.lastTaxTime,\n      shop.licencePrice\n    );\n  }\n\n  function getShopByPos(bytes12 _position)\n    external\n    view\n    returns (bytes12, bytes16, bytes16, bytes32, bytes16, uint, bool, uint, uint, uint)\n  {\n    address shopAddr = positionToShopAddress[_position];\n    return getShopByAddr(shopAddr);\n  }\n\n  function getShopAddressesInZone(bytes6 _zoneGeohash)\n    external\n    view\n    returns (address[] memory)\n  {\n    return zoneToShopAddresses[_zoneGeohash];\n  }\n\n  function shopByAddrExists(address _shopAddress)\n    external\n    view\n    returns (bool)\n  {\n    return shopAddressToShop[_shopAddress].position != bytes12(0);\n  }\n\n  function getShopDisputeID(address _shopAddress)\n    external\n    view\n    returns (uint)\n  {\n    require(shopAddressToShop[_shopAddress].position != bytes12(0), \"shop does not exist\");\n    require(shopAddressToShop[_shopAddress].hasDispute, \"shop has no dispute\");\n    return shopAddressToShop[_shopAddress].disputeID;\n  }\n\n  function hasDispute(address _shopAddress)\n    external\n    view\n    returns (bool)\n  {\n    require(shopAddressToShop[_shopAddress].position != bytes12(0), \"shop does not exist\");\n    return shopAddressToShop[_shopAddress].hasDispute;\n  }\n\n  function getShopStaked(address _shopAddress)\n    external\n    view\n    returns (uint)\n  {\n    require(shopAddressToShop[_shopAddress].position != bytes12(0), \"shop does not exist\");\n    return shopAddressToShop[_shopAddress].staked;\n  }\n\n  // ------------------------------------------------\n  //\n  // Functions Getters Private\n  //\n  // ------------------------------------------------\n  // audit feedback\n  function isContract(address addr) private view returns (bool) {\n    uint size;\n    assembly { size := extcodesize(addr) }\n    return size > 0;\n  }\n\n  function toBytes1(bytes memory _bytes, uint _start)\n    private\n    pure\n    returns (bytes1) {\n      require(_bytes.length >= (_start + 1), \" not long enough\");\n      bytes1 tempBytes1;\n\n      assembly {\n          tempBytes1 := mload(add(add(_bytes, 0x20), _start))\n      }\n\n      return tempBytes1;\n  }\n  function toBytes2(bytes memory _bytes, uint _start)\n    private\n    pure\n    returns (bytes2) {\n      require(_bytes.length >= (_start + 2), \" not long enough\");\n      bytes2 tempBytes2;\n\n      assembly {\n          tempBytes2 := mload(add(add(_bytes, 0x20), _start))\n      }\n\n      return tempBytes2;\n  }\n  function toBytes6(bytes memory _bytes, uint _start)\n    private\n    pure\n    returns (bytes6)\n  {\n    require(_bytes.length >= (_start + 6), \" not long enough\");\n    bytes6 tempBytes6;\n\n    assembly {\n        tempBytes6 := mload(add(add(_bytes, 0x20), _start))\n    }\n\n    return tempBytes6;\n  }\n  function toBytes12(bytes memory _bytes, uint _start)\n    private\n    pure\n    returns (bytes12) {\n      require(_bytes.length >= (_start + 12), \" not long enough\");\n      bytes12 tempBytes12;\n\n      assembly {\n          tempBytes12 := mload(add(add(_bytes, 0x20), _start))\n      }\n\n      return tempBytes12;\n  }\n  function toBytes16(bytes memory _bytes, uint _start)\n    private\n    pure\n    returns (bytes16) {\n      require(_bytes.length >= (_start + 16), \" not long enough\");\n      bytes16 tempBytes16;\n\n      assembly {\n          tempBytes16 := mload(add(add(_bytes, 0x20), _start))\n      }\n\n      return tempBytes16;\n  }\n  function toBytes32(bytes memory _bytes, uint _start)\n    private\n    pure\n    returns (bytes32) {\n      require(_bytes.length >= (_start + 32), \" not long enough\");\n      bytes32 tempBytes32;\n\n      assembly {\n          tempBytes32 := mload(add(add(_bytes, 0x20), _start))\n      }\n\n      return tempBytes32;\n  }\n\n  // ------------------------------------------------\n  //\n  // Functions Setters Public\n  //\n  // ------------------------------------------------\n  \n  function setZoneLicensePrice(bytes6 _zoneGeohash, uint _priceDTH)\n    external\n  {\n    address zoneAddress = zoneFactory.geohashToZone(_zoneGeohash);\n    require(zoneAddress != address(0), \"zone is not already owned\");\n    IZone zoneInstance = IZone(zoneAddress);\n    address zoneOwner = zoneInstance.ownerAddr();\n    require(msg.sender == zoneOwner,\"only zone owner can modify the licence price\");\n    require(_priceDTH > floorLicencePrice, \"price should be superior to the floor price\");\n    zoneLicencePrice[_zoneGeohash] = _priceDTH;\n  }\n\n  function calcShopTax(uint _startTime, uint _endTime, uint _licencePrice)\n    public\n    view\n    returns (uint taxAmount)\n  {\n    taxAmount = _licencePrice.mul(_endTime.sub(_startTime)).div(TAX).div(1 days);\n  }\n\n  function collectTax(bytes6 _zoneGeohash, uint _start, uint _end)\n    public\n  {\n    address zoneAddress = zoneFactory.geohashToZone(_zoneGeohash);\n    require(zoneAddress != address(0), \"zone is not already owned\");\n    IZone zoneInstance = IZone(zoneAddress);\n    address zoneOwner = zoneInstance.ownerAddr();\n    // require(msg.sender == zoneOwner, \"only zone owner can collect taxes\");\n\n    address[] memory shopsinZone = zoneToShopAddresses[_zoneGeohash];\n    require(_end - _start <= shopsinZone.length && _end <= shopsinZone.length, \"start and end value are bigger than address[]\");\n    // loop on all shops present on his zone and:\n    // collect taxes if possible\n    // delete point if no more enough stake\n    uint taxToSendToZoneOwner = 0;\n    for (uint i = _start; i < _end; i+= 1) {\n\n      uint taxAmount = calcShopTax(shopAddressToShop[shopsinZone[i]].lastTaxTime, now, shopAddressToShop[shopsinZone[i]].licencePrice);\n      if (taxAmount > shopAddressToShop[shopsinZone[i]].staked) {\n        // shop pay what he can and is deleted\n        taxToSendToZoneOwner = taxToSendToZoneOwner.add(shopAddressToShop[shopsinZone[i]].staked);\n        _deleteShop(shopsinZone[i]);\n      } else {\n        shopAddressToShop[shopsinZone[i]].staked = shopAddressToShop[shopsinZone[i]].staked.sub(taxAmount);\n\n        taxToSendToZoneOwner = taxToSendToZoneOwner.add(taxAmount);\n\n        shopAddressToShop[shopsinZone[i]].lastTaxTime = now;\n      }\n    }\n    require(dth.transfer(zoneOwner, taxToSendToZoneOwner));\n    stakedDth = stakedDth.sub(taxToSendToZoneOwner);\n    emit TaxTotalPaidTo(taxToSendToZoneOwner, zoneOwner);\n  }\n\n  function tokenFallback(address _from, uint _value, bytes memory _data)\n    public\n    onlyWhenCallerIsDTH\n  {\n    require(_data.length == 95, \"addShop expects 95 bytes as data\");\n    // audit feedback\n    require(!isContract(_from), 'shops cannot be a contract');\n    address sender = _from;\n    uint dthAmount = _value;\n\n    bytes1 fn = toBytes1(_data, 0);\n    require(fn == bytes1(0x30) || fn == bytes1(0x31), \"first byte didnt match func shop\");\n\n    if (fn == bytes1(0x31)) {         // shop account top up\n      _topUp(sender, _value);\n    } else if (fn == bytes1(0x30)) {  // shop creation\n      bytes2 country = toBytes2(_data, 1);\n      bytes12 position = toBytes12(_data, 3);\n      bytes16 category = toBytes16(_data, 15);\n      bytes16 name = toBytes16(_data, 31);\n      bytes32 description = toBytes32(_data, 47);\n      bytes16 opening = toBytes16(_data, 79);\n\n      require(geo.zoneIsEnabled(country), \"country is disabled\");\n      require(shopAddressToShop[sender].position == bytes12(0), \"caller already has shop\");\n      require(positionToShopAddress[position] == address(0), \"shop already exists at position\");\n      require(geo.validGeohashChars12(position), \"invalid geohash characters in position\");\n      require(geo.zoneInsideBiggerZone(country, bytes4(position)), \"zone is not inside country\");\n\n      // check the price for adding shop in this zone (geohash6)\n      uint zoneValue = zoneLicencePrice[bytes6(position)] > floorLicencePrice ? zoneLicencePrice[bytes6(position)] : floorLicencePrice;\n      require(dthAmount >= zoneValue, \"send dth is less than shop license price\");\n\n      // create new entry in storage\n      Shop storage shop = shopAddressToShop[sender];\n      shop.position = position; // a 12 character geohash\n      shop.category = category;\n      shop.name = name;\n      shop.description = description;\n      shop.opening = opening;\n      shop.staked = dthAmount;\n      shop.hasDispute = false;\n      shop.disputeID = 0; // dispute could have id 0..\n      shop.geohashZoneBase = bytes6(position);\n      shop.licencePrice = zoneValue;\n      shop.lastTaxTime = now;\n      stakedDth = stakedDth.add(dthAmount);\n\n      // so we can get a shop based on its position\n      positionToShopAddress[position] = sender;\n\n      // a zone is a 6 character geohash, we keep track of all shops in a given zone\n      shop._index = zoneToShopAddresses[bytes6(position)].push(sender) - 1;\n    }\n  }\n\n  function _topUp(address _sender, uint _dthAmount) // GAS COST +/- 104.201\n    private\n  {\n    require(shopAddressToShop[_sender].lastTaxTime > 0, 'Shop does not exist'); // TODO change the value of the check\n    shopAddressToShop[_sender].staked = shopAddressToShop[_sender].staked.add(_dthAmount);\n    stakedDth = stakedDth.add(_dthAmount);\n  }\n\n  // function _deleteShop(address shopAddress)\n  //   private\n  // {\n  //   bytes12 position = shopAddressToShop[shopAddress].position;\n  //   delete shopAddressToShop[shopAddress];\n  //   positionToShopAddress[position] = address(0);\n\n  //   delete positionToShopAddress[shopAddressToShop[shopAddress].position];\n  //   uint indexToRemove = shopAddressToShop[shopAddress]._index;\n  //   zoneToShopAddresses[bytes6(position)][indexToRemove] = zoneToShopAddresses[bytes6(position)][zoneToShopAddresses[bytes6(position)].length - 1];\n  //   shopAddressToShop[zoneToShopAddresses[bytes6(position)][indexToRemove]]._index = indexToRemove;\n  //   // zoneToShopAddresses[bytes6(position)].length--;\n  //   zoneToShopAddresses[bytes6(position)].pop();\n  //   delete shopAddressToShop[shopAddress];\n  // }\n\n  function _deleteShop(address shopAddress)\n    private\n  {\n    bytes12 position = shopAddressToShop[shopAddress].position;\n    uint indexToRemove = shopAddressToShop[shopAddress]._index;\n\n    // remove shop address from list of shop addresses in zone\n    // move last existing shop address to the position of the shop-to-remove\n    zoneToShopAddresses[bytes6(position)][indexToRemove] = zoneToShopAddresses[bytes6(position)][zoneToShopAddresses[bytes6(position)].length - 1];\n    // update the index of the last shop that was moved into the position fo the shop-to-remove\n    shopAddressToShop[zoneToShopAddresses[bytes6(position)][indexToRemove]]._index = indexToRemove;\n    // remove the last item, which was moved to the position of shop-to-remove\n    zoneToShopAddresses[bytes6(position)].pop();\n\n    delete shopAddressToShop[shopAddress];\n    delete positionToShopAddress[shopAddressToShop[shopAddress].position];\n  }\n\n  function removeShop()\n    external\n    onlyWhenCallerIsShop\n    onlyWhenNoDispute(msg.sender)\n  {\n    uint shopStake = shopAddressToShop[msg.sender].staked;\n\n    _deleteShop(msg.sender);\n\n    require(dth.transfer(msg.sender, shopStake));\n    stakedDth = stakedDth.sub(shopStake);\n  }\n\n  function removeShopFromZoneOwner(address _shopAddress, bytes6 _zoneGeohash)\n    external\n  {\n    require(disputeEnabled == false, 'Once activated, only dispute contract can remove shop');\n    address zoneAddress = zoneFactory.geohashToZone(_zoneGeohash);\n    IZone zoneInstance = IZone(zoneAddress);\n    address zoneOwner = zoneInstance.ownerAddr();\n    require(msg.sender == zoneOwner, 'msg.sender is not the owner of the zone');\n    bytes12 shopPos = shopAddressToShop[_shopAddress].position;\n    bytes6 zoneGeohash = zoneInstance.geohash();\n    require(bytes6(shopPos) == zoneGeohash, \"position is not inside this zone\");\n    uint shopStake = shopAddressToShop[_shopAddress].staked;\n\n    _deleteShop(_shopAddress);\n\n    require(dth.transfer(_shopAddress, shopStake));\n    stakedDth = stakedDth.sub(shopStake);\n  }\n\n  function withdrawDth()\n    external\n  {\n    uint dthWithdraw = withdrawableDth[msg.sender];\n    require(dthWithdraw > 0, \"nothing to withdraw\");\n\n    withdrawableDth[msg.sender] = 0;\n    require(dth.transfer(msg.sender, dthWithdraw));\n    stakedDth = stakedDth.sub(dthWithdraw);\n  }\n\n  //\n  // called by shopsDispute contract\n  //\n\n  function setDispute(address _shopAddress, uint _disputeID)\n    external\n    onlyWhenCallerIsShopsDispute\n  {\n    require(shopAddressToShop[_shopAddress].position != bytes12(0), \"shop does not exist\");\n    shopAddressToShop[_shopAddress].hasDispute = true;\n    shopAddressToShop[_shopAddress].disputeID = _disputeID;\n  }\n\n  function unsetDispute(address _shopAddress)\n    external\n    onlyWhenCallerIsShopsDispute\n  {\n    require(shopAddressToShop[_shopAddress].position != bytes12(0), \"shop does not exist\");\n    shopAddressToShop[_shopAddress].hasDispute = false;\n    shopAddressToShop[_shopAddress].disputeID = 0;\n  }\n\n  function removeDisputedShop(address _shopAddress, address _challenger)\n    external\n    onlyWhenCallerIsShopsDispute\n  {\n    uint shopStake = shopAddressToShop[_shopAddress].staked;\n\n    _deleteShop(_shopAddress);\n\n    withdrawableDth[_challenger] = shopStake;\n  }\n}\n",
  "sourcePath": "/Users/mehdi/code/dether/contractV2/contracts/core/Shops.sol",
  "compiler": {
    "name": "solc",
    "version": "0.5.10+commit.5a6ea5b1.Emscripten.clang"
  },
  "schemaVersion": "3.0.13",
  "updatedAt": "2019-08-27T14:48:24.668Z",
  "devdoc": {
    "methods": {}
  },
  "userdoc": {
    "methods": {}
  }
}