{
  "contractName": "Shops",
  "abi": [
    {
      "constant": true,
      "inputs": [],
      "name": "dth",
      "outputs": [
        {
          "name": "",
          "type": "address"
        }
      ],
      "payable": false,
      "stateMutability": "view",
      "type": "function"
    },
    {
      "constant": true,
      "inputs": [
        {
          "name": "",
          "type": "bytes6"
        }
      ],
      "name": "zoneLicencePrice",
      "outputs": [
        {
          "name": "",
          "type": "uint256"
        }
      ],
      "payable": false,
      "stateMutability": "view",
      "type": "function"
    },
    {
      "constant": true,
      "inputs": [
        {
          "name": "",
          "type": "address"
        }
      ],
      "name": "withdrawableDth",
      "outputs": [
        {
          "name": "",
          "type": "uint256"
        }
      ],
      "payable": false,
      "stateMutability": "view",
      "type": "function"
    },
    {
      "constant": true,
      "inputs": [],
      "name": "DAILY_TAX",
      "outputs": [
        {
          "name": "",
          "type": "uint256"
        }
      ],
      "payable": false,
      "stateMutability": "view",
      "type": "function"
    },
    {
      "constant": true,
      "inputs": [
        {
          "name": "",
          "type": "bytes12"
        }
      ],
      "name": "positionToShopAddress",
      "outputs": [
        {
          "name": "",
          "type": "address"
        }
      ],
      "payable": false,
      "stateMutability": "view",
      "type": "function"
    },
    {
      "constant": true,
      "inputs": [
        {
          "name": "",
          "type": "bytes6"
        },
        {
          "name": "",
          "type": "uint256"
        }
      ],
      "name": "zoneToShopAddresses",
      "outputs": [
        {
          "name": "",
          "type": "address"
        }
      ],
      "payable": false,
      "stateMutability": "view",
      "type": "function"
    },
    {
      "constant": true,
      "inputs": [],
      "name": "zoneFactory",
      "outputs": [
        {
          "name": "",
          "type": "address"
        }
      ],
      "payable": false,
      "stateMutability": "view",
      "type": "function"
    },
    {
      "constant": true,
      "inputs": [],
      "name": "disputeStarter",
      "outputs": [
        {
          "name": "",
          "type": "address"
        }
      ],
      "payable": false,
      "stateMutability": "view",
      "type": "function"
    },
    {
      "constant": true,
      "inputs": [],
      "name": "shopsDispute",
      "outputs": [
        {
          "name": "",
          "type": "address"
        }
      ],
      "payable": false,
      "stateMutability": "view",
      "type": "function"
    },
    {
      "constant": true,
      "inputs": [],
      "name": "geo",
      "outputs": [
        {
          "name": "",
          "type": "address"
        }
      ],
      "payable": false,
      "stateMutability": "view",
      "type": "function"
    },
    {
      "constant": true,
      "inputs": [],
      "name": "users",
      "outputs": [
        {
          "name": "",
          "type": "address"
        }
      ],
      "payable": false,
      "stateMutability": "view",
      "type": "function"
    },
    {
      "constant": true,
      "inputs": [],
      "name": "floorLicencePrice",
      "outputs": [
        {
          "name": "",
          "type": "uint256"
        }
      ],
      "payable": false,
      "stateMutability": "view",
      "type": "function"
    },
    {
      "inputs": [
        {
          "name": "_dth",
          "type": "address"
        },
        {
          "name": "_geo",
          "type": "address"
        },
        {
          "name": "_users",
          "type": "address"
        },
        {
          "name": "_zoneFactory",
          "type": "address"
        }
      ],
      "payable": false,
      "stateMutability": "nonpayable",
      "type": "constructor"
    },
    {
      "anonymous": false,
      "inputs": [
        {
          "indexed": false,
          "name": "_name",
          "type": "bytes16"
        },
        {
          "indexed": false,
          "name": "_staked",
          "type": "uint256"
        },
        {
          "indexed": false,
          "name": "_licencePrice",
          "type": "uint256"
        },
        {
          "indexed": false,
          "name": "_lastTaxTime",
          "type": "uint256"
        }
      ],
      "name": "logShopData",
      "type": "event"
    },
    {
      "anonymous": false,
      "inputs": [
        {
          "indexed": false,
          "name": "_uint",
          "type": "uint256"
        },
        {
          "indexed": false,
          "name": "_log",
          "type": "string"
        }
      ],
      "name": "logUint",
      "type": "event"
    },
    {
      "anonymous": false,
      "inputs": [
        {
          "indexed": false,
          "name": "_string",
          "type": "string"
        }
      ],
      "name": "logString",
      "type": "event"
    },
    {
      "anonymous": false,
      "inputs": [
        {
          "indexed": false,
          "name": "amount",
          "type": "uint256"
        },
        {
          "indexed": false,
          "name": "to",
          "type": "address"
        },
        {
          "indexed": false,
          "name": "by",
          "type": "address"
        }
      ],
      "name": "TaxPayedToBy",
      "type": "event"
    },
    {
      "anonymous": false,
      "inputs": [
        {
          "indexed": false,
          "name": "amount",
          "type": "uint256"
        },
        {
          "indexed": false,
          "name": "to",
          "type": "address"
        }
      ],
      "name": "TaxTotalPaidTo",
      "type": "event"
    },
    {
      "constant": false,
      "inputs": [
        {
          "name": "_shopsDispute",
          "type": "address"
        }
      ],
      "name": "setShopsDisputeContract",
      "outputs": [],
      "payable": false,
      "stateMutability": "nonpayable",
      "type": "function"
    },
    {
      "constant": false,
      "inputs": [],
      "name": "enableDispute",
      "outputs": [],
      "payable": false,
      "stateMutability": "nonpayable",
      "type": "function"
    },
    {
      "constant": true,
      "inputs": [
        {
          "name": "_addr",
          "type": "address"
        }
      ],
      "name": "getShopByAddr",
      "outputs": [
        {
          "name": "",
          "type": "bytes12"
        },
        {
          "name": "",
          "type": "bytes16"
        },
        {
          "name": "",
          "type": "bytes16"
        },
        {
          "name": "",
          "type": "bytes32"
        },
        {
          "name": "",
          "type": "bytes16"
        },
        {
          "name": "",
          "type": "uint256"
        },
        {
          "name": "",
          "type": "bool"
        },
        {
          "name": "",
          "type": "uint256"
        },
        {
          "name": "",
          "type": "uint256"
        },
        {
          "name": "",
          "type": "uint256"
        }
      ],
      "payable": false,
      "stateMutability": "view",
      "type": "function"
    },
    {
      "constant": true,
      "inputs": [
        {
          "name": "_position",
          "type": "bytes12"
        }
      ],
      "name": "getShopByPos",
      "outputs": [
        {
          "name": "",
          "type": "bytes12"
        },
        {
          "name": "",
          "type": "bytes16"
        },
        {
          "name": "",
          "type": "bytes16"
        },
        {
          "name": "",
          "type": "bytes32"
        },
        {
          "name": "",
          "type": "bytes16"
        },
        {
          "name": "",
          "type": "uint256"
        },
        {
          "name": "",
          "type": "bool"
        },
        {
          "name": "",
          "type": "uint256"
        },
        {
          "name": "",
          "type": "uint256"
        },
        {
          "name": "",
          "type": "uint256"
        }
      ],
      "payable": false,
      "stateMutability": "view",
      "type": "function"
    },
    {
      "constant": true,
      "inputs": [
        {
          "name": "_zoneGeohash",
          "type": "bytes6"
        }
      ],
      "name": "getShopAddressesInZone",
      "outputs": [
        {
          "name": "",
          "type": "address[]"
        }
      ],
      "payable": false,
      "stateMutability": "view",
      "type": "function"
    },
    {
      "constant": true,
      "inputs": [
        {
          "name": "_shopAddress",
          "type": "address"
        }
      ],
      "name": "shopByAddrExists",
      "outputs": [
        {
          "name": "",
          "type": "bool"
        }
      ],
      "payable": false,
      "stateMutability": "view",
      "type": "function"
    },
    {
      "constant": true,
      "inputs": [
        {
          "name": "_shopAddress",
          "type": "address"
        }
      ],
      "name": "getShopDisputeID",
      "outputs": [
        {
          "name": "",
          "type": "uint256"
        }
      ],
      "payable": false,
      "stateMutability": "view",
      "type": "function"
    },
    {
      "constant": true,
      "inputs": [
        {
          "name": "_shopAddress",
          "type": "address"
        }
      ],
      "name": "hasDispute",
      "outputs": [
        {
          "name": "",
          "type": "bool"
        }
      ],
      "payable": false,
      "stateMutability": "view",
      "type": "function"
    },
    {
      "constant": true,
      "inputs": [
        {
          "name": "_shopAddress",
          "type": "address"
        }
      ],
      "name": "getShopStaked",
      "outputs": [
        {
          "name": "",
          "type": "uint256"
        }
      ],
      "payable": false,
      "stateMutability": "view",
      "type": "function"
    },
    {
      "constant": false,
      "inputs": [
        {
          "name": "_zoneGeohash",
          "type": "bytes6"
        },
        {
          "name": "_priceDTH",
          "type": "uint256"
        }
      ],
      "name": "setZoneLicensePrice",
      "outputs": [],
      "payable": false,
      "stateMutability": "nonpayable",
      "type": "function"
    },
    {
      "constant": true,
      "inputs": [
        {
          "name": "_startTime",
          "type": "uint256"
        },
        {
          "name": "_endTime",
          "type": "uint256"
        },
        {
          "name": "_licencePrice",
          "type": "uint256"
        }
      ],
      "name": "calcShopTax",
      "outputs": [
        {
          "name": "taxAmount",
          "type": "uint256"
        }
      ],
      "payable": false,
      "stateMutability": "view",
      "type": "function"
    },
    {
      "constant": false,
      "inputs": [
        {
          "name": "_zoneGeohash",
          "type": "bytes6"
        },
        {
          "name": "_start",
          "type": "uint256"
        },
        {
          "name": "_end",
          "type": "uint256"
        }
      ],
      "name": "collectTax",
      "outputs": [],
      "payable": false,
      "stateMutability": "nonpayable",
      "type": "function"
    },
    {
      "constant": false,
      "inputs": [
        {
          "name": "_from",
          "type": "address"
        },
        {
          "name": "_value",
          "type": "uint256"
        },
        {
          "name": "_data",
          "type": "bytes"
        }
      ],
      "name": "tokenFallback",
      "outputs": [],
      "payable": false,
      "stateMutability": "nonpayable",
      "type": "function"
    },
    {
      "constant": false,
      "inputs": [],
      "name": "removeShop",
      "outputs": [],
      "payable": false,
      "stateMutability": "nonpayable",
      "type": "function"
    },
    {
      "constant": false,
      "inputs": [
        {
          "name": "_shopAddress",
          "type": "address"
        },
        {
          "name": "_zoneGeohash",
          "type": "bytes6"
        }
      ],
      "name": "removeShopFromZoneOwner",
      "outputs": [],
      "payable": false,
      "stateMutability": "nonpayable",
      "type": "function"
    },
    {
      "constant": false,
      "inputs": [],
      "name": "withdrawDth",
      "outputs": [],
      "payable": false,
      "stateMutability": "nonpayable",
      "type": "function"
    },
    {
      "constant": false,
      "inputs": [
        {
          "name": "_shopAddress",
          "type": "address"
        },
        {
          "name": "_disputeID",
          "type": "uint256"
        }
      ],
      "name": "setDispute",
      "outputs": [],
      "payable": false,
      "stateMutability": "nonpayable",
      "type": "function"
    },
    {
      "constant": false,
      "inputs": [
        {
          "name": "_shopAddress",
          "type": "address"
        }
      ],
      "name": "unsetDispute",
      "outputs": [],
      "payable": false,
      "stateMutability": "nonpayable",
      "type": "function"
    },
    {
      "constant": false,
      "inputs": [
        {
          "name": "_shopAddress",
          "type": "address"
        },
        {
          "name": "_challenger",
          "type": "address"
        }
      ],
      "name": "removeDisputedShop",
      "outputs": [],
      "payable": false,
      "stateMutability": "nonpayable",
      "type": "function"
    }
  ],
  "bytecode": "0x60806040526000600660146101000a81548160ff0219169083151502179055506000600660156101000a81548160ff021916908315150217905550680246ddf979766800006007553480156200005457600080fd5b50604051620060cb380380620060cb83398181016040526200007a9190810190620003ac565b600073ffffffffffffffffffffffffffffffffffffffff168473ffffffffffffffffffffffffffffffffffffffff161415620000ed576040517f08c379a0000000000000000000000000000000000000000000000000000000008152600401620000e49062000546565b60405180910390fd5b600073ffffffffffffffffffffffffffffffffffffffff168373ffffffffffffffffffffffffffffffffffffffff16141562000160576040517f08c379a000000000000000000000000000000000000000000000000000000000815260040162000157906200058a565b60405180910390fd5b600073ffffffffffffffffffffffffffffffffffffffff168273ffffffffffffffffffffffffffffffffffffffff161415620001d3576040517f08c379a0000000000000000000000000000000000000000000000000000000008152600401620001ca9062000568565b60405180910390fd5b600073ffffffffffffffffffffffffffffffffffffffff168173ffffffffffffffffffffffffffffffffffffffff16141562000246576040517f08c379a00000000000000000000000000000000000000000000000000000000081526004016200023d90620005ac565b60405180910390fd5b83600160006101000a81548173ffffffffffffffffffffffffffffffffffffffff021916908373ffffffffffffffffffffffffffffffffffffffff16021790555082600260006101000a81548173ffffffffffffffffffffffffffffffffffffffff021916908373ffffffffffffffffffffffffffffffffffffffff16021790555081600360006101000a81548173ffffffffffffffffffffffffffffffffffffffff021916908373ffffffffffffffffffffffffffffffffffffffff16021790555080600460006101000a81548173ffffffffffffffffffffffffffffffffffffffff021916908373ffffffffffffffffffffffffffffffffffffffff16021790555033600660006101000a81548173ffffffffffffffffffffffffffffffffffffffff021916908373ffffffffffffffffffffffffffffffffffffffff160217905550505050506200062d565b600081519050620003a68162000613565b92915050565b60008060008060808587031215620003c357600080fd5b6000620003d38782880162000395565b9450506020620003e68782880162000395565b9350506040620003f98782880162000395565b92505060606200040c8782880162000395565b91505092959194509250565b600062000427601983620005ce565b91507f64746820616464726573732063616e6e6f7420626520307830000000000000006000830152602082019050919050565b600062000469601b83620005ce565b91507f757365727320616464726573732063616e6e6f742062652030783000000000006000830152602082019050919050565b6000620004ab601983620005ce565b91507f67656f20616464726573732063616e6e6f7420626520307830000000000000006000830152602082019050919050565b6000620004ed602183620005ce565b91507f7a6f6e65466163746f727920616464726573732063616e6e6f7420626520307860008301527f30000000000000000000000000000000000000000000000000000000000000006020830152604082019050919050565b60006020820190508181036000830152620005618162000418565b9050919050565b6000602082019050818103600083015262000583816200045a565b9050919050565b60006020820190508181036000830152620005a5816200049c565b9050919050565b60006020820190508181036000830152620005c781620004de565b9050919050565b600082825260208201905092915050565b6000620005ec82620005f3565b9050919050565b600073ffffffffffffffffffffffffffffffffffffffff82169050919050565b6200061e81620005df565b81146200062a57600080fd5b50565b615a8e806200063d6000396000f3fe608060405234801561001057600080fd5b50600436106101e55760003560e01c80637dd03a6f1161010f578063c0ee0b8a116100a2578063e053e20911610071578063e053e2091461058e578063f2020275146105be578063f74354cc146105dc578063f78fdd8e1461060c576101e5565b8063c0ee0b8a1461052e578063c732ff3e1461054a578063d3d6c85814610554578063d944e6a314610570576101e5565b806390a0ed12116100de57806390a0ed12146104a85780639a469b3b146104c4578063a64db62b146104e0578063a990b505146104fe576101e5565b80637dd03a6f1461042257806386caeae81461043e5780638c57e6a11461046e5780638e9820191461048a576101e5565b80633b23d6cd1161018757806373912aac1161015657806373912aac146103ae578063771306d4146103b85780637a4f8e22146103d45780637b9a730114610404576101e5565b80633b23d6cd146102f95780635840486414610329578063658408101461036257806366e603191461037e576101e5565b80632c2f3d13116101c35780632c2f3d13146102715780632ccf449b146102a157806330be7776146102ab57806339cad148146102c9576101e5565b806301e57a37146101ea5780630ea52eae1461020857806320ad4d3714610241575b600080fd5b6101f261062a565b6040516101ff91906152f4565b60405180910390f35b610222600480360361021d91908101906145c0565b610650565b6040516102389a999897969594939291906151f9565b60405180910390f35b61025b600480360361025691908101906145e9565b6106f0565b60405161026891906156c0565b60405180910390f35b61028b6004803603610286919081019061442a565b610708565b60405161029891906156c0565b60405180910390f35b6102a9610720565b005b6102b3610797565b6040516102c091906156c0565b60405180910390f35b6102e360048036036102de91908101906146c6565b61079c565b6040516102f091906156c0565b60405180910390f35b610313600480360361030e91908101906145c0565b6107f4565b6040516103209190615134565b60405180910390f35b610343600480360361033e919081019061442a565b610827565b6040516103599a999897969594939291906151f9565b60405180910390f35b61037c600480360361037791908101906144f4565b610a86565b005b6103986004803603610393919081019061442a565b610d61565b6040516103a591906151c3565b60405180910390f35b6103b6610e7d565b005b6103d260048036036103cd919081019061447c565b611183565b005b6103ee60048036036103e9919081019061463b565b61133e565b6040516103fb9190615134565b60405180910390f35b61040c611389565b6040516104199190615345565b60405180910390f35b61043c6004803603610437919081019061463b565b6113af565b005b6104586004803603610453919081019061442a565b611660565b60405161046591906151c3565b60405180910390f35b61048860048036036104839190810190614677565b6116ed565b005b610492611de6565b60405161049f9190615134565b60405180910390f35b6104c260048036036104bd919081019061442a565b611e0c565b005b6104de60048036036104d9919081019061442a565b6120e7565b005b6104e8612230565b6040516104f59190615134565b60405180910390f35b6105186004803603610513919081019061442a565b612256565b60405161052591906156c0565b60405180910390f35b61054860048036036105439190810190614530565b6123f4565b005b610552612ed0565b005b61056e600480360361056991908101906144b8565b6130fc565b005b61057861356d565b604051610585919061530f565b60405180910390f35b6105a860048036036105a391908101906145e9565b613593565b6040516105b591906151a1565b60405180910390f35b6105c661366e565b6040516105d3919061532a565b60405180910390f35b6105f660048036036105f1919081019061442a565b613694565b60405161060391906156c0565b60405180910390f35b6106146137a3565b60405161062191906156c0565b60405180910390f35b600160009054906101000a900473ffffffffffffffffffffffffffffffffffffffff1681565b6000806000806000806000806000806000600960008d73ffffffffffffffffffffffffffffffffffffffff191673ffffffffffffffffffffffffffffffffffffffff1916815260200190815260200160002060009054906101000a900473ffffffffffffffffffffffffffffffffffffffff1690506106ce81610827565b9a509a509a509a509a509a509a509a509a509a50509193959799509193959799565b60086020528060005260406000206000915090505481565b600b6020528060005260406000206000915090505481565b600660009054906101000a900473ffffffffffffffffffffffffffffffffffffffff1673ffffffffffffffffffffffffffffffffffffffff163373ffffffffffffffffffffffffffffffffffffffff161461077a57600080fd5b6001600660146101000a81548160ff021916908315150217905550565b602a81565b60006107eb620151806107dd602a6107cf6107c089896137a990919063ffffffff16565b876137c990919063ffffffff16565b61380390919063ffffffff16565b61380390919063ffffffff16565b90509392505050565b60096020528060005260406000206000915054906101000a900473ffffffffffffffffffffffffffffffffffffffff1681565b60008060008060008060008060008061083e61421f565b600c60008d73ffffffffffffffffffffffffffffffffffffffff1673ffffffffffffffffffffffffffffffffffffffff168152602001908152602001600020604051806101800160405290816000820160009054906101000a900460a01b73ffffffffffffffffffffffffffffffffffffffff191673ffffffffffffffffffffffffffffffffffffffff1916815260200160008201600c9054906101000a900460801b6fffffffffffffffffffffffffffffffff19166fffffffffffffffffffffffffffffffff191681526020016001820160009054906101000a900460801b6fffffffffffffffffffffffffffffffff19166fffffffffffffffffffffffffffffffff19168152602001600282015481526020016003820160009054906101000a900460801b6fffffffffffffffffffffffffffffffff19166fffffffffffffffffffffffffffffffff191681526020016003820160109054906101000a900460d01b79ffffffffffffffffffffffffffffffffffffffffffffffffffff191679ffffffffffffffffffffffffffffffffffffffffffffffffffff191681526020016004820154815260200160058201548152602001600682015481526020016007820160009054906101000a900460ff16151515158152602001600882015481526020016009820154815250509050806000015181602001518260400151836060015184608001518560c001518661012001518761014001518861010001518960e001519a509a509a509a509a509a509a509a509a509a50509193959799509193959799565b600073ffffffffffffffffffffffffffffffffffffffff16600560009054906101000a900473ffffffffffffffffffffffffffffffffffffffff1673ffffffffffffffffffffffffffffffffffffffff161415610b18576040517f08c379a0000000000000000000000000000000000000000000000000000000008152600401610b0f90615520565b60405180910390fd5b600560009054906101000a900473ffffffffffffffffffffffffffffffffffffffff1673ffffffffffffffffffffffffffffffffffffffff163373ffffffffffffffffffffffffffffffffffffffff1614610ba8576040517f08c379a0000000000000000000000000000000000000000000000000000000008152600401610b9f90615560565b60405180910390fd5b600660149054906101000a900460ff16610bf7576040517f08c379a0000000000000000000000000000000000000000000000000000000008152600401610bee906155a0565b60405180910390fd5b600060a01b73ffffffffffffffffffffffffffffffffffffffff1916600c60008473ffffffffffffffffffffffffffffffffffffffff1673ffffffffffffffffffffffffffffffffffffffff16815260200190815260200160002060000160009054906101000a900460a01b73ffffffffffffffffffffffffffffffffffffffff19161415610cbb576040517f08c379a0000000000000000000000000000000000000000000000000000000008152600401610cb2906155e0565b60405180910390fd5b6001600c60008473ffffffffffffffffffffffffffffffffffffffff1673ffffffffffffffffffffffffffffffffffffffff16815260200190815260200160002060070160006101000a81548160ff02191690831515021790555080600c60008473ffffffffffffffffffffffffffffffffffffffff1673ffffffffffffffffffffffffffffffffffffffff168152602001908152602001600020600801819055505050565b60008060a01b73ffffffffffffffffffffffffffffffffffffffff1916600c60008473ffffffffffffffffffffffffffffffffffffffff1673ffffffffffffffffffffffffffffffffffffffff16815260200190815260200160002060000160009054906101000a900460a01b73ffffffffffffffffffffffffffffffffffffffff19161415610e26576040517f08c379a0000000000000000000000000000000000000000000000000000000008152600401610e1d906155e0565b60405180910390fd5b600c60008373ffffffffffffffffffffffffffffffffffffffff1673ffffffffffffffffffffffffffffffffffffffff16815260200190815260200160002060070160009054906101000a900460ff169050919050565b600073ffffffffffffffffffffffffffffffffffffffff16600560009054906101000a900473ffffffffffffffffffffffffffffffffffffffff1673ffffffffffffffffffffffffffffffffffffffff161415610f0f576040517f08c379a0000000000000000000000000000000000000000000000000000000008152600401610f0690615520565b60405180910390fd5b600060a01b73ffffffffffffffffffffffffffffffffffffffff1916600c60003373ffffffffffffffffffffffffffffffffffffffff1673ffffffffffffffffffffffffffffffffffffffff16815260200190815260200160002060000160009054906101000a900460a01b73ffffffffffffffffffffffffffffffffffffffff19161415610fd3576040517f08c379a0000000000000000000000000000000000000000000000000000000008152600401610fca90615440565b60405180910390fd5b33600c60008273ffffffffffffffffffffffffffffffffffffffff1673ffffffffffffffffffffffffffffffffffffffff16815260200190815260200160002060070160009054906101000a900460ff1615611064576040517f08c379a000000000000000000000000000000000000000000000000000000000815260040161105b90615460565b60405180910390fd5b6000600c60003373ffffffffffffffffffffffffffffffffffffffff1673ffffffffffffffffffffffffffffffffffffffff1681526020019081526020016000206004015490506110b433613829565b600160009054906101000a900473ffffffffffffffffffffffffffffffffffffffff1673ffffffffffffffffffffffffffffffffffffffff1663a9059cbb33836040518363ffffffff1660e01b815260040161111192919061514f565b602060405180830381600087803b15801561112b57600080fd5b505af115801561113f573d6000803e3d6000fd5b505050506040513d601f19601f820116820180604052506111639190810190614597565b50611179816000546137a990919063ffffffff16565b6000819055505050565b600073ffffffffffffffffffffffffffffffffffffffff16600560009054906101000a900473ffffffffffffffffffffffffffffffffffffffff1673ffffffffffffffffffffffffffffffffffffffff161415611215576040517f08c379a000000000000000000000000000000000000000000000000000000000815260040161120c90615520565b60405180910390fd5b600560009054906101000a900473ffffffffffffffffffffffffffffffffffffffff1673ffffffffffffffffffffffffffffffffffffffff163373ffffffffffffffffffffffffffffffffffffffff16146112a5576040517f08c379a000000000000000000000000000000000000000000000000000000000815260040161129c90615560565b60405180910390fd5b6000600c60008473ffffffffffffffffffffffffffffffffffffffff1673ffffffffffffffffffffffffffffffffffffffff1681526020019081526020016000206004015490506112f583613829565b80600b60008473ffffffffffffffffffffffffffffffffffffffff1673ffffffffffffffffffffffffffffffffffffffff16815260200190815260200160002081905550505050565b600a602052816000526040600020818154811061135757fe5b906000526020600020016000915091509054906101000a900473ffffffffffffffffffffffffffffffffffffffff1681565b600460009054906101000a900473ffffffffffffffffffffffffffffffffffffffff1681565b6000600460009054906101000a900473ffffffffffffffffffffffffffffffffffffffff1673ffffffffffffffffffffffffffffffffffffffff166393d33a33846040518263ffffffff1660e01b815260040161140c91906152d9565b60206040518083038186803b15801561142457600080fd5b505afa158015611438573d6000803e3d6000fd5b505050506040513d601f19601f8201168201806040525061145c9190810190614453565b9050600073ffffffffffffffffffffffffffffffffffffffff168173ffffffffffffffffffffffffffffffffffffffff1614156114ce576040517f08c379a00000000000000000000000000000000000000000000000000000000081526004016114c5906154c0565b60405180910390fd5b600081905060008173ffffffffffffffffffffffffffffffffffffffff16639c675eaa6040518163ffffffff1660e01b815260040160206040518083038186803b15801561151b57600080fd5b505afa15801561152f573d6000803e3d6000fd5b505050506040513d601f19601f820116820180604052506115539190810190614453565b90508073ffffffffffffffffffffffffffffffffffffffff163373ffffffffffffffffffffffffffffffffffffffff16146115c3576040517f08c379a00000000000000000000000000000000000000000000000000000000081526004016115ba90615680565b60405180910390fd5b6007548411611607576040517f08c379a00000000000000000000000000000000000000000000000000000000081526004016115fe90615380565b60405180910390fd5b83600860008779ffffffffffffffffffffffffffffffffffffffffffffffffffff191679ffffffffffffffffffffffffffffffffffffffffffffffffffff19168152602001908152602001600020819055505050505050565b60008060a01b73ffffffffffffffffffffffffffffffffffffffff1916600c60008473ffffffffffffffffffffffffffffffffffffffff1673ffffffffffffffffffffffffffffffffffffffff16815260200190815260200160002060000160009054906101000a900460a01b73ffffffffffffffffffffffffffffffffffffffff191614159050919050565b6000600460009054906101000a900473ffffffffffffffffffffffffffffffffffffffff1673ffffffffffffffffffffffffffffffffffffffff166393d33a33856040518263ffffffff1660e01b815260040161174a91906152d9565b60206040518083038186803b15801561176257600080fd5b505afa158015611776573d6000803e3d6000fd5b505050506040513d601f19601f8201168201806040525061179a9190810190614453565b9050600073ffffffffffffffffffffffffffffffffffffffff168173ffffffffffffffffffffffffffffffffffffffff16141561180c576040517f08c379a0000000000000000000000000000000000000000000000000000000008152600401611803906154c0565b60405180910390fd5b600081905060008173ffffffffffffffffffffffffffffffffffffffff16639c675eaa6040518163ffffffff1660e01b815260040160206040518083038186803b15801561185957600080fd5b505afa15801561186d573d6000803e3d6000fd5b505050506040513d601f19601f820116820180604052506118919190810190614453565b90506060600a60008879ffffffffffffffffffffffffffffffffffffffffffffffffffff191679ffffffffffffffffffffffffffffffffffffffffffffffffffff1916815260200190815260200160002080548060200260200160405190810160405280929190818152602001828054801561196257602002820191906000526020600020905b8160009054906101000a900473ffffffffffffffffffffffffffffffffffffffff1673ffffffffffffffffffffffffffffffffffffffff1681526020019060010190808311611918575b50505050509050805186860311156119af576040517f08c379a00000000000000000000000000000000000000000000000000000000081526004016119a690615500565b60405180910390fd5b600080905060008790505b86811015611ca0576000611a79600c60008685815181106119d757fe5b602002602001015173ffffffffffffffffffffffffffffffffffffffff1673ffffffffffffffffffffffffffffffffffffffff1681526020019081526020016000206006015442600c6000888781518110611a2e57fe5b602002602001015173ffffffffffffffffffffffffffffffffffffffff1673ffffffffffffffffffffffffffffffffffffffff1681526020019081526020016000206005015461079c565b9050600c6000858481518110611a8b57fe5b602002602001015173ffffffffffffffffffffffffffffffffffffffff1673ffffffffffffffffffffffffffffffffffffffff16815260200190815260200160002060040154811115611b6357611b40600c6000868581518110611aeb57fe5b602002602001015173ffffffffffffffffffffffffffffffffffffffff1673ffffffffffffffffffffffffffffffffffffffff1681526020019081526020016000206004015484613eeb90919063ffffffff16565b9250611b5e848381518110611b5157fe5b6020026020010151613829565b611c94565b611bcb81600c6000878681518110611b7757fe5b602002602001015173ffffffffffffffffffffffffffffffffffffffff1673ffffffffffffffffffffffffffffffffffffffff168152602001908152602001600020600401546137a990919063ffffffff16565b600c6000868581518110611bdb57fe5b602002602001015173ffffffffffffffffffffffffffffffffffffffff1673ffffffffffffffffffffffffffffffffffffffff16815260200190815260200160002060040181905550611c378184613eeb90919063ffffffff16565b925042600c6000868581518110611c4a57fe5b602002602001015173ffffffffffffffffffffffffffffffffffffffff1673ffffffffffffffffffffffffffffffffffffffff168152602001908152602001600020600601819055505b506001810190506119ba565b507f2590b2b08d341f06abc5e13956e6fa6d8f51a7f41f8c823b20852e11191ffb9881604051611cd09190615704565b60405180910390a1600160009054906101000a900473ffffffffffffffffffffffffffffffffffffffff1673ffffffffffffffffffffffffffffffffffffffff1663a9059cbb84836040518363ffffffff1660e01b8152600401611d35929190615178565b602060405180830381600087803b158015611d4f57600080fd5b505af1158015611d63573d6000803e3d6000fd5b505050506040513d601f19601f82011682018060405250611d879190810190614597565b50611d9d816000546137a990919063ffffffff16565b6000819055507f564e4e6e9ec454ac6c80c226d068f046438c307c84a473acb6f47a30b534ad008184604051611dd49291906156db565b60405180910390a15050505050505050565b600660009054906101000a900473ffffffffffffffffffffffffffffffffffffffff1681565b600073ffffffffffffffffffffffffffffffffffffffff16600560009054906101000a900473ffffffffffffffffffffffffffffffffffffffff1673ffffffffffffffffffffffffffffffffffffffff161415611e9e576040517f08c379a0000000000000000000000000000000000000000000000000000000008152600401611e9590615520565b60405180910390fd5b600560009054906101000a900473ffffffffffffffffffffffffffffffffffffffff1673ffffffffffffffffffffffffffffffffffffffff163373ffffffffffffffffffffffffffffffffffffffff1614611f2e576040517f08c379a0000000000000000000000000000000000000000000000000000000008152600401611f2590615560565b60405180910390fd5b600660149054906101000a900460ff16611f7d576040517f08c379a0000000000000000000000000000000000000000000000000000000008152600401611f74906155a0565b60405180910390fd5b600060a01b73ffffffffffffffffffffffffffffffffffffffff1916600c60008373ffffffffffffffffffffffffffffffffffffffff1673ffffffffffffffffffffffffffffffffffffffff16815260200190815260200160002060000160009054906101000a900460a01b73ffffffffffffffffffffffffffffffffffffffff19161415612041576040517f08c379a0000000000000000000000000000000000000000000000000000000008152600401612038906155e0565b60405180910390fd5b6000600c60008373ffffffffffffffffffffffffffffffffffffffff1673ffffffffffffffffffffffffffffffffffffffff16815260200190815260200160002060070160006101000a81548160ff0219169083151502179055506000600c60008373ffffffffffffffffffffffffffffffffffffffff1673ffffffffffffffffffffffffffffffffffffffff1681526020019081526020016000206008018190555050565b600073ffffffffffffffffffffffffffffffffffffffff168173ffffffffffffffffffffffffffffffffffffffff161415612157576040517f08c379a000000000000000000000000000000000000000000000000000000000815260040161214e906155c0565b60405180910390fd5b600660009054906101000a900473ffffffffffffffffffffffffffffffffffffffff1673ffffffffffffffffffffffffffffffffffffffff163373ffffffffffffffffffffffffffffffffffffffff16146121b157600080fd5b60001515600660159054906101000a900460ff161515146121d157600080fd5b80600560006101000a81548173ffffffffffffffffffffffffffffffffffffffff021916908373ffffffffffffffffffffffffffffffffffffffff1602179055506001600660156101000a81548160ff02191690831515021790555050565b600560009054906101000a900473ffffffffffffffffffffffffffffffffffffffff1681565b60008060a01b73ffffffffffffffffffffffffffffffffffffffff1916600c60008473ffffffffffffffffffffffffffffffffffffffff1673ffffffffffffffffffffffffffffffffffffffff16815260200190815260200160002060000160009054906101000a900460a01b73ffffffffffffffffffffffffffffffffffffffff1916141561231b576040517f08c379a0000000000000000000000000000000000000000000000000000000008152600401612312906155e0565b60405180910390fd5b600c60008373ffffffffffffffffffffffffffffffffffffffff1673ffffffffffffffffffffffffffffffffffffffff16815260200190815260200160002060070160009054906101000a900460ff166123aa576040517f08c379a00000000000000000000000000000000000000000000000000000000081526004016123a1906154a0565b60405180910390fd5b600c60008373ffffffffffffffffffffffffffffffffffffffff1673ffffffffffffffffffffffffffffffffffffffff168152602001908152602001600020600801549050919050565b600160009054906101000a900473ffffffffffffffffffffffffffffffffffffffff1673ffffffffffffffffffffffffffffffffffffffff163373ffffffffffffffffffffffffffffffffffffffff1614612484576040517f08c379a000000000000000000000000000000000000000000000000000000000815260040161247b906154e0565b60405180910390fd5b605f8151146124c8576040517f08c379a00000000000000000000000000000000000000000000000000000000081526004016124bf90615620565b60405180910390fd5b6000839050600083905060006124df846000613f0a565b9050603060f81b7effffffffffffffffffffffffffffffffffffffffffffffffffffffffffffff1916817effffffffffffffffffffffffffffffffffffffffffffffffffffffffffffff1916148061257e5750603160f81b7effffffffffffffffffffffffffffffffffffffffffffffffffffffffffffff1916817effffffffffffffffffffffffffffffffffffffffffffffffffffffffffffff1916145b6125bd576040517f08c379a00000000000000000000000000000000000000000000000000000000081526004016125b490615540565b60405180910390fd5b603160f81b7effffffffffffffffffffffffffffffffffffffffffffffffffffffffffffff1916817effffffffffffffffffffffffffffffffffffffffffffffffffffffffffffff1916141561261c576126178386613f68565b612ec8565b603060f81b7effffffffffffffffffffffffffffffffffffffffffffffffffffffffffffff1916817effffffffffffffffffffffffffffffffffffffffffffffffffffffffffffff19161415612ec75760006126798560016140a7565b90506000612688866003614105565b9050600061269787600f614163565b905060006126a688601f614163565b905060006126b589602f6141c1565b905060006126c48a604f614163565b9050600260009054906101000a900473ffffffffffffffffffffffffffffffffffffffff1673ffffffffffffffffffffffffffffffffffffffff16630dc210aa876040518263ffffffff1660e01b81526004016127219190615295565b60206040518083038186803b15801561273957600080fd5b505afa15801561274d573d6000803e3d6000fd5b505050506040513d601f19601f820116820180604052506127719190810190614597565b6127b0576040517f08c379a00000000000000000000000000000000000000000000000000000000081526004016127a790615360565b60405180910390fd5b600060a01b73ffffffffffffffffffffffffffffffffffffffff1916600c60008b73ffffffffffffffffffffffffffffffffffffffff1673ffffffffffffffffffffffffffffffffffffffff16815260200190815260200160002060000160009054906101000a900460a01b73ffffffffffffffffffffffffffffffffffffffff191614612873576040517f08c379a000000000000000000000000000000000000000000000000000000000815260040161286a90615400565b60405180910390fd5b600073ffffffffffffffffffffffffffffffffffffffff16600960008773ffffffffffffffffffffffffffffffffffffffff191673ffffffffffffffffffffffffffffffffffffffff1916815260200190815260200160002060009054906101000a900473ffffffffffffffffffffffffffffffffffffffff1673ffffffffffffffffffffffffffffffffffffffff1614612943576040517f08c379a000000000000000000000000000000000000000000000000000000000815260040161293a90615580565b60405180910390fd5b600260009054906101000a900473ffffffffffffffffffffffffffffffffffffffff1673ffffffffffffffffffffffffffffffffffffffff1663bf922fe2866040518263ffffffff1660e01b815260040161299e91906151de565b602060405180830381600087803b1580156129b857600080fd5b505af11580156129cc573d6000803e3d6000fd5b505050506040513d601f19601f820116820180604052506129f09190810190614597565b612a2f576040517f08c379a0000000000000000000000000000000000000000000000000000000008152600401612a26906153c0565b60405180910390fd5b600260009054906101000a900473ffffffffffffffffffffffffffffffffffffffff1673ffffffffffffffffffffffffffffffffffffffff1663df6b2c2c87876040518363ffffffff1660e01b8152600401612a8c9291906152b0565b60206040518083038186803b158015612aa457600080fd5b505afa158015612ab8573d6000803e3d6000fd5b505050506040513d601f19601f82011682018060405250612adc9190810190614597565b612b1b576040517f08c379a0000000000000000000000000000000000000000000000000000000008152600401612b12906153a0565b60405180910390fd5b6000600754600860008879ffffffffffffffffffffffffffffffffffffffffffffffffffff191679ffffffffffffffffffffffffffffffffffffffffffffffffffff191681526020019081526020016000205411612b7b57600754612bca565b600860008779ffffffffffffffffffffffffffffffffffffffffffffffffffff191679ffffffffffffffffffffffffffffffffffffffffffffffffffff19168152602001908152602001600020545b905080891015612c0f576040517f08c379a0000000000000000000000000000000000000000000000000000000008152600401612c0690615600565b60405180910390fd5b6000600c60008c73ffffffffffffffffffffffffffffffffffffffff1673ffffffffffffffffffffffffffffffffffffffff1681526020019081526020016000209050868160000160006101000a8154816bffffffffffffffffffffffff021916908360a01c02179055508581600001600c6101000a8154816fffffffffffffffffffffffffffffffff021916908360801c0217905550848160010160006101000a8154816fffffffffffffffffffffffffffffffff021916908360801c0217905550838160020181905550828160030160006101000a8154816fffffffffffffffffffffffffffffffff021916908360801c021790555089816004018190555060008160070160006101000a81548160ff02191690831515021790555060008160080181905550868160030160106101000a81548165ffffffffffff021916908360d01c0217905550818160050181905550428160060181905550612d808a600054613eeb90919063ffffffff16565b6000819055508a600960008973ffffffffffffffffffffffffffffffffffffffff191673ffffffffffffffffffffffffffffffffffffffff1916815260200190815260200160002060006101000a81548173ffffffffffffffffffffffffffffffffffffffff021916908373ffffffffffffffffffffffffffffffffffffffff160217905550600a60008879ffffffffffffffffffffffffffffffffffffffffffffffffffff191679ffffffffffffffffffffffffffffffffffffffffffffffffffff191681526020019081526020016000208b90806001815401808255809150509060018203906000526020600020016000909192909190916101000a81548173ffffffffffffffffffffffffffffffffffffffff021916908373ffffffffffffffffffffffffffffffffffffffff160217905550816009018190555050505050505050505b5b505050505050565b600073ffffffffffffffffffffffffffffffffffffffff16600560009054906101000a900473ffffffffffffffffffffffffffffffffffffffff1673ffffffffffffffffffffffffffffffffffffffff161415612f62576040517f08c379a0000000000000000000000000000000000000000000000000000000008152600401612f5990615520565b60405180910390fd5b6000600b60003373ffffffffffffffffffffffffffffffffffffffff1673ffffffffffffffffffffffffffffffffffffffff16815260200190815260200160002054905060008111612fe9576040517f08c379a0000000000000000000000000000000000000000000000000000000008152600401612fe090615640565b60405180910390fd5b6000600b60003373ffffffffffffffffffffffffffffffffffffffff1673ffffffffffffffffffffffffffffffffffffffff16815260200190815260200160002081905550600160009054906101000a900473ffffffffffffffffffffffffffffffffffffffff1673ffffffffffffffffffffffffffffffffffffffff1663a9059cbb33836040518363ffffffff1660e01b815260040161308b92919061514f565b602060405180830381600087803b1580156130a557600080fd5b505af11580156130b9573d6000803e3d6000fd5b505050506040513d601f19601f820116820180604052506130dd9190810190614597565b506130f3816000546137a990919063ffffffff16565b60008190555050565b60001515600660149054906101000a900460ff16151514613152576040517f08c379a0000000000000000000000000000000000000000000000000000000008152600401613149906153e0565b60405180910390fd5b6000600460009054906101000a900473ffffffffffffffffffffffffffffffffffffffff1673ffffffffffffffffffffffffffffffffffffffff166393d33a33836040518263ffffffff1660e01b81526004016131af91906152d9565b60206040518083038186803b1580156131c757600080fd5b505afa1580156131db573d6000803e3d6000fd5b505050506040513d601f19601f820116820180604052506131ff9190810190614453565b9050600081905060008173ffffffffffffffffffffffffffffffffffffffff16639c675eaa6040518163ffffffff1660e01b815260040160206040518083038186803b15801561324e57600080fd5b505afa158015613262573d6000803e3d6000fd5b505050506040513d601f19601f820116820180604052506132869190810190614453565b90508073ffffffffffffffffffffffffffffffffffffffff163373ffffffffffffffffffffffffffffffffffffffff16146132f6576040517f08c379a00000000000000000000000000000000000000000000000000000000081526004016132ed906156a0565b60405180910390fd5b6000600c60008773ffffffffffffffffffffffffffffffffffffffff1673ffffffffffffffffffffffffffffffffffffffff16815260200190815260200160002060000160009054906101000a900460a01b905060008373ffffffffffffffffffffffffffffffffffffffff166308e44f886040518163ffffffff1660e01b815260040160206040518083038186803b15801561339257600080fd5b505afa1580156133a6573d6000803e3d6000fd5b505050506040513d601f19601f820116820180604052506133ca9190810190614612565b90508079ffffffffffffffffffffffffffffffffffffffffffffffffffff19168279ffffffffffffffffffffffffffffffffffffffffffffffffffff191614613448576040517f08c379a000000000000000000000000000000000000000000000000000000000815260040161343f90615480565b60405180910390fd5b6000600c60008973ffffffffffffffffffffffffffffffffffffffff1673ffffffffffffffffffffffffffffffffffffffff16815260200190815260200160002060040154905061349888613829565b600160009054906101000a900473ffffffffffffffffffffffffffffffffffffffff1673ffffffffffffffffffffffffffffffffffffffff1663a9059cbb89836040518363ffffffff1660e01b81526004016134f5929190615178565b602060405180830381600087803b15801561350f57600080fd5b505af1158015613523573d6000803e3d6000fd5b505050506040513d601f19601f820116820180604052506135479190810190614597565b5061355d816000546137a990919063ffffffff16565b6000819055505050505050505050565b600260009054906101000a900473ffffffffffffffffffffffffffffffffffffffff1681565b6060600a60008379ffffffffffffffffffffffffffffffffffffffffffffffffffff191679ffffffffffffffffffffffffffffffffffffffffffffffffffff1916815260200190815260200160002080548060200260200160405190810160405280929190818152602001828054801561366257602002820191906000526020600020905b8160009054906101000a900473ffffffffffffffffffffffffffffffffffffffff1673ffffffffffffffffffffffffffffffffffffffff1681526020019060010190808311613618575b50505050509050919050565b600360009054906101000a900473ffffffffffffffffffffffffffffffffffffffff1681565b60008060a01b73ffffffffffffffffffffffffffffffffffffffff1916600c60008473ffffffffffffffffffffffffffffffffffffffff1673ffffffffffffffffffffffffffffffffffffffff16815260200190815260200160002060000160009054906101000a900460a01b73ffffffffffffffffffffffffffffffffffffffff19161415613759576040517f08c379a0000000000000000000000000000000000000000000000000000000008152600401613750906155e0565b60405180910390fd5b600c60008373ffffffffffffffffffffffffffffffffffffffff1673ffffffffffffffffffffffffffffffffffffffff168152602001908152602001600020600401549050919050565b60075481565b6000828211156137b857600080fd5b600082840390508091505092915050565b6000808314156137dc57600090506137fd565b60008284029050828482816137ed57fe5b04146137f857600080fd5b809150505b92915050565b600080821161381157600080fd5b600082848161381c57fe5b0490508091505092915050565b6000600c60008373ffffffffffffffffffffffffffffffffffffffff1673ffffffffffffffffffffffffffffffffffffffff16815260200190815260200160002060000160009054906101000a900460a01b9050600c60008373ffffffffffffffffffffffffffffffffffffffff1673ffffffffffffffffffffffffffffffffffffffff168152602001908152602001600020600080820160006101000a8154906bffffffffffffffffffffffff021916905560008201600c6101000a8154906fffffffffffffffffffffffffffffffff02191690556001820160006101000a8154906fffffffffffffffffffffffffffffffff021916905560028201600090556003820160006101000a8154906fffffffffffffffffffffffffffffffff02191690556003820160106101000a81549065ffffffffffff02191690556004820160009055600582016000905560068201600090556007820160006101000a81549060ff02191690556008820160009055600982016000905550506000600960008373ffffffffffffffffffffffffffffffffffffffff191673ffffffffffffffffffffffffffffffffffffffff1916815260200190815260200160002060006101000a81548173ffffffffffffffffffffffffffffffffffffffff021916908373ffffffffffffffffffffffffffffffffffffffff16021790555060096000600c60008573ffffffffffffffffffffffffffffffffffffffff1673ffffffffffffffffffffffffffffffffffffffff16815260200190815260200160002060000160009054906101000a900460a01b73ffffffffffffffffffffffffffffffffffffffff191673ffffffffffffffffffffffffffffffffffffffff1916815260200190815260200160002060006101000a81549073ffffffffffffffffffffffffffffffffffffffff02191690556000600c60008473ffffffffffffffffffffffffffffffffffffffff1673ffffffffffffffffffffffffffffffffffffffff168152602001908152602001600020600901549050600a60008379ffffffffffffffffffffffffffffffffffffffffffffffffffff191679ffffffffffffffffffffffffffffffffffffffffffffffffffff191681526020019081526020016000206001600a60008579ffffffffffffffffffffffffffffffffffffffffffffffffffff191679ffffffffffffffffffffffffffffffffffffffffffffffffffff19168152602001908152602001600020805490500381548110613bca57fe5b9060005260206000200160009054906101000a900473ffffffffffffffffffffffffffffffffffffffff16600a60008479ffffffffffffffffffffffffffffffffffffffffffffffffffff191679ffffffffffffffffffffffffffffffffffffffffffffffffffff191681526020019081526020016000208281548110613c4d57fe5b9060005260206000200160006101000a81548173ffffffffffffffffffffffffffffffffffffffff021916908373ffffffffffffffffffffffffffffffffffffffff16021790555080600c6000600a60008679ffffffffffffffffffffffffffffffffffffffffffffffffffff191679ffffffffffffffffffffffffffffffffffffffffffffffffffff191681526020019081526020016000208481548110613cf257fe5b9060005260206000200160009054906101000a900473ffffffffffffffffffffffffffffffffffffffff1673ffffffffffffffffffffffffffffffffffffffff1673ffffffffffffffffffffffffffffffffffffffff16815260200190815260200160002060090181905550600a60008379ffffffffffffffffffffffffffffffffffffffffffffffffffff191679ffffffffffffffffffffffffffffffffffffffffffffffffffff19168152602001908152602001600020805480919060019003613dbe91906142f2565b50600c60008473ffffffffffffffffffffffffffffffffffffffff1673ffffffffffffffffffffffffffffffffffffffff168152602001908152602001600020600080820160006101000a8154906bffffffffffffffffffffffff021916905560008201600c6101000a8154906fffffffffffffffffffffffffffffffff02191690556001820160006101000a8154906fffffffffffffffffffffffffffffffff021916905560028201600090556003820160006101000a8154906fffffffffffffffffffffffffffffffff02191690556003820160106101000a81549065ffffffffffff02191690556004820160009055600582016000905560068201600090556007820160006101000a81549060ff0219169055600882016000905560098201600090555050505050565b600080828401905083811015613f0057600080fd5b8091505092915050565b60006001820183511015613f53576040517f08c379a0000000000000000000000000000000000000000000000000000000008152600401613f4a90615660565b60405180910390fd5b60008260208501015190508091505092915050565b6000600c60008473ffffffffffffffffffffffffffffffffffffffff1673ffffffffffffffffffffffffffffffffffffffff1681526020019081526020016000206006015411613fed576040517f08c379a0000000000000000000000000000000000000000000000000000000008152600401613fe490615420565b60405180910390fd5b61404281600c60008573ffffffffffffffffffffffffffffffffffffffff1673ffffffffffffffffffffffffffffffffffffffff16815260200190815260200160002060040154613eeb90919063ffffffff16565b600c60008473ffffffffffffffffffffffffffffffffffffffff1673ffffffffffffffffffffffffffffffffffffffff1681526020019081526020016000206004018190555061409d81600054613eeb90919063ffffffff16565b6000819055505050565b600060028201835110156140f0576040517f08c379a00000000000000000000000000000000000000000000000000000000081526004016140e790615660565b60405180910390fd5b60008260208501015190508091505092915050565b6000600c82018351101561414e576040517f08c379a000000000000000000000000000000000000000000000000000000000815260040161414590615660565b60405180910390fd5b60008260208501015190508091505092915050565b600060108201835110156141ac576040517f08c379a00000000000000000000000000000000000000000000000000000000081526004016141a390615660565b60405180910390fd5b60008260208501015190508091505092915050565b6000602082018351101561420a576040517f08c379a000000000000000000000000000000000000000000000000000000000815260040161420190615660565b60405180910390fd5b60008260208501015190508091505092915050565b604051806101800160405280600073ffffffffffffffffffffffffffffffffffffffff1916815260200160006fffffffffffffffffffffffffffffffff1916815260200160006fffffffffffffffffffffffffffffffff191681526020016000801916815260200160006fffffffffffffffffffffffffffffffff19168152602001600079ffffffffffffffffffffffffffffffffffffffffffffffffffff1916815260200160008152602001600081526020016000815260200160001515815260200160008152602001600081525090565b81548183558181111561431957818360005260206000209182019101614318919061431e565b5b505050565b61434091905b8082111561433c576000816000905550600101614324565b5090565b90565b600081359050614352816159d8565b92915050565b600081519050614367816159d8565b92915050565b60008151905061437c816159ef565b92915050565b60008135905061439181615a06565b92915050565b6000813590506143a681615a1d565b92915050565b6000815190506143bb81615a1d565b92915050565b600082601f8301126143d257600080fd5b81356143e56143e08261575f565b615732565b9150808252602083016020830185838301111561440157600080fd5b61440c8382846159c9565b50505092915050565b60008135905061442481615a34565b92915050565b60006020828403121561443c57600080fd5b600061444a84828501614343565b91505092915050565b60006020828403121561446557600080fd5b600061447384828501614358565b91505092915050565b6000806040838503121561448f57600080fd5b600061449d85828601614343565b92505060206144ae85828601614343565b9150509250929050565b600080604083850312156144cb57600080fd5b60006144d985828601614343565b92505060206144ea85828601614397565b9150509250929050565b6000806040838503121561450757600080fd5b600061451585828601614343565b925050602061452685828601614415565b9150509250929050565b60008060006060848603121561454557600080fd5b600061455386828701614343565b935050602061456486828701614415565b925050604084013567ffffffffffffffff81111561458157600080fd5b61458d868287016143c1565b9150509250925092565b6000602082840312156145a957600080fd5b60006145b78482850161436d565b91505092915050565b6000602082840312156145d257600080fd5b60006145e084828501614382565b91505092915050565b6000602082840312156145fb57600080fd5b600061460984828501614397565b91505092915050565b60006020828403121561462457600080fd5b6000614632848285016143ac565b91505092915050565b6000806040838503121561464e57600080fd5b600061465c85828601614397565b925050602061466d85828601614415565b9150509250929050565b60008060006060848603121561468c57600080fd5b600061469a86828701614397565b93505060206146ab86828701614415565b92505060406146bc86828701614415565b9150509250925092565b6000806000606084860312156146db57600080fd5b60006146e986828701614415565b93505060206146fa86828701614415565b925050604061470b86828701614415565b9150509250925092565b6000614721838361473c565b60208301905092915050565b61473681615903565b82525050565b614745816157d5565b82525050565b614754816157d5565b82525050565b60006147658261579b565b61476f81856157b3565b935061477a8361578b565b8060005b838110156147ab5781516147928882614715565b975061479d836157a6565b92505060018101905061477e565b5085935050505092915050565b6147c1816157e7565b82525050565b6147d0816157f3565b82525050565b6147df8161581f565b82525050565b6147ee8161584b565b82525050565b6147fd81615877565b82525050565b61480c81615881565b82525050565b61481b816158ad565b82525050565b61482a81615915565b82525050565b61483981615939565b82525050565b6148488161595d565b82525050565b61485781615981565b82525050565b600061486a6013836157c4565b91507f636f756e7472792069732064697361626c6564000000000000000000000000006000830152602082019050919050565b60006148aa602b836157c4565b91507f70726963652073686f756c64206265207375706572696f7220746f207468652060008301527f666c6f6f722070726963650000000000000000000000000000000000000000006020830152604082019050919050565b6000614910601a836157c4565b91507f7a6f6e65206973206e6f7420696e7369646520636f756e7472790000000000006000830152602082019050919050565b60006149506026836157c4565b91507f696e76616c69642067656f68617368206368617261637465727320696e20706f60008301527f736974696f6e00000000000000000000000000000000000000000000000000006020830152604082019050919050565b60006149b66035836157c4565b91507f4f6e6365206163746976617465642c206f6e6c79206469737075746520636f6e60008301527f74726163742063616e2072656d6f76652073686f7000000000000000000000006020830152604082019050919050565b6000614a1c6017836157c4565b91507f63616c6c657220616c7265616479206861732073686f700000000000000000006000830152602082019050919050565b6000614a5c6013836157c4565b91507f53686f7020646f6573206e6f74206578697374000000000000000000000000006000830152602082019050919050565b6000614a9c6012836157c4565b91507f63616c6c6572206973206e6f742073686f7000000000000000000000000000006000830152602082019050919050565b6000614adc6010836157c4565b91507f73686f70206861732064697370757465000000000000000000000000000000006000830152602082019050919050565b6000614b1c6020836157c4565b91507f706f736974696f6e206973206e6f7420696e736964652074686973207a6f6e656000830152602082019050919050565b6000614b5c6013836157c4565b91507f73686f7020686173206e6f2064697370757465000000000000000000000000006000830152602082019050919050565b6000614b9c6019836157c4565b91507f7a6f6e65206973206e6f7420616c7265616479206f776e6564000000000000006000830152602082019050919050565b6000614bdc6022836157c4565b91507f63616e206f6e6c792062652063616c6c65642062792064746820636f6e74726160008301527f63740000000000000000000000000000000000000000000000000000000000006020830152604082019050919050565b6000614c42602d836157c4565b91507f737461727420616e6420656e642076616c75652061726520626967676572207460008301527f68616e20616464726573735b5d000000000000000000000000000000000000006020830152604082019050919050565b6000614ca86026836157c4565b91507f73686f70734469737075746520636f6e747261637420686173206e6f7420626560008301527f656e2073657400000000000000000000000000000000000000000000000000006020830152604082019050919050565b6000614d0e6020836157c4565b91507f66697273742062797465206469646e74206d617463682066756e632073686f706000830152602082019050919050565b6000614d4e6016836157c4565b91507f74617820746f2073656e64207a6f6e65206f776e6572000000000000000000006000830152602082019050919050565b6000614d8e602b836157c4565b91507f63616e206f6e6c792062652063616c6c65642062792073686f7073446973707560008301527f746520636f6e74726163740000000000000000000000000000000000000000006020830152604082019050919050565b6000614df4601f836157c4565b91507f73686f7020616c72656164792065786973747320617420706f736974696f6e006000830152602082019050919050565b6000614e34602a836157c4565b91507f43616e206f6e6c792062652063616c6c6564207768656e20646973707574652060008301527f697320656e61626c6564000000000000000000000000000000000000000000006020830152604082019050919050565b6000614e9a6024836157c4565b91507f73686f7073206469737075746520636f6e74726163742063616e6e6f7420626560008301527f20307830000000000000000000000000000000000000000000000000000000006020830152604082019050919050565b6000614f006013836157c4565b91507f73686f7020646f6573206e6f74206578697374000000000000000000000000006000830152602082019050919050565b6000614f406028836157c4565b91507f73656e6420647468206973206c657373207468616e2073686f70206c6963656e60008301527f73652070726963650000000000000000000000000000000000000000000000006020830152604082019050919050565b6000614fa66020836157c4565b91507f61646453686f70206578706563747320393520627974657320617320646174616000830152602082019050919050565b6000614fe66013836157c4565b91507f6e6f7468696e6720746f207769746864726177000000000000000000000000006000830152602082019050919050565b60006150266010836157c4565b91507f206e6f74206c6f6e6720656e6f756768000000000000000000000000000000006000830152602082019050919050565b6000615066602c836157c4565b91507f6f6e6c79207a6f6e65206f776e65722063616e206d6f6469667920746865206c60008301527f6963656e636520707269636500000000000000000000000000000000000000006020830152604082019050919050565b60006150cc6027836157c4565b91507f6d73672e73656e646572206973206e6f7420746865206f776e6572206f66207460008301527f6865207a6f6e65000000000000000000000000000000000000000000000000006020830152604082019050919050565b61512e816158f9565b82525050565b6000602082019050615149600083018461474b565b92915050565b6000604082019050615164600083018561472d565b6151716020830184615125565b9392505050565b600060408201905061518d600083018561474b565b61519a6020830184615125565b9392505050565b600060208201905081810360008301526151bb818461475a565b905092915050565b60006020820190506151d860008301846147b8565b92915050565b60006020820190506151f360008301846147c7565b92915050565b60006101408201905061520f600083018d6147c7565b61521c602083018c6147d6565b615229604083018b6147d6565b615236606083018a6147f4565b61524360808301896147d6565b61525060a0830188615125565b61525d60c08301876147b8565b61526a60e0830186615125565b615278610100830185615125565b615286610120830184615125565b9b9a5050505050505050505050565b60006020820190506152aa60008301846147e5565b92915050565b60006040820190506152c560008301856147e5565b6152d26020830184614803565b9392505050565b60006020820190506152ee6000830184614812565b92915050565b60006020820190506153096000830184614821565b92915050565b60006020820190506153246000830184614830565b92915050565b600060208201905061533f600083018461483f565b92915050565b600060208201905061535a600083018461484e565b92915050565b600060208201905081810360008301526153798161485d565b9050919050565b600060208201905081810360008301526153998161489d565b9050919050565b600060208201905081810360008301526153b981614903565b9050919050565b600060208201905081810360008301526153d981614943565b9050919050565b600060208201905081810360008301526153f9816149a9565b9050919050565b6000602082019050818103600083015261541981614a0f565b9050919050565b6000602082019050818103600083015261543981614a4f565b9050919050565b6000602082019050818103600083015261545981614a8f565b9050919050565b6000602082019050818103600083015261547981614acf565b9050919050565b6000602082019050818103600083015261549981614b0f565b9050919050565b600060208201905081810360008301526154b981614b4f565b9050919050565b600060208201905081810360008301526154d981614b8f565b9050919050565b600060208201905081810360008301526154f981614bcf565b9050919050565b6000602082019050818103600083015261551981614c35565b9050919050565b6000602082019050818103600083015261553981614c9b565b9050919050565b6000602082019050818103600083015261555981614d01565b9050919050565b6000602082019050818103600083015261557981614d81565b9050919050565b6000602082019050818103600083015261559981614de7565b9050919050565b600060208201905081810360008301526155b981614e27565b9050919050565b600060208201905081810360008301526155d981614e8d565b9050919050565b600060208201905081810360008301526155f981614ef3565b9050919050565b6000602082019050818103600083015261561981614f33565b9050919050565b6000602082019050818103600083015261563981614f99565b9050919050565b6000602082019050818103600083015261565981614fd9565b9050919050565b6000602082019050818103600083015261567981615019565b9050919050565b6000602082019050818103600083015261569981615059565b9050919050565b600060208201905081810360008301526156b9816150bf565b9050919050565b60006020820190506156d56000830184615125565b92915050565b60006040820190506156f06000830185615125565b6156fd602083018461474b565b9392505050565b60006040820190506157196000830184615125565b818103602083015261572a81614d41565b905092915050565b6000604051905081810181811067ffffffffffffffff8211171561575557600080fd5b8060405250919050565b600067ffffffffffffffff82111561577657600080fd5b601f19601f8301169050602081019050919050565b6000819050602082019050919050565b600081519050919050565b6000602082019050919050565b600082825260208201905092915050565b600082825260208201905092915050565b60006157e0826158d9565b9050919050565b60008115159050919050565b60007fffffffffffffffffffffffff000000000000000000000000000000000000000082169050919050565b60007fffffffffffffffffffffffffffffffff0000000000000000000000000000000082169050919050565b60007fffff00000000000000000000000000000000000000000000000000000000000082169050919050565b6000819050919050565b60007fffffffff0000000000000000000000000000000000000000000000000000000082169050919050565b60007fffffffffffff000000000000000000000000000000000000000000000000000082169050919050565b600073ffffffffffffffffffffffffffffffffffffffff82169050919050565b6000819050919050565b600061590e826159a5565b9050919050565b600061592082615927565b9050919050565b6000615932826158d9565b9050919050565b60006159448261594b565b9050919050565b6000615956826158d9565b9050919050565b60006159688261596f565b9050919050565b600061597a826158d9565b9050919050565b600061598c82615993565b9050919050565b600061599e826158d9565b9050919050565b60006159b0826159b7565b9050919050565b60006159c2826158d9565b9050919050565b82818337600083830152505050565b6159e1816157d5565b81146159ec57600080fd5b50565b6159f8816157e7565b8114615a0357600080fd5b50565b615a0f816157f3565b8114615a1a57600080fd5b50565b615a26816158ad565b8114615a3157600080fd5b50565b615a3d816158f9565b8114615a4857600080fd5b5056fea365627a7a7230582008f6c16273e1d2d8c75628ac5da517da54a2f224dca88d6f9790612b810c9f1b6c6578706572696d656e74616cf564736f6c634300050a0040",
  "source": "pragma solidity ^0.5.10;\npragma experimental ABIEncoderV2;\n\n\nimport \"openzeppelin-solidity/contracts/math/SafeMath.sol\";\n\nimport \"../interfaces/IDetherToken.sol\";\nimport \"../interfaces/IUsers.sol\";\nimport \"../interfaces/IGeoRegistry.sol\";\nimport \"../interfaces/IZoneFactory.sol\";\nimport \"../interfaces/IZone.sol\";\n\ncontract Shops {\n  // ------------------------------------------------\n  //\n  // Libraries\n  //\n  // ------------------------------------------------\n\n  using SafeMath for uint;\n\n  // ------------------------------------------------\n  //\n  // Enums\n  //\n  // ------------------------------------------------\n\n  enum Party {Shop, Challenger}\n  enum RulingOptions {NoRuling, ShopWins, ChallengerWins}\n  /* enum DisputeStatus {Waiting, Appealable, Solved} // copied from IArbitrable.sol */\n\n  // ------------------------------------------------\n  //\n  // Structs\n  //\n  // ------------------------------------------------\n\n  struct Shop {\n    bytes12 position; // 12 char geohash for location of teller\n    bytes16 category;\n    bytes16 name;\n    bytes32 description;\n    bytes16 opening;\n    bytes6 geohashZoneBase;\n    uint staked;\n    uint licencePrice;\n    uint lastTaxTime;\n    bool hasDispute;\n    uint disputeID;\n    uint _index;\n  }\n  \n  // ------------------------------------------------\n  //\n  // Variables Public\n  //\n  // ------------------------------------------------\n\n  uint stakedDth;\n\n  // links to other contracts\n  IDetherToken public dth;\n  IGeoRegistry public geo;\n  IUsers public users;\n  IZoneFactory public zoneFactory;\n  address public shopsDispute;\n  address public disputeStarter;\n  bool disputeEnabled = false;\n  bool disputeInited = false;\n\n\n  // constant\n  uint public constant DAILY_TAX= 42; // 1/42 daily\n  uint public floorLicencePrice = 42000000000000000000;\n\n    //    bytes6 geohash priceDTH\n  mapping(bytes6 =>   uint) public zoneLicencePrice;\n\n  //      geohash12   shopAddress\n  mapping(bytes12 =>  address) public positionToShopAddress;\n\n  //      geohash6    shopAddresses\n  mapping(bytes6 =>   address[]) public zoneToShopAddresses;\n\n  mapping(address => uint) public withdrawableDth;\n\n  // ------------------------------------------------\n  //\n  // Variables Private\n  //\n  // ------------------------------------------------\n\n  //      shopAddress shopStruct\n  mapping(address =>  Shop) private shopAddressToShop;\n\n  // ------------------------------------------------\n  //\n  // Events\n  //\n  // ------------------------------------------------\n  event logShopData(bytes16 _name, uint _staked, uint _licencePrice, uint _lastTaxTime);\n  event logUint(uint _uint, string _log);\n  event logString(string _string);\n  event TaxPayedToBy(uint amount, address to, address by);\n  event TaxTotalPaidTo(uint amount, address to);\n  // ------------------------------------------------\n  //\n  // Modifiers\n  //\n  // ------------------------------------------------\n\n  modifier onlyWhenDisputeEnabled {\n    require(disputeEnabled, \"Can only be called when dispute is enabled\");\n    _;\n  }\n\n  modifier onlyWhenShopsDisputeSet {\n    require(shopsDispute != address(0), \"shopsDispute contract has not been set\");\n    _;\n  }\n\n  modifier onlyWhenCallerIsShopsDispute {\n    require(msg.sender == shopsDispute, \"can only be called by shopsDispute contract\");\n    _;\n  }\n\n  modifier onlyWhenCallerIsDTH {\n    require(msg.sender == address(dth), \"can only be called by dth contract\");\n    _;\n  }\n\n  modifier onlyWhenNoDispute(address _shopAddress) {\n    require(!shopAddressToShop[_shopAddress].hasDispute, \"shop has dispute\");\n    _;\n  }\n\n  modifier onlyWhenCallerIsShop {\n    require(shopAddressToShop[msg.sender].position != bytes12(0), \"caller is not shop\");\n    _;\n  }\n\n  // ------------------------------------------------\n  //\n  // Events\n  //\n  // ------------------------------------------------\n\n  // ------------------------------------------------\n  //\n  // Constructor\n  //\n  // ------------------------------------------------\n\n  constructor(address _dth, address _geo, address _users, address _zoneFactory)\n    public\n  {\n    require(_dth != address(0), \"dth address cannot be 0x0\");\n    require(_geo != address(0), \"geo address cannot be 0x0\");\n    require(_users != address(0), \"users address cannot be 0x0\");\n    require(_zoneFactory != address(0), \"zoneFactory address cannot be 0x0\");\n\n    dth = IDetherToken(_dth);\n    geo = IGeoRegistry(_geo);\n    users = IUsers(_users);\n    zoneFactory = IZoneFactory(_zoneFactory);\n    disputeStarter = msg.sender;\n  }\n  function setShopsDisputeContract(address _shopsDispute)\n    external\n  {\n    require(_shopsDispute != address(0), \"shops dispute contract cannot be 0x0\");\n    require(msg.sender == disputeStarter);\n    require(disputeInited == false);\n    shopsDispute = _shopsDispute;\n    disputeInited = true;\n  }\n  function enableDispute()\n    external \n    {\n      require(msg.sender == disputeStarter);\n      disputeEnabled = true;\n    }\n  // ------------------------------------------------\n  //\n  // Functions Getters Public\n  //\n  // ------------------------------------------------\n\n  function getShopByAddr(address _addr)\n    public\n    view\n    returns (bytes12, bytes16, bytes16, bytes32, bytes16, uint, bool, uint, uint, uint)\n  {\n    Shop memory shop = shopAddressToShop[_addr];\n\n    return (\n      shop.position,\n      shop.category,\n      shop.name,\n      shop.description,\n      shop.opening,\n      shop.staked,\n      shop.hasDispute,\n      shop.disputeID,\n      shop.lastTaxTime,\n      shop.licencePrice\n    );\n  }\n\n  function getShopByPos(bytes12 _position)\n    external\n    view\n    returns (bytes12, bytes16, bytes16, bytes32, bytes16, uint, bool, uint, uint, uint)\n  {\n    address shopAddr = positionToShopAddress[_position];\n    return getShopByAddr(shopAddr);\n  }\n\n  function getShopAddressesInZone(bytes6 _zoneGeohash)\n    external\n    view\n    returns (address[] memory)\n  {\n    return zoneToShopAddresses[_zoneGeohash];\n  }\n\n  function shopByAddrExists(address _shopAddress)\n    external\n    view\n    returns (bool)\n  {\n    return shopAddressToShop[_shopAddress].position != bytes12(0);\n  }\n\n  function getShopDisputeID(address _shopAddress)\n    external\n    view\n    returns (uint)\n  {\n    require(shopAddressToShop[_shopAddress].position != bytes12(0), \"shop does not exist\");\n    require(shopAddressToShop[_shopAddress].hasDispute, \"shop has no dispute\");\n    return shopAddressToShop[_shopAddress].disputeID;\n  }\n\n  function hasDispute(address _shopAddress)\n    external\n    view\n    returns (bool)\n  {\n    require(shopAddressToShop[_shopAddress].position != bytes12(0), \"shop does not exist\");\n    return shopAddressToShop[_shopAddress].hasDispute;\n  }\n\n  function getShopStaked(address _shopAddress)\n    external\n    view\n    returns (uint)\n  {\n    require(shopAddressToShop[_shopAddress].position != bytes12(0), \"shop does not exist\");\n    return shopAddressToShop[_shopAddress].staked;\n  }\n\n  // ------------------------------------------------\n  //\n  // Functions Getters Private\n  //\n  // ------------------------------------------------\n\n  function toBytes1(bytes memory _bytes, uint _start)\n    private\n    pure\n    returns (bytes1) {\n      require(_bytes.length >= (_start + 1), \" not long enough\");\n      bytes1 tempBytes1;\n\n      assembly {\n          tempBytes1 := mload(add(add(_bytes, 0x20), _start))\n      }\n\n      return tempBytes1;\n  }\n  function toBytes2(bytes memory _bytes, uint _start)\n    private\n    pure\n    returns (bytes2) {\n      require(_bytes.length >= (_start + 2), \" not long enough\");\n      bytes2 tempBytes2;\n\n      assembly {\n          tempBytes2 := mload(add(add(_bytes, 0x20), _start))\n      }\n\n      return tempBytes2;\n  }\n  function toBytes6(bytes memory _bytes, uint _start)\n    private\n    pure\n    returns (bytes6)\n  {\n    require(_bytes.length >= (_start + 6), \" not long enough\");\n    bytes6 tempBytes6;\n\n    assembly {\n        tempBytes6 := mload(add(add(_bytes, 0x20), _start))\n    }\n\n    return tempBytes6;\n  }\n  function toBytes12(bytes memory _bytes, uint _start)\n    private\n    pure\n    returns (bytes12) {\n      require(_bytes.length >= (_start + 12), \" not long enough\");\n      bytes12 tempBytes12;\n\n      assembly {\n          tempBytes12 := mload(add(add(_bytes, 0x20), _start))\n      }\n\n      return tempBytes12;\n  }\n  function toBytes16(bytes memory _bytes, uint _start)\n    private\n    pure\n    returns (bytes16) {\n      require(_bytes.length >= (_start + 16), \" not long enough\");\n      bytes16 tempBytes16;\n\n      assembly {\n          tempBytes16 := mload(add(add(_bytes, 0x20), _start))\n      }\n\n      return tempBytes16;\n  }\n  function toBytes32(bytes memory _bytes, uint _start)\n    private\n    pure\n    returns (bytes32) {\n      require(_bytes.length >= (_start + 32), \" not long enough\");\n      bytes32 tempBytes32;\n\n      assembly {\n          tempBytes32 := mload(add(add(_bytes, 0x20), _start))\n      }\n\n      return tempBytes32;\n  }\n\n  // ------------------------------------------------\n  //\n  // Functions Setters Public\n  //\n  // ------------------------------------------------\n  \n  function setZoneLicensePrice(bytes6 _zoneGeohash, uint _priceDTH)\n    external\n  {\n    address zoneAddress = zoneFactory.geohashToZone(_zoneGeohash);\n    require(zoneAddress != address(0), \"zone is not already owned\");\n    IZone zoneInstance = IZone(zoneAddress);\n    address zoneOwner = zoneInstance.ownerAddr();\n    require(msg.sender == zoneOwner,\"only zone owner can modify the licence price\");\n    require(_priceDTH > floorLicencePrice, \"price should be superior to the floor price\");\n    zoneLicencePrice[_zoneGeohash] = _priceDTH;\n  }\n//   event logShopData(bytes16 _name, uint _staked, uint _licencePrice, uint _startTime, _lastTaxTime);\n\n  function calcShopTax(uint _startTime, uint _endTime, uint _licencePrice)\n    public\n    view\n    returns (uint taxAmount)\n  {\n    taxAmount = _licencePrice.mul(_endTime.sub(_startTime)).div(DAILY_TAX).div(1 days);\n  }\n\n  function collectTax(bytes6 _zoneGeohash, uint _start, uint _end)\n    public\n  {\n    address zoneAddress = zoneFactory.geohashToZone(_zoneGeohash);\n    require(zoneAddress != address(0), \"zone is not already owned\");\n    IZone zoneInstance = IZone(zoneAddress);\n    address zoneOwner = zoneInstance.ownerAddr();\n    // require(msg.sender == zoneOwner, \"only zone owner can collect taxes\");\n\n    address[] memory shopsinZone = zoneToShopAddresses[_zoneGeohash];\n    require(_end - _start <= shopsinZone.length, \"start and end value are bigger than address[]\");\n    // loop on all shops present on his zone and:\n    // collect taxes if possible\n    // delete point if no more enough stake\n    uint taxToSendToZoneOwner = 0;\n    for (uint i = _start; i < _end; i+= 1) {\n\n      uint taxAmount = calcShopTax(shopAddressToShop[shopsinZone[i]].lastTaxTime, now, shopAddressToShop[shopsinZone[i]].licencePrice);\n      if (taxAmount > shopAddressToShop[shopsinZone[i]].staked) {\n        // shop pay what he can and is deleted\n        taxToSendToZoneOwner = taxToSendToZoneOwner.add(shopAddressToShop[shopsinZone[i]].staked);\n        _deleteShop(shopsinZone[i]);\n      } else {\n        shopAddressToShop[shopsinZone[i]].staked = shopAddressToShop[shopsinZone[i]].staked.sub(taxAmount);\n\n        taxToSendToZoneOwner = taxToSendToZoneOwner.add(taxAmount);\n\n        shopAddressToShop[shopsinZone[i]].lastTaxTime = now;\n      }\n    }\n    emit logUint(taxToSendToZoneOwner, 'tax to send zone owner');\n    dth.transfer(zoneOwner, taxToSendToZoneOwner);\n    stakedDth = stakedDth.sub(taxToSendToZoneOwner);\n    emit TaxTotalPaidTo(taxToSendToZoneOwner, zoneOwner);\n  }\n\n  function tokenFallback(address _from, uint _value, bytes memory _data)\n    public\n    onlyWhenCallerIsDTH\n  {\n    require(_data.length == 95, \"addShop expects 95 bytes as data\");\n\n    address sender = _from;\n    uint dthAmount = _value;\n\n    bytes1 fn = toBytes1(_data, 0);\n    require(fn == bytes1(0x30) || fn == bytes1(0x31), \"first byte didnt match func shop\");\n\n    if (fn == bytes1(0x31)) {         // shop account top up\n      _topUp(sender, _value);\n    } else if (fn == bytes1(0x30)) {  // shop creation\n      bytes2 country = toBytes2(_data, 1);\n      bytes12 position = toBytes12(_data, 3);\n      bytes16 category = toBytes16(_data, 15);\n      bytes16 name = toBytes16(_data, 31);\n      bytes32 description = toBytes32(_data, 47);\n      bytes16 opening = toBytes16(_data, 79);\n\n      require(geo.countryIsEnabled(country), \"country is disabled\");\n      require(shopAddressToShop[sender].position == bytes12(0), \"caller already has shop\");\n      require(positionToShopAddress[position] == address(0), \"shop already exists at position\");\n      require(geo.validGeohashChars12(position), \"invalid geohash characters in position\");\n      require(geo.zoneInsideCountry(country, bytes4(position)), \"zone is not inside country\");\n\n      // check the price for adding shop in this zone (geohash6)\n      uint zoneValue = zoneLicencePrice[bytes6(position)] > floorLicencePrice ? zoneLicencePrice[bytes6(position)] : floorLicencePrice;\n      require(dthAmount >= zoneValue, \"send dth is less than shop license price\");\n\n      // create new entry in storage\n      Shop storage shop = shopAddressToShop[sender];\n      shop.position = position; // a 12 character geohash\n      shop.category = category;\n      shop.name = name;\n      shop.description = description;\n      shop.opening = opening;\n      shop.staked = dthAmount;\n      shop.hasDispute = false;\n      shop.disputeID = 0; // dispute could have id 0..\n      shop.geohashZoneBase = bytes6(position);\n      shop.licencePrice = zoneValue;\n      shop.lastTaxTime = now;\n      stakedDth = stakedDth.add(dthAmount);\n\n      // so we can get a shop based on its position\n      positionToShopAddress[position] = sender;\n\n      // a zone is a 6 character geohash, we keep track of all shops in a given zone\n      shop._index = zoneToShopAddresses[bytes6(position)].push(sender);\n    }\n  }\n\n  function _topUp(address _sender, uint _dthAmount) // GAS COST +/- 104.201\n    private\n  {\n    require(shopAddressToShop[_sender].lastTaxTime > 0, 'Shop does not exist'); // TODO change the value of the check\n    shopAddressToShop[_sender].staked = shopAddressToShop[_sender].staked.add(_dthAmount);\n    stakedDth = stakedDth.add(_dthAmount);\n  }\n\n  function _deleteShop(address shopAddress)\n    private\n  {\n    bytes12 position = shopAddressToShop[shopAddress].position;\n\n    delete shopAddressToShop[shopAddress];\n\n    positionToShopAddress[position] = address(0);\n    // it's safe to do a loop, the number of geohash12 in any geohash6 (1.073.741.824) is less than the max uint value\n    // however we would like to NOT loop,\n    // TODO: get rid of the loop by tracking the index of each shop address\n    // address[] storage zoneShopAddresses = zoneToShopAddresses[bytes6(position)];\n    // for (uint i = 0; i < zoneShopAddresses.length; i += 1) {\n    //   address zoneShopAddress = zoneShopAddresses[i];\n    //   if (zoneShopAddress == shopAddress) {\n    //     address lastShopAddress = zoneShopAddresses[zoneShopAddresses.length - 1];\n    //     zoneShopAddresses[i] = lastShopAddress;\n    //     zoneShopAddresses.length--;\n    //     break; // done\n    //   }\n    // }\n\n    delete positionToShopAddress[shopAddressToShop[shopAddress].position];\n    uint indexToRemove = shopAddressToShop[shopAddress]._index;\n    zoneToShopAddresses[bytes6(position)][indexToRemove] = zoneToShopAddresses[bytes6(position)][zoneToShopAddresses[bytes6(position)].length - 1];\n    shopAddressToShop[zoneToShopAddresses[bytes6(position)][indexToRemove]]._index = indexToRemove;\n    zoneToShopAddresses[bytes6(position)].length--;\n    delete shopAddressToShop[shopAddress];\n  }\n\n  function removeShop()\n    external\n    onlyWhenShopsDisputeSet\n    onlyWhenCallerIsShop\n    onlyWhenNoDispute(msg.sender)\n  {\n    uint shopStake = shopAddressToShop[msg.sender].staked;\n\n    _deleteShop(msg.sender);\n\n    dth.transfer(msg.sender, shopStake);\n    stakedDth = stakedDth.sub(shopStake);\n  }\n\n  function removeShopFromZoneOwner(address _shopAddress, bytes6 _zoneGeohash)\n    external\n  {\n    require(disputeEnabled == false, 'Once activated, only dispute contract can remove shop');\n    address zoneAddress = zoneFactory.geohashToZone(_zoneGeohash);\n    IZone zoneInstance = IZone(zoneAddress);\n    address zoneOwner = zoneInstance.ownerAddr();\n    require(msg.sender == zoneOwner, 'msg.sender is not the owner of the zone');\n    bytes12 shopPos = shopAddressToShop[_shopAddress].position;\n    bytes6 zoneGeohash = zoneInstance.geohash();\n    require(bytes6(shopPos) == zoneGeohash, \"position is not inside this zone\");\n    uint shopStake = shopAddressToShop[_shopAddress].staked;\n\n    _deleteShop(_shopAddress);\n\n    dth.transfer(_shopAddress, shopStake);\n    stakedDth = stakedDth.sub(shopStake);\n  }\n\n  function withdrawDth()\n    external\n    onlyWhenShopsDisputeSet\n  {\n    uint dthWithdraw = withdrawableDth[msg.sender];\n    require(dthWithdraw > 0, \"nothing to withdraw\");\n\n    withdrawableDth[msg.sender] = 0;\n    dth.transfer(msg.sender, dthWithdraw);\n    stakedDth = stakedDth.sub(dthWithdraw);\n  }\n\n  //\n  // called by shopsDispute contract\n  //\n\n  function setDispute(address _shopAddress, uint _disputeID)\n    external\n    onlyWhenShopsDisputeSet\n    onlyWhenCallerIsShopsDispute\n    onlyWhenDisputeEnabled\n  {\n    require(shopAddressToShop[_shopAddress].position != bytes12(0), \"shop does not exist\");\n    shopAddressToShop[_shopAddress].hasDispute = true;\n    shopAddressToShop[_shopAddress].disputeID = _disputeID;\n  }\n\n  function unsetDispute(address _shopAddress)\n    external\n    onlyWhenShopsDisputeSet\n    onlyWhenCallerIsShopsDispute\n    onlyWhenDisputeEnabled\n  {\n    require(shopAddressToShop[_shopAddress].position != bytes12(0), \"shop does not exist\");\n    shopAddressToShop[_shopAddress].hasDispute = false;\n    shopAddressToShop[_shopAddress].disputeID = 0;\n  }\n\n  function removeDisputedShop(address _shopAddress, address _challenger)\n    external\n    onlyWhenShopsDisputeSet\n    onlyWhenCallerIsShopsDispute\n  {\n    uint shopStake = shopAddressToShop[_shopAddress].staked;\n\n    _deleteShop(_shopAddress);\n\n    withdrawableDth[_challenger] = shopStake;\n  }\n}\n",
  "sourcePath": "/Users/mehdi/code/dether/contractV2/contracts/core/Shops.sol",
  "compiler": {
    "name": "solc",
    "version": "0.5.10+commit.5a6ea5b1.Emscripten.clang"
  },
  "schemaVersion": "3.0.11",
  "updatedAt": "2019-07-11T15:29:48.944Z",
  "devdoc": {
    "methods": {}
  },
  "userdoc": {
    "methods": {}
  }
}