{
  "contractName": "Shops",
  "abi": [
    {
      "constant": true,
      "inputs": [],
      "name": "dth",
      "outputs": [
        {
          "name": "",
          "type": "address"
        }
      ],
      "payable": false,
      "stateMutability": "view",
      "type": "function"
    },
    {
      "constant": true,
      "inputs": [
        {
          "name": "",
          "type": "bytes6"
        }
      ],
      "name": "zoneLicencePrice",
      "outputs": [
        {
          "name": "",
          "type": "uint256"
        }
      ],
      "payable": false,
      "stateMutability": "view",
      "type": "function"
    },
    {
      "constant": true,
      "inputs": [
        {
          "name": "",
          "type": "address"
        }
      ],
      "name": "withdrawableDth",
      "outputs": [
        {
          "name": "",
          "type": "uint256"
        }
      ],
      "payable": false,
      "stateMutability": "view",
      "type": "function"
    },
    {
      "constant": true,
      "inputs": [],
      "name": "DAILY_TAX",
      "outputs": [
        {
          "name": "",
          "type": "uint256"
        }
      ],
      "payable": false,
      "stateMutability": "view",
      "type": "function"
    },
    {
      "constant": true,
      "inputs": [
        {
          "name": "",
          "type": "bytes12"
        }
      ],
      "name": "positionToShopAddress",
      "outputs": [
        {
          "name": "",
          "type": "address"
        }
      ],
      "payable": false,
      "stateMutability": "view",
      "type": "function"
    },
    {
      "constant": true,
      "inputs": [
        {
          "name": "",
          "type": "bytes6"
        },
        {
          "name": "",
          "type": "uint256"
        }
      ],
      "name": "zoneToShopAddresses",
      "outputs": [
        {
          "name": "",
          "type": "address"
        }
      ],
      "payable": false,
      "stateMutability": "view",
      "type": "function"
    },
    {
      "constant": true,
      "inputs": [],
      "name": "zoneFactory",
      "outputs": [
        {
          "name": "",
          "type": "address"
        }
      ],
      "payable": false,
      "stateMutability": "view",
      "type": "function"
    },
    {
      "constant": true,
      "inputs": [],
      "name": "shopsDispute",
      "outputs": [
        {
          "name": "",
          "type": "address"
        }
      ],
      "payable": false,
      "stateMutability": "view",
      "type": "function"
    },
    {
      "constant": true,
      "inputs": [],
      "name": "control",
      "outputs": [
        {
          "name": "",
          "type": "address"
        }
      ],
      "payable": false,
      "stateMutability": "view",
      "type": "function"
    },
    {
      "constant": true,
      "inputs": [],
      "name": "geo",
      "outputs": [
        {
          "name": "",
          "type": "address"
        }
      ],
      "payable": false,
      "stateMutability": "view",
      "type": "function"
    },
    {
      "constant": true,
      "inputs": [],
      "name": "users",
      "outputs": [
        {
          "name": "",
          "type": "address"
        }
      ],
      "payable": false,
      "stateMutability": "view",
      "type": "function"
    },
    {
      "constant": true,
      "inputs": [],
      "name": "floorLicencePrice",
      "outputs": [
        {
          "name": "",
          "type": "uint256"
        }
      ],
      "payable": false,
      "stateMutability": "view",
      "type": "function"
    },
    {
      "constant": true,
      "inputs": [
        {
          "name": "",
          "type": "bytes2"
        }
      ],
      "name": "countryLicensePrice",
      "outputs": [
        {
          "name": "",
          "type": "uint256"
        }
      ],
      "payable": false,
      "stateMutability": "view",
      "type": "function"
    },
    {
      "inputs": [
        {
          "name": "_dth",
          "type": "address"
        },
        {
          "name": "_geo",
          "type": "address"
        },
        {
          "name": "_users",
          "type": "address"
        },
        {
          "name": "_control",
          "type": "address"
        },
        {
          "name": "_zoneFactory",
          "type": "address"
        }
      ],
      "payable": false,
      "stateMutability": "nonpayable",
      "type": "constructor"
    },
    {
      "anonymous": false,
      "inputs": [
        {
          "indexed": false,
          "name": "_name",
          "type": "bytes16"
        },
        {
          "indexed": false,
          "name": "_staked",
          "type": "uint256"
        },
        {
          "indexed": false,
          "name": "_licencePrice",
          "type": "uint256"
        },
        {
          "indexed": false,
          "name": "_lastTaxTime",
          "type": "uint256"
        }
      ],
      "name": "logShopData",
      "type": "event"
    },
    {
      "anonymous": false,
      "inputs": [
        {
          "indexed": false,
          "name": "_uint",
          "type": "uint256"
        },
        {
          "indexed": false,
          "name": "_log",
          "type": "string"
        }
      ],
      "name": "logUint",
      "type": "event"
    },
    {
      "anonymous": false,
      "inputs": [
        {
          "indexed": false,
          "name": "_string",
          "type": "string"
        }
      ],
      "name": "logString",
      "type": "event"
    },
    {
      "anonymous": false,
      "inputs": [
        {
          "indexed": false,
          "name": "amount",
          "type": "uint256"
        },
        {
          "indexed": false,
          "name": "to",
          "type": "address"
        },
        {
          "indexed": false,
          "name": "by",
          "type": "address"
        }
      ],
      "name": "TaxPayedToBy",
      "type": "event"
    },
    {
      "anonymous": false,
      "inputs": [
        {
          "indexed": false,
          "name": "amount",
          "type": "uint256"
        },
        {
          "indexed": false,
          "name": "to",
          "type": "address"
        }
      ],
      "name": "TaxTotalPaidTo",
      "type": "event"
    },
    {
      "constant": false,
      "inputs": [
        {
          "name": "_shopsDispute",
          "type": "address"
        }
      ],
      "name": "setShopsDisputeContract",
      "outputs": [],
      "payable": false,
      "stateMutability": "nonpayable",
      "type": "function"
    },
    {
      "constant": true,
      "inputs": [
        {
          "name": "_addr",
          "type": "address"
        }
      ],
      "name": "getShopByAddr",
      "outputs": [
        {
          "name": "",
          "type": "bytes12"
        },
        {
          "name": "",
          "type": "bytes16"
        },
        {
          "name": "",
          "type": "bytes16"
        },
        {
          "name": "",
          "type": "bytes32"
        },
        {
          "name": "",
          "type": "bytes16"
        },
        {
          "name": "",
          "type": "uint256"
        },
        {
          "name": "",
          "type": "bool"
        },
        {
          "name": "",
          "type": "uint256"
        },
        {
          "name": "",
          "type": "uint256"
        },
        {
          "name": "",
          "type": "uint256"
        }
      ],
      "payable": false,
      "stateMutability": "view",
      "type": "function"
    },
    {
      "constant": true,
      "inputs": [
        {
          "name": "_position",
          "type": "bytes12"
        }
      ],
      "name": "getShopByPos",
      "outputs": [
        {
          "name": "",
          "type": "bytes12"
        },
        {
          "name": "",
          "type": "bytes16"
        },
        {
          "name": "",
          "type": "bytes16"
        },
        {
          "name": "",
          "type": "bytes32"
        },
        {
          "name": "",
          "type": "bytes16"
        },
        {
          "name": "",
          "type": "uint256"
        },
        {
          "name": "",
          "type": "bool"
        },
        {
          "name": "",
          "type": "uint256"
        },
        {
          "name": "",
          "type": "uint256"
        },
        {
          "name": "",
          "type": "uint256"
        }
      ],
      "payable": false,
      "stateMutability": "view",
      "type": "function"
    },
    {
      "constant": true,
      "inputs": [
        {
          "name": "_zoneGeohash",
          "type": "bytes6"
        }
      ],
      "name": "getShopAddressesInZone",
      "outputs": [
        {
          "name": "",
          "type": "address[]"
        }
      ],
      "payable": false,
      "stateMutability": "view",
      "type": "function"
    },
    {
      "constant": true,
      "inputs": [
        {
          "name": "_shopAddress",
          "type": "address"
        }
      ],
      "name": "shopByAddrExists",
      "outputs": [
        {
          "name": "",
          "type": "bool"
        }
      ],
      "payable": false,
      "stateMutability": "view",
      "type": "function"
    },
    {
      "constant": true,
      "inputs": [
        {
          "name": "_shopAddress",
          "type": "address"
        }
      ],
      "name": "getShopDisputeID",
      "outputs": [
        {
          "name": "",
          "type": "uint256"
        }
      ],
      "payable": false,
      "stateMutability": "view",
      "type": "function"
    },
    {
      "constant": true,
      "inputs": [
        {
          "name": "_shopAddress",
          "type": "address"
        }
      ],
      "name": "hasDispute",
      "outputs": [
        {
          "name": "",
          "type": "bool"
        }
      ],
      "payable": false,
      "stateMutability": "view",
      "type": "function"
    },
    {
      "constant": true,
      "inputs": [
        {
          "name": "_shopAddress",
          "type": "address"
        }
      ],
      "name": "getShopStaked",
      "outputs": [
        {
          "name": "",
          "type": "uint256"
        }
      ],
      "payable": false,
      "stateMutability": "view",
      "type": "function"
    },
    {
      "constant": false,
      "inputs": [
        {
          "name": "_countryCode",
          "type": "bytes2"
        },
        {
          "name": "_priceDTH",
          "type": "uint256"
        }
      ],
      "name": "setCountryLicensePrice",
      "outputs": [],
      "payable": false,
      "stateMutability": "nonpayable",
      "type": "function"
    },
    {
      "constant": false,
      "inputs": [
        {
          "name": "_zoneGeohash",
          "type": "bytes6"
        },
        {
          "name": "_priceDTH",
          "type": "uint256"
        }
      ],
      "name": "setZoneLicensePrice",
      "outputs": [],
      "payable": false,
      "stateMutability": "nonpayable",
      "type": "function"
    },
    {
      "constant": true,
      "inputs": [
        {
          "name": "_startTime",
          "type": "uint256"
        },
        {
          "name": "_endTime",
          "type": "uint256"
        },
        {
          "name": "_licencePrice",
          "type": "uint256"
        }
      ],
      "name": "calcShopTax",
      "outputs": [
        {
          "name": "taxAmount",
          "type": "uint256"
        }
      ],
      "payable": false,
      "stateMutability": "view",
      "type": "function"
    },
    {
      "constant": false,
      "inputs": [
        {
          "name": "_zoneGeohash",
          "type": "bytes6"
        },
        {
          "name": "_start",
          "type": "uint256"
        },
        {
          "name": "_end",
          "type": "uint256"
        }
      ],
      "name": "collectTax",
      "outputs": [],
      "payable": false,
      "stateMutability": "nonpayable",
      "type": "function"
    },
    {
      "constant": false,
      "inputs": [
        {
          "name": "_from",
          "type": "address"
        },
        {
          "name": "_value",
          "type": "uint256"
        },
        {
          "name": "_data",
          "type": "bytes"
        }
      ],
      "name": "tokenFallback",
      "outputs": [],
      "payable": false,
      "stateMutability": "nonpayable",
      "type": "function"
    },
    {
      "constant": false,
      "inputs": [],
      "name": "removeShop",
      "outputs": [],
      "payable": false,
      "stateMutability": "nonpayable",
      "type": "function"
    },
    {
      "constant": false,
      "inputs": [],
      "name": "withdrawDth",
      "outputs": [],
      "payable": false,
      "stateMutability": "nonpayable",
      "type": "function"
    },
    {
      "constant": false,
      "inputs": [
        {
          "name": "_shopAddress",
          "type": "address"
        },
        {
          "name": "_disputeID",
          "type": "uint256"
        }
      ],
      "name": "setDispute",
      "outputs": [],
      "payable": false,
      "stateMutability": "nonpayable",
      "type": "function"
    },
    {
      "constant": false,
      "inputs": [
        {
          "name": "_shopAddress",
          "type": "address"
        }
      ],
      "name": "unsetDispute",
      "outputs": [],
      "payable": false,
      "stateMutability": "nonpayable",
      "type": "function"
    },
    {
      "constant": false,
      "inputs": [
        {
          "name": "_shopAddress",
          "type": "address"
        },
        {
          "name": "_challenger",
          "type": "address"
        }
      ],
      "name": "removeDisputedShop",
      "outputs": [],
      "payable": false,
      "stateMutability": "nonpayable",
      "type": "function"
    }
  ],
  "bytecode": "0x6080604052680246ddf979766800006007553480156200001e57600080fd5b5060405160a08062005d668339810180604052620000409190810190620003e6565b600073ffffffffffffffffffffffffffffffffffffffff168573ffffffffffffffffffffffffffffffffffffffff161415620000b3576040517f08c379a0000000000000000000000000000000000000000000000000000000008152600401620000aa90620005d8565b60405180910390fd5b600073ffffffffffffffffffffffffffffffffffffffff168473ffffffffffffffffffffffffffffffffffffffff16141562000126576040517f08c379a00000000000000000000000000000000000000000000000000000000081526004016200011d906200063e565b60405180910390fd5b600073ffffffffffffffffffffffffffffffffffffffff168373ffffffffffffffffffffffffffffffffffffffff16141562000199576040517f08c379a000000000000000000000000000000000000000000000000000000000815260040162000190906200061c565b60405180910390fd5b600073ffffffffffffffffffffffffffffffffffffffff168273ffffffffffffffffffffffffffffffffffffffff1614156200020c576040517f08c379a00000000000000000000000000000000000000000000000000000000081526004016200020390620005fa565b60405180910390fd5b600073ffffffffffffffffffffffffffffffffffffffff168173ffffffffffffffffffffffffffffffffffffffff1614156200027f576040517f08c379a0000000000000000000000000000000000000000000000000000000008152600401620002769062000660565b60405180910390fd5b84600160006101000a81548173ffffffffffffffffffffffffffffffffffffffff021916908373ffffffffffffffffffffffffffffffffffffffff16021790555083600260006101000a81548173ffffffffffffffffffffffffffffffffffffffff021916908373ffffffffffffffffffffffffffffffffffffffff16021790555082600360006101000a81548173ffffffffffffffffffffffffffffffffffffffff021916908373ffffffffffffffffffffffffffffffffffffffff16021790555081600460006101000a81548173ffffffffffffffffffffffffffffffffffffffff021916908373ffffffffffffffffffffffffffffffffffffffff16021790555080600560006101000a81548173ffffffffffffffffffffffffffffffffffffffff021916908373ffffffffffffffffffffffffffffffffffffffff1602179055505050505050620006e1565b600081519050620003e081620006c7565b92915050565b600080600080600060a08688031215620003ff57600080fd5b60006200040f88828901620003cf565b95505060206200042288828901620003cf565b94505060406200043588828901620003cf565b93505060606200044888828901620003cf565b92505060806200045b88828901620003cf565b9150509295509295909350565b60006200047760198362000682565b91507f64746820616464726573732063616e6e6f7420626520307830000000000000006000830152602082019050919050565b6000620004b9601d8362000682565b91507f636f6e74726f6c20616464726573732063616e6e6f74206265203078300000006000830152602082019050919050565b6000620004fb601b8362000682565b91507f757365727320616464726573732063616e6e6f742062652030783000000000006000830152602082019050919050565b60006200053d60198362000682565b91507f67656f20616464726573732063616e6e6f7420626520307830000000000000006000830152602082019050919050565b60006200057f60218362000682565b91507f7a6f6e65466163746f727920616464726573732063616e6e6f7420626520307860008301527f30000000000000000000000000000000000000000000000000000000000000006020830152604082019050919050565b60006020820190508181036000830152620005f38162000468565b9050919050565b600060208201905081810360008301526200061581620004aa565b9050919050565b600060208201905081810360008301526200063781620004ec565b9050919050565b6000602082019050818103600083015262000659816200052e565b9050919050565b600060208201905081810360008301526200067b8162000570565b9050919050565b600082825260208201905092915050565b6000620006a082620006a7565b9050919050565b600073ffffffffffffffffffffffffffffffffffffffff82169050919050565b620006d28162000693565b8114620006de57600080fd5b50565b61567580620006f16000396000f3fe608060405234801561001057600080fd5b5060043610610202576000357c01000000000000000000000000000000000000000000000000000000009004806386caeae81161012c578063c732ff3e116100bf578063f20202751161008e578063f2020275146105d1578063f74354cc146105ef578063f78fdd8e1461061f578063fb13ed341461063d57610202565b8063c732ff3e1461055b578063d8de658714610565578063d944e6a314610583578063e053e209146105a157610202565b8063a64db62b116100fb578063a64db62b146104d5578063a990b505146104f3578063c0ee0b8a14610523578063c10f74891461053f57610202565b806386caeae8146104515780638c57e6a11461048157806390a0ed121461049d5780639a469b3b146104b957610202565b806358404864116101a4578063771306d411610173578063771306d4146103cb5780637a4f8e22146103e75780637b9a7301146104175780637dd03a6f1461043557610202565b8063584048641461033c578063658408101461037557806366e603191461039157806373912aac146103c157610202565b80632c2f3d13116101e05780632c2f3d131461028e57806330be7776146102be57806339cad148146102dc5780633b23d6cd1461030c57610202565b806301e57a37146102075780630ea52eae1461022557806320ad4d371461025e575b600080fd5b61020f61066d565b60405161021c9190614f0c565b60405180910390f35b61023f600480360361023a9190810190614289565b610693565b6040516102559a99989796959493929190614df6565b60405180910390f35b61027860048036036102739190810190614317565b610733565b6040516102859190615278565b60405180910390f35b6102a860048036036102a3919081019061412f565b61074b565b6040516102b59190615278565b60405180910390f35b6102c6610763565b6040516102d39190615278565b60405180910390f35b6102f660048036036102f191908101906143cb565b610768565b6040516103039190615278565b60405180910390f35b61032660048036036103219190810190614289565b6107c0565b6040516103339190614d16565b60405180910390f35b6103566004803603610351919081019061412f565b6107f3565b60405161036c9a99989796959493929190614df6565b60405180910390f35b61038f600480360361038a91908101906141bd565b610aa6565b005b6103ab60048036036103a6919081019061412f565b610d5a565b6040516103b89190614dc0565b60405180910390f35b6103c9610e9e565b005b6103e560048036036103e09190810190614181565b6111e8565b005b61040160048036036103fc9190810190614340565b6113a3565b60405161040e9190614d16565b60405180910390f35b61041f6113ee565b60405161042c9190614f5d565b60405180910390f35b61044f600480360361044a9190810190614340565b611414565b005b61046b6004803603610466919081019061412f565b6116fd565b6040516104789190614dc0565b60405180910390f35b61049b6004803603610496919081019061437c565b6117b2565b005b6104b760048036036104b2919081019061412f565b611f00565b005b6104d360048036036104ce919081019061412f565b6121b4565b005b6104dd61236e565b6040516104ea9190614d16565b60405180910390f35b61050d6004803603610508919081019061412f565b612394565b60405161051a9190615278565b60405180910390f35b61053d600480360361053891908101906141f9565b61255a565b005b610559600480360361055491908101906142db565b61318a565b005b6105636132ee565b005b61056d613536565b60405161057a9190614ef1565b60405180910390f35b61058b61355c565b6040516105989190614f27565b60405180910390f35b6105bb60048036036105b69190810190614317565b613582565b6040516105c89190614d9e565b60405180910390f35b6105d961365d565b6040516105e69190614f42565b60405180910390f35b6106096004803603610604919081019061412f565b613683565b6040516106169190615278565b60405180910390f35b6106276137ba565b6040516106349190615278565b60405180910390f35b610657600480360361065291908101906142b2565b6137c0565b6040516106649190615278565b60405180910390f35b600160009054906101000a900473ffffffffffffffffffffffffffffffffffffffff1681565b6000806000806000806000806000806000600a60008d73ffffffffffffffffffffffffffffffffffffffff191673ffffffffffffffffffffffffffffffffffffffff1916815260200190815260200160002060009054906101000a900473ffffffffffffffffffffffffffffffffffffffff169050610711816107f3565b9a509a509a509a509a509a509a509a509a509a50509193959799509193959799565b60096020528060005260406000206000915090505481565b600c6020528060005260406000206000915090505481565b602a81565b60006107b7620151806107a9602a61079b61078c89896137d890919063ffffffff16565b876137f890919063ffffffff16565b61383290919063ffffffff16565b61383290919063ffffffff16565b90509392505050565b600a6020528060005260406000206000915054906101000a900473ffffffffffffffffffffffffffffffffffffffff1681565b60008060008060008060008060008061080a613f2b565b600d60008d73ffffffffffffffffffffffffffffffffffffffff1673ffffffffffffffffffffffffffffffffffffffff168152602001908152602001600020604051806101600160405290816000820160009054906101000a9004740100000000000000000000000000000000000000000273ffffffffffffffffffffffffffffffffffffffff191673ffffffffffffffffffffffffffffffffffffffff1916815260200160008201600c9054906101000a9004700100000000000000000000000000000000026fffffffffffffffffffffffffffffffff19166fffffffffffffffffffffffffffffffff191681526020016001820160009054906101000a9004700100000000000000000000000000000000026fffffffffffffffffffffffffffffffff19166fffffffffffffffffffffffffffffffff19168152602001600282015481526020016003820160009054906101000a9004700100000000000000000000000000000000026fffffffffffffffffffffffffffffffff19166fffffffffffffffffffffffffffffffff191681526020016003820160109054906101000a90047a0100000000000000000000000000000000000000000000000000000279ffffffffffffffffffffffffffffffffffffffffffffffffffff191679ffffffffffffffffffffffffffffffffffffffffffffffffffff191681526020016004820154815260200160058201548152602001600682015481526020016007820160009054906101000a900460ff161515151581526020016008820154815250509050806000015181602001518260400151836060015184608001518560c001518661012001518761014001518861010001518960e001519a509a509a509a509a509a509a509a509a509a50509193959799509193959799565b600073ffffffffffffffffffffffffffffffffffffffff16600660009054906101000a900473ffffffffffffffffffffffffffffffffffffffff1673ffffffffffffffffffffffffffffffffffffffff161415610b38576040517f08c379a0000000000000000000000000000000000000000000000000000000008152600401610b2f90615118565b60405180910390fd5b600660009054906101000a900473ffffffffffffffffffffffffffffffffffffffff1673ffffffffffffffffffffffffffffffffffffffff163373ffffffffffffffffffffffffffffffffffffffff1614610bc8576040517f08c379a0000000000000000000000000000000000000000000000000000000008152600401610bbf90615158565b60405180910390fd5b6000740100000000000000000000000000000000000000000273ffffffffffffffffffffffffffffffffffffffff1916600d60008473ffffffffffffffffffffffffffffffffffffffff1673ffffffffffffffffffffffffffffffffffffffff16815260200190815260200160002060000160009054906101000a9004740100000000000000000000000000000000000000000273ffffffffffffffffffffffffffffffffffffffff19161415610cb4576040517f08c379a0000000000000000000000000000000000000000000000000000000008152600401610cab906151b8565b60405180910390fd5b6001600d60008473ffffffffffffffffffffffffffffffffffffffff1673ffffffffffffffffffffffffffffffffffffffff16815260200190815260200160002060070160006101000a81548160ff02191690831515021790555080600d60008473ffffffffffffffffffffffffffffffffffffffff1673ffffffffffffffffffffffffffffffffffffffff168152602001908152602001600020600801819055505050565b600080740100000000000000000000000000000000000000000273ffffffffffffffffffffffffffffffffffffffff1916600d60008473ffffffffffffffffffffffffffffffffffffffff1673ffffffffffffffffffffffffffffffffffffffff16815260200190815260200160002060000160009054906101000a9004740100000000000000000000000000000000000000000273ffffffffffffffffffffffffffffffffffffffff19161415610e47576040517f08c379a0000000000000000000000000000000000000000000000000000000008152600401610e3e906151b8565b60405180910390fd5b600d60008373ffffffffffffffffffffffffffffffffffffffff1673ffffffffffffffffffffffffffffffffffffffff16815260200190815260200160002060070160009054906101000a900460ff169050919050565b600073ffffffffffffffffffffffffffffffffffffffff16600660009054906101000a900473ffffffffffffffffffffffffffffffffffffffff1673ffffffffffffffffffffffffffffffffffffffff161415610f30576040517f08c379a0000000000000000000000000000000000000000000000000000000008152600401610f2790615118565b60405180910390fd5b6000740100000000000000000000000000000000000000000273ffffffffffffffffffffffffffffffffffffffff1916600d60003373ffffffffffffffffffffffffffffffffffffffff1673ffffffffffffffffffffffffffffffffffffffff16815260200190815260200160002060000160009054906101000a9004740100000000000000000000000000000000000000000273ffffffffffffffffffffffffffffffffffffffff1916141561101c576040517f08c379a000000000000000000000000000000000000000000000000000000000815260040161101390615038565b60405180910390fd5b33600d60008273ffffffffffffffffffffffffffffffffffffffff1673ffffffffffffffffffffffffffffffffffffffff16815260200190815260200160002060070160009054906101000a900460ff16156110ad576040517f08c379a00000000000000000000000000000000000000000000000000000000081526004016110a490615058565b60405180910390fd5b6000600d60003373ffffffffffffffffffffffffffffffffffffffff1673ffffffffffffffffffffffffffffffffffffffff1681526020019081526020016000206004015490506110fd33613858565b600160009054906101000a900473ffffffffffffffffffffffffffffffffffffffff1673ffffffffffffffffffffffffffffffffffffffff1663a9059cbb33836040518363ffffffff167c0100000000000000000000000000000000000000000000000000000000028152600401611176929190614d4c565b602060405180830381600087803b15801561119057600080fd5b505af11580156111a4573d6000803e3d6000fd5b505050506040513d601f19601f820116820180604052506111c89190810190614260565b506111de816000546137d890919063ffffffff16565b6000819055505050565b600073ffffffffffffffffffffffffffffffffffffffff16600660009054906101000a900473ffffffffffffffffffffffffffffffffffffffff1673ffffffffffffffffffffffffffffffffffffffff16141561127a576040517f08c379a000000000000000000000000000000000000000000000000000000000815260040161127190615118565b60405180910390fd5b600660009054906101000a900473ffffffffffffffffffffffffffffffffffffffff1673ffffffffffffffffffffffffffffffffffffffff163373ffffffffffffffffffffffffffffffffffffffff161461130a576040517f08c379a000000000000000000000000000000000000000000000000000000000815260040161130190615158565b60405180910390fd5b6000600d60008473ffffffffffffffffffffffffffffffffffffffff1673ffffffffffffffffffffffffffffffffffffffff16815260200190815260200160002060040154905061135a83613858565b80600c60008473ffffffffffffffffffffffffffffffffffffffff1673ffffffffffffffffffffffffffffffffffffffff16815260200190815260200160002081905550505050565b600b60205281600052604060002081815481106113bc57fe5b906000526020600020016000915091509054906101000a900473ffffffffffffffffffffffffffffffffffffffff1681565b600560009054906101000a900473ffffffffffffffffffffffffffffffffffffffff1681565b6000600560009054906101000a900473ffffffffffffffffffffffffffffffffffffffff1673ffffffffffffffffffffffffffffffffffffffff166393d33a33846040518263ffffffff167c010000000000000000000000000000000000000000000000000000000002815260040161148d9190614ed6565b60206040518083038186803b1580156114a557600080fd5b505afa1580156114b9573d6000803e3d6000fd5b505050506040513d601f19601f820116820180604052506114dd9190810190614158565b9050600073ffffffffffffffffffffffffffffffffffffffff168173ffffffffffffffffffffffffffffffffffffffff16141561154f576040517f08c379a0000000000000000000000000000000000000000000000000000000008152600401611546906150b8565b60405180910390fd5b600081905060008173ffffffffffffffffffffffffffffffffffffffff16639c675eaa6040518163ffffffff167c010000000000000000000000000000000000000000000000000000000002815260040160206040518083038186803b1580156115b857600080fd5b505afa1580156115cc573d6000803e3d6000fd5b505050506040513d601f19601f820116820180604052506115f09190810190614158565b90508073ffffffffffffffffffffffffffffffffffffffff163373ffffffffffffffffffffffffffffffffffffffff1614611660576040517f08c379a000000000000000000000000000000000000000000000000000000000815260040161165790615258565b60405180910390fd5b60075484116116a4576040517f08c379a000000000000000000000000000000000000000000000000000000000815260040161169b90614f98565b60405180910390fd5b83600960008779ffffffffffffffffffffffffffffffffffffffffffffffffffff191679ffffffffffffffffffffffffffffffffffffffffffffffffffff19168152602001908152602001600020819055505050505050565b600080740100000000000000000000000000000000000000000273ffffffffffffffffffffffffffffffffffffffff1916600d60008473ffffffffffffffffffffffffffffffffffffffff1673ffffffffffffffffffffffffffffffffffffffff16815260200190815260200160002060000160009054906101000a9004740100000000000000000000000000000000000000000273ffffffffffffffffffffffffffffffffffffffff191614159050919050565b6000600560009054906101000a900473ffffffffffffffffffffffffffffffffffffffff1673ffffffffffffffffffffffffffffffffffffffff166393d33a33856040518263ffffffff167c010000000000000000000000000000000000000000000000000000000002815260040161182b9190614ed6565b60206040518083038186803b15801561184357600080fd5b505afa158015611857573d6000803e3d6000fd5b505050506040513d601f19601f8201168201806040525061187b9190810190614158565b9050600073ffffffffffffffffffffffffffffffffffffffff168173ffffffffffffffffffffffffffffffffffffffff1614156118ed576040517f08c379a00000000000000000000000000000000000000000000000000000000081526004016118e4906150b8565b60405180910390fd5b600081905060008173ffffffffffffffffffffffffffffffffffffffff16639c675eaa6040518163ffffffff167c010000000000000000000000000000000000000000000000000000000002815260040160206040518083038186803b15801561195657600080fd5b505afa15801561196a573d6000803e3d6000fd5b505050506040513d601f19601f8201168201806040525061198e9190810190614158565b90506060600b60008879ffffffffffffffffffffffffffffffffffffffffffffffffffff191679ffffffffffffffffffffffffffffffffffffffffffffffffffff19168152602001908152602001600020805480602002602001604051908101604052809291908181526020018280548015611a5f57602002820191906000526020600020905b8160009054906101000a900473ffffffffffffffffffffffffffffffffffffffff1673ffffffffffffffffffffffffffffffffffffffff1681526020019060010190808311611a15575b5050505050905080518686031115611aac576040517f08c379a0000000000000000000000000000000000000000000000000000000008152600401611aa3906150f8565b60405180910390fd5b600080905060008790505b8251811015611d9e576000611b77600d6000868581518110611ad557fe5b602002602001015173ffffffffffffffffffffffffffffffffffffffff1673ffffffffffffffffffffffffffffffffffffffff1681526020019081526020016000206006015442600d6000888781518110611b2c57fe5b602002602001015173ffffffffffffffffffffffffffffffffffffffff1673ffffffffffffffffffffffffffffffffffffffff16815260200190815260200160002060050154610768565b9050600d6000858481518110611b8957fe5b602002602001015173ffffffffffffffffffffffffffffffffffffffff1673ffffffffffffffffffffffffffffffffffffffff16815260200190815260200160002060040154811115611c6157611c3e600d6000868581518110611be957fe5b602002602001015173ffffffffffffffffffffffffffffffffffffffff1673ffffffffffffffffffffffffffffffffffffffff1681526020019081526020016000206004015484613bf790919063ffffffff16565b9250611c5c848381518110611c4f57fe5b6020026020010151613858565b611d92565b611cc981600d6000878681518110611c7557fe5b602002602001015173ffffffffffffffffffffffffffffffffffffffff1673ffffffffffffffffffffffffffffffffffffffff168152602001908152602001600020600401546137d890919063ffffffff16565b600d6000868581518110611cd957fe5b602002602001015173ffffffffffffffffffffffffffffffffffffffff1673ffffffffffffffffffffffffffffffffffffffff16815260200190815260200160002060040181905550611d358184613bf790919063ffffffff16565b925042600d6000868581518110611d4857fe5b602002602001015173ffffffffffffffffffffffffffffffffffffffff1673ffffffffffffffffffffffffffffffffffffffff168152602001908152602001600020600601819055505b50600181019050611ab7565b507f2590b2b08d341f06abc5e13956e6fa6d8f51a7f41f8c823b20852e11191ffb9881604051611dce91906152bc565b60405180910390a1600160009054906101000a900473ffffffffffffffffffffffffffffffffffffffff1673ffffffffffffffffffffffffffffffffffffffff1663a9059cbb84836040518363ffffffff167c0100000000000000000000000000000000000000000000000000000000028152600401611e4f929190614d75565b602060405180830381600087803b158015611e6957600080fd5b505af1158015611e7d573d6000803e3d6000fd5b505050506040513d601f19601f82011682018060405250611ea19190810190614260565b50611eb7816000546137d890919063ffffffff16565b6000819055507f564e4e6e9ec454ac6c80c226d068f046438c307c84a473acb6f47a30b534ad008184604051611eee929190615293565b60405180910390a15050505050505050565b600073ffffffffffffffffffffffffffffffffffffffff16600660009054906101000a900473ffffffffffffffffffffffffffffffffffffffff1673ffffffffffffffffffffffffffffffffffffffff161415611f92576040517f08c379a0000000000000000000000000000000000000000000000000000000008152600401611f8990615118565b60405180910390fd5b600660009054906101000a900473ffffffffffffffffffffffffffffffffffffffff1673ffffffffffffffffffffffffffffffffffffffff163373ffffffffffffffffffffffffffffffffffffffff1614612022576040517f08c379a000000000000000000000000000000000000000000000000000000000815260040161201990615158565b60405180910390fd5b6000740100000000000000000000000000000000000000000273ffffffffffffffffffffffffffffffffffffffff1916600d60008373ffffffffffffffffffffffffffffffffffffffff1673ffffffffffffffffffffffffffffffffffffffff16815260200190815260200160002060000160009054906101000a9004740100000000000000000000000000000000000000000273ffffffffffffffffffffffffffffffffffffffff1916141561210e576040517f08c379a0000000000000000000000000000000000000000000000000000000008152600401612105906151b8565b60405180910390fd5b6000600d60008373ffffffffffffffffffffffffffffffffffffffff1673ffffffffffffffffffffffffffffffffffffffff16815260200190815260200160002060070160006101000a81548160ff0219169083151502179055506000600d60008373ffffffffffffffffffffffffffffffffffffffff1673ffffffffffffffffffffffffffffffffffffffff1681526020019081526020016000206008018190555050565b600460009054906101000a900473ffffffffffffffffffffffffffffffffffffffff1673ffffffffffffffffffffffffffffffffffffffff16638900bd22336040518263ffffffff167c010000000000000000000000000000000000000000000000000000000002815260040161222b9190614d31565b60206040518083038186803b15801561224357600080fd5b505afa158015612257573d6000803e3d6000fd5b505050506040513d601f19601f8201168201806040525061227b9190810190614260565b6122ba576040517f08c379a00000000000000000000000000000000000000000000000000000000081526004016122b190615078565b60405180910390fd5b600073ffffffffffffffffffffffffffffffffffffffff168173ffffffffffffffffffffffffffffffffffffffff16141561232a576040517f08c379a000000000000000000000000000000000000000000000000000000000815260040161232190615198565b60405180910390fd5b80600660006101000a81548173ffffffffffffffffffffffffffffffffffffffff021916908373ffffffffffffffffffffffffffffffffffffffff16021790555050565b600660009054906101000a900473ffffffffffffffffffffffffffffffffffffffff1681565b600080740100000000000000000000000000000000000000000273ffffffffffffffffffffffffffffffffffffffff1916600d60008473ffffffffffffffffffffffffffffffffffffffff1673ffffffffffffffffffffffffffffffffffffffff16815260200190815260200160002060000160009054906101000a9004740100000000000000000000000000000000000000000273ffffffffffffffffffffffffffffffffffffffff19161415612481576040517f08c379a0000000000000000000000000000000000000000000000000000000008152600401612478906151b8565b60405180910390fd5b600d60008373ffffffffffffffffffffffffffffffffffffffff1673ffffffffffffffffffffffffffffffffffffffff16815260200190815260200160002060070160009054906101000a900460ff16612510576040517f08c379a000000000000000000000000000000000000000000000000000000000815260040161250790615098565b60405180910390fd5b600d60008373ffffffffffffffffffffffffffffffffffffffff1673ffffffffffffffffffffffffffffffffffffffff168152602001908152602001600020600801549050919050565b600160009054906101000a900473ffffffffffffffffffffffffffffffffffffffff1673ffffffffffffffffffffffffffffffffffffffff163373ffffffffffffffffffffffffffffffffffffffff16146125ea576040517f08c379a00000000000000000000000000000000000000000000000000000000081526004016125e1906150d8565b60405180910390fd5b605f81511461262e576040517f08c379a0000000000000000000000000000000000000000000000000000000008152600401612625906151f8565b60405180910390fd5b600083905060008390506000612645846000613c16565b905060307f0100000000000000000000000000000000000000000000000000000000000000027effffffffffffffffffffffffffffffffffffffffffffffffffffffffffffff1916817effffffffffffffffffffffffffffffffffffffffffffffffffffffffffffff19161480612722575060317f0100000000000000000000000000000000000000000000000000000000000000027effffffffffffffffffffffffffffffffffffffffffffffffffffffffffffff1916817effffffffffffffffffffffffffffffffffffffffffffffffffffffffffffff1916145b612761576040517f08c379a000000000000000000000000000000000000000000000000000000000815260040161275890615138565b60405180910390fd5b60317f0100000000000000000000000000000000000000000000000000000000000000027effffffffffffffffffffffffffffffffffffffffffffffffffffffffffffff1916817effffffffffffffffffffffffffffffffffffffffffffffffffffffffffffff191614156127df576127da8386613c74565b613182565b60307f0100000000000000000000000000000000000000000000000000000000000000027effffffffffffffffffffffffffffffffffffffffffffffffffffffffffffff1916817effffffffffffffffffffffffffffffffffffffffffffffffffffffffffffff1916141561318157600061285b856001613db3565b9050600061286a866003613e11565b9050600061287987600f613e6f565b9050600061288888601f613e6f565b9050600061289789602f613ecd565b905060006128a68a604f613e6f565b9050600260009054906101000a900473ffffffffffffffffffffffffffffffffffffffff1673ffffffffffffffffffffffffffffffffffffffff16630dc210aa876040518263ffffffff167c010000000000000000000000000000000000000000000000000000000002815260040161291f9190614e92565b60206040518083038186803b15801561293757600080fd5b505afa15801561294b573d6000803e3d6000fd5b505050506040513d601f19601f8201168201806040525061296f9190810190614260565b6129ae576040517f08c379a00000000000000000000000000000000000000000000000000000000081526004016129a590614f78565b60405180910390fd5b6000740100000000000000000000000000000000000000000273ffffffffffffffffffffffffffffffffffffffff1916600d60008b73ffffffffffffffffffffffffffffffffffffffff1673ffffffffffffffffffffffffffffffffffffffff16815260200190815260200160002060000160009054906101000a9004740100000000000000000000000000000000000000000273ffffffffffffffffffffffffffffffffffffffff191614612a99576040517f08c379a0000000000000000000000000000000000000000000000000000000008152600401612a9090614ff8565b60405180910390fd5b600073ffffffffffffffffffffffffffffffffffffffff16600a60008773ffffffffffffffffffffffffffffffffffffffff191673ffffffffffffffffffffffffffffffffffffffff1916815260200190815260200160002060009054906101000a900473ffffffffffffffffffffffffffffffffffffffff1673ffffffffffffffffffffffffffffffffffffffff1614612b69576040517f08c379a0000000000000000000000000000000000000000000000000000000008152600401612b6090615178565b60405180910390fd5b600260009054906101000a900473ffffffffffffffffffffffffffffffffffffffff1673ffffffffffffffffffffffffffffffffffffffff1663bf922fe2866040518263ffffffff167c0100000000000000000000000000000000000000000000000000000000028152600401612be09190614ddb565b602060405180830381600087803b158015612bfa57600080fd5b505af1158015612c0e573d6000803e3d6000fd5b505050506040513d601f19601f82011682018060405250612c329190810190614260565b612c71576040517f08c379a0000000000000000000000000000000000000000000000000000000008152600401612c6890614fd8565b60405180910390fd5b600260009054906101000a900473ffffffffffffffffffffffffffffffffffffffff1673ffffffffffffffffffffffffffffffffffffffff1663df6b2c2c87876040518363ffffffff167c0100000000000000000000000000000000000000000000000000000000028152600401612cea929190614ead565b60206040518083038186803b158015612d0257600080fd5b505afa158015612d16573d6000803e3d6000fd5b505050506040513d601f19601f82011682018060405250612d3a9190810190614260565b612d79576040517f08c379a0000000000000000000000000000000000000000000000000000000008152600401612d7090614fb8565b60405180910390fd5b6000600754600960008879ffffffffffffffffffffffffffffffffffffffffffffffffffff191679ffffffffffffffffffffffffffffffffffffffffffffffffffff191681526020019081526020016000205411612dd957600754612e28565b600960008779ffffffffffffffffffffffffffffffffffffffffffffffffffff191679ffffffffffffffffffffffffffffffffffffffffffffffffffff19168152602001908152602001600020545b905080891015612e6d576040517f08c379a0000000000000000000000000000000000000000000000000000000008152600401612e64906151d8565b60405180910390fd5b6000600d60008c73ffffffffffffffffffffffffffffffffffffffff1673ffffffffffffffffffffffffffffffffffffffff1681526020019081526020016000209050868160000160006101000a8154816bffffffffffffffffffffffff021916908374010000000000000000000000000000000000000000900402179055508581600001600c6101000a8154816fffffffffffffffffffffffffffffffff021916908370010000000000000000000000000000000090040217905550848160010160006101000a8154816fffffffffffffffffffffffffffffffff021916908370010000000000000000000000000000000090040217905550838160020181905550828160030160006101000a8154816fffffffffffffffffffffffffffffffff02191690837001000000000000000000000000000000009004021790555089816004018190555060008160070160006101000a81548160ff02191690831515021790555060008160080181905550868160030160106101000a81548165ffffffffffff02191690837a010000000000000000000000000000000000000000000000000000900402179055508181600501819055504281600601819055506130418a600054613bf790919063ffffffff16565b6000819055508a600a60008973ffffffffffffffffffffffffffffffffffffffff191673ffffffffffffffffffffffffffffffffffffffff1916815260200190815260200160002060006101000a81548173ffffffffffffffffffffffffffffffffffffffff021916908373ffffffffffffffffffffffffffffffffffffffff160217905550600b60008879ffffffffffffffffffffffffffffffffffffffffffffffffffff191679ffffffffffffffffffffffffffffffffffffffffffffffffffff191681526020019081526020016000208b90806001815401808255809150509060018203906000526020600020016000909192909190916101000a81548173ffffffffffffffffffffffffffffffffffffffff021916908373ffffffffffffffffffffffffffffffffffffffff1602179055505050505050505050505b5b505050505050565b600460009054906101000a900473ffffffffffffffffffffffffffffffffffffffff1673ffffffffffffffffffffffffffffffffffffffff16638900bd22336040518263ffffffff167c01000000000000000000000000000000000000000000000000000000000281526004016132019190614d31565b60206040518083038186803b15801561321957600080fd5b505afa15801561322d573d6000803e3d6000fd5b505050506040513d601f19601f820116820180604052506132519190810190614260565b613290576040517f08c379a000000000000000000000000000000000000000000000000000000000815260040161328790615078565b60405180910390fd5b8060086000847dffffffffffffffffffffffffffffffffffffffffffffffffffffffffffff19167dffffffffffffffffffffffffffffffffffffffffffffffffffffffffffff19168152602001908152602001600020819055505050565b600073ffffffffffffffffffffffffffffffffffffffff16600660009054906101000a900473ffffffffffffffffffffffffffffffffffffffff1673ffffffffffffffffffffffffffffffffffffffff161415613380576040517f08c379a000000000000000000000000000000000000000000000000000000000815260040161337790615118565b60405180910390fd5b6000600c60003373ffffffffffffffffffffffffffffffffffffffff1673ffffffffffffffffffffffffffffffffffffffff16815260200190815260200160002054905060008111613407576040517f08c379a00000000000000000000000000000000000000000000000000000000081526004016133fe90615218565b60405180910390fd5b6000600c60003373ffffffffffffffffffffffffffffffffffffffff1673ffffffffffffffffffffffffffffffffffffffff16815260200190815260200160002081905550600160009054906101000a900473ffffffffffffffffffffffffffffffffffffffff1673ffffffffffffffffffffffffffffffffffffffff1663a9059cbb33836040518363ffffffff167c01000000000000000000000000000000000000000000000000000000000281526004016134c5929190614d4c565b602060405180830381600087803b1580156134df57600080fd5b505af11580156134f3573d6000803e3d6000fd5b505050506040513d601f19601f820116820180604052506135179190810190614260565b5061352d816000546137d890919063ffffffff16565b60008190555050565b600460009054906101000a900473ffffffffffffffffffffffffffffffffffffffff1681565b600260009054906101000a900473ffffffffffffffffffffffffffffffffffffffff1681565b6060600b60008379ffffffffffffffffffffffffffffffffffffffffffffffffffff191679ffffffffffffffffffffffffffffffffffffffffffffffffffff1916815260200190815260200160002080548060200260200160405190810160405280929190818152602001828054801561365157602002820191906000526020600020905b8160009054906101000a900473ffffffffffffffffffffffffffffffffffffffff1673ffffffffffffffffffffffffffffffffffffffff1681526020019060010190808311613607575b50505050509050919050565b600360009054906101000a900473ffffffffffffffffffffffffffffffffffffffff1681565b600080740100000000000000000000000000000000000000000273ffffffffffffffffffffffffffffffffffffffff1916600d60008473ffffffffffffffffffffffffffffffffffffffff1673ffffffffffffffffffffffffffffffffffffffff16815260200190815260200160002060000160009054906101000a9004740100000000000000000000000000000000000000000273ffffffffffffffffffffffffffffffffffffffff19161415613770576040517f08c379a0000000000000000000000000000000000000000000000000000000008152600401613767906151b8565b60405180910390fd5b600d60008373ffffffffffffffffffffffffffffffffffffffff1673ffffffffffffffffffffffffffffffffffffffff168152602001908152602001600020600401549050919050565b60075481565b60086020528060005260406000206000915090505481565b6000828211156137e757600080fd5b600082840390508091505092915050565b60008083141561380b576000905061382c565b600082840290508284828161381c57fe5b041461382757600080fd5b809150505b92915050565b600080821161384057600080fd5b600082848161384b57fe5b0490508091505092915050565b6000600d60008373ffffffffffffffffffffffffffffffffffffffff1673ffffffffffffffffffffffffffffffffffffffff16815260200190815260200160002060000160009054906101000a900474010000000000000000000000000000000000000000029050600d60008373ffffffffffffffffffffffffffffffffffffffff1673ffffffffffffffffffffffffffffffffffffffff168152602001908152602001600020600080820160006101000a8154906bffffffffffffffffffffffff021916905560008201600c6101000a8154906fffffffffffffffffffffffffffffffff02191690556001820160006101000a8154906fffffffffffffffffffffffffffffffff021916905560028201600090556003820160006101000a8154906fffffffffffffffffffffffffffffffff02191690556003820160106101000a81549065ffffffffffff02191690556004820160009055600582016000905560068201600090556007820160006101000a81549060ff0219169055600882016000905550506000600a60008373ffffffffffffffffffffffffffffffffffffffff191673ffffffffffffffffffffffffffffffffffffffff1916815260200190815260200160002060006101000a81548173ffffffffffffffffffffffffffffffffffffffff021916908373ffffffffffffffffffffffffffffffffffffffff1602179055506000600b60008379ffffffffffffffffffffffffffffffffffffffffffffffffffff191679ffffffffffffffffffffffffffffffffffffffffffffffffffff19168152602001908152602001600020905060008090505b8180549050811015613bf1576000828281548110613ad157fe5b9060005260206000200160009054906101000a900473ffffffffffffffffffffffffffffffffffffffff1690508473ffffffffffffffffffffffffffffffffffffffff168173ffffffffffffffffffffffffffffffffffffffff161415613be557600083600185805490500381548110613b4757fe5b9060005260206000200160009054906101000a900473ffffffffffffffffffffffffffffffffffffffff16905080848481548110613b8157fe5b9060005260206000200160006101000a81548173ffffffffffffffffffffffffffffffffffffffff021916908373ffffffffffffffffffffffffffffffffffffffff16021790555083805480919060019003613bdd9190613ff7565b505050613bf1565b50600181019050613ab7565b50505050565b600080828401905083811015613c0c57600080fd5b8091505092915050565b60006001820183511015613c5f576040517f08c379a0000000000000000000000000000000000000000000000000000000008152600401613c5690615238565b60405180910390fd5b60008260208501015190508091505092915050565b6000600d60008473ffffffffffffffffffffffffffffffffffffffff1673ffffffffffffffffffffffffffffffffffffffff1681526020019081526020016000206006015411613cf9576040517f08c379a0000000000000000000000000000000000000000000000000000000008152600401613cf090615018565b60405180910390fd5b613d4e81600d60008573ffffffffffffffffffffffffffffffffffffffff1673ffffffffffffffffffffffffffffffffffffffff16815260200190815260200160002060040154613bf790919063ffffffff16565b600d60008473ffffffffffffffffffffffffffffffffffffffff1673ffffffffffffffffffffffffffffffffffffffff16815260200190815260200160002060040181905550613da981600054613bf790919063ffffffff16565b6000819055505050565b60006002820183511015613dfc576040517f08c379a0000000000000000000000000000000000000000000000000000000008152600401613df390615238565b60405180910390fd5b60008260208501015190508091505092915050565b6000600c820183511015613e5a576040517f08c379a0000000000000000000000000000000000000000000000000000000008152600401613e5190615238565b60405180910390fd5b60008260208501015190508091505092915050565b60006010820183511015613eb8576040517f08c379a0000000000000000000000000000000000000000000000000000000008152600401613eaf90615238565b60405180910390fd5b60008260208501015190508091505092915050565b60006020820183511015613f16576040517f08c379a0000000000000000000000000000000000000000000000000000000008152600401613f0d90615238565b60405180910390fd5b60008260208501015190508091505092915050565b604051806101600160405280600073ffffffffffffffffffffffffffffffffffffffff1916815260200160006fffffffffffffffffffffffffffffffff1916815260200160006fffffffffffffffffffffffffffffffff191681526020016000801916815260200160006fffffffffffffffffffffffffffffffff19168152602001600079ffffffffffffffffffffffffffffffffffffffffffffffffffff19168152602001600081526020016000815260200160008152602001600015158152602001600081525090565b81548183558181111561401e5781836000526020600020918201910161401d9190614023565b5b505050565b61404591905b80821115614041576000816000905550600101614029565b5090565b90565b600081359050614057816155b1565b92915050565b60008151905061406c816155b1565b92915050565b600081519050614081816155c8565b92915050565b600081359050614096816155df565b92915050565b6000813590506140ab816155f6565b92915050565b6000813590506140c08161560d565b92915050565b600082601f8301126140d757600080fd5b81356140ea6140e582615317565b6152ea565b9150808252602083016020830185838301111561410657600080fd5b6141118382846155a2565b50505092915050565b60008135905061412981615624565b92915050565b60006020828403121561414157600080fd5b600061414f84828501614048565b91505092915050565b60006020828403121561416a57600080fd5b60006141788482850161405d565b91505092915050565b6000806040838503121561419457600080fd5b60006141a285828601614048565b92505060206141b385828601614048565b9150509250929050565b600080604083850312156141d057600080fd5b60006141de85828601614048565b92505060206141ef8582860161411a565b9150509250929050565b60008060006060848603121561420e57600080fd5b600061421c86828701614048565b935050602061422d8682870161411a565b925050604084013567ffffffffffffffff81111561424a57600080fd5b614256868287016140c6565b9150509250925092565b60006020828403121561427257600080fd5b600061428084828501614072565b91505092915050565b60006020828403121561429b57600080fd5b60006142a984828501614087565b91505092915050565b6000602082840312156142c457600080fd5b60006142d28482850161409c565b91505092915050565b600080604083850312156142ee57600080fd5b60006142fc8582860161409c565b925050602061430d8582860161411a565b9150509250929050565b60006020828403121561432957600080fd5b6000614337848285016140b1565b91505092915050565b6000806040838503121561435357600080fd5b6000614361858286016140b1565b92505060206143728582860161411a565b9150509250929050565b60008060006060848603121561439157600080fd5b600061439f868287016140b1565b93505060206143b08682870161411a565b92505060406143c18682870161411a565b9150509250925092565b6000806000606084860312156143e057600080fd5b60006143ee8682870161411a565b93505060206143ff8682870161411a565b92505060406144108682870161411a565b9150509250925092565b60006144268383614441565b60208301905092915050565b61443b816154b8565b82525050565b61444a8161538a565b82525050565b6144598161538a565b82525050565b600061446a82615350565b6144748185615368565b935061447f83615343565b8060005b838110156144b0578151614497888261441a565b97506144a28361535b565b925050600181019050614483565b5085935050505092915050565b6144c68161539c565b82525050565b6144d5816153a8565b82525050565b6144e4816153d4565b82525050565b6144f381615400565b82525050565b6145028161542c565b82525050565b61451181615436565b82525050565b61452081615462565b82525050565b61452f816154ca565b82525050565b61453e816154ee565b82525050565b61454d81615512565b82525050565b61455c81615536565b82525050565b61456b8161555a565b82525050565b600061457e601383615379565b91507f636f756e7472792069732064697361626c6564000000000000000000000000006000830152602082019050919050565b60006145be602b83615379565b91507f70726963652073686f756c64206265207375706572696f7220746f207468652060008301527f666c6f6f722070726963650000000000000000000000000000000000000000006020830152604082019050919050565b6000614624601a83615379565b91507f7a6f6e65206973206e6f7420696e7369646520636f756e7472790000000000006000830152602082019050919050565b6000614664602683615379565b91507f696e76616c69642067656f68617368206368617261637465727320696e20706f60008301527f736974696f6e00000000000000000000000000000000000000000000000000006020830152604082019050919050565b60006146ca601783615379565b91507f63616c6c657220616c7265616479206861732073686f700000000000000000006000830152602082019050919050565b600061470a601383615379565b91507f53686f7020646f6573206e6f74206578697374000000000000000000000000006000830152602082019050919050565b600061474a601283615379565b91507f63616c6c6572206973206e6f742073686f7000000000000000000000000000006000830152602082019050919050565b600061478a601083615379565b91507f73686f70206861732064697370757465000000000000000000000000000000006000830152602082019050919050565b60006147ca601983615379565b91507f63616e206f6e6c792062652063616c6c65642062792043454f000000000000006000830152602082019050919050565b600061480a601383615379565b91507f73686f7020686173206e6f2064697370757465000000000000000000000000006000830152602082019050919050565b600061484a601983615379565b91507f7a6f6e65206973206e6f7420616c7265616479206f776e6564000000000000006000830152602082019050919050565b600061488a602283615379565b91507f63616e206f6e6c792062652063616c6c65642062792064746820636f6e74726160008301527f63740000000000000000000000000000000000000000000000000000000000006020830152604082019050919050565b60006148f0602d83615379565b91507f737461727420616e6420656e642076616c75652061726520626967676572207460008301527f68616e20616464726573735b5d000000000000000000000000000000000000006020830152604082019050919050565b6000614956602683615379565b91507f73686f70734469737075746520636f6e747261637420686173206e6f7420626560008301527f656e2073657400000000000000000000000000000000000000000000000000006020830152604082019050919050565b60006149bc602083615379565b91507f66697273742062797465206469646e74206d617463682066756e632073686f706000830152602082019050919050565b60006149fc601683615379565b91507f74617820746f2073656e64207a6f6e65206f776e6572000000000000000000006000830152602082019050919050565b6000614a3c602b83615379565b91507f63616e206f6e6c792062652063616c6c65642062792073686f7073446973707560008301527f746520636f6e74726163740000000000000000000000000000000000000000006020830152604082019050919050565b6000614aa2601f83615379565b91507f73686f7020616c72656164792065786973747320617420706f736974696f6e006000830152602082019050919050565b6000614ae2602483615379565b91507f73686f7073206469737075746520636f6e74726163742063616e6e6f7420626560008301527f20307830000000000000000000000000000000000000000000000000000000006020830152604082019050919050565b6000614b48601383615379565b91507f73686f7020646f6573206e6f74206578697374000000000000000000000000006000830152602082019050919050565b6000614b88602883615379565b91507f73656e6420647468206973206c657373207468616e2073686f70206c6963656e60008301527f73652070726963650000000000000000000000000000000000000000000000006020830152604082019050919050565b6000614bee602083615379565b91507f61646453686f70206578706563747320393520627974657320617320646174616000830152602082019050919050565b6000614c2e601383615379565b91507f6e6f7468696e6720746f207769746864726177000000000000000000000000006000830152602082019050919050565b6000614c6e601083615379565b91507f206e6f74206c6f6e6720656e6f756768000000000000000000000000000000006000830152602082019050919050565b6000614cae602c83615379565b91507f6f6e6c79207a6f6e65206f776e65722063616e206d6f6469667920746865206c60008301527f6963656e636520707269636500000000000000000000000000000000000000006020830152604082019050919050565b614d10816154ae565b82525050565b6000602082019050614d2b6000830184614450565b92915050565b6000602082019050614d466000830184614432565b92915050565b6000604082019050614d616000830185614432565b614d6e6020830184614d07565b9392505050565b6000604082019050614d8a6000830185614450565b614d976020830184614d07565b9392505050565b60006020820190508181036000830152614db8818461445f565b905092915050565b6000602082019050614dd560008301846144bd565b92915050565b6000602082019050614df060008301846144cc565b92915050565b600061014082019050614e0c600083018d6144cc565b614e19602083018c6144db565b614e26604083018b6144db565b614e33606083018a6144f9565b614e4060808301896144db565b614e4d60a0830188614d07565b614e5a60c08301876144bd565b614e6760e0830186614d07565b614e75610100830185614d07565b614e83610120830184614d07565b9b9a5050505050505050505050565b6000602082019050614ea760008301846144ea565b92915050565b6000604082019050614ec260008301856144ea565b614ecf6020830184614508565b9392505050565b6000602082019050614eeb6000830184614517565b92915050565b6000602082019050614f066000830184614526565b92915050565b6000602082019050614f216000830184614535565b92915050565b6000602082019050614f3c6000830184614544565b92915050565b6000602082019050614f576000830184614553565b92915050565b6000602082019050614f726000830184614562565b92915050565b60006020820190508181036000830152614f9181614571565b9050919050565b60006020820190508181036000830152614fb1816145b1565b9050919050565b60006020820190508181036000830152614fd181614617565b9050919050565b60006020820190508181036000830152614ff181614657565b9050919050565b60006020820190508181036000830152615011816146bd565b9050919050565b60006020820190508181036000830152615031816146fd565b9050919050565b600060208201905081810360008301526150518161473d565b9050919050565b600060208201905081810360008301526150718161477d565b9050919050565b60006020820190508181036000830152615091816147bd565b9050919050565b600060208201905081810360008301526150b1816147fd565b9050919050565b600060208201905081810360008301526150d18161483d565b9050919050565b600060208201905081810360008301526150f18161487d565b9050919050565b60006020820190508181036000830152615111816148e3565b9050919050565b6000602082019050818103600083015261513181614949565b9050919050565b60006020820190508181036000830152615151816149af565b9050919050565b6000602082019050818103600083015261517181614a2f565b9050919050565b6000602082019050818103600083015261519181614a95565b9050919050565b600060208201905081810360008301526151b181614ad5565b9050919050565b600060208201905081810360008301526151d181614b3b565b9050919050565b600060208201905081810360008301526151f181614b7b565b9050919050565b6000602082019050818103600083015261521181614be1565b9050919050565b6000602082019050818103600083015261523181614c21565b9050919050565b6000602082019050818103600083015261525181614c61565b9050919050565b6000602082019050818103600083015261527181614ca1565b9050919050565b600060208201905061528d6000830184614d07565b92915050565b60006040820190506152a86000830185614d07565b6152b56020830184614450565b9392505050565b60006040820190506152d16000830184614d07565b81810360208301526152e2816149ef565b905092915050565b6000604051905081810181811067ffffffffffffffff8211171561530d57600080fd5b8060405250919050565b600067ffffffffffffffff82111561532e57600080fd5b601f19601f8301169050602081019050919050565b6000602082019050919050565b600081519050919050565b6000602082019050919050565b600082825260208201905092915050565b600082825260208201905092915050565b60006153958261548e565b9050919050565b60008115159050919050565b60007fffffffffffffffffffffffff000000000000000000000000000000000000000082169050919050565b60007fffffffffffffffffffffffffffffffff0000000000000000000000000000000082169050919050565b60007fffff00000000000000000000000000000000000000000000000000000000000082169050919050565b6000819050919050565b60007fffffffff0000000000000000000000000000000000000000000000000000000082169050919050565b60007fffffffffffff000000000000000000000000000000000000000000000000000082169050919050565b600073ffffffffffffffffffffffffffffffffffffffff82169050919050565b6000819050919050565b60006154c38261557e565b9050919050565b60006154d5826154dc565b9050919050565b60006154e78261548e565b9050919050565b60006154f982615500565b9050919050565b600061550b8261548e565b9050919050565b600061551d82615524565b9050919050565b600061552f8261548e565b9050919050565b600061554182615548565b9050919050565b60006155538261548e565b9050919050565b60006155658261556c565b9050919050565b60006155778261548e565b9050919050565b600061558982615590565b9050919050565b600061559b8261548e565b9050919050565b82818337600083830152505050565b6155ba8161538a565b81146155c557600080fd5b50565b6155d18161539c565b81146155dc57600080fd5b50565b6155e8816153a8565b81146155f357600080fd5b50565b6155ff81615400565b811461560a57600080fd5b50565b61561681615462565b811461562157600080fd5b50565b61562d816154ae565b811461563857600080fd5b5056fea265627a7a723058201985fc525fe7bfab77ff20cff3d8c44b1fdb4d899f2ca0cd2b7d619f83dd3da56c6578706572696d656e74616cf50037",
  "source": "pragma solidity ^0.5.8;\npragma experimental ABIEncoderV2;\n\n\nimport \"openzeppelin-solidity/contracts/math/SafeMath.sol\";\n\nimport \"../interfaces/IDetherToken.sol\";\nimport \"../interfaces/IUsers.sol\";\nimport \"../interfaces/IControl.sol\";\nimport \"../interfaces/IGeoRegistry.sol\";\nimport \"../interfaces/IZoneFactory.sol\";\nimport \"../interfaces/IZone.sol\";\n\ncontract Shops {\n  // ------------------------------------------------\n  //\n  // Libraries\n  //\n  // ------------------------------------------------\n\n  using SafeMath for uint;\n\n  // ------------------------------------------------\n  //\n  // Enums\n  //\n  // ------------------------------------------------\n\n  enum Party {Shop, Challenger}\n  enum RulingOptions {NoRuling, ShopWins, ChallengerWins}\n  /* enum DisputeStatus {Waiting, Appealable, Solved} // copied from IArbitrable.sol */\n\n  // ------------------------------------------------\n  //\n  // Structs\n  //\n  // ------------------------------------------------\n\n  struct Shop {\n    bytes12 position; // 12 char geohash for location of teller\n    bytes16 category;\n    bytes16 name;\n    bytes32 description;\n    bytes16 opening;\n    bytes6 geohashZoneBase;\n    uint staked;\n    uint licencePrice;\n    uint lastTaxTime;\n    bool hasDispute;\n    uint disputeID;\n  }\n  \n  // ------------------------------------------------\n  //\n  // Variables Public\n  //\n  // ------------------------------------------------\n\n  uint stakedDth;\n\n  // links to other contracts\n  IDetherToken public dth;\n  IGeoRegistry public geo;\n  IUsers public users;\n  IControl public control;\n  IZoneFactory public zoneFactory;\n  address public shopsDispute;\n\n  // constant\n  uint public constant DAILY_TAX= 42; // 1/42 daily\n  uint public floorLicencePrice = 42000000000000000000;\n\n  //      countryCode priceDTH\n  mapping(bytes2 =>   uint) public countryLicensePrice;\n\n    //    bytes6 geohash priceDTH\n  mapping(bytes6 =>   uint) public zoneLicencePrice;\n\n  //      geohash12   shopAddress\n  mapping(bytes12 =>  address) public positionToShopAddress;\n\n  //      geohash6    shopAddresses\n  mapping(bytes6 =>   address[]) public zoneToShopAddresses;\n\n  mapping(address => uint) public withdrawableDth;\n\n  // ------------------------------------------------\n  //\n  // Variables Private\n  //\n  // ------------------------------------------------\n\n  //      shopAddress shopStruct\n  mapping(address =>  Shop) private shopAddressToShop;\n\n  // ------------------------------------------------\n  //\n  // Events\n  //\n  // ------------------------------------------------\n  event logShopData(bytes16 _name, uint _staked, uint _licencePrice, uint _lastTaxTime);\n  event logUint(uint _uint, string _log);\n  event logString(string _string);\n  event TaxPayedToBy(uint amount, address to, address by);\n  event TaxTotalPaidTo(uint amount, address to);\n  // ------------------------------------------------\n  //\n  // Modifiers\n  //\n  // ------------------------------------------------\n\n  modifier onlyWhenCallerIsCEO {\n    require(control.isCEO(msg.sender), \"can only be called by CEO\");\n    _;\n  }\n\n  modifier onlyWhenShopsDisputeSet {\n    require(shopsDispute != address(0), \"shopsDispute contract has not been set\");\n    _;\n  }\n\n  modifier onlyWhenCallerIsShopsDispute {\n    require(msg.sender == shopsDispute, \"can only be called by shopsDispute contract\");\n    _;\n  }\n\n  modifier onlyWhenCallerIsCertified {\n    require(users.getUserTier(msg.sender) > 0, \"user not certified\");\n    _;\n  }\n\n  modifier onlyWhenCallerIsDTH {\n    require(msg.sender == address(dth), \"can only be called by dth contract\");\n    _;\n  }\n\n  modifier onlyWhenNoDispute(address _shopAddress) {\n    require(!shopAddressToShop[_shopAddress].hasDispute, \"shop has dispute\");\n    _;\n  }\n\n  modifier onlyWhenCallerIsShop {\n    require(shopAddressToShop[msg.sender].position != bytes12(0), \"caller is not shop\");\n    _;\n  }\n\n  // ------------------------------------------------\n  //\n  // Events\n  //\n  // ------------------------------------------------\n\n  // ------------------------------------------------\n  //\n  // Constructor\n  //\n  // ------------------------------------------------\n\n  constructor(address _dth, address _geo, address _users, address _control, address _zoneFactory)\n    public\n  {\n    require(_dth != address(0), \"dth address cannot be 0x0\");\n    require(_geo != address(0), \"geo address cannot be 0x0\");\n    require(_users != address(0), \"users address cannot be 0x0\");\n    require(_control != address(0), \"control address cannot be 0x0\");\n    require(_zoneFactory != address(0), \"zoneFactory address cannot be 0x0\");\n\n    dth = IDetherToken(_dth);\n    geo = IGeoRegistry(_geo);\n    users = IUsers(_users);\n    control = IControl(_control);\n    zoneFactory = IZoneFactory(_zoneFactory);\n  }\n  function setShopsDisputeContract(address _shopsDispute)\n    external\n    onlyWhenCallerIsCEO\n  {\n    require(_shopsDispute != address(0), \"shops dispute contract cannot be 0x0\");\n    shopsDispute = _shopsDispute;\n  }\n\n  // ------------------------------------------------\n  //\n  // Functions Getters Public\n  //\n  // ------------------------------------------------\n\n  function getShopByAddr(address _addr)\n    public\n    view\n    returns (bytes12, bytes16, bytes16, bytes32, bytes16, uint, bool, uint, uint, uint)\n  {\n    Shop memory shop = shopAddressToShop[_addr];\n\n    return (\n      shop.position,\n      shop.category,\n      shop.name,\n      shop.description,\n      shop.opening,\n      shop.staked,\n      shop.hasDispute,\n      shop.disputeID,\n      shop.lastTaxTime,\n      shop.licencePrice\n    );\n  }\n\n  function getShopByPos(bytes12 _position)\n    external\n    view\n    returns (bytes12, bytes16, bytes16, bytes32, bytes16, uint, bool, uint, uint, uint)\n  {\n    address shopAddr = positionToShopAddress[_position];\n    return getShopByAddr(shopAddr);\n  }\n\n  function getShopAddressesInZone(bytes6 _zoneGeohash)\n    external\n    view\n    returns (address[] memory)\n  {\n    return zoneToShopAddresses[_zoneGeohash];\n  }\n\n  function shopByAddrExists(address _shopAddress)\n    external\n    view\n    returns (bool)\n  {\n    return shopAddressToShop[_shopAddress].position != bytes12(0);\n  }\n\n  function getShopDisputeID(address _shopAddress)\n    external\n    view\n    returns (uint)\n  {\n    require(shopAddressToShop[_shopAddress].position != bytes12(0), \"shop does not exist\");\n    require(shopAddressToShop[_shopAddress].hasDispute, \"shop has no dispute\");\n    return shopAddressToShop[_shopAddress].disputeID;\n  }\n\n  function hasDispute(address _shopAddress)\n    external\n    view\n    returns (bool)\n  {\n    require(shopAddressToShop[_shopAddress].position != bytes12(0), \"shop does not exist\");\n    return shopAddressToShop[_shopAddress].hasDispute;\n  }\n\n  function getShopStaked(address _shopAddress)\n    external\n    view\n    returns (uint)\n  {\n    require(shopAddressToShop[_shopAddress].position != bytes12(0), \"shop does not exist\");\n    return shopAddressToShop[_shopAddress].staked;\n  }\n\n  // ------------------------------------------------\n  //\n  // Functions Getters Private\n  //\n  // ------------------------------------------------\n\n  function toBytes1(bytes memory _bytes, uint _start)\n    private\n    pure\n    returns (bytes1) {\n      require(_bytes.length >= (_start + 1), \" not long enough\");\n      bytes1 tempBytes1;\n\n      assembly {\n          tempBytes1 := mload(add(add(_bytes, 0x20), _start))\n      }\n\n      return tempBytes1;\n  }\n  function toBytes2(bytes memory _bytes, uint _start)\n    private\n    pure\n    returns (bytes2) {\n      require(_bytes.length >= (_start + 2), \" not long enough\");\n      bytes2 tempBytes2;\n\n      assembly {\n          tempBytes2 := mload(add(add(_bytes, 0x20), _start))\n      }\n\n      return tempBytes2;\n  }\n  function toBytes6(bytes memory _bytes, uint _start)\n    private\n    pure\n    returns (bytes6)\n  {\n    require(_bytes.length >= (_start + 6), \" not long enough\");\n    bytes6 tempBytes6;\n\n    assembly {\n        tempBytes6 := mload(add(add(_bytes, 0x20), _start))\n    }\n\n    return tempBytes6;\n  }\n  function toBytes12(bytes memory _bytes, uint _start)\n    private\n    pure\n    returns (bytes12) {\n      require(_bytes.length >= (_start + 12), \" not long enough\");\n      bytes12 tempBytes12;\n\n      assembly {\n          tempBytes12 := mload(add(add(_bytes, 0x20), _start))\n      }\n\n      return tempBytes12;\n  }\n  function toBytes16(bytes memory _bytes, uint _start)\n    private\n    pure\n    returns (bytes16) {\n      require(_bytes.length >= (_start + 16), \" not long enough\");\n      bytes16 tempBytes16;\n\n      assembly {\n          tempBytes16 := mload(add(add(_bytes, 0x20), _start))\n      }\n\n      return tempBytes16;\n  }\n  function toBytes32(bytes memory _bytes, uint _start)\n    private\n    pure\n    returns (bytes32) {\n      require(_bytes.length >= (_start + 32), \" not long enough\");\n      bytes32 tempBytes32;\n\n      assembly {\n          tempBytes32 := mload(add(add(_bytes, 0x20), _start))\n      }\n\n      return tempBytes32;\n  }\n\n  // ------------------------------------------------\n  //\n  // Functions Setters Public\n  //\n  // ------------------------------------------------\n\n  function setCountryLicensePrice(bytes2 _countryCode, uint _priceDTH)\n    external\n    onlyWhenCallerIsCEO\n  {\n    countryLicensePrice[_countryCode] = _priceDTH;\n  }\n\n  function setZoneLicensePrice(bytes6 _zoneGeohash, uint _priceDTH)\n    external\n  {\n    address zoneAddress = zoneFactory.geohashToZone(_zoneGeohash);\n    require(zoneAddress != address(0), \"zone is not already owned\");\n    IZone zoneInstance = IZone(zoneAddress);\n    address zoneOwner = zoneInstance.ownerAddr();\n    require(msg.sender == zoneOwner,\"only zone owner can modify the licence price\");\n    require(_priceDTH > floorLicencePrice, \"price should be superior to the floor price\");\n    zoneLicencePrice[_zoneGeohash] = _priceDTH;\n  }\n//   event logShopData(bytes16 _name, uint _staked, uint _licencePrice, uint _startTime, _lastTaxTime);\n\n  function calcShopTax(uint _startTime, uint _endTime, uint _licencePrice)\n    public\n    view\n    returns (uint taxAmount)\n  {\n\n    taxAmount = _licencePrice.mul(_endTime.sub(_startTime)).div(DAILY_TAX).div(1 days);\n  }\n\n  function collectTax(bytes6 _zoneGeohash, uint _start, uint _end)\n    public\n  {\n    address zoneAddress = zoneFactory.geohashToZone(_zoneGeohash);\n    require(zoneAddress != address(0), \"zone is not already owned\");\n    IZone zoneInstance = IZone(zoneAddress);\n    address zoneOwner = zoneInstance.ownerAddr();\n    // require(msg.sender == zoneOwner, \"only zone owner can collect taxes\");\n\n    address[] memory shopsinZone = zoneToShopAddresses[_zoneGeohash];\n    require(_end - _start <= shopsinZone.length, \"start and end value are bigger than address[]\");\n    // loop on all shops present on his zone and:\n    // collect taxes if possible\n    // delete point if no more enough stake\n    uint taxToSendToZoneOwner = 0;\n    for (uint i = _start; i < shopsinZone.length; i+= 1) {\n\n      uint taxAmount = calcShopTax(shopAddressToShop[shopsinZone[i]].lastTaxTime, now, shopAddressToShop[shopsinZone[i]].licencePrice);\n      if (taxAmount > shopAddressToShop[shopsinZone[i]].staked) {\n        // shop pay what he can and is deleted\n        taxToSendToZoneOwner = taxToSendToZoneOwner.add(shopAddressToShop[shopsinZone[i]].staked);\n        deleteShop(shopsinZone[i]);\n      } else {\n        shopAddressToShop[shopsinZone[i]].staked = shopAddressToShop[shopsinZone[i]].staked.sub(taxAmount);\n\n        taxToSendToZoneOwner = taxToSendToZoneOwner.add(taxAmount);\n\n        shopAddressToShop[shopsinZone[i]].lastTaxTime = now;\n      }\n    }\n    emit logUint(taxToSendToZoneOwner, 'tax to send zone owner');\n    dth.transfer(zoneOwner, taxToSendToZoneOwner);\n    stakedDth = stakedDth.sub(taxToSendToZoneOwner);\n    emit TaxTotalPaidTo(taxToSendToZoneOwner, zoneOwner);\n  }\n\n\n  function tokenFallback(address _from, uint _value, bytes memory _data)\n    public\n    onlyWhenCallerIsDTH\n\n  {\n    require(_data.length == 95, \"addShop expects 95 bytes as data\");\n\n    address sender = _from;\n    uint dthAmount = _value;\n\n    bytes1 fn = toBytes1(_data, 0);\n    require(fn == bytes1(0x30) || fn == bytes1(0x31), \"first byte didnt match func shop\");\n\n    if (fn == bytes1(0x31)) {         // shop account top up\n      _topUp(sender, _value);\n    } else if (fn == bytes1(0x30)) {  // shop creation\n      bytes2 country = toBytes2(_data, 1);\n      bytes12 position = toBytes12(_data, 3);\n      bytes16 category = toBytes16(_data, 15);\n      bytes16 name = toBytes16(_data, 31);\n      bytes32 description = toBytes32(_data, 47);\n      bytes16 opening = toBytes16(_data, 79);\n\n      require(geo.countryIsEnabled(country), \"country is disabled\");\n      // require(users.getUserTier(sender) > 0, \"user not certified\");\n      require(shopAddressToShop[sender].position == bytes12(0), \"caller already has shop\");\n      require(positionToShopAddress[position] == address(0), \"shop already exists at position\");\n      require(geo.validGeohashChars12(position), \"invalid geohash characters in position\");\n      require(geo.zoneInsideCountry(country, bytes4(position)), \"zone is not inside country\");\n\n      // check the price for adding shop in this zone (geohash6)\n      uint zoneValue = zoneLicencePrice[bytes6(position)] > floorLicencePrice ? zoneLicencePrice[bytes6(position)] : floorLicencePrice;\n      require(dthAmount >= zoneValue, \"send dth is less than shop license price\");\n      // require(dthAmount >= countryLicensePrice[country], \"send dth is less than shop license price\");\n\n      // create new entry in storage\n      Shop storage shop = shopAddressToShop[sender];\n      shop.position = position; // a 12 character geohash\n      shop.category = category;\n      shop.name = name;\n      shop.description = description;\n      shop.opening = opening;\n      shop.staked = dthAmount;\n      shop.hasDispute = false;\n      shop.disputeID = 0; // dispute could have id 0..\n      shop.geohashZoneBase = bytes6(position);\n      shop.licencePrice = zoneValue;\n      shop.lastTaxTime = now;\n      stakedDth = stakedDth.add(dthAmount);\n\n      // so we can get a shop based on its position\n      positionToShopAddress[position] = sender;\n\n      // a zone is a 7 character geohash, we keep track of all shops in a given zone\n      zoneToShopAddresses[bytes6(position)].push(sender);\n    }\n\n  }\n\n  function _topUp(address _sender, uint _dthAmount) // GAS COST +/- 104.201\n    private\n  {\n    require(shopAddressToShop[_sender].lastTaxTime > 0, 'Shop does not exist'); // TODO change the value of the check\n    shopAddressToShop[_sender].staked = shopAddressToShop[_sender].staked.add(_dthAmount);\n    stakedDth = stakedDth.add(_dthAmount);\n  }\n\n  function deleteShop(address shopAddress)\n    private\n  {\n    bytes12 position = shopAddressToShop[shopAddress].position;\n\n    delete shopAddressToShop[shopAddress];\n\n    positionToShopAddress[position] = address(0);\n\n    // it's safe to do a loop, the number of geohash12 in any geohash7 (33.554.432) is less than the max uint value\n    // however we would like to NOT loop,\n    // TODO: get rid of the loop by tracking the index of each shop address\n    address[] storage zoneShopAddresses = zoneToShopAddresses[bytes6(position)];\n    for (uint i = 0; i < zoneShopAddresses.length; i += 1) {\n      address zoneShopAddress = zoneShopAddresses[i];\n      if (zoneShopAddress == shopAddress) {\n        address lastShopAddress = zoneShopAddresses[zoneShopAddresses.length - 1];\n        zoneShopAddresses[i] = lastShopAddress;\n        zoneShopAddresses.length--;\n        break; // done\n      }\n    }\n  }\n\n  function removeShop()\n    external\n    onlyWhenShopsDisputeSet\n    onlyWhenCallerIsShop\n    // onlyWhenCallerIsCertified\n    onlyWhenNoDispute(msg.sender)\n  {\n    uint shopStake = shopAddressToShop[msg.sender].staked;\n\n    deleteShop(msg.sender);\n\n    dth.transfer(msg.sender, shopStake);\n    stakedDth = stakedDth.sub(shopStake);\n  }\n\n  function withdrawDth()\n    external\n    onlyWhenShopsDisputeSet\n  {\n    uint dthWithdraw = withdrawableDth[msg.sender];\n    require(dthWithdraw > 0, \"nothing to withdraw\");\n\n    withdrawableDth[msg.sender] = 0;\n    dth.transfer(msg.sender, dthWithdraw);\n    stakedDth = stakedDth.sub(dthWithdraw);\n  }\n\n  //\n  // called by shopsDispute contract\n  //\n\n  function setDispute(address _shopAddress, uint _disputeID)\n    external\n    onlyWhenShopsDisputeSet\n    onlyWhenCallerIsShopsDispute\n  {\n    require(shopAddressToShop[_shopAddress].position != bytes12(0), \"shop does not exist\");\n    shopAddressToShop[_shopAddress].hasDispute = true;\n    shopAddressToShop[_shopAddress].disputeID = _disputeID;\n  }\n\n  function unsetDispute(address _shopAddress)\n    external\n    onlyWhenShopsDisputeSet\n    onlyWhenCallerIsShopsDispute\n  {\n    require(shopAddressToShop[_shopAddress].position != bytes12(0), \"shop does not exist\");\n    shopAddressToShop[_shopAddress].hasDispute = false;\n    shopAddressToShop[_shopAddress].disputeID = 0;\n  }\n\n  function removeDisputedShop(address _shopAddress, address _challenger)\n    external\n    onlyWhenShopsDisputeSet\n    onlyWhenCallerIsShopsDispute\n  {\n    uint shopStake = shopAddressToShop[_shopAddress].staked;\n\n    deleteShop(_shopAddress);\n\n    withdrawableDth[_challenger] = shopStake;\n  }\n}\n",
  "sourcePath": "/Users/mehdi/code/dether/contractV2/contracts/map/Shops.sol",
  "compiler": {
    "name": "solc",
    "version": "0.5.8+commit.23d335f2.Emscripten.clang"
  },
  "schemaVersion": "3.0.11",
  "updatedAt": "2019-07-02T13:21:08.750Z",
  "devdoc": {
    "methods": {}
  },
  "userdoc": {
    "methods": {}
  }
}