{
  "contractName": "Shops",
  "abi": [
    {
      "constant": true,
      "inputs": [],
      "name": "dth",
      "outputs": [
        {
          "name": "",
          "type": "address"
        }
      ],
      "payable": false,
      "stateMutability": "view",
      "type": "function"
    },
    {
      "constant": true,
      "inputs": [],
      "name": "arbitratorExtraData",
      "outputs": [
        {
          "name": "",
          "type": "bytes"
        }
      ],
      "payable": false,
      "stateMutability": "view",
      "type": "function"
    },
    {
      "constant": true,
      "inputs": [
        {
          "name": "",
          "type": "address"
        }
      ],
      "name": "withdrawableDth",
      "outputs": [
        {
          "name": "",
          "type": "uint256"
        }
      ],
      "payable": false,
      "stateMutability": "view",
      "type": "function"
    },
    {
      "constant": true,
      "inputs": [],
      "name": "AMOUNT_OF_CHOICES",
      "outputs": [
        {
          "name": "",
          "type": "uint8"
        }
      ],
      "payable": false,
      "stateMutability": "view",
      "type": "function"
    },
    {
      "constant": true,
      "inputs": [
        {
          "name": "",
          "type": "bytes12"
        }
      ],
      "name": "positionToShopAddress",
      "outputs": [
        {
          "name": "",
          "type": "address"
        }
      ],
      "payable": false,
      "stateMutability": "view",
      "type": "function"
    },
    {
      "constant": true,
      "inputs": [],
      "name": "RULING_OPTIONS",
      "outputs": [
        {
          "name": "",
          "type": "string"
        }
      ],
      "payable": false,
      "stateMutability": "view",
      "type": "function"
    },
    {
      "constant": true,
      "inputs": [],
      "name": "arbitrator",
      "outputs": [
        {
          "name": "",
          "type": "address"
        }
      ],
      "payable": false,
      "stateMutability": "view",
      "type": "function"
    },
    {
      "constant": true,
      "inputs": [
        {
          "name": "",
          "type": "uint256"
        }
      ],
      "name": "disputeTypes",
      "outputs": [
        {
          "name": "",
          "type": "string"
        }
      ],
      "payable": false,
      "stateMutability": "view",
      "type": "function"
    },
    {
      "constant": true,
      "inputs": [
        {
          "name": "",
          "type": "bytes7"
        },
        {
          "name": "",
          "type": "uint256"
        }
      ],
      "name": "zoneToShopAddresses",
      "outputs": [
        {
          "name": "",
          "type": "address"
        }
      ],
      "payable": false,
      "stateMutability": "view",
      "type": "function"
    },
    {
      "constant": true,
      "inputs": [],
      "name": "control",
      "outputs": [
        {
          "name": "",
          "type": "address"
        }
      ],
      "payable": false,
      "stateMutability": "view",
      "type": "function"
    },
    {
      "constant": true,
      "inputs": [],
      "name": "geo",
      "outputs": [
        {
          "name": "",
          "type": "address"
        }
      ],
      "payable": false,
      "stateMutability": "view",
      "type": "function"
    },
    {
      "constant": true,
      "inputs": [],
      "name": "users",
      "outputs": [
        {
          "name": "",
          "type": "address"
        }
      ],
      "payable": false,
      "stateMutability": "view",
      "type": "function"
    },
    {
      "constant": true,
      "inputs": [
        {
          "name": "",
          "type": "bytes2"
        }
      ],
      "name": "countryLicensePrice",
      "outputs": [
        {
          "name": "",
          "type": "uint256"
        }
      ],
      "payable": false,
      "stateMutability": "view",
      "type": "function"
    },
    {
      "inputs": [
        {
          "name": "_dth",
          "type": "address"
        },
        {
          "name": "_geo",
          "type": "address"
        },
        {
          "name": "_users",
          "type": "address"
        },
        {
          "name": "_control",
          "type": "address"
        },
        {
          "name": "_arbitrator",
          "type": "address"
        },
        {
          "name": "_arbitratorExtraData",
          "type": "bytes"
        }
      ],
      "payable": false,
      "stateMutability": "nonpayable",
      "type": "constructor"
    },
    {
      "anonymous": false,
      "inputs": [
        {
          "indexed": true,
          "name": "_metaEvidenceID",
          "type": "uint256"
        },
        {
          "indexed": false,
          "name": "_evidence",
          "type": "string"
        }
      ],
      "name": "MetaEvidence",
      "type": "event"
    },
    {
      "anonymous": false,
      "inputs": [
        {
          "indexed": true,
          "name": "_arbitrator",
          "type": "address"
        },
        {
          "indexed": true,
          "name": "_disputeID",
          "type": "uint256"
        },
        {
          "indexed": false,
          "name": "_metaEvidenceID",
          "type": "uint256"
        }
      ],
      "name": "Dispute",
      "type": "event"
    },
    {
      "anonymous": false,
      "inputs": [
        {
          "indexed": true,
          "name": "_arbitrator",
          "type": "address"
        },
        {
          "indexed": true,
          "name": "_disputeID",
          "type": "uint256"
        },
        {
          "indexed": true,
          "name": "_party",
          "type": "address"
        },
        {
          "indexed": false,
          "name": "_evidence",
          "type": "string"
        }
      ],
      "name": "Evidence",
      "type": "event"
    },
    {
      "anonymous": false,
      "inputs": [
        {
          "indexed": true,
          "name": "_arbitrator",
          "type": "address"
        },
        {
          "indexed": true,
          "name": "_disputeID",
          "type": "uint256"
        },
        {
          "indexed": false,
          "name": "_ruling",
          "type": "uint256"
        }
      ],
      "name": "Ruling",
      "type": "event"
    },
    {
      "constant": true,
      "inputs": [
        {
          "name": "_addr",
          "type": "address"
        }
      ],
      "name": "getShopByAddr",
      "outputs": [
        {
          "name": "",
          "type": "bytes12"
        },
        {
          "name": "",
          "type": "bytes16"
        },
        {
          "name": "",
          "type": "bytes16"
        },
        {
          "name": "",
          "type": "bytes32"
        },
        {
          "name": "",
          "type": "bytes16"
        },
        {
          "name": "",
          "type": "uint256"
        },
        {
          "name": "",
          "type": "bool"
        },
        {
          "name": "",
          "type": "uint256"
        }
      ],
      "payable": false,
      "stateMutability": "view",
      "type": "function"
    },
    {
      "constant": true,
      "inputs": [
        {
          "name": "_position",
          "type": "bytes12"
        }
      ],
      "name": "getShopByPos",
      "outputs": [
        {
          "name": "",
          "type": "bytes12"
        },
        {
          "name": "",
          "type": "bytes16"
        },
        {
          "name": "",
          "type": "bytes16"
        },
        {
          "name": "",
          "type": "bytes32"
        },
        {
          "name": "",
          "type": "bytes16"
        },
        {
          "name": "",
          "type": "uint256"
        },
        {
          "name": "",
          "type": "bool"
        },
        {
          "name": "",
          "type": "uint256"
        }
      ],
      "payable": false,
      "stateMutability": "view",
      "type": "function"
    },
    {
      "constant": true,
      "inputs": [
        {
          "name": "_zoneGeohash",
          "type": "bytes7"
        }
      ],
      "name": "getShopAddressesInZone",
      "outputs": [
        {
          "name": "",
          "type": "address[]"
        }
      ],
      "payable": false,
      "stateMutability": "view",
      "type": "function"
    },
    {
      "constant": true,
      "inputs": [
        {
          "name": "shopAddress",
          "type": "address"
        }
      ],
      "name": "shopByAddrExists",
      "outputs": [
        {
          "name": "",
          "type": "bool"
        }
      ],
      "payable": false,
      "stateMutability": "view",
      "type": "function"
    },
    {
      "constant": false,
      "inputs": [
        {
          "name": "_countryCode",
          "type": "bytes2"
        },
        {
          "name": "_priceDTH",
          "type": "uint256"
        }
      ],
      "name": "setCountryLicensePrice",
      "outputs": [],
      "payable": false,
      "stateMutability": "nonpayable",
      "type": "function"
    },
    {
      "constant": false,
      "inputs": [
        {
          "name": "_from",
          "type": "address"
        },
        {
          "name": "_value",
          "type": "uint256"
        },
        {
          "name": "_data",
          "type": "bytes"
        }
      ],
      "name": "tokenFallback",
      "outputs": [],
      "payable": false,
      "stateMutability": "nonpayable",
      "type": "function"
    },
    {
      "constant": false,
      "inputs": [],
      "name": "removeShop",
      "outputs": [],
      "payable": false,
      "stateMutability": "nonpayable",
      "type": "function"
    },
    {
      "constant": false,
      "inputs": [
        {
          "name": "_disputeTypeLink",
          "type": "string"
        }
      ],
      "name": "addDisputeType",
      "outputs": [],
      "payable": false,
      "stateMutability": "nonpayable",
      "type": "function"
    },
    {
      "constant": true,
      "inputs": [],
      "name": "getDisputeCreateCost",
      "outputs": [
        {
          "name": "",
          "type": "uint256"
        }
      ],
      "payable": false,
      "stateMutability": "view",
      "type": "function"
    },
    {
      "constant": true,
      "inputs": [
        {
          "name": "_shopAddress",
          "type": "address"
        }
      ],
      "name": "getDisputeAppealCost",
      "outputs": [
        {
          "name": "",
          "type": "uint256"
        }
      ],
      "payable": false,
      "stateMutability": "view",
      "type": "function"
    },
    {
      "constant": true,
      "inputs": [
        {
          "name": "_shopAddress",
          "type": "address"
        }
      ],
      "name": "getDispute",
      "outputs": [
        {
          "name": "",
          "type": "uint256"
        },
        {
          "name": "",
          "type": "address"
        },
        {
          "name": "",
          "type": "address"
        },
        {
          "name": "",
          "type": "uint256"
        },
        {
          "name": "",
          "type": "uint256"
        },
        {
          "name": "",
          "type": "uint256"
        }
      ],
      "payable": false,
      "stateMutability": "view",
      "type": "function"
    },
    {
      "constant": false,
      "inputs": [
        {
          "name": "_shopAddress",
          "type": "address"
        },
        {
          "name": "_metaEvidenceId",
          "type": "uint256"
        },
        {
          "name": "_evidenceLink",
          "type": "string"
        }
      ],
      "name": "createDispute",
      "outputs": [],
      "payable": true,
      "stateMutability": "payable",
      "type": "function"
    },
    {
      "constant": false,
      "inputs": [
        {
          "name": "_shopAddress",
          "type": "address"
        },
        {
          "name": "_evidenceLink",
          "type": "string"
        }
      ],
      "name": "appealDispute",
      "outputs": [],
      "payable": true,
      "stateMutability": "payable",
      "type": "function"
    },
    {
      "constant": false,
      "inputs": [],
      "name": "withdrawDth",
      "outputs": [],
      "payable": false,
      "stateMutability": "nonpayable",
      "type": "function"
    },
    {
      "constant": false,
      "inputs": [
        {
          "name": "_disputeID",
          "type": "uint256"
        },
        {
          "name": "_ruling",
          "type": "uint256"
        }
      ],
      "name": "rule",
      "outputs": [],
      "payable": false,
      "stateMutability": "nonpayable",
      "type": "function"
    }
  ],
  "bytecode": "0x60806040523480156200001157600080fd5b5060405162003c6438038062003c6483398101604090815281516020830151918301516060840151608085015160a0860151939592939192909101600160a060020a0386161515620000c457604080517f08c379a000000000000000000000000000000000000000000000000000000000815260206004820152601960248201527f64746820616464726573732063616e6e6f742062652030783000000000000000604482015290519081900360640190fd5b600160a060020a03851615156200013c57604080517f08c379a000000000000000000000000000000000000000000000000000000000815260206004820152601960248201527f67656f20616464726573732063616e6e6f742062652030783000000000000000604482015290519081900360640190fd5b600160a060020a0384161515620001b457604080517f08c379a000000000000000000000000000000000000000000000000000000000815260206004820152601b60248201527f757365727320616464726573732063616e6e6f74206265203078300000000000604482015290519081900360640190fd5b600160a060020a03831615156200022c57604080517f08c379a000000000000000000000000000000000000000000000000000000000815260206004820152601d60248201527f636f6e74726f6c20616464726573732063616e6e6f7420626520307830000000604482015290519081900360640190fd5b600160a060020a0382161515620002a457604080517f08c379a000000000000000000000000000000000000000000000000000000000815260206004820152601860248201527f61726269747261746f722063616e6e6f74206265203078300000000000000000604482015290519081900360640190fd5b60008054600160a060020a0319908116600160a060020a03898116919091179092556001805482168884161790556002805482168784161790556003805482168684161790556004805490911691841691909117905580516200030f9060059060208401906200031c565b50505050505050620003c1565b828054600181600116156101000203166002900490600052602060002090601f016020900481019282601f106200035f57805160ff19168380011785556200038f565b828001600101855582156200038f579182015b828111156200038f57825182559160200191906001019062000372565b506200039d929150620003a1565b5090565b620003be91905b808211156200039d5760008155600101620003a8565b90565b61389380620003d16000396000f3006080604052600436106101505763ffffffff60e060020a60003504166301e57a3781146101555780630c7ac7b6146101865780630ea52eae146102105780631660cfdc1461029a5780631ea84414146102f85780632c2f3d131461032b5780632e0b64221461034c578063311a6c5614610377578063335552de146103925780633b23d6cd146103f25780635840486414610414578063626c47e8146104355780636cc6cde11461044a57806371e884a01461045f57806373912aac146104775780637eb0c9481461048c57806386caeae8146104ac578063acae1350146104e1578063b5c84a5514610506578063b9abe7a314610578578063bc75b21414610598578063c0ee0b8a146105ad578063c10f748914610616578063c732ff3e1461063b578063d8de658714610650578063d944e6a314610665578063f20202751461067a578063fb13ed341461068f575b600080fd5b34801561016157600080fd5b5061016a6106b1565b60408051600160a060020a039092168252519081900360200190f35b34801561019257600080fd5b5061019b6106c0565b6040805160208082528351818301528351919283929083019185019080838360005b838110156101d55781810151838201526020016101bd565b50505050905090810190601f1680156102025780820380516001836020036101000a031916815260200191505b509250505060405180910390f35b34801561021c57600080fd5b50610232600160a060020a03196004351661074e565b60408051600160a060020a031990991689526fffffffffffffffffffffffffffffffff1997881660208a015295871688870152606088019490945291909416608086015260a085019390935291151560c084015260e083019190915251908190036101000190f35b604080516020600460443581810135601f81018490048402850184019095528484526102f6948235600160a060020a03169460248035953695946064949201919081908401838280828437509497506107a49650505050505050565b005b34801561030457600080fd5b50610319600160a060020a0360043516610eb8565b60408051918252519081900360200190f35b34801561033757600080fd5b50610319600160a060020a03600435166110e0565b34801561035857600080fd5b506103616110f2565b6040805160ff9092168252519081900360200190f35b34801561038357600080fd5b506102f66004356024356110f7565b34801561039e57600080fd5b506103b3600160a060020a03600435166111c4565b60408051968752600160a060020a03958616602088015293909416858401526060850191909152608084015260a0830191909152519081900360c00190f35b3480156103fe57600080fd5b5061016a600160a060020a0319600435166113d5565b34801561042057600080fd5b50610232600160a060020a03600435166113f0565b34801561044157600080fd5b5061019b6114ef565b34801561045657600080fd5b5061016a611526565b34801561046b57600080fd5b5061019b600435611535565b34801561048357600080fd5b506102f66115a9565b34801561049857600080fd5b506102f660048035602481019101356118f7565b3480156104b857600080fd5b506104cd600160a060020a0360043516611ad1565b604080519115158252519081900360200190f35b3480156104ed57600080fd5b5061016a600160c860020a031960043516602435611afe565b34801561051257600080fd5b50610528600160c860020a031960043516611b35565b60408051602080825283518183015283519192839290830191858101910280838360005b8381101561056457818101518382015260200161054c565b505050509050019250505060405180910390f35b6102f660048035600160a060020a03169060248035908101910135611bac565b3480156105a457600080fd5b50610319612363565b3480156105b957600080fd5b50604080516020600460443581810135601f81018490048402850184019095528484526102f6948235600160a060020a03169460248035953695946064949201919081908401838280828437509497506124749650505050505050565b34801561062257600080fd5b506102f6600160f060020a031960043516602435612def565b34801561064757600080fd5b506102f6612ef4565b34801561065c57600080fd5b5061016a612fe4565b34801561067157600080fd5b5061016a612ff3565b34801561068657600080fd5b5061016a613002565b34801561069b57600080fd5b50610319600160f060020a031960043516613011565b600054600160a060020a031681565b6005805460408051602060026001851615610100026000190190941693909304601f810184900484028201840190925281815292918301828280156107465780601f1061071b57610100808354040283529160200191610746565b820191906000526020600020905b81548152906001019060200180831161072957829003601f168201915b505050505081565b600160a060020a031981166000908152600860205260408120548190819081908190819081908190600160a060020a0316610788816113f0565b9850985098509850985098509850985050919395975091939597565b6000806000806000600360009054906101000a9004600160a060020a0316600160a060020a0316635c975abb6040518163ffffffff1660e060020a028152600401602060405180830381600087803b1580156107ff57600080fd5b505af1158015610813573d6000803e3d6000fd5b505050506040513d602081101561082957600080fd5b50511561086e576040805160e560020a62461bcd0281526020600482015260126024820152600080516020613808833981519152604482015290519081900360640190fd5b6002546040805160e160020a63726931070281523360048201529051600092600160a060020a03169163e4d2620e91602480830192602092919082900301818787803b1580156108bd57600080fd5b505af11580156108d1573d6000803e3d6000fd5b505050506040513d60208110156108e757600080fd5b50511161092c576040805160e560020a62461bcd0281526020600482015260126024820152600080516020613848833981519152604482015290519081900360640190fd5b6006548710610985576040805160e560020a62461bcd02815260206004820152601b60248201527f64697370757465207479706520646f6573206e6f742065786973740000000000604482015290519081900360640190fd5b85516000106109de576040805160e560020a62461bcd02815260206004820152601660248201527f65766964656e6365206c696e6b20697320656d70747900000000000000000000604482015290519081900360640190fd5b600160a060020a0388161515610a3e576040805160e560020a62461bcd02815260206004820152601360248201527f73686f7020646f6573206e6f7420657869737400000000000000000000000000604482015290519081900360640190fd5b33600160a060020a0389161415610ac5576040805160e560020a62461bcd02815260206004820152602b60248201527f73686f70206f776e65722063616e6e6f7420737461727420646973707574652060448201527f6f6e206f776e2073686f70000000000000000000000000000000000000000000606482015290519081900360840190fd5b600160a060020a0388166000908152600b602052604090206005015460ff1615610b39576040805160e560020a62461bcd02815260206004820152601a60248201527f73686f7020616c72656164792068617320612064697370757465000000000000604482015290519081900360640190fd5b610b41612363565b945034851115610bc1576040805160e560020a62461bcd02815260206004820152602760248201527f73656e7420657468206973206c6f776572207468616e2061726269747261746960448201527f6f6e20636f737400000000000000000000000000000000000000000000000000606482015290519081900360840190fd5b60048054604080517fc13517e100000000000000000000000000000000000000000000000000000000815260029381018481526024820192835260058054600019600182161561010002011686900460448401819052600160a060020a039095169563c13517e1958c9591949293926064019084908015610c835780601f10610c5857610100808354040283529160200191610c83565b820191906000526020600020905b815481529060010190602001808311610c6657829003601f168201915b505093505050506020604051808303818588803b158015610ca357600080fd5b505af1158015610cb7573d6000803e3d6000fd5b50505050506040513d6020811015610cce57600080fd5b50516000818152600c6020526040812082815560028101805433600160a060020a03199182161790915560018083018054909216600160a060020a038e1617909155600382018b90556004820180549498509196509192909160ff19909116908302179055506004830180546000919061ff001916610100830217905550600160a060020a038089166000908152600b602090815260409182902060058101805460ff191660011790556006810188905560045483518c81529351919650889416927fc21357d76c2ee05713ed6e2edb9a5f60ab1e8748c56201385df30007f774f58d92908290030190a3600454604080516020808252895181830152895133948994600160a060020a03909116937fdccf2f8b2cc26eafcd61905cba744cff4b81d14740725f6376390dc6298a6a3c938d93919283929083019185019080838360005b83811015610e2a578181015183820152602001610e12565b50505050905090810190601f168015610e575780820380516001836020036101000a031916815260200191505b509250505060405180910390a4610e74853463ffffffff61302316565b90506000811115610eae57604051339082156108fc029083906000818181858888f19350505050158015610eac573d6000803e3d6000fd5b505b5050505050505050565b600160a060020a0381166000908152600b6020526040812054819060a060020a02600160a060020a0319161515610f39576040805160e560020a62461bcd02815260206004820152601360248201527f73686f7020646f6573206e6f7420657869737400000000000000000000000000604482015290519081900360640190fd5b600160a060020a0383166000908152600b602052604090206005015460ff161515610fae576040805160e560020a62461bcd02815260206004820152601360248201527f73686f7020686173206e6f206469737075746500000000000000000000000000604482015290519081900360640190fd5b60048054600160a060020a038581166000908152600b6020526040908190206006015481517ff23f16e600000000000000000000000000000000000000000000000000000000815294850181815260248601928352600580546002600019600183161561010002019091160460448801819052949095169563f23f16e695929492939192606490910190849080156110875780601f1061105c57610100808354040283529160200191611087565b820191906000526020600020905b81548152906001019060200180831161106a57829003601f168201915b50509350505050602060405180830381600087803b1580156110a857600080fd5b505af11580156110bc573d6000803e3d6000fd5b505050506040513d60208110156110d257600080fd5b505191508190505b50919050565b600a6020526000908152604090205481565b600281565b600454600160a060020a0316331461117f576040805160e560020a62461bcd02815260206004820152602560248201527f43616e206f6e6c792062652063616c6c6564206279207468652061726269747260448201527f61746f722e000000000000000000000000000000000000000000000000000000606482015290519081900360840190fd5b604080518281529051839133917f394027a5fa6e098a1191094d1719d6929b9abc535fcc0c8f448d6a4e756222769181900360200190a36111c0828261303a565b5050565b6000806000806000806111d56136d6565b600160a060020a0388166000908152600b602052604090205460a060020a02600160a060020a0319161515611254576040805160e560020a62461bcd02815260206004820152601360248201527f73686f7020646f6573206e6f7420657869737400000000000000000000000000604482015290519081900360640190fd5b600160a060020a0388166000908152600b602052604090206005015460ff1615156112c9576040805160e560020a62461bcd02815260206004820152601360248201527f73686f7020686173206e6f206469737075746500000000000000000000000000604482015290519081900360640190fd5b600160a060020a038089166000908152600b60209081526040808320600601548352600c825291829020825160c081018452815481526001820154851692810192909252600280820154909416928201929092526003820154606082015260048201549092608084019160ff169081111561134057fe5b600281111561134b57fe5b81526020016004820160019054906101000a900460ff16600281111561136d57fe5b600281111561137857fe5b815250509050806000015181602001518260400151836060015161139f85600001516131a3565b60028111156113aa57fe5b85516113b590613283565b60028111156113c057fe5b949d939c50919a509850965090945092505050565b600860205260009081526040902054600160a060020a031681565b60008060008060008060008061140461370b565b50505050600160a060020a03959095166000908152600b60209081526040918290208251610100810184528154600160a060020a031960a060020a8202168083526fffffffffffffffffffffffffffffffff197001000000000000000000000000000000006c010000000000000000000000009093048302811695840186905260018501548302811696840187905260028501546060850181905260038601549093021660808401819052600485015460a08501819052600586015460ff16151560c0860181905260069096015460e0909501859052919c959b509599509097509395509293509190565b60408051808201909152601981527f53686f702077696e733b4368616c6c656e6765722077696e7300000000000000602082015281565b600454600160a060020a031681565b600680548290811061154357fe5b600091825260209182902001805460408051601f60026000196101006001871615020190941693909304928301859004850281018501909152818152935090918301828280156107465780601f1061071b57610100808354040283529160200191610746565b600354604080517f5c975abb0000000000000000000000000000000000000000000000000000000081529051600092600160a060020a031691635c975abb91600480830192602092919082900301818787803b15801561160857600080fd5b505af115801561161c573d6000803e3d6000fd5b505050506040513d602081101561163257600080fd5b505115611677576040805160e560020a62461bcd0281526020600482015260126024820152600080516020613808833981519152604482015290519081900360640190fd5b6002546040805160e160020a63726931070281523360048201529051600092600160a060020a03169163e4d2620e91602480830192602092919082900301818787803b1580156116c657600080fd5b505af11580156116da573d6000803e3d6000fd5b505050506040513d60208110156116f057600080fd5b505111611735576040805160e560020a62461bcd0281526020600482015260126024820152600080516020613848833981519152604482015290519081900360640190fd5b336000908152600b602052604090205460a060020a02600160a060020a03191615156117ab576040805160e560020a62461bcd02815260206004820152601860248201527f63616c6c657220646f6573206e6f74206f776e2073686f700000000000000000604482015290519081900360640190fd5b336000908152600b602052604090206005015460ff161561183c576040805160e560020a62461bcd02815260206004820152602360248201527f63616e6e6f742072656d6f76652073686f70207768696c6520696e206469737060448201527f7574650000000000000000000000000000000000000000000000000000000000606482015290519081900360840190fd5b50336000818152600b60205260409020600401549061185a9061335d565b60008054604080517fa9059cbb000000000000000000000000000000000000000000000000000000008152336004820152602481018590529051600160a060020a039092169263a9059cbb926044808401936020939083900390910190829087803b1580156118c857600080fd5b505af11580156118dc573d6000803e3d6000fd5b505050506040513d60208110156118f257600080fd5b505050565b600354604080517f8900bd220000000000000000000000000000000000000000000000000000000081523360048201529051600092600160a060020a031691638900bd2291602480830192602092919082900301818787803b15801561195c57600080fd5b505af1158015611970573d6000803e3d6000fd5b505050506040513d602081101561198657600080fd5b505115156119de576040805160e560020a62461bcd02815260206004820152601960248201527f63616e206f6e6c792062652063616c6c65642062792043454f00000000000000604482015290519081900360640190fd5b60008211611a36576040805160e560020a62461bcd02815260206004820152601a60248201527f646973707574652074797065206c696e6b20697320656d707479000000000000604482015290519081900360640190fd5b6006805460018181018084556000939093529190611a77907ff652222313e28459528d920b65115c16c04f3efc82aaedc97be59f3f377c0d3f01868661374f565b50039050807f61606860eb6c87306811e2695215385101daab53bd6ab4e9f9049aead9363c7d84846040518080602001828103825284848281815260200192508082843760405192018290039550909350505050a2505050565b600160a060020a03166000908152600b602052604090205460a060020a02600160a060020a031916151590565b600960205281600052604060002081815481101515611b1957fe5b600091825260209091200154600160a060020a03169150829050565b600160c860020a03198116600090815260096020908152604091829020805483518184028101840190945280845260609392830182828015611ba057602002820191906000526020600020905b8154600160a060020a03168152600190910190602001808311611b82575b50505050509050919050565b6000806000806000600360009054906101000a9004600160a060020a0316600160a060020a0316635c975abb6040518163ffffffff1660e060020a028152600401602060405180830381600087803b158015611c0757600080fd5b505af1158015611c1b573d6000803e3d6000fd5b505050506040513d6020811015611c3157600080fd5b505115611c76576040805160e560020a62461bcd0281526020600482015260126024820152600080516020613808833981519152604482015290519081900360640190fd5b6002546040805160e160020a63726931070281523360048201529051600092600160a060020a03169163e4d2620e91602480830192602092919082900301818787803b158015611cc557600080fd5b505af1158015611cd9573d6000803e3d6000fd5b505050506040513d6020811015611cef57600080fd5b505111611d34576040805160e560020a62461bcd0281526020600482015260126024820152600080516020613848833981519152604482015290519081900360640190fd5b60008611611d8c576040805160e560020a62461bcd02815260206004820152601660248201527f65766964656e6365206c696e6b20697320656d70747900000000000000000000604482015290519081900360640190fd5b600160a060020a0388166000908152600b60205260409020600581015490955060ff161515600114611e08576040805160e560020a62461bcd02815260206004820152601a60248201527f73686f7020686173206e6f206163746976652064697370757465000000000000604482015290519081900360640190fd5b60068501546000908152600c60205260409020935060018454611e2a90613283565b6002811115611e3557fe5b14611e8a576040805160e560020a62461bcd02815260206004820152601960248201527f64697370757465206973206e6f742061707065616c61626c6500000000000000604482015290519081900360640190fd5b8354611e95906131a3565b92506001836002811115611ea557fe5b1415611f3a576002840154600160a060020a03163314611f35576040805160e560020a62461bcd02815260206004820152602d60248201527f73686f702072756c656420746f2077696e2c206f6e6c79206368616c6c656e6760448201527f65722063616e2061707065616c00000000000000000000000000000000000000606482015290519081900360840190fd5b612062565b6002836002811115611f4857fe5b1415611fd8576001840154600160a060020a03163314611f35576040805160e560020a62461bcd02815260206004820152602d60248201527f6368616c6c656e6765722072756c656420746f2077696e2c206f6e6c7920736860448201527f6f702063616e2061707065616c00000000000000000000000000000000000000606482015290519081900360840190fd5b6002840154600160a060020a03163314612062576040805160e560020a62461bcd02815260206004820152602b60248201527f6e6f2072756c696e6720676976656e2c206f6e6c79206368616c6c656e67657260448201527f2063616e2061707065616c000000000000000000000000000000000000000000606482015290519081900360840190fd5b600480548554604080517ff23f16e600000000000000000000000000000000000000000000000000000000815293840182815260248501918252600580546002600019600183161561010002019091160460448701819052600160a060020a039095169563f23f16e695919391606490910190849080156121245780601f106120f957610100808354040283529160200191612124565b820191906000526020600020905b81548152906001019060200180831161210757829003601f168201915b50509350505050602060405180830381600087803b15801561214557600080fd5b505af1158015612159573d6000803e3d6000fd5b505050506040513d602081101561216f57600080fd5b50519150348211156121f1576040805160e560020a62461bcd02815260206004820152602260248201527f73656e7420657468206973206c6f776572207468616e2061707065616c20636f60448201527f7374000000000000000000000000000000000000000000000000000000000000606482015290519081900360840190fd5b600480548554604080517f49912f8800000000000000000000000000000000000000000000000000000000815293840182815260248501918252600580546002600019600183161561010002019091160460448701819052600160a060020a03909516956349912f88958995949293929160640190849080156122b55780601f1061228a576101008083540402835291602001916122b5565b820191906000526020600020905b81548152906001019060200180831161229857829003601f168201915b505093505050506000604051808303818588803b1580156122d557600080fd5b505af11580156122e9573d6000803e3d6000fd5b5050865460045460408051602080825281018d9052339650929450600160a060020a0390911692507fdccf2f8b2cc26eafcd61905cba744cff4b81d14740725f6376390dc6298a6a3c918c918c91908190810184848082843760405192018290039550909350505050a4610e74823463ffffffff61302316565b600480546040517ff7434ea90000000000000000000000000000000000000000000000000000000081526020928101928352600580546002600019600183161561010002019091160460248301819052600094600160a060020a039094169363f7434ea99390918291604401908490801561241f5780601f106123f45761010080835404028352916020019161241f565b820191906000526020600020905b81548152906001019060200180831161240257829003601f168201915b505092505050602060405180830381600087803b15801561243f57600080fd5b505af1158015612453573d6000803e3d6000fd5b505050506040513d602081101561246957600080fd5b505160020290505b90565b60008054819081908190819081908190819081908190600160a060020a0316331461250f576040805160e560020a62461bcd02815260206004820152602260248201527f63616e206f6e6c792062652063616c6c65642062792064746820636f6e74726160448201527f6374000000000000000000000000000000000000000000000000000000000000606482015290519081900360840190fd5b600360009054906101000a9004600160a060020a0316600160a060020a0316635c975abb6040518163ffffffff1660e060020a028152600401602060405180830381600087803b15801561256257600080fd5b505af1158015612576573d6000803e3d6000fd5b505050506040513d602081101561258c57600080fd5b5051156125d1576040805160e560020a62461bcd0281526020600482015260126024820152600080516020613808833981519152604482015290519081900360640190fd5b8a51605f1461262a576040805160e560020a62461bcd02815260206004820181905260248201527f61646453686f7020657870656374732039352062797465732061732064617461604482015290519081900360640190fd5b8c99508b985061263b8b60006134e8565b97507fff0000000000000000000000000000000000000000000000000000000000000088167f3000000000000000000000000000000000000000000000000000000000000000146126fc576040805160e560020a62461bcd02815260206004820152602b60248201527f696e636f7272656374206669727374206279746520696e20646174612c20657860448201527f7065637465642030783330000000000000000000000000000000000000000000606482015290519081900360840190fd5b6127078b6001613541565b96506127148b6003613590565b95506127218b600f6135df565b945061272e8b601f6135df565b935061273b8b602f61362e565b92506127488b604f6135df565b600154604080517f0dc210aa000000000000000000000000000000000000000000000000000000008152600160f060020a03198b1660048201529051929450600160a060020a0390911691630dc210aa916024808201926020929091908290030181600087803b1580156127bb57600080fd5b505af11580156127cf573d6000803e3d6000fd5b505050506040513d60208110156127e557600080fd5b5051151561283d576040805160e560020a62461bcd02815260206004820152601360248201527f636f756e7472792069732064697361626c656400000000000000000000000000604482015290519081900360640190fd5b6002546040805160e160020a6372693107028152600160a060020a038d811660048301529151600093929092169163e4d2620e9160248082019260209290919082900301818787803b15801561289257600080fd5b505af11580156128a6573d6000803e3d6000fd5b505050506040513d60208110156128bc57600080fd5b505111612901576040805160e560020a62461bcd0281526020600482015260126024820152600080516020613848833981519152604482015290519081900360640190fd5b600160a060020a038a166000908152600b602052604090205460a060020a02600160a060020a0319161561297f576040805160e560020a62461bcd02815260206004820152601760248201527f63616c6c657220616c7265616479206861732073686f70000000000000000000604482015290519081900360640190fd5b600160a060020a03198616600090815260086020526040902054600160a060020a0316156129f7576040805160e560020a62461bcd02815260206004820152601f60248201527f73686f7020616c72656164792065786973747320617420706f736974696f6e00604482015290519081900360640190fd5b600154604080517fbf922fe2000000000000000000000000000000000000000000000000000000008152600160a060020a0319891660048201529051600160a060020a039092169163bf922fe2916024808201926020929091908290030181600087803b158015612a6757600080fd5b505af1158015612a7b573d6000803e3d6000fd5b505050506040513d6020811015612a9157600080fd5b50511515612b0f576040805160e560020a62461bcd02815260206004820152602660248201527f696e76616c69642067656f68617368206368617261637465727320696e20706f60448201527f736974696f6e0000000000000000000000000000000000000000000000000000606482015290519081900360840190fd5b600154604080517fdf6b2c2c000000000000000000000000000000000000000000000000000000008152600160f060020a03198a1660048201527bffffffffffffffffffffffffffffffffffffffffffffffffffffffff19891660248201529051600160a060020a039092169163df6b2c2c916044808201926020929091908290030181600087803b158015612ba457600080fd5b505af1158015612bb8573d6000803e3d6000fd5b505050506040513d6020811015612bce57600080fd5b50511515612c26576040805160e560020a62461bcd02815260206004820152601a60248201527f7a6f6e65206973206e6f7420696e7369646520636f756e747279000000000000604482015290519081900360640190fd5b600160f060020a03198716600090815260076020526040902054891015612cbd576040805160e560020a62461bcd02815260206004820152602860248201527f73656e6420647468206973206c657373207468616e2073686f70206c6963656e60448201527f7365207072696365000000000000000000000000000000000000000000000000606482015290519081900360840190fd5b50600160a060020a03989098166000818152600b6020908152604080832080546bffffffffffffffffffffffff191660a060020a8a04177fffffffff00000000000000000000000000000000ffffffffffffffffffffffff166c01000000000000000000000000700100000000000000000000000000000000998a900402178155600180820180546fffffffffffffffffffffffffffffffff19908116998b9004999099179055600282019690965560038101805490971697909c049690961790945560048a019890985560058901805460ff191690556006909801879055600160a060020a0319808516885260088352838820805482168a179055600160c860020a031990941687526009825291862080549283018155865290942090930180549093169093179091555050505050565b600354604080517f8900bd220000000000000000000000000000000000000000000000000000000081523360048201529051600160a060020a0390921691638900bd22916024808201926020929091908290030181600087803b158015612e5557600080fd5b505af1158015612e69573d6000803e3d6000fd5b505050506040513d6020811015612e7f57600080fd5b50511515612ed7576040805160e560020a62461bcd02815260206004820152601960248201527f63616e206f6e6c792062652063616c6c65642062792043454f00000000000000604482015290519081900360640190fd5b600160f060020a0319909116600090815260076020526040902055565b336000908152600a6020526040812054908111612f5b576040805160e560020a62461bcd02815260206004820152601360248201527f6e6f7468696e6720746f20776974686472617700000000000000000000000000604482015290519081900360640190fd5b6000811115612fe157336000818152600a60209081526040808320839055825481517fa9059cbb0000000000000000000000000000000000000000000000000000000081526004810195909552602485018690529051600160a060020a039091169363a9059cbb9360448083019493928390030190829087803b1580156118c857600080fd5b50565b600354600160a060020a031681565b600154600160a060020a031681565b600254600160a060020a031681565b60076020526000908152604090205481565b6000808383111561303357600080fd5b5050900390565b600080600080600085600281111561304e57fe5b6000888152600c60209081526040808320600180820154600160a060020a03168552600b909352922092975090955090935085600281111561308c57fe5b14156130b35760058301805460ff19169055600060068401556130ae8761367d565b61316e565b60028560028111156130c157fe5b141561313e575050600481015460028301546001840154600160a060020a03918216916130ee911661335d565b6130f78761367d565b600160a060020a0381166000908152600a6020526040902054613120908363ffffffff6136c416565b600160a060020a0382166000908152600a602052604090205561316e565b600085600281111561314c57fe5b141561316e5760058301805460ff191690556000600684015561316e8761367d565b60048401805461ff0019166102001780825586919060ff1916600183600281111561319557fe5b021790555050505050505050565b6000818152600c6020526040812060026004820154610100900460ff1660028111156131cb57fe5b14156131e057600481015460ff1691506110da565b60048054604080517f1c3db16d00000000000000000000000000000000000000000000000000000000815292830186905251600160a060020a0390911691631c3db16d9160248083019260209291908290030181600087803b15801561324557600080fd5b505af1158015613259573d6000803e3d6000fd5b505050506040513d602081101561326f57600080fd5b5051600281111561327c57fe5b9392505050565b6000818152600c6020526040812060026004820154610100900460ff1660028111156132ab57fe5b14156132c5576004810154610100900460ff1691506110da565b60048054604080517f10f169e800000000000000000000000000000000000000000000000000000000815292830186905251600160a060020a03909116916310f169e89160248083019260209291908290030181600087803b15801561332a57600080fd5b505af115801561333e573d6000803e3d6000fd5b505050506040513d602081101561335457600080fd5b50519392505050565b600160a060020a0381166000908152600b6020908152604080832080547bffffffffffffffffffffffffffffffffffffffffffffffffffffffff19811682556001820180546fffffffffffffffffffffffffffffffff199081169091556002830186905560038301805490911690556004820185905560058201805460ff19169055600690910184905560a060020a02600160a060020a031981811685526008845282852080549091169055600160c860020a03198116845260099092528220909180805b83548310156134e057838381548110151561343957fe5b600091825260209091200154600160a060020a03908116925086168214156134d55783548490600019810190811061346d57fe5b6000918252602090912001548454600160a060020a039091169150819085908590811061349657fe5b60009182526020909120018054600160a060020a031916600160a060020a039290921691909117905583546134cf8560001983016137cd565b506134e0565b600183019250613422565b505050505050565b60008082600101845110151515613537576040805160e560020a62461bcd0281526020600482015260106024820152600080516020613828833981519152604482015290519081900360640190fd5b5050016020015190565b60008082600201845110151515613537576040805160e560020a62461bcd0281526020600482015260106024820152600080516020613828833981519152604482015290519081900360640190fd5b60008082600c01845110151515613537576040805160e560020a62461bcd0281526020600482015260106024820152600080516020613828833981519152604482015290519081900360640190fd5b60008082601001845110151515613537576040805160e560020a62461bcd0281526020600482015260106024820152600080516020613828833981519152604482015290519081900360640190fd5b60008082602001845110151515613537576040805160e560020a62461bcd0281526020600482015260106024820152600080516020613828833981519152604482015290519081900360640190fd5b6000908152600c60205260408120818155600181018054600160a060020a031990811690915560028201805490911690556003810191909155600401805461ffff19169055565b60008282018381101561327c57600080fd5b6040805160c0810182526000808252602082018190529181018290526060810182905290608082019081526020016000905290565b6040805161010081018252600080825260208201819052918101829052606081018290526080810182905260a0810182905260c0810182905260e081019190915290565b828054600181600116156101000203166002900490600052602060002090601f016020900481019282601f106137905782800160ff198235161785556137bd565b828001600101855582156137bd579182015b828111156137bd5782358255916020019190600101906137a2565b506137c99291506137ed565b5090565b8154818355818111156118f2576000838152602090206118f29181019083015b61247191905b808211156137c957600081556001016137f35600636f6e7472616374206973207061757365640000000000000000000000000000206e6f74206c6f6e6720656e6f7567680000000000000000000000000000000075736572206e6f74206365727469666965640000000000000000000000000000a165627a7a723058202dfd6821c382b1cd931d46ba5c8dc048e325136e0e17dc223e3ed6523e6b1c080029",
  "source": "pragma solidity ^0.4.24;\n\nimport \"openzeppelin-solidity/contracts/math/SafeMath.sol\";\nimport \"openzeppelin-solidity/contracts/ownership/Ownable.sol\";\n\nimport \"../dth/IDetherToken.sol\";\nimport \"../core/IUsers.sol\";\nimport \"../core/IControl.sol\";\nimport \"./IGeoRegistry.sol\";\nimport \"../kleros/IArbitrable.sol\";\nimport \"../kleros/Arbitrator.sol\";\n\ncontract Shops is IArbitrable {\n  // ------------------------------------------------\n  //\n  // Libraries\n  //\n  // ------------------------------------------------\n\n  using SafeMath for uint;\n\n  // ------------------------------------------------\n  //\n  // Enums\n  //\n  // ------------------------------------------------\n\n  enum Party {Shop, Challenger}\n  enum RulingOptions {NoRuling, ShopWins, ChallengerWins}\n  // enum DisputeStatus {Waiting, Appealable, Solved} // copied from Arbitrator.sol\n\n  // ------------------------------------------------\n  //\n  // Structs\n  //\n  // ------------------------------------------------\n\n  struct Shop {\n    bytes12 position; // 12 char geohash for location of teller\n    bytes16 category;\n    bytes16 name;\n    bytes32 description;\n    bytes16 opening;\n    uint staked;\n    bool hasDispute;\n    uint disputeID;\n  }\n\n  struct ShopDispute {\n    uint id;\n    address shop;\n    address challenger;\n    uint disputeType;\n    RulingOptions ruling;\n    Arbitrator.DisputeStatus status;\n  }\n\n  // ------------------------------------------------\n  //\n  // Variables Public\n  //\n  // ------------------------------------------------\n\n  // links to other contracts\n  IDetherToken public dth;\n  IGeoRegistry public geo;\n  IUsers public users;\n  IControl public control;\n  Arbitrator public arbitrator; // <-- kleros\n\n  // kleros related\n  string public constant RULING_OPTIONS = \"Shop wins;Challenger wins\";\n  uint8 public constant AMOUNT_OF_CHOICES = 2;\n  bytes public arbitratorExtraData;\n  string[] public disputeTypes;\n\n  //      countryCode priceDTH\n  mapping(bytes2 =>   uint) public countryLicensePrice;\n\n  //      geohash12   shopAddress\n  mapping(bytes12 =>  address) public positionToShopAddress;\n\n  //      geohash7    shopAddresses\n  mapping(bytes7 =>   address[]) public zoneToShopAddresses;\n\n  mapping(address => uint) public withdrawableDth;\n\n  // ------------------------------------------------\n  //\n  // Variables Private\n  //\n  // ------------------------------------------------\n\n  //      shopAddress shopStruct\n  mapping(address =>  Shop) private shopAddressToShop;\n\n  //      disputeId disputeStruct\n  mapping(uint =>   ShopDispute) private disputeIdToDispute;\n\n  // ------------------------------------------------\n  //\n  // Modifiers\n  //\n  // ------------------------------------------------\n\n  modifier onlyArbitrator {\n    require(msg.sender == address(arbitrator), \"Can only be called by the arbitrator.\");\n    _;\n  }\n\n  // ------------------------------------------------\n  //\n  // Events\n  //\n  // ------------------------------------------------\n\n  // ------------------------------------------------\n  //\n  // Constructor\n  //\n  // ------------------------------------------------\n\n  constructor(address _dth, address _geo, address _users, address _control, address _arbitrator, bytes _arbitratorExtraData)\n    public\n  {\n    require(_dth != address(0), \"dth address cannot be 0x0\");\n    require(_geo != address(0), \"geo address cannot be 0x0\");\n    require(_users != address(0), \"users address cannot be 0x0\");\n    require(_control != address(0), \"control address cannot be 0x0\");\n    require(_arbitrator != address(0), \"arbitrator cannot be 0x0\");\n\n    dth = IDetherToken(_dth);\n    geo = IGeoRegistry(_geo);\n    users = IUsers(_users);\n    control = IControl(_control);\n\n    // kleros\n    arbitrator = Arbitrator(_arbitrator);\n    arbitratorExtraData = _arbitratorExtraData;\n  }\n\n  // ------------------------------------------------\n  //\n  // Functions Getters Public\n  //\n  // ------------------------------------------------\n\n  function getShopByAddr(address _addr)\n    public\n    view\n    returns (bytes12, bytes16, bytes16, bytes32, bytes16, uint, bool, uint)\n  {\n    Shop memory shop = shopAddressToShop[_addr];\n\n    return (\n      shop.position,\n      shop.category,\n      shop.name,\n      shop.description,\n      shop.opening,\n      shop.staked,\n      shop.hasDispute,\n      shop.disputeID\n    );\n  }\n\n  function getShopByPos(bytes12 _position)\n    external\n    view\n    returns (bytes12, bytes16, bytes16, bytes32, bytes16, uint, bool, uint)\n  {\n    address shopAddr = positionToShopAddress[_position];\n    return getShopByAddr(shopAddr);\n  }\n\n  function getShopAddressesInZone(bytes7 _zoneGeohash)\n    external\n    view\n    returns (address[] memory)\n  {\n    return zoneToShopAddresses[_zoneGeohash];\n  }\n\n  function shopByAddrExists(address shopAddress)\n    external\n    view\n    returns (bool)\n  {\n    return shopAddressToShop[shopAddress].position != bytes12(0);\n  }\n\n  // ------------------------------------------------\n  //\n  // Functions Getters Private\n  //\n  // ------------------------------------------------\n\n  function toBytes1(bytes _bytes, uint _start)\n    private\n    pure\n    returns (bytes1) {\n      require(_bytes.length >= (_start + 1), \" not long enough\");\n      bytes1 tempBytes1;\n\n      assembly {\n          tempBytes1 := mload(add(add(_bytes, 0x20), _start))\n      }\n\n      return tempBytes1;\n  }\n  function toBytes2(bytes _bytes, uint _start)\n    private\n    pure\n    returns (bytes2) {\n      require(_bytes.length >= (_start + 2), \" not long enough\");\n      bytes2 tempBytes2;\n\n      assembly {\n          tempBytes2 := mload(add(add(_bytes, 0x20), _start))\n      }\n\n      return tempBytes2;\n  }\n  function toBytes4(bytes _bytes, uint _start)\n    private\n    pure\n    returns (bytes4) {\n      require(_bytes.length >= (_start + 4), \" not long enough\");\n      bytes4 tempBytes4;\n\n      assembly {\n          tempBytes4 := mload(add(add(_bytes, 0x20), _start))\n      }\n\n      return tempBytes4;\n  }\n  function toBytes7(bytes _bytes, uint _start)\n    private\n    pure\n    returns (bytes7) {\n      require(_bytes.length >= (_start + 7), \" not long enough\");\n      bytes7 tempBytes7;\n\n      assembly {\n          tempBytes7 := mload(add(add(_bytes, 0x20), _start))\n      }\n\n      return tempBytes7;\n  }\n  function toBytes12(bytes _bytes, uint _start)\n    private\n    pure\n    returns (bytes12) {\n      require(_bytes.length >= (_start + 12), \" not long enough\");\n      bytes12 tempBytes12;\n\n      assembly {\n          tempBytes12 := mload(add(add(_bytes, 0x20), _start))\n      }\n\n      return tempBytes12;\n  }\n  function toBytes16(bytes _bytes, uint _start)\n    private\n    pure\n    returns (bytes16) {\n      require(_bytes.length >= (_start + 16), \" not long enough\");\n      bytes16 tempBytes16;\n\n      assembly {\n          tempBytes16 := mload(add(add(_bytes, 0x20), _start))\n      }\n\n      return tempBytes16;\n  }\n  function toBytes32(bytes _bytes, uint _start)\n    private\n    pure\n    returns (bytes32) {\n      require(_bytes.length >= (_start + 32), \" not long enough\");\n      bytes32 tempBytes32;\n\n      assembly {\n          tempBytes32 := mload(add(add(_bytes, 0x20), _start))\n      }\n\n      return tempBytes32;\n  }\n\n  // ------------------------------------------------\n  //\n  // Functions Setters Public\n  //\n  // ------------------------------------------------\n\n  function setCountryLicensePrice(bytes2 _countryCode, uint _priceDTH)\n    external\n  {\n    require(control.isCEO(msg.sender), \"can only be called by CEO\");\n    countryLicensePrice[_countryCode] = _priceDTH;\n  }\n\n  function tokenFallback(address _from, uint _value, bytes _data)\n    public\n  {\n    require(msg.sender == address(dth), \"can only be called by dth contract\");\n\n    require(control.paused() == false, \"contract is paused\");\n\n    require(_data.length == 95, \"addShop expects 95 bytes as data\");\n\n    address sender = _from;\n    uint dthAmount = _value;\n\n    bytes1 fn = toBytes1(_data, 0);\n    require(fn == bytes1(0x30), \"incorrect first byte in data, expected 0x30\");\n\n    bytes2 country = toBytes2(_data, 1);\n    bytes12 position = toBytes12(_data, 3);\n    bytes16 category = toBytes16(_data, 15);\n    bytes16 name = toBytes16(_data, 31);\n    bytes32 description = toBytes32(_data, 47);\n    bytes16 opening = toBytes16(_data, 79);\n\n    require(geo.countryIsEnabled(country), \"country is disabled\");\n    require(users.getUserTier(sender) > 0, \"user not certified\");\n    require(shopAddressToShop[sender].position == bytes12(0), \"caller already has shop\");\n    require(positionToShopAddress[position] == address(0), \"shop already exists at position\");\n    require(geo.validGeohashChars12(position), \"invalid geohash characters in position\");\n    require(geo.zoneInsideCountry(country, bytes4(position)), \"zone is not inside country\");\n\n    require(dthAmount >= countryLicensePrice[country], \"send dth is less than shop license price\");\n\n    // create new entry in storage\n    Shop storage shop = shopAddressToShop[sender];\n    shop.position = position; // a 12 character geohash\n    shop.category = category;\n    shop.name = name;\n    shop.description = description;\n    shop.opening = opening;\n    shop.staked = dthAmount;\n    shop.hasDispute = false;\n    shop.disputeID = 0; // dispute could have id 0..\n\n    // so we can get a shop based on its position\n    positionToShopAddress[position] = sender;\n\n    // a zone is a 7 character geohash, we keep track of all shops in a given zone\n    zoneToShopAddresses[bytes7(position)].push(sender);\n  }\n\n  function deleteShop(address shopAddress)\n    private\n  {\n    bytes12 position = shopAddressToShop[shopAddress].position;\n\n    delete shopAddressToShop[shopAddress];\n\n    positionToShopAddress[position] = address(0);\n\n    // it's safe to do a loop, the number of geohash12 in any geohash7 (33.554.432) is less than the max uint value\n    // however we would like to NOT loop,\n    // TODO: get rid of the loop by tracking the index of each shop address\n    address[] storage zoneShopAddresses = zoneToShopAddresses[bytes7(position)];\n    for (uint i = 0; i < zoneShopAddresses.length; i += 1) {\n      address zoneShopAddress = zoneShopAddresses[i];\n      if (zoneShopAddress == shopAddress) {\n        address lastShopAddress = zoneShopAddresses[zoneShopAddresses.length - 1];\n        zoneShopAddresses[i] = lastShopAddress;\n        zoneShopAddresses.length--;\n        break; // done\n      }\n    }\n  }\n\n  function removeShop()\n    external\n  {\n    require(control.paused() == false, \"contract is paused\");\n    require(users.getUserTier(msg.sender) > 0, \"user not certified\");\n    // if country is disabled, user can still remove his shop!\n\n    require(shopAddressToShop[msg.sender].position != bytes12(0), \"caller does not own shop\");\n    require(shopAddressToShop[msg.sender].hasDispute == false, \"cannot remove shop while in dispute\");\n\n    uint shopStake = shopAddressToShop[msg.sender].staked;\n\n    deleteShop(msg.sender);\n\n    dth.transfer(msg.sender, shopStake);\n  }\n\n  //\n  //\n  //\n  //\n  // Kleros Dispute Arbitration\n  //\n  //\n  //\n  //\n\n  // so we can add new types of dispute in the future\n  function addDisputeType(string _disputeTypeLink)\n    external\n  {\n    require(control.isCEO(msg.sender), \"can only be called by CEO\");\n    require(bytes(_disputeTypeLink).length > 0, \"dispute type link is empty\");\n\n    uint metaEvidenceId = disputeTypes.push(_disputeTypeLink) - 1;\n\n    emit MetaEvidence(metaEvidenceId, _disputeTypeLink);\n  }\n\n  function getDisputeCreateCost()\n    public\n    view\n    returns (uint)\n  {\n    return arbitrator.arbitrationCost(arbitratorExtraData) * 2;\n  }\n\n  function getDisputeAppealCost(address _shopAddress)\n    external\n    view\n    returns (uint)\n  {\n    require(shopAddressToShop[_shopAddress].position != bytes12(0), \"shop does not exist\");\n    require(shopAddressToShop[_shopAddress].hasDispute, \"shop has no dispute\");\n\n    uint a = arbitrator.appealCost(shopAddressToShop[_shopAddress].disputeID, arbitratorExtraData);\n\n    return a;\n  }\n\n  function getDisputeStatus(uint _disputeID)\n    private\n    returns (Arbitrator.DisputeStatus disputeStatus)\n  {\n    ShopDispute storage dispute = disputeIdToDispute[_disputeID];\n\n    if (dispute.status == Arbitrator.DisputeStatus.Solved) {\n      // rule() in this contract was called, it set status to Solved and set the final Ruling\n      disputeStatus = dispute.status;\n    } else {\n      // dispute is not yet finalized, get current values from arbitrator contract\n      disputeStatus = arbitrator.disputeStatus(_disputeID); // returns Arbitrator.DisputeStatus\n    }\n  }\n\n  function getDisputeRuling(uint _disputeID)\n    private\n    returns (RulingOptions disputeRuling)\n  {\n    ShopDispute storage dispute = disputeIdToDispute[_disputeID];\n\n    if (dispute.status == Arbitrator.DisputeStatus.Solved) {\n      // rule() in this contract was called, it set status to Solved and set the final Ruling\n      disputeRuling = dispute.ruling;\n    } else {\n      // dispute is not yet finalized, get current values from arbitrator contract\n      disputeRuling = RulingOptions(arbitrator.currentRuling(_disputeID));\n    }\n  }\n\n  function getDispute(address _shopAddress)\n    public\n    view\n    returns (uint, address, address, uint, uint, uint)\n  {\n    require(shopAddressToShop[_shopAddress].position != bytes12(0), \"shop does not exist\");\n    require(shopAddressToShop[_shopAddress].hasDispute, \"shop has no dispute\");\n\n    ShopDispute memory dispute = disputeIdToDispute[shopAddressToShop[_shopAddress].disputeID];\n\n    return (\n      dispute.id,\n      dispute.shop,\n      dispute.challenger,\n      dispute.disputeType,\n\n      // from arbitrator contract or this contract if finalized\n      uint(getDisputeRuling(dispute.id)),\n      uint(getDisputeStatus(dispute.id))\n    );\n  }\n\n  // called by somebody who wants to start a dispute with a shop\n  function createDispute(address _shopAddress, uint _metaEvidenceId, string _evidenceLink)\n    public\n    payable\n  {\n    require(control.paused() == false, \"contract is paused\");\n    require(users.getUserTier(msg.sender) > 0, \"user not certified\");\n\n    require(_metaEvidenceId < disputeTypes.length, \"dispute type does not exist\");\n    require(bytes(_evidenceLink).length > 0, \"evidence link is empty\");\n\n    require(_shopAddress != address(0), \"shop does not exist\");\n    require(msg.sender != _shopAddress, \"shop owner cannot start dispute on own shop\");\n    require(shopAddressToShop[_shopAddress].hasDispute == false, \"shop already has a dispute\");\n\n    uint arbitrationCost = getDisputeCreateCost();\n    require(msg.value >= arbitrationCost, \"sent eth is lower than arbitration cost\");\n\n    uint disputeID = arbitrator.createDispute.value(arbitrationCost)(AMOUNT_OF_CHOICES, arbitratorExtraData);\n\n    // create new Dispute\n    ShopDispute storage dispute = disputeIdToDispute[disputeID];\n    dispute.id = disputeID;\n    dispute.challenger = msg.sender;\n    dispute.shop = _shopAddress;\n    dispute.disputeType = _metaEvidenceId;\n    dispute.ruling = RulingOptions.NoRuling;\n    dispute.status = Arbitrator.DisputeStatus.Waiting;\n\n    Shop storage shop = shopAddressToShop[_shopAddress];\n    shop.hasDispute = true; // disputeID could theoretically be zero, so we need this to know if a dispute exists\n    shop.disputeID = disputeID;\n\n    emit Dispute(arbitrator, disputeID, _metaEvidenceId);\n    emit Evidence(arbitrator, disputeID, msg.sender, _evidenceLink);\n\n    uint excessEth = arbitrationCost.sub(msg.value);\n    if (excessEth > 0) msg.sender.transfer(excessEth);\n  }\n\n\n  function appealDispute(address _shopAddress, string _evidenceLink)\n    external\n    payable\n  {\n    require(control.paused() == false, \"contract is paused\");\n    require(users.getUserTier(msg.sender) > 0, \"user not certified\");\n\n    require(bytes(_evidenceLink).length > 0, \"evidence link is empty\");\n\n    Shop storage shop = shopAddressToShop[_shopAddress];\n    require(shop.hasDispute == true, \"shop has no active dispute\");\n\n    ShopDispute storage dispute = disputeIdToDispute[shop.disputeID];\n    require(getDisputeStatus(dispute.id) == Arbitrator.DisputeStatus.Appealable, \"dispute is not appealable\");\n\n    RulingOptions currentRuling = getDisputeRuling(dispute.id);\n    if (currentRuling == RulingOptions.ShopWins) {\n      require(msg.sender == dispute.challenger, \"shop ruled to win, only challenger can appeal\");\n    } else if (currentRuling == RulingOptions.ChallengerWins) {\n      require(msg.sender == dispute.shop, \"challenger ruled to win, only shop can appeal\");\n    } else {\n      require(msg.sender == dispute.challenger, \"no ruling given, only challenger can appeal\");\n    }\n\n    uint appealCost = arbitrator.appealCost(dispute.id, arbitratorExtraData);\n    require(msg.value >= appealCost, \"sent eth is lower than appeal cost\");\n\n    arbitrator.appeal.value(appealCost)(dispute.id, arbitratorExtraData);\n\n    emit Evidence(arbitrator, dispute.id, msg.sender, _evidenceLink);\n\n    uint excessEth = appealCost.sub(msg.value);\n    if (excessEth > 0) msg.sender.transfer(excessEth);\n  }\n\n  function deleteDispute(uint _disputeID)\n    private\n  {\n    // since we have no mapping or array vars in this struct, a 'delete' call will remove the entry\n    delete disputeIdToDispute[_disputeID];\n  }\n\n  function withdrawDth()\n    external\n  {\n    uint dthWithdraw = withdrawableDth[msg.sender];\n    require(dthWithdraw > 0, \"nothing to withdraw\");\n\n    if (dthWithdraw > 0) {\n      withdrawableDth[msg.sender] = 0;\n      dth.transfer(msg.sender, dthWithdraw);\n    }\n  }\n\n  // called by rule() which is called by Kleros Arbitrator contract\n  function executeRuling(uint _disputeID, uint _ruling)\n    private\n  {\n    RulingOptions finalRuling = RulingOptions(_ruling);\n\n    ShopDispute storage dispute = disputeIdToDispute[_disputeID];\n    Shop storage shop = shopAddressToShop[dispute.shop];\n\n    if (finalRuling == RulingOptions.ShopWins) {\n      shop.hasDispute = false;\n      shop.disputeID = 0;\n\n      deleteDispute(_disputeID);\n    } else if (finalRuling == RulingOptions.ChallengerWins) {\n      uint shopStake = shop.staked;\n      address challenger = dispute.challenger;\n\n      deleteShop(dispute.shop);\n      deleteDispute(_disputeID);\n\n      // dispute winner can now withdraw this shops zone dth stake\n      withdrawableDth[challenger] = withdrawableDth[challenger].add(shopStake);\n    } else if (finalRuling == RulingOptions.NoRuling) {\n      shop.hasDispute = false;\n      shop.disputeID = 0;\n\n      deleteDispute(_disputeID);\n    }\n\n    dispute.status = Arbitrator.DisputeStatus.Solved;\n    dispute.ruling = finalRuling;\n  }\n  function rule(uint _disputeID, uint _ruling)\n    public\n    onlyArbitrator\n  {\n    emit Ruling(Arbitrator(msg.sender), _disputeID, _ruling);\n\n    executeRuling(_disputeID,_ruling);\n  }\n}\n",
  "sourcePath": "/Users/trip/Projects/detherContracts/contracts/map/Shops.sol",
  "compiler": {
    "name": "solc",
    "version": "0.4.24+commit.e67f0147.Emscripten.clang"
  },
  "schemaVersion": "2.0.1",
  "updatedAt": "2019-01-31T11:47:11.233Z"
}