{
  "contractName": "Shops",
  "abi": [
    {
      "constant": true,
      "inputs": [],
      "name": "dth",
      "outputs": [
        {
          "name": "",
          "type": "address"
        }
      ],
      "payable": false,
      "stateMutability": "view",
      "type": "function"
    },
    {
      "constant": true,
      "inputs": [],
      "name": "arbitratorExtraData",
      "outputs": [
        {
          "name": "",
          "type": "bytes"
        }
      ],
      "payable": false,
      "stateMutability": "view",
      "type": "function"
    },
    {
      "constant": true,
      "inputs": [
        {
          "name": "",
          "type": "address"
        }
      ],
      "name": "withdrawableDth",
      "outputs": [
        {
          "name": "",
          "type": "uint256"
        }
      ],
      "payable": false,
      "stateMutability": "view",
      "type": "function"
    },
    {
      "constant": true,
      "inputs": [],
      "name": "AMOUNT_OF_CHOICES",
      "outputs": [
        {
          "name": "",
          "type": "uint8"
        }
      ],
      "payable": false,
      "stateMutability": "view",
      "type": "function"
    },
    {
      "constant": true,
      "inputs": [
        {
          "name": "",
          "type": "bytes12"
        }
      ],
      "name": "positionToShopAddress",
      "outputs": [
        {
          "name": "",
          "type": "address"
        }
      ],
      "payable": false,
      "stateMutability": "view",
      "type": "function"
    },
    {
      "constant": true,
      "inputs": [],
      "name": "RULING_OPTIONS",
      "outputs": [
        {
          "name": "",
          "type": "string"
        }
      ],
      "payable": false,
      "stateMutability": "view",
      "type": "function"
    },
    {
      "constant": true,
      "inputs": [],
      "name": "arbitrator",
      "outputs": [
        {
          "name": "",
          "type": "address"
        }
      ],
      "payable": false,
      "stateMutability": "view",
      "type": "function"
    },
    {
      "constant": true,
      "inputs": [
        {
          "name": "",
          "type": "uint256"
        }
      ],
      "name": "disputeTypes",
      "outputs": [
        {
          "name": "",
          "type": "string"
        }
      ],
      "payable": false,
      "stateMutability": "view",
      "type": "function"
    },
    {
      "constant": true,
      "inputs": [
        {
          "name": "",
          "type": "bytes7"
        },
        {
          "name": "",
          "type": "uint256"
        }
      ],
      "name": "zoneToShopAddresses",
      "outputs": [
        {
          "name": "",
          "type": "address"
        }
      ],
      "payable": false,
      "stateMutability": "view",
      "type": "function"
    },
    {
      "constant": true,
      "inputs": [],
      "name": "control",
      "outputs": [
        {
          "name": "",
          "type": "address"
        }
      ],
      "payable": false,
      "stateMutability": "view",
      "type": "function"
    },
    {
      "constant": true,
      "inputs": [],
      "name": "geo",
      "outputs": [
        {
          "name": "",
          "type": "address"
        }
      ],
      "payable": false,
      "stateMutability": "view",
      "type": "function"
    },
    {
      "constant": true,
      "inputs": [],
      "name": "users",
      "outputs": [
        {
          "name": "",
          "type": "address"
        }
      ],
      "payable": false,
      "stateMutability": "view",
      "type": "function"
    },
    {
      "constant": true,
      "inputs": [
        {
          "name": "",
          "type": "bytes2"
        }
      ],
      "name": "countryLicensePrice",
      "outputs": [
        {
          "name": "",
          "type": "uint256"
        }
      ],
      "payable": false,
      "stateMutability": "view",
      "type": "function"
    },
    {
      "inputs": [
        {
          "name": "_dth",
          "type": "address"
        },
        {
          "name": "_geo",
          "type": "address"
        },
        {
          "name": "_users",
          "type": "address"
        },
        {
          "name": "_control",
          "type": "address"
        },
        {
          "name": "_arbitrator",
          "type": "address"
        },
        {
          "name": "_arbitratorExtraData",
          "type": "bytes"
        }
      ],
      "payable": false,
      "stateMutability": "nonpayable",
      "type": "constructor"
    },
    {
      "anonymous": false,
      "inputs": [
        {
          "indexed": true,
          "name": "_metaEvidenceID",
          "type": "uint256"
        },
        {
          "indexed": false,
          "name": "_evidence",
          "type": "string"
        }
      ],
      "name": "MetaEvidence",
      "type": "event"
    },
    {
      "anonymous": false,
      "inputs": [
        {
          "indexed": true,
          "name": "_arbitrator",
          "type": "address"
        },
        {
          "indexed": true,
          "name": "_disputeID",
          "type": "uint256"
        },
        {
          "indexed": false,
          "name": "_metaEvidenceID",
          "type": "uint256"
        }
      ],
      "name": "Dispute",
      "type": "event"
    },
    {
      "anonymous": false,
      "inputs": [
        {
          "indexed": true,
          "name": "_arbitrator",
          "type": "address"
        },
        {
          "indexed": true,
          "name": "_disputeID",
          "type": "uint256"
        },
        {
          "indexed": true,
          "name": "_party",
          "type": "address"
        },
        {
          "indexed": false,
          "name": "_evidence",
          "type": "string"
        }
      ],
      "name": "Evidence",
      "type": "event"
    },
    {
      "anonymous": false,
      "inputs": [
        {
          "indexed": true,
          "name": "_arbitrator",
          "type": "address"
        },
        {
          "indexed": true,
          "name": "_disputeID",
          "type": "uint256"
        },
        {
          "indexed": false,
          "name": "_ruling",
          "type": "uint256"
        }
      ],
      "name": "Ruling",
      "type": "event"
    },
    {
      "constant": true,
      "inputs": [
        {
          "name": "_addr",
          "type": "address"
        }
      ],
      "name": "getShopByAddr",
      "outputs": [
        {
          "name": "",
          "type": "bytes12"
        },
        {
          "name": "",
          "type": "bytes16"
        },
        {
          "name": "",
          "type": "bytes16"
        },
        {
          "name": "",
          "type": "bytes32"
        },
        {
          "name": "",
          "type": "bytes16"
        },
        {
          "name": "",
          "type": "uint256"
        },
        {
          "name": "",
          "type": "bool"
        },
        {
          "name": "",
          "type": "uint256"
        }
      ],
      "payable": false,
      "stateMutability": "view",
      "type": "function"
    },
    {
      "constant": true,
      "inputs": [
        {
          "name": "_position",
          "type": "bytes12"
        }
      ],
      "name": "getShopByPos",
      "outputs": [
        {
          "name": "",
          "type": "bytes12"
        },
        {
          "name": "",
          "type": "bytes16"
        },
        {
          "name": "",
          "type": "bytes16"
        },
        {
          "name": "",
          "type": "bytes32"
        },
        {
          "name": "",
          "type": "bytes16"
        },
        {
          "name": "",
          "type": "uint256"
        },
        {
          "name": "",
          "type": "bool"
        },
        {
          "name": "",
          "type": "uint256"
        }
      ],
      "payable": false,
      "stateMutability": "view",
      "type": "function"
    },
    {
      "constant": true,
      "inputs": [
        {
          "name": "_zoneGeohash",
          "type": "bytes7"
        }
      ],
      "name": "getShopAddressesInZone",
      "outputs": [
        {
          "name": "",
          "type": "address[]"
        }
      ],
      "payable": false,
      "stateMutability": "view",
      "type": "function"
    },
    {
      "constant": true,
      "inputs": [
        {
          "name": "shopAddress",
          "type": "address"
        }
      ],
      "name": "shopByAddrExists",
      "outputs": [
        {
          "name": "",
          "type": "bool"
        }
      ],
      "payable": false,
      "stateMutability": "view",
      "type": "function"
    },
    {
      "constant": false,
      "inputs": [
        {
          "name": "_countryCode",
          "type": "bytes2"
        },
        {
          "name": "_priceDTH",
          "type": "uint256"
        }
      ],
      "name": "setCountryLicensePrice",
      "outputs": [],
      "payable": false,
      "stateMutability": "nonpayable",
      "type": "function"
    },
    {
      "constant": false,
      "inputs": [
        {
          "name": "_from",
          "type": "address"
        },
        {
          "name": "_value",
          "type": "uint256"
        },
        {
          "name": "_data",
          "type": "bytes"
        }
      ],
      "name": "tokenFallback",
      "outputs": [],
      "payable": false,
      "stateMutability": "nonpayable",
      "type": "function"
    },
    {
      "constant": false,
      "inputs": [],
      "name": "removeShop",
      "outputs": [],
      "payable": false,
      "stateMutability": "nonpayable",
      "type": "function"
    },
    {
      "constant": false,
      "inputs": [
        {
          "name": "_disputeTypeLink",
          "type": "string"
        }
      ],
      "name": "addDisputeType",
      "outputs": [],
      "payable": false,
      "stateMutability": "nonpayable",
      "type": "function"
    },
    {
      "constant": true,
      "inputs": [],
      "name": "getDisputeCreateCost",
      "outputs": [
        {
          "name": "",
          "type": "uint256"
        }
      ],
      "payable": false,
      "stateMutability": "view",
      "type": "function"
    },
    {
      "constant": true,
      "inputs": [
        {
          "name": "_shopAddress",
          "type": "address"
        }
      ],
      "name": "getDisputeAppealCost",
      "outputs": [
        {
          "name": "",
          "type": "uint256"
        }
      ],
      "payable": false,
      "stateMutability": "view",
      "type": "function"
    },
    {
      "constant": true,
      "inputs": [
        {
          "name": "_shopAddress",
          "type": "address"
        }
      ],
      "name": "getDispute",
      "outputs": [
        {
          "name": "",
          "type": "uint256"
        },
        {
          "name": "",
          "type": "address"
        },
        {
          "name": "",
          "type": "address"
        },
        {
          "name": "",
          "type": "uint256"
        },
        {
          "name": "",
          "type": "uint256"
        },
        {
          "name": "",
          "type": "uint256"
        }
      ],
      "payable": false,
      "stateMutability": "view",
      "type": "function"
    },
    {
      "constant": false,
      "inputs": [
        {
          "name": "_shopAddress",
          "type": "address"
        },
        {
          "name": "_metaEvidenceId",
          "type": "uint256"
        },
        {
          "name": "_evidenceLink",
          "type": "string"
        }
      ],
      "name": "createDispute",
      "outputs": [],
      "payable": true,
      "stateMutability": "payable",
      "type": "function"
    },
    {
      "constant": false,
      "inputs": [
        {
          "name": "_shopAddress",
          "type": "address"
        },
        {
          "name": "_evidenceLink",
          "type": "string"
        }
      ],
      "name": "appealDispute",
      "outputs": [],
      "payable": true,
      "stateMutability": "payable",
      "type": "function"
    },
    {
      "constant": false,
      "inputs": [],
      "name": "withdrawDth",
      "outputs": [],
      "payable": false,
      "stateMutability": "nonpayable",
      "type": "function"
    },
    {
      "constant": false,
      "inputs": [
        {
          "name": "_disputeID",
          "type": "uint256"
        },
        {
          "name": "_ruling",
          "type": "uint256"
        }
      ],
      "name": "rule",
      "outputs": [],
      "payable": false,
      "stateMutability": "nonpayable",
      "type": "function"
    }
  ],
  "bytecode": "0x60806040523480156200001157600080fd5b5060405162006ae338038062006ae3833981018060405260c08110156200003757600080fd5b81019080805190602001909291908051906020019092919080519060200190929190805190602001909291908051906020019092919080516401000000008111156200008257600080fd5b828101905060208101848111156200009957600080fd5b8151856001820283011164010000000082111715620000b757600080fd5b5050929190505050600073ffffffffffffffffffffffffffffffffffffffff168673ffffffffffffffffffffffffffffffffffffffff161415151562000165576040517f08c379a00000000000000000000000000000000000000000000000000000000081526004018080602001828103825260198152602001807f64746820616464726573732063616e6e6f74206265203078300000000000000081525060200191505060405180910390fd5b600073ffffffffffffffffffffffffffffffffffffffff168573ffffffffffffffffffffffffffffffffffffffff16141515156200020b576040517f08c379a00000000000000000000000000000000000000000000000000000000081526004018080602001828103825260198152602001807f67656f20616464726573732063616e6e6f74206265203078300000000000000081525060200191505060405180910390fd5b600073ffffffffffffffffffffffffffffffffffffffff168473ffffffffffffffffffffffffffffffffffffffff1614151515620002b1576040517f08c379a000000000000000000000000000000000000000000000000000000000815260040180806020018281038252601b8152602001807f757365727320616464726573732063616e6e6f7420626520307830000000000081525060200191505060405180910390fd5b600073ffffffffffffffffffffffffffffffffffffffff168373ffffffffffffffffffffffffffffffffffffffff161415151562000357576040517f08c379a000000000000000000000000000000000000000000000000000000000815260040180806020018281038252601d8152602001807f636f6e74726f6c20616464726573732063616e6e6f742062652030783000000081525060200191505060405180910390fd5b600073ffffffffffffffffffffffffffffffffffffffff168273ffffffffffffffffffffffffffffffffffffffff1614151515620003fd576040517f08c379a00000000000000000000000000000000000000000000000000000000081526004018080602001828103825260188152602001807f61726269747261746f722063616e6e6f7420626520307830000000000000000081525060200191505060405180910390fd5b856000806101000a81548173ffffffffffffffffffffffffffffffffffffffff021916908373ffffffffffffffffffffffffffffffffffffffff16021790555084600160006101000a81548173ffffffffffffffffffffffffffffffffffffffff021916908373ffffffffffffffffffffffffffffffffffffffff16021790555083600260006101000a81548173ffffffffffffffffffffffffffffffffffffffff021916908373ffffffffffffffffffffffffffffffffffffffff16021790555082600360006101000a81548173ffffffffffffffffffffffffffffffffffffffff021916908373ffffffffffffffffffffffffffffffffffffffff16021790555081600460006101000a81548173ffffffffffffffffffffffffffffffffffffffff021916908373ffffffffffffffffffffffffffffffffffffffff16021790555080600590805190602001906200055992919062000566565b5050505050505062000615565b828054600181600116156101000203166002900490600052602060002090601f016020900481019282601f10620005a957805160ff1916838001178555620005da565b82800160010185558215620005da579182015b82811115620005d9578251825591602001919060010190620005bc565b5b509050620005e99190620005ed565b5090565b6200061291905b808211156200060e576000816000905550600101620005f4565b5090565b90565b6164be80620006256000396000f3fe6080604052600436106101d4576000357c01000000000000000000000000000000000000000000000000000000009004806373912aac11610109578063c0ee0b8a116100a7578063d8de658711610081578063d8de658714610eed578063d944e6a314610f44578063f202027514610f9b578063fb13ed3414610ff2576101d4565b8063c0ee0b8a14610d7e578063c10f748914610e70578063c732ff3e14610ed6576101d4565b8063acae1350116100e3578063acae135014610b6d578063b5c84a5514610c0e578063b9abe7a314610cba578063bc75b21414610d53576101d4565b806373912aac14610a675780637eb0c94814610a7e57806386caeae814610b04576101d4565b8063311a6c561161017657806358404864116101505780635840486414610792578063626c47e8146108cc5780636cc6cde11461095c57806371e884a0146109b3576101d4565b8063311a6c56146105db578063335552de146106205780633b23d6cd14610700576101d4565b80631660cfdc116101b25780631660cfdc146103fb5780631ea84414146104e05780632c2f3d13146105455780632e0b6422146105aa576101d4565b806301e57a37146101d95780630c7ac7b6146102305780630ea52eae146102c0575b600080fd5b3480156101e557600080fd5b506101ee611062565b604051808273ffffffffffffffffffffffffffffffffffffffff1673ffffffffffffffffffffffffffffffffffffffff16815260200191505060405180910390f35b34801561023c57600080fd5b50610245611087565b6040518080602001828103825283818151815260200191508051906020019080838360005b8381101561028557808201518184015260208101905061026a565b50505050905090810190601f1680156102b25780820380516001836020036101000a031916815260200191505b509250505060405180910390f35b3480156102cc57600080fd5b50610310600480360360208110156102e357600080fd5b81019080803573ffffffffffffffffffffffffffffffffffffffff19169060200190929190505050611125565b604051808973ffffffffffffffffffffffffffffffffffffffff191673ffffffffffffffffffffffffffffffffffffffff19168152602001886fffffffffffffffffffffffffffffffff19166fffffffffffffffffffffffffffffffff19168152602001876fffffffffffffffffffffffffffffffff19166fffffffffffffffffffffffffffffffff19168152602001868152602001856fffffffffffffffffffffffffffffffff19166fffffffffffffffffffffffffffffffff19168152602001848152602001831515151581526020018281526020019850505050505050505060405180910390f35b6104de6004803603606081101561041157600080fd5b81019080803573ffffffffffffffffffffffffffffffffffffffff169060200190929190803590602001909291908035906020019064010000000081111561045857600080fd5b82018360208201111561046a57600080fd5b8035906020019184600183028401116401000000008311171561048c57600080fd5b91908080601f016020809104026020016040519081016040528093929190818152602001838380828437600081840152601f19601f8201169050808301925050505050505091929192905050506111bc565b005b3480156104ec57600080fd5b5061052f6004803603602081101561050357600080fd5b81019080803573ffffffffffffffffffffffffffffffffffffffff169060200190929190505050611c4c565b6040518082815260200191505060405180910390f35b34801561055157600080fd5b506105946004803603602081101561056857600080fd5b81019080803573ffffffffffffffffffffffffffffffffffffffff169060200190929190505050611fd6565b6040518082815260200191505060405180910390f35b3480156105b657600080fd5b506105bf611fee565b604051808260ff1660ff16815260200191505060405180910390f35b3480156105e757600080fd5b5061061e600480360360408110156105fe57600080fd5b810190808035906020019092919080359060200190929190505050611ff3565b005b34801561062c57600080fd5b5061066f6004803603602081101561064357600080fd5b81019080803573ffffffffffffffffffffffffffffffffffffffff1690602001909291905050506120f8565b604051808781526020018673ffffffffffffffffffffffffffffffffffffffff1673ffffffffffffffffffffffffffffffffffffffff1681526020018573ffffffffffffffffffffffffffffffffffffffff1673ffffffffffffffffffffffffffffffffffffffff168152602001848152602001838152602001828152602001965050505050505060405180910390f35b34801561070c57600080fd5b506107506004803603602081101561072357600080fd5b81019080803573ffffffffffffffffffffffffffffffffffffffff191690602001909291905050506124c5565b604051808273ffffffffffffffffffffffffffffffffffffffff1673ffffffffffffffffffffffffffffffffffffffff16815260200191505060405180910390f35b34801561079e57600080fd5b506107e1600480360360208110156107b557600080fd5b81019080803573ffffffffffffffffffffffffffffffffffffffff1690602001909291905050506124f8565b604051808973ffffffffffffffffffffffffffffffffffffffff191673ffffffffffffffffffffffffffffffffffffffff19168152602001886fffffffffffffffffffffffffffffffff19166fffffffffffffffffffffffffffffffff19168152602001876fffffffffffffffffffffffffffffffff19166fffffffffffffffffffffffffffffffff19168152602001868152602001856fffffffffffffffffffffffffffffffff19166fffffffffffffffffffffffffffffffff19168152602001848152602001831515151581526020018281526020019850505050505050505060405180910390f35b3480156108d857600080fd5b506108e1612717565b6040518080602001828103825283818151815260200191508051906020019080838360005b83811015610921578082015181840152602081019050610906565b50505050905090810190601f16801561094e5780820380516001836020036101000a031916815260200191505b509250505060405180910390f35b34801561096857600080fd5b50610971612750565b604051808273ffffffffffffffffffffffffffffffffffffffff1673ffffffffffffffffffffffffffffffffffffffff16815260200191505060405180910390f35b3480156109bf57600080fd5b506109ec600480360360208110156109d657600080fd5b8101908080359060200190929190505050612776565b6040518080602001828103825283818151815260200191508051906020019080838360005b83811015610a2c578082015181840152602081019050610a11565b50505050905090810190601f168015610a595780820380516001836020036101000a031916815260200191505b509250505060405180910390f35b348015610a7357600080fd5b50610a7c612831565b005b348015610a8a57600080fd5b50610b0260048036036020811015610aa157600080fd5b8101908080359060200190640100000000811115610abe57600080fd5b820183602082011115610ad057600080fd5b80359060200191846001830284011164010000000083111715610af257600080fd5b9091929391929390505050612dfc565b005b348015610b1057600080fd5b50610b5360048036036020811015610b2757600080fd5b81019080803573ffffffffffffffffffffffffffffffffffffffff169060200190929190505050613092565b604051808215151515815260200191505060405180910390f35b348015610b7957600080fd5b50610bcc60048036036040811015610b9057600080fd5b81019080803578ffffffffffffffffffffffffffffffffffffffffffffffffff1916906020019092919080359060200190929190505050613147565b604051808273ffffffffffffffffffffffffffffffffffffffff1673ffffffffffffffffffffffffffffffffffffffff16815260200191505060405180910390f35b348015610c1a57600080fd5b50610c6360048036036020811015610c3157600080fd5b81019080803578ffffffffffffffffffffffffffffffffffffffffffffffffff19169060200190929190505050613194565b6040518080602001828103825283818151815260200191508051906020019060200280838360005b83811015610ca6578082015181840152602081019050610c8b565b505050509050019250505060405180910390f35b610d5160048036036040811015610cd057600080fd5b81019080803573ffffffffffffffffffffffffffffffffffffffff16906020019092919080359060200190640100000000811115610d0d57600080fd5b820183602082011115610d1f57600080fd5b80359060200191846001830284011164010000000083111715610d4157600080fd5b909192939192939050505061326d565b005b348015610d5f57600080fd5b50610d68613d89565b6040518082815260200191505060405180910390f35b348015610d8a57600080fd5b50610e6e60048036036060811015610da157600080fd5b81019080803573ffffffffffffffffffffffffffffffffffffffff1690602001909291908035906020019092919080359060200190640100000000811115610de857600080fd5b820183602082011115610dfa57600080fd5b80359060200191846001830284011164010000000083111715610e1c57600080fd5b91908080601f016020809104026020016040519081016040528093929190818152602001838380828437600081840152601f19601f820116905080830192505050505050509192919290505050613ee0565b005b348015610e7c57600080fd5b50610ed460048036036040811015610e9357600080fd5b8101908080357dffffffffffffffffffffffffffffffffffffffffffffffffffffffffffff1916906020019092919080359060200190929190505050614df7565b005b348015610ee257600080fd5b50610eeb614fbf565b005b348015610ef957600080fd5b50610f026151cd565b604051808273ffffffffffffffffffffffffffffffffffffffff1673ffffffffffffffffffffffffffffffffffffffff16815260200191505060405180910390f35b348015610f5057600080fd5b50610f596151f3565b604051808273ffffffffffffffffffffffffffffffffffffffff1673ffffffffffffffffffffffffffffffffffffffff16815260200191505060405180910390f35b348015610fa757600080fd5b50610fb0615219565b604051808273ffffffffffffffffffffffffffffffffffffffff1673ffffffffffffffffffffffffffffffffffffffff16815260200191505060405180910390f35b348015610ffe57600080fd5b5061104c6004803603602081101561101557600080fd5b8101908080357dffffffffffffffffffffffffffffffffffffffffffffffffffffffffffff1916906020019092919050505061523f565b6040518082815260200191505060405180910390f35b6000809054906101000a900473ffffffffffffffffffffffffffffffffffffffff1681565b60058054600181600116156101000203166002900480601f01602080910402602001604051908101604052809291908181526020018280546001816001161561010002031660029004801561111d5780601f106110f25761010080835404028352916020019161111d565b820191906000526020600020905b81548152906001019060200180831161110057829003601f168201915b505050505081565b6000806000806000806000806000600860008b73ffffffffffffffffffffffffffffffffffffffff191673ffffffffffffffffffffffffffffffffffffffff1916815260200190815260200160002060009054906101000a900473ffffffffffffffffffffffffffffffffffffffff1690506111a0816124f8565b9850985098509850985098509850985050919395975091939597565b60001515600360009054906101000a900473ffffffffffffffffffffffffffffffffffffffff1673ffffffffffffffffffffffffffffffffffffffff16635c975abb6040518163ffffffff167c0100000000000000000000000000000000000000000000000000000000028152600401602060405180830381600087803b15801561124657600080fd5b505af115801561125a573d6000803e3d6000fd5b505050506040513d602081101561127057600080fd5b810190808051906020019092919050505015151415156112f8576040517f08c379a00000000000000000000000000000000000000000000000000000000081526004018080602001828103825260128152602001807f636f6e747261637420697320706175736564000000000000000000000000000081525060200191505060405180910390fd5b6000600260009054906101000a900473ffffffffffffffffffffffffffffffffffffffff1673ffffffffffffffffffffffffffffffffffffffff1663e4d2620e336040518263ffffffff167c0100000000000000000000000000000000000000000000000000000000028152600401808273ffffffffffffffffffffffffffffffffffffffff1673ffffffffffffffffffffffffffffffffffffffff16815260200191505060206040518083038186803b1580156113b557600080fd5b505afa1580156113c9573d6000803e3d6000fd5b505050506040513d60208110156113df57600080fd5b8101908080519060200190929190505050111515611465576040517f08c379a00000000000000000000000000000000000000000000000000000000081526004018080602001828103825260128152602001807f75736572206e6f7420636572746966696564000000000000000000000000000081525060200191505060405180910390fd5b600680549050821015156114e1576040517f08c379a000000000000000000000000000000000000000000000000000000000815260040180806020018281038252601b8152602001807f64697370757465207479706520646f6573206e6f74206578697374000000000081525060200191505060405180910390fd5b6000815111151561155a576040517f08c379a00000000000000000000000000000000000000000000000000000000081526004018080602001828103825260168152602001807f65766964656e6365206c696e6b20697320656d7074790000000000000000000081525060200191505060405180910390fd5b600073ffffffffffffffffffffffffffffffffffffffff168373ffffffffffffffffffffffffffffffffffffffff16141515156115ff576040517f08c379a00000000000000000000000000000000000000000000000000000000081526004018080602001828103825260138152602001807f73686f7020646f6573206e6f742065786973740000000000000000000000000081525060200191505060405180910390fd5b8273ffffffffffffffffffffffffffffffffffffffff163373ffffffffffffffffffffffffffffffffffffffff1614151515611686576040517f08c379a000000000000000000000000000000000000000000000000000000000815260040180806020018281038252602b815260200180616379602b913960400191505060405180910390fd5b60001515600b60008573ffffffffffffffffffffffffffffffffffffffff1673ffffffffffffffffffffffffffffffffffffffff16815260200190815260200160002060050160009054906101000a900460ff161515141515611751576040517f08c379a000000000000000000000000000000000000000000000000000000000815260040180806020018281038252601a8152602001807f73686f7020616c7265616479206861732061206469737075746500000000000081525060200191505060405180910390fd5b600061175b613d89565b90508034101515156117b8576040517f08c379a00000000000000000000000000000000000000000000000000000000081526004018080602001828103825260278152602001806163a46027913960400191505060405180910390fd5b6000600460009054906101000a900473ffffffffffffffffffffffffffffffffffffffff1673ffffffffffffffffffffffffffffffffffffffff1663c13517e183600260056040518463ffffffff167c0100000000000000000000000000000000000000000000000000000000028152600401808360ff168152602001806020018281038252838181546001816001161561010002031660029004815260200191508054600181600116156101000203166002900480156118ba5780601f1061188f576101008083540402835291602001916118ba565b820191906000526020600020905b81548152906001019060200180831161189d57829003601f168201915b505093505050506020604051808303818588803b1580156118da57600080fd5b505af11580156118ee573d6000803e3d6000fd5b50505050506040513d602081101561190557600080fd5b810190808051906020019092919050505090506000600c60008381526020019081526020016000209050818160000181905550338160020160006101000a81548173ffffffffffffffffffffffffffffffffffffffff021916908373ffffffffffffffffffffffffffffffffffffffff160217905550858160010160006101000a81548173ffffffffffffffffffffffffffffffffffffffff021916908373ffffffffffffffffffffffffffffffffffffffff16021790555084816003018190555060008160040160006101000a81548160ff021916908360028111156119e857fe5b021790555060008160040160016101000a81548160ff02191690836002811115611a0e57fe5b02179055506000600b60008873ffffffffffffffffffffffffffffffffffffffff1673ffffffffffffffffffffffffffffffffffffffff168152602001908152602001600020905060018160050160006101000a81548160ff02191690831515021790555082816006018190555082600460009054906101000a900473ffffffffffffffffffffffffffffffffffffffff1673ffffffffffffffffffffffffffffffffffffffff167fc21357d76c2ee05713ed6e2edb9a5f60ab1e8748c56201385df30007f774f58d886040518082815260200191505060405180910390a33373ffffffffffffffffffffffffffffffffffffffff1683600460009054906101000a900473ffffffffffffffffffffffffffffffffffffffff1673ffffffffffffffffffffffffffffffffffffffff167fdccf2f8b2cc26eafcd61905cba744cff4b81d14740725f6376390dc6298a6a3c886040518080602001828103825283818151815260200191508051906020019080838360005b83811015611ba0578082015181840152602081019050611b85565b50505050905090810190601f168015611bcd5780820380516001836020036101000a031916815260200191505b509250505060405180910390a46000611bef348661525790919063ffffffff16565b90506000811115611c42573373ffffffffffffffffffffffffffffffffffffffff166108fc829081150290604051600060405180830381858888f19350505050158015611c40573d6000803e3d6000fd5b505b5050505050505050565b600080740100000000000000000000000000000000000000000273ffffffffffffffffffffffffffffffffffffffff1916600b60008473ffffffffffffffffffffffffffffffffffffffff1673ffffffffffffffffffffffffffffffffffffffff16815260200190815260200160002060000160009054906101000a9004740100000000000000000000000000000000000000000273ffffffffffffffffffffffffffffffffffffffff191614151515611d6e576040517f08c379a00000000000000000000000000000000000000000000000000000000081526004018080602001828103825260138152602001807f73686f7020646f6573206e6f742065786973740000000000000000000000000081525060200191505060405180910390fd5b600b60008373ffffffffffffffffffffffffffffffffffffffff1673ffffffffffffffffffffffffffffffffffffffff16815260200190815260200160002060050160009054906101000a900460ff161515611e32576040517f08c379a00000000000000000000000000000000000000000000000000000000081526004018080602001828103825260138152602001807f73686f7020686173206e6f20646973707574650000000000000000000000000081525060200191505060405180910390fd5b6000600460009054906101000a900473ffffffffffffffffffffffffffffffffffffffff1673ffffffffffffffffffffffffffffffffffffffff1663f23f16e6600b60008673ffffffffffffffffffffffffffffffffffffffff1673ffffffffffffffffffffffffffffffffffffffff1681526020019081526020016000206006015460056040518363ffffffff167c01000000000000000000000000000000000000000000000000000000000281526004018083815260200180602001828103825283818154600181600116156101000203166002900481526020019150805460018160011615610100020316600290048015611f715780601f10611f4657610100808354040283529160200191611f71565b820191906000526020600020905b815481529060010190602001808311611f5457829003601f168201915b5050935050505060206040518083038186803b158015611f9057600080fd5b505afa158015611fa4573d6000803e3d6000fd5b505050506040513d6020811015611fba57600080fd5b8101908080519060200190929190505050905080915050919050565b600a6020528060005260406000206000915090505481565b600281565b600460009054906101000a900473ffffffffffffffffffffffffffffffffffffffff1673ffffffffffffffffffffffffffffffffffffffff163373ffffffffffffffffffffffffffffffffffffffff1614151561209b576040517f08c379a00000000000000000000000000000000000000000000000000000000081526004018080602001828103825260258152602001806163cb6025913960400191505060405180910390fd5b813373ffffffffffffffffffffffffffffffffffffffff167f394027a5fa6e098a1191094d1719d6929b9abc535fcc0c8f448d6a4e75622276836040518082815260200191505060405180910390a36120f48282615279565b5050565b6000806000806000806000740100000000000000000000000000000000000000000273ffffffffffffffffffffffffffffffffffffffff1916600b60008973ffffffffffffffffffffffffffffffffffffffff1673ffffffffffffffffffffffffffffffffffffffff16815260200190815260200160002060000160009054906101000a9004740100000000000000000000000000000000000000000273ffffffffffffffffffffffffffffffffffffffff191614151515612222576040517f08c379a00000000000000000000000000000000000000000000000000000000081526004018080602001828103825260138152602001807f73686f7020646f6573206e6f742065786973740000000000000000000000000081525060200191505060405180910390fd5b600b60008873ffffffffffffffffffffffffffffffffffffffff1673ffffffffffffffffffffffffffffffffffffffff16815260200190815260200160002060050160009054906101000a900460ff1615156122e6576040517f08c379a00000000000000000000000000000000000000000000000000000000081526004018080602001828103825260138152602001807f73686f7020686173206e6f20646973707574650000000000000000000000000081525060200191505060405180910390fd5b6122ee6160d1565b600c6000600b60008b73ffffffffffffffffffffffffffffffffffffffff1673ffffffffffffffffffffffffffffffffffffffff16815260200190815260200160002060060154815260200190815260200160002060c06040519081016040529081600082015481526020016001820160009054906101000a900473ffffffffffffffffffffffffffffffffffffffff1673ffffffffffffffffffffffffffffffffffffffff1673ffffffffffffffffffffffffffffffffffffffff1681526020016002820160009054906101000a900473ffffffffffffffffffffffffffffffffffffffff1673ffffffffffffffffffffffffffffffffffffffff1673ffffffffffffffffffffffffffffffffffffffff168152602001600382015481526020016004820160009054906101000a900460ff16600281111561242d57fe5b600281111561243857fe5b81526020016004820160019054906101000a900460ff16600281111561245a57fe5b600281111561246557fe5b815250509050806000015181602001518260400151836060015161248c8560000151615521565b600281111561249757fe5b6124a48660000151615772565b60028111156124af57fe5b9650965096509650965096505091939550919395565b60086020528060005260406000206000915054906101000a900473ffffffffffffffffffffffffffffffffffffffff1681565b60008060008060008060008061250c61614a565b600b60008b73ffffffffffffffffffffffffffffffffffffffff1673ffffffffffffffffffffffffffffffffffffffff16815260200190815260200160002061010060405190810160405290816000820160009054906101000a9004740100000000000000000000000000000000000000000273ffffffffffffffffffffffffffffffffffffffff191673ffffffffffffffffffffffffffffffffffffffff1916815260200160008201600c9054906101000a9004700100000000000000000000000000000000026fffffffffffffffffffffffffffffffff19166fffffffffffffffffffffffffffffffff191681526020016001820160009054906101000a9004700100000000000000000000000000000000026fffffffffffffffffffffffffffffffff19166fffffffffffffffffffffffffffffffff19168152602001600282015481526020016003820160009054906101000a9004700100000000000000000000000000000000026fffffffffffffffffffffffffffffffff19166fffffffffffffffffffffffffffffffff19168152602001600482015481526020016005820160009054906101000a900460ff161515151581526020016006820154815250509050806000015181602001518260400151836060015184608001518560a001518660c001518760e001519850985098509850985098509850985050919395975091939597565b6040805190810160405280601981526020017f53686f702077696e733b4368616c6c656e6765722077696e730000000000000081525081565b600460009054906101000a900473ffffffffffffffffffffffffffffffffffffffff1681565b60068181548110151561278557fe5b906000526020600020016000915090508054600181600116156101000203166002900480601f0160208091040260200160405190810160405280929190818152602001828054600181600116156101000203166002900480156128295780601f106127fe57610100808354040283529160200191612829565b820191906000526020600020905b81548152906001019060200180831161280c57829003601f168201915b505050505081565b60001515600360009054906101000a900473ffffffffffffffffffffffffffffffffffffffff1673ffffffffffffffffffffffffffffffffffffffff16635c975abb6040518163ffffffff167c0100000000000000000000000000000000000000000000000000000000028152600401602060405180830381600087803b1580156128bb57600080fd5b505af11580156128cf573d6000803e3d6000fd5b505050506040513d60208110156128e557600080fd5b8101908080519060200190929190505050151514151561296d576040517f08c379a00000000000000000000000000000000000000000000000000000000081526004018080602001828103825260128152602001807f636f6e747261637420697320706175736564000000000000000000000000000081525060200191505060405180910390fd5b6000600260009054906101000a900473ffffffffffffffffffffffffffffffffffffffff1673ffffffffffffffffffffffffffffffffffffffff1663e4d2620e336040518263ffffffff167c0100000000000000000000000000000000000000000000000000000000028152600401808273ffffffffffffffffffffffffffffffffffffffff1673ffffffffffffffffffffffffffffffffffffffff16815260200191505060206040518083038186803b158015612a2a57600080fd5b505afa158015612a3e573d6000803e3d6000fd5b505050506040513d6020811015612a5457600080fd5b8101908080519060200190929190505050111515612ada576040517f08c379a00000000000000000000000000000000000000000000000000000000081526004018080602001828103825260128152602001807f75736572206e6f7420636572746966696564000000000000000000000000000081525060200191505060405180910390fd5b6000740100000000000000000000000000000000000000000273ffffffffffffffffffffffffffffffffffffffff1916600b60003373ffffffffffffffffffffffffffffffffffffffff1673ffffffffffffffffffffffffffffffffffffffff16815260200190815260200160002060000160009054906101000a9004740100000000000000000000000000000000000000000273ffffffffffffffffffffffffffffffffffffffff191614151515612bfb576040517f08c379a00000000000000000000000000000000000000000000000000000000081526004018080602001828103825260188152602001807f63616c6c657220646f6573206e6f74206f776e2073686f70000000000000000081525060200191505060405180910390fd5b60001515600b60003373ffffffffffffffffffffffffffffffffffffffff1673ffffffffffffffffffffffffffffffffffffffff16815260200190815260200160002060050160009054906101000a900460ff161515141515612ca9576040517f08c379a00000000000000000000000000000000000000000000000000000000081526004018080602001828103825260238152602001806164436023913960400191505060405180910390fd5b6000600b60003373ffffffffffffffffffffffffffffffffffffffff1673ffffffffffffffffffffffffffffffffffffffff168152602001908152602001600020600401549050612cf9336159b8565b6000809054906101000a900473ffffffffffffffffffffffffffffffffffffffff1673ffffffffffffffffffffffffffffffffffffffff1663a9059cbb33836040518363ffffffff167c0100000000000000000000000000000000000000000000000000000000028152600401808373ffffffffffffffffffffffffffffffffffffffff1673ffffffffffffffffffffffffffffffffffffffff16815260200182815260200192505050602060405180830381600087803b158015612dbd57600080fd5b505af1158015612dd1573d6000803e3d6000fd5b505050506040513d6020811015612de757600080fd5b81019080805190602001909291905050505050565b600360009054906101000a900473ffffffffffffffffffffffffffffffffffffffff1673ffffffffffffffffffffffffffffffffffffffff16638900bd22336040518263ffffffff167c0100000000000000000000000000000000000000000000000000000000028152600401808273ffffffffffffffffffffffffffffffffffffffff1673ffffffffffffffffffffffffffffffffffffffff16815260200191505060206040518083038186803b158015612eb757600080fd5b505afa158015612ecb573d6000803e3d6000fd5b505050506040513d6020811015612ee157600080fd5b81019080805190602001909291905050501515612f66576040517f08c379a00000000000000000000000000000000000000000000000000000000081526004018080602001828103825260198152602001807f63616e206f6e6c792062652063616c6c65642062792043454f0000000000000081525060200191505060405180910390fd5b600082829050111515612fe1576040517f08c379a000000000000000000000000000000000000000000000000000000000815260040180806020018281038252601a8152602001807f646973707574652074797065206c696e6b20697320656d70747900000000000081525060200191505060405180910390fd5b6000600160068484909180600181540180825580915050906001820390600052602060002001600090919293909192939091929091925091906130259291906161e5565b50039050807f61606860eb6c87306811e2695215385101daab53bd6ab4e9f9049aead9363c7d848460405180806020018281038252848482818152602001925080828437600081840152601f19601f820116905080830192505050935050505060405180910390a2505050565b600080740100000000000000000000000000000000000000000273ffffffffffffffffffffffffffffffffffffffff1916600b60008473ffffffffffffffffffffffffffffffffffffffff1673ffffffffffffffffffffffffffffffffffffffff16815260200190815260200160002060000160009054906101000a9004740100000000000000000000000000000000000000000273ffffffffffffffffffffffffffffffffffffffff191614159050919050565b60096020528160005260406000208181548110151561316257fe5b906000526020600020016000915091509054906101000a900473ffffffffffffffffffffffffffffffffffffffff1681565b6060600960008378ffffffffffffffffffffffffffffffffffffffffffffffffff191678ffffffffffffffffffffffffffffffffffffffffffffffffff1916815260200190815260200160002080548060200260200160405190810160405280929190818152602001828054801561326157602002820191906000526020600020905b8160009054906101000a900473ffffffffffffffffffffffffffffffffffffffff1673ffffffffffffffffffffffffffffffffffffffff1681526020019060010190808311613217575b50505050509050919050565b60001515600360009054906101000a900473ffffffffffffffffffffffffffffffffffffffff1673ffffffffffffffffffffffffffffffffffffffff16635c975abb6040518163ffffffff167c0100000000000000000000000000000000000000000000000000000000028152600401602060405180830381600087803b1580156132f757600080fd5b505af115801561330b573d6000803e3d6000fd5b505050506040513d602081101561332157600080fd5b810190808051906020019092919050505015151415156133a9576040517f08c379a00000000000000000000000000000000000000000000000000000000081526004018080602001828103825260128152602001807f636f6e747261637420697320706175736564000000000000000000000000000081525060200191505060405180910390fd5b6000600260009054906101000a900473ffffffffffffffffffffffffffffffffffffffff1673ffffffffffffffffffffffffffffffffffffffff1663e4d2620e336040518263ffffffff167c0100000000000000000000000000000000000000000000000000000000028152600401808273ffffffffffffffffffffffffffffffffffffffff1673ffffffffffffffffffffffffffffffffffffffff16815260200191505060206040518083038186803b15801561346657600080fd5b505afa15801561347a573d6000803e3d6000fd5b505050506040513d602081101561349057600080fd5b8101908080519060200190929190505050111515613516576040517f08c379a00000000000000000000000000000000000000000000000000000000081526004018080602001828103825260128152602001807f75736572206e6f7420636572746966696564000000000000000000000000000081525060200191505060405180910390fd5b600082829050111515613591576040517f08c379a00000000000000000000000000000000000000000000000000000000081526004018080602001828103825260168152602001807f65766964656e6365206c696e6b20697320656d7074790000000000000000000081525060200191505060405180910390fd5b6000600b60008573ffffffffffffffffffffffffffffffffffffffff1673ffffffffffffffffffffffffffffffffffffffff1681526020019081526020016000209050600115158160050160009054906101000a900460ff161515141515613661576040517f08c379a000000000000000000000000000000000000000000000000000000000815260040180806020018281038252601a8152602001807f73686f7020686173206e6f20616374697665206469737075746500000000000081525060200191505060405180910390fd5b6000600c60008360060154815260200190815260200160002090506001600281111561368957fe5b6136968260000154615772565b60028111156136a157fe5b141515613716576040517f08c379a00000000000000000000000000000000000000000000000000000000081526004018080602001828103825260198152602001807f64697370757465206973206e6f742061707065616c61626c650000000000000081525060200191505060405180910390fd5b60006137258260000154615521565b90506001600281111561373457fe5b81600281111561374057fe5b14156137f5578160020160009054906101000a900473ffffffffffffffffffffffffffffffffffffffff1673ffffffffffffffffffffffffffffffffffffffff163373ffffffffffffffffffffffffffffffffffffffff161415156137f0576040517f08c379a000000000000000000000000000000000000000000000000000000000815260040180806020018281038252602d8152602001806162dd602d913960400191505060405180910390fd5b61396e565b60028081111561380157fe5b81600281111561380d57fe5b14156138c2578160010160009054906101000a900473ffffffffffffffffffffffffffffffffffffffff1673ffffffffffffffffffffffffffffffffffffffff163373ffffffffffffffffffffffffffffffffffffffff161415156138bd576040517f08c379a000000000000000000000000000000000000000000000000000000000815260040180806020018281038252602d815260200180616466602d913960400191505060405180910390fd5b61396d565b8160020160009054906101000a900473ffffffffffffffffffffffffffffffffffffffff1673ffffffffffffffffffffffffffffffffffffffff163373ffffffffffffffffffffffffffffffffffffffff1614151561396c576040517f08c379a000000000000000000000000000000000000000000000000000000000815260040180806020018281038252602b8152602001806163f0602b913960400191505060405180910390fd5b5b5b6000600460009054906101000a900473ffffffffffffffffffffffffffffffffffffffff1673ffffffffffffffffffffffffffffffffffffffff1663f23f16e6846000015460056040518363ffffffff167c01000000000000000000000000000000000000000000000000000000000281526004018083815260200180602001828103825283818154600181600116156101000203166002900481526020019150805460018160011615610100020316600290048015613a6f5780601f10613a4457610100808354040283529160200191613a6f565b820191906000526020600020905b815481529060010190602001808311613a5257829003601f168201915b5050935050505060206040518083038186803b158015613a8e57600080fd5b505afa158015613aa2573d6000803e3d6000fd5b505050506040513d6020811015613ab857600080fd5b81019080805190602001909291905050509050803410151515613b26576040517f08c379a00000000000000000000000000000000000000000000000000000000081526004018080602001828103825260228152602001806163356022913960400191505060405180910390fd5b600460009054906101000a900473ffffffffffffffffffffffffffffffffffffffff1673ffffffffffffffffffffffffffffffffffffffff166349912f8882856000015460056040518463ffffffff167c01000000000000000000000000000000000000000000000000000000000281526004018083815260200180602001828103825283818154600181600116156101000203166002900481526020019150805460018160011615610100020316600290048015613c265780601f10613bfb57610100808354040283529160200191613c26565b820191906000526020600020905b815481529060010190602001808311613c0957829003601f168201915b505093505050506000604051808303818588803b158015613c4657600080fd5b505af1158015613c5a573d6000803e3d6000fd5b50505050503373ffffffffffffffffffffffffffffffffffffffff168360000154600460009054906101000a900473ffffffffffffffffffffffffffffffffffffffff1673ffffffffffffffffffffffffffffffffffffffff167fdccf2f8b2cc26eafcd61905cba744cff4b81d14740725f6376390dc6298a6a3c898960405180806020018281038252848482818152602001925080828437600081840152601f19601f820116905080830192505050935050505060405180910390a46000613d2c348361525790919063ffffffff16565b90506000811115613d7f573373ffffffffffffffffffffffffffffffffffffffff166108fc829081150290604051600060405180830381858888f19350505050158015613d7d573d6000803e3d6000fd5b505b5050505050505050565b60006002600460009054906101000a900473ffffffffffffffffffffffffffffffffffffffff1673ffffffffffffffffffffffffffffffffffffffff1663f7434ea960056040518263ffffffff167c01000000000000000000000000000000000000000000000000000000000281526004018080602001828103825283818154600181600116156101000203166002900481526020019150805460018160011615610100020316600290048015613e815780601f10613e5657610100808354040283529160200191613e81565b820191906000526020600020905b815481529060010190602001808311613e6457829003601f168201915b50509250505060206040518083038186803b158015613e9f57600080fd5b505afa158015613eb3573d6000803e3d6000fd5b505050506040513d6020811015613ec957600080fd5b810190808051906020019092919050505002905090565b6000809054906101000a900473ffffffffffffffffffffffffffffffffffffffff1673ffffffffffffffffffffffffffffffffffffffff163373ffffffffffffffffffffffffffffffffffffffff16141515613f87576040517f08c379a00000000000000000000000000000000000000000000000000000000081526004018080602001828103825260228152602001806163576022913960400191505060405180910390fd5b60001515600360009054906101000a900473ffffffffffffffffffffffffffffffffffffffff1673ffffffffffffffffffffffffffffffffffffffff16635c975abb6040518163ffffffff167c0100000000000000000000000000000000000000000000000000000000028152600401602060405180830381600087803b15801561401157600080fd5b505af1158015614025573d6000803e3d6000fd5b505050506040513d602081101561403b57600080fd5b810190808051906020019092919050505015151415156140c3576040517f08c379a00000000000000000000000000000000000000000000000000000000081526004018080602001828103825260128152602001807f636f6e747261637420697320706175736564000000000000000000000000000081525060200191505060405180910390fd5b605f815114151561413c576040517f08c379a00000000000000000000000000000000000000000000000000000000081526004018080602001828103825260208152602001807f61646453686f702065787065637473203935206279746573206173206461746181525060200191505060405180910390fd5b600083905060008390506000614153846000615d32565b905060307f0100000000000000000000000000000000000000000000000000000000000000027effffffffffffffffffffffffffffffffffffffffffffffffffffffffffffff1916817effffffffffffffffffffffffffffffffffffffffffffffffffffffffffffff1916141515614216576040517f08c379a000000000000000000000000000000000000000000000000000000000815260040180806020018281038252602b81526020018061630a602b913960400191505060405180910390fd5b6000614223856001615dc5565b90506000614232866003615e58565b9050600061424187600f615eeb565b9050600061425088601f615eeb565b9050600061425f89602f615f7e565b9050600061426e8a604f615eeb565b9050600160009054906101000a900473ffffffffffffffffffffffffffffffffffffffff1673ffffffffffffffffffffffffffffffffffffffff16630dc210aa876040518263ffffffff167c010000000000000000000000000000000000000000000000000000000002815260040180827dffffffffffffffffffffffffffffffffffffffffffffffffffffffffffff19167dffffffffffffffffffffffffffffffffffffffffffffffffffffffffffff1916815260200191505060206040518083038186803b15801561434157600080fd5b505afa158015614355573d6000803e3d6000fd5b505050506040513d602081101561436b57600080fd5b810190808051906020019092919050505015156143f0576040517f08c379a00000000000000000000000000000000000000000000000000000000081526004018080602001828103825260138152602001807f636f756e7472792069732064697361626c65640000000000000000000000000081525060200191505060405180910390fd5b6000600260009054906101000a900473ffffffffffffffffffffffffffffffffffffffff1673ffffffffffffffffffffffffffffffffffffffff1663e4d2620e8b6040518263ffffffff167c0100000000000000000000000000000000000000000000000000000000028152600401808273ffffffffffffffffffffffffffffffffffffffff1673ffffffffffffffffffffffffffffffffffffffff16815260200191505060206040518083038186803b1580156144ad57600080fd5b505afa1580156144c1573d6000803e3d6000fd5b505050506040513d60208110156144d757600080fd5b810190808051906020019092919050505011151561455d576040517f08c379a00000000000000000000000000000000000000000000000000000000081526004018080602001828103825260128152602001807f75736572206e6f7420636572746966696564000000000000000000000000000081525060200191505060405180910390fd5b6000740100000000000000000000000000000000000000000273ffffffffffffffffffffffffffffffffffffffff1916600b60008b73ffffffffffffffffffffffffffffffffffffffff1673ffffffffffffffffffffffffffffffffffffffff16815260200190815260200160002060000160009054906101000a9004740100000000000000000000000000000000000000000273ffffffffffffffffffffffffffffffffffffffff191614151561467d576040517f08c379a00000000000000000000000000000000000000000000000000000000081526004018080602001828103825260178152602001807f63616c6c657220616c7265616479206861732073686f7000000000000000000081525060200191505060405180910390fd5b600073ffffffffffffffffffffffffffffffffffffffff16600860008773ffffffffffffffffffffffffffffffffffffffff191673ffffffffffffffffffffffffffffffffffffffff1916815260200190815260200160002060009054906101000a900473ffffffffffffffffffffffffffffffffffffffff1673ffffffffffffffffffffffffffffffffffffffff16141515614782576040517f08c379a000000000000000000000000000000000000000000000000000000000815260040180806020018281038252601f8152602001807f73686f7020616c72656164792065786973747320617420706f736974696f6e0081525060200191505060405180910390fd5b600160009054906101000a900473ffffffffffffffffffffffffffffffffffffffff1673ffffffffffffffffffffffffffffffffffffffff1663bf922fe2866040518263ffffffff167c0100000000000000000000000000000000000000000000000000000000028152600401808273ffffffffffffffffffffffffffffffffffffffff191673ffffffffffffffffffffffffffffffffffffffff19168152602001915050602060405180830381600087803b15801561484157600080fd5b505af1158015614855573d6000803e3d6000fd5b505050506040513d602081101561486b57600080fd5b810190808051906020019092919050505015156148d3576040517f08c379a00000000000000000000000000000000000000000000000000000000081526004018080602001828103825260268152602001806162b76026913960400191505060405180910390fd5b600160009054906101000a900473ffffffffffffffffffffffffffffffffffffffff1673ffffffffffffffffffffffffffffffffffffffff1663df6b2c2c87876040518363ffffffff167c010000000000000000000000000000000000000000000000000000000002815260040180837dffffffffffffffffffffffffffffffffffffffffffffffffffffffffffff19167dffffffffffffffffffffffffffffffffffffffffffffffffffffffffffff19168152602001827bffffffffffffffffffffffffffffffffffffffffffffffffffffffff19167bffffffffffffffffffffffffffffffffffffffffffffffffffffffff191681526020019250505060206040518083038186803b1580156149ea57600080fd5b505afa1580156149fe573d6000803e3d6000fd5b505050506040513d6020811015614a1457600080fd5b81019080805190602001909291905050501515614a99576040517f08c379a000000000000000000000000000000000000000000000000000000000815260040180806020018281038252601a8152602001807f7a6f6e65206973206e6f7420696e7369646520636f756e74727900000000000081525060200191505060405180910390fd5b60076000877dffffffffffffffffffffffffffffffffffffffffffffffffffffffffffff19167dffffffffffffffffffffffffffffffffffffffffffffffffffffffffffff19168152602001908152602001600020548810151515614b49576040517f08c379a000000000000000000000000000000000000000000000000000000000815260040180806020018281038252602881526020018061641b6028913960400191505060405180910390fd5b6000600b60008b73ffffffffffffffffffffffffffffffffffffffff1673ffffffffffffffffffffffffffffffffffffffff1681526020019081526020016000209050858160000160006101000a8154816bffffffffffffffffffffffff021916908374010000000000000000000000000000000000000000900402179055508481600001600c6101000a8154816fffffffffffffffffffffffffffffffff021916908370010000000000000000000000000000000090040217905550838160010160006101000a8154816fffffffffffffffffffffffffffffffff021916908370010000000000000000000000000000000090040217905550828160020181905550818160030160006101000a8154816fffffffffffffffffffffffffffffffff02191690837001000000000000000000000000000000009004021790555088816004018190555060008160050160006101000a81548160ff0219169083151502179055506000816006018190555089600860008873ffffffffffffffffffffffffffffffffffffffff191673ffffffffffffffffffffffffffffffffffffffff1916815260200190815260200160002060006101000a81548173ffffffffffffffffffffffffffffffffffffffff021916908373ffffffffffffffffffffffffffffffffffffffff160217905550600960008778ffffffffffffffffffffffffffffffffffffffffffffffffff191678ffffffffffffffffffffffffffffffffffffffffffffffffff191681526020019081526020016000208a90806001815401808255809150509060018203906000526020600020016000909192909190916101000a81548173ffffffffffffffffffffffffffffffffffffffff021916908373ffffffffffffffffffffffffffffffffffffffff1602179055505050505050505050505050505050565b600360009054906101000a900473ffffffffffffffffffffffffffffffffffffffff1673ffffffffffffffffffffffffffffffffffffffff16638900bd22336040518263ffffffff167c0100000000000000000000000000000000000000000000000000000000028152600401808273ffffffffffffffffffffffffffffffffffffffff1673ffffffffffffffffffffffffffffffffffffffff16815260200191505060206040518083038186803b158015614eb257600080fd5b505afa158015614ec6573d6000803e3d6000fd5b505050506040513d6020811015614edc57600080fd5b81019080805190602001909291905050501515614f61576040517f08c379a00000000000000000000000000000000000000000000000000000000081526004018080602001828103825260198152602001807f63616e206f6e6c792062652063616c6c65642062792043454f0000000000000081525060200191505060405180910390fd5b8060076000847dffffffffffffffffffffffffffffffffffffffffffffffffffffffffffff19167dffffffffffffffffffffffffffffffffffffffffffffffffffffffffffff19168152602001908152602001600020819055505050565b6000600a60003373ffffffffffffffffffffffffffffffffffffffff1673ffffffffffffffffffffffffffffffffffffffff16815260200190815260200160002054905060008111151561507b576040517f08c379a00000000000000000000000000000000000000000000000000000000081526004018080602001828103825260138152602001807f6e6f7468696e6720746f2077697468647261770000000000000000000000000081525060200191505060405180910390fd5b60008111156151ca576000600a60003373ffffffffffffffffffffffffffffffffffffffff1673ffffffffffffffffffffffffffffffffffffffff168152602001908152602001600020819055506000809054906101000a900473ffffffffffffffffffffffffffffffffffffffff1673ffffffffffffffffffffffffffffffffffffffff1663a9059cbb33836040518363ffffffff167c0100000000000000000000000000000000000000000000000000000000028152600401808373ffffffffffffffffffffffffffffffffffffffff1673ffffffffffffffffffffffffffffffffffffffff16815260200182815260200192505050602060405180830381600087803b15801561518d57600080fd5b505af11580156151a1573d6000803e3d6000fd5b505050506040513d60208110156151b757600080fd5b8101908080519060200190929190505050505b50565b600360009054906101000a900473ffffffffffffffffffffffffffffffffffffffff1681565b600160009054906101000a900473ffffffffffffffffffffffffffffffffffffffff1681565b600260009054906101000a900473ffffffffffffffffffffffffffffffffffffffff1681565b60076020528060005260406000206000915090505481565b600082821115151561526857600080fd5b600082840390508091505092915050565b600081600281111561528757fe5b90506000600c600085815260200190815260200160002090506000600b60008360010160009054906101000a900473ffffffffffffffffffffffffffffffffffffffff1673ffffffffffffffffffffffffffffffffffffffff1673ffffffffffffffffffffffffffffffffffffffff16815260200190815260200160002090506001600281111561531457fe5b83600281111561532057fe5b141561535b5760008160050160006101000a81548160ff0219169083151502179055506000816006018190555061535685616011565b6154cf565b60028081111561536757fe5b83600281111561537357fe5b141561547d5760008160040154905060008360020160009054906101000a900473ffffffffffffffffffffffffffffffffffffffff1690506153d88460010160009054906101000a900473ffffffffffffffffffffffffffffffffffffffff166159b8565b6153e187616011565b61543382600a60008473ffffffffffffffffffffffffffffffffffffffff1673ffffffffffffffffffffffffffffffffffffffff168152602001908152602001600020546160b090919063ffffffff16565b600a60008373ffffffffffffffffffffffffffffffffffffffff1673ffffffffffffffffffffffffffffffffffffffff1681526020019081526020016000208190555050506154ce565b6000600281111561548a57fe5b83600281111561549657fe5b14156154cd5760008160050160006101000a81548160ff021916908315150217905550600081600601819055506154cc85616011565b5b5b5b60028260040160016101000a81548160ff021916908360028111156154f057fe5b0217905550828260040160006101000a81548160ff0219169083600281111561551557fe5b02179055505050505050565b600061552b6160d1565b600c600084815260200190815260200160002060c06040519081016040529081600082015481526020016001820160009054906101000a900473ffffffffffffffffffffffffffffffffffffffff1673ffffffffffffffffffffffffffffffffffffffff1673ffffffffffffffffffffffffffffffffffffffff1681526020016002820160009054906101000a900473ffffffffffffffffffffffffffffffffffffffff1673ffffffffffffffffffffffffffffffffffffffff1673ffffffffffffffffffffffffffffffffffffffff168152602001600382015481526020016004820160009054906101000a900460ff16600281111561562857fe5b600281111561563357fe5b81526020016004820160019054906101000a900460ff16600281111561565557fe5b600281111561566057fe5b81525050905060028081111561567257fe5b8160a00151600281111561568257fe5b1415615694578060800151915061576c565b600460009054906101000a900473ffffffffffffffffffffffffffffffffffffffff1673ffffffffffffffffffffffffffffffffffffffff16631c3db16d846040518263ffffffff167c01000000000000000000000000000000000000000000000000000000000281526004018082815260200191505060206040518083038186803b15801561572357600080fd5b505afa158015615737573d6000803e3d6000fd5b505050506040513d602081101561574d57600080fd5b8101908080519060200190929190505050600281111561576957fe5b91505b50919050565b600061577c6160d1565b600c600084815260200190815260200160002060c06040519081016040529081600082015481526020016001820160009054906101000a900473ffffffffffffffffffffffffffffffffffffffff1673ffffffffffffffffffffffffffffffffffffffff1673ffffffffffffffffffffffffffffffffffffffff1681526020016002820160009054906101000a900473ffffffffffffffffffffffffffffffffffffffff1673ffffffffffffffffffffffffffffffffffffffff1673ffffffffffffffffffffffffffffffffffffffff168152602001600382015481526020016004820160009054906101000a900460ff16600281111561587957fe5b600281111561588457fe5b81526020016004820160019054906101000a900460ff1660028111156158a657fe5b60028111156158b157fe5b8152505090506002808111156158c357fe5b8160a0015160028111156158d357fe5b14156158e5578060a0015191506159b2565b600460009054906101000a900473ffffffffffffffffffffffffffffffffffffffff1673ffffffffffffffffffffffffffffffffffffffff166310f169e8846040518263ffffffff167c01000000000000000000000000000000000000000000000000000000000281526004018082815260200191505060206040518083038186803b15801561597457600080fd5b505afa158015615988573d6000803e3d6000fd5b505050506040513d602081101561599e57600080fd5b810190808051906020019092919050505091505b50919050565b6000600b60008373ffffffffffffffffffffffffffffffffffffffff1673ffffffffffffffffffffffffffffffffffffffff16815260200190815260200160002060000160009054906101000a900474010000000000000000000000000000000000000000029050600b60008373ffffffffffffffffffffffffffffffffffffffff1673ffffffffffffffffffffffffffffffffffffffff168152602001908152602001600020600080820160006101000a8154906bffffffffffffffffffffffff021916905560008201600c6101000a8154906fffffffffffffffffffffffffffffffff02191690556001820160006101000a8154906fffffffffffffffffffffffffffffffff021916905560028201600090556003820160006101000a8154906fffffffffffffffffffffffffffffffff021916905560048201600090556005820160006101000a81549060ff0219169055600682016000905550506000600860008373ffffffffffffffffffffffffffffffffffffffff191673ffffffffffffffffffffffffffffffffffffffff1916815260200190815260200160002060006101000a81548173ffffffffffffffffffffffffffffffffffffffff021916908373ffffffffffffffffffffffffffffffffffffffff1602179055506000600960008378ffffffffffffffffffffffffffffffffffffffffffffffffff191678ffffffffffffffffffffffffffffffffffffffffffffffffff19168152602001908152602001600020905060008090505b8180549050811015615d2c5760008282815481101515615c0857fe5b9060005260206000200160009054906101000a900473ffffffffffffffffffffffffffffffffffffffff1690508473ffffffffffffffffffffffffffffffffffffffff168173ffffffffffffffffffffffffffffffffffffffff161415615d20576000836001858054905003815481101515615c8057fe5b9060005260206000200160009054906101000a900473ffffffffffffffffffffffffffffffffffffffff169050808484815481101515615cbc57fe5b9060005260206000200160006101000a81548173ffffffffffffffffffffffffffffffffffffffff021916908373ffffffffffffffffffffffffffffffffffffffff16021790555083805480919060019003615d189190616265565b505050615d2c565b50600181019050615bec565b50505050565b600060018201835110151515615db0576040517f08c379a00000000000000000000000000000000000000000000000000000000081526004018080602001828103825260108152602001807f206e6f74206c6f6e6720656e6f7567680000000000000000000000000000000081525060200191505060405180910390fd5b60008260208501015190508091505092915050565b600060028201835110151515615e43576040517f08c379a00000000000000000000000000000000000000000000000000000000081526004018080602001828103825260108152602001807f206e6f74206c6f6e6720656e6f7567680000000000000000000000000000000081525060200191505060405180910390fd5b60008260208501015190508091505092915050565b6000600c8201835110151515615ed6576040517f08c379a00000000000000000000000000000000000000000000000000000000081526004018080602001828103825260108152602001807f206e6f74206c6f6e6720656e6f7567680000000000000000000000000000000081525060200191505060405180910390fd5b60008260208501015190508091505092915050565b600060108201835110151515615f69576040517f08c379a00000000000000000000000000000000000000000000000000000000081526004018080602001828103825260108152602001807f206e6f74206c6f6e6720656e6f7567680000000000000000000000000000000081525060200191505060405180910390fd5b60008260208501015190508091505092915050565b600060208201835110151515615ffc576040517f08c379a00000000000000000000000000000000000000000000000000000000081526004018080602001828103825260108152602001807f206e6f74206c6f6e6720656e6f7567680000000000000000000000000000000081525060200191505060405180910390fd5b60008260208501015190508091505092915050565b600c60008281526020019081526020016000206000808201600090556001820160006101000a81549073ffffffffffffffffffffffffffffffffffffffff02191690556002820160006101000a81549073ffffffffffffffffffffffffffffffffffffffff021916905560038201600090556004820160006101000a81549060ff02191690556004820160016101000a81549060ff0219169055505050565b60008082840190508381101515156160c757600080fd5b8091505092915050565b60c06040519081016040528060008152602001600073ffffffffffffffffffffffffffffffffffffffff168152602001600073ffffffffffffffffffffffffffffffffffffffff168152602001600081526020016000600281111561613257fe5b81526020016000600281111561614457fe5b81525090565b61010060405190810160405280600073ffffffffffffffffffffffffffffffffffffffff1916815260200160006fffffffffffffffffffffffffffffffff1916815260200160006fffffffffffffffffffffffffffffffff191681526020016000801916815260200160006fffffffffffffffffffffffffffffffff1916815260200160008152602001600015158152602001600081525090565b828054600181600116156101000203166002900490600052602060002090601f016020900481019282601f1061622657803560ff1916838001178555616254565b82800160010185558215616254579182015b82811115616253578235825591602001919060010190616238565b5b5090506162619190616291565b5090565b81548183558181111561628c5781836000526020600020918201910161628b9190616291565b5b505050565b6162b391905b808211156162af576000816000905550600101616297565b5090565b9056fe696e76616c69642067656f68617368206368617261637465727320696e20706f736974696f6e73686f702072756c656420746f2077696e2c206f6e6c79206368616c6c656e6765722063616e2061707065616c696e636f7272656374206669727374206279746520696e20646174612c206578706563746564203078333073656e7420657468206973206c6f776572207468616e2061707065616c20636f737463616e206f6e6c792062652063616c6c65642062792064746820636f6e747261637473686f70206f776e65722063616e6e6f742073746172742064697370757465206f6e206f776e2073686f7073656e7420657468206973206c6f776572207468616e206172626974726174696f6e20636f737443616e206f6e6c792062652063616c6c6564206279207468652061726269747261746f722e6e6f2072756c696e6720676976656e2c206f6e6c79206368616c6c656e6765722063616e2061707065616c73656e6420647468206973206c657373207468616e2073686f70206c6963656e736520707269636563616e6e6f742072656d6f76652073686f70207768696c6520696e20646973707574656368616c6c656e6765722072756c656420746f2077696e2c206f6e6c792073686f702063616e2061707065616ca165627a7a723058206fb2551e9db96f116a008db1de6c8b4b4aee879c3e5d8fbd299b22dfeb6d42110029",
  "source": "pragma solidity ^0.5.3;\n\nimport \"openzeppelin-solidity/contracts/math/SafeMath.sol\";\nimport \"openzeppelin-solidity/contracts/ownership/Ownable.sol\";\n\nimport \"../dth/IDetherToken.sol\";\nimport \"../core/IUsers.sol\";\nimport \"../core/IControl.sol\";\nimport \"./IGeoRegistry.sol\";\nimport \"../kleros/IArbitrable.sol\";\nimport \"../kleros/Arbitrator.sol\";\n\ncontract Shops is IArbitrable {\n  // ------------------------------------------------\n  //\n  // Libraries\n  //\n  // ------------------------------------------------\n\n  using SafeMath for uint;\n\n  // ------------------------------------------------\n  //\n  // Enums\n  //\n  // ------------------------------------------------\n\n  enum Party {Shop, Challenger}\n  enum RulingOptions {NoRuling, ShopWins, ChallengerWins}\n  // enum DisputeStatus {Waiting, Appealable, Solved} // copied from Arbitrator.sol\n\n  // ------------------------------------------------\n  //\n  // Structs\n  //\n  // ------------------------------------------------\n\n  struct Shop {\n    bytes12 position; // 12 char geohash for location of teller\n    bytes16 category;\n    bytes16 name;\n    bytes32 description;\n    bytes16 opening;\n    uint staked;\n    bool hasDispute;\n    uint disputeID;\n  }\n\n  struct ShopDispute {\n    uint id;\n    address shop;\n    address challenger;\n    uint disputeType;\n    RulingOptions ruling;\n    Arbitrator.DisputeStatus status;\n  }\n\n  // ------------------------------------------------\n  //\n  // Variables Public\n  //\n  // ------------------------------------------------\n\n  // links to other contracts\n  IDetherToken public dth;\n  IGeoRegistry public geo;\n  IUsers public users;\n  IControl public control;\n  Arbitrator public arbitrator; // <-- kleros\n\n  // kleros related\n  string public constant RULING_OPTIONS = \"Shop wins;Challenger wins\";\n  uint8 public constant AMOUNT_OF_CHOICES = 2;\n  bytes public arbitratorExtraData;\n  string[] public disputeTypes;\n\n  //      countryCode priceDTH\n  mapping(bytes2 =>   uint) public countryLicensePrice;\n\n  //      geohash12   shopAddress\n  mapping(bytes12 =>  address) public positionToShopAddress;\n\n  //      geohash7    shopAddresses\n  mapping(bytes7 =>   address[]) public zoneToShopAddresses;\n\n  mapping(address => uint) public withdrawableDth;\n\n  // ------------------------------------------------\n  //\n  // Variables Private\n  //\n  // ------------------------------------------------\n\n  //      shopAddress shopStruct\n  mapping(address =>  Shop) private shopAddressToShop;\n\n  //      disputeId disputeStruct\n  mapping(uint =>   ShopDispute) private disputeIdToDispute;\n\n  // ------------------------------------------------\n  //\n  // Modifiers\n  //\n  // ------------------------------------------------\n\n  modifier onlyArbitrator {\n    require(msg.sender == address(arbitrator), \"Can only be called by the arbitrator.\");\n    _;\n  }\n\n  // ------------------------------------------------\n  //\n  // Events\n  //\n  // ------------------------------------------------\n\n  // ------------------------------------------------\n  //\n  // Constructor\n  //\n  // ------------------------------------------------\n\n  constructor(address _dth, address _geo, address _users, address _control, address _arbitrator, bytes memory _arbitratorExtraData)\n    public\n  {\n    require(_dth != address(0), \"dth address cannot be 0x0\");\n    require(_geo != address(0), \"geo address cannot be 0x0\");\n    require(_users != address(0), \"users address cannot be 0x0\");\n    require(_control != address(0), \"control address cannot be 0x0\");\n    require(_arbitrator != address(0), \"arbitrator cannot be 0x0\");\n\n    dth = IDetherToken(_dth);\n    geo = IGeoRegistry(_geo);\n    users = IUsers(_users);\n    control = IControl(_control);\n\n    // kleros\n    arbitrator = Arbitrator(_arbitrator);\n    arbitratorExtraData = _arbitratorExtraData;\n  }\n\n  // ------------------------------------------------\n  //\n  // Functions Getters Public\n  //\n  // ------------------------------------------------\n\n  function getShopByAddr(address _addr)\n    public\n    view\n    returns (bytes12, bytes16, bytes16, bytes32, bytes16, uint, bool, uint)\n  {\n    Shop memory shop = shopAddressToShop[_addr];\n\n    return (\n      shop.position,\n      shop.category,\n      shop.name,\n      shop.description,\n      shop.opening,\n      shop.staked,\n      shop.hasDispute,\n      shop.disputeID\n    );\n  }\n\n  function getShopByPos(bytes12 _position)\n    external\n    view\n    returns (bytes12, bytes16, bytes16, bytes32, bytes16, uint, bool, uint)\n  {\n    address shopAddr = positionToShopAddress[_position];\n    return getShopByAddr(shopAddr);\n  }\n\n  function getShopAddressesInZone(bytes7 _zoneGeohash)\n    external\n    view\n    returns (address[] memory)\n  {\n    return zoneToShopAddresses[_zoneGeohash];\n  }\n\n  function shopByAddrExists(address shopAddress)\n    external\n    view\n    returns (bool)\n  {\n    return shopAddressToShop[shopAddress].position != bytes12(0);\n  }\n\n  // ------------------------------------------------\n  //\n  // Functions Getters Private\n  //\n  // ------------------------------------------------\n\n  function toBytes1(bytes memory _bytes, uint _start)\n    private\n    pure\n    returns (bytes1) {\n      require(_bytes.length >= (_start + 1), \" not long enough\");\n      bytes1 tempBytes1;\n\n      assembly {\n          tempBytes1 := mload(add(add(_bytes, 0x20), _start))\n      }\n\n      return tempBytes1;\n  }\n  function toBytes2(bytes memory _bytes, uint _start)\n    private\n    pure\n    returns (bytes2) {\n      require(_bytes.length >= (_start + 2), \" not long enough\");\n      bytes2 tempBytes2;\n\n      assembly {\n          tempBytes2 := mload(add(add(_bytes, 0x20), _start))\n      }\n\n      return tempBytes2;\n  }\n  function toBytes4(bytes memory _bytes, uint _start)\n    private\n    pure\n    returns (bytes4) {\n      require(_bytes.length >= (_start + 4), \" not long enough\");\n      bytes4 tempBytes4;\n\n      assembly {\n          tempBytes4 := mload(add(add(_bytes, 0x20), _start))\n      }\n\n      return tempBytes4;\n  }\n  function toBytes7(bytes memory _bytes, uint _start)\n    private\n    pure\n    returns (bytes7) {\n      require(_bytes.length >= (_start + 7), \" not long enough\");\n      bytes7 tempBytes7;\n\n      assembly {\n          tempBytes7 := mload(add(add(_bytes, 0x20), _start))\n      }\n\n      return tempBytes7;\n  }\n  function toBytes12(bytes memory _bytes, uint _start)\n    private\n    pure\n    returns (bytes12) {\n      require(_bytes.length >= (_start + 12), \" not long enough\");\n      bytes12 tempBytes12;\n\n      assembly {\n          tempBytes12 := mload(add(add(_bytes, 0x20), _start))\n      }\n\n      return tempBytes12;\n  }\n  function toBytes16(bytes memory _bytes, uint _start)\n    private\n    pure\n    returns (bytes16) {\n      require(_bytes.length >= (_start + 16), \" not long enough\");\n      bytes16 tempBytes16;\n\n      assembly {\n          tempBytes16 := mload(add(add(_bytes, 0x20), _start))\n      }\n\n      return tempBytes16;\n  }\n  function toBytes32(bytes memory _bytes, uint _start)\n    private\n    pure\n    returns (bytes32) {\n      require(_bytes.length >= (_start + 32), \" not long enough\");\n      bytes32 tempBytes32;\n\n      assembly {\n          tempBytes32 := mload(add(add(_bytes, 0x20), _start))\n      }\n\n      return tempBytes32;\n  }\n\n  // ------------------------------------------------\n  //\n  // Functions Setters Public\n  //\n  // ------------------------------------------------\n\n  function setCountryLicensePrice(bytes2 _countryCode, uint _priceDTH)\n    external\n  {\n    require(control.isCEO(msg.sender), \"can only be called by CEO\");\n    countryLicensePrice[_countryCode] = _priceDTH;\n  }\n\n  function tokenFallback(address _from, uint _value, bytes memory _data)\n    public\n  {\n    require(msg.sender == address(dth), \"can only be called by dth contract\");\n\n    require(control.paused() == false, \"contract is paused\");\n\n    require(_data.length == 95, \"addShop expects 95 bytes as data\");\n\n    address sender = _from;\n    uint dthAmount = _value;\n\n    bytes1 fn = toBytes1(_data, 0);\n    require(fn == bytes1(0x30), \"incorrect first byte in data, expected 0x30\");\n\n    bytes2 country = toBytes2(_data, 1);\n    bytes12 position = toBytes12(_data, 3);\n    bytes16 category = toBytes16(_data, 15);\n    bytes16 name = toBytes16(_data, 31);\n    bytes32 description = toBytes32(_data, 47);\n    bytes16 opening = toBytes16(_data, 79);\n\n    require(geo.countryIsEnabled(country), \"country is disabled\");\n    require(users.getUserTier(sender) > 0, \"user not certified\");\n    require(shopAddressToShop[sender].position == bytes12(0), \"caller already has shop\");\n    require(positionToShopAddress[position] == address(0), \"shop already exists at position\");\n    require(geo.validGeohashChars12(position), \"invalid geohash characters in position\");\n    require(geo.zoneInsideCountry(country, bytes4(position)), \"zone is not inside country\");\n\n    require(dthAmount >= countryLicensePrice[country], \"send dth is less than shop license price\");\n\n    // create new entry in storage\n    Shop storage shop = shopAddressToShop[sender];\n    shop.position = position; // a 12 character geohash\n    shop.category = category;\n    shop.name = name;\n    shop.description = description;\n    shop.opening = opening;\n    shop.staked = dthAmount;\n    shop.hasDispute = false;\n    shop.disputeID = 0; // dispute could have id 0..\n\n    // so we can get a shop based on its position\n    positionToShopAddress[position] = sender;\n\n    // a zone is a 7 character geohash, we keep track of all shops in a given zone\n    zoneToShopAddresses[bytes7(position)].push(sender);\n  }\n\n  function deleteShop(address shopAddress)\n    private\n  {\n    bytes12 position = shopAddressToShop[shopAddress].position;\n\n    delete shopAddressToShop[shopAddress];\n\n    positionToShopAddress[position] = address(0);\n\n    // it's safe to do a loop, the number of geohash12 in any geohash7 (33.554.432) is less than the max uint value\n    // however we would like to NOT loop,\n    // TODO: get rid of the loop by tracking the index of each shop address\n    address[] storage zoneShopAddresses = zoneToShopAddresses[bytes7(position)];\n    for (uint i = 0; i < zoneShopAddresses.length; i += 1) {\n      address zoneShopAddress = zoneShopAddresses[i];\n      if (zoneShopAddress == shopAddress) {\n        address lastShopAddress = zoneShopAddresses[zoneShopAddresses.length - 1];\n        zoneShopAddresses[i] = lastShopAddress;\n        zoneShopAddresses.length--;\n        break; // done\n      }\n    }\n  }\n\n  function removeShop()\n    external\n  {\n    require(control.paused() == false, \"contract is paused\");\n    require(users.getUserTier(msg.sender) > 0, \"user not certified\");\n    // if country is disabled, user can still remove his shop!\n\n    require(shopAddressToShop[msg.sender].position != bytes12(0), \"caller does not own shop\");\n    require(shopAddressToShop[msg.sender].hasDispute == false, \"cannot remove shop while in dispute\");\n\n    uint shopStake = shopAddressToShop[msg.sender].staked;\n\n    deleteShop(msg.sender);\n\n    dth.transfer(msg.sender, shopStake);\n  }\n\n  //\n  //\n  //\n  //\n  // Kleros Dispute Arbitration\n  //\n  //\n  //\n  //\n\n  // so we can add new types of dispute in the future\n  function addDisputeType(string calldata _disputeTypeLink)\n    external\n  {\n    require(control.isCEO(msg.sender), \"can only be called by CEO\");\n    require(bytes(_disputeTypeLink).length > 0, \"dispute type link is empty\");\n\n    uint metaEvidenceId = disputeTypes.push(_disputeTypeLink) - 1;\n\n    emit MetaEvidence(metaEvidenceId, _disputeTypeLink);\n  }\n\n  function getDisputeCreateCost()\n    public\n    view\n    returns (uint)\n  {\n    return arbitrator.arbitrationCost(arbitratorExtraData) * 2;\n  }\n\n  function getDisputeAppealCost(address _shopAddress)\n    external\n    view\n    returns (uint)\n  {\n    require(shopAddressToShop[_shopAddress].position != bytes12(0), \"shop does not exist\");\n    require(shopAddressToShop[_shopAddress].hasDispute, \"shop has no dispute\");\n\n    uint a = arbitrator.appealCost(shopAddressToShop[_shopAddress].disputeID, arbitratorExtraData);\n\n    return a;\n  }\n\n  function getDisputeStatus(uint _disputeID)\n    private\n    view\n    returns (Arbitrator.DisputeStatus disputeStatus)\n  {\n    ShopDispute memory dispute = disputeIdToDispute[_disputeID];\n\n    if (dispute.status == Arbitrator.DisputeStatus.Solved) {\n      // rule() in this contract was called, it set status to Solved and set the final Ruling\n      disputeStatus = dispute.status;\n    } else {\n      // dispute is not yet finalized, get current values from arbitrator contract\n      disputeStatus = arbitrator.disputeStatus(_disputeID); // returns Arbitrator.DisputeStatus\n    }\n  }\n\n  function getDisputeRuling(uint _disputeID)\n    private\n    view\n    returns (RulingOptions disputeRuling)\n  {\n    ShopDispute memory dispute = disputeIdToDispute[_disputeID];\n\n    if (dispute.status == Arbitrator.DisputeStatus.Solved) {\n      // rule() in this contract was called, it set status to Solved and set the final Ruling\n      disputeRuling = dispute.ruling;\n    } else {\n      // dispute is not yet finalized, get current values from arbitrator contract\n      disputeRuling = RulingOptions(arbitrator.currentRuling(_disputeID));\n    }\n  }\n\n  function getDispute(address _shopAddress)\n    public\n    view\n    returns (uint, address, address, uint, uint, uint)\n  {\n    require(shopAddressToShop[_shopAddress].position != bytes12(0), \"shop does not exist\");\n    require(shopAddressToShop[_shopAddress].hasDispute, \"shop has no dispute\");\n\n    ShopDispute memory dispute = disputeIdToDispute[shopAddressToShop[_shopAddress].disputeID];\n\n    return (\n      dispute.id,\n      dispute.shop,\n      dispute.challenger,\n      dispute.disputeType,\n\n      // from arbitrator contract or this contract if finalized\n      uint(getDisputeRuling(dispute.id)),\n      uint(getDisputeStatus(dispute.id))\n    );\n  }\n\n  // called by somebody who wants to start a dispute with a shop\n  function createDispute(address _shopAddress, uint _metaEvidenceId, string memory _evidenceLink)\n    public\n    payable\n  {\n    require(control.paused() == false, \"contract is paused\");\n    require(users.getUserTier(msg.sender) > 0, \"user not certified\");\n\n    require(_metaEvidenceId < disputeTypes.length, \"dispute type does not exist\");\n    require(bytes(_evidenceLink).length > 0, \"evidence link is empty\");\n\n    require(_shopAddress != address(0), \"shop does not exist\");\n    require(msg.sender != _shopAddress, \"shop owner cannot start dispute on own shop\");\n    require(shopAddressToShop[_shopAddress].hasDispute == false, \"shop already has a dispute\");\n\n    uint arbitrationCost = getDisputeCreateCost();\n    require(msg.value >= arbitrationCost, \"sent eth is lower than arbitration cost\");\n\n    uint disputeID = arbitrator.createDispute.value(arbitrationCost)(AMOUNT_OF_CHOICES, arbitratorExtraData);\n\n    // create new Dispute\n    ShopDispute storage dispute = disputeIdToDispute[disputeID];\n    dispute.id = disputeID;\n    dispute.challenger = msg.sender;\n    dispute.shop = _shopAddress;\n    dispute.disputeType = _metaEvidenceId;\n    dispute.ruling = RulingOptions.NoRuling;\n    dispute.status = Arbitrator.DisputeStatus.Waiting;\n\n    Shop storage shop = shopAddressToShop[_shopAddress];\n    shop.hasDispute = true; // disputeID could theoretically be zero, so we need this to know if a dispute exists\n    shop.disputeID = disputeID;\n\n    emit Dispute(arbitrator, disputeID, _metaEvidenceId);\n    emit Evidence(arbitrator, disputeID, msg.sender, _evidenceLink);\n\n    uint excessEth = arbitrationCost.sub(msg.value);\n    if (excessEth > 0) msg.sender.transfer(excessEth);\n  }\n\n\n  function appealDispute(address _shopAddress, string calldata _evidenceLink)\n    external\n    payable\n  {\n    require(control.paused() == false, \"contract is paused\");\n    require(users.getUserTier(msg.sender) > 0, \"user not certified\");\n\n    require(bytes(_evidenceLink).length > 0, \"evidence link is empty\");\n\n    Shop storage shop = shopAddressToShop[_shopAddress];\n    require(shop.hasDispute == true, \"shop has no active dispute\");\n\n    ShopDispute storage dispute = disputeIdToDispute[shop.disputeID];\n    require(getDisputeStatus(dispute.id) == Arbitrator.DisputeStatus.Appealable, \"dispute is not appealable\");\n\n    RulingOptions currentRuling = getDisputeRuling(dispute.id);\n    if (currentRuling == RulingOptions.ShopWins) {\n      require(msg.sender == dispute.challenger, \"shop ruled to win, only challenger can appeal\");\n    } else if (currentRuling == RulingOptions.ChallengerWins) {\n      require(msg.sender == dispute.shop, \"challenger ruled to win, only shop can appeal\");\n    } else {\n      require(msg.sender == dispute.challenger, \"no ruling given, only challenger can appeal\");\n    }\n\n    uint appealCost = arbitrator.appealCost(dispute.id, arbitratorExtraData);\n    require(msg.value >= appealCost, \"sent eth is lower than appeal cost\");\n\n    arbitrator.appeal.value(appealCost)(dispute.id, arbitratorExtraData);\n\n    emit Evidence(arbitrator, dispute.id, msg.sender, _evidenceLink);\n\n    uint excessEth = appealCost.sub(msg.value);\n    if (excessEth > 0) msg.sender.transfer(excessEth);\n  }\n\n  function deleteDispute(uint _disputeID)\n    private\n  {\n    // since we have no mapping or array vars in this struct, a 'delete' call will remove the entry\n    delete disputeIdToDispute[_disputeID];\n  }\n\n  function withdrawDth()\n    external\n  {\n    uint dthWithdraw = withdrawableDth[msg.sender];\n    require(dthWithdraw > 0, \"nothing to withdraw\");\n\n    if (dthWithdraw > 0) {\n      withdrawableDth[msg.sender] = 0;\n      dth.transfer(msg.sender, dthWithdraw);\n    }\n  }\n\n  // called by rule() which is called by Kleros Arbitrator contract\n  function executeRuling(uint _disputeID, uint _ruling)\n    private\n  {\n    RulingOptions finalRuling = RulingOptions(_ruling);\n\n    ShopDispute storage dispute = disputeIdToDispute[_disputeID];\n    Shop storage shop = shopAddressToShop[dispute.shop];\n\n    if (finalRuling == RulingOptions.ShopWins) {\n      shop.hasDispute = false;\n      shop.disputeID = 0;\n\n      deleteDispute(_disputeID);\n    } else if (finalRuling == RulingOptions.ChallengerWins) {\n      uint shopStake = shop.staked;\n      address challenger = dispute.challenger;\n\n      deleteShop(dispute.shop);\n      deleteDispute(_disputeID);\n\n      // dispute winner can now withdraw this shops zone dth stake\n      withdrawableDth[challenger] = withdrawableDth[challenger].add(shopStake);\n    } else if (finalRuling == RulingOptions.NoRuling) {\n      shop.hasDispute = false;\n      shop.disputeID = 0;\n\n      deleteDispute(_disputeID);\n    }\n\n    dispute.status = Arbitrator.DisputeStatus.Solved;\n    dispute.ruling = finalRuling;\n  }\n  function rule(uint _disputeID, uint _ruling)\n    public\n    onlyArbitrator\n  {\n    emit Ruling(Arbitrator(msg.sender), _disputeID, _ruling);\n\n    executeRuling(_disputeID,_ruling);\n  }\n}\n",
  "sourcePath": "/Users/trip/Projects/detherContracts/contracts/map/Shops.sol",
  "compiler": {
    "name": "solc",
    "version": "0.5.3+commit.10d17f24.Emscripten.clang"
  },
  "schemaVersion": "3.0.1",
  "updatedAt": "2019-02-10T20:48:15.927Z",
  "devdoc": {
    "methods": {}
  },
  "userdoc": {
    "methods": {}
  }
}