{
  "contractName": "ShopsDispute",
  "abi": [
    {
      "constant": true,
      "inputs": [],
      "name": "arbitratorExtraData",
      "outputs": [
        {
          "name": "",
          "type": "bytes"
        }
      ],
      "payable": false,
      "stateMutability": "view",
      "type": "function"
    },
    {
      "constant": true,
      "inputs": [],
      "name": "AMOUNT_OF_CHOICES",
      "outputs": [
        {
          "name": "",
          "type": "uint8"
        }
      ],
      "payable": false,
      "stateMutability": "view",
      "type": "function"
    },
    {
      "constant": true,
      "inputs": [],
      "name": "RULING_OPTIONS",
      "outputs": [
        {
          "name": "",
          "type": "string"
        }
      ],
      "payable": false,
      "stateMutability": "view",
      "type": "function"
    },
    {
      "constant": true,
      "inputs": [],
      "name": "arbitrator",
      "outputs": [
        {
          "name": "",
          "type": "address"
        }
      ],
      "payable": false,
      "stateMutability": "view",
      "type": "function"
    },
    {
      "constant": true,
      "inputs": [
        {
          "name": "",
          "type": "uint256"
        }
      ],
      "name": "disputeTypes",
      "outputs": [
        {
          "name": "",
          "type": "string"
        }
      ],
      "payable": false,
      "stateMutability": "view",
      "type": "function"
    },
    {
      "constant": true,
      "inputs": [],
      "name": "shops",
      "outputs": [
        {
          "name": "",
          "type": "address"
        }
      ],
      "payable": false,
      "stateMutability": "view",
      "type": "function"
    },
    {
      "constant": true,
      "inputs": [],
      "name": "control",
      "outputs": [
        {
          "name": "",
          "type": "address"
        }
      ],
      "payable": false,
      "stateMutability": "view",
      "type": "function"
    },
    {
      "constant": true,
      "inputs": [],
      "name": "users",
      "outputs": [
        {
          "name": "",
          "type": "address"
        }
      ],
      "payable": false,
      "stateMutability": "view",
      "type": "function"
    },
    {
      "inputs": [
        {
          "name": "_shops",
          "type": "address"
        },
        {
          "name": "_users",
          "type": "address"
        },
        {
          "name": "_control",
          "type": "address"
        },
        {
          "name": "_arbitrator",
          "type": "address"
        },
        {
          "name": "_arbitratorExtraData",
          "type": "bytes"
        }
      ],
      "payable": false,
      "stateMutability": "nonpayable",
      "type": "constructor"
    },
    {
      "anonymous": false,
      "inputs": [
        {
          "indexed": true,
          "name": "_metaEvidenceID",
          "type": "uint256"
        },
        {
          "indexed": false,
          "name": "_evidence",
          "type": "string"
        }
      ],
      "name": "MetaEvidence",
      "type": "event"
    },
    {
      "anonymous": false,
      "inputs": [
        {
          "indexed": true,
          "name": "_arbitrator",
          "type": "address"
        },
        {
          "indexed": true,
          "name": "_disputeID",
          "type": "uint256"
        },
        {
          "indexed": false,
          "name": "_metaEvidenceID",
          "type": "uint256"
        }
      ],
      "name": "Dispute",
      "type": "event"
    },
    {
      "anonymous": false,
      "inputs": [
        {
          "indexed": true,
          "name": "_arbitrator",
          "type": "address"
        },
        {
          "indexed": true,
          "name": "_disputeID",
          "type": "uint256"
        },
        {
          "indexed": true,
          "name": "_party",
          "type": "address"
        },
        {
          "indexed": false,
          "name": "_evidence",
          "type": "string"
        }
      ],
      "name": "Evidence",
      "type": "event"
    },
    {
      "anonymous": false,
      "inputs": [
        {
          "indexed": true,
          "name": "_arbitrator",
          "type": "address"
        },
        {
          "indexed": true,
          "name": "_disputeID",
          "type": "uint256"
        },
        {
          "indexed": false,
          "name": "_ruling",
          "type": "uint256"
        }
      ],
      "name": "Ruling",
      "type": "event"
    },
    {
      "constant": true,
      "inputs": [],
      "name": "getDisputeCreateCost",
      "outputs": [
        {
          "name": "",
          "type": "uint256"
        }
      ],
      "payable": false,
      "stateMutability": "view",
      "type": "function"
    },
    {
      "constant": true,
      "inputs": [
        {
          "name": "_shopAddress",
          "type": "address"
        }
      ],
      "name": "getDisputeAppealCost",
      "outputs": [
        {
          "name": "",
          "type": "uint256"
        }
      ],
      "payable": false,
      "stateMutability": "view",
      "type": "function"
    },
    {
      "constant": true,
      "inputs": [
        {
          "name": "_shopAddress",
          "type": "address"
        }
      ],
      "name": "getDispute",
      "outputs": [
        {
          "name": "",
          "type": "uint256"
        },
        {
          "name": "",
          "type": "address"
        },
        {
          "name": "",
          "type": "address"
        },
        {
          "name": "",
          "type": "uint256"
        },
        {
          "name": "",
          "type": "uint256"
        },
        {
          "name": "",
          "type": "uint256"
        }
      ],
      "payable": false,
      "stateMutability": "view",
      "type": "function"
    },
    {
      "constant": false,
      "inputs": [
        {
          "name": "_disputeTypeLink",
          "type": "string"
        }
      ],
      "name": "addDisputeType",
      "outputs": [],
      "payable": false,
      "stateMutability": "nonpayable",
      "type": "function"
    },
    {
      "constant": false,
      "inputs": [
        {
          "name": "_shopAddress",
          "type": "address"
        },
        {
          "name": "_metaEvidenceId",
          "type": "uint256"
        },
        {
          "name": "_evidenceLink",
          "type": "string"
        }
      ],
      "name": "createDispute",
      "outputs": [],
      "payable": true,
      "stateMutability": "payable",
      "type": "function"
    },
    {
      "constant": false,
      "inputs": [
        {
          "name": "_shopAddress",
          "type": "address"
        },
        {
          "name": "_evidenceLink",
          "type": "string"
        }
      ],
      "name": "appealDispute",
      "outputs": [],
      "payable": true,
      "stateMutability": "payable",
      "type": "function"
    },
    {
      "constant": false,
      "inputs": [
        {
          "name": "_disputeID",
          "type": "uint256"
        },
        {
          "name": "_ruling",
          "type": "uint256"
        }
      ],
      "name": "rule",
      "outputs": [],
      "payable": false,
      "stateMutability": "nonpayable",
      "type": "function"
    }
  ],
  "bytecode": "0x60806040523480156200001157600080fd5b50604051620033e6380380620033e6833981810160405260a08110156200003757600080fd5b810190808051906020019092919080519060200190929190805190602001909291908051906020019092919080516401000000008111156200007857600080fd5b828101905060208101848111156200008f57600080fd5b8151856001820283011164010000000082111715620000ad57600080fd5b5050929190505050600073ffffffffffffffffffffffffffffffffffffffff168573ffffffffffffffffffffffffffffffffffffffff16141562000159576040517f08c379a000000000000000000000000000000000000000000000000000000000815260040180806020018281038252601b8152602001807f73686f707320616464726573732063616e6e6f7420626520307830000000000081525060200191505060405180910390fd5b600073ffffffffffffffffffffffffffffffffffffffff168473ffffffffffffffffffffffffffffffffffffffff161415620001fd576040517f08c379a000000000000000000000000000000000000000000000000000000000815260040180806020018281038252601b8152602001807f757365727320616464726573732063616e6e6f7420626520307830000000000081525060200191505060405180910390fd5b600073ffffffffffffffffffffffffffffffffffffffff168373ffffffffffffffffffffffffffffffffffffffff161415620002a1576040517f08c379a000000000000000000000000000000000000000000000000000000000815260040180806020018281038252601d8152602001807f636f6e74726f6c20616464726573732063616e6e6f742062652030783000000081525060200191505060405180910390fd5b600073ffffffffffffffffffffffffffffffffffffffff168273ffffffffffffffffffffffffffffffffffffffff16141562000345576040517f08c379a00000000000000000000000000000000000000000000000000000000081526004018080602001828103825260188152602001807f61726269747261746f722063616e6e6f7420626520307830000000000000000081525060200191505060405180910390fd5b846000806101000a81548173ffffffffffffffffffffffffffffffffffffffff021916908373ffffffffffffffffffffffffffffffffffffffff16021790555083600160006101000a81548173ffffffffffffffffffffffffffffffffffffffff021916908373ffffffffffffffffffffffffffffffffffffffff16021790555082600260006101000a81548173ffffffffffffffffffffffffffffffffffffffff021916908373ffffffffffffffffffffffffffffffffffffffff16021790555081600360006101000a81548173ffffffffffffffffffffffffffffffffffffffff021916908373ffffffffffffffffffffffffffffffffffffffff1602179055508060049080519060200190620004609291906200046c565b5050505050506200051b565b828054600181600116156101000203166002900490600052602060002090601f016020900481019282601f10620004af57805160ff1916838001178555620004e0565b82800160010185558215620004e0579182015b82811115620004df578251825591602001919060010190620004c2565b5b509050620004ef9190620004f3565b5090565b6200051891905b8082111562000514576000816000905550600101620004fa565b5090565b90565b612ebb806200052b6000396000f3fe6080604052600436106100e85760003560e01c80636cc6cde11161008a578063bc75b21411610059578063bc75b214146106d7578063d6965ff714610702578063d8de658714610759578063f2020275146107b0576100e8565b80636cc6cde1146104ad57806371e884a0146105045780637eb0c948146105b8578063b9abe7a31461063e576100e8565b80632e0b6422116100c65780632e0b6422146102c7578063311a6c56146102f8578063335552de1461033d578063626c47e81461041d576100e8565b80630c7ac7b6146100ed5780631660cfdc1461017d5780631ea8441414610262575b600080fd5b3480156100f957600080fd5b50610102610807565b6040518080602001828103825283818151815260200191508051906020019080838360005b83811015610142578082015181840152602081019050610127565b50505050905090810190601f16801561016f5780820380516001836020036101000a031916815260200191505b509250505060405180910390f35b6102606004803603606081101561019357600080fd5b81019080803573ffffffffffffffffffffffffffffffffffffffff16906020019092919080359060200190929190803590602001906401000000008111156101da57600080fd5b8201836020820111156101ec57600080fd5b8035906020019184600183028401116401000000008311171561020e57600080fd5b91908080601f016020809104026020016040519081016040528093929190818152602001838380828437600081840152601f19601f8201169050808301925050505050505091929192905050506108a5565b005b34801561026e57600080fd5b506102b16004803603602081101561028557600080fd5b81019080803573ffffffffffffffffffffffffffffffffffffffff16906020019092919050505061109a565b6040518082815260200191505060405180910390f35b3480156102d357600080fd5b506102dc6112b9565b604051808260ff1660ff16815260200191505060405180910390f35b34801561030457600080fd5b5061033b6004803603604081101561031b57600080fd5b8101908080359060200190929190803590602001909291905050506112be565b005b34801561034957600080fd5b5061038c6004803603602081101561036057600080fd5b81019080803573ffffffffffffffffffffffffffffffffffffffff1690602001909291905050506113c1565b604051808781526020018673ffffffffffffffffffffffffffffffffffffffff1673ffffffffffffffffffffffffffffffffffffffff1681526020018573ffffffffffffffffffffffffffffffffffffffff1673ffffffffffffffffffffffffffffffffffffffff168152602001848152602001838152602001828152602001965050505050505060405180910390f35b34801561042957600080fd5b5061043261163e565b6040518080602001828103825283818151815260200191508051906020019080838360005b83811015610472578082015181840152602081019050610457565b50505050905090810190601f16801561049f5780820380516001836020036101000a031916815260200191505b509250505060405180910390f35b3480156104b957600080fd5b506104c2611677565b604051808273ffffffffffffffffffffffffffffffffffffffff1673ffffffffffffffffffffffffffffffffffffffff16815260200191505060405180910390f35b34801561051057600080fd5b5061053d6004803603602081101561052757600080fd5b810190808035906020019092919050505061169d565b6040518080602001828103825283818151815260200191508051906020019080838360005b8381101561057d578082015181840152602081019050610562565b50505050905090810190601f1680156105aa5780820380516001836020036101000a031916815260200191505b509250505060405180910390f35b3480156105c457600080fd5b5061063c600480360360208110156105db57600080fd5b81019080803590602001906401000000008111156105f857600080fd5b82018360208201111561060a57600080fd5b8035906020019184600183028401116401000000008311171561062c57600080fd5b9091929391929390505050611756565b005b6106d56004803603604081101561065457600080fd5b81019080803573ffffffffffffffffffffffffffffffffffffffff1690602001909291908035906020019064010000000081111561069157600080fd5b8201836020820111156106a357600080fd5b803590602001918460018302840111640100000000831117156106c557600080fd5b90919293919293905050506119cc565b005b3480156106e357600080fd5b506106ec612204565b6040518082815260200191505060405180910390f35b34801561070e57600080fd5b5061071761233f565b604051808273ffffffffffffffffffffffffffffffffffffffff1673ffffffffffffffffffffffffffffffffffffffff16815260200191505060405180910390f35b34801561076557600080fd5b5061076e612364565b604051808273ffffffffffffffffffffffffffffffffffffffff1673ffffffffffffffffffffffffffffffffffffffff16815260200191505060405180910390f35b3480156107bc57600080fd5b506107c561238a565b604051808273ffffffffffffffffffffffffffffffffffffffff1673ffffffffffffffffffffffffffffffffffffffff16815260200191505060405180910390f35b60048054600181600116156101000203166002900480601f01602080910402602001604051908101604052809291908181526020018280546001816001161561010002031660029004801561089d5780601f106108725761010080835404028352916020019161089d565b820191906000526020600020905b81548152906001019060200180831161088057829003601f168201915b505050505081565b600580549050821061091f576040517f08c379a000000000000000000000000000000000000000000000000000000000815260040180806020018281038252601b8152602001807f64697370757465207479706520646f6573206e6f74206578697374000000000081525060200191505060405180910390fd5b6000815111610996576040517f08c379a00000000000000000000000000000000000000000000000000000000081526004018080602001828103825260168152602001807f65766964656e6365206c696e6b20697320656d7074790000000000000000000081525060200191505060405180910390fd5b8273ffffffffffffffffffffffffffffffffffffffff163373ffffffffffffffffffffffffffffffffffffffff161415610a1b576040517f08c379a000000000000000000000000000000000000000000000000000000000815260040180806020018281038252602b815260200180612db8602b913960400191505060405180910390fd5b6000809054906101000a900473ffffffffffffffffffffffffffffffffffffffff1673ffffffffffffffffffffffffffffffffffffffff166366e60319846040518263ffffffff1660e01b8152600401808273ffffffffffffffffffffffffffffffffffffffff1673ffffffffffffffffffffffffffffffffffffffff16815260200191505060206040518083038186803b158015610ab957600080fd5b505afa158015610acd573d6000803e3d6000fd5b505050506040513d6020811015610ae357600080fd5b810190808051906020019092919050505015610b67576040517f08c379a000000000000000000000000000000000000000000000000000000000815260040180806020018281038252601a8152602001807f73686f7020616c7265616479206861732061206469737075746500000000000081525060200191505060405180910390fd5b6000610b71612204565b905080341015610bcc576040517f08c379a0000000000000000000000000000000000000000000000000000000008152600401808060200182810382526027815260200180612de36027913960400191505060405180910390fd5b6000600360009054906101000a900473ffffffffffffffffffffffffffffffffffffffff1673ffffffffffffffffffffffffffffffffffffffff1663c13517e183600260046040518463ffffffff1660e01b8152600401808360ff16815260200180602001828103825283818154600181600116156101000203166002900481526020019150805460018160011615610100020316600290048015610cb25780601f10610c8757610100808354040283529160200191610cb2565b820191906000526020600020905b815481529060010190602001808311610c9557829003601f168201915b505093505050506020604051808303818588803b158015610cd257600080fd5b505af1158015610ce6573d6000803e3d6000fd5b50505050506040513d6020811015610cfd57600080fd5b810190808051906020019092919050505090506000600660008381526020019081526020016000209050818160000181905550338160020160006101000a81548173ffffffffffffffffffffffffffffffffffffffff021916908373ffffffffffffffffffffffffffffffffffffffff160217905550858160010160006101000a81548173ffffffffffffffffffffffffffffffffffffffff021916908373ffffffffffffffffffffffffffffffffffffffff16021790555084816003018190555060008160040160006101000a81548160ff02191690836002811115610de057fe5b021790555060008160040160016101000a81548160ff02191690836002811115610e0657fe5b02179055506000809054906101000a900473ffffffffffffffffffffffffffffffffffffffff1673ffffffffffffffffffffffffffffffffffffffff16636584081087846040518363ffffffff1660e01b8152600401808373ffffffffffffffffffffffffffffffffffffffff1673ffffffffffffffffffffffffffffffffffffffff16815260200182815260200192505050600060405180830381600087803b158015610eb357600080fd5b505af1158015610ec7573d6000803e3d6000fd5b5050505081600360009054906101000a900473ffffffffffffffffffffffffffffffffffffffff1673ffffffffffffffffffffffffffffffffffffffff167fc21357d76c2ee05713ed6e2edb9a5f60ab1e8748c56201385df30007f774f58d876040518082815260200191505060405180910390a33373ffffffffffffffffffffffffffffffffffffffff1682600360009054906101000a900473ffffffffffffffffffffffffffffffffffffffff1673ffffffffffffffffffffffffffffffffffffffff167fdccf2f8b2cc26eafcd61905cba744cff4b81d14740725f6376390dc6298a6a3c876040518080602001828103825283818151815260200191508051906020019080838360005b83811015610fef578082015181840152602081019050610fd4565b50505050905090810190601f16801561101c5780820380516001836020036101000a031916815260200191505b509250505060405180910390a4600061103e34856123b090919063ffffffff16565b90506000811115611091573373ffffffffffffffffffffffffffffffffffffffff166108fc829081150290604051600060405180830381858888f1935050505015801561108f573d6000803e3d6000fd5b505b50505050505050565b6000806000809054906101000a900473ffffffffffffffffffffffffffffffffffffffff1673ffffffffffffffffffffffffffffffffffffffff1663a990b505846040518263ffffffff1660e01b8152600401808273ffffffffffffffffffffffffffffffffffffffff1673ffffffffffffffffffffffffffffffffffffffff16815260200191505060206040518083038186803b15801561113b57600080fd5b505afa15801561114f573d6000803e3d6000fd5b505050506040513d602081101561116557600080fd5b81019080805190602001909291905050509050600360009054906101000a900473ffffffffffffffffffffffffffffffffffffffff1673ffffffffffffffffffffffffffffffffffffffff1663f23f16e68260046040518363ffffffff1660e01b815260040180838152602001806020018281038252838181546001816001161561010002031660029004815260200191508054600181600116156101000203166002900480156112575780601f1061122c57610100808354040283529160200191611257565b820191906000526020600020905b81548152906001019060200180831161123a57829003601f168201915b5050935050505060206040518083038186803b15801561127657600080fd5b505afa15801561128a573d6000803e3d6000fd5b505050506040513d60208110156112a057600080fd5b8101908080519060200190929190505050915050919050565b600281565b600360009054906101000a900473ffffffffffffffffffffffffffffffffffffffff1673ffffffffffffffffffffffffffffffffffffffff163373ffffffffffffffffffffffffffffffffffffffff1614611364576040517f08c379a0000000000000000000000000000000000000000000000000000000008152600401808060200182810382526025815260200180612e0a6025913960400191505060405180910390fd5b813373ffffffffffffffffffffffffffffffffffffffff167f394027a5fa6e098a1191094d1719d6929b9abc535fcc0c8f448d6a4e75622276836040518082815260200191505060405180910390a36113bd82826123d0565b5050565b6000806000806000806113d2612c4b565b600660008060009054906101000a900473ffffffffffffffffffffffffffffffffffffffff1673ffffffffffffffffffffffffffffffffffffffff1663a990b5058b6040518263ffffffff1660e01b8152600401808273ffffffffffffffffffffffffffffffffffffffff1673ffffffffffffffffffffffffffffffffffffffff16815260200191505060206040518083038186803b15801561147457600080fd5b505afa158015611488573d6000803e3d6000fd5b505050506040513d602081101561149e57600080fd5b810190808051906020019092919050505081526020019081526020016000206040518060c0016040529081600082015481526020016001820160009054906101000a900473ffffffffffffffffffffffffffffffffffffffff1673ffffffffffffffffffffffffffffffffffffffff1673ffffffffffffffffffffffffffffffffffffffff1681526020016002820160009054906101000a900473ffffffffffffffffffffffffffffffffffffffff1673ffffffffffffffffffffffffffffffffffffffff1673ffffffffffffffffffffffffffffffffffffffff168152602001600382015481526020016004820160009054906101000a900460ff1660028111156115a657fe5b60028111156115b157fe5b81526020016004820160019054906101000a900460ff1660028111156115d357fe5b60028111156115de57fe5b815250509050806000015181602001518260400151836060015161160585600001516127ee565b600281111561161057fe5b61161d8660000151612a22565b600281111561162857fe5b9650965096509650965096505091939550919395565b6040518060400160405280601981526020017f53686f702077696e733b4368616c6c656e6765722077696e730000000000000081525081565b600360009054906101000a900473ffffffffffffffffffffffffffffffffffffffff1681565b600581815481106116aa57fe5b906000526020600020016000915090508054600181600116156101000203166002900480601f01602080910402602001604051908101604052809291908181526020018280546001816001161561010002031660029004801561174e5780601f106117235761010080835404028352916020019161174e565b820191906000526020600020905b81548152906001019060200180831161173157829003601f168201915b505050505081565b600260009054906101000a900473ffffffffffffffffffffffffffffffffffffffff1673ffffffffffffffffffffffffffffffffffffffff16638900bd22336040518263ffffffff1660e01b8152600401808273ffffffffffffffffffffffffffffffffffffffff1673ffffffffffffffffffffffffffffffffffffffff16815260200191505060206040518083038186803b1580156117f557600080fd5b505afa158015611809573d6000803e3d6000fd5b505050506040513d602081101561181f57600080fd5b81019080805190602001909291905050506118a2576040517f08c379a00000000000000000000000000000000000000000000000000000000081526004018080602001828103825260198152602001807f63616e206f6e6c792062652063616c6c65642062792043454f0000000000000081525060200191505060405180910390fd5b6000828290501161191b576040517f08c379a000000000000000000000000000000000000000000000000000000000815260040180806020018281038252601a8152602001807f646973707574652074797065206c696e6b20697320656d70747900000000000081525060200191505060405180910390fd5b60006001600584849091806001815401808255809150509060018203906000526020600020016000909192939091929390919290919250919061195f929190612cc3565b50039050807f61606860eb6c87306811e2695215385101daab53bd6ab4e9f9049aead9363c7d848460405180806020018281038252848482818152602001925080828437600081840152601f19601f820116905080830192505050935050505060405180910390a2505050565b60008282905011611a45576040517f08c379a00000000000000000000000000000000000000000000000000000000081526004018080602001828103825260168152602001807f65766964656e6365206c696e6b20697320656d7074790000000000000000000081525060200191505060405180910390fd5b60008060009054906101000a900473ffffffffffffffffffffffffffffffffffffffff1673ffffffffffffffffffffffffffffffffffffffff1663a990b505856040518263ffffffff1660e01b8152600401808273ffffffffffffffffffffffffffffffffffffffff1673ffffffffffffffffffffffffffffffffffffffff16815260200191505060206040518083038186803b158015611ae557600080fd5b505afa158015611af9573d6000803e3d6000fd5b505050506040513d6020811015611b0f57600080fd5b81019080805190602001909291905050509050600060066000838152602001908152602001600020905060016002811115611b4657fe5b611b538260000154612a22565b6002811115611b5e57fe5b14611bd1576040517f08c379a00000000000000000000000000000000000000000000000000000000081526004018080602001828103825260198152602001807f64697370757465206973206e6f742061707065616c61626c650000000000000081525060200191505060405180910390fd5b6000611be082600001546127ee565b905060016002811115611bef57fe5b816002811115611bfb57fe5b1415611cae578160020160009054906101000a900473ffffffffffffffffffffffffffffffffffffffff1673ffffffffffffffffffffffffffffffffffffffff163373ffffffffffffffffffffffffffffffffffffffff1614611ca9576040517f08c379a000000000000000000000000000000000000000000000000000000000815260040180806020018281038252602d815260200180612d69602d913960400191505060405180910390fd5b611e23565b600280811115611cba57fe5b816002811115611cc657fe5b1415611d79578160010160009054906101000a900473ffffffffffffffffffffffffffffffffffffffff1673ffffffffffffffffffffffffffffffffffffffff163373ffffffffffffffffffffffffffffffffffffffff1614611d74576040517f08c379a000000000000000000000000000000000000000000000000000000000815260040180806020018281038252602d815260200180612e5a602d913960400191505060405180910390fd5b611e22565b8160020160009054906101000a900473ffffffffffffffffffffffffffffffffffffffff1673ffffffffffffffffffffffffffffffffffffffff163373ffffffffffffffffffffffffffffffffffffffff1614611e21576040517f08c379a000000000000000000000000000000000000000000000000000000000815260040180806020018281038252602b815260200180612e2f602b913960400191505060405180910390fd5b5b5b6000600360009054906101000a900473ffffffffffffffffffffffffffffffffffffffff1673ffffffffffffffffffffffffffffffffffffffff1663f23f16e6846000015460046040518363ffffffff1660e01b81526004018083815260200180602001828103825283818154600181600116156101000203166002900481526020019150805460018160011615610100020316600290048015611f085780601f10611edd57610100808354040283529160200191611f08565b820191906000526020600020905b815481529060010190602001808311611eeb57829003601f168201915b5050935050505060206040518083038186803b158015611f2757600080fd5b505afa158015611f3b573d6000803e3d6000fd5b505050506040513d6020811015611f5157600080fd5b8101908080519060200190929190505050905080341015611fbd576040517f08c379a0000000000000000000000000000000000000000000000000000000008152600401808060200182810382526022815260200180612d966022913960400191505060405180910390fd5b600360009054906101000a900473ffffffffffffffffffffffffffffffffffffffff1673ffffffffffffffffffffffffffffffffffffffff166349912f8882856000015460046040518463ffffffff1660e01b815260040180838152602001806020018281038252838181546001816001161561010002031660029004815260200191508054600181600116156101000203166002900480156120a15780601f10612076576101008083540402835291602001916120a1565b820191906000526020600020905b81548152906001019060200180831161208457829003601f168201915b505093505050506000604051808303818588803b1580156120c157600080fd5b505af11580156120d5573d6000803e3d6000fd5b50505050503373ffffffffffffffffffffffffffffffffffffffff168360000154600360009054906101000a900473ffffffffffffffffffffffffffffffffffffffff1673ffffffffffffffffffffffffffffffffffffffff167fdccf2f8b2cc26eafcd61905cba744cff4b81d14740725f6376390dc6298a6a3c898960405180806020018281038252848482818152602001925080828437600081840152601f19601f820116905080830192505050935050505060405180910390a460006121a734836123b090919063ffffffff16565b905060008111156121fa573373ffffffffffffffffffffffffffffffffffffffff166108fc829081150290604051600060405180830381858888f193505050501580156121f8573d6000803e3d6000fd5b505b5050505050505050565b60006002600360009054906101000a900473ffffffffffffffffffffffffffffffffffffffff1673ffffffffffffffffffffffffffffffffffffffff1663f7434ea960046040518263ffffffff1660e01b815260040180806020018281038252838181546001816001161561010002031660029004815260200191508054600181600116156101000203166002900480156122e05780601f106122b5576101008083540402835291602001916122e0565b820191906000526020600020905b8154815290600101906020018083116122c357829003601f168201915b50509250505060206040518083038186803b1580156122fe57600080fd5b505afa158015612312573d6000803e3d6000fd5b505050506040513d602081101561232857600080fd5b810190808051906020019092919050505002905090565b6000809054906101000a900473ffffffffffffffffffffffffffffffffffffffff1681565b600260009054906101000a900473ffffffffffffffffffffffffffffffffffffffff1681565b600160009054906101000a900473ffffffffffffffffffffffffffffffffffffffff1681565b6000828211156123bf57600080fd5b600082840390508091505092915050565b60008160028111156123de57fe5b905060006006600085815260200190815260200160002090506001600281111561240457fe5b82600281111561241057fe5b14156124f7576000809054906101000a900473ffffffffffffffffffffffffffffffffffffffff1673ffffffffffffffffffffffffffffffffffffffff166390a0ed128260010160009054906101000a900473ffffffffffffffffffffffffffffffffffffffff166040518263ffffffff1660e01b8152600401808273ffffffffffffffffffffffffffffffffffffffff1673ffffffffffffffffffffffffffffffffffffffff168152602001915050600060405180830381600087803b1580156124da57600080fd5b505af11580156124ee573d6000803e3d6000fd5b5050505061274c565b60028081111561250357fe5b82600281111561250f57fe5b141561264e576000809054906101000a900473ffffffffffffffffffffffffffffffffffffffff1673ffffffffffffffffffffffffffffffffffffffff1663771306d48260010160009054906101000a900473ffffffffffffffffffffffffffffffffffffffff168360020160009054906101000a900473ffffffffffffffffffffffffffffffffffffffff166040518363ffffffff1660e01b8152600401808373ffffffffffffffffffffffffffffffffffffffff1673ffffffffffffffffffffffffffffffffffffffff1681526020018273ffffffffffffffffffffffffffffffffffffffff1673ffffffffffffffffffffffffffffffffffffffff16815260200192505050600060405180830381600087803b15801561263157600080fd5b505af1158015612645573d6000803e3d6000fd5b5050505061274b565b6000600281111561265b57fe5b82600281111561266757fe5b141561274a576000809054906101000a900473ffffffffffffffffffffffffffffffffffffffff1673ffffffffffffffffffffffffffffffffffffffff166390a0ed128260010160009054906101000a900473ffffffffffffffffffffffffffffffffffffffff166040518263ffffffff1660e01b8152600401808273ffffffffffffffffffffffffffffffffffffffff1673ffffffffffffffffffffffffffffffffffffffff168152602001915050600060405180830381600087803b15801561273157600080fd5b505af1158015612745573d6000803e3d6000fd5b505050505b5b5b600660008581526020019081526020016000206000808201600090556001820160006101000a81549073ffffffffffffffffffffffffffffffffffffffff02191690556002820160006101000a81549073ffffffffffffffffffffffffffffffffffffffff021916905560038201600090556004820160006101000a81549060ff02191690556004820160016101000a81549060ff0219169055505050505050565b60006127f8612c4b565b600660008481526020019081526020016000206040518060c0016040529081600082015481526020016001820160009054906101000a900473ffffffffffffffffffffffffffffffffffffffff1673ffffffffffffffffffffffffffffffffffffffff1673ffffffffffffffffffffffffffffffffffffffff1681526020016002820160009054906101000a900473ffffffffffffffffffffffffffffffffffffffff1673ffffffffffffffffffffffffffffffffffffffff1673ffffffffffffffffffffffffffffffffffffffff168152602001600382015481526020016004820160009054906101000a900460ff1660028111156128f457fe5b60028111156128ff57fe5b81526020016004820160019054906101000a900460ff16600281111561292157fe5b600281111561292c57fe5b81525050905060028081111561293e57fe5b8160a00151600281111561294e57fe5b14156129605780608001519150612a1c565b600360009054906101000a900473ffffffffffffffffffffffffffffffffffffffff1673ffffffffffffffffffffffffffffffffffffffff16631c3db16d846040518263ffffffff1660e01b81526004018082815260200191505060206040518083038186803b1580156129d357600080fd5b505afa1580156129e7573d6000803e3d6000fd5b505050506040513d60208110156129fd57600080fd5b81019080805190602001909291905050506002811115612a1957fe5b91505b50919050565b6000612a2c612c4b565b600660008481526020019081526020016000206040518060c0016040529081600082015481526020016001820160009054906101000a900473ffffffffffffffffffffffffffffffffffffffff1673ffffffffffffffffffffffffffffffffffffffff1673ffffffffffffffffffffffffffffffffffffffff1681526020016002820160009054906101000a900473ffffffffffffffffffffffffffffffffffffffff1673ffffffffffffffffffffffffffffffffffffffff1673ffffffffffffffffffffffffffffffffffffffff168152602001600382015481526020016004820160009054906101000a900460ff166002811115612b2857fe5b6002811115612b3357fe5b81526020016004820160019054906101000a900460ff166002811115612b5557fe5b6002811115612b6057fe5b815250509050600280811115612b7257fe5b8160a001516002811115612b8257fe5b1415612b94578060a001519150612c45565b600360009054906101000a900473ffffffffffffffffffffffffffffffffffffffff1673ffffffffffffffffffffffffffffffffffffffff166310f169e8846040518263ffffffff1660e01b81526004018082815260200191505060206040518083038186803b158015612c0757600080fd5b505afa158015612c1b573d6000803e3d6000fd5b505050506040513d6020811015612c3157600080fd5b810190808051906020019092919050505091505b50919050565b6040518060c0016040528060008152602001600073ffffffffffffffffffffffffffffffffffffffff168152602001600073ffffffffffffffffffffffffffffffffffffffff1681526020016000815260200160006002811115612cab57fe5b815260200160006002811115612cbd57fe5b81525090565b828054600181600116156101000203166002900490600052602060002090601f016020900481019282601f10612d0457803560ff1916838001178555612d32565b82800160010185558215612d32579182015b82811115612d31578235825591602001919060010190612d16565b5b509050612d3f9190612d43565b5090565b612d6591905b80821115612d61576000816000905550600101612d49565b5090565b9056fe73686f702072756c656420746f2077696e2c206f6e6c79206368616c6c656e6765722063616e2061707065616c73656e7420657468206973206c6f776572207468616e2061707065616c20636f737473686f70206f776e65722063616e6e6f742073746172742064697370757465206f6e206f776e2073686f7073656e7420657468206973206c6f776572207468616e206172626974726174696f6e20636f737443616e206f6e6c792062652063616c6c6564206279207468652061726269747261746f722e6e6f2072756c696e6720676976656e2c206f6e6c79206368616c6c656e6765722063616e2061707065616c6368616c6c656e6765722072756c656420746f2077696e2c206f6e6c792073686f702063616e2061707065616ca265627a7a72305820642e80a39007ba518d958681c64e726776adb753f4f721ed3464896df201751c64736f6c634300050a0032",
  "source": "pragma solidity ^0.5.10;\n\nimport \"openzeppelin-solidity/contracts/math/SafeMath.sol\";\n\nimport \"../interfaces/IUsers.sol\";\nimport \"../interfaces/IControl.sol\";\nimport \"../interfaces/IShops.sol\";\nimport \"../interfaces/IKlerosArbitrable.sol\";\n\ncontract ShopsDispute {\n  // ------------------------------------------------\n  //\n  // Libraries\n  //\n  // ------------------------------------------------\n\n  using SafeMath for uint;\n\n  // ------------------------------------------------\n  //\n  // Enums\n  //\n  // ------------------------------------------------\n\n  enum RulingOptions {NoRuling, ShopWins, ChallengerWins}\n  /* enum DisputeStatus {Waiting, Appealable, Solved} // copied from IKlerosArbitrable.sol */\n\n  // ------------------------------------------------\n  //\n  // Structs\n  //\n  // ------------------------------------------------\n\n  struct ShopDispute {\n    uint id;\n    address shop;\n    address challenger;\n    uint disputeType;\n    RulingOptions ruling;\n    IKlerosArbitrable.DisputeStatus status;\n  }\n\n  // ------------------------------------------------\n  //\n  // Variables Public\n  //\n  // ------------------------------------------------\n\n  // links to other contracts\n  IShops public shops;\n  IUsers public users;\n  IControl public control;\n  IKlerosArbitrable public arbitrator; // <-- kleros\n\n  // kleros related\n  string public constant RULING_OPTIONS = \"Shop wins;Challenger wins\";\n  uint8 public constant AMOUNT_OF_CHOICES = 2;\n  bytes public arbitratorExtraData;\n  string[] public disputeTypes;\n\n  // ------------------------------------------------\n  //\n  // Variables Private\n  //\n  // ------------------------------------------------\n\n  //      disputeId disputeStruct\n  mapping(uint =>   ShopDispute) private disputeIdToDispute;\n\n  // ------------------------------------------------\n  //\n  // Events\n  //\n  // ------------------------------------------------\n\n  event MetaEvidence(uint indexed _metaEvidenceID, string _evidence);\n  event Dispute(address indexed _arbitrator, uint indexed _disputeID, uint _metaEvidenceID);\n  event Evidence(address indexed _arbitrator, uint indexed _disputeID, address indexed _party, string _evidence);\n  event Ruling(address indexed _arbitrator, uint indexed _disputeID, uint _ruling);\n\n  // ------------------------------------------------\n  //\n  // Modifiers\n  //\n  // ------------------------------------------------\n\n  modifier onlyArbitrator {\n    require(msg.sender == address(arbitrator), \"Can only be called by the arbitrator.\");\n    _;\n  }\n\n  modifier onlyWhenCallerIsCEO {\n    require(control.isCEO(msg.sender), \"can only be called by CEO\");\n    _;\n  }\n\n\n  // ------------------------------------------------\n  //\n  // Events\n  //\n  // ------------------------------------------------\n\n  // ------------------------------------------------\n  //\n  // Constructor\n  //\n  // ------------------------------------------------\n\n  constructor(address _shops, address _users, address _control, address _arbitrator, bytes memory _arbitratorExtraData)\n    public\n  {\n    require(_shops != address(0), \"shops address cannot be 0x0\");\n    require(_users != address(0), \"users address cannot be 0x0\");\n    require(_control != address(0), \"control address cannot be 0x0\");\n    require(_arbitrator != address(0), \"arbitrator cannot be 0x0\");\n\n    shops = IShops(_shops);\n    users = IUsers(_users);\n    control = IControl(_control);\n\n    // kleros\n    arbitrator = IKlerosArbitrable(_arbitrator);\n    arbitratorExtraData = _arbitratorExtraData;\n  }\n\n  // ------------------------------------------------\n  //\n  // Functions Getters Public\n  //\n  // ------------------------------------------------\n\n  function getDisputeCreateCost()\n    public\n    view\n    returns (uint)\n  {\n    return arbitrator.arbitrationCost(arbitratorExtraData) * 2;\n  }\n\n  function getDisputeAppealCost(address _shopAddress)\n    external\n    view\n    returns (uint)\n  {\n    uint disputeID = shops.getShopDisputeID(_shopAddress);\n\n    return arbitrator.appealCost(disputeID, arbitratorExtraData);\n  }\n\n  function getDisputeStatus(uint _disputeID)\n    private\n    view\n    returns (IKlerosArbitrable.DisputeStatus disputeStatus)\n  {\n    ShopDispute memory dispute = disputeIdToDispute[_disputeID];\n\n    if (dispute.status == IKlerosArbitrable.DisputeStatus.Solved) {\n      // rule() in this contract was called, it set status to Solved and set the final Ruling\n      disputeStatus = dispute.status;\n    } else {\n      // dispute is not yet finalized, get current values from arbitrator contract\n      disputeStatus = arbitrator.disputeStatus(_disputeID); // returns IKlerosArbitrable.DisputeStatus\n    }\n  }\n\n  function getDisputeRuling(uint _disputeID)\n    private\n    view\n    returns (RulingOptions disputeRuling)\n  {\n    ShopDispute memory dispute = disputeIdToDispute[_disputeID];\n\n    if (dispute.status == IKlerosArbitrable.DisputeStatus.Solved) {\n      // rule() in this contract was called, it set status to Solved and set the final Ruling\n      disputeRuling = dispute.ruling;\n    } else {\n      // dispute is not yet finalized, get current values from arbitrator contract\n      disputeRuling = RulingOptions(arbitrator.currentRuling(_disputeID));\n    }\n  }\n\n  function getDispute(address _shopAddress)\n    public\n    view\n    returns (uint, address, address, uint, uint, uint)\n  {\n    ShopDispute memory dispute = disputeIdToDispute[shops.getShopDisputeID(_shopAddress)];\n\n    return (\n      dispute.id,\n      dispute.shop,\n      dispute.challenger,\n      dispute.disputeType,\n\n      // from arbitrator contract or this contract if finalized\n      uint(getDisputeRuling(dispute.id)),\n      uint(getDisputeStatus(dispute.id))\n    );\n  }\n\n  // ------------------------------------------------\n  //\n  // Functions Setters Public\n  //\n  // ------------------------------------------------\n\n  // so we can add new types of dispute in the future\n  function addDisputeType(string calldata _disputeTypeLink)\n    external\n    onlyWhenCallerIsCEO\n  {\n    require(bytes(_disputeTypeLink).length > 0, \"dispute type link is empty\");\n\n    uint metaEvidenceId = disputeTypes.push(_disputeTypeLink) - 1;\n\n    emit MetaEvidence(metaEvidenceId, _disputeTypeLink);\n  }\n\n  // called by somebody who wants to start a dispute with a shop\n  function createDispute(address _shopAddress, uint _metaEvidenceId, string memory _evidenceLink)\n    public\n    payable\n  {\n    require(_metaEvidenceId < disputeTypes.length, \"dispute type does not exist\");\n    require(bytes(_evidenceLink).length > 0, \"evidence link is empty\");\n    require(msg.sender != _shopAddress, \"shop owner cannot start dispute on own shop\");\n    require(!shops.hasDispute(_shopAddress), \"shop already has a dispute\");\n\n    uint arbitrationCost = getDisputeCreateCost();\n    require(msg.value >= arbitrationCost, \"sent eth is lower than arbitration cost\");\n\n    uint disputeID = arbitrator.createDispute.value(arbitrationCost)(AMOUNT_OF_CHOICES, arbitratorExtraData);\n\n    // create new Dispute\n    ShopDispute storage dispute = disputeIdToDispute[disputeID];\n    dispute.id = disputeID;\n    dispute.challenger = msg.sender;\n    dispute.shop = _shopAddress;\n    dispute.disputeType = _metaEvidenceId;\n    dispute.ruling = RulingOptions.NoRuling;\n    dispute.status = IKlerosArbitrable.DisputeStatus.Waiting;\n\n    shops.setDispute(_shopAddress, disputeID);\n\n    emit Dispute(address(arbitrator), disputeID, _metaEvidenceId);\n    emit Evidence(address(arbitrator), disputeID, msg.sender, _evidenceLink);\n\n    uint excessEth = arbitrationCost.sub(msg.value);\n    if (excessEth > 0) msg.sender.transfer(excessEth);\n  }\n\n  function appealDispute(address _shopAddress, string calldata _evidenceLink)\n    external\n    payable\n  {\n    require(bytes(_evidenceLink).length > 0, \"evidence link is empty\");\n\n    uint disputeID = shops.getShopDisputeID(_shopAddress);\n\n    ShopDispute storage dispute = disputeIdToDispute[disputeID];\n    require(getDisputeStatus(dispute.id) == IKlerosArbitrable.DisputeStatus.Appealable, \"dispute is not appealable\");\n\n    RulingOptions currentRuling = getDisputeRuling(dispute.id);\n    if (currentRuling == RulingOptions.ShopWins) {\n      require(msg.sender == dispute.challenger, \"shop ruled to win, only challenger can appeal\");\n    } else if (currentRuling == RulingOptions.ChallengerWins) {\n      require(msg.sender == dispute.shop, \"challenger ruled to win, only shop can appeal\");\n    } else {\n      require(msg.sender == dispute.challenger, \"no ruling given, only challenger can appeal\");\n    }\n\n    uint appealCost = arbitrator.appealCost(dispute.id, arbitratorExtraData);\n    require(msg.value >= appealCost, \"sent eth is lower than appeal cost\");\n\n    arbitrator.appeal.value(appealCost)(dispute.id, arbitratorExtraData);\n\n    emit Evidence(address(arbitrator), dispute.id, msg.sender, _evidenceLink);\n\n    uint excessEth = appealCost.sub(msg.value);\n    if (excessEth > 0) msg.sender.transfer(excessEth);\n  }\n\n  // called by rule() which is called by Kleros IKlerosArbitrable contract\n  function executeRuling(uint _disputeID, uint _ruling)\n    private\n  {\n    RulingOptions finalRuling = RulingOptions(_ruling);\n\n    ShopDispute storage dispute = disputeIdToDispute[_disputeID];\n\n    if (finalRuling == RulingOptions.ShopWins) {\n      shops.unsetDispute(dispute.shop);\n    } else if (finalRuling == RulingOptions.ChallengerWins) {\n      shops.removeDisputedShop(dispute.shop, dispute.challenger);\n    } else if (finalRuling == RulingOptions.NoRuling) {\n      shops.unsetDispute(dispute.shop);\n    }\n    delete disputeIdToDispute[_disputeID];\n  }\n  function rule(uint _disputeID, uint _ruling)\n    public\n    onlyArbitrator\n  {\n    emit Ruling(msg.sender, _disputeID, _ruling);\n\n    executeRuling(_disputeID,_ruling);\n  }\n}\n",
  "sourcePath": "/Users/mehdi/code/dether/contractV2/contracts/map/ShopsDispute.sol",
  "compiler": {
    "name": "solc",
    "version": "0.5.10+commit.5a6ea5b1.Emscripten.clang"
  },
  "schemaVersion": "3.0.11",
  "updatedAt": "2019-07-05T13:10:44.161Z",
  "devdoc": {
    "methods": {}
  },
  "userdoc": {
    "methods": {}
  }
}