{
  "contractName": "SmsCertifier",
  "abi": [
    {
      "constant": true,
      "inputs": [
        {
          "name": "_who",
          "type": "address"
        }
      ],
      "name": "isDelegate",
      "outputs": [
        {
          "name": "",
          "type": "bool"
        }
      ],
      "payable": false,
      "stateMutability": "view",
      "type": "function"
    },
    {
      "constant": false,
      "inputs": [
        {
          "name": "_who",
          "type": "address"
        }
      ],
      "name": "certify",
      "outputs": [],
      "payable": false,
      "stateMutability": "nonpayable",
      "type": "function"
    },
    {
      "constant": true,
      "inputs": [
        {
          "name": "",
          "type": "address"
        }
      ],
      "name": "certs",
      "outputs": [
        {
          "name": "active",
          "type": "bool"
        }
      ],
      "payable": false,
      "stateMutability": "view",
      "type": "function"
    },
    {
      "constant": true,
      "inputs": [
        {
          "name": "_who",
          "type": "address"
        },
        {
          "name": "_field",
          "type": "string"
        }
      ],
      "name": "getAddress",
      "outputs": [
        {
          "name": "",
          "type": "address"
        }
      ],
      "payable": false,
      "stateMutability": "view",
      "type": "function"
    },
    {
      "constant": true,
      "inputs": [
        {
          "name": "",
          "type": "address"
        }
      ],
      "name": "delegate",
      "outputs": [
        {
          "name": "active",
          "type": "bool"
        }
      ],
      "payable": false,
      "stateMutability": "view",
      "type": "function"
    },
    {
      "constant": false,
      "inputs": [
        {
          "name": "_delegate",
          "type": "address"
        }
      ],
      "name": "removeDelegate",
      "outputs": [],
      "payable": false,
      "stateMutability": "nonpayable",
      "type": "function"
    },
    {
      "constant": false,
      "inputs": [
        {
          "name": "_who",
          "type": "address"
        }
      ],
      "name": "revoke",
      "outputs": [],
      "payable": false,
      "stateMutability": "nonpayable",
      "type": "function"
    },
    {
      "constant": true,
      "inputs": [
        {
          "name": "_who",
          "type": "address"
        },
        {
          "name": "_field",
          "type": "string"
        }
      ],
      "name": "getUint",
      "outputs": [
        {
          "name": "",
          "type": "uint256"
        }
      ],
      "payable": false,
      "stateMutability": "view",
      "type": "function"
    },
    {
      "constant": true,
      "inputs": [
        {
          "name": "_who",
          "type": "address"
        }
      ],
      "name": "certified",
      "outputs": [
        {
          "name": "",
          "type": "bool"
        }
      ],
      "payable": false,
      "stateMutability": "view",
      "type": "function"
    },
    {
      "constant": true,
      "inputs": [],
      "name": "control",
      "outputs": [
        {
          "name": "",
          "type": "address"
        }
      ],
      "payable": false,
      "stateMutability": "view",
      "type": "function"
    },
    {
      "constant": false,
      "inputs": [
        {
          "name": "_delegate",
          "type": "address"
        }
      ],
      "name": "addDelegate",
      "outputs": [],
      "payable": false,
      "stateMutability": "nonpayable",
      "type": "function"
    },
    {
      "constant": true,
      "inputs": [
        {
          "name": "_who",
          "type": "address"
        },
        {
          "name": "_field",
          "type": "string"
        }
      ],
      "name": "get",
      "outputs": [
        {
          "name": "",
          "type": "bytes32"
        }
      ],
      "payable": false,
      "stateMutability": "view",
      "type": "function"
    },
    {
      "inputs": [
        {
          "name": "_control",
          "type": "address"
        }
      ],
      "payable": false,
      "stateMutability": "nonpayable",
      "type": "constructor"
    },
    {
      "anonymous": false,
      "inputs": [
        {
          "indexed": true,
          "name": "who",
          "type": "address"
        }
      ],
      "name": "CertifierConfirmed",
      "type": "event"
    },
    {
      "anonymous": false,
      "inputs": [
        {
          "indexed": true,
          "name": "who",
          "type": "address"
        }
      ],
      "name": "CertifierRevoked",
      "type": "event"
    },
    {
      "anonymous": false,
      "inputs": [
        {
          "indexed": true,
          "name": "who",
          "type": "address"
        }
      ],
      "name": "Confirmed",
      "type": "event"
    },
    {
      "anonymous": false,
      "inputs": [
        {
          "indexed": true,
          "name": "who",
          "type": "address"
        }
      ],
      "name": "Revoked",
      "type": "event"
    }
  ],
  "bytecode": "0x608060405234801561001057600080fd5b506040516020806107b4833981016040525160008054600160a060020a03909216600160a060020a0319909216919091179055610762806100526000396000f3006080604052600436106100b95763ffffffff7c01000000000000000000000000000000000000000000000000000000006000350416630777962781146100be57806314253887146100f35780631c8adb7f146101165780635283f339146101375780635c19a95c146101ba57806367e7646f146101db57806374a8f103146101fc578063ca4cbf671461021d578063cc1d4c0214610296578063d8de6587146102b7578063e71bdf41146102cc578063fc2525ab1461021d575b600080fd5b3480156100ca57600080fd5b506100df600160a060020a03600435166102ed565b604080519115158252519081900360200190f35b3480156100ff57600080fd5b50610114600160a060020a036004351661030b565b005b34801561012257600080fd5b506100df600160a060020a0360043516610379565b34801561014357600080fd5b5060408051602060046024803582810135601f810185900485028601850190965285855261019e958335600160a060020a031695369560449491939091019190819084018382808284375094975061038e9650505050505050565b60408051600160a060020a039092168252519081900360200190f35b3480156101c657600080fd5b506100df600160a060020a036004351661041d565b3480156101e757600080fd5b50610114600160a060020a0360043516610432565b34801561020857600080fd5b50610114600160a060020a0360043516610553565b34801561022957600080fd5b5060408051602060046024803582810135601f8101859004850286018501909652858552610284958335600160a060020a031695369560449491939091019190819084018382808284375094975061038e9650505050505050565b60408051918252519081900360200190f35b3480156102a257600080fd5b506100df600160a060020a03600435166105e5565b3480156102c357600080fd5b5061019e610603565b3480156102d857600080fd5b50610114600160a060020a0360043516610612565b600160a060020a031660009081526002602052604090205460ff1690565b3360008181526002602052604090205460ff16151561032957600080fd5b600160a060020a0382166000818152600160208190526040808320805460ff1916909217909155517fcd21f5cc0441a21c66e8cbee583588c66c2e34ab3766a08e3a7a5e4422f8d17b9190a25050565b60016020526000908152604090205460ff1681565b60006001600084600160a060020a0316600160a060020a03168152602001908152602001600020600101826040518082805190602001908083835b602083106103e85780518252601f1990920191602091820191016103c9565b51815160209384036101000a600019018019909216911617905292019485525060405193849003019092205495945050505050565b60026020526000908152604090205460ff1681565b60008054604080517f8900bd220000000000000000000000000000000000000000000000000000000081523360048201529051600160a060020a0390921692638900bd22926024808401936020939083900390910190829087803b15801561049957600080fd5b505af11580156104ad573d6000803e3d6000fd5b505050506040513d60208110156104c357600080fd5b5051151561053257604080517f08c379a000000000000000000000000000000000000000000000000000000000815260206004820152601660248201527f63616c6c6572206e6565647320746f2062652043454f00000000000000000000604482015290519081900360640190fd5b600160a060020a03166000908152600260205260409020805460ff19169055565b3360008181526002602052604090205460ff16151561057157600080fd5b600160a060020a038216600090815260016020526040902054829060ff16151561059a57600080fd5b600160a060020a038316600081815260016020526040808220805460ff19169055517facb594097a8aa89d56ff24dffeb0a4669090559f677cc6842ff41d20a14262199190a2505050565b600160a060020a031660009081526001602052604090205460ff1690565b600054600160a060020a031681565b60008054604080517f8900bd220000000000000000000000000000000000000000000000000000000081523360048201529051600160a060020a0390921692638900bd22926024808401936020939083900390910190829087803b15801561067957600080fd5b505af115801561068d573d6000803e3d6000fd5b505050506040513d60208110156106a357600080fd5b5051151561071257604080517f08c379a000000000000000000000000000000000000000000000000000000000815260206004820152601660248201527f63616c6c6572206e6565647320746f2062652043454f00000000000000000000604482015290519081900360640190fd5b600160a060020a03166000908152600260205260409020805460ff191660011790555600a165627a7a7230582053fbe96f08e54d69a80b451a7c117b6996ef85ebdda947191d0887bde973e27f0029",
  "source": "//! The SMS-verification contract\n//!\n//! Copyright 2017 Gavin Wood, Parity Technologies Ltd.\n//!\n//! Licensed under the Apache License, Version 2.0 (the \"License\");\n//! you may not use this file except in compliance with the License.\n//! You may obtain a copy of the License at\n//!\n//!     http://www.apache.org/licenses/LICENSE-2.0\n//!\n//! Unless required by applicable law or agreed to in writing, software\n//! distributed under the License is distributed on an \"AS IS\" BASIS,\n//! WITHOUT WARRANTIES OR CONDITIONS OF ANY KIND, either express or implied.\n//! See the License for the specific language governing permissions and\n//! limitations under the License.\n//\n// NOTE: added parent ICertifier to SmsCertifier contract\n//\n\npragma solidity ^0.4.24;\n\nimport \"./CertifierBase.sol\";\n\ncontract SmsCertifier is CertifierBase {\n\tconstructor(address _control)\n\t\tCertifierBase(_control)\n\t\tpublic\n\t{}\n}\n",
  "sourcePath": "/Users/trip/Projects/detherContracts/contracts/certifier/SmsCertifier.sol",
  "compiler": {
    "name": "solc",
    "version": "0.4.24+commit.e67f0147.Emscripten.clang"
  },
  "schemaVersion": "2.0.1",
  "updatedAt": "2018-11-28T16:15:51.915Z"
}