{
  "contractName": "TaxCollector",
  "abi": [
    {
      "constant": true,
      "inputs": [],
      "name": "dth",
      "outputs": [
        {
          "name": "",
          "type": "address"
        }
      ],
      "payable": false,
      "stateMutability": "view",
      "type": "function"
    },
    {
      "constant": true,
      "inputs": [],
      "name": "unchangeable",
      "outputs": [
        {
          "name": "",
          "type": "bool"
        }
      ],
      "payable": false,
      "stateMutability": "view",
      "type": "function"
    },
    {
      "constant": false,
      "inputs": [],
      "name": "renounceOwnership",
      "outputs": [],
      "payable": false,
      "stateMutability": "nonpayable",
      "type": "function"
    },
    {
      "constant": true,
      "inputs": [],
      "name": "taxRecipient",
      "outputs": [
        {
          "name": "",
          "type": "address"
        }
      ],
      "payable": false,
      "stateMutability": "view",
      "type": "function"
    },
    {
      "constant": true,
      "inputs": [],
      "name": "owner",
      "outputs": [
        {
          "name": "",
          "type": "address"
        }
      ],
      "payable": false,
      "stateMutability": "view",
      "type": "function"
    },
    {
      "constant": true,
      "inputs": [],
      "name": "isOwner",
      "outputs": [
        {
          "name": "",
          "type": "bool"
        }
      ],
      "payable": false,
      "stateMutability": "view",
      "type": "function"
    },
    {
      "constant": false,
      "inputs": [
        {
          "name": "newOwner",
          "type": "address"
        }
      ],
      "name": "transferOwnership",
      "outputs": [],
      "payable": false,
      "stateMutability": "nonpayable",
      "type": "function"
    },
    {
      "inputs": [
        {
          "name": "_dth",
          "type": "address"
        },
        {
          "name": "_taxRecipient",
          "type": "address"
        }
      ],
      "payable": false,
      "stateMutability": "nonpayable",
      "type": "constructor"
    },
    {
      "anonymous": false,
      "inputs": [
        {
          "indexed": true,
          "name": "tokenFrom",
          "type": "address"
        },
        {
          "indexed": false,
          "name": "taxes",
          "type": "uint256"
        },
        {
          "indexed": true,
          "name": "from",
          "type": "address"
        }
      ],
      "name": "ReceivedTaxes",
      "type": "event"
    },
    {
      "anonymous": false,
      "inputs": [
        {
          "indexed": true,
          "name": "previousOwner",
          "type": "address"
        },
        {
          "indexed": true,
          "name": "newOwner",
          "type": "address"
        }
      ],
      "name": "OwnershipTransferred",
      "type": "event"
    },
    {
      "constant": false,
      "inputs": [],
      "name": "unchangeableRecipient",
      "outputs": [],
      "payable": false,
      "stateMutability": "nonpayable",
      "type": "function"
    },
    {
      "constant": false,
      "inputs": [
        {
          "name": "_newRecipient",
          "type": "address"
        }
      ],
      "name": "changeRecipient",
      "outputs": [],
      "payable": false,
      "stateMutability": "nonpayable",
      "type": "function"
    },
    {
      "constant": false,
      "inputs": [],
      "name": "collect",
      "outputs": [],
      "payable": false,
      "stateMutability": "nonpayable",
      "type": "function"
    },
    {
      "constant": false,
      "inputs": [
        {
          "name": "_from",
          "type": "address"
        },
        {
          "name": "_value",
          "type": "uint256"
        },
        {
          "name": "_data",
          "type": "bytes"
        }
      ],
      "name": "tokenFallback",
      "outputs": [],
      "payable": false,
      "stateMutability": "nonpayable",
      "type": "function"
    }
  ],
  "bytecode": "0x608060405234801561001057600080fd5b50604051610b4d380380610b4d8339818101604052604081101561003357600080fd5b810190808051906020019092919080519060200190929190505050336000806101000a81548173ffffffffffffffffffffffffffffffffffffffff021916908373ffffffffffffffffffffffffffffffffffffffff1602179055506000809054906101000a900473ffffffffffffffffffffffffffffffffffffffff1673ffffffffffffffffffffffffffffffffffffffff16600073ffffffffffffffffffffffffffffffffffffffff167f8be0079c531659141344cd1fd0a4f28419497f9722a3daafe3b4186f6b6457e060405160405180910390a381600260006101000a81548173ffffffffffffffffffffffffffffffffffffffff021916908373ffffffffffffffffffffffffffffffffffffffff16021790555080600160006101000a81548173ffffffffffffffffffffffffffffffffffffffff021916908373ffffffffffffffffffffffffffffffffffffffff16021790555050506109b08061019d6000396000f3fe608060405234801561001057600080fd5b50600436106100a95760003560e01c80638da5cb5b116100715780638da5cb5b146101785780638f32d59b146101c257806392c2bcb4146101e4578063c0ee0b8a14610228578063e52253811461030d578063f2fde38b14610317576100a9565b806301e57a37146100ae5780630a438506146100f85780634caacd7514610102578063715018a614610124578063737ea06e1461012e575b600080fd5b6100b661035b565b604051808273ffffffffffffffffffffffffffffffffffffffff1673ffffffffffffffffffffffffffffffffffffffff16815260200191505060405180910390f35b610100610381565b005b61010a6103ae565b604051808215151515815260200191505060405180910390f35b61012c6103c1565b005b610136610491565b604051808273ffffffffffffffffffffffffffffffffffffffff1673ffffffffffffffffffffffffffffffffffffffff16815260200191505060405180910390f35b6101806104b7565b604051808273ffffffffffffffffffffffffffffffffffffffff1673ffffffffffffffffffffffffffffffffffffffff16815260200191505060405180910390f35b6101ca6104e0565b604051808215151515815260200191505060405180910390f35b610226600480360360208110156101fa57600080fd5b81019080803573ffffffffffffffffffffffffffffffffffffffff169060200190929190505050610537565b005b61030b6004803603606081101561023e57600080fd5b81019080803573ffffffffffffffffffffffffffffffffffffffff169060200190929190803590602001909291908035906020019064010000000081111561028557600080fd5b82018360208201111561029757600080fd5b803590602001918460018302840111640100000000831117156102b957600080fd5b91908080601f016020809104026020016040519081016040528093929190818152602001838380828437600081840152601f19601f8201169050808301925050505050505091929192905050506105f2565b005b61031561065c565b005b6103596004803603602081101561032d57600080fd5b81019080803573ffffffffffffffffffffffffffffffffffffffff169060200190929190505050610844565b005b600260009054906101000a900473ffffffffffffffffffffffffffffffffffffffff1681565b6103896104e0565b61039257600080fd5b60018060146101000a81548160ff021916908315150217905550565b600160149054906101000a900460ff1681565b6103c96104e0565b6103d257600080fd5b600073ffffffffffffffffffffffffffffffffffffffff166000809054906101000a900473ffffffffffffffffffffffffffffffffffffffff1673ffffffffffffffffffffffffffffffffffffffff167f8be0079c531659141344cd1fd0a4f28419497f9722a3daafe3b4186f6b6457e060405160405180910390a360008060006101000a81548173ffffffffffffffffffffffffffffffffffffffff021916908373ffffffffffffffffffffffffffffffffffffffff160217905550565b600160009054906101000a900473ffffffffffffffffffffffffffffffffffffffff1681565b60008060009054906101000a900473ffffffffffffffffffffffffffffffffffffffff16905090565b60008060009054906101000a900473ffffffffffffffffffffffffffffffffffffffff1673ffffffffffffffffffffffffffffffffffffffff163373ffffffffffffffffffffffffffffffffffffffff1614905090565b61053f6104e0565b61054857600080fd5b600160149054906101000a900460ff16156105ae576040517f08c379a000000000000000000000000000000000000000000000000000000000815260040180806020018281038252602281526020018061095a6022913960400191505060405180910390fd5b80600160006101000a81548173ffffffffffffffffffffffffffffffffffffffff021916908373ffffffffffffffffffffffffffffffffffffffff16021790555050565b8273ffffffffffffffffffffffffffffffffffffffff163373ffffffffffffffffffffffffffffffffffffffff167ff0ebe2c179d608bf15836cc8ed5ca1d42c2bc2b05f40b3dcb68b2f2b455e48b9846040518082815260200191505060405180910390a3505050565b6000600260009054906101000a900473ffffffffffffffffffffffffffffffffffffffff1673ffffffffffffffffffffffffffffffffffffffff166370a08231306040518263ffffffff1660e01b8152600401808273ffffffffffffffffffffffffffffffffffffffff1673ffffffffffffffffffffffffffffffffffffffff16815260200191505060206040518083038186803b1580156106fd57600080fd5b505afa158015610711573d6000803e3d6000fd5b505050506040513d602081101561072757600080fd5b81019080805190602001909291905050509050600260009054906101000a900473ffffffffffffffffffffffffffffffffffffffff1673ffffffffffffffffffffffffffffffffffffffff1663a9059cbb600160009054906101000a900473ffffffffffffffffffffffffffffffffffffffff16836040518363ffffffff1660e01b8152600401808373ffffffffffffffffffffffffffffffffffffffff1673ffffffffffffffffffffffffffffffffffffffff16815260200182815260200192505050602060405180830381600087803b15801561080557600080fd5b505af1158015610819573d6000803e3d6000fd5b505050506040513d602081101561082f57600080fd5b81019080805190602001909291905050505050565b61084c6104e0565b61085557600080fd5b61085e81610861565b50565b600073ffffffffffffffffffffffffffffffffffffffff168173ffffffffffffffffffffffffffffffffffffffff16141561089b57600080fd5b8073ffffffffffffffffffffffffffffffffffffffff166000809054906101000a900473ffffffffffffffffffffffffffffffffffffffff1673ffffffffffffffffffffffffffffffffffffffff167f8be0079c531659141344cd1fd0a4f28419497f9722a3daafe3b4186f6b6457e060405160405180910390a3806000806101000a81548173ffffffffffffffffffffffffffffffffffffffff021916908373ffffffffffffffffffffffffffffffffffffffff1602179055505056fe496d706f737369626c6520746f206368616e67652074686520726563697069656e74a265627a7a7230582088a585b0220115db2ee9076c2772d1d197b5ed99a81826a4486e6ae52efe805664736f6c634300050a0032",
  "source": "pragma solidity ^0.5.10;\n\nimport \"openzeppelin-solidity/contracts/ownership/Ownable.sol\";\n\nimport \"../interfaces/IERC223ReceivingContract.sol\";\nimport \"../interfaces/IDetherToken.sol\";\n\n\ncontract TaxCollector is IERC223ReceivingContract, Ownable {\n\n    // Address where collected taxes are sent to\n    address public taxRecipient;\n    bool public unchangeable;\n    IDetherToken public dth;\n    // Daily tax rate (there are no floats in solidity)\n    event ReceivedTaxes(address indexed tokenFrom, uint taxes, address indexed from);\n\n    constructor (address _dth, address _taxRecipient) public {\n        dth = IDetherToken(_dth);\n        taxRecipient = _taxRecipient;\n    }\n\n    function unchangeableRecipient()\n      onlyOwner\n      external\n    {\n        unchangeable = true;\n    }\n\n    function changeRecipient(address _newRecipient)\n      external \n      onlyOwner\n    {\n        require(!unchangeable, 'Impossible to change the recipient');\n        taxRecipient = _newRecipient;\n    }\n\n    function collect()\n      public\n    {\n        uint balance = dth.balanceOf(address(this));\n        dth.transfer(taxRecipient, balance);\n    }\n\n    function tokenFallback(address _from, uint _value, bytes memory _data) \n      public\n    {\n      emit ReceivedTaxes(msg.sender, _value, _from);\n    }\n}",
  "sourcePath": "/Users/mehdi/code/dether/contractV2/contracts/core/TaxCollector.sol",
  "compiler": {
    "name": "solc",
    "version": "0.5.10+commit.5a6ea5b1.Emscripten.clang"
  },
  "schemaVersion": "3.0.11",
  "updatedAt": "2019-08-28T10:41:09.271Z",
  "devdoc": {
    "methods": {
      "isOwner()": {
        "return": "true if `msg.sender` is the owner of the contract."
      },
      "owner()": {
        "return": "the address of the owner."
      },
      "renounceOwnership()": {
        "details": "Allows the current owner to relinquish control of the contract."
      },
      "transferOwnership(address)": {
        "details": "Allows the current owner to transfer control of the contract to a newOwner.",
        "params": {
          "newOwner": "The address to transfer ownership to."
        }
      }
    }
  },
  "userdoc": {
    "methods": {
      "renounceOwnership()": {
        "notice": "Renouncing to ownership will leave the contract without an owner. It will not be possible to call the functions with the `onlyOwner` modifier anymore."
      }
    }
  }
}