{
  "contractName": "Teller",
  "abi": [
    {
      "constant": true,
      "inputs": [],
      "name": "control",
      "outputs": [
        {
          "name": "",
          "type": "address"
        }
      ],
      "payable": false,
      "stateMutability": "view",
      "type": "function"
    },
    {
      "constant": true,
      "inputs": [],
      "name": "geo",
      "outputs": [
        {
          "name": "",
          "type": "address"
        }
      ],
      "payable": false,
      "stateMutability": "view",
      "type": "function"
    },
    {
      "constant": true,
      "inputs": [
        {
          "name": "",
          "type": "address"
        }
      ],
      "name": "withdrawableEth",
      "outputs": [
        {
          "name": "",
          "type": "uint256"
        }
      ],
      "payable": false,
      "stateMutability": "view",
      "type": "function"
    },
    {
      "constant": true,
      "inputs": [
        {
          "name": "",
          "type": "address"
        },
        {
          "name": "",
          "type": "address"
        }
      ],
      "name": "canPlaceCertifiedComment",
      "outputs": [
        {
          "name": "",
          "type": "uint256"
        }
      ],
      "payable": false,
      "stateMutability": "view",
      "type": "function"
    },
    {
      "constant": true,
      "inputs": [],
      "name": "zone",
      "outputs": [
        {
          "name": "",
          "type": "address"
        }
      ],
      "payable": false,
      "stateMutability": "view",
      "type": "function"
    },
    {
      "constant": false,
      "inputs": [
        {
          "name": "_geo",
          "type": "address"
        },
        {
          "name": "_control",
          "type": "address"
        },
        {
          "name": "_zone",
          "type": "address"
        }
      ],
      "name": "init",
      "outputs": [],
      "payable": false,
      "stateMutability": "nonpayable",
      "type": "function"
    },
    {
      "constant": true,
      "inputs": [],
      "name": "getCertifiedComments",
      "outputs": [
        {
          "name": "",
          "type": "bytes32[]"
        }
      ],
      "payable": false,
      "stateMutability": "view",
      "type": "function"
    },
    {
      "constant": true,
      "inputs": [],
      "name": "getComments",
      "outputs": [
        {
          "name": "",
          "type": "bytes32[]"
        }
      ],
      "payable": false,
      "stateMutability": "view",
      "type": "function"
    },
    {
      "constant": true,
      "inputs": [
        {
          "name": "_value",
          "type": "uint256"
        }
      ],
      "name": "calcReferrerFee",
      "outputs": [
        {
          "name": "referrerAmount",
          "type": "uint256"
        }
      ],
      "payable": false,
      "stateMutability": "view",
      "type": "function"
    },
    {
      "constant": true,
      "inputs": [],
      "name": "getTeller",
      "outputs": [
        {
          "name": "addr",
          "type": "address"
        },
        {
          "name": "currencyId",
          "type": "uint8"
        },
        {
          "name": "messenger",
          "type": "bytes16"
        },
        {
          "name": "position",
          "type": "bytes12"
        },
        {
          "name": "settings",
          "type": "bytes1"
        },
        {
          "name": "buyRate",
          "type": "int16"
        },
        {
          "name": "sellRate",
          "type": "int16"
        },
        {
          "name": "referrer",
          "type": "address"
        }
      ],
      "payable": false,
      "stateMutability": "view",
      "type": "function"
    },
    {
      "constant": true,
      "inputs": [],
      "name": "getReferrer",
      "outputs": [
        {
          "name": "ref",
          "type": "address"
        },
        {
          "name": "refFee",
          "type": "uint256"
        }
      ],
      "payable": false,
      "stateMutability": "view",
      "type": "function"
    },
    {
      "constant": true,
      "inputs": [],
      "name": "hasTeller",
      "outputs": [
        {
          "name": "",
          "type": "bool"
        }
      ],
      "payable": false,
      "stateMutability": "view",
      "type": "function"
    },
    {
      "constant": false,
      "inputs": [],
      "name": "removeTellerByZone",
      "outputs": [],
      "payable": false,
      "stateMutability": "nonpayable",
      "type": "function"
    },
    {
      "constant": false,
      "inputs": [],
      "name": "removeTeller",
      "outputs": [],
      "payable": false,
      "stateMutability": "nonpayable",
      "type": "function"
    },
    {
      "constant": false,
      "inputs": [
        {
          "name": "_position",
          "type": "bytes"
        },
        {
          "name": "_currencyId",
          "type": "uint8"
        },
        {
          "name": "_messenger",
          "type": "bytes16"
        },
        {
          "name": "_sellRate",
          "type": "int16"
        },
        {
          "name": "_buyRate",
          "type": "int16"
        },
        {
          "name": "_settings",
          "type": "bytes1"
        },
        {
          "name": "_referrer",
          "type": "address"
        },
        {
          "name": "_refFee",
          "type": "uint256"
        }
      ],
      "name": "addTeller",
      "outputs": [],
      "payable": false,
      "stateMutability": "nonpayable",
      "type": "function"
    },
    {
      "constant": false,
      "inputs": [
        {
          "name": "_commentHash",
          "type": "bytes32"
        }
      ],
      "name": "addComment",
      "outputs": [],
      "payable": false,
      "stateMutability": "nonpayable",
      "type": "function"
    }
  ],
  "bytecode": "0x608060405234801561001057600080fd5b50612906806100206000396000f3fe608060405234801561001057600080fd5b50600436106101005760003560e01c8063a74255b011610097578063e0df216c11610066578063e0df216c1461062d578063e3653b4914610685578063efcb5ba6146106fd578063f310b9851461070757610100565b8063a74255b014610561578063b030b1f71461058f578063d8de658714610599578063d944e6a3146105e357610100565b806391f3410c116100d357806391f3410c1461027b578063933f6345146102da5780639787d107146103ee5780639e1e61601461053f57610100565b806309948da514610105578063184b9559146101645780635e52a00b146101e85780636cea244b14610239575b600080fd5b61010d610751565b6040518080602001828103825283818151815260200191508051906020019060200280838360005b83811015610150578082015181840152602081019050610135565b505050509050019250505060405180910390f35b6101e66004803603606081101561017a57600080fd5b81019080803573ffffffffffffffffffffffffffffffffffffffff169060200190929190803573ffffffffffffffffffffffffffffffffffffffff169060200190929190803573ffffffffffffffffffffffffffffffffffffffff1690602001909291905050506107a9565b005b6101f0610915565b604051808373ffffffffffffffffffffffffffffffffffffffff1673ffffffffffffffffffffffffffffffffffffffff1681526020018281526020019250505060405180910390f35b6102656004803603602081101561024f57600080fd5b810190808035906020019092919050505061094c565b6040518082815260200191505060405180910390f35b610283610981565b6040518080602001828103825283818151815260200191508051906020019060200280838360005b838110156102c65780820151818401526020810190506102ab565b505050509050019250505060405180910390f35b6103ec60048036036101008110156102f157600080fd5b810190808035906020019064010000000081111561030e57600080fd5b82018360208201111561032057600080fd5b8035906020019184600183028401116401000000008311171561034257600080fd5b9091929391929390803560ff16906020019092919080356fffffffffffffffffffffffffffffffff19169060200190929190803560010b9060200190929190803560010b906020019092919080357effffffffffffffffffffffffffffffffffffffffffffffffffffffffffffff19169060200190929190803573ffffffffffffffffffffffffffffffffffffffff169060200190929190803590602001909291905050506109d9565b005b6103f66116e8565b604051808973ffffffffffffffffffffffffffffffffffffffff1673ffffffffffffffffffffffffffffffffffffffff1681526020018860ff1660ff168152602001876fffffffffffffffffffffffffffffffff19166fffffffffffffffffffffffffffffffff191681526020018673ffffffffffffffffffffffffffffffffffffffff191673ffffffffffffffffffffffffffffffffffffffff19168152602001857effffffffffffffffffffffffffffffffffffffffffffffffffffffffffffff19167effffffffffffffffffffffffffffffffffffffffffffffffffffffffffffff191681526020018460010b60010b81526020018360010b60010b81526020018273ffffffffffffffffffffffffffffffffffffffff1673ffffffffffffffffffffffffffffffffffffffff1681526020019850505050505050505060405180910390f35b6105476117ca565b604051808215151515815260200191505060405180910390f35b61058d6004803603602081101561057757600080fd5b8101908080359060200190929190505050611818565b005b610597611f12565b005b6105a1611fe7565b604051808273ffffffffffffffffffffffffffffffffffffffff1673ffffffffffffffffffffffffffffffffffffffff16815260200191505060405180910390f35b6105eb61200d565b604051808273ffffffffffffffffffffffffffffffffffffffff1673ffffffffffffffffffffffffffffffffffffffff16815260200191505060405180910390f35b61066f6004803603602081101561064357600080fd5b81019080803573ffffffffffffffffffffffffffffffffffffffff169060200190929190505050612033565b6040518082815260200191505060405180910390f35b6106e76004803603604081101561069b57600080fd5b81019080803573ffffffffffffffffffffffffffffffffffffffff169060200190929190803573ffffffffffffffffffffffffffffffffffffffff16906020019092919050505061204b565b6040518082815260200191505060405180910390f35b610705612070565b005b61070f612382565b604051808273ffffffffffffffffffffffffffffffffffffffff1673ffffffffffffffffffffffffffffffffffffffff16815260200191505060405180910390f35b6060600a80548060200260200160405190810160405280929190818152602001828054801561079f57602002820191906000526020600020905b81548152602001906001019080831161078b575b5050505050905090565b60001515600460009054906101000a900460ff16151514610832576040517f08c379a000000000000000000000000000000000000000000000000000000000815260040180806020018281038252601c8152602001807f636f6e747261637420616c726561647920696e697469616c697a65640000000081525060200191505060405180910390fd5b80600460016101000a81548173ffffffffffffffffffffffffffffffffffffffff021916908373ffffffffffffffffffffffffffffffffffffffff16021790555082600560006101000a81548173ffffffffffffffffffffffffffffffffffffffff021916908373ffffffffffffffffffffffffffffffffffffffff16021790555081600660006101000a81548173ffffffffffffffffffffffffffffffffffffffff021916908373ffffffffffffffffffffffffffffffffffffffff1602179055506001600460006101000a81548160ff021916908315150217905550505050565b600080600060020160029054906101000a900473ffffffffffffffffffffffffffffffffffffffff16600060030154915091509091565b600061097a60006003015461096c6103e8856123a890919063ffffffff16565b6123ce90919063ffffffff16565b9050919050565b606060098054806020026020016040519081016040528092919081815260200182805480156109cf57602002820191906000526020600020905b8154815260200190600101908083116109bb575b5050505050905090565b60011515600460009054906101000a900460ff16151514610a62576040517f08c379a000000000000000000000000000000000000000000000000000000000815260040180806020018281038252601c8152602001807f636f6e7472616374206e6f742079657420696e697469616c697a65640000000081525060200191505060405180910390fd5b600560009054906101000a900473ffffffffffffffffffffffffffffffffffffffff1673ffffffffffffffffffffffffffffffffffffffff16630dc210aa600460019054906101000a900473ffffffffffffffffffffffffffffffffffffffff1673ffffffffffffffffffffffffffffffffffffffff1663d8b0b4996040518163ffffffff1660e01b815260040160206040518083038186803b158015610b0857600080fd5b505afa158015610b1c573d6000803e3d6000fd5b505050506040513d6020811015610b3257600080fd5b81019080805190602001909291905050506040518263ffffffff1660e01b815260040180827dffffffffffffffffffffffffffffffffffffffffffffffffffffffffffff19167dffffffffffffffffffffffffffffffffffffffffffffffffffffffffffff1916815260200191505060206040518083038186803b158015610bb957600080fd5b505afa158015610bcd573d6000803e3d6000fd5b505050506040513d6020811015610be357600080fd5b8101908080519060200190929190505050610c66576040517f08c379a00000000000000000000000000000000000000000000000000000000081526004018080602001828103825260138152602001807f636f756e7472792069732064697361626c65640000000000000000000000000081525060200191505060405180910390fd5b600460019054906101000a900473ffffffffffffffffffffffffffffffffffffffff1673ffffffffffffffffffffffffffffffffffffffff166340be3e6a6040518163ffffffff1660e01b8152600401600060405180830381600087803b158015610cd057600080fd5b505af1158015610ce4573d6000803e3d6000fd5b50505050600460019054906101000a900473ffffffffffffffffffffffffffffffffffffffff1673ffffffffffffffffffffffffffffffffffffffff16639c675eaa6040518163ffffffff1660e01b815260040160206040518083038186803b158015610d5057600080fd5b505afa158015610d64573d6000803e3d6000fd5b505050506040513d6020811015610d7a57600080fd5b810190808051906020019092919050505073ffffffffffffffffffffffffffffffffffffffff163373ffffffffffffffffffffffffffffffffffffffff1614610e2b576040517f08c379a00000000000000000000000000000000000000000000000000000000081526004018080602001828103825260178152602001807f63616c6c6572206973206e6f74207a6f6e656f776e657200000000000000000081525060200191505060405180910390fd5b600060a01b73ffffffffffffffffffffffffffffffffffffffff1916600060010160109054906101000a900460a01b73ffffffffffffffffffffffffffffffffffffffff191614610ee4576040517f08c379a00000000000000000000000000000000000000000000000000000000081526004018080602001828103825260158152602001807f616c7265616479206578697374732074656c6c6572000000000000000000000081525060200191505060405180910390fd5b600c8989905014610f5d576040517f08c379a00000000000000000000000000000000000000000000000000000000081526004018080602001828103825260208152602001807f657870656374656420706f736974696f6e20746f20626520313220627974657381525060200191505060405180910390fd5b600460019054906101000a900473ffffffffffffffffffffffffffffffffffffffff1673ffffffffffffffffffffffffffffffffffffffff166308e44f886040518163ffffffff1660e01b815260040160206040518083038186803b158015610fc557600080fd5b505afa158015610fd9573d6000803e3d6000fd5b505050506040513d6020811015610fef57600080fd5b810190808051906020019092919050505079ffffffffffffffffffffffffffffffffffffffffffffffffffff191661106c8a8a8080601f016020809104026020016040519081016040528093929190818152602001838380828437600081840152601f19601f820116905080830192505050505050506000612408565b79ffffffffffffffffffffffffffffffffffffffffffffffffffff1916146110fc576040517f08c379a00000000000000000000000000000000000000000000000000000000081526004018080602001828103825260208152602001807f706f736974696f6e206973206e6f7420696e736964652074686973207a6f6e6581525060200191505060405180910390fd5b600560009054906101000a900473ffffffffffffffffffffffffffffffffffffffff1673ffffffffffffffffffffffffffffffffffffffff16631d0a48318a8a6040518363ffffffff1660e01b815260040180806020018281038252848482818152602001925080828437600081840152601f19601f8201169050808301925050509350505050602060405180830381600087803b15801561119d57600080fd5b505af11580156111b1573d6000803e3d6000fd5b505050506040513d60208110156111c757600080fd5b810190808051906020019092919050505061122d576040517f08c379a00000000000000000000000000000000000000000000000000000000081526004018080602001828103825260238152602001806128456023913960400191505060405180910390fd5b60018760ff1610158015611245575060648760ff1611155b61129a576040517f08c379a00000000000000000000000000000000000000000000000000000000081526004018080602001828103825260228152602001806128686022913960400191505060405180910390fd5b600060f81b7f010000000000000000000000000000000000000000000000000000000000000084167effffffffffffffffffffffffffffffffffffffffffffffffffffffffffffff19161461137b577fffffffffffffffffffffffffffffffffffffffffffffffffffffffffffffd8f18560010b12158015611321575061270f8560010b13155b611376576040517f08c379a000000000000000000000000000000000000000000000000000000000815260040180806020018281038252602981526020018061288a6029913960400191505060405180910390fd5b6113d8565b60008560010b146113d7576040517f08c379a00000000000000000000000000000000000000000000000000000000081526004018080602001828103825260288152602001806128b36028913960400191505060405180910390fd5b5b600060f81b7f020000000000000000000000000000000000000000000000000000000000000084167effffffffffffffffffffffffffffffffffffffffffffffffffffffffffffff1916146114b9577fffffffffffffffffffffffffffffffffffffffffffffffffffffffffffffd8f18460010b1215801561145f575061270f8460010b13155b6114b4576040517f08c379a00000000000000000000000000000000000000000000000000000000081526004018080602001828103825260288152602001806127f76028913960400191505060405180910390fd5b611516565b60008460010b14611515576040517f08c379a000000000000000000000000000000000000000000000000000000000815260040180806020018281038252602681526020018061281f6026913960400191505060405180910390fd5b5b336000800160006101000a81548173ffffffffffffffffffffffffffffffffffffffff021916908373ffffffffffffffffffffffffffffffffffffffff160217905550866000800160146101000a81548160ff021916908360ff16021790555085600060010160006101000a8154816fffffffffffffffffffffffffffffffff021916908360801c0217905550836000600101601d6101000a81548161ffff021916908360010b61ffff16021790555084600060020160006101000a81548161ffff021916908360010b61ffff16021790555061163889898080601f016020809104026020016040519081016040528093929190818152602001838380828437600081840152601f19601f820116905080830192505050505050506000612499565b600060010160106101000a8154816bffffffffffffffffffffffff021916908360a01c0217905550826000600101601c6101000a81548160ff021916908360f81c021790555081600060020160026101000a81548173ffffffffffffffffffffffffffffffffffffffff021916908373ffffffffffffffffffffffffffffffffffffffff16021790555060008110156116d25760006116d4565b805b600060030181905550505050505050505050565b6000806000806000806000806000800160009054906101000a900473ffffffffffffffffffffffffffffffffffffffff166000800160149054906101000a900460ff16600060010160009054906101000a900460801b600060010160109054906101000a900460a01b6000600101601c9054906101000a900460f81b6000600101601d9054906101000a900460010b600060020160009054906101000a900460010b600060020160029054906101000a900473ffffffffffffffffffffffffffffffffffffffff16975097509750975097509750975097509091929394959697565b60008060a01b73ffffffffffffffffffffffffffffffffffffffff1916600060010160109054906101000a900460a01b73ffffffffffffffffffffffffffffffffffffffff19161415905090565b60011515600460009054906101000a900460ff161515146118a1576040517f08c379a000000000000000000000000000000000000000000000000000000000815260040180806020018281038252601c8152602001807f636f6e7472616374206e6f742079657420696e697469616c697a65640000000081525060200191505060405180910390fd5b600560009054906101000a900473ffffffffffffffffffffffffffffffffffffffff1673ffffffffffffffffffffffffffffffffffffffff16630dc210aa600460019054906101000a900473ffffffffffffffffffffffffffffffffffffffff1673ffffffffffffffffffffffffffffffffffffffff1663d8b0b4996040518163ffffffff1660e01b815260040160206040518083038186803b15801561194757600080fd5b505afa15801561195b573d6000803e3d6000fd5b505050506040513d602081101561197157600080fd5b81019080805190602001909291905050506040518263ffffffff1660e01b815260040180827dffffffffffffffffffffffffffffffffffffffffffffffffffffffffffff19167dffffffffffffffffffffffffffffffffffffffffffffffffffffffffffff1916815260200191505060206040518083038186803b1580156119f857600080fd5b505afa158015611a0c573d6000803e3d6000fd5b505050506040513d6020811015611a2257600080fd5b8101908080519060200190929190505050611aa5576040517f08c379a00000000000000000000000000000000000000000000000000000000081526004018080602001828103825260138152602001807f636f756e7472792069732064697361626c65640000000000000000000000000081525060200191505060405180910390fd5b600460019054906101000a900473ffffffffffffffffffffffffffffffffffffffff1673ffffffffffffffffffffffffffffffffffffffff166340be3e6a6040518163ffffffff1660e01b8152600401600060405180830381600087803b158015611b0f57600080fd5b505af1158015611b23573d6000803e3d6000fd5b50505050600073ffffffffffffffffffffffffffffffffffffffff16600460019054906101000a900473ffffffffffffffffffffffffffffffffffffffff1673ffffffffffffffffffffffffffffffffffffffff16639c675eaa6040518163ffffffff1660e01b815260040160206040518083038186803b158015611ba757600080fd5b505afa158015611bbb573d6000803e3d6000fd5b505050506040513d6020811015611bd157600080fd5b810190808051906020019092919050505073ffffffffffffffffffffffffffffffffffffffff161415611c6c576040517f08c379a00000000000000000000000000000000000000000000000000000000081526004018080602001828103825260118152602001807f7a6f6e6520686173206e6f206f776e657200000000000000000000000000000081525060200191505060405180910390fd5b600460019054906101000a900473ffffffffffffffffffffffffffffffffffffffff1673ffffffffffffffffffffffffffffffffffffffff16639c675eaa6040518163ffffffff1660e01b815260040160206040518083038186803b158015611cd457600080fd5b505afa158015611ce8573d6000803e3d6000fd5b505050506040513d6020811015611cfe57600080fd5b810190808051906020019092919050505073ffffffffffffffffffffffffffffffffffffffff163373ffffffffffffffffffffffffffffffffffffffff161415611db0576040517f08c379a000000000000000000000000000000000000000000000000000000000815260040180806020018281038252601e8152602001807f63616e206e6f742062652063616c6c6564206279207a6f6e656f776e6572000081525060200191505060405180910390fd5b600060a01b73ffffffffffffffffffffffffffffffffffffffff1916600060010160109054906101000a900460a01b73ffffffffffffffffffffffffffffffffffffffff19161415611e6a576040517f08c379a000000000000000000000000000000000000000000000000000000000815260040180806020018281038252600d8152602001807f6e6f2074656c6c6572207365740000000000000000000000000000000000000081525060200191505060405180910390fd5b6000801b811415611ee3576040517f08c379a000000000000000000000000000000000000000000000000000000000815260040180806020018281038252601a8152602001807f636f6d6d656e7420686173682063616e6e6f742062652030783000000000000081525060200191505060405180910390fd5b600981908060018154018082558091505090600182039060005260206000200160009091929091909150555050565b600460019054906101000a900473ffffffffffffffffffffffffffffffffffffffff1673ffffffffffffffffffffffffffffffffffffffff163373ffffffffffffffffffffffffffffffffffffffff1614611fd5576040517f08c379a000000000000000000000000000000000000000000000000000000000815260040180806020018281038252601a8152602001807f63616e206f6e6c792062652063616c6c6564206279207a6f6e6500000000000081525060200191505060405180910390fd5b611fdd61252a565b611fe5612654565b565b600660009054906101000a900473ffffffffffffffffffffffffffffffffffffffff1681565b600560009054906101000a900473ffffffffffffffffffffffffffffffffffffffff1681565b60076020528060005260406000206000915090505481565b6008602052816000526040600020602052806000526040600020600091509150505481565b60011515600460009054906101000a900460ff161515146120f9576040517f08c379a000000000000000000000000000000000000000000000000000000000815260040180806020018281038252601c8152602001807f636f6e7472616374206e6f742079657420696e697469616c697a65640000000081525060200191505060405180910390fd5b600460019054906101000a900473ffffffffffffffffffffffffffffffffffffffff1673ffffffffffffffffffffffffffffffffffffffff166340be3e6a6040518163ffffffff1660e01b8152600401600060405180830381600087803b15801561216357600080fd5b505af1158015612177573d6000803e3d6000fd5b50505050600460019054906101000a900473ffffffffffffffffffffffffffffffffffffffff1673ffffffffffffffffffffffffffffffffffffffff16639c675eaa6040518163ffffffff1660e01b815260040160206040518083038186803b1580156121e357600080fd5b505afa1580156121f7573d6000803e3d6000fd5b505050506040513d602081101561220d57600080fd5b810190808051906020019092919050505073ffffffffffffffffffffffffffffffffffffffff163373ffffffffffffffffffffffffffffffffffffffff16146122be576040517f08c379a00000000000000000000000000000000000000000000000000000000081526004018080602001828103825260178152602001807f63616c6c6572206973206e6f74207a6f6e656f776e657200000000000000000081525060200191505060405180910390fd5b600060a01b73ffffffffffffffffffffffffffffffffffffffff1916600060010160109054906101000a900460a01b73ffffffffffffffffffffffffffffffffffffffff19161415612378576040517f08c379a000000000000000000000000000000000000000000000000000000000815260040180806020018281038252600d8152602001807f6e6f2074656c6c6572207365740000000000000000000000000000000000000081525060200191505060405180910390fd5b61238061252a565b565b600460019054906101000a900473ffffffffffffffffffffffffffffffffffffffff1681565b60008082116123b657600080fd5b60008284816123c157fe5b0490508091505092915050565b6000808314156123e15760009050612402565b60008284029050828482816123f257fe5b04146123fd57600080fd5b809150505b92915050565b60006006820183511015612484576040517f08c379a00000000000000000000000000000000000000000000000000000000081526004018080602001828103825260108152602001807f206e6f74206c6f6e6720656e6f7567680000000000000000000000000000000081525060200191505060405180910390fd5b60008260208501015190508091505092915050565b6000600c820183511015612515576040517f08c379a00000000000000000000000000000000000000000000000000000000081526004018080602001828103825260108152602001807f206e6f74206c6f6e6720656e6f7567680000000000000000000000000000000081525060200191505060405180910390fd5b60008260208501015190508091505092915050565b60008060000160146101000a81548160ff021916908360ff160217905550600060801b600060010160006101000a8154816fffffffffffffffffffffffffffffffff021916908360801c0217905550600060a01b600060010160106101000a8154816bffffffffffffffffffffffff021916908360a01c0217905550600060f81b6000600101601c6101000a81548160ff021916908360f81c0217905550600080600101601d6101000a81548161ffff021916908360010b61ffff16021790555060008060020160006101000a81548161ffff021916908360010b61ffff16021790555060008060020160026101000a81548173ffffffffffffffffffffffffffffffffffffffff021916908373ffffffffffffffffffffffffffffffffffffffff160217905550565b60011515600460009054906101000a900460ff161515146126dd576040517f08c379a000000000000000000000000000000000000000000000000000000000815260040180806020018281038252601c8152602001807f636f6e7472616374206e6f742079657420696e697469616c697a65640000000081525060200191505060405180910390fd5b600460019054906101000a900473ffffffffffffffffffffffffffffffffffffffff1673ffffffffffffffffffffffffffffffffffffffff163373ffffffffffffffffffffffffffffffffffffffff16146127a0576040517f08c379a000000000000000000000000000000000000000000000000000000000815260040180806020018281038252601a8152602001807f63616e206f6e6c792062652063616c6c6564206279207a6f6e6500000000000081525060200191505060405180910390fd5b600960006127ae91906127b0565b565b50805460008255906000526020600020908101906127ce91906127d1565b50565b6127f391905b808211156127ef5760008160009055506001016127d7565b5090565b9056fe627579526174652073686f756c64206265206265747765656e202d3939393920616e64203939393963616e6e6f74207365742062757952617465206966206e6f7420736574206173206275796572696e76616c696420706f736974696f6e2067656f68617368206368617261637465727363757272656e6379206964206d75737420626520696e2072616e676520312d31303073656c6c526174652073686f756c64206265206265747765656e202d3939393920616e64203939393963616e6e6f74207365742073656c6c52617465206966206e6f74207365742061732073656c6c6572a165627a7a72305820ac540975791b146b865d64d53833fd539dbff1a15f6f9cd840c5ceb1c22642c30029",
  "source": "pragma solidity ^0.5.8;\n\n\nimport \"openzeppelin-solidity/contracts/math/SafeMath.sol\";\n\nimport \"../interfaces/IControl.sol\";\nimport \"../interfaces/IGeoRegistry.sol\";\nimport \"../interfaces/IZone.sol\";\nimport \"../interfaces/ITeller.sol\";\n\n\ncontract Teller {\n  // ------------------------------------------------\n  //\n  // Library init\n  //\n  // ------------------------------------------------\n\n  using SafeMath for uint;\n\n  // ------------------------------------------------\n  //\n  // Structs\n  //\n  // ------------------------------------------------\n\n  struct Teller_t {\n    address addr;\n    uint8 currencyId;  // 1 - 100 , see README\n    bytes16 messenger; // telegrame nickname\n    bytes12 position;  // 12 char geohash for location of teller\n    bytes1 settings;   // bitmask containing up to 8 boolean settings (only 2 used currently: isSeller, isBuyer)\n    int16 buyRate;     // margin of tellers , -999 - +9999 , corresponding to -99,9% x 10  , 999,9% x 10\n    int16 sellRate;    // margin of tellers , -999 - +9999 , corresponding to -99,9% x 10  , 999,9% x 10\n    address referrer;\n    uint refFee; // 1 = 0.1%\n  }\n\n  // ------------------------------------------------\n  //\n  // Variables Private\n  //\n  // ------------------------------------------------\n\n  uint private constant REFERRER_FEE_PERCENTAGE = 1; // 0.1%\n  address private constant ADDRESS_BURN = 0xFFfFfFffFFfffFFfFFfFFFFFffFFFffffFfFFFfF;\n\n  Teller_t private teller;\n  bytes1 private constant isSellerBitMask = hex\"01\";\n  bytes1 private constant isBuyerBitMask = hex\"02\";\n\n  // ------------------------------------------------\n  //\n  // Variables Public\n  //\n  // ------------------------------------------------\n\n  bool inited;\n\n  IZone public zone;\n  IGeoRegistry public geo;\n  IControl public control;\n \n\n  //      who        ethAmount\n  mapping(address => uint) public withdrawableEth;\n\n  // uint public funds;\n\n  //      teller             poster     commentsLeft\n  mapping(address => mapping(address => uint)) public canPlaceCertifiedComment;\n\n  bytes32[] private commentsFree;\n  bytes32[] private commentsCertified;\n\n  // ------------------------------------------------\n  //\n  // Events\n  //\n  // ------------------------------------------------\n\n  // TODO\n\n  // ------------------------------------------------\n  //\n  // Modifiers\n  //\n  // ------------------------------------------------\n\n  modifier onlyWhenInited() {\n    // NOTE: somehow if w add an error message, we get 'out of gas' on deploy?!\n    // require(inited == true);\n    require(inited == true, \"contract not yet initialized\");\n    _;\n  }\n  modifier onlyWhenNotInited() {\n    require(inited == false, \"contract already initialized\");\n    _;\n  }\n\n  modifier onlyWhenHasTeller {\n    require(teller.position != bytes12(0), \"no teller set\");\n    _;\n  }\n\n  modifier onlyWhenHasNoTeller {\n    require(teller.position == bytes12(0), \"already exists teller\");\n    _;\n  }\n\n  modifier onlyByZoneContract {\n    require(msg.sender == address(zone), \"can only be called by zone\");\n    _;\n  }\n\n  modifier onlyWhenCountryEnabled {\n    require(geo.countryIsEnabled(zone.country()), \"country is disabled\");\n    _;\n  }\n\n  modifier updateState {\n    zone.processState();\n    _;\n  }\n\n  modifier onlyWhenZoneHasOwner {\n    require(zone.ownerAddr() != address(0), \"zone has no owner\");\n    _;\n  }\n\n  modifier onlyWhenCallerIsNotZoneOwner {\n    require(msg.sender != zone.ownerAddr(), \"can not be called by zoneowner\");\n    _;\n  }\n\n  modifier onlyWhenCallerIsZoneOwner {\n    require(msg.sender == zone.ownerAddr(), \"caller is not zoneowner\");\n    _;\n  }\n\n  // ------------------------------------------------\n  //\n  // Constructor\n  //\n  // ------------------------------------------------\n\n  // executed by ZoneFactory.sol when this Zone does not yet exist (= not yet deployed)\n  function init(\n    address _geo,\n    address _control,\n    address _zone\n  )\n    external\n    onlyWhenNotInited\n  {\n    zone = IZone(_zone);\n    geo = IGeoRegistry(_geo);\n    control = IControl(_control);\n    inited = true;\n  }\n\n  // ------------------------------------------------\n  //\n  // Functions Getters Public\n  //\n  // ------------------------------------------------\n\n  function getCertifiedComments()\n    external view\n    returns (bytes32[] memory)\n  {\n    return commentsCertified;\n  }\n\n  function getComments()\n    external view\n    returns (bytes32[] memory)\n  {\n    return commentsFree;\n  }\n\n  function calcReferrerFee(uint _value)\n    public view\n    returns (uint referrerAmount)\n  {\n    // referrerAmount = _value.div(1000).mul(REFERRER_FEE_PERCENTAGE); // 0.1%\n    referrerAmount = _value.div(1000).mul(teller.refFee);\n  }\n\n  function getTeller()\n    external view\n    // returns (address, uint8, bytes16, bytes12, bytes1, int16, int16, uint, address)\n    returns (address addr, uint8 currencyId, bytes16 messenger, bytes12 position, bytes1 settings, int16 buyRate, int16 sellRate, address referrer)\n  {\n    return (\n      teller.addr,\n      teller.currencyId,\n      teller.messenger,\n      teller.position,\n      teller.settings,\n      teller.buyRate,\n      teller.sellRate,\n      // funds,\n      teller.referrer\n    );\n  }\n\n  function getReferrer()\n  external view\n  returns (address ref, uint refFee) {\n    return (teller.referrer, teller.refFee);\n  }\n\n  function hasTeller()\n    external view\n    returns (bool)\n  {\n    return teller.position != bytes12(0);\n  }\n\n  // ------------------------------------------------\n  //\n  // Functions Getters Private\n  //\n  // ------------------------------------------------\n\n  function toBytes7(bytes memory _bytes, uint _start)\n    private\n    pure\n    returns (bytes7) {\n      require(_bytes.length >= (_start + 7), \" not long enough\");\n      bytes7 tempBytes7;\n\n      assembly {\n          tempBytes7 := mload(add(add(_bytes, 0x20), _start))\n      }\n\n      return tempBytes7;\n  }\n    function toBytes6(bytes memory _bytes, uint _start)\n    private\n    pure\n    returns (bytes6)\n  {\n    require(_bytes.length >= (_start + 6), \" not long enough\");\n    bytes6 tempBytes6;\n\n    assembly {\n        tempBytes6 := mload(add(add(_bytes, 0x20), _start))\n    }\n\n    return tempBytes6;\n  }\n  function toBytes12(bytes memory _bytes, uint _start)\n    private\n    pure\n    returns (bytes12) {\n      require(_bytes.length >= (_start + 12), \" not long enough\");\n      bytes12 tempBytes12;\n\n      assembly {\n          tempBytes12 := mload(add(add(_bytes, 0x20), _start))\n      }\n\n      return tempBytes12;\n  }\n\n  // ------------------------------------------------\n  //\n  // Functions Setters Public\n  //\n  // ------------------------------------------------\n\n  function _removeComments()\n    private\n    onlyWhenInited\n    onlyByZoneContract\n  {\n    delete commentsFree;\n    // delete commentsCertified;\n  }\n\n  function _remove()\n    private\n  {\n    // withdrawableEth[teller.addr] = withdrawableEth[teller.addr].add(funds);\n    // funds = 0;\n\n    // we dont remove comments here, so that zoneowner can not get rid\n    // of negative comments by readding his teller ;)\n\n    teller.currencyId = 0;\n    teller.messenger = bytes16(0);\n    teller.position = bytes12(0);\n    teller.settings = bytes1(0);\n    teller.buyRate = 0;\n    teller.sellRate = 0;\n    teller.referrer = address(0);\n  }\n\n  function removeTellerByZone()\n    external\n    onlyByZoneContract\n  {\n    _remove();\n    _removeComments();\n  }\n\n  function removeTeller()\n    external\n    onlyWhenInited\n    updateState\n    onlyWhenCallerIsZoneOwner\n    onlyWhenHasTeller\n  {\n    _remove();\n  }\n\n  // NOTE: we could just require only last 5 bytes of a bytes12 geohash, since\n  // the first 7 bytes will be the geohash of this zone. But by requiring the full geohash\n  // we can mkae more sure the user is talking to the right zone\n  function addTeller(\n    bytes calldata _position,\n    uint8 _currencyId,\n    bytes16 _messenger,\n    int16 _sellRate,\n    int16 _buyRate,\n    bytes1 _settings,\n    address _referrer,\n    uint _refFee\n  )\n    external\n    onlyWhenInited\n    onlyWhenCountryEnabled\n    updateState\n    onlyWhenCallerIsZoneOwner\n    onlyWhenHasNoTeller\n  {\n    require(_position.length == 12, \"expected position to be 12 bytes\");\n    require(toBytes6(_position, 0) == zone.geohash(), \"position is not inside this zone\");\n    require(geo.validGeohashChars(_position), \"invalid position geohash characters\");\n\n    require(_currencyId >= 1 && _currencyId <= 100, \"currency id must be in range 1-100\");\n    // _messenger can be 0x0 if he has no telegram\n\n    if (_settings & isSellerBitMask != 0) { // seller bit is set => teller is a \"seller\"\n      require(_sellRate >= -9999 && _sellRate <= 9999, \"sellRate should be between -9999 and 9999\");\n    } else {\n      require(_sellRate == 0, \"cannot set sellRate if not set as seller\");\n    }\n\n    if (_settings & isBuyerBitMask != 0) { // buyer bit is set => teller is a \"buyer\"\n      require(_buyRate >= -9999 && _buyRate <= 9999, \"buyRate should be between -9999 and 9999\");\n    } else {\n      require(_buyRate == 0, \"cannot set buyRate if not set as buyer\");\n    }\n\n    teller.addr = msg.sender;\n    teller.currencyId = _currencyId;\n    teller.messenger = _messenger;\n    teller.buyRate = _buyRate;\n    teller.sellRate = _sellRate;\n    teller.position = toBytes12(_position, 0);\n    teller.settings = _settings;\n    teller.referrer = _referrer;\n    teller.refFee = _refFee >= 0 ? _refFee : 0;\n  }\n\n  // // called by Teller, adding ETH to Teller funds\n  // function addFunds() // GAS COST +/- 59.809\n  //   external payable\n  //   onlyWhenInited\n  //   onlyWhenCountryEnabled\n  //   updateState\n  //   onlyWhenCallerIsZoneOwner\n  //   onlyWhenHasTeller\n  // {\n  //   require(msg.value > 0, \"no eth send with call\");\n\n  //   // register ETH sent to this contract\n  //   funds = funds.add(msg.value);\n  // }\n\n  // // called by Teller, sending ETH from Zone to _to\n  // function sellEth(address _to, uint _amount) // GAS COST +/- 147.310\n  //   external\n  //   onlyWhenInited\n  //   onlyWhenCountryEnabled\n  //   updateState\n  //   onlyWhenCallerIsZoneOwner\n  //   onlyWhenHasTeller\n  // {\n  //   require(teller.addr != _to, \"sender cannot also be to\");\n  //   require(_amount > 0, \"amount to sell cannot be zero\");\n\n  //   if (teller.referrer != address(0)) { // need to pay referrer fee\n  //     uint referrerAmount = calcReferrerFee(_amount);\n  //     require(funds >= _amount + referrerAmount, \"not enough funds to sell eth amount plus pay referrer fee\");\n  //     funds = funds.sub(_amount + referrerAmount);\n  //     withdrawableEth[teller.referrer] = withdrawableEth[teller.referrer].add(referrerAmount);\n  //   } else {\n  //     require(funds >= _amount, \"cannot sell more than in funds\");\n  //     funds = funds.sub(_amount);\n  //   }\n\n  //   zone.proxyUpdateUserDailySold(_to, _amount); // MIGHT THROW if exceeds daily limit\n\n  //   canPlaceCertifiedComment[teller.addr][_to]++;\n\n  //   address(uint160(_to)).transfer(_amount);\n  // }\n\n  // function addCertifiedComment(bytes32 _commentHash)\n  //   external\n  //   onlyWhenInited\n  //   onlyWhenCountryEnabled\n  //   updateState\n  //   onlyWhenZoneHasOwner\n  //   onlyWhenCallerIsNotZoneOwner\n  //   onlyWhenHasTeller\n  // {\n  //   require(_commentHash != bytes32(0), \"comment hash cannot be 0x0\");\n\n  //   require(canPlaceCertifiedComment[teller.addr][msg.sender] > 0, \"user not allowed to place a certified comment\");\n  //   canPlaceCertifiedComment[teller.addr][msg.sender]--;\n\n  //   commentsCertified.push(_commentHash);\n  // }\n\n  function addComment(bytes32 _commentHash)\n    external\n    onlyWhenInited\n    onlyWhenCountryEnabled\n    updateState\n    onlyWhenZoneHasOwner\n    onlyWhenCallerIsNotZoneOwner\n    onlyWhenHasTeller\n  {\n    require(_commentHash != bytes32(0), \"comment hash cannot be 0x0\");\n\n    commentsFree.push(_commentHash);\n  }\n}\n",
  "sourcePath": "/Users/mehdi/code/dether/contractV2/contracts/map/Teller.sol",
  "compiler": {
    "name": "solc",
    "version": "0.5.8+commit.23d335f2.Emscripten.clang"
  },
  "schemaVersion": "3.0.11",
  "updatedAt": "2019-07-02T13:21:08.727Z",
  "devdoc": {
    "methods": {}
  },
  "userdoc": {
    "methods": {}
  }
}