{
  "contractName": "Teller",
  "abi": [
    {
      "constant": true,
      "inputs": [],
      "name": "inited",
      "outputs": [
        {
          "name": "",
          "type": "bool"
        }
      ],
      "payable": false,
      "stateMutability": "view",
      "type": "function"
    },
    {
      "constant": true,
      "inputs": [],
      "name": "geo",
      "outputs": [
        {
          "name": "",
          "type": "address"
        }
      ],
      "payable": false,
      "stateMutability": "view",
      "type": "function"
    },
    {
      "constant": true,
      "inputs": [],
      "name": "zone",
      "outputs": [
        {
          "name": "",
          "type": "address"
        }
      ],
      "payable": false,
      "stateMutability": "view",
      "type": "function"
    },
    {
      "anonymous": false,
      "inputs": [
        {
          "indexed": false,
          "name": "position",
          "type": "bytes"
        }
      ],
      "name": "AddTeller",
      "type": "event"
    },
    {
      "anonymous": false,
      "inputs": [
        {
          "indexed": false,
          "name": "position",
          "type": "bytes12"
        }
      ],
      "name": "RemoveTeller",
      "type": "event"
    },
    {
      "anonymous": false,
      "inputs": [
        {
          "indexed": false,
          "name": "position",
          "type": "bytes"
        }
      ],
      "name": "UpdateTeller",
      "type": "event"
    },
    {
      "constant": false,
      "inputs": [
        {
          "name": "_geo",
          "type": "address"
        },
        {
          "name": "_zone",
          "type": "address"
        }
      ],
      "name": "init",
      "outputs": [],
      "payable": false,
      "stateMutability": "nonpayable",
      "type": "function"
    },
    {
      "constant": true,
      "inputs": [],
      "name": "getComments",
      "outputs": [
        {
          "name": "",
          "type": "bytes32[]"
        }
      ],
      "payable": false,
      "stateMutability": "view",
      "type": "function"
    },
    {
      "constant": true,
      "inputs": [
        {
          "name": "_value",
          "type": "uint256"
        }
      ],
      "name": "calcReferrerFee",
      "outputs": [
        {
          "name": "referrerAmount",
          "type": "uint256"
        }
      ],
      "payable": false,
      "stateMutability": "view",
      "type": "function"
    },
    {
      "constant": true,
      "inputs": [],
      "name": "getTeller",
      "outputs": [
        {
          "name": "addr",
          "type": "address"
        },
        {
          "name": "currencyId",
          "type": "uint8"
        },
        {
          "name": "messenger",
          "type": "bytes16"
        },
        {
          "name": "position",
          "type": "bytes12"
        },
        {
          "name": "settings",
          "type": "bytes1"
        },
        {
          "name": "buyRate",
          "type": "int16"
        },
        {
          "name": "sellRate",
          "type": "int16"
        },
        {
          "name": "referrer",
          "type": "address"
        },
        {
          "name": "description",
          "type": "bytes32"
        }
      ],
      "payable": false,
      "stateMutability": "view",
      "type": "function"
    },
    {
      "constant": true,
      "inputs": [],
      "name": "getReferrer",
      "outputs": [
        {
          "name": "ref",
          "type": "address"
        },
        {
          "name": "refFee",
          "type": "uint256"
        }
      ],
      "payable": false,
      "stateMutability": "view",
      "type": "function"
    },
    {
      "constant": true,
      "inputs": [],
      "name": "hasTeller",
      "outputs": [
        {
          "name": "",
          "type": "bool"
        }
      ],
      "payable": false,
      "stateMutability": "view",
      "type": "function"
    },
    {
      "constant": false,
      "inputs": [],
      "name": "removeTellerByZone",
      "outputs": [],
      "payable": false,
      "stateMutability": "nonpayable",
      "type": "function"
    },
    {
      "constant": false,
      "inputs": [],
      "name": "removeTeller",
      "outputs": [],
      "payable": false,
      "stateMutability": "nonpayable",
      "type": "function"
    },
    {
      "constant": false,
      "inputs": [
        {
          "name": "_position",
          "type": "bytes"
        },
        {
          "name": "_currencyId",
          "type": "uint8"
        },
        {
          "name": "_messenger",
          "type": "bytes16"
        },
        {
          "name": "_sellRate",
          "type": "int16"
        },
        {
          "name": "_buyRate",
          "type": "int16"
        },
        {
          "name": "_settings",
          "type": "bytes1"
        },
        {
          "name": "_referrer",
          "type": "address"
        },
        {
          "name": "_refFee",
          "type": "uint256"
        },
        {
          "name": "_description",
          "type": "bytes32"
        }
      ],
      "name": "addTeller",
      "outputs": [],
      "payable": false,
      "stateMutability": "nonpayable",
      "type": "function"
    },
    {
      "constant": false,
      "inputs": [
        {
          "name": "_position",
          "type": "bytes"
        },
        {
          "name": "_currencyId",
          "type": "uint8"
        },
        {
          "name": "_messenger",
          "type": "bytes16"
        },
        {
          "name": "_sellRate",
          "type": "int16"
        },
        {
          "name": "_buyRate",
          "type": "int16"
        },
        {
          "name": "_settings",
          "type": "bytes1"
        },
        {
          "name": "_description",
          "type": "bytes32"
        }
      ],
      "name": "updateTeller",
      "outputs": [],
      "payable": false,
      "stateMutability": "nonpayable",
      "type": "function"
    },
    {
      "constant": false,
      "inputs": [
        {
          "name": "_commentHash",
          "type": "bytes32"
        }
      ],
      "name": "addComment",
      "outputs": [],
      "payable": false,
      "stateMutability": "nonpayable",
      "type": "function"
    }
  ],
  "bytecode": "0x608060405234801561001057600080fd5b506134eb806100206000396000f3fe608060405234801561001057600080fd5b50600436106100ea5760003560e01c80639e1e61601161008c578063d944e6a311610066578063d944e6a3146105c6578063efcb5ba614610610578063f09a40161461061a578063f310b9851461067e576100ea565b80639e1e61601461056c578063a74255b01461058e578063b030b1f7146105bc576100ea565b80635e52a00b116100c85780635e52a00b146103225780636cea244b1461037357806391f3410c146103b55780639787d10714610414576100ea565b806326fc0654146100ef5780633fb0bd721461020d57806343c885ba14610300575b600080fd5b61020b600480360361012081101561010657600080fd5b810190808035906020019064010000000081111561012357600080fd5b82018360208201111561013557600080fd5b8035906020019184600183028401116401000000008311171561015757600080fd5b9091929391929390803560ff16906020019092919080356fffffffffffffffffffffffffffffffff19169060200190929190803560010b9060200190929190803560010b906020019092919080357effffffffffffffffffffffffffffffffffffffffffffffffffffffffffffff19169060200190929190803573ffffffffffffffffffffffffffffffffffffffff16906020019092919080359060200190929190803590602001909291905050506106c8565b005b6102fe600480360360e081101561022357600080fd5b810190808035906020019064010000000081111561024057600080fd5b82018360208201111561025257600080fd5b8035906020019184600183028401116401000000008311171561027457600080fd5b9091929391929390803560ff16906020019092919080356fffffffffffffffffffffffffffffffff19169060200190929190803560010b9060200190929190803560010b906020019092919080357effffffffffffffffffffffffffffffffffffffffffffffffffffffffffffff1916906020019092919080359060200190929190505050611452565b005b6103086120bf565b604051808215151515815260200191505060405180910390f35b61032a6120d2565b604051808373ffffffffffffffffffffffffffffffffffffffff1673ffffffffffffffffffffffffffffffffffffffff1681526020018281526020019250505060405180910390f35b61039f6004803603602081101561038957600080fd5b8101908080359060200190929190505050612109565b6040518082815260200191505060405180910390f35b6103bd61213e565b6040518080602001828103825283818151815260200191508051906020019060200280838360005b838110156104005780820151818401526020810190506103e5565b505050509050019250505060405180910390f35b61041c6121f7565b604051808a73ffffffffffffffffffffffffffffffffffffffff1673ffffffffffffffffffffffffffffffffffffffff1681526020018960ff1660ff168152602001886fffffffffffffffffffffffffffffffff19166fffffffffffffffffffffffffffffffff191681526020018773ffffffffffffffffffffffffffffffffffffffff191673ffffffffffffffffffffffffffffffffffffffff19168152602001867effffffffffffffffffffffffffffffffffffffffffffffffffffffffffffff19167effffffffffffffffffffffffffffffffffffffffffffffffffffffffffffff191681526020018560010b60010b81526020018460010b60010b81526020018373ffffffffffffffffffffffffffffffffffffffff1673ffffffffffffffffffffffffffffffffffffffff168152602001828152602001995050505050505050505060405180910390f35b6105746122e4565b604051808215151515815260200191505060405180910390f35b6105ba600480360360208110156105a457600080fd5b8101908080359060200190929190505050612332565b005b6105c4612a8d565b005b6105ce612b5a565b604051808273ffffffffffffffffffffffffffffffffffffffff1673ffffffffffffffffffffffffffffffffffffffff16815260200191505060405180910390f35b610618612b80565b005b61067c6004803603604081101561063057600080fd5b81019080803573ffffffffffffffffffffffffffffffffffffffff169060200190929190803573ffffffffffffffffffffffffffffffffffffffff169060200190929190505050612e92565b005b610686612fbc565b604051808273ffffffffffffffffffffffffffffffffffffffff1673ffffffffffffffffffffffffffffffffffffffff16815260200191505060405180910390f35b60011515600560009054906101000a900460ff16151514610751576040517f08c379a000000000000000000000000000000000000000000000000000000000815260040180806020018281038252601c8152602001807f636f6e7472616374206e6f742079657420696e697469616c697a65640000000081525060200191505060405180910390fd5b600660009054906101000a900473ffffffffffffffffffffffffffffffffffffffff1673ffffffffffffffffffffffffffffffffffffffff1663923ae12b600560019054906101000a900473ffffffffffffffffffffffffffffffffffffffff1673ffffffffffffffffffffffffffffffffffffffff1663d8b0b4996040518163ffffffff1660e01b815260040160206040518083038186803b1580156107f757600080fd5b505afa15801561080b573d6000803e3d6000fd5b505050506040513d602081101561082157600080fd5b81019080805190602001909291905050506040518263ffffffff1660e01b815260040180827dffffffffffffffffffffffffffffffffffffffffffffffffffffffffffff19167dffffffffffffffffffffffffffffffffffffffffffffffffffffffffffff1916815260200191505060206040518083038186803b1580156108a857600080fd5b505afa1580156108bc573d6000803e3d6000fd5b505050506040513d60208110156108d257600080fd5b8101908080519060200190929190505050610955576040517f08c379a00000000000000000000000000000000000000000000000000000000081526004018080602001828103825260138152602001807f636f756e7472792069732064697361626c65640000000000000000000000000081525060200191505060405180910390fd5b600560019054906101000a900473ffffffffffffffffffffffffffffffffffffffff1673ffffffffffffffffffffffffffffffffffffffff166340be3e6a6040518163ffffffff1660e01b8152600401600060405180830381600087803b1580156109bf57600080fd5b505af11580156109d3573d6000803e3d6000fd5b50505050600560019054906101000a900473ffffffffffffffffffffffffffffffffffffffff1673ffffffffffffffffffffffffffffffffffffffff16639c675eaa6040518163ffffffff1660e01b815260040160206040518083038186803b158015610a3f57600080fd5b505afa158015610a53573d6000803e3d6000fd5b505050506040513d6020811015610a6957600080fd5b810190808051906020019092919050505073ffffffffffffffffffffffffffffffffffffffff163373ffffffffffffffffffffffffffffffffffffffff1614610b1a576040517f08c379a00000000000000000000000000000000000000000000000000000000081526004018080602001828103825260178152602001807f63616c6c6572206973206e6f74207a6f6e656f776e657200000000000000000081525060200191505060405180910390fd5b610b2383612fe2565b15610b96576040517f08c379a000000000000000000000000000000000000000000000000000000000815260040180806020018281038252601d8152602001807f72656665727265722063616e6e6f74206265206120636f6e747261637400000081525060200191505060405180910390fd5b600c8a8a905014610c0f576040517f08c379a00000000000000000000000000000000000000000000000000000000081526004018080602001828103825260208152602001807f657870656374656420706f736974696f6e20746f20626520313220627974657381525060200191505060405180910390fd5b600560019054906101000a900473ffffffffffffffffffffffffffffffffffffffff1673ffffffffffffffffffffffffffffffffffffffff166308e44f886040518163ffffffff1660e01b815260040160206040518083038186803b158015610c7757600080fd5b505afa158015610c8b573d6000803e3d6000fd5b505050506040513d6020811015610ca157600080fd5b810190808051906020019092919050505079ffffffffffffffffffffffffffffffffffffffffffffffffffff1916610d1e8b8b8080601f016020809104026020016040519081016040528093929190818152602001838380828437600081840152601f19601f820116905080830192505050505050506000612ff5565b79ffffffffffffffffffffffffffffffffffffffffffffffffffff191614610dae576040517f08c379a00000000000000000000000000000000000000000000000000000000081526004018080602001828103825260208152602001807f706f736974696f6e206973206e6f7420696e736964652074686973207a6f6e6581525060200191505060405180910390fd5b600660009054906101000a900473ffffffffffffffffffffffffffffffffffffffff1673ffffffffffffffffffffffffffffffffffffffff16631d0a48318b8b6040518363ffffffff1660e01b815260040180806020018281038252848482818152602001925080828437600081840152601f19601f8201169050808301925050509350505050602060405180830381600087803b158015610e4f57600080fd5b505af1158015610e63573d6000803e3d6000fd5b505050506040513d6020811015610e7957600080fd5b8101908080519060200190929190505050610edf576040517f08c379a00000000000000000000000000000000000000000000000000000000081526004018080602001828103825260238152602001806133ab6023913960400191505060405180910390fd5b61014d821115610f3a576040517f08c379a00000000000000000000000000000000000000000000000000000000081526004018080602001828103825260278152602001806134906027913960400191505060405180910390fd5b60018860ff1610158015610f52575060648860ff1611155b610fa7576040517f08c379a00000000000000000000000000000000000000000000000000000000081526004018080602001828103825260228152602001806133f66022913960400191505060405180910390fd5b600060f81b7f010000000000000000000000000000000000000000000000000000000000000085167effffffffffffffffffffffffffffffffffffffffffffffffffffffffffffff191614611088577ffffffffffffffffffffffffffffffffffffffffffffffffffffffffffffffc198660010b1215801561102e575061270f8660010b13155b611083576040517f08c379a00000000000000000000000000000000000000000000000000000000081526004018080602001828103825260288152602001806133ce6028913960400191505060405180910390fd5b6110e5565b60008660010b146110e4576040517f08c379a00000000000000000000000000000000000000000000000000000000081526004018080602001828103825260288152602001806134686028913960400191505060405180910390fd5b5b600060f81b7f020000000000000000000000000000000000000000000000000000000000000085167effffffffffffffffffffffffffffffffffffffffffffffffffffffffffffff1916146111c6577ffffffffffffffffffffffffffffffffffffffffffffffffffffffffffffffc198560010b1215801561116c575061270f8560010b13155b6111c1576040517f08c379a00000000000000000000000000000000000000000000000000000000081526004018080602001828103825260278152602001806134416027913960400191505060405180910390fd5b611223565b60008560010b14611222576040517f08c379a00000000000000000000000000000000000000000000000000000000081526004018080602001828103825260268152602001806133856026913960400191505060405180910390fd5b5b336000800160006101000a81548173ffffffffffffffffffffffffffffffffffffffff021916908373ffffffffffffffffffffffffffffffffffffffff160217905550876000800160146101000a81548160ff021916908360ff16021790555086600060010160006101000a8154816fffffffffffffffffffffffffffffffff021916908360801c0217905550846000600101601d6101000a81548161ffff021916908360010b61ffff16021790555085600060020160006101000a81548161ffff021916908360010b61ffff1602179055506113458a8a8080601f016020809104026020016040519081016040528093929190818152602001838380828437600081840152601f19601f820116905080830192505050505050506000613086565b600060010160106101000a8154816bffffffffffffffffffffffff021916908360a01c0217905550836000600101601c6101000a81548160ff021916908360f81c021790555082600060020160026101000a81548173ffffffffffffffffffffffffffffffffffffffff021916908373ffffffffffffffffffffffffffffffffffffffff16021790555081600060030181905550806000600401819055507fb4021cffe7d745fd3fc80c69aa96c0953d33796f7e1da0045147bcbb27c45bdf8a8a60405180806020018281038252848482818152602001925080828437600081840152601f19601f820116905080830192505050935050505060405180910390a150505050505050505050565b60011515600560009054906101000a900460ff161515146114db576040517f08c379a000000000000000000000000000000000000000000000000000000000815260040180806020018281038252601c8152602001807f636f6e7472616374206e6f742079657420696e697469616c697a65640000000081525060200191505060405180910390fd5b600660009054906101000a900473ffffffffffffffffffffffffffffffffffffffff1673ffffffffffffffffffffffffffffffffffffffff1663923ae12b600560019054906101000a900473ffffffffffffffffffffffffffffffffffffffff1673ffffffffffffffffffffffffffffffffffffffff1663d8b0b4996040518163ffffffff1660e01b815260040160206040518083038186803b15801561158157600080fd5b505afa158015611595573d6000803e3d6000fd5b505050506040513d60208110156115ab57600080fd5b81019080805190602001909291905050506040518263ffffffff1660e01b815260040180827dffffffffffffffffffffffffffffffffffffffffffffffffffffffffffff19167dffffffffffffffffffffffffffffffffffffffffffffffffffffffffffff1916815260200191505060206040518083038186803b15801561163257600080fd5b505afa158015611646573d6000803e3d6000fd5b505050506040513d602081101561165c57600080fd5b81019080805190602001909291905050506116df576040517f08c379a00000000000000000000000000000000000000000000000000000000081526004018080602001828103825260138152602001807f636f756e7472792069732064697361626c65640000000000000000000000000081525060200191505060405180910390fd5b600560019054906101000a900473ffffffffffffffffffffffffffffffffffffffff1673ffffffffffffffffffffffffffffffffffffffff166340be3e6a6040518163ffffffff1660e01b8152600401600060405180830381600087803b15801561174957600080fd5b505af115801561175d573d6000803e3d6000fd5b50505050600560019054906101000a900473ffffffffffffffffffffffffffffffffffffffff1673ffffffffffffffffffffffffffffffffffffffff16639c675eaa6040518163ffffffff1660e01b815260040160206040518083038186803b1580156117c957600080fd5b505afa1580156117dd573d6000803e3d6000fd5b505050506040513d60208110156117f357600080fd5b810190808051906020019092919050505073ffffffffffffffffffffffffffffffffffffffff163373ffffffffffffffffffffffffffffffffffffffff16146118a4576040517f08c379a00000000000000000000000000000000000000000000000000000000081526004018080602001828103825260178152602001807f63616c6c6572206973206e6f74207a6f6e656f776e657200000000000000000081525060200191505060405180910390fd5b600060a01b73ffffffffffffffffffffffffffffffffffffffff1916600060010160109054906101000a900460a01b73ffffffffffffffffffffffffffffffffffffffff1916141561195e576040517f08c379a000000000000000000000000000000000000000000000000000000000815260040180806020018281038252600d8152602001807f6e6f2074656c6c6572207365740000000000000000000000000000000000000081525060200191505060405180910390fd5b600c88889050146119d7576040517f08c379a00000000000000000000000000000000000000000000000000000000081526004018080602001828103825260208152602001807f657870656374656420706f736974696f6e20746f20626520313220627974657381525060200191505060405180910390fd5b600560019054906101000a900473ffffffffffffffffffffffffffffffffffffffff1673ffffffffffffffffffffffffffffffffffffffff166308e44f886040518163ffffffff1660e01b815260040160206040518083038186803b158015611a3f57600080fd5b505afa158015611a53573d6000803e3d6000fd5b505050506040513d6020811015611a6957600080fd5b810190808051906020019092919050505079ffffffffffffffffffffffffffffffffffffffffffffffffffff1916611ae689898080601f016020809104026020016040519081016040528093929190818152602001838380828437600081840152601f19601f820116905080830192505050505050506000612ff5565b79ffffffffffffffffffffffffffffffffffffffffffffffffffff191614611b76576040517f08c379a00000000000000000000000000000000000000000000000000000000081526004018080602001828103825260208152602001807f706f736974696f6e206973206e6f7420696e736964652074686973207a6f6e6581525060200191505060405180910390fd5b600660009054906101000a900473ffffffffffffffffffffffffffffffffffffffff1673ffffffffffffffffffffffffffffffffffffffff16631d0a483189896040518363ffffffff1660e01b815260040180806020018281038252848482818152602001925080828437600081840152601f19601f8201169050808301925050509350505050602060405180830381600087803b158015611c1757600080fd5b505af1158015611c2b573d6000803e3d6000fd5b505050506040513d6020811015611c4157600080fd5b8101908080519060200190929190505050611ca7576040517f08c379a00000000000000000000000000000000000000000000000000000000081526004018080602001828103825260238152602001806133ab6023913960400191505060405180910390fd5b600060f81b7f010000000000000000000000000000000000000000000000000000000000000083167effffffffffffffffffffffffffffffffffffffffffffffffffffffffffffff191614611d88577fffffffffffffffffffffffffffffffffffffffffffffffffffffffffffffd8f18460010b12158015611d2e575061270f8460010b13155b611d83576040517f08c379a00000000000000000000000000000000000000000000000000000000081526004018080602001828103825260298152602001806134186029913960400191505060405180910390fd5b611de5565b60008460010b14611de4576040517f08c379a00000000000000000000000000000000000000000000000000000000081526004018080602001828103825260288152602001806134686028913960400191505060405180910390fd5b5b600060f81b7f020000000000000000000000000000000000000000000000000000000000000083167effffffffffffffffffffffffffffffffffffffffffffffffffffffffffffff191614611ec6577fffffffffffffffffffffffffffffffffffffffffffffffffffffffffffffd8f18360010b12158015611e6c575061270f8360010b13155b611ec1576040517f08c379a000000000000000000000000000000000000000000000000000000000815260040180806020018281038252602881526020018061335d6028913960400191505060405180910390fd5b611f23565b60008360010b14611f22576040517f08c379a00000000000000000000000000000000000000000000000000000000081526004018080602001828103825260268152602001806133856026913960400191505060405180910390fd5b5b856000800160146101000a81548160ff021916908360ff16021790555084600060010160006101000a8154816fffffffffffffffffffffffffffffffff021916908360801c0217905550826000600101601d6101000a81548161ffff021916908360010b61ffff16021790555083600060020160006101000a81548161ffff021916908360010b61ffff16021790555061200288888080601f016020809104026020016040519081016040528093929190818152602001838380828437600081840152601f19601f820116905080830192505050505050506000613086565b600060010160106101000a8154816bffffffffffffffffffffffff021916908360a01c0217905550816000600101601c6101000a81548160ff021916908360f81c0217905550806000600401819055507f7fb7f43bfeb6af8d5097a42d70299fe271bf98a907daa111542e9d874c647bfa888860405180806020018281038252848482818152602001925080828437600081840152601f19601f820116905080830192505050935050505060405180910390a15050505050505050565b600560009054906101000a900460ff1681565b600080600060020160029054906101000a900473ffffffffffffffffffffffffffffffffffffffff16600060030154915091509091565b60006121376103e86121296000600301548561311790919063ffffffff16565b61315190919063ffffffff16565b9050919050565b6060600760008060000160009054906101000a900473ffffffffffffffffffffffffffffffffffffffff1673ffffffffffffffffffffffffffffffffffffffff1673ffffffffffffffffffffffffffffffffffffffff1681526020019081526020016000208054806020026020016040519081016040528092919081815260200182805480156121ed57602002820191906000526020600020905b8154815260200190600101908083116121d9575b5050505050905090565b60008060008060008060008060008060000160009054906101000a900473ffffffffffffffffffffffffffffffffffffffff166000800160149054906101000a900460ff16600060010160009054906101000a900460801b600060010160109054906101000a900460a01b6000600101601c9054906101000a900460f81b6000600101601d9054906101000a900460010b600060020160009054906101000a900460010b600060020160029054906101000a900473ffffffffffffffffffffffffffffffffffffffff16600060040154985098509850985098509850985098509850909192939495969798565b60008060a01b73ffffffffffffffffffffffffffffffffffffffff1916600060010160109054906101000a900460a01b73ffffffffffffffffffffffffffffffffffffffff19161415905090565b60011515600560009054906101000a900460ff161515146123bb576040517f08c379a000000000000000000000000000000000000000000000000000000000815260040180806020018281038252601c8152602001807f636f6e7472616374206e6f742079657420696e697469616c697a65640000000081525060200191505060405180910390fd5b600660009054906101000a900473ffffffffffffffffffffffffffffffffffffffff1673ffffffffffffffffffffffffffffffffffffffff1663923ae12b600560019054906101000a900473ffffffffffffffffffffffffffffffffffffffff1673ffffffffffffffffffffffffffffffffffffffff1663d8b0b4996040518163ffffffff1660e01b815260040160206040518083038186803b15801561246157600080fd5b505afa158015612475573d6000803e3d6000fd5b505050506040513d602081101561248b57600080fd5b81019080805190602001909291905050506040518263ffffffff1660e01b815260040180827dffffffffffffffffffffffffffffffffffffffffffffffffffffffffffff19167dffffffffffffffffffffffffffffffffffffffffffffffffffffffffffff1916815260200191505060206040518083038186803b15801561251257600080fd5b505afa158015612526573d6000803e3d6000fd5b505050506040513d602081101561253c57600080fd5b81019080805190602001909291905050506125bf576040517f08c379a00000000000000000000000000000000000000000000000000000000081526004018080602001828103825260138152602001807f636f756e7472792069732064697361626c65640000000000000000000000000081525060200191505060405180910390fd5b600560019054906101000a900473ffffffffffffffffffffffffffffffffffffffff1673ffffffffffffffffffffffffffffffffffffffff166340be3e6a6040518163ffffffff1660e01b8152600401600060405180830381600087803b15801561262957600080fd5b505af115801561263d573d6000803e3d6000fd5b50505050600073ffffffffffffffffffffffffffffffffffffffff16600560019054906101000a900473ffffffffffffffffffffffffffffffffffffffff1673ffffffffffffffffffffffffffffffffffffffff16639c675eaa6040518163ffffffff1660e01b815260040160206040518083038186803b1580156126c157600080fd5b505afa1580156126d5573d6000803e3d6000fd5b505050506040513d60208110156126eb57600080fd5b810190808051906020019092919050505073ffffffffffffffffffffffffffffffffffffffff161415612786576040517f08c379a00000000000000000000000000000000000000000000000000000000081526004018080602001828103825260118152602001807f7a6f6e6520686173206e6f206f776e657200000000000000000000000000000081525060200191505060405180910390fd5b600560019054906101000a900473ffffffffffffffffffffffffffffffffffffffff1673ffffffffffffffffffffffffffffffffffffffff16639c675eaa6040518163ffffffff1660e01b815260040160206040518083038186803b1580156127ee57600080fd5b505afa158015612802573d6000803e3d6000fd5b505050506040513d602081101561281857600080fd5b810190808051906020019092919050505073ffffffffffffffffffffffffffffffffffffffff163373ffffffffffffffffffffffffffffffffffffffff1614156128ca576040517f08c379a000000000000000000000000000000000000000000000000000000000815260040180806020018281038252601e8152602001807f63616e206e6f742062652063616c6c6564206279207a6f6e656f776e6572000081525060200191505060405180910390fd5b600060a01b73ffffffffffffffffffffffffffffffffffffffff1916600060010160109054906101000a900460a01b73ffffffffffffffffffffffffffffffffffffffff19161415612984576040517f08c379a000000000000000000000000000000000000000000000000000000000815260040180806020018281038252600d8152602001807f6e6f2074656c6c6572207365740000000000000000000000000000000000000081525060200191505060405180910390fd5b6000801b8114156129fd576040517f08c379a000000000000000000000000000000000000000000000000000000000815260040180806020018281038252601a8152602001807f636f6d6d656e7420686173682063616e6e6f742062652030783000000000000081525060200191505060405180910390fd5b600760008060000160009054906101000a900473ffffffffffffffffffffffffffffffffffffffff1673ffffffffffffffffffffffffffffffffffffffff1673ffffffffffffffffffffffffffffffffffffffff16815260200190815260200160002081908060018154018082558091505090600182039060005260206000200160009091929091909150555050565b600560019054906101000a900473ffffffffffffffffffffffffffffffffffffffff1673ffffffffffffffffffffffffffffffffffffffff163373ffffffffffffffffffffffffffffffffffffffff1614612b50576040517f08c379a000000000000000000000000000000000000000000000000000000000815260040180806020018281038252601a8152602001807f63616e206f6e6c792062652063616c6c6564206279207a6f6e6500000000000081525060200191505060405180910390fd5b612b58613177565b565b600660009054906101000a900473ffffffffffffffffffffffffffffffffffffffff1681565b60011515600560009054906101000a900460ff16151514612c09576040517f08c379a000000000000000000000000000000000000000000000000000000000815260040180806020018281038252601c8152602001807f636f6e7472616374206e6f742079657420696e697469616c697a65640000000081525060200191505060405180910390fd5b600560019054906101000a900473ffffffffffffffffffffffffffffffffffffffff1673ffffffffffffffffffffffffffffffffffffffff166340be3e6a6040518163ffffffff1660e01b8152600401600060405180830381600087803b158015612c7357600080fd5b505af1158015612c87573d6000803e3d6000fd5b50505050600560019054906101000a900473ffffffffffffffffffffffffffffffffffffffff1673ffffffffffffffffffffffffffffffffffffffff16639c675eaa6040518163ffffffff1660e01b815260040160206040518083038186803b158015612cf357600080fd5b505afa158015612d07573d6000803e3d6000fd5b505050506040513d6020811015612d1d57600080fd5b810190808051906020019092919050505073ffffffffffffffffffffffffffffffffffffffff163373ffffffffffffffffffffffffffffffffffffffff1614612dce576040517f08c379a00000000000000000000000000000000000000000000000000000000081526004018080602001828103825260178152602001807f63616c6c6572206973206e6f74207a6f6e656f776e657200000000000000000081525060200191505060405180910390fd5b600060a01b73ffffffffffffffffffffffffffffffffffffffff1916600060010160109054906101000a900460a01b73ffffffffffffffffffffffffffffffffffffffff19161415612e88576040517f08c379a000000000000000000000000000000000000000000000000000000000815260040180806020018281038252600d8152602001807f6e6f2074656c6c6572207365740000000000000000000000000000000000000081525060200191505060405180910390fd5b612e90613177565b565b60001515600560009054906101000a900460ff16151514612f1b576040517f08c379a000000000000000000000000000000000000000000000000000000000815260040180806020018281038252601c8152602001807f636f6e747261637420616c726561647920696e697469616c697a65640000000081525060200191505060405180910390fd5b80600560016101000a81548173ffffffffffffffffffffffffffffffffffffffff021916908373ffffffffffffffffffffffffffffffffffffffff16021790555081600660006101000a81548173ffffffffffffffffffffffffffffffffffffffff021916908373ffffffffffffffffffffffffffffffffffffffff1602179055506001600560006101000a81548160ff0219169083151502179055505050565b600560019054906101000a900473ffffffffffffffffffffffffffffffffffffffff1681565b600080823b905060008111915050919050565b60006006820183511015613071576040517f08c379a00000000000000000000000000000000000000000000000000000000081526004018080602001828103825260108152602001807f206e6f74206c6f6e6720656e6f7567680000000000000000000000000000000081525060200191505060405180910390fd5b60008260208501015190508091505092915050565b6000600c820183511015613102576040517f08c379a00000000000000000000000000000000000000000000000000000000081526004018080602001828103825260108152602001807f206e6f74206c6f6e6720656e6f7567680000000000000000000000000000000081525060200191505060405180910390fd5b60008260208501015190508091505092915050565b60008083141561312a576000905061314b565b600082840290508284828161313b57fe5b041461314657600080fd5b809150505b92915050565b600080821161315f57600080fd5b600082848161316a57fe5b0490508091505092915050565b60008060000160006101000a81548173ffffffffffffffffffffffffffffffffffffffff021916908373ffffffffffffffffffffffffffffffffffffffff16021790555060008060000160146101000a81548160ff021916908360ff160217905550600060801b600060010160006101000a8154816fffffffffffffffffffffffffffffffff021916908360801c0217905550600060a01b600060010160106101000a8154816bffffffffffffffffffffffff021916908360a01c0217905550600060f81b6000600101601c6101000a81548160ff021916908360f81c0217905550600080600101601d6101000a81548161ffff021916908360010b61ffff16021790555060008060020160006101000a81548161ffff021916908360010b61ffff16021790555060008060020160026101000a81548173ffffffffffffffffffffffffffffffffffffffff021916908373ffffffffffffffffffffffffffffffffffffffff1602179055507ff42d90cd3e9eaaf8ac6049ea0903a12eae9225acef55f48c21134387628a16d3600060010160109054906101000a900460a01b604051808273ffffffffffffffffffffffffffffffffffffffff191673ffffffffffffffffffffffffffffffffffffffff1916815260200191505060405180910390a156fe627579526174652073686f756c64206265206265747765656e202d3939393920616e64203939393963616e6e6f74207365742062757952617465206966206e6f7420736574206173206275796572696e76616c696420706f736974696f6e2067656f68617368206368617261637465727373656c6c526174652073686f756c64206265206265747765656e202d39393920616e64203939393963757272656e6379206964206d75737420626520696e2072616e676520312d31303073656c6c526174652073686f756c64206265206265747765656e202d3939393920616e642039393939627579526174652073686f756c64206265206265747765656e202d39393920616e64203939393963616e6e6f74207365742073656c6c52617465206966206e6f74207365742061732073656c6c6572726566657272616c20666565732073686f756c6420696e666572696f7220746f2033332e332025a265627a7a7230582004eea2bb452fe9d020373feb9b20b906104b7eb0683bbbff6e5df0b760d3309764736f6c634300050a0032",
  "source": "pragma solidity ^0.5.10;\n\n\nimport \"openzeppelin-solidity/contracts/math/SafeMath.sol\";\n\nimport \"../interfaces/IGeoRegistry.sol\";\nimport \"../interfaces/IZone.sol\";\nimport \"../interfaces/ITeller.sol\";\n\n\ncontract Teller {\n  // ------------------------------------------------\n  //\n  // Library init\n  //\n  // ------------------------------------------------\n\n  using SafeMath for uint;\n\n  // ------------------------------------------------\n  //\n  // Structs\n  //\n  // ------------------------------------------------\n\n  struct Teller_t {\n    address addr;\n    uint8 currencyId;  // 1 - 100 , see README\n    bytes16 messenger; // telegrame nickname\n    bytes12 position;  // 12 char geohash for location of teller\n    bytes1 settings;   // bitmask containing up to 8 boolean settings (only 2 used currently: isSeller, isBuyer)\n    int16 buyRate;     // margin of tellers , -999 - +9999 , corresponding to -99,9% x 10  , 999,9% x 10\n    int16 sellRate;    // margin of tellers , -999 - +9999 , corresponding to -99,9% x 10  , 999,9% x 10\n    address referrer;\n    uint refFee; // 1 = 0.1%\n    bytes32 description;\n  }\n\n  // ------------------------------------------------\n  //\n  // Variables Private\n  //\n  // ------------------------------------------------\n\n  Teller_t private teller;\n  bytes1 private constant isSellerBitMask = hex\"01\";\n  bytes1 private constant isBuyerBitMask = hex\"02\";\n\n  // ------------------------------------------------\n  //\n  // Variables Public\n  //\n  // ------------------------------------------------\n\n  bool public inited;\n\n  IZone public zone;\n  IGeoRegistry public geo;\n\n\n  // bytes32[] private commentsFree;\n  // audit feedback\n  mapping (address => bytes32[]) private commentsFree;\n\n  // ------------------------------------------------\n  //\n  // Events\n  //\n  // ------------------------------------------------\n\n  event AddTeller(bytes position);\n  event RemoveTeller(bytes12 position);\n  event UpdateTeller(bytes position);\n\n  // ------------------------------------------------\n  //\n  // Modifiers\n  //\n  // ------------------------------------------------\n\n  modifier onlyWhenInited() {\n    // NOTE: somehow if w add an error message, we get 'out of gas' on deploy?!\n    // require(inited == true);\n    require(inited == true, \"contract not yet initialized\");\n    _;\n  }\n  modifier onlyWhenNotInited() {\n    require(inited == false, \"contract already initialized\");\n    _;\n  }\n\n  modifier onlyWhenHasTeller {\n    require(teller.position != bytes12(0), \"no teller set\");\n    _;\n  }\n\n  modifier onlyWhenHasNoTeller {\n    require(teller.position == bytes12(0), \"already exists teller\");\n    _;\n  }\n\n  modifier onlyByZoneContract {\n    require(msg.sender == address(zone), \"can only be called by zone\");\n    _;\n  }\n\n  modifier onlyWhenZoneEnabled {\n    require(geo.zoneIsEnabled(zone.country()), \"country is disabled\");\n    _;\n  }\n\n  modifier updateState {\n    zone.processState();\n    _;\n  }\n\n  modifier onlyWhenZoneHasOwner {\n    require(zone.ownerAddr() != address(0), \"zone has no owner\");\n    _;\n  }\n\n  modifier onlyWhenCallerIsNotZoneOwner {\n    require(msg.sender != zone.ownerAddr(), \"can not be called by zoneowner\");\n    _;\n  }\n\n  modifier onlyWhenCallerIsZoneOwner {\n    require(msg.sender == zone.ownerAddr(), \"caller is not zoneowner\");\n    _;\n  }\n\n  // ------------------------------------------------\n  //\n  // Constructor\n  //\n  // ------------------------------------------------\n\n  function init(\n    address _geo,\n    address _zone\n  )\n    external\n    onlyWhenNotInited\n  {\n    zone = IZone(_zone);\n    geo = IGeoRegistry(_geo);\n    inited = true;\n  }\n\n  // ------------------------------------------------\n  //\n  // Functions Getters Public\n  //\n  // ------------------------------------------------\n\n  function getComments()\n    external view\n    returns (bytes32[] memory)\n  {\n    return commentsFree[teller.addr];\n  }\n\n  function calcReferrerFee(uint _value)\n    public view\n    returns (uint referrerAmount)\n  {\n    referrerAmount = _value.mul(teller.refFee).div(1000);\n  }\n\n  function getTeller()\n    external view\n    returns (address addr, uint8 currencyId, bytes16 messenger, bytes12 position, bytes1 settings, int16 buyRate, int16 sellRate, address referrer, bytes32 description)\n  {\n    return (\n      teller.addr,\n      teller.currencyId,\n      teller.messenger,\n      teller.position,\n      teller.settings,\n      teller.buyRate,\n      teller.sellRate,\n      // funds,\n      teller.referrer,\n      teller.description\n    );\n  }\n\n  function getReferrer()\n  external view\n  returns (address ref, uint refFee) {\n    return (teller.referrer, teller.refFee);\n  }\n\n  function hasTeller()\n    external view\n    returns (bool)\n  {\n    return teller.position != bytes12(0);\n  }\n\n\n  // ------------------------------------------------\n  //\n  // Functions Getters Private\n  //\n  // ------------------------------------------------\n  // audit feedback\n  function isContract(address addr) private view returns (bool) {\n    uint size;\n    assembly { size := extcodesize(addr) }\n    return size > 0;\n  }\n\n  function toBytes7(bytes memory _bytes, uint _start)\n    private\n    pure\n    returns (bytes7) {\n      require(_bytes.length >= (_start + 7), \" not long enough\");\n      bytes7 tempBytes7;\n\n      assembly {\n          tempBytes7 := mload(add(add(_bytes, 0x20), _start))\n      }\n\n      return tempBytes7;\n  }\n  \n    function toBytes6(bytes memory _bytes, uint _start)\n    private\n    pure\n    returns (bytes6)\n  {\n    require(_bytes.length >= (_start + 6), \" not long enough\");\n    bytes6 tempBytes6;\n\n    assembly {\n        tempBytes6 := mload(add(add(_bytes, 0x20), _start))\n    }\n\n    return tempBytes6;\n  }\n  function toBytes12(bytes memory _bytes, uint _start)\n    private\n    pure\n    returns (bytes12) {\n      require(_bytes.length >= (_start + 12), \" not long enough\");\n      bytes12 tempBytes12;\n\n      assembly {\n          tempBytes12 := mload(add(add(_bytes, 0x20), _start))\n      }\n\n      return tempBytes12;\n  }\n\n  // ------------------------------------------------\n  //\n  // Functions Setters Public\n  //\n  // ------------------------------------------------\n\n  // function _removeComments()\n  //   private\n  //   onlyWhenInited\n  //   onlyByZoneContract\n  // {\n  //   delete commentsFree;\n  // }\n\n  function _remove()\n    private\n  {\n\n    // we dont remove comments here, so that zoneowner can not get rid\n    // of negative comments by readding his teller ;)\n    teller.addr = address(0); // late add\n    teller.currencyId = 0;\n    teller.messenger = bytes16(0);\n    teller.position = bytes12(0);\n    teller.settings = bytes1(0);\n    teller.buyRate = 0;\n    teller.sellRate = 0;\n    teller.referrer = address(0);\n    emit RemoveTeller(teller.position);\n  }\n\n  function removeTellerByZone()\n    external\n    onlyByZoneContract\n  {\n    _remove();\n    // audit feedback\n    // _removeComments();\n  }\n\n  function removeTeller()\n    external\n    onlyWhenInited\n    updateState\n    onlyWhenCallerIsZoneOwner\n    onlyWhenHasTeller\n  {\n    _remove();\n  }\n\n  // NOTE: we could just require only last 5 bytes of a bytes12 geohash, since\n  // the first 6 bytes will be the geohash of this zone. But by requiring the full geohash\n  // we can mkae more sure the user is talking to the right zone\n  function addTeller(\n    bytes calldata _position,\n    uint8 _currencyId,\n    bytes16 _messenger,\n    int16 _sellRate,\n    int16 _buyRate,\n    bytes1 _settings,\n    address _referrer,\n    uint _refFee,    // referral fees x 10 (exemple, for 21.3 % -> 213) Max is 33.3%. The fees its taken from the harbeger taxes\n    bytes32 _description\n  )\n    external\n    onlyWhenInited\n    onlyWhenZoneEnabled\n    updateState\n    onlyWhenCallerIsZoneOwner\n    // onlyWhenHasNoTeller\n  {\n    require(!isContract(_referrer), 'referrer cannot be a contract');\n    require(_position.length == 12, \"expected position to be 12 bytes\");\n    require(toBytes6(_position, 0) == zone.geohash(), \"position is not inside this zone\");\n    require(geo.validGeohashChars(_position), \"invalid position geohash characters\");\n    require(_refFee <= 333, 'referral fees should inferior to 33.3 %');\n    require(_currencyId >= 1 && _currencyId <= 100, \"currency id must be in range 1-100\");\n    // _messenger can be 0x0 if he has no telegram\n\n    if (_settings & isSellerBitMask != 0) { // seller bit is set => teller is a \"seller\"\n      require(_sellRate >= -999 && _sellRate <= 9999, \"sellRate should be between -999 and 9999\");\n    } else {\n      require(_sellRate == 0, \"cannot set sellRate if not set as seller\");\n    }\n\n    if (_settings & isBuyerBitMask != 0) { // buyer bit is set => teller is a \"buyer\"\n      require(_buyRate >= -999 && _buyRate <= 9999, \"buyRate should be between -999 and 9999\");\n    } else {\n      require(_buyRate == 0, \"cannot set buyRate if not set as buyer\");\n    }\n\n    teller.addr = msg.sender;\n    teller.currencyId = _currencyId;\n    teller.messenger = _messenger;\n    teller.buyRate = _buyRate;\n    teller.sellRate = _sellRate;\n    teller.position = toBytes12(_position, 0);\n    teller.settings = _settings;\n    teller.referrer = _referrer;\n    teller.refFee = _refFee;\n    teller.description = _description;\n    emit AddTeller(_position);\n  }\n\n  function updateTeller(\n    bytes calldata _position,\n    uint8 _currencyId,\n    bytes16 _messenger,\n    int16 _sellRate,\n    int16 _buyRate,\n    bytes1 _settings,\n    bytes32 _description\n  )\n    external\n    onlyWhenInited\n    onlyWhenZoneEnabled\n    updateState\n    onlyWhenCallerIsZoneOwner\n    onlyWhenHasTeller // audit feedback\n    {\n      require(_position.length == 12, \"expected position to be 12 bytes\");\n      require(toBytes6(_position, 0) == zone.geohash(), \"position is not inside this zone\");\n      require(geo.validGeohashChars(_position), \"invalid position geohash characters\");\n      if (_settings & isSellerBitMask != 0) { // seller bit is set => teller is a \"seller\"\n        require(_sellRate >= -9999 && _sellRate <= 9999, \"sellRate should be between -9999 and 9999\");\n      } else {\n        require(_sellRate == 0, \"cannot set sellRate if not set as seller\");\n      }\n\n      if (_settings & isBuyerBitMask != 0) { // buyer bit is set => teller is a \"buyer\"\n        require(_buyRate >= -9999 && _buyRate <= 9999, \"buyRate should be between -9999 and 9999\");\n      } else {\n        require(_buyRate == 0, \"cannot set buyRate if not set as buyer\");\n      }\n      teller.currencyId = _currencyId;\n      teller.messenger = _messenger;\n      teller.buyRate = _buyRate;\n      teller.sellRate = _sellRate;\n      teller.position = toBytes12(_position, 0);\n      teller.settings = _settings;\n      teller.description = _description;\n      emit UpdateTeller(_position);\n    }\n\n  function addComment(bytes32 _commentHash)\n    external\n    onlyWhenInited\n    onlyWhenZoneEnabled\n    updateState\n    onlyWhenZoneHasOwner\n    onlyWhenCallerIsNotZoneOwner\n    onlyWhenHasTeller\n  {\n    require(_commentHash != bytes32(0), \"comment hash cannot be 0x0\");\n    // audit feedback\n    commentsFree[teller.addr].push(_commentHash);\n  }\n}\n",
  "sourcePath": "/Users/mehdi/code/dether/contractV2/contracts/core/Teller.sol",
  "compiler": {
    "name": "solc",
    "version": "0.5.10+commit.5a6ea5b1.Emscripten.clang"
  },
  "schemaVersion": "3.0.13",
  "updatedAt": "2019-08-27T19:06:17.637Z",
  "devdoc": {
    "methods": {}
  },
  "userdoc": {
    "methods": {}
  }
}