{
  "contractName": "Teller",
  "abi": [
    {
      "constant": true,
      "inputs": [],
      "name": "inited",
      "outputs": [
        {
          "name": "",
          "type": "bool"
        }
      ],
      "payable": false,
      "stateMutability": "view",
      "type": "function"
    },
    {
      "constant": true,
      "inputs": [],
      "name": "geo",
      "outputs": [
        {
          "name": "",
          "type": "address"
        }
      ],
      "payable": false,
      "stateMutability": "view",
      "type": "function"
    },
    {
      "constant": true,
      "inputs": [],
      "name": "zone",
      "outputs": [
        {
          "name": "",
          "type": "address"
        }
      ],
      "payable": false,
      "stateMutability": "view",
      "type": "function"
    },
    {
      "anonymous": false,
      "inputs": [
        {
          "indexed": false,
          "name": "position",
          "type": "bytes"
        }
      ],
      "name": "AddTeller",
      "type": "event"
    },
    {
      "anonymous": false,
      "inputs": [
        {
          "indexed": false,
          "name": "position",
          "type": "bytes12"
        }
      ],
      "name": "RemoveTeller",
      "type": "event"
    },
    {
      "anonymous": false,
      "inputs": [
        {
          "indexed": false,
          "name": "position",
          "type": "bytes"
        }
      ],
      "name": "UpdateTeller",
      "type": "event"
    },
    {
      "constant": false,
      "inputs": [
        {
          "name": "_geo",
          "type": "address"
        },
        {
          "name": "_zone",
          "type": "address"
        }
      ],
      "name": "init",
      "outputs": [],
      "payable": false,
      "stateMutability": "nonpayable",
      "type": "function"
    },
    {
      "constant": true,
      "inputs": [],
      "name": "getComments",
      "outputs": [
        {
          "name": "",
          "type": "bytes32[]"
        }
      ],
      "payable": false,
      "stateMutability": "view",
      "type": "function"
    },
    {
      "constant": true,
      "inputs": [
        {
          "name": "_value",
          "type": "uint256"
        }
      ],
      "name": "calcReferrerFee",
      "outputs": [
        {
          "name": "referrerAmount",
          "type": "uint256"
        }
      ],
      "payable": false,
      "stateMutability": "view",
      "type": "function"
    },
    {
      "constant": true,
      "inputs": [],
      "name": "getTeller",
      "outputs": [
        {
          "name": "addr",
          "type": "address"
        },
        {
          "name": "currencyId",
          "type": "uint8"
        },
        {
          "name": "messenger",
          "type": "bytes16"
        },
        {
          "name": "position",
          "type": "bytes12"
        },
        {
          "name": "settings",
          "type": "bytes1"
        },
        {
          "name": "buyRate",
          "type": "int16"
        },
        {
          "name": "sellRate",
          "type": "int16"
        },
        {
          "name": "referrer",
          "type": "address"
        },
        {
          "name": "description",
          "type": "bytes32"
        }
      ],
      "payable": false,
      "stateMutability": "view",
      "type": "function"
    },
    {
      "constant": true,
      "inputs": [],
      "name": "getReferrer",
      "outputs": [
        {
          "name": "ref",
          "type": "address"
        },
        {
          "name": "refFee",
          "type": "uint256"
        }
      ],
      "payable": false,
      "stateMutability": "view",
      "type": "function"
    },
    {
      "constant": true,
      "inputs": [],
      "name": "hasTeller",
      "outputs": [
        {
          "name": "",
          "type": "bool"
        }
      ],
      "payable": false,
      "stateMutability": "view",
      "type": "function"
    },
    {
      "constant": false,
      "inputs": [],
      "name": "removeTellerByZone",
      "outputs": [],
      "payable": false,
      "stateMutability": "nonpayable",
      "type": "function"
    },
    {
      "constant": false,
      "inputs": [],
      "name": "removeTeller",
      "outputs": [],
      "payable": false,
      "stateMutability": "nonpayable",
      "type": "function"
    },
    {
      "constant": false,
      "inputs": [
        {
          "name": "_position",
          "type": "bytes"
        },
        {
          "name": "_currencyId",
          "type": "uint8"
        },
        {
          "name": "_messenger",
          "type": "bytes16"
        },
        {
          "name": "_sellRate",
          "type": "int16"
        },
        {
          "name": "_buyRate",
          "type": "int16"
        },
        {
          "name": "_settings",
          "type": "bytes1"
        },
        {
          "name": "_referrer",
          "type": "address"
        },
        {
          "name": "_refFee",
          "type": "uint256"
        },
        {
          "name": "_description",
          "type": "bytes32"
        }
      ],
      "name": "addTeller",
      "outputs": [],
      "payable": false,
      "stateMutability": "nonpayable",
      "type": "function"
    },
    {
      "constant": false,
      "inputs": [
        {
          "name": "_position",
          "type": "bytes"
        },
        {
          "name": "_currencyId",
          "type": "uint8"
        },
        {
          "name": "_messenger",
          "type": "bytes16"
        },
        {
          "name": "_sellRate",
          "type": "int16"
        },
        {
          "name": "_buyRate",
          "type": "int16"
        },
        {
          "name": "_settings",
          "type": "bytes1"
        },
        {
          "name": "_description",
          "type": "bytes32"
        }
      ],
      "name": "updateTeller",
      "outputs": [],
      "payable": false,
      "stateMutability": "nonpayable",
      "type": "function"
    },
    {
      "constant": false,
      "inputs": [
        {
          "name": "_commentHash",
          "type": "bytes32"
        }
      ],
      "name": "addComment",
      "outputs": [],
      "payable": false,
      "stateMutability": "nonpayable",
      "type": "function"
    }
  ],
  "bytecode": "0x608060405234801561001057600080fd5b50612c70806100206000396000f3fe608060405234801561001057600080fd5b50600436106100ea5760003560e01c80639e1e61601161008c578063d944e6a311610066578063d944e6a3146105c6578063efcb5ba614610610578063f09a40161461061a578063f310b9851461067e576100ea565b80639e1e61601461056c578063a74255b01461058e578063b030b1f7146105bc576100ea565b80635e52a00b116100c85780635e52a00b146103225780636cea244b1461037357806391f3410c146103b55780639787d10714610414576100ea565b806326fc0654146100ef5780633fb0bd721461020d57806343c885ba14610300575b600080fd5b61020b600480360361012081101561010657600080fd5b810190808035906020019064010000000081111561012357600080fd5b82018360208201111561013557600080fd5b8035906020019184600183028401116401000000008311171561015757600080fd5b9091929391929390803560ff16906020019092919080356fffffffffffffffffffffffffffffffff19169060200190929190803560010b9060200190929190803560010b906020019092919080357effffffffffffffffffffffffffffffffffffffffffffffffffffffffffffff19169060200190929190803573ffffffffffffffffffffffffffffffffffffffff16906020019092919080359060200190929190803590602001909291905050506106c8565b005b6102fe600480360360e081101561022357600080fd5b810190808035906020019064010000000081111561024057600080fd5b82018360208201111561025257600080fd5b8035906020019184600183028401116401000000008311171561027457600080fd5b9091929391929390803560ff16906020019092919080356fffffffffffffffffffffffffffffffff19169060200190929190803560010b9060200190929190803560010b906020019092919080357effffffffffffffffffffffffffffffffffffffffffffffffffffffffffffff1916906020019092919080359060200190929190505050611202565b005b610308611be2565b604051808215151515815260200191505060405180910390f35b61032a611bf5565b604051808373ffffffffffffffffffffffffffffffffffffffff1673ffffffffffffffffffffffffffffffffffffffff1681526020018281526020019250505060405180910390f35b61039f6004803603602081101561038957600080fd5b8101908080359060200190929190505050611c2c565b6040518082815260200191505060405180910390f35b6103bd611c61565b6040518080602001828103825283818151815260200191508051906020019060200280838360005b838110156104005780820151818401526020810190506103e5565b505050509050019250505060405180910390f35b61041c611d1a565b604051808a73ffffffffffffffffffffffffffffffffffffffff1673ffffffffffffffffffffffffffffffffffffffff1681526020018960ff1660ff168152602001886fffffffffffffffffffffffffffffffff19166fffffffffffffffffffffffffffffffff191681526020018773ffffffffffffffffffffffffffffffffffffffff191673ffffffffffffffffffffffffffffffffffffffff19168152602001867effffffffffffffffffffffffffffffffffffffffffffffffffffffffffffff19167effffffffffffffffffffffffffffffffffffffffffffffffffffffffffffff191681526020018560010b60010b81526020018460010b60010b81526020018373ffffffffffffffffffffffffffffffffffffffff1673ffffffffffffffffffffffffffffffffffffffff168152602001828152602001995050505050505050505060405180910390f35b610574611e07565b604051808215151515815260200191505060405180910390f35b6105ba600480360360208110156105a457600080fd5b8101908080359060200190929190505050611e55565b005b6105c4612323565b005b6105ce6123f0565b604051808273ffffffffffffffffffffffffffffffffffffffff1673ffffffffffffffffffffffffffffffffffffffff16815260200191505060405180910390f35b610618612416565b005b61067c6004803603604081101561063057600080fd5b81019080803573ffffffffffffffffffffffffffffffffffffffff169060200190929190803573ffffffffffffffffffffffffffffffffffffffff16906020019092919050505061269f565b005b6106866127c9565b604051808273ffffffffffffffffffffffffffffffffffffffff1673ffffffffffffffffffffffffffffffffffffffff16815260200191505060405180910390f35b600560019054906101000a900473ffffffffffffffffffffffffffffffffffffffff1673ffffffffffffffffffffffffffffffffffffffff166340be3e6a6040518163ffffffff1660e01b8152600401600060405180830381600087803b15801561073257600080fd5b505af1158015610746573d6000803e3d6000fd5b50505050600560019054906101000a900473ffffffffffffffffffffffffffffffffffffffff1673ffffffffffffffffffffffffffffffffffffffff16639c675eaa6040518163ffffffff1660e01b815260040160206040518083038186803b1580156107b257600080fd5b505afa1580156107c6573d6000803e3d6000fd5b505050506040513d60208110156107dc57600080fd5b810190808051906020019092919050505073ffffffffffffffffffffffffffffffffffffffff163373ffffffffffffffffffffffffffffffffffffffff161461088d576040517f08c379a00000000000000000000000000000000000000000000000000000000081526004018080602001828103825260178152602001807f63616c6c6572206973206e6f74207a6f6e656f776e657200000000000000000081525060200191505060405180910390fd5b600060a01b73ffffffffffffffffffffffffffffffffffffffff1916600060010160109054906101000a900460a01b73ffffffffffffffffffffffffffffffffffffffff191614610946576040517f08c379a00000000000000000000000000000000000000000000000000000000081526004018080602001828103825260158152602001807f616c7265616479206578697374732074656c6c6572000000000000000000000081525060200191505060405180910390fd5b600c8a8a9050146109bf576040517f08c379a00000000000000000000000000000000000000000000000000000000081526004018080602001828103825260208152602001807f657870656374656420706f736974696f6e20746f20626520313220627974657381525060200191505060405180910390fd5b600560019054906101000a900473ffffffffffffffffffffffffffffffffffffffff1673ffffffffffffffffffffffffffffffffffffffff166308e44f886040518163ffffffff1660e01b815260040160206040518083038186803b158015610a2757600080fd5b505afa158015610a3b573d6000803e3d6000fd5b505050506040513d6020811015610a5157600080fd5b810190808051906020019092919050505079ffffffffffffffffffffffffffffffffffffffffffffffffffff1916610ace8b8b8080601f016020809104026020016040519081016040528093929190818152602001838380828437600081840152601f19601f8201169050808301925050505050505060006127ef565b79ffffffffffffffffffffffffffffffffffffffffffffffffffff191614610b5e576040517f08c379a00000000000000000000000000000000000000000000000000000000081526004018080602001828103825260208152602001807f706f736974696f6e206973206e6f7420696e736964652074686973207a6f6e6581525060200191505060405180910390fd5b600660009054906101000a900473ffffffffffffffffffffffffffffffffffffffff1673ffffffffffffffffffffffffffffffffffffffff16631d0a48318b8b6040518363ffffffff1660e01b815260040180806020018281038252848482818152602001925080828437600081840152601f19601f8201169050808301925050509350505050602060405180830381600087803b158015610bff57600080fd5b505af1158015610c13573d6000803e3d6000fd5b505050506040513d6020811015610c2957600080fd5b8101908080519060200190929190505050610c8f576040517f08c379a0000000000000000000000000000000000000000000000000000000008152600401808060200182810382526023815260200180612b306023913960400191505060405180910390fd5b61014d821115610cea576040517f08c379a0000000000000000000000000000000000000000000000000000000008152600401808060200182810382526027815260200180612c156027913960400191505060405180910390fd5b60018860ff1610158015610d02575060648860ff1611155b610d57576040517f08c379a0000000000000000000000000000000000000000000000000000000008152600401808060200182810382526022815260200180612b7b6022913960400191505060405180910390fd5b600060f81b7f010000000000000000000000000000000000000000000000000000000000000085167effffffffffffffffffffffffffffffffffffffffffffffffffffffffffffff191614610e38577ffffffffffffffffffffffffffffffffffffffffffffffffffffffffffffffc198660010b12158015610dde575061270f8660010b13155b610e33576040517f08c379a0000000000000000000000000000000000000000000000000000000008152600401808060200182810382526028815260200180612b536028913960400191505060405180910390fd5b610e95565b60008660010b14610e94576040517f08c379a0000000000000000000000000000000000000000000000000000000008152600401808060200182810382526028815260200180612bed6028913960400191505060405180910390fd5b5b600060f81b7f020000000000000000000000000000000000000000000000000000000000000085167effffffffffffffffffffffffffffffffffffffffffffffffffffffffffffff191614610f76577ffffffffffffffffffffffffffffffffffffffffffffffffffffffffffffffc198560010b12158015610f1c575061270f8560010b13155b610f71576040517f08c379a0000000000000000000000000000000000000000000000000000000008152600401808060200182810382526027815260200180612bc66027913960400191505060405180910390fd5b610fd3565b60008560010b14610fd2576040517f08c379a0000000000000000000000000000000000000000000000000000000008152600401808060200182810382526026815260200180612b0a6026913960400191505060405180910390fd5b5b336000800160006101000a81548173ffffffffffffffffffffffffffffffffffffffff021916908373ffffffffffffffffffffffffffffffffffffffff160217905550876000800160146101000a81548160ff021916908360ff16021790555086600060010160006101000a8154816fffffffffffffffffffffffffffffffff021916908360801c0217905550846000600101601d6101000a81548161ffff021916908360010b61ffff16021790555085600060020160006101000a81548161ffff021916908360010b61ffff1602179055506110f58a8a8080601f016020809104026020016040519081016040528093929190818152602001838380828437600081840152601f19601f820116905080830192505050505050506000612880565b600060010160106101000a8154816bffffffffffffffffffffffff021916908360a01c0217905550836000600101601c6101000a81548160ff021916908360f81c021790555082600060020160026101000a81548173ffffffffffffffffffffffffffffffffffffffff021916908373ffffffffffffffffffffffffffffffffffffffff16021790555081600060030181905550806000600401819055507fb4021cffe7d745fd3fc80c69aa96c0953d33796f7e1da0045147bcbb27c45bdf8a8a60405180806020018281038252848482818152602001925080828437600081840152601f19601f820116905080830192505050935050505060405180910390a150505050505050505050565b600560019054906101000a900473ffffffffffffffffffffffffffffffffffffffff1673ffffffffffffffffffffffffffffffffffffffff166340be3e6a6040518163ffffffff1660e01b8152600401600060405180830381600087803b15801561126c57600080fd5b505af1158015611280573d6000803e3d6000fd5b50505050600560019054906101000a900473ffffffffffffffffffffffffffffffffffffffff1673ffffffffffffffffffffffffffffffffffffffff16639c675eaa6040518163ffffffff1660e01b815260040160206040518083038186803b1580156112ec57600080fd5b505afa158015611300573d6000803e3d6000fd5b505050506040513d602081101561131657600080fd5b810190808051906020019092919050505073ffffffffffffffffffffffffffffffffffffffff163373ffffffffffffffffffffffffffffffffffffffff16146113c7576040517f08c379a00000000000000000000000000000000000000000000000000000000081526004018080602001828103825260178152602001807f63616c6c6572206973206e6f74207a6f6e656f776e657200000000000000000081525060200191505060405180910390fd5b600060a01b73ffffffffffffffffffffffffffffffffffffffff1916600060010160109054906101000a900460a01b73ffffffffffffffffffffffffffffffffffffffff19161415611481576040517f08c379a000000000000000000000000000000000000000000000000000000000815260040180806020018281038252600d8152602001807f6e6f2074656c6c6572207365740000000000000000000000000000000000000081525060200191505060405180910390fd5b600c88889050146114fa576040517f08c379a00000000000000000000000000000000000000000000000000000000081526004018080602001828103825260208152602001807f657870656374656420706f736974696f6e20746f20626520313220627974657381525060200191505060405180910390fd5b600560019054906101000a900473ffffffffffffffffffffffffffffffffffffffff1673ffffffffffffffffffffffffffffffffffffffff166308e44f886040518163ffffffff1660e01b815260040160206040518083038186803b15801561156257600080fd5b505afa158015611576573d6000803e3d6000fd5b505050506040513d602081101561158c57600080fd5b810190808051906020019092919050505079ffffffffffffffffffffffffffffffffffffffffffffffffffff191661160989898080601f016020809104026020016040519081016040528093929190818152602001838380828437600081840152601f19601f8201169050808301925050505050505060006127ef565b79ffffffffffffffffffffffffffffffffffffffffffffffffffff191614611699576040517f08c379a00000000000000000000000000000000000000000000000000000000081526004018080602001828103825260208152602001807f706f736974696f6e206973206e6f7420696e736964652074686973207a6f6e6581525060200191505060405180910390fd5b600660009054906101000a900473ffffffffffffffffffffffffffffffffffffffff1673ffffffffffffffffffffffffffffffffffffffff16631d0a483189896040518363ffffffff1660e01b815260040180806020018281038252848482818152602001925080828437600081840152601f19601f8201169050808301925050509350505050602060405180830381600087803b15801561173a57600080fd5b505af115801561174e573d6000803e3d6000fd5b505050506040513d602081101561176457600080fd5b81019080805190602001909291905050506117ca576040517f08c379a0000000000000000000000000000000000000000000000000000000008152600401808060200182810382526023815260200180612b306023913960400191505060405180910390fd5b600060f81b7f010000000000000000000000000000000000000000000000000000000000000083167effffffffffffffffffffffffffffffffffffffffffffffffffffffffffffff1916146118ab577ffffffffffffffffffffffffffffffffffffffffffffffffffffffffffffffc198460010b12158015611851575061270f8460010b13155b6118a6576040517f08c379a0000000000000000000000000000000000000000000000000000000008152600401808060200182810382526029815260200180612b9d6029913960400191505060405180910390fd5b611908565b60008460010b14611907576040517f08c379a0000000000000000000000000000000000000000000000000000000008152600401808060200182810382526028815260200180612bed6028913960400191505060405180910390fd5b5b600060f81b7f020000000000000000000000000000000000000000000000000000000000000083167effffffffffffffffffffffffffffffffffffffffffffffffffffffffffffff1916146119e9577ffffffffffffffffffffffffffffffffffffffffffffffffffffffffffffffc198360010b1215801561198f575061270f8360010b13155b6119e4576040517f08c379a0000000000000000000000000000000000000000000000000000000008152600401808060200182810382526028815260200180612ae26028913960400191505060405180910390fd5b611a46565b60008360010b14611a45576040517f08c379a0000000000000000000000000000000000000000000000000000000008152600401808060200182810382526026815260200180612b0a6026913960400191505060405180910390fd5b5b856000800160146101000a81548160ff021916908360ff16021790555084600060010160006101000a8154816fffffffffffffffffffffffffffffffff021916908360801c0217905550826000600101601d6101000a81548161ffff021916908360010b61ffff16021790555083600060020160006101000a81548161ffff021916908360010b61ffff160217905550611b2588888080601f016020809104026020016040519081016040528093929190818152602001838380828437600081840152601f19601f820116905080830192505050505050506000612880565b600060010160106101000a8154816bffffffffffffffffffffffff021916908360a01c0217905550816000600101601c6101000a81548160ff021916908360f81c0217905550806000600401819055507f7fb7f43bfeb6af8d5097a42d70299fe271bf98a907daa111542e9d874c647bfa888860405180806020018281038252848482818152602001925080828437600081840152601f19601f820116905080830192505050935050505060405180910390a15050505050505050565b600560009054906101000a900460ff1681565b600080600060020160029054906101000a900473ffffffffffffffffffffffffffffffffffffffff16600060030154915091509091565b6000611c5a6103e8611c4c6000600301548561291190919063ffffffff16565b61294b90919063ffffffff16565b9050919050565b6060600760008060000160009054906101000a900473ffffffffffffffffffffffffffffffffffffffff1673ffffffffffffffffffffffffffffffffffffffff1673ffffffffffffffffffffffffffffffffffffffff168152602001908152602001600020805480602002602001604051908101604052809291908181526020018280548015611d1057602002820191906000526020600020905b815481526020019060010190808311611cfc575b5050505050905090565b60008060008060008060008060008060000160009054906101000a900473ffffffffffffffffffffffffffffffffffffffff166000800160149054906101000a900460ff16600060010160009054906101000a900460801b600060010160109054906101000a900460a01b6000600101601c9054906101000a900460f81b6000600101601d9054906101000a900460010b600060020160009054906101000a900460010b600060020160029054906101000a900473ffffffffffffffffffffffffffffffffffffffff16600060040154985098509850985098509850985098509850909192939495969798565b60008060a01b73ffffffffffffffffffffffffffffffffffffffff1916600060010160109054906101000a900460a01b73ffffffffffffffffffffffffffffffffffffffff19161415905090565b600560019054906101000a900473ffffffffffffffffffffffffffffffffffffffff1673ffffffffffffffffffffffffffffffffffffffff166340be3e6a6040518163ffffffff1660e01b8152600401600060405180830381600087803b158015611ebf57600080fd5b505af1158015611ed3573d6000803e3d6000fd5b50505050600073ffffffffffffffffffffffffffffffffffffffff16600560019054906101000a900473ffffffffffffffffffffffffffffffffffffffff1673ffffffffffffffffffffffffffffffffffffffff16639c675eaa6040518163ffffffff1660e01b815260040160206040518083038186803b158015611f5757600080fd5b505afa158015611f6b573d6000803e3d6000fd5b505050506040513d6020811015611f8157600080fd5b810190808051906020019092919050505073ffffffffffffffffffffffffffffffffffffffff16141561201c576040517f08c379a00000000000000000000000000000000000000000000000000000000081526004018080602001828103825260118152602001807f7a6f6e6520686173206e6f206f776e657200000000000000000000000000000081525060200191505060405180910390fd5b600560019054906101000a900473ffffffffffffffffffffffffffffffffffffffff1673ffffffffffffffffffffffffffffffffffffffff16639c675eaa6040518163ffffffff1660e01b815260040160206040518083038186803b15801561208457600080fd5b505afa158015612098573d6000803e3d6000fd5b505050506040513d60208110156120ae57600080fd5b810190808051906020019092919050505073ffffffffffffffffffffffffffffffffffffffff163373ffffffffffffffffffffffffffffffffffffffff161415612160576040517f08c379a000000000000000000000000000000000000000000000000000000000815260040180806020018281038252601e8152602001807f63616e206e6f742062652063616c6c6564206279207a6f6e656f776e6572000081525060200191505060405180910390fd5b600060a01b73ffffffffffffffffffffffffffffffffffffffff1916600060010160109054906101000a900460a01b73ffffffffffffffffffffffffffffffffffffffff1916141561221a576040517f08c379a000000000000000000000000000000000000000000000000000000000815260040180806020018281038252600d8152602001807f6e6f2074656c6c6572207365740000000000000000000000000000000000000081525060200191505060405180910390fd5b6000801b811415612293576040517f08c379a000000000000000000000000000000000000000000000000000000000815260040180806020018281038252601a8152602001807f636f6d6d656e7420686173682063616e6e6f742062652030783000000000000081525060200191505060405180910390fd5b600760008060000160009054906101000a900473ffffffffffffffffffffffffffffffffffffffff1673ffffffffffffffffffffffffffffffffffffffff1673ffffffffffffffffffffffffffffffffffffffff16815260200190815260200160002081908060018154018082558091505090600182039060005260206000200160009091929091909150555050565b600560019054906101000a900473ffffffffffffffffffffffffffffffffffffffff1673ffffffffffffffffffffffffffffffffffffffff163373ffffffffffffffffffffffffffffffffffffffff16146123e6576040517f08c379a000000000000000000000000000000000000000000000000000000000815260040180806020018281038252601a8152602001807f63616e206f6e6c792062652063616c6c6564206279207a6f6e6500000000000081525060200191505060405180910390fd5b6123ee612971565b565b600660009054906101000a900473ffffffffffffffffffffffffffffffffffffffff1681565b600560019054906101000a900473ffffffffffffffffffffffffffffffffffffffff1673ffffffffffffffffffffffffffffffffffffffff166340be3e6a6040518163ffffffff1660e01b8152600401600060405180830381600087803b15801561248057600080fd5b505af1158015612494573d6000803e3d6000fd5b50505050600560019054906101000a900473ffffffffffffffffffffffffffffffffffffffff1673ffffffffffffffffffffffffffffffffffffffff16639c675eaa6040518163ffffffff1660e01b815260040160206040518083038186803b15801561250057600080fd5b505afa158015612514573d6000803e3d6000fd5b505050506040513d602081101561252a57600080fd5b810190808051906020019092919050505073ffffffffffffffffffffffffffffffffffffffff163373ffffffffffffffffffffffffffffffffffffffff16146125db576040517f08c379a00000000000000000000000000000000000000000000000000000000081526004018080602001828103825260178152602001807f63616c6c6572206973206e6f74207a6f6e656f776e657200000000000000000081525060200191505060405180910390fd5b600060a01b73ffffffffffffffffffffffffffffffffffffffff1916600060010160109054906101000a900460a01b73ffffffffffffffffffffffffffffffffffffffff19161415612695576040517f08c379a000000000000000000000000000000000000000000000000000000000815260040180806020018281038252600d8152602001807f6e6f2074656c6c6572207365740000000000000000000000000000000000000081525060200191505060405180910390fd5b61269d612971565b565b60001515600560009054906101000a900460ff16151514612728576040517f08c379a000000000000000000000000000000000000000000000000000000000815260040180806020018281038252601c8152602001807f636f6e747261637420616c726561647920696e697469616c697a65640000000081525060200191505060405180910390fd5b80600560016101000a81548173ffffffffffffffffffffffffffffffffffffffff021916908373ffffffffffffffffffffffffffffffffffffffff16021790555081600660006101000a81548173ffffffffffffffffffffffffffffffffffffffff021916908373ffffffffffffffffffffffffffffffffffffffff1602179055506001600560006101000a81548160ff0219169083151502179055505050565b600560019054906101000a900473ffffffffffffffffffffffffffffffffffffffff1681565b6000600682018351101561286b576040517f08c379a00000000000000000000000000000000000000000000000000000000081526004018080602001828103825260108152602001807f206e6f74206c6f6e6720656e6f7567680000000000000000000000000000000081525060200191505060405180910390fd5b60008260208501015190508091505092915050565b6000600c8201835110156128fc576040517f08c379a00000000000000000000000000000000000000000000000000000000081526004018080602001828103825260108152602001807f206e6f74206c6f6e6720656e6f7567680000000000000000000000000000000081525060200191505060405180910390fd5b60008260208501015190508091505092915050565b6000808314156129245760009050612945565b600082840290508284828161293557fe5b041461294057600080fd5b809150505b92915050565b600080821161295957600080fd5b600082848161296457fe5b0490508091505092915050565b7ff42d90cd3e9eaaf8ac6049ea0903a12eae9225acef55f48c21134387628a16d3600060010160109054906101000a900460a01b604051808273ffffffffffffffffffffffffffffffffffffffff191673ffffffffffffffffffffffffffffffffffffffff1916815260200191505060405180910390a16000806000820160006101000a81549073ffffffffffffffffffffffffffffffffffffffff02191690556000820160146101000a81549060ff02191690556001820160006101000a8154906fffffffffffffffffffffffffffffffff02191690556001820160106101000a8154906bffffffffffffffffffffffff021916905560018201601c6101000a81549060ff021916905560018201601d6101000a81549061ffff02191690556002820160006101000a81549061ffff02191690556002820160026101000a81549073ffffffffffffffffffffffffffffffffffffffff021916905560038201600090556004820160009055505056fe627579526174652073686f756c64206265206265747765656e202d3939393920616e64203939393963616e6e6f74207365742062757952617465206966206e6f7420736574206173206275796572696e76616c696420706f736974696f6e2067656f68617368206368617261637465727373656c6c526174652073686f756c64206265206265747765656e202d39393920616e64203939393963757272656e6379206964206d75737420626520696e2072616e676520312d31303073656c6c526174652073686f756c64206265206265747765656e202d3939393920616e642039393939627579526174652073686f756c64206265206265747765656e202d39393920616e64203939393963616e6e6f74207365742073656c6c52617465206966206e6f74207365742061732073656c6c6572726566657272616c20666565732073686f756c6420696e666572696f7220746f2033332e332025a265627a7a723058205c9924b542cc3cea81da42c31c577993c29f6b70149aed2bef9e2c187b29d6e264736f6c634300050a0032",
  "source": "pragma solidity ^0.5.10;\n\n\nimport \"openzeppelin-solidity/contracts/math/SafeMath.sol\";\n\nimport \"../interfaces/IGeoRegistry.sol\";\nimport \"../interfaces/IZone.sol\";\nimport \"../interfaces/ITeller.sol\";\n\n\ncontract Teller {\n  // ------------------------------------------------\n  //\n  // Library init\n  //\n  // ------------------------------------------------\n\n  using SafeMath for uint;\n\n  // ------------------------------------------------\n  //\n  // Structs\n  //\n  // ------------------------------------------------\n\n  struct Teller_t {\n    address addr;\n    uint8 currencyId;  // 1 - 100 , see README\n    bytes16 messenger; // telegrame nickname\n    bytes12 position;  // 12 char geohash for location of teller\n    bytes1 settings;   // bitmask containing up to 8 boolean settings (only 2 used currently: isSeller, isBuyer)\n    int16 buyRate;     // margin of tellers , -999 - +9999 , corresponding to -99,9% x 10  , 999,9% x 10\n    int16 sellRate;    // margin of tellers , -999 - +9999 , corresponding to -99,9% x 10  , 999,9% x 10\n    address referrer;\n    uint refFee; // 1 = 0.1%\n    bytes32 description;\n  }\n\n  // ------------------------------------------------\n  //\n  // Variables Private\n  //\n  // ------------------------------------------------\n\n  Teller_t private teller;\n  bytes1 private constant isSellerBitMask = hex\"01\";\n  bytes1 private constant isBuyerBitMask = hex\"02\";\n\n  // ------------------------------------------------\n  //\n  // Variables Public\n  //\n  // ------------------------------------------------\n\n  bool public inited;\n\n  IZone public zone;\n  IGeoRegistry public geo;\n\n\n  // bytes32[] private commentsFree;\n  // audit feedback\n  mapping (address => bytes32[]) private commentsFree;\n\n  // ------------------------------------------------\n  //\n  // Events\n  //\n  // ------------------------------------------------\n\n  event AddTeller(bytes position);\n  event RemoveTeller(bytes12 position);\n  event UpdateTeller(bytes position);\n\n  // ------------------------------------------------\n  //\n  // Modifiers\n  //\n  // ------------------------------------------------\n\n  // modifier onlyWhenInited() {\n  //   // NOTE: somehow if w add an error message, we get 'out of gas' on deploy?!\n  //   // require(inited == true);\n  //   require(inited == true, \"contract not yet initialized\");\n  //   _;\n  // }\n  modifier onlyWhenNotInited() {\n    require(inited == false, \"contract already initialized\");\n    _;\n  }\n\n  modifier onlyWhenHasTeller {\n    require(teller.position != bytes12(0), \"no teller set\");\n    _;\n  }\n\n  modifier onlyWhenHasNoTeller {\n    require(teller.position == bytes12(0), \"already exists teller\");\n    _;\n  }\n\n  modifier onlyByZoneContract {\n    require(msg.sender == address(zone), \"can only be called by zone\");\n    _;\n  }\n\n  // modifier onlyWhenZoneEnabled {\n  //   require(geo.zoneIsEnabled(zone.country()), \"country is disabled\");\n  //   _;\n  // }\n\n  modifier updateState {\n    zone.processState();\n    _;\n  }\n\n  modifier onlyWhenZoneHasOwner {\n    require(zone.ownerAddr() != address(0), \"zone has no owner\");\n    _;\n  }\n\n  modifier onlyWhenCallerIsNotZoneOwner {\n    require(msg.sender != zone.ownerAddr(), \"can not be called by zoneowner\");\n    _;\n  }\n\n  modifier onlyWhenCallerIsZoneOwner {\n    require(msg.sender == zone.ownerAddr(), \"caller is not zoneowner\");\n    _;\n  }\n\n  // ------------------------------------------------\n  //\n  // Constructor\n  //\n  // ------------------------------------------------\n\n  function init(\n    address _geo,\n    address _zone\n  )\n    external\n    onlyWhenNotInited\n  {\n    zone = IZone(_zone);\n    geo = IGeoRegistry(_geo);\n    inited = true;\n  }\n\n  // ------------------------------------------------\n  //\n  // Functions Getters Public\n  //\n  // ------------------------------------------------\n\n  function getComments()\n    external view\n    returns (bytes32[] memory)\n  {\n    return commentsFree[teller.addr];\n  }\n\n  function calcReferrerFee(uint _value)\n    public view\n    returns (uint referrerAmount)\n  {\n    referrerAmount = _value.mul(teller.refFee).div(1000);\n  }\n\n  function getTeller()\n    external view\n    returns (address addr, uint8 currencyId, bytes16 messenger, bytes12 position, bytes1 settings, int16 buyRate, int16 sellRate, address referrer, bytes32 description)\n  {\n    return (\n      teller.addr,\n      teller.currencyId,\n      teller.messenger,\n      teller.position,\n      teller.settings,\n      teller.buyRate,\n      teller.sellRate,\n      // funds,\n      teller.referrer,\n      teller.description\n    );\n  }\n\n  function getReferrer()\n  external view\n  returns (address ref, uint refFee) {\n    return (teller.referrer, teller.refFee);\n  }\n\n  function hasTeller()\n    external view\n    returns (bool)\n  {\n    return teller.position != bytes12(0);\n  }\n\n\n  // ------------------------------------------------\n  //\n  // Functions Getters Private\n  //\n  // ------------------------------------------------\n  // audit feedback\n  // function isContract(address addr) private view returns (bool) {\n  //   uint size;\n  //   assembly { size := extcodesize(addr) }\n  //   return size > 0;\n  // }\n\n  function toBytes7(bytes memory _bytes, uint _start)\n    private\n    pure\n    returns (bytes7) {\n      require(_bytes.length >= (_start + 7), \" not long enough\");\n      bytes7 tempBytes7;\n\n      assembly {\n          tempBytes7 := mload(add(add(_bytes, 0x20), _start))\n      }\n\n      return tempBytes7;\n  }\n  \n    function toBytes6(bytes memory _bytes, uint _start)\n    private\n    pure\n    returns (bytes6)\n  {\n    require(_bytes.length >= (_start + 6), \" not long enough\");\n    bytes6 tempBytes6;\n\n    assembly {\n        tempBytes6 := mload(add(add(_bytes, 0x20), _start))\n    }\n\n    return tempBytes6;\n  }\n  function toBytes12(bytes memory _bytes, uint _start)\n    private\n    pure\n    returns (bytes12) {\n      require(_bytes.length >= (_start + 12), \" not long enough\");\n      bytes12 tempBytes12;\n\n      assembly {\n          tempBytes12 := mload(add(add(_bytes, 0x20), _start))\n      }\n\n      return tempBytes12;\n  }\n\n  // ------------------------------------------------\n  //\n  // Functions Setters Public\n  //\n  // ------------------------------------------------\n\n  function _remove()\n    private\n  {\n\n    // we dont remove comments here, so that zoneowner can not get rid\n    // of negative comments by readding his teller ;)\n    emit RemoveTeller(teller.position);\n    delete teller;\n\n  }\n\n  function removeTellerByZone()\n    external\n    onlyByZoneContract\n  {\n    _remove();\n    // audit feedback\n    // _removeComments();\n  }\n\n  function removeTeller()\n    external\n    // onlyWhenInited\n    updateState\n    onlyWhenCallerIsZoneOwner\n    onlyWhenHasTeller\n  {\n    _remove();\n  }\n\n  // NOTE: we could just require only last 5 bytes of a bytes12 geohash, since\n  // the first 6 bytes will be the geohash of this zone. But by requiring the full geohash\n  // we can mkae more sure the user is talking to the right zone\n  function addTeller(\n    bytes calldata _position,\n    uint8 _currencyId,\n    bytes16 _messenger,\n    int16 _sellRate,\n    int16 _buyRate,\n    bytes1 _settings,\n    address _referrer,\n    uint _refFee,    // referral fees x 10 (exemple, for 21.3 % -> 213) Max is 33.3%. The fees its taken from the harbeger taxes\n    bytes32 _description\n  )\n    external\n    // onlyWhenInited\n    // onlyWhenZoneEnabled\n    updateState\n    onlyWhenCallerIsZoneOwner\n    onlyWhenHasNoTeller\n  {\n    // require(!isContract(_referrer), 'referrer cannot be a contract');\n    require(_position.length == 12, \"expected position to be 12 bytes\");\n    require(toBytes6(_position, 0) == zone.geohash(), \"position is not inside this zone\");\n    require(geo.validGeohashChars(_position), \"invalid position geohash characters\");\n    require(_refFee <= 333, 'referral fees should inferior to 33.3 %');\n    require(_currencyId >= 1 && _currencyId <= 100, \"currency id must be in range 1-100\");\n    // _messenger can be 0x0 if he has no telegram\n\n    if (_settings & isSellerBitMask != 0) { // seller bit is set => teller is a \"seller\"\n      require(_sellRate >= -999 && _sellRate <= 9999, \"sellRate should be between -999 and 9999\");\n    } else {\n      require(_sellRate == 0, \"cannot set sellRate if not set as seller\");\n    }\n\n    if (_settings & isBuyerBitMask != 0) { // buyer bit is set => teller is a \"buyer\"\n      require(_buyRate >= -999 && _buyRate <= 9999, \"buyRate should be between -999 and 9999\");\n    } else {\n      require(_buyRate == 0, \"cannot set buyRate if not set as buyer\");\n    }\n\n    teller.addr = msg.sender;\n    teller.currencyId = _currencyId;\n    teller.messenger = _messenger;\n    teller.buyRate = _buyRate;\n    teller.sellRate = _sellRate;\n    teller.position = toBytes12(_position, 0);\n    teller.settings = _settings;\n    teller.referrer = _referrer;\n    teller.refFee = _refFee;\n    teller.description = _description;\n    emit AddTeller(_position);\n  }\n\n  function updateTeller(\n    bytes calldata _position,\n    uint8 _currencyId,\n    bytes16 _messenger,\n    int16 _sellRate,\n    int16 _buyRate,\n    bytes1 _settings,\n    bytes32 _description\n  )\n    external\n    // onlyWhenInited\n    // onlyWhenZoneEnabled\n    updateState\n    onlyWhenCallerIsZoneOwner\n    onlyWhenHasTeller // audit feedback\n    {\n      require(_position.length == 12, \"expected position to be 12 bytes\");\n      require(toBytes6(_position, 0) == zone.geohash(), \"position is not inside this zone\");\n      require(geo.validGeohashChars(_position), \"invalid position geohash characters\");\n      if (_settings & isSellerBitMask != 0) { // seller bit is set => teller is a \"seller\"\n        require(_sellRate >= -999 && _sellRate <= 9999, \"sellRate should be between -9999 and 9999\");\n      } else {\n        require(_sellRate == 0, \"cannot set sellRate if not set as seller\");\n      }\n\n      if (_settings & isBuyerBitMask != 0) { // buyer bit is set => teller is a \"buyer\"\n        require(_buyRate >= -999 && _buyRate <= 9999, \"buyRate should be between -9999 and 9999\");\n      } else {\n        require(_buyRate == 0, \"cannot set buyRate if not set as buyer\");\n      }\n      teller.currencyId = _currencyId;\n      teller.messenger = _messenger;\n      teller.buyRate = _buyRate;\n      teller.sellRate = _sellRate;\n      teller.position = toBytes12(_position, 0);\n      teller.settings = _settings;\n      teller.description = _description;\n      emit UpdateTeller(_position);\n    }\n\n  function addComment(bytes32 _commentHash)\n    external\n    // onlyWhenInited\n    // onlyWhenZoneEnabled\n    updateState\n    onlyWhenZoneHasOwner\n    onlyWhenCallerIsNotZoneOwner\n    onlyWhenHasTeller\n  {\n    require(_commentHash != bytes32(0), \"comment hash cannot be 0x0\");\n    // audit feedback\n    commentsFree[teller.addr].push(_commentHash);\n  }\n}\n",
  "sourcePath": "/Users/mehdi/code/dether/contractV2/contracts/core/Teller.sol",
  "compiler": {
    "name": "solc",
    "version": "0.5.10+commit.5a6ea5b1.Emscripten.clang"
  },
  "schemaVersion": "3.0.11",
  "updatedAt": "2019-09-26T09:59:33.948Z",
  "devdoc": {
    "methods": {}
  },
  "userdoc": {
    "methods": {}
  }
}