{
  "contractName": "Users",
  "abi": [
    {
      "constant": true,
      "inputs": [],
      "name": "zoneFactoryAddress",
      "outputs": [
        {
          "name": "",
          "type": "address"
        }
      ],
      "payable": false,
      "stateMutability": "view",
      "type": "function"
    },
    {
      "constant": true,
      "inputs": [],
      "name": "kycCertifier",
      "outputs": [
        {
          "name": "",
          "type": "address"
        }
      ],
      "payable": false,
      "stateMutability": "view",
      "type": "function"
    },
    {
      "constant": true,
      "inputs": [],
      "name": "priceOracle",
      "outputs": [
        {
          "name": "",
          "type": "address"
        }
      ],
      "payable": false,
      "stateMutability": "view",
      "type": "function"
    },
    {
      "constant": true,
      "inputs": [],
      "name": "smsCertifier",
      "outputs": [
        {
          "name": "",
          "type": "address"
        }
      ],
      "payable": false,
      "stateMutability": "view",
      "type": "function"
    },
    {
      "constant": true,
      "inputs": [
        {
          "name": "timestamp",
          "type": "uint256"
        }
      ],
      "name": "getHour",
      "outputs": [
        {
          "name": "",
          "type": "uint8"
        }
      ],
      "payable": false,
      "stateMutability": "pure",
      "type": "function"
    },
    {
      "constant": true,
      "inputs": [
        {
          "name": "",
          "type": "address"
        }
      ],
      "name": "volumeSell",
      "outputs": [
        {
          "name": "",
          "type": "uint256"
        }
      ],
      "payable": false,
      "stateMutability": "view",
      "type": "function"
    },
    {
      "constant": true,
      "inputs": [
        {
          "name": "",
          "type": "address"
        }
      ],
      "name": "nbTrade",
      "outputs": [
        {
          "name": "",
          "type": "uint256"
        }
      ],
      "payable": false,
      "stateMutability": "view",
      "type": "function"
    },
    {
      "constant": true,
      "inputs": [
        {
          "name": "timestamp",
          "type": "uint256"
        }
      ],
      "name": "getWeekday",
      "outputs": [
        {
          "name": "",
          "type": "uint8"
        }
      ],
      "payable": false,
      "stateMutability": "pure",
      "type": "function"
    },
    {
      "constant": true,
      "inputs": [
        {
          "name": "year",
          "type": "uint16"
        },
        {
          "name": "month",
          "type": "uint8"
        },
        {
          "name": "day",
          "type": "uint8"
        },
        {
          "name": "hour",
          "type": "uint8"
        },
        {
          "name": "minute",
          "type": "uint8"
        }
      ],
      "name": "toTimestamp",
      "outputs": [
        {
          "name": "timestamp",
          "type": "uint256"
        }
      ],
      "payable": false,
      "stateMutability": "pure",
      "type": "function"
    },
    {
      "constant": true,
      "inputs": [
        {
          "name": "timestamp",
          "type": "uint256"
        }
      ],
      "name": "getDay",
      "outputs": [
        {
          "name": "",
          "type": "uint8"
        }
      ],
      "payable": false,
      "stateMutability": "pure",
      "type": "function"
    },
    {
      "constant": true,
      "inputs": [
        {
          "name": "year",
          "type": "uint16"
        },
        {
          "name": "month",
          "type": "uint8"
        },
        {
          "name": "day",
          "type": "uint8"
        },
        {
          "name": "hour",
          "type": "uint8"
        }
      ],
      "name": "toTimestamp",
      "outputs": [
        {
          "name": "timestamp",
          "type": "uint256"
        }
      ],
      "payable": false,
      "stateMutability": "pure",
      "type": "function"
    },
    {
      "constant": true,
      "inputs": [
        {
          "name": "timestamp",
          "type": "uint256"
        }
      ],
      "name": "getSecond",
      "outputs": [
        {
          "name": "",
          "type": "uint8"
        }
      ],
      "payable": false,
      "stateMutability": "pure",
      "type": "function"
    },
    {
      "constant": true,
      "inputs": [
        {
          "name": "year",
          "type": "uint16"
        },
        {
          "name": "month",
          "type": "uint8"
        },
        {
          "name": "day",
          "type": "uint8"
        }
      ],
      "name": "toTimestamp",
      "outputs": [
        {
          "name": "timestamp",
          "type": "uint256"
        }
      ],
      "payable": false,
      "stateMutability": "pure",
      "type": "function"
    },
    {
      "constant": true,
      "inputs": [
        {
          "name": "year",
          "type": "uint16"
        },
        {
          "name": "month",
          "type": "uint8"
        },
        {
          "name": "day",
          "type": "uint8"
        },
        {
          "name": "hour",
          "type": "uint8"
        },
        {
          "name": "minute",
          "type": "uint8"
        },
        {
          "name": "second",
          "type": "uint8"
        }
      ],
      "name": "toTimestamp",
      "outputs": [
        {
          "name": "timestamp",
          "type": "uint256"
        }
      ],
      "payable": false,
      "stateMutability": "pure",
      "type": "function"
    },
    {
      "constant": true,
      "inputs": [
        {
          "name": "timestamp",
          "type": "uint256"
        }
      ],
      "name": "getYear",
      "outputs": [
        {
          "name": "",
          "type": "uint16"
        }
      ],
      "payable": false,
      "stateMutability": "pure",
      "type": "function"
    },
    {
      "constant": true,
      "inputs": [
        {
          "name": "timestamp",
          "type": "uint256"
        }
      ],
      "name": "getMonth",
      "outputs": [
        {
          "name": "",
          "type": "uint8"
        }
      ],
      "payable": false,
      "stateMutability": "pure",
      "type": "function"
    },
    {
      "constant": true,
      "inputs": [
        {
          "name": "year",
          "type": "uint16"
        }
      ],
      "name": "isLeapYear",
      "outputs": [
        {
          "name": "",
          "type": "bool"
        }
      ],
      "payable": false,
      "stateMutability": "pure",
      "type": "function"
    },
    {
      "constant": true,
      "inputs": [
        {
          "name": "year",
          "type": "uint256"
        }
      ],
      "name": "leapYearsBefore",
      "outputs": [
        {
          "name": "",
          "type": "uint256"
        }
      ],
      "payable": false,
      "stateMutability": "pure",
      "type": "function"
    },
    {
      "constant": true,
      "inputs": [
        {
          "name": "month",
          "type": "uint8"
        },
        {
          "name": "year",
          "type": "uint16"
        }
      ],
      "name": "getDaysInMonth",
      "outputs": [
        {
          "name": "",
          "type": "uint8"
        }
      ],
      "payable": false,
      "stateMutability": "pure",
      "type": "function"
    },
    {
      "constant": true,
      "inputs": [],
      "name": "control",
      "outputs": [
        {
          "name": "",
          "type": "address"
        }
      ],
      "payable": false,
      "stateMutability": "view",
      "type": "function"
    },
    {
      "constant": true,
      "inputs": [],
      "name": "geo",
      "outputs": [
        {
          "name": "",
          "type": "address"
        }
      ],
      "payable": false,
      "stateMutability": "view",
      "type": "function"
    },
    {
      "constant": true,
      "inputs": [
        {
          "name": "",
          "type": "address"
        }
      ],
      "name": "volumeBuy",
      "outputs": [
        {
          "name": "",
          "type": "uint256"
        }
      ],
      "payable": false,
      "stateMutability": "view",
      "type": "function"
    },
    {
      "constant": true,
      "inputs": [
        {
          "name": "timestamp",
          "type": "uint256"
        }
      ],
      "name": "getMinute",
      "outputs": [
        {
          "name": "",
          "type": "uint8"
        }
      ],
      "payable": false,
      "stateMutability": "pure",
      "type": "function"
    },
    {
      "inputs": [
        {
          "name": "_priceOracle",
          "type": "address"
        },
        {
          "name": "_geo",
          "type": "address"
        },
        {
          "name": "_smsCertifier",
          "type": "address"
        },
        {
          "name": "_kycCertifier",
          "type": "address"
        },
        {
          "name": "_control",
          "type": "address"
        }
      ],
      "payable": false,
      "stateMutability": "nonpayable",
      "type": "constructor"
    },
    {
      "constant": false,
      "inputs": [
        {
          "name": "_zoneFactory",
          "type": "address"
        }
      ],
      "name": "setZoneFactory",
      "outputs": [],
      "payable": false,
      "stateMutability": "nonpayable",
      "type": "function"
    },
    {
      "constant": false,
      "inputs": [
        {
          "name": "_countryCode",
          "type": "bytes2"
        },
        {
          "name": "_from",
          "type": "address"
        },
        {
          "name": "_to",
          "type": "address"
        },
        {
          "name": "_amount",
          "type": "uint256"
        }
      ],
      "name": "updateDailySold",
      "outputs": [],
      "payable": false,
      "stateMutability": "nonpayable",
      "type": "function"
    },
    {
      "constant": true,
      "inputs": [
        {
          "name": "_who",
          "type": "address"
        }
      ],
      "name": "getUserTier",
      "outputs": [
        {
          "name": "foundTier",
          "type": "uint256"
        }
      ],
      "payable": false,
      "stateMutability": "view",
      "type": "function"
    }
  ],
  "bytecode": "0x608060405234801561001057600080fd5b5060405160a08061126e8339810160409081528151602083015191830151606084015160809094015160008054600160a060020a0319908116600160a060020a0395861617825560018054821696861696909617909555600280548616938516939093179092556003805485169584169590951790945560048054909316919093161790556111c99081906100a590396000f3006080604052600436106101535763ffffffff7c010000000000000000000000000000000000000000000000000000000060003504166303c77f2481146101585780630d46f91a146101895780632630c12f1461019e57806330a55316146101b35780633e239e1a146101c857806341d0d30f146101f65780634753dc4f14610229578063475e46541461024c5780634ac1ad781461026d57806362ba96871461028557806365c72840146102b95780637f791833146102d15780638aa001fc146102ff5780638c8d98a0146103175780639054bdec1461033f57806392d6631314610379578063a324ad24146103a8578063a6f0e577146103c0578063b1999937146103f0578063b238ad0e14610408578063d8de65871461042a578063d944e6a31461043f578063dc2de4fa14610454578063e4d2620e14610475578063fa93f88314610496578063fb89df53146104ae575b600080fd5b34801561016457600080fd5b5061016d6104fd565b60408051600160a060020a039092168252519081900360200190f35b34801561019557600080fd5b5061016d61050c565b3480156101aa57600080fd5b5061016d61051b565b3480156101bf57600080fd5b5061016d61052a565b3480156101d457600080fd5b506101e0600435610539565b6040805160ff9092168252519081900360200190f35b34801561020257600080fd5b50610217600160a060020a0360043516610556565b60408051918252519081900360200190f35b34801561023557600080fd5b5061024a600160a060020a0360043516610568565b005b34801561025857600080fd5b50610217600160a060020a0360043516610697565b34801561027957600080fd5b506101e06004356106a9565b34801561029157600080fd5b5061021761ffff6004351660ff602435811690604435811690606435811690608435166106bb565b3480156102c557600080fd5b506101e06004356106d6565b3480156102dd57600080fd5b5061021761ffff6004351660ff602435811690604435811690606435166106eb565b34801561030b57600080fd5b506101e0600435610705565b34801561032357600080fd5b5061021761ffff6004351660ff6024358116906044351661070f565b34801561034b57600080fd5b5061021761ffff6004351660ff60243581169060443581169060643581169060843581169060a43516610729565b34801561038557600080fd5b5061039160043561086f565b6040805161ffff9092168252519081900360200190f35b3480156103b457600080fd5b506101e06004356108ff565b3480156103cc57600080fd5b506103dc61ffff60043516610914565b604080519115158252519081900360200190f35b3480156103fc57600080fd5b50610217600435610962565b34801561041457600080fd5b506101e060ff6004351661ffff6024351661097d565b34801561043657600080fd5b5061016d610a45565b34801561044b57600080fd5b5061016d610a54565b34801561046057600080fd5b50610217600160a060020a0360043516610a63565b34801561048157600080fd5b50610217600160a060020a0360043516610a75565b3480156104a257600080fd5b506101e0600435610bba565b3480156104ba57600080fd5b5061024a7fffff00000000000000000000000000000000000000000000000000000000000060043516600160a060020a0360243581169060443516606435610bc5565b600554600160a060020a031681565b600354600160a060020a031681565b600054600160a060020a031681565b600254600160a060020a031681565b60006018603c8084045b0481151561054d57fe5b0690505b919050565b60076020526000908152604090205481565b60048054604080517f8900bd22000000000000000000000000000000000000000000000000000000008152339381019390935251600160a060020a0390911691638900bd229160248083019260209291908290030181600087803b1580156105cf57600080fd5b505af11580156105e3573d6000803e3d6000fd5b505050506040513d60208110156105f957600080fd5b5051151561066857604080517f08c379a000000000000000000000000000000000000000000000000000000000815260206004820152601960248201527f63616e206f6e6c792062652063616c6c65642062792043454f00000000000000604482015290519081900360640190fd5b6005805473ffffffffffffffffffffffffffffffffffffffff1916600160a060020a0392909216919091179055565b60086020526000908152604090205481565b6000600760046201518084040161054d565b60006106cc86868686866000610729565b9695505050505050565b60006106e182610fa8565b6040015192915050565b60006106fc85858585600080610729565b95945050505050565b6000603c8261054d565b60006107218484846000806000610729565b949350505050565b600080610734611141565b6107b291505b8861ffff168261ffff16101561077b5761075382610914565b15610766576301e2850083019250610770565b6301e13380830192505b60019091019061073a565b601f815261078889610914565b1561079957601d60208201526107a1565b601c60208201525b601f60408201819052601e606083018190526080830182905260a0830181905260c0830182905260e0830182905261010083018190526101208301829052610140830152610160820152600191505b8760ff168261ffff161015610831578061ffff600019840116600c811061081357fe5b602002015160ff1662015180028301925081806001019250506107f0565b6001870360ff166201518002830192508560ff16610e1002830192508460ff16603c02830192508360ff168301925082925050509695505050505050565b6000806107b26301e133808404810190829061088a90610962565b6108978361ffff16610962565b039050806301e285000283019250806107b2830361ffff16036301e1338002830192505b848311156108f7576108cf60018303610914565b156108e2576301e28500830392506108ec565b6301e13380830392505b6001820391506108bb565b509392505050565b600061090a82610fa8565b6020015192915050565b6000600382161561092757506000610551565b606461ffff83160661ffff161561094057506001610551565b61019061ffff83160661ffff161561095a57506000610551565b506001919050565b60001901600061019082046064830460048404030192915050565b60008260ff166001148061099457508260ff166003145b806109a257508260ff166005145b806109b057508260ff166007145b806109be57508260ff166008145b806109cc57508260ff16600a145b806109da57508260ff16600c145b156109e75750601f610a3f565b8260ff16600414806109fc57508260ff166006145b80610a0a57508260ff166009145b80610a1857508260ff16600b145b15610a255750601e610a3f565b610a2e82610914565b15610a3b5750601d610a3f565b50601c5b92915050565b600454600160a060020a031681565b600154600160a060020a031681565b60066020526000908152604090205481565b600354604080517fcc1d4c02000000000000000000000000000000000000000000000000000000008152600160a060020a0384811660048301529151600093929092169163cc1d4c029160248082019260209290919082900301818787803b158015610ae057600080fd5b505af1158015610af4573d6000803e3d6000fd5b505050506040513d6020811015610b0a57600080fd5b505115610b1957506002610551565b600254604080517fcc1d4c02000000000000000000000000000000000000000000000000000000008152600160a060020a0385811660048301529151919092169163cc1d4c029160248083019260209291908290030181600087803b158015610b8157600080fd5b505af1158015610b95573d6000803e3d6000fd5b505050506040513d6020811015610bab57600080fd5b50511561055157506001919050565b6000603c8083610543565b600080610bd0611161565b600554600090600160a060020a03163314610c7257604080517f08c379a000000000000000000000000000000000000000000000000000000000815260206004820152602160248201527f63616e206f6e6c792062652063616c6c6564206279207a6f6e65466163746f7260448201527f7900000000000000000000000000000000000000000000000000000000000000606482015290519081900360840190fd5b600154600160a060020a031663de49bdaa89610c8d8a610a75565b6040518363ffffffff167c010000000000000000000000000000000000000000000000000000000002815260040180837dffffffffffffffffffffffffffffffffffffffffffffffffffffffffffff19167dffffffffffffffffffffffffffffffffffffffffffffffffffffffffffff1916815260200182815260200192505050602060405180830381600087803b158015610d2857600080fd5b505af1158015610d3c573d6000803e3d6000fd5b505050506040513d6020811015610d5257600080fd5b505160008054604080517f50ccf36b0000000000000000000000000000000000000000000000000000000081529051939750610df7938893600160a060020a03909316926350ccf36b92600480820193602093909283900390910190829087803b158015610dbf57600080fd5b505af1158015610dd3573d6000803e3d6000fd5b505050506040513d6020811015610de957600080fd5b50519063ffffffff6110f616565b9250610e0242610fa8565b600160a060020a03881660009081526009602090815260408083208185015160ff90811685529083528184208386015190911684528252808320845161ffff168452909152902054909250610e5d908663ffffffff61112f16565b905082811115610ece57604080517f08c379a000000000000000000000000000000000000000000000000000000000815260206004820152601960248201527f6578636565646564206461696c792073656c6c206c696d697400000000000000604482015290519081900360640190fd5b600160a060020a0380881660009081526009602090815260408083208682015160ff90811685529083528184208784015190911684528252808320865161ffff16845282528083208590559289168252600690522054610f34908663ffffffff61112f16565b600160a060020a03808816600090815260066020908152604080832094909455918a16815260079091522054610f70908663ffffffff61112f16565b600160a060020a0390971660009081526007602090815260408083209990995560089052969096208054600101905550505050505050565b610fb0611161565b6000808080610fbe8661086f565b61ffff168552610fcf6107b2610962565b8551610fde9061ffff16610962565b039250826301e285000284019350826107b286600001510361ffff16036301e133800284019350600191505b600c60ff8316116110545761102382866000015161097d565b60ff16620151800290508584820111156110455760ff82166020860152611054565b9283019260019091019061100a565b600191505b61106b8560200151866000015161097d565b60ff168260ff161115156110a8578584620151800111156110945760ff821660408601526110a8565b620151809390930192600190910190611059565b6110b186610539565b60ff1660608601526110c286610bba565b60ff1660808601526110d386610705565b60ff1660a08601526110e4866106a9565b60ff1660c08601525092949350505050565b6000808315156111095760009150611128565b5082820282848281151561111957fe5b041461112457600080fd5b8091505b5092915050565b60008282018381101561112457600080fd5b61018060405190810160405280600c906020820280388339509192915050565b6040805160e081018252600080825260208201819052918101829052606081018290526080810182905260a0810182905260c0810191909152905600a165627a7a72305820108f89e3d96d2481db1fafcb019ab684084e9aa305cf8e785463ce35938f920e0029",
  "source": "pragma solidity ^0.4.24;\n\nimport \"openzeppelin-solidity/contracts/math/SafeMath.sol\";\nimport \"ethereum-datetime/contracts/DateTime.sol\";\n\nimport \"../oracle/IExchangeRateOracle.sol\";\nimport \"../certifier/ICertifier.sol\";\nimport \"../map/IGeoRegistry.sol\";\nimport \"./IControl.sol\";\n\ncontract Users is DateTime {\n  // ------------------------------------------------\n  //\n  // Library init\n  //\n  // ------------------------------------------------\n\n  using SafeMath for uint;\n\n  // ------------------------------------------------\n  //\n  // Variables Public\n  //\n  // ------------------------------------------------\n\n  IExchangeRateOracle public priceOracle;\n  IGeoRegistry public geo;\n  ICertifier public smsCertifier;\n  ICertifier public kycCertifier;\n  IControl public control;\n\n  address public zoneFactoryAddress;\n\n  mapping(address => uint) public volumeBuy;\n  mapping(address => uint) public volumeSell;\n  mapping(address => uint) public nbTrade;\n\n  // store a mapping with per day/month/year a uint256 containing the wei sold amount on that date\n  //\n  //      user               day               month             year      weiSold\n  mapping(address => mapping(uint16 => mapping(uint16 => mapping(uint16 => uint256)))) ethSellsUserToday;\n\n  // ------------------------------------------------\n  //\n  // Constructor\n  //\n  // ------------------------------------------------\n\n  constructor(address _priceOracle, address _geo, address _smsCertifier, address _kycCertifier, address _control)\n    public\n  {\n    priceOracle = IExchangeRateOracle(_priceOracle);\n    geo = IGeoRegistry(_geo);\n    smsCertifier = ICertifier(_smsCertifier);\n    kycCertifier = ICertifier(_kycCertifier);\n    control = IControl(_control);\n  }\n\n  // ------------------------------------------------\n  //\n  // Functions Setters\n  //\n  // ------------------------------------------------\n\n  function setZoneFactory(address _zoneFactory)\n    external\n  {\n    require(control.isCEO(msg.sender), \"can only be called by CEO\");\n    zoneFactoryAddress = _zoneFactory;\n  }\n\n  function updateDailySold(bytes2 _countryCode, address _from, address _to, uint _amount)\n    external\n  {\n    require(msg.sender == zoneFactoryAddress, \"can only be called by zoneFactory\");\n    // if country code or user does not exist, we get back 0\n    uint sellDailyLimitUsd = geo.countryTierDailyLimit(_countryCode, getUserTier(_from));\n    uint sellDailyLimitEth = priceOracle.getWeiPriceOneUsd().mul(sellDailyLimitUsd);\n    _DateTime memory dateNow = parseTimestamp(block.timestamp);\n    uint newSoldTodayEth = ethSellsUserToday[_from][dateNow.day][dateNow.month][dateNow.year].add(_amount);\n    require(newSoldTodayEth <= sellDailyLimitEth, \"exceeded daily sell limit\");\n    ethSellsUserToday[_from][dateNow.day][dateNow.month][dateNow.year] = newSoldTodayEth;\n\n    volumeBuy[_to] = volumeBuy[_to].add(_amount);\n    volumeSell[_from] = volumeSell[_from].add(_amount);\n    nbTrade[_from] += 1;\n  }\n\n  // ------------------------------------------------\n  //\n  // Functions Getters\n  //\n  // ------------------------------------------------\n\n  function getUserTier(address _who)\n    public\n    view\n    returns (uint foundTier)\n  {\n    foundTier = 0;\n    if (kycCertifier.certified(_who)) foundTier = 2;\n    else if (smsCertifier.certified(_who)) foundTier = 1;\n  }\n}",
  "sourcePath": "/Users/trip/Projects/detherContracts/contracts/core/Users.sol",
  "compiler": {
    "name": "solc",
    "version": "0.4.24+commit.e67f0147.Emscripten.clang"
  },
  "schemaVersion": "2.0.1",
  "updatedAt": "2018-11-28T16:15:51.917Z"
}