{
  "contractName": "Users",
  "abi": [
    {
      "constant": true,
      "inputs": [],
      "name": "zoneFactoryAddress",
      "outputs": [
        {
          "name": "",
          "type": "address"
        }
      ],
      "payable": false,
      "stateMutability": "view",
      "type": "function",
      "signature": "0x03c77f24"
    },
    {
      "constant": true,
      "inputs": [],
      "name": "kycCertifier",
      "outputs": [
        {
          "name": "",
          "type": "address"
        }
      ],
      "payable": false,
      "stateMutability": "view",
      "type": "function",
      "signature": "0x0d46f91a"
    },
    {
      "constant": true,
      "inputs": [],
      "name": "priceOracle",
      "outputs": [
        {
          "name": "",
          "type": "address"
        }
      ],
      "payable": false,
      "stateMutability": "view",
      "type": "function",
      "signature": "0x2630c12f"
    },
    {
      "constant": true,
      "inputs": [],
      "name": "smsCertifier",
      "outputs": [
        {
          "name": "",
          "type": "address"
        }
      ],
      "payable": false,
      "stateMutability": "view",
      "type": "function",
      "signature": "0x30a55316"
    },
    {
      "constant": true,
      "inputs": [
        {
          "name": "timestamp",
          "type": "uint256"
        }
      ],
      "name": "getHour",
      "outputs": [
        {
          "name": "",
          "type": "uint8"
        }
      ],
      "payable": false,
      "stateMutability": "pure",
      "type": "function",
      "signature": "0x3e239e1a"
    },
    {
      "constant": true,
      "inputs": [
        {
          "name": "",
          "type": "address"
        }
      ],
      "name": "volumeSell",
      "outputs": [
        {
          "name": "",
          "type": "uint256"
        }
      ],
      "payable": false,
      "stateMutability": "view",
      "type": "function",
      "signature": "0x41d0d30f"
    },
    {
      "constant": true,
      "inputs": [
        {
          "name": "",
          "type": "address"
        }
      ],
      "name": "nbTrade",
      "outputs": [
        {
          "name": "",
          "type": "uint256"
        }
      ],
      "payable": false,
      "stateMutability": "view",
      "type": "function",
      "signature": "0x475e4654"
    },
    {
      "constant": true,
      "inputs": [
        {
          "name": "timestamp",
          "type": "uint256"
        }
      ],
      "name": "getWeekday",
      "outputs": [
        {
          "name": "",
          "type": "uint8"
        }
      ],
      "payable": false,
      "stateMutability": "pure",
      "type": "function",
      "signature": "0x4ac1ad78"
    },
    {
      "constant": true,
      "inputs": [],
      "name": "certifierRegistry",
      "outputs": [
        {
          "name": "",
          "type": "address"
        }
      ],
      "payable": false,
      "stateMutability": "view",
      "type": "function",
      "signature": "0x5b6ba8cc"
    },
    {
      "constant": true,
      "inputs": [
        {
          "name": "year",
          "type": "uint16"
        },
        {
          "name": "month",
          "type": "uint8"
        },
        {
          "name": "day",
          "type": "uint8"
        },
        {
          "name": "hour",
          "type": "uint8"
        },
        {
          "name": "minute",
          "type": "uint8"
        }
      ],
      "name": "toTimestamp",
      "outputs": [
        {
          "name": "timestamp",
          "type": "uint256"
        }
      ],
      "payable": false,
      "stateMutability": "pure",
      "type": "function",
      "signature": "0x62ba9687"
    },
    {
      "constant": true,
      "inputs": [
        {
          "name": "timestamp",
          "type": "uint256"
        }
      ],
      "name": "getDay",
      "outputs": [
        {
          "name": "",
          "type": "uint8"
        }
      ],
      "payable": false,
      "stateMutability": "pure",
      "type": "function",
      "signature": "0x65c72840"
    },
    {
      "constant": true,
      "inputs": [
        {
          "name": "year",
          "type": "uint16"
        },
        {
          "name": "month",
          "type": "uint8"
        },
        {
          "name": "day",
          "type": "uint8"
        },
        {
          "name": "hour",
          "type": "uint8"
        }
      ],
      "name": "toTimestamp",
      "outputs": [
        {
          "name": "timestamp",
          "type": "uint256"
        }
      ],
      "payable": false,
      "stateMutability": "pure",
      "type": "function",
      "signature": "0x7f791833"
    },
    {
      "constant": true,
      "inputs": [
        {
          "name": "timestamp",
          "type": "uint256"
        }
      ],
      "name": "getSecond",
      "outputs": [
        {
          "name": "",
          "type": "uint8"
        }
      ],
      "payable": false,
      "stateMutability": "pure",
      "type": "function",
      "signature": "0x8aa001fc"
    },
    {
      "constant": true,
      "inputs": [
        {
          "name": "year",
          "type": "uint16"
        },
        {
          "name": "month",
          "type": "uint8"
        },
        {
          "name": "day",
          "type": "uint8"
        }
      ],
      "name": "toTimestamp",
      "outputs": [
        {
          "name": "timestamp",
          "type": "uint256"
        }
      ],
      "payable": false,
      "stateMutability": "pure",
      "type": "function",
      "signature": "0x8c8d98a0"
    },
    {
      "constant": true,
      "inputs": [
        {
          "name": "year",
          "type": "uint16"
        },
        {
          "name": "month",
          "type": "uint8"
        },
        {
          "name": "day",
          "type": "uint8"
        },
        {
          "name": "hour",
          "type": "uint8"
        },
        {
          "name": "minute",
          "type": "uint8"
        },
        {
          "name": "second",
          "type": "uint8"
        }
      ],
      "name": "toTimestamp",
      "outputs": [
        {
          "name": "timestamp",
          "type": "uint256"
        }
      ],
      "payable": false,
      "stateMutability": "pure",
      "type": "function",
      "signature": "0x9054bdec"
    },
    {
      "constant": true,
      "inputs": [
        {
          "name": "timestamp",
          "type": "uint256"
        }
      ],
      "name": "getYear",
      "outputs": [
        {
          "name": "",
          "type": "uint16"
        }
      ],
      "payable": false,
      "stateMutability": "pure",
      "type": "function",
      "signature": "0x92d66313"
    },
    {
      "constant": true,
      "inputs": [
        {
          "name": "timestamp",
          "type": "uint256"
        }
      ],
      "name": "getMonth",
      "outputs": [
        {
          "name": "",
          "type": "uint8"
        }
      ],
      "payable": false,
      "stateMutability": "pure",
      "type": "function",
      "signature": "0xa324ad24"
    },
    {
      "constant": true,
      "inputs": [
        {
          "name": "year",
          "type": "uint16"
        }
      ],
      "name": "isLeapYear",
      "outputs": [
        {
          "name": "",
          "type": "bool"
        }
      ],
      "payable": false,
      "stateMutability": "pure",
      "type": "function",
      "signature": "0xa6f0e577"
    },
    {
      "constant": true,
      "inputs": [
        {
          "name": "year",
          "type": "uint256"
        }
      ],
      "name": "leapYearsBefore",
      "outputs": [
        {
          "name": "",
          "type": "uint256"
        }
      ],
      "payable": false,
      "stateMutability": "pure",
      "type": "function",
      "signature": "0xb1999937"
    },
    {
      "constant": true,
      "inputs": [
        {
          "name": "month",
          "type": "uint8"
        },
        {
          "name": "year",
          "type": "uint16"
        }
      ],
      "name": "getDaysInMonth",
      "outputs": [
        {
          "name": "",
          "type": "uint8"
        }
      ],
      "payable": false,
      "stateMutability": "pure",
      "type": "function",
      "signature": "0xb238ad0e"
    },
    {
      "constant": true,
      "inputs": [],
      "name": "control",
      "outputs": [
        {
          "name": "",
          "type": "address"
        }
      ],
      "payable": false,
      "stateMutability": "view",
      "type": "function",
      "signature": "0xd8de6587"
    },
    {
      "constant": true,
      "inputs": [],
      "name": "geo",
      "outputs": [
        {
          "name": "",
          "type": "address"
        }
      ],
      "payable": false,
      "stateMutability": "view",
      "type": "function",
      "signature": "0xd944e6a3"
    },
    {
      "constant": true,
      "inputs": [
        {
          "name": "",
          "type": "address"
        }
      ],
      "name": "volumeBuy",
      "outputs": [
        {
          "name": "",
          "type": "uint256"
        }
      ],
      "payable": false,
      "stateMutability": "view",
      "type": "function",
      "signature": "0xdc2de4fa"
    },
    {
      "constant": true,
      "inputs": [
        {
          "name": "timestamp",
          "type": "uint256"
        }
      ],
      "name": "getMinute",
      "outputs": [
        {
          "name": "",
          "type": "uint8"
        }
      ],
      "payable": false,
      "stateMutability": "pure",
      "type": "function",
      "signature": "0xfa93f883"
    },
    {
      "inputs": [
        {
          "name": "_priceOracle",
          "type": "address"
        },
        {
          "name": "_geo",
          "type": "address"
        },
        {
          "name": "_smsCertifier",
          "type": "address"
        },
        {
          "name": "_kycCertifier",
          "type": "address"
        },
        {
          "name": "_control",
          "type": "address"
        },
        {
          "name": "_certifierRegistry",
          "type": "address"
        }
      ],
      "payable": false,
      "stateMutability": "nonpayable",
      "type": "constructor",
      "signature": "constructor"
    },
    {
      "constant": false,
      "inputs": [
        {
          "name": "_zoneFactory",
          "type": "address"
        }
      ],
      "name": "setZoneFactory",
      "outputs": [],
      "payable": false,
      "stateMutability": "nonpayable",
      "type": "function",
      "signature": "0x4753dc4f"
    },
    {
      "constant": false,
      "inputs": [
        {
          "name": "_countryCode",
          "type": "bytes2"
        },
        {
          "name": "_from",
          "type": "address"
        },
        {
          "name": "_to",
          "type": "address"
        },
        {
          "name": "_amount",
          "type": "uint256"
        }
      ],
      "name": "updateDailySold",
      "outputs": [],
      "payable": false,
      "stateMutability": "nonpayable",
      "type": "function",
      "signature": "0xfb89df53"
    },
    {
      "constant": true,
      "inputs": [
        {
          "name": "_who",
          "type": "address"
        }
      ],
      "name": "getUserTier",
      "outputs": [
        {
          "name": "foundTier",
          "type": "uint256"
        }
      ],
      "payable": false,
      "stateMutability": "view",
      "type": "function",
      "signature": "0xe4d2620e"
    },
    {
      "constant": true,
      "inputs": [
        {
          "name": "_who",
          "type": "address"
        }
      ],
      "name": "getCertifications",
      "outputs": [
        {
          "components": [
            {
              "name": "certifier",
              "type": "address"
            },
            {
              "name": "ref",
              "type": "int8"
            },
            {
              "name": "timestamp",
              "type": "uint256"
            }
          ],
          "name": "",
          "type": "tuple[]"
        }
      ],
      "payable": false,
      "stateMutability": "view",
      "type": "function",
      "signature": "0x677cc291"
    },
    {
      "constant": true,
      "inputs": [
        {
          "name": "timestamp",
          "type": "uint256"
        }
      ],
      "name": "getDateInfo",
      "outputs": [
        {
          "name": "",
          "type": "uint16"
        },
        {
          "name": "",
          "type": "uint16"
        },
        {
          "name": "",
          "type": "uint16"
        }
      ],
      "payable": false,
      "stateMutability": "pure",
      "type": "function",
      "signature": "0xc34c6b93"
    }
  ],
  "bytecode": "0x60806040523480156200001157600080fd5b5060405160c0806200299e8339810180604052620000339190810190620001da565b856000806101000a81548173ffffffffffffffffffffffffffffffffffffffff021916908373ffffffffffffffffffffffffffffffffffffffff16021790555084600160006101000a81548173ffffffffffffffffffffffffffffffffffffffff021916908373ffffffffffffffffffffffffffffffffffffffff16021790555083600260006101000a81548173ffffffffffffffffffffffffffffffffffffffff021916908373ffffffffffffffffffffffffffffffffffffffff16021790555082600360006101000a81548173ffffffffffffffffffffffffffffffffffffffff021916908373ffffffffffffffffffffffffffffffffffffffff16021790555080600460006101000a81548173ffffffffffffffffffffffffffffffffffffffff021916908373ffffffffffffffffffffffffffffffffffffffff16021790555081600560006101000a81548173ffffffffffffffffffffffffffffffffffffffff021916908373ffffffffffffffffffffffffffffffffffffffff160217905550505050505050620002a4565b6000620001d2825162000270565b905092915050565b60008060008060008060c08789031215620001f457600080fd5b60006200020489828a01620001c4565b96505060206200021789828a01620001c4565b95505060406200022a89828a01620001c4565b94505060606200023d89828a01620001c4565b93505060806200025089828a01620001c4565b92505060a06200026389828a01620001c4565b9150509295509295509295565b60006200027d8262000284565b9050919050565b600073ffffffffffffffffffffffffffffffffffffffff82169050919050565b6126ea80620002b46000396000f3fe608060405234801561001057600080fd5b50600436106101ec576000357c0100000000000000000000000000000000000000000000000000000000900480638aa001fc11610121578063b238ad0e116100bf578063dc2de4fa1161008e578063dc2de4fa14610611578063e4d2620e14610641578063fa93f88314610671578063fb89df53146106a1576101ec565b8063b238ad0e14610573578063c34c6b93146105a3578063d8de6587146105d5578063d944e6a3146105f3576101ec565b806392d66313116100fb57806392d66313146104b3578063a324ad24146104e3578063a6f0e57714610513578063b199993714610543576101ec565b80638aa001fc146104235780638c8d98a0146104535780639054bdec14610483576101ec565b8063475e46541161018e57806362ba96871161016857806362ba96871461036357806365c7284014610393578063677cc291146103c35780637f791833146103f3576101ec565b8063475e4654146102e55780634ac1ad78146103155780635b6ba8cc14610345576101ec565b806330a55316116101ca57806330a553161461024b5780633e239e1a1461026957806341d0d30f146102995780634753dc4f146102c9576101ec565b806303c77f24146101f15780630d46f91a1461020f5780632630c12f1461022d575b600080fd5b6101f96106bd565b60405161020691906121e7565b60405180910390f35b6102176106e3565b604051610224919061229e565b60405180910390f35b610235610709565b60405161024291906122d4565b60405180910390f35b61025361072e565b604051610260919061229e565b60405180910390f35b610283600480360361027e9190810190611ede565b610754565b60405161029091906123d7565b60405180910390f35b6102b360048036036102ae9190810190611c0d565b610781565b6040516102c091906123bc565b60405180910390f35b6102e360048036036102de9190810190611c0d565b610799565b005b6102ff60048036036102fa9190810190611c0d565b6108e5565b60405161030c91906123bc565b60405180910390f35b61032f600480360361032a9190810190611ede565b6108fd565b60405161033c91906123d7565b60405180910390f35b61034d610924565b60405161035a9190612283565b60405180910390f35b61037d60048036036103789190810190611dde565b61094a565b60405161038a91906123bc565b60405180910390f35b6103ad60048036036103a89190810190611ede565b610966565b6040516103ba91906123d7565b60405180910390f35b6103dd60048036036103d89190810190611c0d565b61097c565b6040516103ea919061221d565b60405180910390f35b61040d60048036036104089190810190611d7b565b610a51565b60405161041a91906123bc565b60405180910390f35b61043d60048036036104389190810190611ede565b610a6c565b60405161044a91906123d7565b60405180910390f35b61046d60048036036104689190810190611d2c565b610a82565b60405161047a91906123bc565b60405180910390f35b61049d60048036036104989190810190611e55565b610a9d565b6040516104aa91906123bc565b60405180910390f35b6104cd60048036036104c89190810190611ede565b610d44565b6040516104da919061236a565b60405180910390f35b6104fd60048036036104f89190810190611ede565b610def565b60405161050a91906123d7565b60405180910390f35b61052d60048036036105289190810190611d03565b610e05565b60405161053a919061223f565b60405180910390f35b61055d60048036036105589190810190611ede565b610e86565b60405161056a91906123bc565b60405180910390f35b61058d60048036036105889190810190611f30565b610ebf565b60405161059a91906123d7565b60405180910390f35b6105bd60048036036105b89190810190611ede565b610f8b565b6040516105cc93929190612385565b60405180910390f35b6105dd610fcc565b6040516105ea91906122b9565b60405180910390f35b6105fb610ff2565b60405161060891906122ef565b60405180910390f35b61062b60048036036106269190810190611c0d565b611018565b60405161063891906123bc565b60405180910390f35b61065b60048036036106569190810190611c0d565b611030565b60405161066891906123bc565b60405180910390f35b61068b60048036036106869190810190611ede565b6111e1565b60405161069891906123d7565b60405180910390f35b6106bb60048036036106b69190810190611ca0565b611202565b005b600660009054906101000a900473ffffffffffffffffffffffffffffffffffffffff1681565b600360009054906101000a900473ffffffffffffffffffffffffffffffffffffffff1681565b6000809054906101000a900473ffffffffffffffffffffffffffffffffffffffff1681565b600260009054906101000a900473ffffffffffffffffffffffffffffffffffffffff1681565b60006018603c808481151561076557fe5b0481151561076f57fe5b0481151561077957fe5b069050919050565b60086020528060005260406000206000915090505481565b600560009054906101000a900473ffffffffffffffffffffffffffffffffffffffff1673ffffffffffffffffffffffffffffffffffffffff16638900bd22336040518263ffffffff167c01000000000000000000000000000000000000000000000000000000000281526004016108109190612202565b60206040518083038186803b15801561082857600080fd5b505afa15801561083c573d6000803e3d6000fd5b505050506040513d601f19601f820116820180604052506108609190810190611c77565b15156108a1576040517f08c379a00000000000000000000000000000000000000000000000000000000081526004016108989061232a565b60405180910390fd5b80600660006101000a81548173ffffffffffffffffffffffffffffffffffffffff021916908373ffffffffffffffffffffffffffffffffffffffff16021790555050565b60096020528060005260406000206000915090505481565b600060076004620151808481151561091157fe5b040181151561091c57fe5b069050919050565b600460009054906101000a900473ffffffffffffffffffffffffffffffffffffffff1681565b600061095b86868686866000610a9d565b905095945050505050565b6000610971826117fe565b604001519050919050565b6060600460009054906101000a900473ffffffffffffffffffffffffffffffffffffffff1673ffffffffffffffffffffffffffffffffffffffff1663d1a7a8fb836040518263ffffffff167c01000000000000000000000000000000000000000000000000000000000281526004016109f591906121e7565b60006040518083038186803b158015610a0d57600080fd5b505afa158015610a21573d6000803e3d6000fd5b505050506040513d6000823e3d601f19601f82011682018060405250610a4a9190810190611c36565b9050919050565b6000610a6285858585600080610a9d565b9050949350505050565b6000603c82811515610a7a57fe5b069050919050565b6000610a948484846000806000610a9d565b90509392505050565b6000806107b290505b8761ffff168161ffff161015610ae957610abf81610e05565b15610ad2576301e2850082019150610adc565b6301e13380820191505b8080600101915050610aa6565b610af16119fe565b601f816000600c81101515610b0257fe5b602002019060ff16908160ff1681525050610b1c89610e05565b15610b4857601d816001600c81101515610b3257fe5b602002019060ff16908160ff1681525050610b6b565b601c816001600c81101515610b5957fe5b602002019060ff16908160ff16815250505b601f816002600c81101515610b7c57fe5b602002019060ff16908160ff1681525050601e816003600c81101515610b9e57fe5b602002019060ff16908160ff1681525050601f816004600c81101515610bc057fe5b602002019060ff16908160ff1681525050601e816005600c81101515610be257fe5b602002019060ff16908160ff1681525050601f816006600c81101515610c0457fe5b602002019060ff16908160ff1681525050601f816007600c81101515610c2657fe5b602002019060ff16908160ff1681525050601e816008600c81101515610c4857fe5b602002019060ff16908160ff1681525050601f816009600c81101515610c6a57fe5b602002019060ff16908160ff1681525050601e81600a600c81101515610c8c57fe5b602002019060ff16908160ff1681525050601f81600b600c81101515610cae57fe5b602002019060ff16908160ff1681525050600191505b8760ff168261ffff161015610d0657806001830361ffff16600c81101515610ce857fe5b602002015160ff166201518002830192508180600101925050610cc4565b6001870360ff166201518002830192508560ff16610e1002830192508460ff16603c02830192508360ff168301925082925050509695505050505050565b600080600090506000806301e1338085811515610d5d57fe5b046107b261ffff16019150610d776107b261ffff16610e86565b610d848361ffff16610e86565b039050806301e285000283019250806107b2830361ffff16036301e1338002830192505b84831115610de457610dbc60018303610e05565b15610dcf576301e2850083039250610dd9565b6301e13380830392505b600182039150610da8565b819350505050919050565b6000610dfa826117fe565b602001519050919050565b60008060048361ffff16811515610e1857fe5b0661ffff16141515610e2d5760009050610e81565b600060648361ffff16811515610e3f57fe5b0661ffff16141515610e545760019050610e81565b60006101908361ffff16811515610e6757fe5b0661ffff16141515610e7c5760009050610e81565b600190505b919050565b600060018203915061019082811515610e9b57fe5b04606483811515610ea857fe5b04600484811515610eb557fe5b0403019050919050565b600060018360ff161480610ed6575060038360ff16145b80610ee4575060058360ff16145b80610ef2575060078360ff16145b80610f00575060088360ff16145b80610f0e5750600a8360ff16145b80610f1c5750600c8360ff16145b15610f2a57601f9050610f85565b60048360ff161480610f3f575060068360ff16145b80610f4d575060098360ff16145b80610f5b5750600b8360ff16145b15610f6957601e9050610f85565b610f7282610e05565b15610f8057601d9050610f85565b601c90505b92915050565b6000806000610f98611a21565b610fa1856117fe565b90508060400151816020015182600001518260ff1692508160ff169150935093509350509193909250565b600560009054906101000a900473ffffffffffffffffffffffffffffffffffffffff1681565b600160009054906101000a900473ffffffffffffffffffffffffffffffffffffffff1681565b60076020528060005260406000206000915090505481565b6000809050600360009054906101000a900473ffffffffffffffffffffffffffffffffffffffff1673ffffffffffffffffffffffffffffffffffffffff1663cc1d4c02836040518263ffffffff167c01000000000000000000000000000000000000000000000000000000000281526004016110ac91906121e7565b60206040518083038186803b1580156110c457600080fd5b505afa1580156110d8573d6000803e3d6000fd5b505050506040513d601f19601f820116820180604052506110fc9190810190611c77565b1561110a57600290506111dc565b600260009054906101000a900473ffffffffffffffffffffffffffffffffffffffff1673ffffffffffffffffffffffffffffffffffffffff1663cc1d4c02836040518263ffffffff167c010000000000000000000000000000000000000000000000000000000002815260040161118191906121e7565b60206040518083038186803b15801561119957600080fd5b505afa1580156111ad573d6000803e3d6000fd5b505050506040513d601f19601f820116820180604052506111d19190810190611c77565b156111db57600190505b5b919050565b6000603c80838115156111f057fe5b048115156111fa57fe5b069050919050565b600660009054906101000a900473ffffffffffffffffffffffffffffffffffffffff1673ffffffffffffffffffffffffffffffffffffffff163373ffffffffffffffffffffffffffffffffffffffff16141515611294576040517f08c379a000000000000000000000000000000000000000000000000000000000815260040161128b9061234a565b60405180910390fd5b6000600160009054906101000a900473ffffffffffffffffffffffffffffffffffffffff1673ffffffffffffffffffffffffffffffffffffffff1663de49bdaa866112de87611030565b6040518363ffffffff167c010000000000000000000000000000000000000000000000000000000002815260040161131792919061225a565b60206040518083038186803b15801561132f57600080fd5b505afa158015611343573d6000803e3d6000fd5b505050506040513d601f19601f820116820180604052506113679190810190611f07565b90506000611438826000809054906101000a900473ffffffffffffffffffffffffffffffffffffffff1673ffffffffffffffffffffffffffffffffffffffff166350ccf36b6040518163ffffffff167c010000000000000000000000000000000000000000000000000000000002815260040160206040518083038186803b1580156113f257600080fd5b505afa158015611406573d6000803e3d6000fd5b505050506040513d601f19601f8201168201806040525061142a9190810190611f07565b61199f90919063ffffffff16565b9050611442611a21565b61144b426117fe565b9050600061154985600a60008b7dffffffffffffffffffffffffffffffffffffffffffffffffffffffffffff19167dffffffffffffffffffffffffffffffffffffffffffffffffffffffffffff1916815260200190815260200160002060008a73ffffffffffffffffffffffffffffffffffffffff1673ffffffffffffffffffffffffffffffffffffffff1681526020019081526020016000206000856040015160ff1661ffff1681526020019081526020016000206000856020015160ff1661ffff1681526020019081526020016000206000856000015161ffff1661ffff168152602001908152602001600020546119dd90919063ffffffff16565b9050828111151515611590576040517f08c379a00000000000000000000000000000000000000000000000000000000081526004016115879061230a565b60405180910390fd5b80600a60008a7dffffffffffffffffffffffffffffffffffffffffffffffffffffffffffff19167dffffffffffffffffffffffffffffffffffffffffffffffffffffffffffff1916815260200190815260200160002060008973ffffffffffffffffffffffffffffffffffffffff1673ffffffffffffffffffffffffffffffffffffffff1681526020019081526020016000206000846040015160ff1661ffff1681526020019081526020016000206000846020015160ff1661ffff1681526020019081526020016000206000846000015161ffff1661ffff168152602001908152602001600020819055506116ce85600760008973ffffffffffffffffffffffffffffffffffffffff1673ffffffffffffffffffffffffffffffffffffffff168152602001908152602001600020546119dd90919063ffffffff16565b600760008873ffffffffffffffffffffffffffffffffffffffff1673ffffffffffffffffffffffffffffffffffffffff1681526020019081526020016000208190555061176385600860008a73ffffffffffffffffffffffffffffffffffffffff1673ffffffffffffffffffffffffffffffffffffffff168152602001908152602001600020546119dd90919063ffffffff16565b600860008973ffffffffffffffffffffffffffffffffffffffff1673ffffffffffffffffffffffffffffffffffffffff168152602001908152602001600020819055506001600960008973ffffffffffffffffffffffffffffffffffffffff1673ffffffffffffffffffffffffffffffffffffffff168152602001908152602001600020600082825401925050819055505050505050505050565b611806611a21565b600080905060008061181785610d44565b846000019061ffff16908161ffff16815250506118396107b261ffff16610e86565b61184a856000015161ffff16610e86565b039150816301e285000283019250816107b285600001510361ffff16036301e1338002830192506000600191505b600c8260ff161115156118d057611893828660000151610ebf565b60ff16620151800290508584820111156118be5781856020019060ff16908160ff16815250506118d0565b80840193508180600101925050611878565b600191505b6118e785602001518660000151610ebf565b60ff168260ff1611151561192e578584620151800111156119195781856040019060ff16908160ff168152505061192e565b620151808401935081806001019250506118d5565b61193786610754565b856060019060ff16908160ff1681525050611951866111e1565b856080019060ff16908160ff168152505061196b86610a6c565b8560a0019060ff16908160ff1681525050611985866108fd565b8560c0019060ff16908160ff168152505050505050919050565b6000808314156119b257600090506119d7565b600082840290508284828115156119c557fe5b041415156119d257600080fd5b809150505b92915050565b60008082840190508381101515156119f457600080fd5b8091505092915050565b604051806101800160405280600c90602082028038833980820191505090505090565b6040518060e00160405280600061ffff168152602001600060ff168152602001600060ff168152602001600060ff168152602001600060ff168152602001600060ff168152602001600060ff1681525090565b6000611a80823561252a565b905092915050565b6000611a94825161252a565b905092915050565b600082601f8301121515611aaf57600080fd5b8151611ac2611abd8261241f565b6123f2565b91508181835260208401935060208101905083856060840282011115611ae757600080fd5b60005b83811015611b175781611afd8882611b5d565b845260208401935060608301925050600181019050611aea565b5050505092915050565b6000611b2d825161253c565b905092915050565b6000611b418235612548565b905092915050565b6000611b558251612574565b905092915050565b600060608284031215611b6f57600080fd5b611b7960606123f2565b90506000611b8984828501611a88565b6000830152506020611b9d84828501611b49565b6020830152506040611bb184828501611be5565b60408301525092915050565b6000611bc98235612581565b905092915050565b6000611bdd82356125af565b905092915050565b6000611bf182516125af565b905092915050565b6000611c0582356125b9565b905092915050565b600060208284031215611c1f57600080fd5b6000611c2d84828501611a74565b91505092915050565b600060208284031215611c4857600080fd5b600082015167ffffffffffffffff811115611c6257600080fd5b611c6e84828501611a9c565b91505092915050565b600060208284031215611c8957600080fd5b6000611c9784828501611b21565b91505092915050565b60008060008060808587031215611cb657600080fd5b6000611cc487828801611b35565b9450506020611cd587828801611a74565b9350506040611ce687828801611a74565b9250506060611cf787828801611bd1565b91505092959194509250565b600060208284031215611d1557600080fd5b6000611d2384828501611bbd565b91505092915050565b600080600060608486031215611d4157600080fd5b6000611d4f86828701611bbd565b9350506020611d6086828701611bf9565b9250506040611d7186828701611bf9565b9150509250925092565b60008060008060808587031215611d9157600080fd5b6000611d9f87828801611bbd565b9450506020611db087828801611bf9565b9350506040611dc187828801611bf9565b9250506060611dd287828801611bf9565b91505092959194509250565b600080600080600060a08688031215611df657600080fd5b6000611e0488828901611bbd565b9550506020611e1588828901611bf9565b9450506040611e2688828901611bf9565b9350506060611e3788828901611bf9565b9250506080611e4888828901611bf9565b9150509295509295909350565b60008060008060008060c08789031215611e6e57600080fd5b6000611e7c89828a01611bbd565b9650506020611e8d89828a01611bf9565b9550506040611e9e89828a01611bf9565b9450506060611eaf89828a01611bf9565b9350506080611ec089828a01611bf9565b92505060a0611ed189828a01611bf9565b9150509295509295509295565b600060208284031215611ef057600080fd5b6000611efe84828501611bd1565b91505092915050565b600060208284031215611f1957600080fd5b6000611f2784828501611be5565b91505092915050565b60008060408385031215611f4357600080fd5b6000611f5185828601611bf9565b9250506020611f6285828601611bbd565b9150509250929050565b6000611f788383612169565b60608301905092915050565b611f8d816125c6565b82525050565b611f9c8161248e565b82525050565b611fab8161248e565b82525050565b6000611fbc82612454565b611fc6818561246c565b9350611fd183612447565b60005b82811015611fff57611fe7868351611f6c565b9550611ff28261245f565b9150600181019050611fd4565b50849250505092915050565b612014816124a0565b82525050565b612023816124ac565b82525050565b612032816125d8565b82525050565b612041816125fc565b82525050565b61205081612620565b82525050565b61205f81612644565b82525050565b61206e81612668565b82525050565b61207d816124d8565b82525050565b600061209060198361247d565b91507f6578636565646564206461696c792073656c6c206c696d6974000000000000006000830152602082019050919050565b60006120d060198361247d565b91507f63616e206f6e6c792062652063616c6c65642062792043454f000000000000006000830152602082019050919050565b600061211060218361247d565b91507f63616e206f6e6c792062652063616c6c6564206279207a6f6e65466163746f7260008301527f79000000000000000000000000000000000000000000000000000000000000006020830152604082019050919050565b60608201600082015161217f6000850182611f93565b5060208201516121926020850182612074565b5060408201516121a560408501826121ba565b50505050565b6121b4816124e5565b82525050565b6121c381612513565b82525050565b6121d281612513565b82525050565b6121e18161251d565b82525050565b60006020820190506121fc6000830184611fa2565b92915050565b60006020820190506122176000830184611f84565b92915050565b600060208201905081810360008301526122378184611fb1565b905092915050565b6000602082019050612254600083018461200b565b92915050565b600060408201905061226f600083018561201a565b61227c60208301846121c9565b9392505050565b60006020820190506122986000830184612029565b92915050565b60006020820190506122b36000830184612038565b92915050565b60006020820190506122ce6000830184612047565b92915050565b60006020820190506122e96000830184612056565b92915050565b60006020820190506123046000830184612065565b92915050565b6000602082019050818103600083015261232381612083565b9050919050565b60006020820190508181036000830152612343816120c3565b9050919050565b6000602082019050818103600083015261236381612103565b9050919050565b600060208201905061237f60008301846121ab565b92915050565b600060608201905061239a60008301866121ab565b6123a760208301856121ab565b6123b460408301846121ab565b949350505050565b60006020820190506123d160008301846121c9565b92915050565b60006020820190506123ec60008301846121d8565b92915050565b6000604051905081810181811067ffffffffffffffff8211171561241557600080fd5b8060405250919050565b600067ffffffffffffffff82111561243657600080fd5b602082029050602081019050919050565b6000602082019050919050565b600081519050919050565b6000602082019050919050565b600082825260208201905092915050565b600082825260208201905092915050565b6000612499826124f3565b9050919050565b60008115159050919050565b60007fffff00000000000000000000000000000000000000000000000000000000000082169050919050565b60008160000b9050919050565b600061ffff82169050919050565b600073ffffffffffffffffffffffffffffffffffffffff82169050919050565b6000819050919050565b600060ff82169050919050565b60006125358261258f565b9050919050565b60008115159050919050565b60007fffff00000000000000000000000000000000000000000000000000000000000082169050919050565b60008160000b9050919050565b600061ffff82169050919050565b600073ffffffffffffffffffffffffffffffffffffffff82169050919050565b6000819050919050565b600060ff82169050919050565b60006125d18261268c565b9050919050565b60006125e3826125ea565b9050919050565b60006125f5826124f3565b9050919050565b60006126078261260e565b9050919050565b6000612619826124f3565b9050919050565b600061262b82612632565b9050919050565b600061263d826124f3565b9050919050565b600061264f82612656565b9050919050565b6000612661826124f3565b9050919050565b60006126738261267a565b9050919050565b6000612685826124f3565b9050919050565b60006126978261269e565b9050919050565b60006126a9826124f3565b905091905056fea265627a7a723058203bd6ca5f05647b299131fd9874f8a8b72eb7c685053c298bf7a212ebd78a61886c6578706572696d656e74616cf50037",
  "source": "pragma solidity ^0.5.3;\npragma experimental ABIEncoderV2;\n\nimport \"openzeppelin-solidity/contracts/math/SafeMath.sol\";\n\nimport \"../datetime/DateTime.sol\";\n\nimport \"../interfaces/IExchangeRateOracle.sol\";\nimport \"../interfaces/ICertifier.sol\";\nimport \"../interfaces/IGeoRegistry.sol\";\nimport \"../interfaces/IControl.sol\";\nimport \"../interfaces/ICertifierRegistry.sol\";\n\ncontract Users is DateTime {\n  // ------------------------------------------------\n  //\n  // Library init\n  //\n  // ------------------------------------------------\n\n  using SafeMath for uint;\n\n  // ------------------------------------------------\n  //\n  // Variables Public\n  //\n  // ------------------------------------------------\n\n  IExchangeRateOracle public priceOracle;\n  IGeoRegistry public geo;\n  ICertifier public smsCertifier;\n  ICertifier public kycCertifier;\n  ICertifierRegistry public certifierRegistry;\n  IControl public control;\n\n\n  address public zoneFactoryAddress;\n\n  mapping(address => uint) public volumeBuy;\n  mapping(address => uint) public volumeSell;\n  mapping(address => uint) public nbTrade;\n\n  // per country, per user, per day, keep track of amount of eth sold (since we have max limits per country)\n  //\n  //      country           user               day               month             year      weiSold\n  mapping(bytes2 => mapping(address => mapping(uint16 => mapping(uint16 => mapping(uint16 => uint256))))) ethSellsUserToday;\n\n  // ------------------------------------------------\n  //\n  // Constructor\n  //\n  // ------------------------------------------------\n\n  constructor(address _priceOracle, address _geo, address _smsCertifier, address _kycCertifier, address _control, address _certifierRegistry)\n    public\n  {\n    priceOracle = IExchangeRateOracle(_priceOracle);\n    geo = IGeoRegistry(_geo);\n    smsCertifier = ICertifier(_smsCertifier);\n    kycCertifier = ICertifier(_kycCertifier);\n    certifierRegistry = ICertifierRegistry(_certifierRegistry);\n    control = IControl(_control);\n  }\n\n  // ------------------------------------------------\n  //\n  // Functions Setters\n  //\n  // ------------------------------------------------\n\n  function setZoneFactory(address _zoneFactory)\n    external\n  {\n    require(control.isCEO(msg.sender), \"can only be called by CEO\");\n    zoneFactoryAddress = _zoneFactory;\n  }\n\n  function updateDailySold(bytes2 _countryCode, address _from, address _to, uint _amount)\n    external\n  {\n    require(msg.sender == zoneFactoryAddress, \"can only be called by zoneFactory\");\n    // if country code or user does not exist, we get back 0\n    uint sellDailyLimitUsd = geo.countryTierDailyLimit(_countryCode, getUserTier(_from));\n    uint sellDailyLimitEth = priceOracle.getWeiPriceOneUsd().mul(sellDailyLimitUsd);\n    _DateTime memory dateNow = parseTimestamp(block.timestamp);\n    uint newSoldTodayEth = ethSellsUserToday[_countryCode][_from][dateNow.day][dateNow.month][dateNow.year].add(_amount);\n    require(newSoldTodayEth <= sellDailyLimitEth, \"exceeded daily sell limit\");\n    ethSellsUserToday[_countryCode][_from][dateNow.day][dateNow.month][dateNow.year] = newSoldTodayEth;\n\n    volumeBuy[_to] = volumeBuy[_to].add(_amount);\n    volumeSell[_from] = volumeSell[_from].add(_amount);\n    nbTrade[_from] += 1;\n  }\n\n  // ------------------------------------------------\n  //\n  // Functions Getters\n  //\n  // ------------------------------------------------\n\n  function getUserTier(address _who)\n    public\n    view\n    returns (uint foundTier)\n  {\n    foundTier = 0;\n    if (kycCertifier.certified(_who)) foundTier = 2;\n    else if (smsCertifier.certified(_who)) foundTier = 1;\n  }\n  function getCertifications(address _who)\n    external view\n    returns ( ICertifierRegistry.Certification[] memory)\n    {\n      return certifierRegistry.getCerts(_who);\n    }\n  function getDateInfo(uint timestamp)\n    external\n    pure\n    returns (uint16, uint16, uint16)\n  {\n    _DateTime memory date = parseTimestamp(timestamp);\n    return (date.day, date.month, date.year);\n  }\n}",
  "sourcePath": "/Users/mehdi/code/dether/contractV2/contracts/core/Users.sol",
  "compiler": {
    "name": "solc",
    "version": "0.5.5+commit.47a71e8f.Emscripten.clang"
  },
  "schemaVersion": "3.0.3",
  "updatedAt": "2019-03-27T13:26:58.207Z",
  "devdoc": {
    "methods": {}
  },
  "userdoc": {
    "methods": {}
  }
}