{
  "contractName": "Users",
  "abi": [
    {
      "constant": true,
      "inputs": [],
      "name": "zoneFactoryAddress",
      "outputs": [
        {
          "name": "",
          "type": "address"
        }
      ],
      "payable": false,
      "stateMutability": "view",
      "type": "function"
    },
    {
      "constant": true,
      "inputs": [],
      "name": "certifierRegistry",
      "outputs": [
        {
          "name": "",
          "type": "address"
        }
      ],
      "payable": false,
      "stateMutability": "view",
      "type": "function"
    },
    {
      "constant": true,
      "inputs": [],
      "name": "isInit",
      "outputs": [
        {
          "name": "",
          "type": "bool"
        }
      ],
      "payable": false,
      "stateMutability": "view",
      "type": "function"
    },
    {
      "constant": true,
      "inputs": [],
      "name": "geo",
      "outputs": [
        {
          "name": "",
          "type": "address"
        }
      ],
      "payable": false,
      "stateMutability": "view",
      "type": "function"
    },
    {
      "inputs": [
        {
          "name": "_geo",
          "type": "address"
        },
        {
          "name": "_certifierRegistry",
          "type": "address"
        }
      ],
      "payable": false,
      "stateMutability": "nonpayable",
      "type": "constructor"
    },
    {
      "constant": false,
      "inputs": [
        {
          "name": "_zoneFactory",
          "type": "address"
        }
      ],
      "name": "setZoneFactory",
      "outputs": [],
      "payable": false,
      "stateMutability": "nonpayable",
      "type": "function"
    },
    {
      "constant": true,
      "inputs": [
        {
          "name": "_who",
          "type": "address"
        }
      ],
      "name": "getCertifications",
      "outputs": [
        {
          "components": [
            {
              "name": "certifier",
              "type": "address"
            },
            {
              "name": "ref",
              "type": "int8"
            },
            {
              "name": "timestamp",
              "type": "uint256"
            }
          ],
          "name": "",
          "type": "tuple[]"
        }
      ],
      "payable": false,
      "stateMutability": "view",
      "type": "function"
    }
  ],
  "bytecode": "0x60806040526000600260146101000a81548160ff02191690831515021790555034801561002b57600080fd5b50604051610a0f380380610a0f833981810160405261004d91908101906100ea565b816000806101000a81548173ffffffffffffffffffffffffffffffffffffffff021916908373ffffffffffffffffffffffffffffffffffffffff16021790555080600160006101000a81548173ffffffffffffffffffffffffffffffffffffffff021916908373ffffffffffffffffffffffffffffffffffffffff160217905550505061016f565b6000815190506100e481610158565b92915050565b600080604083850312156100fd57600080fd5b600061010b858286016100d5565b925050602061011c858286016100d5565b9150509250929050565b600061013182610138565b9050919050565b600073ffffffffffffffffffffffffffffffffffffffff82169050919050565b61016181610126565b811461016c57600080fd5b50565b6108918061017e6000396000f3fe608060405234801561001057600080fd5b50600436106100625760003560e01c806303c77f24146100675780634753dc4f146100855780635b6ba8cc146100a1578063677cc291146100bf578063b145a5b8146100ef578063d944e6a31461010d575b600080fd5b61006f61012b565b60405161007c919061061f565b60405180910390f35b61009f600480360361009a9190810190610454565b610151565b005b6100a9610206565b6040516100b69190610677565b60405180910390f35b6100d960048036036100d49190810190610454565b61022c565b6040516100e6919061063a565b60405180910390f35b6100f76102e5565b604051610104919061065c565b60405180910390f35b6101156102f8565b6040516101229190610692565b60405180910390f35b600260009054906101000a900473ffffffffffffffffffffffffffffffffffffffff1681565b60001515600260149054906101000a900460ff161515146101a7576040517f08c379a000000000000000000000000000000000000000000000000000000000815260040161019e906106ad565b60405180910390fd5b80600260006101000a81548173ffffffffffffffffffffffffffffffffffffffff021916908373ffffffffffffffffffffffffffffffffffffffff1602179055506001600260146101000a81548160ff02191690831515021790555050565b600160009054906101000a900473ffffffffffffffffffffffffffffffffffffffff1681565b6060600160009054906101000a900473ffffffffffffffffffffffffffffffffffffffff1673ffffffffffffffffffffffffffffffffffffffff1663d1a7a8fb836040518263ffffffff1660e01b8152600401610289919061061f565b60006040518083038186803b1580156102a157600080fd5b505afa1580156102b5573d6000803e3d6000fd5b505050506040513d6000823e3d601f19601f820116820180604052506102de919081019061047d565b9050919050565b600260149054906101000a900460ff1681565b6000809054906101000a900473ffffffffffffffffffffffffffffffffffffffff1681565b60008135905061032c81610809565b92915050565b60008151905061034181610809565b92915050565b600082601f83011261035857600080fd5b815161036b610366826106fa565b6106cd565b9150818183526020840193506020810190508385606084028201111561039057600080fd5b60005b838110156103c057816103a688826103df565b845260208401935060608301925050600181019050610393565b5050505092915050565b6000815190506103d981610820565b92915050565b6000606082840312156103f157600080fd5b6103fb60606106cd565b9050600061040b84828501610332565b600083015250602061041f848285016103ca565b60208301525060406104338482850161043f565b60408301525092915050565b60008151905061044e81610837565b92915050565b60006020828403121561046657600080fd5b60006104748482850161031d565b91505092915050565b60006020828403121561048f57600080fd5b600082015167ffffffffffffffff8111156104a957600080fd5b6104b584828501610347565b91505092915050565b60006104ca83836105ce565b60608301905092915050565b6104df8161076c565b82525050565b6104ee8161076c565b82525050565b60006104ff82610732565b610509818561074a565b935061051483610722565b8060005b8381101561054557815161052c88826104be565b97506105378361073d565b925050600181019050610518565b5085935050505092915050565b61055b8161077e565b82525050565b61056a816107c1565b82525050565b610579816107e5565b82525050565b6105888161078a565b82525050565b600061059b601f8361075b565b91507f63616e6e6f742062652063616c6c6564206d6f7265207468616e206f6e6365006000830152602082019050919050565b6060820160008201516105e460008501826104d6565b5060208201516105f7602085018261057f565b50604082015161060a6040850182610610565b50505050565b610619816107b7565b82525050565b600060208201905061063460008301846104e5565b92915050565b6000602082019050818103600083015261065481846104f4565b905092915050565b60006020820190506106716000830184610552565b92915050565b600060208201905061068c6000830184610561565b92915050565b60006020820190506106a76000830184610570565b92915050565b600060208201905081810360008301526106c68161058e565b9050919050565b6000604051905081810181811067ffffffffffffffff821117156106f057600080fd5b8060405250919050565b600067ffffffffffffffff82111561071157600080fd5b602082029050602081019050919050565b6000819050602082019050919050565b600081519050919050565b6000602082019050919050565b600082825260208201905092915050565b600082825260208201905092915050565b600061077782610797565b9050919050565b60008115159050919050565b60008160000b9050919050565b600073ffffffffffffffffffffffffffffffffffffffff82169050919050565b6000819050919050565b60006107cc826107d3565b9050919050565b60006107de82610797565b9050919050565b60006107f0826107f7565b9050919050565b600061080282610797565b9050919050565b6108128161076c565b811461081d57600080fd5b50565b6108298161078a565b811461083457600080fd5b50565b610840816107b7565b811461084b57600080fd5b5056fea365627a7a7230582097bca1eee4a30dacdad599ccd119686cdc61bda1dedc2e9ad34833768ca40f1a6c6578706572696d656e74616cf564736f6c634300050a0040",
  "source": "pragma solidity ^0.5.10;\npragma experimental ABIEncoderV2;\n\nimport \"openzeppelin-solidity/contracts/math/SafeMath.sol\";\n\nimport \"../interfaces/ICertifier.sol\";\nimport \"../interfaces/IGeoRegistry.sol\";\nimport \"../interfaces/ICertifierRegistry.sol\";\n\ncontract Users {\n  // ------------------------------------------------\n  //\n  // Library init\n  //\n  // ------------------------------------------------\n\n  using SafeMath for uint;\n\n  // ------------------------------------------------\n  //\n  // Variables Public\n  //\n  // ------------------------------------------------\n\n  IGeoRegistry public geo;\n  ICertifierRegistry public certifierRegistry;\n\n  address public zoneFactoryAddress;\n  bool public isInit = false;\n\n  // ------------------------------------------------\n  //\n  // Constructor\n  //\n  // ------------------------------------------------\n\n    constructor(address _geo, address _certifierRegistry)\n    public\n  {\n    geo = IGeoRegistry(_geo);\n    certifierRegistry = ICertifierRegistry(_certifierRegistry);\n  }\n\n  // ------------------------------------------------\n  //\n  // Functions Setters\n  //\n  // ------------------------------------------------\n\n  function setZoneFactory(address _zoneFactory)\n    external\n  {\n    require(isInit == false, 'cannot be called more than once');\n    zoneFactoryAddress = _zoneFactory;\n    isInit = true;\n  }\n\n  // ------------------------------------------------\n  //\n  // Functions Getters\n  //\n  // ------------------------------------------------\n\n  function getCertifications(address _who)\n    external view\n    returns ( ICertifierRegistry.Certification[] memory)\n    {\n      return certifierRegistry.getCerts(_who);\n    }\n}",
  "sourcePath": "/Users/mehdi/code/dether/contractV2/contracts/core/Users.sol",
  "compiler": {
    "name": "solc",
    "version": "0.5.10+commit.5a6ea5b1.Emscripten.clang"
  },
  "schemaVersion": "3.0.11",
  "updatedAt": "2019-07-13T18:40:06.368Z",
  "devdoc": {
    "methods": {}
  },
  "userdoc": {
    "methods": {}
  }
}