{
  "contractName": "Users",
  "abi": [
    {
      "constant": true,
      "inputs": [],
      "name": "zoneFactoryAddress",
      "outputs": [
        {
          "name": "",
          "type": "address"
        }
      ],
      "payable": false,
      "stateMutability": "view",
      "type": "function"
    },
    {
      "constant": true,
      "inputs": [],
      "name": "kycCertifier",
      "outputs": [
        {
          "name": "",
          "type": "address"
        }
      ],
      "payable": false,
      "stateMutability": "view",
      "type": "function"
    },
    {
      "constant": true,
      "inputs": [
        {
          "name": "",
          "type": "address"
        }
      ],
      "name": "userTiers",
      "outputs": [
        {
          "name": "",
          "type": "int8"
        }
      ],
      "payable": false,
      "stateMutability": "view",
      "type": "function"
    },
    {
      "constant": true,
      "inputs": [],
      "name": "priceOracle",
      "outputs": [
        {
          "name": "",
          "type": "address"
        }
      ],
      "payable": false,
      "stateMutability": "view",
      "type": "function"
    },
    {
      "constant": true,
      "inputs": [],
      "name": "smsCertifier",
      "outputs": [
        {
          "name": "",
          "type": "address"
        }
      ],
      "payable": false,
      "stateMutability": "view",
      "type": "function"
    },
    {
      "constant": true,
      "inputs": [
        {
          "name": "timestamp",
          "type": "uint256"
        }
      ],
      "name": "getHour",
      "outputs": [
        {
          "name": "",
          "type": "uint8"
        }
      ],
      "payable": false,
      "stateMutability": "pure",
      "type": "function"
    },
    {
      "constant": true,
      "inputs": [
        {
          "name": "",
          "type": "address"
        }
      ],
      "name": "volumeSell",
      "outputs": [
        {
          "name": "",
          "type": "uint256"
        }
      ],
      "payable": false,
      "stateMutability": "view",
      "type": "function"
    },
    {
      "constant": true,
      "inputs": [
        {
          "name": "",
          "type": "address"
        }
      ],
      "name": "nbTrade",
      "outputs": [
        {
          "name": "",
          "type": "uint256"
        }
      ],
      "payable": false,
      "stateMutability": "view",
      "type": "function"
    },
    {
      "constant": true,
      "inputs": [
        {
          "name": "timestamp",
          "type": "uint256"
        }
      ],
      "name": "getWeekday",
      "outputs": [
        {
          "name": "",
          "type": "uint8"
        }
      ],
      "payable": false,
      "stateMutability": "pure",
      "type": "function"
    },
    {
      "constant": true,
      "inputs": [],
      "name": "certifierRegistry",
      "outputs": [
        {
          "name": "",
          "type": "address"
        }
      ],
      "payable": false,
      "stateMutability": "view",
      "type": "function"
    },
    {
      "constant": true,
      "inputs": [
        {
          "name": "year",
          "type": "uint16"
        },
        {
          "name": "month",
          "type": "uint8"
        },
        {
          "name": "day",
          "type": "uint8"
        },
        {
          "name": "hour",
          "type": "uint8"
        },
        {
          "name": "minute",
          "type": "uint8"
        }
      ],
      "name": "toTimestamp",
      "outputs": [
        {
          "name": "timestamp",
          "type": "uint256"
        }
      ],
      "payable": false,
      "stateMutability": "pure",
      "type": "function"
    },
    {
      "constant": true,
      "inputs": [
        {
          "name": "timestamp",
          "type": "uint256"
        }
      ],
      "name": "getDay",
      "outputs": [
        {
          "name": "",
          "type": "uint8"
        }
      ],
      "payable": false,
      "stateMutability": "pure",
      "type": "function"
    },
    {
      "constant": true,
      "inputs": [
        {
          "name": "year",
          "type": "uint16"
        },
        {
          "name": "month",
          "type": "uint8"
        },
        {
          "name": "day",
          "type": "uint8"
        },
        {
          "name": "hour",
          "type": "uint8"
        }
      ],
      "name": "toTimestamp",
      "outputs": [
        {
          "name": "timestamp",
          "type": "uint256"
        }
      ],
      "payable": false,
      "stateMutability": "pure",
      "type": "function"
    },
    {
      "constant": true,
      "inputs": [
        {
          "name": "timestamp",
          "type": "uint256"
        }
      ],
      "name": "getSecond",
      "outputs": [
        {
          "name": "",
          "type": "uint8"
        }
      ],
      "payable": false,
      "stateMutability": "pure",
      "type": "function"
    },
    {
      "constant": true,
      "inputs": [
        {
          "name": "year",
          "type": "uint16"
        },
        {
          "name": "month",
          "type": "uint8"
        },
        {
          "name": "day",
          "type": "uint8"
        }
      ],
      "name": "toTimestamp",
      "outputs": [
        {
          "name": "timestamp",
          "type": "uint256"
        }
      ],
      "payable": false,
      "stateMutability": "pure",
      "type": "function"
    },
    {
      "constant": true,
      "inputs": [
        {
          "name": "year",
          "type": "uint16"
        },
        {
          "name": "month",
          "type": "uint8"
        },
        {
          "name": "day",
          "type": "uint8"
        },
        {
          "name": "hour",
          "type": "uint8"
        },
        {
          "name": "minute",
          "type": "uint8"
        },
        {
          "name": "second",
          "type": "uint8"
        }
      ],
      "name": "toTimestamp",
      "outputs": [
        {
          "name": "timestamp",
          "type": "uint256"
        }
      ],
      "payable": false,
      "stateMutability": "pure",
      "type": "function"
    },
    {
      "constant": true,
      "inputs": [
        {
          "name": "timestamp",
          "type": "uint256"
        }
      ],
      "name": "getYear",
      "outputs": [
        {
          "name": "",
          "type": "uint16"
        }
      ],
      "payable": false,
      "stateMutability": "pure",
      "type": "function"
    },
    {
      "constant": true,
      "inputs": [
        {
          "name": "timestamp",
          "type": "uint256"
        }
      ],
      "name": "getMonth",
      "outputs": [
        {
          "name": "",
          "type": "uint8"
        }
      ],
      "payable": false,
      "stateMutability": "pure",
      "type": "function"
    },
    {
      "constant": true,
      "inputs": [
        {
          "name": "year",
          "type": "uint16"
        }
      ],
      "name": "isLeapYear",
      "outputs": [
        {
          "name": "",
          "type": "bool"
        }
      ],
      "payable": false,
      "stateMutability": "pure",
      "type": "function"
    },
    {
      "constant": true,
      "inputs": [
        {
          "name": "year",
          "type": "uint256"
        }
      ],
      "name": "leapYearsBefore",
      "outputs": [
        {
          "name": "",
          "type": "uint256"
        }
      ],
      "payable": false,
      "stateMutability": "pure",
      "type": "function"
    },
    {
      "constant": true,
      "inputs": [
        {
          "name": "month",
          "type": "uint8"
        },
        {
          "name": "year",
          "type": "uint16"
        }
      ],
      "name": "getDaysInMonth",
      "outputs": [
        {
          "name": "",
          "type": "uint8"
        }
      ],
      "payable": false,
      "stateMutability": "pure",
      "type": "function"
    },
    {
      "constant": true,
      "inputs": [],
      "name": "control",
      "outputs": [
        {
          "name": "",
          "type": "address"
        }
      ],
      "payable": false,
      "stateMutability": "view",
      "type": "function"
    },
    {
      "constant": true,
      "inputs": [],
      "name": "geo",
      "outputs": [
        {
          "name": "",
          "type": "address"
        }
      ],
      "payable": false,
      "stateMutability": "view",
      "type": "function"
    },
    {
      "constant": true,
      "inputs": [
        {
          "name": "",
          "type": "address"
        }
      ],
      "name": "volumeBuy",
      "outputs": [
        {
          "name": "",
          "type": "uint256"
        }
      ],
      "payable": false,
      "stateMutability": "view",
      "type": "function"
    },
    {
      "constant": true,
      "inputs": [
        {
          "name": "",
          "type": "int8"
        }
      ],
      "name": "tierDailyLimit",
      "outputs": [
        {
          "name": "",
          "type": "uint256"
        }
      ],
      "payable": false,
      "stateMutability": "view",
      "type": "function"
    },
    {
      "constant": true,
      "inputs": [
        {
          "name": "timestamp",
          "type": "uint256"
        }
      ],
      "name": "getMinute",
      "outputs": [
        {
          "name": "",
          "type": "uint8"
        }
      ],
      "payable": false,
      "stateMutability": "pure",
      "type": "function"
    },
    {
      "inputs": [
        {
          "name": "_priceOracle",
          "type": "address"
        },
        {
          "name": "_geo",
          "type": "address"
        },
        {
          "name": "_smsCertifier",
          "type": "address"
        },
        {
          "name": "_kycCertifier",
          "type": "address"
        },
        {
          "name": "_control",
          "type": "address"
        },
        {
          "name": "_certifierRegistry",
          "type": "address"
        }
      ],
      "payable": false,
      "stateMutability": "nonpayable",
      "type": "constructor"
    },
    {
      "constant": false,
      "inputs": [
        {
          "name": "_zoneFactory",
          "type": "address"
        }
      ],
      "name": "setZoneFactory",
      "outputs": [],
      "payable": false,
      "stateMutability": "nonpayable",
      "type": "function"
    },
    {
      "constant": false,
      "inputs": [
        {
          "name": "_who",
          "type": "address"
        },
        {
          "name": "_num",
          "type": "int8"
        }
      ],
      "name": "setUserTier",
      "outputs": [],
      "payable": false,
      "stateMutability": "nonpayable",
      "type": "function"
    },
    {
      "constant": false,
      "inputs": [
        {
          "name": "_num",
          "type": "int8"
        }
      ],
      "name": "modifyUserTier",
      "outputs": [],
      "payable": false,
      "stateMutability": "nonpayable",
      "type": "function"
    },
    {
      "constant": false,
      "inputs": [
        {
          "name": "_countryCode",
          "type": "bytes2"
        },
        {
          "name": "_from",
          "type": "address"
        },
        {
          "name": "_to",
          "type": "address"
        },
        {
          "name": "_amount",
          "type": "uint256"
        }
      ],
      "name": "updateDailySold",
      "outputs": [],
      "payable": false,
      "stateMutability": "nonpayable",
      "type": "function"
    },
    {
      "constant": true,
      "inputs": [
        {
          "name": "_who",
          "type": "address"
        }
      ],
      "name": "getCertifications",
      "outputs": [
        {
          "components": [
            {
              "name": "certifier",
              "type": "address"
            },
            {
              "name": "ref",
              "type": "int8"
            },
            {
              "name": "timestamp",
              "type": "uint256"
            }
          ],
          "name": "",
          "type": "tuple[]"
        }
      ],
      "payable": false,
      "stateMutability": "view",
      "type": "function"
    },
    {
      "constant": true,
      "inputs": [
        {
          "name": "timestamp",
          "type": "uint256"
        }
      ],
      "name": "getDateInfo",
      "outputs": [
        {
          "name": "",
          "type": "uint16"
        },
        {
          "name": "",
          "type": "uint16"
        },
        {
          "name": "",
          "type": "uint16"
        }
      ],
      "payable": false,
      "stateMutability": "pure",
      "type": "function"
    }
  ],
  "bytecode": "0x60806040523480156200001157600080fd5b5060405160c08062002bf0833981018060405262000033919081019062000236565b856000806101000a81548173ffffffffffffffffffffffffffffffffffffffff021916908373ffffffffffffffffffffffffffffffffffffffff16021790555084600160006101000a81548173ffffffffffffffffffffffffffffffffffffffff021916908373ffffffffffffffffffffffffffffffffffffffff16021790555083600260006101000a81548173ffffffffffffffffffffffffffffffffffffffff021916908373ffffffffffffffffffffffffffffffffffffffff16021790555082600360006101000a81548173ffffffffffffffffffffffffffffffffffffffff021916908373ffffffffffffffffffffffffffffffffffffffff16021790555080600460006101000a81548173ffffffffffffffffffffffffffffffffffffffff021916908373ffffffffffffffffffffffffffffffffffffffff16021790555081600560006101000a81548173ffffffffffffffffffffffffffffffffffffffff021916908373ffffffffffffffffffffffffffffffffffffffff1602179055506103e8600b6000600160000b815260200190815260200160002081905550612710600b6000600260000b815260200190815260200160002081905550620f4240600b6000600360000b8152602001908152602001600020819055505050505050506200031a565b600081519050620002308162000300565b92915050565b60008060008060008060c087890312156200025057600080fd5b60006200026089828a016200021f565b96505060206200027389828a016200021f565b95505060406200028689828a016200021f565b94505060606200029989828a016200021f565b9350506080620002ac89828a016200021f565b92505060a0620002bf89828a016200021f565b9150509295509295509295565b6000620002d982620002e0565b9050919050565b600073ffffffffffffffffffffffffffffffffffffffff82169050919050565b6200030b81620002cc565b81146200031757600080fd5b50565b6128c6806200032a6000396000f3fe608060405234801561001057600080fd5b506004361061020d576000357c0100000000000000000000000000000000000000000000000000000000900480638aa001fc1161012c578063b238ad0e116100bf578063dc2de4fa1161008e578063dc2de4fa1461069a578063eb6bc961146106ca578063fa93f883146106fa578063fb89df531461072a5761020d565b8063b238ad0e146105fc578063c34c6b931461062c578063d8de65871461065e578063d944e6a31461067c5761020d565b8063a324ad24116100fb578063a324ad2414610550578063a6f0e57714610580578063aec4f994146105b0578063b1999937146105cc5761020d565b80638aa001fc146104905780638c8d98a0146104c05780639054bdec146104f057806392d66313146105205761020d565b8063475e4654116101a457806365c728401161017357806365c72840146103e4578063677cc291146104145780637f79183314610444578063894e3c29146104745761020d565b8063475e4654146103365780634ac1ad78146103665780635b6ba8cc1461039657806362ba9687146103b45761020d565b806330a55316116101e057806330a553161461029c5780633e239e1a146102ba57806341d0d30f146102ea5780634753dc4f1461031a5761020d565b806303c77f24146102125780630d46f91a1461023057806324063c821461024e5780632630c12f1461027e575b600080fd5b61021a610746565b604051610227919061238c565b60405180910390f35b61023861076c565b604051610245919061241a565b60405180910390f35b61026860048036036102639190810190611ca3565b610792565b6040516102759190612486565b60405180910390f35b6102866107b2565b6040516102939190612450565b60405180910390f35b6102a46107d7565b6040516102b1919061241a565b60405180910390f35b6102d460048036036102cf9190810190611fd9565b6107fd565b6040516102e191906125ae565b60405180910390f35b61030460048036036102ff9190810190611ca3565b610824565b6040516103119190612593565b60405180910390f35b610334600480360361032f9190810190611ca3565b61083c565b005b610350600480360361034b9190810190611ca3565b610986565b60405161035d9190612593565b60405180910390f35b610380600480360361037b9190810190611fd9565b61099e565b60405161038d91906125ae565b60405180910390f35b61039e6109c1565b6040516103ab91906123ff565b60405180910390f35b6103ce60048036036103c99190810190611ed9565b6109e7565b6040516103db9190612593565b60405180910390f35b6103fe60048036036103f99190810190611fd9565b610a03565b60405161040b91906125ae565b60405180910390f35b61042e60048036036104299190810190611ca3565b610a19565b60405161043b91906123c2565b60405180910390f35b61045e60048036036104599190810190611e76565b610aee565b60405161046b9190612593565b60405180910390f35b61048e60048036036104899190810190611ccc565b610b09565b005b6104aa60048036036104a59190810190611fd9565b610bf8565b6040516104b791906125ae565b60405180910390f35b6104da60048036036104d59190810190611e27565b610c0c565b6040516104e79190612593565b60405180910390f35b61050a60048036036105059190810190611f50565b610c27565b6040516105179190612593565b60405180910390f35b61053a60048036036105359190810190611fd9565b610eb2565b6040516105479190612541565b60405180910390f35b61056a60048036036105659190810190611fd9565b610f5b565b60405161057791906125ae565b60405180910390f35b61059a60048036036105959190810190611dfe565b610f71565b6040516105a791906123e4565b60405180910390f35b6105ca60048036036105c59190810190611dd5565b610fe6565b005b6105e660048036036105e19190810190611fd9565b61111c565b6040516105f39190612593565b60405180910390f35b6106166004803603610611919081019061202b565b61114f565b60405161062391906125ae565b60405180910390f35b61064660048036036106419190810190611fd9565b61121b565b6040516106559392919061255c565b60405180910390f35b61066661125c565b6040516106739190612435565b60405180910390f35b610684611282565b604051610691919061246b565b60405180910390f35b6106b460048036036106af9190810190611ca3565b6112a8565b6040516106c19190612593565b60405180910390f35b6106e460048036036106df9190810190611dd5565b6112c0565b6040516106f19190612593565b60405180910390f35b610714600480360361070f9190810190611fd9565b6112d8565b60405161072191906125ae565b60405180910390f35b610744600480360361073f9190810190611d72565b6112f5565b005b600660009054906101000a900473ffffffffffffffffffffffffffffffffffffffff1681565b600360009054906101000a900473ffffffffffffffffffffffffffffffffffffffff1681565b600a6020528060005260406000206000915054906101000a900460000b81565b6000809054906101000a900473ffffffffffffffffffffffffffffffffffffffff1681565b600260009054906101000a900473ffffffffffffffffffffffffffffffffffffffff1681565b60006018603c80848161080c57fe5b048161081457fe5b048161081c57fe5b069050919050565b60086020528060005260406000206000915090505481565b600560009054906101000a900473ffffffffffffffffffffffffffffffffffffffff1673ffffffffffffffffffffffffffffffffffffffff16638900bd22336040518263ffffffff167c01000000000000000000000000000000000000000000000000000000000281526004016108b391906123a7565b60206040518083038186803b1580156108cb57600080fd5b505afa1580156108df573d6000803e3d6000fd5b505050506040513d601f19601f820116820180604052506109039190810190611d49565b610942576040517f08c379a0000000000000000000000000000000000000000000000000000000008152600401610939906124e1565b60405180910390fd5b80600660006101000a81548173ffffffffffffffffffffffffffffffffffffffff021916908373ffffffffffffffffffffffffffffffffffffffff16021790555050565b60096020528060005260406000206000915090505481565b6000600760046201518084816109b057fe5b0401816109b957fe5b069050919050565b600460009054906101000a900473ffffffffffffffffffffffffffffffffffffffff1681565b60006109f886868686866000610c27565b905095945050505050565b6000610a0e82611882565b604001519050919050565b6060600460009054906101000a900473ffffffffffffffffffffffffffffffffffffffff1673ffffffffffffffffffffffffffffffffffffffff1663d1a7a8fb836040518263ffffffff167c0100000000000000000000000000000000000000000000000000000000028152600401610a92919061238c565b60006040518083038186803b158015610aaa57600080fd5b505afa158015610abe573d6000803e3d6000fd5b505050506040513d6000823e3d601f19601f82011682018060405250610ae79190810190611d08565b9050919050565b6000610aff85858585600080610c27565b9050949350505050565b600660009054906101000a900473ffffffffffffffffffffffffffffffffffffffff1673ffffffffffffffffffffffffffffffffffffffff163373ffffffffffffffffffffffffffffffffffffffff1614610b99576040517f08c379a0000000000000000000000000000000000000000000000000000000008152600401610b9090612521565b60405180910390fd5b80600a60008473ffffffffffffffffffffffffffffffffffffffff1673ffffffffffffffffffffffffffffffffffffffff16815260200190815260200160002060006101000a81548160ff021916908360000b60ff1602179055505050565b6000603c8281610c0457fe5b069050919050565b6000610c1e8484846000806000610c27565b90509392505050565b6000806107b290505b8761ffff168161ffff161015610c7357610c4981610f71565b15610c5c576301e2850082019150610c66565b6301e13380820191505b8080600101915050610c30565b610c7b611a78565b601f816000600c8110610c8a57fe5b602002019060ff16908160ff1681525050610ca489610f71565b15610cce57601d816001600c8110610cb857fe5b602002019060ff16908160ff1681525050610cef565b601c816001600c8110610cdd57fe5b602002019060ff16908160ff16815250505b601f816002600c8110610cfe57fe5b602002019060ff16908160ff1681525050601e816003600c8110610d1e57fe5b602002019060ff16908160ff1681525050601f816004600c8110610d3e57fe5b602002019060ff16908160ff1681525050601e816005600c8110610d5e57fe5b602002019060ff16908160ff1681525050601f816006600c8110610d7e57fe5b602002019060ff16908160ff1681525050601f816007600c8110610d9e57fe5b602002019060ff16908160ff1681525050601e816008600c8110610dbe57fe5b602002019060ff16908160ff1681525050601f816009600c8110610dde57fe5b602002019060ff16908160ff1681525050601e81600a600c8110610dfe57fe5b602002019060ff16908160ff1681525050601f81600b600c8110610e1e57fe5b602002019060ff16908160ff1681525050600191505b8760ff168261ffff161015610e7457806001830361ffff16600c8110610e5657fe5b602002015160ff166201518002830192508180600101925050610e34565b6001870360ff166201518002830192508560ff16610e1002830192508460ff16603c02830192508360ff168301925082925050509695505050505050565b600080600090506000806301e133808581610ec957fe5b046107b261ffff16019150610ee36107b261ffff1661111c565b610ef08361ffff1661111c565b039050806301e285000283019250806107b2830361ffff16036301e1338002830192505b84831115610f5057610f2860018303610f71565b15610f3b576301e2850083039250610f45565b6301e13380830392505b600182039150610f14565b819350505050919050565b6000610f6682611882565b602001519050919050565b60008060048361ffff1681610f8257fe5b0661ffff1614610f955760009050610fe1565b600060648361ffff1681610fa557fe5b0661ffff1614610fb85760019050610fe1565b60006101908361ffff1681610fc957fe5b0661ffff1614610fdc5760009050610fe1565b600190505b919050565b6000600a60003373ffffffffffffffffffffffffffffffffffffffff1673ffffffffffffffffffffffffffffffffffffffff16815260200190815260200160002060009054906101000a900460000b60000b13611078576040517f08c379a000000000000000000000000000000000000000000000000000000000815260040161106f90612501565b60405180910390fd5b60008160000b136110be576040517f08c379a00000000000000000000000000000000000000000000000000000000081526004016110b5906124a1565b60405180910390fd5b80600a60003373ffffffffffffffffffffffffffffffffffffffff1673ffffffffffffffffffffffffffffffffffffffff16815260200190815260200160002060006101000a81548160ff021916908360000b60ff16021790555050565b6000600182039150610190828161112f57fe5b046064838161113a57fe5b046004848161114557fe5b0403019050919050565b600060018360ff161480611166575060038360ff16145b80611174575060058360ff16145b80611182575060078360ff16145b80611190575060088360ff16145b8061119e5750600a8360ff16145b806111ac5750600c8360ff16145b156111ba57601f9050611215565b60048360ff1614806111cf575060068360ff16145b806111dd575060098360ff16145b806111eb5750600b8360ff16145b156111f957601e9050611215565b61120282610f71565b1561121057601d9050611215565b601c90505b92915050565b6000806000611228611a9b565b61123185611882565b90508060400151816020015182600001518260ff1692508160ff169150935093509350509193909250565b600560009054906101000a900473ffffffffffffffffffffffffffffffffffffffff1681565b600160009054906101000a900473ffffffffffffffffffffffffffffffffffffffff1681565b60076020528060005260406000206000915090505481565b600b6020528060005260406000206000915090505481565b6000603c8083816112e557fe5b04816112ed57fe5b069050919050565b600660009054906101000a900473ffffffffffffffffffffffffffffffffffffffff1673ffffffffffffffffffffffffffffffffffffffff163373ffffffffffffffffffffffffffffffffffffffff1614611385576040517f08c379a000000000000000000000000000000000000000000000000000000000815260040161137c90612521565b60405180910390fd5b6000600b6000600a60008773ffffffffffffffffffffffffffffffffffffffff1673ffffffffffffffffffffffffffffffffffffffff16815260200190815260200160002060009054906101000a900460000b60000b60000b815260200190815260200160002054905060006114be826000809054906101000a900473ffffffffffffffffffffffffffffffffffffffff1673ffffffffffffffffffffffffffffffffffffffff166350ccf36b6040518163ffffffff167c010000000000000000000000000000000000000000000000000000000002815260040160206040518083038186803b15801561147857600080fd5b505afa15801561148c573d6000803e3d6000fd5b505050506040513d601f19601f820116820180604052506114b09190810190612002565b611a1f90919063ffffffff16565b90506114c8611a9b565b6114d142611882565b905060006115cf85600c60008b7dffffffffffffffffffffffffffffffffffffffffffffffffffffffffffff19167dffffffffffffffffffffffffffffffffffffffffffffffffffffffffffff1916815260200190815260200160002060008a73ffffffffffffffffffffffffffffffffffffffff1673ffffffffffffffffffffffffffffffffffffffff1681526020019081526020016000206000856040015160ff1661ffff1681526020019081526020016000206000856020015160ff1661ffff1681526020019081526020016000206000856000015161ffff1661ffff16815260200190815260200160002054611a5990919063ffffffff16565b905082811115611614576040517f08c379a000000000000000000000000000000000000000000000000000000000815260040161160b906124c1565b60405180910390fd5b80600c60008a7dffffffffffffffffffffffffffffffffffffffffffffffffffffffffffff19167dffffffffffffffffffffffffffffffffffffffffffffffffffffffffffff1916815260200190815260200160002060008973ffffffffffffffffffffffffffffffffffffffff1673ffffffffffffffffffffffffffffffffffffffff1681526020019081526020016000206000846040015160ff1661ffff1681526020019081526020016000206000846020015160ff1661ffff1681526020019081526020016000206000846000015161ffff1661ffff1681526020019081526020016000208190555061175285600760008973ffffffffffffffffffffffffffffffffffffffff1673ffffffffffffffffffffffffffffffffffffffff16815260200190815260200160002054611a5990919063ffffffff16565b600760008873ffffffffffffffffffffffffffffffffffffffff1673ffffffffffffffffffffffffffffffffffffffff168152602001908152602001600020819055506117e785600860008a73ffffffffffffffffffffffffffffffffffffffff1673ffffffffffffffffffffffffffffffffffffffff16815260200190815260200160002054611a5990919063ffffffff16565b600860008973ffffffffffffffffffffffffffffffffffffffff1673ffffffffffffffffffffffffffffffffffffffff168152602001908152602001600020819055506001600960008973ffffffffffffffffffffffffffffffffffffffff1673ffffffffffffffffffffffffffffffffffffffff168152602001908152602001600020600082825401925050819055505050505050505050565b61188a611a9b565b600080905060008061189b85610eb2565b846000019061ffff16908161ffff16815250506118bd6107b261ffff1661111c565b6118ce856000015161ffff1661111c565b039150816301e285000283019250816107b285600001510361ffff16036301e1338002830192506000600191505b600c8260ff16116119525761191582866000015161114f565b60ff16620151800290508584820111156119405781856020019060ff16908160ff1681525050611952565b808401935081806001019250506118fc565b600191505b6119698560200151866000015161114f565b60ff168260ff16116119ae578584620151800111156119995781856040019060ff16908160ff16815250506119ae565b62015180840193508180600101925050611957565b6119b7866107fd565b856060019060ff16908160ff16815250506119d1866112d8565b856080019060ff16908160ff16815250506119eb86610bf8565b8560a0019060ff16908160ff1681525050611a058661099e565b8560c0019060ff16908160ff168152505050505050919050565b600080831415611a325760009050611a53565b6000828402905082848281611a4357fe5b0414611a4e57600080fd5b809150505b92915050565b600080828401905083811015611a6e57600080fd5b8091505092915050565b604051806101800160405280600c90602082028038833980820191505090505090565b6040518060e00160405280600061ffff168152602001600060ff168152602001600060ff168152602001600060ff168152602001600060ff168152602001600060ff168152602001600060ff1681525090565b600081359050611afd816127eb565b92915050565b600081519050611b12816127eb565b92915050565b600082601f830112611b2957600080fd5b8151611b3c611b37826125f6565b6125c9565b91508181835260208401935060208101905083856060840282011115611b6157600080fd5b60005b83811015611b915781611b778882611bef565b845260208401935060608301925050600181019050611b64565b5050505092915050565b600081519050611baa81612802565b92915050565b600081359050611bbf81612819565b92915050565b600081359050611bd481612830565b92915050565b600081519050611be981612830565b92915050565b600060608284031215611c0157600080fd5b611c0b60606125c9565b90506000611c1b84828501611b03565b6000830152506020611c2f84828501611bda565b6020830152506040611c4384828501611c79565b60408301525092915050565b600081359050611c5e81612847565b92915050565b600081359050611c738161285e565b92915050565b600081519050611c888161285e565b92915050565b600081359050611c9d81612875565b92915050565b600060208284031215611cb557600080fd5b6000611cc384828501611aee565b91505092915050565b60008060408385031215611cdf57600080fd5b6000611ced85828601611aee565b9250506020611cfe85828601611bc5565b9150509250929050565b600060208284031215611d1a57600080fd5b600082015167ffffffffffffffff811115611d3457600080fd5b611d4084828501611b18565b91505092915050565b600060208284031215611d5b57600080fd5b6000611d6984828501611b9b565b91505092915050565b60008060008060808587031215611d8857600080fd5b6000611d9687828801611bb0565b9450506020611da787828801611aee565b9350506040611db887828801611aee565b9250506060611dc987828801611c64565b91505092959194509250565b600060208284031215611de757600080fd5b6000611df584828501611bc5565b91505092915050565b600060208284031215611e1057600080fd5b6000611e1e84828501611c4f565b91505092915050565b600080600060608486031215611e3c57600080fd5b6000611e4a86828701611c4f565b9350506020611e5b86828701611c8e565b9250506040611e6c86828701611c8e565b9150509250925092565b60008060008060808587031215611e8c57600080fd5b6000611e9a87828801611c4f565b9450506020611eab87828801611c8e565b9350506040611ebc87828801611c8e565b9250506060611ecd87828801611c8e565b91505092959194509250565b600080600080600060a08688031215611ef157600080fd5b6000611eff88828901611c4f565b9550506020611f1088828901611c8e565b9450506040611f2188828901611c8e565b9350506060611f3288828901611c8e565b9250506080611f4388828901611c8e565b9150509295509295909350565b60008060008060008060c08789031215611f6957600080fd5b6000611f7789828a01611c4f565b9650506020611f8889828a01611c8e565b9550506040611f9989828a01611c8e565b9450506060611faa89828a01611c8e565b9350506080611fbb89828a01611c8e565b92505060a0611fcc89828a01611c8e565b9150509295509295509295565b600060208284031215611feb57600080fd5b6000611ff984828501611c64565b91505092915050565b60006020828403121561201457600080fd5b600061202284828501611c79565b91505092915050565b6000806040838503121561203e57600080fd5b600061204c85828601611c8e565b925050602061205d85828601611c4f565b9150509250929050565b6000612073838361230e565b60608301905092915050565b61208881612701565b82525050565b61209781612665565b82525050565b6120a681612665565b82525050565b60006120b78261262b565b6120c18185612643565b93506120cc8361261e565b8060005b838110156120fd5781516120e48882612067565b97506120ef83612636565b9250506001810190506120d0565b5085935050505092915050565b61211381612677565b82525050565b61212281612713565b82525050565b61213181612737565b82525050565b6121408161275b565b82525050565b61214f8161277f565b82525050565b61215e816127a3565b82525050565b61216d816126af565b82525050565b61217c816126af565b82525050565b600061218f601d83612654565b91507f746965722073686f756c642062652067726561746572207468616e20300000006000830152602082019050919050565b60006121cf601983612654565b91507f6578636565646564206461696c792073656c6c206c696d6974000000000000006000830152602082019050919050565b600061220f601983612654565b91507f63616e206f6e6c792062652063616c6c65642062792043454f000000000000006000830152602082019050919050565b600061224f602683612654565b91507f63616e206f6e6c792062652063616c6c656420627920616e206578697374696e60008301527f67207573657200000000000000000000000000000000000000000000000000006020830152604082019050919050565b60006122b5602183612654565b91507f63616e206f6e6c792062652063616c6c6564206279207a6f6e65466163746f7260008301527f79000000000000000000000000000000000000000000000000000000000000006020830152604082019050919050565b606082016000820151612324600085018261208e565b5060208201516123376020850182612164565b50604082015161234a604085018261235f565b50505050565b612359816126bc565b82525050565b612368816126ea565b82525050565b612377816126ea565b82525050565b612386816126f4565b82525050565b60006020820190506123a1600083018461209d565b92915050565b60006020820190506123bc600083018461207f565b92915050565b600060208201905081810360008301526123dc81846120ac565b905092915050565b60006020820190506123f9600083018461210a565b92915050565b60006020820190506124146000830184612119565b92915050565b600060208201905061242f6000830184612128565b92915050565b600060208201905061244a6000830184612137565b92915050565b60006020820190506124656000830184612146565b92915050565b60006020820190506124806000830184612155565b92915050565b600060208201905061249b6000830184612173565b92915050565b600060208201905081810360008301526124ba81612182565b9050919050565b600060208201905081810360008301526124da816121c2565b9050919050565b600060208201905081810360008301526124fa81612202565b9050919050565b6000602082019050818103600083015261251a81612242565b9050919050565b6000602082019050818103600083015261253a816122a8565b9050919050565b60006020820190506125566000830184612350565b92915050565b60006060820190506125716000830186612350565b61257e6020830185612350565b61258b6040830184612350565b949350505050565b60006020820190506125a8600083018461236e565b92915050565b60006020820190506125c3600083018461237d565b92915050565b6000604051905081810181811067ffffffffffffffff821117156125ec57600080fd5b8060405250919050565b600067ffffffffffffffff82111561260d57600080fd5b602082029050602081019050919050565b6000602082019050919050565b600081519050919050565b6000602082019050919050565b600082825260208201905092915050565b600082825260208201905092915050565b6000612670826126ca565b9050919050565b60008115159050919050565b60007fffff00000000000000000000000000000000000000000000000000000000000082169050919050565b60008160000b9050919050565b600061ffff82169050919050565b600073ffffffffffffffffffffffffffffffffffffffff82169050919050565b6000819050919050565b600060ff82169050919050565b600061270c826127c7565b9050919050565b600061271e82612725565b9050919050565b6000612730826126ca565b9050919050565b600061274282612749565b9050919050565b6000612754826126ca565b9050919050565b60006127668261276d565b9050919050565b6000612778826126ca565b9050919050565b600061278a82612791565b9050919050565b600061279c826126ca565b9050919050565b60006127ae826127b5565b9050919050565b60006127c0826126ca565b9050919050565b60006127d2826127d9565b9050919050565b60006127e4826126ca565b9050919050565b6127f481612665565b81146127ff57600080fd5b50565b61280b81612677565b811461281657600080fd5b50565b61282281612683565b811461282d57600080fd5b50565b612839816126af565b811461284457600080fd5b50565b612850816126bc565b811461285b57600080fd5b50565b612867816126ea565b811461287257600080fd5b50565b61287e816126f4565b811461288957600080fd5b5056fea265627a7a7230582024f0026ff9290f0852d8b65b108470b6cddc8a359145f60e2dde67fbc5fc91fe6c6578706572696d656e74616cf50037",
  "source": "pragma solidity ^0.5.8;\npragma experimental ABIEncoderV2;\n\nimport \"openzeppelin-solidity/contracts/math/SafeMath.sol\";\n\nimport \"../datetime/DateTime.sol\";\n\nimport \"../interfaces/IExchangeRateOracle.sol\";\nimport \"../interfaces/ICertifier.sol\";\nimport \"../interfaces/IGeoRegistry.sol\";\nimport \"../interfaces/IControl.sol\";\nimport \"../interfaces/ICertifierRegistry.sol\";\n\ncontract Users is DateTime {\n  // ------------------------------------------------\n  //\n  // Library init\n  //\n  // ------------------------------------------------\n\n  using SafeMath for uint;\n\n  // ------------------------------------------------\n  //\n  // Variables Public\n  //\n  // ------------------------------------------------\n\n  IExchangeRateOracle public priceOracle;\n  IGeoRegistry public geo;\n  ICertifier public smsCertifier;\n  ICertifier public kycCertifier;\n  ICertifierRegistry public certifierRegistry;\n  IControl public control;\n\n\n  address public zoneFactoryAddress;\n\n  mapping(address => uint) public volumeBuy;\n  mapping(address => uint) public volumeSell;\n  mapping(address => uint) public nbTrade;\n\n  mapping(address => int8) public userTiers;\n  mapping(int8 => uint) public tierDailyLimit;\n\n  // per country, per user, per day, keep track of amount of eth sold (since we have max limits per country)\n  //\n  //      country           user               day               month             year      weiSold\n  mapping(bytes2 => mapping(address => mapping(uint16 => mapping(uint16 => mapping(uint16 => uint256))))) ethSellsUserToday;\n\n  // ------------------------------------------------\n  //\n  // Constructor\n  //\n  // ------------------------------------------------\n\n  constructor(address _priceOracle, address _geo, address _smsCertifier, address _kycCertifier, address _control, address _certifierRegistry)\n    public\n  {\n    priceOracle = IExchangeRateOracle(_priceOracle);\n    geo = IGeoRegistry(_geo);\n    smsCertifier = ICertifier(_smsCertifier);\n    kycCertifier = ICertifier(_kycCertifier);\n    certifierRegistry = ICertifierRegistry(_certifierRegistry);\n    control = IControl(_control);\n    tierDailyLimit[1] = 1000;\n    tierDailyLimit[2] = 10000;\n    tierDailyLimit[3] = 1000000;\n  }\n\n  // ------------------------------------------------\n  //\n  // Functions Setters\n  //\n  // ------------------------------------------------\n\n  function setZoneFactory(address _zoneFactory)\n    external\n  {\n    require(control.isCEO(msg.sender), \"can only be called by CEO\");\n    zoneFactoryAddress = _zoneFactory;\n  }\n\n  function setUserTier(address _who, int8 _num) \n    external\n  {\n    require(msg.sender == zoneFactoryAddress, \"can only be called by zoneFactory\");\n    userTiers[_who] = _num;\n  }\n\n  function modifyUserTier(int8 _num) \n    public\n  {\n    require(userTiers[msg.sender] > 0, \"can only be called by an existing user\");\n    require(_num > 0, \"tier should be greater than 0\");\n    userTiers[msg.sender] = _num;\n  }\n\n  function updateDailySold(bytes2 _countryCode, address _from, address _to, uint _amount)\n    external\n  {\n    require(msg.sender == zoneFactoryAddress, \"can only be called by zoneFactory\");\n\n    // if country code or user does not exist, we get back 0\n    // uint sellDailyLimitUsd = geo.countryTierDailyLimit(_countryCode, getUserTier(_from));\n\n    uint sellDailyLimitUsd = tierDailyLimit[userTiers[_from]];\n    uint sellDailyLimitEth = priceOracle.getWeiPriceOneUsd().mul(sellDailyLimitUsd);\n    _DateTime memory dateNow = parseTimestamp(block.timestamp);\n    uint newSoldTodayEth = ethSellsUserToday[_countryCode][_from][dateNow.day][dateNow.month][dateNow.year].add(_amount);\n    require(newSoldTodayEth <= sellDailyLimitEth, \"exceeded daily sell limit\");\n    ethSellsUserToday[_countryCode][_from][dateNow.day][dateNow.month][dateNow.year] = newSoldTodayEth;\n\n    volumeBuy[_to] = volumeBuy[_to].add(_amount);\n    volumeSell[_from] = volumeSell[_from].add(_amount);\n    nbTrade[_from] += 1;\n  }\n\n  // ------------------------------------------------\n  //\n  // Functions Getters\n  //\n  // ------------------------------------------------\n\n  // function getUserTier(address _who)\n  //   public\n  //   view\n  //   returns (uint)\n  // {\n  //   // foundTier = 0;\n  //   // if (kycCertifier.certified(_who)) foundTier = 2;\n  //   // else if (smsCertifier.certified(_who)) foundTier = 1;\n  //   return userTiers[_who];\n  // }\n  function getCertifications(address _who)\n    external view\n    returns ( ICertifierRegistry.Certification[] memory)\n    {\n      return certifierRegistry.getCerts(_who);\n    }\n  function getDateInfo(uint timestamp)\n    external\n    pure\n    returns (uint16, uint16, uint16)\n  {\n    _DateTime memory date = parseTimestamp(timestamp);\n    return (date.day, date.month, date.year);\n  }\n}",
  "sourcePath": "/Users/mehdi/code/dether/contractV2/contracts/core/Users.sol",
  "compiler": {
    "name": "solc",
    "version": "0.5.8+commit.23d335f2.Emscripten.clang"
  },
  "schemaVersion": "3.0.11",
  "updatedAt": "2019-07-02T13:21:08.620Z",
  "devdoc": {
    "methods": {}
  },
  "userdoc": {
    "methods": {}
  }
}