{
  "contractName": "Users",
  "abi": [
    {
      "constant": true,
      "inputs": [],
      "name": "zoneFactoryAddress",
      "outputs": [
        {
          "name": "",
          "type": "address"
        }
      ],
      "payable": false,
      "stateMutability": "view",
      "type": "function"
    },
    {
      "constant": true,
      "inputs": [],
      "name": "kycCertifier",
      "outputs": [
        {
          "name": "",
          "type": "address"
        }
      ],
      "payable": false,
      "stateMutability": "view",
      "type": "function"
    },
    {
      "constant": true,
      "inputs": [
        {
          "name": "",
          "type": "address"
        }
      ],
      "name": "userTiers",
      "outputs": [
        {
          "name": "",
          "type": "int8"
        }
      ],
      "payable": false,
      "stateMutability": "view",
      "type": "function"
    },
    {
      "constant": true,
      "inputs": [],
      "name": "priceOracle",
      "outputs": [
        {
          "name": "",
          "type": "address"
        }
      ],
      "payable": false,
      "stateMutability": "view",
      "type": "function"
    },
    {
      "constant": true,
      "inputs": [],
      "name": "smsCertifier",
      "outputs": [
        {
          "name": "",
          "type": "address"
        }
      ],
      "payable": false,
      "stateMutability": "view",
      "type": "function"
    },
    {
      "constant": true,
      "inputs": [
        {
          "name": "timestamp",
          "type": "uint256"
        }
      ],
      "name": "getHour",
      "outputs": [
        {
          "name": "",
          "type": "uint8"
        }
      ],
      "payable": false,
      "stateMutability": "pure",
      "type": "function"
    },
    {
      "constant": true,
      "inputs": [
        {
          "name": "",
          "type": "address"
        }
      ],
      "name": "volumeSell",
      "outputs": [
        {
          "name": "",
          "type": "uint256"
        }
      ],
      "payable": false,
      "stateMutability": "view",
      "type": "function"
    },
    {
      "constant": true,
      "inputs": [
        {
          "name": "",
          "type": "address"
        }
      ],
      "name": "nbTrade",
      "outputs": [
        {
          "name": "",
          "type": "uint256"
        }
      ],
      "payable": false,
      "stateMutability": "view",
      "type": "function"
    },
    {
      "constant": true,
      "inputs": [
        {
          "name": "timestamp",
          "type": "uint256"
        }
      ],
      "name": "getWeekday",
      "outputs": [
        {
          "name": "",
          "type": "uint8"
        }
      ],
      "payable": false,
      "stateMutability": "pure",
      "type": "function"
    },
    {
      "constant": true,
      "inputs": [],
      "name": "certifierRegistry",
      "outputs": [
        {
          "name": "",
          "type": "address"
        }
      ],
      "payable": false,
      "stateMutability": "view",
      "type": "function"
    },
    {
      "constant": true,
      "inputs": [
        {
          "name": "year",
          "type": "uint16"
        },
        {
          "name": "month",
          "type": "uint8"
        },
        {
          "name": "day",
          "type": "uint8"
        },
        {
          "name": "hour",
          "type": "uint8"
        },
        {
          "name": "minute",
          "type": "uint8"
        }
      ],
      "name": "toTimestamp",
      "outputs": [
        {
          "name": "timestamp",
          "type": "uint256"
        }
      ],
      "payable": false,
      "stateMutability": "pure",
      "type": "function"
    },
    {
      "constant": true,
      "inputs": [
        {
          "name": "timestamp",
          "type": "uint256"
        }
      ],
      "name": "getDay",
      "outputs": [
        {
          "name": "",
          "type": "uint8"
        }
      ],
      "payable": false,
      "stateMutability": "pure",
      "type": "function"
    },
    {
      "constant": true,
      "inputs": [
        {
          "name": "year",
          "type": "uint16"
        },
        {
          "name": "month",
          "type": "uint8"
        },
        {
          "name": "day",
          "type": "uint8"
        },
        {
          "name": "hour",
          "type": "uint8"
        }
      ],
      "name": "toTimestamp",
      "outputs": [
        {
          "name": "timestamp",
          "type": "uint256"
        }
      ],
      "payable": false,
      "stateMutability": "pure",
      "type": "function"
    },
    {
      "constant": true,
      "inputs": [
        {
          "name": "timestamp",
          "type": "uint256"
        }
      ],
      "name": "getSecond",
      "outputs": [
        {
          "name": "",
          "type": "uint8"
        }
      ],
      "payable": false,
      "stateMutability": "pure",
      "type": "function"
    },
    {
      "constant": true,
      "inputs": [
        {
          "name": "year",
          "type": "uint16"
        },
        {
          "name": "month",
          "type": "uint8"
        },
        {
          "name": "day",
          "type": "uint8"
        }
      ],
      "name": "toTimestamp",
      "outputs": [
        {
          "name": "timestamp",
          "type": "uint256"
        }
      ],
      "payable": false,
      "stateMutability": "pure",
      "type": "function"
    },
    {
      "constant": true,
      "inputs": [
        {
          "name": "year",
          "type": "uint16"
        },
        {
          "name": "month",
          "type": "uint8"
        },
        {
          "name": "day",
          "type": "uint8"
        },
        {
          "name": "hour",
          "type": "uint8"
        },
        {
          "name": "minute",
          "type": "uint8"
        },
        {
          "name": "second",
          "type": "uint8"
        }
      ],
      "name": "toTimestamp",
      "outputs": [
        {
          "name": "timestamp",
          "type": "uint256"
        }
      ],
      "payable": false,
      "stateMutability": "pure",
      "type": "function"
    },
    {
      "constant": true,
      "inputs": [
        {
          "name": "timestamp",
          "type": "uint256"
        }
      ],
      "name": "getYear",
      "outputs": [
        {
          "name": "",
          "type": "uint16"
        }
      ],
      "payable": false,
      "stateMutability": "pure",
      "type": "function"
    },
    {
      "constant": true,
      "inputs": [
        {
          "name": "timestamp",
          "type": "uint256"
        }
      ],
      "name": "getMonth",
      "outputs": [
        {
          "name": "",
          "type": "uint8"
        }
      ],
      "payable": false,
      "stateMutability": "pure",
      "type": "function"
    },
    {
      "constant": true,
      "inputs": [
        {
          "name": "year",
          "type": "uint16"
        }
      ],
      "name": "isLeapYear",
      "outputs": [
        {
          "name": "",
          "type": "bool"
        }
      ],
      "payable": false,
      "stateMutability": "pure",
      "type": "function"
    },
    {
      "constant": true,
      "inputs": [
        {
          "name": "year",
          "type": "uint256"
        }
      ],
      "name": "leapYearsBefore",
      "outputs": [
        {
          "name": "",
          "type": "uint256"
        }
      ],
      "payable": false,
      "stateMutability": "pure",
      "type": "function"
    },
    {
      "constant": true,
      "inputs": [
        {
          "name": "month",
          "type": "uint8"
        },
        {
          "name": "year",
          "type": "uint16"
        }
      ],
      "name": "getDaysInMonth",
      "outputs": [
        {
          "name": "",
          "type": "uint8"
        }
      ],
      "payable": false,
      "stateMutability": "pure",
      "type": "function"
    },
    {
      "constant": true,
      "inputs": [],
      "name": "geo",
      "outputs": [
        {
          "name": "",
          "type": "address"
        }
      ],
      "payable": false,
      "stateMutability": "view",
      "type": "function"
    },
    {
      "constant": true,
      "inputs": [
        {
          "name": "",
          "type": "address"
        }
      ],
      "name": "volumeBuy",
      "outputs": [
        {
          "name": "",
          "type": "uint256"
        }
      ],
      "payable": false,
      "stateMutability": "view",
      "type": "function"
    },
    {
      "constant": true,
      "inputs": [
        {
          "name": "",
          "type": "int8"
        }
      ],
      "name": "tierDailyLimit",
      "outputs": [
        {
          "name": "",
          "type": "uint256"
        }
      ],
      "payable": false,
      "stateMutability": "view",
      "type": "function"
    },
    {
      "constant": true,
      "inputs": [
        {
          "name": "timestamp",
          "type": "uint256"
        }
      ],
      "name": "getMinute",
      "outputs": [
        {
          "name": "",
          "type": "uint8"
        }
      ],
      "payable": false,
      "stateMutability": "pure",
      "type": "function"
    },
    {
      "inputs": [
        {
          "name": "_priceOracle",
          "type": "address"
        },
        {
          "name": "_geo",
          "type": "address"
        },
        {
          "name": "_smsCertifier",
          "type": "address"
        },
        {
          "name": "_kycCertifier",
          "type": "address"
        },
        {
          "name": "_certifierRegistry",
          "type": "address"
        }
      ],
      "payable": false,
      "stateMutability": "nonpayable",
      "type": "constructor"
    },
    {
      "constant": false,
      "inputs": [
        {
          "name": "_who",
          "type": "address"
        },
        {
          "name": "_num",
          "type": "int8"
        }
      ],
      "name": "setUserTier",
      "outputs": [],
      "payable": false,
      "stateMutability": "nonpayable",
      "type": "function"
    },
    {
      "constant": false,
      "inputs": [
        {
          "name": "_num",
          "type": "int8"
        }
      ],
      "name": "modifyUserTier",
      "outputs": [],
      "payable": false,
      "stateMutability": "nonpayable",
      "type": "function"
    },
    {
      "constant": false,
      "inputs": [
        {
          "name": "_countryCode",
          "type": "bytes2"
        },
        {
          "name": "_from",
          "type": "address"
        },
        {
          "name": "_to",
          "type": "address"
        },
        {
          "name": "_amount",
          "type": "uint256"
        }
      ],
      "name": "updateDailySold",
      "outputs": [],
      "payable": false,
      "stateMutability": "nonpayable",
      "type": "function"
    },
    {
      "constant": true,
      "inputs": [
        {
          "name": "_who",
          "type": "address"
        }
      ],
      "name": "getCertifications",
      "outputs": [
        {
          "components": [
            {
              "name": "certifier",
              "type": "address"
            },
            {
              "name": "ref",
              "type": "int8"
            },
            {
              "name": "timestamp",
              "type": "uint256"
            }
          ],
          "name": "",
          "type": "tuple[]"
        }
      ],
      "payable": false,
      "stateMutability": "view",
      "type": "function"
    },
    {
      "constant": true,
      "inputs": [
        {
          "name": "timestamp",
          "type": "uint256"
        }
      ],
      "name": "getDateInfo",
      "outputs": [
        {
          "name": "",
          "type": "uint16"
        },
        {
          "name": "",
          "type": "uint16"
        },
        {
          "name": "",
          "type": "uint16"
        }
      ],
      "payable": false,
      "stateMutability": "pure",
      "type": "function"
    }
  ],
  "bytecode": "0x60806040523480156200001157600080fd5b5060405160a080620028228339810180604052620000339190810190620001f4565b846000806101000a81548173ffffffffffffffffffffffffffffffffffffffff021916908373ffffffffffffffffffffffffffffffffffffffff16021790555083600160006101000a81548173ffffffffffffffffffffffffffffffffffffffff021916908373ffffffffffffffffffffffffffffffffffffffff16021790555082600260006101000a81548173ffffffffffffffffffffffffffffffffffffffff021916908373ffffffffffffffffffffffffffffffffffffffff16021790555081600360006101000a81548173ffffffffffffffffffffffffffffffffffffffff021916908373ffffffffffffffffffffffffffffffffffffffff16021790555080600460006101000a81548173ffffffffffffffffffffffffffffffffffffffff021916908373ffffffffffffffffffffffffffffffffffffffff1602179055506103e8600a6000600160000b815260200190815260200160002081905550612710600a6000600260000b815260200190815260200160002081905550620f4240600a6000600360000b8152602001908152602001600020819055505050505050620002c4565b600081519050620001ee81620002aa565b92915050565b600080600080600060a086880312156200020d57600080fd5b60006200021d88828901620001dd565b95505060206200023088828901620001dd565b94505060406200024388828901620001dd565b93505060606200025688828901620001dd565b92505060806200026988828901620001dd565b9150509295509295909350565b600062000283826200028a565b9050919050565b600073ffffffffffffffffffffffffffffffffffffffff82169050919050565b620002b58162000276565b8114620002c157600080fd5b50565b61254e80620002d46000396000f3fe608060405234801561001057600080fd5b50600436106101da5760003560e01c80638aa001fc11610104578063b1999937116100a2578063dc2de4fa11610071578063dc2de4fa1461062d578063eb6bc9611461065d578063fa93f8831461068d578063fb89df53146106bd576101da565b8063b19999371461057d578063b238ad0e146105ad578063c34c6b93146105dd578063d944e6a31461060f576101da565b806392d66313116100de57806392d66313146104d1578063a324ad2414610501578063a6f0e57714610531578063aec4f99414610561576101da565b80638aa001fc146104415780638c8d98a0146104715780639054bdec146104a1576101da565b8063475e46541161017c57806365c728401161014b57806365c7284014610395578063677cc291146103c55780637f791833146103f5578063894e3c2914610425576101da565b8063475e4654146102e75780634ac1ad78146103175780635b6ba8cc1461034757806362ba968714610365576101da565b80632630c12f116101b85780632630c12f1461024b57806330a55316146102695780633e239e1a1461028757806341d0d30f146102b7576101da565b806303c77f24146101df5780630d46f91a146101fd57806324063c821461021b575b600080fd5b6101e76106d9565b6040516101f491906120db565b60405180910390f35b6102056106ff565b604051610212919061214e565b60405180910390f35b61023560048036036102309190810190611a79565b610725565b604051610242919061219f565b60405180910390f35b610253610745565b6040516102609190612169565b60405180910390f35b61027161076a565b60405161027e919061214e565b60405180910390f35b6102a1600480360361029c9190810190611d86565b610790565b6040516102ae91906122a7565b60405180910390f35b6102d160048036036102cc9190810190611a79565b6107b7565b6040516102de919061228c565b60405180910390f35b61030160048036036102fc9190810190611a79565b6107cf565b60405161030e919061228c565b60405180910390f35b610331600480360361032c9190810190611d86565b6107e7565b60405161033e91906122a7565b60405180910390f35b61034f61080a565b60405161035c9190612133565b60405180910390f35b61037f600480360361037a9190810190611c86565b610830565b60405161038c919061228c565b60405180910390f35b6103af60048036036103aa9190810190611d86565b61084c565b6040516103bc91906122a7565b60405180910390f35b6103df60048036036103da9190810190611a79565b610862565b6040516103ec91906120f6565b60405180910390f35b61040f600480360361040a9190810190611c23565b61091b565b60405161041c919061228c565b60405180910390f35b61043f600480360361043a9190810190611aa2565b610936565b005b61045b60048036036104569190810190611d86565b610a25565b60405161046891906122a7565b60405180910390f35b61048b60048036036104869190810190611bd4565b610a39565b604051610498919061228c565b60405180910390f35b6104bb60048036036104b69190810190611cfd565b610a54565b6040516104c8919061228c565b60405180910390f35b6104eb60048036036104e69190810190611d86565b610cdf565b6040516104f8919061223a565b60405180910390f35b61051b60048036036105169190810190611d86565b610d88565b60405161052891906122a7565b60405180910390f35b61054b60048036036105469190810190611bab565b610d9e565b6040516105589190612118565b60405180910390f35b61057b60048036036105769190810190611b82565b610e13565b005b61059760048036036105929190810190611d86565b610f49565b6040516105a4919061228c565b60405180910390f35b6105c760048036036105c29190810190611dd8565b610f7c565b6040516105d491906122a7565b60405180910390f35b6105f760048036036105f29190810190611d86565b611048565b60405161060693929190612255565b60405180910390f35b610617611089565b6040516106249190612184565b60405180910390f35b61064760048036036106429190810190611a79565b6110af565b604051610654919061228c565b60405180910390f35b61067760048036036106729190810190611b82565b6110c7565b604051610684919061228c565b60405180910390f35b6106a760048036036106a29190810190611d86565b6110df565b6040516106b491906122a7565b60405180910390f35b6106d760048036036106d29190810190611b1f565b6110fc565b005b600560009054906101000a900473ffffffffffffffffffffffffffffffffffffffff1681565b600360009054906101000a900473ffffffffffffffffffffffffffffffffffffffff1681565b60096020528060005260406000206000915054906101000a900460000b81565b6000809054906101000a900473ffffffffffffffffffffffffffffffffffffffff1681565b600260009054906101000a900473ffffffffffffffffffffffffffffffffffffffff1681565b60006018603c80848161079f57fe5b04816107a757fe5b04816107af57fe5b069050919050565b60076020528060005260406000206000915090505481565b60086020528060005260406000206000915090505481565b6000600760046201518084816107f957fe5b04018161080257fe5b069050919050565b600460009054906101000a900473ffffffffffffffffffffffffffffffffffffffff1681565b600061084186868686866000610a54565b905095945050505050565b60006108578261166d565b604001519050919050565b6060600460009054906101000a900473ffffffffffffffffffffffffffffffffffffffff1673ffffffffffffffffffffffffffffffffffffffff1663d1a7a8fb836040518263ffffffff1660e01b81526004016108bf91906120db565b60006040518083038186803b1580156108d757600080fd5b505afa1580156108eb573d6000803e3d6000fd5b505050506040513d6000823e3d601f19601f820116820180604052506109149190810190611ade565b9050919050565b600061092c85858585600080610a54565b9050949350505050565b600560009054906101000a900473ffffffffffffffffffffffffffffffffffffffff1673ffffffffffffffffffffffffffffffffffffffff163373ffffffffffffffffffffffffffffffffffffffff16146109c6576040517f08c379a00000000000000000000000000000000000000000000000000000000081526004016109bd9061221a565b60405180910390fd5b80600960008473ffffffffffffffffffffffffffffffffffffffff1673ffffffffffffffffffffffffffffffffffffffff16815260200190815260200160002060006101000a81548160ff021916908360000b60ff1602179055505050565b6000603c8281610a3157fe5b069050919050565b6000610a4b8484846000806000610a54565b90509392505050565b6000806107b290505b8761ffff168161ffff161015610aa057610a7681610d9e565b15610a89576301e2850082019150610a93565b6301e13380820191505b8080600101915050610a5d565b610aa8611863565b601f816000600c8110610ab757fe5b602002019060ff16908160ff1681525050610ad189610d9e565b15610afb57601d816001600c8110610ae557fe5b602002019060ff16908160ff1681525050610b1c565b601c816001600c8110610b0a57fe5b602002019060ff16908160ff16815250505b601f816002600c8110610b2b57fe5b602002019060ff16908160ff1681525050601e816003600c8110610b4b57fe5b602002019060ff16908160ff1681525050601f816004600c8110610b6b57fe5b602002019060ff16908160ff1681525050601e816005600c8110610b8b57fe5b602002019060ff16908160ff1681525050601f816006600c8110610bab57fe5b602002019060ff16908160ff1681525050601f816007600c8110610bcb57fe5b602002019060ff16908160ff1681525050601e816008600c8110610beb57fe5b602002019060ff16908160ff1681525050601f816009600c8110610c0b57fe5b602002019060ff16908160ff1681525050601e81600a600c8110610c2b57fe5b602002019060ff16908160ff1681525050601f81600b600c8110610c4b57fe5b602002019060ff16908160ff1681525050600191505b8760ff168261ffff161015610ca157806001830361ffff16600c8110610c8357fe5b602002015160ff166201518002830192508180600101925050610c61565b6001870360ff166201518002830192508560ff16610e1002830192508460ff16603c02830192508360ff168301925082925050509695505050505050565b600080600090506000806301e133808581610cf657fe5b046107b261ffff16019150610d106107b261ffff16610f49565b610d1d8361ffff16610f49565b039050806301e285000283019250806107b2830361ffff16036301e1338002830192505b84831115610d7d57610d5560018303610d9e565b15610d68576301e2850083039250610d72565b6301e13380830392505b600182039150610d41565b819350505050919050565b6000610d938261166d565b602001519050919050565b60008060048361ffff1681610daf57fe5b0661ffff1614610dc25760009050610e0e565b600060648361ffff1681610dd257fe5b0661ffff1614610de55760019050610e0e565b60006101908361ffff1681610df657fe5b0661ffff1614610e095760009050610e0e565b600190505b919050565b6000600960003373ffffffffffffffffffffffffffffffffffffffff1673ffffffffffffffffffffffffffffffffffffffff16815260200190815260200160002060009054906101000a900460000b60000b13610ea5576040517f08c379a0000000000000000000000000000000000000000000000000000000008152600401610e9c906121fa565b60405180910390fd5b60008160000b13610eeb576040517f08c379a0000000000000000000000000000000000000000000000000000000008152600401610ee2906121ba565b60405180910390fd5b80600960003373ffffffffffffffffffffffffffffffffffffffff1673ffffffffffffffffffffffffffffffffffffffff16815260200190815260200160002060006101000a81548160ff021916908360000b60ff16021790555050565b60006001820391506101908281610f5c57fe5b0460648381610f6757fe5b0460048481610f7257fe5b0403019050919050565b600060018360ff161480610f93575060038360ff16145b80610fa1575060058360ff16145b80610faf575060078360ff16145b80610fbd575060088360ff16145b80610fcb5750600a8360ff16145b80610fd95750600c8360ff16145b15610fe757601f9050611042565b60048360ff161480610ffc575060068360ff16145b8061100a575060098360ff16145b806110185750600b8360ff16145b1561102657601e9050611042565b61102f82610d9e565b1561103d57601d9050611042565b601c90505b92915050565b6000806000611055611886565b61105e8561166d565b90508060400151816020015182600001518260ff1692508160ff169150935093509350509193909250565b600160009054906101000a900473ffffffffffffffffffffffffffffffffffffffff1681565b60066020528060005260406000206000915090505481565b600a6020528060005260406000206000915090505481565b6000603c8083816110ec57fe5b04816110f457fe5b069050919050565b600560009054906101000a900473ffffffffffffffffffffffffffffffffffffffff1673ffffffffffffffffffffffffffffffffffffffff163373ffffffffffffffffffffffffffffffffffffffff161461118c576040517f08c379a00000000000000000000000000000000000000000000000000000000081526004016111839061221a565b60405180910390fd5b6000600a6000600960008773ffffffffffffffffffffffffffffffffffffffff1673ffffffffffffffffffffffffffffffffffffffff16815260200190815260200160002060009054906101000a900460000b60000b60000b815260200190815260200160002054905060006112a9826000809054906101000a900473ffffffffffffffffffffffffffffffffffffffff1673ffffffffffffffffffffffffffffffffffffffff166350ccf36b6040518163ffffffff1660e01b815260040160206040518083038186803b15801561126357600080fd5b505afa158015611277573d6000803e3d6000fd5b505050506040513d601f19601f8201168201806040525061129b9190810190611daf565b61180a90919063ffffffff16565b90506112b3611886565b6112bc4261166d565b905060006113ba85600b60008b7dffffffffffffffffffffffffffffffffffffffffffffffffffffffffffff19167dffffffffffffffffffffffffffffffffffffffffffffffffffffffffffff1916815260200190815260200160002060008a73ffffffffffffffffffffffffffffffffffffffff1673ffffffffffffffffffffffffffffffffffffffff1681526020019081526020016000206000856040015160ff1661ffff1681526020019081526020016000206000856020015160ff1661ffff1681526020019081526020016000206000856000015161ffff1661ffff1681526020019081526020016000205461184490919063ffffffff16565b9050828111156113ff576040517f08c379a00000000000000000000000000000000000000000000000000000000081526004016113f6906121da565b60405180910390fd5b80600b60008a7dffffffffffffffffffffffffffffffffffffffffffffffffffffffffffff19167dffffffffffffffffffffffffffffffffffffffffffffffffffffffffffff1916815260200190815260200160002060008973ffffffffffffffffffffffffffffffffffffffff1673ffffffffffffffffffffffffffffffffffffffff1681526020019081526020016000206000846040015160ff1661ffff1681526020019081526020016000206000846020015160ff1661ffff1681526020019081526020016000206000846000015161ffff1661ffff1681526020019081526020016000208190555061153d85600660008973ffffffffffffffffffffffffffffffffffffffff1673ffffffffffffffffffffffffffffffffffffffff1681526020019081526020016000205461184490919063ffffffff16565b600660008873ffffffffffffffffffffffffffffffffffffffff1673ffffffffffffffffffffffffffffffffffffffff168152602001908152602001600020819055506115d285600760008a73ffffffffffffffffffffffffffffffffffffffff1673ffffffffffffffffffffffffffffffffffffffff1681526020019081526020016000205461184490919063ffffffff16565b600760008973ffffffffffffffffffffffffffffffffffffffff1673ffffffffffffffffffffffffffffffffffffffff168152602001908152602001600020819055506001600860008973ffffffffffffffffffffffffffffffffffffffff1673ffffffffffffffffffffffffffffffffffffffff168152602001908152602001600020600082825401925050819055505050505050505050565b611675611886565b600080905060008061168685610cdf565b846000019061ffff16908161ffff16815250506116a86107b261ffff16610f49565b6116b9856000015161ffff16610f49565b039150816301e285000283019250816107b285600001510361ffff16036301e1338002830192506000600191505b600c8260ff161161173d57611700828660000151610f7c565b60ff166201518002905085848201111561172b5781856020019060ff16908160ff168152505061173d565b808401935081806001019250506116e7565b600191505b61175485602001518660000151610f7c565b60ff168260ff1611611799578584620151800111156117845781856040019060ff16908160ff1681525050611799565b62015180840193508180600101925050611742565b6117a286610790565b856060019060ff16908160ff16815250506117bc866110df565b856080019060ff16908160ff16815250506117d686610a25565b8560a0019060ff16908160ff16815250506117f0866107e7565b8560c0019060ff16908160ff168152505050505050919050565b60008083141561181d576000905061183e565b600082840290508284828161182e57fe5b041461183957600080fd5b809150505b92915050565b60008082840190508381101561185957600080fd5b8091505092915050565b604051806101800160405280600c90602082028038833980820191505090505090565b6040518060e00160405280600061ffff168152602001600060ff168152602001600060ff168152602001600060ff168152602001600060ff168152602001600060ff168152602001600060ff1681525090565b6000813590506118e88161248a565b92915050565b6000815190506118fd8161248a565b92915050565b600082601f83011261191457600080fd5b8151611927611922826122ef565b6122c2565b9150818183526020840193506020810190508385606084028201111561194c57600080fd5b60005b8381101561197c578161196288826119c5565b84526020840193506060830192505060018101905061194f565b5050505092915050565b600081359050611995816124a1565b92915050565b6000813590506119aa816124b8565b92915050565b6000815190506119bf816124b8565b92915050565b6000606082840312156119d757600080fd5b6119e160606122c2565b905060006119f1848285016118ee565b6000830152506020611a05848285016119b0565b6020830152506040611a1984828501611a4f565b60408301525092915050565b600081359050611a34816124cf565b92915050565b600081359050611a49816124e6565b92915050565b600081519050611a5e816124e6565b92915050565b600081359050611a73816124fd565b92915050565b600060208284031215611a8b57600080fd5b6000611a99848285016118d9565b91505092915050565b60008060408385031215611ab557600080fd5b6000611ac3858286016118d9565b9250506020611ad48582860161199b565b9150509250929050565b600060208284031215611af057600080fd5b600082015167ffffffffffffffff811115611b0a57600080fd5b611b1684828501611903565b91505092915050565b60008060008060808587031215611b3557600080fd5b6000611b4387828801611986565b9450506020611b54878288016118d9565b9350506040611b65878288016118d9565b9250506060611b7687828801611a3a565b91505092959194509250565b600060208284031215611b9457600080fd5b6000611ba28482850161199b565b91505092915050565b600060208284031215611bbd57600080fd5b6000611bcb84828501611a25565b91505092915050565b600080600060608486031215611be957600080fd5b6000611bf786828701611a25565b9350506020611c0886828701611a64565b9250506040611c1986828701611a64565b9150509250925092565b60008060008060808587031215611c3957600080fd5b6000611c4787828801611a25565b9450506020611c5887828801611a64565b9350506040611c6987828801611a64565b9250506060611c7a87828801611a64565b91505092959194509250565b600080600080600060a08688031215611c9e57600080fd5b6000611cac88828901611a25565b9550506020611cbd88828901611a64565b9450506040611cce88828901611a64565b9350506060611cdf88828901611a64565b9250506080611cf088828901611a64565b9150509295509295909350565b60008060008060008060c08789031215611d1657600080fd5b6000611d2489828a01611a25565b9650506020611d3589828a01611a64565b9550506040611d4689828a01611a64565b9450506060611d5789828a01611a64565b9350506080611d6889828a01611a64565b92505060a0611d7989828a01611a64565b9150509295509295509295565b600060208284031215611d9857600080fd5b6000611da684828501611a3a565b91505092915050565b600060208284031215611dc157600080fd5b6000611dcf84828501611a4f565b91505092915050565b60008060408385031215611deb57600080fd5b6000611df985828601611a64565b9250506020611e0a85828601611a25565b9150509250929050565b6000611e20838361205d565b60608301905092915050565b611e358161235e565b82525050565b611e448161235e565b82525050565b6000611e5582612324565b611e5f818561233c565b9350611e6a83612317565b8060005b83811015611e9b578151611e828882611e14565b9750611e8d8361232f565b925050600181019050611e6e565b5085935050505092915050565b611eb181612370565b82525050565b611ec0816123fa565b82525050565b611ecf8161241e565b82525050565b611ede81612442565b82525050565b611eed81612466565b82525050565b611efc816123a8565b82525050565b611f0b816123a8565b82525050565b6000611f1e601d8361234d565b91507f746965722073686f756c642062652067726561746572207468616e20300000006000830152602082019050919050565b6000611f5e60198361234d565b91507f6578636565646564206461696c792073656c6c206c696d6974000000000000006000830152602082019050919050565b6000611f9e60268361234d565b91507f63616e206f6e6c792062652063616c6c656420627920616e206578697374696e60008301527f67207573657200000000000000000000000000000000000000000000000000006020830152604082019050919050565b600061200460218361234d565b91507f63616e206f6e6c792062652063616c6c6564206279207a6f6e65466163746f7260008301527f79000000000000000000000000000000000000000000000000000000000000006020830152604082019050919050565b6060820160008201516120736000850182611e2c565b5060208201516120866020850182611ef3565b50604082015161209960408501826120ae565b50505050565b6120a8816123b5565b82525050565b6120b7816123e3565b82525050565b6120c6816123e3565b82525050565b6120d5816123ed565b82525050565b60006020820190506120f06000830184611e3b565b92915050565b600060208201905081810360008301526121108184611e4a565b905092915050565b600060208201905061212d6000830184611ea8565b92915050565b60006020820190506121486000830184611eb7565b92915050565b60006020820190506121636000830184611ec6565b92915050565b600060208201905061217e6000830184611ed5565b92915050565b60006020820190506121996000830184611ee4565b92915050565b60006020820190506121b46000830184611f02565b92915050565b600060208201905081810360008301526121d381611f11565b9050919050565b600060208201905081810360008301526121f381611f51565b9050919050565b6000602082019050818103600083015261221381611f91565b9050919050565b6000602082019050818103600083015261223381611ff7565b9050919050565b600060208201905061224f600083018461209f565b92915050565b600060608201905061226a600083018661209f565b612277602083018561209f565b612284604083018461209f565b949350505050565b60006020820190506122a160008301846120bd565b92915050565b60006020820190506122bc60008301846120cc565b92915050565b6000604051905081810181811067ffffffffffffffff821117156122e557600080fd5b8060405250919050565b600067ffffffffffffffff82111561230657600080fd5b602082029050602081019050919050565b6000602082019050919050565b600081519050919050565b6000602082019050919050565b600082825260208201905092915050565b600082825260208201905092915050565b6000612369826123c3565b9050919050565b60008115159050919050565b60007fffff00000000000000000000000000000000000000000000000000000000000082169050919050565b60008160000b9050919050565b600061ffff82169050919050565b600073ffffffffffffffffffffffffffffffffffffffff82169050919050565b6000819050919050565b600060ff82169050919050565b60006124058261240c565b9050919050565b6000612417826123c3565b9050919050565b600061242982612430565b9050919050565b600061243b826123c3565b9050919050565b600061244d82612454565b9050919050565b600061245f826123c3565b9050919050565b600061247182612478565b9050919050565b6000612483826123c3565b9050919050565b6124938161235e565b811461249e57600080fd5b50565b6124aa8161237c565b81146124b557600080fd5b50565b6124c1816123a8565b81146124cc57600080fd5b50565b6124d8816123b5565b81146124e357600080fd5b50565b6124ef816123e3565b81146124fa57600080fd5b50565b612506816123ed565b811461251157600080fd5b5056fea265627a7a7230582017dadb65a2931030c9483d0b5b45234834ee4360cb662f23442ad9fdabeccb096c6578706572696d656e74616cf50037",
  "source": "pragma solidity ^0.5.8;\npragma experimental ABIEncoderV2;\n\nimport \"openzeppelin-solidity/contracts/math/SafeMath.sol\";\n\nimport \"../datetime/DateTime.sol\";\n\nimport \"../interfaces/IExchangeRateOracle.sol\";\nimport \"../interfaces/ICertifier.sol\";\nimport \"../interfaces/IGeoRegistry.sol\";\nimport \"../interfaces/ICertifierRegistry.sol\";\n\ncontract Users is DateTime {\n  // ------------------------------------------------\n  //\n  // Library init\n  //\n  // ------------------------------------------------\n\n  using SafeMath for uint;\n\n  // ------------------------------------------------\n  //\n  // Variables Public\n  //\n  // ------------------------------------------------\n\n  IExchangeRateOracle public priceOracle;\n  IGeoRegistry public geo;\n  ICertifier public smsCertifier;\n  ICertifier public kycCertifier;\n  ICertifierRegistry public certifierRegistry;\n\n\n  address public zoneFactoryAddress;\n\n  mapping(address => uint) public volumeBuy;\n  mapping(address => uint) public volumeSell;\n  mapping(address => uint) public nbTrade;\n\n  mapping(address => int8) public userTiers;\n  mapping(int8 => uint) public tierDailyLimit;\n\n  // per country, per user, per day, keep track of amount of eth sold (since we have max limits per country)\n  //\n  //      country           user               day               month             year      weiSold\n  mapping(bytes2 => mapping(address => mapping(uint16 => mapping(uint16 => mapping(uint16 => uint256))))) ethSellsUserToday;\n\n  // ------------------------------------------------\n  //\n  // Constructor\n  //\n  // ------------------------------------------------\n\n    constructor(address _priceOracle, address _geo, address _smsCertifier, address _kycCertifier, address _certifierRegistry)\n    public\n  {\n    priceOracle = IExchangeRateOracle(_priceOracle);\n    geo = IGeoRegistry(_geo);\n    smsCertifier = ICertifier(_smsCertifier);\n    kycCertifier = ICertifier(_kycCertifier);\n    certifierRegistry = ICertifierRegistry(_certifierRegistry);\n    tierDailyLimit[1] = 1000;\n    tierDailyLimit[2] = 10000;\n    tierDailyLimit[3] = 1000000;\n  }\n\n  // ------------------------------------------------\n  //\n  // Functions Setters\n  //\n  // ------------------------------------------------\n\n  // function setZoneFactory(address _zoneFactory)\n  //   external\n  // {\n  //   require(control.isCEO(msg.sender), \"can only be called by CEO\");\n  //   zoneFactoryAddress = _zoneFactory;\n  // }\n\n  function setUserTier(address _who, int8 _num) \n    external\n  {\n    require(msg.sender == zoneFactoryAddress, \"can only be called by zoneFactory\");\n    userTiers[_who] = _num;\n  }\n\n  function modifyUserTier(int8 _num) \n    public\n  {\n    require(userTiers[msg.sender] > 0, \"can only be called by an existing user\");\n    require(_num > 0, \"tier should be greater than 0\");\n    userTiers[msg.sender] = _num;\n  }\n\n  function updateDailySold(bytes2 _countryCode, address _from, address _to, uint _amount)\n    external\n  {\n    require(msg.sender == zoneFactoryAddress, \"can only be called by zoneFactory\");\n\n    // if country code or user does not exist, we get back 0\n    // uint sellDailyLimitUsd = geo.countryTierDailyLimit(_countryCode, getUserTier(_from));\n\n    uint sellDailyLimitUsd = tierDailyLimit[userTiers[_from]];\n    uint sellDailyLimitEth = priceOracle.getWeiPriceOneUsd().mul(sellDailyLimitUsd);\n    _DateTime memory dateNow = parseTimestamp(block.timestamp);\n    uint newSoldTodayEth = ethSellsUserToday[_countryCode][_from][dateNow.day][dateNow.month][dateNow.year].add(_amount);\n    require(newSoldTodayEth <= sellDailyLimitEth, \"exceeded daily sell limit\");\n    ethSellsUserToday[_countryCode][_from][dateNow.day][dateNow.month][dateNow.year] = newSoldTodayEth;\n\n    volumeBuy[_to] = volumeBuy[_to].add(_amount);\n    volumeSell[_from] = volumeSell[_from].add(_amount);\n    nbTrade[_from] += 1;\n  }\n\n  // ------------------------------------------------\n  //\n  // Functions Getters\n  //\n  // ------------------------------------------------\n\n  // function getUserTier(address _who)\n  //   public\n  //   view\n  //   returns (uint)\n  // {\n  //   // foundTier = 0;\n  //   // if (kycCertifier.certified(_who)) foundTier = 2;\n  //   // else if (smsCertifier.certified(_who)) foundTier = 1;\n  //   return userTiers[_who];\n  // }\n  function getCertifications(address _who)\n    external view\n    returns ( ICertifierRegistry.Certification[] memory)\n    {\n      return certifierRegistry.getCerts(_who);\n    }\n  function getDateInfo(uint timestamp)\n    external\n    pure\n    returns (uint16, uint16, uint16)\n  {\n    _DateTime memory date = parseTimestamp(timestamp);\n    return (date.day, date.month, date.year);\n  }\n}",
  "sourcePath": "/Users/mehdi/code/dether/contractV2/contracts/core/Users.sol",
  "compiler": {
    "name": "solc",
    "version": "0.5.8+commit.23d335f2.Emscripten.clang"
  },
  "schemaVersion": "3.0.11",
  "updatedAt": "2019-07-03T15:46:09.391Z",
  "devdoc": {
    "methods": {}
  },
  "userdoc": {
    "methods": {}
  }
}