{
  "contractName": "Users",
  "abi": [
    {
      "constant": true,
      "inputs": [],
      "name": "zoneFactoryAddress",
      "outputs": [
        {
          "name": "",
          "type": "address"
        }
      ],
      "payable": false,
      "stateMutability": "view",
      "type": "function"
    },
    {
      "constant": true,
      "inputs": [],
      "name": "kycCertifier",
      "outputs": [
        {
          "name": "",
          "type": "address"
        }
      ],
      "payable": false,
      "stateMutability": "view",
      "type": "function"
    },
    {
      "constant": true,
      "inputs": [],
      "name": "priceOracle",
      "outputs": [
        {
          "name": "",
          "type": "address"
        }
      ],
      "payable": false,
      "stateMutability": "view",
      "type": "function"
    },
    {
      "constant": true,
      "inputs": [],
      "name": "smsCertifier",
      "outputs": [
        {
          "name": "",
          "type": "address"
        }
      ],
      "payable": false,
      "stateMutability": "view",
      "type": "function"
    },
    {
      "constant": true,
      "inputs": [
        {
          "name": "timestamp",
          "type": "uint256"
        }
      ],
      "name": "getHour",
      "outputs": [
        {
          "name": "",
          "type": "uint8"
        }
      ],
      "payable": false,
      "stateMutability": "pure",
      "type": "function"
    },
    {
      "constant": true,
      "inputs": [
        {
          "name": "timestamp",
          "type": "uint256"
        }
      ],
      "name": "getWeekday",
      "outputs": [
        {
          "name": "",
          "type": "uint8"
        }
      ],
      "payable": false,
      "stateMutability": "pure",
      "type": "function"
    },
    {
      "constant": true,
      "inputs": [],
      "name": "certifierRegistry",
      "outputs": [
        {
          "name": "",
          "type": "address"
        }
      ],
      "payable": false,
      "stateMutability": "view",
      "type": "function"
    },
    {
      "constant": true,
      "inputs": [
        {
          "name": "year",
          "type": "uint16"
        },
        {
          "name": "month",
          "type": "uint8"
        },
        {
          "name": "day",
          "type": "uint8"
        },
        {
          "name": "hour",
          "type": "uint8"
        },
        {
          "name": "minute",
          "type": "uint8"
        }
      ],
      "name": "toTimestamp",
      "outputs": [
        {
          "name": "timestamp",
          "type": "uint256"
        }
      ],
      "payable": false,
      "stateMutability": "pure",
      "type": "function"
    },
    {
      "constant": true,
      "inputs": [
        {
          "name": "timestamp",
          "type": "uint256"
        }
      ],
      "name": "getDay",
      "outputs": [
        {
          "name": "",
          "type": "uint8"
        }
      ],
      "payable": false,
      "stateMutability": "pure",
      "type": "function"
    },
    {
      "constant": true,
      "inputs": [
        {
          "name": "year",
          "type": "uint16"
        },
        {
          "name": "month",
          "type": "uint8"
        },
        {
          "name": "day",
          "type": "uint8"
        },
        {
          "name": "hour",
          "type": "uint8"
        }
      ],
      "name": "toTimestamp",
      "outputs": [
        {
          "name": "timestamp",
          "type": "uint256"
        }
      ],
      "payable": false,
      "stateMutability": "pure",
      "type": "function"
    },
    {
      "constant": true,
      "inputs": [
        {
          "name": "timestamp",
          "type": "uint256"
        }
      ],
      "name": "getSecond",
      "outputs": [
        {
          "name": "",
          "type": "uint8"
        }
      ],
      "payable": false,
      "stateMutability": "pure",
      "type": "function"
    },
    {
      "constant": true,
      "inputs": [
        {
          "name": "year",
          "type": "uint16"
        },
        {
          "name": "month",
          "type": "uint8"
        },
        {
          "name": "day",
          "type": "uint8"
        }
      ],
      "name": "toTimestamp",
      "outputs": [
        {
          "name": "timestamp",
          "type": "uint256"
        }
      ],
      "payable": false,
      "stateMutability": "pure",
      "type": "function"
    },
    {
      "constant": true,
      "inputs": [
        {
          "name": "year",
          "type": "uint16"
        },
        {
          "name": "month",
          "type": "uint8"
        },
        {
          "name": "day",
          "type": "uint8"
        },
        {
          "name": "hour",
          "type": "uint8"
        },
        {
          "name": "minute",
          "type": "uint8"
        },
        {
          "name": "second",
          "type": "uint8"
        }
      ],
      "name": "toTimestamp",
      "outputs": [
        {
          "name": "timestamp",
          "type": "uint256"
        }
      ],
      "payable": false,
      "stateMutability": "pure",
      "type": "function"
    },
    {
      "constant": true,
      "inputs": [
        {
          "name": "timestamp",
          "type": "uint256"
        }
      ],
      "name": "getYear",
      "outputs": [
        {
          "name": "",
          "type": "uint16"
        }
      ],
      "payable": false,
      "stateMutability": "pure",
      "type": "function"
    },
    {
      "constant": true,
      "inputs": [
        {
          "name": "timestamp",
          "type": "uint256"
        }
      ],
      "name": "getMonth",
      "outputs": [
        {
          "name": "",
          "type": "uint8"
        }
      ],
      "payable": false,
      "stateMutability": "pure",
      "type": "function"
    },
    {
      "constant": true,
      "inputs": [
        {
          "name": "year",
          "type": "uint16"
        }
      ],
      "name": "isLeapYear",
      "outputs": [
        {
          "name": "",
          "type": "bool"
        }
      ],
      "payable": false,
      "stateMutability": "pure",
      "type": "function"
    },
    {
      "constant": true,
      "inputs": [],
      "name": "isInit",
      "outputs": [
        {
          "name": "",
          "type": "bool"
        }
      ],
      "payable": false,
      "stateMutability": "view",
      "type": "function"
    },
    {
      "constant": true,
      "inputs": [
        {
          "name": "year",
          "type": "uint256"
        }
      ],
      "name": "leapYearsBefore",
      "outputs": [
        {
          "name": "",
          "type": "uint256"
        }
      ],
      "payable": false,
      "stateMutability": "pure",
      "type": "function"
    },
    {
      "constant": true,
      "inputs": [
        {
          "name": "month",
          "type": "uint8"
        },
        {
          "name": "year",
          "type": "uint16"
        }
      ],
      "name": "getDaysInMonth",
      "outputs": [
        {
          "name": "",
          "type": "uint8"
        }
      ],
      "payable": false,
      "stateMutability": "pure",
      "type": "function"
    },
    {
      "constant": true,
      "inputs": [],
      "name": "geo",
      "outputs": [
        {
          "name": "",
          "type": "address"
        }
      ],
      "payable": false,
      "stateMutability": "view",
      "type": "function"
    },
    {
      "constant": true,
      "inputs": [
        {
          "name": "timestamp",
          "type": "uint256"
        }
      ],
      "name": "getMinute",
      "outputs": [
        {
          "name": "",
          "type": "uint8"
        }
      ],
      "payable": false,
      "stateMutability": "pure",
      "type": "function"
    },
    {
      "inputs": [
        {
          "name": "_priceOracle",
          "type": "address"
        },
        {
          "name": "_geo",
          "type": "address"
        },
        {
          "name": "_smsCertifier",
          "type": "address"
        },
        {
          "name": "_kycCertifier",
          "type": "address"
        },
        {
          "name": "_certifierRegistry",
          "type": "address"
        }
      ],
      "payable": false,
      "stateMutability": "nonpayable",
      "type": "constructor"
    },
    {
      "constant": false,
      "inputs": [
        {
          "name": "_zoneFactory",
          "type": "address"
        }
      ],
      "name": "setZoneFactory",
      "outputs": [],
      "payable": false,
      "stateMutability": "nonpayable",
      "type": "function"
    },
    {
      "constant": true,
      "inputs": [
        {
          "name": "_who",
          "type": "address"
        }
      ],
      "name": "getCertifications",
      "outputs": [
        {
          "components": [
            {
              "name": "certifier",
              "type": "address"
            },
            {
              "name": "ref",
              "type": "int8"
            },
            {
              "name": "timestamp",
              "type": "uint256"
            }
          ],
          "name": "",
          "type": "tuple[]"
        }
      ],
      "payable": false,
      "stateMutability": "view",
      "type": "function"
    },
    {
      "constant": true,
      "inputs": [
        {
          "name": "timestamp",
          "type": "uint256"
        }
      ],
      "name": "getDateInfo",
      "outputs": [
        {
          "name": "",
          "type": "uint16"
        },
        {
          "name": "",
          "type": "uint16"
        },
        {
          "name": "",
          "type": "uint16"
        }
      ],
      "payable": false,
      "stateMutability": "pure",
      "type": "function"
    }
  ],
  "bytecode": "0x60806040526000600560146101000a81548160ff0219169083151502179055503480156200002c57600080fd5b5060405162001b8b38038062001b8b833981810160405262000052919081019062000178565b83600160006101000a81548173ffffffffffffffffffffffffffffffffffffffff021916908373ffffffffffffffffffffffffffffffffffffffff16021790555082600260006101000a81548173ffffffffffffffffffffffffffffffffffffffff021916908373ffffffffffffffffffffffffffffffffffffffff16021790555081600360006101000a81548173ffffffffffffffffffffffffffffffffffffffff021916908373ffffffffffffffffffffffffffffffffffffffff16021790555080600460006101000a81548173ffffffffffffffffffffffffffffffffffffffff021916908373ffffffffffffffffffffffffffffffffffffffff160217905550505050505062000248565b60008151905062000172816200022e565b92915050565b600080600080600060a086880312156200019157600080fd5b6000620001a18882890162000161565b9550506020620001b48882890162000161565b9450506040620001c78882890162000161565b9350506060620001da8882890162000161565b9250506080620001ed8882890162000161565b9150509295509295909350565b600062000207826200020e565b9050919050565b600073ffffffffffffffffffffffffffffffffffffffff82169050919050565b6200023981620001fa565b81146200024557600080fd5b50565b61193380620002586000396000f3fe608060405234801561001057600080fd5b50600436106101585760003560e01c80638aa001fc116100c3578063b145a5b81161007c578063b145a5b81461044f578063b19999371461046d578063b238ad0e1461049d578063c34c6b93146104cd578063d944e6a3146104ff578063fa93f8831461051d57610158565b80638aa001fc1461032f5780638c8d98a01461035f5780639054bdec1461038f57806392d66313146103bf578063a324ad24146103ef578063a6f0e5771461041f57610158565b80634ac1ad78116101155780634ac1ad78146102215780635b6ba8cc1461025157806362ba96871461026f57806365c728401461029f578063677cc291146102cf5780637f791833146102ff57610158565b806303c77f241461015d5780630d46f91a1461017b5780632630c12f1461019957806330a55316146101b75780633e239e1a146101d55780634753dc4f14610205575b600080fd5b61016561054d565b6040516101729190611572565b60405180910390f35b610183610573565b60405161019091906115e5565b60405180910390f35b6101a1610599565b6040516101ae9190611600565b60405180910390f35b6101bf6105be565b6040516101cc91906115e5565b60405180910390f35b6101ef60048036036101ea9190810190611361565b6105e4565b6040516101fc91906116c3565b60405180910390f35b61021f600480360361021a919081019061111c565b61060b565b005b61023b60048036036102369190810190611361565b6106c0565b60405161024891906116c3565b60405180910390f35b6102596106e3565b60405161026691906115ca565b60405180910390f35b61028960048036036102849190810190611261565b610709565b60405161029691906116a8565b60405180910390f35b6102b960048036036102b49190810190611361565b610725565b6040516102c691906116c3565b60405180910390f35b6102e960048036036102e4919081019061111c565b61073b565b6040516102f6919061158d565b60405180910390f35b610319600480360361031491908101906111fe565b6107f4565b60405161032691906116a8565b60405180910390f35b61034960048036036103449190810190611361565b61080f565b60405161035691906116c3565b60405180910390f35b610379600480360361037491908101906111af565b610823565b60405161038691906116a8565b60405180910390f35b6103a960048036036103a491908101906112d8565b61083e565b6040516103b691906116a8565b60405180910390f35b6103d960048036036103d49190810190611361565b610ac9565b6040516103e69190611656565b60405180910390f35b61040960048036036104049190810190611361565b610b72565b60405161041691906116c3565b60405180910390f35b61043960048036036104349190810190611186565b610b88565b60405161044691906115af565b60405180910390f35b610457610bfd565b60405161046491906115af565b60405180910390f35b61048760048036036104829190810190611361565b610c10565b60405161049491906116a8565b60405180910390f35b6104b760048036036104b2919081019061138a565b610c43565b6040516104c491906116c3565b60405180910390f35b6104e760048036036104e29190810190611361565b610d0f565b6040516104f693929190611671565b60405180910390f35b610507610d50565b604051610514919061161b565b60405180910390f35b61053760048036036105329190810190611361565b610d76565b60405161054491906116c3565b60405180910390f35b600560009054906101000a900473ffffffffffffffffffffffffffffffffffffffff1681565b600360009054906101000a900473ffffffffffffffffffffffffffffffffffffffff1681565b6000809054906101000a900473ffffffffffffffffffffffffffffffffffffffff1681565b600260009054906101000a900473ffffffffffffffffffffffffffffffffffffffff1681565b60006018603c8084816105f357fe5b04816105fb57fe5b048161060357fe5b069050919050565b60001515600560149054906101000a900460ff16151514610661576040517f08c379a000000000000000000000000000000000000000000000000000000000815260040161065890611636565b60405180910390fd5b80600560006101000a81548173ffffffffffffffffffffffffffffffffffffffff021916908373ffffffffffffffffffffffffffffffffffffffff1602179055506001600560146101000a81548160ff02191690831515021790555050565b6000600760046201518084816106d257fe5b0401816106db57fe5b069050919050565b600460009054906101000a900473ffffffffffffffffffffffffffffffffffffffff1681565b600061071a8686868686600061083e565b905095945050505050565b600061073082610d93565b604001519050919050565b6060600460009054906101000a900473ffffffffffffffffffffffffffffffffffffffff1673ffffffffffffffffffffffffffffffffffffffff1663d1a7a8fb836040518263ffffffff1660e01b81526004016107989190611572565b60006040518083038186803b1580156107b057600080fd5b505afa1580156107c4573d6000803e3d6000fd5b505050506040513d6000823e3d601f19601f820116820180604052506107ed9190810190611145565b9050919050565b60006108058585858560008061083e565b9050949350505050565b6000603c828161081b57fe5b069050919050565b6000610835848484600080600061083e565b90509392505050565b6000806107b290505b8761ffff168161ffff16101561088a5761086081610b88565b15610873576301e285008201915061087d565b6301e13380820191505b8080600101915050610847565b610892610f30565b601f816000600c81106108a157fe5b602002019060ff16908160ff16815250506108bb89610b88565b156108e557601d816001600c81106108cf57fe5b602002019060ff16908160ff1681525050610906565b601c816001600c81106108f457fe5b602002019060ff16908160ff16815250505b601f816002600c811061091557fe5b602002019060ff16908160ff1681525050601e816003600c811061093557fe5b602002019060ff16908160ff1681525050601f816004600c811061095557fe5b602002019060ff16908160ff1681525050601e816005600c811061097557fe5b602002019060ff16908160ff1681525050601f816006600c811061099557fe5b602002019060ff16908160ff1681525050601f816007600c81106109b557fe5b602002019060ff16908160ff1681525050601e816008600c81106109d557fe5b602002019060ff16908160ff1681525050601f816009600c81106109f557fe5b602002019060ff16908160ff1681525050601e81600a600c8110610a1557fe5b602002019060ff16908160ff1681525050601f81600b600c8110610a3557fe5b602002019060ff16908160ff1681525050600191505b8760ff168261ffff161015610a8b57806001830361ffff16600c8110610a6d57fe5b602002015160ff166201518002830192508180600101925050610a4b565b6001870360ff166201518002830192508560ff16610e1002830192508460ff16603c02830192508360ff168301925082925050509695505050505050565b600080600090506000806301e133808581610ae057fe5b046107b261ffff16019150610afa6107b261ffff16610c10565b610b078361ffff16610c10565b039050806301e285000283019250806107b2830361ffff16036301e1338002830192505b84831115610b6757610b3f60018303610b88565b15610b52576301e2850083039250610b5c565b6301e13380830392505b600182039150610b2b565b819350505050919050565b6000610b7d82610d93565b602001519050919050565b60008060048361ffff1681610b9957fe5b0661ffff1614610bac5760009050610bf8565b600060648361ffff1681610bbc57fe5b0661ffff1614610bcf5760019050610bf8565b60006101908361ffff1681610be057fe5b0661ffff1614610bf35760009050610bf8565b600190505b919050565b600560149054906101000a900460ff1681565b60006001820391506101908281610c2357fe5b0460648381610c2e57fe5b0460048481610c3957fe5b0403019050919050565b600060018360ff161480610c5a575060038360ff16145b80610c68575060058360ff16145b80610c76575060078360ff16145b80610c84575060088360ff16145b80610c925750600a8360ff16145b80610ca05750600c8360ff16145b15610cae57601f9050610d09565b60048360ff161480610cc3575060068360ff16145b80610cd1575060098360ff16145b80610cdf5750600b8360ff16145b15610ced57601e9050610d09565b610cf682610b88565b15610d0457601d9050610d09565b601c90505b92915050565b6000806000610d1c610f53565b610d2585610d93565b90508060400151816020015182600001518260ff1692508160ff169150935093509350509193909250565b600160009054906101000a900473ffffffffffffffffffffffffffffffffffffffff1681565b6000603c808381610d8357fe5b0481610d8b57fe5b069050919050565b610d9b610f53565b6000809050600080610dac85610ac9565b846000019061ffff16908161ffff1681525050610dce6107b261ffff16610c10565b610ddf856000015161ffff16610c10565b039150816301e285000283019250816107b285600001510361ffff16036301e1338002830192506000600191505b600c8260ff1611610e6357610e26828660000151610c43565b60ff1662015180029050858482011115610e515781856020019060ff16908160ff1681525050610e63565b80840193508180600101925050610e0d565b600191505b610e7a85602001518660000151610c43565b60ff168260ff1611610ebf57858462015180011115610eaa5781856040019060ff16908160ff1681525050610ebf565b62015180840193508180600101925050610e68565b610ec8866105e4565b856060019060ff16908160ff1681525050610ee286610d76565b856080019060ff16908160ff1681525050610efc8661080f565b8560a0019060ff16908160ff1681525050610f16866106c0565b8560c0019060ff16908160ff168152505050505050919050565b604051806101800160405280600c90602082028038833980820191505090505090565b6040518060e00160405280600061ffff168152602001600060ff168152602001600060ff168152602001600060ff168152602001600060ff168152602001600060ff168152602001600060ff1681525090565b600081359050610fb58161187d565b92915050565b600081519050610fca8161187d565b92915050565b600082601f830112610fe157600080fd5b8151610ff4610fef8261170b565b6116de565b9150818183526020840193506020810190508385606084028201111561101957600080fd5b60005b83811015611049578161102f8882611068565b84526020840193506060830192505060018101905061101c565b5050505092915050565b60008151905061106281611894565b92915050565b60006060828403121561107a57600080fd5b61108460606116de565b9050600061109484828501610fbb565b60008301525060206110a884828501611053565b60208301525060406110bc848285016110f2565b60408301525092915050565b6000813590506110d7816118ab565b92915050565b6000813590506110ec816118c2565b92915050565b600081519050611101816118c2565b92915050565b600081359050611116816118d9565b92915050565b60006020828403121561112e57600080fd5b600061113c84828501610fa6565b91505092915050565b60006020828403121561115757600080fd5b600082015167ffffffffffffffff81111561117157600080fd5b61117d84828501610fd0565b91505092915050565b60006020828403121561119857600080fd5b60006111a6848285016110c8565b91505092915050565b6000806000606084860312156111c457600080fd5b60006111d2868287016110c8565b93505060206111e386828701611107565b92505060406111f486828701611107565b9150509250925092565b6000806000806080858703121561121457600080fd5b6000611222878288016110c8565b945050602061123387828801611107565b935050604061124487828801611107565b925050606061125587828801611107565b91505092959194509250565b600080600080600060a0868803121561127957600080fd5b6000611287888289016110c8565b955050602061129888828901611107565b94505060406112a988828901611107565b93505060606112ba88828901611107565b92505060806112cb88828901611107565b9150509295509295909350565b60008060008060008060c087890312156112f157600080fd5b60006112ff89828a016110c8565b965050602061131089828a01611107565b955050604061132189828a01611107565b945050606061133289828a01611107565b935050608061134389828a01611107565b92505060a061135489828a01611107565b9150509295509295509295565b60006020828403121561137357600080fd5b6000611381848285016110dd565b91505092915050565b6000806040838503121561139d57600080fd5b60006113ab85828601611107565b92505060206113bc858286016110c8565b9150509250929050565b60006113d283836114f4565b60608301905092915050565b6113e78161177d565b82525050565b6113f68161177d565b82525050565b600061140782611743565b611411818561175b565b935061141c83611733565b8060005b8381101561144d57815161143488826113c6565b975061143f8361174e565b925050600181019050611420565b5085935050505092915050565b6114638161178f565b82525050565b611472816117ed565b82525050565b61148181611811565b82525050565b61149081611835565b82525050565b61149f81611859565b82525050565b6114ae8161179b565b82525050565b60006114c1601f8361176c565b91507f63616e6e6f742062652063616c6c6564206d6f7265207468616e206f6e6365006000830152602082019050919050565b60608201600082015161150a60008501826113de565b50602082015161151d60208501826114a5565b5060408201516115306040850182611545565b50505050565b61153f816117a8565b82525050565b61154e816117d6565b82525050565b61155d816117d6565b82525050565b61156c816117e0565b82525050565b600060208201905061158760008301846113ed565b92915050565b600060208201905081810360008301526115a781846113fc565b905092915050565b60006020820190506115c4600083018461145a565b92915050565b60006020820190506115df6000830184611469565b92915050565b60006020820190506115fa6000830184611478565b92915050565b60006020820190506116156000830184611487565b92915050565b60006020820190506116306000830184611496565b92915050565b6000602082019050818103600083015261164f816114b4565b9050919050565b600060208201905061166b6000830184611536565b92915050565b60006060820190506116866000830186611536565b6116936020830185611536565b6116a06040830184611536565b949350505050565b60006020820190506116bd6000830184611554565b92915050565b60006020820190506116d86000830184611563565b92915050565b6000604051905081810181811067ffffffffffffffff8211171561170157600080fd5b8060405250919050565b600067ffffffffffffffff82111561172257600080fd5b602082029050602081019050919050565b6000819050602082019050919050565b600081519050919050565b6000602082019050919050565b600082825260208201905092915050565b600082825260208201905092915050565b6000611788826117b6565b9050919050565b60008115159050919050565b60008160000b9050919050565b600061ffff82169050919050565b600073ffffffffffffffffffffffffffffffffffffffff82169050919050565b6000819050919050565b600060ff82169050919050565b60006117f8826117ff565b9050919050565b600061180a826117b6565b9050919050565b600061181c82611823565b9050919050565b600061182e826117b6565b9050919050565b600061184082611847565b9050919050565b6000611852826117b6565b9050919050565b60006118648261186b565b9050919050565b6000611876826117b6565b9050919050565b6118868161177d565b811461189157600080fd5b50565b61189d8161179b565b81146118a857600080fd5b50565b6118b4816117a8565b81146118bf57600080fd5b50565b6118cb816117d6565b81146118d657600080fd5b50565b6118e2816117e0565b81146118ed57600080fd5b5056fea365627a7a72305820a4a652e677f69a6f836a805ce391487a259493e16d439da46c3fcfe33c30db3e6c6578706572696d656e74616cf564736f6c634300050a0040",
  "source": "pragma solidity ^0.5.10;\npragma experimental ABIEncoderV2;\n\nimport \"openzeppelin-solidity/contracts/math/SafeMath.sol\";\n\nimport \"../datetime/DateTime.sol\";\n\nimport \"../interfaces/IExchangeRateOracle.sol\";\nimport \"../interfaces/ICertifier.sol\";\nimport \"../interfaces/IGeoRegistry.sol\";\nimport \"../interfaces/ICertifierRegistry.sol\";\n\ncontract Users is DateTime {\n  // ------------------------------------------------\n  //\n  // Library init\n  //\n  // ------------------------------------------------\n\n  using SafeMath for uint;\n\n  // ------------------------------------------------\n  //\n  // Variables Public\n  //\n  // ------------------------------------------------\n\n  IExchangeRateOracle public priceOracle;\n  IGeoRegistry public geo;\n  ICertifier public smsCertifier;\n  ICertifier public kycCertifier;\n  ICertifierRegistry public certifierRegistry;\n\n  address public zoneFactoryAddress;\n  bool public isInit = false;\n\n  // ------------------------------------------------\n  //\n  // Constructor\n  //\n  // ------------------------------------------------\n\n    constructor(address _priceOracle, address _geo, address _smsCertifier, address _kycCertifier, address _certifierRegistry)\n    public\n  {\n    geo = IGeoRegistry(_geo);\n    smsCertifier = ICertifier(_smsCertifier);\n    kycCertifier = ICertifier(_kycCertifier);\n    certifierRegistry = ICertifierRegistry(_certifierRegistry);\n  }\n\n  // ------------------------------------------------\n  //\n  // Functions Setters\n  //\n  // ------------------------------------------------\n\n  function setZoneFactory(address _zoneFactory)\n    external\n  {\n    require(isInit == false, 'cannot be called more than once');\n    zoneFactoryAddress = _zoneFactory;\n    isInit = true;\n  }\n\n  // ------------------------------------------------\n  //\n  // Functions Getters\n  //\n  // ------------------------------------------------\n\n  function getCertifications(address _who)\n    external view\n    returns ( ICertifierRegistry.Certification[] memory)\n    {\n      return certifierRegistry.getCerts(_who);\n    }\n  function getDateInfo(uint timestamp)\n    external\n    pure\n    returns (uint16, uint16, uint16)\n  {\n    _DateTime memory date = parseTimestamp(timestamp);\n    return (date.day, date.month, date.year);\n  }\n}",
  "sourcePath": "/Users/mehdi/code/dether/contractV2/contracts/core/Users.sol",
  "compiler": {
    "name": "solc",
    "version": "0.5.10+commit.5a6ea5b1.Emscripten.clang"
  },
  "schemaVersion": "3.0.11",
  "updatedAt": "2019-07-05T13:10:43.855Z",
  "devdoc": {
    "methods": {}
  },
  "userdoc": {
    "methods": {}
  }
}