{
  "contractName": "Users",
  "abi": [
    {
      "constant": true,
      "inputs": [],
      "name": "zoneFactoryAddress",
      "outputs": [
        {
          "name": "",
          "type": "address"
        }
      ],
      "payable": false,
      "stateMutability": "view",
      "type": "function",
      "signature": "0x03c77f24"
    },
    {
      "constant": true,
      "inputs": [],
      "name": "kycCertifier",
      "outputs": [
        {
          "name": "",
          "type": "address"
        }
      ],
      "payable": false,
      "stateMutability": "view",
      "type": "function",
      "signature": "0x0d46f91a"
    },
    {
      "constant": true,
      "inputs": [],
      "name": "priceOracle",
      "outputs": [
        {
          "name": "",
          "type": "address"
        }
      ],
      "payable": false,
      "stateMutability": "view",
      "type": "function",
      "signature": "0x2630c12f"
    },
    {
      "constant": true,
      "inputs": [],
      "name": "smsCertifier",
      "outputs": [
        {
          "name": "",
          "type": "address"
        }
      ],
      "payable": false,
      "stateMutability": "view",
      "type": "function",
      "signature": "0x30a55316"
    },
    {
      "constant": true,
      "inputs": [
        {
          "name": "timestamp",
          "type": "uint256"
        }
      ],
      "name": "getHour",
      "outputs": [
        {
          "name": "",
          "type": "uint8"
        }
      ],
      "payable": false,
      "stateMutability": "pure",
      "type": "function",
      "signature": "0x3e239e1a"
    },
    {
      "constant": true,
      "inputs": [
        {
          "name": "",
          "type": "address"
        }
      ],
      "name": "volumeSell",
      "outputs": [
        {
          "name": "",
          "type": "uint256"
        }
      ],
      "payable": false,
      "stateMutability": "view",
      "type": "function",
      "signature": "0x41d0d30f"
    },
    {
      "constant": true,
      "inputs": [
        {
          "name": "",
          "type": "address"
        }
      ],
      "name": "nbTrade",
      "outputs": [
        {
          "name": "",
          "type": "uint256"
        }
      ],
      "payable": false,
      "stateMutability": "view",
      "type": "function",
      "signature": "0x475e4654"
    },
    {
      "constant": true,
      "inputs": [
        {
          "name": "timestamp",
          "type": "uint256"
        }
      ],
      "name": "getWeekday",
      "outputs": [
        {
          "name": "",
          "type": "uint8"
        }
      ],
      "payable": false,
      "stateMutability": "pure",
      "type": "function",
      "signature": "0x4ac1ad78"
    },
    {
      "constant": true,
      "inputs": [
        {
          "name": "year",
          "type": "uint16"
        },
        {
          "name": "month",
          "type": "uint8"
        },
        {
          "name": "day",
          "type": "uint8"
        },
        {
          "name": "hour",
          "type": "uint8"
        },
        {
          "name": "minute",
          "type": "uint8"
        }
      ],
      "name": "toTimestamp",
      "outputs": [
        {
          "name": "timestamp",
          "type": "uint256"
        }
      ],
      "payable": false,
      "stateMutability": "pure",
      "type": "function",
      "signature": "0x62ba9687"
    },
    {
      "constant": true,
      "inputs": [
        {
          "name": "timestamp",
          "type": "uint256"
        }
      ],
      "name": "getDay",
      "outputs": [
        {
          "name": "",
          "type": "uint8"
        }
      ],
      "payable": false,
      "stateMutability": "pure",
      "type": "function",
      "signature": "0x65c72840"
    },
    {
      "constant": true,
      "inputs": [
        {
          "name": "year",
          "type": "uint16"
        },
        {
          "name": "month",
          "type": "uint8"
        },
        {
          "name": "day",
          "type": "uint8"
        },
        {
          "name": "hour",
          "type": "uint8"
        }
      ],
      "name": "toTimestamp",
      "outputs": [
        {
          "name": "timestamp",
          "type": "uint256"
        }
      ],
      "payable": false,
      "stateMutability": "pure",
      "type": "function",
      "signature": "0x7f791833"
    },
    {
      "constant": true,
      "inputs": [
        {
          "name": "timestamp",
          "type": "uint256"
        }
      ],
      "name": "getSecond",
      "outputs": [
        {
          "name": "",
          "type": "uint8"
        }
      ],
      "payable": false,
      "stateMutability": "pure",
      "type": "function",
      "signature": "0x8aa001fc"
    },
    {
      "constant": true,
      "inputs": [
        {
          "name": "year",
          "type": "uint16"
        },
        {
          "name": "month",
          "type": "uint8"
        },
        {
          "name": "day",
          "type": "uint8"
        }
      ],
      "name": "toTimestamp",
      "outputs": [
        {
          "name": "timestamp",
          "type": "uint256"
        }
      ],
      "payable": false,
      "stateMutability": "pure",
      "type": "function",
      "signature": "0x8c8d98a0"
    },
    {
      "constant": true,
      "inputs": [
        {
          "name": "year",
          "type": "uint16"
        },
        {
          "name": "month",
          "type": "uint8"
        },
        {
          "name": "day",
          "type": "uint8"
        },
        {
          "name": "hour",
          "type": "uint8"
        },
        {
          "name": "minute",
          "type": "uint8"
        },
        {
          "name": "second",
          "type": "uint8"
        }
      ],
      "name": "toTimestamp",
      "outputs": [
        {
          "name": "timestamp",
          "type": "uint256"
        }
      ],
      "payable": false,
      "stateMutability": "pure",
      "type": "function",
      "signature": "0x9054bdec"
    },
    {
      "constant": true,
      "inputs": [
        {
          "name": "timestamp",
          "type": "uint256"
        }
      ],
      "name": "getYear",
      "outputs": [
        {
          "name": "",
          "type": "uint16"
        }
      ],
      "payable": false,
      "stateMutability": "pure",
      "type": "function",
      "signature": "0x92d66313"
    },
    {
      "constant": true,
      "inputs": [
        {
          "name": "timestamp",
          "type": "uint256"
        }
      ],
      "name": "getMonth",
      "outputs": [
        {
          "name": "",
          "type": "uint8"
        }
      ],
      "payable": false,
      "stateMutability": "pure",
      "type": "function",
      "signature": "0xa324ad24"
    },
    {
      "constant": true,
      "inputs": [
        {
          "name": "year",
          "type": "uint16"
        }
      ],
      "name": "isLeapYear",
      "outputs": [
        {
          "name": "",
          "type": "bool"
        }
      ],
      "payable": false,
      "stateMutability": "pure",
      "type": "function",
      "signature": "0xa6f0e577"
    },
    {
      "constant": true,
      "inputs": [
        {
          "name": "year",
          "type": "uint256"
        }
      ],
      "name": "leapYearsBefore",
      "outputs": [
        {
          "name": "",
          "type": "uint256"
        }
      ],
      "payable": false,
      "stateMutability": "pure",
      "type": "function",
      "signature": "0xb1999937"
    },
    {
      "constant": true,
      "inputs": [
        {
          "name": "month",
          "type": "uint8"
        },
        {
          "name": "year",
          "type": "uint16"
        }
      ],
      "name": "getDaysInMonth",
      "outputs": [
        {
          "name": "",
          "type": "uint8"
        }
      ],
      "payable": false,
      "stateMutability": "pure",
      "type": "function",
      "signature": "0xb238ad0e"
    },
    {
      "constant": true,
      "inputs": [],
      "name": "control",
      "outputs": [
        {
          "name": "",
          "type": "address"
        }
      ],
      "payable": false,
      "stateMutability": "view",
      "type": "function",
      "signature": "0xd8de6587"
    },
    {
      "constant": true,
      "inputs": [],
      "name": "geo",
      "outputs": [
        {
          "name": "",
          "type": "address"
        }
      ],
      "payable": false,
      "stateMutability": "view",
      "type": "function",
      "signature": "0xd944e6a3"
    },
    {
      "constant": true,
      "inputs": [
        {
          "name": "",
          "type": "address"
        }
      ],
      "name": "volumeBuy",
      "outputs": [
        {
          "name": "",
          "type": "uint256"
        }
      ],
      "payable": false,
      "stateMutability": "view",
      "type": "function",
      "signature": "0xdc2de4fa"
    },
    {
      "constant": true,
      "inputs": [
        {
          "name": "timestamp",
          "type": "uint256"
        }
      ],
      "name": "getMinute",
      "outputs": [
        {
          "name": "",
          "type": "uint8"
        }
      ],
      "payable": false,
      "stateMutability": "pure",
      "type": "function",
      "signature": "0xfa93f883"
    },
    {
      "inputs": [
        {
          "name": "_priceOracle",
          "type": "address"
        },
        {
          "name": "_geo",
          "type": "address"
        },
        {
          "name": "_smsCertifier",
          "type": "address"
        },
        {
          "name": "_kycCertifier",
          "type": "address"
        },
        {
          "name": "_control",
          "type": "address"
        }
      ],
      "payable": false,
      "stateMutability": "nonpayable",
      "type": "constructor",
      "signature": "constructor"
    },
    {
      "constant": false,
      "inputs": [
        {
          "name": "_zoneFactory",
          "type": "address"
        }
      ],
      "name": "setZoneFactory",
      "outputs": [],
      "payable": false,
      "stateMutability": "nonpayable",
      "type": "function",
      "signature": "0x4753dc4f"
    },
    {
      "constant": false,
      "inputs": [
        {
          "name": "_countryCode",
          "type": "bytes2"
        },
        {
          "name": "_from",
          "type": "address"
        },
        {
          "name": "_to",
          "type": "address"
        },
        {
          "name": "_amount",
          "type": "uint256"
        }
      ],
      "name": "updateDailySold",
      "outputs": [],
      "payable": false,
      "stateMutability": "nonpayable",
      "type": "function",
      "signature": "0xfb89df53"
    },
    {
      "constant": true,
      "inputs": [
        {
          "name": "_who",
          "type": "address"
        }
      ],
      "name": "getUserTier",
      "outputs": [
        {
          "name": "foundTier",
          "type": "uint256"
        }
      ],
      "payable": false,
      "stateMutability": "view",
      "type": "function",
      "signature": "0xe4d2620e"
    },
    {
      "constant": true,
      "inputs": [
        {
          "name": "timestamp",
          "type": "uint256"
        }
      ],
      "name": "getDateInfo",
      "outputs": [
        {
          "name": "",
          "type": "uint16"
        },
        {
          "name": "",
          "type": "uint16"
        },
        {
          "name": "",
          "type": "uint16"
        }
      ],
      "payable": false,
      "stateMutability": "pure",
      "type": "function",
      "signature": "0xc34c6b93"
    }
  ],
  "bytecode": "0x608060405234801561001057600080fd5b5060405160a0806120fe833981018060405260a081101561003057600080fd5b810190808051906020019092919080519060200190929190805190602001909291908051906020019092919080519060200190929190505050846000806101000a81548173ffffffffffffffffffffffffffffffffffffffff021916908373ffffffffffffffffffffffffffffffffffffffff16021790555083600160006101000a81548173ffffffffffffffffffffffffffffffffffffffff021916908373ffffffffffffffffffffffffffffffffffffffff16021790555082600260006101000a81548173ffffffffffffffffffffffffffffffffffffffff021916908373ffffffffffffffffffffffffffffffffffffffff16021790555081600360006101000a81548173ffffffffffffffffffffffffffffffffffffffff021916908373ffffffffffffffffffffffffffffffffffffffff16021790555080600460006101000a81548173ffffffffffffffffffffffffffffffffffffffff021916908373ffffffffffffffffffffffffffffffffffffffff1602179055505050505050611f3d806101c16000396000f3fe608060405234801561001057600080fd5b50600436106101c6576000357c0100000000000000000000000000000000000000000000000000000000900480638c8d98a011610116578063c34c6b93116100b4578063dc2de4fa1161008e578063dc2de4fa14610948578063e4d2620e146109a0578063fa93f883146109f8578063fb89df5314610a40576101c6565b8063c34c6b931461084c578063d8de6587146108b4578063d944e6a3146108fe576101c6565b8063a324ad24116100f0578063a324ad241461071f578063a6f0e57714610767578063b1999937146107b1578063b238ad0e146107f3576101c6565b80638c8d98a0146105ee5780639054bdec1461064e57806392d66313146106d5576101c6565b80634753dc4f1161018357806362ba96871161015d57806362ba96871461047757806365c72840146104f15780637f791833146105395780638aa001fc146105a6576101c6565b80634753dc4f14610393578063475e4654146103d75780634ac1ad781461042f576101c6565b806303c77f24146101cb5780630d46f91a146102155780632630c12f1461025f57806330a55316146102a95780633e239e1a146102f357806341d0d30f1461033b575b600080fd5b6101d3610ad9565b604051808273ffffffffffffffffffffffffffffffffffffffff1673ffffffffffffffffffffffffffffffffffffffff16815260200191505060405180910390f35b61021d610aff565b604051808273ffffffffffffffffffffffffffffffffffffffff1673ffffffffffffffffffffffffffffffffffffffff16815260200191505060405180910390f35b610267610b25565b604051808273ffffffffffffffffffffffffffffffffffffffff1673ffffffffffffffffffffffffffffffffffffffff16815260200191505060405180910390f35b6102b1610b4a565b604051808273ffffffffffffffffffffffffffffffffffffffff1673ffffffffffffffffffffffffffffffffffffffff16815260200191505060405180910390f35b61031f6004803603602081101561030957600080fd5b8101908080359060200190929190505050610b70565b604051808260ff1660ff16815260200191505060405180910390f35b61037d6004803603602081101561035157600080fd5b81019080803573ffffffffffffffffffffffffffffffffffffffff169060200190929190505050610b9d565b6040518082815260200191505060405180910390f35b6103d5600480360360208110156103a957600080fd5b81019080803573ffffffffffffffffffffffffffffffffffffffff169060200190929190505050610bb5565b005b610419600480360360208110156103ed57600080fd5b81019080803573ffffffffffffffffffffffffffffffffffffffff169060200190929190505050610d63565b6040518082815260200191505060405180910390f35b61045b6004803603602081101561044557600080fd5b8101908080359060200190929190505050610d7b565b604051808260ff1660ff16815260200191505060405180910390f35b6104db600480360360a081101561048d57600080fd5b81019080803561ffff169060200190929190803560ff169060200190929190803560ff169060200190929190803560ff169060200190929190803560ff169060200190929190505050610da2565b6040518082815260200191505060405180910390f35b61051d6004803603602081101561050757600080fd5b8101908080359060200190929190505050610dbe565b604051808260ff1660ff16815260200191505060405180910390f35b6105906004803603608081101561054f57600080fd5b81019080803561ffff169060200190929190803560ff169060200190929190803560ff169060200190929190803560ff169060200190929190505050610dd4565b6040518082815260200191505060405180910390f35b6105d2600480360360208110156105bc57600080fd5b8101908080359060200190929190505050610def565b604051808260ff1660ff16815260200191505060405180910390f35b6106386004803603606081101561060457600080fd5b81019080803561ffff169060200190929190803560ff169060200190929190803560ff169060200190929190505050610e05565b6040518082815260200191505060405180910390f35b6106bf600480360360c081101561066457600080fd5b81019080803561ffff169060200190929190803560ff169060200190929190803560ff169060200190929190803560ff169060200190929190803560ff169060200190929190803560ff169060200190929190505050610e20565b6040518082815260200191505060405180910390f35b610701600480360360208110156106eb57600080fd5b81019080803590602001909291905050506110c7565b604051808261ffff1661ffff16815260200191505060405180910390f35b61074b6004803603602081101561073557600080fd5b8101908080359060200190929190505050611172565b604051808260ff1660ff16815260200191505060405180910390f35b6107976004803603602081101561077d57600080fd5b81019080803561ffff169060200190929190505050611188565b604051808215151515815260200191505060405180910390f35b6107dd600480360360208110156107c757600080fd5b8101908080359060200190929190505050611209565b6040518082815260200191505060405180910390f35b6108306004803603604081101561080957600080fd5b81019080803560ff169060200190929190803561ffff169060200190929190505050611242565b604051808260ff1660ff16815260200191505060405180910390f35b6108786004803603602081101561086257600080fd5b810190808035906020019092919050505061130e565b604051808461ffff1661ffff1681526020018361ffff1661ffff1681526020018261ffff1661ffff168152602001935050505060405180910390f35b6108bc61134f565b604051808273ffffffffffffffffffffffffffffffffffffffff1673ffffffffffffffffffffffffffffffffffffffff16815260200191505060405180910390f35b610906611375565b604051808273ffffffffffffffffffffffffffffffffffffffff1673ffffffffffffffffffffffffffffffffffffffff16815260200191505060405180910390f35b61098a6004803603602081101561095e57600080fd5b81019080803573ffffffffffffffffffffffffffffffffffffffff16906020019092919050505061139b565b6040518082815260200191505060405180910390f35b6109e2600480360360208110156109b657600080fd5b81019080803573ffffffffffffffffffffffffffffffffffffffff1690602001909291905050506113b3565b6040518082815260200191505060405180910390f35b610a2460048036036020811015610a0e57600080fd5b81019080803590602001909291905050506115c2565b604051808260ff1660ff16815260200191505060405180910390f35b610ad760048036036080811015610a5657600080fd5b8101908080357dffffffffffffffffffffffffffffffffffffffffffffffffffffffffffff19169060200190929190803573ffffffffffffffffffffffffffffffffffffffff169060200190929190803573ffffffffffffffffffffffffffffffffffffffff169060200190929190803590602001909291905050506115e3565b005b600560009054906101000a900473ffffffffffffffffffffffffffffffffffffffff1681565b600360009054906101000a900473ffffffffffffffffffffffffffffffffffffffff1681565b6000809054906101000a900473ffffffffffffffffffffffffffffffffffffffff1681565b600260009054906101000a900473ffffffffffffffffffffffffffffffffffffffff1681565b60006018603c8084811515610b8157fe5b04811515610b8b57fe5b04811515610b9557fe5b069050919050565b60076020528060005260406000206000915090505481565b600460009054906101000a900473ffffffffffffffffffffffffffffffffffffffff1673ffffffffffffffffffffffffffffffffffffffff16638900bd22336040518263ffffffff167c0100000000000000000000000000000000000000000000000000000000028152600401808273ffffffffffffffffffffffffffffffffffffffff1673ffffffffffffffffffffffffffffffffffffffff16815260200191505060206040518083038186803b158015610c7057600080fd5b505afa158015610c84573d6000803e3d6000fd5b505050506040513d6020811015610c9a57600080fd5b81019080805190602001909291905050501515610d1f576040517f08c379a00000000000000000000000000000000000000000000000000000000081526004018080602001828103825260198152602001807f63616e206f6e6c792062652063616c6c65642062792043454f0000000000000081525060200191505060405180910390fd5b80600560006101000a81548173ffffffffffffffffffffffffffffffffffffffff021916908373ffffffffffffffffffffffffffffffffffffffff16021790555050565b60086020528060005260406000206000915090505481565b6000600760046201518084811515610d8f57fe5b0401811515610d9a57fe5b069050919050565b6000610db386868686866000610e20565b905095945050505050565b6000610dc982611c78565b604001519050919050565b6000610de585858585600080610e20565b9050949350505050565b6000603c82811515610dfd57fe5b069050919050565b6000610e178484846000806000610e20565b90509392505050565b6000806107b290505b8761ffff168161ffff161015610e6c57610e4281611188565b15610e55576301e2850082019150610e5f565b6301e13380820191505b8080600101915050610e29565b610e74611e78565b601f816000600c81101515610e8557fe5b602002019060ff16908160ff1681525050610e9f89611188565b15610ecb57601d816001600c81101515610eb557fe5b602002019060ff16908160ff1681525050610eee565b601c816001600c81101515610edc57fe5b602002019060ff16908160ff16815250505b601f816002600c81101515610eff57fe5b602002019060ff16908160ff1681525050601e816003600c81101515610f2157fe5b602002019060ff16908160ff1681525050601f816004600c81101515610f4357fe5b602002019060ff16908160ff1681525050601e816005600c81101515610f6557fe5b602002019060ff16908160ff1681525050601f816006600c81101515610f8757fe5b602002019060ff16908160ff1681525050601f816007600c81101515610fa957fe5b602002019060ff16908160ff1681525050601e816008600c81101515610fcb57fe5b602002019060ff16908160ff1681525050601f816009600c81101515610fed57fe5b602002019060ff16908160ff1681525050601e81600a600c8110151561100f57fe5b602002019060ff16908160ff1681525050601f81600b600c8110151561103157fe5b602002019060ff16908160ff1681525050600191505b8760ff168261ffff16101561108957806001830361ffff16600c8110151561106b57fe5b602002015160ff166201518002830192508180600101925050611047565b6001870360ff166201518002830192508560ff16610e1002830192508460ff16603c02830192508360ff168301925082925050509695505050505050565b600080600090506000806301e13380858115156110e057fe5b046107b261ffff160191506110fa6107b261ffff16611209565b6111078361ffff16611209565b039050806301e285000283019250806107b2830361ffff16036301e1338002830192505b848311156111675761113f60018303611188565b15611152576301e285008303925061115c565b6301e13380830392505b60018203915061112b565b819350505050919050565b600061117d82611c78565b602001519050919050565b60008060048361ffff1681151561119b57fe5b0661ffff161415156111b05760009050611204565b600060648361ffff168115156111c257fe5b0661ffff161415156111d75760019050611204565b60006101908361ffff168115156111ea57fe5b0661ffff161415156111ff5760009050611204565b600190505b919050565b60006001820391506101908281151561121e57fe5b0460648381151561122b57fe5b0460048481151561123857fe5b0403019050919050565b600060018360ff161480611259575060038360ff16145b80611267575060058360ff16145b80611275575060078360ff16145b80611283575060088360ff16145b806112915750600a8360ff16145b8061129f5750600c8360ff16145b156112ad57601f9050611308565b60048360ff1614806112c2575060068360ff16145b806112d0575060098360ff16145b806112de5750600b8360ff16145b156112ec57601e9050611308565b6112f582611188565b1561130357601d9050611308565b601c90505b92915050565b600080600061131b611e9c565b61132485611c78565b90508060400151816020015182600001518260ff1692508160ff169150935093509350509193909250565b600460009054906101000a900473ffffffffffffffffffffffffffffffffffffffff1681565b600160009054906101000a900473ffffffffffffffffffffffffffffffffffffffff1681565b60066020528060005260406000206000915090505481565b6000809050600360009054906101000a900473ffffffffffffffffffffffffffffffffffffffff1673ffffffffffffffffffffffffffffffffffffffff1663cc1d4c02836040518263ffffffff167c0100000000000000000000000000000000000000000000000000000000028152600401808273ffffffffffffffffffffffffffffffffffffffff1673ffffffffffffffffffffffffffffffffffffffff16815260200191505060206040518083038186803b15801561147357600080fd5b505afa158015611487573d6000803e3d6000fd5b505050506040513d602081101561149d57600080fd5b8101908080519060200190929190505050156114bc57600290506115bd565b600260009054906101000a900473ffffffffffffffffffffffffffffffffffffffff1673ffffffffffffffffffffffffffffffffffffffff1663cc1d4c02836040518263ffffffff167c0100000000000000000000000000000000000000000000000000000000028152600401808273ffffffffffffffffffffffffffffffffffffffff1673ffffffffffffffffffffffffffffffffffffffff16815260200191505060206040518083038186803b15801561157757600080fd5b505afa15801561158b573d6000803e3d6000fd5b505050506040513d60208110156115a157600080fd5b8101908080519060200190929190505050156115bc57600190505b5b919050565b6000603c80838115156115d157fe5b048115156115db57fe5b069050919050565b600560009054906101000a900473ffffffffffffffffffffffffffffffffffffffff1673ffffffffffffffffffffffffffffffffffffffff163373ffffffffffffffffffffffffffffffffffffffff1614151561168b576040517f08c379a0000000000000000000000000000000000000000000000000000000008152600401808060200182810382526021815260200180611ef16021913960400191505060405180910390fd5b6000600160009054906101000a900473ffffffffffffffffffffffffffffffffffffffff1673ffffffffffffffffffffffffffffffffffffffff1663de49bdaa866116d5876113b3565b6040518363ffffffff167c010000000000000000000000000000000000000000000000000000000002815260040180837dffffffffffffffffffffffffffffffffffffffffffffffffffffffffffff19167dffffffffffffffffffffffffffffffffffffffffffffffffffffffffffff1916815260200182815260200192505050602060405180830381600087803b15801561177057600080fd5b505af1158015611784573d6000803e3d6000fd5b505050506040513d602081101561179a57600080fd5b81019080805190602001909291905050509050600061187f826000809054906101000a900473ffffffffffffffffffffffffffffffffffffffff1673ffffffffffffffffffffffffffffffffffffffff166350ccf36b6040518163ffffffff167c010000000000000000000000000000000000000000000000000000000002815260040160206040518083038186803b15801561183657600080fd5b505afa15801561184a573d6000803e3d6000fd5b505050506040513d602081101561186057600080fd5b8101908080519060200190929190505050611e1990919063ffffffff16565b9050611889611e9c565b61189242611c78565b9050600061199085600960008b7dffffffffffffffffffffffffffffffffffffffffffffffffffffffffffff19167dffffffffffffffffffffffffffffffffffffffffffffffffffffffffffff1916815260200190815260200160002060008a73ffffffffffffffffffffffffffffffffffffffff1673ffffffffffffffffffffffffffffffffffffffff1681526020019081526020016000206000856040015160ff1661ffff1681526020019081526020016000206000856020015160ff1661ffff1681526020019081526020016000206000856000015161ffff1661ffff16815260200190815260200160002054611e5790919063ffffffff16565b9050828111151515611a0a576040517f08c379a00000000000000000000000000000000000000000000000000000000081526004018080602001828103825260198152602001807f6578636565646564206461696c792073656c6c206c696d69740000000000000081525060200191505060405180910390fd5b80600960008a7dffffffffffffffffffffffffffffffffffffffffffffffffffffffffffff19167dffffffffffffffffffffffffffffffffffffffffffffffffffffffffffff1916815260200190815260200160002060008973ffffffffffffffffffffffffffffffffffffffff1673ffffffffffffffffffffffffffffffffffffffff1681526020019081526020016000206000846040015160ff1661ffff1681526020019081526020016000206000846020015160ff1661ffff1681526020019081526020016000206000846000015161ffff1661ffff16815260200190815260200160002081905550611b4885600660008973ffffffffffffffffffffffffffffffffffffffff1673ffffffffffffffffffffffffffffffffffffffff16815260200190815260200160002054611e5790919063ffffffff16565b600660008873ffffffffffffffffffffffffffffffffffffffff1673ffffffffffffffffffffffffffffffffffffffff16815260200190815260200160002081905550611bdd85600760008a73ffffffffffffffffffffffffffffffffffffffff1673ffffffffffffffffffffffffffffffffffffffff16815260200190815260200160002054611e5790919063ffffffff16565b600760008973ffffffffffffffffffffffffffffffffffffffff1673ffffffffffffffffffffffffffffffffffffffff168152602001908152602001600020819055506001600860008973ffffffffffffffffffffffffffffffffffffffff1673ffffffffffffffffffffffffffffffffffffffff168152602001908152602001600020600082825401925050819055505050505050505050565b611c80611e9c565b6000809050600080611c91856110c7565b846000019061ffff16908161ffff1681525050611cb36107b261ffff16611209565b611cc4856000015161ffff16611209565b039150816301e285000283019250816107b285600001510361ffff16036301e1338002830192506000600191505b600c8260ff16111515611d4a57611d0d828660000151611242565b60ff1662015180029050858482011115611d385781856020019060ff16908160ff1681525050611d4a565b80840193508180600101925050611cf2565b600191505b611d6185602001518660000151611242565b60ff168260ff16111515611da857858462015180011115611d935781856040019060ff16908160ff1681525050611da8565b62015180840193508180600101925050611d4f565b611db186610b70565b856060019060ff16908160ff1681525050611dcb866115c2565b856080019060ff16908160ff1681525050611de586610def565b8560a0019060ff16908160ff1681525050611dff86610d7b565b8560c0019060ff16908160ff168152505050505050919050565b600080831415611e2c5760009050611e51565b60008284029050828482811515611e3f57fe5b04141515611e4c57600080fd5b809150505b92915050565b6000808284019050838110151515611e6e57600080fd5b8091505092915050565b61018060405190810160405280600c90602082028038833980820191505090505090565b60e060405190810160405280600061ffff168152602001600060ff168152602001600060ff168152602001600060ff168152602001600060ff168152602001600060ff168152602001600060ff168152509056fe63616e206f6e6c792062652063616c6c6564206279207a6f6e65466163746f7279a165627a7a7230582066c4d16b033952be383b24b698d895083a797f0f8457a104d1f292e518ab47f10029",
  "source": "pragma solidity ^0.5.3;\n\nimport \"openzeppelin-solidity/contracts/math/SafeMath.sol\";\n\nimport \"../datetime/DateTime.sol\";\nimport \"../oracle/IExchangeRateOracle.sol\";\nimport \"../certifier/ICertifier.sol\";\nimport \"../map/IGeoRegistry.sol\";\nimport \"./IControl.sol\";\n\ncontract Users is DateTime {\n  // ------------------------------------------------\n  //\n  // Library init\n  //\n  // ------------------------------------------------\n\n  using SafeMath for uint;\n\n  // ------------------------------------------------\n  //\n  // Variables Public\n  //\n  // ------------------------------------------------\n\n  IExchangeRateOracle public priceOracle;\n  IGeoRegistry public geo;\n  ICertifier public smsCertifier;\n  ICertifier public kycCertifier;\n  IControl public control;\n\n  address public zoneFactoryAddress;\n\n  mapping(address => uint) public volumeBuy;\n  mapping(address => uint) public volumeSell;\n  mapping(address => uint) public nbTrade;\n\n  // per country, per user, per day, keep track of amount of eth sold (since we have max limits per country)\n  //\n  //      country           user               day               month             year      weiSold\n  mapping(bytes2 => mapping(address => mapping(uint16 => mapping(uint16 => mapping(uint16 => uint256))))) ethSellsUserToday;\n\n  // ------------------------------------------------\n  //\n  // Constructor\n  //\n  // ------------------------------------------------\n\n  constructor(address _priceOracle, address _geo, address _smsCertifier, address _kycCertifier, address _control)\n    public\n  {\n    priceOracle = IExchangeRateOracle(_priceOracle);\n    geo = IGeoRegistry(_geo);\n    smsCertifier = ICertifier(_smsCertifier);\n    kycCertifier = ICertifier(_kycCertifier);\n    control = IControl(_control);\n  }\n\n  // ------------------------------------------------\n  //\n  // Functions Setters\n  //\n  // ------------------------------------------------\n\n  function setZoneFactory(address _zoneFactory)\n    external\n  {\n    require(control.isCEO(msg.sender), \"can only be called by CEO\");\n    zoneFactoryAddress = _zoneFactory;\n  }\n\n  function updateDailySold(bytes2 _countryCode, address _from, address _to, uint _amount)\n    external\n  {\n    require(msg.sender == zoneFactoryAddress, \"can only be called by zoneFactory\");\n    // if country code or user does not exist, we get back 0\n    uint sellDailyLimitUsd = geo.countryTierDailyLimit(_countryCode, getUserTier(_from));\n    uint sellDailyLimitEth = priceOracle.getWeiPriceOneUsd().mul(sellDailyLimitUsd);\n    _DateTime memory dateNow = parseTimestamp(block.timestamp);\n    uint newSoldTodayEth = ethSellsUserToday[_countryCode][_from][dateNow.day][dateNow.month][dateNow.year].add(_amount);\n    require(newSoldTodayEth <= sellDailyLimitEth, \"exceeded daily sell limit\");\n    ethSellsUserToday[_countryCode][_from][dateNow.day][dateNow.month][dateNow.year] = newSoldTodayEth;\n\n    volumeBuy[_to] = volumeBuy[_to].add(_amount);\n    volumeSell[_from] = volumeSell[_from].add(_amount);\n    nbTrade[_from] += 1;\n  }\n\n  // ------------------------------------------------\n  //\n  // Functions Getters\n  //\n  // ------------------------------------------------\n\n  function getUserTier(address _who)\n    public\n    view\n    returns (uint foundTier)\n  {\n    foundTier = 0;\n    if (kycCertifier.certified(_who)) foundTier = 2;\n    else if (smsCertifier.certified(_who)) foundTier = 1;\n  }\n\n  function getDateInfo(uint timestamp)\n    external\n    pure\n    returns (uint16, uint16, uint16)\n  {\n    _DateTime memory date = parseTimestamp(timestamp);\n    return (date.day, date.month, date.year);\n  }\n}",
  "sourcePath": "/Users/trip/Projects/detherContracts/contracts/core/Users.sol",
  "compiler": {
    "name": "solc",
    "version": "0.5.3+commit.10d17f24.Emscripten.clang"
  },
  "schemaVersion": "3.0.1",
  "updatedAt": "2019-02-11T00:01:36.258Z",
  "devdoc": {
    "methods": {}
  },
  "userdoc": {
    "methods": {}
  }
}