{
  "contractName": "Users",
  "abi": [
    {
      "constant": true,
      "inputs": [],
      "name": "zoneFactoryAddress",
      "outputs": [
        {
          "name": "",
          "type": "address"
        }
      ],
      "payable": false,
      "stateMutability": "view",
      "type": "function"
    },
    {
      "constant": true,
      "inputs": [],
      "name": "kycCertifier",
      "outputs": [
        {
          "name": "",
          "type": "address"
        }
      ],
      "payable": false,
      "stateMutability": "view",
      "type": "function"
    },
    {
      "constant": true,
      "inputs": [
        {
          "name": "",
          "type": "address"
        }
      ],
      "name": "userTiers",
      "outputs": [
        {
          "name": "",
          "type": "int8"
        }
      ],
      "payable": false,
      "stateMutability": "view",
      "type": "function"
    },
    {
      "constant": true,
      "inputs": [],
      "name": "priceOracle",
      "outputs": [
        {
          "name": "",
          "type": "address"
        }
      ],
      "payable": false,
      "stateMutability": "view",
      "type": "function"
    },
    {
      "constant": true,
      "inputs": [],
      "name": "smsCertifier",
      "outputs": [
        {
          "name": "",
          "type": "address"
        }
      ],
      "payable": false,
      "stateMutability": "view",
      "type": "function"
    },
    {
      "constant": true,
      "inputs": [
        {
          "name": "timestamp",
          "type": "uint256"
        }
      ],
      "name": "getHour",
      "outputs": [
        {
          "name": "",
          "type": "uint8"
        }
      ],
      "payable": false,
      "stateMutability": "pure",
      "type": "function"
    },
    {
      "constant": true,
      "inputs": [
        {
          "name": "",
          "type": "address"
        }
      ],
      "name": "volumeSell",
      "outputs": [
        {
          "name": "",
          "type": "uint256"
        }
      ],
      "payable": false,
      "stateMutability": "view",
      "type": "function"
    },
    {
      "constant": true,
      "inputs": [
        {
          "name": "",
          "type": "address"
        }
      ],
      "name": "nbTrade",
      "outputs": [
        {
          "name": "",
          "type": "uint256"
        }
      ],
      "payable": false,
      "stateMutability": "view",
      "type": "function"
    },
    {
      "constant": true,
      "inputs": [
        {
          "name": "timestamp",
          "type": "uint256"
        }
      ],
      "name": "getWeekday",
      "outputs": [
        {
          "name": "",
          "type": "uint8"
        }
      ],
      "payable": false,
      "stateMutability": "pure",
      "type": "function"
    },
    {
      "constant": true,
      "inputs": [],
      "name": "certifierRegistry",
      "outputs": [
        {
          "name": "",
          "type": "address"
        }
      ],
      "payable": false,
      "stateMutability": "view",
      "type": "function"
    },
    {
      "constant": true,
      "inputs": [
        {
          "name": "year",
          "type": "uint16"
        },
        {
          "name": "month",
          "type": "uint8"
        },
        {
          "name": "day",
          "type": "uint8"
        },
        {
          "name": "hour",
          "type": "uint8"
        },
        {
          "name": "minute",
          "type": "uint8"
        }
      ],
      "name": "toTimestamp",
      "outputs": [
        {
          "name": "timestamp",
          "type": "uint256"
        }
      ],
      "payable": false,
      "stateMutability": "pure",
      "type": "function"
    },
    {
      "constant": true,
      "inputs": [
        {
          "name": "timestamp",
          "type": "uint256"
        }
      ],
      "name": "getDay",
      "outputs": [
        {
          "name": "",
          "type": "uint8"
        }
      ],
      "payable": false,
      "stateMutability": "pure",
      "type": "function"
    },
    {
      "constant": true,
      "inputs": [
        {
          "name": "year",
          "type": "uint16"
        },
        {
          "name": "month",
          "type": "uint8"
        },
        {
          "name": "day",
          "type": "uint8"
        },
        {
          "name": "hour",
          "type": "uint8"
        }
      ],
      "name": "toTimestamp",
      "outputs": [
        {
          "name": "timestamp",
          "type": "uint256"
        }
      ],
      "payable": false,
      "stateMutability": "pure",
      "type": "function"
    },
    {
      "constant": true,
      "inputs": [
        {
          "name": "timestamp",
          "type": "uint256"
        }
      ],
      "name": "getSecond",
      "outputs": [
        {
          "name": "",
          "type": "uint8"
        }
      ],
      "payable": false,
      "stateMutability": "pure",
      "type": "function"
    },
    {
      "constant": true,
      "inputs": [
        {
          "name": "year",
          "type": "uint16"
        },
        {
          "name": "month",
          "type": "uint8"
        },
        {
          "name": "day",
          "type": "uint8"
        }
      ],
      "name": "toTimestamp",
      "outputs": [
        {
          "name": "timestamp",
          "type": "uint256"
        }
      ],
      "payable": false,
      "stateMutability": "pure",
      "type": "function"
    },
    {
      "constant": true,
      "inputs": [
        {
          "name": "year",
          "type": "uint16"
        },
        {
          "name": "month",
          "type": "uint8"
        },
        {
          "name": "day",
          "type": "uint8"
        },
        {
          "name": "hour",
          "type": "uint8"
        },
        {
          "name": "minute",
          "type": "uint8"
        },
        {
          "name": "second",
          "type": "uint8"
        }
      ],
      "name": "toTimestamp",
      "outputs": [
        {
          "name": "timestamp",
          "type": "uint256"
        }
      ],
      "payable": false,
      "stateMutability": "pure",
      "type": "function"
    },
    {
      "constant": true,
      "inputs": [
        {
          "name": "timestamp",
          "type": "uint256"
        }
      ],
      "name": "getYear",
      "outputs": [
        {
          "name": "",
          "type": "uint16"
        }
      ],
      "payable": false,
      "stateMutability": "pure",
      "type": "function"
    },
    {
      "constant": true,
      "inputs": [
        {
          "name": "timestamp",
          "type": "uint256"
        }
      ],
      "name": "getMonth",
      "outputs": [
        {
          "name": "",
          "type": "uint8"
        }
      ],
      "payable": false,
      "stateMutability": "pure",
      "type": "function"
    },
    {
      "constant": true,
      "inputs": [
        {
          "name": "year",
          "type": "uint16"
        }
      ],
      "name": "isLeapYear",
      "outputs": [
        {
          "name": "",
          "type": "bool"
        }
      ],
      "payable": false,
      "stateMutability": "pure",
      "type": "function"
    },
    {
      "constant": true,
      "inputs": [
        {
          "name": "year",
          "type": "uint256"
        }
      ],
      "name": "leapYearsBefore",
      "outputs": [
        {
          "name": "",
          "type": "uint256"
        }
      ],
      "payable": false,
      "stateMutability": "pure",
      "type": "function"
    },
    {
      "constant": true,
      "inputs": [
        {
          "name": "month",
          "type": "uint8"
        },
        {
          "name": "year",
          "type": "uint16"
        }
      ],
      "name": "getDaysInMonth",
      "outputs": [
        {
          "name": "",
          "type": "uint8"
        }
      ],
      "payable": false,
      "stateMutability": "pure",
      "type": "function"
    },
    {
      "constant": true,
      "inputs": [],
      "name": "control",
      "outputs": [
        {
          "name": "",
          "type": "address"
        }
      ],
      "payable": false,
      "stateMutability": "view",
      "type": "function"
    },
    {
      "constant": true,
      "inputs": [],
      "name": "geo",
      "outputs": [
        {
          "name": "",
          "type": "address"
        }
      ],
      "payable": false,
      "stateMutability": "view",
      "type": "function"
    },
    {
      "constant": true,
      "inputs": [
        {
          "name": "",
          "type": "address"
        }
      ],
      "name": "volumeBuy",
      "outputs": [
        {
          "name": "",
          "type": "uint256"
        }
      ],
      "payable": false,
      "stateMutability": "view",
      "type": "function"
    },
    {
      "constant": true,
      "inputs": [
        {
          "name": "",
          "type": "int8"
        }
      ],
      "name": "tierDailyLimit",
      "outputs": [
        {
          "name": "",
          "type": "uint256"
        }
      ],
      "payable": false,
      "stateMutability": "view",
      "type": "function"
    },
    {
      "constant": true,
      "inputs": [
        {
          "name": "timestamp",
          "type": "uint256"
        }
      ],
      "name": "getMinute",
      "outputs": [
        {
          "name": "",
          "type": "uint8"
        }
      ],
      "payable": false,
      "stateMutability": "pure",
      "type": "function"
    },
    {
      "inputs": [
        {
          "name": "_priceOracle",
          "type": "address"
        },
        {
          "name": "_geo",
          "type": "address"
        },
        {
          "name": "_smsCertifier",
          "type": "address"
        },
        {
          "name": "_kycCertifier",
          "type": "address"
        },
        {
          "name": "_control",
          "type": "address"
        },
        {
          "name": "_certifierRegistry",
          "type": "address"
        }
      ],
      "payable": false,
      "stateMutability": "nonpayable",
      "type": "constructor"
    },
    {
      "constant": false,
      "inputs": [
        {
          "name": "_zoneFactory",
          "type": "address"
        }
      ],
      "name": "setZoneFactory",
      "outputs": [],
      "payable": false,
      "stateMutability": "nonpayable",
      "type": "function"
    },
    {
      "constant": false,
      "inputs": [
        {
          "name": "_who",
          "type": "address"
        },
        {
          "name": "_num",
          "type": "int8"
        }
      ],
      "name": "setUserTier",
      "outputs": [],
      "payable": false,
      "stateMutability": "nonpayable",
      "type": "function"
    },
    {
      "constant": false,
      "inputs": [
        {
          "name": "_num",
          "type": "int8"
        }
      ],
      "name": "modifyUserTier",
      "outputs": [],
      "payable": false,
      "stateMutability": "nonpayable",
      "type": "function"
    },
    {
      "constant": false,
      "inputs": [
        {
          "name": "_countryCode",
          "type": "bytes2"
        },
        {
          "name": "_from",
          "type": "address"
        },
        {
          "name": "_to",
          "type": "address"
        },
        {
          "name": "_amount",
          "type": "uint256"
        }
      ],
      "name": "updateDailySold",
      "outputs": [],
      "payable": false,
      "stateMutability": "nonpayable",
      "type": "function"
    },
    {
      "constant": true,
      "inputs": [
        {
          "name": "_who",
          "type": "address"
        }
      ],
      "name": "getCertifications",
      "outputs": [
        {
          "components": [
            {
              "name": "certifier",
              "type": "address"
            },
            {
              "name": "ref",
              "type": "int8"
            },
            {
              "name": "timestamp",
              "type": "uint256"
            }
          ],
          "name": "",
          "type": "tuple[]"
        }
      ],
      "payable": false,
      "stateMutability": "view",
      "type": "function"
    },
    {
      "constant": true,
      "inputs": [
        {
          "name": "timestamp",
          "type": "uint256"
        }
      ],
      "name": "getDateInfo",
      "outputs": [
        {
          "name": "",
          "type": "uint16"
        },
        {
          "name": "",
          "type": "uint16"
        },
        {
          "name": "",
          "type": "uint16"
        }
      ],
      "payable": false,
      "stateMutability": "pure",
      "type": "function"
    }
  ],
  "bytecode": "0x60806040523480156200001157600080fd5b5060405160c08062002bee833981018060405262000033919081019062000235565b856000806101000a81548173ffffffffffffffffffffffffffffffffffffffff021916908373ffffffffffffffffffffffffffffffffffffffff16021790555084600160006101000a81548173ffffffffffffffffffffffffffffffffffffffff021916908373ffffffffffffffffffffffffffffffffffffffff16021790555083600260006101000a81548173ffffffffffffffffffffffffffffffffffffffff021916908373ffffffffffffffffffffffffffffffffffffffff16021790555082600360006101000a81548173ffffffffffffffffffffffffffffffffffffffff021916908373ffffffffffffffffffffffffffffffffffffffff16021790555080600460006101000a81548173ffffffffffffffffffffffffffffffffffffffff021916908373ffffffffffffffffffffffffffffffffffffffff16021790555081600560006101000a81548173ffffffffffffffffffffffffffffffffffffffff021916908373ffffffffffffffffffffffffffffffffffffffff1602179055506103e8600b6000600160000b815260200190815260200160002081905550612710600b6000600260000b815260200190815260200160002081905550620f4240600b6000600360000b815260200190815260200160002081905550505050505050620002ff565b60006200022d8251620002cb565b905092915050565b60008060008060008060c087890312156200024f57600080fd5b60006200025f89828a016200021f565b96505060206200027289828a016200021f565b95505060406200028589828a016200021f565b94505060606200029889828a016200021f565b9350506080620002ab89828a016200021f565b92505060a0620002be89828a016200021f565b9150509295509295509295565b6000620002d882620002df565b9050919050565b600073ffffffffffffffffffffffffffffffffffffffff82169050919050565b6128df806200030f6000396000f3fe608060405234801561001057600080fd5b506004361061020d576000357c0100000000000000000000000000000000000000000000000000000000900480638aa001fc1161012c578063b238ad0e116100bf578063dc2de4fa1161008e578063dc2de4fa1461069a578063eb6bc961146106ca578063fa93f883146106fa578063fb89df531461072a5761020d565b8063b238ad0e146105fc578063c34c6b931461062c578063d8de65871461065e578063d944e6a31461067c5761020d565b8063a324ad24116100fb578063a324ad2414610550578063a6f0e57714610580578063aec4f994146105b0578063b1999937146105cc5761020d565b80638aa001fc146104905780638c8d98a0146104c05780639054bdec146104f057806392d66313146105205761020d565b8063475e4654116101a457806365c728401161017357806365c72840146103e4578063677cc291146104145780637f79183314610444578063894e3c29146104745761020d565b8063475e4654146103365780634ac1ad78146103665780635b6ba8cc1461039657806362ba9687146103b45761020d565b806330a55316116101e057806330a553161461029c5780633e239e1a146102ba57806341d0d30f146102ea5780634753dc4f1461031a5761020d565b806303c77f24146102125780630d46f91a1461023057806324063c821461024e5780632630c12f1461027e575b600080fd5b61021a610746565b60405161022791906123d6565b60405180910390f35b61023861076c565b6040516102459190612464565b60405180910390f35b61026860048036036102639190810190611cf1565b610792565b60405161027591906124d0565b60405180910390f35b6102866107b2565b604051610293919061249a565b60405180910390f35b6102a46107d7565b6040516102b19190612464565b60405180910390f35b6102d460048036036102cf9190810190612027565b6107fd565b6040516102e191906125f8565b60405180910390f35b61030460048036036102ff9190810190611cf1565b61082a565b60405161031191906125dd565b60405180910390f35b610334600480360361032f9190810190611cf1565b610842565b005b610350600480360361034b9190810190611cf1565b61098e565b60405161035d91906125dd565b60405180910390f35b610380600480360361037b9190810190612027565b6109a6565b60405161038d91906125f8565b60405180910390f35b61039e6109cd565b6040516103ab9190612449565b60405180910390f35b6103ce60048036036103c99190810190611f27565b6109f3565b6040516103db91906125dd565b60405180910390f35b6103fe60048036036103f99190810190612027565b610a0f565b60405161040b91906125f8565b60405180910390f35b61042e60048036036104299190810190611cf1565b610a25565b60405161043b919061240c565b60405180910390f35b61045e60048036036104599190810190611ec4565b610afa565b60405161046b91906125dd565b60405180910390f35b61048e60048036036104899190810190611d1a565b610b15565b005b6104aa60048036036104a59190810190612027565b610c06565b6040516104b791906125f8565b60405180910390f35b6104da60048036036104d59190810190611e75565b610c1c565b6040516104e791906125dd565b60405180910390f35b61050a60048036036105059190810190611f9e565b610c37565b60405161051791906125dd565b60405180910390f35b61053a60048036036105359190810190612027565b610ede565b604051610547919061258b565b60405180910390f35b61056a60048036036105659190810190612027565b610f89565b60405161057791906125f8565b60405180910390f35b61059a60048036036105959190810190611e4c565b610f9f565b6040516105a7919061242e565b60405180910390f35b6105ca60048036036105c59190810190611e23565b611020565b005b6105e660048036036105e19190810190612027565b61115a565b6040516105f391906125dd565b60405180910390f35b61061660048036036106119190810190612079565b611193565b60405161062391906125f8565b60405180910390f35b61064660048036036106419190810190612027565b61125f565b604051610655939291906125a6565b60405180910390f35b6106666112a0565b604051610673919061247f565b60405180910390f35b6106846112c6565b60405161069191906124b5565b60405180910390f35b6106b460048036036106af9190810190611cf1565b6112ec565b6040516106c191906125dd565b60405180910390f35b6106e460048036036106df9190810190611e23565b611304565b6040516106f191906125dd565b60405180910390f35b610714600480360361070f9190810190612027565b61131c565b60405161072191906125f8565b60405180910390f35b610744600480360361073f9190810190611dc0565b61133d565b005b600660009054906101000a900473ffffffffffffffffffffffffffffffffffffffff1681565b600360009054906101000a900473ffffffffffffffffffffffffffffffffffffffff1681565b600a6020528060005260406000206000915054906101000a900460000b81565b6000809054906101000a900473ffffffffffffffffffffffffffffffffffffffff1681565b600260009054906101000a900473ffffffffffffffffffffffffffffffffffffffff1681565b60006018603c808481151561080e57fe5b0481151561081857fe5b0481151561082257fe5b069050919050565b60086020528060005260406000206000915090505481565b600560009054906101000a900473ffffffffffffffffffffffffffffffffffffffff1673ffffffffffffffffffffffffffffffffffffffff16638900bd22336040518263ffffffff167c01000000000000000000000000000000000000000000000000000000000281526004016108b991906123f1565b60206040518083038186803b1580156108d157600080fd5b505afa1580156108e5573d6000803e3d6000fd5b505050506040513d601f19601f820116820180604052506109099190810190611d97565b151561094a576040517f08c379a00000000000000000000000000000000000000000000000000000000081526004016109419061252b565b60405180910390fd5b80600660006101000a81548173ffffffffffffffffffffffffffffffffffffffff021916908373ffffffffffffffffffffffffffffffffffffffff16021790555050565b60096020528060005260406000206000915090505481565b60006007600462015180848115156109ba57fe5b04018115156109c557fe5b069050919050565b600460009054906101000a900473ffffffffffffffffffffffffffffffffffffffff1681565b6000610a0486868686866000610c37565b905095945050505050565b6000610a1a826118ce565b604001519050919050565b6060600460009054906101000a900473ffffffffffffffffffffffffffffffffffffffff1673ffffffffffffffffffffffffffffffffffffffff1663d1a7a8fb836040518263ffffffff167c0100000000000000000000000000000000000000000000000000000000028152600401610a9e91906123d6565b60006040518083038186803b158015610ab657600080fd5b505afa158015610aca573d6000803e3d6000fd5b505050506040513d6000823e3d601f19601f82011682018060405250610af39190810190611d56565b9050919050565b6000610b0b85858585600080610c37565b9050949350505050565b600660009054906101000a900473ffffffffffffffffffffffffffffffffffffffff1673ffffffffffffffffffffffffffffffffffffffff163373ffffffffffffffffffffffffffffffffffffffff16141515610ba7576040517f08c379a0000000000000000000000000000000000000000000000000000000008152600401610b9e9061256b565b60405180910390fd5b80600a60008473ffffffffffffffffffffffffffffffffffffffff1673ffffffffffffffffffffffffffffffffffffffff16815260200190815260200160002060006101000a81548160ff021916908360000b60ff1602179055505050565b6000603c82811515610c1457fe5b069050919050565b6000610c2e8484846000806000610c37565b90509392505050565b6000806107b290505b8761ffff168161ffff161015610c8357610c5981610f9f565b15610c6c576301e2850082019150610c76565b6301e13380820191505b8080600101915050610c40565b610c8b611ace565b601f816000600c81101515610c9c57fe5b602002019060ff16908160ff1681525050610cb689610f9f565b15610ce257601d816001600c81101515610ccc57fe5b602002019060ff16908160ff1681525050610d05565b601c816001600c81101515610cf357fe5b602002019060ff16908160ff16815250505b601f816002600c81101515610d1657fe5b602002019060ff16908160ff1681525050601e816003600c81101515610d3857fe5b602002019060ff16908160ff1681525050601f816004600c81101515610d5a57fe5b602002019060ff16908160ff1681525050601e816005600c81101515610d7c57fe5b602002019060ff16908160ff1681525050601f816006600c81101515610d9e57fe5b602002019060ff16908160ff1681525050601f816007600c81101515610dc057fe5b602002019060ff16908160ff1681525050601e816008600c81101515610de257fe5b602002019060ff16908160ff1681525050601f816009600c81101515610e0457fe5b602002019060ff16908160ff1681525050601e81600a600c81101515610e2657fe5b602002019060ff16908160ff1681525050601f81600b600c81101515610e4857fe5b602002019060ff16908160ff1681525050600191505b8760ff168261ffff161015610ea057806001830361ffff16600c81101515610e8257fe5b602002015160ff166201518002830192508180600101925050610e5e565b6001870360ff166201518002830192508560ff16610e1002830192508460ff16603c02830192508360ff168301925082925050509695505050505050565b600080600090506000806301e1338085811515610ef757fe5b046107b261ffff16019150610f116107b261ffff1661115a565b610f1e8361ffff1661115a565b039050806301e285000283019250806107b2830361ffff16036301e1338002830192505b84831115610f7e57610f5660018303610f9f565b15610f69576301e2850083039250610f73565b6301e13380830392505b600182039150610f42565b819350505050919050565b6000610f94826118ce565b602001519050919050565b60008060048361ffff16811515610fb257fe5b0661ffff16141515610fc7576000905061101b565b600060648361ffff16811515610fd957fe5b0661ffff16141515610fee576001905061101b565b60006101908361ffff1681151561100157fe5b0661ffff16141515611016576000905061101b565b600190505b919050565b6000600a60003373ffffffffffffffffffffffffffffffffffffffff1673ffffffffffffffffffffffffffffffffffffffff16815260200190815260200160002060009054906101000a900460000b60000b1315156110b4576040517f08c379a00000000000000000000000000000000000000000000000000000000081526004016110ab9061254b565b60405180910390fd5b60008160000b1315156110fc576040517f08c379a00000000000000000000000000000000000000000000000000000000081526004016110f3906124eb565b60405180910390fd5b80600a60003373ffffffffffffffffffffffffffffffffffffffff1673ffffffffffffffffffffffffffffffffffffffff16815260200190815260200160002060006101000a81548160ff021916908360000b60ff16021790555050565b60006001820391506101908281151561116f57fe5b0460648381151561117c57fe5b0460048481151561118957fe5b0403019050919050565b600060018360ff1614806111aa575060038360ff16145b806111b8575060058360ff16145b806111c6575060078360ff16145b806111d4575060088360ff16145b806111e25750600a8360ff16145b806111f05750600c8360ff16145b156111fe57601f9050611259565b60048360ff161480611213575060068360ff16145b80611221575060098360ff16145b8061122f5750600b8360ff16145b1561123d57601e9050611259565b61124682610f9f565b1561125457601d9050611259565b601c90505b92915050565b600080600061126c611af1565b611275856118ce565b90508060400151816020015182600001518260ff1692508160ff169150935093509350509193909250565b600560009054906101000a900473ffffffffffffffffffffffffffffffffffffffff1681565b600160009054906101000a900473ffffffffffffffffffffffffffffffffffffffff1681565b60076020528060005260406000206000915090505481565b600b6020528060005260406000206000915090505481565b6000603c808381151561132b57fe5b0481151561133557fe5b069050919050565b600660009054906101000a900473ffffffffffffffffffffffffffffffffffffffff1673ffffffffffffffffffffffffffffffffffffffff163373ffffffffffffffffffffffffffffffffffffffff161415156113cf576040517f08c379a00000000000000000000000000000000000000000000000000000000081526004016113c69061256b565b60405180910390fd5b6000600b6000600a60008773ffffffffffffffffffffffffffffffffffffffff1673ffffffffffffffffffffffffffffffffffffffff16815260200190815260200160002060009054906101000a900460000b60000b60000b81526020019081526020016000205490506000611508826000809054906101000a900473ffffffffffffffffffffffffffffffffffffffff1673ffffffffffffffffffffffffffffffffffffffff166350ccf36b6040518163ffffffff167c010000000000000000000000000000000000000000000000000000000002815260040160206040518083038186803b1580156114c257600080fd5b505afa1580156114d6573d6000803e3d6000fd5b505050506040513d601f19601f820116820180604052506114fa9190810190612050565b611a6f90919063ffffffff16565b9050611512611af1565b61151b426118ce565b9050600061161985600c60008b7dffffffffffffffffffffffffffffffffffffffffffffffffffffffffffff19167dffffffffffffffffffffffffffffffffffffffffffffffffffffffffffff1916815260200190815260200160002060008a73ffffffffffffffffffffffffffffffffffffffff1673ffffffffffffffffffffffffffffffffffffffff1681526020019081526020016000206000856040015160ff1661ffff1681526020019081526020016000206000856020015160ff1661ffff1681526020019081526020016000206000856000015161ffff1661ffff16815260200190815260200160002054611aad90919063ffffffff16565b9050828111151515611660576040517f08c379a00000000000000000000000000000000000000000000000000000000081526004016116579061250b565b60405180910390fd5b80600c60008a7dffffffffffffffffffffffffffffffffffffffffffffffffffffffffffff19167dffffffffffffffffffffffffffffffffffffffffffffffffffffffffffff1916815260200190815260200160002060008973ffffffffffffffffffffffffffffffffffffffff1673ffffffffffffffffffffffffffffffffffffffff1681526020019081526020016000206000846040015160ff1661ffff1681526020019081526020016000206000846020015160ff1661ffff1681526020019081526020016000206000846000015161ffff1661ffff1681526020019081526020016000208190555061179e85600760008973ffffffffffffffffffffffffffffffffffffffff1673ffffffffffffffffffffffffffffffffffffffff16815260200190815260200160002054611aad90919063ffffffff16565b600760008873ffffffffffffffffffffffffffffffffffffffff1673ffffffffffffffffffffffffffffffffffffffff1681526020019081526020016000208190555061183385600860008a73ffffffffffffffffffffffffffffffffffffffff1673ffffffffffffffffffffffffffffffffffffffff16815260200190815260200160002054611aad90919063ffffffff16565b600860008973ffffffffffffffffffffffffffffffffffffffff1673ffffffffffffffffffffffffffffffffffffffff168152602001908152602001600020819055506001600960008973ffffffffffffffffffffffffffffffffffffffff1673ffffffffffffffffffffffffffffffffffffffff168152602001908152602001600020600082825401925050819055505050505050505050565b6118d6611af1565b60008090506000806118e785610ede565b846000019061ffff16908161ffff16815250506119096107b261ffff1661115a565b61191a856000015161ffff1661115a565b039150816301e285000283019250816107b285600001510361ffff16036301e1338002830192506000600191505b600c8260ff161115156119a057611963828660000151611193565b60ff166201518002905085848201111561198e5781856020019060ff16908160ff16815250506119a0565b80840193508180600101925050611948565b600191505b6119b785602001518660000151611193565b60ff168260ff161115156119fe578584620151800111156119e95781856040019060ff16908160ff16815250506119fe565b620151808401935081806001019250506119a5565b611a07866107fd565b856060019060ff16908160ff1681525050611a218661131c565b856080019060ff16908160ff1681525050611a3b86610c06565b8560a0019060ff16908160ff1681525050611a55866109a6565b8560c0019060ff16908160ff168152505050505050919050565b600080831415611a825760009050611aa7565b60008284029050828482811515611a9557fe5b04141515611aa257600080fd5b809150505b92915050565b6000808284019050838110151515611ac457600080fd5b8091505092915050565b604051806101800160405280600c90602082028038833980820191505090505090565b6040518060e00160405280600061ffff168152602001600060ff168152602001600060ff168152602001600060ff168152602001600060ff168152602001600060ff168152602001600060ff1681525090565b6000611b50823561271f565b905092915050565b6000611b64825161271f565b905092915050565b600082601f8301121515611b7f57600080fd5b8151611b92611b8d82612640565b612613565b91508181835260208401935060208101905083856060840282011115611bb757600080fd5b60005b83811015611be75781611bcd8882611c41565b845260208401935060608301925050600181019050611bba565b5050505092915050565b6000611bfd8251612731565b905092915050565b6000611c11823561273d565b905092915050565b6000611c258235612769565b905092915050565b6000611c398251612769565b905092915050565b600060608284031215611c5357600080fd5b611c5d6060612613565b90506000611c6d84828501611b58565b6000830152506020611c8184828501611c2d565b6020830152506040611c9584828501611cc9565b60408301525092915050565b6000611cad8235612776565b905092915050565b6000611cc182356127a4565b905092915050565b6000611cd582516127a4565b905092915050565b6000611ce982356127ae565b905092915050565b600060208284031215611d0357600080fd5b6000611d1184828501611b44565b91505092915050565b60008060408385031215611d2d57600080fd5b6000611d3b85828601611b44565b9250506020611d4c85828601611c19565b9150509250929050565b600060208284031215611d6857600080fd5b600082015167ffffffffffffffff811115611d8257600080fd5b611d8e84828501611b6c565b91505092915050565b600060208284031215611da957600080fd5b6000611db784828501611bf1565b91505092915050565b60008060008060808587031215611dd657600080fd5b6000611de487828801611c05565b9450506020611df587828801611b44565b9350506040611e0687828801611b44565b9250506060611e1787828801611cb5565b91505092959194509250565b600060208284031215611e3557600080fd5b6000611e4384828501611c19565b91505092915050565b600060208284031215611e5e57600080fd5b6000611e6c84828501611ca1565b91505092915050565b600080600060608486031215611e8a57600080fd5b6000611e9886828701611ca1565b9350506020611ea986828701611cdd565b9250506040611eba86828701611cdd565b9150509250925092565b60008060008060808587031215611eda57600080fd5b6000611ee887828801611ca1565b9450506020611ef987828801611cdd565b9350506040611f0a87828801611cdd565b9250506060611f1b87828801611cdd565b91505092959194509250565b600080600080600060a08688031215611f3f57600080fd5b6000611f4d88828901611ca1565b9550506020611f5e88828901611cdd565b9450506040611f6f88828901611cdd565b9350506060611f8088828901611cdd565b9250506080611f9188828901611cdd565b9150509295509295909350565b60008060008060008060c08789031215611fb757600080fd5b6000611fc589828a01611ca1565b9650506020611fd689828a01611cdd565b9550506040611fe789828a01611cdd565b9450506060611ff889828a01611cdd565b935050608061200989828a01611cdd565b92505060a061201a89828a01611cdd565b9150509295509295509295565b60006020828403121561203957600080fd5b600061204784828501611cb5565b91505092915050565b60006020828403121561206257600080fd5b600061207084828501611cc9565b91505092915050565b6000806040838503121561208c57600080fd5b600061209a85828601611cdd565b92505060206120ab85828601611ca1565b9150509250929050565b60006120c18383612358565b60608301905092915050565b6120d6816127bb565b82525050565b6120e5816126af565b82525050565b6120f4816126af565b82525050565b600061210582612675565b61210f818561268d565b935061211a83612668565b60005b82811015612148576121308683516120b5565b955061213b82612680565b915060018101905061211d565b50849250505092915050565b61215d816126c1565b82525050565b61216c816127cd565b82525050565b61217b816127f1565b82525050565b61218a81612815565b82525050565b61219981612839565b82525050565b6121a88161285d565b82525050565b6121b7816126cd565b82525050565b6121c6816126cd565b82525050565b60006121d9601d8361269e565b91507f746965722073686f756c642062652067726561746572207468616e20300000006000830152602082019050919050565b600061221960198361269e565b91507f6578636565646564206461696c792073656c6c206c696d6974000000000000006000830152602082019050919050565b600061225960198361269e565b91507f63616e206f6e6c792062652063616c6c65642062792043454f000000000000006000830152602082019050919050565b600061229960268361269e565b91507f63616e206f6e6c792062652063616c6c656420627920616e206578697374696e60008301527f67207573657200000000000000000000000000000000000000000000000000006020830152604082019050919050565b60006122ff60218361269e565b91507f63616e206f6e6c792062652063616c6c6564206279207a6f6e65466163746f7260008301527f79000000000000000000000000000000000000000000000000000000000000006020830152604082019050919050565b60608201600082015161236e60008501826120dc565b50602082015161238160208501826121ae565b50604082015161239460408501826123a9565b50505050565b6123a3816126da565b82525050565b6123b281612708565b82525050565b6123c181612708565b82525050565b6123d081612712565b82525050565b60006020820190506123eb60008301846120eb565b92915050565b600060208201905061240660008301846120cd565b92915050565b6000602082019050818103600083015261242681846120fa565b905092915050565b60006020820190506124436000830184612154565b92915050565b600060208201905061245e6000830184612163565b92915050565b60006020820190506124796000830184612172565b92915050565b60006020820190506124946000830184612181565b92915050565b60006020820190506124af6000830184612190565b92915050565b60006020820190506124ca600083018461219f565b92915050565b60006020820190506124e560008301846121bd565b92915050565b60006020820190508181036000830152612504816121cc565b9050919050565b600060208201905081810360008301526125248161220c565b9050919050565b600060208201905081810360008301526125448161224c565b9050919050565b600060208201905081810360008301526125648161228c565b9050919050565b60006020820190508181036000830152612584816122f2565b9050919050565b60006020820190506125a0600083018461239a565b92915050565b60006060820190506125bb600083018661239a565b6125c8602083018561239a565b6125d5604083018461239a565b949350505050565b60006020820190506125f260008301846123b8565b92915050565b600060208201905061260d60008301846123c7565b92915050565b6000604051905081810181811067ffffffffffffffff8211171561263657600080fd5b8060405250919050565b600067ffffffffffffffff82111561265757600080fd5b602082029050602081019050919050565b6000602082019050919050565b600081519050919050565b6000602082019050919050565b600082825260208201905092915050565b600082825260208201905092915050565b60006126ba826126e8565b9050919050565b60008115159050919050565b60008160000b9050919050565b600061ffff82169050919050565b600073ffffffffffffffffffffffffffffffffffffffff82169050919050565b6000819050919050565b600060ff82169050919050565b600061272a82612784565b9050919050565b60008115159050919050565b60007fffff00000000000000000000000000000000000000000000000000000000000082169050919050565b60008160000b9050919050565b600061ffff82169050919050565b600073ffffffffffffffffffffffffffffffffffffffff82169050919050565b6000819050919050565b600060ff82169050919050565b60006127c682612881565b9050919050565b60006127d8826127df565b9050919050565b60006127ea826126e8565b9050919050565b60006127fc82612803565b9050919050565b600061280e826126e8565b9050919050565b600061282082612827565b9050919050565b6000612832826126e8565b9050919050565b60006128448261284b565b9050919050565b6000612856826126e8565b9050919050565b60006128688261286f565b9050919050565b600061287a826126e8565b9050919050565b600061288c82612893565b9050919050565b600061289e826126e8565b905091905056fea265627a7a72305820311a1480b90fcedfb8a0bed3df41418abe115c2476df22e9243f9132d35995b96c6578706572696d656e74616cf50037",
  "source": "pragma solidity ^0.5.5;\npragma experimental ABIEncoderV2;\n\nimport \"openzeppelin-solidity/contracts/math/SafeMath.sol\";\n\nimport \"../datetime/DateTime.sol\";\n\nimport \"../interfaces/IExchangeRateOracle.sol\";\nimport \"../interfaces/ICertifier.sol\";\nimport \"../interfaces/IGeoRegistry.sol\";\nimport \"../interfaces/IControl.sol\";\nimport \"../interfaces/ICertifierRegistry.sol\";\n\ncontract Users is DateTime {\n  // ------------------------------------------------\n  //\n  // Library init\n  //\n  // ------------------------------------------------\n\n  using SafeMath for uint;\n\n  // ------------------------------------------------\n  //\n  // Variables Public\n  //\n  // ------------------------------------------------\n\n  IExchangeRateOracle public priceOracle;\n  IGeoRegistry public geo;\n  ICertifier public smsCertifier;\n  ICertifier public kycCertifier;\n  ICertifierRegistry public certifierRegistry;\n  IControl public control;\n\n\n  address public zoneFactoryAddress;\n\n  mapping(address => uint) public volumeBuy;\n  mapping(address => uint) public volumeSell;\n  mapping(address => uint) public nbTrade;\n\n  mapping(address => int8) public userTiers;\n  mapping(int8 => uint) public tierDailyLimit;\n\n  // per country, per user, per day, keep track of amount of eth sold (since we have max limits per country)\n  //\n  //      country           user               day               month             year      weiSold\n  mapping(bytes2 => mapping(address => mapping(uint16 => mapping(uint16 => mapping(uint16 => uint256))))) ethSellsUserToday;\n\n  // ------------------------------------------------\n  //\n  // Constructor\n  //\n  // ------------------------------------------------\n\n  constructor(address _priceOracle, address _geo, address _smsCertifier, address _kycCertifier, address _control, address _certifierRegistry)\n    public\n  {\n    priceOracle = IExchangeRateOracle(_priceOracle);\n    geo = IGeoRegistry(_geo);\n    smsCertifier = ICertifier(_smsCertifier);\n    kycCertifier = ICertifier(_kycCertifier);\n    certifierRegistry = ICertifierRegistry(_certifierRegistry);\n    control = IControl(_control);\n    tierDailyLimit[1] = 1000;\n    tierDailyLimit[2] = 10000;\n    tierDailyLimit[3] = 1000000;\n  }\n\n  // ------------------------------------------------\n  //\n  // Functions Setters\n  //\n  // ------------------------------------------------\n\n  function setZoneFactory(address _zoneFactory)\n    external\n  {\n    require(control.isCEO(msg.sender), \"can only be called by CEO\");\n    zoneFactoryAddress = _zoneFactory;\n  }\n\n  function setUserTier(address _who, int8 _num) \n    external\n  {\n    require(msg.sender == zoneFactoryAddress, \"can only be called by zoneFactory\");\n    userTiers[_who] = _num;\n  }\n\n  function modifyUserTier(int8 _num) \n    public\n  {\n    require(userTiers[msg.sender] > 0, \"can only be called by an existing user\");\n    require(_num > 0, \"tier should be greater than 0\");\n    userTiers[msg.sender] = _num;\n  }\n\n  function updateDailySold(bytes2 _countryCode, address _from, address _to, uint _amount)\n    external\n  {\n    require(msg.sender == zoneFactoryAddress, \"can only be called by zoneFactory\");\n\n    // if country code or user does not exist, we get back 0\n    // uint sellDailyLimitUsd = geo.countryTierDailyLimit(_countryCode, getUserTier(_from));\n\n    uint sellDailyLimitUsd = tierDailyLimit[userTiers[_from]];\n    uint sellDailyLimitEth = priceOracle.getWeiPriceOneUsd().mul(sellDailyLimitUsd);\n    _DateTime memory dateNow = parseTimestamp(block.timestamp);\n    uint newSoldTodayEth = ethSellsUserToday[_countryCode][_from][dateNow.day][dateNow.month][dateNow.year].add(_amount);\n    require(newSoldTodayEth <= sellDailyLimitEth, \"exceeded daily sell limit\");\n    ethSellsUserToday[_countryCode][_from][dateNow.day][dateNow.month][dateNow.year] = newSoldTodayEth;\n\n    volumeBuy[_to] = volumeBuy[_to].add(_amount);\n    volumeSell[_from] = volumeSell[_from].add(_amount);\n    nbTrade[_from] += 1;\n  }\n\n  // ------------------------------------------------\n  //\n  // Functions Getters\n  //\n  // ------------------------------------------------\n\n  // function getUserTier(address _who)\n  //   public\n  //   view\n  //   returns (uint)\n  // {\n  //   // foundTier = 0;\n  //   // if (kycCertifier.certified(_who)) foundTier = 2;\n  //   // else if (smsCertifier.certified(_who)) foundTier = 1;\n  //   return userTiers[_who];\n  // }\n  function getCertifications(address _who)\n    external view\n    returns ( ICertifierRegistry.Certification[] memory)\n    {\n      return certifierRegistry.getCerts(_who);\n    }\n  function getDateInfo(uint timestamp)\n    external\n    pure\n    returns (uint16, uint16, uint16)\n  {\n    _DateTime memory date = parseTimestamp(timestamp);\n    return (date.day, date.month, date.year);\n  }\n}",
  "sourcePath": "/Users/mehdi/code/dether/contractV2/contracts/core/Users.sol",
  "compiler": {
    "name": "solc",
    "version": "0.5.5+commit.47a71e8f.Emscripten.clang"
  },
  "schemaVersion": "3.0.3",
  "updatedAt": "2019-04-01T10:14:45.095Z",
  "devdoc": {
    "methods": {}
  },
  "userdoc": {
    "methods": {}
  }
}