{
  "contractName": "Users",
  "abi": [
    {
      "constant": true,
      "inputs": [],
      "name": "zoneFactoryAddress",
      "outputs": [
        {
          "name": "",
          "type": "address"
        }
      ],
      "payable": false,
      "stateMutability": "view",
      "type": "function"
    },
    {
      "constant": true,
      "inputs": [],
      "name": "kycCertifier",
      "outputs": [
        {
          "name": "",
          "type": "address"
        }
      ],
      "payable": false,
      "stateMutability": "view",
      "type": "function"
    },
    {
      "constant": true,
      "inputs": [],
      "name": "priceOracle",
      "outputs": [
        {
          "name": "",
          "type": "address"
        }
      ],
      "payable": false,
      "stateMutability": "view",
      "type": "function"
    },
    {
      "constant": true,
      "inputs": [],
      "name": "smsCertifier",
      "outputs": [
        {
          "name": "",
          "type": "address"
        }
      ],
      "payable": false,
      "stateMutability": "view",
      "type": "function"
    },
    {
      "constant": true,
      "inputs": [
        {
          "name": "timestamp",
          "type": "uint256"
        }
      ],
      "name": "getHour",
      "outputs": [
        {
          "name": "",
          "type": "uint8"
        }
      ],
      "payable": false,
      "stateMutability": "pure",
      "type": "function"
    },
    {
      "constant": true,
      "inputs": [
        {
          "name": "",
          "type": "address"
        }
      ],
      "name": "volumeSell",
      "outputs": [
        {
          "name": "",
          "type": "uint256"
        }
      ],
      "payable": false,
      "stateMutability": "view",
      "type": "function"
    },
    {
      "constant": true,
      "inputs": [
        {
          "name": "",
          "type": "address"
        }
      ],
      "name": "nbTrade",
      "outputs": [
        {
          "name": "",
          "type": "uint256"
        }
      ],
      "payable": false,
      "stateMutability": "view",
      "type": "function"
    },
    {
      "constant": true,
      "inputs": [
        {
          "name": "timestamp",
          "type": "uint256"
        }
      ],
      "name": "getWeekday",
      "outputs": [
        {
          "name": "",
          "type": "uint8"
        }
      ],
      "payable": false,
      "stateMutability": "pure",
      "type": "function"
    },
    {
      "constant": true,
      "inputs": [
        {
          "name": "year",
          "type": "uint16"
        },
        {
          "name": "month",
          "type": "uint8"
        },
        {
          "name": "day",
          "type": "uint8"
        },
        {
          "name": "hour",
          "type": "uint8"
        },
        {
          "name": "minute",
          "type": "uint8"
        }
      ],
      "name": "toTimestamp",
      "outputs": [
        {
          "name": "timestamp",
          "type": "uint256"
        }
      ],
      "payable": false,
      "stateMutability": "pure",
      "type": "function"
    },
    {
      "constant": true,
      "inputs": [
        {
          "name": "timestamp",
          "type": "uint256"
        }
      ],
      "name": "getDay",
      "outputs": [
        {
          "name": "",
          "type": "uint8"
        }
      ],
      "payable": false,
      "stateMutability": "pure",
      "type": "function"
    },
    {
      "constant": true,
      "inputs": [
        {
          "name": "year",
          "type": "uint16"
        },
        {
          "name": "month",
          "type": "uint8"
        },
        {
          "name": "day",
          "type": "uint8"
        },
        {
          "name": "hour",
          "type": "uint8"
        }
      ],
      "name": "toTimestamp",
      "outputs": [
        {
          "name": "timestamp",
          "type": "uint256"
        }
      ],
      "payable": false,
      "stateMutability": "pure",
      "type": "function"
    },
    {
      "constant": true,
      "inputs": [
        {
          "name": "timestamp",
          "type": "uint256"
        }
      ],
      "name": "getSecond",
      "outputs": [
        {
          "name": "",
          "type": "uint8"
        }
      ],
      "payable": false,
      "stateMutability": "pure",
      "type": "function"
    },
    {
      "constant": true,
      "inputs": [
        {
          "name": "year",
          "type": "uint16"
        },
        {
          "name": "month",
          "type": "uint8"
        },
        {
          "name": "day",
          "type": "uint8"
        }
      ],
      "name": "toTimestamp",
      "outputs": [
        {
          "name": "timestamp",
          "type": "uint256"
        }
      ],
      "payable": false,
      "stateMutability": "pure",
      "type": "function"
    },
    {
      "constant": true,
      "inputs": [
        {
          "name": "year",
          "type": "uint16"
        },
        {
          "name": "month",
          "type": "uint8"
        },
        {
          "name": "day",
          "type": "uint8"
        },
        {
          "name": "hour",
          "type": "uint8"
        },
        {
          "name": "minute",
          "type": "uint8"
        },
        {
          "name": "second",
          "type": "uint8"
        }
      ],
      "name": "toTimestamp",
      "outputs": [
        {
          "name": "timestamp",
          "type": "uint256"
        }
      ],
      "payable": false,
      "stateMutability": "pure",
      "type": "function"
    },
    {
      "constant": true,
      "inputs": [
        {
          "name": "timestamp",
          "type": "uint256"
        }
      ],
      "name": "getYear",
      "outputs": [
        {
          "name": "",
          "type": "uint16"
        }
      ],
      "payable": false,
      "stateMutability": "pure",
      "type": "function"
    },
    {
      "constant": true,
      "inputs": [
        {
          "name": "timestamp",
          "type": "uint256"
        }
      ],
      "name": "getMonth",
      "outputs": [
        {
          "name": "",
          "type": "uint8"
        }
      ],
      "payable": false,
      "stateMutability": "pure",
      "type": "function"
    },
    {
      "constant": true,
      "inputs": [
        {
          "name": "year",
          "type": "uint16"
        }
      ],
      "name": "isLeapYear",
      "outputs": [
        {
          "name": "",
          "type": "bool"
        }
      ],
      "payable": false,
      "stateMutability": "pure",
      "type": "function"
    },
    {
      "constant": true,
      "inputs": [
        {
          "name": "year",
          "type": "uint256"
        }
      ],
      "name": "leapYearsBefore",
      "outputs": [
        {
          "name": "",
          "type": "uint256"
        }
      ],
      "payable": false,
      "stateMutability": "pure",
      "type": "function"
    },
    {
      "constant": true,
      "inputs": [
        {
          "name": "month",
          "type": "uint8"
        },
        {
          "name": "year",
          "type": "uint16"
        }
      ],
      "name": "getDaysInMonth",
      "outputs": [
        {
          "name": "",
          "type": "uint8"
        }
      ],
      "payable": false,
      "stateMutability": "pure",
      "type": "function"
    },
    {
      "constant": true,
      "inputs": [],
      "name": "control",
      "outputs": [
        {
          "name": "",
          "type": "address"
        }
      ],
      "payable": false,
      "stateMutability": "view",
      "type": "function"
    },
    {
      "constant": true,
      "inputs": [],
      "name": "geo",
      "outputs": [
        {
          "name": "",
          "type": "address"
        }
      ],
      "payable": false,
      "stateMutability": "view",
      "type": "function"
    },
    {
      "constant": true,
      "inputs": [
        {
          "name": "",
          "type": "address"
        }
      ],
      "name": "volumeBuy",
      "outputs": [
        {
          "name": "",
          "type": "uint256"
        }
      ],
      "payable": false,
      "stateMutability": "view",
      "type": "function"
    },
    {
      "constant": true,
      "inputs": [
        {
          "name": "timestamp",
          "type": "uint256"
        }
      ],
      "name": "getMinute",
      "outputs": [
        {
          "name": "",
          "type": "uint8"
        }
      ],
      "payable": false,
      "stateMutability": "pure",
      "type": "function"
    },
    {
      "inputs": [
        {
          "name": "_priceOracle",
          "type": "address"
        },
        {
          "name": "_geo",
          "type": "address"
        },
        {
          "name": "_smsCertifier",
          "type": "address"
        },
        {
          "name": "_kycCertifier",
          "type": "address"
        },
        {
          "name": "_control",
          "type": "address"
        }
      ],
      "payable": false,
      "stateMutability": "nonpayable",
      "type": "constructor"
    },
    {
      "constant": false,
      "inputs": [
        {
          "name": "_zoneFactory",
          "type": "address"
        }
      ],
      "name": "setZoneFactory",
      "outputs": [],
      "payable": false,
      "stateMutability": "nonpayable",
      "type": "function"
    },
    {
      "constant": false,
      "inputs": [
        {
          "name": "_countryCode",
          "type": "bytes2"
        },
        {
          "name": "_from",
          "type": "address"
        },
        {
          "name": "_to",
          "type": "address"
        },
        {
          "name": "_amount",
          "type": "uint256"
        }
      ],
      "name": "updateDailySold",
      "outputs": [],
      "payable": false,
      "stateMutability": "nonpayable",
      "type": "function"
    },
    {
      "constant": true,
      "inputs": [
        {
          "name": "_who",
          "type": "address"
        }
      ],
      "name": "getUserTier",
      "outputs": [
        {
          "name": "foundTier",
          "type": "uint256"
        }
      ],
      "payable": false,
      "stateMutability": "view",
      "type": "function"
    },
    {
      "constant": true,
      "inputs": [
        {
          "name": "timestamp",
          "type": "uint256"
        }
      ],
      "name": "getDateInfo",
      "outputs": [
        {
          "name": "",
          "type": "uint16"
        },
        {
          "name": "",
          "type": "uint16"
        },
        {
          "name": "",
          "type": "uint16"
        }
      ],
      "payable": false,
      "stateMutability": "pure",
      "type": "function"
    }
  ],
  "bytecode": "0x608060405234801561001057600080fd5b5060405160a0806113448339810160409081528151602083015191830151606084015160809094015160008054600160a060020a0319908116600160a060020a03958616178255600180548216968616969096179095556002805486169385169390931790925560038054851695841695909517909455600480549093169190931617905561129f9081906100a590396000f30060806040526004361061015e5763ffffffff7c010000000000000000000000000000000000000000000000000000000060003504166303c77f2481146101635780630d46f91a146101945780632630c12f146101a957806330a55316146101be5780633e239e1a146101d357806341d0d30f146102015780634753dc4f14610234578063475e4654146102575780634ac1ad781461027857806362ba96871461029057806365c72840146102c45780637f791833146102dc5780638aa001fc1461030a5780638c8d98a0146103225780639054bdec1461034a57806392d6631314610384578063a324ad24146103b3578063a6f0e577146103cb578063b1999937146103fb578063b238ad0e14610413578063c34c6b9314610435578063d8de658714610473578063d944e6a314610488578063dc2de4fa1461049d578063e4d2620e146104be578063fa93f883146104df578063fb89df53146104f7575b600080fd5b34801561016f57600080fd5b50610178610546565b60408051600160a060020a039092168252519081900360200190f35b3480156101a057600080fd5b50610178610555565b3480156101b557600080fd5b50610178610564565b3480156101ca57600080fd5b50610178610573565b3480156101df57600080fd5b506101eb600435610582565b6040805160ff9092168252519081900360200190f35b34801561020d57600080fd5b50610222600160a060020a036004351661059f565b60408051918252519081900360200190f35b34801561024057600080fd5b50610255600160a060020a03600435166105b1565b005b34801561026357600080fd5b50610222600160a060020a03600435166106e0565b34801561028457600080fd5b506101eb6004356106f2565b34801561029c57600080fd5b5061022261ffff6004351660ff60243581169060443581169060643581169060843516610704565b3480156102d057600080fd5b506101eb60043561071f565b3480156102e857600080fd5b5061022261ffff6004351660ff60243581169060443581169060643516610734565b34801561031657600080fd5b506101eb60043561074e565b34801561032e57600080fd5b5061022261ffff6004351660ff60243581169060443516610758565b34801561035657600080fd5b5061022261ffff6004351660ff60243581169060443581169060643581169060843581169060a43516610772565b34801561039057600080fd5b5061039c6004356108b8565b6040805161ffff9092168252519081900360200190f35b3480156103bf57600080fd5b506101eb600435610948565b3480156103d757600080fd5b506103e761ffff6004351661095d565b604080519115158252519081900360200190f35b34801561040757600080fd5b506102226004356109ab565b34801561041f57600080fd5b506101eb60ff6004351661ffff602435166109c6565b34801561044157600080fd5b5061044d600435610a8e565b6040805161ffff9485168152928416602084015292168183015290519081900360600190f35b34801561047f57600080fd5b50610178610ac5565b34801561049457600080fd5b50610178610ad4565b3480156104a957600080fd5b50610222600160a060020a0360043516610ae3565b3480156104ca57600080fd5b50610222600160a060020a0360043516610af5565b3480156104eb57600080fd5b506101eb600435610c3a565b34801561050357600080fd5b506102557fffff00000000000000000000000000000000000000000000000000000000000060043516600160a060020a0360243581169060443516606435610c45565b600554600160a060020a031681565b600354600160a060020a031681565b600054600160a060020a031681565b600254600160a060020a031681565b60006018603c8084045b0481151561059657fe5b0690505b919050565b60076020526000908152604090205481565b60048054604080517f8900bd22000000000000000000000000000000000000000000000000000000008152339381019390935251600160a060020a0390911691638900bd229160248083019260209291908290030181600087803b15801561061857600080fd5b505af115801561062c573d6000803e3d6000fd5b505050506040513d602081101561064257600080fd5b505115156106b157604080517f08c379a000000000000000000000000000000000000000000000000000000000815260206004820152601960248201527f63616e206f6e6c792062652063616c6c65642062792043454f00000000000000604482015290519081900360640190fd5b6005805473ffffffffffffffffffffffffffffffffffffffff1916600160a060020a0392909216919091179055565b60086020526000908152604090205481565b60006007600462015180840401610596565b600061071586868686866000610772565b9695505050505050565b600061072a8261107e565b6040015192915050565b600061074585858585600080610772565b95945050505050565b6000603c82610596565b600061076a8484846000806000610772565b949350505050565b60008061077d611217565b6107b291505b8861ffff168261ffff1610156107c45761079c8261095d565b156107af576301e28500830192506107b9565b6301e13380830192505b600190910190610783565b601f81526107d18961095d565b156107e257601d60208201526107ea565b601c60208201525b601f60408201819052601e606083018190526080830182905260a0830181905260c0830182905260e0830182905261010083018190526101208301829052610140830152610160820152600191505b8760ff168261ffff16101561087a578061ffff600019840116600c811061085c57fe5b602002015160ff166201518002830192508180600101925050610839565b6001870360ff166201518002830192508560ff16610e1002830192508460ff16603c02830192508360ff168301925082925050509695505050505050565b6000806107b26301e13380840481019082906108d3906109ab565b6108e08361ffff166109ab565b039050806301e285000283019250806107b2830361ffff16036301e1338002830192505b84831115610940576109186001830361095d565b1561092b576301e2850083039250610935565b6301e13380830392505b600182039150610904565b509392505050565b60006109538261107e565b6020015192915050565b600060038216156109705750600061059a565b606461ffff83160661ffff16156109895750600161059a565b61019061ffff83160661ffff16156109a35750600061059a565b506001919050565b60001901600061019082046064830460048404030192915050565b60008260ff16600114806109dd57508260ff166003145b806109eb57508260ff166005145b806109f957508260ff166007145b80610a0757508260ff166008145b80610a1557508260ff16600a145b80610a2357508260ff16600c145b15610a305750601f610a88565b8260ff1660041480610a4557508260ff166006145b80610a5357508260ff166009145b80610a6157508260ff16600b145b15610a6e5750601e610a88565b610a778261095d565b15610a845750601d610a88565b50601c5b92915050565b6000806000610a9b611237565b610aa48561107e565b60408101516020820151915160ff9182169891909216965090945092505050565b600454600160a060020a031681565b600154600160a060020a031681565b60066020526000908152604090205481565b600354604080517fcc1d4c02000000000000000000000000000000000000000000000000000000008152600160a060020a0384811660048301529151600093929092169163cc1d4c029160248082019260209290919082900301818787803b158015610b6057600080fd5b505af1158015610b74573d6000803e3d6000fd5b505050506040513d6020811015610b8a57600080fd5b505115610b995750600261059a565b600254604080517fcc1d4c02000000000000000000000000000000000000000000000000000000008152600160a060020a0385811660048301529151919092169163cc1d4c029160248083019260209291908290030181600087803b158015610c0157600080fd5b505af1158015610c15573d6000803e3d6000fd5b505050506040513d6020811015610c2b57600080fd5b50511561059a57506001919050565b6000603c808361058c565b600080610c50611237565b600554600090600160a060020a03163314610cf257604080517f08c379a000000000000000000000000000000000000000000000000000000000815260206004820152602160248201527f63616e206f6e6c792062652063616c6c6564206279207a6f6e65466163746f7260448201527f7900000000000000000000000000000000000000000000000000000000000000606482015290519081900360840190fd5b600154600160a060020a031663de49bdaa89610d0d8a610af5565b6040518363ffffffff167c010000000000000000000000000000000000000000000000000000000002815260040180837dffffffffffffffffffffffffffffffffffffffffffffffffffffffffffff19167dffffffffffffffffffffffffffffffffffffffffffffffffffffffffffff1916815260200182815260200192505050602060405180830381600087803b158015610da857600080fd5b505af1158015610dbc573d6000803e3d6000fd5b505050506040513d6020811015610dd257600080fd5b505160008054604080517f50ccf36b0000000000000000000000000000000000000000000000000000000081529051939750610e77938893600160a060020a03909316926350ccf36b92600480820193602093909283900390910190829087803b158015610e3f57600080fd5b505af1158015610e53573d6000803e3d6000fd5b505050506040513d6020811015610e6957600080fd5b50519063ffffffff6111cc16565b9250610e824261107e565b7fffff00000000000000000000000000000000000000000000000000000000000089166000908152600960209081526040808320600160a060020a038c16845282528083208185015160ff90811685529083528184208386015190911684528252808320845161ffff168452909152902054909250610f07908663ffffffff61120516565b905082811115610f7857604080517f08c379a000000000000000000000000000000000000000000000000000000000815260206004820152601960248201527f6578636565646564206461696c792073656c6c206c696d697400000000000000604482015290519081900360640190fd5b7fffff00000000000000000000000000000000000000000000000000000000000088166000908152600960209081526040808320600160a060020a03808c1685529083528184208683015160ff90811686529084528285208785015190911685528352818420865161ffff168552835281842085905589168352600690915290205461100a908663ffffffff61120516565b600160a060020a03808816600090815260066020908152604080832094909455918a16815260079091522054611046908663ffffffff61120516565b600160a060020a0390971660009081526007602090815260408083209990995560089052969096208054600101905550505050505050565b611086611237565b6000808080611094866108b8565b61ffff1685526110a56107b26109ab565b85516110b49061ffff166109ab565b039250826301e285000284019350826107b286600001510361ffff16036301e133800284019350600191505b600c60ff83161161112a576110f98286600001516109c6565b60ff166201518002905085848201111561111b5760ff8216602086015261112a565b928301926001909101906110e0565b600191505b611141856020015186600001516109c6565b60ff168260ff1611151561117e5785846201518001111561116a5760ff8216604086015261117e565b62015180939093019260019091019061112f565b61118786610582565b60ff16606086015261119886610c3a565b60ff1660808601526111a98661074e565b60ff1660a08601526111ba866106f2565b60ff1660c08601525092949350505050565b6000808315156111df57600091506111fe565b508282028284828115156111ef57fe5b04146111fa57600080fd5b8091505b5092915050565b6000828201838110156111fa57600080fd5b61018060405190810160405280600c906020820280388339509192915050565b6040805160e081018252600080825260208201819052918101829052606081018290526080810182905260a0810182905260c0810191909152905600a165627a7a7230582040c30f4e70c3d286b63a6d616b995b2fd4ac2887ef350ff591fe414645758f1b0029",
  "source": "pragma solidity ^0.4.24;\n\nimport \"openzeppelin-solidity/contracts/math/SafeMath.sol\";\nimport \"ethereum-datetime/contracts/DateTime.sol\";\n\nimport \"../oracle/IExchangeRateOracle.sol\";\nimport \"../certifier/ICertifier.sol\";\nimport \"../map/IGeoRegistry.sol\";\nimport \"./IControl.sol\";\n\ncontract Users is DateTime {\n  // ------------------------------------------------\n  //\n  // Library init\n  //\n  // ------------------------------------------------\n\n  using SafeMath for uint;\n\n  // ------------------------------------------------\n  //\n  // Variables Public\n  //\n  // ------------------------------------------------\n\n  IExchangeRateOracle public priceOracle;\n  IGeoRegistry public geo;\n  ICertifier public smsCertifier;\n  ICertifier public kycCertifier;\n  IControl public control;\n\n  address public zoneFactoryAddress;\n\n  mapping(address => uint) public volumeBuy;\n  mapping(address => uint) public volumeSell;\n  mapping(address => uint) public nbTrade;\n\n  // per country, per user, per day, keep track of amount of eth sold (since we have max limits per country)\n  //\n  //      country           user               day               month             year      weiSold\n  mapping(bytes2 => mapping(address => mapping(uint16 => mapping(uint16 => mapping(uint16 => uint256))))) ethSellsUserToday;\n\n  // ------------------------------------------------\n  //\n  // Constructor\n  //\n  // ------------------------------------------------\n\n  constructor(address _priceOracle, address _geo, address _smsCertifier, address _kycCertifier, address _control)\n    public\n  {\n    priceOracle = IExchangeRateOracle(_priceOracle);\n    geo = IGeoRegistry(_geo);\n    smsCertifier = ICertifier(_smsCertifier);\n    kycCertifier = ICertifier(_kycCertifier);\n    control = IControl(_control);\n  }\n\n  // ------------------------------------------------\n  //\n  // Functions Setters\n  //\n  // ------------------------------------------------\n\n  function setZoneFactory(address _zoneFactory)\n    external\n  {\n    require(control.isCEO(msg.sender), \"can only be called by CEO\");\n    zoneFactoryAddress = _zoneFactory;\n  }\n\n  function updateDailySold(bytes2 _countryCode, address _from, address _to, uint _amount)\n    external\n  {\n    require(msg.sender == zoneFactoryAddress, \"can only be called by zoneFactory\");\n    // if country code or user does not exist, we get back 0\n    uint sellDailyLimitUsd = geo.countryTierDailyLimit(_countryCode, getUserTier(_from));\n    uint sellDailyLimitEth = priceOracle.getWeiPriceOneUsd().mul(sellDailyLimitUsd);\n    _DateTime memory dateNow = parseTimestamp(block.timestamp);\n    uint newSoldTodayEth = ethSellsUserToday[_countryCode][_from][dateNow.day][dateNow.month][dateNow.year].add(_amount);\n    require(newSoldTodayEth <= sellDailyLimitEth, \"exceeded daily sell limit\");\n    ethSellsUserToday[_countryCode][_from][dateNow.day][dateNow.month][dateNow.year] = newSoldTodayEth;\n\n    volumeBuy[_to] = volumeBuy[_to].add(_amount);\n    volumeSell[_from] = volumeSell[_from].add(_amount);\n    nbTrade[_from] += 1;\n  }\n\n  // ------------------------------------------------\n  //\n  // Functions Getters\n  //\n  // ------------------------------------------------\n\n  function getUserTier(address _who)\n    public\n    view\n    returns (uint foundTier)\n  {\n    foundTier = 0;\n    if (kycCertifier.certified(_who)) foundTier = 2;\n    else if (smsCertifier.certified(_who)) foundTier = 1;\n  }\n\n  function getDateInfo(uint timestamp)\n    external\n    pure\n    returns (uint16, uint16, uint16)\n  {\n    _DateTime memory date = parseTimestamp(timestamp);\n    return (date.day, date.month, date.year);\n  }\n}",
  "sourcePath": "/Users/trip/Projects/detherContracts/contracts/core/Users.sol",
  "compiler": {
    "name": "solc",
    "version": "0.4.24+commit.e67f0147.Emscripten.clang"
  },
  "schemaVersion": "2.0.1",
  "updatedAt": "2019-01-29T09:58:57.188Z"
}