{
  "contractName": "Zone",
  "abi": [
    {
      "constant": true,
      "inputs": [],
      "name": "dth",
      "outputs": [
        {
          "name": "",
          "type": "address"
        }
      ],
      "payable": false,
      "stateMutability": "view",
      "type": "function"
    },
    {
      "constant": true,
      "inputs": [],
      "name": "geohash",
      "outputs": [
        {
          "name": "",
          "type": "bytes7"
        }
      ],
      "payable": false,
      "stateMutability": "view",
      "type": "function"
    },
    {
      "constant": true,
      "inputs": [],
      "name": "currentAuctionId",
      "outputs": [
        {
          "name": "",
          "type": "uint256"
        }
      ],
      "payable": false,
      "stateMutability": "view",
      "type": "function"
    },
    {
      "constant": true,
      "inputs": [
        {
          "name": "",
          "type": "uint256"
        },
        {
          "name": "",
          "type": "address"
        }
      ],
      "name": "auctionBids",
      "outputs": [
        {
          "name": "",
          "type": "uint256"
        }
      ],
      "payable": false,
      "stateMutability": "view",
      "type": "function"
    },
    {
      "constant": true,
      "inputs": [
        {
          "name": "",
          "type": "address"
        }
      ],
      "name": "withdrawableDth",
      "outputs": [
        {
          "name": "",
          "type": "uint256"
        }
      ],
      "payable": false,
      "stateMutability": "view",
      "type": "function"
    },
    {
      "constant": true,
      "inputs": [
        {
          "name": "",
          "type": "address"
        },
        {
          "name": "",
          "type": "uint256"
        }
      ],
      "name": "commentsFree",
      "outputs": [
        {
          "name": "",
          "type": "bytes32"
        }
      ],
      "payable": false,
      "stateMutability": "view",
      "type": "function"
    },
    {
      "constant": true,
      "inputs": [
        {
          "name": "",
          "type": "address"
        },
        {
          "name": "",
          "type": "uint256"
        }
      ],
      "name": "commentsCertified",
      "outputs": [
        {
          "name": "",
          "type": "bytes32"
        }
      ],
      "payable": false,
      "stateMutability": "view",
      "type": "function"
    },
    {
      "constant": true,
      "inputs": [],
      "name": "zoneFactory",
      "outputs": [
        {
          "name": "",
          "type": "address"
        }
      ],
      "payable": false,
      "stateMutability": "view",
      "type": "function"
    },
    {
      "constant": true,
      "inputs": [],
      "name": "MIN_STAKE",
      "outputs": [
        {
          "name": "",
          "type": "uint256"
        }
      ],
      "payable": false,
      "stateMutability": "view",
      "type": "function"
    },
    {
      "constant": true,
      "inputs": [],
      "name": "country",
      "outputs": [
        {
          "name": "",
          "type": "bytes2"
        }
      ],
      "payable": false,
      "stateMutability": "view",
      "type": "function"
    },
    {
      "constant": true,
      "inputs": [],
      "name": "control",
      "outputs": [
        {
          "name": "",
          "type": "address"
        }
      ],
      "payable": false,
      "stateMutability": "view",
      "type": "function"
    },
    {
      "constant": true,
      "inputs": [],
      "name": "geo",
      "outputs": [
        {
          "name": "",
          "type": "address"
        }
      ],
      "payable": false,
      "stateMutability": "view",
      "type": "function"
    },
    {
      "constant": true,
      "inputs": [
        {
          "name": "",
          "type": "address"
        }
      ],
      "name": "withdrawableEth",
      "outputs": [
        {
          "name": "",
          "type": "uint256"
        }
      ],
      "payable": false,
      "stateMutability": "view",
      "type": "function"
    },
    {
      "constant": true,
      "inputs": [
        {
          "name": "",
          "type": "address"
        }
      ],
      "name": "funds",
      "outputs": [
        {
          "name": "",
          "type": "uint256"
        }
      ],
      "payable": false,
      "stateMutability": "view",
      "type": "function"
    },
    {
      "constant": true,
      "inputs": [
        {
          "name": "",
          "type": "address"
        },
        {
          "name": "",
          "type": "address"
        }
      ],
      "name": "canPlaceCertifiedComment",
      "outputs": [
        {
          "name": "",
          "type": "uint256"
        }
      ],
      "payable": false,
      "stateMutability": "view",
      "type": "function"
    },
    {
      "constant": true,
      "inputs": [],
      "name": "users",
      "outputs": [
        {
          "name": "",
          "type": "address"
        }
      ],
      "payable": false,
      "stateMutability": "view",
      "type": "function"
    },
    {
      "inputs": [],
      "payable": false,
      "stateMutability": "nonpayable",
      "type": "constructor"
    },
    {
      "anonymous": false,
      "inputs": [
        {
          "indexed": true,
          "name": "zoneAddress",
          "type": "address"
        },
        {
          "indexed": true,
          "name": "countryCode",
          "type": "bytes2"
        },
        {
          "indexed": true,
          "name": "geohash",
          "type": "bytes7"
        },
        {
          "indexed": false,
          "name": "dthAmount",
          "type": "uint256"
        }
      ],
      "name": "ZoneCreated",
      "type": "event"
    },
    {
      "anonymous": false,
      "inputs": [
        {
          "indexed": true,
          "name": "zoneAddress",
          "type": "address"
        },
        {
          "indexed": true,
          "name": "oldOwner",
          "type": "address"
        },
        {
          "indexed": true,
          "name": "newOwner",
          "type": "address"
        }
      ],
      "name": "ZoneOwnerUpdated",
      "type": "event"
    },
    {
      "anonymous": false,
      "inputs": [
        {
          "indexed": true,
          "name": "owner",
          "type": "address"
        },
        {
          "indexed": false,
          "name": "lifeStart",
          "type": "uint256"
        },
        {
          "indexed": false,
          "name": "lifeEnd",
          "type": "uint256"
        },
        {
          "indexed": false,
          "name": "taxPaidTotal",
          "type": "uint256"
        },
        {
          "indexed": false,
          "name": "taxDebtOutstanding",
          "type": "uint256"
        }
      ],
      "name": "ZoneOwnerForeClosed",
      "type": "event"
    },
    {
      "anonymous": false,
      "inputs": [
        {
          "indexed": true,
          "name": "owner",
          "type": "address"
        },
        {
          "indexed": false,
          "name": "taxStart",
          "type": "uint256"
        },
        {
          "indexed": false,
          "name": "taxEnd",
          "type": "uint256"
        },
        {
          "indexed": false,
          "name": "taxAmount",
          "type": "uint256"
        }
      ],
      "name": "ZoneOwnerTaxesPaid",
      "type": "event"
    },
    {
      "anonymous": false,
      "inputs": [
        {
          "indexed": true,
          "name": "owner",
          "type": "address"
        },
        {
          "indexed": false,
          "name": "oldBalance",
          "type": "uint256"
        },
        {
          "indexed": false,
          "name": "newBalance",
          "type": "uint256"
        }
      ],
      "name": "ZoneOwnerTopUp",
      "type": "event"
    },
    {
      "anonymous": false,
      "inputs": [
        {
          "indexed": true,
          "name": "auctionId",
          "type": "address"
        },
        {
          "indexed": false,
          "name": "lifeStart",
          "type": "uint256"
        }
      ],
      "name": "ZoneAuctionStarted",
      "type": "event"
    },
    {
      "anonymous": false,
      "inputs": [
        {
          "indexed": true,
          "name": "auctionId",
          "type": "address"
        },
        {
          "indexed": false,
          "name": "lifeEnd",
          "type": "uint256"
        },
        {
          "indexed": true,
          "name": "newOwner",
          "type": "address"
        }
      ],
      "name": "ZoneAuctionEnded",
      "type": "event"
    },
    {
      "anonymous": false,
      "inputs": [
        {
          "indexed": true,
          "name": "auctionId",
          "type": "address"
        },
        {
          "indexed": true,
          "name": "bidder",
          "type": "address"
        },
        {
          "indexed": false,
          "name": "bidAmount",
          "type": "uint256"
        }
      ],
      "name": "ZoneAuctionBid",
      "type": "event"
    },
    {
      "anonymous": false,
      "inputs": [
        {
          "indexed": true,
          "name": "owner",
          "type": "address"
        }
      ],
      "name": "ZoneUpdatedTeller",
      "type": "event"
    },
    {
      "constant": false,
      "inputs": [
        {
          "name": "_countryCode",
          "type": "bytes2"
        },
        {
          "name": "_geohash",
          "type": "bytes7"
        },
        {
          "name": "_zoneOwner",
          "type": "address"
        },
        {
          "name": "_dthAmount",
          "type": "uint256"
        },
        {
          "name": "_dth",
          "type": "address"
        },
        {
          "name": "_geo",
          "type": "address"
        },
        {
          "name": "_users",
          "type": "address"
        },
        {
          "name": "_control",
          "type": "address"
        },
        {
          "name": "_zoneFactory",
          "type": "address"
        }
      ],
      "name": "init",
      "outputs": [],
      "payable": false,
      "stateMutability": "nonpayable",
      "type": "function"
    },
    {
      "constant": true,
      "inputs": [
        {
          "name": "_geohash",
          "type": "bytes7"
        },
        {
          "name": "_addr",
          "type": "address"
        }
      ],
      "name": "computeCSC",
      "outputs": [
        {
          "name": "",
          "type": "bytes12"
        }
      ],
      "payable": false,
      "stateMutability": "pure",
      "type": "function"
    },
    {
      "constant": true,
      "inputs": [
        {
          "name": "_startTime",
          "type": "uint256"
        },
        {
          "name": "_endTime",
          "type": "uint256"
        },
        {
          "name": "_dthAmount",
          "type": "uint256"
        }
      ],
      "name": "calcHarbergerTax",
      "outputs": [
        {
          "name": "taxAmount",
          "type": "uint256"
        },
        {
          "name": "keepAmount",
          "type": "uint256"
        }
      ],
      "payable": false,
      "stateMutability": "view",
      "type": "function"
    },
    {
      "constant": true,
      "inputs": [
        {
          "name": "_value",
          "type": "uint256"
        }
      ],
      "name": "calcEntryFee",
      "outputs": [
        {
          "name": "burnAmount",
          "type": "uint256"
        },
        {
          "name": "bidAmount",
          "type": "uint256"
        }
      ],
      "payable": false,
      "stateMutability": "view",
      "type": "function"
    },
    {
      "constant": true,
      "inputs": [
        {
          "name": "_value",
          "type": "uint256"
        }
      ],
      "name": "calcReferrerFee",
      "outputs": [
        {
          "name": "referrerAmount",
          "type": "uint256"
        }
      ],
      "payable": false,
      "stateMutability": "view",
      "type": "function"
    },
    {
      "constant": true,
      "inputs": [
        {
          "name": "_auctionId",
          "type": "uint256"
        }
      ],
      "name": "auctionExists",
      "outputs": [
        {
          "name": "",
          "type": "bool"
        }
      ],
      "payable": false,
      "stateMutability": "view",
      "type": "function"
    },
    {
      "constant": true,
      "inputs": [],
      "name": "getZoneOwner",
      "outputs": [
        {
          "name": "",
          "type": "address"
        },
        {
          "name": "",
          "type": "uint256"
        },
        {
          "name": "",
          "type": "uint256"
        },
        {
          "name": "",
          "type": "uint256"
        },
        {
          "name": "",
          "type": "uint256"
        },
        {
          "name": "",
          "type": "uint256"
        }
      ],
      "payable": false,
      "stateMutability": "view",
      "type": "function"
    },
    {
      "constant": true,
      "inputs": [
        {
          "name": "_auctionId",
          "type": "uint256"
        }
      ],
      "name": "getAuction",
      "outputs": [
        {
          "name": "",
          "type": "uint256"
        },
        {
          "name": "",
          "type": "uint256"
        },
        {
          "name": "",
          "type": "uint256"
        },
        {
          "name": "",
          "type": "uint256"
        },
        {
          "name": "",
          "type": "address"
        },
        {
          "name": "",
          "type": "uint256"
        }
      ],
      "payable": false,
      "stateMutability": "view",
      "type": "function"
    },
    {
      "constant": true,
      "inputs": [],
      "name": "getLastAuction",
      "outputs": [
        {
          "name": "",
          "type": "uint256"
        },
        {
          "name": "",
          "type": "uint256"
        },
        {
          "name": "",
          "type": "uint256"
        },
        {
          "name": "",
          "type": "uint256"
        },
        {
          "name": "",
          "type": "address"
        },
        {
          "name": "",
          "type": "uint256"
        }
      ],
      "payable": false,
      "stateMutability": "view",
      "type": "function"
    },
    {
      "constant": true,
      "inputs": [],
      "name": "getTeller",
      "outputs": [
        {
          "name": "",
          "type": "uint8"
        },
        {
          "name": "",
          "type": "bytes16"
        },
        {
          "name": "",
          "type": "bytes12"
        },
        {
          "name": "",
          "type": "bytes1"
        },
        {
          "name": "",
          "type": "int16"
        },
        {
          "name": "",
          "type": "int16"
        },
        {
          "name": "",
          "type": "uint256"
        },
        {
          "name": "",
          "type": "address"
        }
      ],
      "payable": false,
      "stateMutability": "view",
      "type": "function"
    },
    {
      "constant": true,
      "inputs": [],
      "name": "getCertifiedComments",
      "outputs": [
        {
          "name": "",
          "type": "bytes32[]"
        }
      ],
      "payable": false,
      "stateMutability": "view",
      "type": "function"
    },
    {
      "constant": true,
      "inputs": [],
      "name": "getComments",
      "outputs": [
        {
          "name": "",
          "type": "bytes32[]"
        }
      ],
      "payable": false,
      "stateMutability": "view",
      "type": "function"
    },
    {
      "constant": false,
      "inputs": [
        {
          "name": "_from",
          "type": "address"
        },
        {
          "name": "_value",
          "type": "uint256"
        },
        {
          "name": "_data",
          "type": "bytes"
        }
      ],
      "name": "tokenFallback",
      "outputs": [],
      "payable": false,
      "stateMutability": "nonpayable",
      "type": "function"
    },
    {
      "constant": false,
      "inputs": [],
      "name": "release",
      "outputs": [],
      "payable": false,
      "stateMutability": "nonpayable",
      "type": "function"
    },
    {
      "constant": false,
      "inputs": [
        {
          "name": "_auctionId",
          "type": "uint256"
        }
      ],
      "name": "withdrawFromAuction",
      "outputs": [],
      "payable": false,
      "stateMutability": "nonpayable",
      "type": "function"
    },
    {
      "constant": false,
      "inputs": [
        {
          "name": "_auctionIds",
          "type": "uint256[]"
        }
      ],
      "name": "withdrawFromAuctions",
      "outputs": [],
      "payable": false,
      "stateMutability": "nonpayable",
      "type": "function"
    },
    {
      "constant": false,
      "inputs": [],
      "name": "withdrawDth",
      "outputs": [],
      "payable": false,
      "stateMutability": "nonpayable",
      "type": "function"
    },
    {
      "constant": false,
      "inputs": [],
      "name": "withdrawEth",
      "outputs": [],
      "payable": false,
      "stateMutability": "nonpayable",
      "type": "function"
    },
    {
      "constant": false,
      "inputs": [
        {
          "name": "_position",
          "type": "bytes"
        },
        {
          "name": "_currencyId",
          "type": "uint8"
        },
        {
          "name": "_messenger",
          "type": "bytes16"
        },
        {
          "name": "_sellRate",
          "type": "int16"
        },
        {
          "name": "_buyRate",
          "type": "int16"
        },
        {
          "name": "_settings",
          "type": "bytes1"
        },
        {
          "name": "_referrer",
          "type": "address"
        }
      ],
      "name": "addTeller",
      "outputs": [],
      "payable": false,
      "stateMutability": "nonpayable",
      "type": "function"
    },
    {
      "constant": false,
      "inputs": [],
      "name": "removeTeller",
      "outputs": [],
      "payable": false,
      "stateMutability": "nonpayable",
      "type": "function"
    },
    {
      "constant": false,
      "inputs": [],
      "name": "addFunds",
      "outputs": [],
      "payable": true,
      "stateMutability": "payable",
      "type": "function"
    },
    {
      "constant": false,
      "inputs": [
        {
          "name": "_to",
          "type": "address"
        },
        {
          "name": "_amount",
          "type": "uint256"
        }
      ],
      "name": "sellEth",
      "outputs": [],
      "payable": false,
      "stateMutability": "nonpayable",
      "type": "function"
    },
    {
      "constant": false,
      "inputs": [
        {
          "name": "_commentHash",
          "type": "bytes32"
        }
      ],
      "name": "addCertifiedComment",
      "outputs": [],
      "payable": false,
      "stateMutability": "nonpayable",
      "type": "function"
    },
    {
      "constant": false,
      "inputs": [
        {
          "name": "_commentHash",
          "type": "bytes32"
        }
      ],
      "name": "addComment",
      "outputs": [],
      "payable": false,
      "stateMutability": "nonpayable",
      "type": "function"
    }
  ],
  "bytecode": "0x608060405234801561001057600080fd5b5061541e806100206000396000f3006080604052600436106101d45763ffffffff60e060020a60003504166301e57a3781146101d957806308e44f881461020a57806309948da51461023c5780630c0b86ca146102a15780630d624914146102c85780631504ceed146103195780631ecb0f671461033d5780632c2f3d131461037457806335ecec8f146103955780633c0868f0146103b9578063400f7684146103e5578063422927ad146104095780636496a441146104235780636cea244b1461044357806378bd79351461045b5780637b9a73011461047357806386d1a69f146104885780638b9c09a51461049d57806391f3410c146104b55780639787d107146104ca57806398369c791461055957806399640c81146105b7578063a0ef91df14610609578063a26759cb1461061e578063a74255b014610626578063ab5b8f1b1461063e578063aeaffbc514610689578063c0ee0b8a146106ee578063c732ff3e14610757578063cb1c2b5c1461076c578063d8b0b49914610781578063d8de6587146107b3578063d944e6a3146107c8578063dd955c44146107dd578063e0df216c14610801578063e2ae93fb14610822578063e3653b4914610843578063efcb5ba61461086a578063f20202751461087f578063fb01bb5114610894575b600080fd5b3480156101e557600080fd5b506101ee6108ac565b60408051600160a060020a039092168252519081900360200190f35b34801561021657600080fd5b5061021f6108c0565b60408051600160c860020a03199092168252519081900360200190f35b34801561024857600080fd5b506102516108fc565b60408051602080825283518183015283519192839290830191858101910280838360005b8381101561028d578181015183820152602001610275565b505050509050019250505060405180910390f35b3480156102ad57600080fd5b506102b6610968565b60408051918252519081900360200190f35b3480156102d457600080fd5b506102dd61096e565b604080519687526020870195909552858501939093526060850191909152600160a060020a0316608084015260a0830152519081900360c00190f35b34801561032557600080fd5b506102b6600435600160a060020a0360243516610995565b34801561034957600080fd5b5061035b6004356024356044356109b2565b6040805192835260208301919091528051918290030190f35b34801561038057600080fd5b506102b6600160a060020a0360043516610a18565b3480156103a157600080fd5b506102b6600160a060020a0360043516602435610a2a565b3480156103c557600080fd5b506103d1600435610a5a565b604080519115158252519081900360200190f35b3480156103f157600080fd5b506102b6600160a060020a0360043516602435610a6d565b34801561041557600080fd5b50610421600435610a88565b005b34801561042f57600080fd5b506104216004803560248101910135610e27565b34801561044f57600080fd5b506102b660043561134a565b34801561046757600080fd5b506102dd600435611369565b34801561047f57600080fd5b506101ee61148a565b34801561049457600080fd5b50610421611499565b3480156104a957600080fd5b5061042160043561175f565b3480156104c157600080fd5b50610251611c44565b3480156104d657600080fd5b506104df611cad565b6040805160ff90991689526fffffffffffffffffffffffffffffffff199097166020890152600160a060020a031990951687870152600160f860020a03199093166060870152600191820b820b6080870152810b900b60a085015260c0840152600160a060020a031660e083015251908190036101000190f35b34801561056557600080fd5b50610421600160f060020a031960043516600160c860020a031960243516600160a060020a036044358116906064359060843581169060a43581169060c43581169060e4358116906101043516611d53565b3480156105c357600080fd5b506105cc61207e565b60408051600160a060020a0390971687526020870195909552858501939093526060850191909152608084015260a0830152519081900360c00190f35b34801561061557600080fd5b506104216120a4565b610421612193565b34801561063257600080fd5b506104216004356124cb565b34801561064a57600080fd5b5061066c600160c860020a031960043516600160a060020a03602435166128f0565b60408051600160a060020a03199092168252519081900360200190f35b34801561069557600080fd5b50610421602460048035828101929101359060ff9035166fffffffffffffffffffffffffffffffff1960443516606435600190810b90608435900b600160f860020a031960a43516600160a060020a0360c4351661299b565b3480156106fa57600080fd5b50604080516020600460443581810135601f8101849004840285018401909552848452610421948235600160a060020a031694602480359536959460649492019190819084018382808284375094975061332e9650505050505050565b34801561076357600080fd5b506104216137ca565b34801561077857600080fd5b506102b66138e5565b34801561078d57600080fd5b506107966138f2565b60408051600160f060020a03199092168252519081900360200190f35b3480156107bf57600080fd5b506101ee613905565b3480156107d457600080fd5b506101ee613914565b3480156107e957600080fd5b50610421600160a060020a0360043516602435613923565b34801561080d57600080fd5b506102b6600160a060020a0360043516613f61565b34801561082e57600080fd5b506102b6600160a060020a0360043516613f73565b34801561084f57600080fd5b506102b6600160a060020a0360043581169060243516613f85565b34801561087657600080fd5b50610421613fa2565b34801561088b57600080fd5b506101ee61414b565b3480156108a057600080fd5b5061035b60043561415a565b6009546101009004600160a060020a031681565b600d5476010000000000000000000000000000000000000000000090047901000000000000000000000000000000000000000000000000000281565b60008054600160a060020a031681526015602090815260409182902080548351818402810184019094528084526060939283018282801561095d57602002820191906000526020600020905b81548152600190910190602001808311610948575b505050505090505b90565b60105481565b600080600080600080610982601054611369565b949b939a50919850965094509092509050565b601160209081526000928352604080842090915290825290205481565b6000806109fc620151806109f060648160016109e46109d78b8d63ffffffff61418c16565b8a9063ffffffff6141aa16565b9063ffffffff6141aa16565b9063ffffffff6141df16565b9150610a0e838363ffffffff61418c16565b9050935093915050565b600e6020526000908152604090205481565b601460205281600052604060002081815481101515610a4557fe5b90600052602060002001600091509150505481565b6000908152600660205260408120541190565b601560205281600052604060002081815481101515610a4557fe5b60095460009060ff161515600114610ad8576040805160e560020a62461bcd02815260206004820152601c60248201526000805160206153b3833981519152604482015290519081900360640190fd5b600c60009054906101000a9004600160a060020a0316600160a060020a0316635c975abb6040518163ffffffff1660e060020a028152600401602060405180830381600087803b158015610b2b57600080fd5b505af1158015610b3f573d6000803e3d6000fd5b505050506040513d6020811015610b5557600080fd5b505115610b9a576040805160e560020a62461bcd0281526020600482015260126024820152600080516020615373833981519152604482015290519081900360640190fd5b600082118015610bac57506010548211155b1515610c02576040805160e560020a62461bcd02815260206004820152601860248201527f61756374696f6e496420646f6573206e6f742065786973740000000000000000604482015290519081900360640190fd5b610c0a614202565b600160008381526006602052604090206002015460ff166001811115610c2c57fe5b14610ca7576040805160e560020a62461bcd02815260206004820152602760248201527f63616e6e6f74207769746864726177207768696c652061756374696f6e20697360448201527f2061637469766500000000000000000000000000000000000000000000000000606482015290519081900360840190fd5b6000828152600660205260409020600201546101009004600160a060020a0316331415610d1e576040805160e560020a62461bcd02815260206004820152601f60248201527f61756374696f6e2077696e6e65722063616e206e6f7420776974686472617700604482015290519081900360640190fd5b600082815260116020908152604080832033845290915281205411610d7b576040805160e560020a62461bcd02815260206004820152601360248201526000805160206153d3833981519152604482015290519081900360640190fd5b50600081815260116020908152604080832033808552908352818420805490859055600954835160e060020a63a9059cbb02815260048101939093526024830182905292519094610100909304600160a060020a03169363a9059cbb936044808501949293928390030190829087803b158015610df757600080fd5b505af1158015610e0b573d6000803e3d6000fd5b505050506040513d6020811015610e2157600080fd5b50505050565b60095460009081908190819060ff161515600114610e7d576040805160e560020a62461bcd02815260206004820152601c60248201526000805160206153b3833981519152604482015290519081900360640190fd5b600c60009054906101000a9004600160a060020a0316600160a060020a0316635c975abb6040518163ffffffff1660e060020a028152600401602060405180830381600087803b158015610ed057600080fd5b505af1158015610ee4573d6000803e3d6000fd5b505050506040513d6020811015610efa57600080fd5b505115610f3f576040805160e560020a62461bcd0281526020600482015260126024820152600080516020615373833981519152604482015290519081900360640190fd5b601054600010610f99576040805160e560020a62461bcd02815260206004820152601560248201527f746865726520617265206e6f2061756374696f6e730000000000000000000000604482015290519081900360640190fd5b610fa1614202565b60008511610ff9576040805160e560020a62461bcd02815260206004820152601860248201527f61756374696f6e496473206c69737420697320656d7074790000000000000000604482015290519081900360640190fd5b601054851115611079576040805160e560020a62461bcd02815260206004820152602660248201527f61756374696f6e496473206c697374206973206c6f6e676572207468616e206160448201527f6c6c6f7765640000000000000000000000000000000000000000000000000000606482015290519081900360840190fd5b60009350600092505b848310156112755785858481811061109657fe5b9050602002013591506000821180156110b157506010548211155b1515611107576040805160e560020a62461bcd02815260206004820152601860248201527f61756374696f6e496420646f6573206e6f742065786973740000000000000000604482015290519081900360640190fd5b600160008381526006602052604090206002015460ff16600181111561112957fe5b146111a3576040805160e560020a62461bcd028152602060048201526024808201527f63616e6e6f742077697468647261772066726f6d2072756e6e696e672061756360448201527f74696f6e00000000000000000000000000000000000000000000000000000000606482015290519081900360840190fd5b6000828152600660205260409020600201546101009004600160a060020a031633141561121a576040805160e560020a62461bcd02815260206004820152601f60248201527f61756374696f6e2077696e6e65722063616e206e6f7420776974686472617700604482015290519081900360640190fd5b5060008181526011602090815260408083203384529091528120549081111561126a576000828152601160209081526040808320338452909152812055611267848263ffffffff61427a16565b93505b600190920191611082565b600084116112bb576040805160e560020a62461bcd02815260206004820152601360248201526000805160206153d3833981519152604482015290519081900360640190fd5b6009546040805160e060020a63a9059cbb028152336004820152602481018790529051610100909204600160a060020a03169163a9059cbb916044808201926020929091908290030181600087803b15801561131657600080fd5b505af115801561132a573d6000803e3d6000fd5b505050506040513d602081101561134057600080fd5b5050505050505050565b600061136360016109e4846103e863ffffffff6141df16565b92915050565b60008060008060008061137a615313565b60008881526006602090815260408083208151608081018352815481526001808301549482019490945260028201549093919284019160ff909116908111156113bf57fe5b60018111156113ca57fe5b815260029190910154600160a060020a03610100909104811660209283015260008c815260118352604080822060608601519093168252919092528120549193509091508260400151600181111561141e57fe5b14801561143d57506000546060830151600160a060020a039081169116145b156114595760025461145690829063ffffffff61427a16565b90505b888260400151600181111561146a57fe5b83516020850151606090950151929c919b50995092975095509350915050565b600d54600160a060020a031681565b60095460009060ff1615156001146114e9576040805160e560020a62461bcd02815260206004820152601c60248201526000805160206153b3833981519152604482015290519081900360640190fd5b600c60009054906101000a9004600160a060020a0316600160a060020a0316635c975abb6040518163ffffffff1660e060020a028152600401602060405180830381600087803b15801561153c57600080fd5b505af1158015611550573d6000803e3d6000fd5b505050506040513d602081101561156657600080fd5b5051156115ab576040805160e560020a62461bcd0281526020600482015260126024820152600080516020615373833981519152604482015290519081900360640190fd5b6115b3614202565b600054600160a060020a03163314611615576040805160e560020a62461bcd02815260206004820152601860248201527f63616c6c6572206973206e6f74207a6f6e65206f776e65720000000000000000604482015290519081900360640190fd5b60105415806116465750600160105460009081526006602052604090206002015460ff16600181111561164457fe5b145b15156116c1576040805160e560020a62461bcd028152602060048201526024808201527f63616e6e6f742072656c65617365207768696c652061756374696f6e2072756e60448201527f6e696e6700000000000000000000000000000000000000000000000000000000606482015290519081900360840190fd5b506003546116cd61428c565b6116d5614370565b6009546040805160e060020a63a9059cbb028152336004820152602481018490529051610100909204600160a060020a03169163a9059cbb916044808201926020929091908290030181600087803b15801561173057600080fd5b505af1158015611744573d6000803e3d6000fd5b505050506040513d602081101561175a57600080fd5b505050565b60095460ff1615156001146117ac576040805160e560020a62461bcd02815260206004820152601c60248201526000805160206153b3833981519152604482015290519081900360640190fd5b600c60009054906101000a9004600160a060020a0316600160a060020a0316635c975abb6040518163ffffffff1660e060020a028152600401602060405180830381600087803b1580156117ff57600080fd5b505af1158015611813573d6000803e3d6000fd5b505050506040513d602081101561182957600080fd5b50511561186e576040805160e560020a62461bcd0281526020600482015260126024820152600080516020615373833981519152604482015290519081900360640190fd5b600a54600d546040805160e160020a6306e1085502815260a060020a90920460f060020a02600160f060020a031916600483015251600160a060020a0390921691630dc210aa916024808201926020929091908290030181600087803b1580156118d757600080fd5b505af11580156118eb573d6000803e3d6000fd5b505050506040513d602081101561190157600080fd5b50511515611947576040805160e560020a62461bcd0281526020600482015260136024820152600080516020615393833981519152604482015290519081900360640190fd5b80151561199e576040805160e560020a62461bcd02815260206004820152601a60248201527f636f6d6d656e7420686173682063616e6e6f7420626520307830000000000000604482015290519081900360640190fd5b6119a6614202565b600054600160a060020a03161515611a2d576040805160e560020a62461bcd028152602060048201526024808201527f63616e6e6f7420636f6d6d656e74206f6e207a6f6e6520776974686f7574206f60448201527f776e657200000000000000000000000000000000000000000000000000000000606482015290519081900360840190fd5b60075471010000000000000000000000000000000000900460a060020a02600160a060020a0319161515611ad1576040805160e560020a62461bcd02815260206004820152602560248201527f63616e6e6f7420636f6d6d656e74206f6e207a6f6e6520776974686f7574207460448201527f656c6c6572000000000000000000000000000000000000000000000000000000606482015290519081900360840190fd5b600054600160a060020a0316331415611b59576040805160e560020a62461bcd028152602060048201526024808201527f7a6f6e65206f776e65722063616e6e6f7420636f6d6d656e74206f6e2068696d60448201527f73656c6600000000000000000000000000000000000000000000000000000000606482015290519081900360840190fd5b60008054600160a060020a0316815260136020908152604080832033845290915281205411611bf8576040805160e560020a62461bcd02815260206004820152602d60248201527f75736572206e6f7420616c6c6f77656420746f20706c6163652061206365727460448201527f696669656420636f6d6d656e7400000000000000000000000000000000000000606482015290519081900360840190fd5b60008054600160a060020a039081168252601360209081526040808420338552825280842080546000190190558354909216835260158152908220805460018101825590835291200155565b60008054600160a060020a031681526014602090815260409182902080548351818402810184019094528084526060939283018282801561095d576020028201919060005260206000209081548152600190910190602001808311610948575050505050905090565b60075460085460008054600160a060020a039081168252601260205260409091205460ff8416946101008504700100000000000000000000000000000000029471010000000000000000000000000000000000810460a060020a02947d010000000000000000000000000000000000000000000000000000000000820460f860020a029460f060020a909204600190810b949082900b9390926201000090920490911690565b60095460ff1615611dae576040805160e560020a62461bcd02815260206004820152601c60248201527f636f6e747261637420616c726561647920696e697469616c697a656400000000604482015290519081900360640190fd5b68056bc75e2d63100000861015611e35576040805160e560020a62461bcd02815260206004820152603360248201527f7a6f6e6520647468207374616b652073686f756c6c64206265206174206c656160448201527f7374206d696e696d756d20283130304454482900000000000000000000000000606482015290519081900360840190fd5b88600d60146101000a81548161ffff021916908360f060020a9004021790555087600d60166101000a81548166ffffffffffffff02191690837901000000000000000000000000000000000000000000000000009004021790555084600960016101000a815481600160a060020a030219169083600160a060020a0316021790555083600a60006101000a815481600160a060020a030219169083600160a060020a0316021790555082600b60006101000a815481600160a060020a030219169083600160a060020a0316021790555081600c60006101000a815481600160a060020a030219169083600160a060020a0316021790555080600d60006101000a815481600160a060020a030219169083600160a060020a03160217905550866000800160006101000a815481600160a060020a030219169083600160a060020a0316021790555042600060010181905550856000600201819055508560006003018190555042600060040181905550600080600501819055508778ffffffffffffffffffffffffffffffffffffffffffffffffff1916897dffffffffffffffffffffffffffffffffffffffffffffffffffffffffffff191630600160a060020a03167f7aff75f95b7d4af318f0d9d8bd9e9e4d8874626e860baa8cd01b3ab7190753d7896040518082815260200191505060405180910390a4604051600160a060020a0388169060009030907f1d12264c14fc566e86950ff90e2b320c449b6b0a4f1afa0f1b0cd202e054bf13908390a450506009805460ff1916600117905550505050505050565b600054600154600254600354600454600554600160a060020a0390951694909192939495565b60095460009060ff1615156001146120f4576040805160e560020a62461bcd02815260206004820152601c60248201526000805160206153b3833981519152604482015290519081900360640190fd5b50336000908152600f602052604081205490811161214a576040805160e560020a62461bcd02815260206004820152601360248201526000805160206153d3833981519152604482015290519081900360640190fd5b600081111561219057336000818152600f60205260408082208290555183156108fc0291849190818181858888f1935050505015801561218e573d6000803e3d6000fd5b505b50565b60095460ff1615156001146121e0576040805160e560020a62461bcd02815260206004820152601c60248201526000805160206153b3833981519152604482015290519081900360640190fd5b600c60009054906101000a9004600160a060020a0316600160a060020a0316635c975abb6040518163ffffffff1660e060020a028152600401602060405180830381600087803b15801561223357600080fd5b505af1158015612247573d6000803e3d6000fd5b505050506040513d602081101561225d57600080fd5b5051156122a2576040805160e560020a62461bcd0281526020600482015260126024820152600080516020615373833981519152604482015290519081900360640190fd5b600a54600d546040805160e160020a6306e1085502815260a060020a90920460f060020a02600160f060020a031916600483015251600160a060020a0390921691630dc210aa916024808201926020929091908290030181600087803b15801561230b57600080fd5b505af115801561231f573d6000803e3d6000fd5b505050506040513d602081101561233557600080fd5b5051151561237b576040805160e560020a62461bcd0281526020600482015260136024820152600080516020615393833981519152604482015290519081900360640190fd5b600034116123d3576040805160e560020a62461bcd02815260206004820152601560248201527f6e6f206574682073656e6420776974682063616c6c0000000000000000000000604482015290519081900360640190fd5b6123db614202565b600054600160a060020a0316331461243d576040805160e560020a62461bcd02815260206004820152601c60248201527f6f6e6c79207a6f6e654f776e65722063616e206164642066756e647300000000604482015290519081900360640190fd5b60075460ff161515612499576040805160e560020a62461bcd02815260206004820152601960248201527f6e6f74207965742061646465642074656c6c657220696e666f00000000000000604482015290519081900360640190fd5b336000908152601260205260409020546124b9903463ffffffff61427a16565b33600090815260126020526040902055565b60095460ff161515600114612518576040805160e560020a62461bcd02815260206004820152601c60248201526000805160206153b3833981519152604482015290519081900360640190fd5b600c60009054906101000a9004600160a060020a0316600160a060020a0316635c975abb6040518163ffffffff1660e060020a028152600401602060405180830381600087803b15801561256b57600080fd5b505af115801561257f573d6000803e3d6000fd5b505050506040513d602081101561259557600080fd5b5051156125da576040805160e560020a62461bcd0281526020600482015260126024820152600080516020615373833981519152604482015290519081900360640190fd5b600a54600d546040805160e160020a6306e1085502815260a060020a90920460f060020a02600160f060020a031916600483015251600160a060020a0390921691630dc210aa916024808201926020929091908290030181600087803b15801561264357600080fd5b505af1158015612657573d6000803e3d6000fd5b505050506040513d602081101561266d57600080fd5b505115156126b3576040805160e560020a62461bcd0281526020600482015260136024820152600080516020615393833981519152604482015290519081900360640190fd5b80151561270a576040805160e560020a62461bcd02815260206004820152601a60248201527f636f6d6d656e7420686173682063616e6e6f7420626520307830000000000000604482015290519081900360640190fd5b612712614202565b600054600160a060020a03161515612799576040805160e560020a62461bcd028152602060048201526024808201527f63616e6e6f7420636f6d6d656e74206f6e207a6f6e6520776974686f7574206f60448201527f776e657200000000000000000000000000000000000000000000000000000000606482015290519081900360840190fd5b60075471010000000000000000000000000000000000900460a060020a02600160a060020a031916151561283d576040805160e560020a62461bcd02815260206004820152602560248201527f63616e6e6f7420636f6d6d656e74206f6e207a6f6e6520776974686f7574207460448201527f656c6c6572000000000000000000000000000000000000000000000000000000606482015290519081900360840190fd5b600054600160a060020a03163314156128c5576040805160e560020a62461bcd028152602060048201526024808201527f7a6f6e65206f776e65722063616e6e6f7420636f6d6d656e74206f6e2068696d60448201527f73656c6600000000000000000000000000000000000000000000000000000000606482015290519081900360840190fd5b60008054600160a060020a031681526014602090815260408220805460018101825590835291200155565b60408051600160c860020a031984166020808301919091526c01000000000000000000000000600160a060020a0385160260278301528251601b818403018152603b909201928390528151600093918291908401908083835b602083106129685780518252601f199092019160209182019101612949565b5181516020939093036101000a600019018019909116921691909117905260405192018290039091209695505050505050565b60095460ff1615156001146129e8576040805160e560020a62461bcd02815260206004820152601c60248201526000805160206153b3833981519152604482015290519081900360640190fd5b600c60009054906101000a9004600160a060020a0316600160a060020a0316635c975abb6040518163ffffffff1660e060020a028152600401602060405180830381600087803b158015612a3b57600080fd5b505af1158015612a4f573d6000803e3d6000fd5b505050506040513d6020811015612a6557600080fd5b505115612aaa576040805160e560020a62461bcd0281526020600482015260126024820152600080516020615373833981519152604482015290519081900360640190fd5b600a54600d546040805160e160020a6306e1085502815260a060020a90920460f060020a02600160f060020a031916600483015251600160a060020a0390921691630dc210aa916024808201926020929091908290030181600087803b158015612b1357600080fd5b505af1158015612b27573d6000803e3d6000fd5b505050506040513d6020811015612b3d57600080fd5b50511515612b83576040805160e560020a62461bcd0281526020600482015260136024820152600080516020615393833981519152604482015290519081900360640190fd5b600c8714612bdb576040805160e560020a62461bcd02815260206004820181905260248201527f657870656374656420706f736974696f6e20746f206265203130206279746573604482015290519081900360640190fd5b600d60169054906101000a90047901000000000000000000000000000000000000000000000000000278ffffffffffffffffffffffffffffffffffffffffffffffffff1916612c5c89898080601f01602080910402602001604051908101604052809392919081815260200183838082843750600094506143fa9350505050565b600160c860020a03191614612cbb576040805160e560020a62461bcd02815260206004820181905260248201527f706f736974696f6e206973206e6f7420696e736964652074686973207a6f6e65604482015290519081900360640190fd5b600a546040517f1d0a4831000000000000000000000000000000000000000000000000000000008152602060048201908152602482018a9052600160a060020a0390921691631d0a4831918b918b91819060440184848082843782019150509350505050602060405180830381600087803b158015612d3957600080fd5b505af1158015612d4d573d6000803e3d6000fd5b505050506040513d6020811015612d6357600080fd5b50511515612de1576040805160e560020a62461bcd02815260206004820152602360248201527f696e76616c696420706f736974696f6e2067656f68617368206368617261637460448201527f6572730000000000000000000000000000000000000000000000000000000000606482015290519081900360840190fd5b60018660ff1610158015612df9575060648660ff1611155b1515612e75576040805160e560020a62461bcd02815260206004820152602260248201527f63757272656e6379206964206d75737420626520696e2072616e676520312d3160448201527f3030000000000000000000000000000000000000000000000000000000000000606482015290519081900360840190fd5b60f860020a821615612f1d5761270e198460010b12158015612e9c575061270f8460010b13155b1515612f18576040805160e560020a62461bcd02815260206004820152602960248201527f73656c6c526174652073686f756c64206265206265747765656e202d3939393960448201527f20616e6420393939390000000000000000000000000000000000000000000000606482015290519081900360840190fd5b612f9d565b600184900b15612f9d576040805160e560020a62461bcd02815260206004820152602860248201527f63616e6e6f74207365742073656c6c52617465206966206e6f7420736574206160448201527f732073656c6c6572000000000000000000000000000000000000000000000000606482015290519081900360840190fd5b7f02000000000000000000000000000000000000000000000000000000000000008216156130615761270e198360010b12158015612fe0575061270f8360010b13155b151561305c576040805160e560020a62461bcd02815260206004820152602860248201527f627579526174652073686f756c64206265206265747765656e202d393939392060448201527f616e642039393939000000000000000000000000000000000000000000000000606482015290519081900360840190fd5b6130e1565b600183900b156130e1576040805160e560020a62461bcd02815260206004820152602660248201527f63616e6e6f74207365742062757952617465206966206e6f742073657420617360448201527f2062757965720000000000000000000000000000000000000000000000000000606482015290519081900360840190fd5b6130e9614202565b600054600160a060020a03163314613171576040805160e560020a62461bcd02815260206004820152602360248201527f6f6e6c79207a6f6e65206f776e65722063616e206164642074656c6c6572206960448201527f6e666f0000000000000000000000000000000000000000000000000000000000606482015290519081900360840190fd5b6007805460ff191660ff88161770ffffffffffffffffffffffffffffffff001916610100700100000000000000000000000000000000880402177dffffffffffffffffffffffffffffffffffffffffffffffffffffffffffff1660f060020a61ffff600187810b821692909202929092179092556008805461ffff19169287900b909116919091179055604080516020601f8a01819004810282018101909252888152613235918a908a908190840183828082843750600094506144659350505050565b600780547fffffff000000000000000000000000ffffffffffffffffffffffffffffffffff167101000000000000000000000000000000000060a060020a90930492909202919091177fffff00ffffffffffffffffffffffffffffffffffffffffffffffffffffffffff167d01000000000000000000000000000000000000000000000000000000000060f860020a8504021790556008805475ffffffffffffffffffffffffffffffffffffffff0000191662010000600160a060020a0384160217905560405133907fbc905ab91d97b56e60549df29f65a04af2e1cf4b6d65da4af42f8d559ee9d32090600090a25050505050505050565b60095460009060ff16151560011461337e576040805160e560020a62461bcd02815260206004820152601c60248201526000805160206153b3833981519152604482015290519081900360640190fd5b6009546101009004600160a060020a0316331461340b576040805160e560020a62461bcd02815260206004820152602260248201527f63616e206f6e6c792062652063616c6c65642062792064746820636f6e74726160448201527f6374000000000000000000000000000000000000000000000000000000000000606482015290519081900360840190fd5b600c60009054906101000a9004600160a060020a0316600160a060020a0316635c975abb6040518163ffffffff1660e060020a028152600401602060405180830381600087803b15801561345e57600080fd5b505af1158015613472573d6000803e3d6000fd5b505050506040513d602081101561348857600080fd5b5051156134cd576040805160e560020a62461bcd0281526020600482015260126024820152600080516020615373833981519152604482015290519081900360640190fd5b600a54600d546040805160e160020a6306e1085502815260a060020a90920460f060020a02600160f060020a031916600483015251600160a060020a0390921691630dc210aa916024808201926020929091908290030181600087803b15801561353657600080fd5b505af115801561354a573d6000803e3d6000fd5b505050506040513d602081101561356057600080fd5b505115156135a6576040805160e560020a62461bcd0281526020600482015260136024820152600080516020615393833981519152604482015290519081900360640190fd5b6135b18260006144c6565b9050600160f860020a031981167f400000000000000000000000000000000000000000000000000000000000000014806136145750600160f860020a031981167f4100000000000000000000000000000000000000000000000000000000000000145b806136485750600160f860020a031981167f4200000000000000000000000000000000000000000000000000000000000000145b8061367c5750600160f860020a031981167f4300000000000000000000000000000000000000000000000000000000000000145b15156136d2576040805160e560020a62461bcd02815260206004820152601b60248201527f646964206e6f74206d61746368205a6f6e652066756e6374696f6e0000000000604482015290519081900360640190fd5b600160f860020a031981167f4000000000000000000000000000000000000000000000000000000000000000141561370957610e21565b613711614202565b600160f860020a031981167f410000000000000000000000000000000000000000000000000000000000000014156137525761374d8484614527565b610e21565b600160f860020a031981167f4200000000000000000000000000000000000000000000000000000000000000141561378e5761374d8484614648565b600160f860020a031981167f43000000000000000000000000000000000000000000000000000000000000001415610e2157610e218484614818565b60095460009060ff16151560011461381a576040805160e560020a62461bcd02815260206004820152601c60248201526000805160206153b3833981519152604482015290519081900360640190fd5b50336000908152600e6020526040812054908111613870576040805160e560020a62461bcd02815260206004820152601360248201526000805160206153d3833981519152604482015290519081900360640190fd5b600081111561219057336000818152600e60209081526040808320839055600954815160e060020a63a9059cbb0281526004810195909552602485018690529051610100909104600160a060020a03169363a9059cbb9360448083019493928390030190829087803b15801561173057600080fd5b68056bc75e2d6310000081565b600d5460a060020a900460f060020a0281565b600c54600160a060020a031681565b600a54600160a060020a031681565b60095460009060ff161515600114613973576040805160e560020a62461bcd02815260206004820152601c60248201526000805160206153b3833981519152604482015290519081900360640190fd5b600c60009054906101000a9004600160a060020a0316600160a060020a0316635c975abb6040518163ffffffff1660e060020a028152600401602060405180830381600087803b1580156139c657600080fd5b505af11580156139da573d6000803e3d6000fd5b505050506040513d60208110156139f057600080fd5b505115613a35576040805160e560020a62461bcd0281526020600482015260126024820152600080516020615373833981519152604482015290519081900360640190fd5b600a54600d546040805160e160020a6306e1085502815260a060020a90920460f060020a02600160f060020a031916600483015251600160a060020a0390921691630dc210aa916024808201926020929091908290030181600087803b158015613a9e57600080fd5b505af1158015613ab2573d6000803e3d6000fd5b505050506040513d6020811015613ac857600080fd5b50511515613b0e576040805160e560020a62461bcd0281526020600482015260136024820152600080516020615393833981519152604482015290519081900360640190fd5b33600160a060020a0384161415613b6f576040805160e560020a62461bcd02815260206004820152601860248201527f73656e6465722063616e6e6f7420616c736f20626520746f0000000000000000604482015290519081900360640190fd5b60008211613bc7576040805160e560020a62461bcd02815260206004820152601d60248201527f616d6f756e7420746f2073656c6c2063616e6e6f74206265207a65726f000000604482015290519081900360640190fd5b613bcf614202565b600054600160a060020a03163314613c31576040805160e560020a62461bcd02815260206004820181905260248201527f63616e206f6e6c792062652063616c6c6564206279207a6f6e65206f776e6572604482015290519081900360640190fd5b60075460ff161515613c8d576040805160e560020a62461bcd02815260206004820152601960248201527f6e6f74207965742061646465642074656c6c657220696e666f00000000000000604482015290519081900360640190fd5b600854620100009004600160a060020a031615613dc757613cad8261134a565b336000908152601260205260409020549091508282011115613d3f576040805160e560020a62461bcd02815260206004820152603960248201527f6e6f7420656e6f7567682066756e647320746f2073656c6c2065746820616d6f60448201527f756e7420706c7573207061792072656665727265722066656500000000000000606482015290519081900360840190fd5b33600090815260126020526040902054613d619083830163ffffffff61418c16565b33600090815260126020908152604080832093909355600854620100009004600160a060020a03168252600f90522054613da1908263ffffffff61427a16565b600854620100009004600160a060020a03166000908152600f6020526040902055613e5f565b33600090815260126020526040902054821115613e2e576040805160e560020a62461bcd02815260206004820152601e60248201527f63616e6e6f742073656c6c206d6f7265207468616e20696e2066756e64730000604482015290519081900360640190fd5b33600090815260126020526040902054613e4e908363ffffffff61418c16565b336000908152601260205260409020555b600d54604080517fcde60333000000000000000000000000000000000000000000000000000000008152600160f060020a031960f060020a60a060020a850402166004820152336024820152600160a060020a038681166044830152606482018690529151919092169163cde6033391608480830192600092919082900301818387803b158015613eef57600080fd5b505af1158015613f03573d6000803e3d6000fd5b505060008054600160a060020a03908116825260136020908152604080842092891680855292909152808320805460010190555190935085156108fc0292508591818181858888f19350505050158015610e21573d6000803e3d6000fd5b600f6020526000908152604090205481565b60126020526000908152604090205481565b601360209081526000928352604080842090915290825290205481565b60095460ff161515600114613fef576040805160e560020a62461bcd02815260206004820152601c60248201526000805160206153b3833981519152604482015290519081900360640190fd5b600c60009054906101000a9004600160a060020a0316600160a060020a0316635c975abb6040518163ffffffff1660e060020a028152600401602060405180830381600087803b15801561404257600080fd5b505af1158015614056573d6000803e3d6000fd5b505050506040513d602081101561406c57600080fd5b5051156140b1576040805160e560020a62461bcd0281526020600482015260126024820152600080516020615373833981519152604482015290519081900360640190fd5b6140b9614202565b600054600160a060020a03163314614141576040805160e560020a62461bcd02815260206004820152602360248201527f6f6e6c79207a6f6e65206f776e65722063616e206164642074656c6c6572206960448201527f6e666f0000000000000000000000000000000000000000000000000000000000606482015290519081900360840190fd5b614149614370565b565b600b54600160a060020a031681565b60008061417360016109e485606463ffffffff6141df16565b9150614185838363ffffffff61418c16565b9050915091565b6000808383111561419c57600080fd5b5050808203805b5092915050565b6000808315156141bd57600091506141a3565b508282028284828115156141cd57fe5b04146141d857600080fd5b9392505050565b6000808083116141ee57600080fd5b82848115156141f957fe5b04949350505050565b6000601054118015614234575060105460009081526006602052604081206002015460ff16600181111561423257fe5b145b1561426157601054600090815260066020526040902060010154421061425c5761425c6149f8565b614149565b600054600160a060020a03161561414957614149614b1a565b6000828201838110156141d857600080fd5b60008054600160a060020a031681526014602052604081206142ad9161533b565b60008054600160a060020a031681526015602052604081206142ce9161533b565b60035460008054600160a060020a03168152600e60205260409020546142f99163ffffffff61427a16565b60008054600160a060020a03168152600e602052604090205560075471010000000000000000000000000000000000900460a060020a02600160a060020a0319161561434757614347614370565b60008054600160a060020a03191681556001819055600281905560038190556004819055600555565b60008054600160a060020a0316815260126020908152604080832054600f909252909120546143a49163ffffffff61427a16565b60008054600160a060020a039081168252600f602090815260408084209490945582549091168252601290529081208190556007556008805475ffffffffffffffffffffffffffffffffffffffffffff19169055565b6000808260070184511015151561445b576040805160e560020a62461bcd02815260206004820152601060248201527f206e6f74206c6f6e6720656e6f75676800000000000000000000000000000000604482015290519081900360640190fd5b5050016020015190565b60008082600c0184511015151561445b576040805160e560020a62461bcd02815260206004820152601060248201527f206e6f74206c6f6e6720656e6f75676800000000000000000000000000000000604482015290519081900360640190fd5b6000808260010184511015151561445b576040805160e560020a62461bcd02815260206004820152601060248201527f206e6f74206c6f6e6720656e6f75676800000000000000000000000000000000604482015290519081900360640190fd5b600054600160a060020a031615614588576040805160e560020a62461bcd02815260206004820152601d60248201527f63616e206e6f7420636c61696d207a6f6e652077697468206f776e6572000000604482015290519081900360640190fd5b68056bc75e2d6310000081101561460f576040805160e560020a62461bcd02815260206004820152603160248201527f6e656564206174206c65617374206d696e696d756d207a6f6e65207374616b6560448201527f20616d6f756e7420283130302044544829000000000000000000000000000000606482015290519081900360840190fd5b60008054600160a060020a031916600160a060020a03939093169290921782554260018190556002829055600391909155600455600555565b600054600160a060020a031615156146d0576040805160e560020a62461bcd02815260206004820152603560248201527f63616e6e6f7420626964206f6e207a6f6e6520776974686f7574206f776e657260448201527f2c2075736520636c61696d467265655a6f6e6528290000000000000000000000606482015290519081900360840190fd5b6000601054118015614702575060105460009081526006602052604081206002015460ff16600181111561470057fe5b145b15614716576147118282614c97565b61218e565b600554151561479057600154614735906202a30063ffffffff61427a16565b421161478b576040805160e560020a62461bcd02815260206004820152601f60248201527f636f6f6c646f776e20706572696f6420646964206e6f7420656e642079657400604482015290519081900360640190fd5b61480e565b6010546000908152600660205260409020600101546147b8906202a30063ffffffff61427a16565b421161480e576040805160e560020a62461bcd02815260206004820152601f60248201527f636f6f6c646f776e20706572696f6420646964206e6f7420656e642079657400604482015290519081900360640190fd5b61218e828261508c565b600080548190600160a060020a0316151561487d576040805160e560020a62461bcd02815260206004820152601160248201527f7a6f6e6520686173206e6f206f776e6572000000000000000000000000000000604482015290519081900360640190fd5b600054600160a060020a038581169116146148e2576040805160e560020a62461bcd02815260206004820152601860248201527f63616c6c6572206973206e6f74207a6f6e65206f776e65720000000000000000604482015290519081900360640190fd5b60105415806149135750600160105460009081526006602052604090206002015460ff16600181111561491157fe5b145b151561498f576040805160e560020a62461bcd02815260206004820152602360248201527f63616e6e6f7420746f70207570207768696c652061756374696f6e2072756e6e60448201527f696e670000000000000000000000000000000000000000000000000000000000606482015290519081900360840190fd5b60035491506149a4828463ffffffff61427a16565b600381905560408051848152602081018390528151929350600160a060020a038716927f993857d1afedc692a1ea47cde199310a57b73c0583028ce14c84bffd4e7aa5ea929181900390910190a250505050565b601080546000908152600660208181526040808420600281018054600160ff19909116811791829055965480875260118552838720600160a060020a03610100909304831680895290865284882054918852959094529185209095015484549294909390928392161415614a9d57600254614a79908563ffffffff61427a16565b600255600354614a8f908563ffffffff61427a16565b600355601054600555614ae4565b614aa561428c565b60028581015460008054610100909204600160a060020a0316600160a060020a0319909216919091179055600184905584905560038490556010546005555b614af483426000600201546109b2565b6003549193509150614b0c908363ffffffff61418c16565b600355505042600455505050565b600080600042600060040154101515614b325761175a565b600454600254614b44919042906109b2565b60035491945092508310614bee5750600354614b5e61428c565b6009546040805160e060020a63a9059cbb028152600160a060020a03600482018190526024820185905291516101009093049091169163a9059cbb916044808201926020929091908290030181600087803b158015614bbc57600080fd5b505af1158015614bd0573d6000803e3d6000fd5b505050506040513d6020811015614be657600080fd5b5061175a9050565b600354614c01908463ffffffff61418c16565b6003554260049081556009546040805160e060020a63a9059cbb028152600160a060020a039381018490526024810187905290516101009092049092169163a9059cbb9160448083019260209291908290030181600087803b158015614c6657600080fd5b505af1158015614c7a573d6000803e3d6000fd5b505050506040513d6020811015614c9057600080fd5b5050505050565b601054600090815260066020526040812060028101549091908190819081908190600160a060020a03898116610100909204161415614d20576040805160e560020a62461bcd02815260206004820152601960248201527f68696768657374206269646465722063616e6e6f742062696400000000000000604482015290519081900360640190fd5b601054600090815260116020908152604080832060028a0154600160a060020a03610100909104811685529252822054915491965089811691161415614e56576010546000908152601160209081526040808320600160a060020a038c168452909152902054614d96908863ffffffff61427a16565b6002549094508590614dae908663ffffffff61427a16565b11614e29576040805160e560020a62461bcd02815260206004820152603160248201527f626964202b20616c7265616479207374616b6564206973206c6573732074686160448201527f6e2063757272656e742068696768657374000000000000000000000000000000606482015290519081900360840190fd5b6010546000908152601160209081526040808320600160a060020a038c168452909152902084905561504d565b6010546000908152601160209081526040808320600160a060020a038c1684529091529020541515614f9557614e8b8761415a565b9093509150848211614ee7576040805160e560020a62461bcd02815260206004820181905260248201527f626964206973206c657373207468616e2063757272656e742068696768657374604482015290519081900360640190fd5b6010546000908152601160209081526040808320600160a060020a03808d168552908352818420869055600954825160e060020a63a9059cbb028152600481018390526024810189905292516101009091049091169363a9059cbb93604480850194919392918390030190829087803b158015614f6357600080fd5b505af1158015614f77573d6000803e3d6000fd5b505050506040513d6020811015614f8d57600080fd5b5061504d9050565b6010546000908152601160209081526040808320600160a060020a038c168452909152902054614fcb908863ffffffff61427a16565b9050848111615024576040805160e560020a62461bcd02815260206004820181905260248201527f626964206973206c657373207468616e2063757272656e742068696768657374604482015290519081900360640190fd5b6010546000908152601160209081526040808320600160a060020a038c16845290915290208190555b50505060029092018054600160a060020a039095166101000274ffffffffffffffffffffffffffffffffffffffff001990951694909417909355505050565b6000805481908190600160a060020a038681169116141561511d576040805160e560020a62461bcd02815260206004820152602160248201527f7a6f6e656f776e65722063616e6e6f7420737461727420616e2061756374696f60448201527f6e00000000000000000000000000000000000000000000000000000000000000606482015290519081900360840190fd5b6151268461415a565b600254919450925082116151a9576040805160e560020a62461bcd028152602060048201526024808201527f626964206973206c6f776572207468616e2063757272656e74207a6f6e65207360448201527f74616b6500000000000000000000000000000000000000000000000000000000606482015290519081900360840190fd5b50601080546001019081905560408051608081019091524280825260208201906151dc906201518063ffffffff61427a16565b815260200160008152600160a060020a0387166020918201526000838152600682526040908190208351815591830151600180840191909155908301516002830180549192909160ff191690838181111561523357fe5b0217905550606091909101516002909101805474ffffffffffffffffffffffffffffffffffffffff001916610100600160a060020a0393841681029190911790915560008381526011602090815260408083208a861684528252808320879055600954815160e060020a63a9059cbb02815260048101879052602481018a905291519490049094169363a9059cbb9360448083019491928390030190829087803b1580156152e057600080fd5b505af11580156152f4573d6000803e3d6000fd5b505050506040513d602081101561530a57600080fd5b50505050505050565b6040805160808101825260008082526020820181905290918201908152600060209091015290565b5080546000825590600052602060002090810190612190919061096591905b8082111561536e576000815560010161535a565b50905600636f6e7472616374206973207061757365640000000000000000000000000000636f756e7472792069732064697361626c656400000000000000000000000000636f6e7472616374206e6f742079657420696e697469616c697a6564000000006e6f7468696e6720746f20776974686472617700000000000000000000000000a165627a7a723058209a6e96b0299809a6c66aa88362778fefe61cf098f9310efb03cf2b1678841ed10029",
  "source": "pragma solidity ^0.4.24;\n\nimport \"openzeppelin-solidity/contracts/math/SafeMath.sol\";\n\nimport \"../dth/tokenfoundry/ERC223ReceivingContract.sol\";\nimport \"../dth/IDetherToken.sol\";// TODO: replace with zeppelin ERC20 abstract contract?\nimport \"../core/IUsers.sol\";\nimport \"../core/IControl.sol\";\nimport \"./IGeoRegistry.sol\";\nimport \"./IZoneFactory.sol\";\nimport \"./IZone.sol\";\n\ncontract Zone is ERC223ReceivingContract, IZone {\n  // ------------------------------------------------\n  //\n  // Library init\n  //\n  // ------------------------------------------------\n\n  using SafeMath for uint;\n\n  // ------------------------------------------------\n  //\n  // Enums\n  //\n  // ------------------------------------------------\n\n  enum AuctionState { Started, Ended }\n\n  // ------------------------------------------------\n  //\n  // Structs\n  //\n  // ------------------------------------------------\n\n  // NOTE:\n  // evm will convert to uint256 when doing calculations, so 1 time higher storage cost\n  // will be less than all the increased gas costs if we were to use smaller uints in the struct\n\n  struct ZoneOwner {\n    address addr;\n    uint startTime;\n    uint staked;\n    uint balance;\n    uint lastTaxTime;\n    uint auctionId;\n  }\n\n  struct Auction {\n    // since we do a lot of calcuations with these uints, it's best to leave them uint256\n    // evm will convert to uint256 anyways when doing calculations\n    uint startTime;\n    uint endTime;\n    AuctionState state;\n    address highestBidder;\n  }\n\n  struct Teller {\n    uint8 currencyId;  // 1 - 100 , see README\n    bytes16 messenger; // telegrame nickname\n    bytes12 position;  // 12 char geohash for location of teller\n    bytes1 settings;   // bitmask containing up to 8 boolean settings (only 2 used currently: isSeller, isBuyer)\n    // TODO: wouldn't it be wiser to use uint256, to make all calculations cost less\n    int16 buyRate;     // margin of tellers , -999 - +9999 , corresponding to -99,9% x 10  , 999,9% x 10\n    int16 sellRate;    // margin of tellers , -999 - +9999 , corresponding to -99,9% x 10  , 999,9% x 10\n    // 256 bits in total\n    address referrer;\n  }\n\n  // ------------------------------------------------\n  //\n  // Variables Private\n  //\n  // ------------------------------------------------\n\n  uint public constant MIN_STAKE = 100 * 1 ether; // DTH, which is also 18 decimals!\n  uint private constant BID_PERIOD = 24 * 1 hours;\n  uint private constant COOLDOWN_PERIOD = 48 * 1 hours;\n  uint private constant ENTRY_FEE_PERCENTAGE = 1; // 1%\n  uint private constant TAX_PERCENTAGE = 1; // 1%\n  uint private constant REFERRER_FEE_PERCENTAGE = 1; // 0.1%\n  address private constant ADDRESS_BURN = 0xFFfFfFffFFfffFFfFFfFFFFFffFFFffffFfFFFfF;\n\n  ZoneOwner private zoneOwner;\n\n  mapping(uint => Auction) private auctionIdToAuction;\n\n  Teller private teller;\n  bytes1 private constant isSellerBitMask = hex\"01\";\n  bytes1 private constant isBuyerBitMask = hex\"02\";\n\n  // ------------------------------------------------\n  //\n  // Variables Public\n  //\n  // ------------------------------------------------\n\n  bool inited;\n\n  IDetherToken public dth;\n  IGeoRegistry public geo;\n  IUsers public users;\n  IControl public control;\n  IZoneFactory public zoneFactory;\n\n  bytes2 public country;\n  bytes7 public geohash;\n\n  mapping(address => uint) public withdrawableDth;\n  mapping(address => uint) public withdrawableEth;\n\n  uint public currentAuctionId; // starts at 0, first auction will get id 1, etc.\n\n  //      auctionId       bidder     dthAmount\n  mapping(uint => mapping(address => uint)) public auctionBids;\n\n  //(prev)zoneOwner          ethAmount\n  mapping(address => uint) public funds;\n\n  mapping(address => mapping(address => uint)) public canPlaceCertifiedComment;\n\n  mapping(address => bytes32[]) public commentsFree;\n  mapping(address => bytes32[]) public commentsCertified;\n\n  // ------------------------------------------------\n  //\n  // Events\n  //\n  // ------------------------------------------------\n\n  event ZoneCreated(address indexed zoneAddress, bytes2 indexed countryCode, bytes7 indexed geohash, uint dthAmount);\n  event ZoneOwnerUpdated(address indexed zoneAddress, address indexed oldOwner, address indexed newOwner);\n  event ZoneOwnerForeClosed(address indexed owner, uint lifeStart, uint lifeEnd, uint taxPaidTotal, uint taxDebtOutstanding);\n  event ZoneOwnerTaxesPaid(address indexed owner, uint taxStart, uint taxEnd, uint taxAmount);\n  event ZoneOwnerTopUp(address indexed owner, uint oldBalance, uint newBalance);\n  event ZoneAuctionStarted(address indexed auctionId, uint lifeStart);\n  event ZoneAuctionEnded(address indexed auctionId, uint lifeEnd, address indexed newOwner);\n  event ZoneAuctionBid(address indexed auctionId, address indexed bidder, uint bidAmount); // NOTE: this includes current stake if zone owner bids\n  event ZoneUpdatedTeller(address indexed owner);\n\n  // ------------------------------------------------\n  //\n  // Modifiers\n  //\n  // ------------------------------------------------\n\n  modifier onlyWhenInited() {\n    // NOTE: somehow if w add an error message, we get 'out of gas' on deploy?!\n    // require(inited == true);\n    require(inited == true, \"contract not yet initialized\");\n    _;\n  }\n  modifier onlyWhenNotInited() {\n    require(inited == false, \"contract already initialized\");\n    _;\n  }\n\n  // ------------------------------------------------\n  //\n  // Constructor\n  //\n  // ------------------------------------------------\n\n  constructor() public {\n\n  }\n\n  // executed by ZoneFactory.sol when this Zone does not yet exist (= not yet deployed)\n  function init(\n    bytes2 _countryCode,\n    bytes7 _geohash,\n    address _zoneOwner,\n    uint _dthAmount,\n    address _dth,\n    address _geo,\n    address _users,\n    address _control,\n    address _zoneFactory\n  )\n    onlyWhenNotInited\n    external\n  {\n    require(_dthAmount >= MIN_STAKE, \"zone dth stake shoulld be at least minimum (100DTH)\");\n\n    country = _countryCode;\n    geohash = _geohash;\n\n    dth = IDetherToken(_dth);\n    geo = IGeoRegistry(_geo);\n    users = IUsers(_users);\n    control = IControl(_control);\n    zoneFactory = IZoneFactory(_zoneFactory);\n\n    zoneOwner.addr = _zoneOwner;\n    zoneOwner.startTime = now;\n    zoneOwner.staked = _dthAmount;\n    zoneOwner.balance = _dthAmount;\n    zoneOwner.lastTaxTime = now;\n    zoneOwner.auctionId = 0; // was not gained by winning an auction\n\n    emit ZoneCreated(address(this), _countryCode, _geohash, _dthAmount);\n    emit ZoneOwnerUpdated(address(this), address(0), _zoneOwner);\n\n    inited = true;\n  }\n\n  // ------------------------------------------------\n  //\n  // Functions Getters Public\n  //\n  // ------------------------------------------------\n\n  function computeCSC(bytes7 _geohash, address _addr)\n    public\n    pure\n    returns (bytes12)\n  {\n    return bytes12(keccak256(abi.encodePacked(_geohash, _addr)));\n  }\n\n  function calcHarbergerTax(uint _startTime, uint _endTime, uint _dthAmount)\n    public\n    view\n    returns (uint taxAmount, uint keepAmount)\n  {\n    // TODO use smaller uint variables, hereby preventing under/overflows, so no need for SafeMath\n    // source: https://programtheblockchain.com/posts/2018/09/19/implementing-harberger-tax-deeds/\n    taxAmount = _dthAmount.mul(_endTime.sub(_startTime)).mul(TAX_PERCENTAGE).div(100).div(1 days);\n    keepAmount = _dthAmount.sub(taxAmount);\n  }\n\n  function calcEntryFee(uint _value)\n    public\n    view\n    returns (uint burnAmount, uint bidAmount)\n  {\n    burnAmount = _value.div(100).mul(ENTRY_FEE_PERCENTAGE); // 1%\n    bidAmount = _value.sub(burnAmount); // 99%\n  }\n\n  function calcReferrerFee(uint _value)\n    public\n    view\n    returns (uint referrerAmount)\n  {\n    referrerAmount = _value.div(1000).mul(REFERRER_FEE_PERCENTAGE); // 0.1%\n  }\n\n  function auctionExists(uint _auctionId)\n    external\n    view\n    returns (bool)\n  {\n    // if aucton does not exist we should get back zero, otherwise this field\n    // will contain a block.timestamp, set whe creating an Auction, in constructor() and bid()\n    return auctionIdToAuction[_auctionId].startTime > 0;\n  }\n\n  /// @notice get current zone owner data\n  function getZoneOwner()\n    external\n    view\n    returns (address, uint, uint, uint, uint, uint)\n  {\n    return (\n      zoneOwner.addr,        // address of current owner\n      zoneOwner.startTime,   // time this address became owner\n      zoneOwner.staked,      // \"price you sell at\"\n      zoneOwner.balance,     // will decrease whenever harberger taxes are paid\n      zoneOwner.lastTaxTime, // time until taxes have been paid\n      zoneOwner.auctionId    // if gained by winning auction, the auction id, otherwise zero\n    );\n  }\n\n  /// @notice get a specific auction\n  function getAuction(uint _auctionId)\n    public\n    view\n    returns (uint, uint, uint, uint, address, uint)\n  {\n    Auction memory auction = auctionIdToAuction[_auctionId];\n\n    uint highestBid = auctionBids[_auctionId][auction.highestBidder];\n\n    // for current zone owner his existing zone stake is added to his bid\n    if (auction.state == AuctionState.Started &&\n        auction.highestBidder == zoneOwner.addr)\n    {\n      highestBid = highestBid.add(zoneOwner.staked);\n    }\n\n    return (\n      _auctionId,\n      uint(auction.state),\n      auction.startTime,\n      auction.endTime,\n      auction.highestBidder,\n      highestBid\n    );\n  }\n\n  /// @notice get the last auction\n  function getLastAuction()\n    external\n    view\n    returns (uint, uint, uint, uint, address, uint)\n  {\n    return getAuction(currentAuctionId);\n  }\n\n  function getTeller()\n    external\n    view\n    returns (uint8, bytes16, bytes12, bytes1, int16, int16, uint, address)\n  {\n    return (\n      teller.currencyId,\n      teller.messenger,\n      teller.position,\n      teller.settings,\n      teller.buyRate,\n      teller.sellRate,\n      funds[zoneOwner.addr],\n      teller.referrer\n    );\n  }\n\n  function getCertifiedComments()\n    external\n    view\n    returns (bytes32[])\n  {\n    return commentsCertified[zoneOwner.addr];\n  }\n\n  function getComments()\n    external\n    view\n    returns (bytes32[])\n  {\n    return commentsFree[zoneOwner.addr];\n  }\n\n  // ------------------------------------------------\n  //\n  // Functions Getters Private\n  //\n  // ------------------------------------------------\n\n  function toBytes1(bytes _bytes, uint _start)\n    private\n    pure\n    returns (bytes1) {\n      require(_bytes.length >= (_start + 1), \" not long enough\");\n      bytes1 tempBytes1;\n\n      assembly {\n          tempBytes1 := mload(add(add(_bytes, 0x20), _start))\n      }\n\n      return tempBytes1;\n  }\n  function toBytes7(bytes _bytes, uint _start)\n    private\n    pure\n    returns (bytes7) {\n      require(_bytes.length >= (_start + 7), \" not long enough\");\n      bytes7 tempBytes7;\n\n      assembly {\n          tempBytes7 := mload(add(add(_bytes, 0x20), _start))\n      }\n\n      return tempBytes7;\n  }\n  function toBytes12(bytes _bytes, uint _start)\n    private\n    pure\n    returns (bytes12) {\n      require(_bytes.length >= (_start + 12), \" not long enough\");\n      bytes12 tempBytes12;\n\n      assembly {\n          tempBytes12 := mload(add(add(_bytes, 0x20), _start))\n      }\n\n      return tempBytes12;\n  }\n\n  // ------------------------------------------------\n  //\n  // Functions Setters Private\n  //\n  // ------------------------------------------------\n\n  function _removeZoneOwner()\n    private\n  {\n    delete commentsFree[zoneOwner.addr];\n    delete commentsCertified[zoneOwner.addr];\n\n    withdrawableDth[zoneOwner.addr] = withdrawableDth[zoneOwner.addr].add(zoneOwner.balance);\n\n    if (teller.position != bytes12(0)) _removeTeller(); // we do it here since it needs zoneOwner.addr\n\n    zoneOwner.addr = address(0);\n    zoneOwner.startTime = 0;\n    zoneOwner.staked = 0;\n    zoneOwner.balance = 0;\n    zoneOwner.lastTaxTime = 0;\n    zoneOwner.auctionId = 0;\n  }\n\n  function _removeTeller()\n    private\n  {\n    // we dont remove comments here, so that if zoneowner readds or repositions his teller,\n    // his comments still exist.\n\n    withdrawableEth[zoneOwner.addr] = withdrawableEth[zoneOwner.addr].add(funds[zoneOwner.addr]);\n    funds[zoneOwner.addr] = 0;\n\n    teller.currencyId = 0;\n    teller.messenger = bytes16(0);\n    teller.position = bytes12(0);\n    teller.settings = bytes1(0);\n    teller.buyRate = 0;\n    teller.sellRate = 0;\n    teller.referrer = address(0);\n  }\n\n  function _handleTaxPayment()\n    private\n  {\n    // processState ensured that: no running auction + there is a zone owner\n\n    if (zoneOwner.lastTaxTime >= now) {\n      return; // short-circuit: multiple txes in 1 block OR many blocks but in same Auction\n    }\n\n    (uint taxAmount, uint keepAmount) = calcHarbergerTax(zoneOwner.lastTaxTime, now, zoneOwner.staked);\n\n    if (taxAmount >= zoneOwner.balance) {\n      // zone owner does not have enough balance, remove him as zone owner\n      uint oldZoneOwnerBalance = zoneOwner.balance;\n      _removeZoneOwner();\n      dth.transfer(ADDRESS_BURN, oldZoneOwnerBalance);\n    } else {\n      // zone owner can pay due taxes\n      zoneOwner.balance = zoneOwner.balance.sub(taxAmount);\n      zoneOwner.lastTaxTime = now;\n      dth.transfer(ADDRESS_BURN, taxAmount);\n    }\n  }\n\n  function _endAuction()\n    private\n  {\n    Auction storage lastAuction = auctionIdToAuction[currentAuctionId];\n\n    lastAuction.state = AuctionState.Ended;\n\n    uint highestBid = auctionBids[currentAuctionId][lastAuction.highestBidder];\n    uint auctionEndTime = auctionIdToAuction[currentAuctionId].endTime;\n\n    if (zoneOwner.addr == lastAuction.highestBidder) {\n      // current zone owner won the auction, extend his zone ownershp\n      zoneOwner.staked = zoneOwner.staked.add(highestBid);\n      zoneOwner.balance = zoneOwner.balance.add(highestBid);\n\n      // need to set it since it might've been zero\n      zoneOwner.auctionId = currentAuctionId; // the (last) auctionId that gave the zoneOwner zone ownership\n    } else {\n      // we need to update the zone owner\n      _removeZoneOwner();\n\n      zoneOwner.addr = lastAuction.highestBidder;\n      zoneOwner.startTime = auctionEndTime;\n      zoneOwner.staked = highestBid; // entry fee is already deducted when user calls bid()\n      zoneOwner.balance = highestBid;\n      zoneOwner.auctionId = currentAuctionId; // the auctionId that gave the zoneOwner zone ownership\n    }\n\n    // (new) zone owner needs to pay taxes from the moment he acquires zone ownership until now\n    (uint taxAmount, uint keepAmount) = calcHarbergerTax(auctionEndTime, now, zoneOwner.staked);\n    zoneOwner.balance = zoneOwner.balance.sub(taxAmount);\n    zoneOwner.lastTaxTime = now;\n  }\n\n  /// @notice private function to update the current auction state\n  function _processState()\n    private\n  {\n    if (currentAuctionId > 0 && auctionIdToAuction[currentAuctionId].state == AuctionState.Started) {\n      // while uaction is running, no taxes need to be paid\n\n      // handling of taxes around change of zone ownership are handled inside _endAuction\n      if (now >= auctionIdToAuction[currentAuctionId].endTime) _endAuction();\n    } else { // no running auction, currentAuctionId could be zero\n      if (zoneOwner.addr != address(0)) _handleTaxPayment();\n    }\n  }\n\n  function _joinAuction(address _sender, uint _dthAmount)\n    private\n  {\n    Auction storage lastAuction = auctionIdToAuction[currentAuctionId];\n\n    //------------------------------------------------------------------------------//\n    // there is a running auction, lets see if we can join the auction with our bid //\n    //------------------------------------------------------------------------------//\n\n    require(_sender != lastAuction.highestBidder, \"highest bidder cannot bid\");\n\n    uint currentHighestBid = auctionBids[currentAuctionId][lastAuction.highestBidder];\n\n    if (_sender == zoneOwner.addr) {\n      uint dthAddedBidsAmount = auctionBids[currentAuctionId][_sender].add(_dthAmount); // NOTE: _dthAmount\n      // the current zone owner's stake also counts in his bid\n      require(zoneOwner.staked.add(dthAddedBidsAmount) > currentHighestBid, \"bid + already staked is less than current highest\");\n      auctionBids[currentAuctionId][_sender] = dthAddedBidsAmount;\n    } else {\n      // _sender is not the current zone owner\n      if (auctionBids[currentAuctionId][_sender] == 0) {\n        // this is the first bid of this challenger, deduct entry fee\n        (uint burnAmount, uint bidAmount) = calcEntryFee(_dthAmount);\n        require(bidAmount > currentHighestBid, \"bid is less than current highest\");\n        auctionBids[currentAuctionId][_sender] = bidAmount;\n        dth.transfer(ADDRESS_BURN, burnAmount);\n      } else {\n        // not the first bid, no entry fee\n        uint newUserTotalBid = auctionBids[currentAuctionId][_sender].add(_dthAmount);\n        require(newUserTotalBid > currentHighestBid, \"bid is less than current highest\");\n        auctionBids[currentAuctionId][_sender] = newUserTotalBid;\n      }\n    }\n\n    // it worked, _sender placed a bid\n    lastAuction.highestBidder = _sender;\n  }\n\n  function _createAuction(address _sender, uint _dthAmount)\n    private\n  {\n    require(_sender != zoneOwner.addr, \"zoneowner cannot start an auction\");\n\n    (uint burnAmount, uint bidAmount) = calcEntryFee(_dthAmount);\n    require(bidAmount > zoneOwner.staked, \"bid is lower than current zone stake\");\n\n    // save the new Auction\n    uint newAuctionId = ++currentAuctionId;\n\n    auctionIdToAuction[newAuctionId] = Auction({\n      state: AuctionState.Started,\n      startTime: now,\n      endTime: now.add(BID_PERIOD),\n      highestBidder: _sender // caller (challenger)\n    });\n\n    auctionBids[newAuctionId][_sender] = bidAmount;\n\n    dth.transfer(ADDRESS_BURN, burnAmount);\n  }\n\n  /// @notice private function to update the current auction state\n  function _bid(address _sender, uint _dthAmount) // GAS COST +/- 223.689\n    private\n  {\n    require(zoneOwner.addr != address(0), \"cannot bid on zone without owner, use claimFreeZone()\");\n\n    if (currentAuctionId > 0 && auctionIdToAuction[currentAuctionId].state == AuctionState.Started) {\n      _joinAuction(_sender, _dthAmount);\n    } else { // there currently is no running auction\n      if (zoneOwner.auctionId == 0) {\n        // current zone owner did not become owner by winning an auction, but by creating this zone or caliming it when it was free\n        require(now > zoneOwner.startTime.add(COOLDOWN_PERIOD), \"cooldown period did not end yet\");\n      } else {\n        // current zone owner became owner by winning an auction (which has ended)\n        require(now > auctionIdToAuction[currentAuctionId].endTime.add(COOLDOWN_PERIOD), \"cooldown period did not end yet\");\n      }\n      _createAuction(_sender, _dthAmount);\n    }\n  }\n\n  function _claimFreeZone(address _sender, uint _dthAmount) // GAS COSt +/- 177.040\n    private\n  {\n    require(zoneOwner.addr == address(0), \"can not claim zone with owner\");\n    require(_dthAmount >= MIN_STAKE, \"need at least minimum zone stake amount (100 DTH)\");\n\n    // NOTE: empty zone claim will not have entry fee deducted, its not bidding it's taking immediately\n    zoneOwner.addr = _sender;\n    zoneOwner.startTime = now;\n    zoneOwner.staked = _dthAmount;\n    zoneOwner.balance = _dthAmount;\n    zoneOwner.lastTaxTime = now;\n    zoneOwner.auctionId = 0; // since it was not gained wby winning an auction\n  }\n\n  function _topUp(address _sender, uint _dthAmount) // GAS COST +/- 104.201\n    private\n  {\n    require(zoneOwner.addr != address(0), \"zone has no owner\");\n    require(_sender == zoneOwner.addr, \"caller is not zone owner\");\n    require(currentAuctionId == 0 || auctionIdToAuction[currentAuctionId].state == AuctionState.Ended, \"cannot top up while auction running\");\n\n    uint oldBalance = zoneOwner.balance;\n    uint newBalance = oldBalance.add(_dthAmount);\n    zoneOwner.balance = newBalance;\n\n    emit ZoneOwnerTopUp(_sender, oldBalance, newBalance);\n  }\n\n  // ------------------------------------------------\n  //\n  // Functions Setters Public\n  //\n  // ------------------------------------------------\n\n  /////////////\n  //\n  //\n  // Zone ownership + Auction\n  //\n  //\n  /////////////\n\n  /// @notice ERC223 receiving function called by Dth contract when Eth is sent to this contract\n  /// @param _from Who send DTH to this contract\n  /// @param _value How much DTH was sent to this contract\n  /// @param _data Additional bytes data sent\n  function tokenFallback(address _from, uint _value, bytes _data)\n    onlyWhenInited\n    public\n  {\n    require(msg.sender == address(dth), \"can only be called by dth contract\");\n    require(control.paused() == false, \"contract is paused\");\n    require(geo.countryIsEnabled(country), \"country is disabled\");\n\n    bytes1 func = toBytes1(_data, 0);\n\n    require(func == bytes1(0x40) || func == bytes1(0x41) || func == bytes1(0x42) || func == bytes1(0x43), \"did not match Zone function\");\n\n    if (func == bytes1(0x40)) { // zone was created by factory, sending through DTH\n      return; // just retun success\n    }\n\n    _processState();\n\n    if (func == bytes1(0x41)) { // claimFreeZone\n      _claimFreeZone(_from, _value);\n    } else if (func == bytes1(0x42)) { // bid\n      _bid(_from, _value);\n    } else if (func == bytes1(0x43)) { // topUp\n      _topUp(_from, _value);\n    }\n  }\n\n  /// @notice release zone ownership\n  /// @dev can only be called by current zone owner, when there is no running auction\n  function release() // GAS COST +/- 72.351\n    onlyWhenInited\n    external\n  {\n    require(control.paused() == false, \"contract is paused\");\n    // allow also when country is disabled, otherwise no way for zone owner to get their eth/dth back\n\n    // zone owner could be removed if he does not have enough balance to pay his taxes\n    _processState();\n\n    require(msg.sender == zoneOwner.addr, \"caller is not zone owner\");\n    require(currentAuctionId == 0 || auctionIdToAuction[currentAuctionId].state == AuctionState.Ended, \"cannot release while auction running\");\n\n    uint ownerBalance = zoneOwner.balance;\n\n    _removeZoneOwner();\n    _removeTeller();\n\n    // if msg.sender is a contract, the DTH ERC223 contract will try to call tokenFallback\n    // on msg.sender, this could lead to a reentrancy. But we prevent this by resetting\n    // zoneOwner before we do dth.transfer(msg.sender)\n    dth.transfer(msg.sender, ownerBalance);\n  }\n\n  // offer three different withdraw functions, single auction, multiple auctions, all auctions\n\n  /// @notice withdraw losing bids from a specific auction\n  /// @param _auctionId The auction id\n  function withdrawFromAuction(uint _auctionId) // GAS COST +/- 125.070\n    onlyWhenInited\n    external\n  {\n    require(control.paused() == false, \"contract is paused\");\n    // even when country is disabled, otherwise users cannot withdraw their bids\n\n    require(_auctionId > 0 && _auctionId <= currentAuctionId, \"auctionId does not exist\");\n\n    _processState();\n\n    require(auctionIdToAuction[_auctionId].state == AuctionState.Ended, \"cannot withdraw while auction is active\");\n    require(auctionIdToAuction[_auctionId].highestBidder != msg.sender, \"auction winner can not withdraw\");\n    require(auctionBids[_auctionId][msg.sender] > 0, \"nothing to withdraw\");\n\n    uint withdrawAmount = auctionBids[_auctionId][msg.sender];\n    auctionBids[_auctionId][msg.sender] = 0;\n\n    dth.transfer(msg.sender, withdrawAmount);\n  }\n\n  /// @notice withdraw from a given list of auction ids\n  function withdrawFromAuctions(uint[] _auctionIds) // GAS COST +/- 127.070\n    onlyWhenInited\n    external\n  {\n    require(control.paused() == false, \"contract is paused\");\n    // even when country is disabled, can withdraw\n    require(currentAuctionId > 0, \"there are no auctions\");\n\n    _processState();\n\n    require(_auctionIds.length > 0, \"auctionIds list is empty\");\n    require(_auctionIds.length <= currentAuctionId, \"auctionIds list is longer than allowed\");\n\n    uint withdrawAmountTotal = 0;\n\n    for (uint idx = 0; idx < _auctionIds.length; idx++) {\n      uint auctionId = _auctionIds[idx];\n      require(auctionId > 0 && auctionId <= currentAuctionId, \"auctionId does not exist\");\n      require(auctionIdToAuction[auctionId].state == AuctionState.Ended, \"cannot withdraw from running auction\");\n      require(auctionIdToAuction[auctionId].highestBidder != msg.sender, \"auction winner can not withdraw\");\n      uint withdrawAmount = auctionBids[auctionId][msg.sender];\n      if (withdrawAmount > 0) {\n        // if user supplies the same auctionId multiple times in auctionIds,\n        // only the first one will get a withdrawal amount\n        auctionBids[auctionId][msg.sender] = 0;\n        withdrawAmountTotal = withdrawAmountTotal.add(withdrawAmount);\n      }\n    }\n\n    require(withdrawAmountTotal > 0, \"nothing to withdraw\");\n\n    dth.transfer(msg.sender, withdrawAmountTotal);\n  }\n\n  function withdrawDth()\n    onlyWhenInited\n    external\n  {\n    uint dthWithdraw = withdrawableDth[msg.sender];\n    require(dthWithdraw > 0, \"nothing to withdraw\");\n\n    if (dthWithdraw > 0) {\n      withdrawableDth[msg.sender] = 0;\n      dth.transfer(msg.sender, dthWithdraw);\n    }\n  }\n\n  function withdrawEth()\n    onlyWhenInited\n    external\n  {\n    uint ethWithdraw = withdrawableEth[msg.sender];\n    require(ethWithdraw > 0, \"nothing to withdraw\");\n\n    if (ethWithdraw > 0) {\n      withdrawableEth[msg.sender] = 0;\n      msg.sender.transfer(ethWithdraw);\n    }\n  }\n\n  /////////////\n  //\n  //\n  // TELLER\n  //\n  //\n  /////////////\n\n\n  // NOTE: we could just require only last 5 bytes of a bytes12 geohash, since\n  // the first 7 bytes will be the geohash of this zone. But by requiring the full geohash\n  // we can mkae more sure the user is talking to the right zone\n  function addTeller(bytes _position, uint8 _currencyId, bytes16 _messenger, int16 _sellRate, int16 _buyRate, bytes1 _settings, address _referrer) // GAS COST +/- 75.301\n    onlyWhenInited\n    external\n  {\n    require(control.paused() == false, \"contract is paused\");\n    require(geo.countryIsEnabled(country), \"country is disabled\");\n    require(_position.length == 12, \"expected position to be 10 bytes\");\n    require(toBytes7(_position, 0) == geohash, \"position is not inside this zone\");\n    require(geo.validGeohashChars(_position), \"invalid position geohash characters\");\n\n    require(_currencyId >= 1 && _currencyId <= 100, \"currency id must be in range 1-100\");\n    // _messenger can be 0x0 if he has no telegram\n\n    if (_settings & isSellerBitMask != 0) { // seller bit is set => teller is a \"seller\"\n      require(_sellRate >= -9999 && _sellRate <= 9999, \"sellRate should be between -9999 and 9999\");\n    } else {\n      require(_sellRate == 0, \"cannot set sellRate if not set as seller\");\n    }\n\n    if (_settings & isBuyerBitMask != 0) { // buyer bit is set => teller is a \"buyer\"\n      require(_buyRate >= -9999 && _buyRate <= 9999, \"buyRate should be between -9999 and 9999\");\n    } else {\n      require(_buyRate == 0, \"cannot set buyRate if not set as buyer\");\n    }\n\n    _processState();\n\n    require(msg.sender == zoneOwner.addr, \"only zone owner can add teller info\");\n\n    teller.currencyId = _currencyId;\n    teller.messenger = _messenger;\n    teller.buyRate = _buyRate;\n    teller.sellRate = _sellRate;\n    teller.position = toBytes12(_position, 0);\n    teller.settings = _settings;\n    teller.referrer = _referrer;\n\n    emit ZoneUpdatedTeller(msg.sender);\n  }\n\n  function removeTeller()\n    onlyWhenInited\n    external\n  {\n    require(control.paused() == false, \"contract is paused\");\n\n    _processState();\n\n    require(msg.sender == zoneOwner.addr, \"only zone owner can add teller info\");\n\n    _removeTeller();\n  }\n\n  // called by Teller, adding ETH to Teller funds\n  function addFunds() // GAS COST +/- 59.809\n    onlyWhenInited\n    external\n    payable\n  {\n    require(control.paused() == false, \"contract is paused\");\n    require(geo.countryIsEnabled(country), \"country is disabled\");\n    require(msg.value > 0, \"no eth send with call\");\n\n    _processState();\n\n    require(msg.sender == zoneOwner.addr, \"only zoneOwner can add funds\");\n    require(teller.currencyId != 0, \"not yet added teller info\");\n\n    // register ETH sent to this contract\n    funds[msg.sender] = funds[msg.sender].add(msg.value);\n  }\n\n  // called by Teller, sending ETH from Zone to _to\n  function sellEth(address _to, uint _amount) // GAS COST +/- 147.310\n    onlyWhenInited\n    external\n  {\n    // NOTE: even users which are not registered in tier 1/2 -> sms/kyc, are allowed to sell eth\n    require(control.paused() == false, \"contract is paused\");\n    require(geo.countryIsEnabled(country), \"country is disabled\");\n    require(msg.sender != _to, \"sender cannot also be to\");\n    require(_amount > 0, \"amount to sell cannot be zero\");\n\n    _processState();\n\n    require(msg.sender == zoneOwner.addr, \"can only be called by zone owner\");\n    require(teller.currencyId != 0, \"not yet added teller info\");\n\n    if (teller.referrer != address(0)) { // need to pay referrer fee\n      uint referrerAmount = calcReferrerFee(_amount);\n      require(funds[msg.sender] >= _amount + referrerAmount, \"not enough funds to sell eth amount plus pay referrer fee\");\n      funds[msg.sender] = funds[msg.sender].sub(_amount + referrerAmount);\n      withdrawableEth[teller.referrer] = withdrawableEth[teller.referrer].add(referrerAmount);\n    } else {\n      require(funds[msg.sender] >= _amount, \"cannot sell more than in funds\");\n      funds[msg.sender] = funds[msg.sender].sub(_amount);\n    }\n\n    zoneFactory.updateUserDailySold(country, msg.sender, _to, _amount); // MIGHT THROW if exceeds daily limit\n\n    canPlaceCertifiedComment[zoneOwner.addr][_to]++;\n\n    _to.transfer(_amount);\n  }\n\n  function addCertifiedComment(bytes32 _commentHash)\n    onlyWhenInited\n    external\n  {\n    require(control.paused() == false, \"contract is paused\");\n    require(geo.countryIsEnabled(country), \"country is disabled\");\n    require(_commentHash != bytes32(0), \"comment hash cannot be 0x0\");\n\n    _processState();\n\n    require(zoneOwner.addr != address(0), \"cannot comment on zone without owner\");\n    require(teller.position != bytes12(0), \"cannot comment on zone without teller\");\n    require(msg.sender != zoneOwner.addr, \"zone owner cannot comment on himself\");\n\n    require(canPlaceCertifiedComment[zoneOwner.addr][msg.sender] > 0, \"user not allowed to place a certified comment\");\n    canPlaceCertifiedComment[zoneOwner.addr][msg.sender]--;\n\n    commentsCertified[zoneOwner.addr].push(_commentHash);\n  }\n\n  function addComment(bytes32 _commentHash)\n    onlyWhenInited\n    external\n  {\n    require(control.paused() == false, \"contract is paused\");\n    require(geo.countryIsEnabled(country), \"country is disabled\");\n    require(_commentHash != bytes32(0), \"comment hash cannot be 0x0\");\n\n    _processState();\n\n    require(zoneOwner.addr != address(0), \"cannot comment on zone without owner\");\n    require(teller.position != bytes12(0), \"cannot comment on zone without teller\");\n    require(msg.sender != zoneOwner.addr, \"zone owner cannot comment on himself\");\n\n    commentsFree[zoneOwner.addr].push(_commentHash);\n  }\n}\n",
  "sourcePath": "/Users/trip/Projects/detherContracts/contracts/map/Zone.sol",
  "compiler": {
    "name": "solc",
    "version": "0.4.24+commit.e67f0147.Emscripten.clang"
  },
  "schemaVersion": "2.0.1",
  "updatedAt": "2019-01-29T14:08:01.201Z"
}