{
  "contractName": "Zone",
  "abi": [
    {
      "constant": true,
      "inputs": [],
      "name": "dth",
      "outputs": [
        {
          "name": "",
          "type": "address"
        }
      ],
      "payable": false,
      "stateMutability": "view",
      "type": "function"
    },
    {
      "constant": true,
      "inputs": [],
      "name": "geohash",
      "outputs": [
        {
          "name": "",
          "type": "bytes7"
        }
      ],
      "payable": false,
      "stateMutability": "view",
      "type": "function"
    },
    {
      "constant": true,
      "inputs": [],
      "name": "currentAuctionId",
      "outputs": [
        {
          "name": "",
          "type": "uint256"
        }
      ],
      "payable": false,
      "stateMutability": "view",
      "type": "function"
    },
    {
      "constant": true,
      "inputs": [
        {
          "name": "",
          "type": "uint256"
        },
        {
          "name": "",
          "type": "address"
        }
      ],
      "name": "auctionBids",
      "outputs": [
        {
          "name": "",
          "type": "uint256"
        }
      ],
      "payable": false,
      "stateMutability": "view",
      "type": "function"
    },
    {
      "constant": true,
      "inputs": [
        {
          "name": "",
          "type": "address"
        }
      ],
      "name": "withdrawableDth",
      "outputs": [
        {
          "name": "",
          "type": "uint256"
        }
      ],
      "payable": false,
      "stateMutability": "view",
      "type": "function"
    },
    {
      "constant": true,
      "inputs": [],
      "name": "zoneFactory",
      "outputs": [
        {
          "name": "",
          "type": "address"
        }
      ],
      "payable": false,
      "stateMutability": "view",
      "type": "function"
    },
    {
      "constant": true,
      "inputs": [],
      "name": "country",
      "outputs": [
        {
          "name": "",
          "type": "bytes2"
        }
      ],
      "payable": false,
      "stateMutability": "view",
      "type": "function"
    },
    {
      "constant": true,
      "inputs": [],
      "name": "control",
      "outputs": [
        {
          "name": "",
          "type": "address"
        }
      ],
      "payable": false,
      "stateMutability": "view",
      "type": "function"
    },
    {
      "constant": true,
      "inputs": [],
      "name": "geo",
      "outputs": [
        {
          "name": "",
          "type": "address"
        }
      ],
      "payable": false,
      "stateMutability": "view",
      "type": "function"
    },
    {
      "constant": true,
      "inputs": [
        {
          "name": "",
          "type": "address"
        }
      ],
      "name": "withdrawableEth",
      "outputs": [
        {
          "name": "",
          "type": "uint256"
        }
      ],
      "payable": false,
      "stateMutability": "view",
      "type": "function"
    },
    {
      "constant": true,
      "inputs": [
        {
          "name": "",
          "type": "address"
        }
      ],
      "name": "funds",
      "outputs": [
        {
          "name": "",
          "type": "uint256"
        }
      ],
      "payable": false,
      "stateMutability": "view",
      "type": "function"
    },
    {
      "constant": true,
      "inputs": [],
      "name": "users",
      "outputs": [
        {
          "name": "",
          "type": "address"
        }
      ],
      "payable": false,
      "stateMutability": "view",
      "type": "function"
    },
    {
      "inputs": [
        {
          "name": "_countryCode",
          "type": "bytes2"
        },
        {
          "name": "_geohash",
          "type": "bytes7"
        },
        {
          "name": "_zoneOwner",
          "type": "address"
        },
        {
          "name": "_dthAmount",
          "type": "uint256"
        },
        {
          "name": "_dth",
          "type": "address"
        },
        {
          "name": "_geo",
          "type": "address"
        },
        {
          "name": "_users",
          "type": "address"
        },
        {
          "name": "_control",
          "type": "address"
        },
        {
          "name": "_zoneFactory",
          "type": "address"
        }
      ],
      "payable": false,
      "stateMutability": "nonpayable",
      "type": "constructor"
    },
    {
      "anonymous": false,
      "inputs": [
        {
          "indexed": true,
          "name": "zoneAddress",
          "type": "address"
        },
        {
          "indexed": true,
          "name": "countryCode",
          "type": "bytes2"
        },
        {
          "indexed": true,
          "name": "geohash",
          "type": "bytes7"
        },
        {
          "indexed": false,
          "name": "dthAmount",
          "type": "uint256"
        }
      ],
      "name": "ZoneCreated",
      "type": "event"
    },
    {
      "anonymous": false,
      "inputs": [
        {
          "indexed": true,
          "name": "zoneAddress",
          "type": "address"
        },
        {
          "indexed": true,
          "name": "oldOwner",
          "type": "address"
        },
        {
          "indexed": true,
          "name": "newOwner",
          "type": "address"
        }
      ],
      "name": "ZoneOwnerUpdated",
      "type": "event"
    },
    {
      "anonymous": false,
      "inputs": [
        {
          "indexed": true,
          "name": "owner",
          "type": "address"
        },
        {
          "indexed": false,
          "name": "lifeStart",
          "type": "uint256"
        },
        {
          "indexed": false,
          "name": "lifeEnd",
          "type": "uint256"
        },
        {
          "indexed": false,
          "name": "taxPaidTotal",
          "type": "uint256"
        },
        {
          "indexed": false,
          "name": "taxDebtOutstanding",
          "type": "uint256"
        }
      ],
      "name": "ZoneOwnerForeClosed",
      "type": "event"
    },
    {
      "anonymous": false,
      "inputs": [
        {
          "indexed": true,
          "name": "owner",
          "type": "address"
        },
        {
          "indexed": false,
          "name": "taxStart",
          "type": "uint256"
        },
        {
          "indexed": false,
          "name": "taxEnd",
          "type": "uint256"
        },
        {
          "indexed": false,
          "name": "taxAmount",
          "type": "uint256"
        }
      ],
      "name": "ZoneOwnerTaxesPaid",
      "type": "event"
    },
    {
      "anonymous": false,
      "inputs": [
        {
          "indexed": true,
          "name": "owner",
          "type": "address"
        },
        {
          "indexed": false,
          "name": "oldBalance",
          "type": "uint256"
        },
        {
          "indexed": false,
          "name": "newBalance",
          "type": "uint256"
        }
      ],
      "name": "ZoneOwnerTopUp",
      "type": "event"
    },
    {
      "anonymous": false,
      "inputs": [
        {
          "indexed": true,
          "name": "auctionId",
          "type": "address"
        },
        {
          "indexed": false,
          "name": "lifeStart",
          "type": "uint256"
        }
      ],
      "name": "ZoneAuctionStarted",
      "type": "event"
    },
    {
      "anonymous": false,
      "inputs": [
        {
          "indexed": true,
          "name": "auctionId",
          "type": "address"
        },
        {
          "indexed": false,
          "name": "lifeEnd",
          "type": "uint256"
        },
        {
          "indexed": true,
          "name": "newOwner",
          "type": "address"
        }
      ],
      "name": "ZoneAuctionEnded",
      "type": "event"
    },
    {
      "anonymous": false,
      "inputs": [
        {
          "indexed": true,
          "name": "auctionId",
          "type": "address"
        },
        {
          "indexed": true,
          "name": "bidder",
          "type": "address"
        },
        {
          "indexed": false,
          "name": "bidAmount",
          "type": "uint256"
        }
      ],
      "name": "ZoneAuctionBid",
      "type": "event"
    },
    {
      "anonymous": false,
      "inputs": [
        {
          "indexed": true,
          "name": "owner",
          "type": "address"
        }
      ],
      "name": "ZoneUpdatedTeller",
      "type": "event"
    },
    {
      "constant": true,
      "inputs": [
        {
          "name": "_geohash",
          "type": "bytes7"
        },
        {
          "name": "_addr",
          "type": "address"
        }
      ],
      "name": "computeCSC",
      "outputs": [
        {
          "name": "",
          "type": "bytes12"
        }
      ],
      "payable": false,
      "stateMutability": "pure",
      "type": "function"
    },
    {
      "constant": true,
      "inputs": [
        {
          "name": "_startTime",
          "type": "uint256"
        },
        {
          "name": "_endTime",
          "type": "uint256"
        },
        {
          "name": "_dthAmount",
          "type": "uint256"
        }
      ],
      "name": "calcHarbergerTax",
      "outputs": [
        {
          "name": "taxAmount",
          "type": "uint256"
        },
        {
          "name": "keepAmount",
          "type": "uint256"
        }
      ],
      "payable": false,
      "stateMutability": "view",
      "type": "function"
    },
    {
      "constant": true,
      "inputs": [
        {
          "name": "_value",
          "type": "uint256"
        }
      ],
      "name": "calcEntryFee",
      "outputs": [
        {
          "name": "burnAmount",
          "type": "uint256"
        },
        {
          "name": "bidAmount",
          "type": "uint256"
        }
      ],
      "payable": false,
      "stateMutability": "view",
      "type": "function"
    },
    {
      "constant": true,
      "inputs": [
        {
          "name": "_auctionId",
          "type": "uint256"
        }
      ],
      "name": "auctionExists",
      "outputs": [
        {
          "name": "",
          "type": "bool"
        }
      ],
      "payable": false,
      "stateMutability": "view",
      "type": "function"
    },
    {
      "constant": true,
      "inputs": [],
      "name": "getZoneOwner",
      "outputs": [
        {
          "name": "",
          "type": "address"
        },
        {
          "name": "",
          "type": "uint256"
        },
        {
          "name": "",
          "type": "uint256"
        },
        {
          "name": "",
          "type": "uint256"
        },
        {
          "name": "",
          "type": "uint256"
        }
      ],
      "payable": false,
      "stateMutability": "view",
      "type": "function"
    },
    {
      "constant": true,
      "inputs": [
        {
          "name": "_auctionId",
          "type": "uint256"
        }
      ],
      "name": "getAuction",
      "outputs": [
        {
          "name": "",
          "type": "uint256"
        },
        {
          "name": "",
          "type": "uint256"
        },
        {
          "name": "",
          "type": "uint256"
        },
        {
          "name": "",
          "type": "uint256"
        },
        {
          "name": "",
          "type": "address"
        }
      ],
      "payable": false,
      "stateMutability": "view",
      "type": "function"
    },
    {
      "constant": true,
      "inputs": [],
      "name": "getLastAuction",
      "outputs": [
        {
          "name": "",
          "type": "uint256"
        },
        {
          "name": "",
          "type": "uint256"
        },
        {
          "name": "",
          "type": "uint256"
        },
        {
          "name": "",
          "type": "uint256"
        },
        {
          "name": "",
          "type": "address"
        }
      ],
      "payable": false,
      "stateMutability": "view",
      "type": "function"
    },
    {
      "constant": true,
      "inputs": [],
      "name": "getTeller",
      "outputs": [
        {
          "name": "",
          "type": "uint8"
        },
        {
          "name": "",
          "type": "bytes16"
        },
        {
          "name": "",
          "type": "bytes10"
        },
        {
          "name": "",
          "type": "bytes1"
        },
        {
          "name": "",
          "type": "int16"
        },
        {
          "name": "",
          "type": "int16"
        }
      ],
      "payable": false,
      "stateMutability": "view",
      "type": "function"
    },
    {
      "constant": false,
      "inputs": [
        {
          "name": "_from",
          "type": "address"
        },
        {
          "name": "_value",
          "type": "uint256"
        },
        {
          "name": "_data",
          "type": "bytes"
        }
      ],
      "name": "tokenFallback",
      "outputs": [],
      "payable": false,
      "stateMutability": "nonpayable",
      "type": "function"
    },
    {
      "constant": false,
      "inputs": [],
      "name": "release",
      "outputs": [],
      "payable": false,
      "stateMutability": "nonpayable",
      "type": "function"
    },
    {
      "constant": false,
      "inputs": [
        {
          "name": "_auctionId",
          "type": "uint256"
        }
      ],
      "name": "withdrawFromAuction",
      "outputs": [],
      "payable": false,
      "stateMutability": "nonpayable",
      "type": "function"
    },
    {
      "constant": false,
      "inputs": [
        {
          "name": "_auctionIds",
          "type": "uint256[]"
        }
      ],
      "name": "withdrawFromAuctions",
      "outputs": [],
      "payable": false,
      "stateMutability": "nonpayable",
      "type": "function"
    },
    {
      "constant": false,
      "inputs": [],
      "name": "prevZoneOwnerWithdraw",
      "outputs": [],
      "payable": false,
      "stateMutability": "nonpayable",
      "type": "function"
    },
    {
      "constant": false,
      "inputs": [
        {
          "name": "_position",
          "type": "bytes"
        },
        {
          "name": "_currencyId",
          "type": "uint8"
        },
        {
          "name": "_messenger",
          "type": "bytes16"
        },
        {
          "name": "_sellRate",
          "type": "int16"
        },
        {
          "name": "_buyRate",
          "type": "int16"
        },
        {
          "name": "_settings",
          "type": "bytes1"
        }
      ],
      "name": "addTeller",
      "outputs": [],
      "payable": false,
      "stateMutability": "nonpayable",
      "type": "function"
    },
    {
      "constant": false,
      "inputs": [],
      "name": "addFunds",
      "outputs": [],
      "payable": true,
      "stateMutability": "payable",
      "type": "function"
    },
    {
      "constant": false,
      "inputs": [
        {
          "name": "_to",
          "type": "address"
        },
        {
          "name": "_amount",
          "type": "uint256"
        }
      ],
      "name": "sellEth",
      "outputs": [],
      "payable": false,
      "stateMutability": "nonpayable",
      "type": "function"
    }
  ],
  "bytecode": "0x60806040523480156200001157600080fd5b50604051610120806200467683398101604090815281516020830151918301516060840151608085015160a086015160c087015160e0880151610100909801519597949593949293919290916200006762000424565b68056bc75e2d631000008710156200010657604080517f08c379a000000000000000000000000000000000000000000000000000000000815260206004820152603360248201527f7a6f6e6520647468207374616b652073686f756c6c64206265206174206c656160448201527f7374206d696e696d756d20283130304454482900000000000000000000000000606482015290519081900360840190fd5b89600b60146101000a81548161ffff02191690837e010000000000000000000000000000000000000000000000000000000000009004021790555088600b60166101000a81548166ffffffffffffff02191690837901000000000000000000000000000000000000000000000000009004021790555085600760006101000a815481600160a060020a030219169083600160a060020a0316021790555084600860006101000a815481600160a060020a030219169083600160a060020a0316021790555083600960006101000a815481600160a060020a030219169083600160a060020a0316021790555082600a60006101000a815481600160a060020a030219169083600160a060020a0316021790555081600b60006101000a815481600160a060020a030219169083600160a060020a03160217905550876000800160006101000a815481600160a060020a030219169083600160a060020a0316021790555042600060010181905550866000600201819055508660006003018190555042600060040181905550608060405190810160405280428152602001428152602001600180811115620002b557fe5b8152600160a060020a038a16602091820152600e5460009081526005825260409081902083518155918301516001808401919091559083015160028301805494955085949192909160ff19169083818111156200030e57fe5b0217905550606091909101516002909101805461010060a860020a031916610100600160a060020a0393841602179055600e546000908152600f60209081526040808320938c16835292815290829020899055815189815291517fffffffffffffff000000000000000000000000000000000000000000000000008c16927fffff0000000000000000000000000000000000000000000000000000000000008e169230927f7aff75f95b7d4af318f0d9d8bd9e9e4d8874626e860baa8cd01b3ab7190753d79281900390910190a4604051600160a060020a0389169060009030907f1d12264c14fc566e86950ff90e2b320c449b6b0a4f1afa0f1b0cd202e054bf13908390a4505050505050505050506200044c565b6040805160808101825260008082526020820181905290918201908152600060209091015290565b61421a806200045c6000396000f3006080604052600436106101505763ffffffff60e060020a60003504166301e57a37811461015557806308e44f88146101865780630c0b86ca146101ca5780630d624914146101f15780631504ceed1461023a5780631ecb0f671461025e5780632c2f3d13146102955780633c0868f0146102b6578063422927ad146102e25780636496a441146102fc57806378bd79351461031c5780637b9a73011461033457806386d1a69f146103495780639787d1071461035e57806399640c81146103e9578063a26759cb14610433578063ab5b8f1b1461043b578063c0ee0b8a146104a5578063d8b0b4991461050e578063d8de658714610540578063d944e6a314610555578063dcb561171461056a578063dd955c44146105c3578063e0df216c146105e7578063e2ae93fb14610608578063e69aea7b14610629578063f20202751461063e578063fb01bb5114610653575b600080fd5b34801561016157600080fd5b5061016a61066b565b60408051600160a060020a039092168252519081900360200190f35b34801561019257600080fd5b5061019b61067a565b6040805178ffffffffffffffffffffffffffffffffffffffffffffffffff199092168252519081900360200190f35b3480156101d657600080fd5b506101df6106b6565b60408051918252519081900360200190f35b3480156101fd57600080fd5b506102066106bc565b604080519586526020860194909452848401929092526060840152600160a060020a03166080830152519081900360a00190f35b34801561024657600080fd5b506101df600435600160a060020a03602435166106e0565b34801561026a57600080fd5b5061027c6004356024356044356106fd565b6040805192835260208301919091528051918290030190f35b3480156102a157600080fd5b506101df600160a060020a0360043516610763565b3480156102c257600080fd5b506102ce600435610775565b604080519115158252519081900360200190f35b3480156102ee57600080fd5b506102fa600435610788565b005b34801561030857600080fd5b506102fa6004803560248101910135610b2a565b34801561032857600080fd5b50610206600435610ff8565b34801561034057600080fd5b5061016a6110b4565b34801561035557600080fd5b506102fa6110c3565b34801561036a57600080fd5b506103736113f1565b6040805160ff90971687526fffffffffffffffffffffffffffffffff19909516602087015275ffffffffffffffffffffffffffffffffffffffffffff1990931685850152600160f860020a03199091166060850152600190810b810b608085015290810b900b60a0830152519081900360c00190f35b3480156103f557600080fd5b506103fe611481565b60408051600160a060020a03909616865260208601949094528484019290925260608401526080830152519081900360a00190f35b6102fa6114a3565b34801561044757600080fd5b5061047b78ffffffffffffffffffffffffffffffffffffffffffffffffff1960043516600160a060020a036024351661184c565b6040805173ffffffffffffffffffffffffffffffffffffffff199092168252519081900360200190f35b3480156104b157600080fd5b50604080516020600460443581810135601f81018490048402850184019095528484526102fa948235600160a060020a03169460248035953695946064949201919081908401838280828437509497506119099650505050505050565b34801561051a57600080fd5b50610523611e17565b60408051600160f060020a03199092168252519081900360200190f35b34801561054c57600080fd5b5061016a611e2a565b34801561056157600080fd5b5061016a611e39565b34801561057657600080fd5b506102fa602460048035828101929101359060ff9035166fffffffffffffffffffffffffffffffff1960443516606435600190810b90608435900b600160f860020a031960a43516611e48565b3480156105cf57600080fd5b506102fa600160a060020a0360043516602435612864565b3480156105f357600080fd5b506101df600160a060020a0360043516612d7e565b34801561061457600080fd5b506101df600160a060020a0360043516612d90565b34801561063557600080fd5b506102fa612da2565b34801561064a57600080fd5b5061016a612f0a565b34801561065f57600080fd5b5061027c600435612f19565b600754600160a060020a031681565b600b5476010000000000000000000000000000000000000000000090047901000000000000000000000000000000000000000000000000000281565b600e5481565b60008060008060006106cf600e54610ff8565b945094509450945094509091929394565b600f60209081526000928352604080842090915290825290205481565b6000806107476201518061073b606481600161072f6107228b8d63ffffffff612f4b16565b8a9063ffffffff612f6916565b9063ffffffff612f6916565b9063ffffffff612f9e16565b9150610759838363ffffffff612f4b16565b9050935093915050565b600c6020526000908152604090205481565b6000908152600560205260408120541190565b600a54604080517f5c975abb0000000000000000000000000000000000000000000000000000000081529051600092600160a060020a031691635c975abb91600480830192602092919082900301818787803b1580156107e757600080fd5b505af11580156107fb573d6000803e3d6000fd5b505050506040513d602081101561081157600080fd5b505115610856576040805160e560020a62461bcd028152602060048201526012602482015260008051602061418f833981519152604482015290519081900360640190fd5b6009546040805160e160020a63726931070281523360048201529051600092600160a060020a03169163e4d2620e91602480830192602092919082900301818787803b1580156108a557600080fd5b505af11580156108b9573d6000803e3d6000fd5b505050506040513d60208110156108cf57600080fd5b505111610914576040805160e560020a62461bcd02815260206004820152601260248201526000805160206141cf833981519152604482015290519081900360640190fd5b600e5482111561096e576040805160e560020a62461bcd02815260206004820152601860248201527f61756374696f6e496420646f6573206e6f742065786973740000000000000000604482015290519081900360640190fd5b610976612fc1565b600160008381526005602052604090206002015460ff16600181111561099857fe5b14610a13576040805160e560020a62461bcd02815260206004820152602760248201527f63616e6e6f74207769746864726177207768696c652061756374696f6e20697360448201527f2061637469766500000000000000000000000000000000000000000000000000606482015290519081900360840190fd5b6000828152600f6020908152604080832033845290915281205411610a82576040805160e560020a62461bcd02815260206004820152601360248201527f6e6f7468696e6720746f20776974686472617700000000000000000000000000604482015290519081900360640190fd5b506000818152600f6020908152604080832033808552908352818420805490859055600754835160e060020a63a9059cbb02815260048101939093526024830182905292519094600160a060020a039093169363a9059cbb936044808501949293928390030190829087803b158015610afa57600080fd5b505af1158015610b0e573d6000803e3d6000fd5b505050506040513d6020811015610b2457600080fd5b50505050565b600080600080600a60009054906101000a9004600160a060020a0316600160a060020a0316635c975abb6040518163ffffffff1660e060020a028152600401602060405180830381600087803b158015610b8357600080fd5b505af1158015610b97573d6000803e3d6000fd5b505050506040513d6020811015610bad57600080fd5b505115610bf2576040805160e560020a62461bcd028152602060048201526012602482015260008051602061418f833981519152604482015290519081900360640190fd5b6009546040805160e160020a63726931070281523360048201529051600092600160a060020a03169163e4d2620e91602480830192602092919082900301818787803b158015610c4157600080fd5b505af1158015610c55573d6000803e3d6000fd5b505050506040513d6020811015610c6b57600080fd5b505111610cb0576040805160e560020a62461bcd02815260206004820152601260248201526000805160206141cf833981519152604482015290519081900360640190fd5b610cb8612fc1565b60008511610d10576040805160e560020a62461bcd02815260206004820152601860248201527f61756374696f6e496473206c69737420697320656d7074790000000000000000604482015290519081900360640190fd5b600e54851115610d90576040805160e560020a62461bcd02815260206004820152602660248201527f61756374696f6e496473206c697374206973206c6f6e676572207468616e206160448201527f6c6c6f7765640000000000000000000000000000000000000000000000000000606482015290519081900360840190fd5b60009350600092505b84831015610f1557858584818110610dad57fe5b905060200201359150600082118015610dc85750600e548211155b1515610e1e576040805160e560020a62461bcd02815260206004820152601860248201527f61756374696f6e496420646f6573206e6f742065786973740000000000000000604482015290519081900360640190fd5b600160008381526005602052604090206002015460ff166001811115610e4057fe5b14610eba576040805160e560020a62461bcd028152602060048201526024808201527f63616e6e6f742077697468647261772066726f6d2072756e6e696e672061756360448201527f74696f6e00000000000000000000000000000000000000000000000000000000606482015290519081900360840190fd5b506000818152600f6020908152604080832033845290915281205490811115610f0a576000828152600f60209081526040808320338452909152812055610f07848263ffffffff61309716565b93505b600190920191610d99565b60008411610f6d576040805160e560020a62461bcd02815260206004820152601360248201527f6e6f7468696e6720746f20776974686472617700000000000000000000000000604482015290519081900360640190fd5b6007546040805160e060020a63a9059cbb028152336004820152602481018790529051600160a060020a039092169163a9059cbb916044808201926020929091908290030181600087803b158015610fc457600080fd5b505af1158015610fd8573d6000803e3d6000fd5b505050506040513d6020811015610fee57600080fd5b5050505050505050565b6000806000806000611008614166565b600560008881526020019081526020016000206080604051908101604052908160008201548152602001600182015481526020016002820160009054906101000a900460ff16600181111561105957fe5b600181111561106457fe5b8152600291909101546101009004600160a060020a031660209091015260408101519091508790600181111561109657fe5b82516020840151606090940151929a91995097509195509350915050565b600b54600160a060020a031681565b600080600a60009054906101000a9004600160a060020a0316600160a060020a0316635c975abb6040518163ffffffff1660e060020a028152600401602060405180830381600087803b15801561111957600080fd5b505af115801561112d573d6000803e3d6000fd5b505050506040513d602081101561114357600080fd5b505115611188576040805160e560020a62461bcd028152602060048201526012602482015260008051602061418f833981519152604482015290519081900360640190fd5b6009546040805160e160020a63726931070281523360048201529051600092600160a060020a03169163e4d2620e91602480830192602092919082900301818787803b1580156111d757600080fd5b505af11580156111eb573d6000803e3d6000fd5b505050506040513d602081101561120157600080fd5b505111611246576040805160e560020a62461bcd02815260206004820152601260248201526000805160206141cf833981519152604482015290519081900360640190fd5b61124e612fc1565b600054600160a060020a031633146112b0576040805160e560020a62461bcd02815260206004820152601860248201527f63616c6c6572206973206e6f74207a6f6e65206f776e65720000000000000000604482015290519081900360640190fd5b6001600e5460009081526005602052604090206002015460ff1660018111156112d557fe5b1461134f576040805160e560020a62461bcd028152602060048201526024808201527f63616e6e6f742072656c65617365207768696c652061756374696f6e2072756e60448201527f6e696e6700000000000000000000000000000000000000000000000000000000606482015290519081900360840190fd5b5050600e54600090815260056020908152604080832060038054855473ffffffffffffffffffffffffffffffffffffffff1916865560018690556002869055908590556004858155600754845160e060020a63a9059cbb028152339281019290925260248201839052935192959194600160a060020a039094169363a9059cbb9360448084019492939192918390030190829087803b158015610afa57600080fd5b60065460ff8116916101008204700100000000000000000000000000000000029171010000000000000000000000000000000000810476010000000000000000000000000000000000000000000002917b01000000000000000000000000000000000000000000000000000000820460f860020a029160e060020a8104600190810b9260f060020a909204900b90565b600054600154600254600354600454600160a060020a03909416939091929394565b600a60009054906101000a9004600160a060020a0316600160a060020a0316635c975abb6040518163ffffffff1660e060020a028152600401602060405180830381600087803b1580156114f657600080fd5b505af115801561150a573d6000803e3d6000fd5b505050506040513d602081101561152057600080fd5b505115611565576040805160e560020a62461bcd028152602060048201526012602482015260008051602061418f833981519152604482015290519081900360640190fd5b600854600b546040805160e160020a6306e1085502815260a060020a90920460f060020a02600160f060020a031916600483015251600160a060020a0390921691630dc210aa916024808201926020929091908290030181600087803b1580156115ce57600080fd5b505af11580156115e2573d6000803e3d6000fd5b505050506040513d60208110156115f857600080fd5b5051151561163e576040805160e560020a62461bcd02815260206004820152601360248201526000805160206141af833981519152604482015290519081900360640190fd5b6009546040805160e160020a63726931070281523360048201529051600092600160a060020a03169163e4d2620e91602480830192602092919082900301818787803b15801561168d57600080fd5b505af11580156116a1573d6000803e3d6000fd5b505050506040513d60208110156116b757600080fd5b5051116116fc576040805160e560020a62461bcd02815260206004820152601260248201526000805160206141cf833981519152604482015290519081900360640190fd5b60003411611754576040805160e560020a62461bcd02815260206004820152601560248201527f6e6f206574682073656e6420776974682063616c6c0000000000000000000000604482015290519081900360640190fd5b61175c612fc1565b600054600160a060020a031633146117be576040805160e560020a62461bcd02815260206004820152601c60248201527f6f6e6c79207a6f6e654f776e65722063616e206164642066756e647300000000604482015290519081900360640190fd5b60065460ff16151561181a576040805160e560020a62461bcd02815260206004820152601960248201527f6e6f74207965742061646465642074656c6c657220696e666f00000000000000604482015290519081900360640190fd5b3360009081526010602052604090205461183a903463ffffffff61309716565b33600090815260106020526040902055565b6040805178ffffffffffffffffffffffffffffffffffffffffffffffffff1984166020808301919091526c01000000000000000000000000600160a060020a0385160260278301528251601b818403018152603b909201928390528151600093918291908401908083835b602083106118d65780518252601f1990920191602091820191016118b7565b5181516020939093036101000a600019018019909116921691909117905260405192018290039091209695505050505050565b600754600090600160a060020a03163314611994576040805160e560020a62461bcd02815260206004820152602260248201527f63616e206f6e6c792062652063616c6c65642062792064746820636f6e74726160448201527f6374000000000000000000000000000000000000000000000000000000000000606482015290519081900360840190fd5b600a60009054906101000a9004600160a060020a0316600160a060020a0316635c975abb6040518163ffffffff1660e060020a028152600401602060405180830381600087803b1580156119e757600080fd5b505af11580156119fb573d6000803e3d6000fd5b505050506040513d6020811015611a1157600080fd5b505115611a56576040805160e560020a62461bcd028152602060048201526012602482015260008051602061418f833981519152604482015290519081900360640190fd5b600854600b546040805160e160020a6306e1085502815260a060020a90920460f060020a02600160f060020a031916600483015251600160a060020a0390921691630dc210aa916024808201926020929091908290030181600087803b158015611abf57600080fd5b505af1158015611ad3573d6000803e3d6000fd5b505050506040513d6020811015611ae957600080fd5b50511515611b2f576040805160e560020a62461bcd02815260206004820152601360248201526000805160206141af833981519152604482015290519081900360640190fd5b611b3a8260006130a9565b9050600160f860020a031981167f40000000000000000000000000000000000000000000000000000000000000001480611b9d5750600160f860020a031981167f4100000000000000000000000000000000000000000000000000000000000000145b80611bd15750600160f860020a031981167f4200000000000000000000000000000000000000000000000000000000000000145b80611c055750600160f860020a031981167f4300000000000000000000000000000000000000000000000000000000000000145b1515611c5b576040805160e560020a62461bcd02815260206004820152601b60248201527f646964206e6f74206d61746368205a6f6e652066756e6374696f6e0000000000604482015290519081900360640190fd5b600160f860020a031981167f40000000000000000000000000000000000000000000000000000000000000001415611c9257610b24565b6009546040805160e160020a6372693107028152600160a060020a0387811660048301529151600093929092169163e4d2620e9160248082019260209290919082900301818787803b158015611ce757600080fd5b505af1158015611cfb573d6000803e3d6000fd5b505050506040513d6020811015611d1157600080fd5b505111611d56576040805160e560020a62461bcd02815260206004820152601260248201526000805160206141cf833981519152604482015290519081900360640190fd5b611d5e612fc1565b600160f860020a031981167f41000000000000000000000000000000000000000000000000000000000000001415611d9f57611d9a8484613114565b610b24565b600160f860020a031981167f42000000000000000000000000000000000000000000000000000000000000001415611ddb57611d9a8484613240565b600160f860020a031981167f43000000000000000000000000000000000000000000000000000000000000001415610b2457610b2484846139d4565b600b5460a060020a900460f060020a0281565b600a54600160a060020a031681565b600854600160a060020a031681565b600a60009054906101000a9004600160a060020a0316600160a060020a0316635c975abb6040518163ffffffff1660e060020a028152600401602060405180830381600087803b158015611e9b57600080fd5b505af1158015611eaf573d6000803e3d6000fd5b505050506040513d6020811015611ec557600080fd5b505115611f0a576040805160e560020a62461bcd028152602060048201526012602482015260008051602061418f833981519152604482015290519081900360640190fd5b600854600b546040805160e160020a6306e1085502815260a060020a90920460f060020a02600160f060020a031916600483015251600160a060020a0390921691630dc210aa916024808201926020929091908290030181600087803b158015611f7357600080fd5b505af1158015611f87573d6000803e3d6000fd5b505050506040513d6020811015611f9d57600080fd5b50511515611fe3576040805160e560020a62461bcd02815260206004820152601360248201526000805160206141af833981519152604482015290519081900360640190fd5b6009546040805160e160020a63726931070281523360048201529051600092600160a060020a03169163e4d2620e91602480830192602092919082900301818787803b15801561203257600080fd5b505af1158015612046573d6000803e3d6000fd5b505050506040513d602081101561205c57600080fd5b5051116120a1576040805160e560020a62461bcd02815260206004820152601260248201526000805160206141cf833981519152604482015290519081900360640190fd5b600a86146120f9576040805160e560020a62461bcd02815260206004820181905260248201527f657870656374656420706f736974696f6e20746f206265203130206279746573604482015290519081900360640190fd5b600b60169054906101000a90047901000000000000000000000000000000000000000000000000000278ffffffffffffffffffffffffffffffffffffffffffffffffff191661217a88888080601f0160208091040260200160405190810160405280939291908181526020018383808284375060009450613ba79350505050565b78ffffffffffffffffffffffffffffffffffffffffffffffffff1916146121eb576040805160e560020a62461bcd02815260206004820181905260248201527f706f736974696f6e206973206e6f7420696e736964652074686973207a6f6e65604482015290519081900360640190fd5b600854604080517f98bcc7d900000000000000000000000000000000000000000000000000000000815260076024820181905260048201928352604482018a9052600160a060020a03909316926398bcc7d9928b928b92919081906064018585808284378201915050945050505050602060405180830381600087803b15801561227457600080fd5b505af1158015612288573d6000803e3d6000fd5b505050506040513d602081101561229e57600080fd5b5051151561231c576040805160e560020a62461bcd02815260206004820152602360248201527f696e76616c696420706f736974696f6e2067656f68617368206368617261637460448201527f6572730000000000000000000000000000000000000000000000000000000000606482015290519081900360840190fd5b60018560ff1610158015612334575060648560ff1611155b15156123b0576040805160e560020a62461bcd02815260206004820152602260248201527f63757272656e6379206964206d75737420626520696e2072616e676520312d3160448201527f3030000000000000000000000000000000000000000000000000000000000000606482015290519081900360840190fd5b60f860020a8116156124585761270e198360010b121580156123d7575061270f8360010b13155b1515612453576040805160e560020a62461bcd02815260206004820152602960248201527f73656c6c526174652073686f756c64206265206265747765656e202d3939393960448201527f20616e6420393939390000000000000000000000000000000000000000000000606482015290519081900360840190fd5b6124d8565b600183900b156124d8576040805160e560020a62461bcd02815260206004820152602860248201527f63616e6e6f74207365742073656c6c52617465206966206e6f7420736574206160448201527f732073656c6c6572000000000000000000000000000000000000000000000000606482015290519081900360840190fd5b7f020000000000000000000000000000000000000000000000000000000000000081161561259c5761270e198260010b1215801561251b575061270f8260010b13155b1515612597576040805160e560020a62461bcd02815260206004820152602860248201527f627579526174652073686f756c64206265206265747765656e202d393939392060448201527f616e642039393939000000000000000000000000000000000000000000000000606482015290519081900360840190fd5b61261c565b600182900b1561261c576040805160e560020a62461bcd02815260206004820152602660248201527f63616e6e6f74207365742062757952617465206966206e6f742073657420617360448201527f2062757965720000000000000000000000000000000000000000000000000000606482015290519081900360840190fd5b612624612fc1565b600054600160a060020a031633146126ac576040805160e560020a62461bcd02815260206004820152602360248201527f6f6e6c79207a6f6e65206f776e65722063616e206164642074656c6c6572206960448201527f6e666f0000000000000000000000000000000000000000000000000000000000606482015290519081900360840190fd5b6006805460ff191660ff87161770ffffffffffffffffffffffffffffffff001916610100700100000000000000000000000000000000870402177fffff0000ffffffffffffffffffffffffffffffffffffffffffffffffffffffff1660e060020a600185810b61ffff90811692909202929092177dffffffffffffffffffffffffffffffffffffffffffffffffffffffffffff1660f060020a9287900b9190911691909102179055604080516020601f890181900481028201810190925287815261278e9189908990819084018382808284375060009450613c089350505050565b600680547affffffffffffffffffff000000000000000000000000000000000019167101000000000000000000000000000000000076010000000000000000000000000000000000000000000090930492909202919091177fffffffff00ffffffffffffffffffffffffffffffffffffffffffffffffffffff167b0100000000000000000000000000000000000000000000000000000060f860020a84040217905560405133907fbc905ab91d97b56e60549df29f65a04af2e1cf4b6d65da4af42f8d559ee9d32090600090a250505050505050565b600a60009054906101000a9004600160a060020a0316600160a060020a0316635c975abb6040518163ffffffff1660e060020a028152600401602060405180830381600087803b1580156128b757600080fd5b505af11580156128cb573d6000803e3d6000fd5b505050506040513d60208110156128e157600080fd5b505115612926576040805160e560020a62461bcd028152602060048201526012602482015260008051602061418f833981519152604482015290519081900360640190fd5b600854600b546040805160e160020a6306e1085502815260a060020a90920460f060020a02600160f060020a031916600483015251600160a060020a0390921691630dc210aa916024808201926020929091908290030181600087803b15801561298f57600080fd5b505af11580156129a3573d6000803e3d6000fd5b505050506040513d60208110156129b957600080fd5b505115156129ff576040805160e560020a62461bcd02815260206004820152601360248201526000805160206141af833981519152604482015290519081900360640190fd5b6009546040805160e160020a63726931070281523360048201529051600092600160a060020a03169163e4d2620e91602480830192602092919082900301818787803b158015612a4e57600080fd5b505af1158015612a62573d6000803e3d6000fd5b505050506040513d6020811015612a7857600080fd5b505111612abd576040805160e560020a62461bcd02815260206004820152601260248201526000805160206141cf833981519152604482015290519081900360640190fd5b33600160a060020a0383161415612b1e576040805160e560020a62461bcd02815260206004820152601860248201527f73656e6465722063616e6e6f7420616c736f20626520746f0000000000000000604482015290519081900360640190fd5b60008111612b76576040805160e560020a62461bcd02815260206004820152601d60248201527f616d6f756e7420746f2073656c6c2063616e6e6f74206265207a65726f000000604482015290519081900360640190fd5b612b7e612fc1565b600054600160a060020a03163314612be0576040805160e560020a62461bcd02815260206004820181905260248201527f63616e206f6e6c792062652063616c6c6564206279207a6f6e65206f776e6572604482015290519081900360640190fd5b60065460ff161515612c3c576040805160e560020a62461bcd02815260206004820152601960248201527f6e6f74207965742061646465642074656c6c657220696e666f00000000000000604482015290519081900360640190fd5b33600090815260106020526040902054811115612ca3576040805160e560020a62461bcd02815260206004820152601e60248201527f63616e6e6f742073656c6c206d6f7265207468616e20696e2066756e64730000604482015290519081900360640190fd5b33600090815260106020526040902054612cc3908263ffffffff612f4b16565b3360008181526010602052604080822093909355600b5483517fcde60333000000000000000000000000000000000000000000000000000000008152600160f060020a031960f060020a60a060020a8404021660048201526024810193909352600160a060020a03868116604485015260648401869052935193169263cde6033392608480820193929182900301818387803b158015612d6257600080fd5b505af1158015612d76573d6000803e3d6000fd5b505050505050565b600d6020526000908152604090205481565b60106020526000908152604090205481565b336000908152600c6020908152604080832054600d9092528220549091821180612dcc5750600081115b1515612e22576040805160e560020a62461bcd02815260206004820152601360248201527f6e6f7468696e6720746f20776974686472617700000000000000000000000000604482015290519081900360640190fd5b6000821115612ec057336000818152600c60209081526040808320839055600754815160e060020a63a9059cbb0281526004810195909552602485018790529051600160a060020a039091169363a9059cbb9360448083019493928390030190829087803b158015612e9357600080fd5b505af1158015612ea7573d6000803e3d6000fd5b505050506040513d6020811015612ebd57600080fd5b50505b6000811115612f0657336000818152600d60205260408082208290555183156108fc0291849190818181858888f19350505050158015612f04573d6000803e3d6000fd5b505b5050565b600954600160a060020a031681565b600080612f32600161072f85606463ffffffff612f9e16565b9150612f44838363ffffffff612f4b16565b9050915091565b60008083831115612f5b57600080fd5b5050808203805b5092915050565b600080831515612f7c5760009150612f62565b50828202828482811515612f8c57fe5b0414612f9757600080fd5b9392505050565b600080808311612fad57600080fd5b8284811515612fb857fe5b04949350505050565b612fc9614166565b60056000600e5481526020019081526020016000206080604051908101604052908160008201548152602001600182015481526020016002820160009054906101000a900460ff16600181111561301c57fe5b600181111561302757fe5b8152600291909101546101009004600160a060020a0316602090910152905060008160400151600181111561305857fe5b148015613069575080602001514210155b1561307b57613076613c69565b613094565b600054600160a060020a03161561309457613094613ea2565b50565b600082820183811015612f9757600080fd5b6000808260010184511015151561310a576040805160e560020a62461bcd02815260206004820152601060248201527f206e6f74206c6f6e6720656e6f75676800000000000000000000000000000000604482015290519081900360640190fd5b5050016020015190565b600054600160a060020a031615613175576040805160e560020a62461bcd02815260206004820152601d60248201527f63616e206e6f7420636c61696d207a6f6e652077697468206f776e6572000000604482015290519081900360640190fd5b68056bc75e2d631000008110156131fc576040805160e560020a62461bcd02815260206004820152603160248201527f6e656564206174206c65617374206d696e696d756d207a6f6e65207374616b6560448201527f20616d6f756e7420283130302044544829000000000000000000000000000000606482015290519081900360840190fd5b6000805473ffffffffffffffffffffffffffffffffffffffff1916600160a060020a0393909316929092179091554260018190556002829055600391909155600455565b60008054819081908190819081908190600160a060020a031615156132d5576040805160e560020a62461bcd02815260206004820152603560248201527f63616e6e6f7420626964206f6e207a6f6e6520776974686f7574206f776e657260448201527f2c2075736520636c61696d467265655a6f6e6528290000000000000000000000606482015290519081900360840190fd5b600e54600090815260056020526040902094506001600286015460ff1660018111156132fd57fe5b14156135eb57600185015461331b906202a30063ffffffff61309716565b4211613371576040805160e560020a62461bcd02815260206004820152601f60248201527f636f6f6c646f776e20706572696f6420646964206e6f7420656e642079657400604482015290519081900360640190fd5b600054600160a060020a038a8116911614156133fd576040805160e560020a62461bcd02815260206004820152602160248201527f7a6f6e656f776e65722063616e6e6f7420737461727420616e2061756374696f60448201527f6e00000000000000000000000000000000000000000000000000000000000000606482015290519081900360840190fd5b61340688612f19565b60025491985096508611613489576040805160e560020a62461bcd028152602060048201526024808201527f626964206973206c6f776572207468616e2063757272656e74207a6f6e65207360448201527f74616b6500000000000000000000000000000000000000000000000000000000606482015290519081900360840190fd5b600e8054600101908190556040805160808101909152428082529195509060208201906134bf906201518063ffffffff61309716565b815260200160008152600160a060020a038b166020918201526000868152600582526040908190208351815591830151600180840191909155908301516002830180549192909160ff191690838181111561351657fe5b0217905550606091909101516002909101805474ffffffffffffffffffffffffffffffffffffffff001916610100600160a060020a03938416021790556000858152600f602090815260408083208d8516845282528083208a9055600754815160e060020a63a9059cbb02815260048101869052602481018d9052915194169363a9059cbb93604480840194938390030190829087803b1580156135b957600080fd5b505af11580156135cd573d6000803e3d6000fd5b505050506040513d60208110156135e357600080fd5b506139c99050565b6000600286015460ff16600181111561360057fe5b14156139c9576002850154600160a060020a038a8116610100909204161415613673576040805160e560020a62461bcd02815260206004820152601960248201527f68696768657374206269646465722063616e6e6f742062696400000000000000604482015290519081900360640190fd5b600e546000908152600f602090815260408083206002890154600160a060020a0361010090910481168552925282205491549194508a8116911614156137a957600e546000908152600f60209081526040808320600160a060020a038d1684529091529020546136e9908963ffffffff61309716565b6002549092508390613701908463ffffffff61309716565b1161377c576040805160e560020a62461bcd02815260206004820152603160248201527f626964202b20616c7265616479207374616b6564206973206c6573732074686160448201527f6e2063757272656e742068696768657374000000000000000000000000000000606482015290519081900360840190fd5b600e546000908152600f60209081526040808320600160a060020a038d1684529091529020829055613999565b600e546000908152600f60209081526040808320600160a060020a038d16845290915290205415156138e1576137de88612f19565b909750955082861161383a576040805160e560020a62461bcd02815260206004820181905260248201527f626964206973206c657373207468616e2063757272656e742068696768657374604482015290519081900360640190fd5b600e546000908152600f60209081526040808320600160a060020a03808e1685529083528184208a9055600754825160e060020a63a9059cbb02815260048101839052602481018d9052925191169363a9059cbb93604480850194919392918390030190829087803b1580156138af57600080fd5b505af11580156138c3573d6000803e3d6000fd5b505050506040513d60208110156138d957600080fd5b506139999050565b600e546000908152600f60209081526040808320600160a060020a038d168452909152902054613917908963ffffffff61309716565b9050828111613970576040805160e560020a62461bcd02815260206004820181905260248201527f626964206973206c657373207468616e2063757272656e742068696768657374604482015290519081900360640190fd5b600e546000908152600f60209081526040808320600160a060020a038d16845290915290208190555b60028501805474ffffffffffffffffffffffffffffffffffffffff001916610100600160a060020a038c16021790555b505050505050505050565b600080548190600160a060020a03161515613a39576040805160e560020a62461bcd02815260206004820152601160248201527f7a6f6e6520686173206e6f206f776e6572000000000000000000000000000000604482015290519081900360640190fd5b600054600160a060020a03858116911614613a9e576040805160e560020a62461bcd02815260206004820152601860248201527f63616c6c6572206973206e6f74207a6f6e65206f776e65720000000000000000604482015290519081900360640190fd5b6001600e5460009081526005602052604090206002015460ff166001811115613ac357fe5b14613b3e576040805160e560020a62461bcd02815260206004820152602360248201527f63616e6e6f7420746f70207570207768696c652061756374696f6e2072756e6e60448201527f696e670000000000000000000000000000000000000000000000000000000000606482015290519081900360840190fd5b6003549150613b53828463ffffffff61309716565b600381905560408051848152602081018390528151929350600160a060020a038716927f993857d1afedc692a1ea47cde199310a57b73c0583028ce14c84bffd4e7aa5ea929181900390910190a250505050565b6000808260070184511015151561310a576040805160e560020a62461bcd02815260206004820152601060248201527f206e6f74206c6f6e6720656e6f75676800000000000000000000000000000000604482015290519081900360640190fd5b60008082600a0184511015151561310a576040805160e560020a62461bcd02815260206004820152601060248201527f206e6f74206c6f6e6720656e6f75676800000000000000000000000000000000604482015290519081900360640190fd5b600e8054600090815260056020908152604080832060028082018054600160ff19909116179081905595548552600f8452828520610100909604600160a060020a0316808652959093529083208054908490556004548254935492959491939192839283928392613cda92906106fd565b6000549195509350600160a060020a0387811691161415613d2a57600254613d08908663ffffffff61309716565b600255600354613d1e908663ffffffff61309716565b60035542600455613e20565b60008054600160a060020a0388811673ffffffffffffffffffffffffffffffffffffffff19831617835560018a8101549055600288905560038890554260045516808252600c602052604090912054909250613d8c908463ffffffff61309716565b600160a060020a0383166000908152600c602090815260408083209390935560108152828220805490839055600d90915291902054909150613dd4908263ffffffff61309716565b600160a060020a038084166000818152600d602052604080822094909455925191891692909130917f1d12264c14fc566e86950ff90e2b320c449b6b0a4f1afa0f1b0cd202e054bf1391a45b6007546040805160e060020a63a9059cbb028152600160a060020a0360048201819052602482018890529151919092169163a9059cbb9160448083019260209291908290030181600087803b158015613e7857600080fd5b505af1158015613e8c573d6000803e3d6000fd5b505050506040513d60208110156139c957600080fd5b600e5460009081526005602052604081206004546002549192918280808080600289015460ff166001811115613ed457fe5b1415613ef0578754965085871415613eeb57610fee565b613f1b565b6001600289015460ff166001811115613f0557fe5b1415613f1b5742965086861415613f1b57610fee565b613f268688876106fd565b6003549195509350841061406d57600354613f4890859063ffffffff612f4b16565b600380546000805473ffffffffffffffffffffffffffffffffffffffff198116825560018290556002829055928190556004819055604080518b8152602081018d90528082018490529051929850939550600160a060020a03909216935090917fcf07ead1fcfee76a926d09b2da5b5e475def868e5b56dd5f5aeea7d2d51cb445919081900360600190a260005460015460408051918252602082018a90528181018890526060820185905251600160a060020a03909216917ff6a68c2607aef85af6ee933234f69340aa368755ce48cd4d5bc9c443f6e675669181900360800190a260008054604051600160a060020a03918216929184169130917f1d12264c14fc566e86950ff90e2b320c449b6b0a4f1afa0f1b0cd202e054bf139190a46140d8565b600354614080908563ffffffff612f4b16565b600355600487905560005460408051888152602081018a90528082018790529051600160a060020a03909216917fcf07ead1fcfee76a926d09b2da5b5e475def868e5b56dd5f5aeea7d2d51cb4459181900360600190a25b6007546040805160e060020a63a9059cbb028152600160a060020a0360048201819052602482018890529151919092169163a9059cbb9160448083019260209291908290030181600087803b15801561413057600080fd5b505af1158015614144573d6000803e3d6000fd5b505050506040513d602081101561415a57600080fd5b50505050505050505050565b60408051608081018252600080825260208201819052909182019081526000602090910152905600636f6e7472616374206973207061757365640000000000000000000000000000636f756e7472792069732064697361626c65640000000000000000000000000075736572206e6f74206365727469666965640000000000000000000000000000a165627a7a72305820d1039192f89418d7589d4cf555f894397f00b14bb1e1f0439ba019d0eec2074d0029",
  "source": "pragma solidity ^0.4.24;\n\nimport \"openzeppelin-solidity/contracts/math/SafeMath.sol\";\n\nimport \"../dth/tokenfoundry/ERC223ReceivingContract.sol\";\nimport \"../dth/IDetherToken.sol\";// TODO: replace with zeppelin ERC20 abstract contract?\nimport \"../core/IUsers.sol\";\nimport \"../core/IControl.sol\";\nimport \"./IGeoRegistry.sol\";\nimport \"./IZoneFactory.sol\";\n\ncontract Zone is ERC223ReceivingContract {\n  // ------------------------------------------------\n  //\n  // Library init\n  //\n  // ------------------------------------------------\n\n  using SafeMath for uint;\n\n  // ------------------------------------------------\n  //\n  // Enums\n  //\n  // ------------------------------------------------\n\n  enum AuctionState { Started, Ended }\n\n  // ------------------------------------------------\n  //\n  // Structs\n  //\n  // ------------------------------------------------\n\n  // NOTE:\n  // evm will convert to uint256 when doing calculations, so 1 time higher storage cost\n  // will be less than all the increased gas costs if we were to use smaller uints in the struct\n\n  struct ZoneOwner {\n    address addr;\n    uint startTime;\n    uint staked;\n    uint balance;\n    uint lastTaxTime;\n  }\n\n  struct Auction {\n    // since we do a lot of calcuations with these uints, it's best to leave them uint256\n    // evm will convert to uint256 anyways when doing calculations\n    uint startTime;\n    uint endTime;\n    AuctionState state;\n    address highestBidder;\n  }\n\n  struct Teller {\n    uint8 currencyId;   // 1 - 100 , see README\n    bytes16 messenger; // telegrame nickname\n    bytes10 position;  // 10 char geohash for location of teller\n    bytes1 settings;    // bitmask containing up to 8 boolean settings (only 2 used currently: isSeller, isBuyer)\n    // TODO: wouldn't it be wiser to use uint256, to make all calculations cost less\n    int16 buyRate;     // margin of tellers , -999 - +9999 , corresponding to -99,9% x 10  , 999,9% x 10\n    int16 sellRate;    // margin of tellers , -999 - +9999 , corresponding to -99,9% x 10  , 999,9% x 10\n    // 256 bits in total\n  }\n\n  // ------------------------------------------------\n  //\n  // Variables Private\n  //\n  // ------------------------------------------------\n\n  uint private constant MIN_STAKE = 100 * 1 ether; // DTH, which is also 18 decimals!\n  uint private constant BID_PERIOD = 24 * 1 hours;\n  uint private constant COOLDOWN_PERIOD = 48 * 1 hours;\n  uint private constant ENTRY_FEE_PERCENTAGE = 1;\n  uint private constant TAX_PERCENTAGE = 1;\n  address private constant ADDRESS_BURN = 0xFFfFfFffFFfffFFfFFfFFFFFffFFFffffFfFFFfF;\n\n  ZoneOwner private zoneOwner;\n\n  mapping(uint => Auction) private auctionIdToAuction;\n\n  Teller private teller;\n  bytes1 private constant isSellerBitMask = hex\"01\";\n  bytes1 private constant isBuyerBitMask = hex\"02\";\n\n  // ------------------------------------------------\n  //\n  // Variables Public\n  //\n  // ------------------------------------------------\n\n  IDetherToken public dth;\n  IGeoRegistry public geo;\n  IUsers public users;\n  IControl public control;\n  IZoneFactory public zoneFactory;\n\n  bytes2 public country;\n  bytes7 public geohash;\n\n  mapping(address => uint) public withdrawableDth;\n  mapping(address => uint) public withdrawableEth;\n\n  uint public currentAuctionId;\n\n  //      auctionId       bidder     dthAmount\n  mapping(uint => mapping(address => uint)) public auctionBids;\n\n  //(prev)zoneOwner          ethAmount\n  mapping(address => uint) public funds;\n\n  // ------------------------------------------------\n  //\n  // Events\n  //\n  // ------------------------------------------------\n\n  event ZoneCreated(address indexed zoneAddress, bytes2 indexed countryCode, bytes7 indexed geohash, uint dthAmount);\n  event ZoneOwnerUpdated(address indexed zoneAddress, address indexed oldOwner, address indexed newOwner);\n  event ZoneOwnerForeClosed(address indexed owner, uint lifeStart, uint lifeEnd, uint taxPaidTotal, uint taxDebtOutstanding);\n  event ZoneOwnerTaxesPaid(address indexed owner, uint taxStart, uint taxEnd, uint taxAmount);\n  event ZoneOwnerTopUp(address indexed owner, uint oldBalance, uint newBalance);\n  event ZoneAuctionStarted(address indexed auctionId, uint lifeStart);\n  event ZoneAuctionEnded(address indexed auctionId, uint lifeEnd, address indexed newOwner);\n  event ZoneAuctionBid(address indexed auctionId, address indexed bidder, uint bidAmount); // NOTE: this includes current stake if zone owner bids\n  event ZoneUpdatedTeller(address indexed owner);\n\n  // ------------------------------------------------\n  //\n  // Constructor\n  //\n  // ------------------------------------------------\n\n  // executed by ZoneFactory.sol when this Zone does not yet exist (= not yet deployed)\n  constructor(\n    bytes2 _countryCode,\n    bytes7 _geohash,\n    address _zoneOwner,\n    uint _dthAmount,\n    address _dth,\n    address _geo,\n    address _users,\n    address _control,\n    address _zoneFactory\n  )\n    public\n  {\n    require(_dthAmount >= MIN_STAKE, \"zone dth stake shoulld be at least minimum (100DTH)\");\n\n    country = _countryCode;\n    geohash = _geohash;\n\n    dth = IDetherToken(_dth);\n    geo = IGeoRegistry(_geo);\n    users = IUsers(_users);\n    control = IControl(_control);\n    zoneFactory = IZoneFactory(_zoneFactory);\n\n    zoneOwner.addr = _zoneOwner;\n    zoneOwner.startTime = now;\n    zoneOwner.staked = _dthAmount;\n    zoneOwner.balance = _dthAmount;\n    zoneOwner.lastTaxTime = now;\n\n    // create a Sentinel Auction for the user that first creates this Zone\n    Auction memory sentinelAuction = Auction({\n      state: AuctionState.Ended,\n      startTime: now,\n      endTime: now,\n      highestBidder: _zoneOwner // called by zoneFactory.createAndClaim, which passes msg.sender as _zoneOwner\n    });\n    auctionIdToAuction[currentAuctionId] = sentinelAuction;\n\n    auctionBids[currentAuctionId][_zoneOwner] = _dthAmount;\n\n    emit ZoneCreated(address(this), _countryCode, _geohash, _dthAmount);\n    emit ZoneOwnerUpdated(address(this), address(0), _zoneOwner);\n  }\n\n  // ------------------------------------------------\n  //\n  // Functions Getters Public\n  //\n  // ------------------------------------------------\n\n  function computeCSC(bytes7 _geohash, address _addr)\n    public\n    pure\n    returns (bytes12)\n  {\n    return bytes12(keccak256(abi.encodePacked(_geohash, _addr)));\n  }\n\n  function calcHarbergerTax(uint _startTime, uint _endTime, uint _dthAmount)\n    public\n    view\n    returns (uint taxAmount, uint keepAmount)\n  {\n    // TODO use smaller uint variables, hereby preventing under/overflows, so no need for SafeMath\n    // source: https://programtheblockchain.com/posts/2018/09/19/implementing-harberger-tax-deeds/\n    taxAmount = _dthAmount.mul(_endTime.sub(_startTime)).mul(TAX_PERCENTAGE).div(100).div(1 days);\n    keepAmount = _dthAmount.sub(taxAmount);\n  }\n\n  function calcEntryFee(uint _value)\n    public\n    view\n    returns (uint burnAmount, uint bidAmount)\n  {\n    burnAmount = _value.div(100).mul(ENTRY_FEE_PERCENTAGE); // 1%\n    bidAmount = _value.sub(burnAmount); // 99%\n  }\n\n  function auctionExists(uint _auctionId)\n    external\n    view\n    returns (bool)\n  {\n    // if aucton does not exist we should get back zero, otherwise this field\n    // will contain a block.timestamp, set whe creating an Auction, in constructor() and bid()\n    return auctionIdToAuction[_auctionId].startTime > 0;\n  }\n\n  /// @notice get current zone owner data\n  function getZoneOwner()\n    external\n    view\n    returns (address, uint, uint, uint, uint)\n  {\n    return (\n      zoneOwner.addr,       // address of current owner\n      zoneOwner.startTime,  // time this address became owner\n      zoneOwner.staked,     // \"price you sell at\"\n      zoneOwner.balance,    // will decrease whenever harberger taxes are paid\n      zoneOwner.lastTaxTime // time until taxes have been paid\n    );\n  }\n\n  /// @notice get a specific auction\n  function getAuction(uint _auctionId)\n    public\n    view\n    returns (uint, uint, uint, uint, address)\n  {\n    Auction memory auction = auctionIdToAuction[_auctionId];\n\n    return (\n      _auctionId,\n      uint(auction.state),\n      auction.startTime,\n      auction.endTime,\n      auction.highestBidder\n    );\n  }\n\n  /// @notice get the last auction\n  function getLastAuction()\n    external\n    view\n    returns (uint, uint, uint, uint, address)\n  {\n    return getAuction(currentAuctionId);\n  }\n\n  function getTeller()\n    external\n    view\n    returns (uint8, bytes16, bytes10, bytes1, int16, int16)\n  {\n    return (\n      teller.currencyId,\n      teller.messenger,\n      teller.position,\n      teller.settings,\n      teller.buyRate,\n      teller.sellRate\n    );\n  }\n\n  // ------------------------------------------------\n  //\n  // Functions Getters Private\n  //\n  // ------------------------------------------------\n\n  function toBytes1(bytes _bytes, uint _start)\n    private\n    pure\n    returns (bytes1) {\n      require(_bytes.length >= (_start + 1), \" not long enough\");\n      bytes1 tempBytes1;\n\n      assembly {\n          tempBytes1 := mload(add(add(_bytes, 0x20), _start))\n      }\n\n      return tempBytes1;\n  }\n  function toBytes7(bytes _bytes, uint _start)\n    private\n    pure\n    returns (bytes7) {\n      require(_bytes.length >= (_start + 7), \" not long enough\");\n      bytes7 tempBytes7;\n\n      assembly {\n          tempBytes7 := mload(add(add(_bytes, 0x20), _start))\n      }\n\n      return tempBytes7;\n  }\n  function toBytes10(bytes _bytes, uint _start)\n    private\n    pure\n    returns (bytes10) {\n      require(_bytes.length >= (_start + 10), \" not long enough\");\n      bytes10 tempBytes10;\n\n      assembly {\n          tempBytes10 := mload(add(add(_bytes, 0x20), _start))\n      }\n\n      return tempBytes10;\n  }\n\n  // ------------------------------------------------\n  //\n  // Functions Setters Private\n  //\n  // ------------------------------------------------\n\n  function _handleTaxPayment()\n    private\n  {\n    Auction storage lastAuction = auctionIdToAuction[currentAuctionId];\n\n    uint taxEndTime; // set depending on current auction state\n    uint taxStartTime = zoneOwner.lastTaxTime; // always keep track of time until taxes are paid\n    uint taxableAmount = zoneOwner.staked;     // you pay taxes over \"the price you sell at\"\n\n    // Auction state did not change in this transaction/block!!\n    // current Auction is in state Started or Ended\n    if (lastAuction.state == AuctionState.Started) {\n      // if there is a current auction, taxes need to be paid until auction start time\n      taxEndTime = lastAuction.startTime;\n      if (taxStartTime == taxEndTime) {\n        return; // short-circuit: multiple txes in 1 block OR many blocks but in same Auction\n      }\n    } else if (lastAuction.state == AuctionState.Ended) {\n      // if there is NO current auction, measure tax until \"now\"\n      taxEndTime = now;\n      if (taxStartTime == taxEndTime) {\n        return; // short-circuit: multiple txes in 1 block\n      }\n    }\n    // ANY auction has to be in one of those 2 states, first auction ever (constructor()) starts in state Ended\n\n    uint taxAmount;\n    uint keepAmount;\n    (taxAmount, keepAmount) = calcHarbergerTax(taxStartTime, taxEndTime, taxableAmount);\n\n    if (taxAmount >= zoneOwner.balance) {\n      // zone owner DOES NOT have anough balance to be owner any longer\n\n      // set tax amount to max he can pay\n      uint taxDebt = taxAmount.sub(zoneOwner.balance); // TODO: what to do with debt, just forget about it?\n      taxAmount = zoneOwner.balance;\n\n      address prevOwnerAddr = zoneOwner.addr;\n\n      // reset zone owner to nobody, somebody can now call claimFreeZone() with 100DTH\n      zoneOwner.addr = address(0);\n      zoneOwner.startTime = 0;\n      zoneOwner.staked = 0;\n      zoneOwner.balance = 0;\n      zoneOwner.lastTaxTime = 0;\n\n      emit ZoneOwnerTaxesPaid(zoneOwner.addr, taxStartTime, taxEndTime, taxAmount);\n      emit ZoneOwnerForeClosed(zoneOwner.addr, zoneOwner.startTime, taxEndTime, taxableAmount, taxDebt);\n      emit ZoneOwnerUpdated(address(this), prevOwnerAddr, zoneOwner.addr);\n    } else {\n      // zone onwer has enough balance to pay his harberger taxes\n\n      zoneOwner.balance = zoneOwner.balance.sub(taxAmount);\n      zoneOwner.lastTaxTime = taxEndTime;\n\n      emit ZoneOwnerTaxesPaid(zoneOwner.addr, taxStartTime, taxEndTime, taxAmount);\n    }\n\n    dth.transfer(ADDRESS_BURN, taxAmount);\n  }\n\n  function _handleAuctionEnd()\n    private\n  {\n    Auction storage lastAuction = auctionIdToAuction[currentAuctionId];\n\n    // 1. update current Auction state to Ended\n    lastAuction.state = AuctionState.Ended;\n\n    // 2. collect winning bidder address\n    address winningBidder = lastAuction.highestBidder;\n\n    // 3. collect winning bid amount\n    uint winningAmount = auctionBids[currentAuctionId][winningBidder];\n\n    // 4. reset winning bidders bid in Auction\n    auctionBids[currentAuctionId][winningBidder] = 0;\n\n    // 5. calc harberger tax of current zoneOwner\n    uint taxAmount;\n    uint keepAmount;\n    (taxAmount, keepAmount) = calcHarbergerTax(zoneOwner.lastTaxTime, lastAuction.startTime, zoneOwner.staked);\n\n    // 6. check if highest bidder is current zone owner or not\n    if (zoneOwner.addr == winningBidder) {\n      // 6a. highest bidder is current zone owner\n\n      // 6a.1 update zone owner info (current zone owner always has his stake amount added to all his bids)\n      zoneOwner.staked = zoneOwner.staked.add(winningAmount);\n      zoneOwner.balance = zoneOwner.balance.add(winningAmount);\n      zoneOwner.lastTaxTime = now;\n    } else {\n      // 6b. winning bidder differs from current zone owner\n\n      address prevOwnerAddr = zoneOwner.addr;\n\n      // 6b.1 make the winnig bidder the new zoneOwner\n      zoneOwner.addr = winningBidder;\n      zoneOwner.startTime = lastAuction.endTime;\n      zoneOwner.staked = winningAmount; // entry fee is already deducted when user calls bid()\n      zoneOwner.balance = winningAmount;\n      zoneOwner.lastTaxTime = now;\n\n      // 6b.2 make left-over staked DTH of old zone owner withdrawable\n      withdrawableDth[prevOwnerAddr] = withdrawableDth[prevOwnerAddr].add(keepAmount);\n\n      // 6b.3 make added eth funds withdrawable\n      uint ethAmount = funds[prevOwnerAddr];\n      funds[prevOwnerAddr] = 0;\n      withdrawableEth[prevOwnerAddr] = withdrawableEth[prevOwnerAddr].add(ethAmount);\n\n      emit ZoneOwnerUpdated(address(this), prevOwnerAddr, winningBidder);\n    }\n\n    // 7. burn the tax amount\n    dth.transfer(ADDRESS_BURN, taxAmount);\n  }\n\n  /// @notice private function to update the current auction state\n  function _processState()\n    private\n  {\n    Auction memory lastAuction = auctionIdToAuction[currentAuctionId];\n\n    if (lastAuction.state == AuctionState.Started && now >= lastAuction.endTime) {\n      // current Auction is still set to Started and endTime has passed, we need to update it to Ended\n      _handleAuctionEnd();\n    } else if (zoneOwner.addr != address(0)) {\n      // there is currently a zone owner, check/handle his tax payment\n      _handleTaxPayment();\n    }\n  }\n\n  /// @notice private function to update the current auction state\n  function _bid(address _sender, uint _dthAmount) // GAS COST +/- 223.689\n    private\n  {\n    require(zoneOwner.addr != address(0), \"cannot bid on zone without owner, use claimFreeZone()\");\n\n    uint burnAmount;\n    uint bidAmount;\n\n    Auction storage lastAuction = auctionIdToAuction[currentAuctionId];\n\n    if (lastAuction.state == AuctionState.Ended) {\n      //---------------------------------------------//\n      // let's see if sender can start a new Auction //\n      //---------------------------------------------//\n\n      require(now > lastAuction.endTime.add(COOLDOWN_PERIOD), \"cooldown period did not end yet\");\n      require(_sender != zoneOwner.addr, \"zoneowner cannot start an auction\");\n\n      (burnAmount, bidAmount) = calcEntryFee(_dthAmount);\n      require(bidAmount > zoneOwner.staked, \"bid is lower than current zone stake\");\n\n      // save the new Auction\n      uint newAuctionId = ++currentAuctionId;\n\n      auctionIdToAuction[newAuctionId] = Auction({\n        state: AuctionState.Started,\n        startTime: now,\n        endTime: now.add(BID_PERIOD),\n        highestBidder: _sender // caller (challenger)\n      });\n\n      auctionBids[newAuctionId][_sender] = bidAmount;\n\n      dth.transfer(ADDRESS_BURN, burnAmount);\n\n    } else if (lastAuction.state == AuctionState.Started) {\n      //------------------------------------------------------------------------------//\n      // there is a running auction, lets see if we can join the auction with our bid //\n      //------------------------------------------------------------------------------//\n\n      require(_sender != lastAuction.highestBidder, \"highest bidder cannot bid\");\n\n      uint currentHighestBid = auctionBids[currentAuctionId][lastAuction.highestBidder];\n\n      if (_sender == zoneOwner.addr) {\n        uint dthAddedBidsAmount = auctionBids[currentAuctionId][_sender].add(_dthAmount); // NOTE: _dthAmount\n        // the current zone owner's stake also counts in his bid\n        require(zoneOwner.staked.add(dthAddedBidsAmount) > currentHighestBid, \"bid + already staked is less than current highest\");\n        auctionBids[currentAuctionId][_sender] = dthAddedBidsAmount;\n      } else {\n        // _sender is not the current zone owner\n        if (auctionBids[currentAuctionId][_sender] == 0) {\n          // this is the first bid of this challenger, deduct entry fee\n          (burnAmount, bidAmount) = calcEntryFee(_dthAmount);\n          require(bidAmount > currentHighestBid, \"bid is less than current highest\");\n          auctionBids[currentAuctionId][_sender] = bidAmount;\n          dth.transfer(ADDRESS_BURN, burnAmount);\n        } else {\n          // not the first bid, no entry fee\n          uint newUserTotalBid = auctionBids[currentAuctionId][_sender].add(_dthAmount);\n          require(newUserTotalBid > currentHighestBid, \"bid is less than current highest\");\n          auctionBids[currentAuctionId][_sender] = newUserTotalBid;\n        }\n      }\n\n      // it worked, _sender placed a bid\n      lastAuction.highestBidder = _sender;\n    }\n  }\n\n  function _claimFreeZone(address _sender, uint _dthAmount) // GAS COSt +/- 177.040\n    private\n  {\n    require(zoneOwner.addr == address(0), \"can not claim zone with owner\");\n    require(_dthAmount >= MIN_STAKE, \"need at least minimum zone stake amount (100 DTH)\");\n\n    // NOTE: empty zone claim will not have entry fee deducted, its not bidding it's taking immediately\n    zoneOwner.addr = _sender;\n    zoneOwner.startTime = now;\n    zoneOwner.staked = _dthAmount;\n    zoneOwner.balance = _dthAmount;\n    zoneOwner.lastTaxTime = now;\n  }\n\n  function _topUp(address _sender, uint _dthAmount) // GAS COST +/- 104.201\n    private\n  {\n    require(zoneOwner.addr != address(0), \"zone has no owner\");\n    require(_sender == zoneOwner.addr, \"caller is not zone owner\");\n    require(auctionIdToAuction[currentAuctionId].state == AuctionState.Ended, \"cannot top up while auction running\");\n\n    uint oldBalance = zoneOwner.balance;\n    uint newBalance = oldBalance.add(_dthAmount);\n    zoneOwner.balance = newBalance;\n\n    emit ZoneOwnerTopUp(_sender, oldBalance, newBalance);\n  }\n\n  // ------------------------------------------------\n  //\n  // Functions Setters Public\n  //\n  // ------------------------------------------------\n\n  /////////////\n  //\n  //\n  // Zone ownership + Auction\n  //\n  //\n  /////////////\n\n  /// @notice ERC223 receiving function called by Dth contract when Eth is sent to this contract\n  /// @param _from Who send DTH to this contract\n  /// @param _value How much DTH was sent to this contract\n  /// @param _data Additional bytes data sent\n  function tokenFallback(address _from, uint _value, bytes _data)\n    public\n  {\n    require(msg.sender == address(dth), \"can only be called by dth contract\");\n    require(control.paused() == false, \"contract is paused\");\n    require(geo.countryIsEnabled(country), \"country is disabled\");\n\n    bytes1 func = toBytes1(_data, 0);\n\n    require(func == bytes1(0x40) || func == bytes1(0x41) || func == bytes1(0x42) || func == bytes1(0x43), \"did not match Zone function\");\n\n    if (func == bytes1(0x40)) { // zone was created by factory, sending through DTH\n      return; // just retun success\n    }\n\n    require(users.getUserTier(_from) > 0, \"user not certified\");\n\n    _processState();\n\n    if (func == bytes1(0x41)) { // claimFreeZone\n      _claimFreeZone(_from, _value);\n    } else if (func == bytes1(0x42)) { // bid\n      _bid(_from, _value);\n    } else if (func == bytes1(0x43)) { // topUp\n      _topUp(_from, _value);\n    }\n  }\n\n  /// @notice release zone ownership\n  /// @dev can only be called by current zone owner, when there is no running auction\n  function release() // GAS COST +/- 72.351\n    external\n  {\n    require(control.paused() == false, \"contract is paused\");\n    // allow also when country is disabled, otherwise no way for zone owner to get their eth/dth back\n    require(users.getUserTier(msg.sender) > 0, \"user not certified\");\n\n    // zone owner could be removed if he does not have enough balance to pay his taxes\n    _processState();\n\n    require(msg.sender == zoneOwner.addr, \"caller is not zone owner\");\n    require(auctionIdToAuction[currentAuctionId].state == AuctionState.Ended, \"cannot release while auction running\");\n\n    Auction storage lastAuction = auctionIdToAuction[currentAuctionId];\n\n    uint ownerBalance = zoneOwner.balance;\n\n    zoneOwner.addr = address(0);\n    zoneOwner.startTime = 0; // we dont really need startTime, lastTaxTime initially is startTime\n    zoneOwner.staked = 0;\n    zoneOwner.balance = 0;\n    zoneOwner.lastTaxTime = 0;\n\n    // if msg.sender is a contract, the DTH ERC223 contract will try to call tokenFallback\n    // on msg.sender, this could lead to a reentrancy. But we prevent this by resetting\n    // zoneOwner before we do dth.transfer(msg.sender)\n    dth.transfer(msg.sender, ownerBalance);\n  }\n\n  // offer three different withdraw functions, single auction, multiple auctions, all auctions\n\n  /// @notice withdraw losing bids from a specific auction\n  /// @param _auctionId The auction id\n  function withdrawFromAuction(uint _auctionId) // GAS COST +/- 125.070\n    external\n  {\n    require(control.paused() == false, \"contract is paused\");\n    // even when country is disabled, otherwise users cannot withdraw their bids\n    require(users.getUserTier(msg.sender) > 0, \"user not certified\");\n\n    require(_auctionId <= currentAuctionId, \"auctionId does not exist\");\n\n    _processState();\n\n    require(auctionIdToAuction[_auctionId].state == AuctionState.Ended, \"cannot withdraw while auction is active\");\n    require(auctionBids[_auctionId][msg.sender] > 0, \"nothing to withdraw\");\n\n    uint withdrawAmount = auctionBids[_auctionId][msg.sender];\n    auctionBids[_auctionId][msg.sender] = 0;\n\n    dth.transfer(msg.sender, withdrawAmount);\n  }\n\n  /// @notice withdraw from a given list of auction ids\n  function withdrawFromAuctions(uint[] _auctionIds) // GAS COST +/- 127.070\n    external\n  {\n    require(control.paused() == false, \"contract is paused\");\n    // even when country is disabled, can withdraw\n    require(users.getUserTier(msg.sender) > 0, \"user not certified\");\n\n    _processState();\n\n    require(_auctionIds.length > 0, \"auctionIds list is empty\");\n    // auction 0 cannot be withdrawn from\n    require(_auctionIds.length <= currentAuctionId, \"auctionIds list is longer than allowed\");\n\n    uint withdrawAmountTotal = 0;\n\n    for (uint idx = 0; idx < _auctionIds.length; idx++) {\n      uint auctionId = _auctionIds[idx];\n      require(auctionId > 0 && auctionId <= currentAuctionId, \"auctionId does not exist\");\n      require(auctionIdToAuction[auctionId].state == AuctionState.Ended, \"cannot withdraw from running auction\");\n      uint withdrawAmount = auctionBids[auctionId][msg.sender];\n      if (withdrawAmount > 0) {\n        // if user supplies the same auctionId multiple times in auctionIds,\n        // only the first one will get a withdrawal amount\n        auctionBids[auctionId][msg.sender] = 0;\n        withdrawAmountTotal = withdrawAmountTotal.add(withdrawAmount);\n      }\n    }\n\n    // TODO: not throw here?\n    require(withdrawAmountTotal > 0, \"nothing to withdraw\");\n\n    dth.transfer(msg.sender, withdrawAmountTotal);\n  }\n\n  function prevZoneOwnerWithdraw()\n    external\n  {\n    uint dthWithdraw = withdrawableDth[msg.sender];\n    uint ethWithdraw = withdrawableEth[msg.sender];\n    require(dthWithdraw > 0 || ethWithdraw > 0, \"nothing to withdraw\");\n\n    if (dthWithdraw > 0) {\n      withdrawableDth[msg.sender] = 0;\n      dth.transfer(msg.sender, dthWithdraw);\n    }\n\n    if (ethWithdraw > 0) {\n      withdrawableEth[msg.sender] = 0;\n      msg.sender.transfer(ethWithdraw);\n    }\n  }\n\n  /////////////\n  //\n  //\n  // TELLER\n  //\n  //\n  /////////////\n\n\n  // NOTE: we could just require only last 3 bytes of a bytes10 geohash, since\n  // the first 7 bytes will be the geohash of this zone. But by requiring the full geohash\n  // we can mkae more sure the user is talking to the right zone\n  function addTeller(bytes _position, uint8 _currencyId, bytes16 _messenger, int16 _sellRate, int16 _buyRate, bytes1 _settings) // GAS COST +/- 75.301\n    external\n  {\n    require(control.paused() == false, \"contract is paused\");\n    require(geo.countryIsEnabled(country), \"country is disabled\");\n    require(users.getUserTier(msg.sender) > 0, \"user not certified\");\n    require(_position.length == 10, \"expected position to be 10 bytes\");\n    require(toBytes7(_position, 0) == geohash, \"position is not inside this zone\");\n    require(geo.validGeohashChars(_position, 7), \"invalid position geohash characters\");\n\n    require(_currencyId >= 1 && _currencyId <= 100, \"currency id must be in range 1-100\");\n    // _messenger can be 0x0 if he has no telegram\n\n    if (_settings & isSellerBitMask != 0) { // seller bit is set => teller is a \"seller\"\n      require(_sellRate >= -9999 && _sellRate <= 9999, \"sellRate should be between -9999 and 9999\");\n    } else {\n      require(_sellRate == 0, \"cannot set sellRate if not set as seller\");\n    }\n\n    if (_settings & isBuyerBitMask != 0) { // buyer bit is set => teller is a \"buyer\"\n      require(_buyRate >= -9999 && _buyRate <= 9999, \"buyRate should be between -9999 and 9999\");\n    } else {\n      require(_buyRate == 0, \"cannot set buyRate if not set as buyer\");\n    }\n\n    _processState();\n\n    require(msg.sender == zoneOwner.addr, \"only zone owner can add teller info\");\n\n    teller.currencyId = _currencyId;\n    teller.messenger = _messenger;\n    teller.buyRate = _buyRate;\n    teller.sellRate = _sellRate;\n    teller.position = toBytes10(_position, 0);\n    teller.settings = _settings;\n\n    emit ZoneUpdatedTeller(msg.sender);\n  }\n\n  // called by Teller, adding ETH to Teller funds\n  function addFunds() // GAS COST +/- 59.809\n    external\n    payable\n  {\n    require(control.paused() == false, \"contract is paused\");\n    require(geo.countryIsEnabled(country), \"country is disabled\");\n    require(users.getUserTier(msg.sender) > 0, \"user not certified\");\n    require(msg.value > 0, \"no eth send with call\");\n\n    _processState();\n\n    require(msg.sender == zoneOwner.addr, \"only zoneOwner can add funds\");\n    require(teller.currencyId != 0, \"not yet added teller info\");\n\n    // register ETH sent to this contract\n    funds[msg.sender] = funds[msg.sender].add(msg.value);\n  }\n\n  // called by Teller, sending ETH from Zone to _to\n  function sellEth(address _to, uint _amount) // GAS COST +/- 147.310\n    external\n  {\n    require(control.paused() == false, \"contract is paused\");\n    require(geo.countryIsEnabled(country), \"country is disabled\");\n    require(users.getUserTier(msg.sender) > 0, \"user not certified\");\n    require(msg.sender != _to, \"sender cannot also be to\");\n    require(_amount > 0, \"amount to sell cannot be zero\");\n\n    _processState();\n\n    require(msg.sender == zoneOwner.addr, \"can only be called by zone owner\");\n    require(teller.currencyId != 0, \"not yet added teller info\");\n\n    require(funds[msg.sender] >= _amount, \"cannot sell more than in funds\");\n\n    // subtract the amount of ETH we are gonna send from this contract to _to\n    funds[msg.sender] = funds[msg.sender].sub(_amount);\n\n    zoneFactory.updateUserDailySold(country, msg.sender, _to, _amount); // MIGHT THROW if exceeds daily limit\n  }\n}\n",
  "sourcePath": "/Users/trip/Projects/detherContracts/contracts/map/Zone.sol",
  "compiler": {
    "name": "solc",
    "version": "0.4.24+commit.e67f0147.Emscripten.clang"
  },
  "schemaVersion": "2.0.1",
  "updatedAt": "2018-11-28T16:15:51.923Z"
}