{
  "contractName": "Zone",
  "abi": [
    {
      "constant": true,
      "inputs": [],
      "name": "dth",
      "outputs": [
        {
          "name": "",
          "type": "address"
        }
      ],
      "payable": false,
      "stateMutability": "view",
      "type": "function",
      "signature": "0x01e57a37"
    },
    {
      "constant": true,
      "inputs": [],
      "name": "geohash",
      "outputs": [
        {
          "name": "",
          "type": "bytes7"
        }
      ],
      "payable": false,
      "stateMutability": "view",
      "type": "function",
      "signature": "0x08e44f88"
    },
    {
      "constant": true,
      "inputs": [],
      "name": "currentAuctionId",
      "outputs": [
        {
          "name": "",
          "type": "uint256"
        }
      ],
      "payable": false,
      "stateMutability": "view",
      "type": "function",
      "signature": "0x0c0b86ca"
    },
    {
      "constant": true,
      "inputs": [
        {
          "name": "",
          "type": "uint256"
        },
        {
          "name": "",
          "type": "address"
        }
      ],
      "name": "auctionBids",
      "outputs": [
        {
          "name": "",
          "type": "uint256"
        }
      ],
      "payable": false,
      "stateMutability": "view",
      "type": "function",
      "signature": "0x1504ceed"
    },
    {
      "constant": true,
      "inputs": [
        {
          "name": "",
          "type": "address"
        }
      ],
      "name": "withdrawableDth",
      "outputs": [
        {
          "name": "",
          "type": "uint256"
        }
      ],
      "payable": false,
      "stateMutability": "view",
      "type": "function",
      "signature": "0x2c2f3d13"
    },
    {
      "constant": true,
      "inputs": [],
      "name": "teller",
      "outputs": [
        {
          "name": "",
          "type": "address"
        }
      ],
      "payable": false,
      "stateMutability": "view",
      "type": "function",
      "signature": "0x57edab4e"
    },
    {
      "constant": true,
      "inputs": [],
      "name": "zoneFactory",
      "outputs": [
        {
          "name": "",
          "type": "address"
        }
      ],
      "payable": false,
      "stateMutability": "view",
      "type": "function",
      "signature": "0x7b9a7301"
    },
    {
      "constant": true,
      "inputs": [],
      "name": "MIN_STAKE",
      "outputs": [
        {
          "name": "",
          "type": "uint256"
        }
      ],
      "payable": false,
      "stateMutability": "view",
      "type": "function",
      "signature": "0xcb1c2b5c"
    },
    {
      "constant": true,
      "inputs": [],
      "name": "country",
      "outputs": [
        {
          "name": "",
          "type": "bytes2"
        }
      ],
      "payable": false,
      "stateMutability": "view",
      "type": "function",
      "signature": "0xd8b0b499"
    },
    {
      "constant": true,
      "inputs": [],
      "name": "control",
      "outputs": [
        {
          "name": "",
          "type": "address"
        }
      ],
      "payable": false,
      "stateMutability": "view",
      "type": "function",
      "signature": "0xd8de6587"
    },
    {
      "constant": true,
      "inputs": [],
      "name": "geo",
      "outputs": [
        {
          "name": "",
          "type": "address"
        }
      ],
      "payable": false,
      "stateMutability": "view",
      "type": "function",
      "signature": "0xd944e6a3"
    },
    {
      "constant": true,
      "inputs": [
        {
          "name": "",
          "type": "address"
        }
      ],
      "name": "withdrawableEth",
      "outputs": [
        {
          "name": "",
          "type": "uint256"
        }
      ],
      "payable": false,
      "stateMutability": "view",
      "type": "function",
      "signature": "0xe0df216c"
    },
    {
      "constant": false,
      "inputs": [
        {
          "name": "_countryCode",
          "type": "bytes2"
        },
        {
          "name": "_geohash",
          "type": "bytes7"
        },
        {
          "name": "_zoneOwner",
          "type": "address"
        },
        {
          "name": "_dthAmount",
          "type": "uint256"
        },
        {
          "name": "_dth",
          "type": "address"
        },
        {
          "name": "_geo",
          "type": "address"
        },
        {
          "name": "_control",
          "type": "address"
        },
        {
          "name": "_zoneFactory",
          "type": "address"
        }
      ],
      "name": "init",
      "outputs": [],
      "payable": false,
      "stateMutability": "nonpayable",
      "type": "function",
      "signature": "0x3c997603"
    },
    {
      "constant": false,
      "inputs": [
        {
          "name": "_teller",
          "type": "address"
        }
      ],
      "name": "connectToTellerContract",
      "outputs": [],
      "payable": false,
      "stateMutability": "nonpayable",
      "type": "function",
      "signature": "0x390b9356"
    },
    {
      "constant": true,
      "inputs": [],
      "name": "ownerAddr",
      "outputs": [
        {
          "name": "",
          "type": "address"
        }
      ],
      "payable": false,
      "stateMutability": "view",
      "type": "function",
      "signature": "0x9c675eaa"
    },
    {
      "constant": true,
      "inputs": [
        {
          "name": "_geohash",
          "type": "bytes7"
        },
        {
          "name": "_addr",
          "type": "address"
        }
      ],
      "name": "computeCSC",
      "outputs": [
        {
          "name": "",
          "type": "bytes12"
        }
      ],
      "payable": false,
      "stateMutability": "pure",
      "type": "function",
      "signature": "0xab5b8f1b"
    },
    {
      "constant": true,
      "inputs": [
        {
          "name": "_startTime",
          "type": "uint256"
        },
        {
          "name": "_endTime",
          "type": "uint256"
        },
        {
          "name": "_dthAmount",
          "type": "uint256"
        }
      ],
      "name": "calcHarbergerTax",
      "outputs": [
        {
          "name": "taxAmount",
          "type": "uint256"
        },
        {
          "name": "keepAmount",
          "type": "uint256"
        }
      ],
      "payable": false,
      "stateMutability": "view",
      "type": "function",
      "signature": "0x1ecb0f67"
    },
    {
      "constant": true,
      "inputs": [
        {
          "name": "_value",
          "type": "uint256"
        }
      ],
      "name": "calcEntryFee",
      "outputs": [
        {
          "name": "burnAmount",
          "type": "uint256"
        },
        {
          "name": "bidAmount",
          "type": "uint256"
        }
      ],
      "payable": false,
      "stateMutability": "view",
      "type": "function",
      "signature": "0xfb01bb51"
    },
    {
      "constant": true,
      "inputs": [
        {
          "name": "_auctionId",
          "type": "uint256"
        }
      ],
      "name": "auctionExists",
      "outputs": [
        {
          "name": "",
          "type": "bool"
        }
      ],
      "payable": false,
      "stateMutability": "view",
      "type": "function",
      "signature": "0x3c0868f0"
    },
    {
      "constant": true,
      "inputs": [],
      "name": "getZoneOwner",
      "outputs": [
        {
          "name": "",
          "type": "address"
        },
        {
          "name": "",
          "type": "uint256"
        },
        {
          "name": "",
          "type": "uint256"
        },
        {
          "name": "",
          "type": "uint256"
        },
        {
          "name": "",
          "type": "uint256"
        },
        {
          "name": "",
          "type": "uint256"
        }
      ],
      "payable": false,
      "stateMutability": "view",
      "type": "function",
      "signature": "0x99640c81"
    },
    {
      "constant": true,
      "inputs": [
        {
          "name": "_auctionId",
          "type": "uint256"
        }
      ],
      "name": "getAuction",
      "outputs": [
        {
          "name": "",
          "type": "uint256"
        },
        {
          "name": "",
          "type": "uint256"
        },
        {
          "name": "",
          "type": "uint256"
        },
        {
          "name": "",
          "type": "uint256"
        },
        {
          "name": "",
          "type": "address"
        },
        {
          "name": "",
          "type": "uint256"
        }
      ],
      "payable": false,
      "stateMutability": "view",
      "type": "function",
      "signature": "0x78bd7935"
    },
    {
      "constant": true,
      "inputs": [],
      "name": "getLastAuction",
      "outputs": [
        {
          "name": "",
          "type": "uint256"
        },
        {
          "name": "",
          "type": "uint256"
        },
        {
          "name": "",
          "type": "uint256"
        },
        {
          "name": "",
          "type": "uint256"
        },
        {
          "name": "",
          "type": "address"
        },
        {
          "name": "",
          "type": "uint256"
        }
      ],
      "payable": false,
      "stateMutability": "view",
      "type": "function",
      "signature": "0x0d624914"
    },
    {
      "constant": false,
      "inputs": [],
      "name": "processState",
      "outputs": [],
      "payable": false,
      "stateMutability": "nonpayable",
      "type": "function",
      "signature": "0x40be3e6a"
    },
    {
      "constant": false,
      "inputs": [
        {
          "name": "_from",
          "type": "address"
        },
        {
          "name": "_value",
          "type": "uint256"
        },
        {
          "name": "_data",
          "type": "bytes"
        }
      ],
      "name": "tokenFallback",
      "outputs": [],
      "payable": false,
      "stateMutability": "nonpayable",
      "type": "function",
      "signature": "0xc0ee0b8a"
    },
    {
      "constant": false,
      "inputs": [],
      "name": "release",
      "outputs": [],
      "payable": false,
      "stateMutability": "nonpayable",
      "type": "function",
      "signature": "0x86d1a69f"
    },
    {
      "constant": false,
      "inputs": [
        {
          "name": "_auctionId",
          "type": "uint256"
        }
      ],
      "name": "withdrawFromAuction",
      "outputs": [],
      "payable": false,
      "stateMutability": "nonpayable",
      "type": "function",
      "signature": "0x422927ad"
    },
    {
      "constant": false,
      "inputs": [
        {
          "name": "_auctionIds",
          "type": "uint256[]"
        }
      ],
      "name": "withdrawFromAuctions",
      "outputs": [],
      "payable": false,
      "stateMutability": "nonpayable",
      "type": "function",
      "signature": "0x6496a441"
    },
    {
      "constant": false,
      "inputs": [],
      "name": "withdrawDth",
      "outputs": [],
      "payable": false,
      "stateMutability": "nonpayable",
      "type": "function",
      "signature": "0xc732ff3e"
    },
    {
      "constant": false,
      "inputs": [],
      "name": "withdrawEth",
      "outputs": [],
      "payable": false,
      "stateMutability": "nonpayable",
      "type": "function",
      "signature": "0xa0ef91df"
    },
    {
      "constant": false,
      "inputs": [
        {
          "name": "_to",
          "type": "address"
        },
        {
          "name": "_amount",
          "type": "uint256"
        }
      ],
      "name": "proxyUpdateUserDailySold",
      "outputs": [],
      "payable": false,
      "stateMutability": "nonpayable",
      "type": "function",
      "signature": "0xd77ce939"
    }
  ],
  "bytecode": "0x608060405234801561001057600080fd5b5061596980620000216000396000f3fe608060405234801561001057600080fd5b50600436106101f7576000357c0100000000000000000000000000000000000000000000000000000000900480637b9a730111610121578063c732ff3e116100bf578063d8de65871161008e578063d8de658714610af0578063d944e6a314610b3a578063e0df216c14610b84578063fb01bb5114610bdc576101f7565b8063c732ff3e14610a1a578063cb1c2b5c14610a24578063d77ce93914610a42578063d8b0b49914610a90576101f7565b80639c675eaa116100fb5780639c675eaa14610835578063a0ef91df1461087f578063ab5b8f1b14610889578063c0ee0b8a14610935576101f7565b80637b9a73011461077457806386d1a69f146107be57806399640c81146107c8576101f7565b8063390b935611610199578063422927ad11610168578063422927ad146105f257806357edab4e146106205780636496a4411461066a57806378bd7935146106e3576101f7565b8063390b93561461043e5780633c0868f0146104825780633c997603146104c857806340be3e6a146105e8576101f7565b80630d624914116101d55780630d624914146102ba5780631504ceed146103275780631ecb0f67146103895780632c2f3d13146103e6576101f7565b806301e57a37146101fc57806308e44f88146102465780630c0b86ca1461029c575b600080fd5b610204610c25565b604051808273ffffffffffffffffffffffffffffffffffffffff1673ffffffffffffffffffffffffffffffffffffffff16815260200191505060405180910390f35b61024e610c4b565b604051808278ffffffffffffffffffffffffffffffffffffffffffffffffff191678ffffffffffffffffffffffffffffffffffffffffffffffffff1916815260200191505060405180910390f35b6102a4610c77565b6040518082815260200191505060405180910390f35b6102c2610c7d565b604051808781526020018681526020018581526020018481526020018373ffffffffffffffffffffffffffffffffffffffff1673ffffffffffffffffffffffffffffffffffffffff168152602001828152602001965050505050505060405180910390f35b6103736004803603604081101561033d57600080fd5b8101908080359060200190929190803573ffffffffffffffffffffffffffffffffffffffff169060200190929190505050610ca5565b6040518082815260200191505060405180910390f35b6103c96004803603606081101561039f57600080fd5b81019080803590602001909291908035906020019092919080359060200190929190505050610cca565b604051808381526020018281526020019250505060405180910390f35b610428600480360360208110156103fc57600080fd5b81019080803573ffffffffffffffffffffffffffffffffffffffff169060200190929190505050610d4c565b6040518082815260200191505060405180910390f35b6104806004803603602081101561045457600080fd5b81019080803573ffffffffffffffffffffffffffffffffffffffff169060200190929190505050610d64565b005b6104ae6004803603602081101561049857600080fd5b8101908080359060200190929190505050610ebc565b604051808215151515815260200191505060405180910390f35b6105e660048036036101008110156104df57600080fd5b8101908080357dffffffffffffffffffffffffffffffffffffffffffffffffffffffffffff19169060200190929190803578ffffffffffffffffffffffffffffffffffffffffffffffffff19169060200190929190803573ffffffffffffffffffffffffffffffffffffffff16906020019092919080359060200190929190803573ffffffffffffffffffffffffffffffffffffffff169060200190929190803573ffffffffffffffffffffffffffffffffffffffff169060200190929190803573ffffffffffffffffffffffffffffffffffffffff169060200190929190803573ffffffffffffffffffffffffffffffffffffffff169060200190929190505050610ede565b005b6105f06111e1565b005b61061e6004803603602081101561060857600080fd5b8101908080359060200190929190505050611293565b005b61062861193b565b604051808273ffffffffffffffffffffffffffffffffffffffff1673ffffffffffffffffffffffffffffffffffffffff16815260200191505060405180910390f35b6106e16004803603602081101561068057600080fd5b810190808035906020019064010000000081111561069d57600080fd5b8201836020820111156106af57600080fd5b803590602001918460208302840111640100000000831117156106d157600080fd5b9091929391929390505050611961565b005b61070f600480360360208110156106f957600080fd5b810190808035906020019092919050505061216d565b604051808781526020018681526020018581526020018481526020018373ffffffffffffffffffffffffffffffffffffffff1673ffffffffffffffffffffffffffffffffffffffff168152602001828152602001965050505050505060405180910390f35b61077c612364565b604051808273ffffffffffffffffffffffffffffffffffffffff1673ffffffffffffffffffffffffffffffffffffffff16815260200191505060405180910390f35b6107c661238a565b005b6107d0612845565b604051808773ffffffffffffffffffffffffffffffffffffffff1673ffffffffffffffffffffffffffffffffffffffff168152602001868152602001858152602001848152602001838152602001828152602001965050505050505060405180910390f35b61083d6128a5565b604051808273ffffffffffffffffffffffffffffffffffffffff1673ffffffffffffffffffffffffffffffffffffffff16815260200191505060405180910390f35b6108876128d1565b005b6108f16004803603604081101561089f57600080fd5b81019080803578ffffffffffffffffffffffffffffffffffffffffffffffffff19169060200190929190803573ffffffffffffffffffffffffffffffffffffffff169060200190929190505050612b27565b604051808273ffffffffffffffffffffffffffffffffffffffff191673ffffffffffffffffffffffffffffffffffffffff1916815260200191505060405180910390f35b610a186004803603606081101561094b57600080fd5b81019080803573ffffffffffffffffffffffffffffffffffffffff169060200190929190803590602001909291908035906020019064010000000081111561099257600080fd5b8201836020820111156109a457600080fd5b803590602001918460018302840111640100000000831117156109c657600080fd5b91908080601f016020809104026020016040519081016040528093929190818152602001838380828437600081840152601f19601f820116905080830192505050505050509192919290505050612bd3565b005b610a22613499565b005b610a2c6137a9565b6040518082815260200191505060405180910390f35b610a8e60048036036040811015610a5857600080fd5b81019080803573ffffffffffffffffffffffffffffffffffffffff169060200190929190803590602001909291905050506137b6565b005b610a98613b07565b60405180827dffffffffffffffffffffffffffffffffffffffffffffffffffffffffffff19167dffffffffffffffffffffffffffffffffffffffffffffffffffffffffffff1916815260200191505060405180910390f35b610af8613b38565b604051808273ffffffffffffffffffffffffffffffffffffffff1673ffffffffffffffffffffffffffffffffffffffff16815260200191505060405180910390f35b610b42613b5e565b604051808273ffffffffffffffffffffffffffffffffffffffff1673ffffffffffffffffffffffffffffffffffffffff16815260200191505060405180910390f35b610bc660048036036020811015610b9a57600080fd5b81019080803573ffffffffffffffffffffffffffffffffffffffff169060200190929190505050613b84565b6040518082815260200191505060405180910390f35b610c0860048036036020811015610bf257600080fd5b8101908080359060200190929190505050613b9c565b604051808381526020018281526020019250505060405180910390f35b600760029054906101000a900473ffffffffffffffffffffffffffffffffffffffff1681565b600b60169054906101000a90047901000000000000000000000000000000000000000000000000000281565b600e5481565b600080600080600080610c91600e5461216d565b955095509550955095509550909192939495565b600f602052816000526040600020602052806000526040600020600091509150505481565b600080610d2d62015180610d1f6064610d116001610d03610cf48c8c613be290919063ffffffff16565b8a613c0490919063ffffffff16565b613c0490919063ffffffff16565b613c4290919063ffffffff16565b613c4290919063ffffffff16565b9150610d428284613be290919063ffffffff16565b9050935093915050565b600c6020528060005260406000206000915090505481565b60011515600760009054906101000a900460ff161515141515610def576040517f08c379a000000000000000000000000000000000000000000000000000000000815260040180806020018281038252601c8152602001807f636f6e7472616374206e6f742079657420696e697469616c697a65640000000081525060200191505060405180910390fd5b60001515600760019054906101000a900460ff161515141515610e5d576040517f08c379a000000000000000000000000000000000000000000000000000000000815260040180806020018281038252602181526020018061581a6021913960400191505060405180910390fd5b80600b60006101000a81548173ffffffffffffffffffffffffffffffffffffffff021916908373ffffffffffffffffffffffffffffffffffffffff1602179055506001600760016101000a81548160ff02191690831515021790555050565b6000806006600084815260200190815260200160002060000154119050919050565b60001515600760009054906101000a900460ff161515141515610f69576040517f08c379a000000000000000000000000000000000000000000000000000000000815260040180806020018281038252601c8152602001807f636f6e747261637420616c726561647920696e697469616c697a65640000000081525060200191505060405180910390fd5b68056bc75e2d631000008510151515610fcd576040517f08c379a000000000000000000000000000000000000000000000000000000000815260040180806020018281038252603381526020018061577b6033913960400191505060405180910390fd5b87600b60146101000a81548161ffff02191690837e010000000000000000000000000000000000000000000000000000000000009004021790555086600b60166101000a81548166ffffffffffffff02191690837901000000000000000000000000000000000000000000000000009004021790555083600760026101000a81548173ffffffffffffffffffffffffffffffffffffffff021916908373ffffffffffffffffffffffffffffffffffffffff16021790555082600860006101000a81548173ffffffffffffffffffffffffffffffffffffffff021916908373ffffffffffffffffffffffffffffffffffffffff16021790555081600960006101000a81548173ffffffffffffffffffffffffffffffffffffffff021916908373ffffffffffffffffffffffffffffffffffffffff16021790555080600a60006101000a81548173ffffffffffffffffffffffffffffffffffffffff021916908373ffffffffffffffffffffffffffffffffffffffff160217905550856000800160006101000a81548173ffffffffffffffffffffffffffffffffffffffff021916908373ffffffffffffffffffffffffffffffffffffffff16021790555042600060010181905550846000600201819055508460006003018190555042600060040181905550600080600501819055506001600760006101000a81548160ff0219169083151502179055505050505050505050565b600b60009054906101000a900473ffffffffffffffffffffffffffffffffffffffff1673ffffffffffffffffffffffffffffffffffffffff163373ffffffffffffffffffffffffffffffffffffffff16141515611289576040517f08c379a00000000000000000000000000000000000000000000000000000000081526004018080602001828103825260258152602001806158f66025913960400191505060405180910390fd5b611291613c6c565b565b60011515600760009054906101000a900460ff16151514151561131e576040517f08c379a000000000000000000000000000000000000000000000000000000000815260040180806020018281038252601c8152602001807f636f6e7472616374206e6f742079657420696e697469616c697a65640000000081525060200191505060405180910390fd5b60011515600760019054906101000a900460ff16151514151561138c576040517f08c379a00000000000000000000000000000000000000000000000000000000081526004018080602001828103825260218152602001806158d56021913960400191505060405180910390fd5b60001515600960009054906101000a900473ffffffffffffffffffffffffffffffffffffffff1673ffffffffffffffffffffffffffffffffffffffff16635c975abb6040518163ffffffff167c0100000000000000000000000000000000000000000000000000000000028152600401602060405180830381600087803b15801561141657600080fd5b505af115801561142a573d6000803e3d6000fd5b505050506040513d602081101561144057600080fd5b810190808051906020019092919050505015151415156114c8576040517f08c379a00000000000000000000000000000000000000000000000000000000081526004018080602001828103825260128152602001807f636f6e747261637420697320706175736564000000000000000000000000000081525060200191505060405180910390fd5b6114d0613c6c565b6000811180156114e25750600e548111155b1515611556576040517f08c379a00000000000000000000000000000000000000000000000000000000081526004018080602001828103825260188152602001807f61756374696f6e496420646f6573206e6f74206578697374000000000000000081525060200191505060405180910390fd5b60018081111561156257fe5b6006600083815260200190815260200160002060020160009054906101000a900460ff16600181111561159157fe5b1415156115e9576040517f08c379a00000000000000000000000000000000000000000000000000000000081526004018080602001828103825260278152602001806157546027913960400191505060405180910390fd5b3373ffffffffffffffffffffffffffffffffffffffff166006600083815260200190815260200160002060020160019054906101000a900473ffffffffffffffffffffffffffffffffffffffff1673ffffffffffffffffffffffffffffffffffffffff16141515156116c3576040517f08c379a000000000000000000000000000000000000000000000000000000000815260040180806020018281038252601f8152602001807f61756374696f6e2077696e6e65722063616e206e6f742077697468647261770081525060200191505060405180910390fd5b6000600f600083815260200190815260200160002060003373ffffffffffffffffffffffffffffffffffffffff1673ffffffffffffffffffffffffffffffffffffffff1681526020019081526020016000205411151561178b576040517f08c379a00000000000000000000000000000000000000000000000000000000081526004018080602001828103825260138152602001807f6e6f7468696e6720746f2077697468647261770000000000000000000000000081525060200191505060405180910390fd5b6000600f600083815260200190815260200160002060003373ffffffffffffffffffffffffffffffffffffffff1673ffffffffffffffffffffffffffffffffffffffff1681526020019081526020016000205490506000600f600084815260200190815260200160002060003373ffffffffffffffffffffffffffffffffffffffff1673ffffffffffffffffffffffffffffffffffffffff16815260200190815260200160002081905550600760029054906101000a900473ffffffffffffffffffffffffffffffffffffffff1673ffffffffffffffffffffffffffffffffffffffff1663a9059cbb33836040518363ffffffff167c0100000000000000000000000000000000000000000000000000000000028152600401808373ffffffffffffffffffffffffffffffffffffffff1673ffffffffffffffffffffffffffffffffffffffff16815260200182815260200192505050602060405180830381600087803b1580156118fb57600080fd5b505af115801561190f573d6000803e3d6000fd5b505050506040513d602081101561192557600080fd5b8101908080519060200190929190505050505050565b600b60009054906101000a900473ffffffffffffffffffffffffffffffffffffffff1681565b60011515600760009054906101000a900460ff1615151415156119ec576040517f08c379a000000000000000000000000000000000000000000000000000000000815260040180806020018281038252601c8152602001807f636f6e7472616374206e6f742079657420696e697469616c697a65640000000081525060200191505060405180910390fd5b60011515600760019054906101000a900460ff161515141515611a5a576040517f08c379a00000000000000000000000000000000000000000000000000000000081526004018080602001828103825260218152602001806158d56021913960400191505060405180910390fd5b60001515600960009054906101000a900473ffffffffffffffffffffffffffffffffffffffff1673ffffffffffffffffffffffffffffffffffffffff16635c975abb6040518163ffffffff167c0100000000000000000000000000000000000000000000000000000000028152600401602060405180830381600087803b158015611ae457600080fd5b505af1158015611af8573d6000803e3d6000fd5b505050506040513d6020811015611b0e57600080fd5b81019080805190602001909291905050501515141515611b96576040517f08c379a00000000000000000000000000000000000000000000000000000000081526004018080602001828103825260128152602001807f636f6e747261637420697320706175736564000000000000000000000000000081525060200191505060405180910390fd5b611b9e613c6c565b6000600e54111515611c18576040517f08c379a00000000000000000000000000000000000000000000000000000000081526004018080602001828103825260158152602001807f746865726520617265206e6f2061756374696f6e73000000000000000000000081525060200191505060405180910390fd5b600082829050111515611c93576040517f08c379a00000000000000000000000000000000000000000000000000000000081526004018080602001828103825260188152602001807f61756374696f6e496473206c69737420697320656d707479000000000000000081525060200191505060405180910390fd5b600e548282905011151515611cf3576040517f08c379a00000000000000000000000000000000000000000000000000000000081526004018080602001828103825260268152602001806157ae6026913960400191505060405180910390fd5b600080905060008090505b83839050811015611fee5760008484838181101515611d1957fe5b905060200201359050600081118015611d345750600e548111155b1515611da8576040517f08c379a00000000000000000000000000000000000000000000000000000000081526004018080602001828103825260188152602001807f61756374696f6e496420646f6573206e6f74206578697374000000000000000081525060200191505060405180910390fd5b600180811115611db457fe5b6006600083815260200190815260200160002060020160009054906101000a900460ff166001811115611de357fe5b141515611e3b576040517f08c379a00000000000000000000000000000000000000000000000000000000081526004018080602001828103825260248152602001806158b16024913960400191505060405180910390fd5b3373ffffffffffffffffffffffffffffffffffffffff166006600083815260200190815260200160002060020160019054906101000a900473ffffffffffffffffffffffffffffffffffffffff1673ffffffffffffffffffffffffffffffffffffffff1614151515611f15576040517f08c379a000000000000000000000000000000000000000000000000000000000815260040180806020018281038252601f8152602001807f61756374696f6e2077696e6e65722063616e206e6f742077697468647261770081525060200191505060405180910390fd5b6000600f600083815260200190815260200160002060003373ffffffffffffffffffffffffffffffffffffffff1673ffffffffffffffffffffffffffffffffffffffff1681526020019081526020016000205490506000811115611fdf576000600f600084815260200190815260200160002060003373ffffffffffffffffffffffffffffffffffffffff1673ffffffffffffffffffffffffffffffffffffffff16815260200190815260200160002081905550611fdc8185613d5390919063ffffffff16565b93505b50508080600101915050611cfe565b50600081111515612067576040517f08c379a00000000000000000000000000000000000000000000000000000000081526004018080602001828103825260138152602001807f6e6f7468696e6720746f2077697468647261770000000000000000000000000081525060200191505060405180910390fd5b600760029054906101000a900473ffffffffffffffffffffffffffffffffffffffff1673ffffffffffffffffffffffffffffffffffffffff1663a9059cbb33836040518363ffffffff167c0100000000000000000000000000000000000000000000000000000000028152600401808373ffffffffffffffffffffffffffffffffffffffff1673ffffffffffffffffffffffffffffffffffffffff16815260200182815260200192505050602060405180830381600087803b15801561212c57600080fd5b505af1158015612140573d6000803e3d6000fd5b505050506040513d602081101561215657600080fd5b810190808051906020019092919050505050505050565b60008060008060008061217e6156d8565b600660008981526020019081526020016000206080604051908101604052908160008201548152602001600182015481526020016002820160009054906101000a900460ff1660018111156121cf57fe5b60018111156121da57fe5b81526020016002820160019054906101000a900473ffffffffffffffffffffffffffffffffffffffff1673ffffffffffffffffffffffffffffffffffffffff1673ffffffffffffffffffffffffffffffffffffffff168152505090506000600f60008a81526020019081526020016000206000836060015173ffffffffffffffffffffffffffffffffffffffff1673ffffffffffffffffffffffffffffffffffffffff1681526020019081526020016000205490506000600181111561229c57fe5b826040015160018111156122ac57fe5b14801561230c57506000800160009054906101000a900473ffffffffffffffffffffffffffffffffffffffff1673ffffffffffffffffffffffffffffffffffffffff16826060015173ffffffffffffffffffffffffffffffffffffffff16145b1561232c5761232960006002015482613d5390919063ffffffff16565b90505b888260400151600181111561233d57fe5b83600001518460200151856060015185975097509750975097509750505091939550919395565b600a60009054906101000a900473ffffffffffffffffffffffffffffffffffffffff1681565b60011515600760009054906101000a900460ff161515141515612415576040517f08c379a000000000000000000000000000000000000000000000000000000000815260040180806020018281038252601c8152602001807f636f6e7472616374206e6f742079657420696e697469616c697a65640000000081525060200191505060405180910390fd5b60011515600760019054906101000a900460ff161515141515612483576040517f08c379a00000000000000000000000000000000000000000000000000000000081526004018080602001828103825260218152602001806158d56021913960400191505060405180910390fd5b60001515600960009054906101000a900473ffffffffffffffffffffffffffffffffffffffff1673ffffffffffffffffffffffffffffffffffffffff16635c975abb6040518163ffffffff167c0100000000000000000000000000000000000000000000000000000000028152600401602060405180830381600087803b15801561250d57600080fd5b505af1158015612521573d6000803e3d6000fd5b505050506040513d602081101561253757600080fd5b810190808051906020019092919050505015151415156125bf576040517f08c379a00000000000000000000000000000000000000000000000000000000081526004018080602001828103825260128152602001807f636f6e747261637420697320706175736564000000000000000000000000000081525060200191505060405180910390fd5b6125c7613c6c565b6000800160009054906101000a900473ffffffffffffffffffffffffffffffffffffffff1673ffffffffffffffffffffffffffffffffffffffff163373ffffffffffffffffffffffffffffffffffffffff1614151561268e576040517f08c379a00000000000000000000000000000000000000000000000000000000081526004018080602001828103825260178152602001807f63616c6c6572206973206e6f74207a6f6e656f776e657200000000000000000081525060200191505060405180910390fd5b6000600e5414806126d957506001808111156126a657fe5b60066000600e54815260200190815260200160002060020160009054906101000a900460ff1660018111156126d757fe5b145b1515612730576040517f08c379a00000000000000000000000000000000000000000000000000000000081526004018080602001828103825260248152602001806157d46024913960400191505060405180910390fd5b600080600301549050612741613d74565b600760029054906101000a900473ffffffffffffffffffffffffffffffffffffffff1673ffffffffffffffffffffffffffffffffffffffff1663a9059cbb33836040518363ffffffff167c0100000000000000000000000000000000000000000000000000000000028152600401808373ffffffffffffffffffffffffffffffffffffffff1673ffffffffffffffffffffffffffffffffffffffff16815260200182815260200192505050602060405180830381600087803b15801561280657600080fd5b505af115801561281a573d6000803e3d6000fd5b505050506040513d602081101561283057600080fd5b81019080805190602001909291905050505050565b6000806000806000806000800160009054906101000a900473ffffffffffffffffffffffffffffffffffffffff16600060010154600060020154600060030154600060040154600060050154955095509550955095509550909192939495565b60008060000160009054906101000a900473ffffffffffffffffffffffffffffffffffffffff16905090565b60011515600760009054906101000a900460ff16151514151561295c576040517f08c379a000000000000000000000000000000000000000000000000000000000815260040180806020018281038252601c8152602001807f636f6e7472616374206e6f742079657420696e697469616c697a65640000000081525060200191505060405180910390fd5b60011515600760019054906101000a900460ff1615151415156129ca576040517f08c379a00000000000000000000000000000000000000000000000000000000081526004018080602001828103825260218152602001806158d56021913960400191505060405180910390fd5b6129d2613c6c565b6000600d60003373ffffffffffffffffffffffffffffffffffffffff1673ffffffffffffffffffffffffffffffffffffffff168152602001908152602001600020549050600081111515612a8e576040517f08c379a00000000000000000000000000000000000000000000000000000000081526004018080602001828103825260138152602001807f6e6f7468696e6720746f2077697468647261770000000000000000000000000081525060200191505060405180910390fd5b6000811115612b24576000600d60003373ffffffffffffffffffffffffffffffffffffffff1673ffffffffffffffffffffffffffffffffffffffff168152602001908152602001600020819055503373ffffffffffffffffffffffffffffffffffffffff166108fc829081150290604051600060405180830381858888f19350505050158015612b22573d6000803e3d6000fd5b505b50565b60008282604051602001808378ffffffffffffffffffffffffffffffffffffffffffffffffff191678ffffffffffffffffffffffffffffffffffffffffffffffffff191681526007018273ffffffffffffffffffffffffffffffffffffffff1673ffffffffffffffffffffffffffffffffffffffff166c010000000000000000000000000281526014019250505060405160208183030381529060405280519060200120905092915050565b60011515600760009054906101000a900460ff161515141515612c5e576040517f08c379a000000000000000000000000000000000000000000000000000000000815260040180806020018281038252601c8152602001807f636f6e7472616374206e6f742079657420696e697469616c697a65640000000081525060200191505060405180910390fd5b60011515600760019054906101000a900460ff161515141515612ccc576040517f08c379a00000000000000000000000000000000000000000000000000000000081526004018080602001828103825260218152602001806158d56021913960400191505060405180910390fd5b60001515600960009054906101000a900473ffffffffffffffffffffffffffffffffffffffff1673ffffffffffffffffffffffffffffffffffffffff16635c975abb6040518163ffffffff167c0100000000000000000000000000000000000000000000000000000000028152600401602060405180830381600087803b158015612d5657600080fd5b505af1158015612d6a573d6000803e3d6000fd5b505050506040513d6020811015612d8057600080fd5b81019080805190602001909291905050501515141515612e08576040517f08c379a00000000000000000000000000000000000000000000000000000000081526004018080602001828103825260128152602001807f636f6e747261637420697320706175736564000000000000000000000000000081525060200191505060405180910390fd5b600860009054906101000a900473ffffffffffffffffffffffffffffffffffffffff1673ffffffffffffffffffffffffffffffffffffffff16630dc210aa600b60149054906101000a90047e01000000000000000000000000000000000000000000000000000000000000026040518263ffffffff167c010000000000000000000000000000000000000000000000000000000002815260040180827dffffffffffffffffffffffffffffffffffffffffffffffffffffffffffff19167dffffffffffffffffffffffffffffffffffffffffffffffffffffffffffff1916815260200191505060206040518083038186803b158015612f0657600080fd5b505afa158015612f1a573d6000803e3d6000fd5b505050506040513d6020811015612f3057600080fd5b81019080805190602001909291905050501515612fb5576040517f08c379a00000000000000000000000000000000000000000000000000000000081526004018080602001828103825260138152602001807f636f756e7472792069732064697361626c65640000000000000000000000000081525060200191505060405180910390fd5b600760029054906101000a900473ffffffffffffffffffffffffffffffffffffffff1673ffffffffffffffffffffffffffffffffffffffff163373ffffffffffffffffffffffffffffffffffffffff1614151561305d576040517f08c379a00000000000000000000000000000000000000000000000000000000081526004018080602001828103825260228152602001806157f86022913960400191505060405180910390fd5b600061306a826000614031565b905060407f0100000000000000000000000000000000000000000000000000000000000000027effffffffffffffffffffffffffffffffffffffffffffffffffffffffffffff1916817effffffffffffffffffffffffffffffffffffffffffffffffffffffffffffff19161480613147575060417f0100000000000000000000000000000000000000000000000000000000000000027effffffffffffffffffffffffffffffffffffffffffffffffffffffffffffff1916817effffffffffffffffffffffffffffffffffffffffffffffffffffffffffffff1916145b806131b8575060427f0100000000000000000000000000000000000000000000000000000000000000027effffffffffffffffffffffffffffffffffffffffffffffffffffffffffffff1916817effffffffffffffffffffffffffffffffffffffffffffffffffffffffffffff1916145b80613229575060437f0100000000000000000000000000000000000000000000000000000000000000027effffffffffffffffffffffffffffffffffffffffffffffffffffffffffffff1916817effffffffffffffffffffffffffffffffffffffffffffffffffffffffffffff1916145b151561329d576040517f08c379a000000000000000000000000000000000000000000000000000000000815260040180806020018281038252601b8152602001807f646964206e6f74206d61746368205a6f6e652066756e6374696f6e000000000081525060200191505060405180910390fd5b60407f0100000000000000000000000000000000000000000000000000000000000000027effffffffffffffffffffffffffffffffffffffffffffffffffffffffffffff1916817effffffffffffffffffffffffffffffffffffffffffffffffffffffffffffff191614156133125750613494565b61331a613c6c565b60417f0100000000000000000000000000000000000000000000000000000000000000027effffffffffffffffffffffffffffffffffffffffffffffffffffffffffffff1916817effffffffffffffffffffffffffffffffffffffffffffffffffffffffffffff191614156133985761339384846140c4565b613492565b60427f0100000000000000000000000000000000000000000000000000000000000000027effffffffffffffffffffffffffffffffffffffffffffffffffffffffffffff1916817effffffffffffffffffffffffffffffffffffffffffffffffffffffffffffff19161415613416576134118484614269565b613491565b60437f0100000000000000000000000000000000000000000000000000000000000000027effffffffffffffffffffffffffffffffffffffffffffffffffffffffffffff1916817effffffffffffffffffffffffffffffffffffffffffffffffffffffffffffff191614156134905761348f84846144ea565b5b5b5b505b505050565b60011515600760009054906101000a900460ff161515141515613524576040517f08c379a000000000000000000000000000000000000000000000000000000000815260040180806020018281038252601c8152602001807f636f6e7472616374206e6f742079657420696e697469616c697a65640000000081525060200191505060405180910390fd5b60011515600760019054906101000a900460ff161515141515613592576040517f08c379a00000000000000000000000000000000000000000000000000000000081526004018080602001828103825260218152602001806158d56021913960400191505060405180910390fd5b61359a613c6c565b6000600c60003373ffffffffffffffffffffffffffffffffffffffff1673ffffffffffffffffffffffffffffffffffffffff168152602001908152602001600020549050600081111515613656576040517f08c379a00000000000000000000000000000000000000000000000000000000081526004018080602001828103825260138152602001807f6e6f7468696e6720746f2077697468647261770000000000000000000000000081525060200191505060405180910390fd5b60008111156137a6576000600c60003373ffffffffffffffffffffffffffffffffffffffff1673ffffffffffffffffffffffffffffffffffffffff16815260200190815260200160002081905550600760029054906101000a900473ffffffffffffffffffffffffffffffffffffffff1673ffffffffffffffffffffffffffffffffffffffff1663a9059cbb33836040518363ffffffff167c0100000000000000000000000000000000000000000000000000000000028152600401808373ffffffffffffffffffffffffffffffffffffffff1673ffffffffffffffffffffffffffffffffffffffff16815260200182815260200192505050602060405180830381600087803b15801561376957600080fd5b505af115801561377d573d6000803e3d6000fd5b505050506040513d602081101561379357600080fd5b8101908080519060200190929190505050505b50565b68056bc75e2d6310000081565b60011515600760009054906101000a900460ff161515141515613841576040517f08c379a000000000000000000000000000000000000000000000000000000000815260040180806020018281038252601c8152602001807f636f6e7472616374206e6f742079657420696e697469616c697a65640000000081525060200191505060405180910390fd5b60011515600760019054906101000a900460ff1615151415156138af576040517f08c379a00000000000000000000000000000000000000000000000000000000081526004018080602001828103825260218152602001806158d56021913960400191505060405180910390fd5b600b60009054906101000a900473ffffffffffffffffffffffffffffffffffffffff1673ffffffffffffffffffffffffffffffffffffffff163373ffffffffffffffffffffffffffffffffffffffff16141515613957576040517f08c379a00000000000000000000000000000000000000000000000000000000081526004018080602001828103825260258152602001806158f66025913960400191505060405180910390fd5b600a60009054906101000a900473ffffffffffffffffffffffffffffffffffffffff1673ffffffffffffffffffffffffffffffffffffffff1663be9b64d4600b60149054906101000a90047e01000000000000000000000000000000000000000000000000000000000000026000800160009054906101000a900473ffffffffffffffffffffffffffffffffffffffff1685856040518563ffffffff167c010000000000000000000000000000000000000000000000000000000002815260040180857dffffffffffffffffffffffffffffffffffffffffffffffffffffffffffff19167dffffffffffffffffffffffffffffffffffffffffffffffffffffffffffff191681526020018473ffffffffffffffffffffffffffffffffffffffff1673ffffffffffffffffffffffffffffffffffffffff1681526020018373ffffffffffffffffffffffffffffffffffffffff1673ffffffffffffffffffffffffffffffffffffffff168152602001828152602001945050505050600060405180830381600087803b158015613aeb57600080fd5b505af1158015613aff573d6000803e3d6000fd5b505050505050565b600b60149054906101000a90047e010000000000000000000000000000000000000000000000000000000000000281565b600960009054906101000a900473ffffffffffffffffffffffffffffffffffffffff1681565b600860009054906101000a900473ffffffffffffffffffffffffffffffffffffffff1681565b600d6020528060005260406000206000915090505481565b600080613bc66001613bb8606486613c4290919063ffffffff16565b613c0490919063ffffffff16565b9150613bdb8284613be290919063ffffffff16565b9050915091565b6000828211151515613bf357600080fd5b600082840390508091505092915050565b600080831415613c175760009050613c3c565b60008284029050828482811515613c2a57fe5b04141515613c3757600080fd5b809150505b92915050565b60008082111515613c5257600080fd5b60008284811515613c5f57fe5b0490508091505092915050565b6000600e54118015613cb9575060006001811115613c8657fe5b60066000600e54815260200190815260200160002060020160009054906101000a900460ff166001811115613cb757fe5b145b15613ced5760066000600e5481526020019081526020016000206001015442101515613ce857613ce761474c565b5b613d51565b600073ffffffffffffffffffffffffffffffffffffffff166000800160009054906101000a900473ffffffffffffffffffffffffffffffffffffffff1673ffffffffffffffffffffffffffffffffffffffff16141515613d5057613d4f6149d5565b5b5b565b6000808284019050838110151515613d6a57600080fd5b8091505092915050565b613def600060030154600c60008060000160009054906101000a900473ffffffffffffffffffffffffffffffffffffffff1673ffffffffffffffffffffffffffffffffffffffff1673ffffffffffffffffffffffffffffffffffffffff16815260200190815260200160002054613d5390919063ffffffff16565b600c60008060000160009054906101000a900473ffffffffffffffffffffffffffffffffffffffff1673ffffffffffffffffffffffffffffffffffffffff1673ffffffffffffffffffffffffffffffffffffffff16815260200190815260200160002081905550600b60009054906101000a900473ffffffffffffffffffffffffffffffffffffffff1673ffffffffffffffffffffffffffffffffffffffff16639e1e61606040518163ffffffff167c010000000000000000000000000000000000000000000000000000000002815260040160206040518083038186803b158015613eda57600080fd5b505afa158015613eee573d6000803e3d6000fd5b505050506040513d6020811015613f0457600080fd5b810190808051906020019092919050505015613fb957600b60009054906101000a900473ffffffffffffffffffffffffffffffffffffffff1673ffffffffffffffffffffffffffffffffffffffff1663b030b1f76040518163ffffffff167c0100000000000000000000000000000000000000000000000000000000028152600401600060405180830381600087803b158015613fa057600080fd5b505af1158015613fb4573d6000803e3d6000fd5b505050505b60008060000160006101000a81548173ffffffffffffffffffffffffffffffffffffffff021916908373ffffffffffffffffffffffffffffffffffffffff1602179055506000806001018190555060008060020181905550600080600301819055506000806004018190555060008060050181905550565b6000600182018351101515156140af576040517f08c379a00000000000000000000000000000000000000000000000000000000081526004018080602001828103825260108152602001807f206e6f74206c6f6e6720656e6f7567680000000000000000000000000000000081525060200191505060405180910390fd5b60008260208501015190508091505092915050565b600073ffffffffffffffffffffffffffffffffffffffff166000800160009054906101000a900473ffffffffffffffffffffffffffffffffffffffff1673ffffffffffffffffffffffffffffffffffffffff1614151561418c576040517f08c379a000000000000000000000000000000000000000000000000000000000815260040180806020018281038252601d8152602001807f63616e206e6f7420636c61696d207a6f6e652077697468206f776e657200000081525060200191505060405180910390fd5b68056bc75e2d6310000081101515156141f0576040517f08c379a00000000000000000000000000000000000000000000000000000000081526004018080602001828103825260318152602001806157236031913960400191505060405180910390fd5b816000800160006101000a81548173ffffffffffffffffffffffffffffffffffffffff021916908373ffffffffffffffffffffffffffffffffffffffff16021790555042600060010181905550806000600201819055508060006003018190555042600060040181905550600080600501819055505050565b600073ffffffffffffffffffffffffffffffffffffffff166000800160009054906101000a900473ffffffffffffffffffffffffffffffffffffffff1673ffffffffffffffffffffffffffffffffffffffff1614151515614332576040517f08c379a00000000000000000000000000000000000000000000000000000000081526004018080602001828103825260118152602001807f7a6f6e6520686173206e6f206f776e657200000000000000000000000000000081525060200191505060405180910390fd5b6000600e5411801561437f57506000600181111561434c57fe5b60066000600e54815260200190815260200160002060020160009054906101000a900460ff16600181111561437d57fe5b145b156143935761438e8282614c84565b6144e6565b600080600501541415614436576143bb6202a300600060010154613d5390919063ffffffff16565b42111515614431576040517f08c379a000000000000000000000000000000000000000000000000000000000815260040180806020018281038252601f8152602001807f636f6f6c646f776e20706572696f6420646964206e6f7420656e64207965740081525060200191505060405180910390fd5b6144db565b6144646202a30060066000600e54815260200190815260200160002060010154613d5390919063ffffffff16565b421115156144da576040517f08c379a000000000000000000000000000000000000000000000000000000000815260040180806020018281038252601f8152602001807f636f6f6c646f776e20706572696f6420646964206e6f7420656e64207965740081525060200191505060405180910390fd5b5b6144e58282615347565b5b5050565b600073ffffffffffffffffffffffffffffffffffffffff166000800160009054906101000a900473ffffffffffffffffffffffffffffffffffffffff1673ffffffffffffffffffffffffffffffffffffffff16141515156145b3576040517f08c379a00000000000000000000000000000000000000000000000000000000081526004018080602001828103825260118152602001807f7a6f6e6520686173206e6f206f776e657200000000000000000000000000000081525060200191505060405180910390fd5b6000800160009054906101000a900473ffffffffffffffffffffffffffffffffffffffff1673ffffffffffffffffffffffffffffffffffffffff168273ffffffffffffffffffffffffffffffffffffffff1614151561467a576040517f08c379a00000000000000000000000000000000000000000000000000000000081526004018080602001828103825260178152602001807f63616c6c6572206973206e6f74207a6f6e656f776e657200000000000000000081525060200191505060405180910390fd5b6000600e5414806146c5575060018081111561469257fe5b60066000600e54815260200190815260200160002060020160009054906101000a900460ff1660018111156146c357fe5b145b151561471c576040517f08c379a000000000000000000000000000000000000000000000000000000000815260040180806020018281038252602381526020018061591b6023913960400191505060405180910390fd5b600080600301549050600061473a8383613d5390919063ffffffff16565b90508060006003018190555050505050565b600060066000600e548152602001908152602001600020905060018160020160006101000a81548160ff0219169083600181111561478657fe5b02179055506000600f6000600e54815260200190815260200160002060008360020160019054906101000a900473ffffffffffffffffffffffffffffffffffffffff1673ffffffffffffffffffffffffffffffffffffffff1673ffffffffffffffffffffffffffffffffffffffff168152602001908152602001600020549050600060066000600e5481526020019081526020016000206001015490508260020160019054906101000a900473ffffffffffffffffffffffffffffffffffffffff1673ffffffffffffffffffffffffffffffffffffffff166000800160009054906101000a900473ffffffffffffffffffffffffffffffffffffffff1673ffffffffffffffffffffffffffffffffffffffff1614156148f2576148b782600060020154613d5390919063ffffffff16565b6000600201819055506148d882600060030154613d5390919063ffffffff16565b600060030181905550600e5460006005018190555061498c565b6148fa613d74565b8260020160019054906101000a900473ffffffffffffffffffffffffffffffffffffffff166000800160006101000a81548173ffffffffffffffffffffffffffffffffffffffff021916908373ffffffffffffffffffffffffffffffffffffffff160217905550806000600101819055508160006002018190555081600060030181905550600e546000600501819055505b60008061499f8342600060020154610cca565b915091506149bb82600060030154613be290919063ffffffff16565b600060030181905550426000600401819055505050505050565b426000600401541015156149e857614c82565b600080614a0060006004015442600060020154610cca565b9150915060006003015482101515614b3e57600080600301549050614a23613d74565b600760029054906101000a900473ffffffffffffffffffffffffffffffffffffffff1673ffffffffffffffffffffffffffffffffffffffff1663a9059cbb73ffffffffffffffffffffffffffffffffffffffff836040518363ffffffff167c0100000000000000000000000000000000000000000000000000000000028152600401808373ffffffffffffffffffffffffffffffffffffffff1673ffffffffffffffffffffffffffffffffffffffff16815260200182815260200192505050602060405180830381600087803b158015614afc57600080fd5b505af1158015614b10573d6000803e3d6000fd5b505050506040513d6020811015614b2657600080fd5b81019080805190602001909291905050505050614c7f565b614b5682600060030154613be290919063ffffffff16565b60006003018190555042600060040181905550600760029054906101000a900473ffffffffffffffffffffffffffffffffffffffff1673ffffffffffffffffffffffffffffffffffffffff1663a9059cbb73ffffffffffffffffffffffffffffffffffffffff846040518363ffffffff167c0100000000000000000000000000000000000000000000000000000000028152600401808373ffffffffffffffffffffffffffffffffffffffff1673ffffffffffffffffffffffffffffffffffffffff16815260200182815260200192505050602060405180830381600087803b158015614c4257600080fd5b505af1158015614c56573d6000803e3d6000fd5b505050506040513d6020811015614c6c57600080fd5b8101908080519060200190929190505050505b50505b565b600060066000600e54815260200190815260200160002090508060020160019054906101000a900473ffffffffffffffffffffffffffffffffffffffff1673ffffffffffffffffffffffffffffffffffffffff168373ffffffffffffffffffffffffffffffffffffffff1614151515614d65576040517f08c379a00000000000000000000000000000000000000000000000000000000081526004018080602001828103825260198152602001807f68696768657374206269646465722063616e6e6f74206269640000000000000081525060200191505060405180910390fd5b6000600f6000600e54815260200190815260200160002060008360020160019054906101000a900473ffffffffffffffffffffffffffffffffffffffff1673ffffffffffffffffffffffffffffffffffffffff1673ffffffffffffffffffffffffffffffffffffffff1681526020019081526020016000205490506000800160009054906101000a900473ffffffffffffffffffffffffffffffffffffffff1673ffffffffffffffffffffffffffffffffffffffff168473ffffffffffffffffffffffffffffffffffffffff161415614f6f576000614e9f84600f6000600e54815260200190815260200160002060008873ffffffffffffffffffffffffffffffffffffffff1673ffffffffffffffffffffffffffffffffffffffff16815260200190815260200160002054613d5390919063ffffffff16565b905081614eba82600060020154613d5390919063ffffffff16565b111515614f12576040517f08c379a00000000000000000000000000000000000000000000000000000000081526004018080602001828103825260318152602001806158806031913960400191505060405180910390fd5b80600f6000600e54815260200190815260200160002060008773ffffffffffffffffffffffffffffffffffffffff1673ffffffffffffffffffffffffffffffffffffffff16815260200190815260200160002081905550506152fe565b6000600f6000600e54815260200190815260200160002060008673ffffffffffffffffffffffffffffffffffffffff1673ffffffffffffffffffffffffffffffffffffffff1681526020019081526020016000205414156151c457600080614fd685613b9c565b915091508281111515615051576040517f08c379a00000000000000000000000000000000000000000000000000000000081526004018080602001828103825260208152602001807f626964206973206c657373207468616e2063757272656e74206869676865737481525060200191505060405180910390fd5b80600f6000600e54815260200190815260200160002060008873ffffffffffffffffffffffffffffffffffffffff1673ffffffffffffffffffffffffffffffffffffffff16815260200190815260200160002081905550600760029054906101000a900473ffffffffffffffffffffffffffffffffffffffff1673ffffffffffffffffffffffffffffffffffffffff1663a9059cbb73ffffffffffffffffffffffffffffffffffffffff846040518363ffffffff167c0100000000000000000000000000000000000000000000000000000000028152600401808373ffffffffffffffffffffffffffffffffffffffff1673ffffffffffffffffffffffffffffffffffffffff16815260200182815260200192505050602060405180830381600087803b15801561518157600080fd5b505af1158015615195573d6000803e3d6000fd5b505050506040513d60208110156151ab57600080fd5b81019080805190602001909291905050505050506152fd565b600061522b84600f6000600e54815260200190815260200160002060008873ffffffffffffffffffffffffffffffffffffffff1673ffffffffffffffffffffffffffffffffffffffff16815260200190815260200160002054613d5390919063ffffffff16565b905081811115156152a4576040517f08c379a00000000000000000000000000000000000000000000000000000000081526004018080602001828103825260208152602001807f626964206973206c657373207468616e2063757272656e74206869676865737481525060200191505060405180910390fd5b80600f6000600e54815260200190815260200160002060008773ffffffffffffffffffffffffffffffffffffffff1673ffffffffffffffffffffffffffffffffffffffff16815260200190815260200160002081905550505b5b838260020160016101000a81548173ffffffffffffffffffffffffffffffffffffffff021916908373ffffffffffffffffffffffffffffffffffffffff16021790555050505050565b6000800160009054906101000a900473ffffffffffffffffffffffffffffffffffffffff1673ffffffffffffffffffffffffffffffffffffffff168273ffffffffffffffffffffffffffffffffffffffff16141515156153f2576040517f08c379a000000000000000000000000000000000000000000000000000000000815260040180806020018281038252602181526020018061583b6021913960400191505060405180910390fd5b6000806153fe83613b9c565b9150915060006002015481111515615461576040517f08c379a000000000000000000000000000000000000000000000000000000000815260040180806020018281038252602481526020018061585c6024913960400191505060405180910390fd5b6000600e60008154600101919050819055905060806040519081016040528042815260200161549c6201518042613d5390919063ffffffff16565b8152602001600060018111156154ae57fe5b81526020018673ffffffffffffffffffffffffffffffffffffffff1681525060066000838152602001908152602001600020600082015181600001556020820151816001015560408201518160020160006101000a81548160ff0219169083600181111561551857fe5b021790555060608201518160020160016101000a81548173ffffffffffffffffffffffffffffffffffffffff021916908373ffffffffffffffffffffffffffffffffffffffff16021790555090505081600f600083815260200190815260200160002060008773ffffffffffffffffffffffffffffffffffffffff1673ffffffffffffffffffffffffffffffffffffffff16815260200190815260200160002081905550600760029054906101000a900473ffffffffffffffffffffffffffffffffffffffff1673ffffffffffffffffffffffffffffffffffffffff1663a9059cbb73ffffffffffffffffffffffffffffffffffffffff856040518363ffffffff167c0100000000000000000000000000000000000000000000000000000000028152600401808373ffffffffffffffffffffffffffffffffffffffff1673ffffffffffffffffffffffffffffffffffffffff16815260200182815260200192505050602060405180830381600087803b15801561569557600080fd5b505af11580156156a9573d6000803e3d6000fd5b505050506040513d60208110156156bf57600080fd5b8101908080519060200190929190505050505050505050565b6080604051908101604052806000815260200160008152602001600060018111156156ff57fe5b8152602001600073ffffffffffffffffffffffffffffffffffffffff168152509056fe6e656564206174206c65617374206d696e696d756d207a6f6e65207374616b6520616d6f756e742028313030204454482963616e6e6f74207769746864726177207768696c652061756374696f6e206973206163746976657a6f6e6520647468207374616b652073686f756c6c64206265206174206c65617374206d696e696d756d20283130304454482961756374696f6e496473206c697374206973206c6f6e676572207468616e20616c6c6f77656463616e6e6f742072656c65617365207768696c652061756374696f6e2072756e6e696e6763616e206f6e6c792062652063616c6c65642062792064746820636f6e747261637474656c6c657220636f6e747261637420616c726561647920636f6e6e65637465647a6f6e656f776e65722063616e6e6f7420737461727420616e2061756374696f6e626964206973206c6f776572207468616e2063757272656e74207a6f6e65207374616b65626964202b20616c7265616479207374616b6564206973206c657373207468616e2063757272656e74206869676865737463616e6e6f742077697468647261772066726f6d2072756e6e696e672061756374696f6e74656c6c657220636f6e7472616374206e6f742079657420636f6e6e656374656463616e206f6e6c792062652063616c6c65642062792074656c6c657220636f6e747261637463616e6e6f7420746f70207570207768696c652061756374696f6e2072756e6e696e67a165627a7a7230582033df3d0fc4a1281c4cd0c80b2a6605ac6b78210ef34eb0a158168df8970eea240029",
  "source": "pragma solidity ^0.5.3;\n\nimport \"openzeppelin-solidity/contracts/math/SafeMath.sol\";\n\nimport \"../dth/ERC223ReceivingContract.sol\";\nimport \"../dth/IDetherToken.sol\";// TODO: replace with zeppelin ERC20 abstract contract?\nimport \"../core/IControl.sol\";\nimport \"./IGeoRegistry.sol\";\nimport \"./IZoneFactory.sol\";\nimport \"./IZone.sol\";\nimport \"./ITeller.sol\";\n\ncontract Zone is ERC223ReceivingContract {\n  // ------------------------------------------------\n  //\n  // Library init\n  //\n  // ------------------------------------------------\n\n  using SafeMath for uint;\n\n  // ------------------------------------------------\n  //\n  // Enums\n  //\n  // ------------------------------------------------\n\n  enum AuctionState { Started, Ended }\n\n  // ------------------------------------------------\n  //\n  // Structs\n  //\n  // ------------------------------------------------\n\n  // NOTE:\n  // evm will convert to uint256 when doing calculations, so 1 time higher storage cost\n  // will be less than all the increased gas costs if we were to use smaller uints in the struct\n\n  struct ZoneOwner {\n    address addr;\n    uint startTime;\n    uint staked;\n    uint balance;\n    uint lastTaxTime;\n    uint auctionId;\n  }\n\n  struct Auction {\n    // since we do a lot of calcuations with these uints, it's best to leave them uint256\n    // evm will convert to uint256 anyways when doing calculations\n    uint startTime;\n    uint endTime;\n    AuctionState state;\n    address highestBidder;\n  }\n\n  // ------------------------------------------------\n  //\n  // Variables Private\n  //\n  // ------------------------------------------------\n\n  uint public constant MIN_STAKE = 100 * 1 ether; // DTH, which is also 18 decimals!\n  uint private constant BID_PERIOD = 24 * 1 hours;\n  uint private constant COOLDOWN_PERIOD = 48 * 1 hours;\n  uint private constant ENTRY_FEE_PERCENTAGE = 1; // 1%\n  uint private constant TAX_PERCENTAGE = 1; // 1%\n  uint private constant REFERRER_FEE_PERCENTAGE = 1; // 0.1%\n  address private constant ADDRESS_BURN = 0xFFfFfFffFFfffFFfFFfFFFFFffFFFffffFfFFFfF;\n\n  ZoneOwner private zoneOwner;\n\n  mapping(uint => Auction) private auctionIdToAuction;\n\n  // ------------------------------------------------\n  //\n  // Variables Public\n  //\n  // ------------------------------------------------\n\n  bool private inited;\n  bool private tellerConnected;\n\n  IDetherToken public dth;\n  IGeoRegistry public geo;\n  IControl public control;\n  IZoneFactory public zoneFactory;\n  ITeller public teller;\n\n  bytes2 public country;\n  bytes7 public geohash;\n\n  mapping(address => uint) public withdrawableDth;\n  mapping(address => uint) public withdrawableEth;\n\n  uint public currentAuctionId; // starts at 0, first auction will get id 1, etc.\n\n  //      auctionId       bidder     dthAmount\n  mapping(uint => mapping(address => uint)) public auctionBids;\n\n  // ------------------------------------------------\n  //\n  // Events\n  //\n  // ------------------------------------------------\n\n  // TODO\n\n  // ------------------------------------------------\n  //\n  // Modifiers\n  //\n  // ------------------------------------------------\n\n  modifier onlyWhenInited() {\n    require(inited == true, \"contract not yet initialized\");\n    _;\n  }\n  modifier onlyWhenNotInited() {\n    require(inited == false, \"contract already initialized\");\n    _;\n  }\n\n  modifier onlyWhenTellerConnected() {\n    require(tellerConnected == true, \"teller contract not yet connected\");\n    _;\n  }\n  modifier onlyWhenTellerNotConnected() {\n    require(tellerConnected == false, \"teller contract already connected\");\n    _;\n  }\n\n  modifier onlyWhenNotPaused {\n    require(control.paused() == false, \"contract is paused\");\n    _;\n  }\n\n  modifier onlyWhenCountryEnabled {\n    require(geo.countryIsEnabled(country), \"country is disabled\");\n    _;\n  }\n\n  modifier updateState {\n    _processState();\n    _;\n  }\n\n  modifier onlyWhenZoneHasOwner {\n    require(zoneOwner.addr != address(0), \"zone has no owner\");\n    _;\n  }\n\n  modifier onlyWhenCallerIsNotZoneOwner {\n    require(msg.sender != zoneOwner.addr, \"can not be called by zoneowner\");\n    _;\n  }\n\n  modifier onlyWhenCallerIsZoneOwner {\n    require(msg.sender == zoneOwner.addr, \"caller is not zoneowner\");\n    _;\n  }\n\n  modifier onlyByTellerContract {\n    require(msg.sender == address(teller), \"can only be called by teller contract\");\n    _;\n  }\n\n  modifier onlyWhenZoneHasNoOwner {\n    require(zoneOwner.addr == address(0), \"can not claim zone with owner\");\n    _;\n  }\n\n  // ------------------------------------------------\n  //\n  // Constructor\n  //\n  // ------------------------------------------------\n\n  // executed by ZoneFactory.sol when this Zone does not yet exist (= not yet deployed)\n  function init(\n    bytes2 _countryCode,\n    bytes7 _geohash,\n    address _zoneOwner,\n    uint _dthAmount,\n    address _dth,\n    address _geo,\n    address _control,\n    address _zoneFactory\n  )\n    onlyWhenNotInited\n    external\n  {\n    require(_dthAmount >= MIN_STAKE, \"zone dth stake shoulld be at least minimum (100DTH)\");\n\n    country = _countryCode;\n    geohash = _geohash;\n\n    dth = IDetherToken(_dth);\n    geo = IGeoRegistry(_geo);\n    control = IControl(_control);\n    zoneFactory = IZoneFactory(_zoneFactory);\n\n    zoneOwner.addr = _zoneOwner;\n    zoneOwner.startTime = now;\n    zoneOwner.staked = _dthAmount;\n    zoneOwner.balance = _dthAmount;\n    zoneOwner.lastTaxTime = now;\n    zoneOwner.auctionId = 0; // was not gained by winning an auction\n\n    inited = true;\n  }\n\n  function connectToTellerContract(address _teller)\n    onlyWhenInited\n    onlyWhenTellerNotConnected\n    external\n  {\n    teller = ITeller(_teller);\n\n    tellerConnected = true;\n  }\n\n  // ------------------------------------------------\n  //\n  // Functions Getters Public\n  //\n  // ------------------------------------------------\n\n  function ownerAddr()\n    external view\n    returns (address)\n  {\n    return zoneOwner.addr;\n  }\n\n  function computeCSC(bytes7 _geohash, address _addr)\n    public\n    pure\n    returns (bytes12)\n  {\n    return bytes12(keccak256(abi.encodePacked(_geohash, _addr)));\n  }\n\n  function calcHarbergerTax(uint _startTime, uint _endTime, uint _dthAmount)\n    public\n    view\n    returns (uint taxAmount, uint keepAmount)\n  {\n    // TODO use smaller uint variables, hereby preventing under/overflows, so no need for SafeMath\n    // source: https://programtheblockchain.com/posts/2018/09/19/implementing-harberger-tax-deeds/\n    taxAmount = _dthAmount.mul(_endTime.sub(_startTime)).mul(TAX_PERCENTAGE).div(100).div(1 days);\n    keepAmount = _dthAmount.sub(taxAmount);\n  }\n\n  function calcEntryFee(uint _value)\n    public\n    view\n    returns (uint burnAmount, uint bidAmount)\n  {\n    burnAmount = _value.div(100).mul(ENTRY_FEE_PERCENTAGE); // 1%\n    bidAmount = _value.sub(burnAmount); // 99%\n  }\n\n  function auctionExists(uint _auctionId)\n    external\n    view\n    returns (bool)\n  {\n    // if aucton does not exist we should get back zero, otherwise this field\n    // will contain a block.timestamp, set whe creating an Auction, in constructor() and bid()\n    return auctionIdToAuction[_auctionId].startTime > 0;\n  }\n\n  /// @notice get current zone owner data\n  function getZoneOwner()\n    external\n    view\n    returns (address, uint, uint, uint, uint, uint)\n  {\n    return (\n      zoneOwner.addr,        // address of current owner\n      zoneOwner.startTime,   // time this address became owner\n      zoneOwner.staked,      // \"price you sell at\"\n      zoneOwner.balance,     // will decrease whenever harberger taxes are paid\n      zoneOwner.lastTaxTime, // time until taxes have been paid\n      zoneOwner.auctionId    // if gained by winning auction, the auction id, otherwise zero\n    );\n  }\n\n  /// @notice get a specific auction\n  function getAuction(uint _auctionId)\n    public\n    view\n    returns (uint, uint, uint, uint, address, uint)\n  {\n    Auction memory auction = auctionIdToAuction[_auctionId];\n\n    uint highestBid = auctionBids[_auctionId][auction.highestBidder];\n\n    // for current zone owner his existing zone stake is added to his bid\n    if (auction.state == AuctionState.Started &&\n        auction.highestBidder == zoneOwner.addr)\n    {\n      highestBid = highestBid.add(zoneOwner.staked);\n    }\n\n    return (\n      _auctionId,\n      uint(auction.state),\n      auction.startTime,\n      auction.endTime,\n      auction.highestBidder,\n      highestBid\n    );\n  }\n\n  /// @notice get the last auction\n  function getLastAuction()\n    external view\n    returns (uint, uint, uint, uint, address, uint)\n  {\n    return getAuction(currentAuctionId);\n  }\n\n  // ------------------------------------------------\n  //\n  // Functions Getters Private\n  //\n  // ------------------------------------------------\n\n  function toBytes1(bytes memory _bytes, uint _start)\n    private pure\n    returns (bytes1) {\n      require(_bytes.length >= (_start + 1), \" not long enough\");\n      bytes1 tempBytes1;\n\n      assembly {\n          tempBytes1 := mload(add(add(_bytes, 0x20), _start))\n      }\n\n      return tempBytes1;\n  }\n  function toBytes7(bytes memory _bytes, uint _start)\n    private pure\n    returns (bytes7) {\n      require(_bytes.length >= (_start + 7), \" not long enough\");\n      bytes7 tempBytes7;\n\n      assembly {\n          tempBytes7 := mload(add(add(_bytes, 0x20), _start))\n      }\n\n      return tempBytes7;\n  }\n  function toBytes12(bytes memory _bytes, uint _start)\n    private pure\n    returns (bytes12) {\n      require(_bytes.length >= (_start + 12), \" not long enough\");\n      bytes12 tempBytes12;\n\n      assembly {\n          tempBytes12 := mload(add(add(_bytes, 0x20), _start))\n      }\n\n      return tempBytes12;\n  }\n\n  // ------------------------------------------------\n  //\n  // Functions Setters Private\n  //\n  // ------------------------------------------------\n\n  function _removeZoneOwner()\n    private\n  {\n    withdrawableDth[zoneOwner.addr] = withdrawableDth[zoneOwner.addr].add(zoneOwner.balance);\n\n    if (teller.hasTeller()) {\n      teller.removeTellerByZone();\n    }\n\n    zoneOwner.addr = address(0);\n    zoneOwner.startTime = 0;\n    zoneOwner.staked = 0;\n    zoneOwner.balance = 0;\n    zoneOwner.lastTaxTime = 0;\n    zoneOwner.auctionId = 0;\n  }\n\n  function _handleTaxPayment()\n    private\n  {\n    // processState ensured that: no running auction + there is a zone owner\n\n    if (zoneOwner.lastTaxTime >= now) {\n      return; // short-circuit: multiple txes in 1 block OR many blocks but in same Auction\n    }\n\n    (uint taxAmount, uint keepAmount) = calcHarbergerTax(zoneOwner.lastTaxTime, now, zoneOwner.staked);\n\n    if (taxAmount >= zoneOwner.balance) {\n      // zone owner does not have enough balance, remove him as zone owner\n      uint oldZoneOwnerBalance = zoneOwner.balance;\n      _removeZoneOwner();\n      dth.transfer(ADDRESS_BURN, oldZoneOwnerBalance);\n    } else {\n      // zone owner can pay due taxes\n      zoneOwner.balance = zoneOwner.balance.sub(taxAmount);\n      zoneOwner.lastTaxTime = now;\n      dth.transfer(ADDRESS_BURN, taxAmount);\n    }\n  }\n\n  function _endAuction()\n    private\n  {\n    Auction storage lastAuction = auctionIdToAuction[currentAuctionId];\n\n    lastAuction.state = AuctionState.Ended;\n\n    uint highestBid = auctionBids[currentAuctionId][lastAuction.highestBidder];\n    uint auctionEndTime = auctionIdToAuction[currentAuctionId].endTime;\n\n    if (zoneOwner.addr == lastAuction.highestBidder) {\n      // current zone owner won the auction, extend his zone ownershp\n      zoneOwner.staked = zoneOwner.staked.add(highestBid);\n      zoneOwner.balance = zoneOwner.balance.add(highestBid);\n\n      // need to set it since it might've been zero\n      zoneOwner.auctionId = currentAuctionId; // the (last) auctionId that gave the zoneOwner zone ownership\n    } else {\n      // we need to update the zone owner\n      _removeZoneOwner();\n\n      zoneOwner.addr = lastAuction.highestBidder;\n      zoneOwner.startTime = auctionEndTime;\n      zoneOwner.staked = highestBid; // entry fee is already deducted when user calls bid()\n      zoneOwner.balance = highestBid;\n      zoneOwner.auctionId = currentAuctionId; // the auctionId that gave the zoneOwner zone ownership\n    }\n\n    // (new) zone owner needs to pay taxes from the moment he acquires zone ownership until now\n    (uint taxAmount, uint keepAmount) = calcHarbergerTax(auctionEndTime, now, zoneOwner.staked);\n    zoneOwner.balance = zoneOwner.balance.sub(taxAmount);\n    zoneOwner.lastTaxTime = now;\n  }\n\n  function processState()\n    external\n    onlyByTellerContract\n  {\n    _processState();\n  }\n\n  /// @notice private function to update the current auction state\n  function _processState()\n    private\n  {\n    if (currentAuctionId > 0 && auctionIdToAuction[currentAuctionId].state == AuctionState.Started) {\n      // while uaction is running, no taxes need to be paid\n\n      // handling of taxes around change of zone ownership are handled inside _endAuction\n      if (now >= auctionIdToAuction[currentAuctionId].endTime) _endAuction();\n    } else { // no running auction, currentAuctionId could be zero\n      if (zoneOwner.addr != address(0)) _handleTaxPayment();\n    }\n  }\n\n  function _joinAuction(address _sender, uint _dthAmount)\n    private\n  {\n    Auction storage lastAuction = auctionIdToAuction[currentAuctionId];\n\n    //------------------------------------------------------------------------------//\n    // there is a running auction, lets see if we can join the auction with our bid //\n    //------------------------------------------------------------------------------//\n\n    require(_sender != lastAuction.highestBidder, \"highest bidder cannot bid\");\n\n    uint currentHighestBid = auctionBids[currentAuctionId][lastAuction.highestBidder];\n\n    if (_sender == zoneOwner.addr) {\n      uint dthAddedBidsAmount = auctionBids[currentAuctionId][_sender].add(_dthAmount); // NOTE: _dthAmount\n      // the current zone owner's stake also counts in his bid\n      require(zoneOwner.staked.add(dthAddedBidsAmount) > currentHighestBid, \"bid + already staked is less than current highest\");\n      auctionBids[currentAuctionId][_sender] = dthAddedBidsAmount;\n    } else {\n      // _sender is not the current zone owner\n      if (auctionBids[currentAuctionId][_sender] == 0) {\n        // this is the first bid of this challenger, deduct entry fee\n        (uint burnAmount, uint bidAmount) = calcEntryFee(_dthAmount);\n        require(bidAmount > currentHighestBid, \"bid is less than current highest\");\n        auctionBids[currentAuctionId][_sender] = bidAmount;\n        dth.transfer(ADDRESS_BURN, burnAmount);\n      } else {\n        // not the first bid, no entry fee\n        uint newUserTotalBid = auctionBids[currentAuctionId][_sender].add(_dthAmount);\n        require(newUserTotalBid > currentHighestBid, \"bid is less than current highest\");\n        auctionBids[currentAuctionId][_sender] = newUserTotalBid;\n      }\n    }\n\n    // it worked, _sender placed a bid\n    lastAuction.highestBidder = _sender;\n  }\n\n  function _createAuction(address _sender, uint _dthAmount)\n    private\n  {\n    require(_sender != zoneOwner.addr, \"zoneowner cannot start an auction\");\n\n    (uint burnAmount, uint bidAmount) = calcEntryFee(_dthAmount);\n    require(bidAmount > zoneOwner.staked, \"bid is lower than current zone stake\");\n\n    // save the new Auction\n    uint newAuctionId = ++currentAuctionId;\n\n    auctionIdToAuction[newAuctionId] = Auction({\n      state: AuctionState.Started,\n      startTime: now,\n      endTime: now.add(BID_PERIOD),\n      highestBidder: _sender // caller (challenger)\n    });\n\n    auctionBids[newAuctionId][_sender] = bidAmount;\n\n    dth.transfer(ADDRESS_BURN, burnAmount);\n  }\n\n  /// @notice private function to update the current auction state\n  function _bid(address _sender, uint _dthAmount) // GAS COST +/- 223.689\n    private\n    onlyWhenZoneHasOwner\n  {\n    if (currentAuctionId > 0 && auctionIdToAuction[currentAuctionId].state == AuctionState.Started) {\n      _joinAuction(_sender, _dthAmount);\n    } else { // there currently is no running auction\n      if (zoneOwner.auctionId == 0) {\n        // current zone owner did not become owner by winning an auction, but by creating this zone or caliming it when it was free\n        require(now > zoneOwner.startTime.add(COOLDOWN_PERIOD), \"cooldown period did not end yet\");\n      } else {\n        // current zone owner became owner by winning an auction (which has ended)\n        require(now > auctionIdToAuction[currentAuctionId].endTime.add(COOLDOWN_PERIOD), \"cooldown period did not end yet\");\n      }\n      _createAuction(_sender, _dthAmount);\n    }\n  }\n\n  function _claimFreeZone(address _sender, uint _dthAmount) // GAS COSt +/- 177.040\n    private\n    onlyWhenZoneHasNoOwner\n  {\n    require(_dthAmount >= MIN_STAKE, \"need at least minimum zone stake amount (100 DTH)\");\n\n    // NOTE: empty zone claim will not have entry fee deducted, its not bidding it's taking immediately\n    zoneOwner.addr = _sender;\n    zoneOwner.startTime = now;\n    zoneOwner.staked = _dthAmount;\n    zoneOwner.balance = _dthAmount;\n    zoneOwner.lastTaxTime = now;\n    zoneOwner.auctionId = 0; // since it was not gained wby winning an auction\n  }\n\n  function _topUp(address _sender, uint _dthAmount) // GAS COST +/- 104.201\n    private\n    onlyWhenZoneHasOwner\n  {\n    require(_sender == zoneOwner.addr, \"caller is not zoneowner\");\n    require(currentAuctionId == 0 || auctionIdToAuction[currentAuctionId].state == AuctionState.Ended, \"cannot top up while auction running\");\n\n    uint oldBalance = zoneOwner.balance;\n    uint newBalance = oldBalance.add(_dthAmount);\n    zoneOwner.balance = newBalance;\n\n    // a zone owner can currently keep calling this to increase his dth balance inside the zone\n    // without a change in his sell price (= zone.staked) or tax amount he needs to pay\n    //\n    // TODO:\n    // - should we also increse his dth stake when he tops up his dth balance?\n    // - or should we limit his max topup to make his balance not bigger\n    //   than his zone.staked amount (over which he pays taxes), or maybe not more than 10% above his zone.staked\n  }\n\n  // ------------------------------------------------\n  //\n  // Functions Setters Public\n  //\n  // ------------------------------------------------\n\n  /// @notice ERC223 receiving function called by Dth contract when Eth is sent to this contract\n  /// @param _from Who send DTH to this contract\n  /// @param _value How much DTH was sent to this contract\n  /// @param _data Additional bytes data sent\n  function tokenFallback(address _from, uint _value, bytes memory _data)\n    public\n    onlyWhenInited\n    onlyWhenTellerConnected\n    onlyWhenNotPaused\n    onlyWhenCountryEnabled\n  {\n    require(msg.sender == address(dth), \"can only be called by dth contract\");\n\n    bytes1 func = toBytes1(_data, 0);\n\n    require(func == bytes1(0x40) || func == bytes1(0x41) || func == bytes1(0x42) || func == bytes1(0x43), \"did not match Zone function\");\n\n    if (func == bytes1(0x40)) { // zone was created by factory, sending through DTH\n      return; // just retun success\n    }\n\n    _processState();\n\n    if (func == bytes1(0x41)) { // claimFreeZone\n      _claimFreeZone(_from, _value);\n    } else if (func == bytes1(0x42)) { // bid\n      _bid(_from, _value);\n    } else if (func == bytes1(0x43)) { // topUp\n      _topUp(_from, _value);\n    }\n  }\n\n  /// @notice release zone ownership\n  /// @dev can only be called by current zone owner, when there is no running auction\n  function release() // GAS COST +/- 72.351\n    external\n    onlyWhenInited\n    onlyWhenTellerConnected\n    onlyWhenNotPaused\n    updateState\n    onlyWhenCallerIsZoneOwner\n  {\n    // allow also when country is disabled, otherwise no way for zone owner to get their eth/dth back\n\n    require(currentAuctionId == 0 || auctionIdToAuction[currentAuctionId].state == AuctionState.Ended, \"cannot release while auction running\");\n\n    uint ownerBalance = zoneOwner.balance;\n\n    _removeZoneOwner();\n\n    // if msg.sender is a contract, the DTH ERC223 contract will try to call tokenFallback\n    // on msg.sender, this could lead to a reentrancy. But we prevent this by resetting\n    // zoneOwner before we do dth.transfer(msg.sender)\n    dth.transfer(msg.sender, ownerBalance);\n  }\n\n  // offer three different withdraw functions, single auction, multiple auctions, all auctions\n\n  /// @notice withdraw losing bids from a specific auction\n  /// @param _auctionId The auction id\n  function withdrawFromAuction(uint _auctionId) // GAS COST +/- 125.070\n    external\n    onlyWhenInited\n    onlyWhenTellerConnected\n    onlyWhenNotPaused\n    updateState\n  {\n    // even when country is disabled, otherwise users cannot withdraw their bids\n    require(_auctionId > 0 && _auctionId <= currentAuctionId, \"auctionId does not exist\");\n\n    require(auctionIdToAuction[_auctionId].state == AuctionState.Ended, \"cannot withdraw while auction is active\");\n    require(auctionIdToAuction[_auctionId].highestBidder != msg.sender, \"auction winner can not withdraw\");\n    require(auctionBids[_auctionId][msg.sender] > 0, \"nothing to withdraw\");\n\n    uint withdrawAmount = auctionBids[_auctionId][msg.sender];\n    auctionBids[_auctionId][msg.sender] = 0;\n\n    dth.transfer(msg.sender, withdrawAmount);\n  }\n\n  /// @notice withdraw from a given list of auction ids\n  function withdrawFromAuctions(uint[] calldata _auctionIds) // GAS COST +/- 127.070\n    external\n    onlyWhenInited\n    onlyWhenTellerConnected\n    onlyWhenNotPaused\n    updateState\n  {\n    // even when country is disabled, can withdraw\n    require(currentAuctionId > 0, \"there are no auctions\");\n\n    require(_auctionIds.length > 0, \"auctionIds list is empty\");\n    require(_auctionIds.length <= currentAuctionId, \"auctionIds list is longer than allowed\");\n\n    uint withdrawAmountTotal = 0;\n\n    for (uint idx = 0; idx < _auctionIds.length; idx++) {\n      uint auctionId = _auctionIds[idx];\n      require(auctionId > 0 && auctionId <= currentAuctionId, \"auctionId does not exist\");\n      require(auctionIdToAuction[auctionId].state == AuctionState.Ended, \"cannot withdraw from running auction\");\n      require(auctionIdToAuction[auctionId].highestBidder != msg.sender, \"auction winner can not withdraw\");\n      uint withdrawAmount = auctionBids[auctionId][msg.sender];\n      if (withdrawAmount > 0) {\n        // if user supplies the same auctionId multiple times in auctionIds,\n        // only the first one will get a withdrawal amount\n        auctionBids[auctionId][msg.sender] = 0;\n        withdrawAmountTotal = withdrawAmountTotal.add(withdrawAmount);\n      }\n    }\n\n    require(withdrawAmountTotal > 0, \"nothing to withdraw\");\n\n    dth.transfer(msg.sender, withdrawAmountTotal);\n  }\n\n  // - bids in past auctions\n  // - zone owner stake\n  function withdrawDth()\n    external\n    onlyWhenInited\n    onlyWhenTellerConnected\n    updateState\n  {\n    uint dthWithdraw = withdrawableDth[msg.sender];\n    require(dthWithdraw > 0, \"nothing to withdraw\");\n\n    if (dthWithdraw > 0) {\n      withdrawableDth[msg.sender] = 0;\n      dth.transfer(msg.sender, dthWithdraw);\n    }\n  }\n\n  function withdrawEth()\n    external\n    onlyWhenInited\n    onlyWhenTellerConnected\n    updateState\n  {\n    uint ethWithdraw = withdrawableEth[msg.sender];\n    require(ethWithdraw > 0, \"nothing to withdraw\");\n\n    if (ethWithdraw > 0) {\n      withdrawableEth[msg.sender] = 0;\n      msg.sender.transfer(ethWithdraw);\n    }\n  }\n\n  // teller --> zone --> zonefactory --> users\n  function proxyUpdateUserDailySold(address _to, uint _amount)\n    external\n    onlyWhenInited\n    onlyWhenTellerConnected\n    onlyByTellerContract\n  {\n    zoneFactory.proxyUpdateUserDailySold(country, zoneOwner.addr, _to, _amount); // MIGHT THROW if exceeds daily limit\n  }\n}\n",
  "sourcePath": "/Users/trip/Projects/detherContracts/contracts/map/Zone.sol",
  "compiler": {
    "name": "solc",
    "version": "0.5.3+commit.10d17f24.Emscripten.clang"
  },
  "schemaVersion": "3.0.1",
  "updatedAt": "2019-02-11T00:01:36.309Z",
  "devdoc": {
    "methods": {
      "release()": {
        "details": "can only be called by current zone owner, when there is no running auction"
      },
      "tokenFallback(address,uint256,bytes)": {
        "params": {
          "_data": "Additional bytes data sent",
          "_from": "Who send DTH to this contract",
          "_value": "How much DTH was sent to this contract"
        }
      },
      "withdrawFromAuction(uint256)": {
        "params": {
          "_auctionId": "The auction id"
        }
      }
    }
  },
  "userdoc": {
    "methods": {
      "getAuction(uint256)": {
        "notice": "get a specific auction"
      },
      "getLastAuction()": {
        "notice": "get the last auction"
      },
      "getZoneOwner()": {
        "notice": "get current zone owner data"
      },
      "release()": {
        "notice": "release zone ownership"
      },
      "tokenFallback(address,uint256,bytes)": {
        "notice": "ERC223 receiving function called by Dth contract when Eth is sent to this contract"
      },
      "withdrawFromAuction(uint256)": {
        "notice": "withdraw losing bids from a specific auction"
      },
      "withdrawFromAuctions(uint256[])": {
        "notice": "withdraw from a given list of auction ids"
      }
    }
  }
}