{
  "contractName": "ZoneFactory",
  "abi": [
    {
      "constant": true,
      "inputs": [],
      "name": "dth",
      "outputs": [
        {
          "name": "",
          "type": "address"
        }
      ],
      "payable": false,
      "stateMutability": "view",
      "type": "function",
      "signature": "0x01e57a37"
    },
    {
      "constant": true,
      "inputs": [
        {
          "name": "",
          "type": "address"
        }
      ],
      "name": "zoneToGeohash",
      "outputs": [
        {
          "name": "",
          "type": "bytes6"
        }
      ],
      "payable": false,
      "stateMutability": "view",
      "type": "function",
      "signature": "0x13f54caa"
    },
    {
      "constant": false,
      "inputs": [],
      "name": "renounceOwnership",
      "outputs": [],
      "payable": false,
      "stateMutability": "nonpayable",
      "type": "function",
      "signature": "0x715018a6"
    },
    {
      "constant": true,
      "inputs": [],
      "name": "owner",
      "outputs": [
        {
          "name": "",
          "type": "address"
        }
      ],
      "payable": false,
      "stateMutability": "view",
      "type": "function",
      "signature": "0x8da5cb5b"
    },
    {
      "constant": true,
      "inputs": [],
      "name": "isOwner",
      "outputs": [
        {
          "name": "",
          "type": "bool"
        }
      ],
      "payable": false,
      "stateMutability": "view",
      "type": "function",
      "signature": "0x8f32d59b"
    },
    {
      "constant": true,
      "inputs": [
        {
          "name": "",
          "type": "bytes6"
        }
      ],
      "name": "geohashToZone",
      "outputs": [
        {
          "name": "",
          "type": "address"
        }
      ],
      "payable": false,
      "stateMutability": "view",
      "type": "function",
      "signature": "0x93d33a33"
    },
    {
      "constant": true,
      "inputs": [],
      "name": "zoneImplementation",
      "outputs": [
        {
          "name": "",
          "type": "address"
        }
      ],
      "payable": false,
      "stateMutability": "view",
      "type": "function",
      "signature": "0xab292266"
    },
    {
      "constant": true,
      "inputs": [],
      "name": "tellerImplementation",
      "outputs": [
        {
          "name": "",
          "type": "address"
        }
      ],
      "payable": false,
      "stateMutability": "view",
      "type": "function",
      "signature": "0xb238895c"
    },
    {
      "constant": true,
      "inputs": [],
      "name": "control",
      "outputs": [
        {
          "name": "",
          "type": "address"
        }
      ],
      "payable": false,
      "stateMutability": "view",
      "type": "function",
      "signature": "0xd8de6587"
    },
    {
      "constant": true,
      "inputs": [],
      "name": "geo",
      "outputs": [
        {
          "name": "",
          "type": "address"
        }
      ],
      "payable": false,
      "stateMutability": "view",
      "type": "function",
      "signature": "0xd944e6a3"
    },
    {
      "constant": true,
      "inputs": [],
      "name": "users",
      "outputs": [
        {
          "name": "",
          "type": "address"
        }
      ],
      "payable": false,
      "stateMutability": "view",
      "type": "function",
      "signature": "0xf2020275"
    },
    {
      "constant": false,
      "inputs": [
        {
          "name": "newOwner",
          "type": "address"
        }
      ],
      "name": "transferOwnership",
      "outputs": [],
      "payable": false,
      "stateMutability": "nonpayable",
      "type": "function",
      "signature": "0xf2fde38b"
    },
    {
      "inputs": [
        {
          "name": "_dth",
          "type": "address"
        },
        {
          "name": "_geo",
          "type": "address"
        },
        {
          "name": "_users",
          "type": "address"
        },
        {
          "name": "_control",
          "type": "address"
        },
        {
          "name": "_zoneImplementation",
          "type": "address"
        },
        {
          "name": "_tellerImplementation",
          "type": "address"
        }
      ],
      "payable": false,
      "stateMutability": "nonpayable",
      "type": "constructor",
      "signature": "constructor"
    },
    {
      "anonymous": false,
      "inputs": [
        {
          "indexed": true,
          "name": "previousOwner",
          "type": "address"
        },
        {
          "indexed": true,
          "name": "newOwner",
          "type": "address"
        }
      ],
      "name": "OwnershipTransferred",
      "type": "event",
      "signature": "0x8be0079c531659141344cd1fd0a4f28419497f9722a3daafe3b4186f6b6457e0"
    },
    {
      "constant": true,
      "inputs": [
        {
          "name": "_geohash",
          "type": "bytes6"
        }
      ],
      "name": "zoneExists",
      "outputs": [
        {
          "name": "",
          "type": "bool"
        }
      ],
      "payable": false,
      "stateMutability": "view",
      "type": "function",
      "signature": "0xa588761d"
    },
    {
      "constant": false,
      "inputs": [
        {
          "name": "_countryCode",
          "type": "bytes2"
        },
        {
          "name": "_from",
          "type": "address"
        },
        {
          "name": "_to",
          "type": "address"
        },
        {
          "name": "_amount",
          "type": "uint256"
        }
      ],
      "name": "proxyUpdateUserDailySold",
      "outputs": [],
      "payable": false,
      "stateMutability": "nonpayable",
      "type": "function",
      "signature": "0xbe9b64d4"
    },
    {
      "constant": false,
      "inputs": [
        {
          "name": "_from",
          "type": "address"
        },
        {
          "name": "_value",
          "type": "uint256"
        },
        {
          "name": "_data",
          "type": "bytes"
        }
      ],
      "name": "tokenFallback",
      "outputs": [],
      "payable": false,
      "stateMutability": "nonpayable",
      "type": "function",
      "signature": "0xc0ee0b8a"
    }
  ],
  "bytecode": "0x60806040523480156200001157600080fd5b5060405160c080620026fd833981018060405260c08110156200003357600080fd5b81019080805190602001909291908051906020019092919080519060200190929190805190602001909291908051906020019092919080519060200190929190505050336000806101000a81548173ffffffffffffffffffffffffffffffffffffffff021916908373ffffffffffffffffffffffffffffffffffffffff1602179055506000809054906101000a900473ffffffffffffffffffffffffffffffffffffffff1673ffffffffffffffffffffffffffffffffffffffff16600073ffffffffffffffffffffffffffffffffffffffff167f8be0079c531659141344cd1fd0a4f28419497f9722a3daafe3b4186f6b6457e060405160405180910390a3600073ffffffffffffffffffffffffffffffffffffffff168673ffffffffffffffffffffffffffffffffffffffff1614151515620001d8576040517f08c379a00000000000000000000000000000000000000000000000000000000081526004018080602001828103825260198152602001807f64746820616464726573732063616e6e6f74206265203078300000000000000081525060200191505060405180910390fd5b600073ffffffffffffffffffffffffffffffffffffffff168573ffffffffffffffffffffffffffffffffffffffff16141515156200027e576040517f08c379a00000000000000000000000000000000000000000000000000000000081526004018080602001828103825260198152602001807f67656f20616464726573732063616e6e6f74206265203078300000000000000081525060200191505060405180910390fd5b600073ffffffffffffffffffffffffffffffffffffffff168473ffffffffffffffffffffffffffffffffffffffff161415151562000324576040517f08c379a000000000000000000000000000000000000000000000000000000000815260040180806020018281038252601b8152602001807f757365727320616464726573732063616e6e6f7420626520307830000000000081525060200191505060405180910390fd5b600073ffffffffffffffffffffffffffffffffffffffff168373ffffffffffffffffffffffffffffffffffffffff1614151515620003ca576040517f08c379a000000000000000000000000000000000000000000000000000000000815260040180806020018281038252601d8152602001807f636f6e74726f6c20616464726573732063616e6e6f742062652030783000000081525060200191505060405180910390fd5b600073ffffffffffffffffffffffffffffffffffffffff168273ffffffffffffffffffffffffffffffffffffffff161415151562000454576040517f08c379a0000000000000000000000000000000000000000000000000000000008152600401808060200182810382526028815260200180620026ab6028913960400191505060405180910390fd5b600073ffffffffffffffffffffffffffffffffffffffff168173ffffffffffffffffffffffffffffffffffffffff1614151515620004de576040517f08c379a000000000000000000000000000000000000000000000000000000000815260040180806020018281038252602a815260200180620026d3602a913960400191505060405180910390fd5b85600360006101000a81548173ffffffffffffffffffffffffffffffffffffffff021916908373ffffffffffffffffffffffffffffffffffffffff16021790555084600460006101000a81548173ffffffffffffffffffffffffffffffffffffffff021916908373ffffffffffffffffffffffffffffffffffffffff16021790555083600560006101000a81548173ffffffffffffffffffffffffffffffffffffffff021916908373ffffffffffffffffffffffffffffffffffffffff16021790555082600660006101000a81548173ffffffffffffffffffffffffffffffffffffffff021916908373ffffffffffffffffffffffffffffffffffffffff16021790555081600760006101000a81548173ffffffffffffffffffffffffffffffffffffffff021916908373ffffffffffffffffffffffffffffffffffffffff16021790555080600860006101000a81548173ffffffffffffffffffffffffffffffffffffffff021916908373ffffffffffffffffffffffffffffffffffffffff160217905550505050505050612031806200067a6000396000f3fe608060405234801561001057600080fd5b5060043610610112576000357c010000000000000000000000000000000000000000000000000000000090048063ab292266116100b4578063d8de658711610083578063d8de658714610569578063d944e6a3146105b3578063f2020275146105fd578063f2fde38b1461064757610112565b8063ab29226614610357578063b238895c146103a1578063be9b64d4146103eb578063c0ee0b8a1461048457610112565b80638da5cb5b116100f05780638da5cb5b146101fd5780638f32d59b1461024757806393d33a3314610269578063a588761d146102f457610112565b806301e57a371461011757806313f54caa14610161578063715018a6146101f3575b600080fd5b61011f61068b565b604051808273ffffffffffffffffffffffffffffffffffffffff1673ffffffffffffffffffffffffffffffffffffffff16815260200191505060405180910390f35b6101a36004803603602081101561017757600080fd5b81019080803573ffffffffffffffffffffffffffffffffffffffff1690602001909291905050506106b1565b604051808279ffffffffffffffffffffffffffffffffffffffffffffffffffff191679ffffffffffffffffffffffffffffffffffffffffffffffffffff1916815260200191505060405180910390f35b6101fb6106eb565b005b6102056107bd565b604051808273ffffffffffffffffffffffffffffffffffffffff1673ffffffffffffffffffffffffffffffffffffffff16815260200191505060405180910390f35b61024f6107e6565b604051808215151515815260200191505060405180910390f35b6102b26004803603602081101561027f57600080fd5b81019080803579ffffffffffffffffffffffffffffffffffffffffffffffffffff1916906020019092919050505061083d565b604051808273ffffffffffffffffffffffffffffffffffffffff1673ffffffffffffffffffffffffffffffffffffffff16815260200191505060405180910390f35b61033d6004803603602081101561030a57600080fd5b81019080803579ffffffffffffffffffffffffffffffffffffffffffffffffffff19169060200190929190505050610870565b604051808215151515815260200191505060405180910390f35b61035f610916565b604051808273ffffffffffffffffffffffffffffffffffffffff1673ffffffffffffffffffffffffffffffffffffffff16815260200191505060405180910390f35b6103a961093c565b604051808273ffffffffffffffffffffffffffffffffffffffff1673ffffffffffffffffffffffffffffffffffffffff16815260200191505060405180910390f35b6104826004803603608081101561040157600080fd5b8101908080357dffffffffffffffffffffffffffffffffffffffffffffffffffffffffffff19169060200190929190803573ffffffffffffffffffffffffffffffffffffffff169060200190929190803573ffffffffffffffffffffffffffffffffffffffff16906020019092919080359060200190929190505050610962565b005b6105676004803603606081101561049a57600080fd5b81019080803573ffffffffffffffffffffffffffffffffffffffff16906020019092919080359060200190929190803590602001906401000000008111156104e157600080fd5b8201836020820111156104f357600080fd5b8035906020019184600183028401116401000000008311171561051557600080fd5b91908080601f016020809104026020016040519081016040528093929190818152602001838380828437600081840152601f19601f820116905080830192505050505050509192919290505050610bdc565b005b610571611bb0565b604051808273ffffffffffffffffffffffffffffffffffffffff1673ffffffffffffffffffffffffffffffffffffffff16815260200191505060405180910390f35b6105bb611bd6565b604051808273ffffffffffffffffffffffffffffffffffffffff1673ffffffffffffffffffffffffffffffffffffffff16815260200191505060405180910390f35b610605611bfc565b604051808273ffffffffffffffffffffffffffffffffffffffff1673ffffffffffffffffffffffffffffffffffffffff16815260200191505060405180910390f35b6106896004803603602081101561065d57600080fd5b81019080803573ffffffffffffffffffffffffffffffffffffffff169060200190929190505050611c22565b005b600360009054906101000a900473ffffffffffffffffffffffffffffffffffffffff1681565b60026020528060005260406000206000915054906101000a90047a0100000000000000000000000000000000000000000000000000000281565b6106f36107e6565b15156106fe57600080fd5b600073ffffffffffffffffffffffffffffffffffffffff166000809054906101000a900473ffffffffffffffffffffffffffffffffffffffff1673ffffffffffffffffffffffffffffffffffffffff167f8be0079c531659141344cd1fd0a4f28419497f9722a3daafe3b4186f6b6457e060405160405180910390a360008060006101000a81548173ffffffffffffffffffffffffffffffffffffffff021916908373ffffffffffffffffffffffffffffffffffffffff160217905550565b60008060009054906101000a900473ffffffffffffffffffffffffffffffffffffffff16905090565b60008060009054906101000a900473ffffffffffffffffffffffffffffffffffffffff1673ffffffffffffffffffffffffffffffffffffffff163373ffffffffffffffffffffffffffffffffffffffff1614905090565b60016020528060005260406000206000915054906101000a900473ffffffffffffffffffffffffffffffffffffffff1681565b60008073ffffffffffffffffffffffffffffffffffffffff16600160008479ffffffffffffffffffffffffffffffffffffffffffffffffffff191679ffffffffffffffffffffffffffffffffffffffffffffffffffff1916815260200190815260200160002060009054906101000a900473ffffffffffffffffffffffffffffffffffffffff1673ffffffffffffffffffffffffffffffffffffffff1614159050919050565b600760009054906101000a900473ffffffffffffffffffffffffffffffffffffffff1681565b600860009054906101000a900473ffffffffffffffffffffffffffffffffffffffff1681565b60007a0100000000000000000000000000000000000000000000000000000279ffffffffffffffffffffffffffffffffffffffffffffffffffff1916600260003373ffffffffffffffffffffffffffffffffffffffff1673ffffffffffffffffffffffffffffffffffffffff16815260200190815260200160002060009054906101000a90047a0100000000000000000000000000000000000000000000000000000279ffffffffffffffffffffffffffffffffffffffffffffffffffff191614151515610a7b576040517f08c379a0000000000000000000000000000000000000000000000000000000008152600401808060200182810382526027815260200180611fdf6027913960400191505060405180910390fd5b600560009054906101000a900473ffffffffffffffffffffffffffffffffffffffff1673ffffffffffffffffffffffffffffffffffffffff1663fb89df53858585856040518563ffffffff167c010000000000000000000000000000000000000000000000000000000002815260040180857dffffffffffffffffffffffffffffffffffffffffffffffffffffffffffff19167dffffffffffffffffffffffffffffffffffffffffffffffffffffffffffff191681526020018473ffffffffffffffffffffffffffffffffffffffff1673ffffffffffffffffffffffffffffffffffffffff1681526020018373ffffffffffffffffffffffffffffffffffffffff1673ffffffffffffffffffffffffffffffffffffffff168152602001828152602001945050505050600060405180830381600087803b158015610bbe57600080fd5b505af1158015610bd2573d6000803e3d6000fd5b5050505050505050565b600360009054906101000a900473ffffffffffffffffffffffffffffffffffffffff1673ffffffffffffffffffffffffffffffffffffffff163373ffffffffffffffffffffffffffffffffffffffff16141515610c84576040517f08c379a0000000000000000000000000000000000000000000000000000000008152600401808060200182810382526022815260200180611f6b6022913960400191505060405180910390fd5b60001515600660009054906101000a900473ffffffffffffffffffffffffffffffffffffffff1673ffffffffffffffffffffffffffffffffffffffff16635c975abb6040518163ffffffff167c010000000000000000000000000000000000000000000000000000000002815260040160206040518083038186803b158015610d0c57600080fd5b505afa158015610d20573d6000803e3d6000fd5b505050506040513d6020811015610d3657600080fd5b81019080805190602001909291905050501515141515610dbe576040517f08c379a00000000000000000000000000000000000000000000000000000000081526004018080602001828103825260128152602001807f636f6e747261637420697320706175736564000000000000000000000000000081525060200191505060405180910390fd5b600a8151141515610e1a576040517f08c379a0000000000000000000000000000000000000000000000000000000008152600401808060200182810382526027815260200180611fb86027913960400191505060405180910390fd5b60407f0100000000000000000000000000000000000000000000000000000000000000027effffffffffffffffffffffffffffffffffffffffffffffffffffffffffffff1916610e6b826000611c41565b7effffffffffffffffffffffffffffffffffffffffffffffffffffffffffffff1916141515610ee5576040517f08c379a000000000000000000000000000000000000000000000000000000000815260040180806020018281038252602b815260200180611f8d602b913960400191505060405180910390fd5b600083905060008390506000610efc846001611cd4565b90506000610f0b856003611d67565b90506000610f1a866009611c41565b7f010000000000000000000000000000000000000000000000000000000000000090049050600460009054906101000a900473ffffffffffffffffffffffffffffffffffffffff1673ffffffffffffffffffffffffffffffffffffffff16630dc210aa846040518263ffffffff167c010000000000000000000000000000000000000000000000000000000002815260040180827dffffffffffffffffffffffffffffffffffffffffffffffffffffffffffff19167dffffffffffffffffffffffffffffffffffffffffffffffffffffffffffff1916815260200191505060206040518083038186803b15801561101057600080fd5b505afa158015611024573d6000803e3d6000fd5b505050506040513d602081101561103a57600080fd5b810190808051906020019092919050505015156110bf576040517f08c379a00000000000000000000000000000000000000000000000000000000081526004018080602001828103825260138152602001807f636f756e7472792069732064697361626c65640000000000000000000000000081525060200191505060405180910390fd5b600460009054906101000a900473ffffffffffffffffffffffffffffffffffffffff1673ffffffffffffffffffffffffffffffffffffffff1663df6b2c2c84846040518363ffffffff167c010000000000000000000000000000000000000000000000000000000002815260040180837dffffffffffffffffffffffffffffffffffffffffffffffffffffffffffff19167dffffffffffffffffffffffffffffffffffffffffffffffffffffffffffff19168152602001827bffffffffffffffffffffffffffffffffffffffffffffffffffffffff19167bffffffffffffffffffffffffffffffffffffffffffffffffffffffff191681526020019250505060206040518083038186803b1580156111d657600080fd5b505afa1580156111ea573d6000803e3d6000fd5b505050506040513d602081101561120057600080fd5b81019080805190602001909291905050501515611285576040517f08c379a000000000000000000000000000000000000000000000000000000000815260040180806020018281038252601a8152602001807f7a6f6e65206973206e6f7420696e7369646520636f756e74727900000000000081525060200191505060405180910390fd5b600073ffffffffffffffffffffffffffffffffffffffff16600160008479ffffffffffffffffffffffffffffffffffffffffffffffffffff191679ffffffffffffffffffffffffffffffffffffffffffffffffffff1916815260200190815260200160002060009054906101000a900473ffffffffffffffffffffffffffffffffffffffff1673ffffffffffffffffffffffffffffffffffffffff16141515611396576040517f08c379a00000000000000000000000000000000000000000000000000000000081526004018080602001828103825260138152602001807f7a6f6e6520616c7265616479206578697374730000000000000000000000000081525060200191505060405180910390fd5b60006113c3600760009054906101000a900473ffffffffffffffffffffffffffffffffffffffff16611dfa565b905060006113f2600860009054906101000a900473ffffffffffffffffffffffffffffffffffffffff16611dfa565b90508173ffffffffffffffffffffffffffffffffffffffff1663bc8bb1c486868a8a600360009054906101000a900473ffffffffffffffffffffffffffffffffffffffff16600460009054906101000a900473ffffffffffffffffffffffffffffffffffffffff16600660009054906101000a900473ffffffffffffffffffffffffffffffffffffffff16306040518963ffffffff167c010000000000000000000000000000000000000000000000000000000002815260040180897dffffffffffffffffffffffffffffffffffffffffffffffffffffffffffff19167dffffffffffffffffffffffffffffffffffffffffffffffffffffffffffff191681526020018879ffffffffffffffffffffffffffffffffffffffffffffffffffff191679ffffffffffffffffffffffffffffffffffffffffffffffffffff191681526020018773ffffffffffffffffffffffffffffffffffffffff1673ffffffffffffffffffffffffffffffffffffffff1681526020018681526020018573ffffffffffffffffffffffffffffffffffffffff1673ffffffffffffffffffffffffffffffffffffffff1681526020018473ffffffffffffffffffffffffffffffffffffffff1673ffffffffffffffffffffffffffffffffffffffff1681526020018373ffffffffffffffffffffffffffffffffffffffff1673ffffffffffffffffffffffffffffffffffffffff1681526020018273ffffffffffffffffffffffffffffffffffffffff1673ffffffffffffffffffffffffffffffffffffffff16815260200198505050505050505050600060405180830381600087803b15801561165957600080fd5b505af115801561166d573d6000803e3d6000fd5b505050508073ffffffffffffffffffffffffffffffffffffffff1663184b9559600460009054906101000a900473ffffffffffffffffffffffffffffffffffffffff16600660009054906101000a900473ffffffffffffffffffffffffffffffffffffffff16856040518463ffffffff167c0100000000000000000000000000000000000000000000000000000000028152600401808473ffffffffffffffffffffffffffffffffffffffff1673ffffffffffffffffffffffffffffffffffffffff1681526020018373ffffffffffffffffffffffffffffffffffffffff1673ffffffffffffffffffffffffffffffffffffffff1681526020018273ffffffffffffffffffffffffffffffffffffffff1673ffffffffffffffffffffffffffffffffffffffff1681526020019350505050600060405180830381600087803b1580156117b857600080fd5b505af11580156117cc573d6000803e3d6000fd5b505050508173ffffffffffffffffffffffffffffffffffffffff1663390b9356826040518263ffffffff167c0100000000000000000000000000000000000000000000000000000000028152600401808273ffffffffffffffffffffffffffffffffffffffff1673ffffffffffffffffffffffffffffffffffffffff168152602001915050600060405180830381600087803b15801561186b57600080fd5b505af115801561187f573d6000803e3d6000fd5b50505050600560009054906101000a900473ffffffffffffffffffffffffffffffffffffffff1673ffffffffffffffffffffffffffffffffffffffff1663894e3c2988856040518363ffffffff167c0100000000000000000000000000000000000000000000000000000000028152600401808373ffffffffffffffffffffffffffffffffffffffff1673ffffffffffffffffffffffffffffffffffffffff1681526020018260000b60000b815260200192505050600060405180830381600087803b15801561194e57600080fd5b505af1158015611962573d6000803e3d6000fd5b5050505081600160008679ffffffffffffffffffffffffffffffffffffffffffffffffffff191679ffffffffffffffffffffffffffffffffffffffffffffffffffff1916815260200190815260200160002060006101000a81548173ffffffffffffffffffffffffffffffffffffffff021916908373ffffffffffffffffffffffffffffffffffffffff16021790555083600260008473ffffffffffffffffffffffffffffffffffffffff1673ffffffffffffffffffffffffffffffffffffffff16815260200190815260200160002060006101000a81548165ffffffffffff02191690837a01000000000000000000000000000000000000000000000000000090040217905550600360009054906101000a900473ffffffffffffffffffffffffffffffffffffffff1673ffffffffffffffffffffffffffffffffffffffff1663be45fd6283886040518363ffffffff167c0100000000000000000000000000000000000000000000000000000000028152600401808373ffffffffffffffffffffffffffffffffffffffff1673ffffffffffffffffffffffffffffffffffffffff16815260200182815260200180602001828103825260018152602001807f40000000000000000000000000000000000000000000000000000000000000008152506020019350505050602060405180830381600087803b158015611b6857600080fd5b505af1158015611b7c573d6000803e3d6000fd5b505050506040513d6020811015611b9257600080fd5b81019080805190602001909291905050505050505050505050505050565b600660009054906101000a900473ffffffffffffffffffffffffffffffffffffffff1681565b600460009054906101000a900473ffffffffffffffffffffffffffffffffffffffff1681565b600560009054906101000a900473ffffffffffffffffffffffffffffffffffffffff1681565b611c2a6107e6565b1515611c3557600080fd5b611c3e81611e70565b50565b600060018201835110151515611cbf576040517f08c379a00000000000000000000000000000000000000000000000000000000081526004018080602001828103825260108152602001807f206e6f74206c6f6e6720656e6f7567680000000000000000000000000000000081525060200191505060405180910390fd5b60008260208501015190508091505092915050565b600060028201835110151515611d52576040517f08c379a00000000000000000000000000000000000000000000000000000000081526004018080602001828103825260108152602001807f206e6f74206c6f6e6720656e6f7567680000000000000000000000000000000081525060200191505060405180910390fd5b60008260208501015190508091505092915050565b600060068201835110151515611de5576040517f08c379a00000000000000000000000000000000000000000000000000000000081526004018080602001828103825260108152602001807f206e6f74206c6f6e6720656e6f7567680000000000000000000000000000000081525060200191505060405180910390fd5b60008260208501015190508091505092915050565b600080826c010000000000000000000000000290506040517f3d602d80600a3d3981f3363d3d373d3d3d363d7300000000000000000000000081528160148201527f5af43d82803e903d91602b57fd5bf3000000000000000000000000000000000060288201526037816000f092505050919050565b600073ffffffffffffffffffffffffffffffffffffffff168173ffffffffffffffffffffffffffffffffffffffff1614151515611eac57600080fd5b8073ffffffffffffffffffffffffffffffffffffffff166000809054906101000a900473ffffffffffffffffffffffffffffffffffffffff1673ffffffffffffffffffffffffffffffffffffffff167f8be0079c531659141344cd1fd0a4f28419497f9722a3daafe3b4186f6b6457e060405160405180910390a3806000806101000a81548173ffffffffffffffffffffffffffffffffffffffff021916908373ffffffffffffffffffffffffffffffffffffffff1602179055505056fe63616e206f6e6c792062652063616c6c65642062792064746820636f6e7472616374696e636f7272656374206669727374206279746520696e20646174612c2065787065637465642030783430637265617465416e64436c61696d2065787065637473203130206279746573206173206461746163616e206f6e6c792062652063616c6c656420627920612072656769737465726564207a6f6e65a165627a7a723058207b1a5ca1272c0bdb50f607445b163c1a1b01f41f19b02f7dd605cde8f491ff0400297a6f6e65496d706c656d656e746174696f6e20616464726573732063616e6e6f742062652030783074656c6c6572496d706c656d656e746174696f6e20616464726573732063616e6e6f7420626520307830",
  "source": "pragma solidity ^0.5.5;\n\nimport \"openzeppelin-solidity/contracts/ownership/Ownable.sol\";\n\nimport \"../eip1167/EIP1167CloneFactory.sol\";\n\nimport \"../interfaces/IERC223ReceivingContract.sol\";\nimport \"../interfaces/IDetherToken.sol\";\nimport \"../interfaces/IUsers.sol\";\nimport \"../interfaces/IControl.sol\";\nimport \"../interfaces/IGeoRegistry.sol\";\nimport \"../interfaces/IZone.sol\";\nimport \"../interfaces/ITeller.sol\";\n\ncontract ZoneFactory is IERC223ReceivingContract, Ownable, EIP1167CloneFactory {\n\n  // ------------------------------------------------\n  //\n  // Variables Public\n  //\n  // ------------------------------------------------\n\n  //      geohash   zoneContractAddress or 0x0 if it doesnt exist\n  // TODO: now we can use computeCSC() to get CSC, do we need it? not really\n  mapping(bytes6 => address) public geohashToZone;\n  mapping(address => bytes6) public zoneToGeohash;\n\n  IDetherToken public dth;\n  IGeoRegistry public geo;\n  IUsers public users;\n  IControl public control;\n\n  address public zoneImplementation;\n  address public tellerImplementation;\n  \n\n  // ------------------------------------------------\n  //\n  // Events\n  //\n  // ------------------------------------------------\n\n  // TODO\n\n  // ------------------------------------------------\n  //\n  // Constructor\n  //\n  // ------------------------------------------------\n\n  constructor(address _dth, address _geo, address _users, address _control, address _zoneImplementation, address _tellerImplementation)\n    public\n  {\n    require(_dth != address(0), \"dth address cannot be 0x0\");\n    require(_geo != address(0), \"geo address cannot be 0x0\");\n    require(_users != address(0), \"users address cannot be 0x0\");\n    require(_control != address(0), \"control address cannot be 0x0\");\n    require(_zoneImplementation != address(0), \"zoneImplementation address cannot be 0x0\");\n    require(_tellerImplementation != address(0), \"tellerImplementation address cannot be 0x0\");\n\n    dth = IDetherToken(_dth);\n    geo = IGeoRegistry(_geo);\n    users = IUsers(_users);\n    control = IControl(_control);\n\n    zoneImplementation = _zoneImplementation;\n    tellerImplementation = _tellerImplementation;\n  }\n\n  // ------------------------------------------------\n  //\n  // Functions Private Getters\n  //\n  // ------------------------------------------------\n\n  function toBytes1(bytes memory _bytes, uint _start)\n    private\n    pure\n    returns (bytes1)\n  {\n    require(_bytes.length >= (_start + 1), \" not long enough\");\n    bytes1 tempBytes1;\n\n    assembly {\n        tempBytes1 := mload(add(add(_bytes, 0x20), _start))\n    }\n\n    return tempBytes1;\n  }\n\n  function toBytes2(bytes memory _bytes, uint _start)\n    private\n    pure\n    returns (bytes2)\n  {\n    require(_bytes.length >= (_start + 2), \" not long enough\");\n    bytes2 tempBytes2;\n\n    assembly {\n        tempBytes2 := mload(add(add(_bytes, 0x20), _start))\n    }\n\n    return tempBytes2;\n  }\n\n  function toBytes7(bytes memory _bytes, uint _start)\n    private\n    pure\n    returns (bytes7)\n  {\n    require(_bytes.length >= (_start + 7), \" not long enough\");\n    bytes7 tempBytes7;\n\n    assembly {\n        tempBytes7 := mload(add(add(_bytes, 0x20), _start))\n    }\n\n    return tempBytes7;\n  }\n  function toBytes6(bytes memory _bytes, uint _start)\n    private\n    pure\n    returns (bytes6)\n  {\n    require(_bytes.length >= (_start + 6), \" not long enough\");\n    bytes6 tempBytes6;\n\n    assembly {\n        tempBytes6 := mload(add(add(_bytes, 0x20), _start))\n    }\n\n    return tempBytes6;\n  }\n  function slice(bytes memory _bytes, uint _start, uint _length)\n    private\n    pure\n    returns (bytes memory)\n  {\n    require(_bytes.length >= (_start + _length));\n    bytes memory tempBytes;\n    assembly {\n        switch iszero(_length)\n        case 0 {\n            tempBytes := mload(0x40)\n            let lengthmod := and(_length, 31)\n            let mc := add(add(tempBytes, lengthmod), mul(0x20, iszero(lengthmod)))\n            let end := add(mc, _length)\n            for {\n                let cc := add(add(add(_bytes, lengthmod), mul(0x20, iszero(lengthmod))), _start)\n            } lt(mc, end) {\n                mc := add(mc, 0x20)\n                cc := add(cc, 0x20)\n            } {\n                mstore(mc, mload(cc))\n            }\n            mstore(tempBytes, _length)\n            mstore(0x40, and(add(mc, 31), not(31)))\n        }\n        default {\n            tempBytes := mload(0x40)\n            mstore(0x40, add(tempBytes, 0x20))\n        }\n    }\n    return tempBytes;\n  }\n\n  // ------------------------------------------------\n  //\n  // Functions Public Getters\n  //\n  // ------------------------------------------------\n\n\n  function zoneExists(bytes6 _geohash)\n    external\n    view\n    returns (bool)\n  {\n    return geohashToZone[_geohash] != address(0);\n  }\n\n  // ------------------------------------------------\n  //\n  // Functions Setters Public\n  //\n  // ------------------------------------------------\n\n  function proxyUpdateUserDailySold(bytes2 _countryCode, address _from, address _to, uint _amount)\n    external\n  {\n    require(zoneToGeohash[msg.sender] != bytes6(0), \"can only be called by a registered zone\");\n\n    users.updateDailySold(_countryCode, _from, _to, _amount);\n  }\n\n  // ERC223 magic\n  function tokenFallback(address _from, uint _value, bytes memory _data) // GAS COST +/- 3.763.729\n    public\n  {\n    require(msg.sender == address(dth), \"can only be called by dth contract\");\n\n    require(control.paused() == false, \"contract is paused\");\n    require(_data.length == 10, \"createAndClaim expects 10 bytes as data\");\n\n    // we only expect 1 function to be called, createAndClaim, encoded as bytes1(0x40)\n    require(toBytes1(_data, 0) == bytes1(0x40), \"incorrect first byte in data, expected 0x40\");\n\n    address sender = _from;\n    uint dthAmount = _value;\n\n    bytes2 country = toBytes2(_data, 1);\n    bytes6 geohash = toBytes6(_data, 3);\n    int8 tier = int8(toBytes1(_data, 9)); // should be 1 2 or 3\n    require(geo.countryIsEnabled(country), \"country is disabled\");\n    require(geo.zoneInsideCountry(country, bytes4(geohash)), \"zone is not inside country\");\n    require(geohashToZone[geohash] == address(0), \"zone already exists\");\n\n    // deploy zone + teller contract\n    address newZoneAddress = createClone(zoneImplementation);\n    address newTellerAddress = createClone(tellerImplementation);\n\n    // init zone + teller contract\n\n    IZone(newZoneAddress).init(\n      country, geohash, sender, dthAmount,\n      address(dth), address(geo), address(control), address(this)\n    );\n    ITeller(newTellerAddress).init(address(geo), address(control), newZoneAddress);\n    IZone(newZoneAddress).connectToTellerContract(newTellerAddress);\n\n    // add teller tier\n    users.setUserTier(sender, tier);\n\n    // store references\n    geohashToZone[geohash] = newZoneAddress;\n    zoneToGeohash[newZoneAddress] = geohash;\n\n    // send all dth through to the new Zone contract\n    dth.transfer(newZoneAddress, dthAmount, hex\"40\");\n  }\n}\n",
  "sourcePath": "/Users/mehdi/code/dether/contractV2/contracts/map/ZoneFactory.sol",
  "compiler": {
    "name": "solc",
    "version": "0.5.5+commit.47a71e8f.Emscripten.clang"
  },
  "schemaVersion": "3.0.3",
  "updatedAt": "2019-04-08T19:27:33.129Z",
  "devdoc": {
    "methods": {
      "isOwner()": {
        "return": "true if `msg.sender` is the owner of the contract."
      },
      "owner()": {
        "return": "the address of the owner."
      },
      "renounceOwnership()": {
        "details": "Allows the current owner to relinquish control of the contract."
      },
      "transferOwnership(address)": {
        "details": "Allows the current owner to transfer control of the contract to a newOwner.",
        "params": {
          "newOwner": "The address to transfer ownership to."
        }
      }
    }
  },
  "userdoc": {
    "methods": {
      "renounceOwnership()": {
        "notice": "Renouncing to ownership will leave the contract without an owner. It will not be possible to call the functions with the `onlyOwner` modifier anymore."
      }
    }
  }
}