{
  "contractName": "Zone",
  "abi": [
    {
      "constant": true,
      "inputs": [],
      "name": "dth",
      "outputs": [
        {
          "name": "",
          "type": "address"
        }
      ],
      "payable": false,
      "stateMutability": "view",
      "type": "function"
    },
    {
      "constant": true,
      "inputs": [],
      "name": "geohash",
      "outputs": [
        {
          "name": "",
          "type": "bytes6"
        }
      ],
      "payable": false,
      "stateMutability": "view",
      "type": "function"
    },
    {
      "constant": true,
      "inputs": [],
      "name": "currentAuctionId",
      "outputs": [
        {
          "name": "",
          "type": "uint256"
        }
      ],
      "payable": false,
      "stateMutability": "view",
      "type": "function"
    },
    {
      "constant": true,
      "inputs": [
        {
          "name": "",
          "type": "uint256"
        },
        {
          "name": "",
          "type": "address"
        }
      ],
      "name": "auctionBids",
      "outputs": [
        {
          "name": "",
          "type": "uint256"
        }
      ],
      "payable": false,
      "stateMutability": "view",
      "type": "function"
    },
    {
      "constant": true,
      "inputs": [
        {
          "name": "",
          "type": "address"
        }
      ],
      "name": "withdrawableDth",
      "outputs": [
        {
          "name": "",
          "type": "uint256"
        }
      ],
      "payable": false,
      "stateMutability": "view",
      "type": "function"
    },
    {
      "constant": true,
      "inputs": [],
      "name": "teller",
      "outputs": [
        {
          "name": "",
          "type": "address"
        }
      ],
      "payable": false,
      "stateMutability": "view",
      "type": "function"
    },
    {
      "constant": true,
      "inputs": [],
      "name": "zoneFactory",
      "outputs": [
        {
          "name": "",
          "type": "address"
        }
      ],
      "payable": false,
      "stateMutability": "view",
      "type": "function"
    },
    {
      "constant": true,
      "inputs": [],
      "name": "taxCollector",
      "outputs": [
        {
          "name": "",
          "type": "address"
        }
      ],
      "payable": false,
      "stateMutability": "view",
      "type": "function"
    },
    {
      "constant": true,
      "inputs": [],
      "name": "MIN_STAKE",
      "outputs": [
        {
          "name": "",
          "type": "uint256"
        }
      ],
      "payable": false,
      "stateMutability": "view",
      "type": "function"
    },
    {
      "constant": true,
      "inputs": [],
      "name": "country",
      "outputs": [
        {
          "name": "",
          "type": "bytes2"
        }
      ],
      "payable": false,
      "stateMutability": "view",
      "type": "function"
    },
    {
      "constant": true,
      "inputs": [],
      "name": "geo",
      "outputs": [
        {
          "name": "",
          "type": "address"
        }
      ],
      "payable": false,
      "stateMutability": "view",
      "type": "function"
    },
    {
      "anonymous": false,
      "inputs": [
        {
          "indexed": true,
          "name": "sender",
          "type": "address"
        },
        {
          "indexed": false,
          "name": "auctionId",
          "type": "uint256"
        },
        {
          "indexed": false,
          "name": "bidAmount",
          "type": "uint256"
        }
      ],
      "name": "AuctionCreated",
      "type": "event"
    },
    {
      "anonymous": false,
      "inputs": [
        {
          "indexed": true,
          "name": "newOwner",
          "type": "address"
        },
        {
          "indexed": false,
          "name": "auctionId",
          "type": "uint256"
        },
        {
          "indexed": false,
          "name": "winingBid",
          "type": "uint256"
        }
      ],
      "name": "AuctionEnded",
      "type": "event"
    },
    {
      "anonymous": false,
      "inputs": [
        {
          "indexed": true,
          "name": "sender",
          "type": "address"
        },
        {
          "indexed": false,
          "name": "auctionId",
          "type": "uint256"
        },
        {
          "indexed": false,
          "name": "bidAmount",
          "type": "uint256"
        }
      ],
      "name": "Bid",
      "type": "event"
    },
    {
      "constant": false,
      "inputs": [
        {
          "name": "_countryCode",
          "type": "bytes2"
        },
        {
          "name": "_geohash",
          "type": "bytes6"
        },
        {
          "name": "_zoneOwner",
          "type": "address"
        },
        {
          "name": "_dthAmount",
          "type": "uint256"
        },
        {
          "name": "_dth",
          "type": "address"
        },
        {
          "name": "_geo",
          "type": "address"
        },
        {
          "name": "_zoneFactory",
          "type": "address"
        },
        {
          "name": "_taxCollector",
          "type": "address"
        }
      ],
      "name": "init",
      "outputs": [],
      "payable": false,
      "stateMutability": "nonpayable",
      "type": "function"
    },
    {
      "constant": false,
      "inputs": [
        {
          "name": "_teller",
          "type": "address"
        }
      ],
      "name": "connectToTellerContract",
      "outputs": [],
      "payable": false,
      "stateMutability": "nonpayable",
      "type": "function"
    },
    {
      "constant": true,
      "inputs": [],
      "name": "ownerAddr",
      "outputs": [
        {
          "name": "",
          "type": "address"
        }
      ],
      "payable": false,
      "stateMutability": "view",
      "type": "function"
    },
    {
      "constant": true,
      "inputs": [
        {
          "name": "_geohash",
          "type": "bytes6"
        },
        {
          "name": "_addr",
          "type": "address"
        }
      ],
      "name": "computeCSC",
      "outputs": [
        {
          "name": "",
          "type": "bytes12"
        }
      ],
      "payable": false,
      "stateMutability": "pure",
      "type": "function"
    },
    {
      "constant": true,
      "inputs": [
        {
          "name": "_startTime",
          "type": "uint256"
        },
        {
          "name": "_endTime",
          "type": "uint256"
        },
        {
          "name": "_dthAmount",
          "type": "uint256"
        }
      ],
      "name": "calcHarbergerTax",
      "outputs": [
        {
          "name": "taxAmount",
          "type": "uint256"
        },
        {
          "name": "keepAmount",
          "type": "uint256"
        }
      ],
      "payable": false,
      "stateMutability": "view",
      "type": "function"
    },
    {
      "constant": true,
      "inputs": [
        {
          "name": "_value",
          "type": "uint256"
        }
      ],
      "name": "calcEntryFee",
      "outputs": [
        {
          "name": "burnAmount",
          "type": "uint256"
        },
        {
          "name": "bidAmount",
          "type": "uint256"
        }
      ],
      "payable": false,
      "stateMutability": "view",
      "type": "function"
    },
    {
      "constant": true,
      "inputs": [
        {
          "name": "_auctionId",
          "type": "uint256"
        }
      ],
      "name": "auctionExists",
      "outputs": [
        {
          "name": "",
          "type": "bool"
        }
      ],
      "payable": false,
      "stateMutability": "view",
      "type": "function"
    },
    {
      "constant": true,
      "inputs": [],
      "name": "getZoneOwner",
      "outputs": [
        {
          "name": "",
          "type": "address"
        },
        {
          "name": "",
          "type": "uint256"
        },
        {
          "name": "",
          "type": "uint256"
        },
        {
          "name": "",
          "type": "uint256"
        },
        {
          "name": "",
          "type": "uint256"
        },
        {
          "name": "",
          "type": "uint256"
        }
      ],
      "payable": false,
      "stateMutability": "view",
      "type": "function"
    },
    {
      "constant": true,
      "inputs": [
        {
          "name": "_auctionId",
          "type": "uint256"
        }
      ],
      "name": "getAuction",
      "outputs": [
        {
          "name": "",
          "type": "uint256"
        },
        {
          "name": "",
          "type": "uint256"
        },
        {
          "name": "",
          "type": "uint256"
        },
        {
          "name": "",
          "type": "uint256"
        },
        {
          "name": "",
          "type": "address"
        },
        {
          "name": "",
          "type": "uint256"
        }
      ],
      "payable": false,
      "stateMutability": "view",
      "type": "function"
    },
    {
      "constant": true,
      "inputs": [],
      "name": "getLastAuction",
      "outputs": [
        {
          "name": "",
          "type": "uint256"
        },
        {
          "name": "",
          "type": "uint256"
        },
        {
          "name": "",
          "type": "uint256"
        },
        {
          "name": "",
          "type": "uint256"
        },
        {
          "name": "",
          "type": "address"
        },
        {
          "name": "",
          "type": "uint256"
        }
      ],
      "payable": false,
      "stateMutability": "view",
      "type": "function"
    },
    {
      "constant": false,
      "inputs": [],
      "name": "processState",
      "outputs": [],
      "payable": false,
      "stateMutability": "nonpayable",
      "type": "function"
    },
    {
      "constant": false,
      "inputs": [
        {
          "name": "_from",
          "type": "address"
        },
        {
          "name": "_value",
          "type": "uint256"
        },
        {
          "name": "_data",
          "type": "bytes"
        }
      ],
      "name": "tokenFallback",
      "outputs": [],
      "payable": false,
      "stateMutability": "nonpayable",
      "type": "function"
    },
    {
      "constant": false,
      "inputs": [],
      "name": "release",
      "outputs": [],
      "payable": false,
      "stateMutability": "nonpayable",
      "type": "function"
    },
    {
      "constant": false,
      "inputs": [
        {
          "name": "_auctionId",
          "type": "uint256"
        }
      ],
      "name": "withdrawFromAuction",
      "outputs": [],
      "payable": false,
      "stateMutability": "nonpayable",
      "type": "function"
    },
    {
      "constant": false,
      "inputs": [
        {
          "name": "_auctionIds",
          "type": "uint256[]"
        }
      ],
      "name": "withdrawFromAuctions",
      "outputs": [],
      "payable": false,
      "stateMutability": "nonpayable",
      "type": "function"
    },
    {
      "constant": false,
      "inputs": [],
      "name": "withdrawDth",
      "outputs": [],
      "payable": false,
      "stateMutability": "nonpayable",
      "type": "function"
    }
  ],
  "bytecode": "0x608060405234801561001057600080fd5b506152d5806100206000396000f3fe608060405234801561001057600080fd5b50600436106101a95760003560e01c806378bd7935116100f9578063c0ee0b8a11610097578063d8b0b49911610071578063d8b0b4991461098b578063d944e6a3146109eb578063da2f8d2014610a35578063fb01bb5114610ae2576101a9565b8063c0ee0b8a1461087e578063c732ff3e14610963578063cb1c2b5c1461096d576101a9565b806399640c81116100d357806399640c811461065c5780639c675eaa146106c9578063bc8bb1c414610713578063bea1dcf814610834576101a9565b806378bd7935146105775780637b9a73011461060857806386d1a69f14610652576101a9565b80632c2f3d131161016657806340be3e6a1161014057806340be3e6a1461047c578063422927ad1461048657806357edab4e146104b45780636496a441146104fe576101a9565b80632c2f3d131461039a578063390b9356146103f25780633c0868f014610436576101a9565b806301e57a37146101ae57806308e44f88146101f85780630c0b86ca146102505780630d6249141461026e5780631504ceed146102db5780631ecb0f671461033d575b600080fd5b6101b6610b2b565b604051808273ffffffffffffffffffffffffffffffffffffffff1673ffffffffffffffffffffffffffffffffffffffff16815260200191505060405180910390f35b610200610b51565b604051808279ffffffffffffffffffffffffffffffffffffffffffffffffffff191679ffffffffffffffffffffffffffffffffffffffffffffffffffff1916815260200191505060405180910390f35b610258610b64565b6040518082815260200191505060405180910390f35b610276610b6a565b604051808781526020018681526020018581526020018481526020018373ffffffffffffffffffffffffffffffffffffffff1673ffffffffffffffffffffffffffffffffffffffff168152602001828152602001965050505050505060405180910390f35b610327600480360360408110156102f157600080fd5b8101908080359060200190929190803573ffffffffffffffffffffffffffffffffffffffff169060200190929190505050610b92565b6040518082815260200191505060405180910390f35b61037d6004803603606081101561035357600080fd5b81019080803590602001909291908035906020019092919080359060200190929190505050610bb7565b604051808381526020018281526020019250505060405180910390f35b6103dc600480360360208110156103b057600080fd5b81019080803573ffffffffffffffffffffffffffffffffffffffff169060200190929190505050610c3a565b6040518082815260200191505060405180910390f35b6104346004803603602081101561040857600080fd5b81019080803573ffffffffffffffffffffffffffffffffffffffff169060200190929190505050610c52565b005b6104626004803603602081101561044c57600080fd5b8101908080359060200190929190505050610da6565b604051808215151515815260200191505060405180910390f35b610484610dc8565b005b6104b26004803603602081101561049c57600080fd5b8101908080359060200190929190505050610dd2565b005b6104bc611316565b604051808273ffffffffffffffffffffffffffffffffffffffff1673ffffffffffffffffffffffffffffffffffffffff16815260200191505060405180910390f35b6105756004803603602081101561051457600080fd5b810190808035906020019064010000000081111561053157600080fd5b82018360208201111561054357600080fd5b8035906020019184602083028401116401000000008311171561056557600080fd5b909192939192939050505061133c565b005b6105a36004803603602081101561058d57600080fd5b81019080803590602001909291905050506119dc565b604051808781526020018681526020018581526020018481526020018373ffffffffffffffffffffffffffffffffffffffff1673ffffffffffffffffffffffffffffffffffffffff168152602001828152602001965050505050505060405180910390f35b610610611c56565b604051808273ffffffffffffffffffffffffffffffffffffffff1673ffffffffffffffffffffffffffffffffffffffff16815260200191505060405180910390f35b61065a611c7c565b005b610664611fd7565b604051808773ffffffffffffffffffffffffffffffffffffffff1673ffffffffffffffffffffffffffffffffffffffff168152602001868152602001858152602001848152602001838152602001828152602001965050505050505060405180910390f35b6106d1612037565b604051808273ffffffffffffffffffffffffffffffffffffffff1673ffffffffffffffffffffffffffffffffffffffff16815260200191505060405180910390f35b610832600480360361010081101561072a57600080fd5b8101908080357dffffffffffffffffffffffffffffffffffffffffffffffffffffffffffff19169060200190929190803579ffffffffffffffffffffffffffffffffffffffffffffffffffff19169060200190929190803573ffffffffffffffffffffffffffffffffffffffff16906020019092919080359060200190929190803573ffffffffffffffffffffffffffffffffffffffff169060200190929190803573ffffffffffffffffffffffffffffffffffffffff169060200190929190803573ffffffffffffffffffffffffffffffffffffffff169060200190929190803573ffffffffffffffffffffffffffffffffffffffff169060200190929190505050612063565b005b61083c612330565b604051808273ffffffffffffffffffffffffffffffffffffffff1673ffffffffffffffffffffffffffffffffffffffff16815260200191505060405180910390f35b6109616004803603606081101561089457600080fd5b81019080803573ffffffffffffffffffffffffffffffffffffffff16906020019092919080359060200190929190803590602001906401000000008111156108db57600080fd5b8201836020820111156108ed57600080fd5b8035906020019184600183028401116401000000008311171561090f57600080fd5b91908080601f016020809104026020016040519081016040528093929190818152602001838380828437600081840152601f19601f820116905080830192505050505050509192919290505050612356565b005b61096b6129a4565b005b610975612c92565b6040518082815260200191505060405180910390f35b610993612c9f565b60405180827dffffffffffffffffffffffffffffffffffffffffffffffffffffffffffff19167dffffffffffffffffffffffffffffffffffffffffffffffffffffffffffff1916815260200191505060405180910390f35b6109f3612cb2565b604051808273ffffffffffffffffffffffffffffffffffffffff1673ffffffffffffffffffffffffffffffffffffffff16815260200191505060405180910390f35b610a9e60048036036040811015610a4b57600080fd5b81019080803579ffffffffffffffffffffffffffffffffffffffffffffffffffff19169060200190929190803573ffffffffffffffffffffffffffffffffffffffff169060200190929190505050612cd8565b604051808273ffffffffffffffffffffffffffffffffffffffff191673ffffffffffffffffffffffffffffffffffffffff1916815260200191505060405180910390f35b610b0e60048036036020811015610af857600080fd5b8101908080359060200190929190505050612d7a565b604051808381526020018281526020019250505060405180910390f35b600760029054906101000a900473ffffffffffffffffffffffffffffffffffffffff1681565b600b60169054906101000a900460d01b81565b600d5481565b600080600080600080610b7e600d546119dc565b955095509550955095509550909192939495565b600e602052816000526040600020602052806000526040600020600091509150505481565b600080610c1b62015180610c0d612710610bff6004610bf1610be28c8c612dc090919063ffffffff16565b8a612de090919063ffffffff16565b612de090919063ffffffff16565b612e1a90919063ffffffff16565b612e1a90919063ffffffff16565b9150610c308284612dc090919063ffffffff16565b9050935093915050565b600c6020528060005260406000206000915090505481565b60011515600760009054906101000a900460ff16151514610cdb576040517f08c379a000000000000000000000000000000000000000000000000000000000815260040180806020018281038252601c8152602001807f636f6e7472616374206e6f742079657420696e697469616c697a65640000000081525060200191505060405180910390fd5b60001515600760019054906101000a900460ff16151514610d47576040517f08c379a00000000000000000000000000000000000000000000000000000000081526004018080602001828103825260218152602001806151a26021913960400191505060405180910390fd5b80600a60006101000a81548173ffffffffffffffffffffffffffffffffffffffff021916908373ffffffffffffffffffffffffffffffffffffffff1602179055506001600760016101000a81548160ff02191690831515021790555050565b6000806006600084815260200190815260200160002060000154119050919050565b610dd0612e40565b565b60011515600760009054906101000a900460ff16151514610e5b576040517f08c379a000000000000000000000000000000000000000000000000000000000815260040180806020018281038252601c8152602001807f636f6e7472616374206e6f742079657420696e697469616c697a65640000000081525060200191505060405180910390fd5b60011515600760019054906101000a900460ff16151514610ec7576040517f08c379a000000000000000000000000000000000000000000000000000000000815260040180806020018281038252602181526020018061525d6021913960400191505060405180910390fd5b610ecf612e40565b600081118015610ee15750600d548111155b610f53576040517f08c379a00000000000000000000000000000000000000000000000000000000081526004018080602001828103825260188152602001807f61756374696f6e496420646f6573206e6f74206578697374000000000000000081525060200191505060405180910390fd5b600180811115610f5f57fe5b6006600083815260200190815260200160002060020160009054906101000a900460ff166001811115610f8e57fe5b14610fe4576040517f08c379a00000000000000000000000000000000000000000000000000000000081526004018080602001828103825260278152602001806150dc6027913960400191505060405180910390fd5b3373ffffffffffffffffffffffffffffffffffffffff166006600083815260200190815260200160002060020160019054906101000a900473ffffffffffffffffffffffffffffffffffffffff1673ffffffffffffffffffffffffffffffffffffffff1614156110bc576040517f08c379a000000000000000000000000000000000000000000000000000000000815260040180806020018281038252601f8152602001807f61756374696f6e2077696e6e65722063616e206e6f742077697468647261770081525060200191505060405180910390fd5b6000600e600083815260200190815260200160002060003373ffffffffffffffffffffffffffffffffffffffff1673ffffffffffffffffffffffffffffffffffffffff1681526020019081526020016000205411611182576040517f08c379a00000000000000000000000000000000000000000000000000000000081526004018080602001828103825260138152602001807f6e6f7468696e6720746f2077697468647261770000000000000000000000000081525060200191505060405180910390fd5b6000600e600083815260200190815260200160002060003373ffffffffffffffffffffffffffffffffffffffff1673ffffffffffffffffffffffffffffffffffffffff1681526020019081526020016000205490506000600e600084815260200190815260200160002060003373ffffffffffffffffffffffffffffffffffffffff1673ffffffffffffffffffffffffffffffffffffffff16815260200190815260200160002081905550600760029054906101000a900473ffffffffffffffffffffffffffffffffffffffff1673ffffffffffffffffffffffffffffffffffffffff1663a9059cbb33836040518363ffffffff1660e01b8152600401808373ffffffffffffffffffffffffffffffffffffffff1673ffffffffffffffffffffffffffffffffffffffff16815260200182815260200192505050602060405180830381600087803b1580156112d657600080fd5b505af11580156112ea573d6000803e3d6000fd5b505050506040513d602081101561130057600080fd5b8101908080519060200190929190505050505050565b600a60009054906101000a900473ffffffffffffffffffffffffffffffffffffffff1681565b60011515600760009054906101000a900460ff161515146113c5576040517f08c379a000000000000000000000000000000000000000000000000000000000815260040180806020018281038252601c8152602001807f636f6e7472616374206e6f742079657420696e697469616c697a65640000000081525060200191505060405180910390fd5b60011515600760019054906101000a900460ff16151514611431576040517f08c379a000000000000000000000000000000000000000000000000000000000815260040180806020018281038252602181526020018061525d6021913960400191505060405180910390fd5b611439612e40565b6000600d54116114b1576040517f08c379a00000000000000000000000000000000000000000000000000000000081526004018080602001828103825260158152602001807f746865726520617265206e6f2061756374696f6e73000000000000000000000081525060200191505060405180910390fd5b6000828290501161152a576040517f08c379a00000000000000000000000000000000000000000000000000000000081526004018080602001828103825260188152602001807f61756374696f6e496473206c69737420697320656d707479000000000000000081525060200191505060405180910390fd5b600d54828290501115611588576040517f08c379a00000000000000000000000000000000000000000000000000000000081526004018080602001828103825260268152602001806151366026913960400191505060405180910390fd5b600080905060008090505b8383905081101561187b5760008484838181106115ac57fe5b9050602002013590506000811180156115c75750600d548111155b611639576040517f08c379a00000000000000000000000000000000000000000000000000000000081526004018080602001828103825260188152602001807f61756374696f6e496420646f6573206e6f74206578697374000000000000000081525060200191505060405180910390fd5b60018081111561164557fe5b6006600083815260200190815260200160002060020160009054906101000a900460ff16600181111561167457fe5b146116ca576040517f08c379a00000000000000000000000000000000000000000000000000000000081526004018080602001828103825260248152602001806152396024913960400191505060405180910390fd5b3373ffffffffffffffffffffffffffffffffffffffff166006600083815260200190815260200160002060020160019054906101000a900473ffffffffffffffffffffffffffffffffffffffff1673ffffffffffffffffffffffffffffffffffffffff1614156117a2576040517f08c379a000000000000000000000000000000000000000000000000000000000815260040180806020018281038252601f8152602001807f61756374696f6e2077696e6e65722063616e206e6f742077697468647261770081525060200191505060405180910390fd5b6000600e600083815260200190815260200160002060003373ffffffffffffffffffffffffffffffffffffffff1673ffffffffffffffffffffffffffffffffffffffff168152602001908152602001600020549050600081111561186c576000600e600084815260200190815260200160002060003373ffffffffffffffffffffffffffffffffffffffff1673ffffffffffffffffffffffffffffffffffffffff168152602001908152602001600020819055506118698185612f2390919063ffffffff16565b93505b50508080600101915050611593565b50600081116118f2576040517f08c379a00000000000000000000000000000000000000000000000000000000081526004018080602001828103825260138152602001807f6e6f7468696e6720746f2077697468647261770000000000000000000000000081525060200191505060405180910390fd5b600760029054906101000a900473ffffffffffffffffffffffffffffffffffffffff1673ffffffffffffffffffffffffffffffffffffffff1663a9059cbb33836040518363ffffffff1660e01b8152600401808373ffffffffffffffffffffffffffffffffffffffff1673ffffffffffffffffffffffffffffffffffffffff16815260200182815260200192505050602060405180830381600087803b15801561199b57600080fd5b505af11580156119af573d6000803e3d6000fd5b505050506040513d60208110156119c557600080fd5b810190808051906020019092919050505050505050565b6000806000806000806000871180156119f75750600d548711155b611a69576040517f08c379a00000000000000000000000000000000000000000000000000000000081526004018080602001828103825260168152602001807f61756374696f6e20646f6573206e6f742065786973740000000000000000000081525060200191505060405180910390fd5b611a71615061565b6006600089815260200190815260200160002060405180608001604052908160008201548152602001600182015481526020016002820160009054906101000a900460ff166001811115611ac157fe5b6001811115611acc57fe5b81526020016002820160019054906101000a900473ffffffffffffffffffffffffffffffffffffffff1673ffffffffffffffffffffffffffffffffffffffff1673ffffffffffffffffffffffffffffffffffffffff168152505090506000600e60008a81526020019081526020016000206000836060015173ffffffffffffffffffffffffffffffffffffffff1673ffffffffffffffffffffffffffffffffffffffff16815260200190815260200160002054905060006001811115611b8e57fe5b82604001516001811115611b9e57fe5b148015611bfe57506000800160009054906101000a900473ffffffffffffffffffffffffffffffffffffffff1673ffffffffffffffffffffffffffffffffffffffff16826060015173ffffffffffffffffffffffffffffffffffffffff16145b15611c1e57611c1b60006002015482612f2390919063ffffffff16565b90505b8882604001516001811115611c2f57fe5b83600001518460200151856060015185975097509750975097509750505091939550919395565b600960009054906101000a900473ffffffffffffffffffffffffffffffffffffffff1681565b60011515600760009054906101000a900460ff16151514611d05576040517f08c379a000000000000000000000000000000000000000000000000000000000815260040180806020018281038252601c8152602001807f636f6e7472616374206e6f742079657420696e697469616c697a65640000000081525060200191505060405180910390fd5b60011515600760019054906101000a900460ff16151514611d71576040517f08c379a000000000000000000000000000000000000000000000000000000000815260040180806020018281038252602181526020018061525d6021913960400191505060405180910390fd5b611d79612e40565b6000800160009054906101000a900473ffffffffffffffffffffffffffffffffffffffff1673ffffffffffffffffffffffffffffffffffffffff163373ffffffffffffffffffffffffffffffffffffffff1614611e3e576040517f08c379a00000000000000000000000000000000000000000000000000000000081526004018080602001828103825260178152602001807f63616c6c6572206973206e6f74207a6f6e656f776e657200000000000000000081525060200191505060405180910390fd5b6000600d541480611e895750600180811115611e5657fe5b60066000600d54815260200190815260200160002060020160009054906101000a900460ff166001811115611e8757fe5b145b611ede576040517f08c379a000000000000000000000000000000000000000000000000000000000815260040180806020018281038252602481526020018061515c6024913960400191505060405180910390fd5b600080600301549050611eef612f42565b600760029054906101000a900473ffffffffffffffffffffffffffffffffffffffff1673ffffffffffffffffffffffffffffffffffffffff1663a9059cbb33836040518363ffffffff1660e01b8152600401808373ffffffffffffffffffffffffffffffffffffffff1673ffffffffffffffffffffffffffffffffffffffff16815260200182815260200192505050602060405180830381600087803b158015611f9857600080fd5b505af1158015611fac573d6000803e3d6000fd5b505050506040513d6020811015611fc257600080fd5b81019080805190602001909291905050505050565b6000806000806000806000800160009054906101000a900473ffffffffffffffffffffffffffffffffffffffff16600060010154600060020154600060030154600060040154600060050154955095509550955095509550909192939495565b60008060000160009054906101000a900473ffffffffffffffffffffffffffffffffffffffff16905090565b60001515600760009054906101000a900460ff161515146120ec576040517f08c379a000000000000000000000000000000000000000000000000000000000815260040180806020018281038252601c8152602001807f636f6e747261637420616c726561647920696e697469616c697a65640000000081525060200191505060405180910390fd5b68056bc75e2d6310000085101561214e576040517f08c379a00000000000000000000000000000000000000000000000000000000081526004018080602001828103825260338152602001806151036033913960400191505060405180910390fd5b87600b60146101000a81548161ffff021916908360f01c021790555086600b60166101000a81548165ffffffffffff021916908360d01c021790555083600760026101000a81548173ffffffffffffffffffffffffffffffffffffffff021916908373ffffffffffffffffffffffffffffffffffffffff16021790555082600860006101000a81548173ffffffffffffffffffffffffffffffffffffffff021916908373ffffffffffffffffffffffffffffffffffffffff16021790555081600960006101000a81548173ffffffffffffffffffffffffffffffffffffffff021916908373ffffffffffffffffffffffffffffffffffffffff16021790555080600b60006101000a81548173ffffffffffffffffffffffffffffffffffffffff021916908373ffffffffffffffffffffffffffffffffffffffff160217905550856000800160006101000a81548173ffffffffffffffffffffffffffffffffffffffff021916908373ffffffffffffffffffffffffffffffffffffffff16021790555042600060010181905550846000600201819055508460006003018190555042600060040181905550600080600501819055506001600760006101000a81548160ff0219169083151502179055506000600d819055505050505050505050565b600b60009054906101000a900473ffffffffffffffffffffffffffffffffffffffff1681565b60011515600760009054906101000a900460ff161515146123df576040517f08c379a000000000000000000000000000000000000000000000000000000000815260040180806020018281038252601c8152602001807f636f6e7472616374206e6f742079657420696e697469616c697a65640000000081525060200191505060405180910390fd5b60011515600760019054906101000a900460ff1615151461244b576040517f08c379a000000000000000000000000000000000000000000000000000000000815260040180806020018281038252602181526020018061525d6021913960400191505060405180910390fd5b600860009054906101000a900473ffffffffffffffffffffffffffffffffffffffff1673ffffffffffffffffffffffffffffffffffffffff1663923ae12b600b60149054906101000a900460f01b6040518263ffffffff1660e01b815260040180827dffffffffffffffffffffffffffffffffffffffffffffffffffffffffffff19167dffffffffffffffffffffffffffffffffffffffffffffffffffffffffffff1916815260200191505060206040518083038186803b15801561250f57600080fd5b505afa158015612523573d6000803e3d6000fd5b505050506040513d602081101561253957600080fd5b81019080805190602001909291905050506125bc576040517f08c379a00000000000000000000000000000000000000000000000000000000081526004018080602001828103825260138152602001807f636f756e7472792069732064697361626c65640000000000000000000000000081525060200191505060405180910390fd5b600760029054906101000a900473ffffffffffffffffffffffffffffffffffffffff1673ffffffffffffffffffffffffffffffffffffffff163373ffffffffffffffffffffffffffffffffffffffff1614612662576040517f08c379a00000000000000000000000000000000000000000000000000000000081526004018080602001828103825260228152602001806151806022913960400191505060405180910390fd5b600061266f8260006132d9565b9050604060f81b7effffffffffffffffffffffffffffffffffffffffffffffffffffffffffffff1916817effffffffffffffffffffffffffffffffffffffffffffffffffffffffffffff1916148061270e5750604160f81b7effffffffffffffffffffffffffffffffffffffffffffffffffffffffffffff1916817effffffffffffffffffffffffffffffffffffffffffffffffffffffffffffff1916145b806127605750604260f81b7effffffffffffffffffffffffffffffffffffffffffffffffffffffffffffff1916817effffffffffffffffffffffffffffffffffffffffffffffffffffffffffffff1916145b806127b25750604360f81b7effffffffffffffffffffffffffffffffffffffffffffffffffffffffffffff1916817effffffffffffffffffffffffffffffffffffffffffffffffffffffffffffff1916145b612824576040517f08c379a000000000000000000000000000000000000000000000000000000000815260040180806020018281038252601b8152602001807f646964206e6f74206d61746368205a6f6e652066756e6374696f6e000000000081525060200191505060405180910390fd5b604060f81b7effffffffffffffffffffffffffffffffffffffffffffffffffffffffffffff1916817effffffffffffffffffffffffffffffffffffffffffffffffffffffffffffff1916141561287a575061299f565b612882612e40565b604160f81b7effffffffffffffffffffffffffffffffffffffffffffffffffffffffffffff1916817effffffffffffffffffffffffffffffffffffffffffffffffffffffffffffff191614156128e1576128dc848461336a565b61299d565b604260f81b7effffffffffffffffffffffffffffffffffffffffffffffffffffffffffffff1916817effffffffffffffffffffffffffffffffffffffffffffffffffffffffffffff191614156129405761293b848461361c565b61299c565b604360f81b7effffffffffffffffffffffffffffffffffffffffffffffffffffffffffffff1916817effffffffffffffffffffffffffffffffffffffffffffffffffffffffffffff1916141561299b5761299a8484613897565b5b5b5b505b505050565b60011515600760009054906101000a900460ff16151514612a2d576040517f08c379a000000000000000000000000000000000000000000000000000000000815260040180806020018281038252601c8152602001807f636f6e7472616374206e6f742079657420696e697469616c697a65640000000081525060200191505060405180910390fd5b60011515600760019054906101000a900460ff16151514612a99576040517f08c379a000000000000000000000000000000000000000000000000000000000815260040180806020018281038252602181526020018061525d6021913960400191505060405180910390fd5b612aa1612e40565b6000600c60003373ffffffffffffffffffffffffffffffffffffffff1673ffffffffffffffffffffffffffffffffffffffff16815260200190815260200160002054905060008111612b5b576040517f08c379a00000000000000000000000000000000000000000000000000000000081526004018080602001828103825260138152602001807f6e6f7468696e6720746f2077697468647261770000000000000000000000000081525060200191505060405180910390fd5b6000811115612c8f576000600c60003373ffffffffffffffffffffffffffffffffffffffff1673ffffffffffffffffffffffffffffffffffffffff16815260200190815260200160002081905550600760029054906101000a900473ffffffffffffffffffffffffffffffffffffffff1673ffffffffffffffffffffffffffffffffffffffff1663a9059cbb33836040518363ffffffff1660e01b8152600401808373ffffffffffffffffffffffffffffffffffffffff1673ffffffffffffffffffffffffffffffffffffffff16815260200182815260200192505050602060405180830381600087803b158015612c5257600080fd5b505af1158015612c66573d6000803e3d6000fd5b505050506040513d6020811015612c7c57600080fd5b8101908080519060200190929190505050505b50565b68056bc75e2d6310000081565b600b60149054906101000a900460f01b81565b600860009054906101000a900473ffffffffffffffffffffffffffffffffffffffff1681565b60008282604051602001808379ffffffffffffffffffffffffffffffffffffffffffffffffffff191679ffffffffffffffffffffffffffffffffffffffffffffffffffff191681526006018273ffffffffffffffffffffffffffffffffffffffff1673ffffffffffffffffffffffffffffffffffffffff1660601b81526014019250505060405160208183030381529060405280519060200120905092915050565b600080612da46005612d96606486612e1a90919063ffffffff16565b612de090919063ffffffff16565b9150612db98284612dc090919063ffffffff16565b9050915091565b600082821115612dcf57600080fd5b600082840390508091505092915050565b600080831415612df35760009050612e14565b6000828402905082848281612e0457fe5b0414612e0f57600080fd5b809150505b92915050565b6000808211612e2857600080fd5b6000828481612e3357fe5b0490508091505092915050565b6000600d54118015612e8d575060006001811115612e5a57fe5b60066000600d54815260200190815260200160002060020160009054906101000a900460ff166001811115612e8b57fe5b145b15612ebf5760066000600d548152602001908152602001600020600101544210612eba57612eb9613af3565b5b612f21565b600073ffffffffffffffffffffffffffffffffffffffff166000800160009054906101000a900473ffffffffffffffffffffffffffffffffffffffff1673ffffffffffffffffffffffffffffffffffffffff1614612f2057612f1f613f2d565b5b5b565b600080828401905083811015612f3857600080fd5b8091505092915050565b612fbd600060030154600c60008060000160009054906101000a900473ffffffffffffffffffffffffffffffffffffffff1673ffffffffffffffffffffffffffffffffffffffff1673ffffffffffffffffffffffffffffffffffffffff16815260200190815260200160002054612f2390919063ffffffff16565b600c60008060000160009054906101000a900473ffffffffffffffffffffffffffffffffffffffff1673ffffffffffffffffffffffffffffffffffffffff1673ffffffffffffffffffffffffffffffffffffffff16815260200190815260200160002081905550600a60009054906101000a900473ffffffffffffffffffffffffffffffffffffffff1673ffffffffffffffffffffffffffffffffffffffff16639e1e61606040518163ffffffff1660e01b815260040160206040518083038186803b15801561308c57600080fd5b505afa1580156130a0573d6000803e3d6000fd5b505050506040513d60208110156130b657600080fd5b81019080805190602001909291905050501561314f57600a60009054906101000a900473ffffffffffffffffffffffffffffffffffffffff1673ffffffffffffffffffffffffffffffffffffffff1663b030b1f76040518163ffffffff1660e01b8152600401600060405180830381600087803b15801561313657600080fd5b505af115801561314a573d6000803e3d6000fd5b505050505b600960009054906101000a900473ffffffffffffffffffffffffffffffffffffffff1673ffffffffffffffffffffffffffffffffffffffff1663f00d4b5d60008060000160009054906101000a900473ffffffffffffffffffffffffffffffffffffffff166040518363ffffffff1660e01b8152600401808373ffffffffffffffffffffffffffffffffffffffff1673ffffffffffffffffffffffffffffffffffffffff1681526020018273ffffffffffffffffffffffffffffffffffffffff1673ffffffffffffffffffffffffffffffffffffffff16815260200192505050600060405180830381600087803b15801561324957600080fd5b505af115801561325d573d6000803e3d6000fd5b5050505060008060000160006101000a81548173ffffffffffffffffffffffffffffffffffffffff021916908373ffffffffffffffffffffffffffffffffffffffff1602179055506000806001018190555060008060020181905550600080600301819055506000806004018190555060008060050181905550565b60006001820183511015613355576040517f08c379a00000000000000000000000000000000000000000000000000000000081526004018080602001828103825260108152602001807f206e6f74206c6f6e6720656e6f7567680000000000000000000000000000000081525060200191505060405180910390fd5b60008260208501015190508091505092915050565b600073ffffffffffffffffffffffffffffffffffffffff166000800160009054906101000a900473ffffffffffffffffffffffffffffffffffffffff1673ffffffffffffffffffffffffffffffffffffffff1614613430576040517f08c379a000000000000000000000000000000000000000000000000000000000815260040180806020018281038252601d8152602001807f63616e206e6f7420636c61696d207a6f6e652077697468206f776e657200000081525060200191505060405180910390fd5b68056bc75e2d63100000811015613492576040517f08c379a00000000000000000000000000000000000000000000000000000000081526004018080602001828103825260318152602001806150ab6031913960400191505060405180910390fd5b600960009054906101000a900473ffffffffffffffffffffffffffffffffffffffff1673ffffffffffffffffffffffffffffffffffffffff1663f00d4b5d836000800160009054906101000a900473ffffffffffffffffffffffffffffffffffffffff166040518363ffffffff1660e01b8152600401808373ffffffffffffffffffffffffffffffffffffffff1673ffffffffffffffffffffffffffffffffffffffff1681526020018273ffffffffffffffffffffffffffffffffffffffff1673ffffffffffffffffffffffffffffffffffffffff16815260200192505050600060405180830381600087803b15801561358b57600080fd5b505af115801561359f573d6000803e3d6000fd5b50505050816000800160006101000a81548173ffffffffffffffffffffffffffffffffffffffff021916908373ffffffffffffffffffffffffffffffffffffffff16021790555042600060010181905550806000600201819055508060006003018190555042600060040181905550600080600501819055505050565b600073ffffffffffffffffffffffffffffffffffffffff166000800160009054906101000a900473ffffffffffffffffffffffffffffffffffffffff1673ffffffffffffffffffffffffffffffffffffffff1614156136e3576040517f08c379a00000000000000000000000000000000000000000000000000000000081526004018080602001828103825260118152602001807f7a6f6e6520686173206e6f206f776e657200000000000000000000000000000081525060200191505060405180910390fd5b6000600d541180156137305750600060018111156136fd57fe5b60066000600d54815260200190815260200160002060020160009054906101000a900460ff16600181111561372e57fe5b145b156137445761373f8282614588565b613893565b6000806005015414156137e55761376c6202a300600060010154612f2390919063ffffffff16565b42116137e0576040517f08c379a000000000000000000000000000000000000000000000000000000000815260040180806020018281038252601f8152602001807f636f6f6c646f776e20706572696f6420646964206e6f7420656e64207965740081525060200191505060405180910390fd5b613888565b6138136202a30060066000600d54815260200190815260200160002060010154612f2390919063ffffffff16565b4211613887576040517f08c379a000000000000000000000000000000000000000000000000000000000815260040180806020018281038252601f8152602001807f636f6f6c646f776e20706572696f6420646964206e6f7420656e64207965740081525060200191505060405180910390fd5b5b6138928282614c8d565b5b5050565b600073ffffffffffffffffffffffffffffffffffffffff166000800160009054906101000a900473ffffffffffffffffffffffffffffffffffffffff1673ffffffffffffffffffffffffffffffffffffffff16141561395e576040517f08c379a00000000000000000000000000000000000000000000000000000000081526004018080602001828103825260118152602001807f7a6f6e6520686173206e6f206f776e657200000000000000000000000000000081525060200191505060405180910390fd5b6000800160009054906101000a900473ffffffffffffffffffffffffffffffffffffffff1673ffffffffffffffffffffffffffffffffffffffff168273ffffffffffffffffffffffffffffffffffffffff1614613a23576040517f08c379a00000000000000000000000000000000000000000000000000000000081526004018080602001828103825260178152602001807f63616c6c6572206973206e6f74207a6f6e656f776e657200000000000000000081525060200191505060405180910390fd5b6000600d541480613a6e5750600180811115613a3b57fe5b60066000600d54815260200190815260200160002060020160009054906101000a900460ff166001811115613a6c57fe5b145b613ac3576040517f08c379a000000000000000000000000000000000000000000000000000000000815260040180806020018281038252602381526020018061527e6023913960400191505060405180910390fd5b6000806003015490506000613ae18383612f2390919063ffffffff16565b90508060006003018190555050505050565b600060066000600d548152602001908152602001600020905060018160020160006101000a81548160ff02191690836001811115613b2d57fe5b02179055506000600e6000600d54815260200190815260200160002060008360020160019054906101000a900473ffffffffffffffffffffffffffffffffffffffff1673ffffffffffffffffffffffffffffffffffffffff1673ffffffffffffffffffffffffffffffffffffffff168152602001908152602001600020549050600060066000600d5481526020019081526020016000206001015490508260020160019054906101000a900473ffffffffffffffffffffffffffffffffffffffff1673ffffffffffffffffffffffffffffffffffffffff166000800160009054906101000a900473ffffffffffffffffffffffffffffffffffffffff1673ffffffffffffffffffffffffffffffffffffffff161415613c9957613c5e82600060020154612f2390919063ffffffff16565b600060020181905550613c7f82600060030154612f2390919063ffffffff16565b600060030181905550600d54600060050181905550613e68565b613ca1612f42565b600960009054906101000a900473ffffffffffffffffffffffffffffffffffffffff1673ffffffffffffffffffffffffffffffffffffffff1663f00d4b5d8460020160019054906101000a900473ffffffffffffffffffffffffffffffffffffffff166000800160009054906101000a900473ffffffffffffffffffffffffffffffffffffffff166040518363ffffffff1660e01b8152600401808373ffffffffffffffffffffffffffffffffffffffff1673ffffffffffffffffffffffffffffffffffffffff1681526020018273ffffffffffffffffffffffffffffffffffffffff1673ffffffffffffffffffffffffffffffffffffffff16815260200192505050600060405180830381600087803b158015613dbe57600080fd5b505af1158015613dd2573d6000803e3d6000fd5b505050508260020160019054906101000a900473ffffffffffffffffffffffffffffffffffffffff166000800160006101000a81548173ffffffffffffffffffffffffffffffffffffffff021916908373ffffffffffffffffffffffffffffffffffffffff160217905550806000600101819055508160006002018190555081600060030181905550600d546000600501819055505b600080613e7b8342600060020154610bb7565b91509150613e9782600060030154612dc090919063ffffffff16565b600060030181905550426000600401819055508460020160019054906101000a900473ffffffffffffffffffffffffffffffffffffffff1673ffffffffffffffffffffffffffffffffffffffff167fc358e8e3f205b5e7453abd5cbac388ca4552b887b69001bc972b88610c749035600d5486604051808381526020018281526020019250505060405180910390a25050505050565b4260006004015410613f3e57614586565b600080613f5660006004015442600060020154610bb7565b91509150600060030154821061413957600080600301549050600080600a60009054906101000a900473ffffffffffffffffffffffffffffffffffffffff1673ffffffffffffffffffffffffffffffffffffffff16635e52a00b6040518163ffffffff1660e01b8152600401604080518083038186803b158015613fd957600080fd5b505afa158015613fed573d6000803e3d6000fd5b505050506040513d604081101561400357600080fd5b8101908080519060200190929190805190602001909291905050509150915061402a612f42565b600760029054906101000a900473ffffffffffffffffffffffffffffffffffffffff1673ffffffffffffffffffffffffffffffffffffffff1663a9059cbb600b60009054906101000a900473ffffffffffffffffffffffffffffffffffffffff16856040518363ffffffff1660e01b8152600401808373ffffffffffffffffffffffffffffffffffffffff1673ffffffffffffffffffffffffffffffffffffffff16815260200182815260200192505050602060405180830381600087803b1580156140f557600080fd5b505af1158015614109573d6000803e3d6000fd5b505050506040513d602081101561411f57600080fd5b810190808051906020019092919050505050505050614583565b61415182600060030154612dc090919063ffffffff16565b60006003018190555042600060040181905550600080600a60009054906101000a900473ffffffffffffffffffffffffffffffffffffffff1673ffffffffffffffffffffffffffffffffffffffff16635e52a00b6040518163ffffffff1660e01b8152600401604080518083038186803b1580156141ce57600080fd5b505afa1580156141e2573d6000803e3d6000fd5b505050506040513d60408110156141f857600080fd5b81019080805190602001909291908051906020019092919050505091509150600073ffffffffffffffffffffffffffffffffffffffff168273ffffffffffffffffffffffffffffffffffffffff16141580156142545750600081115b156144785760006142826103e86142748488612de090919063ffffffff16565b612e1a90919063ffffffff16565b9050600760029054906101000a900473ffffffffffffffffffffffffffffffffffffffff1673ffffffffffffffffffffffffffffffffffffffff1663a9059cbb84836040518363ffffffff1660e01b8152600401808373ffffffffffffffffffffffffffffffffffffffff1673ffffffffffffffffffffffffffffffffffffffff16815260200182815260200192505050602060405180830381600087803b15801561432d57600080fd5b505af1158015614341573d6000803e3d6000fd5b505050506040513d602081101561435757600080fd5b810190808051906020019092919050505050600760029054906101000a900473ffffffffffffffffffffffffffffffffffffffff1673ffffffffffffffffffffffffffffffffffffffff1663a9059cbb600b60009054906101000a900473ffffffffffffffffffffffffffffffffffffffff168388036040518363ffffffff1660e01b8152600401808373ffffffffffffffffffffffffffffffffffffffff1673ffffffffffffffffffffffffffffffffffffffff16815260200182815260200192505050602060405180830381600087803b15801561443657600080fd5b505af115801561444a573d6000803e3d6000fd5b505050506040513d602081101561446057600080fd5b81019080805190602001909291905050505050614580565b600760029054906101000a900473ffffffffffffffffffffffffffffffffffffffff1673ffffffffffffffffffffffffffffffffffffffff1663a9059cbb600b60009054906101000a900473ffffffffffffffffffffffffffffffffffffffff16866040518363ffffffff1660e01b8152600401808373ffffffffffffffffffffffffffffffffffffffff1673ffffffffffffffffffffffffffffffffffffffff16815260200182815260200192505050602060405180830381600087803b15801561454357600080fd5b505af1158015614557573d6000803e3d6000fd5b505050506040513d602081101561456d57600080fd5b8101908080519060200190929190505050505b50505b50505b565b600060066000600d54815260200190815260200160002090508060020160019054906101000a900473ffffffffffffffffffffffffffffffffffffffff1673ffffffffffffffffffffffffffffffffffffffff168373ffffffffffffffffffffffffffffffffffffffff161415614667576040517f08c379a00000000000000000000000000000000000000000000000000000000081526004018080602001828103825260198152602001807f68696768657374206269646465722063616e6e6f74206269640000000000000081525060200191505060405180910390fd5b6000600e6000600d54815260200190815260200160002060008360020160019054906101000a900473ffffffffffffffffffffffffffffffffffffffff1673ffffffffffffffffffffffffffffffffffffffff1673ffffffffffffffffffffffffffffffffffffffff1681526020019081526020016000205490506000800160009054906101000a900473ffffffffffffffffffffffffffffffffffffffff1673ffffffffffffffffffffffffffffffffffffffff168473ffffffffffffffffffffffffffffffffffffffff16141561486f5760006147a184600e6000600d54815260200190815260200160002060008873ffffffffffffffffffffffffffffffffffffffff1673ffffffffffffffffffffffffffffffffffffffff16815260200190815260200160002054612f2390919063ffffffff16565b9050816147bc82600060020154612f2390919063ffffffff16565b11614812576040517f08c379a00000000000000000000000000000000000000000000000000000000081526004018080602001828103825260318152602001806152086031913960400191505060405180910390fd5b80600e6000600d54815260200190815260200160002060008773ffffffffffffffffffffffffffffffffffffffff1673ffffffffffffffffffffffffffffffffffffffff1681526020019081526020016000208190555050614bec565b6000600e6000600d54815260200190815260200160002060008673ffffffffffffffffffffffffffffffffffffffff1673ffffffffffffffffffffffffffffffffffffffff168152602001908152602001600020541415614ab4576000806148d685612d7a565b9150915082811161494f576040517f08c379a00000000000000000000000000000000000000000000000000000000081526004018080602001828103825260208152602001807f626964206973206c657373207468616e2063757272656e74206869676865737481525060200191505060405180910390fd5b80600e6000600d54815260200190815260200160002060008873ffffffffffffffffffffffffffffffffffffffff1673ffffffffffffffffffffffffffffffffffffffff16815260200190815260200160002081905550600760029054906101000a900473ffffffffffffffffffffffffffffffffffffffff1673ffffffffffffffffffffffffffffffffffffffff1663a9059cbb600b60009054906101000a900473ffffffffffffffffffffffffffffffffffffffff16846040518363ffffffff1660e01b8152600401808373ffffffffffffffffffffffffffffffffffffffff1673ffffffffffffffffffffffffffffffffffffffff16815260200182815260200192505050602060405180830381600087803b158015614a7157600080fd5b505af1158015614a85573d6000803e3d6000fd5b505050506040513d6020811015614a9b57600080fd5b8101908080519060200190929190505050505050614beb565b6000614b1b84600e6000600d54815260200190815260200160002060008873ffffffffffffffffffffffffffffffffffffffff1673ffffffffffffffffffffffffffffffffffffffff16815260200190815260200160002054612f2390919063ffffffff16565b9050818111614b92576040517f08c379a00000000000000000000000000000000000000000000000000000000081526004018080602001828103825260208152602001807f626964206973206c657373207468616e2063757272656e74206869676865737481525060200191505060405180910390fd5b80600e6000600d54815260200190815260200160002060008773ffffffffffffffffffffffffffffffffffffffff1673ffffffffffffffffffffffffffffffffffffffff16815260200190815260200160002081905550505b5b838260020160016101000a81548173ffffffffffffffffffffffffffffffffffffffff021916908373ffffffffffffffffffffffffffffffffffffffff1602179055508373ffffffffffffffffffffffffffffffffffffffff167f19421268847f42dd61705778018ddfc43bcdce8517e7a630acb12f122c70948184600d54604051808381526020018281526020019250505060405180910390a250505050565b6000800160009054906101000a900473ffffffffffffffffffffffffffffffffffffffff1673ffffffffffffffffffffffffffffffffffffffff168273ffffffffffffffffffffffffffffffffffffffff161415614d36576040517f08c379a00000000000000000000000000000000000000000000000000000000081526004018080602001828103825260218152602001806151c36021913960400191505060405180910390fd5b600080614d4283612d7a565b915091506000600201548111614da3576040517f08c379a00000000000000000000000000000000000000000000000000000000081526004018080602001828103825260248152602001806151e46024913960400191505060405180910390fd5b6000600d6000815460010191905081905590506040518060800160405280428152602001614ddd6201518042612f2390919063ffffffff16565b815260200160006001811115614def57fe5b81526020018673ffffffffffffffffffffffffffffffffffffffff1681525060066000838152602001908152602001600020600082015181600001556020820151816001015560408201518160020160006101000a81548160ff02191690836001811115614e5957fe5b021790555060608201518160020160016101000a81548173ffffffffffffffffffffffffffffffffffffffff021916908373ffffffffffffffffffffffffffffffffffffffff16021790555090505081600e600083815260200190815260200160002060008773ffffffffffffffffffffffffffffffffffffffff1673ffffffffffffffffffffffffffffffffffffffff16815260200190815260200160002081905550600760029054906101000a900473ffffffffffffffffffffffffffffffffffffffff1673ffffffffffffffffffffffffffffffffffffffff1663a9059cbb600b60009054906101000a900473ffffffffffffffffffffffffffffffffffffffff16856040518363ffffffff1660e01b8152600401808373ffffffffffffffffffffffffffffffffffffffff1673ffffffffffffffffffffffffffffffffffffffff16815260200182815260200192505050602060405180830381600087803b158015614fc857600080fd5b505af1158015614fdc573d6000803e3d6000fd5b505050506040513d6020811015614ff257600080fd5b8101908080519060200190929190505050508473ffffffffffffffffffffffffffffffffffffffff167f4560b4b4d2eec0d9c2feb420083427dbdb8371b8df7fc5471791ebe492622f698583604051808381526020018281526020019250505060405180910390a25050505050565b604051806080016040528060008152602001600081526020016000600181111561508757fe5b8152602001600073ffffffffffffffffffffffffffffffffffffffff168152509056fe6e656564206174206c65617374206d696e696d756d207a6f6e65207374616b6520616d6f756e742028313030204454482963616e6e6f74207769746864726177207768696c652061756374696f6e206973206163746976657a6f6e6520647468207374616b652073686f756c6c64206265206174206c65617374206d696e696d756d20283130304454482961756374696f6e496473206c697374206973206c6f6e676572207468616e20616c6c6f77656463616e6e6f742072656c65617365207768696c652061756374696f6e2072756e6e696e6763616e206f6e6c792062652063616c6c65642062792064746820636f6e747261637474656c6c657220636f6e747261637420616c726561647920636f6e6e65637465647a6f6e656f776e65722063616e6e6f7420737461727420616e2061756374696f6e626964206973206c6f776572207468616e2063757272656e74207a6f6e65207374616b65626964202b20616c7265616479207374616b6564206973206c657373207468616e2063757272656e74206869676865737463616e6e6f742077697468647261772066726f6d2072756e6e696e672061756374696f6e74656c6c657220636f6e7472616374206e6f742079657420636f6e6e656374656463616e6e6f7420746f70207570207768696c652061756374696f6e2072756e6e696e67a265627a7a723058209095dd526642b1ae4811a0565c72ae98875673e91c04d9942835a57dbe9814c264736f6c634300050a0032",
  "source": "pragma solidity ^0.5.10;\n\nimport \"openzeppelin-solidity/contracts/math/SafeMath.sol\";\n\nimport \"../interfaces/IERC223ReceivingContract.sol\";\nimport \"../interfaces/IDetherToken.sol\";\nimport \"../interfaces/IGeoRegistry.sol\";\nimport \"../interfaces/IZoneFactory.sol\";\nimport \"../interfaces/IZone.sol\";\nimport \"../interfaces/ITeller.sol\";\n\ncontract Zone is IERC223ReceivingContract {\n  // ------------------------------------------------\n  //\n  // Library init\n  //\n  // ------------------------------------------------\n\n  using SafeMath for uint;\n\n  // ------------------------------------------------\n  //\n  // Enums\n  //\n  // ------------------------------------------------\n\n  enum AuctionState { Started, Ended }\n\n  // ------------------------------------------------\n  //\n  // Structs\n  //\n  // ------------------------------------------------\n\n  // NOTE:\n  // evm will convert to uint256 when doing calculations, so 1 time higher storage cost\n  // will be less than all the increased gas costs if we were to use smaller uints in the struct\n\n  struct ZoneOwner {\n    address addr;\n    uint startTime;\n    uint staked;\n    uint balance;\n    uint lastTaxTime;\n    uint auctionId;\n  }\n\n  struct Auction {\n    // since we do a lot of calcuations with these uints, it's best to leave them uint256\n    // evm will convert to uint256 anyways when doing calculations\n    uint startTime;\n    uint endTime;\n    AuctionState state;\n    address highestBidder;\n  }\n\n  // ------------------------------------------------\n  //\n  // Variables Private\n  //\n  // ------------------------------------------------\n\n  uint public constant MIN_STAKE = 100 * 1 ether; // DTH, which is also 18 decimals!\n  uint private constant BID_PERIOD = 24 * 1 hours;\n  uint private constant COOLDOWN_PERIOD = 48 * 1 hours;\n  uint private constant ENTRY_FEE_PERCENTAGE = 5; // 1%\n  uint private constant TAX_PERCENTAGE = 4; // 0,04% daily / around 15% yearly\n\n  ZoneOwner private zoneOwner;\n\n  mapping(uint => Auction) private auctionIdToAuction;\n\n  // ------------------------------------------------\n  //\n  // Variables Public\n  //\n  // ------------------------------------------------\n\n  bool private inited;\n  bool private tellerConnected;\n\n  IDetherToken public dth;\n  IGeoRegistry public geo;\n  IZoneFactory public zoneFactory;\n  ITeller public teller;\n  address public taxCollector;\n\n  bytes2 public country;\n  bytes6 public geohash;\n\n  mapping(address => uint) public withdrawableDth;\n\n  uint public currentAuctionId; // starts at 0, first auction will get id 1, etc.\n\n  //      auctionId       bidder     dthAmount\n  mapping(uint => mapping(address => uint)) public auctionBids;\n\n  // ------------------------------------------------\n  //\n  // Events\n  //\n  // ------------------------------------------------\n\n  event AuctionCreated(address indexed sender, uint auctionId, uint bidAmount);\n  event AuctionEnded(address indexed newOwner, uint auctionId,  uint winingBid);\n  event Bid(address indexed sender, uint auctionId, uint bidAmount);\n\n\n  // ------------------------------------------------\n  //\n  // Modifiers\n  //\n  // ------------------------------------------------\n\n  modifier onlyWhenInited() {\n    require(inited == true, \"contract not yet initialized\");\n    _;\n  }\n  modifier onlyWhenNotInited() {\n    require(inited == false, \"contract already initialized\");\n    _;\n  }\n\n  modifier onlyWhenTellerConnected() {\n    require(tellerConnected == true, \"teller contract not yet connected\");\n    _;\n  }\n  modifier onlyWhenTellerNotConnected() {\n    require(tellerConnected == false, \"teller contract already connected\");\n    _;\n  }\n\n  modifier onlyWhenZoneEnabled {\n    require(geo.zoneIsEnabled(country), \"country is disabled\");\n    _;\n  }\n\n  modifier updateState {\n    _processState();\n    _;\n  }\n\n  modifier onlyWhenZoneHasOwner {\n    require(zoneOwner.addr != address(0), \"zone has no owner\");\n    _;\n  }\n\n  modifier onlyWhenCallerIsNotZoneOwner {\n    require(msg.sender != zoneOwner.addr, \"can not be called by zoneowner\");\n    _;\n  }\n\n  modifier onlyWhenCallerIsZoneOwner {\n    require(msg.sender == zoneOwner.addr, \"caller is not zoneowner\");\n    _;\n  }\n\n  modifier onlyByTellerContract {\n    require(msg.sender == address(teller), \"can only be called by teller contract\");\n    _;\n  }\n\n  modifier onlyWhenZoneHasNoOwner {\n    require(zoneOwner.addr == address(0), \"can not claim zone with owner\");\n    _;\n  }\n\n  // ------------------------------------------------\n  //\n  // Constructor\n  //\n  // ------------------------------------------------\n\n  // executed by ZoneFactory.sol when this Zone does not yet exist (= not yet deployed)\n  function init(\n    bytes2 _countryCode,\n    bytes6 _geohash,\n    address _zoneOwner,\n    uint _dthAmount,\n    address _dth,\n    address _geo,\n    address _zoneFactory,\n    address _taxCollector\n  )\n    onlyWhenNotInited\n    external\n  {\n    require(_dthAmount >= MIN_STAKE, \"zone dth stake shoulld be at least minimum (100DTH)\");\n\n    country = _countryCode;\n    geohash = _geohash;\n\n    dth = IDetherToken(_dth);\n    geo = IGeoRegistry(_geo);\n    zoneFactory = IZoneFactory(_zoneFactory);\n    taxCollector = _taxCollector;\n\n    zoneOwner.addr = _zoneOwner;\n    zoneOwner.startTime = now;\n    zoneOwner.staked = _dthAmount;\n    zoneOwner.balance = _dthAmount;\n    zoneOwner.lastTaxTime = now;\n    zoneOwner.auctionId = 0; // was not gained by winning an auction\n\n    inited = true;\n    currentAuctionId = 0;\n  }\n\n  function connectToTellerContract(address _teller)\n    onlyWhenInited\n    onlyWhenTellerNotConnected\n    external\n  {\n    teller = ITeller(_teller);\n\n    tellerConnected = true;\n  }\n\n  // ------------------------------------------------\n  //\n  // Functions Getters Public\n  //\n  // ------------------------------------------------\n\n  function ownerAddr()\n    external view\n    returns (address)\n  {\n    return zoneOwner.addr;\n  }\n\n  function computeCSC(bytes6 _geohash, address _addr)\n    public\n    pure\n    returns (bytes12)\n  {\n    return bytes12(keccak256(abi.encodePacked(_geohash, _addr)));\n  }\n\n  function calcHarbergerTax(uint _startTime, uint _endTime, uint _dthAmount)\n    public\n    view\n    returns (uint taxAmount, uint keepAmount)\n  {\n    // TODO use smaller uint variables, hereby preventing under/overflows, so no need for SafeMath\n    // source: https://programtheblockchain.com/posts/2018/09/19/implementing-harberger-tax-deeds/\n    taxAmount = _dthAmount.mul(_endTime.sub(_startTime)).mul(TAX_PERCENTAGE).div(10000).div(1 days);\n    keepAmount = _dthAmount.sub(taxAmount);\n  }\n\n  function calcEntryFee(uint _value)\n    public\n    view\n    returns (uint burnAmount, uint bidAmount)\n  {\n    burnAmount = _value.div(100).mul(ENTRY_FEE_PERCENTAGE); // 1%\n    bidAmount = _value.sub(burnAmount); // 99%\n  }\n\n  function auctionExists(uint _auctionId)\n    external\n    view\n    returns (bool)\n  {\n    // if aucton does not exist we should get back zero, otherwise this field\n    // will contain a block.timestamp, set whe creating an Auction, in constructor() and bid()\n    return auctionIdToAuction[_auctionId].startTime > 0;\n  }\n\n  /// @notice get current zone owner data\n  function getZoneOwner()\n    external\n    view\n    returns (address, uint, uint, uint, uint, uint)\n  {\n    return (\n      zoneOwner.addr,        // address of current owner\n      zoneOwner.startTime,   // time this address became owner\n      zoneOwner.staked,      // \"price you sell at\"\n      zoneOwner.balance,     // will decrease whenever harberger taxes are paid\n      zoneOwner.lastTaxTime, // time until taxes have been paid\n      zoneOwner.auctionId    // if gained by winning auction, the auction id, otherwise zero\n    );\n  }\n\n  /// @notice get a specific auction\n  function getAuction(uint _auctionId)\n    public\n    view\n    returns (uint, uint, uint, uint, address, uint)\n  {\n    require(_auctionId > 0 && _auctionId <= currentAuctionId, \"auction does not exist\");\n\n    Auction memory auction = auctionIdToAuction[_auctionId];\n\n    uint highestBid = auctionBids[_auctionId][auction.highestBidder];\n\n    // for current zone owner his existing zone stake is added to his bid\n    if (auction.state == AuctionState.Started &&\n        auction.highestBidder == zoneOwner.addr)\n    {\n      highestBid = highestBid.add(zoneOwner.staked);\n    }\n\n    return (\n      _auctionId,\n      uint(auction.state),\n      auction.startTime,\n      auction.endTime,\n      auction.highestBidder,\n      highestBid\n    );\n  }\n\n  /// @notice get the last auction\n  function getLastAuction()\n    external view\n    returns (uint, uint, uint, uint, address, uint)\n  {\n    return getAuction(currentAuctionId);\n  }\n\n  // ------------------------------------------------\n  //\n  // Functions Utils\n  //\n  // ------------------------------------------------\n\n  function toBytes1(bytes memory _bytes, uint _start)\n    private pure\n    returns (bytes1) {\n      require(_bytes.length >= (_start + 1), \" not long enough\");\n      bytes1 tempBytes1;\n\n      assembly {\n          tempBytes1 := mload(add(add(_bytes, 0x20), _start))\n      }\n\n      return tempBytes1;\n  }\n  function toBytes7(bytes memory _bytes, uint _start)\n    private pure\n    returns (bytes7) {\n      require(_bytes.length >= (_start + 7), \" not long enough\");\n      bytes7 tempBytes7;\n\n      assembly {\n          tempBytes7 := mload(add(add(_bytes, 0x20), _start))\n      }\n\n      return tempBytes7;\n  }\n    function toBytes6(bytes memory _bytes, uint _start)\n    private\n    pure\n    returns (bytes6)\n  {\n    require(_bytes.length >= (_start + 6), \" not long enough\");\n    bytes6 tempBytes6;\n\n    assembly {\n        tempBytes6 := mload(add(add(_bytes, 0x20), _start))\n    }\n\n    return tempBytes6;\n  }\n  function toBytes12(bytes memory _bytes, uint _start)\n    private pure\n    returns (bytes12) {\n      require(_bytes.length >= (_start + 12), \" not long enough\");\n      bytes12 tempBytes12;\n\n      assembly {\n          tempBytes12 := mload(add(add(_bytes, 0x20), _start))\n      }\n\n      return tempBytes12;\n  }\n\n  // ------------------------------------------------\n  //\n  // Functions Setters Private\n  //\n  // ------------------------------------------------\n\n  function _removeZoneOwner()\n    private\n  {\n    withdrawableDth[zoneOwner.addr] = withdrawableDth[zoneOwner.addr].add(zoneOwner.balance);\n\n    if (teller.hasTeller()) {\n      teller.removeTellerByZone();\n    }\n    zoneFactory.changeOwner(address(0), zoneOwner.addr);\n    zoneOwner.addr = address(0);\n    zoneOwner.startTime = 0;\n    zoneOwner.staked = 0;\n    zoneOwner.balance = 0;\n    zoneOwner.lastTaxTime = 0;\n    zoneOwner.auctionId = 0;\n  }\n  /*\n   * calculate harberger taxes and send dth to taxCollector and referrer (if exist)\n   */\n  function _handleTaxPayment()\n    private\n  {\n    // processState ensured that: no running auction + there is a zone owner\n\n    if (zoneOwner.lastTaxTime >= now) {\n      return; // short-circuit: multiple txes in 1 block OR many blocks but in same Auction\n    }\n\n    (uint taxAmount, uint keepAmount) = calcHarbergerTax(zoneOwner.lastTaxTime, now, zoneOwner.staked);\n\n    if (taxAmount >= zoneOwner.balance) {\n      // zone owner does not have enough balance, remove him as zone owner\n      uint oldZoneOwnerBalance = zoneOwner.balance;\n            (address referrer, uint refFee) = teller.getReferrer();\n      _removeZoneOwner();\n      dth.transfer(taxCollector, oldZoneOwnerBalance);\n    } else {\n      // zone owner can pay due taxes\n      zoneOwner.balance = zoneOwner.balance.sub(taxAmount);\n      zoneOwner.lastTaxTime = now;\n      (address referrer, uint refFee) = teller.getReferrer();\n      if (referrer != address(0x00) && refFee > 0) {\n        uint referralFee =  taxAmount.mul(refFee).div(1000) ;\n        dth.transfer(referrer, referralFee);\n        dth.transfer(taxCollector, taxAmount - referralFee);\n      } else {\n        dth.transfer(taxCollector, taxAmount);\n      }\n    }\n  }\n\n  /*\n   * Called when auction is ended by _processState()\n   * update the state with new owner and new bid\n   */\n  function _endAuction()\n    private\n  {\n    Auction storage lastAuction = auctionIdToAuction[currentAuctionId];\n\n    lastAuction.state = AuctionState.Ended;\n\n    uint highestBid = auctionBids[currentAuctionId][lastAuction.highestBidder];\n    uint auctionEndTime = auctionIdToAuction[currentAuctionId].endTime;\n\n    if (zoneOwner.addr == lastAuction.highestBidder) {\n      // current zone owner won the auction, extend his zone ownershp\n      zoneOwner.staked = zoneOwner.staked.add(highestBid);\n      zoneOwner.balance = zoneOwner.balance.add(highestBid);\n\n      // need to set it since it might've been zero\n      zoneOwner.auctionId = currentAuctionId; // the (last) auctionId that gave the zoneOwner zone ownership\n    } else {\n      // we need to update the zone owner\n      _removeZoneOwner();\n      zoneFactory.changeOwner(lastAuction.highestBidder, zoneOwner.addr);\n      zoneOwner.addr = lastAuction.highestBidder;\n      zoneOwner.startTime = auctionEndTime;\n      zoneOwner.staked = highestBid; // entry fee is already deducted when user calls bid()\n      zoneOwner.balance = highestBid;\n      zoneOwner.auctionId = currentAuctionId; // the auctionId that gave the zoneOwner zone ownership\n    }\n\n    // (new) zone owner needs to pay taxes from the moment he acquires zone ownership until now\n    (uint taxAmount, uint keepAmount) = calcHarbergerTax(auctionEndTime, now, zoneOwner.staked);\n    zoneOwner.balance = zoneOwner.balance.sub(taxAmount);\n    zoneOwner.lastTaxTime = now;\n    emit AuctionEnded(lastAuction.highestBidder, currentAuctionId,  highestBid);\n  }\n  function processState()\n    external\n    /* onlyByTellerContract */\n  {\n    _processState();\n  }\n\n  /// @notice private function to update the current auction state\n  function _processState()\n    private\n  {\n    if (currentAuctionId > 0 && auctionIdToAuction[currentAuctionId].state == AuctionState.Started) {\n      // while uaction is running, no taxes need to be paid\n\n      // handling of taxes around change of zone ownership are handled inside _endAuction\n      if (now >= auctionIdToAuction[currentAuctionId].endTime) _endAuction();\n    } else { // no running auction, currentAuctionId could be zero\n      if (zoneOwner.addr != address(0)) _handleTaxPayment();\n    }\n  }\n\n  function _joinAuction(address _sender, uint _dthAmount)\n    private\n  {\n    Auction storage lastAuction = auctionIdToAuction[currentAuctionId];\n\n    //------------------------------------------------------------------------------//\n    // there is a running auction, lets see if we can join the auction with our bid //\n    //------------------------------------------------------------------------------//\n\n    require(_sender != lastAuction.highestBidder, \"highest bidder cannot bid\");\n\n    uint currentHighestBid = auctionBids[currentAuctionId][lastAuction.highestBidder];\n\n    if (_sender == zoneOwner.addr) {\n      uint dthAddedBidsAmount = auctionBids[currentAuctionId][_sender].add(_dthAmount); \n      // the current zone owner's stake also counts in his bid\n      require(zoneOwner.staked.add(dthAddedBidsAmount) > currentHighestBid, \"bid + already staked is less than current highest\");\n      auctionBids[currentAuctionId][_sender] = dthAddedBidsAmount;\n    } else {\n      // _sender is not the current zone owner\n      if (auctionBids[currentAuctionId][_sender] == 0) {\n        // this is the first bid of this challenger, deduct entry fee\n        (uint burnAmount, uint bidAmount) = calcEntryFee(_dthAmount);\n        require(bidAmount > currentHighestBid, \"bid is less than current highest\");\n        auctionBids[currentAuctionId][_sender] = bidAmount;\n        dth.transfer(taxCollector, burnAmount);\n      } else {\n        // not the first bid, no entry fee\n        uint newUserTotalBid = auctionBids[currentAuctionId][_sender].add(_dthAmount);\n        require(newUserTotalBid > currentHighestBid, \"bid is less than current highest\");\n        auctionBids[currentAuctionId][_sender] = newUserTotalBid;\n      }\n    }\n\n    // it worked, _sender placed a bid\n    lastAuction.highestBidder = _sender;\n    emit Bid(_sender, _dthAmount, currentAuctionId);\n  }\n  function _createAuction(address _sender, uint _dthAmount)\n    private\n  {\n    require(_sender != zoneOwner.addr, \"zoneowner cannot start an auction\");\n\n    (uint burnAmount, uint bidAmount) = calcEntryFee(_dthAmount);\n    require(bidAmount > zoneOwner.staked, \"bid is lower than current zone stake\");\n\n    // save the new Auction\n    uint newAuctionId = ++currentAuctionId;\n\n    auctionIdToAuction[newAuctionId] = Auction({\n      state: AuctionState.Started,\n      startTime: now,\n      endTime: now.add(BID_PERIOD),\n      highestBidder: _sender // caller (challenger)\n    });\n\n    auctionBids[newAuctionId][_sender] = bidAmount;\n\n    dth.transfer(taxCollector, burnAmount);\n    emit AuctionCreated(_sender, _dthAmount, newAuctionId);\n  }\n  /// @notice private function to update the current auction state\n  function _bid(address _sender, uint _dthAmount) // GAS COST +/- 223.689\n    private\n    onlyWhenZoneHasOwner\n  {\n    if (currentAuctionId > 0 && auctionIdToAuction[currentAuctionId].state == AuctionState.Started) {\n      _joinAuction(_sender, _dthAmount);\n    } else { // there currently is no running auction\n      if (zoneOwner.auctionId == 0) {\n        // current zone owner did not become owner by winning an auction, but by creating this zone or caliming it when it was free\n        require(now > zoneOwner.startTime.add(COOLDOWN_PERIOD), \"cooldown period did not end yet\");\n      } else {\n        // current zone owner became owner by winning an auction (which has ended)\n        require(now > auctionIdToAuction[currentAuctionId].endTime.add(COOLDOWN_PERIOD), \"cooldown period did not end yet\");\n      }\n      _createAuction(_sender, _dthAmount);\n    }\n  }\n\n  function _claimFreeZone(address _sender, uint _dthAmount) // GAS COSt +/- 177.040\n    private\n    onlyWhenZoneHasNoOwner\n  {\n    require(_dthAmount >= MIN_STAKE, \"need at least minimum zone stake amount (100 DTH)\");\n\n    // NOTE: empty zone claim will not have entry fee deducted, its not bidding it's taking immediately\n    zoneFactory.changeOwner(_sender, zoneOwner.addr);\n    zoneOwner.addr = _sender;\n    zoneOwner.startTime = now;\n    zoneOwner.staked = _dthAmount;\n    zoneOwner.balance = _dthAmount;\n    zoneOwner.lastTaxTime = now;\n    zoneOwner.auctionId = 0; // since it was not gained wby winning an auction\n  }\n\n  function _topUp(address _sender, uint _dthAmount) // GAS COST +/- 104.201\n    private\n    onlyWhenZoneHasOwner\n  {\n    require(_sender == zoneOwner.addr, \"caller is not zoneowner\");\n    require(currentAuctionId == 0 || auctionIdToAuction[currentAuctionId].state == AuctionState.Ended, \"cannot top up while auction running\");\n\n    uint oldBalance = zoneOwner.balance;\n    uint newBalance = oldBalance.add(_dthAmount);\n    zoneOwner.balance = newBalance;\n\n    // a zone owner can currently keep calling this to increase his dth balance inside the zone\n    // without a change in his sell price (= zone.staked) or tax amount he needs to pay\n  }\n\n  // ------------------------------------------------\n  //\n  // Functions Setters Public\n  //\n  // ------------------------------------------------\n\n  /// @notice ERC223 receiving function called by Dth contract when Eth is sent to this contract\n  /// @param _from Who send DTH to this contract\n  /// @param _value How much DTH was sent to this contract\n  /// @param _data Additional bytes data sent\n  function tokenFallback(address _from, uint _value, bytes memory _data)\n    public\n    onlyWhenInited\n    onlyWhenTellerConnected\n    onlyWhenZoneEnabled\n  {\n    require(msg.sender == address(dth), \"can only be called by dth contract\");\n\n    bytes1 func = toBytes1(_data, 0);\n\n    require(func == bytes1(0x40) || func == bytes1(0x41) || func == bytes1(0x42) || func == bytes1(0x43), \"did not match Zone function\");\n\n    if (func == bytes1(0x40)) { // zone was created by factory, sending through DTH\n      return; // just retun success\n    }\n\n    _processState();\n\n    if (func == bytes1(0x41)) { // claimFreeZone\n      _claimFreeZone(_from, _value);\n    } else if (func == bytes1(0x42)) { // bid\n      _bid(_from, _value);\n    } else if (func == bytes1(0x43)) { // topUp\n      _topUp(_from, _value);\n    }\n  }\n\n  /// @notice release zone ownership\n  /// @dev can only be called by current zone owner, when there is no running auction\n  function release() // GAS COST +/- 72.351\n    external\n    onlyWhenInited\n    onlyWhenTellerConnected\n    updateState\n    onlyWhenCallerIsZoneOwner\n  {\n    // allow also when country is disabled, otherwise no way for zone owner to get their eth/dth back\n\n    require(currentAuctionId == 0 || auctionIdToAuction[currentAuctionId].state == AuctionState.Ended, \"cannot release while auction running\");\n\n    uint ownerBalance = zoneOwner.balance;\n\n    _removeZoneOwner();\n\n    // if msg.sender is a contract, the DTH ERC223 contract will try to call tokenFallback\n    // on msg.sender, this could lead to a reentrancy. But we prevent this by resetting\n    // zoneOwner before we do dth.transfer(msg.sender)\n    dth.transfer(msg.sender, ownerBalance);\n  }\n\n  // offer three different withdraw functions, single auction, multiple auctions, all auctions\n\n  /// @notice withdraw losing bids from a specific auction\n  /// @param _auctionId The auction id\n  function withdrawFromAuction(uint _auctionId) // GAS COST +/- 125.070\n    external\n    onlyWhenInited\n    onlyWhenTellerConnected\n    updateState\n  {\n    // even when country is disabled, otherwise users cannot withdraw their bids\n    require(_auctionId > 0 && _auctionId <= currentAuctionId, \"auctionId does not exist\");\n\n    require(auctionIdToAuction[_auctionId].state == AuctionState.Ended, \"cannot withdraw while auction is active\");\n    require(auctionIdToAuction[_auctionId].highestBidder != msg.sender, \"auction winner can not withdraw\");\n    require(auctionBids[_auctionId][msg.sender] > 0, \"nothing to withdraw\");\n\n    uint withdrawAmount = auctionBids[_auctionId][msg.sender];\n    auctionBids[_auctionId][msg.sender] = 0;\n\n    dth.transfer(msg.sender, withdrawAmount);\n  }\n\n  /// @notice withdraw from a given list of auction ids\n  function withdrawFromAuctions(uint[] calldata _auctionIds) // GAS COST +/- 127.070\n    external\n    onlyWhenInited\n    onlyWhenTellerConnected\n    updateState\n  {\n    // even when country is disabled, can withdraw\n    require(currentAuctionId > 0, \"there are no auctions\");\n\n    require(_auctionIds.length > 0, \"auctionIds list is empty\");\n    require(_auctionIds.length <= currentAuctionId, \"auctionIds list is longer than allowed\");\n\n    uint withdrawAmountTotal = 0;\n\n    for (uint idx = 0; idx < _auctionIds.length; idx++) {\n      uint auctionId = _auctionIds[idx];\n      require(auctionId > 0 && auctionId <= currentAuctionId, \"auctionId does not exist\");\n      require(auctionIdToAuction[auctionId].state == AuctionState.Ended, \"cannot withdraw from running auction\");\n      require(auctionIdToAuction[auctionId].highestBidder != msg.sender, \"auction winner can not withdraw\");\n      uint withdrawAmount = auctionBids[auctionId][msg.sender];\n      if (withdrawAmount > 0) {\n        // if user supplies the same auctionId multiple times in auctionIds,\n        // only the first one will get a withdrawal amount\n        auctionBids[auctionId][msg.sender] = 0;\n        withdrawAmountTotal = withdrawAmountTotal.add(withdrawAmount);\n      }\n    }\n\n    require(withdrawAmountTotal > 0, \"nothing to withdraw\");\n\n    dth.transfer(msg.sender, withdrawAmountTotal);\n  }\n\n  // - bids in past auctions\n  // - zone owner stake\n  function withdrawDth()\n    external\n    onlyWhenInited\n    onlyWhenTellerConnected\n    updateState\n  {\n    uint dthWithdraw = withdrawableDth[msg.sender];\n    require(dthWithdraw > 0, \"nothing to withdraw\");\n\n    if (dthWithdraw > 0) {\n      withdrawableDth[msg.sender] = 0;\n      dth.transfer(msg.sender, dthWithdraw);\n    }\n  }\n}\n",
  "sourcePath": "/Users/mehdi/code/dether/contractV2/contracts/core/Zone.sol",
  "compiler": {
    "name": "solc",
    "version": "0.5.10+commit.5a6ea5b1.Emscripten.clang"
  },
  "schemaVersion": "3.0.11",
  "updatedAt": "2019-08-11T12:50:01.040Z",
  "devdoc": {
    "methods": {
      "release()": {
        "details": "can only be called by current zone owner, when there is no running auction"
      },
      "tokenFallback(address,uint256,bytes)": {
        "params": {
          "_data": "Additional bytes data sent",
          "_from": "Who send DTH to this contract",
          "_value": "How much DTH was sent to this contract"
        }
      },
      "withdrawFromAuction(uint256)": {
        "params": {
          "_auctionId": "The auction id"
        }
      }
    }
  },
  "userdoc": {
    "methods": {
      "getAuction(uint256)": {
        "notice": "get a specific auction"
      },
      "getLastAuction()": {
        "notice": "get the last auction"
      },
      "getZoneOwner()": {
        "notice": "get current zone owner data"
      },
      "release()": {
        "notice": "release zone ownership"
      },
      "tokenFallback(address,uint256,bytes)": {
        "notice": "ERC223 receiving function called by Dth contract when Eth is sent to this contract"
      },
      "withdrawFromAuction(uint256)": {
        "notice": "withdraw losing bids from a specific auction"
      },
      "withdrawFromAuctions(uint256[])": {
        "notice": "withdraw from a given list of auction ids"
      }
    }
  }
}