{
  "contractName": "ZoneFactory",
  "abi": [
    {
      "constant": true,
      "inputs": [],
      "name": "dth",
      "outputs": [
        {
          "name": "",
          "type": "address"
        }
      ],
      "payable": false,
      "stateMutability": "view",
      "type": "function"
    },
    {
      "constant": true,
      "inputs": [
        {
          "name": "",
          "type": "address"
        }
      ],
      "name": "zoneToGeohash",
      "outputs": [
        {
          "name": "",
          "type": "bytes7"
        }
      ],
      "payable": false,
      "stateMutability": "view",
      "type": "function"
    },
    {
      "constant": true,
      "inputs": [
        {
          "name": "",
          "type": "bytes7"
        }
      ],
      "name": "geohashToZone",
      "outputs": [
        {
          "name": "",
          "type": "address"
        }
      ],
      "payable": false,
      "stateMutability": "view",
      "type": "function"
    },
    {
      "constant": false,
      "inputs": [],
      "name": "renounceOwnership",
      "outputs": [],
      "payable": false,
      "stateMutability": "nonpayable",
      "type": "function"
    },
    {
      "constant": true,
      "inputs": [],
      "name": "owner",
      "outputs": [
        {
          "name": "",
          "type": "address"
        }
      ],
      "payable": false,
      "stateMutability": "view",
      "type": "function"
    },
    {
      "constant": true,
      "inputs": [],
      "name": "isOwner",
      "outputs": [
        {
          "name": "",
          "type": "bool"
        }
      ],
      "payable": false,
      "stateMutability": "view",
      "type": "function"
    },
    {
      "constant": true,
      "inputs": [],
      "name": "control",
      "outputs": [
        {
          "name": "",
          "type": "address"
        }
      ],
      "payable": false,
      "stateMutability": "view",
      "type": "function"
    },
    {
      "constant": true,
      "inputs": [],
      "name": "geo",
      "outputs": [
        {
          "name": "",
          "type": "address"
        }
      ],
      "payable": false,
      "stateMutability": "view",
      "type": "function"
    },
    {
      "constant": true,
      "inputs": [],
      "name": "users",
      "outputs": [
        {
          "name": "",
          "type": "address"
        }
      ],
      "payable": false,
      "stateMutability": "view",
      "type": "function"
    },
    {
      "constant": false,
      "inputs": [
        {
          "name": "newOwner",
          "type": "address"
        }
      ],
      "name": "transferOwnership",
      "outputs": [],
      "payable": false,
      "stateMutability": "nonpayable",
      "type": "function"
    },
    {
      "inputs": [
        {
          "name": "_dth",
          "type": "address"
        },
        {
          "name": "_geo",
          "type": "address"
        },
        {
          "name": "_users",
          "type": "address"
        },
        {
          "name": "_control",
          "type": "address"
        }
      ],
      "payable": false,
      "stateMutability": "nonpayable",
      "type": "constructor"
    },
    {
      "anonymous": false,
      "inputs": [
        {
          "indexed": true,
          "name": "zoneAddress",
          "type": "address"
        },
        {
          "indexed": true,
          "name": "zoneGeohash",
          "type": "bytes7"
        },
        {
          "indexed": true,
          "name": "zoneOwner",
          "type": "address"
        },
        {
          "indexed": false,
          "name": "dthStake",
          "type": "uint256"
        }
      ],
      "name": "ZoneFactoryCreatedZone",
      "type": "event"
    },
    {
      "anonymous": false,
      "inputs": [
        {
          "indexed": true,
          "name": "previousOwner",
          "type": "address"
        },
        {
          "indexed": true,
          "name": "newOwner",
          "type": "address"
        }
      ],
      "name": "OwnershipTransferred",
      "type": "event"
    },
    {
      "constant": true,
      "inputs": [
        {
          "name": "_geohash",
          "type": "bytes7"
        }
      ],
      "name": "zoneExists",
      "outputs": [
        {
          "name": "",
          "type": "bool"
        }
      ],
      "payable": false,
      "stateMutability": "view",
      "type": "function"
    },
    {
      "constant": false,
      "inputs": [
        {
          "name": "_countryCode",
          "type": "bytes2"
        },
        {
          "name": "_from",
          "type": "address"
        },
        {
          "name": "_to",
          "type": "address"
        },
        {
          "name": "_amount",
          "type": "uint256"
        }
      ],
      "name": "updateUserDailySold",
      "outputs": [],
      "payable": false,
      "stateMutability": "nonpayable",
      "type": "function"
    },
    {
      "constant": false,
      "inputs": [
        {
          "name": "_from",
          "type": "address"
        },
        {
          "name": "_value",
          "type": "uint256"
        },
        {
          "name": "_data",
          "type": "bytes"
        }
      ],
      "name": "tokenFallback",
      "outputs": [],
      "payable": false,
      "stateMutability": "nonpayable",
      "type": "function"
    }
  ],
  "bytecode": "0x608060405234801561001057600080fd5b50604051608080615992833981016040818152825160208401519184015160609094015160008054600160a060020a0319163317808255929593949192600160a060020a0316917f8be0079c531659141344cd1fd0a4f28419497f9722a3daafe3b4186f6b6457e0908290a3600160a060020a03841615156100f357604080517f08c379a000000000000000000000000000000000000000000000000000000000815260206004820152601960248201527f64746820616464726573732063616e6e6f742062652030783000000000000000604482015290519081900360640190fd5b600160a060020a038316151561016a57604080517f08c379a000000000000000000000000000000000000000000000000000000000815260206004820152601960248201527f67656f20616464726573732063616e6e6f742062652030783000000000000000604482015290519081900360640190fd5b600160a060020a03821615156101e157604080517f08c379a000000000000000000000000000000000000000000000000000000000815260206004820152601b60248201527f757365727320616464726573732063616e6e6f74206265203078300000000000604482015290519081900360640190fd5b600160a060020a038116151561025857604080517f08c379a000000000000000000000000000000000000000000000000000000000815260206004820152601d60248201527f636f6e74726f6c20616464726573732063616e6e6f7420626520307830000000604482015290519081900360640190fd5b60038054600160a060020a03958616600160a060020a03199182161790915560048054948616948216949094179093556005805492851692841692909217909155600680549190931691161790556156dd806102b56000396000f300608060405260043610620000d25763ffffffff7c010000000000000000000000000000000000000000000000000000000060003504166301e57a378114620000d757806313f54caa146200010b5780631b4dab73146200014c578063715018a614620001715780638da5cb5b146200018b5780638f32d59b14620001a3578063c0ee0b8a14620001cf578063c6fcb008146200023b578063cde603331462000260578063d8de6587146200029a578063d944e6a314620002b2578063f202027514620002ca578063f2fde38b14620002e2575b600080fd5b348015620000e457600080fd5b50620000ef62000306565b60408051600160a060020a039092168252519081900360200190f35b3480156200011857600080fd5b506200012f600160a060020a036004351662000315565b60408051600160c860020a03199092168252519081900360200190f35b3480156200015957600080fd5b50620000ef600160c860020a03196004351662000343565b3480156200017e57600080fd5b50620001896200035e565b005b3480156200019857600080fd5b50620000ef620003cb565b348015620001b057600080fd5b50620001bb620003da565b604080519115158252519081900360200190f35b348015620001dc57600080fd5b50604080516020600460443581810135601f810184900484028501840190955284845262000189948235600160a060020a0316946024803595369594606494920191908190840183828082843750949750620003eb9650505050505050565b3480156200024857600080fd5b50620001bb600160c860020a03196004351662000cab565b3480156200026d57600080fd5b5062000189600160f060020a031960043516600160a060020a036024358116906044351660643562000cd2565b348015620002a757600080fd5b50620000ef62000e2b565b348015620002bf57600080fd5b50620000ef62000e3a565b348015620002d757600080fd5b50620000ef62000e49565b348015620002ef57600080fd5b5062000189600160a060020a036004351662000e58565b600354600160a060020a031681565b6002602052600090815260409020547901000000000000000000000000000000000000000000000000000281565b600160205260009081526040902054600160a060020a031681565b62000368620003da565b15156200037457600080fd5b60008054604051600160a060020a03909116907f8be0079c531659141344cd1fd0a4f28419497f9722a3daafe3b4186f6b6457e0908390a36000805473ffffffffffffffffffffffffffffffffffffffff19169055565b600054600160a060020a031690565b600054600160a060020a0316331490565b600354600090819081908190600160a060020a031633146200047d576040805160e560020a62461bcd02815260206004820152602260248201527f63616e206f6e6c792062652063616c6c65642062792064746820636f6e74726160448201527f6374000000000000000000000000000000000000000000000000000000000000606482015290519081900360840190fd5b600660009054906101000a9004600160a060020a0316600160a060020a0316635c975abb6040518163ffffffff167c0100000000000000000000000000000000000000000000000000000000028152600401602060405180830381600087803b158015620004ea57600080fd5b505af1158015620004ff573d6000803e3d6000fd5b505050506040513d60208110156200051657600080fd5b5051156200056e576040805160e560020a62461bcd02815260206004820152601260248201527f636f6e7472616374206973207061757365640000000000000000000000000000604482015290519081900360640190fd5b8451600a14620005ee576040805160e560020a62461bcd02815260206004820152602760248201527f637265617465416e64436c61696d20657870656374732031302062797465732060448201527f6173206461746100000000000000000000000000000000000000000000000000606482015290519081900360840190fd5b7f40000000000000000000000000000000000000000000000000000000000000006200061c86600062000e7c565b7fff000000000000000000000000000000000000000000000000000000000000001614620006ba576040805160e560020a62461bcd02815260206004820152602b60248201527f696e636f7272656374206669727374206279746520696e20646174612c20657860448201527f7065637465642030783430000000000000000000000000000000000000000000606482015290519081900360840190fd5b869350859250620006cd85600162000ee8565b9150620006dc85600362000f4a565b60048054604080517f0dc210aa000000000000000000000000000000000000000000000000000000008152600160f060020a031987169381019390935251929350600160a060020a031691630dc210aa916024808201926020929091908290030181600087803b1580156200075057600080fd5b505af115801562000765573d6000803e3d6000fd5b505050506040513d60208110156200077c57600080fd5b50511515620007d5576040805160e560020a62461bcd02815260206004820152601360248201527f636f756e7472792069732064697361626c656400000000000000000000000000604482015290519081900360640190fd5b60048054604080517f0232cd9f000000000000000000000000000000000000000000000000000000008152600160f060020a0319861693810193909352600160c860020a03198416602484015251600160a060020a0390911691630232cd9f9160448083019260209291908290030181600087803b1580156200085757600080fd5b505af11580156200086c573d6000803e3d6000fd5b505050506040513d60208110156200088357600080fd5b50511515620008dc576040805160e560020a62461bcd02815260206004820152601a60248201527f7a6f6e65206973206e6f7420696e7369646520636f756e747279000000000000604482015290519081900360640190fd5b600160c860020a03198116600090815260016020526040902054600160a060020a03161562000955576040805160e560020a62461bcd02815260206004820152601360248201527f7a6f6e6520616c72656164792065786973747300000000000000000000000000604482015290519081900360640190fd5b600554604080517fe4d2620e000000000000000000000000000000000000000000000000000000008152600160a060020a0387811660048301529151600093929092169163e4d2620e9160248082019260209290919082900301818787803b158015620009c157600080fd5b505af1158015620009d6573d6000803e3d6000fd5b505050506040513d6020811015620009ed57600080fd5b50511162000a45576040805160e560020a62461bcd02815260206004820152601260248201527f75736572206e6f74206365727469666965640000000000000000000000000000604482015290519081900360640190fd5b6003546004546005546006548593859389938993600160a060020a03938416939283169291821691163062000a796200102a565b600160f060020a03199099168952600160c860020a03199097166020890152600160a060020a039586166040808a01919091526060890195909552928516608088015290841660a0870152831660c0860152821660e08501529116610100830152519081900361012001906000f08015801562000afa573d6000803e3d6000fd5b50600160c860020a031982166000818152600160208181526040808420805473ffffffffffffffffffffffffffffffffffffffff1916600160a060020a03978816178082558716855260028352818520805466ffffffffffffff19167901000000000000000000000000000000000000000000000000008a041790556003549585528383525481517fbe45fd620000000000000000000000000000000000000000000000000000000081529087166004820152602481018a90526060604482015260648101939093527f4000000000000000000000000000000000000000000000000000000000000000608484015251939094169363be45fd629360a48084019492939192918390030190829087803b15801562000c1757600080fd5b505af115801562000c2c573d6000803e3d6000fd5b505050506040513d602081101562000c4357600080fd5b5050600160c860020a031981166000818152600160209081526040918290205482518781529251600160a060020a03808a1695949216927fc193d4e9a746fdc66bc534f0841cda7adfc97419f44b616421cb122d8670e7be928290030190a450505050505050565b600160c860020a031916600090815260016020526040902054600160a060020a0316151590565b3360009081526002602052604090205479010000000000000000000000000000000000000000000000000002600160c860020a031916151562000d85576040805160e560020a62461bcd02815260206004820152602760248201527f63616e206f6e6c792062652063616c6c6564206279206120726567697374657260448201527f6564207a6f6e6500000000000000000000000000000000000000000000000000606482015290519081900360840190fd5b600554604080517ffb89df53000000000000000000000000000000000000000000000000000000008152600160f060020a031987166004820152600160a060020a0386811660248301528581166044830152606482018590529151919092169163fb89df5391608480830192600092919082900301818387803b15801562000e0c57600080fd5b505af115801562000e21573d6000803e3d6000fd5b5050505050505050565b600654600160a060020a031681565b600454600160a060020a031681565b600554600160a060020a031681565b62000e62620003da565b151562000e6e57600080fd5b62000e798162000fac565b50565b6000808260010184511015151562000ede576040805160e560020a62461bcd02815260206004820152601060248201527f206e6f74206c6f6e6720656e6f75676800000000000000000000000000000000604482015290519081900360640190fd5b5050016020015190565b6000808260020184511015151562000ede576040805160e560020a62461bcd02815260206004820152601060248201527f206e6f74206c6f6e6720656e6f75676800000000000000000000000000000000604482015290519081900360640190fd5b6000808260070184511015151562000ede576040805160e560020a62461bcd02815260206004820152601060248201527f206e6f74206c6f6e6720656e6f75676800000000000000000000000000000000604482015290519081900360640190fd5b600160a060020a038116151562000fc257600080fd5b60008054604051600160a060020a03808516939216917f8be0079c531659141344cd1fd0a4f28419497f9722a3daafe3b4186f6b6457e091a36000805473ffffffffffffffffffffffffffffffffffffffff1916600160a060020a0392909216919091179055565b604051614676806200103c83390190560060806040523480156200001157600080fd5b50604051610120806200467683398101604090815281516020830151918301516060840151608085015160a086015160c087015160e0880151610100909801519597949593949293919290916200006762000424565b68056bc75e2d631000008710156200010657604080517f08c379a000000000000000000000000000000000000000000000000000000000815260206004820152603360248201527f7a6f6e6520647468207374616b652073686f756c6c64206265206174206c656160448201527f7374206d696e696d756d20283130304454482900000000000000000000000000606482015290519081900360840190fd5b89600b60146101000a81548161ffff02191690837e010000000000000000000000000000000000000000000000000000000000009004021790555088600b60166101000a81548166ffffffffffffff02191690837901000000000000000000000000000000000000000000000000009004021790555085600760006101000a815481600160a060020a030219169083600160a060020a0316021790555084600860006101000a815481600160a060020a030219169083600160a060020a0316021790555083600960006101000a815481600160a060020a030219169083600160a060020a0316021790555082600a60006101000a815481600160a060020a030219169083600160a060020a0316021790555081600b60006101000a815481600160a060020a030219169083600160a060020a03160217905550876000800160006101000a815481600160a060020a030219169083600160a060020a0316021790555042600060010181905550866000600201819055508660006003018190555042600060040181905550608060405190810160405280428152602001428152602001600180811115620002b557fe5b8152600160a060020a038a16602091820152600e5460009081526005825260409081902083518155918301516001808401919091559083015160028301805494955085949192909160ff19169083818111156200030e57fe5b0217905550606091909101516002909101805461010060a860020a031916610100600160a060020a0393841602179055600e546000908152600f60209081526040808320938c16835292815290829020899055815189815291517fffffffffffffff000000000000000000000000000000000000000000000000008c16927fffff0000000000000000000000000000000000000000000000000000000000008e169230927f7aff75f95b7d4af318f0d9d8bd9e9e4d8874626e860baa8cd01b3ab7190753d79281900390910190a4604051600160a060020a0389169060009030907f1d12264c14fc566e86950ff90e2b320c449b6b0a4f1afa0f1b0cd202e054bf13908390a4505050505050505050506200044c565b6040805160808101825260008082526020820181905290918201908152600060209091015290565b61421a806200045c6000396000f3006080604052600436106101505763ffffffff60e060020a60003504166301e57a37811461015557806308e44f88146101865780630c0b86ca146101ca5780630d624914146101f15780631504ceed1461023a5780631ecb0f671461025e5780632c2f3d13146102955780633c0868f0146102b6578063422927ad146102e25780636496a441146102fc57806378bd79351461031c5780637b9a73011461033457806386d1a69f146103495780639787d1071461035e57806399640c81146103e9578063a26759cb14610433578063ab5b8f1b1461043b578063c0ee0b8a146104a5578063d8b0b4991461050e578063d8de658714610540578063d944e6a314610555578063dcb561171461056a578063dd955c44146105c3578063e0df216c146105e7578063e2ae93fb14610608578063e69aea7b14610629578063f20202751461063e578063fb01bb5114610653575b600080fd5b34801561016157600080fd5b5061016a61066b565b60408051600160a060020a039092168252519081900360200190f35b34801561019257600080fd5b5061019b61067a565b6040805178ffffffffffffffffffffffffffffffffffffffffffffffffff199092168252519081900360200190f35b3480156101d657600080fd5b506101df6106b6565b60408051918252519081900360200190f35b3480156101fd57600080fd5b506102066106bc565b604080519586526020860194909452848401929092526060840152600160a060020a03166080830152519081900360a00190f35b34801561024657600080fd5b506101df600435600160a060020a03602435166106e0565b34801561026a57600080fd5b5061027c6004356024356044356106fd565b6040805192835260208301919091528051918290030190f35b3480156102a157600080fd5b506101df600160a060020a0360043516610763565b3480156102c257600080fd5b506102ce600435610775565b604080519115158252519081900360200190f35b3480156102ee57600080fd5b506102fa600435610788565b005b34801561030857600080fd5b506102fa6004803560248101910135610b2a565b34801561032857600080fd5b50610206600435610ff8565b34801561034057600080fd5b5061016a6110b4565b34801561035557600080fd5b506102fa6110c3565b34801561036a57600080fd5b506103736113f1565b6040805160ff90971687526fffffffffffffffffffffffffffffffff19909516602087015275ffffffffffffffffffffffffffffffffffffffffffff1990931685850152600160f860020a03199091166060850152600190810b810b608085015290810b900b60a0830152519081900360c00190f35b3480156103f557600080fd5b506103fe611481565b60408051600160a060020a03909616865260208601949094528484019290925260608401526080830152519081900360a00190f35b6102fa6114a3565b34801561044757600080fd5b5061047b78ffffffffffffffffffffffffffffffffffffffffffffffffff1960043516600160a060020a036024351661184c565b6040805173ffffffffffffffffffffffffffffffffffffffff199092168252519081900360200190f35b3480156104b157600080fd5b50604080516020600460443581810135601f81018490048402850184019095528484526102fa948235600160a060020a03169460248035953695946064949201919081908401838280828437509497506119099650505050505050565b34801561051a57600080fd5b50610523611e17565b60408051600160f060020a03199092168252519081900360200190f35b34801561054c57600080fd5b5061016a611e2a565b34801561056157600080fd5b5061016a611e39565b34801561057657600080fd5b506102fa602460048035828101929101359060ff9035166fffffffffffffffffffffffffffffffff1960443516606435600190810b90608435900b600160f860020a031960a43516611e48565b3480156105cf57600080fd5b506102fa600160a060020a0360043516602435612864565b3480156105f357600080fd5b506101df600160a060020a0360043516612d7e565b34801561061457600080fd5b506101df600160a060020a0360043516612d90565b34801561063557600080fd5b506102fa612da2565b34801561064a57600080fd5b5061016a612f0a565b34801561065f57600080fd5b5061027c600435612f19565b600754600160a060020a031681565b600b5476010000000000000000000000000000000000000000000090047901000000000000000000000000000000000000000000000000000281565b600e5481565b60008060008060006106cf600e54610ff8565b945094509450945094509091929394565b600f60209081526000928352604080842090915290825290205481565b6000806107476201518061073b606481600161072f6107228b8d63ffffffff612f4b16565b8a9063ffffffff612f6916565b9063ffffffff612f6916565b9063ffffffff612f9e16565b9150610759838363ffffffff612f4b16565b9050935093915050565b600c6020526000908152604090205481565b6000908152600560205260408120541190565b600a54604080517f5c975abb0000000000000000000000000000000000000000000000000000000081529051600092600160a060020a031691635c975abb91600480830192602092919082900301818787803b1580156107e757600080fd5b505af11580156107fb573d6000803e3d6000fd5b505050506040513d602081101561081157600080fd5b505115610856576040805160e560020a62461bcd028152602060048201526012602482015260008051602061418f833981519152604482015290519081900360640190fd5b6009546040805160e160020a63726931070281523360048201529051600092600160a060020a03169163e4d2620e91602480830192602092919082900301818787803b1580156108a557600080fd5b505af11580156108b9573d6000803e3d6000fd5b505050506040513d60208110156108cf57600080fd5b505111610914576040805160e560020a62461bcd02815260206004820152601260248201526000805160206141cf833981519152604482015290519081900360640190fd5b600e5482111561096e576040805160e560020a62461bcd02815260206004820152601860248201527f61756374696f6e496420646f6573206e6f742065786973740000000000000000604482015290519081900360640190fd5b610976612fc1565b600160008381526005602052604090206002015460ff16600181111561099857fe5b14610a13576040805160e560020a62461bcd02815260206004820152602760248201527f63616e6e6f74207769746864726177207768696c652061756374696f6e20697360448201527f2061637469766500000000000000000000000000000000000000000000000000606482015290519081900360840190fd5b6000828152600f6020908152604080832033845290915281205411610a82576040805160e560020a62461bcd02815260206004820152601360248201527f6e6f7468696e6720746f20776974686472617700000000000000000000000000604482015290519081900360640190fd5b506000818152600f6020908152604080832033808552908352818420805490859055600754835160e060020a63a9059cbb02815260048101939093526024830182905292519094600160a060020a039093169363a9059cbb936044808501949293928390030190829087803b158015610afa57600080fd5b505af1158015610b0e573d6000803e3d6000fd5b505050506040513d6020811015610b2457600080fd5b50505050565b600080600080600a60009054906101000a9004600160a060020a0316600160a060020a0316635c975abb6040518163ffffffff1660e060020a028152600401602060405180830381600087803b158015610b8357600080fd5b505af1158015610b97573d6000803e3d6000fd5b505050506040513d6020811015610bad57600080fd5b505115610bf2576040805160e560020a62461bcd028152602060048201526012602482015260008051602061418f833981519152604482015290519081900360640190fd5b6009546040805160e160020a63726931070281523360048201529051600092600160a060020a03169163e4d2620e91602480830192602092919082900301818787803b158015610c4157600080fd5b505af1158015610c55573d6000803e3d6000fd5b505050506040513d6020811015610c6b57600080fd5b505111610cb0576040805160e560020a62461bcd02815260206004820152601260248201526000805160206141cf833981519152604482015290519081900360640190fd5b610cb8612fc1565b60008511610d10576040805160e560020a62461bcd02815260206004820152601860248201527f61756374696f6e496473206c69737420697320656d7074790000000000000000604482015290519081900360640190fd5b600e54851115610d90576040805160e560020a62461bcd02815260206004820152602660248201527f61756374696f6e496473206c697374206973206c6f6e676572207468616e206160448201527f6c6c6f7765640000000000000000000000000000000000000000000000000000606482015290519081900360840190fd5b60009350600092505b84831015610f1557858584818110610dad57fe5b905060200201359150600082118015610dc85750600e548211155b1515610e1e576040805160e560020a62461bcd02815260206004820152601860248201527f61756374696f6e496420646f6573206e6f742065786973740000000000000000604482015290519081900360640190fd5b600160008381526005602052604090206002015460ff166001811115610e4057fe5b14610eba576040805160e560020a62461bcd028152602060048201526024808201527f63616e6e6f742077697468647261772066726f6d2072756e6e696e672061756360448201527f74696f6e00000000000000000000000000000000000000000000000000000000606482015290519081900360840190fd5b506000818152600f6020908152604080832033845290915281205490811115610f0a576000828152600f60209081526040808320338452909152812055610f07848263ffffffff61309716565b93505b600190920191610d99565b60008411610f6d576040805160e560020a62461bcd02815260206004820152601360248201527f6e6f7468696e6720746f20776974686472617700000000000000000000000000604482015290519081900360640190fd5b6007546040805160e060020a63a9059cbb028152336004820152602481018790529051600160a060020a039092169163a9059cbb916044808201926020929091908290030181600087803b158015610fc457600080fd5b505af1158015610fd8573d6000803e3d6000fd5b505050506040513d6020811015610fee57600080fd5b5050505050505050565b6000806000806000611008614166565b600560008881526020019081526020016000206080604051908101604052908160008201548152602001600182015481526020016002820160009054906101000a900460ff16600181111561105957fe5b600181111561106457fe5b8152600291909101546101009004600160a060020a031660209091015260408101519091508790600181111561109657fe5b82516020840151606090940151929a91995097509195509350915050565b600b54600160a060020a031681565b600080600a60009054906101000a9004600160a060020a0316600160a060020a0316635c975abb6040518163ffffffff1660e060020a028152600401602060405180830381600087803b15801561111957600080fd5b505af115801561112d573d6000803e3d6000fd5b505050506040513d602081101561114357600080fd5b505115611188576040805160e560020a62461bcd028152602060048201526012602482015260008051602061418f833981519152604482015290519081900360640190fd5b6009546040805160e160020a63726931070281523360048201529051600092600160a060020a03169163e4d2620e91602480830192602092919082900301818787803b1580156111d757600080fd5b505af11580156111eb573d6000803e3d6000fd5b505050506040513d602081101561120157600080fd5b505111611246576040805160e560020a62461bcd02815260206004820152601260248201526000805160206141cf833981519152604482015290519081900360640190fd5b61124e612fc1565b600054600160a060020a031633146112b0576040805160e560020a62461bcd02815260206004820152601860248201527f63616c6c6572206973206e6f74207a6f6e65206f776e65720000000000000000604482015290519081900360640190fd5b6001600e5460009081526005602052604090206002015460ff1660018111156112d557fe5b1461134f576040805160e560020a62461bcd028152602060048201526024808201527f63616e6e6f742072656c65617365207768696c652061756374696f6e2072756e60448201527f6e696e6700000000000000000000000000000000000000000000000000000000606482015290519081900360840190fd5b5050600e54600090815260056020908152604080832060038054855473ffffffffffffffffffffffffffffffffffffffff1916865560018690556002869055908590556004858155600754845160e060020a63a9059cbb028152339281019290925260248201839052935192959194600160a060020a039094169363a9059cbb9360448084019492939192918390030190829087803b158015610afa57600080fd5b60065460ff8116916101008204700100000000000000000000000000000000029171010000000000000000000000000000000000810476010000000000000000000000000000000000000000000002917b01000000000000000000000000000000000000000000000000000000820460f860020a029160e060020a8104600190810b9260f060020a909204900b90565b600054600154600254600354600454600160a060020a03909416939091929394565b600a60009054906101000a9004600160a060020a0316600160a060020a0316635c975abb6040518163ffffffff1660e060020a028152600401602060405180830381600087803b1580156114f657600080fd5b505af115801561150a573d6000803e3d6000fd5b505050506040513d602081101561152057600080fd5b505115611565576040805160e560020a62461bcd028152602060048201526012602482015260008051602061418f833981519152604482015290519081900360640190fd5b600854600b546040805160e160020a6306e1085502815260a060020a90920460f060020a02600160f060020a031916600483015251600160a060020a0390921691630dc210aa916024808201926020929091908290030181600087803b1580156115ce57600080fd5b505af11580156115e2573d6000803e3d6000fd5b505050506040513d60208110156115f857600080fd5b5051151561163e576040805160e560020a62461bcd02815260206004820152601360248201526000805160206141af833981519152604482015290519081900360640190fd5b6009546040805160e160020a63726931070281523360048201529051600092600160a060020a03169163e4d2620e91602480830192602092919082900301818787803b15801561168d57600080fd5b505af11580156116a1573d6000803e3d6000fd5b505050506040513d60208110156116b757600080fd5b5051116116fc576040805160e560020a62461bcd02815260206004820152601260248201526000805160206141cf833981519152604482015290519081900360640190fd5b60003411611754576040805160e560020a62461bcd02815260206004820152601560248201527f6e6f206574682073656e6420776974682063616c6c0000000000000000000000604482015290519081900360640190fd5b61175c612fc1565b600054600160a060020a031633146117be576040805160e560020a62461bcd02815260206004820152601c60248201527f6f6e6c79207a6f6e654f776e65722063616e206164642066756e647300000000604482015290519081900360640190fd5b60065460ff16151561181a576040805160e560020a62461bcd02815260206004820152601960248201527f6e6f74207965742061646465642074656c6c657220696e666f00000000000000604482015290519081900360640190fd5b3360009081526010602052604090205461183a903463ffffffff61309716565b33600090815260106020526040902055565b6040805178ffffffffffffffffffffffffffffffffffffffffffffffffff1984166020808301919091526c01000000000000000000000000600160a060020a0385160260278301528251601b818403018152603b909201928390528151600093918291908401908083835b602083106118d65780518252601f1990920191602091820191016118b7565b5181516020939093036101000a600019018019909116921691909117905260405192018290039091209695505050505050565b600754600090600160a060020a03163314611994576040805160e560020a62461bcd02815260206004820152602260248201527f63616e206f6e6c792062652063616c6c65642062792064746820636f6e74726160448201527f6374000000000000000000000000000000000000000000000000000000000000606482015290519081900360840190fd5b600a60009054906101000a9004600160a060020a0316600160a060020a0316635c975abb6040518163ffffffff1660e060020a028152600401602060405180830381600087803b1580156119e757600080fd5b505af11580156119fb573d6000803e3d6000fd5b505050506040513d6020811015611a1157600080fd5b505115611a56576040805160e560020a62461bcd028152602060048201526012602482015260008051602061418f833981519152604482015290519081900360640190fd5b600854600b546040805160e160020a6306e1085502815260a060020a90920460f060020a02600160f060020a031916600483015251600160a060020a0390921691630dc210aa916024808201926020929091908290030181600087803b158015611abf57600080fd5b505af1158015611ad3573d6000803e3d6000fd5b505050506040513d6020811015611ae957600080fd5b50511515611b2f576040805160e560020a62461bcd02815260206004820152601360248201526000805160206141af833981519152604482015290519081900360640190fd5b611b3a8260006130a9565b9050600160f860020a031981167f40000000000000000000000000000000000000000000000000000000000000001480611b9d5750600160f860020a031981167f4100000000000000000000000000000000000000000000000000000000000000145b80611bd15750600160f860020a031981167f4200000000000000000000000000000000000000000000000000000000000000145b80611c055750600160f860020a031981167f4300000000000000000000000000000000000000000000000000000000000000145b1515611c5b576040805160e560020a62461bcd02815260206004820152601b60248201527f646964206e6f74206d61746368205a6f6e652066756e6374696f6e0000000000604482015290519081900360640190fd5b600160f860020a031981167f40000000000000000000000000000000000000000000000000000000000000001415611c9257610b24565b6009546040805160e160020a6372693107028152600160a060020a0387811660048301529151600093929092169163e4d2620e9160248082019260209290919082900301818787803b158015611ce757600080fd5b505af1158015611cfb573d6000803e3d6000fd5b505050506040513d6020811015611d1157600080fd5b505111611d56576040805160e560020a62461bcd02815260206004820152601260248201526000805160206141cf833981519152604482015290519081900360640190fd5b611d5e612fc1565b600160f860020a031981167f41000000000000000000000000000000000000000000000000000000000000001415611d9f57611d9a8484613114565b610b24565b600160f860020a031981167f42000000000000000000000000000000000000000000000000000000000000001415611ddb57611d9a8484613240565b600160f860020a031981167f43000000000000000000000000000000000000000000000000000000000000001415610b2457610b2484846139d4565b600b5460a060020a900460f060020a0281565b600a54600160a060020a031681565b600854600160a060020a031681565b600a60009054906101000a9004600160a060020a0316600160a060020a0316635c975abb6040518163ffffffff1660e060020a028152600401602060405180830381600087803b158015611e9b57600080fd5b505af1158015611eaf573d6000803e3d6000fd5b505050506040513d6020811015611ec557600080fd5b505115611f0a576040805160e560020a62461bcd028152602060048201526012602482015260008051602061418f833981519152604482015290519081900360640190fd5b600854600b546040805160e160020a6306e1085502815260a060020a90920460f060020a02600160f060020a031916600483015251600160a060020a0390921691630dc210aa916024808201926020929091908290030181600087803b158015611f7357600080fd5b505af1158015611f87573d6000803e3d6000fd5b505050506040513d6020811015611f9d57600080fd5b50511515611fe3576040805160e560020a62461bcd02815260206004820152601360248201526000805160206141af833981519152604482015290519081900360640190fd5b6009546040805160e160020a63726931070281523360048201529051600092600160a060020a03169163e4d2620e91602480830192602092919082900301818787803b15801561203257600080fd5b505af1158015612046573d6000803e3d6000fd5b505050506040513d602081101561205c57600080fd5b5051116120a1576040805160e560020a62461bcd02815260206004820152601260248201526000805160206141cf833981519152604482015290519081900360640190fd5b600a86146120f9576040805160e560020a62461bcd02815260206004820181905260248201527f657870656374656420706f736974696f6e20746f206265203130206279746573604482015290519081900360640190fd5b600b60169054906101000a90047901000000000000000000000000000000000000000000000000000278ffffffffffffffffffffffffffffffffffffffffffffffffff191661217a88888080601f0160208091040260200160405190810160405280939291908181526020018383808284375060009450613ba79350505050565b78ffffffffffffffffffffffffffffffffffffffffffffffffff1916146121eb576040805160e560020a62461bcd02815260206004820181905260248201527f706f736974696f6e206973206e6f7420696e736964652074686973207a6f6e65604482015290519081900360640190fd5b600854604080517f98bcc7d900000000000000000000000000000000000000000000000000000000815260076024820181905260048201928352604482018a9052600160a060020a03909316926398bcc7d9928b928b92919081906064018585808284378201915050945050505050602060405180830381600087803b15801561227457600080fd5b505af1158015612288573d6000803e3d6000fd5b505050506040513d602081101561229e57600080fd5b5051151561231c576040805160e560020a62461bcd02815260206004820152602360248201527f696e76616c696420706f736974696f6e2067656f68617368206368617261637460448201527f6572730000000000000000000000000000000000000000000000000000000000606482015290519081900360840190fd5b60018560ff1610158015612334575060648560ff1611155b15156123b0576040805160e560020a62461bcd02815260206004820152602260248201527f63757272656e6379206964206d75737420626520696e2072616e676520312d3160448201527f3030000000000000000000000000000000000000000000000000000000000000606482015290519081900360840190fd5b60f860020a8116156124585761270e198360010b121580156123d7575061270f8360010b13155b1515612453576040805160e560020a62461bcd02815260206004820152602960248201527f73656c6c526174652073686f756c64206265206265747765656e202d3939393960448201527f20616e6420393939390000000000000000000000000000000000000000000000606482015290519081900360840190fd5b6124d8565b600183900b156124d8576040805160e560020a62461bcd02815260206004820152602860248201527f63616e6e6f74207365742073656c6c52617465206966206e6f7420736574206160448201527f732073656c6c6572000000000000000000000000000000000000000000000000606482015290519081900360840190fd5b7f020000000000000000000000000000000000000000000000000000000000000081161561259c5761270e198260010b1215801561251b575061270f8260010b13155b1515612597576040805160e560020a62461bcd02815260206004820152602860248201527f627579526174652073686f756c64206265206265747765656e202d393939392060448201527f616e642039393939000000000000000000000000000000000000000000000000606482015290519081900360840190fd5b61261c565b600182900b1561261c576040805160e560020a62461bcd02815260206004820152602660248201527f63616e6e6f74207365742062757952617465206966206e6f742073657420617360448201527f2062757965720000000000000000000000000000000000000000000000000000606482015290519081900360840190fd5b612624612fc1565b600054600160a060020a031633146126ac576040805160e560020a62461bcd02815260206004820152602360248201527f6f6e6c79207a6f6e65206f776e65722063616e206164642074656c6c6572206960448201527f6e666f0000000000000000000000000000000000000000000000000000000000606482015290519081900360840190fd5b6006805460ff191660ff87161770ffffffffffffffffffffffffffffffff001916610100700100000000000000000000000000000000870402177fffff0000ffffffffffffffffffffffffffffffffffffffffffffffffffffffff1660e060020a600185810b61ffff90811692909202929092177dffffffffffffffffffffffffffffffffffffffffffffffffffffffffffff1660f060020a9287900b9190911691909102179055604080516020601f890181900481028201810190925287815261278e9189908990819084018382808284375060009450613c089350505050565b600680547affffffffffffffffffff000000000000000000000000000000000019167101000000000000000000000000000000000076010000000000000000000000000000000000000000000090930492909202919091177fffffffff00ffffffffffffffffffffffffffffffffffffffffffffffffffffff167b0100000000000000000000000000000000000000000000000000000060f860020a84040217905560405133907fbc905ab91d97b56e60549df29f65a04af2e1cf4b6d65da4af42f8d559ee9d32090600090a250505050505050565b600a60009054906101000a9004600160a060020a0316600160a060020a0316635c975abb6040518163ffffffff1660e060020a028152600401602060405180830381600087803b1580156128b757600080fd5b505af11580156128cb573d6000803e3d6000fd5b505050506040513d60208110156128e157600080fd5b505115612926576040805160e560020a62461bcd028152602060048201526012602482015260008051602061418f833981519152604482015290519081900360640190fd5b600854600b546040805160e160020a6306e1085502815260a060020a90920460f060020a02600160f060020a031916600483015251600160a060020a0390921691630dc210aa916024808201926020929091908290030181600087803b15801561298f57600080fd5b505af11580156129a3573d6000803e3d6000fd5b505050506040513d60208110156129b957600080fd5b505115156129ff576040805160e560020a62461bcd02815260206004820152601360248201526000805160206141af833981519152604482015290519081900360640190fd5b6009546040805160e160020a63726931070281523360048201529051600092600160a060020a03169163e4d2620e91602480830192602092919082900301818787803b158015612a4e57600080fd5b505af1158015612a62573d6000803e3d6000fd5b505050506040513d6020811015612a7857600080fd5b505111612abd576040805160e560020a62461bcd02815260206004820152601260248201526000805160206141cf833981519152604482015290519081900360640190fd5b33600160a060020a0383161415612b1e576040805160e560020a62461bcd02815260206004820152601860248201527f73656e6465722063616e6e6f7420616c736f20626520746f0000000000000000604482015290519081900360640190fd5b60008111612b76576040805160e560020a62461bcd02815260206004820152601d60248201527f616d6f756e7420746f2073656c6c2063616e6e6f74206265207a65726f000000604482015290519081900360640190fd5b612b7e612fc1565b600054600160a060020a03163314612be0576040805160e560020a62461bcd02815260206004820181905260248201527f63616e206f6e6c792062652063616c6c6564206279207a6f6e65206f776e6572604482015290519081900360640190fd5b60065460ff161515612c3c576040805160e560020a62461bcd02815260206004820152601960248201527f6e6f74207965742061646465642074656c6c657220696e666f00000000000000604482015290519081900360640190fd5b33600090815260106020526040902054811115612ca3576040805160e560020a62461bcd02815260206004820152601e60248201527f63616e6e6f742073656c6c206d6f7265207468616e20696e2066756e64730000604482015290519081900360640190fd5b33600090815260106020526040902054612cc3908263ffffffff612f4b16565b3360008181526010602052604080822093909355600b5483517fcde60333000000000000000000000000000000000000000000000000000000008152600160f060020a031960f060020a60a060020a8404021660048201526024810193909352600160a060020a03868116604485015260648401869052935193169263cde6033392608480820193929182900301818387803b158015612d6257600080fd5b505af1158015612d76573d6000803e3d6000fd5b505050505050565b600d6020526000908152604090205481565b60106020526000908152604090205481565b336000908152600c6020908152604080832054600d9092528220549091821180612dcc5750600081115b1515612e22576040805160e560020a62461bcd02815260206004820152601360248201527f6e6f7468696e6720746f20776974686472617700000000000000000000000000604482015290519081900360640190fd5b6000821115612ec057336000818152600c60209081526040808320839055600754815160e060020a63a9059cbb0281526004810195909552602485018790529051600160a060020a039091169363a9059cbb9360448083019493928390030190829087803b158015612e9357600080fd5b505af1158015612ea7573d6000803e3d6000fd5b505050506040513d6020811015612ebd57600080fd5b50505b6000811115612f0657336000818152600d60205260408082208290555183156108fc0291849190818181858888f19350505050158015612f04573d6000803e3d6000fd5b505b5050565b600954600160a060020a031681565b600080612f32600161072f85606463ffffffff612f9e16565b9150612f44838363ffffffff612f4b16565b9050915091565b60008083831115612f5b57600080fd5b5050808203805b5092915050565b600080831515612f7c5760009150612f62565b50828202828482811515612f8c57fe5b0414612f9757600080fd5b9392505050565b600080808311612fad57600080fd5b8284811515612fb857fe5b04949350505050565b612fc9614166565b60056000600e5481526020019081526020016000206080604051908101604052908160008201548152602001600182015481526020016002820160009054906101000a900460ff16600181111561301c57fe5b600181111561302757fe5b8152600291909101546101009004600160a060020a0316602090910152905060008160400151600181111561305857fe5b148015613069575080602001514210155b1561307b57613076613c69565b613094565b600054600160a060020a03161561309457613094613ea2565b50565b600082820183811015612f9757600080fd5b6000808260010184511015151561310a576040805160e560020a62461bcd02815260206004820152601060248201527f206e6f74206c6f6e6720656e6f75676800000000000000000000000000000000604482015290519081900360640190fd5b5050016020015190565b600054600160a060020a031615613175576040805160e560020a62461bcd02815260206004820152601d60248201527f63616e206e6f7420636c61696d207a6f6e652077697468206f776e6572000000604482015290519081900360640190fd5b68056bc75e2d631000008110156131fc576040805160e560020a62461bcd02815260206004820152603160248201527f6e656564206174206c65617374206d696e696d756d207a6f6e65207374616b6560448201527f20616d6f756e7420283130302044544829000000000000000000000000000000606482015290519081900360840190fd5b6000805473ffffffffffffffffffffffffffffffffffffffff1916600160a060020a0393909316929092179091554260018190556002829055600391909155600455565b60008054819081908190819081908190600160a060020a031615156132d5576040805160e560020a62461bcd02815260206004820152603560248201527f63616e6e6f7420626964206f6e207a6f6e6520776974686f7574206f776e657260448201527f2c2075736520636c61696d467265655a6f6e6528290000000000000000000000606482015290519081900360840190fd5b600e54600090815260056020526040902094506001600286015460ff1660018111156132fd57fe5b14156135eb57600185015461331b906202a30063ffffffff61309716565b4211613371576040805160e560020a62461bcd02815260206004820152601f60248201527f636f6f6c646f776e20706572696f6420646964206e6f7420656e642079657400604482015290519081900360640190fd5b600054600160a060020a038a8116911614156133fd576040805160e560020a62461bcd02815260206004820152602160248201527f7a6f6e656f776e65722063616e6e6f7420737461727420616e2061756374696f60448201527f6e00000000000000000000000000000000000000000000000000000000000000606482015290519081900360840190fd5b61340688612f19565b60025491985096508611613489576040805160e560020a62461bcd028152602060048201526024808201527f626964206973206c6f776572207468616e2063757272656e74207a6f6e65207360448201527f74616b6500000000000000000000000000000000000000000000000000000000606482015290519081900360840190fd5b600e8054600101908190556040805160808101909152428082529195509060208201906134bf906201518063ffffffff61309716565b815260200160008152600160a060020a038b166020918201526000868152600582526040908190208351815591830151600180840191909155908301516002830180549192909160ff191690838181111561351657fe5b0217905550606091909101516002909101805474ffffffffffffffffffffffffffffffffffffffff001916610100600160a060020a03938416021790556000858152600f602090815260408083208d8516845282528083208a9055600754815160e060020a63a9059cbb02815260048101869052602481018d9052915194169363a9059cbb93604480840194938390030190829087803b1580156135b957600080fd5b505af11580156135cd573d6000803e3d6000fd5b505050506040513d60208110156135e357600080fd5b506139c99050565b6000600286015460ff16600181111561360057fe5b14156139c9576002850154600160a060020a038a8116610100909204161415613673576040805160e560020a62461bcd02815260206004820152601960248201527f68696768657374206269646465722063616e6e6f742062696400000000000000604482015290519081900360640190fd5b600e546000908152600f602090815260408083206002890154600160a060020a0361010090910481168552925282205491549194508a8116911614156137a957600e546000908152600f60209081526040808320600160a060020a038d1684529091529020546136e9908963ffffffff61309716565b6002549092508390613701908463ffffffff61309716565b1161377c576040805160e560020a62461bcd02815260206004820152603160248201527f626964202b20616c7265616479207374616b6564206973206c6573732074686160448201527f6e2063757272656e742068696768657374000000000000000000000000000000606482015290519081900360840190fd5b600e546000908152600f60209081526040808320600160a060020a038d1684529091529020829055613999565b600e546000908152600f60209081526040808320600160a060020a038d16845290915290205415156138e1576137de88612f19565b909750955082861161383a576040805160e560020a62461bcd02815260206004820181905260248201527f626964206973206c657373207468616e2063757272656e742068696768657374604482015290519081900360640190fd5b600e546000908152600f60209081526040808320600160a060020a03808e1685529083528184208a9055600754825160e060020a63a9059cbb02815260048101839052602481018d9052925191169363a9059cbb93604480850194919392918390030190829087803b1580156138af57600080fd5b505af11580156138c3573d6000803e3d6000fd5b505050506040513d60208110156138d957600080fd5b506139999050565b600e546000908152600f60209081526040808320600160a060020a038d168452909152902054613917908963ffffffff61309716565b9050828111613970576040805160e560020a62461bcd02815260206004820181905260248201527f626964206973206c657373207468616e2063757272656e742068696768657374604482015290519081900360640190fd5b600e546000908152600f60209081526040808320600160a060020a038d16845290915290208190555b60028501805474ffffffffffffffffffffffffffffffffffffffff001916610100600160a060020a038c16021790555b505050505050505050565b600080548190600160a060020a03161515613a39576040805160e560020a62461bcd02815260206004820152601160248201527f7a6f6e6520686173206e6f206f776e6572000000000000000000000000000000604482015290519081900360640190fd5b600054600160a060020a03858116911614613a9e576040805160e560020a62461bcd02815260206004820152601860248201527f63616c6c6572206973206e6f74207a6f6e65206f776e65720000000000000000604482015290519081900360640190fd5b6001600e5460009081526005602052604090206002015460ff166001811115613ac357fe5b14613b3e576040805160e560020a62461bcd02815260206004820152602360248201527f63616e6e6f7420746f70207570207768696c652061756374696f6e2072756e6e60448201527f696e670000000000000000000000000000000000000000000000000000000000606482015290519081900360840190fd5b6003549150613b53828463ffffffff61309716565b600381905560408051848152602081018390528151929350600160a060020a038716927f993857d1afedc692a1ea47cde199310a57b73c0583028ce14c84bffd4e7aa5ea929181900390910190a250505050565b6000808260070184511015151561310a576040805160e560020a62461bcd02815260206004820152601060248201527f206e6f74206c6f6e6720656e6f75676800000000000000000000000000000000604482015290519081900360640190fd5b60008082600a0184511015151561310a576040805160e560020a62461bcd02815260206004820152601060248201527f206e6f74206c6f6e6720656e6f75676800000000000000000000000000000000604482015290519081900360640190fd5b600e8054600090815260056020908152604080832060028082018054600160ff19909116179081905595548552600f8452828520610100909604600160a060020a0316808652959093529083208054908490556004548254935492959491939192839283928392613cda92906106fd565b6000549195509350600160a060020a0387811691161415613d2a57600254613d08908663ffffffff61309716565b600255600354613d1e908663ffffffff61309716565b60035542600455613e20565b60008054600160a060020a0388811673ffffffffffffffffffffffffffffffffffffffff19831617835560018a8101549055600288905560038890554260045516808252600c602052604090912054909250613d8c908463ffffffff61309716565b600160a060020a0383166000908152600c602090815260408083209390935560108152828220805490839055600d90915291902054909150613dd4908263ffffffff61309716565b600160a060020a038084166000818152600d602052604080822094909455925191891692909130917f1d12264c14fc566e86950ff90e2b320c449b6b0a4f1afa0f1b0cd202e054bf1391a45b6007546040805160e060020a63a9059cbb028152600160a060020a0360048201819052602482018890529151919092169163a9059cbb9160448083019260209291908290030181600087803b158015613e7857600080fd5b505af1158015613e8c573d6000803e3d6000fd5b505050506040513d60208110156139c957600080fd5b600e5460009081526005602052604081206004546002549192918280808080600289015460ff166001811115613ed457fe5b1415613ef0578754965085871415613eeb57610fee565b613f1b565b6001600289015460ff166001811115613f0557fe5b1415613f1b5742965086861415613f1b57610fee565b613f268688876106fd565b6003549195509350841061406d57600354613f4890859063ffffffff612f4b16565b600380546000805473ffffffffffffffffffffffffffffffffffffffff198116825560018290556002829055928190556004819055604080518b8152602081018d90528082018490529051929850939550600160a060020a03909216935090917fcf07ead1fcfee76a926d09b2da5b5e475def868e5b56dd5f5aeea7d2d51cb445919081900360600190a260005460015460408051918252602082018a90528181018890526060820185905251600160a060020a03909216917ff6a68c2607aef85af6ee933234f69340aa368755ce48cd4d5bc9c443f6e675669181900360800190a260008054604051600160a060020a03918216929184169130917f1d12264c14fc566e86950ff90e2b320c449b6b0a4f1afa0f1b0cd202e054bf139190a46140d8565b600354614080908563ffffffff612f4b16565b600355600487905560005460408051888152602081018a90528082018790529051600160a060020a03909216917fcf07ead1fcfee76a926d09b2da5b5e475def868e5b56dd5f5aeea7d2d51cb4459181900360600190a25b6007546040805160e060020a63a9059cbb028152600160a060020a0360048201819052602482018890529151919092169163a9059cbb9160448083019260209291908290030181600087803b15801561413057600080fd5b505af1158015614144573d6000803e3d6000fd5b505050506040513d602081101561415a57600080fd5b50505050505050505050565b60408051608081018252600080825260208201819052909182019081526000602090910152905600636f6e7472616374206973207061757365640000000000000000000000000000636f756e7472792069732064697361626c65640000000000000000000000000075736572206e6f74206365727469666965640000000000000000000000000000a165627a7a72305820d1039192f89418d7589d4cf555f894397f00b14bb1e1f0439ba019d0eec2074d0029a165627a7a7230582072ad74073b9dca6761e1437311dbf9a852e640991e1937996e31f211fd8c49af0029",
  "source": "pragma solidity ^0.4.24;\n\nimport \"openzeppelin-solidity/contracts/ownership/Ownable.sol\";\n\nimport \"../dth/IDetherToken.sol\";\nimport \"../core/IUsers.sol\";\nimport \"../core/IControl.sol\";\nimport \"./IGeoRegistry.sol\";\n\n// will be deployed by this factory so we need the entire contract\nimport \"./Zone.sol\";\n\ncontract ZoneFactory is Ownable {\n\n  // ------------------------------------------------\n  //\n  // Variables Public\n  //\n  // ------------------------------------------------\n\n  //      geohash   zoneContractAddress or 0x0 if it doesnt exist\n  // TODO: now we can use computeCSC() to get CSC, do we need it? not really\n  mapping(bytes7 => address) public geohashToZone;\n  mapping(address => bytes7) public zoneToGeohash;\n\n  IDetherToken public dth;\n  IGeoRegistry public geo;\n  IUsers public users;\n  IControl public control;\n\n  // ------------------------------------------------\n  //\n  // Events\n  //\n  // ------------------------------------------------\n\n  event ZoneFactoryCreatedZone(address indexed zoneAddress, bytes7 indexed zoneGeohash, address indexed zoneOwner, uint dthStake);\n\n  // ------------------------------------------------\n  //\n  // Constructor\n  //\n  // ------------------------------------------------\n\n  constructor(address _dth, address _geo, address _users, address _control)\n    public\n  {\n    require(_dth != address(0), \"dth address cannot be 0x0\");\n    require(_geo != address(0), \"geo address cannot be 0x0\");\n    require(_users != address(0), \"users address cannot be 0x0\");\n    require(_control != address(0), \"control address cannot be 0x0\");\n\n    dth = IDetherToken(_dth);\n    geo = IGeoRegistry(_geo);\n    users = IUsers(_users);\n    control = IControl(_control);\n  }\n\n  // ------------------------------------------------\n  //\n  // Functions Getters\n  //\n  // ------------------------------------------------\n\n\n  function zoneExists(bytes7 _geohash)\n    external\n    view\n    returns (bool)\n  {\n    return geohashToZone[_geohash] != address(0);\n  }\n\n  // ------------------------------------------------\n  //\n  // Functions Getters Private\n  //\n  // ------------------------------------------------\n\n  function toBytes1(bytes _bytes, uint _start)\n    private\n    pure\n    returns (bytes1) {\n      require(_bytes.length >= (_start + 1), \" not long enough\");\n      bytes1 tempBytes1;\n\n      assembly {\n          tempBytes1 := mload(add(add(_bytes, 0x20), _start))\n      }\n\n      return tempBytes1;\n  }\n  function toBytes2(bytes _bytes, uint _start)\n    private\n    pure\n    returns (bytes2) {\n      require(_bytes.length >= (_start + 2), \" not long enough\");\n      bytes2 tempBytes2;\n\n      assembly {\n          tempBytes2 := mload(add(add(_bytes, 0x20), _start))\n      }\n\n      return tempBytes2;\n  }\n  function toBytes7(bytes _bytes, uint _start)\n    private\n    pure\n    returns (bytes7) {\n      require(_bytes.length >= (_start + 7), \" not long enough\");\n      bytes7 tempBytes7;\n\n      assembly {\n          tempBytes7 := mload(add(add(_bytes, 0x20), _start))\n      }\n\n      return tempBytes7;\n  }\n\n  // ------------------------------------------------\n  //\n  // Functions Setters Public\n  //\n  // ------------------------------------------------\n\n  function updateUserDailySold(bytes2 _countryCode, address _from, address _to, uint _amount)\n    external\n  {\n    require(zoneToGeohash[msg.sender] != bytes7(0), \"can only be called by a registered zone\");\n\n    users.updateDailySold(_countryCode, _from, _to, _amount);\n  }\n\n  // ERC223 magic\n  function tokenFallback(address _from, uint _value, bytes _data) // GAS COST +/- 3.763.729\n    public\n  {\n    require(msg.sender == address(dth), \"can only be called by dth contract\");\n\n    require(control.paused() == false, \"contract is paused\");\n    require(_data.length == 10, \"createAndClaim expects 10 bytes as data\");\n\n    // we only expect 1 function to be called, createAndClaim, encoded as bytes1(0x40)\n    require(toBytes1(_data, 0) == bytes1(0x40), \"incorrect first byte in data, expected 0x40\");\n\n    address sender = _from;\n    uint dthAmount = _value;\n\n    bytes2 country = toBytes2(_data, 1);\n    bytes7 geohash = toBytes7(_data, 3);\n\n    require(geo.countryIsEnabled(country), \"country is disabled\");\n    require(geo.zoneInsideCountry(country, geohash), \"zone is not inside country\");\n    require(geohashToZone[geohash] == address(0), \"zone already exists\");\n    require(users.getUserTier(sender) > 0, \"user not certified\");\n\n    // create/deploy the new zone\n    geohashToZone[geohash] = new Zone(\n      country, geohash, sender, dthAmount,\n      address(dth), address(geo), address(users), address(control), address(this)\n    );\n\n    zoneToGeohash[geohashToZone[geohash]] = geohash;\n\n    // send all dth through to the new Zone contract\n    dth.transfer(geohashToZone[geohash], dthAmount, hex\"40\");\n\n    emit ZoneFactoryCreatedZone(geohashToZone[geohash], geohash, sender, dthAmount);\n  }\n}\n",
  "sourcePath": "/Users/trip/Projects/detherContracts/contracts/map/ZoneFactory.sol",
  "compiler": {
    "name": "solc",
    "version": "0.4.24+commit.e67f0147.Emscripten.clang"
  },
  "schemaVersion": "2.0.1",
  "updatedAt": "2018-11-28T16:15:51.935Z"
}