{
  "contractName": "ZoneFactory",
  "abi": [
    {
      "constant": true,
      "inputs": [],
      "name": "dth",
      "outputs": [
        {
          "name": "",
          "type": "address"
        }
      ],
      "payable": false,
      "stateMutability": "view",
      "type": "function"
    },
    {
      "constant": true,
      "inputs": [
        {
          "name": "",
          "type": "address"
        }
      ],
      "name": "zoneToGeohash",
      "outputs": [
        {
          "name": "",
          "type": "bytes6"
        }
      ],
      "payable": false,
      "stateMutability": "view",
      "type": "function"
    },
    {
      "constant": true,
      "inputs": [
        {
          "name": "",
          "type": "address"
        }
      ],
      "name": "ownerToZone",
      "outputs": [
        {
          "name": "",
          "type": "address"
        }
      ],
      "payable": false,
      "stateMutability": "view",
      "type": "function"
    },
    {
      "constant": true,
      "inputs": [
        {
          "name": "",
          "type": "address"
        },
        {
          "name": "",
          "type": "uint256"
        }
      ],
      "name": "zoneToAuctionBidders",
      "outputs": [
        {
          "name": "",
          "type": "address"
        }
      ],
      "payable": false,
      "stateMutability": "view",
      "type": "function"
    },
    {
      "constant": true,
      "inputs": [
        {
          "name": "",
          "type": "bytes6"
        }
      ],
      "name": "geohashToZone",
      "outputs": [
        {
          "name": "",
          "type": "address"
        }
      ],
      "payable": false,
      "stateMutability": "view",
      "type": "function"
    },
    {
      "constant": true,
      "inputs": [],
      "name": "zoneImplementation",
      "outputs": [
        {
          "name": "",
          "type": "address"
        }
      ],
      "payable": false,
      "stateMutability": "view",
      "type": "function"
    },
    {
      "constant": true,
      "inputs": [],
      "name": "tellerImplementation",
      "outputs": [
        {
          "name": "",
          "type": "address"
        }
      ],
      "payable": false,
      "stateMutability": "view",
      "type": "function"
    },
    {
      "constant": true,
      "inputs": [
        {
          "name": "",
          "type": "address"
        }
      ],
      "name": "activeBidderToZone",
      "outputs": [
        {
          "name": "",
          "type": "address"
        }
      ],
      "payable": false,
      "stateMutability": "view",
      "type": "function"
    },
    {
      "constant": true,
      "inputs": [],
      "name": "taxCollector",
      "outputs": [
        {
          "name": "",
          "type": "address"
        }
      ],
      "payable": false,
      "stateMutability": "view",
      "type": "function"
    },
    {
      "constant": true,
      "inputs": [],
      "name": "geo",
      "outputs": [
        {
          "name": "",
          "type": "address"
        }
      ],
      "payable": false,
      "stateMutability": "view",
      "type": "function"
    },
    {
      "constant": true,
      "inputs": [],
      "name": "users",
      "outputs": [
        {
          "name": "",
          "type": "address"
        }
      ],
      "payable": false,
      "stateMutability": "view",
      "type": "function"
    },
    {
      "inputs": [
        {
          "name": "_dth",
          "type": "address"
        },
        {
          "name": "_geo",
          "type": "address"
        },
        {
          "name": "_users",
          "type": "address"
        },
        {
          "name": "_zoneImplementation",
          "type": "address"
        },
        {
          "name": "_tellerImplementation",
          "type": "address"
        },
        {
          "name": "_taxCollector",
          "type": "address"
        }
      ],
      "payable": false,
      "stateMutability": "nonpayable",
      "type": "constructor"
    },
    {
      "anonymous": false,
      "inputs": [
        {
          "indexed": false,
          "name": "zoneGeohash",
          "type": "bytes6"
        },
        {
          "indexed": false,
          "name": "zoneAddr",
          "type": "address"
        }
      ],
      "name": "NewZoneCreated",
      "type": "event"
    },
    {
      "anonymous": false,
      "inputs": [
        {
          "indexed": true,
          "name": "zoneFrom",
          "type": "bytes6"
        },
        {
          "indexed": true,
          "name": "sender",
          "type": "address"
        },
        {
          "indexed": false,
          "name": "auctionId",
          "type": "uint256"
        },
        {
          "indexed": false,
          "name": "bidAmount",
          "type": "uint256"
        }
      ],
      "name": "AuctionCreated",
      "type": "event"
    },
    {
      "anonymous": false,
      "inputs": [
        {
          "indexed": true,
          "name": "zoneFrom",
          "type": "bytes6"
        },
        {
          "indexed": true,
          "name": "newOwner",
          "type": "address"
        },
        {
          "indexed": false,
          "name": "auctionId",
          "type": "uint256"
        },
        {
          "indexed": false,
          "name": "winningBid",
          "type": "uint256"
        }
      ],
      "name": "AuctionEnded",
      "type": "event"
    },
    {
      "anonymous": false,
      "inputs": [
        {
          "indexed": true,
          "name": "zoneFrom",
          "type": "bytes6"
        },
        {
          "indexed": true,
          "name": "sender",
          "type": "address"
        },
        {
          "indexed": false,
          "name": "auctionId",
          "type": "uint256"
        },
        {
          "indexed": false,
          "name": "bidAmount",
          "type": "uint256"
        }
      ],
      "name": "Bid",
      "type": "event"
    },
    {
      "anonymous": false,
      "inputs": [
        {
          "indexed": true,
          "name": "zoneFrom",
          "type": "bytes6"
        },
        {
          "indexed": true,
          "name": "newOwner",
          "type": "address"
        },
        {
          "indexed": false,
          "name": "bidAmount",
          "type": "uint256"
        }
      ],
      "name": "ClaimFreeZone",
      "type": "event"
    },
    {
      "anonymous": false,
      "inputs": [
        {
          "indexed": true,
          "name": "zoneFrom",
          "type": "bytes6"
        },
        {
          "indexed": true,
          "name": "zoneOwner",
          "type": "address"
        }
      ],
      "name": "ReleaseZone",
      "type": "event"
    },
    {
      "constant": true,
      "inputs": [
        {
          "name": "_geohash",
          "type": "bytes6"
        }
      ],
      "name": "zoneExists",
      "outputs": [
        {
          "name": "",
          "type": "bool"
        }
      ],
      "payable": false,
      "stateMutability": "view",
      "type": "function"
    },
    {
      "constant": false,
      "inputs": [
        {
          "name": "_newOwner",
          "type": "address"
        },
        {
          "name": "_oldOwner",
          "type": "address"
        },
        {
          "name": "_zone",
          "type": "address"
        }
      ],
      "name": "changeOwner",
      "outputs": [],
      "payable": false,
      "stateMutability": "nonpayable",
      "type": "function"
    },
    {
      "constant": false,
      "inputs": [
        {
          "name": "bidder",
          "type": "address"
        }
      ],
      "name": "fillCurrentZoneBidder",
      "outputs": [],
      "payable": false,
      "stateMutability": "nonpayable",
      "type": "function"
    },
    {
      "constant": false,
      "inputs": [],
      "name": "removeCurrentZoneBidder",
      "outputs": [],
      "payable": false,
      "stateMutability": "nonpayable",
      "type": "function"
    },
    {
      "constant": false,
      "inputs": [
        {
          "name": "activeBidder",
          "type": "address"
        }
      ],
      "name": "removeActiveBidder",
      "outputs": [],
      "payable": false,
      "stateMutability": "nonpayable",
      "type": "function"
    },
    {
      "constant": false,
      "inputs": [
        {
          "name": "zoneFrom",
          "type": "bytes6"
        },
        {
          "name": "sender",
          "type": "address"
        },
        {
          "name": "auctionId",
          "type": "uint256"
        },
        {
          "name": "bidAmount",
          "type": "uint256"
        }
      ],
      "name": "emitAuctionCreated",
      "outputs": [],
      "payable": false,
      "stateMutability": "nonpayable",
      "type": "function"
    },
    {
      "constant": false,
      "inputs": [
        {
          "name": "zoneFrom",
          "type": "bytes6"
        },
        {
          "name": "newOwner",
          "type": "address"
        },
        {
          "name": "auctionId",
          "type": "uint256"
        },
        {
          "name": "winningBid",
          "type": "uint256"
        }
      ],
      "name": "emitAuctionEnded",
      "outputs": [],
      "payable": false,
      "stateMutability": "nonpayable",
      "type": "function"
    },
    {
      "constant": false,
      "inputs": [
        {
          "name": "zoneFrom",
          "type": "bytes6"
        },
        {
          "name": "sender",
          "type": "address"
        },
        {
          "name": "auctionId",
          "type": "uint256"
        },
        {
          "name": "bidAmount",
          "type": "uint256"
        }
      ],
      "name": "emitBid",
      "outputs": [],
      "payable": false,
      "stateMutability": "nonpayable",
      "type": "function"
    },
    {
      "constant": false,
      "inputs": [
        {
          "name": "zoneFrom",
          "type": "bytes6"
        },
        {
          "name": "newOwner",
          "type": "address"
        },
        {
          "name": "bidAmount",
          "type": "uint256"
        }
      ],
      "name": "emitClaimFreeZone",
      "outputs": [],
      "payable": false,
      "stateMutability": "nonpayable",
      "type": "function"
    },
    {
      "constant": false,
      "inputs": [
        {
          "name": "zoneFrom",
          "type": "bytes6"
        },
        {
          "name": "sender",
          "type": "address"
        }
      ],
      "name": "emitReleaseZone",
      "outputs": [],
      "payable": false,
      "stateMutability": "nonpayable",
      "type": "function"
    },
    {
      "constant": false,
      "inputs": [
        {
          "name": "_from",
          "type": "address"
        },
        {
          "name": "_value",
          "type": "uint256"
        },
        {
          "name": "_data",
          "type": "bytes"
        }
      ],
      "name": "tokenFallback",
      "outputs": [],
      "payable": false,
      "stateMutability": "nonpayable",
      "type": "function"
    }
  ],
  "bytecode": "0x60806040523480156200001157600080fd5b50604051620034fd380380620034fd833981810160405260c08110156200003757600080fd5b81019080805190602001909291908051906020019092919080519060200190929190805190602001909291908051906020019092919080519060200190929190505050600073ffffffffffffffffffffffffffffffffffffffff168673ffffffffffffffffffffffffffffffffffffffff1614156200011e576040517f08c379a00000000000000000000000000000000000000000000000000000000081526004018080602001828103825260198152602001807f64746820616464726573732063616e6e6f74206265203078300000000000000081525060200191505060405180910390fd5b600073ffffffffffffffffffffffffffffffffffffffff168573ffffffffffffffffffffffffffffffffffffffff161415620001c2576040517f08c379a00000000000000000000000000000000000000000000000000000000081526004018080602001828103825260198152602001807f67656f20616464726573732063616e6e6f74206265203078300000000000000081525060200191505060405180910390fd5b600073ffffffffffffffffffffffffffffffffffffffff168473ffffffffffffffffffffffffffffffffffffffff16141562000266576040517f08c379a000000000000000000000000000000000000000000000000000000000815260040180806020018281038252601b8152602001807f757365727320616464726573732063616e6e6f7420626520307830000000000081525060200191505060405180910390fd5b600073ffffffffffffffffffffffffffffffffffffffff168373ffffffffffffffffffffffffffffffffffffffff161415620002ee576040517f08c379a0000000000000000000000000000000000000000000000000000000008152600401808060200182810382526028815260200180620034ab6028913960400191505060405180910390fd5b600073ffffffffffffffffffffffffffffffffffffffff168273ffffffffffffffffffffffffffffffffffffffff16141562000376576040517f08c379a000000000000000000000000000000000000000000000000000000000815260040180806020018281038252602a815260200180620034d3602a913960400191505060405180910390fd5b85600560006101000a81548173ffffffffffffffffffffffffffffffffffffffff021916908373ffffffffffffffffffffffffffffffffffffffff16021790555084600660006101000a81548173ffffffffffffffffffffffffffffffffffffffff021916908373ffffffffffffffffffffffffffffffffffffffff16021790555083600760006101000a81548173ffffffffffffffffffffffffffffffffffffffff021916908373ffffffffffffffffffffffffffffffffffffffff16021790555082600860006101000a81548173ffffffffffffffffffffffffffffffffffffffff021916908373ffffffffffffffffffffffffffffffffffffffff16021790555081600960006101000a81548173ffffffffffffffffffffffffffffffffffffffff021916908373ffffffffffffffffffffffffffffffffffffffff16021790555080600a60006101000a81548173ffffffffffffffffffffffffffffffffffffffff021916908373ffffffffffffffffffffffffffffffffffffffff160217905550505050505050612f9980620005126000396000f3fe608060405234801561001057600080fd5b50600436106101425760003560e01c8063b238895c116100b8578063cfb73a791161007c578063cfb73a79146108a0578063d944e6a3146108aa578063db62314e146108f4578063f11c2cec14610938578063f2020275146109bc578063f90ad9ca14610a0657610142565b8063b238895c14610624578063b3b6dfff1461066e578063b3ec5938146106f2578063bea1dcf814610771578063c0ee0b8a146107bb57610142565b80637be0ecde1161010a5780637be0ecde146103605780638b2b6107146103ee5780638fb227e91461046d57806393d33a33146104ec578063a588761d14610577578063ab292266146105da57610142565b806301e57a37146101475780630ee19e591461019157806313f54caa146102065780637074053f146102985780637842986e146102dc575b600080fd5b61014f610a71565b604051808273ffffffffffffffffffffffffffffffffffffffff1673ffffffffffffffffffffffffffffffffffffffff16815260200191505060405180910390f35b610204600480360360608110156101a757600080fd5b81019080803579ffffffffffffffffffffffffffffffffffffffffffffffffffff19169060200190929190803573ffffffffffffffffffffffffffffffffffffffff16906020019092919080359060200190929190505050610a97565b005b6102486004803603602081101561021c57600080fd5b81019080803573ffffffffffffffffffffffffffffffffffffffff169060200190929190505050610c44565b604051808279ffffffffffffffffffffffffffffffffffffffffffffffffffff191679ffffffffffffffffffffffffffffffffffffffffffffffffffff1916815260200191505060405180910390f35b6102da600480360360208110156102ae57600080fd5b81019080803573ffffffffffffffffffffffffffffffffffffffff169060200190929190505050610c64565b005b61031e600480360360208110156102f257600080fd5b81019080803573ffffffffffffffffffffffffffffffffffffffff169060200190929190505050610e22565b604051808273ffffffffffffffffffffffffffffffffffffffff1673ffffffffffffffffffffffffffffffffffffffff16815260200191505060405180910390f35b6103ac6004803603604081101561037657600080fd5b81019080803573ffffffffffffffffffffffffffffffffffffffff16906020019092919080359060200190929190505050610e55565b604051808273ffffffffffffffffffffffffffffffffffffffff1673ffffffffffffffffffffffffffffffffffffffff16815260200191505060405180910390f35b61046b6004803603608081101561040457600080fd5b81019080803579ffffffffffffffffffffffffffffffffffffffffffffffffffff19169060200190929190803573ffffffffffffffffffffffffffffffffffffffff1690602001909291908035906020019092919080359060200190929190505050610ea0565b005b6104ea6004803603608081101561048357600080fd5b81019080803579ffffffffffffffffffffffffffffffffffffffffffffffffffff19169060200190929190803573ffffffffffffffffffffffffffffffffffffffff1690602001909291908035906020019092919080359060200190929190505050611056565b005b6105356004803603602081101561050257600080fd5b81019080803579ffffffffffffffffffffffffffffffffffffffffffffffffffff1916906020019092919050505061120c565b604051808273ffffffffffffffffffffffffffffffffffffffff1673ffffffffffffffffffffffffffffffffffffffff16815260200191505060405180910390f35b6105c06004803603602081101561058d57600080fd5b81019080803579ffffffffffffffffffffffffffffffffffffffffffffffffffff1916906020019092919050505061123f565b604051808215151515815260200191505060405180910390f35b6105e26112e4565b604051808273ffffffffffffffffffffffffffffffffffffffff1673ffffffffffffffffffffffffffffffffffffffff16815260200191505060405180910390f35b61062c61130a565b604051808273ffffffffffffffffffffffffffffffffffffffff1673ffffffffffffffffffffffffffffffffffffffff16815260200191505060405180910390f35b6106b06004803603602081101561068457600080fd5b81019080803573ffffffffffffffffffffffffffffffffffffffff169060200190929190505050611330565b604051808273ffffffffffffffffffffffffffffffffffffffff1673ffffffffffffffffffffffffffffffffffffffff16815260200191505060405180910390f35b61076f6004803603608081101561070857600080fd5b81019080803579ffffffffffffffffffffffffffffffffffffffffffffffffffff19169060200190929190803573ffffffffffffffffffffffffffffffffffffffff1690602001909291908035906020019092919080359060200190929190505050611363565b005b610779611519565b604051808273ffffffffffffffffffffffffffffffffffffffff1673ffffffffffffffffffffffffffffffffffffffff16815260200191505060405180910390f35b61089e600480360360608110156107d157600080fd5b81019080803573ffffffffffffffffffffffffffffffffffffffff169060200190929190803590602001909291908035906020019064010000000081111561081857600080fd5b82018360208201111561082a57600080fd5b8035906020019184600183028401116401000000008311171561084c57600080fd5b91908080601f016020809104026020016040519081016040528093929190818152602001838380828437600081840152601f19601f82011690508083019250505050505050919291929050505061153f565b005b6108a8612380565b005b6108b2612509565b604051808273ffffffffffffffffffffffffffffffffffffffff1673ffffffffffffffffffffffffffffffffffffffff16815260200191505060405180910390f35b6109366004803603602081101561090a57600080fd5b81019080803573ffffffffffffffffffffffffffffffffffffffff16906020019092919050505061252f565b005b6109ba6004803603606081101561094e57600080fd5b81019080803573ffffffffffffffffffffffffffffffffffffffff169060200190929190803573ffffffffffffffffffffffffffffffffffffffff169060200190929190803573ffffffffffffffffffffffffffffffffffffffff1690602001909291905050506128c0565b005b6109c4612afe565b604051808273ffffffffffffffffffffffffffffffffffffffff1673ffffffffffffffffffffffffffffffffffffffff16815260200191505060405180910390f35b610a6f60048036036040811015610a1c57600080fd5b81019080803579ffffffffffffffffffffffffffffffffffffffffffffffffffff19169060200190929190803573ffffffffffffffffffffffffffffffffffffffff169060200190929190505050612b24565b005b600560009054906101000a900473ffffffffffffffffffffffffffffffffffffffff1681565b3373ffffffffffffffffffffffffffffffffffffffff16600080600160003373ffffffffffffffffffffffffffffffffffffffff1673ffffffffffffffffffffffffffffffffffffffff16815260200190815260200160002060009054906101000a900460d01b79ffffffffffffffffffffffffffffffffffffffffffffffffffff191679ffffffffffffffffffffffffffffffffffffffffffffffffffff1916815260200190815260200160002060009054906101000a900473ffffffffffffffffffffffffffffffffffffffff1673ffffffffffffffffffffffffffffffffffffffff1614610bd3576040517f08c379a0000000000000000000000000000000000000000000000000000000008152600401808060200182810382526023815260200180612f0a6023913960400191505060405180910390fd5b8173ffffffffffffffffffffffffffffffffffffffff168379ffffffffffffffffffffffffffffffffffffffffffffffffffff19167fd458c67718367842bf92e5abd602ddc0f41a0dd4e4040a8404469235076caef9836040518082815260200191505060405180910390a3505050565b60016020528060005260406000206000915054906101000a900460d01b81565b3373ffffffffffffffffffffffffffffffffffffffff16600080600160003373ffffffffffffffffffffffffffffffffffffffff1673ffffffffffffffffffffffffffffffffffffffff16815260200190815260200160002060009054906101000a900460d01b79ffffffffffffffffffffffffffffffffffffffffffffffffffff191679ffffffffffffffffffffffffffffffffffffffffffffffffffff1916815260200190815260200160002060009054906101000a900473ffffffffffffffffffffffffffffffffffffffff1673ffffffffffffffffffffffffffffffffffffffff1614610da0576040517f08c379a0000000000000000000000000000000000000000000000000000000008152600401808060200182810382526023815260200180612f0a6023913960400191505060405180910390fd5b6000600460008373ffffffffffffffffffffffffffffffffffffffff1673ffffffffffffffffffffffffffffffffffffffff16815260200190815260200160002060006101000a81548173ffffffffffffffffffffffffffffffffffffffff021916908373ffffffffffffffffffffffffffffffffffffffff16021790555050565b60026020528060005260406000206000915054906101000a900473ffffffffffffffffffffffffffffffffffffffff1681565b60036020528160005260406000208181548110610e6e57fe5b906000526020600020016000915091509054906101000a900473ffffffffffffffffffffffffffffffffffffffff1681565b3373ffffffffffffffffffffffffffffffffffffffff16600080600160003373ffffffffffffffffffffffffffffffffffffffff1673ffffffffffffffffffffffffffffffffffffffff16815260200190815260200160002060009054906101000a900460d01b79ffffffffffffffffffffffffffffffffffffffffffffffffffff191679ffffffffffffffffffffffffffffffffffffffffffffffffffff1916815260200190815260200160002060009054906101000a900473ffffffffffffffffffffffffffffffffffffffff1673ffffffffffffffffffffffffffffffffffffffff1614610fdc576040517f08c379a0000000000000000000000000000000000000000000000000000000008152600401808060200182810382526023815260200180612f0a6023913960400191505060405180910390fd5b8273ffffffffffffffffffffffffffffffffffffffff168479ffffffffffffffffffffffffffffffffffffffffffffffffffff19167f1244486608047adbb567ab0df77766fcd013e539e01d9b3fca098efd2cfc250d8484604051808381526020018281526020019250505060405180910390a350505050565b3373ffffffffffffffffffffffffffffffffffffffff16600080600160003373ffffffffffffffffffffffffffffffffffffffff1673ffffffffffffffffffffffffffffffffffffffff16815260200190815260200160002060009054906101000a900460d01b79ffffffffffffffffffffffffffffffffffffffffffffffffffff191679ffffffffffffffffffffffffffffffffffffffffffffffffffff1916815260200190815260200160002060009054906101000a900473ffffffffffffffffffffffffffffffffffffffff1673ffffffffffffffffffffffffffffffffffffffff1614611192576040517f08c379a0000000000000000000000000000000000000000000000000000000008152600401808060200182810382526023815260200180612f0a6023913960400191505060405180910390fd5b8273ffffffffffffffffffffffffffffffffffffffff168479ffffffffffffffffffffffffffffffffffffffffffffffffffff19167f95d11cb5931ff71a8da0046d88e4b4c07eb8f8b36c02c76c890975c5c0fe6f2f8484604051808381526020018281526020019250505060405180910390a350505050565b60006020528060005260406000206000915054906101000a900473ffffffffffffffffffffffffffffffffffffffff1681565b60008073ffffffffffffffffffffffffffffffffffffffff166000808479ffffffffffffffffffffffffffffffffffffffffffffffffffff191679ffffffffffffffffffffffffffffffffffffffffffffffffffff1916815260200190815260200160002060009054906101000a900473ffffffffffffffffffffffffffffffffffffffff1673ffffffffffffffffffffffffffffffffffffffff1614159050919050565b600860009054906101000a900473ffffffffffffffffffffffffffffffffffffffff1681565b600960009054906101000a900473ffffffffffffffffffffffffffffffffffffffff1681565b60046020528060005260406000206000915054906101000a900473ffffffffffffffffffffffffffffffffffffffff1681565b3373ffffffffffffffffffffffffffffffffffffffff16600080600160003373ffffffffffffffffffffffffffffffffffffffff1673ffffffffffffffffffffffffffffffffffffffff16815260200190815260200160002060009054906101000a900460d01b79ffffffffffffffffffffffffffffffffffffffffffffffffffff191679ffffffffffffffffffffffffffffffffffffffffffffffffffff1916815260200190815260200160002060009054906101000a900473ffffffffffffffffffffffffffffffffffffffff1673ffffffffffffffffffffffffffffffffffffffff161461149f576040517f08c379a0000000000000000000000000000000000000000000000000000000008152600401808060200182810382526023815260200180612f0a6023913960400191505060405180910390fd5b8273ffffffffffffffffffffffffffffffffffffffff168479ffffffffffffffffffffffffffffffffffffffffffffffffffff19167ff974ab5f85a03dd2c3f90b1260b5637f6871063ed8b9b1c2db00add9ce5788e48484604051808381526020018281526020019250505060405180910390a350505050565b600a60009054906101000a900473ffffffffffffffffffffffffffffffffffffffff1681565b600560009054906101000a900473ffffffffffffffffffffffffffffffffffffffff1673ffffffffffffffffffffffffffffffffffffffff163373ffffffffffffffffffffffffffffffffffffffff16146115e5576040517f08c379a0000000000000000000000000000000000000000000000000000000008152600401808060200182810382526022815260200180612ec26022913960400191505060405180910390fd5b600881511461163f576040517f08c379a0000000000000000000000000000000000000000000000000000000008152600401808060200182810382526026815260200180612ee46026913960400191505060405180910390fd5b600083905060008390506000611656846000612cc5565b90506000611665856002612d56565b9050600660009054906101000a900473ffffffffffffffffffffffffffffffffffffffff1673ffffffffffffffffffffffffffffffffffffffff1663923ae12b836040518263ffffffff1660e01b815260040180827dffffffffffffffffffffffffffffffffffffffffffffffffffffffffffff19167dffffffffffffffffffffffffffffffffffffffffffffffffffffffffffff1916815260200191505060206040518083038186803b15801561171c57600080fd5b505afa158015611730573d6000803e3d6000fd5b505050506040513d602081101561174657600080fd5b81019080805190602001909291905050506117c9576040517f08c379a00000000000000000000000000000000000000000000000000000000081526004018080602001828103825260138152602001807f636f756e7472792069732064697361626c65640000000000000000000000000081525060200191505060405180910390fd5b600660009054906101000a900473ffffffffffffffffffffffffffffffffffffffff1673ffffffffffffffffffffffffffffffffffffffff16632aaec37b83836040518363ffffffff1660e01b815260040180837dffffffffffffffffffffffffffffffffffffffffffffffffffffffffffff19167dffffffffffffffffffffffffffffffffffffffffffffffffffffffffffff19168152602001827bffffffffffffffffffffffffffffffffffffffffffffffffffffffff19167bffffffffffffffffffffffffffffffffffffffffffffffffffffffff191681526020019250505060206040518083038186803b1580156118c457600080fd5b505afa1580156118d8573d6000803e3d6000fd5b505050506040513d60208110156118ee57600080fd5b8101908080519060200190929190505050611971576040517f08c379a000000000000000000000000000000000000000000000000000000000815260040180806020018281038252601a8152602001807f7a6f6e65206973206e6f7420696e7369646520636f756e74727900000000000081525060200191505060405180910390fd5b600073ffffffffffffffffffffffffffffffffffffffff166000808379ffffffffffffffffffffffffffffffffffffffffffffffffffff191679ffffffffffffffffffffffffffffffffffffffffffffffffffff1916815260200190815260200160002060009054906101000a900473ffffffffffffffffffffffffffffffffffffffff1673ffffffffffffffffffffffffffffffffffffffff1614611a7f576040517f08c379a00000000000000000000000000000000000000000000000000000000081526004018080602001828103825260138152602001807f7a6f6e6520616c7265616479206578697374730000000000000000000000000081525060200191505060405180910390fd5b600073ffffffffffffffffffffffffffffffffffffffff16600260008673ffffffffffffffffffffffffffffffffffffffff1673ffffffffffffffffffffffffffffffffffffffff16815260200190815260200160002060009054906101000a900473ffffffffffffffffffffffffffffffffffffffff1673ffffffffffffffffffffffffffffffffffffffff1614611b80576040517f08c379a000000000000000000000000000000000000000000000000000000000815260040180806020018281038252601a8152602001807f6164647265737320616c7265616479206f776e2061207a6f6e6500000000000081525060200191505060405180910390fd5b600073ffffffffffffffffffffffffffffffffffffffff16600460008673ffffffffffffffffffffffffffffffffffffffff1673ffffffffffffffffffffffffffffffffffffffff16815260200190815260200160002060009054906101000a900473ffffffffffffffffffffffffffffffffffffffff1673ffffffffffffffffffffffffffffffffffffffff1614611c64576040517f08c379a0000000000000000000000000000000000000000000000000000000008152600401808060200182810382526038815260200180612f2d6038913960400191505060405180910390fd5b6000611c91600860009054906101000a900473ffffffffffffffffffffffffffffffffffffffff16612de7565b90506000611cc0600960009054906101000a900473ffffffffffffffffffffffffffffffffffffffff16612de7565b90508173ffffffffffffffffffffffffffffffffffffffff166363c8ce6985858989600560009054906101000a900473ffffffffffffffffffffffffffffffffffffffff16600660009054906101000a900473ffffffffffffffffffffffffffffffffffffffff1630600a60009054906101000a900473ffffffffffffffffffffffffffffffffffffffff168a6040518a63ffffffff1660e01b8152600401808a7dffffffffffffffffffffffffffffffffffffffffffffffffffffffffffff19167dffffffffffffffffffffffffffffffffffffffffffffffffffffffffffff191681526020018979ffffffffffffffffffffffffffffffffffffffffffffffffffff191679ffffffffffffffffffffffffffffffffffffffffffffffffffff191681526020018873ffffffffffffffffffffffffffffffffffffffff1673ffffffffffffffffffffffffffffffffffffffff1681526020018781526020018673ffffffffffffffffffffffffffffffffffffffff1673ffffffffffffffffffffffffffffffffffffffff1681526020018573ffffffffffffffffffffffffffffffffffffffff1673ffffffffffffffffffffffffffffffffffffffff1681526020018473ffffffffffffffffffffffffffffffffffffffff1673ffffffffffffffffffffffffffffffffffffffff1681526020018373ffffffffffffffffffffffffffffffffffffffff1673ffffffffffffffffffffffffffffffffffffffff1681526020018273ffffffffffffffffffffffffffffffffffffffff1673ffffffffffffffffffffffffffffffffffffffff1681526020019950505050505050505050600060405180830381600087803b158015611f3f57600080fd5b505af1158015611f53573d6000803e3d6000fd5b505050508073ffffffffffffffffffffffffffffffffffffffff1663f09a4016600660009054906101000a900473ffffffffffffffffffffffffffffffffffffffff16846040518363ffffffff1660e01b8152600401808373ffffffffffffffffffffffffffffffffffffffff1673ffffffffffffffffffffffffffffffffffffffff1681526020018273ffffffffffffffffffffffffffffffffffffffff1673ffffffffffffffffffffffffffffffffffffffff16815260200192505050600060405180830381600087803b15801561202c57600080fd5b505af1158015612040573d6000803e3d6000fd5b50505050816000808579ffffffffffffffffffffffffffffffffffffffffffffffffffff191679ffffffffffffffffffffffffffffffffffffffffffffffffffff1916815260200190815260200160002060006101000a81548173ffffffffffffffffffffffffffffffffffffffff021916908373ffffffffffffffffffffffffffffffffffffffff16021790555082600160008473ffffffffffffffffffffffffffffffffffffffff1673ffffffffffffffffffffffffffffffffffffffff16815260200190815260200160002060006101000a81548165ffffffffffff021916908360d01c021790555081600260008873ffffffffffffffffffffffffffffffffffffffff1673ffffffffffffffffffffffffffffffffffffffff16815260200190815260200160002060006101000a81548173ffffffffffffffffffffffffffffffffffffffff021916908373ffffffffffffffffffffffffffffffffffffffff160217905550600560009054906101000a900473ffffffffffffffffffffffffffffffffffffffff1673ffffffffffffffffffffffffffffffffffffffff1663be45fd6283876040518363ffffffff1660e01b8152600401808373ffffffffffffffffffffffffffffffffffffffff1673ffffffffffffffffffffffffffffffffffffffff16815260200182815260200180602001828103825260018152602001807f40000000000000000000000000000000000000000000000000000000000000008152506020019350505050602060405180830381600087803b15801561228c57600080fd5b505af11580156122a0573d6000803e3d6000fd5b505050506040513d60208110156122b657600080fd5b81019080805190602001909291905050506122d057600080fd5b7f598103a2861d4204d0aa51fdbfbc7c6822a670e0069bd2cb319255e97793d4078383604051808379ffffffffffffffffffffffffffffffffffffffffffffffffffff191679ffffffffffffffffffffffffffffffffffffffffffffffffffff191681526020018273ffffffffffffffffffffffffffffffffffffffff1673ffffffffffffffffffffffffffffffffffffffff1681526020019250505060405180910390a1505050505050505050565b3373ffffffffffffffffffffffffffffffffffffffff16600080600160003373ffffffffffffffffffffffffffffffffffffffff1673ffffffffffffffffffffffffffffffffffffffff16815260200190815260200160002060009054906101000a900460d01b79ffffffffffffffffffffffffffffffffffffffffffffffffffff191679ffffffffffffffffffffffffffffffffffffffffffffffffffff1916815260200190815260200160002060009054906101000a900473ffffffffffffffffffffffffffffffffffffffff1673ffffffffffffffffffffffffffffffffffffffff16146124bc576040517f08c379a0000000000000000000000000000000000000000000000000000000008152600401808060200182810382526023815260200180612f0a6023913960400191505060405180910390fd5b600360003373ffffffffffffffffffffffffffffffffffffffff1673ffffffffffffffffffffffffffffffffffffffff16815260200190815260200160002060006125079190612e51565b565b600660009054906101000a900473ffffffffffffffffffffffffffffffffffffffff1681565b3373ffffffffffffffffffffffffffffffffffffffff16600080600160003373ffffffffffffffffffffffffffffffffffffffff1673ffffffffffffffffffffffffffffffffffffffff16815260200190815260200160002060009054906101000a900460d01b79ffffffffffffffffffffffffffffffffffffffffffffffffffff191679ffffffffffffffffffffffffffffffffffffffffffffffffffff1916815260200190815260200160002060009054906101000a900473ffffffffffffffffffffffffffffffffffffffff1673ffffffffffffffffffffffffffffffffffffffff161461266b576040517f08c379a0000000000000000000000000000000000000000000000000000000008152600401808060200182810382526023815260200180612f0a6023913960400191505060405180910390fd5b6015600360003373ffffffffffffffffffffffffffffffffffffffff1673ffffffffffffffffffffffffffffffffffffffff168152602001908152602001600020805490501115612707576040517f08c379a000000000000000000000000000000000000000000000000000000000815260040180806020018281038252602a815260200180612e98602a913960400191505060405180910390fd5b600073ffffffffffffffffffffffffffffffffffffffff16600460008373ffffffffffffffffffffffffffffffffffffffff1673ffffffffffffffffffffffffffffffffffffffff16815260200190815260200160002060009054906101000a900473ffffffffffffffffffffffffffffffffffffffff1673ffffffffffffffffffffffffffffffffffffffff1614156128bd57600360003373ffffffffffffffffffffffffffffffffffffffff1673ffffffffffffffffffffffffffffffffffffffff1681526020019081526020016000208190806001815401808255809150509060018203906000526020600020016000909192909190916101000a81548173ffffffffffffffffffffffffffffffffffffffff021916908373ffffffffffffffffffffffffffffffffffffffff1602179055505033600460008373ffffffffffffffffffffffffffffffffffffffff1673ffffffffffffffffffffffffffffffffffffffff16815260200190815260200160002060006101000a81548173ffffffffffffffffffffffffffffffffffffffff021916908373ffffffffffffffffffffffffffffffffffffffff1602179055505b50565b3373ffffffffffffffffffffffffffffffffffffffff16600080600160003373ffffffffffffffffffffffffffffffffffffffff1673ffffffffffffffffffffffffffffffffffffffff16815260200190815260200160002060009054906101000a900460d01b79ffffffffffffffffffffffffffffffffffffffffffffffffffff191679ffffffffffffffffffffffffffffffffffffffffffffffffffff1916815260200190815260200160002060009054906101000a900473ffffffffffffffffffffffffffffffffffffffff1673ffffffffffffffffffffffffffffffffffffffff16146129fc576040517f08c379a0000000000000000000000000000000000000000000000000000000008152600401808060200182810382526023815260200180612f0a6023913960400191505060405180910390fd5b6000600260008473ffffffffffffffffffffffffffffffffffffffff1673ffffffffffffffffffffffffffffffffffffffff16815260200190815260200160002060006101000a81548173ffffffffffffffffffffffffffffffffffffffff021916908373ffffffffffffffffffffffffffffffffffffffff16021790555080600260008573ffffffffffffffffffffffffffffffffffffffff1673ffffffffffffffffffffffffffffffffffffffff16815260200190815260200160002060006101000a81548173ffffffffffffffffffffffffffffffffffffffff021916908373ffffffffffffffffffffffffffffffffffffffff160217905550505050565b600760009054906101000a900473ffffffffffffffffffffffffffffffffffffffff1681565b3373ffffffffffffffffffffffffffffffffffffffff16600080600160003373ffffffffffffffffffffffffffffffffffffffff1673ffffffffffffffffffffffffffffffffffffffff16815260200190815260200160002060009054906101000a900460d01b79ffffffffffffffffffffffffffffffffffffffffffffffffffff191679ffffffffffffffffffffffffffffffffffffffffffffffffffff1916815260200190815260200160002060009054906101000a900473ffffffffffffffffffffffffffffffffffffffff1673ffffffffffffffffffffffffffffffffffffffff1614612c60576040517f08c379a0000000000000000000000000000000000000000000000000000000008152600401808060200182810382526023815260200180612f0a6023913960400191505060405180910390fd5b8073ffffffffffffffffffffffffffffffffffffffff168279ffffffffffffffffffffffffffffffffffffffffffffffffffff19167fe9d260fcc73dbbb6c53fbf61ab562873cf5cb9cf47963b1d1a6133d1667d0b0a60405160405180910390a35050565b60006002820183511015612d41576040517f08c379a00000000000000000000000000000000000000000000000000000000081526004018080602001828103825260108152602001807f206e6f74206c6f6e6720656e6f7567680000000000000000000000000000000081525060200191505060405180910390fd5b60008260208501015190508091505092915050565b60006006820183511015612dd2576040517f08c379a00000000000000000000000000000000000000000000000000000000081526004018080602001828103825260108152602001807f206e6f74206c6f6e6720656e6f7567680000000000000000000000000000000081525060200191505060405180910390fd5b60008260208501015190508091505092915050565b6000808260601b90506040517f3d602d80600a3d3981f3363d3d373d3d3d363d7300000000000000000000000081528160148201527f5af43d82803e903d91602b57fd5bf3000000000000000000000000000000000060288201526037816000f092505050919050565b5080546000825590600052602060002090810190612e6f9190612e72565b50565b612e9491905b80821115612e90576000816000905550600101612e78565b5090565b9056fe746865726520697320616c726561647920323120626964646572206f6e20746869732061756374696f6e63616e206f6e6c792062652063616c6c65642062792064746820636f6e7472616374637265617465416e64436c61696d2065787065637473203820627974657320617320646174616d73672e73656e646572206973206e6f7420612072656769737465726564207a6f6e6573656e6465722069732063757272656e746c7920696e766f6c76656420696e20616e2061756374696f6e20287a6f6e65466163746f727929a265627a7a723058202551517bf5b189999326202ffb3cb89e7487ead36af26d025c8b1fa3e62d328264736f6c634300050a00327a6f6e65496d706c656d656e746174696f6e20616464726573732063616e6e6f742062652030783074656c6c6572496d706c656d656e746174696f6e20616464726573732063616e6e6f7420626520307830",
  "source": "pragma solidity ^0.5.10;\n\nimport \"../eip1167/EIP1167CloneFactory.sol\";\n\nimport \"../interfaces/IERC223ReceivingContract.sol\";\nimport \"../interfaces/IDetherToken.sol\";\nimport \"../interfaces/IUsers.sol\";\nimport \"../interfaces/IGeoRegistry.sol\";\nimport \"../interfaces/IZone.sol\";\nimport \"../interfaces/ITeller.sol\";\n\ncontract ZoneFactory is IERC223ReceivingContract, EIP1167CloneFactory {\n\n  // ------------------------------------------------\n  //\n  // Variables Public\n  //\n  // ------------------------------------------------\n\n  //      geohash   zoneContractAddress or 0x0 if it doesnt exist\n  mapping(bytes6 => address) public geohashToZone;\n  mapping(address => bytes6) public zoneToGeohash;\n  mapping(address => address) public ownerToZone;\n  mapping(address => address[]) public zoneToAuctionBidders;\n  mapping(address => address) public activeBidderToZone;\n\n  IDetherToken public dth;\n  IGeoRegistry public geo;\n  IUsers public users;\n\n  address public zoneImplementation;\n  address public tellerImplementation;\n  address public taxCollector;\n  \n\n  // ------------------------------------------------\n  //\n  // Events\n  //\n  // ------------------------------------------------\n\n  event NewZoneCreated(bytes6 zoneGeohash, address zoneAddr);\n\n  /*\n   * ZONE EVENT\n   */\n  event AuctionCreated(bytes6 indexed zoneFrom, address indexed sender, uint auctionId, uint bidAmount);\n  event AuctionEnded(bytes6 indexed zoneFrom, address indexed newOwner, uint auctionId,  uint winningBid);\n  event Bid(bytes6 indexed zoneFrom, address indexed sender, uint auctionId, uint bidAmount);\n  event ClaimFreeZone(bytes6 indexed zoneFrom, address indexed newOwner,  uint bidAmount);\n  event ReleaseZone(bytes6 indexed zoneFrom, address indexed zoneOwner);\n\n  // ------------------------------------------------\n  //\n  // Modifiers\n  //\n  // ------------------------------------------------\n\n  modifier onlyZone() {\n    // require(zoneToGeohash[msg.sender] != bytes6(0), \"only zone can emit event\");\n    require(geohashToZone[zoneToGeohash[msg.sender]] == msg.sender, 'msg.sender is not a registered zone');\n    _;\n  }\n\n  // \n  // ------------------------------------------------\n  //\n  // Constructor\n  //\n  // ------------------------------------------------\n\n  constructor(address _dth, address _geo, address _users, address _zoneImplementation, address _tellerImplementation, address _taxCollector)\n    public\n  {\n    require(_dth != address(0), \"dth address cannot be 0x0\");\n    require(_geo != address(0), \"geo address cannot be 0x0\");\n    require(_users != address(0), \"users address cannot be 0x0\");\n    require(_zoneImplementation != address(0), \"zoneImplementation address cannot be 0x0\");\n    require(_tellerImplementation != address(0), \"tellerImplementation address cannot be 0x0\");\n\n    dth = IDetherToken(_dth);\n    geo = IGeoRegistry(_geo);\n    users = IUsers(_users);\n\n    zoneImplementation = _zoneImplementation;\n    tellerImplementation = _tellerImplementation;\n    taxCollector = _taxCollector;\n  }\n\n  // ------------------------------------------------\n  //\n  // Functions Private \n  //\n  // ------------------------------------------------\n\n  function toBytes1(bytes memory _bytes, uint _start)\n    private\n    pure\n    returns (bytes1)\n  {\n    require(_bytes.length >= (_start + 1), \" not long enough\");\n    bytes1 tempBytes1;\n\n    assembly {\n        tempBytes1 := mload(add(add(_bytes, 0x20), _start))\n    }\n\n    return tempBytes1;\n  }\n\n  function toBytes2(bytes memory _bytes, uint _start)\n    private\n    pure\n    returns (bytes2)\n  {\n    require(_bytes.length >= (_start + 2), \" not long enough\");\n    bytes2 tempBytes2;\n\n    assembly {\n        tempBytes2 := mload(add(add(_bytes, 0x20), _start))\n    }\n\n    return tempBytes2;\n  }\n\n  function toBytes6(bytes memory _bytes, uint _start)\n    private\n    pure\n    returns (bytes6)\n  {\n    require(_bytes.length >= (_start + 6), \" not long enough\");\n    bytes6 tempBytes6;\n\n    assembly {\n        tempBytes6 := mload(add(add(_bytes, 0x20), _start))\n    }\n\n    return tempBytes6;\n  }\n  function slice(bytes memory _bytes, uint _start, uint _length)\n    private\n    pure\n    returns (bytes memory)\n  {\n    require(_bytes.length >= (_start + _length));\n    bytes memory tempBytes;\n    assembly {\n        switch iszero(_length)\n        case 0 {\n            tempBytes := mload(0x40)\n            let lengthmod := and(_length, 31)\n            let mc := add(add(tempBytes, lengthmod), mul(0x20, iszero(lengthmod)))\n            let end := add(mc, _length)\n            for {\n                let cc := add(add(add(_bytes, lengthmod), mul(0x20, iszero(lengthmod))), _start)\n            } lt(mc, end) {\n                mc := add(mc, 0x20)\n                cc := add(cc, 0x20)\n            } {\n                mstore(mc, mload(cc))\n            }\n            mstore(tempBytes, _length)\n            mstore(0x40, and(add(mc, 31), not(31)))\n        }\n        default {\n            tempBytes := mload(0x40)\n            mstore(0x40, add(tempBytes, 0x20))\n        }\n    }\n    return tempBytes;\n  }\n\n  // ------------------------------------------------\n  //\n  // Functions Public Getters\n  //\n  // ------------------------------------------------\n\n  function zoneExists(bytes6 _geohash)\n    external\n    view\n    returns (bool)\n  {\n    return geohashToZone[_geohash] != address(0);\n  }\n\n\n  // ------------------------------------------------\n  //\n  // Functions Setters Public\n  //\n  // ------------------------------------------------\n\n  /*\n   * Change geohash6 zone owner in ownerToZone mapping\n   */\n  function changeOwner( address _newOwner, address _oldOwner, address _zone)\n  public\n  onlyZone\n  {\n    ownerToZone[_oldOwner] = address(0);\n    ownerToZone[_newOwner] = _zone;\n  }\n\n  /*\n   * Get a registry of the current zone bidder on a zone\n   */\n  function fillCurrentZoneBidder(address bidder)\n  public\n  onlyZone\n  {\n    require(zoneToAuctionBidders[msg.sender].length <= 21, 'there is already 21 bidder on this auction'); // no more than 21 bidder at the same time\n    if (activeBidderToZone[bidder] == address(0)) {\n      zoneToAuctionBidders[msg.sender].push(bidder);\n      activeBidderToZone[bidder] = msg.sender;\n    }\n  }\n\n  /*\n   * Remove current zone bidder when an auction end\n   */\n  function removeCurrentZoneBidder()\n  public\n  onlyZone\n  {\n    delete zoneToAuctionBidders[msg.sender];\n  }\n\n  /*\n   * Auction is finish, delete activeBidder\n   */\n  function removeActiveBidder(address activeBidder)\n  public\n  onlyZone\n  {\n    activeBidderToZone[activeBidder] = address(0);\n  }\n\n  /*\n   * Event function wrapper for zone\n   */\n  function emitAuctionCreated(bytes6 zoneFrom, address sender, uint auctionId, uint bidAmount)\n  public\n  onlyZone\n  {\n    emit AuctionCreated( zoneFrom, sender, auctionId, bidAmount);\n  }\n\n  function emitAuctionEnded(bytes6 zoneFrom, address newOwner, uint auctionId,  uint winningBid)\n  public\n  onlyZone\n  {\n    emit AuctionEnded( zoneFrom, newOwner, auctionId, winningBid);\n  }\n\n  function emitBid(bytes6 zoneFrom, address sender, uint auctionId, uint bidAmount)\n  public\n  onlyZone\n  {\n    emit Bid(zoneFrom , sender, auctionId, bidAmount);\n  }\n\n  function emitClaimFreeZone(bytes6 zoneFrom, address newOwner,  uint bidAmount)\n  public\n  onlyZone\n  {\n    emit ClaimFreeZone(zoneFrom , newOwner, bidAmount);\n  }\n\n  function emitReleaseZone(bytes6 zoneFrom, address sender)\n  public\n  onlyZone\n  {\n    emit ReleaseZone(zoneFrom, sender);\n  }\n\n\n  /*\n   * Wait for a tranfer from DTH TOKEN CONTRACT to create zone and teller contract associated with the zone.\n   */\n\n  function tokenFallback(address _from, uint _value, bytes memory _data) // GAS COST +/- 3.763.729\n    public\n  {\n    require(msg.sender == address(dth), \"can only be called by dth contract\");\n\n    require(_data.length == 8, \"createAndClaim expects 8 bytes as data\");\n    address sender = _from;\n    uint dthAmount = _value;\n\n    bytes2 country = toBytes2(_data, 0);\n    bytes6 geohash = toBytes6(_data, 2);\n    require(geo.zoneIsEnabled(country), \"country is disabled\");\n    require(geo.zoneInsideBiggerZone(country, bytes4(geohash)), \"zone is not inside country\");\n    require(geohashToZone[geohash] == address(0), \"zone already exists\");\n    require(ownerToZone[sender] == address(0), \"address already own a zone\");\n    require(activeBidderToZone[sender] == address(0), \"sender is currently involved in an auction (zoneFactory)\");\n    // deploy zone + teller contract\n    address newZoneAddress = createClone(zoneImplementation);\n    address newTellerAddress = createClone(tellerImplementation);\n\n    // init zone + teller contract\n    IZone(newZoneAddress).init(\n      country, geohash, sender, dthAmount,\n      address(dth), address(geo), address(this), taxCollector, newTellerAddress // audit feedback\n    );\n    ITeller(newTellerAddress).init(address(geo), newZoneAddress);\n    // IZone(newZoneAddress).connectToTellerContract(newTellerAddress);\n\n    // IZone(newZoneAddress).init(\n    //   country, geohash, sender, dthAmount,\n    //   address(dth), address(geo), address(this), taxCollector\n    // );\n    // ITeller(newTellerAddress).init(address(geo), newZoneAddress);\n    // IZone(newZoneAddress).connectToTellerContract(newTellerAddress);\n\n    // store references\n    geohashToZone[geohash] = newZoneAddress;\n    zoneToGeohash[newZoneAddress] = geohash;\n    ownerToZone[sender] = newZoneAddress;\n\n    // send all dth through to the new Zone contract\n    require(dth.transfer(newZoneAddress, dthAmount, hex\"40\"));\n    emit NewZoneCreated(geohash, newZoneAddress);\n  }\n}\n",
  "sourcePath": "/Users/mehdi/code/dether/contractV2/contracts/core/ZoneFactory.sol",
  "compiler": {
    "name": "solc",
    "version": "0.5.10+commit.5a6ea5b1.Emscripten.clang"
  },
  "schemaVersion": "3.0.11",
  "updatedAt": "2019-08-28T10:41:09.132Z",
  "devdoc": {
    "methods": {}
  },
  "userdoc": {
    "methods": {}
  }
}