{
  "contractName": "Zone",
  "abi": [
    {
      "constant": true,
      "inputs": [],
      "name": "dth",
      "outputs": [
        {
          "name": "",
          "type": "address"
        }
      ],
      "payable": false,
      "stateMutability": "view",
      "type": "function"
    },
    {
      "constant": true,
      "inputs": [],
      "name": "geohash",
      "outputs": [
        {
          "name": "",
          "type": "bytes6"
        }
      ],
      "payable": false,
      "stateMutability": "view",
      "type": "function"
    },
    {
      "constant": true,
      "inputs": [],
      "name": "currentAuctionId",
      "outputs": [
        {
          "name": "",
          "type": "uint256"
        }
      ],
      "payable": false,
      "stateMutability": "view",
      "type": "function"
    },
    {
      "constant": true,
      "inputs": [
        {
          "name": "",
          "type": "uint256"
        },
        {
          "name": "",
          "type": "address"
        }
      ],
      "name": "auctionBids",
      "outputs": [
        {
          "name": "",
          "type": "uint256"
        }
      ],
      "payable": false,
      "stateMutability": "view",
      "type": "function"
    },
    {
      "constant": true,
      "inputs": [],
      "name": "ENTRY_FEE_PERCENTAGE",
      "outputs": [
        {
          "name": "",
          "type": "uint256"
        }
      ],
      "payable": false,
      "stateMutability": "view",
      "type": "function"
    },
    {
      "constant": true,
      "inputs": [],
      "name": "MIN_RAISE",
      "outputs": [
        {
          "name": "",
          "type": "uint256"
        }
      ],
      "payable": false,
      "stateMutability": "view",
      "type": "function"
    },
    {
      "constant": true,
      "inputs": [
        {
          "name": "",
          "type": "address"
        }
      ],
      "name": "withdrawableDth",
      "outputs": [
        {
          "name": "",
          "type": "uint256"
        }
      ],
      "payable": false,
      "stateMutability": "view",
      "type": "function"
    },
    {
      "constant": true,
      "inputs": [],
      "name": "teller",
      "outputs": [
        {
          "name": "",
          "type": "address"
        }
      ],
      "payable": false,
      "stateMutability": "view",
      "type": "function"
    },
    {
      "constant": true,
      "inputs": [],
      "name": "COOLDOWN_PERIOD",
      "outputs": [
        {
          "name": "",
          "type": "uint256"
        }
      ],
      "payable": false,
      "stateMutability": "view",
      "type": "function"
    },
    {
      "constant": true,
      "inputs": [],
      "name": "TAX_PERCENTAGE",
      "outputs": [
        {
          "name": "",
          "type": "uint256"
        }
      ],
      "payable": false,
      "stateMutability": "view",
      "type": "function"
    },
    {
      "constant": true,
      "inputs": [],
      "name": "BID_PERIOD",
      "outputs": [
        {
          "name": "",
          "type": "uint256"
        }
      ],
      "payable": false,
      "stateMutability": "view",
      "type": "function"
    },
    {
      "constant": true,
      "inputs": [],
      "name": "zoneFactory",
      "outputs": [
        {
          "name": "",
          "type": "address"
        }
      ],
      "payable": false,
      "stateMutability": "view",
      "type": "function"
    },
    {
      "constant": true,
      "inputs": [],
      "name": "zoneOwner",
      "outputs": [
        {
          "name": "addr",
          "type": "address"
        },
        {
          "name": "startTime",
          "type": "uint256"
        },
        {
          "name": "staked",
          "type": "uint256"
        },
        {
          "name": "balance",
          "type": "uint256"
        },
        {
          "name": "lastTaxTime",
          "type": "uint256"
        },
        {
          "name": "auctionId",
          "type": "uint256"
        }
      ],
      "payable": false,
      "stateMutability": "view",
      "type": "function"
    },
    {
      "constant": true,
      "inputs": [],
      "name": "taxCollector",
      "outputs": [
        {
          "name": "",
          "type": "address"
        }
      ],
      "payable": false,
      "stateMutability": "view",
      "type": "function"
    },
    {
      "constant": true,
      "inputs": [],
      "name": "MIN_STAKE",
      "outputs": [
        {
          "name": "",
          "type": "uint256"
        }
      ],
      "payable": false,
      "stateMutability": "view",
      "type": "function"
    },
    {
      "constant": true,
      "inputs": [],
      "name": "country",
      "outputs": [
        {
          "name": "",
          "type": "bytes2"
        }
      ],
      "payable": false,
      "stateMutability": "view",
      "type": "function"
    },
    {
      "constant": true,
      "inputs": [],
      "name": "geo",
      "outputs": [
        {
          "name": "",
          "type": "address"
        }
      ],
      "payable": false,
      "stateMutability": "view",
      "type": "function"
    },
    {
      "constant": false,
      "inputs": [
        {
          "name": "_countryCode",
          "type": "bytes2"
        },
        {
          "name": "_geohash",
          "type": "bytes6"
        },
        {
          "name": "_zoneOwner",
          "type": "address"
        },
        {
          "name": "_dthAmount",
          "type": "uint256"
        },
        {
          "name": "_dth",
          "type": "address"
        },
        {
          "name": "_geo",
          "type": "address"
        },
        {
          "name": "_zoneFactory",
          "type": "address"
        },
        {
          "name": "_taxCollector",
          "type": "address"
        },
        {
          "name": "_teller",
          "type": "address"
        }
      ],
      "name": "init",
      "outputs": [],
      "payable": false,
      "stateMutability": "nonpayable",
      "type": "function"
    },
    {
      "constant": true,
      "inputs": [],
      "name": "ownerAddr",
      "outputs": [
        {
          "name": "",
          "type": "address"
        }
      ],
      "payable": false,
      "stateMutability": "view",
      "type": "function"
    },
    {
      "constant": true,
      "inputs": [
        {
          "name": "_startTime",
          "type": "uint256"
        },
        {
          "name": "_endTime",
          "type": "uint256"
        },
        {
          "name": "_dthAmount",
          "type": "uint256"
        }
      ],
      "name": "calcHarbergerTax",
      "outputs": [
        {
          "name": "taxAmount",
          "type": "uint256"
        },
        {
          "name": "keepAmount",
          "type": "uint256"
        }
      ],
      "payable": false,
      "stateMutability": "view",
      "type": "function"
    },
    {
      "constant": true,
      "inputs": [
        {
          "name": "_value",
          "type": "uint256"
        }
      ],
      "name": "calcEntryFee",
      "outputs": [
        {
          "name": "burnAmount",
          "type": "uint256"
        },
        {
          "name": "bidAmount",
          "type": "uint256"
        }
      ],
      "payable": false,
      "stateMutability": "view",
      "type": "function"
    },
    {
      "constant": true,
      "inputs": [
        {
          "name": "_auctionId",
          "type": "uint256"
        }
      ],
      "name": "auctionExists",
      "outputs": [
        {
          "name": "",
          "type": "bool"
        }
      ],
      "payable": false,
      "stateMutability": "view",
      "type": "function"
    },
    {
      "constant": true,
      "inputs": [],
      "name": "getZoneOwner",
      "outputs": [
        {
          "name": "",
          "type": "address"
        },
        {
          "name": "",
          "type": "uint256"
        },
        {
          "name": "",
          "type": "uint256"
        },
        {
          "name": "",
          "type": "uint256"
        },
        {
          "name": "",
          "type": "uint256"
        },
        {
          "name": "",
          "type": "uint256"
        }
      ],
      "payable": false,
      "stateMutability": "view",
      "type": "function"
    },
    {
      "constant": true,
      "inputs": [
        {
          "name": "_auctionId",
          "type": "uint256"
        }
      ],
      "name": "getAuction",
      "outputs": [
        {
          "name": "",
          "type": "uint256"
        },
        {
          "name": "",
          "type": "uint256"
        },
        {
          "name": "",
          "type": "uint256"
        },
        {
          "name": "",
          "type": "uint256"
        },
        {
          "name": "",
          "type": "address"
        },
        {
          "name": "",
          "type": "uint256"
        }
      ],
      "payable": false,
      "stateMutability": "view",
      "type": "function"
    },
    {
      "constant": true,
      "inputs": [],
      "name": "getLastAuction",
      "outputs": [
        {
          "name": "",
          "type": "uint256"
        },
        {
          "name": "",
          "type": "uint256"
        },
        {
          "name": "",
          "type": "uint256"
        },
        {
          "name": "",
          "type": "uint256"
        },
        {
          "name": "",
          "type": "address"
        },
        {
          "name": "",
          "type": "uint256"
        }
      ],
      "payable": false,
      "stateMutability": "view",
      "type": "function"
    },
    {
      "constant": false,
      "inputs": [],
      "name": "processState",
      "outputs": [],
      "payable": false,
      "stateMutability": "nonpayable",
      "type": "function"
    },
    {
      "constant": false,
      "inputs": [
        {
          "name": "_from",
          "type": "address"
        },
        {
          "name": "_value",
          "type": "uint256"
        },
        {
          "name": "_data",
          "type": "bytes"
        }
      ],
      "name": "tokenFallback",
      "outputs": [],
      "payable": false,
      "stateMutability": "nonpayable",
      "type": "function"
    },
    {
      "constant": false,
      "inputs": [],
      "name": "release",
      "outputs": [],
      "payable": false,
      "stateMutability": "nonpayable",
      "type": "function"
    },
    {
      "constant": false,
      "inputs": [
        {
          "name": "_auctionId",
          "type": "uint256"
        }
      ],
      "name": "withdrawFromAuction",
      "outputs": [],
      "payable": false,
      "stateMutability": "nonpayable",
      "type": "function"
    },
    {
      "constant": false,
      "inputs": [
        {
          "name": "_auctionIds",
          "type": "uint256[]"
        }
      ],
      "name": "withdrawFromAuctions",
      "outputs": [],
      "payable": false,
      "stateMutability": "nonpayable",
      "type": "function"
    },
    {
      "constant": false,
      "inputs": [],
      "name": "withdrawDth",
      "outputs": [],
      "payable": false,
      "stateMutability": "nonpayable",
      "type": "function"
    }
  ],
  "bytecode": "0x608060405234801561001057600080fd5b50615fbb80620000216000396000f3fe608060405234801561001057600080fd5b50600436106101e55760003560e01c80636e99d52f1161010f5780639ffdb1f0116100a2578063cb1c2b5c11610071578063cb1c2b5c14610a88578063d8b0b49914610aa6578063d944e6a314610b06578063fb01bb5114610b50576101e5565b80639ffdb1f0146108e2578063bea1dcf81461094f578063c0ee0b8a14610999578063c732ff3e14610a7e576101e5565b80637b9a7301116100de5780637b9a7301146107d757806386d1a69f1461082157806399640c811461082b5780639c675eaa14610898576101e5565b80636e99d52f146106ec5780637876ab0c1461070a57806378bd7935146107285780637b432963146107b9576101e5565b80632a963f9e11610187578063422927ad11610156578063422927ad146104ba57806357edab4e146104e857806363c8ce69146105325780636496a44114610673576101e5565b80632a963f9e146103f45780632c2f3d13146104125780633c0868f01461046a57806340be3e6a146104b0576101e5565b80630d624914116101c35780630d624914146102aa5780631504ceed146103175780631b368875146103795780631ecb0f6714610397576101e5565b806301e57a37146101ea57806308e44f88146102345780630c0b86ca1461028c575b600080fd5b6101f2610b99565b604051808273ffffffffffffffffffffffffffffffffffffffff1673ffffffffffffffffffffffffffffffffffffffff16815260200191505060405180910390f35b61023c610bbe565b604051808279ffffffffffffffffffffffffffffffffffffffffffffffffffff191679ffffffffffffffffffffffffffffffffffffffffffffffffffff1916815260200191505060405180910390f35b610294610bd1565b6040518082815260200191505060405180910390f35b6102b2610bd7565b604051808781526020018681526020018581526020018481526020018373ffffffffffffffffffffffffffffffffffffffff1673ffffffffffffffffffffffffffffffffffffffff168152602001828152602001965050505050505060405180910390f35b6103636004803603604081101561032d57600080fd5b8101908080359060200190929190803573ffffffffffffffffffffffffffffffffffffffff169060200190929190505050610bff565b6040518082815260200191505060405180910390f35b610381610c24565b6040518082815260200191505060405180910390f35b6103d7600480360360608110156103ad57600080fd5b81019080803590602001909291908035906020019092919080359060200190929190505050610c29565b604051808381526020018281526020019250505060405180910390f35b6103fc610cac565b6040518082815260200191505060405180910390f35b6104546004803603602081101561042857600080fd5b81019080803573ffffffffffffffffffffffffffffffffffffffff169060200190929190505050610cb1565b6040518082815260200191505060405180910390f35b6104966004803603602081101561048057600080fd5b8101908080359060200190929190505050610cc9565b604051808215151515815260200191505060405180910390f35b6104b8610cea565b005b6104e6600480360360208110156104d057600080fd5b8101908080359060200190929190505050610cf4565b005b6104f06112e3565b604051808273ffffffffffffffffffffffffffffffffffffffff1673ffffffffffffffffffffffffffffffffffffffff16815260200191505060405180910390f35b610671600480360361012081101561054957600080fd5b8101908080357dffffffffffffffffffffffffffffffffffffffffffffffffffffffffffff19169060200190929190803579ffffffffffffffffffffffffffffffffffffffffffffffffffff19169060200190929190803573ffffffffffffffffffffffffffffffffffffffff16906020019092919080359060200190929190803573ffffffffffffffffffffffffffffffffffffffff169060200190929190803573ffffffffffffffffffffffffffffffffffffffff169060200190929190803573ffffffffffffffffffffffffffffffffffffffff169060200190929190803573ffffffffffffffffffffffffffffffffffffffff169060200190929190803573ffffffffffffffffffffffffffffffffffffffff169060200190929190505050611309565b005b6106ea6004803603602081101561068957600080fd5b81019080803590602001906401000000008111156106a657600080fd5b8201836020820111156106b857600080fd5b803590602001918460208302840111640100000000831117156106da57600080fd5b9091929391929390505050611617565b005b6106f4611d62565b6040518082815260200191505060405180910390f35b610712611d68565b6040518082815260200191505060405180910390f35b6107546004803603602081101561073e57600080fd5b8101908080359060200190929190505050611d6d565b604051808781526020018681526020018581526020018481526020018373ffffffffffffffffffffffffffffffffffffffff1673ffffffffffffffffffffffffffffffffffffffff168152602001828152602001965050505050505060405180910390f35b6107c1611fe7565b6040518082815260200191505060405180910390f35b6107df611fed565b604051808273ffffffffffffffffffffffffffffffffffffffff1673ffffffffffffffffffffffffffffffffffffffff16815260200191505060405180910390f35b610829612013565b005b61083361238d565b604051808773ffffffffffffffffffffffffffffffffffffffff1673ffffffffffffffffffffffffffffffffffffffff168152602001868152602001858152602001848152602001838152602001828152602001965050505050505060405180910390f35b6108a06123ed565b604051808273ffffffffffffffffffffffffffffffffffffffff1673ffffffffffffffffffffffffffffffffffffffff16815260200191505060405180910390f35b6108ea61241a565b604051808773ffffffffffffffffffffffffffffffffffffffff1673ffffffffffffffffffffffffffffffffffffffff168152602001868152602001858152602001848152602001838152602001828152602001965050505050505060405180910390f35b610957612464565b604051808273ffffffffffffffffffffffffffffffffffffffff1673ffffffffffffffffffffffffffffffffffffffff16815260200191505060405180910390f35b610a7c600480360360608110156109af57600080fd5b81019080803573ffffffffffffffffffffffffffffffffffffffff16906020019092919080359060200190929190803590602001906401000000008111156109f657600080fd5b820183602082011115610a0857600080fd5b80359060200191846001830284011164010000000083111715610a2a57600080fd5b91908080601f016020809104026020016040519081016040528093929190818152602001838380828437600081840152601f19601f82011690508083019250505050505050919291929050505061248a565b005b610a86612861565b005b610a90612b1a565b6040518082815260200191505060405180910390f35b610aae612b27565b60405180827dffffffffffffffffffffffffffffffffffffffffffffffffffffffffffff19167dffffffffffffffffffffffffffffffffffffffffffffffffffffffffffff1916815260200191505060405180910390f35b610b0e612b3a565b604051808273ffffffffffffffffffffffffffffffffffffffff1673ffffffffffffffffffffffffffffffffffffffff16815260200191505060405180910390f35b610b7c60048036036020811015610b6657600080fd5b8101908080359060200190929190505050612b60565b604051808381526020018281526020019250505060405180910390f35b6001809054906101000a900473ffffffffffffffffffffffffffffffffffffffff1681565b600b60169054906101000a900460d01b81565b600d5481565b600080600080600080610beb600d54611d6d565b955095509550955095509550909192939495565b600e602052816000526040600020602052806000526040600020600091509150505481565b600581565b600080610c8d62015180610c7f612710610c716004610c63610c548c8c612ba690919063ffffffff16565b8a612bc690919063ffffffff16565b612bc690919063ffffffff16565b612c0090919063ffffffff16565b612c0090919063ffffffff16565b9150610ca28284612ba690919063ffffffff16565b9050935093915050565b600581565b600c6020528060005260406000206000915090505481565b60008060008084815260200190815260200160002060000154119050919050565b610cf2612c26565b565b610cfc612c26565b600081118015610d0e5750600d548111155b610d80576040517f08c379a00000000000000000000000000000000000000000000000000000000081526004018080602001828103825260188152602001807f61756374696f6e496420646f6573206e6f74206578697374000000000000000081525060200191505060405180910390fd5b600180811115610d8c57fe5b60008083815260200190815260200160002060020160009054906101000a900460ff166001811115610dba57fe5b14610e10576040517f08c379a0000000000000000000000000000000000000000000000000000000008152600401808060200182810382526027815260200180615d8d6027913960400191505060405180910390fd5b3373ffffffffffffffffffffffffffffffffffffffff1660008083815260200190815260200160002060020160019054906101000a900473ffffffffffffffffffffffffffffffffffffffff1673ffffffffffffffffffffffffffffffffffffffff161415610ee7576040517f08c379a000000000000000000000000000000000000000000000000000000000815260040180806020018281038252601f8152602001807f61756374696f6e2077696e6e65722063616e206e6f742077697468647261770081525060200191505060405180910390fd5b6000600e600083815260200190815260200160002060003373ffffffffffffffffffffffffffffffffffffffff1673ffffffffffffffffffffffffffffffffffffffff1681526020019081526020016000205411610fad576040517f08c379a00000000000000000000000000000000000000000000000000000000081526004018080602001828103825260138152602001807f6e6f7468696e6720746f2077697468647261770000000000000000000000000081525060200191505060405180910390fd5b6000600e600083815260200190815260200160002060003373ffffffffffffffffffffffffffffffffffffffff1673ffffffffffffffffffffffffffffffffffffffff1681526020019081526020016000205490506000600e600084815260200190815260200160002060003373ffffffffffffffffffffffffffffffffffffffff1673ffffffffffffffffffffffffffffffffffffffff168152602001908152602001600020819055506000600c60003373ffffffffffffffffffffffffffffffffffffffff1673ffffffffffffffffffffffffffffffffffffffff16815260200190815260200160002054111561113a576110f2600c60003373ffffffffffffffffffffffffffffffffffffffff1673ffffffffffffffffffffffffffffffffffffffff1681526020019081526020016000205482612d0890919063ffffffff16565b90506000600c60003373ffffffffffffffffffffffffffffffffffffffff1673ffffffffffffffffffffffffffffffffffffffff168152602001908152602001600020819055505b600360009054906101000a900473ffffffffffffffffffffffffffffffffffffffff1673ffffffffffffffffffffffffffffffffffffffff16637074053f336040518263ffffffff1660e01b8152600401808273ffffffffffffffffffffffffffffffffffffffff1673ffffffffffffffffffffffffffffffffffffffff168152602001915050600060405180830381600087803b1580156111db57600080fd5b505af11580156111ef573d6000803e3d6000fd5b505050506001809054906101000a900473ffffffffffffffffffffffffffffffffffffffff1673ffffffffffffffffffffffffffffffffffffffff1663a9059cbb33836040518363ffffffff1660e01b8152600401808373ffffffffffffffffffffffffffffffffffffffff1673ffffffffffffffffffffffffffffffffffffffff16815260200182815260200192505050602060405180830381600087803b15801561129b57600080fd5b505af11580156112af573d6000803e3d6000fd5b505050506040513d60208110156112c557600080fd5b81019080805190602001909291905050506112df57600080fd5b5050565b600460009054906101000a900473ffffffffffffffffffffffffffffffffffffffff1681565b60001515600160009054906101000a900460ff16151514611392576040517f08c379a000000000000000000000000000000000000000000000000000000000815260040180806020018281038252601c8152602001807f636f6e747261637420616c726561647920696e697469616c697a65640000000081525060200191505060405180910390fd5b68056bc75e2d631000008610156113f4576040517f08c379a0000000000000000000000000000000000000000000000000000000008152600401808060200182810382526033815260200180615de36033913960400191505060405180910390fd5b88600b60146101000a81548161ffff021916908360f01c021790555087600b60166101000a81548165ffffffffffff021916908360d01c0217905550846001806101000a81548173ffffffffffffffffffffffffffffffffffffffff021916908373ffffffffffffffffffffffffffffffffffffffff16021790555083600260006101000a81548173ffffffffffffffffffffffffffffffffffffffff021916908373ffffffffffffffffffffffffffffffffffffffff16021790555082600360006101000a81548173ffffffffffffffffffffffffffffffffffffffff021916908373ffffffffffffffffffffffffffffffffffffffff16021790555081600b60006101000a81548173ffffffffffffffffffffffffffffffffffffffff021916908373ffffffffffffffffffffffffffffffffffffffff16021790555086600560000160006101000a81548173ffffffffffffffffffffffffffffffffffffffff021916908373ffffffffffffffffffffffffffffffffffffffff160217905550426005600101819055508560056002018190555085600560030181905550426005600401819055506000600580018190555060018060006101000a81548160ff0219169083151502179055506000600d8190555080600460006101000a81548173ffffffffffffffffffffffffffffffffffffffff021916908373ffffffffffffffffffffffffffffffffffffffff160217905550505050505050505050565b61161f612c26565b6000600d5411611697576040517f08c379a00000000000000000000000000000000000000000000000000000000081526004018080602001828103825260158152602001807f746865726520617265206e6f2061756374696f6e73000000000000000000000081525060200191505060405180910390fd5b60008282905011611710576040517f08c379a00000000000000000000000000000000000000000000000000000000081526004018080602001828103825260188152602001807f61756374696f6e496473206c69737420697320656d707479000000000000000081525060200191505060405180910390fd5b600d5482829050111561176e576040517f08c379a0000000000000000000000000000000000000000000000000000000008152600401808060200182810382526026815260200180615e166026913960400191505060405180910390fd5b600080905060008090505b83839050811015611a5f57600084848381811061179257fe5b9050602002013590506000811180156117ad5750600d548111155b61181f576040517f08c379a00000000000000000000000000000000000000000000000000000000081526004018080602001828103825260188152602001807f61756374696f6e496420646f6573206e6f74206578697374000000000000000081525060200191505060405180910390fd5b60018081111561182b57fe5b60008083815260200190815260200160002060020160009054906101000a900460ff16600181111561185957fe5b146118af576040517f08c379a0000000000000000000000000000000000000000000000000000000008152600401808060200182810382526024815260200180615f406024913960400191505060405180910390fd5b3373ffffffffffffffffffffffffffffffffffffffff1660008083815260200190815260200160002060020160019054906101000a900473ffffffffffffffffffffffffffffffffffffffff1673ffffffffffffffffffffffffffffffffffffffff161415611986576040517f08c379a000000000000000000000000000000000000000000000000000000000815260040180806020018281038252601f8152602001807f61756374696f6e2077696e6e65722063616e206e6f742077697468647261770081525060200191505060405180910390fd5b6000600e600083815260200190815260200160002060003373ffffffffffffffffffffffffffffffffffffffff1673ffffffffffffffffffffffffffffffffffffffff1681526020019081526020016000205490506000811115611a50576000600e600084815260200190815260200160002060003373ffffffffffffffffffffffffffffffffffffffff1673ffffffffffffffffffffffffffffffffffffffff16815260200190815260200160002081905550611a4d8185612d0890919063ffffffff16565b93505b50508080600101915050611779565b506000600c60003373ffffffffffffffffffffffffffffffffffffffff1673ffffffffffffffffffffffffffffffffffffffff168152602001908152602001600020541115611b4257611afa600c60003373ffffffffffffffffffffffffffffffffffffffff1673ffffffffffffffffffffffffffffffffffffffff1681526020019081526020016000205482612d0890919063ffffffff16565b90506000600c60003373ffffffffffffffffffffffffffffffffffffffff1673ffffffffffffffffffffffffffffffffffffffff168152602001908152602001600020819055505b600360009054906101000a900473ffffffffffffffffffffffffffffffffffffffff1673ffffffffffffffffffffffffffffffffffffffff16637074053f336040518263ffffffff1660e01b8152600401808273ffffffffffffffffffffffffffffffffffffffff1673ffffffffffffffffffffffffffffffffffffffff168152602001915050600060405180830381600087803b158015611be357600080fd5b505af1158015611bf7573d6000803e3d6000fd5b5050505060008111611c71576040517f08c379a00000000000000000000000000000000000000000000000000000000081526004018080602001828103825260138152602001807f6e6f7468696e6720746f2077697468647261770000000000000000000000000081525060200191505060405180910390fd5b6001809054906101000a900473ffffffffffffffffffffffffffffffffffffffff1673ffffffffffffffffffffffffffffffffffffffff1663a9059cbb33836040518363ffffffff1660e01b8152600401808373ffffffffffffffffffffffffffffffffffffffff1673ffffffffffffffffffffffffffffffffffffffff16815260200182815260200192505050602060405180830381600087803b158015611d1957600080fd5b505af1158015611d2d573d6000803e3d6000fd5b505050506040513d6020811015611d4357600080fd5b8101908080519060200190929190505050611d5d57600080fd5b505050565b61012c81565b600481565b600080600080600080600087118015611d885750600d548711155b611dfa576040517f08c379a00000000000000000000000000000000000000000000000000000000081526004018080602001828103825260168152602001807f61756374696f6e20646f6573206e6f742065786973740000000000000000000081525060200191505060405180910390fd5b611e02615d12565b60008089815260200190815260200160002060405180608001604052908160008201548152602001600182015481526020016002820160009054906101000a900460ff166001811115611e5157fe5b6001811115611e5c57fe5b81526020016002820160019054906101000a900473ffffffffffffffffffffffffffffffffffffffff1673ffffffffffffffffffffffffffffffffffffffff1673ffffffffffffffffffffffffffffffffffffffff168152505090506000600e60008a81526020019081526020016000206000836060015173ffffffffffffffffffffffffffffffffffffffff1673ffffffffffffffffffffffffffffffffffffffff16815260200190815260200160002054905060006001811115611f1e57fe5b82604001516001811115611f2e57fe5b148015611f8f5750600560000160009054906101000a900473ffffffffffffffffffffffffffffffffffffffff1673ffffffffffffffffffffffffffffffffffffffff16826060015173ffffffffffffffffffffffffffffffffffffffff16145b15611faf57611fac60056002015482612d0890919063ffffffff16565b90505b8882604001516001811115611fc057fe5b83600001518460200151856060015185975097509750975097509750505091939550919395565b61070881565b600360009054906101000a900473ffffffffffffffffffffffffffffffffffffffff1681565b61201b612c26565b600560000160009054906101000a900473ffffffffffffffffffffffffffffffffffffffff1673ffffffffffffffffffffffffffffffffffffffff163373ffffffffffffffffffffffffffffffffffffffff16146120e1576040517f08c379a00000000000000000000000000000000000000000000000000000000081526004018080602001828103825260178152602001807f63616c6c6572206973206e6f74207a6f6e656f776e657200000000000000000081525060200191505060405180910390fd5b6000600d54148061212b57506001808111156120f957fe5b600080600d54815260200190815260200160002060020160009054906101000a900460ff16600181111561212957fe5b145b612180576040517f08c379a0000000000000000000000000000000000000000000000000000000008152600401808060200182810382526024815260200180615e686024913960400191505060405180910390fd5b600060056003015490506121946001612d27565b6001809054906101000a900473ffffffffffffffffffffffffffffffffffffffff1673ffffffffffffffffffffffffffffffffffffffff1663a9059cbb33836040518363ffffffff1660e01b8152600401808373ffffffffffffffffffffffffffffffffffffffff1673ffffffffffffffffffffffffffffffffffffffff16815260200182815260200192505050602060405180830381600087803b15801561223c57600080fd5b505af1158015612250573d6000803e3d6000fd5b505050506040513d602081101561226657600080fd5b810190808051906020019092919050505061228057600080fd5b600360009054906101000a900473ffffffffffffffffffffffffffffffffffffffff1673ffffffffffffffffffffffffffffffffffffffff1663f90ad9ca600b60169054906101000a900460d01b336040518363ffffffff1660e01b8152600401808379ffffffffffffffffffffffffffffffffffffffffffffffffffff191679ffffffffffffffffffffffffffffffffffffffffffffffffffff191681526020018273ffffffffffffffffffffffffffffffffffffffff1673ffffffffffffffffffffffffffffffffffffffff16815260200192505050600060405180830381600087803b15801561237257600080fd5b505af1158015612386573d6000803e3d6000fd5b5050505050565b600080600080600080600560000160009054906101000a900473ffffffffffffffffffffffffffffffffffffffff166005600101546005600201546005600301546005600401546005800154955095509550955095509550909192939495565b6000600560000160009054906101000a900473ffffffffffffffffffffffffffffffffffffffff16905090565b60058060000160009054906101000a900473ffffffffffffffffffffffffffffffffffffffff16908060010154908060020154908060030154908060040154908060050154905086565b600b60009054906101000a900473ffffffffffffffffffffffffffffffffffffffff1681565b60011515600160009054906101000a900460ff16151514612513576040517f08c379a000000000000000000000000000000000000000000000000000000000815260040180806020018281038252601c8152602001807f636f6e7472616374206e6f742079657420696e697469616c697a65640000000081525060200191505060405180910390fd5b600260009054906101000a900473ffffffffffffffffffffffffffffffffffffffff1673ffffffffffffffffffffffffffffffffffffffff1663923ae12b600b60149054906101000a900460f01b6040518263ffffffff1660e01b815260040180827dffffffffffffffffffffffffffffffffffffffffffffffffffffffffffff19167dffffffffffffffffffffffffffffffffffffffffffffffffffffffffffff1916815260200191505060206040518083038186803b1580156125d757600080fd5b505afa1580156125eb573d6000803e3d6000fd5b505050506040513d602081101561260157600080fd5b8101908080519060200190929190505050612684576040517f08c379a00000000000000000000000000000000000000000000000000000000081526004018080602001828103825260138152602001807f636f756e7472792069732064697361626c65640000000000000000000000000081525060200191505060405180910390fd5b6001809054906101000a900473ffffffffffffffffffffffffffffffffffffffff1673ffffffffffffffffffffffffffffffffffffffff163373ffffffffffffffffffffffffffffffffffffffff1614612729576040517f08c379a0000000000000000000000000000000000000000000000000000000008152600401808060200182810382526022815260200180615e8c6022913960400191505060405180910390fd5b60006127368260006130db565b9050612740612c26565b604160f81b7effffffffffffffffffffffffffffffffffffffffffffffffffffffffffffff1916817effffffffffffffffffffffffffffffffffffffffffffffffffffffffffffff1916141561279f5761279a848461316c565b61285b565b604260f81b7effffffffffffffffffffffffffffffffffffffffffffffffffffffffffffff1916817effffffffffffffffffffffffffffffffffffffffffffffffffffffffffffff191614156127fe576127f984846136e2565b61285a565b604360f81b7effffffffffffffffffffffffffffffffffffffffffffffffffffffffffffff1916817effffffffffffffffffffffffffffffffffffffffffffffffffffffffffffff1916141561285957612858848461395a565b5b5b5b50505050565b612869612c26565b6000600c60003373ffffffffffffffffffffffffffffffffffffffff1673ffffffffffffffffffffffffffffffffffffffff16815260200190815260200160002054905060008111612923576040517f08c379a00000000000000000000000000000000000000000000000000000000081526004018080602001828103825260138152602001807f6e6f7468696e6720746f2077697468647261770000000000000000000000000081525060200191505060405180910390fd5b600360009054906101000a900473ffffffffffffffffffffffffffffffffffffffff1673ffffffffffffffffffffffffffffffffffffffff16637074053f336040518263ffffffff1660e01b8152600401808273ffffffffffffffffffffffffffffffffffffffff1673ffffffffffffffffffffffffffffffffffffffff168152602001915050600060405180830381600087803b1580156129c457600080fd5b505af11580156129d8573d6000803e3d6000fd5b505050506000811115612b17576000600c60003373ffffffffffffffffffffffffffffffffffffffff1673ffffffffffffffffffffffffffffffffffffffff168152602001908152602001600020819055506001809054906101000a900473ffffffffffffffffffffffffffffffffffffffff1673ffffffffffffffffffffffffffffffffffffffff1663a9059cbb33836040518363ffffffff1660e01b8152600401808373ffffffffffffffffffffffffffffffffffffffff1673ffffffffffffffffffffffffffffffffffffffff16815260200182815260200192505050602060405180830381600087803b158015612ad257600080fd5b505af1158015612ae6573d6000803e3d6000fd5b505050506040513d6020811015612afc57600080fd5b8101908080519060200190929190505050612b1657600080fd5b5b50565b68056bc75e2d6310000081565b600b60149054906101000a900460f01b81565b600260009054906101000a900473ffffffffffffffffffffffffffffffffffffffff1681565b600080612b8a6064612b7c600586612bc690919063ffffffff16565b612c0090919063ffffffff16565b9150612b9f8284612ba690919063ffffffff16565b9050915091565b600082821115612bb557600080fd5b600082840390508091505092915050565b600080831415612bd95760009050612bfa565b6000828402905082848281612bea57fe5b0414612bf557600080fd5b809150505b92915050565b6000808211612c0e57600080fd5b6000828481612c1957fe5b0490508091505092915050565b6000600d54118015612c72575060006001811115612c4057fe5b600080600d54815260200190815260200160002060020160009054906101000a900460ff166001811115612c7057fe5b145b15612ca357600080600d548152602001908152602001600020600101544210612c9e57612c9d613af2565b5b612d06565b600073ffffffffffffffffffffffffffffffffffffffff16600560000160009054906101000a900473ffffffffffffffffffffffffffffffffffffffff1673ffffffffffffffffffffffffffffffffffffffff1614612d0557612d046140fa565b5b5b565b600080828401905083811015612d1d57600080fd5b8091505092915050565b80612e1157612da8600560030154600c6000600560000160009054906101000a900473ffffffffffffffffffffffffffffffffffffffff1673ffffffffffffffffffffffffffffffffffffffff1673ffffffffffffffffffffffffffffffffffffffff16815260200190815260200160002054612d0890919063ffffffff16565b600c6000600560000160009054906101000a900473ffffffffffffffffffffffffffffffffffffffff1673ffffffffffffffffffffffffffffffffffffffff1673ffffffffffffffffffffffffffffffffffffffff168152602001908152602001600020819055505b600460009054906101000a900473ffffffffffffffffffffffffffffffffffffffff1673ffffffffffffffffffffffffffffffffffffffff16639e1e61606040518163ffffffff1660e01b815260040160206040518083038186803b158015612e7957600080fd5b505afa158015612e8d573d6000803e3d6000fd5b505050506040513d6020811015612ea357600080fd5b810190808051906020019092919050505015612f3c57600460009054906101000a900473ffffffffffffffffffffffffffffffffffffffff1673ffffffffffffffffffffffffffffffffffffffff1663b030b1f76040518163ffffffff1660e01b8152600401600060405180830381600087803b158015612f2357600080fd5b505af1158015612f37573d6000803e3d6000fd5b505050505b600360009054906101000a900473ffffffffffffffffffffffffffffffffffffffff1673ffffffffffffffffffffffffffffffffffffffff1663f11c2cec6000600560000160009054906101000a900473ffffffffffffffffffffffffffffffffffffffff1660006040518463ffffffff1660e01b8152600401808473ffffffffffffffffffffffffffffffffffffffff1673ffffffffffffffffffffffffffffffffffffffff1681526020018373ffffffffffffffffffffffffffffffffffffffff1673ffffffffffffffffffffffffffffffffffffffff1681526020018273ffffffffffffffffffffffffffffffffffffffff1673ffffffffffffffffffffffffffffffffffffffff1681526020019350505050600060405180830381600087803b15801561306c57600080fd5b505af1158015613080573d6000803e3d6000fd5b505050506005600080820160006101000a81549073ffffffffffffffffffffffffffffffffffffffff021916905560018201600090556002820160009055600382016000905560048201600090556005820160009055505050565b60006001820183511015613157576040517f08c379a00000000000000000000000000000000000000000000000000000000081526004018080602001828103825260108152602001807f206e6f74206c6f6e6720656e6f7567680000000000000000000000000000000081525060200191505060405180910390fd5b60008260208501015190508091505092915050565b600073ffffffffffffffffffffffffffffffffffffffff16600560000160009054906101000a900473ffffffffffffffffffffffffffffffffffffffff1673ffffffffffffffffffffffffffffffffffffffff1614613233576040517f08c379a000000000000000000000000000000000000000000000000000000000815260040180806020018281038252601d8152602001807f63616e206e6f7420636c61696d207a6f6e652077697468206f776e657200000081525060200191505060405180910390fd5b68056bc75e2d63100000811015613295576040517f08c379a0000000000000000000000000000000000000000000000000000000008152600401808060200182810382526031815260200180615d5c6031913960400191505060405180910390fd5b600073ffffffffffffffffffffffffffffffffffffffff16600360009054906101000a900473ffffffffffffffffffffffffffffffffffffffff1673ffffffffffffffffffffffffffffffffffffffff16637842986e846040518263ffffffff1660e01b8152600401808273ffffffffffffffffffffffffffffffffffffffff1673ffffffffffffffffffffffffffffffffffffffff16815260200191505060206040518083038186803b15801561334c57600080fd5b505afa158015613360573d6000803e3d6000fd5b505050506040513d602081101561337657600080fd5b810190808051906020019092919050505073ffffffffffffffffffffffffffffffffffffffff1614613410576040517f08c379a000000000000000000000000000000000000000000000000000000000815260040180806020018281038252601b8152602001807f73656e646572206f776e20616c7265616479206f6e65207a6f6e65000000000081525060200191505060405180910390fd5b600360009054906101000a900473ffffffffffffffffffffffffffffffffffffffff1673ffffffffffffffffffffffffffffffffffffffff1663f11c2cec83600560000160009054906101000a900473ffffffffffffffffffffffffffffffffffffffff16306040518463ffffffff1660e01b8152600401808473ffffffffffffffffffffffffffffffffffffffff1673ffffffffffffffffffffffffffffffffffffffff1681526020018373ffffffffffffffffffffffffffffffffffffffff1673ffffffffffffffffffffffffffffffffffffffff1681526020018273ffffffffffffffffffffffffffffffffffffffff1673ffffffffffffffffffffffffffffffffffffffff1681526020019350505050600060405180830381600087803b15801561353e57600080fd5b505af1158015613552573d6000803e3d6000fd5b5050505081600560000160006101000a81548173ffffffffffffffffffffffffffffffffffffffff021916908373ffffffffffffffffffffffffffffffffffffffff1602179055504260056001018190555080600560020181905550806005600301819055504260056004018190555060006005800181905550600360009054906101000a900473ffffffffffffffffffffffffffffffffffffffff1673ffffffffffffffffffffffffffffffffffffffff16630ee19e59600b60169054906101000a900460d01b84846040518463ffffffff1660e01b8152600401808479ffffffffffffffffffffffffffffffffffffffffffffffffffff191679ffffffffffffffffffffffffffffffffffffffffffffffffffff191681526020018373ffffffffffffffffffffffffffffffffffffffff1673ffffffffffffffffffffffffffffffffffffffff1681526020018281526020019350505050600060405180830381600087803b1580156136c657600080fd5b505af11580156136da573d6000803e3d6000fd5b505050505050565b600073ffffffffffffffffffffffffffffffffffffffff16600560000160009054906101000a900473ffffffffffffffffffffffffffffffffffffffff1673ffffffffffffffffffffffffffffffffffffffff1614156137aa576040517f08c379a00000000000000000000000000000000000000000000000000000000081526004018080602001828103825260118152602001807f7a6f6e6520686173206e6f206f776e657200000000000000000000000000000081525060200191505060405180910390fd5b6000600d541180156137f65750600060018111156137c457fe5b600080600d54815260200190815260200160002060020160009054906101000a900460ff1660018111156137f457fe5b145b1561380a5761380582826146c0565b613956565b6000600580015414156138aa5761383161012c600560010154612d0890919063ffffffff16565b42116138a5576040517f08c379a000000000000000000000000000000000000000000000000000000000815260040180806020018281038252601f8152602001807f636f6f6c646f776e20706572696f6420646964206e6f7420656e64207965740081525060200191505060405180910390fd5b61394b565b6138d661012c600080600d54815260200190815260200160002060010154612d0890919063ffffffff16565b421161394a576040517f08c379a000000000000000000000000000000000000000000000000000000000815260040180806020018281038252601f8152602001807f636f6f6c646f776e20706572696f6420646964206e6f7420656e64207965740081525060200191505060405180910390fd5b5b61395582826154ae565b5b5050565b600073ffffffffffffffffffffffffffffffffffffffff16600560000160009054906101000a900473ffffffffffffffffffffffffffffffffffffffff1673ffffffffffffffffffffffffffffffffffffffff161415613a22576040517f08c379a00000000000000000000000000000000000000000000000000000000081526004018080602001828103825260118152602001807f7a6f6e6520686173206e6f206f776e657200000000000000000000000000000081525060200191505060405180910390fd5b6000600d541480613a6c5750600180811115613a3a57fe5b600080600d54815260200190815260200160002060020160009054906101000a900460ff166001811115613a6a57fe5b145b613ac1576040517f08c379a0000000000000000000000000000000000000000000000000000000008152600401808060200182810382526023815260200180615f646023913960400191505060405180910390fd5b600060056003015490506000613ae08383612d0890919063ffffffff16565b90508060056003018190555050505050565b6000806000600d548152602001908152602001600020905060018160020160006101000a81548160ff02191690836001811115613b2b57fe5b02179055506000600e6000600d54815260200190815260200160002060008360020160019054906101000a900473ffffffffffffffffffffffffffffffffffffffff1673ffffffffffffffffffffffffffffffffffffffff1673ffffffffffffffffffffffffffffffffffffffff1681526020019081526020016000205490506000806000600d54815260200190815260200160002060010154905060008360020160019054906101000a900473ffffffffffffffffffffffffffffffffffffffff1690508073ffffffffffffffffffffffffffffffffffffffff16600560000160009054906101000a900473ffffffffffffffffffffffffffffffffffffffff1673ffffffffffffffffffffffffffffffffffffffff161415613c9b57613c6183600560020154612d0890919063ffffffff16565b600560020181905550613c8283600560030154612d0890919063ffffffff16565b600560030181905550600d546005800181905550613e59565b613ca56000612d27565b600360009054906101000a900473ffffffffffffffffffffffffffffffffffffffff1673ffffffffffffffffffffffffffffffffffffffff1663f11c2cec82600560000160009054906101000a900473ffffffffffffffffffffffffffffffffffffffff16306040518463ffffffff1660e01b8152600401808473ffffffffffffffffffffffffffffffffffffffff1673ffffffffffffffffffffffffffffffffffffffff1681526020018373ffffffffffffffffffffffffffffffffffffffff1673ffffffffffffffffffffffffffffffffffffffff1681526020018273ffffffffffffffffffffffffffffffffffffffff1673ffffffffffffffffffffffffffffffffffffffff1681526020019350505050600060405180830381600087803b158015613dd357600080fd5b505af1158015613de7573d6000803e3d6000fd5b5050505080600560000160006101000a81548173ffffffffffffffffffffffffffffffffffffffff021916908373ffffffffffffffffffffffffffffffffffffffff160217905550816005600101819055508260056002018190555082600560030181905550600d5460058001819055505b600080613e6c8442600560020154610c29565b91509150613e8882600560030154612ba690919063ffffffff16565b60056003018190555042600560040181905550600360009054906101000a900473ffffffffffffffffffffffffffffffffffffffff1673ffffffffffffffffffffffffffffffffffffffff16637074053f846040518263ffffffff1660e01b8152600401808273ffffffffffffffffffffffffffffffffffffffff1673ffffffffffffffffffffffffffffffffffffffff168152602001915050600060405180830381600087803b158015613f3c57600080fd5b505af1158015613f50573d6000803e3d6000fd5b50505050600360009054906101000a900473ffffffffffffffffffffffffffffffffffffffff1673ffffffffffffffffffffffffffffffffffffffff1663cfb73a796040518163ffffffff1660e01b8152600401600060405180830381600087803b158015613fbe57600080fd5b505af1158015613fd2573d6000803e3d6000fd5b50505050600360009054906101000a900473ffffffffffffffffffffffffffffffffffffffff1673ffffffffffffffffffffffffffffffffffffffff16638b2b6107600b60169054906101000a900460d01b85600d54896040518563ffffffff1660e01b8152600401808579ffffffffffffffffffffffffffffffffffffffffffffffffffff191679ffffffffffffffffffffffffffffffffffffffffffffffffffff191681526020018473ffffffffffffffffffffffffffffffffffffffff1673ffffffffffffffffffffffffffffffffffffffff168152602001838152602001828152602001945050505050600060405180830381600087803b1580156140da57600080fd5b505af11580156140ee573d6000803e3d6000fd5b50505050505050505050565b426005600401541061410b576146be565b60008061412360056004015442600560020154610c29565b9150915060056003015482111561425c57600060056003015490506141486000612d27565b6001809054906101000a900473ffffffffffffffffffffffffffffffffffffffff1673ffffffffffffffffffffffffffffffffffffffff1663a9059cbb600b60009054906101000a900473ffffffffffffffffffffffffffffffffffffffff16836040518363ffffffff1660e01b8152600401808373ffffffffffffffffffffffffffffffffffffffff1673ffffffffffffffffffffffffffffffffffffffff16815260200182815260200192505050602060405180830381600087803b15801561421257600080fd5b505af1158015614226573d6000803e3d6000fd5b505050506040513d602081101561423c57600080fd5b810190808051906020019092919050505061425657600080fd5b506146bb565b61427482600560030154612ba690919063ffffffff16565b60056003018190555042600560040181905550600080600460009054906101000a900473ffffffffffffffffffffffffffffffffffffffff1673ffffffffffffffffffffffffffffffffffffffff16635e52a00b6040518163ffffffff1660e01b8152600401604080518083038186803b1580156142f157600080fd5b505afa158015614305573d6000803e3d6000fd5b505050506040513d604081101561431b57600080fd5b81019080805190602001909291908051906020019092919050505091509150600073ffffffffffffffffffffffffffffffffffffffff168273ffffffffffffffffffffffffffffffffffffffff16141580156143775750600081115b156145a95760006143a56103e86143978488612bc690919063ffffffff16565b612c0090919063ffffffff16565b90506001809054906101000a900473ffffffffffffffffffffffffffffffffffffffff1673ffffffffffffffffffffffffffffffffffffffff1663a9059cbb84836040518363ffffffff1660e01b8152600401808373ffffffffffffffffffffffffffffffffffffffff1673ffffffffffffffffffffffffffffffffffffffff16815260200182815260200192505050602060405180830381600087803b15801561444f57600080fd5b505af1158015614463573d6000803e3d6000fd5b505050506040513d602081101561447957600080fd5b810190808051906020019092919050505061449357600080fd5b6001809054906101000a900473ffffffffffffffffffffffffffffffffffffffff1673ffffffffffffffffffffffffffffffffffffffff1663a9059cbb600b60009054906101000a900473ffffffffffffffffffffffffffffffffffffffff168388036040518363ffffffff1660e01b8152600401808373ffffffffffffffffffffffffffffffffffffffff1673ffffffffffffffffffffffffffffffffffffffff16815260200182815260200192505050602060405180830381600087803b15801561455f57600080fd5b505af1158015614573573d6000803e3d6000fd5b505050506040513d602081101561458957600080fd5b81019080805190602001909291905050506145a357600080fd5b506146b8565b6001809054906101000a900473ffffffffffffffffffffffffffffffffffffffff1673ffffffffffffffffffffffffffffffffffffffff1663a9059cbb600b60009054906101000a900473ffffffffffffffffffffffffffffffffffffffff16866040518363ffffffff1660e01b8152600401808373ffffffffffffffffffffffffffffffffffffffff1673ffffffffffffffffffffffffffffffffffffffff16815260200182815260200192505050602060405180830381600087803b15801561467357600080fd5b505af1158015614687573d6000803e3d6000fd5b505050506040513d602081101561469d57600080fd5b81019080805190602001909291905050506146b757600080fd5b5b50505b50505b565b6000806000600d54815260200190815260200160002090503073ffffffffffffffffffffffffffffffffffffffff16600360009054906101000a900473ffffffffffffffffffffffffffffffffffffffff1673ffffffffffffffffffffffffffffffffffffffff1663b3b6dfff856040518263ffffffff1660e01b8152600401808273ffffffffffffffffffffffffffffffffffffffff1673ffffffffffffffffffffffffffffffffffffffff16815260200191505060206040518083038186803b15801561478e57600080fd5b505afa1580156147a2573d6000803e3d6000fd5b505050506040513d60208110156147b857600080fd5b810190808051906020019092919050505073ffffffffffffffffffffffffffffffffffffffff1614806148f05750600073ffffffffffffffffffffffffffffffffffffffff16600360009054906101000a900473ffffffffffffffffffffffffffffffffffffffff1673ffffffffffffffffffffffffffffffffffffffff1663b3b6dfff856040518263ffffffff1660e01b8152600401808273ffffffffffffffffffffffffffffffffffffffff1673ffffffffffffffffffffffffffffffffffffffff16815260200191505060206040518083038186803b15801561489d57600080fd5b505afa1580156148b1573d6000803e3d6000fd5b505050506040513d60208110156148c757600080fd5b810190808051906020019092919050505073ffffffffffffffffffffffffffffffffffffffff16145b614945576040517f08c379a000000000000000000000000000000000000000000000000000000000815260040180806020018281038252602f815260200180615db4602f913960400191505060405180910390fd5b600073ffffffffffffffffffffffffffffffffffffffff16600360009054906101000a900473ffffffffffffffffffffffffffffffffffffffff1673ffffffffffffffffffffffffffffffffffffffff16637842986e856040518263ffffffff1660e01b8152600401808273ffffffffffffffffffffffffffffffffffffffff1673ffffffffffffffffffffffffffffffffffffffff16815260200191505060206040518083038186803b1580156149fc57600080fd5b505afa158015614a10573d6000803e3d6000fd5b505050506040513d6020811015614a2657600080fd5b810190808051906020019092919050505073ffffffffffffffffffffffffffffffffffffffff161480614b5d57503073ffffffffffffffffffffffffffffffffffffffff16600360009054906101000a900473ffffffffffffffffffffffffffffffffffffffff1673ffffffffffffffffffffffffffffffffffffffff16637842986e856040518263ffffffff1660e01b8152600401808273ffffffffffffffffffffffffffffffffffffffff1673ffffffffffffffffffffffffffffffffffffffff16815260200191505060206040518083038186803b158015614b0a57600080fd5b505afa158015614b1e573d6000803e3d6000fd5b505050506040513d6020811015614b3457600080fd5b810190808051906020019092919050505073ffffffffffffffffffffffffffffffffffffffff16145b614bcf576040517f08c379a000000000000000000000000000000000000000000000000000000000815260040180806020018281038252601f8152602001807f73656e646572206f776e20616c726561647920616e6f74686572207a6f6e650081525060200191505060405180910390fd5b8060020160019054906101000a900473ffffffffffffffffffffffffffffffffffffffff1673ffffffffffffffffffffffffffffffffffffffff168373ffffffffffffffffffffffffffffffffffffffff161415614c95576040517f08c379a00000000000000000000000000000000000000000000000000000000081526004018080602001828103825260198152602001807f68696768657374206269646465722063616e6e6f74206269640000000000000081525060200191505060405180910390fd5b6000600e6000600d54815260200190815260200160002060008360020160019054906101000a900473ffffffffffffffffffffffffffffffffffffffff1673ffffffffffffffffffffffffffffffffffffffff1673ffffffffffffffffffffffffffffffffffffffff168152602001908152602001600020549050600560000160009054906101000a900473ffffffffffffffffffffffffffffffffffffffff1673ffffffffffffffffffffffffffffffffffffffff168473ffffffffffffffffffffffffffffffffffffffff161415614ed6576000614dd084600e6000600d54815260200190815260200160002060008873ffffffffffffffffffffffffffffffffffffffff1673ffffffffffffffffffffffffffffffffffffffff16815260200190815260200160002054612d0890919063ffffffff16565b9050614e0b614dfc6064614dee600586612bc690919063ffffffff16565b612c0090919063ffffffff16565b83612d0890919063ffffffff16565b614e2382600560020154612d0890919063ffffffff16565b11614e79576040517f08c379a000000000000000000000000000000000000000000000000000000000815260040180806020018281038252603d815260200180615f03603d913960400191505060405180910390fd5b80600e6000600d54815260200190815260200160002060008773ffffffffffffffffffffffffffffffffffffffff1673ffffffffffffffffffffffffffffffffffffffff1681526020019081526020016000208190555050615290565b6000600e6000600d54815260200190815260200160002060008673ffffffffffffffffffffffffffffffffffffffff1673ffffffffffffffffffffffffffffffffffffffff16815260200190815260200160002054141561513d57600080614f3d85612b60565b91509150614f7a614f6b6064614f5d600587612bc690919063ffffffff16565b612c0090919063ffffffff16565b84612d0890919063ffffffff16565b8111614fd1576040517f08c379a000000000000000000000000000000000000000000000000000000000815260040180806020018281038252602c815260200180615e3c602c913960400191505060405180910390fd5b80600e6000600d54815260200190815260200160002060008873ffffffffffffffffffffffffffffffffffffffff1673ffffffffffffffffffffffffffffffffffffffff168152602001908152602001600020819055506001809054906101000a900473ffffffffffffffffffffffffffffffffffffffff1673ffffffffffffffffffffffffffffffffffffffff1663a9059cbb600b60009054906101000a900473ffffffffffffffffffffffffffffffffffffffff16846040518363ffffffff1660e01b8152600401808373ffffffffffffffffffffffffffffffffffffffff1673ffffffffffffffffffffffffffffffffffffffff16815260200182815260200192505050602060405180830381600087803b1580156150f257600080fd5b505af1158015615106573d6000803e3d6000fd5b505050506040513d602081101561511c57600080fd5b810190808051906020019092919050505061513657600080fd5b505061528f565b60006151a484600e6000600d54815260200190815260200160002060008873ffffffffffffffffffffffffffffffffffffffff1673ffffffffffffffffffffffffffffffffffffffff16815260200190815260200160002054612d0890919063ffffffff16565b90506151df6151d060646151c2600586612bc690919063ffffffff16565b612c0090919063ffffffff16565b83612d0890919063ffffffff16565b8111615236576040517f08c379a000000000000000000000000000000000000000000000000000000000815260040180806020018281038252602c815260200180615e3c602c913960400191505060405180910390fd5b80600e6000600d54815260200190815260200160002060008773ffffffffffffffffffffffffffffffffffffffff1673ffffffffffffffffffffffffffffffffffffffff16815260200190815260200160002081905550505b5b838260020160016101000a81548173ffffffffffffffffffffffffffffffffffffffff021916908373ffffffffffffffffffffffffffffffffffffffff160217905550600360009054906101000a900473ffffffffffffffffffffffffffffffffffffffff1673ffffffffffffffffffffffffffffffffffffffff1663db62314e856040518263ffffffff1660e01b8152600401808273ffffffffffffffffffffffffffffffffffffffff1673ffffffffffffffffffffffffffffffffffffffff168152602001915050600060405180830381600087803b15801561537457600080fd5b505af1158015615388573d6000803e3d6000fd5b50505050600360009054906101000a900473ffffffffffffffffffffffffffffffffffffffff1673ffffffffffffffffffffffffffffffffffffffff16638fb227e9600b60169054906101000a900460d01b86600d54876040518563ffffffff1660e01b8152600401808579ffffffffffffffffffffffffffffffffffffffffffffffffffff191679ffffffffffffffffffffffffffffffffffffffffffffffffffff191681526020018473ffffffffffffffffffffffffffffffffffffffff1673ffffffffffffffffffffffffffffffffffffffff168152602001838152602001828152602001945050505050600060405180830381600087803b15801561549057600080fd5b505af11580156154a4573d6000803e3d6000fd5b5050505050505050565b600073ffffffffffffffffffffffffffffffffffffffff16600360009054906101000a900473ffffffffffffffffffffffffffffffffffffffff1673ffffffffffffffffffffffffffffffffffffffff1663b3b6dfff846040518263ffffffff1660e01b8152600401808273ffffffffffffffffffffffffffffffffffffffff1673ffffffffffffffffffffffffffffffffffffffff16815260200191505060206040518083038186803b15801561556557600080fd5b505afa158015615579573d6000803e3d6000fd5b505050506040513d602081101561558f57600080fd5b810190808051906020019092919050505073ffffffffffffffffffffffffffffffffffffffff161461560c576040517f08c379a0000000000000000000000000000000000000000000000000000000008152600401808060200182810382526031815260200180615ed26031913960400191505060405180910390fd5b600073ffffffffffffffffffffffffffffffffffffffff16600360009054906101000a900473ffffffffffffffffffffffffffffffffffffffff1673ffffffffffffffffffffffffffffffffffffffff16637842986e846040518263ffffffff1660e01b8152600401808273ffffffffffffffffffffffffffffffffffffffff1673ffffffffffffffffffffffffffffffffffffffff16815260200191505060206040518083038186803b1580156156c357600080fd5b505afa1580156156d7573d6000803e3d6000fd5b505050506040513d60208110156156ed57600080fd5b810190808051906020019092919050505073ffffffffffffffffffffffffffffffffffffffff1614615787576040517f08c379a00000000000000000000000000000000000000000000000000000000081526004018080602001828103825260198152602001807f73656e646572206f776e20616c72656164792061207a6f6e650000000000000081525060200191505060405180910390fd5b60008061579383612b60565b9150915060056002015481116157f4576040517f08c379a0000000000000000000000000000000000000000000000000000000008152600401808060200182810382526024815260200180615eae6024913960400191505060405180910390fd5b6000600d600081546001019190508190559050604051806080016040528042815260200161582d61070842612d0890919063ffffffff16565b81526020016000600181111561583f57fe5b81526020018673ffffffffffffffffffffffffffffffffffffffff16815250600080838152602001908152602001600020600082015181600001556020820151816001015560408201518160020160006101000a81548160ff021916908360018111156158a857fe5b021790555060608201518160020160016101000a81548173ffffffffffffffffffffffffffffffffffffffff021916908373ffffffffffffffffffffffffffffffffffffffff16021790555090505081600e600083815260200190815260200160002060008773ffffffffffffffffffffffffffffffffffffffff1673ffffffffffffffffffffffffffffffffffffffff168152602001908152602001600020819055506001809054906101000a900473ffffffffffffffffffffffffffffffffffffffff1673ffffffffffffffffffffffffffffffffffffffff1663a9059cbb600b60009054906101000a900473ffffffffffffffffffffffffffffffffffffffff16856040518363ffffffff1660e01b8152600401808373ffffffffffffffffffffffffffffffffffffffff1673ffffffffffffffffffffffffffffffffffffffff16815260200182815260200192505050602060405180830381600087803b158015615a1657600080fd5b505af1158015615a2a573d6000803e3d6000fd5b505050506040513d6020811015615a4057600080fd5b8101908080519060200190929190505050615a5a57600080fd5b600360009054906101000a900473ffffffffffffffffffffffffffffffffffffffff1673ffffffffffffffffffffffffffffffffffffffff1663db62314e866040518263ffffffff1660e01b8152600401808273ffffffffffffffffffffffffffffffffffffffff1673ffffffffffffffffffffffffffffffffffffffff168152602001915050600060405180830381600087803b158015615afb57600080fd5b505af1158015615b0f573d6000803e3d6000fd5b50505050600360009054906101000a900473ffffffffffffffffffffffffffffffffffffffff1673ffffffffffffffffffffffffffffffffffffffff1663db62314e600560000160009054906101000a900473ffffffffffffffffffffffffffffffffffffffff166040518263ffffffff1660e01b8152600401808273ffffffffffffffffffffffffffffffffffffffff1673ffffffffffffffffffffffffffffffffffffffff168152602001915050600060405180830381600087803b158015615bd957600080fd5b505af1158015615bed573d6000803e3d6000fd5b50505050600360009054906101000a900473ffffffffffffffffffffffffffffffffffffffff1673ffffffffffffffffffffffffffffffffffffffff1663b3ec5938600b60169054906101000a900460d01b8784886040518563ffffffff1660e01b8152600401808579ffffffffffffffffffffffffffffffffffffffffffffffffffff191679ffffffffffffffffffffffffffffffffffffffffffffffffffff191681526020018473ffffffffffffffffffffffffffffffffffffffff1673ffffffffffffffffffffffffffffffffffffffff168152602001838152602001828152602001945050505050600060405180830381600087803b158015615cf357600080fd5b505af1158015615d07573d6000803e3d6000fd5b505050505050505050565b6040518060800160405280600081526020016000815260200160006001811115615d3857fe5b8152602001600073ffffffffffffffffffffffffffffffffffffffff168152509056fe6e656564206174206c65617374206d696e696d756d207a6f6e65207374616b6520616d6f756e742028313030204454482963616e6e6f74207769746864726177207768696c652061756374696f6e2069732061637469766573656e6465722069732063757272656e746c7920696e766f6c76656420696e20616e6f746865722061756374696f6e7a6f6e6520647468207374616b652073686f756c6c64206265206174206c65617374206d696e696d756d20283130304454482961756374696f6e496473206c697374206973206c6f6e676572207468616e20616c6c6f776564626964206973206c657373207468616e2063757272656e742068696768657374202b204d494e5f524149534563616e6e6f742072656c65617365207768696c652061756374696f6e2072756e6e696e6763616e206f6e6c792062652063616c6c65642062792064746820636f6e7472616374626964206973206c6f776572207468616e2063757272656e74207a6f6e65207374616b6573656e6465722069732063757272656e746c7920696e766f6c76656420696e20616e2061756374696f6e20285a6f6e6529626964202b20616c7265616479207374616b6564206973206c657373207468616e2063757272656e742068696768657374202b204d494e5f524149534563616e6e6f742077697468647261772066726f6d2072756e6e696e672061756374696f6e63616e6e6f7420746f70207570207768696c652061756374696f6e2072756e6e696e67a265627a7a72305820c899687031a7693358072e797ef9ac687e3cea3814e8ff449a7b6a9d005ca99c64736f6c634300050a0032",
  "source": "pragma solidity ^0.5.10;\n\nimport \"openzeppelin-solidity/contracts/math/SafeMath.sol\";\n\nimport \"../interfaces/IERC223ReceivingContract.sol\";\nimport \"../interfaces/IDetherToken.sol\";\nimport \"../interfaces/IGeoRegistry.sol\";\nimport \"../interfaces/IZoneFactory.sol\";\nimport \"../interfaces/IZone.sol\";\nimport \"../interfaces/ITeller.sol\";\n\ncontract Zone is IERC223ReceivingContract {\n  // ------------------------------------------------\n  //\n  // Library init\n  //\n  // ------------------------------------------------\n\n  using SafeMath for uint;\n\n  // ------------------------------------------------\n  //\n  // Enums\n  //\n  // ------------------------------------------------\n\n  enum AuctionState { Started, Ended }\n\n  // ------------------------------------------------\n  //\n  // Structs\n  //\n  // ------------------------------------------------\n\n  // NOTE:\n  // evm will convert to uint256 when doing calculations, so 1 time higher storage cost\n  // will be less than all the increased gas costs if we were to use smaller uints in the struct\n\n  struct ZoneOwner {\n    address addr;\n    uint startTime;\n    uint staked;\n    uint balance;\n    uint lastTaxTime;\n    uint auctionId;\n  }\n\n  struct Auction {\n    // since we do a lot of calcuations with these uints, it's best to leave them uint256\n    // evm will convert to uint256 anyways when doing calculations\n    uint startTime;\n    uint endTime;\n    AuctionState state;\n    address highestBidder;\n  }\n\n\n  mapping(uint => Auction) private auctionIdToAuction;\n  // ------------------------------------------------\n  //\n  // Variables Public\n  //\n  // ------------------------------------------------\n\n  uint public constant MIN_STAKE = 100 * 1 ether; // DTH, which is also 18 decimals!\n  // uint private constant BID_PERIOD = 24 * 1 hours; // mainnet params\n  // uint private constant COOLDOWN_PERIOD = 48 * 1 hours; // mainnet params\n  uint public constant BID_PERIOD = 30 * 1 minutes; // testnet params\n  uint public constant COOLDOWN_PERIOD = 5 * 1 minutes; // testnet params\n  uint public constant ENTRY_FEE_PERCENTAGE = 5; // 1%\n  uint public constant TAX_PERCENTAGE = 4; // 0,04% daily / around 15% yearly\n  \n  uint public constant MIN_RAISE = 5; // everybid should raise at least 5%\n\n  bool private inited;\n\n\n  IDetherToken public dth;\n  IGeoRegistry public geo;\n  IZoneFactory public zoneFactory;\n  ITeller public teller;\n  ZoneOwner public zoneOwner;\n  address public taxCollector;\n\n  bytes2 public country;\n  bytes6 public geohash;\n\n  mapping(address => uint) public withdrawableDth;\n\n  uint public currentAuctionId; // starts at 0, first auction will get id 1, etc.\n\n  //      auctionId       bidder     dthAmount\n  mapping(uint => mapping(address => uint)) public auctionBids;\n\n\n  // ------------------------------------------------\n  //\n  // Modifiers\n  //\n  // ------------------------------------------------\n\n  modifier onlyWhenInited() {\n    require(inited == true, \"contract not yet initialized\");\n    _;\n  }\n  modifier onlyWhenNotInited() {\n    require(inited == false, \"contract already initialized\");\n    _;\n  }\n\n  modifier onlyWhenZoneEnabled {\n    require(geo.zoneIsEnabled(country), \"country is disabled\");\n    _;\n  }\n\n  modifier updateState {\n    _processState();\n    _;\n  }\n\n  modifier onlyWhenZoneHasOwner {\n    require(zoneOwner.addr != address(0), \"zone has no owner\");\n    _;\n  }\n\n  modifier onlyWhenCallerIsZoneOwner {\n    require(msg.sender == zoneOwner.addr, \"caller is not zoneowner\");\n    _;\n  }\n\n  modifier onlyByTellerContract {\n    require(msg.sender == address(teller), \"can only be called by teller contract\");\n    _;\n  }\n\n  modifier onlyWhenZoneHasNoOwner {\n    require(zoneOwner.addr == address(0), \"can not claim zone with owner\");\n    _;\n  }\n\n  // ------------------------------------------------\n  //\n  // Constructor\n  //\n  // ------------------------------------------------\n\n  // executed by ZoneFactory.sol when this Zone does not yet exist (= not yet deployed)\n  function init(\n    bytes2 _countryCode,\n    bytes6 _geohash,\n    address _zoneOwner,\n    uint _dthAmount,\n    address _dth,\n    address _geo,\n    address _zoneFactory,\n    address _taxCollector,\n    address _teller\n  )\n    onlyWhenNotInited\n    external\n  {\n    require(_dthAmount >= MIN_STAKE, \"zone dth stake shoulld be at least minimum (100DTH)\");\n\n    country = _countryCode;\n    geohash = _geohash;\n\n    dth = IDetherToken(_dth);\n    geo = IGeoRegistry(_geo);\n    zoneFactory = IZoneFactory(_zoneFactory);\n    taxCollector = _taxCollector;\n\n    zoneOwner.addr = _zoneOwner;\n    zoneOwner.startTime = now;\n    zoneOwner.staked = _dthAmount;\n    zoneOwner.balance = _dthAmount;\n    zoneOwner.lastTaxTime = now;\n    zoneOwner.auctionId = 0; // was not gained by winning an auction\n\n    inited = true;\n    currentAuctionId = 0;\n    teller = ITeller(_teller);\n  }\n\n  // ------------------------------------------------\n  //\n  // Functions Getters Public\n  //\n  // ------------------------------------------------\n\n  function ownerAddr()\n    external view\n    returns (address)\n  {\n    return zoneOwner.addr;\n  }\n\n  function calcHarbergerTax(uint _startTime, uint _endTime, uint _dthAmount)\n    public\n    view\n    returns (uint taxAmount, uint keepAmount)\n  {\n    // TODO use smaller uint variables, hereby preventing under/overflows, so no need for SafeMath\n    // source: https://programtheblockchain.com/posts/2018/09/19/implementing-harberger-tax-deeds/\n    taxAmount = _dthAmount.mul(_endTime.sub(_startTime)).mul(TAX_PERCENTAGE).div(10000).div(1 days);\n    keepAmount = _dthAmount.sub(taxAmount);\n  }\n\n  function calcEntryFee(uint _value)\n    public\n    view\n    returns (uint burnAmount, uint bidAmount)\n  {\n    burnAmount = _value.mul(ENTRY_FEE_PERCENTAGE).div(100); // 1%\n    bidAmount = _value.sub(burnAmount); // 99%\n  }\n\n  function auctionExists(uint _auctionId)\n    external\n    view\n    returns (bool)\n  {\n    // if aucton does not exist we should get back zero, otherwise this field\n    // will contain a block.timestamp, set whe creating an Auction, in constructor() and bid()\n    return auctionIdToAuction[_auctionId].startTime > 0;\n  }\n\n  /// @notice get current zone owner data\n  function getZoneOwner()\n    external\n    view\n    returns (address, uint, uint, uint, uint, uint)\n  {\n    return (\n      zoneOwner.addr,        // address of current owner\n      zoneOwner.startTime,   // time this address became owner\n      zoneOwner.staked,      // \"price you sell at\"\n      zoneOwner.balance,     // will decrease whenever harberger taxes are paid\n      zoneOwner.lastTaxTime, // time until taxes have been paid\n      zoneOwner.auctionId    // if gained by winning auction, the auction id, otherwise zero\n    );\n  }\n\n  /// @notice get a specific auction\n  function getAuction(uint _auctionId)\n    public\n    view\n    returns (uint, uint, uint, uint, address, uint)\n  {\n    require(_auctionId > 0 && _auctionId <= currentAuctionId, \"auction does not exist\");\n\n    Auction memory auction = auctionIdToAuction[_auctionId];\n\n    uint highestBid = auctionBids[_auctionId][auction.highestBidder];\n\n    // If auction is ongoing, for current zone owner his existing zone stake is added to his bid\n    if (auction.state == AuctionState.Started &&\n        auction.highestBidder == zoneOwner.addr)\n    {\n      highestBid = highestBid.add(zoneOwner.staked);\n    }\n\n    return (\n      _auctionId,\n      uint(auction.state),\n      auction.startTime,\n      auction.endTime,\n      auction.highestBidder,\n      highestBid\n    );\n  }\n\n  /// @notice get the last auction\n  function getLastAuction()\n    external view\n    returns (uint, uint, uint, uint, address, uint)\n  {\n    return getAuction(currentAuctionId);\n  }\n\n  // ------------------------------------------------\n  //\n  // Functions Utils\n  //\n  // ------------------------------------------------\n\n  function toBytes1(bytes memory _bytes, uint _start)\n    private pure\n    returns (bytes1) {\n      require(_bytes.length >= (_start + 1), \" not long enough\");\n      bytes1 tempBytes1;\n\n      assembly {\n          tempBytes1 := mload(add(add(_bytes, 0x20), _start))\n      }\n\n      return tempBytes1;\n  }\n\n\n  // ------------------------------------------------\n  //\n  // Functions Setters Private\n  //\n  // ------------------------------------------------\n\n  function _removeZoneOwner(bool fromRelease)\n    private\n  {\n    // if we call this function from release() we shouldn't update withdrawableDth as we already send dth \n    if (!fromRelease) {\n      withdrawableDth[zoneOwner.addr] = withdrawableDth[zoneOwner.addr].add(zoneOwner.balance);\n    }\n\n    if (teller.hasTeller()) {\n      teller.removeTellerByZone();\n    }\n    zoneFactory.changeOwner(address(0), zoneOwner.addr, address(0));\n    delete zoneOwner;\n  }\n  /*\n   * calculate harberger taxes and send dth to taxCollector and referrer (if exist)\n   */\n  function _handleTaxPayment()\n    private\n  {\n    // processState ensured that: no running auction + there is a zone owner\n\n    if (zoneOwner.lastTaxTime >= now) {\n      return; // short-circuit: multiple txes in 1 block OR many blocks but in same Auction\n    }\n\n    (uint taxAmount, uint keepAmount) = calcHarbergerTax(zoneOwner.lastTaxTime, now, zoneOwner.staked);\n\n    if (taxAmount > zoneOwner.balance) {\n      // zone owner does not have enough balance, remove him as zone owner\n      uint oldZoneOwnerBalance = zoneOwner.balance;\n      _removeZoneOwner(false);\n\n      require(dth.transfer(taxCollector, oldZoneOwnerBalance));\n    } else {\n      // zone owner can pay due taxes\n      zoneOwner.balance = zoneOwner.balance.sub(taxAmount);\n      zoneOwner.lastTaxTime = now;\n      (address referrer, uint refFee) = teller.getReferrer();\n      if (referrer != address(0x00) && refFee > 0) {\n        uint referralFee =  taxAmount.mul(refFee).div(1000) ;\n        require(dth.transfer(referrer, referralFee));\n        require(dth.transfer(taxCollector, taxAmount - referralFee));\n      } else {\n        require(dth.transfer(taxCollector, taxAmount));\n      }\n    }\n  }\n\n  /*\n   * Called when auction is ended by _processState()\n   * update the state with new owner and new bid\n   */\n  function _endAuction()\n    private\n  {\n    Auction storage lastAuction = auctionIdToAuction[currentAuctionId];\n\n    lastAuction.state = AuctionState.Ended;\n\n    uint highestBid = auctionBids[currentAuctionId][lastAuction.highestBidder];\n    uint auctionEndTime = auctionIdToAuction[currentAuctionId].endTime;\n    address highestBidder = lastAuction.highestBidder;\n\n    if (zoneOwner.addr == highestBidder) {\n      // current zone owner won the auction, extend his zone ownershp\n      zoneOwner.staked = zoneOwner.staked.add(highestBid);\n      zoneOwner.balance = zoneOwner.balance.add(highestBid);\n\n      // need to set it since it might've been zero\n      zoneOwner.auctionId = currentAuctionId; // the (last) auctionId that gave the zoneOwner zone ownership\n    } else {\n      // we need to update the zone owner\n      _removeZoneOwner(false);\n      zoneFactory.changeOwner(highestBidder, zoneOwner.addr, address(this));\n      zoneOwner.addr = highestBidder;\n      zoneOwner.startTime = auctionEndTime;\n      zoneOwner.staked = highestBid; // entry fee is already deducted when user calls bid()\n      zoneOwner.balance = highestBid;\n      zoneOwner.auctionId = currentAuctionId; // the auctionId that gave the zoneOwner zone ownership\n    }\n\n    // (new) zone owner needs to pay taxes from the moment he acquires zone ownership until now\n    (uint taxAmount, uint keepAmount) = calcHarbergerTax(auctionEndTime, now, zoneOwner.staked);\n    zoneOwner.balance = zoneOwner.balance.sub(taxAmount);\n    zoneOwner.lastTaxTime = now;\n    zoneFactory.removeActiveBidder(highestBidder);\n    zoneFactory.removeCurrentZoneBidder();\n    zoneFactory.emitAuctionEnded(geohash, highestBidder, currentAuctionId,  highestBid);\n  }\n  function processState()\n    external\n    /* onlyByTellerContract */\n  {\n    _processState();\n  }\n\n  /// @notice private function to update the current auction state\n  function _processState()\n    private\n  {\n    if (currentAuctionId > 0 && auctionIdToAuction[currentAuctionId].state == AuctionState.Started) {\n      // while uaction is running, no taxes need to be paid\n\n      // handling of taxes around change of zone ownership are handled inside _endAuction\n      if (now >= auctionIdToAuction[currentAuctionId].endTime) _endAuction();\n    } else { // no running auction, currentAuctionId could be zero\n      if (zoneOwner.addr != address(0)) _handleTaxPayment();\n    }\n  }\n\n  function _joinAuction(address _sender, uint _dthAmount)\n    private\n  {\n    Auction storage lastAuction = auctionIdToAuction[currentAuctionId];\n\n    //------------------------------------------------------------------------------//\n    // there is a running auction, lets see if we can join the auction with our bid //\n    //------------------------------------------------------------------------------//\n\n    require(zoneFactory.activeBidderToZone(_sender) == address(this)\n    || zoneFactory.activeBidderToZone(_sender) == address(0), \"sender is currently involved in another auction\");\n    require(zoneFactory.ownerToZone(_sender) == address(0)\n    || zoneFactory.ownerToZone(_sender) == address(this), \"sender own already another zone\");\n\n    require(_sender != lastAuction.highestBidder, \"highest bidder cannot bid\");\n\n    uint currentHighestBid = auctionBids[currentAuctionId][lastAuction.highestBidder];\n\n\n    if (_sender == zoneOwner.addr) {\n      uint dthAddedBidsAmount = auctionBids[currentAuctionId][_sender].add(_dthAmount); \n      // the current zone owner's stake also counts in his bid\n      require(zoneOwner.staked.add(dthAddedBidsAmount) > currentHighestBid.add(currentHighestBid.mul(MIN_RAISE).div(100)), \"bid + already staked is less than current highest + MIN_RAISE\");\n\n      auctionBids[currentAuctionId][_sender] = dthAddedBidsAmount;\n    } else {\n      // _sender is not the current zone owner\n      if (auctionBids[currentAuctionId][_sender] == 0) {\n        // this is the first bid of this challenger, deduct entry fee\n        (uint burnAmount, uint bidAmount) = calcEntryFee(_dthAmount);\n        require(bidAmount > currentHighestBid.add(currentHighestBid.mul(MIN_RAISE).div(100)), \"bid is less than current highest + MIN_RAISE\");\n\n        auctionBids[currentAuctionId][_sender] = bidAmount;\n        require(dth.transfer(taxCollector, burnAmount));\n      } else {\n        // not the first bid, no entry fee\n        uint newUserTotalBid = auctionBids[currentAuctionId][_sender].add(_dthAmount);\n        require(newUserTotalBid > currentHighestBid.add(currentHighestBid.mul(MIN_RAISE).div(100)), \"bid is less than current highest + MIN_RAISE\");\n\n        auctionBids[currentAuctionId][_sender] = newUserTotalBid;\n      }\n    }\n\n    // it worked, _sender placed a bid\n    lastAuction.highestBidder = _sender;\n    zoneFactory.fillCurrentZoneBidder(_sender);\n    zoneFactory.emitBid(geohash, _sender, currentAuctionId, _dthAmount);\n  }\n  function _createAuction(address _sender, uint _dthAmount)\n    private\n  {\n    require(zoneFactory.activeBidderToZone(_sender) == address(0), \"sender is currently involved in an auction (Zone)\");\n    require(zoneFactory.ownerToZone(_sender) == address(0), \"sender own already a zone\");\n\n    (uint burnAmount, uint bidAmount) = calcEntryFee(_dthAmount);\n    require(bidAmount > zoneOwner.staked, \"bid is lower than current zone stake\");\n\n    // save the new Auction\n    uint newAuctionId = ++currentAuctionId;\n\n    auctionIdToAuction[newAuctionId] = Auction({\n      state: AuctionState.Started,\n      startTime: now,\n      endTime: now.add(BID_PERIOD),\n      highestBidder: _sender // caller (challenger)\n    });\n\n    auctionBids[newAuctionId][_sender] = bidAmount;\n\n    require(dth.transfer(taxCollector, burnAmount));\n    //\n    zoneFactory.fillCurrentZoneBidder(_sender);\n    zoneFactory.fillCurrentZoneBidder(zoneOwner.addr);\n    zoneFactory.emitAuctionCreated(geohash, _sender, newAuctionId, _dthAmount);\n  }\n  /// @notice private function to update the current auction state\n  function _bid(address _sender, uint _dthAmount) // GAS COST +/- 223.689\n    private\n    onlyWhenZoneHasOwner\n  {\n    if (currentAuctionId > 0 && auctionIdToAuction[currentAuctionId].state == AuctionState.Started) {\n      _joinAuction(_sender, _dthAmount);\n    } else { // there currently is no running auction\n      if (zoneOwner.auctionId == 0) {\n        // current zone owner did not become owner by winning an auction, but by creating this zone or caliming it when it was free\n        require(now > zoneOwner.startTime.add(COOLDOWN_PERIOD), \"cooldown period did not end yet\");\n      } else {\n        // current zone owner became owner by winning an auction (which has ended)\n        require(now > auctionIdToAuction[currentAuctionId].endTime.add(COOLDOWN_PERIOD), \"cooldown period did not end yet\");\n      }\n      _createAuction(_sender, _dthAmount);\n    }\n  }\n\n  function _claimFreeZone(address _sender, uint _dthAmount) // GAS COSt +/- 177.040\n    private\n    onlyWhenZoneHasNoOwner\n  {\n    require(_dthAmount >= MIN_STAKE, \"need at least minimum zone stake amount (100 DTH)\");\n    require(zoneFactory.ownerToZone(_sender) == address(0), \"sender own already one zone\");\n\n    // NOTE: empty zone claim will not have entry fee deducted, its not bidding it's taking immediately\n    zoneFactory.changeOwner(_sender, zoneOwner.addr, address(this));\n    zoneOwner.addr = _sender;\n    zoneOwner.startTime = now;\n    zoneOwner.staked = _dthAmount;\n    zoneOwner.balance = _dthAmount;\n    zoneOwner.lastTaxTime = now;\n    zoneOwner.auctionId = 0; // since it was not gained wby winning an auction\n    zoneFactory.emitClaimFreeZone(geohash, _sender, _dthAmount);\n  }\n\n  function _topUp(address _sender, uint _dthAmount) // GAS COST +/- 104.201\n    private\n    onlyWhenZoneHasOwner\n  {\n    // require(_sender == zoneOwner.addr, \"caller is not zoneowner\");\n    require(currentAuctionId == 0 || auctionIdToAuction[currentAuctionId].state == AuctionState.Ended, \"cannot top up while auction running\");\n\n    uint oldBalance = zoneOwner.balance;\n    uint newBalance = oldBalance.add(_dthAmount);\n    zoneOwner.balance = newBalance;\n\n    // a zone owner can currently keep calling this to increase his dth balance inside the zone\n    // without a change in his sell price (= zone.staked) or tax amount he needs to pay\n  }\n\n  // ------------------------------------------------\n  //\n  // Functions Setters Public\n  //\n  // ------------------------------------------------\n\n  /// @notice ERC223 receiving function called by Dth contract when Eth is sent to this contract\n  /// @param _from Who send DTH to this contract\n  /// @param _value How much DTH was sent to this contract\n  /// @param _data Additional bytes data sent\n  function tokenFallback(address _from, uint _value, bytes memory _data)\n    public\n    onlyWhenInited\n    onlyWhenZoneEnabled\n  {\n    require(msg.sender == address(dth), \"can only be called by dth contract\");\n    // require caller neither zone owner, neither active bidder\n\n    bytes1 func = toBytes1(_data, 0);\n\n    // require(func == bytes1(0x40) || func == bytes1(0x41) || func == bytes1(0x42) || func == bytes1(0x43), \"did not match Zone function\");\n\n    // if (func == bytes1(0x40)) { // zone was created by factory, sending through DTH\n    //   return; // just retun success\n    // }\n\n    _processState();\n\n    if (func == bytes1(0x41)) { // claimFreeZone\n      _claimFreeZone(_from, _value);\n    } else if (func == bytes1(0x42)) { // bid\n      _bid(_from, _value);\n    } else if (func == bytes1(0x43)) { // topUp\n      _topUp(_from, _value);\n    }\n  }\n\n  /// @notice release zone ownership\n  /// @dev can only be called by current zone owner, when there is no running auction\n  function release() // GAS COST +/- 72.351\n    external\n    // onlyWhenInited\n    updateState\n    onlyWhenCallerIsZoneOwner\n  {\n    // allow also when country is disabled, otherwise no way for zone owner to get their eth/dth back\n\n    require(currentAuctionId == 0 || auctionIdToAuction[currentAuctionId].state == AuctionState.Ended, \"cannot release while auction running\");\n\n    uint ownerBalance = zoneOwner.balance;\n\n    _removeZoneOwner(true);\n\n    // if msg.sender is a contract, the DTH ERC223 contract will try to call tokenFallback\n    // on msg.sender, this could lead to a reentrancy. But we prevent this by resetting\n    // zoneOwner before we do dth.transfer(msg.sender)\n    require(dth.transfer(msg.sender, ownerBalance));\n    zoneFactory.emitReleaseZone(geohash, msg.sender);\n  }\n\n  // offer three different withdraw functions, single auction, multiple auctions, all auctions\n\n  /// @notice withdraw losing bids from a specific auction\n  /// @param _auctionId The auction id\n  function withdrawFromAuction(uint _auctionId) // GAS COST +/- 125.070\n    external\n    // onlyWhenInited\n    updateState\n  {\n    // even when country is disabled, otherwise users cannot withdraw their bids\n    require(_auctionId > 0 && _auctionId <= currentAuctionId, \"auctionId does not exist\");\n\n    require(auctionIdToAuction[_auctionId].state == AuctionState.Ended, \"cannot withdraw while auction is active\");\n    require(auctionIdToAuction[_auctionId].highestBidder != msg.sender, \"auction winner can not withdraw\");\n    require(auctionBids[_auctionId][msg.sender] > 0, \"nothing to withdraw\");\n\n    uint withdrawAmount = auctionBids[_auctionId][msg.sender];\n    auctionBids[_auctionId][msg.sender] = 0;\n    if (withdrawableDth[msg.sender] > 0) {\n      withdrawAmount = withdrawAmount.add(withdrawableDth[msg.sender]);\n      withdrawableDth[msg.sender] = 0;\n    }\n    zoneFactory.removeActiveBidder(msg.sender);\n    require(dth.transfer(msg.sender, withdrawAmount));\n  }\n\n  /// @notice withdraw from a given list of auction ids\n  function withdrawFromAuctions(uint[] calldata _auctionIds) // GAS COST +/- 127.070\n    external\n    // onlyWhenInited\n    updateState\n  {\n    // even when country is disabled, can withdraw\n    require(currentAuctionId > 0, \"there are no auctions\");\n\n    require(_auctionIds.length > 0, \"auctionIds list is empty\");\n    require(_auctionIds.length <= currentAuctionId, \"auctionIds list is longer than allowed\");\n\n    uint withdrawAmountTotal = 0;\n\n    for (uint idx = 0; idx < _auctionIds.length; idx++) {\n      uint auctionId = _auctionIds[idx];\n      require(auctionId > 0 && auctionId <= currentAuctionId, \"auctionId does not exist\");\n      require(auctionIdToAuction[auctionId].state == AuctionState.Ended, \"cannot withdraw from running auction\");\n      require(auctionIdToAuction[auctionId].highestBidder != msg.sender, \"auction winner can not withdraw\");\n      uint withdrawAmount = auctionBids[auctionId][msg.sender];\n      if (withdrawAmount > 0) {\n        // if user supplies the same auctionId multiple times in auctionIds,\n        // only the first one will get a withdrawal amount\n        auctionBids[auctionId][msg.sender] = 0;\n        withdrawAmountTotal = withdrawAmountTotal.add(withdrawAmount);\n      }\n    }\n    if (withdrawableDth[msg.sender] > 0) {\n      withdrawAmountTotal = withdrawAmountTotal.add(withdrawableDth[msg.sender]);\n      withdrawableDth[msg.sender] = 0;\n    }\n    zoneFactory.removeActiveBidder(msg.sender);\n\n    require(withdrawAmountTotal > 0, \"nothing to withdraw\");\n\n    require(dth.transfer(msg.sender, withdrawAmountTotal));\n  }\n\n  // - bids in past auctions\n  // - zone owner stake\n  function withdrawDth()\n    external\n    // onlyWhenInited\n    updateState\n  {\n    uint dthWithdraw = withdrawableDth[msg.sender];\n    require(dthWithdraw > 0, \"nothing to withdraw\");\n    zoneFactory.removeActiveBidder(msg.sender);\n    if (dthWithdraw > 0) {\n      withdrawableDth[msg.sender] = 0;\n      require(dth.transfer(msg.sender, dthWithdraw));\n    }\n  }\n}\n",
  "sourcePath": "/Users/mehdi/code/dether/contractV2/contracts/core/Zone.sol",
  "compiler": {
    "name": "solc",
    "version": "0.5.10+commit.5a6ea5b1.Emscripten.clang"
  },
  "schemaVersion": "3.0.13",
  "updatedAt": "2019-08-27T14:48:24.599Z",
  "devdoc": {
    "methods": {
      "release()": {
        "details": "can only be called by current zone owner, when there is no running auction"
      },
      "tokenFallback(address,uint256,bytes)": {
        "params": {
          "_data": "Additional bytes data sent",
          "_from": "Who send DTH to this contract",
          "_value": "How much DTH was sent to this contract"
        }
      },
      "withdrawFromAuction(uint256)": {
        "params": {
          "_auctionId": "The auction id"
        }
      }
    }
  },
  "userdoc": {
    "methods": {
      "getAuction(uint256)": {
        "notice": "get a specific auction"
      },
      "getLastAuction()": {
        "notice": "get the last auction"
      },
      "getZoneOwner()": {
        "notice": "get current zone owner data"
      },
      "release()": {
        "notice": "release zone ownership"
      },
      "tokenFallback(address,uint256,bytes)": {
        "notice": "ERC223 receiving function called by Dth contract when Eth is sent to this contract"
      },
      "withdrawFromAuction(uint256)": {
        "notice": "withdraw losing bids from a specific auction"
      },
      "withdrawFromAuctions(uint256[])": {
        "notice": "withdraw from a given list of auction ids"
      }
    }
  }
}